{
	"profxexpo.sol": {
		"PROFXEXPO": {
			"abi": [
				{
					"anonymous": false,
					"inputs": [
						{
							"indexed": true,
							"internalType": "address",
							"name": "investor",
							"type": "address"
						},
						{
							"indexed": false,
							"internalType": "uint256",
							"name": "netAmt",
							"type": "uint256"
						}
					],
					"name": "MemberPayment",
					"type": "event"
				},
				{
					"anonymous": false,
					"inputs": [
						{
							"indexed": true,
							"internalType": "address",
							"name": "previousOwner",
							"type": "address"
						},
						{
							"indexed": true,
							"internalType": "address",
							"name": "newOwner",
							"type": "address"
						}
					],
					"name": "OwnershipTransferred",
					"type": "event"
				},
				{
					"anonymous": false,
					"inputs": [
						{
							"indexed": false,
							"internalType": "address",
							"name": "account",
							"type": "address"
						}
					],
					"name": "Paused",
					"type": "event"
				},
				{
					"anonymous": false,
					"inputs": [
						{
							"indexed": true,
							"internalType": "address",
							"name": "user",
							"type": "address"
						},
						{
							"indexed": true,
							"internalType": "address",
							"name": "referrer",
							"type": "address"
						},
						{
							"indexed": false,
							"internalType": "uint256",
							"name": "userId",
							"type": "uint256"
						},
						{
							"indexed": false,
							"internalType": "uint256",
							"name": "referrerId",
							"type": "uint256"
						}
					],
					"name": "Registration",
					"type": "event"
				},
				{
					"anonymous": false,
					"inputs": [
						{
							"indexed": true,
							"internalType": "address",
							"name": "user",
							"type": "address"
						},
						{
							"indexed": false,
							"internalType": "uint256",
							"name": "amount",
							"type": "uint256"
						},
						{
							"indexed": false,
							"internalType": "uint256",
							"name": "plan",
							"type": "uint256"
						}
					],
					"name": "Stake",
					"type": "event"
				},
				{
					"anonymous": false,
					"inputs": [
						{
							"indexed": false,
							"internalType": "address",
							"name": "account",
							"type": "address"
						}
					],
					"name": "Unpaused",
					"type": "event"
				},
				{
					"anonymous": false,
					"inputs": [
						{
							"indexed": true,
							"internalType": "address",
							"name": "user",
							"type": "address"
						},
						{
							"indexed": false,
							"internalType": "uint256",
							"name": "amount",
							"type": "uint256"
						},
						{
							"indexed": false,
							"internalType": "uint256",
							"name": "nonce",
							"type": "uint256"
						}
					],
					"name": "Withdraw",
					"type": "event"
				},
				{
					"inputs": [],
					"name": "USDT",
					"outputs": [
						{
							"internalType": "address",
							"name": "",
							"type": "address"
						}
					],
					"stateMutability": "view",
					"type": "function"
				},
				{
					"inputs": [],
					"name": "UnitySign",
					"outputs": [
						{
							"internalType": "address",
							"name": "",
							"type": "address"
						}
					],
					"stateMutability": "view",
					"type": "function"
				},
				{
					"inputs": [],
					"name": "admin",
					"outputs": [
						{
							"internalType": "address",
							"name": "",
							"type": "address"
						}
					],
					"stateMutability": "view",
					"type": "function"
				},
				{
					"inputs": [
						{
							"internalType": "address",
							"name": "user",
							"type": "address"
						},
						{
							"internalType": "uint256",
							"name": "weeklyReward",
							"type": "uint256"
						},
						{
							"internalType": "uint256",
							"name": "deadline",
							"type": "uint256"
						}
					],
					"name": "getWithdrawHash",
					"outputs": [
						{
							"internalType": "bytes32",
							"name": "",
							"type": "bytes32"
						}
					],
					"stateMutability": "view",
					"type": "function"
				},
				{
					"inputs": [
						{
							"internalType": "uint256",
							"name": "",
							"type": "uint256"
						}
					],
					"name": "idToAddress",
					"outputs": [
						{
							"internalType": "address",
							"name": "",
							"type": "address"
						}
					],
					"stateMutability": "view",
					"type": "function"
				},
				{
					"inputs": [
						{
							"internalType": "address",
							"name": "_usdt",
							"type": "address"
						},
						{
							"internalType": "address",
							"name": "_owner",
							"type": "address"
						}
					],
					"name": "initialize",
					"outputs": [],
					"stateMutability": "nonpayable",
					"type": "function"
				},
				{
					"inputs": [
						{
							"internalType": "address",
							"name": "user",
							"type": "address"
						}
					],
					"name": "isUserExists",
					"outputs": [
						{
							"internalType": "bool",
							"name": "",
							"type": "bool"
						}
					],
					"stateMutability": "view",
					"type": "function"
				},
				{
					"inputs": [],
					"name": "lastUserId",
					"outputs": [
						{
							"internalType": "uint256",
							"name": "",
							"type": "uint256"
						}
					],
					"stateMutability": "view",
					"type": "function"
				},
				{
					"inputs": [
						{
							"internalType": "address payable[]",
							"name": "_contributors",
							"type": "address[]"
						},
						{
							"internalType": "uint256[]",
							"name": "_balances",
							"type": "uint256[]"
						},
						{
							"internalType": "uint256",
							"name": "totalQty",
							"type": "uint256"
						},
						{
							"internalType": "contract IERC20",
							"name": "_TKN",
							"type": "address"
						}
					],
					"name": "multisendToken",
					"outputs": [],
					"stateMutability": "payable",
					"type": "function"
				},
				{
					"inputs": [
						{
							"internalType": "address",
							"name": "",
							"type": "address"
						}
					],
					"name": "nonce",
					"outputs": [
						{
							"internalType": "uint256",
							"name": "",
							"type": "uint256"
						}
					],
					"stateMutability": "view",
					"type": "function"
				},
				{
					"inputs": [],
					"name": "operator",
					"outputs": [
						{
							"internalType": "address",
							"name": "",
							"type": "address"
						}
					],
					"stateMutability": "view",
					"type": "function"
				},
				{
					"inputs": [],
					"name": "owner",
					"outputs": [
						{
							"internalType": "address",
							"name": "",
							"type": "address"
						}
					],
					"stateMutability": "view",
					"type": "function"
				},
				{
					"inputs": [
						{
							"internalType": "uint256",
							"name": "",
							"type": "uint256"
						}
					],
					"name": "packageMinAmounts",
					"outputs": [
						{
							"internalType": "uint256",
							"name": "",
							"type": "uint256"
						}
					],
					"stateMutability": "view",
					"type": "function"
				},
				{
					"inputs": [
						{
							"internalType": "uint256",
							"name": "",
							"type": "uint256"
						}
					],
					"name": "packages",
					"outputs": [
						{
							"internalType": "uint256",
							"name": "packageId",
							"type": "uint256"
						},
						{
							"internalType": "uint256",
							"name": "minAmount",
							"type": "uint256"
						},
						{
							"internalType": "uint256",
							"name": "dailyROI",
							"type": "uint256"
						},
						{
							"internalType": "uint256",
							"name": "lockinDuration",
							"type": "uint256"
						},
						{
							"internalType": "string",
							"name": "packageName",
							"type": "string"
						}
					],
					"stateMutability": "view",
					"type": "function"
				},
				{
					"inputs": [],
					"name": "pause",
					"outputs": [],
					"stateMutability": "nonpayable",
					"type": "function"
				},
				{
					"inputs": [],
					"name": "paused",
					"outputs": [
						{
							"internalType": "bool",
							"name": "",
							"type": "bool"
						}
					],
					"stateMutability": "view",
					"type": "function"
				},
				{
					"inputs": [],
					"name": "renounceOwnership",
					"outputs": [],
					"stateMutability": "nonpayable",
					"type": "function"
				},
				{
					"inputs": [
						{
							"internalType": "address",
							"name": "_UnitySign",
							"type": "address"
						}
					],
					"name": "setUnitySignWallet",
					"outputs": [],
					"stateMutability": "nonpayable",
					"type": "function"
				},
				{
					"inputs": [
						{
							"internalType": "uint256",
							"name": "amount",
							"type": "uint256"
						},
						{
							"internalType": "uint256",
							"name": "plan",
							"type": "uint256"
						},
						{
							"internalType": "address",
							"name": "_referral",
							"type": "address"
						}
					],
					"name": "stake",
					"outputs": [],
					"stateMutability": "nonpayable",
					"type": "function"
				},
				{
					"inputs": [
						{
							"internalType": "address",
							"name": "newOwner",
							"type": "address"
						}
					],
					"name": "transferOwnership",
					"outputs": [],
					"stateMutability": "nonpayable",
					"type": "function"
				},
				{
					"inputs": [],
					"name": "unpause",
					"outputs": [],
					"stateMutability": "nonpayable",
					"type": "function"
				},
				{
					"inputs": [
						{
							"internalType": "address",
							"name": "",
							"type": "address"
						}
					],
					"name": "users",
					"outputs": [
						{
							"internalType": "uint256",
							"name": "userId",
							"type": "uint256"
						},
						{
							"internalType": "address",
							"name": "referrer",
							"type": "address"
						},
						{
							"internalType": "uint256",
							"name": "partnerCount",
							"type": "uint256"
						},
						{
							"internalType": "uint256",
							"name": "totalStake",
							"type": "uint256"
						},
						{
							"internalType": "uint256",
							"name": "directBusiness",
							"type": "uint256"
						},
						{
							"internalType": "uint256",
							"name": "teamBusiness",
							"type": "uint256"
						},
						{
							"internalType": "uint256",
							"name": "lastinvest",
							"type": "uint256"
						},
						{
							"internalType": "uint256",
							"name": "rewTaken",
							"type": "uint256"
						},
						{
							"internalType": "uint256",
							"name": "stakecount",
							"type": "uint256"
						},
						{
							"internalType": "uint256",
							"name": "partnersCount",
							"type": "uint256"
						},
						{
							"internalType": "uint256",
							"name": "levelIncome",
							"type": "uint256"
						},
						{
							"internalType": "bool",
							"name": "onof",
							"type": "bool"
						}
					],
					"stateMutability": "view",
					"type": "function"
				},
				{
					"inputs": [
						{
							"internalType": "uint256",
							"name": "WithAmt",
							"type": "uint256"
						}
					],
					"name": "withdrawLost",
					"outputs": [],
					"stateMutability": "nonpayable",
					"type": "function"
				},
				{
					"inputs": [
						{
							"internalType": "uint256",
							"name": "QtyAmt",
							"type": "uint256"
						},
						{
							"internalType": "contract IERC20",
							"name": "_TOKEN",
							"type": "address"
						}
					],
					"name": "withdrawLostTokenFromBalance",
					"outputs": [],
					"stateMutability": "nonpayable",
					"type": "function"
				},
				{
					"inputs": [
						{
							"internalType": "uint256",
							"name": "amount",
							"type": "uint256"
						},
						{
							"internalType": "uint8",
							"name": "v",
							"type": "uint8"
						},
						{
							"internalType": "bytes32",
							"name": "r",
							"type": "bytes32"
						},
						{
							"internalType": "bytes32",
							"name": "s",
							"type": "bytes32"
						},
						{
							"internalType": "uint256",
							"name": "deadline",
							"type": "uint256"
						}
					],
					"name": "withdrawRoi",
					"outputs": [],
					"stateMutability": "nonpayable",
					"type": "function"
				}
			],
			"devdoc": {
				"kind": "dev",
				"methods": {},
				"version": 1
			},
			"evm": {
				"assembly": "    /* \"profxexpo.sol\":4444:11070  contract PROFXEXPO is  Ownable, Pausable, Initializable, ReentrancyGuard {... */\n  mstore(0x40, 0x80)\n  callvalue\n  dup1\n  iszero\n  tag_1\n  jumpi\n  revert(0x00, 0x00)\ntag_1:\n  pop\n    /* \"profxexpo.sol\":383:384  1 */\n  0x01\n    /* \"profxexpo.sol\":488:510  _status = _NOT_ENTERED */\n  dup1\n  sstore\n    /* \"profxexpo.sol\":4444:11070  contract PROFXEXPO is  Ownable, Pausable, Initializable, ReentrancyGuard {... */\n  dataSize(sub_0)\n  dup1\n  dataOffset(sub_0)\n  0x00\n  codecopy\n  0x00\n  return\nstop\n\nsub_0: assembly {\n        /* \"profxexpo.sol\":4444:11070  contract PROFXEXPO is  Ownable, Pausable, Initializable, ReentrancyGuard {... */\n      mstore(0x40, 0x80)\n      jumpi(tag_1, lt(calldatasize, 0x04))\n      shr(0xe0, calldataload(0x00))\n      dup1\n      0x7628a37d\n      gt\n      tag_27\n      jumpi\n      dup1\n      0xc216212a\n      gt\n      tag_28\n      jumpi\n      dup1\n      0xf2085935\n      gt\n      tag_29\n      jumpi\n      dup1\n      0xf2085935\n      eq\n      tag_23\n      jumpi\n      dup1\n      0xf2fde38b\n      eq\n      tag_24\n      jumpi\n      dup1\n      0xf3b2aa94\n      eq\n      tag_25\n      jumpi\n      dup1\n      0xf851a440\n      eq\n      tag_26\n      jumpi\n      revert(0x00, 0x00)\n    tag_29:\n      dup1\n      0xc216212a\n      eq\n      tag_20\n      jumpi\n      dup1\n      0xc2685793\n      eq\n      tag_21\n      jumpi\n      dup1\n      0xc54e44eb\n      eq\n      tag_22\n      jumpi\n      revert(0x00, 0x00)\n    tag_28:\n      dup1\n      0x7628a37d\n      eq\n      tag_14\n      jumpi\n      dup1\n      0x7b500564\n      eq\n      tag_15\n      jumpi\n      dup1\n      0x84412cc7\n      eq\n      tag_16\n      jumpi\n      dup1\n      0x8456cb59\n      eq\n      tag_17\n      jumpi\n      dup1\n      0x8da5cb5b\n      eq\n      tag_18\n      jumpi\n      dup1\n      0xa87430ba\n      eq\n      tag_19\n      jumpi\n      revert(0x00, 0x00)\n    tag_27:\n      dup1\n      0x5abca48d\n      gt\n      tag_30\n      jumpi\n      dup1\n      0x5abca48d\n      eq\n      tag_8\n      jumpi\n      dup1\n      0x5c975abb\n      eq\n      tag_9\n      jumpi\n      dup1\n      0x70ae92d2\n      eq\n      tag_10\n      jumpi\n      dup1\n      0x715018a6\n      eq\n      tag_11\n      jumpi\n      dup1\n      0x71747dc5\n      eq\n      tag_12\n      jumpi\n      dup1\n      0x73a5028a\n      eq\n      tag_13\n      jumpi\n      revert(0x00, 0x00)\n    tag_30:\n      dup1\n      0x2a2d0c47\n      eq\n      tag_2\n      jumpi\n      dup1\n      0x348d4487\n      eq\n      tag_3\n      jumpi\n      dup1\n      0x3f4ba83a\n      eq\n      tag_4\n      jumpi\n      dup1\n      0x485cc955\n      eq\n      tag_5\n      jumpi\n      dup1\n      0x509222cd\n      eq\n      tag_6\n      jumpi\n      dup1\n      0x570ca735\n      eq\n      tag_7\n      jumpi\n    tag_1:\n      revert(0x00, 0x00)\n        /* \"profxexpo.sol\":5280:5326  mapping(uint256 => address) public idToAddress */\n    tag_2:\n      callvalue\n      dup1\n      iszero\n      tag_31\n      jumpi\n      revert(0x00, 0x00)\n    tag_31:\n      pop\n      tag_32\n      tag_33\n      calldatasize\n      0x04\n      tag_34\n      jump\t// in\n    tag_33:\n      mstore(0x20, 0x08)\n      0x00\n      swap1\n      dup2\n      mstore\n      0x40\n      swap1\n      keccak256\n      sload\n      sub(shl(0xa0, 0x01), 0x01)\n      and\n      dup2\n      jump\n    tag_32:\n      mload(0x40)\n      sub(shl(0xa0, 0x01), 0x01)\n        /* \"#utility.yul\":409:441   */\n      swap1\n      swap2\n      and\n        /* \"#utility.yul\":391:442   */\n      dup2\n      mstore\n        /* \"#utility.yul\":379:381   */\n      0x20\n        /* \"#utility.yul\":364:382   */\n      add\n        /* \"profxexpo.sol\":5280:5326  mapping(uint256 => address) public idToAddress */\n    tag_36:\n      mload(0x40)\n      dup1\n      swap2\n      sub\n      swap1\n      return\n        /* \"profxexpo.sol\":5206:5231  uint256 public lastUserId */\n    tag_3:\n      callvalue\n      dup1\n      iszero\n      tag_38\n      jumpi\n      revert(0x00, 0x00)\n    tag_38:\n      pop\n      tag_39\n      sload(0x06)\n      dup2\n      jump\n    tag_39:\n      mload(0x40)\n        /* \"#utility.yul\":599:624   */\n      swap1\n      dup2\n      mstore\n        /* \"#utility.yul\":587:589   */\n      0x20\n        /* \"#utility.yul\":572:590   */\n      add\n        /* \"profxexpo.sol\":5206:5231  uint256 public lastUserId */\n      tag_36\n        /* \"#utility.yul\":453:630   */\n      jump\n        /* \"profxexpo.sol\":8547:8614  function unpause() external onlyOperator {... */\n    tag_4:\n      callvalue\n      dup1\n      iszero\n      tag_43\n      jumpi\n      revert(0x00, 0x00)\n    tag_43:\n      pop\n      tag_44\n      tag_45\n      jump\t// in\n    tag_44:\n      stop\n        /* \"profxexpo.sol\":5936:6824  function initialize( address _usdt, address _owner)  external initializer  {... */\n    tag_5:\n      callvalue\n      dup1\n      iszero\n      tag_46\n      jumpi\n      revert(0x00, 0x00)\n    tag_46:\n      pop\n      tag_44\n      tag_48\n      calldatasize\n      0x04\n      tag_49\n      jump\t// in\n    tag_48:\n      tag_50\n      jump\t// in\n        /* \"profxexpo.sol\":8361:8473  function isUserExists(address user) public view returns (bool) {... */\n    tag_6:\n      callvalue\n      dup1\n      iszero\n      tag_51\n      jumpi\n      revert(0x00, 0x00)\n    tag_51:\n      pop\n      tag_52\n      tag_53\n      calldatasize\n      0x04\n      tag_54\n      jump\t// in\n    tag_53:\n      sub(shl(0xa0, 0x01), 0x01)\n        /* \"profxexpo.sol\":8442:8453  users[user] */\n      and\n        /* \"profxexpo.sol\":8418:8422  bool */\n      0x00\n        /* \"profxexpo.sol\":8442:8453  users[user] */\n      swap1\n      dup2\n      mstore\n        /* \"profxexpo.sol\":8442:8447  users */\n      0x07\n        /* \"profxexpo.sol\":8442:8453  users[user] */\n      0x20\n      mstore\n      0x40\n      swap1\n      keccak256\n        /* \"profxexpo.sol\":8442:8460  users[user].userId */\n      sload\n        /* \"profxexpo.sol\":8442:8465  users[user].userId != 0 */\n      iszero\n      iszero\n      swap1\n        /* \"profxexpo.sol\":8361:8473  function isUserExists(address user) public view returns (bool) {... */\n      jump\n    tag_52:\n      mload(0x40)\n        /* \"#utility.yul\":1581:1595   */\n      swap1\n      iszero\n        /* \"#utility.yul\":1574:1596   */\n      iszero\n        /* \"#utility.yul\":1556:1597   */\n      dup2\n      mstore\n        /* \"#utility.yul\":1544:1546   */\n      0x20\n        /* \"#utility.yul\":1529:1547   */\n      add\n        /* \"profxexpo.sol\":8361:8473  function isUserExists(address user) public view returns (bool) {... */\n      tag_36\n        /* \"#utility.yul\":1416:1603   */\n      jump\n        /* \"profxexpo.sol\":5121:5144  address public operator */\n    tag_7:\n      callvalue\n      dup1\n      iszero\n      tag_58\n      jumpi\n      revert(0x00, 0x00)\n    tag_58:\n      pop\n      sload(0x03)\n      tag_32\n      swap1\n      sub(shl(0xa0, 0x01), 0x01)\n      and\n      dup2\n      jump\n        /* \"profxexpo.sol\":9453:9896  function getWithdrawHash(... */\n    tag_8:\n      callvalue\n      dup1\n      iszero\n      tag_62\n      jumpi\n      revert(0x00, 0x00)\n    tag_62:\n      pop\n      tag_39\n      tag_64\n      calldatasize\n      0x04\n      tag_65\n      jump\t// in\n    tag_64:\n      tag_66\n      jump\t// in\n        /* \"profxexpo.sol\":3888:3972  function paused() public view virtual returns (bool) {... */\n    tag_9:\n      callvalue\n      dup1\n      iszero\n      tag_69\n      jumpi\n      revert(0x00, 0x00)\n    tag_69:\n      pop\n        /* \"profxexpo.sol\":3935:3939  bool */\n      0x00\n        /* \"profxexpo.sol\":3958:3965  _paused */\n      sload\n      shl(0xa0, 0x01)\n      swap1\n      div\n      0xff\n      and\n        /* \"profxexpo.sol\":3888:3972  function paused() public view virtual returns (bool) {... */\n      jump(tag_52)\n        /* \"profxexpo.sol\":5332:5369  mapping(address => uint) public nonce */\n    tag_10:\n      callvalue\n      dup1\n      iszero\n      tag_73\n      jumpi\n      revert(0x00, 0x00)\n    tag_73:\n      pop\n      tag_39\n      tag_75\n      calldatasize\n      0x04\n      tag_54\n      jump\t// in\n    tag_75:\n      mstore(0x20, 0x09)\n      0x00\n      swap1\n      dup2\n      mstore\n      0x40\n      swap1\n      keccak256\n      sload\n      dup2\n      jump\n        /* \"profxexpo.sol\":2098:2199  function renounceOwnership() public virtual onlyOwner {... */\n    tag_11:\n      callvalue\n      dup1\n      iszero\n      tag_78\n      jumpi\n      revert(0x00, 0x00)\n    tag_78:\n      pop\n      tag_44\n      tag_80\n      jump\t// in\n        /* \"profxexpo.sol\":5175:5199  address public UnitySign */\n    tag_12:\n      callvalue\n      dup1\n      iszero\n      tag_81\n      jumpi\n      revert(0x00, 0x00)\n    tag_81:\n      pop\n      sload(0x05)\n      tag_32\n      swap1\n      sub(shl(0xa0, 0x01), 0x01)\n      and\n      dup2\n      jump\n        /* \"profxexpo.sol\":10960:11066  function setUnitySignWallet(address _UnitySign) external onlyOwner {... */\n    tag_13:\n      callvalue\n      dup1\n      iszero\n      tag_85\n      jumpi\n      revert(0x00, 0x00)\n    tag_85:\n      pop\n      tag_44\n      tag_87\n      calldatasize\n      0x04\n      tag_54\n      jump\t// in\n    tag_87:\n      tag_88\n      jump\t// in\n        /* \"profxexpo.sol\":7463:8354  function stake(uint amount, uint plan, address _referral) public {... */\n    tag_14:\n      callvalue\n      dup1\n      iszero\n      tag_89\n      jumpi\n      revert(0x00, 0x00)\n    tag_89:\n      pop\n      tag_44\n      tag_91\n      calldatasize\n      0x04\n      tag_92\n      jump\t// in\n    tag_91:\n      tag_93\n      jump\t// in\n        /* \"profxexpo.sol\":8782:8961  function withdrawLostTokenFromBalance(uint QtyAmt,IERC20 _TOKEN) public {... */\n    tag_15:\n      callvalue\n      dup1\n      iszero\n      tag_94\n      jumpi\n      revert(0x00, 0x00)\n    tag_94:\n      pop\n      tag_44\n      tag_96\n      calldatasize\n      0x04\n      tag_97\n      jump\t// in\n    tag_96:\n      tag_98\n      jump\t// in\n        /* \"profxexpo.sol\":8967:9447  function multisendToken(address payable[]  memory  _contributors, uint256[] memory _balances, uint256 totalQty,IERC20 _TKN) public payable {... */\n    tag_16:\n      tag_44\n      tag_100\n      calldatasize\n      0x04\n      tag_101\n      jump\t// in\n    tag_100:\n      tag_102\n      jump\t// in\n        /* \"profxexpo.sol\":8479:8541  function pause() external onlyOperator {... */\n    tag_17:\n      callvalue\n      dup1\n      iszero\n      tag_103\n      jumpi\n      revert(0x00, 0x00)\n    tag_103:\n      pop\n      tag_44\n      tag_105\n      jump\t// in\n        /* \"profxexpo.sol\":1871:1956  function owner() public view virtual returns (address) {... */\n    tag_18:\n      callvalue\n      dup1\n      iszero\n      tag_106\n      jumpi\n      revert(0x00, 0x00)\n    tag_106:\n      pop\n        /* \"profxexpo.sol\":1917:1924  address */\n      0x00\n        /* \"profxexpo.sol\":1943:1949  _owner */\n      sload\n      sub(shl(0xa0, 0x01), 0x01)\n      and\n        /* \"profxexpo.sol\":1871:1956  function owner() public view virtual returns (address) {... */\n      jump(tag_32)\n        /* \"profxexpo.sol\":5237:5274  mapping(address => User) public users */\n    tag_19:\n      callvalue\n      dup1\n      iszero\n      tag_110\n      jumpi\n      revert(0x00, 0x00)\n    tag_110:\n      pop\n      tag_111\n      tag_112\n      calldatasize\n      0x04\n      tag_54\n      jump\t// in\n    tag_112:\n      0x07\n      0x20\n      dup2\n      swap1\n      mstore\n      0x00\n      swap2\n      dup3\n      mstore\n      0x40\n      swap1\n      swap2\n      keccak256\n      dup1\n      sload\n      0x01\n      dup3\n      add\n      sload\n      0x02\n      dup4\n      add\n      sload\n      0x03\n      dup5\n      add\n      sload\n      0x04\n      dup6\n      add\n      sload\n      0x05\n      dup7\n      add\n      sload\n      0x06\n      dup8\n      add\n      sload\n      swap8\n      dup8\n      add\n      sload\n      0x08\n      dup9\n      add\n      sload\n      0x09\n      dup10\n      add\n      sload\n      0x0a\n      dup11\n      add\n      sload\n      0x0b\n      swap1\n      swap11\n      add\n      sload\n      swap9\n      swap11\n      sub(shl(0xa0, 0x01), 0x01)\n      swap1\n      swap9\n      and\n      swap10\n      swap7\n      swap9\n      swap6\n      swap8\n      swap5\n      swap7\n      swap4\n      swap6\n      swap3\n      swap4\n      swap2\n      swap3\n      swap1\n      swap2\n      swap1\n      0xff\n      and\n      dup13\n      jump\n    tag_111:\n      0x40\n      dup1\n      mload\n        /* \"#utility.yul\":6555:6580   */\n      swap13\n      dup14\n      mstore\n      sub(shl(0xa0, 0x01), 0x01)\n        /* \"#utility.yul\":6616:6648   */\n      swap1\n      swap12\n      and\n        /* \"#utility.yul\":6611:6613   */\n      0x20\n        /* \"#utility.yul\":6596:6614   */\n      dup14\n      add\n        /* \"#utility.yul\":6589:6649   */\n      mstore\n        /* \"#utility.yul\":6665:6683   */\n      swap10\n      dup12\n      add\n        /* \"#utility.yul\":6658:6692   */\n      swap9\n      swap1\n      swap9\n      mstore\n        /* \"#utility.yul\":6723:6725   */\n      0x60\n        /* \"#utility.yul\":6708:6726   */\n      dup11\n      add\n        /* \"#utility.yul\":6701:6735   */\n      swap7\n      swap1\n      swap7\n      mstore\n        /* \"#utility.yul\":6766:6769   */\n      0x80\n        /* \"#utility.yul\":6751:6770   */\n      dup10\n      add\n        /* \"#utility.yul\":6744:6779   */\n      swap5\n      swap1\n      swap5\n      mstore\n        /* \"#utility.yul\":6636:6639   */\n      0xa0\n        /* \"#utility.yul\":6795:6814   */\n      dup9\n      add\n        /* \"#utility.yul\":6788:6823   */\n      swap3\n      swap1\n      swap3\n      mstore\n        /* \"#utility.yul\":6854:6857   */\n      0xc0\n        /* \"#utility.yul\":6839:6858   */\n      dup8\n      add\n        /* \"#utility.yul\":6832:6867   */\n      mstore\n        /* \"#utility.yul\":6898:6901   */\n      0xe0\n        /* \"#utility.yul\":6883:6902   */\n      dup7\n      add\n        /* \"#utility.yul\":6876:6911   */\n      mstore\n        /* \"#utility.yul\":6942:6945   */\n      0x0100\n        /* \"#utility.yul\":6927:6946   */\n      dup6\n      add\n        /* \"#utility.yul\":6920:6955   */\n      mstore\n        /* \"#utility.yul\":6986:6989   */\n      0x0120\n        /* \"#utility.yul\":6971:6990   */\n      dup5\n      add\n        /* \"#utility.yul\":6964:6999   */\n      mstore\n        /* \"#utility.yul\":7030:7033   */\n      0x0140\n        /* \"#utility.yul\":7015:7034   */\n      dup4\n      add\n        /* \"#utility.yul\":7008:7044   */\n      mstore\n        /* \"#utility.yul\":7088:7103   */\n      iszero\n        /* \"#utility.yul\":7081:7104   */\n      iszero\n        /* \"#utility.yul\":7075:7078   */\n      0x0160\n        /* \"#utility.yul\":7060:7079   */\n      dup3\n      add\n        /* \"#utility.yul\":7053:7105   */\n      mstore\n        /* \"#utility.yul\":6542:6545   */\n      0x0180\n        /* \"#utility.yul\":6527:6546   */\n      add\n        /* \"profxexpo.sol\":5237:5274  mapping(address => User) public users */\n      tag_36\n        /* \"#utility.yul\":6104:7111   */\n      jump\n        /* \"profxexpo.sol\":5375:5400  Package[] public packages */\n    tag_20:\n      callvalue\n      dup1\n      iszero\n      tag_116\n      jumpi\n      revert(0x00, 0x00)\n    tag_116:\n      pop\n      tag_117\n      tag_118\n      calldatasize\n      0x04\n      tag_34\n      jump\t// in\n    tag_118:\n      tag_119\n      jump\t// in\n    tag_117:\n      mload(0x40)\n      tag_36\n      swap6\n      swap5\n      swap4\n      swap3\n      swap2\n      swap1\n      tag_121\n      jump\t// in\n        /* \"profxexpo.sol\":5406:5458  mapping(uint256 => uint256) public packageMinAmounts */\n    tag_21:\n      callvalue\n      dup1\n      iszero\n      tag_122\n      jumpi\n      revert(0x00, 0x00)\n    tag_122:\n      pop\n      tag_39\n      tag_124\n      calldatasize\n      0x04\n      tag_34\n      jump\t// in\n    tag_124:\n      mstore(0x20, 0x0b)\n      0x00\n      swap1\n      dup2\n      mstore\n      0x40\n      swap1\n      keccak256\n      sload\n      dup2\n      jump\n        /* \"profxexpo.sol\":5150:5169  address public USDT */\n    tag_22:\n      callvalue\n      dup1\n      iszero\n      tag_127\n      jumpi\n      revert(0x00, 0x00)\n    tag_127:\n      pop\n      sload(0x04)\n      tag_32\n      swap1\n      sub(shl(0xa0, 0x01), 0x01)\n      and\n      dup2\n      jump\n        /* \"profxexpo.sol\":10419:10950  function withdrawRoi(... */\n    tag_23:\n      callvalue\n      dup1\n      iszero\n      tag_131\n      jumpi\n      revert(0x00, 0x00)\n    tag_131:\n      pop\n      tag_44\n      tag_133\n      calldatasize\n      0x04\n      tag_134\n      jump\t// in\n    tag_133:\n      tag_135\n      jump\t// in\n        /* \"profxexpo.sol\":2205:2437  function transferOwnership(address newOwner) public virtual onlyOwner {... */\n    tag_24:\n      callvalue\n      dup1\n      iszero\n      tag_136\n      jumpi\n      revert(0x00, 0x00)\n    tag_136:\n      pop\n      tag_44\n      tag_138\n      calldatasize\n      0x04\n      tag_54\n      jump\t// in\n    tag_138:\n      tag_139\n      jump\t// in\n        /* \"profxexpo.sol\":8620:8777  function withdrawLost(uint256 WithAmt) public {... */\n    tag_25:\n      callvalue\n      dup1\n      iszero\n      tag_140\n      jumpi\n      revert(0x00, 0x00)\n    tag_140:\n      pop\n      tag_44\n      tag_142\n      calldatasize\n      0x04\n      tag_34\n      jump\t// in\n    tag_142:\n      tag_143\n      jump\t// in\n        /* \"profxexpo.sol\":5095:5115  address public admin */\n    tag_26:\n      callvalue\n      dup1\n      iszero\n      tag_144\n      jumpi\n      revert(0x00, 0x00)\n    tag_144:\n      pop\n      sload(0x02)\n      tag_32\n      swap1\n      sub(shl(0xa0, 0x01), 0x01)\n      and\n      dup2\n      jump\n        /* \"profxexpo.sol\":8547:8614  function unpause() external onlyOperator {... */\n    tag_45:\n        /* \"profxexpo.sol\":5865:5873  operator */\n      and(sub(shl(0xa0, 0x01), 0x01), sload(0x03))\n        /* \"profxexpo.sol\":177:187  msg.sender */\n      caller\n      sub(shl(0xa0, 0x01), 0x01)\n        /* \"profxexpo.sol\":5851:5873  _msgSender()==operator */\n      and\n      eq\n        /* \"profxexpo.sol\":5843:5910  require(_msgSender()==operator,\"Forbidden! Only Operator Can Call\") */\n      tag_151\n      jumpi\n      mload(0x40)\n      shl(0xe5, 0x461bcd)\n      dup2\n      mstore\n      0x04\n      add\n      tag_152\n      swap1\n      tag_153\n      jump\t// in\n    tag_152:\n      mload(0x40)\n      dup1\n      swap2\n      sub\n      swap1\n      revert\n    tag_151:\n        /* \"profxexpo.sol\":8597:8607  _unpause() */\n      tag_155\n        /* \"profxexpo.sol\":8597:8605  _unpause */\n      tag_156\n        /* \"profxexpo.sol\":8597:8607  _unpause() */\n      jump\t// in\n    tag_155:\n        /* \"profxexpo.sol\":8547:8614  function unpause() external onlyOperator {... */\n      jump\t// out\n        /* \"profxexpo.sol\":5936:6824  function initialize( address _usdt, address _owner)  external initializer  {... */\n    tag_50:\n        /* \"profxexpo.sol\":1188:1201  _initializing */\n      sload(0x00)\n      shl(0xb0, 0x01)\n      swap1\n      div\n      0xff\n      and\n      dup1\n        /* \"profxexpo.sol\":1188:1218  _initializing || !_initialized */\n      tag_158\n      jumpi\n      pop\n        /* \"profxexpo.sol\":1206:1218  _initialized */\n      sload(0x00)\n      shl(0xa8, 0x01)\n      swap1\n      div\n      0xff\n      and\n        /* \"profxexpo.sol\":1205:1218  !_initialized */\n      iszero\n        /* \"profxexpo.sol\":1188:1218  _initializing || !_initialized */\n    tag_158:\n        /* \"profxexpo.sol\":1180:1269  require(_initializing || !_initialized, \"Initializable: contract is already initialized\") */\n      tag_159\n      jumpi\n      mload(0x40)\n      shl(0xe5, 0x461bcd)\n      dup2\n      mstore\n        /* \"#utility.yul\":9191:9193   */\n      0x20\n        /* \"profxexpo.sol\":1180:1269  require(_initializing || !_initialized, \"Initializable: contract is already initialized\") */\n      0x04\n      dup3\n      add\n        /* \"#utility.yul\":9173:9194   */\n      mstore\n        /* \"#utility.yul\":9230:9232   */\n      0x2e\n        /* \"#utility.yul\":9210:9228   */\n      0x24\n      dup3\n      add\n        /* \"#utility.yul\":9203:9233   */\n      mstore\n        /* \"#utility.yul\":9269:9303   */\n      0x496e697469616c697a61626c653a20636f6e747261637420697320616c726561\n        /* \"#utility.yul\":9249:9267   */\n      0x44\n      dup3\n      add\n        /* \"#utility.yul\":9242:9304   */\n      mstore\n      shl(0x92, 0x191e481a5b9a5d1a585b1a5e9959)\n        /* \"#utility.yul\":9320:9338   */\n      0x64\n      dup3\n      add\n        /* \"#utility.yul\":9313:9357   */\n      mstore\n        /* \"#utility.yul\":9374:9393   */\n      0x84\n      add\n        /* \"profxexpo.sol\":1180:1269  require(_initializing || !_initialized, \"Initializable: contract is already initialized\") */\n      tag_152\n        /* \"#utility.yul\":8989:9399   */\n      jump\n        /* \"profxexpo.sol\":1180:1269  require(_initializing || !_initialized, \"Initializable: contract is already initialized\") */\n    tag_159:\n        /* \"profxexpo.sol\":1280:1299  bool isTopLevelCall */\n      0x00\n        /* \"profxexpo.sol\":1303:1316  _initializing */\n      sload\n      shl(0xb0, 0x01)\n      swap1\n      div\n      0xff\n      and\n        /* \"profxexpo.sol\":1302:1316  !_initializing */\n      iszero\n        /* \"profxexpo.sol\":1326:1424  if (isTopLevelCall) {... */\n      dup1\n      iszero\n      tag_162\n      jumpi\n        /* \"profxexpo.sol\":1360:1373  _initializing */\n      0x00\n        /* \"profxexpo.sol\":1360:1380  _initializing = true */\n      dup1\n      sload\n      not(shl(0xa8, 0xffff))\n        /* \"profxexpo.sol\":1394:1413  _initialized = true */\n      and\n      shl(0xa8, 0x0101)\n      or\n      swap1\n      sstore\n        /* \"profxexpo.sol\":1326:1424  if (isTopLevelCall) {... */\n    tag_162:\n        /* \"profxexpo.sol\":6021:6025  USDT */\n      0x04\n        /* \"profxexpo.sol\":6021:6033  USDT = _usdt */\n      dup1\n      sload\n      not(sub(shl(0xa0, 0x01), 0x01))\n      and\n      sub(shl(0xa0, 0x01), 0x01)\n      dup6\n      and\n      or\n      swap1\n      sstore\n        /* \"profxexpo.sol\":6049:6064  ownable(_owner) */\n      tag_164\n        /* \"profxexpo.sol\":6057:6063  _owner */\n      dup3\n        /* \"profxexpo.sol\":6049:6056  ownable */\n      tag_321\n        /* \"profxexpo.sol\":6049:6064  ownable(_owner) */\n      jump\t// in\n    tag_164:\n        /* \"profxexpo.sol\":6098:6148  Package(1, 50 * 10**18, 33, 90, \"Precious Metals\") */\n      0x40\n      dup1\n      mload\n      0xa0\n      dup2\n      add\n      dup3\n      mstore\n        /* \"profxexpo.sol\":6106:6107  1 */\n      0x01\n        /* \"profxexpo.sol\":6098:6148  Package(1, 50 * 10**18, 33, 90, \"Precious Metals\") */\n      dup1\n      dup3\n      mstore\n        /* \"profxexpo.sol\":6109:6120  50 * 10**18 */\n      0x02b5e3af16b1880000\n        /* \"profxexpo.sol\":6098:6148  Package(1, 50 * 10**18, 33, 90, \"Precious Metals\") */\n      0x20\n      dup1\n      dup5\n      add\n      swap2\n      dup3\n      mstore\n        /* \"profxexpo.sol\":6122:6124  33 */\n      0x21\n        /* \"profxexpo.sol\":6098:6148  Package(1, 50 * 10**18, 33, 90, \"Precious Metals\") */\n      dup5\n      dup7\n      add\n      swap1\n      dup2\n      mstore\n        /* \"profxexpo.sol\":6126:6128  90 */\n      0x5a\n        /* \"profxexpo.sol\":6098:6148  Package(1, 50 * 10**18, 33, 90, \"Precious Metals\") */\n      0x60\n      dup7\n      add\n      swap1\n      dup2\n      mstore\n      dup7\n      mload\n      dup1\n      dup9\n      add\n      swap1\n      swap8\n      mstore\n      0x0f\n      dup8\n      mstore\n      shl(0x88, 0x50726563696f7573204d6574616c73)\n      swap3\n      dup8\n      add\n      swap3\n      swap1\n      swap3\n      mstore\n      0x80\n      dup6\n      add\n      swap6\n      dup7\n      mstore\n        /* \"profxexpo.sol\":6084:6092  packages */\n      0x0a\n        /* \"profxexpo.sol\":6084:6149  packages.push(Package(1, 50 * 10**18, 33, 90, \"Precious Metals\")) */\n      dup1\n      sload\n      swap5\n      dup6\n      add\n      dup2\n      sstore\n      0x00\n      mstore\n      dup5\n      mload\n      0x05\n      swap1\n      swap5\n      mul\n      mload(0x00)\n      codecopy(0x00, data_410c2796757c1866e144712b649ab035b22d7295530f125d2b7bc17fa7b793b5, 0x20)\n      mload(0x00)\n      swap1\n      0x00\n      mstore\n      dup2\n      add\n      swap5\n      dup6\n      sstore\n      swap3\n      mload\n      mload(0x00)\n      codecopy(0x00, data_06b493c1ca289c5326ef56c162cd187bf96c737c2c9bbda318cc345be15042af, 0x20)\n      mload(0x00)\n      swap1\n      0x00\n      mstore\n      dup5\n      add\n      sstore\n      mload\n      mload(0x00)\n      codecopy(0x00, data_7a0b543a77c72a2154fae01417d93ab4a7f07c9a6bbce5febfeb9904a41b7914, 0x20)\n      mload(0x00)\n      swap1\n      0x00\n      mstore\n      dup4\n      add\n      sstore\n      mload\n      mload(0x00)\n      codecopy(0x00, data_5370eae143cc2f6260640bd734b0cdaf587bbcfc81362df39d56d5a29a7e663b, 0x20)\n      mload(0x00)\n      swap1\n      0x00\n      mstore\n      dup3\n      add\n      sstore\n      swap3\n      mload\n        /* \"profxexpo.sol\":6098:6148  Package(1, 50 * 10**18, 33, 90, \"Precious Metals\") */\n      swap2\n      swap3\n        /* \"profxexpo.sol\":6084:6149  packages.push(Package(1, 50 * 10**18, 33, 90, \"Precious Metals\")) */\n      swap1\n      swap2\n      mload(0x00)\n      codecopy(0x00, data_d5211e5652076f058928f5b24e1816690291c298b337ea927f8d0f3aabb8a05a, 0x20)\n      mload(0x00)\n      swap1\n      0x00\n      mstore\n      swap1\n      swap2\n      add\n      swap1\n      tag_167\n      swap1\n      dup3\n      tag_168\n      jump\t// in\n    tag_167:\n      pop\n      pop\n        /* \"profxexpo.sol\":6173:6221  Package(2, 500 * 10**18, 50, 180, \"Real Estate\") */\n      0x40\n      dup1\n      mload\n      0xa0\n      dup2\n      add\n      dup3\n      mstore\n        /* \"profxexpo.sol\":6181:6182  2 */\n      0x02\n        /* \"profxexpo.sol\":6173:6221  Package(2, 500 * 10**18, 50, 180, \"Real Estate\") */\n      dup2\n      mstore\n        /* \"profxexpo.sol\":6184:6196  500 * 10**18 */\n      0x1b1ae4d6e2ef500000\n        /* \"profxexpo.sol\":6173:6221  Package(2, 500 * 10**18, 50, 180, \"Real Estate\") */\n      0x20\n      dup1\n      dup4\n      add\n      swap2\n      dup3\n      mstore\n        /* \"profxexpo.sol\":6198:6200  50 */\n      0x32\n        /* \"profxexpo.sol\":6173:6221  Package(2, 500 * 10**18, 50, 180, \"Real Estate\") */\n      dup4\n      dup6\n      add\n      swap1\n      dup2\n      mstore\n        /* \"profxexpo.sol\":6202:6205  180 */\n      0xb4\n        /* \"profxexpo.sol\":6173:6221  Package(2, 500 * 10**18, 50, 180, \"Real Estate\") */\n      0x60\n      dup6\n      add\n      swap1\n      dup2\n      mstore\n      dup6\n      mload\n      dup1\n      dup8\n      add\n      swap1\n      swap7\n      mstore\n      0x0b\n      dup7\n      mstore\n      shl(0xa8, 0x5265616c20457374617465)\n      swap3\n      dup7\n      add\n      swap3\n      swap1\n      swap3\n      mstore\n      0x80\n      dup5\n      add\n      swap5\n      dup6\n      mstore\n        /* \"profxexpo.sol\":6159:6167  packages */\n      0x0a\n        /* \"profxexpo.sol\":6159:6222  packages.push(Package(2, 500 * 10**18, 50, 180, \"Real Estate\")) */\n      dup1\n      sload\n      0x01\n      dup2\n      add\n      dup3\n      sstore\n      0x00\n      swap2\n      swap1\n      swap2\n      mstore\n      dup5\n      mload\n      0x05\n      swap1\n      swap2\n      mul\n      mload(0x00)\n      codecopy(0x00, data_410c2796757c1866e144712b649ab035b22d7295530f125d2b7bc17fa7b793b5, 0x20)\n      mload(0x00)\n      swap1\n      0x00\n      mstore\n      dup2\n      add\n      swap2\n      dup3\n      sstore\n      swap4\n      mload\n      mload(0x00)\n      codecopy(0x00, data_06b493c1ca289c5326ef56c162cd187bf96c737c2c9bbda318cc345be15042af, 0x20)\n      mload(0x00)\n      swap1\n      0x00\n      mstore\n      dup6\n      add\n      sstore\n      swap1\n      mload\n      mload(0x00)\n      codecopy(0x00, data_7a0b543a77c72a2154fae01417d93ab4a7f07c9a6bbce5febfeb9904a41b7914, 0x20)\n      mload(0x00)\n      swap1\n      0x00\n      mstore\n      dup5\n      add\n      sstore\n      swap1\n      mload\n      mload(0x00)\n      codecopy(0x00, data_5370eae143cc2f6260640bd734b0cdaf587bbcfc81362df39d56d5a29a7e663b, 0x20)\n      mload(0x00)\n      swap1\n      0x00\n      mstore\n      dup4\n      add\n      sstore\n      swap3\n      mload\n        /* \"profxexpo.sol\":6173:6221  Package(2, 500 * 10**18, 50, 180, \"Real Estate\") */\n      swap2\n      swap4\n      pop\n      mload(0x00)\n      codecopy(0x00, data_d5211e5652076f058928f5b24e1816690291c298b337ea927f8d0f3aabb8a05a, 0x20)\n      mload(0x00)\n      swap1\n      0x00\n      mstore\n        /* \"profxexpo.sol\":6159:6222  packages.push(Package(2, 500 * 10**18, 50, 180, \"Real Estate\")) */\n      add\n      swap1\n      tag_170\n      swap1\n      dup3\n      tag_168\n      jump\t// in\n    tag_170:\n      pop\n      pop\n        /* \"profxexpo.sol\":6246:6293  Package(3, 2500 * 10**18, 67, 360, \"US Stocks\") */\n      0x40\n      dup1\n      mload\n      0xa0\n      dup2\n      add\n      dup3\n      mstore\n        /* \"profxexpo.sol\":6254:6255  3 */\n      0x03\n        /* \"profxexpo.sol\":6246:6293  Package(3, 2500 * 10**18, 67, 360, \"US Stocks\") */\n      dup2\n      mstore\n        /* \"profxexpo.sol\":6257:6270  2500 * 10**18 */\n      0x878678326eac900000\n        /* \"profxexpo.sol\":6246:6293  Package(3, 2500 * 10**18, 67, 360, \"US Stocks\") */\n      0x20\n      dup1\n      dup4\n      add\n      swap2\n      dup3\n      mstore\n        /* \"profxexpo.sol\":6272:6274  67 */\n      0x43\n        /* \"profxexpo.sol\":6246:6293  Package(3, 2500 * 10**18, 67, 360, \"US Stocks\") */\n      dup4\n      dup6\n      add\n      swap1\n      dup2\n      mstore\n        /* \"profxexpo.sol\":6276:6279  360 */\n      0x0168\n        /* \"profxexpo.sol\":6246:6293  Package(3, 2500 * 10**18, 67, 360, \"US Stocks\") */\n      0x60\n      dup6\n      add\n      swap1\n      dup2\n      mstore\n      dup6\n      mload\n      dup1\n      dup8\n      add\n      swap1\n      swap7\n      mstore\n      0x09\n      dup7\n      mstore\n      shl(0xb8, 0x55532053746f636b73)\n      swap3\n      dup7\n      add\n      swap3\n      swap1\n      swap3\n      mstore\n      0x80\n      dup5\n      add\n      swap5\n      dup6\n      mstore\n        /* \"profxexpo.sol\":6232:6240  packages */\n      0x0a\n        /* \"profxexpo.sol\":6232:6294  packages.push(Package(3, 2500 * 10**18, 67, 360, \"US Stocks\")) */\n      dup1\n      sload\n      0x01\n      dup2\n      add\n      dup3\n      sstore\n      0x00\n      swap2\n      swap1\n      swap2\n      mstore\n      dup5\n      mload\n      0x05\n      swap1\n      swap2\n      mul\n      mload(0x00)\n      codecopy(0x00, data_410c2796757c1866e144712b649ab035b22d7295530f125d2b7bc17fa7b793b5, 0x20)\n      mload(0x00)\n      swap1\n      0x00\n      mstore\n      dup2\n      add\n      swap2\n      dup3\n      sstore\n      swap4\n      mload\n      mload(0x00)\n      codecopy(0x00, data_06b493c1ca289c5326ef56c162cd187bf96c737c2c9bbda318cc345be15042af, 0x20)\n      mload(0x00)\n      swap1\n      0x00\n      mstore\n      dup6\n      add\n      sstore\n      swap1\n      mload\n      mload(0x00)\n      codecopy(0x00, data_7a0b543a77c72a2154fae01417d93ab4a7f07c9a6bbce5febfeb9904a41b7914, 0x20)\n      mload(0x00)\n      swap1\n      0x00\n      mstore\n      dup5\n      add\n      sstore\n      swap1\n      mload\n      mload(0x00)\n      codecopy(0x00, data_5370eae143cc2f6260640bd734b0cdaf587bbcfc81362df39d56d5a29a7e663b, 0x20)\n      mload(0x00)\n      swap1\n      0x00\n      mstore\n      dup4\n      add\n      sstore\n      swap3\n      mload\n        /* \"profxexpo.sol\":6246:6293  Package(3, 2500 * 10**18, 67, 360, \"US Stocks\") */\n      swap2\n      swap4\n      pop\n      mload(0x00)\n      codecopy(0x00, data_d5211e5652076f058928f5b24e1816690291c298b337ea927f8d0f3aabb8a05a, 0x20)\n      mload(0x00)\n      swap1\n      0x00\n      mstore\n        /* \"profxexpo.sol\":6232:6294  packages.push(Package(3, 2500 * 10**18, 67, 360, \"US Stocks\")) */\n      add\n      swap1\n      tag_172\n      swap1\n      dup3\n      tag_168\n      jump\t// in\n    tag_172:\n      pop\n      pop\n        /* \"profxexpo.sol\":6318:6368  Package(4, 5000 * 10**18, 80, 720, \"Forex Market\") */\n      0x40\n      dup1\n      mload\n      0xa0\n      dup2\n      add\n      dup3\n      mstore\n        /* \"profxexpo.sol\":6326:6327  4 */\n      0x04\n        /* \"profxexpo.sol\":6318:6368  Package(4, 5000 * 10**18, 80, 720, \"Forex Market\") */\n      dup2\n      mstore\n        /* \"profxexpo.sol\":6329:6342  5000 * 10**18 */\n      0x010f0cf064dd59200000\n        /* \"profxexpo.sol\":6318:6368  Package(4, 5000 * 10**18, 80, 720, \"Forex Market\") */\n      0x20\n      dup1\n      dup4\n      add\n      swap2\n      dup3\n      mstore\n        /* \"profxexpo.sol\":6344:6346  80 */\n      0x50\n        /* \"profxexpo.sol\":6318:6368  Package(4, 5000 * 10**18, 80, 720, \"Forex Market\") */\n      dup4\n      dup6\n      add\n      swap1\n      dup2\n      mstore\n        /* \"profxexpo.sol\":6348:6351  720 */\n      0x02d0\n        /* \"profxexpo.sol\":6318:6368  Package(4, 5000 * 10**18, 80, 720, \"Forex Market\") */\n      0x60\n      dup6\n      add\n      swap1\n      dup2\n      mstore\n      dup6\n      mload\n      dup1\n      dup8\n      add\n      swap1\n      swap7\n      mstore\n      0x0c\n      dup7\n      mstore\n      shl(0xa2, 0x119bdc995e0813585c9ad95d)\n      swap3\n      dup7\n      add\n      swap3\n      swap1\n      swap3\n      mstore\n      0x80\n      dup5\n      add\n      swap5\n      dup6\n      mstore\n        /* \"profxexpo.sol\":6304:6312  packages */\n      0x0a\n        /* \"profxexpo.sol\":6304:6369  packages.push(Package(4, 5000 * 10**18, 80, 720, \"Forex Market\")) */\n      dup1\n      sload\n      0x01\n      dup2\n      add\n      dup3\n      sstore\n      0x00\n      swap2\n      swap1\n      swap2\n      mstore\n      dup5\n      mload\n      0x05\n      swap1\n      swap2\n      mul\n      mload(0x00)\n      codecopy(0x00, data_410c2796757c1866e144712b649ab035b22d7295530f125d2b7bc17fa7b793b5, 0x20)\n      mload(0x00)\n      swap1\n      0x00\n      mstore\n      dup2\n      add\n      swap2\n      dup3\n      sstore\n      swap4\n      mload\n      mload(0x00)\n      codecopy(0x00, data_06b493c1ca289c5326ef56c162cd187bf96c737c2c9bbda318cc345be15042af, 0x20)\n      mload(0x00)\n      swap1\n      0x00\n      mstore\n      dup6\n      add\n      sstore\n      swap1\n      mload\n      mload(0x00)\n      codecopy(0x00, data_7a0b543a77c72a2154fae01417d93ab4a7f07c9a6bbce5febfeb9904a41b7914, 0x20)\n      mload(0x00)\n      swap1\n      0x00\n      mstore\n      dup5\n      add\n      sstore\n      swap1\n      mload\n      mload(0x00)\n      codecopy(0x00, data_5370eae143cc2f6260640bd734b0cdaf587bbcfc81362df39d56d5a29a7e663b, 0x20)\n      mload(0x00)\n      swap1\n      0x00\n      mstore\n      dup4\n      add\n      sstore\n      swap3\n      mload\n        /* \"profxexpo.sol\":6318:6368  Package(4, 5000 * 10**18, 80, 720, \"Forex Market\") */\n      swap2\n      swap4\n      pop\n      mload(0x00)\n      codecopy(0x00, data_d5211e5652076f058928f5b24e1816690291c298b337ea927f8d0f3aabb8a05a, 0x20)\n      mload(0x00)\n      swap1\n      0x00\n      mstore\n        /* \"profxexpo.sol\":6304:6369  packages.push(Package(4, 5000 * 10**18, 80, 720, \"Forex Market\")) */\n      add\n      swap1\n      tag_174\n      swap1\n      dup3\n      tag_168\n      jump\t// in\n    tag_174:\n      pop\n      pop\n        /* \"profxexpo.sol\":6393:6448  Package(5, 10000 * 10**18, 100, 1080, \"Digital Assets\") */\n      0x40\n      dup1\n      mload\n      0xa0\n      dup2\n      add\n      dup3\n      mstore\n        /* \"profxexpo.sol\":6401:6402  5 */\n      0x05\n        /* \"profxexpo.sol\":6393:6448  Package(5, 10000 * 10**18, 100, 1080, \"Digital Assets\") */\n      dup1\n      dup3\n      mstore\n        /* \"profxexpo.sol\":6404:6418  10000 * 10**18 */\n      0x021e19e0c9bab2400000\n        /* \"profxexpo.sol\":6393:6448  Package(5, 10000 * 10**18, 100, 1080, \"Digital Assets\") */\n      0x20\n      dup1\n      dup5\n      add\n      swap2\n      dup3\n      mstore\n        /* \"profxexpo.sol\":6420:6423  100 */\n      0x64\n        /* \"profxexpo.sol\":6393:6448  Package(5, 10000 * 10**18, 100, 1080, \"Digital Assets\") */\n      dup5\n      dup7\n      add\n      swap1\n      dup2\n      mstore\n        /* \"profxexpo.sol\":6425:6429  1080 */\n      0x0438\n        /* \"profxexpo.sol\":6393:6448  Package(5, 10000 * 10**18, 100, 1080, \"Digital Assets\") */\n      0x60\n      dup7\n      add\n      swap1\n      dup2\n      mstore\n      dup7\n      mload\n      dup1\n      dup9\n      add\n      swap1\n      swap8\n      mstore\n      0x0e\n      dup8\n      mstore\n      shl(0x90, 0x4469676974616c20417373657473)\n      swap3\n      dup8\n      add\n      swap3\n      swap1\n      swap3\n      mstore\n      0x80\n      dup6\n      add\n      swap6\n      dup7\n      mstore\n        /* \"profxexpo.sol\":6379:6387  packages */\n      0x0a\n        /* \"profxexpo.sol\":6379:6449  packages.push(Package(5, 10000 * 10**18, 100, 1080, \"Digital Assets\")) */\n      dup1\n      sload\n      0x01\n      dup2\n      add\n      dup3\n      sstore\n      0x00\n      swap2\n      swap1\n      swap2\n      mstore\n      dup6\n      mload\n      swap5\n      mul\n      mload(0x00)\n      codecopy(0x00, data_410c2796757c1866e144712b649ab035b22d7295530f125d2b7bc17fa7b793b5, 0x20)\n      mload(0x00)\n      swap1\n      0x00\n      mstore\n      dup2\n      add\n      swap5\n      dup6\n      sstore\n      swap3\n      mload\n      mload(0x00)\n      codecopy(0x00, data_06b493c1ca289c5326ef56c162cd187bf96c737c2c9bbda318cc345be15042af, 0x20)\n      mload(0x00)\n      swap1\n      0x00\n      mstore\n      dup5\n      add\n      sstore\n      mload\n      mload(0x00)\n      codecopy(0x00, data_7a0b543a77c72a2154fae01417d93ab4a7f07c9a6bbce5febfeb9904a41b7914, 0x20)\n      mload(0x00)\n      swap1\n      0x00\n      mstore\n      dup4\n      add\n      sstore\n      mload\n      mload(0x00)\n      codecopy(0x00, data_5370eae143cc2f6260640bd734b0cdaf587bbcfc81362df39d56d5a29a7e663b, 0x20)\n      mload(0x00)\n      swap1\n      0x00\n      mstore\n      dup3\n      add\n      sstore\n      swap3\n      mload\n        /* \"profxexpo.sol\":6393:6448  Package(5, 10000 * 10**18, 100, 1080, \"Digital Assets\") */\n      swap2\n      swap4\n      pop\n        /* \"profxexpo.sol\":6379:6449  packages.push(Package(5, 10000 * 10**18, 100, 1080, \"Digital Assets\")) */\n      swap2\n      mload(0x00)\n      codecopy(0x00, data_d5211e5652076f058928f5b24e1816690291c298b337ea927f8d0f3aabb8a05a, 0x20)\n      mload(0x00)\n      swap1\n      0x00\n      mstore\n      add\n      swap1\n      tag_176\n      swap1\n      dup3\n      tag_168\n      jump\t// in\n    tag_176:\n      pop\n        /* \"profxexpo.sol\":6503:6512  uint256 i */\n      0x00\n      swap2\n      pop\n      pop\n        /* \"profxexpo.sol\":6498:6633  for (uint256 i = 0; i < packages.length; i++) {... */\n    tag_177:\n        /* \"profxexpo.sol\":6522:6530  packages */\n      0x0a\n        /* \"profxexpo.sol\":6522:6537  packages.length */\n      sload\n        /* \"profxexpo.sol\":6518:6537  i < packages.length */\n      dup2\n      lt\n        /* \"profxexpo.sol\":6498:6633  for (uint256 i = 0; i < packages.length; i++) {... */\n      iszero\n      tag_178\n      jumpi\n        /* \"profxexpo.sol\":6601:6609  packages */\n      0x0a\n        /* \"profxexpo.sol\":6610:6611  i */\n      dup2\n        /* \"profxexpo.sol\":6601:6612  packages[i] */\n      dup2\n      sload\n      dup2\n      lt\n      tag_181\n      jumpi\n      tag_181\n      tag_182\n      jump\t// in\n    tag_181:\n      swap1\n      0x00\n      mstore\n      keccak256(0x00, 0x20)\n      swap1\n      0x05\n      mul\n      add\n        /* \"profxexpo.sol\":6601:6622  packages[i].minAmount */\n      0x01\n      add\n      sload\n        /* \"profxexpo.sol\":6558:6575  packageMinAmounts */\n      0x0b\n        /* \"profxexpo.sol\":6558:6598  packageMinAmounts[packages[i].packageId] */\n      0x00\n        /* \"profxexpo.sol\":6576:6584  packages */\n      0x0a\n        /* \"profxexpo.sol\":6585:6586  i */\n      dup5\n        /* \"profxexpo.sol\":6576:6587  packages[i] */\n      dup2\n      sload\n      dup2\n      lt\n      tag_185\n      jumpi\n      tag_185\n      tag_182\n      jump\t// in\n    tag_185:\n      0x00\n      swap2\n      dup3\n      mstore\n      0x20\n      dup1\n      dup4\n      keccak256\n      0x05\n      swap1\n      swap3\n      mul\n      swap1\n      swap2\n      add\n        /* \"profxexpo.sol\":6576:6597  packages[i].packageId */\n      sload\n        /* \"profxexpo.sol\":6558:6598  packageMinAmounts[packages[i].packageId] */\n      dup4\n      mstore\n      dup3\n      add\n      swap3\n      swap1\n      swap3\n      mstore\n      0x40\n      add\n      swap1\n      keccak256\n        /* \"profxexpo.sol\":6558:6622  packageMinAmounts[packages[i].packageId] = packages[i].minAmount */\n      sstore\n        /* \"profxexpo.sol\":6539:6542  i++ */\n      0x01\n      add\n        /* \"profxexpo.sol\":6498:6633  for (uint256 i = 0; i < packages.length; i++) {... */\n      jump(tag_177)\n    tag_178:\n      pop\n        /* \"profxexpo.sol\":6656:6657  1 */\n      0x01\n        /* \"profxexpo.sol\":6643:6653  lastUserId */\n      0x06\n        /* \"profxexpo.sol\":6643:6657  lastUserId = 1 */\n      dup2\n      dup2\n      sstore\n      sub(shl(0xa0, 0x01), 0x01)\n        /* \"profxexpo.sol\":6667:6680  users[_owner] */\n      dup5\n      and\n      0x00\n      dup2\n      dup2\n      mstore\n        /* \"profxexpo.sol\":6667:6672  users */\n      0x07\n        /* \"profxexpo.sol\":6667:6680  users[_owner] */\n      0x20\n      swap1\n      dup2\n      mstore\n      0x40\n      dup3\n      keccak256\n        /* \"profxexpo.sol\":6667:6700  users[_owner].userId = lastUserId */\n      dup6\n      swap1\n      sstore\n        /* \"profxexpo.sol\":6710:6733  idToAddress[lastUserId] */\n      dup5\n      dup3\n      mstore\n        /* \"profxexpo.sol\":6710:6721  idToAddress */\n      0x08\n        /* \"profxexpo.sol\":6710:6733  idToAddress[lastUserId] */\n      swap1\n      mstore\n      0xad67d757c34507f157cacfa2e3153e9f260a2244f30428821be7be64587ac55f\n        /* \"profxexpo.sol\":6710:6742  idToAddress[lastUserId] = _owner */\n      dup1\n      sload\n      not(sub(shl(0xa0, 0x01), 0x01))\n      and\n      swap1\n      swap3\n      or\n      swap1\n      swap2\n      sstore\n        /* \"profxexpo.sol\":6752:6764  lastUserId++ */\n      tag_187\n        /* \"profxexpo.sol\":6656:6657  1 */\n      dup4\n        /* \"profxexpo.sol\":6752:6764  lastUserId++ */\n      tag_188\n      jump\t// in\n    tag_187:\n      swap1\n      swap2\n      sstore\n      pop\n      pop\n        /* \"profxexpo.sol\":6779:6817  Registration(_owner, address(0), 1, 0) */\n      0x40\n      dup1\n      mload\n        /* \"profxexpo.sol\":6812:6813  1 */\n      0x01\n        /* \"#utility.yul\":12507:12532   */\n      dup2\n      mstore\n        /* \"profxexpo.sol\":6808:6809  0 */\n      0x00\n        /* \"#utility.yul\":12563:12565   */\n      0x20\n        /* \"#utility.yul\":12548:12566   */\n      dup3\n      add\n        /* \"#utility.yul\":12541:12575   */\n      dup2\n      swap1\n      mstore\n        /* \"profxexpo.sol\":6808:6809  0 */\n      swap2\n      sub(shl(0xa0, 0x01), 0x01)\n        /* \"profxexpo.sol\":6779:6817  Registration(_owner, address(0), 1, 0) */\n      dup6\n      and\n      swap2\n      0x309bb360e8b69c23937ccc5fb01f9aeeead1c95a99604e175113ff82f2b1723a\n      swap2\n        /* \"#utility.yul\":12480:12498   */\n      add\n        /* \"profxexpo.sol\":6779:6817  Registration(_owner, address(0), 1, 0) */\n      mload(0x40)\n      dup1\n      swap2\n      sub\n      swap1\n      log3\n        /* \"profxexpo.sol\":1450:1464  isTopLevelCall */\n      dup1\n        /* \"profxexpo.sol\":1446:1512  if (isTopLevelCall) {... */\n      iszero\n      tag_191\n      jumpi\n        /* \"profxexpo.sol\":1496:1501  false */\n      0x00\n        /* \"profxexpo.sol\":1480:1501  _initializing = false */\n      dup1\n      sload\n      not(shl(0xb0, 0xff))\n      and\n      swap1\n      sstore\n        /* \"profxexpo.sol\":1446:1512  if (isTopLevelCall) {... */\n    tag_191:\n        /* \"profxexpo.sol\":1170:1518  {... */\n      pop\n        /* \"profxexpo.sol\":5936:6824  function initialize( address _usdt, address _owner)  external initializer  {... */\n      pop\n      pop\n      jump\t// out\n        /* \"profxexpo.sol\":9453:9896  function getWithdrawHash(... */\n    tag_66:\n      sub(shl(0xa0, 0x01), 0x01)\n        /* \"profxexpo.sol\":9746:9757  nonce[user] */\n      dup4\n      and\n        /* \"profxexpo.sol\":9583:9590  bytes32 */\n      0x00\n        /* \"profxexpo.sol\":9746:9757  nonce[user] */\n      swap1\n      dup2\n      mstore\n        /* \"profxexpo.sol\":9746:9751  nonce */\n      0x09\n        /* \"profxexpo.sol\":9746:9757  nonce[user] */\n      0x20\n      swap1\n      dup2\n      mstore\n      0x40\n      swap2\n      dup3\n      swap1\n      keccak256\n      sload\n        /* \"profxexpo.sol\":9648:9875  abi.encodePacked(... */\n      dup3\n      mload\n      not(0xffffffffffffffffffffffff)\n        /* \"#utility.yul\":12875:12877   */\n      0x60\n        /* \"#utility.yul\":12871:12886   */\n      swap8\n      dup9\n      shl\n        /* \"#utility.yul\":12867:12920   */\n      dup2\n      and\n        /* \"profxexpo.sol\":9648:9875  abi.encodePacked(... */\n      dup3\n      dup6\n      add\n        /* \"#utility.yul\":12855:12921   */\n      mstore\n        /* \"#utility.yul\":12937:12949   */\n      0x34\n      dup3\n      add\n        /* \"#utility.yul\":12930:12958   */\n      swap7\n      swap1\n      swap7\n      mstore\n        /* \"#utility.yul\":12974:12986   */\n      0x54\n      dup2\n      add\n        /* \"#utility.yul\":12967:12995   */\n      swap2\n      swap1\n      swap2\n      mstore\n        /* \"#utility.yul\":13011:13023   */\n      0x74\n      dup2\n      add\n        /* \"#utility.yul\":13004:13032   */\n      swap4\n      swap1\n      swap4\n      mstore\n        /* \"profxexpo.sol\":9809:9822  block.chainid */\n      chainid\n        /* \"#utility.yul\":13048:13061   */\n      0x94\n      dup5\n      add\n        /* \"#utility.yul\":13041:13070   */\n      mstore\n        /* \"profxexpo.sol\":9852:9856  this */\n      address\n        /* \"#utility.yul\":13105:13120   */\n      swap1\n      swap5\n      shl\n        /* \"#utility.yul\":13101:13154   */\n      swap1\n      swap3\n      and\n        /* \"#utility.yul\":13086:13099   */\n      0xb4\n      dup3\n      add\n        /* \"#utility.yul\":13079:13155   */\n      mstore\n        /* \"profxexpo.sol\":9648:9875  abi.encodePacked(... */\n      dup2\n      mload\n      dup1\n      dup3\n      sub\n      0xa8\n      add\n      dup2\n      mstore\n        /* \"#utility.yul\":13171:13184   */\n      0xc8\n      swap1\n      swap2\n      add\n        /* \"profxexpo.sol\":9648:9875  abi.encodePacked(... */\n      swap1\n      swap2\n      mstore\n        /* \"profxexpo.sol\":9621:9889  keccak256(... */\n      dup1\n      mload\n      swap2\n      add\n      keccak256\n      swap1\n        /* \"profxexpo.sol\":9453:9896  function getWithdrawHash(... */\n      jump\t// out\n        /* \"profxexpo.sol\":2098:2199  function renounceOwnership() public virtual onlyOwner {... */\n    tag_80:\n        /* \"profxexpo.sol\":1834:1847  _checkOwner() */\n      tag_198\n        /* \"profxexpo.sol\":1834:1845  _checkOwner */\n      tag_199\n        /* \"profxexpo.sol\":1834:1847  _checkOwner() */\n      jump\t// in\n    tag_198:\n        /* \"profxexpo.sol\":2162:2192  _transferOwnership(address(0)) */\n      tag_155\n        /* \"profxexpo.sol\":2189:2190  0 */\n      0x00\n        /* \"profxexpo.sol\":2162:2180  _transferOwnership */\n      tag_202\n        /* \"profxexpo.sol\":2162:2192  _transferOwnership(address(0)) */\n      jump\t// in\n        /* \"profxexpo.sol\":10960:11066  function setUnitySignWallet(address _UnitySign) external onlyOwner {... */\n    tag_88:\n        /* \"profxexpo.sol\":1834:1847  _checkOwner() */\n      tag_204\n        /* \"profxexpo.sol\":1834:1845  _checkOwner */\n      tag_199\n        /* \"profxexpo.sol\":1834:1847  _checkOwner() */\n      jump\t// in\n    tag_204:\n        /* \"profxexpo.sol\":11037:11046  UnitySign */\n      0x05\n        /* \"profxexpo.sol\":11037:11059  UnitySign = _UnitySign */\n      dup1\n      sload\n      not(sub(shl(0xa0, 0x01), 0x01))\n      and\n      sub(shl(0xa0, 0x01), 0x01)\n      swap3\n      swap1\n      swap3\n      and\n      swap2\n      swap1\n      swap2\n      or\n      swap1\n      sstore\n        /* \"profxexpo.sol\":10960:11066  function setUnitySignWallet(address _UnitySign) external onlyOwner {... */\n      jump\t// out\n        /* \"profxexpo.sol\":7463:8354  function stake(uint amount, uint plan, address _referral) public {... */\n    tag_93:\n        /* \"profxexpo.sol\":7543:7569  isUserExists(_msgSender()) */\n      tag_207\n        /* \"profxexpo.sol\":177:187  msg.sender */\n      caller\n        /* \"profxexpo.sol\":8361:8473  function isUserExists(address user) public view returns (bool) {... */\n      tag_53\n      jump\t// in\n        /* \"profxexpo.sol\":7543:7569  isUserExists(_msgSender()) */\n    tag_207:\n        /* \"profxexpo.sol\":7539:7627  if(!isUserExists(_msgSender())){... */\n      tag_210\n      jumpi\n        /* \"profxexpo.sol\":7580:7616  registration(_msgSender(),_referral) */\n      tag_210\n        /* \"profxexpo.sol\":177:187  msg.sender */\n      caller\n        /* \"profxexpo.sol\":7606:7615  _referral */\n      dup3\n        /* \"profxexpo.sol\":7580:7592  registration */\n      tag_212\n        /* \"profxexpo.sol\":7580:7616  registration(_msgSender(),_referral) */\n      jump\t// in\n    tag_210:\n        /* \"profxexpo.sol\":7644:7670  isUserExists(_msgSender()) */\n      tag_213\n        /* \"profxexpo.sol\":177:187  msg.sender */\n      caller\n        /* \"profxexpo.sol\":8361:8473  function isUserExists(address user) public view returns (bool) {... */\n      tag_53\n      jump\t// in\n        /* \"profxexpo.sol\":7644:7670  isUserExists(_msgSender()) */\n    tag_213:\n        /* \"profxexpo.sol\":7636:7699  require(isUserExists(_msgSender()), \"Dsclab: User not Exists!\") */\n      tag_215\n      jumpi\n      mload(0x40)\n      shl(0xe5, 0x461bcd)\n      dup2\n      mstore\n        /* \"#utility.yul\":13397:13399   */\n      0x20\n        /* \"profxexpo.sol\":7636:7699  require(isUserExists(_msgSender()), \"Dsclab: User not Exists!\") */\n      0x04\n      dup3\n      add\n        /* \"#utility.yul\":13379:13400   */\n      mstore\n        /* \"#utility.yul\":13436:13438   */\n      0x18\n        /* \"#utility.yul\":13416:13434   */\n      0x24\n      dup3\n      add\n        /* \"#utility.yul\":13409:13439   */\n      mstore\n        /* \"#utility.yul\":13475:13501   */\n      0x4473636c61623a2055736572206e6f7420457869737473210000000000000000\n        /* \"#utility.yul\":13455:13473   */\n      0x44\n      dup3\n      add\n        /* \"#utility.yul\":13448:13502   */\n      mstore\n        /* \"#utility.yul\":13519:13537   */\n      0x64\n      add\n        /* \"profxexpo.sol\":7636:7699  require(isUserExists(_msgSender()), \"Dsclab: User not Exists!\") */\n      tag_152\n        /* \"#utility.yul\":13195:13543   */\n      jump\n        /* \"profxexpo.sol\":7636:7699  require(isUserExists(_msgSender()), \"Dsclab: User not Exists!\") */\n    tag_215:\n        /* \"profxexpo.sol\":7717:7721  plan */\n      dup2\n        /* \"profxexpo.sol\":7725:7726  1 */\n      0x01\n        /* \"profxexpo.sol\":7717:7726  plan == 1 */\n      eq\n        /* \"profxexpo.sol\":7717:7764  plan == 1 && amount >= packages[plan].minAmount */\n      dup1\n      iszero\n      tag_218\n      jumpi\n      pop\n        /* \"profxexpo.sol\":7740:7748  packages */\n      0x0a\n        /* \"profxexpo.sol\":7749:7753  plan */\n      dup3\n        /* \"profxexpo.sol\":7740:7754  packages[plan] */\n      dup2\n      sload\n      dup2\n      lt\n      tag_220\n      jumpi\n      tag_220\n      tag_182\n      jump\t// in\n    tag_220:\n      swap1\n      0x00\n      mstore\n      keccak256(0x00, 0x20)\n      swap1\n      0x05\n      mul\n      add\n        /* \"profxexpo.sol\":7740:7764  packages[plan].minAmount */\n      0x01\n      add\n      sload\n        /* \"profxexpo.sol\":7730:7736  amount */\n      dup4\n        /* \"profxexpo.sol\":7730:7764  amount >= packages[plan].minAmount */\n      lt\n      iszero\n        /* \"profxexpo.sol\":7717:7764  plan == 1 && amount >= packages[plan].minAmount */\n    tag_218:\n        /* \"profxexpo.sol\":7709:7808  require(plan == 1 && amount >= packages[plan].minAmount, \"Invalid Investment Amount for this Plan\") */\n      tag_222\n      jumpi\n      mload(0x40)\n      shl(0xe5, 0x461bcd)\n      dup2\n      mstore\n        /* \"#utility.yul\":13750:13752   */\n      0x20\n        /* \"profxexpo.sol\":7709:7808  require(plan == 1 && amount >= packages[plan].minAmount, \"Invalid Investment Amount for this Plan\") */\n      0x04\n      dup3\n      add\n        /* \"#utility.yul\":13732:13753   */\n      mstore\n        /* \"#utility.yul\":13789:13791   */\n      0x27\n        /* \"#utility.yul\":13769:13787   */\n      0x24\n      dup3\n      add\n        /* \"#utility.yul\":13762:13792   */\n      mstore\n        /* \"#utility.yul\":13828:13862   */\n      0x496e76616c696420496e766573746d656e7420416d6f756e7420666f72207468\n        /* \"#utility.yul\":13808:13826   */\n      0x44\n      dup3\n      add\n        /* \"#utility.yul\":13801:13863   */\n      mstore\n      shl(0xc9, 0x34b990283630b7)\n        /* \"#utility.yul\":13879:13897   */\n      0x64\n      dup3\n      add\n        /* \"#utility.yul\":13872:13909   */\n      mstore\n        /* \"#utility.yul\":13926:13945   */\n      0x84\n      add\n        /* \"profxexpo.sol\":7709:7808  require(plan == 1 && amount >= packages[plan].minAmount, \"Invalid Investment Amount for this Plan\") */\n      tag_152\n        /* \"#utility.yul\":13548:13951   */\n      jump\n        /* \"profxexpo.sol\":7709:7808  require(plan == 1 && amount >= packages[plan].minAmount, \"Invalid Investment Amount for this Plan\") */\n    tag_222:\n        /* \"profxexpo.sol\":177:187  msg.sender */\n      caller\n        /* \"profxexpo.sol\":7818:7832  uint lastinvst */\n      0x00\n        /* \"profxexpo.sol\":7835:7854  users[_msgSender()] */\n      dup2\n      dup2\n      mstore\n        /* \"profxexpo.sol\":7835:7840  users */\n      0x07\n        /* \"profxexpo.sol\":7835:7854  users[_msgSender()] */\n      0x20\n      swap1\n      dup2\n      mstore\n      0x40\n      swap2\n      dup3\n      swap1\n      keccak256\n        /* \"profxexpo.sol\":7835:7865  users[_msgSender()].lastinvest */\n      0x06\n      dup2\n      add\n      sload\n        /* \"profxexpo.sol\":8037:8065  users[_msgSender()].referrer */\n      0x01\n      swap1\n      swap2\n      add\n      sload\n        /* \"profxexpo.sol\":8080:8111  Stake(msg.sender, amount, plan) */\n      dup4\n      mload\n        /* \"#utility.yul\":12507:12532   */\n      dup9\n      dup2\n      mstore\n        /* \"#utility.yul\":12548:12566   */\n      swap3\n      dup4\n      add\n        /* \"#utility.yul\":12541:12575   */\n      dup8\n      swap1\n      mstore\n        /* \"profxexpo.sol\":8080:8111  Stake(msg.sender, amount, plan) */\n      dup4\n      mload\n        /* \"profxexpo.sol\":7835:7865  users[_msgSender()].lastinvest */\n      swap2\n      swap5\n      sub(shl(0xa0, 0x01), 0x01)\n        /* \"profxexpo.sol\":8037:8065  users[_msgSender()].referrer */\n      swap1\n      swap2\n      and\n      swap4\n        /* \"profxexpo.sol\":177:187  msg.sender */\n      swap1\n      swap3\n        /* \"profxexpo.sol\":8080:8111  Stake(msg.sender, amount, plan) */\n      0x5af417134f72a9d41143ace85b0a26dce6f550f894f2cbc1eeee8810603d91b6\n      swap3\n      swap1\n      dup2\n      swap1\n      sub\n      swap1\n      swap2\n      add\n      swap1\n      log2\n        /* \"profxexpo.sol\":177:187  msg.sender */\n      caller\n        /* \"profxexpo.sol\":8121:8140  users[_msgSender()] */\n      0x00\n      swap1\n      dup2\n      mstore\n        /* \"profxexpo.sol\":8121:8126  users */\n      0x07\n        /* \"profxexpo.sol\":8121:8140  users[_msgSender()] */\n      0x20\n      mstore\n      0x40\n      dup2\n      keccak256\n        /* \"profxexpo.sol\":8121:8151  users[_msgSender()].lastinvest */\n      0x06\n      dup2\n      add\n        /* \"profxexpo.sol\":8121:8160  users[_msgSender()].lastinvest = amount */\n      dup8\n      swap1\n      sstore\n        /* \"profxexpo.sol\":8170:8200  users[_msgSender()].totalStake */\n      0x03\n      add\n        /* \"profxexpo.sol\":8170:8210  users[_msgSender()].totalStake += amount */\n      dup1\n      sload\n        /* \"profxexpo.sol\":8121:8160  users[_msgSender()].lastinvest = amount */\n      dup8\n      swap3\n        /* \"profxexpo.sol\":8121:8140  users[_msgSender()] */\n      swap1\n        /* \"profxexpo.sol\":8170:8210  users[_msgSender()].totalStake += amount */\n      tag_231\n      swap1\n        /* \"profxexpo.sol\":8121:8160  users[_msgSender()].lastinvest = amount */\n      dup5\n      swap1\n        /* \"profxexpo.sol\":8170:8210  users[_msgSender()].totalStake += amount */\n      tag_232\n      jump\t// in\n    tag_231:\n      swap1\n      swap2\n      sstore\n      pop\n      pop\n        /* \"profxexpo.sol\":177:187  msg.sender */\n      caller\n        /* \"profxexpo.sol\":8220:8233  uint refStake */\n      0x00\n        /* \"profxexpo.sol\":8236:8255  users[_msgSender()] */\n      swap1\n      dup2\n      mstore\n        /* \"profxexpo.sol\":8236:8241  users */\n      0x07\n        /* \"profxexpo.sol\":8236:8255  users[_msgSender()] */\n      0x20\n      mstore\n      0x40\n      dup2\n      keccak256\n        /* \"profxexpo.sol\":8236:8266  users[_msgSender()].totalStake */\n      0x03\n      add\n      sload\n      swap1\n        /* \"profxexpo.sol\":8279:8292  refStake == 0 */\n      dup2\n      swap1\n      sub\n        /* \"profxexpo.sol\":8276:8339  if(refStake == 0){... */\n      tag_234\n      jumpi\n      sub(shl(0xa0, 0x01), 0x01)\n        /* \"profxexpo.sol\":8303:8313  users[ref] */\n      dup3\n      and\n      0x00\n      swap1\n      dup2\n      mstore\n        /* \"profxexpo.sol\":8303:8308  users */\n      0x07\n        /* \"profxexpo.sol\":8303:8313  users[ref] */\n      0x20\n      mstore\n      0x40\n      dup2\n      keccak256\n        /* \"profxexpo.sol\":8303:8326  users[ref].partnerCount */\n      0x02\n      add\n        /* \"profxexpo.sol\":8303:8328  users[ref].partnerCount++ */\n      dup1\n      sload\n      swap2\n      tag_235\n      dup4\n      tag_188\n      jump\t// in\n    tag_235:\n      swap2\n      swap1\n      pop\n      sstore\n      pop\n        /* \"profxexpo.sol\":8276:8339  if(refStake == 0){... */\n    tag_234:\n        /* \"profxexpo.sol\":7528:8354  {... */\n      pop\n      pop\n      pop\n        /* \"profxexpo.sol\":7463:8354  function stake(uint amount, uint plan, address _referral) public {... */\n      pop\n      pop\n      pop\n      jump\t// out\n        /* \"profxexpo.sol\":8782:8961  function withdrawLostTokenFromBalance(uint QtyAmt,IERC20 _TOKEN) public {... */\n    tag_98:\n        /* \"profxexpo.sol\":1917:1924  address */\n      0x00\n        /* \"profxexpo.sol\":1943:1949  _owner */\n      sload\n      sub(shl(0xa0, 0x01), 0x01)\n      and\n        /* \"profxexpo.sol\":177:187  msg.sender */\n      caller\n        /* \"profxexpo.sol\":8872:8895  _msgSender() == owner() */\n      eq\n        /* \"profxexpo.sol\":8864:8909  require(_msgSender() == owner(), \"onlyOwner\") */\n      tag_239\n      jumpi\n      mload(0x40)\n      shl(0xe5, 0x461bcd)\n      dup2\n      mstore\n        /* \"#utility.yul\":14541:14543   */\n      0x20\n        /* \"profxexpo.sol\":8864:8909  require(_msgSender() == owner(), \"onlyOwner\") */\n      0x04\n      dup3\n      add\n        /* \"#utility.yul\":14523:14544   */\n      mstore\n        /* \"#utility.yul\":14580:14581   */\n      0x09\n        /* \"#utility.yul\":14560:14578   */\n      0x24\n      dup3\n      add\n        /* \"#utility.yul\":14553:14582   */\n      mstore\n      shl(0xb9, 0x37b7363ca7bbb732b9)\n        /* \"#utility.yul\":14598:14616   */\n      0x44\n      dup3\n      add\n        /* \"#utility.yul\":14591:14630   */\n      mstore\n        /* \"#utility.yul\":14647:14665   */\n      0x64\n      add\n        /* \"profxexpo.sol\":8864:8909  require(_msgSender() == owner(), \"onlyOwner\") */\n      tag_152\n        /* \"#utility.yul\":14339:14671   */\n      jump\n        /* \"profxexpo.sol\":8864:8909  require(_msgSender() == owner(), \"onlyOwner\") */\n    tag_239:\n        /* \"profxexpo.sol\":8919:8925  _TOKEN */\n      dup1\n      sub(shl(0xa0, 0x01), 0x01)\n        /* \"profxexpo.sol\":8919:8934  _TOKEN.transfer */\n      and\n      0xa9059cbb\n        /* \"profxexpo.sol\":8935:8942  owner() */\n      tag_242\n        /* \"profxexpo.sol\":1917:1924  address */\n      0x00\n        /* \"profxexpo.sol\":1943:1949  _owner */\n      sload\n      sub(shl(0xa0, 0x01), 0x01)\n      and\n      swap1\n        /* \"profxexpo.sol\":1871:1956  function owner() public view virtual returns (address) {... */\n      jump\n        /* \"profxexpo.sol\":8935:8942  owner() */\n    tag_242:\n        /* \"profxexpo.sol\":8944:8955  QtyAmt*1e18 */\n      tag_243\n        /* \"profxexpo.sol\":8944:8950  QtyAmt */\n      dup6\n        /* \"profxexpo.sol\":8951:8955  1e18 */\n      0x0de0b6b3a7640000\n        /* \"profxexpo.sol\":8944:8955  QtyAmt*1e18 */\n      tag_244\n      jump\t// in\n    tag_243:\n        /* \"profxexpo.sol\":8919:8957  _TOKEN.transfer(owner(),(QtyAmt*1e18)) */\n      mload(0x40)\n      not(sub(shl(0xe0, 0x01), 0x01))\n      0xe0\n      dup6\n      swap1\n      shl\n      and\n      dup2\n      mstore\n      sub(shl(0xa0, 0x01), 0x01)\n        /* \"#utility.yul\":15041:15073   */\n      swap1\n      swap3\n      and\n        /* \"profxexpo.sol\":8919:8957  _TOKEN.transfer(owner(),(QtyAmt*1e18)) */\n      0x04\n      dup4\n      add\n        /* \"#utility.yul\":15023:15074   */\n      mstore\n        /* \"#utility.yul\":15090:15108   */\n      0x24\n      dup3\n      add\n        /* \"#utility.yul\":15083:15117   */\n      mstore\n        /* \"#utility.yul\":14996:15014   */\n      0x44\n      add\n        /* \"profxexpo.sol\":8919:8957  _TOKEN.transfer(owner(),(QtyAmt*1e18)) */\n      0x20\n      mload(0x40)\n      dup1\n      dup4\n      sub\n      dup2\n      0x00\n      dup8\n      gas\n      call\n      iszero\n      dup1\n      iszero\n      tag_248\n      jumpi\n      returndatacopy(0x00, 0x00, returndatasize)\n      revert(0x00, returndatasize)\n    tag_248:\n      pop\n      pop\n      pop\n      pop\n      mload(0x40)\n      returndatasize\n      not(0x1f)\n      0x1f\n      dup3\n      add\n      and\n      dup3\n      add\n      dup1\n      0x40\n      mstore\n      pop\n      dup2\n      add\n      swap1\n      tag_191\n      swap2\n      swap1\n      tag_250\n      jump\t// in\n        /* \"profxexpo.sol\":8967:9447  function multisendToken(address payable[]  memory  _contributors, uint256[] memory _balances, uint256 totalQty,IERC20 _TKN) public payable {... */\n    tag_102:\n        /* \"profxexpo.sol\":9129:9137  totalQty */\n      dup2\n        /* \"profxexpo.sol\":9113:9126  uint256 total */\n      0x00\n        /* \"profxexpo.sol\":9170:9441  for (i; i < _contributors.length; i++) {... */\n    tag_252:\n        /* \"profxexpo.sol\":9182:9195  _contributors */\n      dup6\n        /* \"profxexpo.sol\":9182:9202  _contributors.length */\n      mload\n        /* \"profxexpo.sol\":9178:9179  i */\n      dup2\n        /* \"profxexpo.sol\":9178:9202  i < _contributors.length */\n      lt\n        /* \"profxexpo.sol\":9170:9441  for (i; i < _contributors.length; i++) {... */\n      iszero\n      tag_234\n      jumpi\n        /* \"profxexpo.sol\":9240:9249  _balances */\n      dup5\n        /* \"profxexpo.sol\":9250:9251  i */\n      dup2\n        /* \"profxexpo.sol\":9240:9252  _balances[i] */\n      dup2\n      mload\n      dup2\n      lt\n      tag_256\n      jumpi\n      tag_256\n      tag_182\n      jump\t// in\n    tag_256:\n      0x20\n      mul\n      0x20\n      add\n      add\n      mload\n        /* \"profxexpo.sol\":9231:9236  total */\n      dup3\n        /* \"profxexpo.sol\":9231:9252  total >= _balances[i] */\n      lt\n      iszero\n        /* \"profxexpo.sol\":9223:9253  require(total >= _balances[i]) */\n      tag_257\n      jumpi\n      revert(0x00, 0x00)\n    tag_257:\n        /* \"profxexpo.sol\":9283:9292  _balances */\n      dup5\n        /* \"profxexpo.sol\":9293:9294  i */\n      dup2\n        /* \"profxexpo.sol\":9283:9295  _balances[i] */\n      dup2\n      mload\n      dup2\n      lt\n      tag_259\n      jumpi\n      tag_259\n      tag_182\n      jump\t// in\n    tag_259:\n      0x20\n      mul\n      0x20\n      add\n      add\n      mload\n        /* \"profxexpo.sol\":9275:9280  total */\n      dup3\n        /* \"profxexpo.sol\":9275:9295  total - _balances[i] */\n      tag_260\n      swap2\n      swap1\n      tag_261\n      jump\t// in\n    tag_260:\n        /* \"profxexpo.sol\":9267:9295  total = total - _balances[i] */\n      swap2\n      pop\n        /* \"profxexpo.sol\":9309:9313  _TKN */\n      dup3\n      sub(shl(0xa0, 0x01), 0x01)\n        /* \"profxexpo.sol\":9309:9326  _TKN.transferFrom */\n      and\n      0x23b872dd\n        /* \"profxexpo.sol\":9327:9337  msg.sender */\n      caller\n        /* \"profxexpo.sol\":9339:9352  _contributors */\n      dup9\n        /* \"profxexpo.sol\":9353:9354  i */\n      dup5\n        /* \"profxexpo.sol\":9339:9355  _contributors[i] */\n      dup2\n      mload\n      dup2\n      lt\n      tag_263\n      jumpi\n      tag_263\n      tag_182\n      jump\t// in\n    tag_263:\n      0x20\n      mul\n      0x20\n      add\n      add\n      mload\n        /* \"profxexpo.sol\":9357:9366  _balances */\n      dup9\n        /* \"profxexpo.sol\":9367:9368  i */\n      dup6\n        /* \"profxexpo.sol\":9357:9369  _balances[i] */\n      dup2\n      mload\n      dup2\n      lt\n      tag_265\n      jumpi\n      tag_265\n      tag_182\n      jump\t// in\n    tag_265:\n      0x20\n      swap1\n      dup2\n      mul\n      swap2\n      swap1\n      swap2\n      add\n      add\n      mload\n        /* \"profxexpo.sol\":9309:9370  _TKN.transferFrom(msg.sender, _contributors[i], _balances[i]) */\n      mload(0x40)\n      not(sub(shl(0xe0, 0x01), 0x01))\n      0xe0\n      dup7\n      swap1\n      shl\n      and\n      dup2\n      mstore\n      sub(shl(0xa0, 0x01), 0x01)\n        /* \"#utility.yul\":15771:15803   */\n      swap4\n      dup5\n      and\n        /* \"profxexpo.sol\":9309:9370  _TKN.transferFrom(msg.sender, _contributors[i], _balances[i]) */\n      0x04\n      dup3\n      add\n        /* \"#utility.yul\":15753:15804   */\n      mstore\n        /* \"#utility.yul\":15840:15872   */\n      swap3\n      swap1\n      swap2\n      and\n        /* \"#utility.yul\":15820:15838   */\n      0x24\n      dup4\n      add\n        /* \"#utility.yul\":15813:15873   */\n      mstore\n        /* \"#utility.yul\":15889:15907   */\n      0x44\n      dup3\n      add\n        /* \"#utility.yul\":15882:15916   */\n      mstore\n        /* \"#utility.yul\":15726:15744   */\n      0x64\n      add\n        /* \"profxexpo.sol\":9309:9370  _TKN.transferFrom(msg.sender, _contributors[i], _balances[i]) */\n      0x20\n      mload(0x40)\n      dup1\n      dup4\n      sub\n      dup2\n      0x00\n      dup8\n      gas\n      call\n      iszero\n      dup1\n      iszero\n      tag_269\n      jumpi\n      returndatacopy(0x00, 0x00, returndatasize)\n      revert(0x00, returndatasize)\n    tag_269:\n      pop\n      pop\n      pop\n      pop\n      mload(0x40)\n      returndatasize\n      not(0x1f)\n      0x1f\n      dup3\n      add\n      and\n      dup3\n      add\n      dup1\n      0x40\n      mstore\n      pop\n      dup2\n      add\n      swap1\n      tag_270\n      swap2\n      swap1\n      tag_250\n      jump\t// in\n    tag_270:\n      pop\n        /* \"profxexpo.sol\":9400:9413  _contributors */\n      dup6\n        /* \"profxexpo.sol\":9414:9415  i */\n      dup2\n        /* \"profxexpo.sol\":9400:9416  _contributors[i] */\n      dup2\n      mload\n      dup2\n      lt\n      tag_272\n      jumpi\n      tag_272\n      tag_182\n      jump\t// in\n    tag_272:\n      0x20\n      mul\n      0x20\n      add\n      add\n      mload\n      sub(shl(0xa0, 0x01), 0x01)\n        /* \"profxexpo.sol\":9386:9430  MemberPayment(_contributors[i],_balances[i]) */\n      and\n      0xbd54bf7a35b4f30a5c2e53df02c464dc7c2a159a96b24dbb41cd9808bd6e2e36\n        /* \"profxexpo.sol\":9417:9426  _balances */\n      dup7\n        /* \"profxexpo.sol\":9427:9428  i */\n      dup4\n        /* \"profxexpo.sol\":9417:9429  _balances[i] */\n      dup2\n      mload\n      dup2\n      lt\n      tag_274\n      jumpi\n      tag_274\n      tag_182\n      jump\t// in\n    tag_274:\n      0x20\n      mul\n      0x20\n      add\n      add\n      mload\n        /* \"profxexpo.sol\":9386:9430  MemberPayment(_contributors[i],_balances[i]) */\n      mload(0x40)\n      tag_275\n      swap2\n        /* \"#utility.yul\":599:624   */\n      dup2\n      mstore\n        /* \"#utility.yul\":587:589   */\n      0x20\n        /* \"#utility.yul\":572:590   */\n      add\n      swap1\n        /* \"#utility.yul\":453:630   */\n      jump\n        /* \"profxexpo.sol\":9386:9430  MemberPayment(_contributors[i],_balances[i]) */\n    tag_275:\n      mload(0x40)\n      dup1\n      swap2\n      sub\n      swap1\n      log2\n        /* \"profxexpo.sol\":9204:9207  i++ */\n      0x01\n      add\n        /* \"profxexpo.sol\":9170:9441  for (i; i < _contributors.length; i++) {... */\n      jump(tag_252)\n        /* \"profxexpo.sol\":8479:8541  function pause() external onlyOperator {... */\n    tag_105:\n        /* \"profxexpo.sol\":5865:5873  operator */\n      and(sub(shl(0xa0, 0x01), 0x01), sload(0x03))\n        /* \"profxexpo.sol\":177:187  msg.sender */\n      caller\n      sub(shl(0xa0, 0x01), 0x01)\n        /* \"profxexpo.sol\":5851:5873  _msgSender()==operator */\n      and\n      eq\n        /* \"profxexpo.sol\":5843:5910  require(_msgSender()==operator,\"Forbidden! Only Operator Can Call\") */\n      tag_278\n      jumpi\n      mload(0x40)\n      shl(0xe5, 0x461bcd)\n      dup2\n      mstore\n      0x04\n      add\n      tag_152\n      swap1\n      tag_153\n      jump\t// in\n    tag_278:\n        /* \"profxexpo.sol\":8526:8534  _pause() */\n      tag_155\n        /* \"profxexpo.sol\":8526:8532  _pause */\n      tag_282\n        /* \"profxexpo.sol\":8526:8534  _pause() */\n      jump\t// in\n        /* \"profxexpo.sol\":5375:5400  Package[] public packages */\n    tag_119:\n      0x0a\n      dup2\n      dup2\n      sload\n      dup2\n      lt\n      tag_284\n      jumpi\n      0x00\n      dup1\n      revert\n    tag_284:\n      swap1\n      0x00\n      mstore\n      keccak256(0x00, 0x20)\n      swap1\n      0x05\n      mul\n      add\n      0x00\n      swap2\n      pop\n      swap1\n      pop\n      dup1\n      0x00\n      add\n      sload\n      swap1\n      dup1\n      0x01\n      add\n      sload\n      swap1\n      dup1\n      0x02\n      add\n      sload\n      swap1\n      dup1\n      0x03\n      add\n      sload\n      swap1\n      dup1\n      0x04\n      add\n      dup1\n      sload\n      tag_286\n      swap1\n      tag_287\n      jump\t// in\n    tag_286:\n      dup1\n      0x1f\n      add\n      0x20\n      dup1\n      swap2\n      div\n      mul\n      0x20\n      add\n      mload(0x40)\n      swap1\n      dup2\n      add\n      0x40\n      mstore\n      dup1\n      swap3\n      swap2\n      swap1\n      dup2\n      dup2\n      mstore\n      0x20\n      add\n      dup3\n      dup1\n      sload\n      tag_288\n      swap1\n      tag_287\n      jump\t// in\n    tag_288:\n      dup1\n      iszero\n      tag_289\n      jumpi\n      dup1\n      0x1f\n      lt\n      tag_290\n      jumpi\n      0x0100\n      dup1\n      dup4\n      sload\n      div\n      mul\n      dup4\n      mstore\n      swap2\n      0x20\n      add\n      swap2\n      jump(tag_289)\n    tag_290:\n      dup3\n      add\n      swap2\n      swap1\n      0x00\n      mstore\n      keccak256(0x00, 0x20)\n      swap1\n    tag_291:\n      dup2\n      sload\n      dup2\n      mstore\n      swap1\n      0x01\n      add\n      swap1\n      0x20\n      add\n      dup1\n      dup4\n      gt\n      tag_291\n      jumpi\n      dup3\n      swap1\n      sub\n      0x1f\n      and\n      dup3\n      add\n      swap2\n    tag_289:\n      pop\n      pop\n      pop\n      pop\n      pop\n      swap1\n      pop\n      dup6\n      jump\t// out\n        /* \"profxexpo.sol\":10419:10950  function withdrawRoi(... */\n    tag_135:\n        /* \"profxexpo.sol\":555:576  _nonReentrantBefore() */\n      tag_293\n        /* \"profxexpo.sol\":555:574  _nonReentrantBefore */\n      tag_294\n        /* \"profxexpo.sol\":555:576  _nonReentrantBefore() */\n      jump\t// in\n    tag_293:\n        /* \"profxexpo.sol\":10591:10617  isUserExists(_msgSender()) */\n      tag_296\n        /* \"profxexpo.sol\":177:187  msg.sender */\n      caller\n        /* \"profxexpo.sol\":8361:8473  function isUserExists(address user) public view returns (bool) {... */\n      tag_53\n      jump\t// in\n        /* \"profxexpo.sol\":10591:10617  isUserExists(_msgSender()) */\n    tag_296:\n        /* \"profxexpo.sol\":10583:10637  require(isUserExists(_msgSender()), \"user not exists\") */\n      tag_298\n      jumpi\n      mload(0x40)\n      shl(0xe5, 0x461bcd)\n      dup2\n      mstore\n        /* \"#utility.yul\":16129:16131   */\n      0x20\n        /* \"profxexpo.sol\":10583:10637  require(isUserExists(_msgSender()), \"user not exists\") */\n      0x04\n      dup3\n      add\n        /* \"#utility.yul\":16111:16132   */\n      mstore\n        /* \"#utility.yul\":16168:16170   */\n      0x0f\n        /* \"#utility.yul\":16148:16166   */\n      0x24\n      dup3\n      add\n        /* \"#utility.yul\":16141:16171   */\n      mstore\n      shl(0x88, 0x75736572206e6f7420657869737473)\n        /* \"#utility.yul\":16187:16205   */\n      0x44\n      dup3\n      add\n        /* \"#utility.yul\":16180:16225   */\n      mstore\n        /* \"#utility.yul\":16242:16260   */\n      0x64\n      add\n        /* \"profxexpo.sol\":10583:10637  require(isUserExists(_msgSender()), \"user not exists\") */\n      tag_152\n        /* \"#utility.yul\":15927:16266   */\n      jump\n        /* \"profxexpo.sol\":10583:10637  require(isUserExists(_msgSender()), \"user not exists\") */\n    tag_298:\n        /* \"profxexpo.sol\":10655:10747  verifySignatureWithDeadline(getWithdrawHash(_msgSender(), amount,  deadline),v,r,s,deadline) */\n      tag_301\n        /* \"profxexpo.sol\":10683:10731  getWithdrawHash(_msgSender(), amount,  deadline) */\n      tag_302\n        /* \"profxexpo.sol\":177:187  msg.sender */\n      caller\n        /* \"profxexpo.sol\":10713:10719  amount */\n      dup8\n        /* \"profxexpo.sol\":10722:10730  deadline */\n      dup5\n        /* \"profxexpo.sol\":10683:10698  getWithdrawHash */\n      tag_66\n        /* \"profxexpo.sol\":10683:10731  getWithdrawHash(_msgSender(), amount,  deadline) */\n      jump\t// in\n    tag_302:\n        /* \"profxexpo.sol\":10732:10733  v */\n      dup6\n        /* \"profxexpo.sol\":10734:10735  r */\n      dup6\n        /* \"profxexpo.sol\":10736:10737  s */\n      dup6\n        /* \"profxexpo.sol\":10738:10746  deadline */\n      dup6\n        /* \"profxexpo.sol\":10655:10682  verifySignatureWithDeadline */\n      tag_304\n        /* \"profxexpo.sol\":10655:10747  verifySignatureWithDeadline(getWithdrawHash(_msgSender(), amount,  deadline),v,r,s,deadline) */\n      jump\t// in\n    tag_301:\n        /* \"profxexpo.sol\":10647:10768  require(verifySignatureWithDeadline(getWithdrawHash(_msgSender(), amount,  deadline),v,r,s,deadline),\"invalid signature\") */\n      tag_305\n      jumpi\n      mload(0x40)\n      shl(0xe5, 0x461bcd)\n      dup2\n      mstore\n        /* \"#utility.yul\":16473:16475   */\n      0x20\n        /* \"profxexpo.sol\":10647:10768  require(verifySignatureWithDeadline(getWithdrawHash(_msgSender(), amount,  deadline),v,r,s,deadline),\"invalid signature\") */\n      0x04\n      dup3\n      add\n        /* \"#utility.yul\":16455:16476   */\n      mstore\n        /* \"#utility.yul\":16512:16514   */\n      0x11\n        /* \"#utility.yul\":16492:16510   */\n      0x24\n      dup3\n      add\n        /* \"#utility.yul\":16485:16515   */\n      mstore\n      shl(0x78, 0x696e76616c6964207369676e6174757265)\n        /* \"#utility.yul\":16531:16549   */\n      0x44\n      dup3\n      add\n        /* \"#utility.yul\":16524:16571   */\n      mstore\n        /* \"#utility.yul\":16588:16606   */\n      0x64\n      add\n        /* \"profxexpo.sol\":10647:10768  require(verifySignatureWithDeadline(getWithdrawHash(_msgSender(), amount,  deadline),v,r,s,deadline),\"invalid signature\") */\n      tag_152\n        /* \"#utility.yul\":16271:16612   */\n      jump\n        /* \"profxexpo.sol\":10647:10768  require(verifySignatureWithDeadline(getWithdrawHash(_msgSender(), amount,  deadline),v,r,s,deadline),\"invalid signature\") */\n    tag_305:\n        /* \"profxexpo.sol\":10810:10848  payable(_msgSender()).transfer(polAmt) */\n      mload(0x40)\n        /* \"profxexpo.sol\":10793:10799  amount */\n      dup6\n      swap1\n        /* \"profxexpo.sol\":177:187  msg.sender */\n      caller\n      swap1\n        /* \"profxexpo.sol\":10810:10848  payable(_msgSender()).transfer(polAmt) */\n      dup3\n      iszero\n      0x08fc\n      mul\n      swap1\n        /* \"profxexpo.sol\":10793:10799  amount */\n      dup4\n      swap1\n        /* \"profxexpo.sol\":10810:10848  payable(_msgSender()).transfer(polAmt) */\n      0x00\n      dup2\n      dup2\n      dup2\n        /* \"profxexpo.sol\":10793:10799  amount */\n      dup6\n        /* \"profxexpo.sol\":177:187  msg.sender */\n      dup9\n        /* \"profxexpo.sol\":10810:10848  payable(_msgSender()).transfer(polAmt) */\n      dup9\n      call\n      swap4\n      pop\n      pop\n      pop\n      pop\n      iszero\n      dup1\n      iszero\n      tag_310\n      jumpi\n      returndatacopy(0x00, 0x00, returndatasize)\n      revert(0x00, returndatasize)\n    tag_310:\n      pop\n        /* \"profxexpo.sol\":177:187  msg.sender */\n      caller\n        /* \"profxexpo.sol\":10892:10911  nonce[_msgSender()] */\n      0x00\n      dup2\n      dup2\n      mstore\n        /* \"profxexpo.sol\":10892:10897  nonce */\n      0x09\n        /* \"profxexpo.sol\":10892:10911  nonce[_msgSender()] */\n      0x20\n      swap1\n      dup2\n      mstore\n      0x40\n      swap2\n      dup3\n      swap1\n      keccak256\n      sload\n        /* \"profxexpo.sol\":10863:10912  Withdraw(_msgSender(),amount,nonce[_msgSender()]) */\n      dup3\n      mload\n        /* \"#utility.yul\":12507:12532   */\n      dup11\n      dup2\n      mstore\n        /* \"#utility.yul\":12548:12566   */\n      swap2\n      dup3\n      add\n        /* \"#utility.yul\":12541:12575   */\n      mstore\n        /* \"profxexpo.sol\":10863:10912  Withdraw(_msgSender(),amount,nonce[_msgSender()]) */\n      0xf279e6a1f5e320cca91135676d9cb6e44ca8a08c0b88342bcdb1144f6511b568\n      swap2\n        /* \"#utility.yul\":12480:12498   */\n      add\n        /* \"profxexpo.sol\":10863:10912  Withdraw(_msgSender(),amount,nonce[_msgSender()]) */\n      mload(0x40)\n      dup1\n      swap2\n      sub\n      swap1\n      log2\n        /* \"profxexpo.sol\":177:187  msg.sender */\n      caller\n        /* \"profxexpo.sol\":10922:10941  nonce[_msgSender()] */\n      0x00\n      swap1\n      dup2\n      mstore\n        /* \"profxexpo.sol\":10922:10927  nonce */\n      0x09\n        /* \"profxexpo.sol\":10922:10941  nonce[_msgSender()] */\n      0x20\n      mstore\n      0x40\n      dup2\n      keccak256\n        /* \"profxexpo.sol\":10922:10943  nonce[_msgSender()]++ */\n      dup1\n      sload\n      swap2\n      tag_315\n      dup4\n      tag_188\n      jump\t// in\n    tag_315:\n      swap2\n      swap1\n      pop\n      sstore\n      pop\n        /* \"profxexpo.sol\":10573:10950  {... */\n      pop\n        /* \"profxexpo.sol\":597:617  _nonReentrantAfter() */\n      tag_316\n        /* \"profxexpo.sol\":383:384  1 */\n      0x01\n        /* \"profxexpo.sol\":907:929  _status = _NOT_ENTERED */\n      dup1\n      sstore\n        /* \"profxexpo.sol\":858:936  function _nonReentrantAfter() private {... */\n      jump\n        /* \"profxexpo.sol\":597:617  _nonReentrantAfter() */\n    tag_316:\n        /* \"profxexpo.sol\":10419:10950  function withdrawRoi(... */\n      pop\n      pop\n      pop\n      pop\n      pop\n      jump\t// out\n        /* \"profxexpo.sol\":2205:2437  function transferOwnership(address newOwner) public virtual onlyOwner {... */\n    tag_139:\n        /* \"profxexpo.sol\":1834:1847  _checkOwner() */\n      tag_319\n        /* \"profxexpo.sol\":1834:1845  _checkOwner */\n      tag_199\n        /* \"profxexpo.sol\":1834:1847  _checkOwner() */\n      jump\t// in\n    tag_319:\n      sub(shl(0xa0, 0x01), 0x01)\n        /* \"profxexpo.sol\":2306:2328  newOwner != address(0) */\n      dup2\n      and\n        /* \"profxexpo.sol\":2285:2392  require(... */\n      tag_321\n      jumpi\n      mload(0x40)\n      shl(0xe5, 0x461bcd)\n      dup2\n      mstore\n        /* \"#utility.yul\":16819:16821   */\n      0x20\n        /* \"profxexpo.sol\":2285:2392  require(... */\n      0x04\n      dup3\n      add\n        /* \"#utility.yul\":16801:16822   */\n      mstore\n        /* \"#utility.yul\":16858:16860   */\n      0x26\n        /* \"#utility.yul\":16838:16856   */\n      0x24\n      dup3\n      add\n        /* \"#utility.yul\":16831:16861   */\n      mstore\n        /* \"#utility.yul\":16897:16931   */\n      0x4f776e61626c653a206e6577206f776e657220697320746865207a65726f2061\n        /* \"#utility.yul\":16877:16895   */\n      0x44\n      dup3\n      add\n        /* \"#utility.yul\":16870:16932   */\n      mstore\n      shl(0xd0, 0x646472657373)\n        /* \"#utility.yul\":16948:16966   */\n      0x64\n      dup3\n      add\n        /* \"#utility.yul\":16941:16977   */\n      mstore\n        /* \"#utility.yul\":16994:17013   */\n      0x84\n      add\n        /* \"profxexpo.sol\":2285:2392  require(... */\n      tag_152\n        /* \"#utility.yul\":16617:17019   */\n      jump\n        /* \"profxexpo.sol\":2285:2392  require(... */\n    tag_321:\n        /* \"profxexpo.sol\":2402:2430  _transferOwnership(newOwner) */\n      tag_324\n        /* \"profxexpo.sol\":2421:2429  newOwner */\n      dup2\n        /* \"profxexpo.sol\":2402:2420  _transferOwnership */\n      tag_202\n        /* \"profxexpo.sol\":2402:2430  _transferOwnership(newOwner) */\n      jump\t// in\n    tag_324:\n        /* \"profxexpo.sol\":2205:2437  function transferOwnership(address newOwner) public virtual onlyOwner {... */\n      pop\n      jump\t// out\n        /* \"profxexpo.sol\":8620:8777  function withdrawLost(uint256 WithAmt) public {... */\n    tag_143:\n        /* \"profxexpo.sol\":1917:1924  address */\n      0x00\n        /* \"profxexpo.sol\":1943:1949  _owner */\n      sload\n      sub(shl(0xa0, 0x01), 0x01)\n      and\n        /* \"profxexpo.sol\":177:187  msg.sender */\n      caller\n        /* \"profxexpo.sol\":8684:8707  _msgSender() == owner() */\n      eq\n        /* \"profxexpo.sol\":8676:8721  require(_msgSender() == owner(), \"onlyOwner\") */\n      tag_328\n      jumpi\n      mload(0x40)\n      shl(0xe5, 0x461bcd)\n      dup2\n      mstore\n        /* \"#utility.yul\":14541:14543   */\n      0x20\n        /* \"profxexpo.sol\":8676:8721  require(_msgSender() == owner(), \"onlyOwner\") */\n      0x04\n      dup3\n      add\n        /* \"#utility.yul\":14523:14544   */\n      mstore\n        /* \"#utility.yul\":14580:14581   */\n      0x09\n        /* \"#utility.yul\":14560:14578   */\n      0x24\n      dup3\n      add\n        /* \"#utility.yul\":14553:14582   */\n      mstore\n      shl(0xb9, 0x37b7363ca7bbb732b9)\n        /* \"#utility.yul\":14598:14616   */\n      0x44\n      dup3\n      add\n        /* \"#utility.yul\":14591:14630   */\n      mstore\n        /* \"#utility.yul\":14647:14665   */\n      0x64\n      add\n        /* \"profxexpo.sol\":8676:8721  require(_msgSender() == owner(), \"onlyOwner\") */\n      tag_152\n        /* \"#utility.yul\":14339:14671   */\n      jump\n        /* \"profxexpo.sol\":8676:8721  require(_msgSender() == owner(), \"onlyOwner\") */\n    tag_328:\n        /* \"profxexpo.sol\":1917:1924  address */\n      0x00\n        /* \"profxexpo.sol\":1943:1949  _owner */\n      sload\n      sub(shl(0xa0, 0x01), 0x01)\n      and\n        /* \"profxexpo.sol\":8731:8770  payable(owner()).transfer(WithAmt*1e18) */\n      0x08fc\n        /* \"profxexpo.sol\":8757:8769  WithAmt*1e18 */\n      tag_331\n        /* \"profxexpo.sol\":8757:8764  WithAmt */\n      dup4\n        /* \"profxexpo.sol\":8765:8769  1e18 */\n      0x0de0b6b3a7640000\n        /* \"profxexpo.sol\":8757:8769  WithAmt*1e18 */\n      tag_244\n      jump\t// in\n    tag_331:\n        /* \"profxexpo.sol\":8731:8770  payable(owner()).transfer(WithAmt*1e18) */\n      mload(0x40)\n      dup2\n      iszero\n      swap1\n      swap3\n      mul\n      swap2\n      0x00\n      dup2\n      dup2\n      dup2\n      dup6\n      dup9\n      dup9\n      call\n      swap4\n      pop\n      pop\n      pop\n      pop\n      iszero\n      dup1\n      iszero\n      tag_333\n      jumpi\n      returndatacopy(0x00, 0x00, returndatasize)\n      revert(0x00, returndatasize)\n    tag_333:\n      pop\n        /* \"profxexpo.sol\":8620:8777  function withdrawLost(uint256 WithAmt) public {... */\n      pop\n      jump\t// out\n        /* \"profxexpo.sol\":4323:4440  function _unpause() internal virtual whenPaused {... */\n    tag_156:\n        /* \"profxexpo.sol\":3848:3864  _requirePaused() */\n      tag_336\n        /* \"profxexpo.sol\":3848:3862  _requirePaused */\n      tag_337\n        /* \"profxexpo.sol\":3848:3864  _requirePaused() */\n      jump\t// in\n    tag_336:\n        /* \"profxexpo.sol\":4391:4396  false */\n      0x00\n        /* \"profxexpo.sol\":4381:4396  _paused = false */\n      dup1\n      sload\n      not(shl(0xa0, 0xff))\n      and\n      swap1\n      sstore\n        /* \"profxexpo.sol\":4411:4433  Unpaused(_msgSender()) */\n      0x5db9ee0a495bf2e6ff9c91a7834c1ba4fdd244a5e8aa4e537bd38aeae4b073aa\n        /* \"profxexpo.sol\":177:187  msg.sender */\n      caller\n        /* \"profxexpo.sol\":4420:4432  _msgSender() */\n    tag_339:\n        /* \"profxexpo.sol\":4411:4433  Unpaused(_msgSender()) */\n      mload(0x40)\n      sub(shl(0xa0, 0x01), 0x01)\n        /* \"#utility.yul\":409:441   */\n      swap1\n      swap2\n      and\n        /* \"#utility.yul\":391:442   */\n      dup2\n      mstore\n        /* \"#utility.yul\":379:381   */\n      0x20\n        /* \"#utility.yul\":364:382   */\n      add\n        /* \"profxexpo.sol\":4411:4433  Unpaused(_msgSender()) */\n      mload(0x40)\n      dup1\n      swap2\n      sub\n      swap1\n      log1\n        /* \"profxexpo.sol\":4323:4440  function _unpause() internal virtual whenPaused {... */\n      jump\t// out\n        /* \"profxexpo.sol\":1962:2092  function _checkOwner() internal view virtual {... */\n    tag_199:\n        /* \"profxexpo.sol\":1917:1924  address */\n      0x00\n        /* \"profxexpo.sol\":1943:1949  _owner */\n      sload\n      sub(shl(0xa0, 0x01), 0x01)\n      and\n        /* \"profxexpo.sol\":177:187  msg.sender */\n      caller\n        /* \"profxexpo.sol\":2025:2048  owner() == _msgSender() */\n      eq\n        /* \"profxexpo.sol\":2017:2085  require(owner() == _msgSender(), \"Ownable: caller is not the owner\") */\n      tag_155\n      jumpi\n      mload(0x40)\n      shl(0xe5, 0x461bcd)\n      dup2\n      mstore\n        /* \"#utility.yul\":17226:17228   */\n      0x20\n        /* \"profxexpo.sol\":2017:2085  require(owner() == _msgSender(), \"Ownable: caller is not the owner\") */\n      0x04\n      dup3\n      add\n        /* \"#utility.yul\":17208:17229   */\n      dup2\n      swap1\n      mstore\n        /* \"#utility.yul\":17245:17263   */\n      0x24\n      dup3\n      add\n        /* \"#utility.yul\":17238:17268   */\n      mstore\n        /* \"#utility.yul\":17304:17338   */\n      0x4f776e61626c653a2063616c6c6572206973206e6f7420746865206f776e6572\n        /* \"#utility.yul\":17284:17302   */\n      0x44\n      dup3\n      add\n        /* \"#utility.yul\":17277:17339   */\n      mstore\n        /* \"#utility.yul\":17356:17374   */\n      0x64\n      add\n        /* \"profxexpo.sol\":2017:2085  require(owner() == _msgSender(), \"Ownable: caller is not the owner\") */\n      tag_152\n        /* \"#utility.yul\":17024:17380   */\n      jump\n        /* \"profxexpo.sol\":2443:2630  function _transferOwnership(address newOwner) internal virtual {... */\n    tag_202:\n        /* \"profxexpo.sol\":2516:2532  address oldOwner */\n      0x00\n        /* \"profxexpo.sol\":2535:2541  _owner */\n      dup1\n      sload\n      sub(shl(0xa0, 0x01), 0x01)\n        /* \"profxexpo.sol\":2551:2568  _owner = newOwner */\n      dup4\n      dup2\n      and\n      not(sub(shl(0xa0, 0x01), 0x01))\n      dup4\n      and\n      dup2\n      or\n      dup5\n      sstore\n        /* \"profxexpo.sol\":2583:2623  OwnershipTransferred(oldOwner, newOwner) */\n      mload(0x40)\n        /* \"profxexpo.sol\":2535:2541  _owner */\n      swap2\n      swap1\n      swap3\n      and\n      swap3\n      dup4\n      swap2\n        /* \"profxexpo.sol\":2583:2623  OwnershipTransferred(oldOwner, newOwner) */\n      0x8be0079c531659141344cd1fd0a4f28419497f9722a3daafe3b4186f6b6457e0\n      swap2\n        /* \"profxexpo.sol\":2516:2532  address oldOwner */\n      swap1\n        /* \"profxexpo.sol\":2583:2623  OwnershipTransferred(oldOwner, newOwner) */\n      log3\n        /* \"profxexpo.sol\":2506:2630  {... */\n      pop\n        /* \"profxexpo.sol\":2443:2630  function _transferOwnership(address newOwner) internal virtual {... */\n      pop\n      jump\t// out\n        /* \"profxexpo.sol\":6832:7451  function registration(address userAddress, address referrerAddress) private {... */\n    tag_212:\n      sub(shl(0xa0, 0x01), 0x01)\n        /* \"profxexpo.sol\":8442:8453  users[user] */\n      dup3\n      and\n        /* \"profxexpo.sol\":8418:8422  bool */\n      0x00\n        /* \"profxexpo.sol\":8442:8453  users[user] */\n      swap1\n      dup2\n      mstore\n        /* \"profxexpo.sol\":8442:8447  users */\n      0x07\n        /* \"profxexpo.sol\":8442:8453  users[user] */\n      0x20\n      mstore\n      0x40\n      swap1\n      keccak256\n        /* \"profxexpo.sol\":8442:8460  users[user].userId */\n      sload\n        /* \"profxexpo.sol\":8442:8465  users[user].userId != 0 */\n      iszero\n        /* \"profxexpo.sol\":6918:6969  require(!isUserExists(userAddress), \"User Exists!\") */\n      tag_352\n      jumpi\n      mload(0x40)\n      shl(0xe5, 0x461bcd)\n      dup2\n      mstore\n        /* \"#utility.yul\":17587:17589   */\n      0x20\n        /* \"profxexpo.sol\":6918:6969  require(!isUserExists(userAddress), \"User Exists!\") */\n      0x04\n      dup3\n      add\n        /* \"#utility.yul\":17569:17590   */\n      mstore\n        /* \"#utility.yul\":17626:17628   */\n      0x0c\n        /* \"#utility.yul\":17606:17624   */\n      0x24\n      dup3\n      add\n        /* \"#utility.yul\":17599:17629   */\n      mstore\n      shl(0xa0, 0x557365722045786973747321)\n        /* \"#utility.yul\":17645:17663   */\n      0x44\n      dup3\n      add\n        /* \"#utility.yul\":17638:17680   */\n      mstore\n        /* \"#utility.yul\":17697:17715   */\n      0x64\n      add\n        /* \"profxexpo.sol\":6918:6969  require(!isUserExists(userAddress), \"User Exists!\") */\n      tag_152\n        /* \"#utility.yul\":17385:17721   */\n      jump\n        /* \"profxexpo.sol\":6918:6969  require(!isUserExists(userAddress), \"User Exists!\") */\n    tag_352:\n      sub(shl(0xa0, 0x01), 0x01)\n        /* \"profxexpo.sol\":8442:8453  users[user] */\n      dup2\n      and\n        /* \"profxexpo.sol\":8418:8422  bool */\n      0x00\n        /* \"profxexpo.sol\":8442:8453  users[user] */\n      swap1\n      dup2\n      mstore\n        /* \"profxexpo.sol\":8442:8447  users */\n      0x07\n        /* \"profxexpo.sol\":8442:8453  users[user] */\n      0x20\n      mstore\n      0x40\n      swap1\n      keccak256\n        /* \"profxexpo.sol\":8442:8460  users[user].userId */\n      sload\n        /* \"profxexpo.sol\":6979:7041  require(isUserExists(referrerAddress), \"Referrer not Exists!\") */\n      tag_356\n      jumpi\n      mload(0x40)\n      shl(0xe5, 0x461bcd)\n      dup2\n      mstore\n        /* \"#utility.yul\":17928:17930   */\n      0x20\n        /* \"profxexpo.sol\":6979:7041  require(isUserExists(referrerAddress), \"Referrer not Exists!\") */\n      0x04\n      dup3\n      add\n        /* \"#utility.yul\":17910:17931   */\n      mstore\n        /* \"#utility.yul\":17967:17969   */\n      0x14\n        /* \"#utility.yul\":17947:17965   */\n      0x24\n      dup3\n      add\n        /* \"#utility.yul\":17940:17970   */\n      mstore\n      shl(0x60, 0x5265666572726572206e6f742045786973747321)\n        /* \"#utility.yul\":17986:18004   */\n      0x44\n      dup3\n      add\n        /* \"#utility.yul\":17979:18029   */\n      mstore\n        /* \"#utility.yul\":18046:18064   */\n      0x64\n      add\n        /* \"profxexpo.sol\":6979:7041  require(isUserExists(referrerAddress), \"Referrer not Exists!\") */\n      tag_152\n        /* \"#utility.yul\":17726:18070   */\n      jump\n        /* \"profxexpo.sol\":6979:7041  require(isUserExists(referrerAddress), \"Referrer not Exists!\") */\n    tag_356:\n        /* \"profxexpo.sol\":7079:7089  lastUserId */\n      0x06\n      dup1\n      sload\n      sub(shl(0xa0, 0x01), 0x01)\n        /* \"profxexpo.sol\":7051:7069  users[userAddress] */\n      dup5\n      dup2\n      and\n      0x00\n      dup2\n      dup2\n      mstore\n        /* \"profxexpo.sol\":7051:7056  users */\n      0x07\n        /* \"profxexpo.sol\":7051:7069  users[userAddress] */\n      0x20\n      dup2\n      dup2\n      mstore\n      0x40\n      dup1\n      dup5\n      keccak256\n        /* \"profxexpo.sol\":7051:7089  users[userAddress].userId = lastUserId */\n      dup8\n      dup2\n      sstore\n        /* \"profxexpo.sol\":7100:7138  idToAddress[users[userAddress].userId] */\n      swap7\n      dup5\n      mstore\n        /* \"profxexpo.sol\":7100:7111  idToAddress */\n      0x08\n        /* \"profxexpo.sol\":7100:7138  idToAddress[users[userAddress].userId] */\n      dup3\n      mstore\n      dup4\n      keccak256\n        /* \"profxexpo.sol\":7100:7152  idToAddress[users[userAddress].userId] = userAddress */\n      dup1\n      sload\n      not(sub(shl(0xa0, 0x01), 0x01))\n      swap1\n      dup2\n      and\n      dup7\n      or\n      swap1\n      swap2\n      sstore\n        /* \"profxexpo.sol\":7169:7187  users[userAddress] */\n      swap4\n      dup4\n      mstore\n      mstore\n      0x01\n        /* \"profxexpo.sol\":7169:7196  users[userAddress].referrer */\n      dup5\n      add\n        /* \"profxexpo.sol\":7169:7214  users[userAddress].referrer = referrerAddress */\n      dup1\n      sload\n      swap1\n      swap3\n      and\n      swap3\n      dup7\n      and\n      swap3\n      swap1\n      swap3\n      or\n      swap1\n      sstore\n        /* \"profxexpo.sol\":7224:7256  users[userAddress].partnersCount */\n      0x09\n      swap1\n      swap2\n      add\n        /* \"profxexpo.sol\":7224:7260  users[userAddress].partnersCount = 0 */\n      dup2\n      swap1\n      sstore\n        /* \"profxexpo.sol\":7270:7282  lastUserId++ */\n      dup2\n      sload\n      swap2\n        /* \"profxexpo.sol\":7079:7089  lastUserId */\n      swap1\n        /* \"profxexpo.sol\":7270:7282  lastUserId++ */\n      tag_359\n      dup4\n      tag_188\n      jump\t// in\n    tag_359:\n      swap1\n      swap2\n      sstore\n      pop\n      pop\n      sub(shl(0xa0, 0x01), 0x01)\n        /* \"profxexpo.sol\":7292:7314  users[referrerAddress] */\n      dup2\n      and\n      0x00\n      swap1\n      dup2\n      mstore\n        /* \"profxexpo.sol\":7292:7297  users */\n      0x07\n        /* \"profxexpo.sol\":7292:7314  users[referrerAddress] */\n      0x20\n      mstore\n      0x40\n      dup2\n      keccak256\n        /* \"profxexpo.sol\":7292:7328  users[referrerAddress].partnersCount */\n      0x09\n      add\n        /* \"profxexpo.sol\":7292:7330  users[referrerAddress].partnersCount++ */\n      dup1\n      sload\n      swap2\n      tag_360\n      dup4\n      tag_188\n      jump\t// in\n    tag_360:\n      swap1\n      swap2\n      sstore\n      pop\n      pop\n      sub(shl(0xa0, 0x01), 0x01)\n        /* \"profxexpo.sol\":7345:7444  Registration(userAddress, referrerAddress, users[userAddress].userId,users[referrerAddress].userId) */\n      dup3\n      dup2\n      and\n        /* \"profxexpo.sol\":7388:7406  users[userAddress] */\n      0x00\n      dup2\n      dup2\n      mstore\n        /* \"profxexpo.sol\":7388:7393  users */\n      0x07\n        /* \"profxexpo.sol\":7388:7406  users[userAddress] */\n      0x20\n      mstore\n      0x40\n      dup1\n      dup3\n      keccak256\n        /* \"profxexpo.sol\":7388:7413  users[userAddress].userId */\n      sload\n        /* \"profxexpo.sol\":7345:7444  Registration(userAddress, referrerAddress, users[userAddress].userId,users[referrerAddress].userId) */\n      swap4\n      dup6\n      and\n        /* \"profxexpo.sol\":7414:7436  users[referrerAddress] */\n      dup1\n      dup4\n      mstore\n      swap2\n      dup2\n      swap1\n      keccak256\n        /* \"profxexpo.sol\":7414:7443  users[referrerAddress].userId */\n      sload\n        /* \"profxexpo.sol\":7345:7444  Registration(userAddress, referrerAddress, users[userAddress].userId,users[referrerAddress].userId) */\n      swap1\n      mload\n      swap2\n      swap4\n      0x309bb360e8b69c23937ccc5fb01f9aeeead1c95a99604e175113ff82f2b1723a\n      swap3\n      tag_361\n      swap3\n        /* \"profxexpo.sol\":7414:7443  users[referrerAddress].userId */\n      swap1\n        /* \"#utility.yul\":12507:12532   */\n      swap2\n      dup3\n      mstore\n        /* \"#utility.yul\":12563:12565   */\n      0x20\n        /* \"#utility.yul\":12548:12566   */\n      dup3\n      add\n        /* \"#utility.yul\":12541:12575   */\n      mstore\n        /* \"#utility.yul\":12495:12497   */\n      0x40\n        /* \"#utility.yul\":12480:12498   */\n      add\n      swap1\n        /* \"#utility.yul\":12317:12581   */\n      jump\n        /* \"profxexpo.sol\":7345:7444  Registration(userAddress, referrerAddress, users[userAddress].userId,users[referrerAddress].userId) */\n    tag_361:\n      mload(0x40)\n      dup1\n      swap2\n      sub\n      swap1\n      log3\n        /* \"profxexpo.sol\":6832:7451  function registration(address userAddress, address referrerAddress) private {... */\n      pop\n      pop\n      jump\t// out\n        /* \"profxexpo.sol\":4202:4317  function _pause() internal virtual whenNotPaused {... */\n    tag_282:\n        /* \"profxexpo.sol\":3773:3792  _requireNotPaused() */\n      tag_363\n        /* \"profxexpo.sol\":3773:3790  _requireNotPaused */\n      tag_364\n        /* \"profxexpo.sol\":3773:3792  _requireNotPaused() */\n      jump\t// in\n    tag_363:\n        /* \"profxexpo.sol\":4261:4268  _paused */\n      0x00\n        /* \"profxexpo.sol\":4261:4275  _paused = true */\n      dup1\n      sload\n      not(shl(0xa0, 0xff))\n      and\n      shl(0xa0, 0x01)\n      or\n      swap1\n      sstore\n        /* \"profxexpo.sol\":4290:4310  Paused(_msgSender()) */\n      0x62e78cea01bee320cd4e420270b5ea74000d11b0c9f74754ebdbfc544b05a258\n        /* \"profxexpo.sol\":4297:4309  _msgSender() */\n      tag_339\n        /* \"profxexpo.sol\":177:187  msg.sender */\n      caller\n      swap1\n        /* \"profxexpo.sol\":98:194  function _msgSender() internal view virtual returns (address) {... */\n      jump\n        /* \"profxexpo.sol\":630:852  function _nonReentrantBefore() private {... */\n    tag_294:\n        /* \"profxexpo.sol\":426:427  2 */\n      0x02\n        /* \"profxexpo.sol\":762:769  _status */\n      sload(0x01)\n        /* \"profxexpo.sol\":762:781  _status != _ENTERED */\n      sub\n        /* \"profxexpo.sol\":754:817  require(_status != _ENTERED, \"ReentrancyGuard: reentrant call\") */\n      tag_369\n      jumpi\n      mload(0x40)\n      shl(0xe5, 0x461bcd)\n      dup2\n      mstore\n        /* \"#utility.yul\":18277:18279   */\n      0x20\n        /* \"profxexpo.sol\":754:817  require(_status != _ENTERED, \"ReentrancyGuard: reentrant call\") */\n      0x04\n      dup3\n      add\n        /* \"#utility.yul\":18259:18280   */\n      mstore\n        /* \"#utility.yul\":18316:18318   */\n      0x1f\n        /* \"#utility.yul\":18296:18314   */\n      0x24\n      dup3\n      add\n        /* \"#utility.yul\":18289:18319   */\n      mstore\n        /* \"#utility.yul\":18355:18388   */\n      0x5265656e7472616e637947756172643a207265656e7472616e742063616c6c00\n        /* \"#utility.yul\":18335:18353   */\n      0x44\n      dup3\n      add\n        /* \"#utility.yul\":18328:18389   */\n      mstore\n        /* \"#utility.yul\":18406:18424   */\n      0x64\n      add\n        /* \"profxexpo.sol\":754:817  require(_status != _ENTERED, \"ReentrancyGuard: reentrant call\") */\n      tag_152\n        /* \"#utility.yul\":18075:18430   */\n      jump\n        /* \"profxexpo.sol\":754:817  require(_status != _ENTERED, \"ReentrancyGuard: reentrant call\") */\n    tag_369:\n        /* \"profxexpo.sol\":426:427  2 */\n      0x02\n        /* \"profxexpo.sol\":827:834  _status */\n      0x01\n        /* \"profxexpo.sol\":827:845  _status = _ENTERED */\n      sstore\n        /* \"profxexpo.sol\":630:852  function _nonReentrantBefore() private {... */\n      jump\t// out\n        /* \"profxexpo.sol\":9947:10413  function verifySignatureWithDeadline(... */\n    tag_304:\n        /* \"profxexpo.sol\":10116:10120  bool */\n      0x00\n        /* \"profxexpo.sol\":10159:10167  deadline */\n      dup2\n        /* \"profxexpo.sol\":10140:10155  block.timestamp */\n      timestamp\n        /* \"profxexpo.sol\":10140:10167  block.timestamp <= deadline */\n      gt\n      iszero\n        /* \"profxexpo.sol\":10132:10189  require(block.timestamp <= deadline, \"Signature expired\") */\n      tag_373\n      jumpi\n      mload(0x40)\n      shl(0xe5, 0x461bcd)\n      dup2\n      mstore\n        /* \"#utility.yul\":18637:18639   */\n      0x20\n        /* \"profxexpo.sol\":10132:10189  require(block.timestamp <= deadline, \"Signature expired\") */\n      0x04\n      dup3\n      add\n        /* \"#utility.yul\":18619:18640   */\n      mstore\n        /* \"#utility.yul\":18676:18678   */\n      0x11\n        /* \"#utility.yul\":18656:18674   */\n      0x24\n      dup3\n      add\n        /* \"#utility.yul\":18649:18679   */\n      mstore\n      shl(0x7a, 0x14da59db985d1d5c9948195e1c1a5c9959)\n        /* \"#utility.yul\":18695:18713   */\n      0x44\n      dup3\n      add\n        /* \"#utility.yul\":18688:18735   */\n      mstore\n        /* \"#utility.yul\":18752:18770   */\n      0x64\n      add\n        /* \"profxexpo.sol\":10132:10189  require(block.timestamp <= deadline, \"Signature expired\") */\n      tag_152\n        /* \"#utility.yul\":18435:18776   */\n      jump\n        /* \"profxexpo.sol\":10132:10189  require(block.timestamp <= deadline, \"Signature expired\") */\n    tag_373:\n        /* \"profxexpo.sol\":10244:10302  abi.encodePacked(\"\\x19Ethereum Signed Message:\\n32\", hash) */\n      mload(0x40)\n        /* \"#utility.yul\":19023:19089   */\n      0x19457468657265756d205369676e6564204d6573736167653a0a333200000000\n        /* \"profxexpo.sol\":10244:10302  abi.encodePacked(\"\\x19Ethereum Signed Message:\\n32\", hash) */\n      0x20\n      dup3\n      add\n        /* \"#utility.yul\":19011:19090   */\n      mstore\n        /* \"#utility.yul\":19106:19118   */\n      0x3c\n      dup2\n      add\n        /* \"#utility.yul\":19099:19127   */\n      dup8\n      swap1\n      mstore\n        /* \"profxexpo.sol\":10199:10218  bytes32 messageHash */\n      0x00\n      swap1\n        /* \"#utility.yul\":19143:19155   */\n      0x5c\n      add\n        /* \"profxexpo.sol\":10244:10302  abi.encodePacked(\"\\x19Ethereum Signed Message:\\n32\", hash) */\n      0x40\n      dup1\n      mload\n      not(0x1f)\n      dup2\n      dup5\n      sub\n      add\n      dup2\n      mstore\n      dup3\n      dup3\n      mstore\n        /* \"profxexpo.sol\":10221:10312  keccak256(... */\n      dup1\n      mload\n        /* \"profxexpo.sol\":10244:10302  abi.encodePacked(\"\\x19Ethereum Signed Message:\\n32\", hash) */\n      0x20\n        /* \"profxexpo.sol\":10221:10312  keccak256(... */\n      swap2\n      dup3\n      add\n      keccak256\n        /* \"profxexpo.sol\":10322:10336  address signer */\n      0x00\n        /* \"profxexpo.sol\":10339:10370  ecrecover(messageHash, v, r, s) */\n      dup1\n      dup6\n      mstore\n      swap2\n      dup5\n      add\n      dup1\n      dup5\n      mstore\n        /* \"#utility.yul\":19393:19418   */\n      dup2\n      swap1\n      mstore\n        /* \"#utility.yul\":19466:19470   */\n      0xff\n        /* \"#utility.yul\":19454:19471   */\n      dup11\n      and\n        /* \"#utility.yul\":19434:19452   */\n      swap3\n      dup5\n      add\n        /* \"#utility.yul\":19427:19472   */\n      swap3\n      swap1\n      swap3\n      mstore\n        /* \"#utility.yul\":19488:19506   */\n      0x60\n      dup4\n      add\n        /* \"#utility.yul\":19481:19515   */\n      dup9\n      swap1\n      mstore\n        /* \"#utility.yul\":19531:19549   */\n      0x80\n      dup4\n      add\n        /* \"#utility.yul\":19524:19558   */\n      dup8\n      swap1\n      mstore\n        /* \"profxexpo.sol\":10221:10312  keccak256(... */\n      swap1\n      swap3\n      pop\n        /* \"profxexpo.sol\":10322:10336  address signer */\n      swap1\n        /* \"profxexpo.sol\":10339:10370  ecrecover(messageHash, v, r, s) */\n      0x01\n      swap1\n        /* \"#utility.yul\":19365:19384   */\n      0xa0\n      add\n        /* \"profxexpo.sol\":10339:10370  ecrecover(messageHash, v, r, s) */\n      0x20\n      mload(0x40)\n      0x20\n      dup2\n      sub\n      swap1\n      dup1\n      dup5\n      sub\n      swap1\n      dup6\n      gas\n      staticcall\n      iszero\n      dup1\n      iszero\n      tag_381\n      jumpi\n      returndatacopy(0x00, 0x00, returndatasize)\n      revert(0x00, returndatasize)\n    tag_381:\n      pop\n      pop\n      mload(add(not(0x1f), mload(0x40)))\n        /* \"profxexpo.sol\":10397:10406  UnitySign */\n      sload(0x05)\n      sub(shl(0xa0, 0x01), 0x01)\n      swap1\n      dup2\n      and\n        /* \"profxexpo.sol\":10387:10406  signer == UnitySign */\n      swap2\n      and\n      eq\n      swap10\n        /* \"profxexpo.sol\":9947:10413  function verifySignatureWithDeadline(... */\n      swap9\n      pop\n      pop\n      pop\n      pop\n      pop\n      pop\n      pop\n      pop\n      pop\n      jump\t// out\n        /* \"profxexpo.sol\":4090:4196  function _requirePaused() internal view virtual {... */\n    tag_337:\n        /* \"profxexpo.sol\":3935:3939  bool */\n      0x00\n        /* \"profxexpo.sol\":3958:3965  _paused */\n      sload\n      shl(0xa0, 0x01)\n      swap1\n      div\n      0xff\n      and\n        /* \"profxexpo.sol\":4148:4189  require(paused(), \"Pausable: not paused\") */\n      tag_155\n      jumpi\n      mload(0x40)\n      shl(0xe5, 0x461bcd)\n      dup2\n      mstore\n        /* \"#utility.yul\":19771:19773   */\n      0x20\n        /* \"profxexpo.sol\":4148:4189  require(paused(), \"Pausable: not paused\") */\n      0x04\n      dup3\n      add\n        /* \"#utility.yul\":19753:19774   */\n      mstore\n        /* \"#utility.yul\":19810:19812   */\n      0x14\n        /* \"#utility.yul\":19790:19808   */\n      0x24\n      dup3\n      add\n        /* \"#utility.yul\":19783:19813   */\n      mstore\n      shl(0x62, 0x14185d5cd8589b194e881b9bdd081c185d5cd959)\n        /* \"#utility.yul\":19829:19847   */\n      0x44\n      dup3\n      add\n        /* \"#utility.yul\":19822:19872   */\n      mstore\n        /* \"#utility.yul\":19889:19907   */\n      0x64\n      add\n        /* \"profxexpo.sol\":4148:4189  require(paused(), \"Pausable: not paused\") */\n      tag_152\n        /* \"#utility.yul\":19569:19913   */\n      jump\n        /* \"profxexpo.sol\":3978:4084  function _requireNotPaused() internal view virtual {... */\n    tag_364:\n        /* \"profxexpo.sol\":3935:3939  bool */\n      0x00\n        /* \"profxexpo.sol\":3958:3965  _paused */\n      sload\n      shl(0xa0, 0x01)\n      swap1\n      div\n      0xff\n      and\n        /* \"profxexpo.sol\":4047:4056  !paused() */\n      iszero\n        /* \"profxexpo.sol\":4039:4077  require(!paused(), \"Pausable: paused\") */\n      tag_155\n      jumpi\n      mload(0x40)\n      shl(0xe5, 0x461bcd)\n      dup2\n      mstore\n        /* \"#utility.yul\":20120:20122   */\n      0x20\n        /* \"profxexpo.sol\":4039:4077  require(!paused(), \"Pausable: paused\") */\n      0x04\n      dup3\n      add\n        /* \"#utility.yul\":20102:20123   */\n      mstore\n        /* \"#utility.yul\":20159:20161   */\n      0x10\n        /* \"#utility.yul\":20139:20157   */\n      0x24\n      dup3\n      add\n        /* \"#utility.yul\":20132:20162   */\n      mstore\n      shl(0x82, 0x14185d5cd8589b194e881c185d5cd959)\n        /* \"#utility.yul\":20178:20196   */\n      0x44\n      dup3\n      add\n        /* \"#utility.yul\":20171:20217   */\n      mstore\n        /* \"#utility.yul\":20234:20252   */\n      0x64\n      add\n        /* \"profxexpo.sol\":4039:4077  require(!paused(), \"Pausable: paused\") */\n      tag_152\n        /* \"#utility.yul\":19918:20258   */\n      jump\n        /* \"#utility.yul\":14:240   */\n    tag_34:\n        /* \"#utility.yul\":73:79   */\n      0x00\n        /* \"#utility.yul\":126:128   */\n      0x20\n        /* \"#utility.yul\":114:123   */\n      dup3\n        /* \"#utility.yul\":105:112   */\n      dup5\n        /* \"#utility.yul\":101:124   */\n      sub\n        /* \"#utility.yul\":97:129   */\n      slt\n        /* \"#utility.yul\":94:146   */\n      iszero\n      tag_405\n      jumpi\n        /* \"#utility.yul\":142:143   */\n      0x00\n        /* \"#utility.yul\":139:140   */\n      0x00\n        /* \"#utility.yul\":132:144   */\n      revert\n        /* \"#utility.yul\":94:146   */\n    tag_405:\n      pop\n        /* \"#utility.yul\":187:210   */\n      calldataload\n      swap2\n        /* \"#utility.yul\":14:240   */\n      swap1\n      pop\n      jump\t// out\n        /* \"#utility.yul\":635:766   */\n    tag_393:\n      sub(shl(0xa0, 0x01), 0x01)\n        /* \"#utility.yul\":710:741   */\n      dup2\n      and\n        /* \"#utility.yul\":700:742   */\n      dup2\n      eq\n        /* \"#utility.yul\":690:760   */\n      tag_324\n      jumpi\n        /* \"#utility.yul\":756:757   */\n      0x00\n        /* \"#utility.yul\":753:754   */\n      0x00\n        /* \"#utility.yul\":746:758   */\n      revert\n        /* \"#utility.yul\":771:1159   */\n    tag_49:\n        /* \"#utility.yul\":839:845   */\n      0x00\n        /* \"#utility.yul\":847:853   */\n      0x00\n        /* \"#utility.yul\":900:902   */\n      0x40\n        /* \"#utility.yul\":888:897   */\n      dup4\n        /* \"#utility.yul\":879:886   */\n      dup6\n        /* \"#utility.yul\":875:898   */\n      sub\n        /* \"#utility.yul\":871:903   */\n      slt\n        /* \"#utility.yul\":868:920   */\n      iszero\n      tag_411\n      jumpi\n        /* \"#utility.yul\":916:917   */\n      0x00\n        /* \"#utility.yul\":913:914   */\n      0x00\n        /* \"#utility.yul\":906:918   */\n      revert\n        /* \"#utility.yul\":868:920   */\n    tag_411:\n        /* \"#utility.yul\":955:964   */\n      dup3\n        /* \"#utility.yul\":942:965   */\n      calldataload\n        /* \"#utility.yul\":974:1005   */\n      tag_412\n        /* \"#utility.yul\":999:1004   */\n      dup2\n        /* \"#utility.yul\":974:1005   */\n      tag_393\n      jump\t// in\n    tag_412:\n        /* \"#utility.yul\":1024:1029   */\n      swap2\n      pop\n        /* \"#utility.yul\":1081:1083   */\n      0x20\n        /* \"#utility.yul\":1066:1084   */\n      dup4\n      add\n        /* \"#utility.yul\":1053:1085   */\n      calldataload\n        /* \"#utility.yul\":1094:1127   */\n      tag_413\n        /* \"#utility.yul\":1053:1085   */\n      dup2\n        /* \"#utility.yul\":1094:1127   */\n      tag_393\n      jump\t// in\n    tag_413:\n        /* \"#utility.yul\":1146:1153   */\n      dup1\n        /* \"#utility.yul\":1136:1153   */\n      swap2\n      pop\n      pop\n        /* \"#utility.yul\":771:1159   */\n      swap3\n      pop\n      swap3\n      swap1\n      pop\n      jump\t// out\n        /* \"#utility.yul\":1164:1411   */\n    tag_54:\n        /* \"#utility.yul\":1223:1229   */\n      0x00\n        /* \"#utility.yul\":1276:1278   */\n      0x20\n        /* \"#utility.yul\":1264:1273   */\n      dup3\n        /* \"#utility.yul\":1255:1262   */\n      dup5\n        /* \"#utility.yul\":1251:1274   */\n      sub\n        /* \"#utility.yul\":1247:1279   */\n      slt\n        /* \"#utility.yul\":1244:1296   */\n      iszero\n      tag_415\n      jumpi\n        /* \"#utility.yul\":1292:1293   */\n      0x00\n        /* \"#utility.yul\":1289:1290   */\n      0x00\n        /* \"#utility.yul\":1282:1294   */\n      revert\n        /* \"#utility.yul\":1244:1296   */\n    tag_415:\n        /* \"#utility.yul\":1331:1340   */\n      dup2\n        /* \"#utility.yul\":1318:1341   */\n      calldataload\n        /* \"#utility.yul\":1350:1381   */\n      tag_416\n        /* \"#utility.yul\":1375:1380   */\n      dup2\n        /* \"#utility.yul\":1350:1381   */\n      tag_393\n      jump\t// in\n    tag_416:\n        /* \"#utility.yul\":1400:1405   */\n      swap4\n        /* \"#utility.yul\":1164:1411   */\n      swap3\n      pop\n      pop\n      pop\n      jump\t// out\n        /* \"#utility.yul\":1608:2095   */\n    tag_65:\n        /* \"#utility.yul\":1685:1691   */\n      0x00\n        /* \"#utility.yul\":1693:1699   */\n      0x00\n        /* \"#utility.yul\":1701:1707   */\n      0x00\n        /* \"#utility.yul\":1754:1756   */\n      0x60\n        /* \"#utility.yul\":1742:1751   */\n      dup5\n        /* \"#utility.yul\":1733:1740   */\n      dup7\n        /* \"#utility.yul\":1729:1752   */\n      sub\n        /* \"#utility.yul\":1725:1757   */\n      slt\n        /* \"#utility.yul\":1722:1774   */\n      iszero\n      tag_419\n      jumpi\n        /* \"#utility.yul\":1770:1771   */\n      0x00\n        /* \"#utility.yul\":1767:1768   */\n      0x00\n        /* \"#utility.yul\":1760:1772   */\n      revert\n        /* \"#utility.yul\":1722:1774   */\n    tag_419:\n        /* \"#utility.yul\":1809:1818   */\n      dup4\n        /* \"#utility.yul\":1796:1819   */\n      calldataload\n        /* \"#utility.yul\":1828:1859   */\n      tag_420\n        /* \"#utility.yul\":1853:1858   */\n      dup2\n        /* \"#utility.yul\":1828:1859   */\n      tag_393\n      jump\t// in\n    tag_420:\n        /* \"#utility.yul\":1878:1883   */\n      swap6\n        /* \"#utility.yul\":1956:1958   */\n      0x20\n        /* \"#utility.yul\":1941:1959   */\n      dup6\n      add\n        /* \"#utility.yul\":1928:1960   */\n      calldataload\n      swap6\n      pop\n        /* \"#utility.yul\":2059:2061   */\n      0x40\n        /* \"#utility.yul\":2044:2062   */\n      swap1\n      swap5\n      add\n        /* \"#utility.yul\":2031:2063   */\n      calldataload\n      swap4\n        /* \"#utility.yul\":1608:2095   */\n      swap3\n      pop\n      pop\n      pop\n      jump\t// out\n        /* \"#utility.yul\":2282:2769   */\n    tag_92:\n        /* \"#utility.yul\":2359:2365   */\n      0x00\n        /* \"#utility.yul\":2367:2373   */\n      0x00\n        /* \"#utility.yul\":2375:2381   */\n      0x00\n        /* \"#utility.yul\":2428:2430   */\n      0x60\n        /* \"#utility.yul\":2416:2425   */\n      dup5\n        /* \"#utility.yul\":2407:2414   */\n      dup7\n        /* \"#utility.yul\":2403:2426   */\n      sub\n        /* \"#utility.yul\":2399:2431   */\n      slt\n        /* \"#utility.yul\":2396:2448   */\n      iszero\n      tag_423\n      jumpi\n        /* \"#utility.yul\":2444:2445   */\n      0x00\n        /* \"#utility.yul\":2441:2442   */\n      0x00\n        /* \"#utility.yul\":2434:2446   */\n      revert\n        /* \"#utility.yul\":2396:2448   */\n    tag_423:\n        /* \"#utility.yul\":2489:2512   */\n      dup4\n      calldataload\n      swap3\n      pop\n        /* \"#utility.yul\":2609:2611   */\n      0x20\n        /* \"#utility.yul\":2594:2612   */\n      dup5\n      add\n        /* \"#utility.yul\":2581:2613   */\n      calldataload\n      swap2\n      pop\n        /* \"#utility.yul\":2691:2693   */\n      0x40\n        /* \"#utility.yul\":2676:2694   */\n      dup5\n      add\n        /* \"#utility.yul\":2663:2695   */\n      calldataload\n        /* \"#utility.yul\":2704:2737   */\n      tag_424\n        /* \"#utility.yul\":2663:2695   */\n      dup2\n        /* \"#utility.yul\":2704:2737   */\n      tag_393\n      jump\t// in\n    tag_424:\n        /* \"#utility.yul\":2756:2763   */\n      dup1\n        /* \"#utility.yul\":2746:2763   */\n      swap2\n      pop\n      pop\n        /* \"#utility.yul\":2282:2769   */\n      swap3\n      pop\n      swap3\n      pop\n      swap3\n      jump\t// out\n        /* \"#utility.yul\":2774:2916   */\n    tag_394:\n        /* \"#utility.yul\":2850:2870   */\n      dup1\n      calldataload\n        /* \"#utility.yul\":2879:2910   */\n      tag_426\n        /* \"#utility.yul\":2850:2870   */\n      dup2\n        /* \"#utility.yul\":2879:2910   */\n      tag_393\n      jump\t// in\n    tag_426:\n        /* \"#utility.yul\":2774:2916   */\n      swap2\n      swap1\n      pop\n      jump\t// out\n        /* \"#utility.yul\":2921:3302   */\n    tag_97:\n        /* \"#utility.yul\":3003:3009   */\n      0x00\n        /* \"#utility.yul\":3011:3017   */\n      0x00\n        /* \"#utility.yul\":3064:3066   */\n      0x40\n        /* \"#utility.yul\":3052:3061   */\n      dup4\n        /* \"#utility.yul\":3043:3050   */\n      dup6\n        /* \"#utility.yul\":3039:3062   */\n      sub\n        /* \"#utility.yul\":3035:3067   */\n      slt\n        /* \"#utility.yul\":3032:3084   */\n      iszero\n      tag_428\n      jumpi\n        /* \"#utility.yul\":3080:3081   */\n      0x00\n        /* \"#utility.yul\":3077:3078   */\n      0x00\n        /* \"#utility.yul\":3070:3082   */\n      revert\n        /* \"#utility.yul\":3032:3084   */\n    tag_428:\n        /* \"#utility.yul\":3125:3148   */\n      dup3\n      calldataload\n      swap2\n      pop\n        /* \"#utility.yul\":3224:3226   */\n      0x20\n        /* \"#utility.yul\":3209:3227   */\n      dup4\n      add\n        /* \"#utility.yul\":3196:3228   */\n      calldataload\n        /* \"#utility.yul\":3237:3270   */\n      tag_413\n        /* \"#utility.yul\":3196:3228   */\n      dup2\n        /* \"#utility.yul\":3237:3270   */\n      tag_393\n      jump\t// in\n        /* \"#utility.yul\":3307:3434   */\n    tag_395:\n        /* \"#utility.yul\":3368:3378   */\n      0x4e487b71\n        /* \"#utility.yul\":3363:3366   */\n      0xe0\n        /* \"#utility.yul\":3359:3379   */\n      shl\n        /* \"#utility.yul\":3356:3357   */\n      0x00\n        /* \"#utility.yul\":3349:3380   */\n      mstore\n        /* \"#utility.yul\":3399:3403   */\n      0x41\n        /* \"#utility.yul\":3396:3397   */\n      0x04\n        /* \"#utility.yul\":3389:3404   */\n      mstore\n        /* \"#utility.yul\":3423:3427   */\n      0x24\n        /* \"#utility.yul\":3420:3421   */\n      0x00\n        /* \"#utility.yul\":3413:3428   */\n      revert\n        /* \"#utility.yul\":3439:3714   */\n    tag_396:\n        /* \"#utility.yul\":3510:3512   */\n      0x40\n        /* \"#utility.yul\":3504:3513   */\n      mload\n        /* \"#utility.yul\":3575:3577   */\n      0x1f\n        /* \"#utility.yul\":3556:3569   */\n      dup3\n      add\n      not(0x1f)\n        /* \"#utility.yul\":3552:3579   */\n      and\n        /* \"#utility.yul\":3540:3580   */\n      dup2\n      add\n        /* \"#utility.yul\":3610:3628   */\n      0xffffffffffffffff\n        /* \"#utility.yul\":3595:3629   */\n      dup2\n      gt\n        /* \"#utility.yul\":3631:3653   */\n      dup3\n      dup3\n      lt\n        /* \"#utility.yul\":3592:3654   */\n      or\n        /* \"#utility.yul\":3589:3677   */\n      iszero\n      tag_433\n      jumpi\n        /* \"#utility.yul\":3657:3675   */\n      tag_433\n      tag_395\n      jump\t// in\n    tag_433:\n        /* \"#utility.yul\":3693:3695   */\n      0x40\n        /* \"#utility.yul\":3686:3708   */\n      mstore\n        /* \"#utility.yul\":3439:3714   */\n      swap2\n      swap1\n      pop\n      jump\t// out\n        /* \"#utility.yul\":3719:3910   */\n    tag_397:\n        /* \"#utility.yul\":3787:3791   */\n      0x00\n        /* \"#utility.yul\":3820:3838   */\n      0xffffffffffffffff\n        /* \"#utility.yul\":3812:3818   */\n      dup3\n        /* \"#utility.yul\":3809:3839   */\n      gt\n        /* \"#utility.yul\":3806:3862   */\n      iszero\n      tag_436\n      jumpi\n        /* \"#utility.yul\":3842:3860   */\n      tag_436\n      tag_395\n      jump\t// in\n    tag_436:\n      pop\n        /* \"#utility.yul\":3887:3888   */\n      0x05\n        /* \"#utility.yul\":3883:3897   */\n      shl\n        /* \"#utility.yul\":3899:3903   */\n      0x20\n        /* \"#utility.yul\":3879:3904   */\n      add\n      swap1\n        /* \"#utility.yul\":3719:3910   */\n      jump\t// out\n        /* \"#utility.yul\":3915:4646   */\n    tag_398:\n        /* \"#utility.yul\":3969:3974   */\n      0x00\n        /* \"#utility.yul\":4022:4025   */\n      dup3\n        /* \"#utility.yul\":4015:4019   */\n      0x1f\n        /* \"#utility.yul\":4007:4013   */\n      dup4\n        /* \"#utility.yul\":4003:4020   */\n      add\n        /* \"#utility.yul\":3999:4026   */\n      slt\n        /* \"#utility.yul\":3989:4044   */\n      tag_438\n      jumpi\n        /* \"#utility.yul\":4040:4041   */\n      0x00\n        /* \"#utility.yul\":4037:4038   */\n      0x00\n        /* \"#utility.yul\":4030:4042   */\n      revert\n        /* \"#utility.yul\":3989:4044   */\n    tag_438:\n        /* \"#utility.yul\":4080:4086   */\n      dup2\n        /* \"#utility.yul\":4067:4087   */\n      calldataload\n        /* \"#utility.yul\":4107:4179   */\n      tag_439\n        /* \"#utility.yul\":4123:4178   */\n      tag_440\n        /* \"#utility.yul\":4171:4177   */\n      dup3\n        /* \"#utility.yul\":4123:4178   */\n      tag_397\n      jump\t// in\n    tag_440:\n        /* \"#utility.yul\":4107:4179   */\n      tag_396\n      jump\t// in\n    tag_439:\n        /* \"#utility.yul\":4203:4206   */\n      dup1\n        /* \"#utility.yul\":4227:4233   */\n      dup3\n        /* \"#utility.yul\":4222:4225   */\n      dup3\n        /* \"#utility.yul\":4215:4234   */\n      mstore\n        /* \"#utility.yul\":4259:4263   */\n      0x20\n        /* \"#utility.yul\":4254:4257   */\n      dup3\n        /* \"#utility.yul\":4250:4264   */\n      add\n        /* \"#utility.yul\":4243:4264   */\n      swap2\n      pop\n        /* \"#utility.yul\":4320:4324   */\n      0x20\n        /* \"#utility.yul\":4310:4316   */\n      dup4\n        /* \"#utility.yul\":4307:4308   */\n      0x05\n        /* \"#utility.yul\":4303:4317   */\n      shl\n        /* \"#utility.yul\":4295:4301   */\n      dup7\n        /* \"#utility.yul\":4291:4318   */\n      add\n        /* \"#utility.yul\":4287:4325   */\n      add\n        /* \"#utility.yul\":4273:4325   */\n      swap3\n      pop\n        /* \"#utility.yul\":4348:4351   */\n      dup6\n        /* \"#utility.yul\":4340:4346   */\n      dup4\n        /* \"#utility.yul\":4337:4352   */\n      gt\n        /* \"#utility.yul\":4334:4369   */\n      iszero\n      tag_441\n      jumpi\n        /* \"#utility.yul\":4365:4366   */\n      0x00\n        /* \"#utility.yul\":4362:4363   */\n      0x00\n        /* \"#utility.yul\":4355:4367   */\n      revert\n        /* \"#utility.yul\":4334:4369   */\n    tag_441:\n        /* \"#utility.yul\":4401:4405   */\n      0x20\n        /* \"#utility.yul\":4393:4399   */\n      dup6\n        /* \"#utility.yul\":4389:4406   */\n      add\n        /* \"#utility.yul\":4415:4615   */\n    tag_442:\n        /* \"#utility.yul\":4431:4437   */\n      dup4\n        /* \"#utility.yul\":4426:4429   */\n      dup2\n        /* \"#utility.yul\":4423:4438   */\n      lt\n        /* \"#utility.yul\":4415:4615   */\n      iszero\n      tag_444\n      jumpi\n        /* \"#utility.yul\":4523:4540   */\n      dup1\n      calldataload\n        /* \"#utility.yul\":4553:4571   */\n      dup4\n      mstore\n        /* \"#utility.yul\":4600:4604   */\n      0x20\n        /* \"#utility.yul\":4591:4605   */\n      swap3\n      dup4\n      add\n      swap3\n        /* \"#utility.yul\":4448:4462   */\n      add\n        /* \"#utility.yul\":4415:4615   */\n      jump(tag_442)\n    tag_444:\n      pop\n        /* \"#utility.yul\":4633:4640   */\n      swap6\n        /* \"#utility.yul\":3915:4646   */\n      swap5\n      pop\n      pop\n      pop\n      pop\n      pop\n      jump\t// out\n        /* \"#utility.yul\":4651:6099   */\n    tag_101:\n        /* \"#utility.yul\":4809:4815   */\n      0x00\n        /* \"#utility.yul\":4817:4823   */\n      0x00\n        /* \"#utility.yul\":4825:4831   */\n      0x00\n        /* \"#utility.yul\":4833:4839   */\n      0x00\n        /* \"#utility.yul\":4886:4889   */\n      0x80\n        /* \"#utility.yul\":4874:4883   */\n      dup6\n        /* \"#utility.yul\":4865:4872   */\n      dup8\n        /* \"#utility.yul\":4861:4884   */\n      sub\n        /* \"#utility.yul\":4857:4890   */\n      slt\n        /* \"#utility.yul\":4854:4907   */\n      iszero\n      tag_446\n      jumpi\n        /* \"#utility.yul\":4903:4904   */\n      0x00\n        /* \"#utility.yul\":4900:4901   */\n      0x00\n        /* \"#utility.yul\":4893:4905   */\n      revert\n        /* \"#utility.yul\":4854:4907   */\n    tag_446:\n        /* \"#utility.yul\":4943:4952   */\n      dup5\n        /* \"#utility.yul\":4930:4953   */\n      calldataload\n        /* \"#utility.yul\":4976:4994   */\n      0xffffffffffffffff\n        /* \"#utility.yul\":4968:4974   */\n      dup2\n        /* \"#utility.yul\":4965:4995   */\n      gt\n        /* \"#utility.yul\":4962:5012   */\n      iszero\n      tag_447\n      jumpi\n        /* \"#utility.yul\":5008:5009   */\n      0x00\n        /* \"#utility.yul\":5005:5006   */\n      0x00\n        /* \"#utility.yul\":4998:5010   */\n      revert\n        /* \"#utility.yul\":4962:5012   */\n    tag_447:\n        /* \"#utility.yul\":5031:5053   */\n      dup6\n      add\n        /* \"#utility.yul\":5084:5088   */\n      0x1f\n        /* \"#utility.yul\":5076:5089   */\n      dup2\n      add\n        /* \"#utility.yul\":5072:5099   */\n      dup8\n      sgt\n        /* \"#utility.yul\":5062:5117   */\n      tag_448\n      jumpi\n        /* \"#utility.yul\":5113:5114   */\n      0x00\n        /* \"#utility.yul\":5110:5111   */\n      0x00\n        /* \"#utility.yul\":5103:5115   */\n      revert\n        /* \"#utility.yul\":5062:5117   */\n    tag_448:\n        /* \"#utility.yul\":5153:5155   */\n      dup1\n        /* \"#utility.yul\":5140:5156   */\n      calldataload\n        /* \"#utility.yul\":5176:5248   */\n      tag_449\n        /* \"#utility.yul\":5192:5247   */\n      tag_440\n        /* \"#utility.yul\":5240:5246   */\n      dup3\n        /* \"#utility.yul\":5192:5247   */\n      tag_397\n      jump\t// in\n        /* \"#utility.yul\":5176:5248   */\n    tag_449:\n        /* \"#utility.yul\":5270:5273   */\n      dup1\n        /* \"#utility.yul\":5294:5300   */\n      dup3\n        /* \"#utility.yul\":5289:5292   */\n      dup3\n        /* \"#utility.yul\":5282:5301   */\n      mstore\n        /* \"#utility.yul\":5326:5330   */\n      0x20\n        /* \"#utility.yul\":5321:5324   */\n      dup3\n        /* \"#utility.yul\":5317:5331   */\n      add\n        /* \"#utility.yul\":5310:5331   */\n      swap2\n      pop\n        /* \"#utility.yul\":5383:5387   */\n      0x20\n        /* \"#utility.yul\":5373:5379   */\n      dup4\n        /* \"#utility.yul\":5370:5371   */\n      0x05\n        /* \"#utility.yul\":5366:5380   */\n      shl\n        /* \"#utility.yul\":5362:5364   */\n      dup6\n        /* \"#utility.yul\":5358:5381   */\n      add\n        /* \"#utility.yul\":5354:5388   */\n      add\n        /* \"#utility.yul\":5340:5388   */\n      swap3\n      pop\n        /* \"#utility.yul\":5411:5418   */\n      dup10\n        /* \"#utility.yul\":5403:5409   */\n      dup4\n        /* \"#utility.yul\":5400:5419   */\n      gt\n        /* \"#utility.yul\":5397:5436   */\n      iszero\n      tag_451\n      jumpi\n        /* \"#utility.yul\":5432:5433   */\n      0x00\n        /* \"#utility.yul\":5429:5430   */\n      0x00\n        /* \"#utility.yul\":5422:5434   */\n      revert\n        /* \"#utility.yul\":5397:5436   */\n    tag_451:\n        /* \"#utility.yul\":5464:5468   */\n      0x20\n        /* \"#utility.yul\":5460:5462   */\n      dup5\n        /* \"#utility.yul\":5456:5469   */\n      add\n        /* \"#utility.yul\":5445:5469   */\n      swap4\n      pop\n        /* \"#utility.yul\":5478:5699   */\n    tag_452:\n        /* \"#utility.yul\":5494:5500   */\n      dup3\n        /* \"#utility.yul\":5489:5492   */\n      dup5\n        /* \"#utility.yul\":5486:5501   */\n      lt\n        /* \"#utility.yul\":5478:5699   */\n      iszero\n      tag_454\n      jumpi\n        /* \"#utility.yul\":5576:5579   */\n      dup4\n        /* \"#utility.yul\":5563:5580   */\n      calldataload\n        /* \"#utility.yul\":5593:5624   */\n      tag_455\n        /* \"#utility.yul\":5618:5623   */\n      dup2\n        /* \"#utility.yul\":5593:5624   */\n      tag_393\n      jump\t// in\n    tag_455:\n        /* \"#utility.yul\":5637:5655   */\n      dup3\n      mstore\n        /* \"#utility.yul\":5684:5688   */\n      0x20\n        /* \"#utility.yul\":5511:5525   */\n      swap4\n      dup5\n      add\n      swap4\n        /* \"#utility.yul\":5675:5689   */\n      swap1\n      swap2\n      add\n      swap1\n        /* \"#utility.yul\":5478:5699   */\n      jump(tag_452)\n    tag_454:\n        /* \"#utility.yul\":5718:5723   */\n      swap7\n      pop\n      pop\n      pop\n      pop\n        /* \"#utility.yul\":5776:5780   */\n      0x20\n        /* \"#utility.yul\":5761:5781   */\n      dup6\n      add\n        /* \"#utility.yul\":5748:5782   */\n      calldataload\n        /* \"#utility.yul\":5807:5825   */\n      0xffffffffffffffff\n        /* \"#utility.yul\":5794:5826   */\n      dup2\n      gt\n        /* \"#utility.yul\":5791:5843   */\n      iszero\n      tag_456\n      jumpi\n        /* \"#utility.yul\":5839:5840   */\n      0x00\n        /* \"#utility.yul\":5836:5837   */\n      0x00\n        /* \"#utility.yul\":5829:5841   */\n      revert\n        /* \"#utility.yul\":5791:5843   */\n    tag_456:\n        /* \"#utility.yul\":5862:5925   */\n      tag_457\n        /* \"#utility.yul\":5917:5924   */\n      dup8\n        /* \"#utility.yul\":5906:5914   */\n      dup3\n        /* \"#utility.yul\":5895:5904   */\n      dup9\n        /* \"#utility.yul\":5891:5915   */\n      add\n        /* \"#utility.yul\":5862:5925   */\n      tag_398\n      jump\t// in\n    tag_457:\n        /* \"#utility.yul\":5852:5925   */\n      swap4\n      pop\n      pop\n        /* \"#utility.yul\":5998:6000   */\n      0x40\n        /* \"#utility.yul\":5983:6001   */\n      dup6\n      add\n        /* \"#utility.yul\":5970:6002   */\n      calldataload\n      swap2\n      pop\n        /* \"#utility.yul\":6047:6093   */\n      tag_458\n        /* \"#utility.yul\":6089:6091   */\n      0x60\n        /* \"#utility.yul\":6074:6092   */\n      dup7\n      add\n        /* \"#utility.yul\":6047:6093   */\n      tag_394\n      jump\t// in\n    tag_458:\n        /* \"#utility.yul\":6037:6093   */\n      swap1\n      pop\n        /* \"#utility.yul\":4651:6099   */\n      swap3\n      swap6\n      swap2\n      swap5\n      pop\n      swap3\n      pop\n      jump\t// out\n        /* \"#utility.yul\":7116:7824   */\n    tag_121:\n        /* \"#utility.yul\":7377:7383   */\n      dup6\n        /* \"#utility.yul\":7366:7375   */\n      dup2\n        /* \"#utility.yul\":7359:7384   */\n      mstore\n        /* \"#utility.yul\":7420:7426   */\n      dup5\n        /* \"#utility.yul\":7415:7417   */\n      0x20\n        /* \"#utility.yul\":7404:7413   */\n      dup3\n        /* \"#utility.yul\":7400:7418   */\n      add\n        /* \"#utility.yul\":7393:7427   */\n      mstore\n        /* \"#utility.yul\":7463:7469   */\n      dup4\n        /* \"#utility.yul\":7458:7460   */\n      0x40\n        /* \"#utility.yul\":7447:7456   */\n      dup3\n        /* \"#utility.yul\":7443:7461   */\n      add\n        /* \"#utility.yul\":7436:7470   */\n      mstore\n        /* \"#utility.yul\":7506:7512   */\n      dup3\n        /* \"#utility.yul\":7501:7503   */\n      0x60\n        /* \"#utility.yul\":7490:7499   */\n      dup3\n        /* \"#utility.yul\":7486:7504   */\n      add\n        /* \"#utility.yul\":7479:7513   */\n      mstore\n        /* \"#utility.yul\":7550:7553   */\n      0xa0\n        /* \"#utility.yul\":7544:7547   */\n      0x80\n        /* \"#utility.yul\":7533:7542   */\n      dup3\n        /* \"#utility.yul\":7529:7548   */\n      add\n        /* \"#utility.yul\":7522:7554   */\n      mstore\n        /* \"#utility.yul\":7340:7344   */\n      0x00\n        /* \"#utility.yul\":7583:7589   */\n      dup3\n        /* \"#utility.yul\":7577:7590   */\n      mload\n        /* \"#utility.yul\":7627:7633   */\n      dup1\n        /* \"#utility.yul\":7621:7624   */\n      0xa0\n        /* \"#utility.yul\":7610:7619   */\n      dup5\n        /* \"#utility.yul\":7606:7625   */\n      add\n        /* \"#utility.yul\":7599:7634   */\n      mstore\n        /* \"#utility.yul\":7687:7693   */\n      dup1\n        /* \"#utility.yul\":7682:7684   */\n      0x20\n        /* \"#utility.yul\":7674:7680   */\n      dup6\n        /* \"#utility.yul\":7670:7685   */\n      add\n        /* \"#utility.yul\":7664:7667   */\n      0xc0\n        /* \"#utility.yul\":7653:7662   */\n      dup6\n        /* \"#utility.yul\":7649:7668   */\n      add\n        /* \"#utility.yul\":7643:7694   */\n      mcopy\n        /* \"#utility.yul\":7744:7745   */\n      0x00\n        /* \"#utility.yul\":7738:7741   */\n      0xc0\n        /* \"#utility.yul\":7729:7735   */\n      dup3\n        /* \"#utility.yul\":7718:7727   */\n      dup6\n        /* \"#utility.yul\":7714:7736   */\n      add\n        /* \"#utility.yul\":7710:7742   */\n      add\n        /* \"#utility.yul\":7703:7746   */\n      mstore\n        /* \"#utility.yul\":7814:7817   */\n      0xc0\n        /* \"#utility.yul\":7807:7809   */\n      0x1f\n        /* \"#utility.yul\":7803:7810   */\n      not\n        /* \"#utility.yul\":7798:7800   */\n      0x1f\n        /* \"#utility.yul\":7790:7796   */\n      dup4\n        /* \"#utility.yul\":7786:7801   */\n      add\n        /* \"#utility.yul\":7782:7811   */\n      and\n        /* \"#utility.yul\":7771:7780   */\n      dup5\n        /* \"#utility.yul\":7767:7812   */\n      add\n        /* \"#utility.yul\":7763:7818   */\n      add\n        /* \"#utility.yul\":7755:7818   */\n      swap2\n      pop\n      pop\n        /* \"#utility.yul\":7116:7824   */\n      swap7\n      swap6\n      pop\n      pop\n      pop\n      pop\n      pop\n      pop\n      jump\t// out\n        /* \"#utility.yul\":7829:8582   */\n    tag_134:\n        /* \"#utility.yul\":7922:7928   */\n      0x00\n        /* \"#utility.yul\":7930:7936   */\n      0x00\n        /* \"#utility.yul\":7938:7944   */\n      0x00\n        /* \"#utility.yul\":7946:7952   */\n      0x00\n        /* \"#utility.yul\":7954:7960   */\n      0x00\n        /* \"#utility.yul\":8007:8010   */\n      0xa0\n        /* \"#utility.yul\":7995:8004   */\n      dup7\n        /* \"#utility.yul\":7986:7993   */\n      dup9\n        /* \"#utility.yul\":7982:8005   */\n      sub\n        /* \"#utility.yul\":7978:8011   */\n      slt\n        /* \"#utility.yul\":7975:8028   */\n      iszero\n      tag_462\n      jumpi\n        /* \"#utility.yul\":8024:8025   */\n      0x00\n        /* \"#utility.yul\":8021:8022   */\n      0x00\n        /* \"#utility.yul\":8014:8026   */\n      revert\n        /* \"#utility.yul\":7975:8028   */\n    tag_462:\n        /* \"#utility.yul\":8069:8092   */\n      dup6\n      calldataload\n      swap5\n      pop\n        /* \"#utility.yul\":8168:8170   */\n      0x20\n        /* \"#utility.yul\":8153:8171   */\n      dup7\n      add\n        /* \"#utility.yul\":8140:8172   */\n      calldataload\n        /* \"#utility.yul\":8216:8220   */\n      0xff\n        /* \"#utility.yul\":8203:8221   */\n      dup2\n      and\n        /* \"#utility.yul\":8191:8222   */\n      dup2\n      eq\n        /* \"#utility.yul\":8181:8240   */\n      tag_463\n      jumpi\n        /* \"#utility.yul\":8236:8237   */\n      0x00\n        /* \"#utility.yul\":8233:8234   */\n      0x00\n        /* \"#utility.yul\":8226:8238   */\n      revert\n        /* \"#utility.yul\":8181:8240   */\n    tag_463:\n        /* \"#utility.yul\":7829:8582   */\n      swap5\n      swap8\n        /* \"#utility.yul\":8259:8266   */\n      swap5\n      swap7\n      pop\n      pop\n      pop\n      pop\n        /* \"#utility.yul\":8339:8341   */\n      0x40\n        /* \"#utility.yul\":8324:8342   */\n      dup4\n      add\n        /* \"#utility.yul\":8311:8343   */\n      calldataload\n      swap3\n        /* \"#utility.yul\":8442:8444   */\n      0x60\n        /* \"#utility.yul\":8427:8445   */\n      dup2\n      add\n        /* \"#utility.yul\":8414:8446   */\n      calldataload\n      swap3\n        /* \"#utility.yul\":8545:8548   */\n      0x80\n        /* \"#utility.yul\":8530:8549   */\n      swap1\n      swap2\n      add\n        /* \"#utility.yul\":8517:8550   */\n      calldataload\n      swap2\n      pop\n        /* \"#utility.yul\":7829:8582   */\n      jump\t// out\n        /* \"#utility.yul\":8587:8984   */\n    tag_153:\n        /* \"#utility.yul\":8789:8791   */\n      0x20\n        /* \"#utility.yul\":8771:8792   */\n      dup1\n      dup3\n      mstore\n        /* \"#utility.yul\":8828:8830   */\n      0x21\n        /* \"#utility.yul\":8808:8826   */\n      swap1\n      dup3\n      add\n        /* \"#utility.yul\":8801:8831   */\n      mstore\n        /* \"#utility.yul\":8867:8901   */\n      0x466f7262696464656e21204f6e6c79204f70657261746f722043616e2043616c\n        /* \"#utility.yul\":8862:8864   */\n      0x40\n        /* \"#utility.yul\":8847:8865   */\n      dup3\n      add\n        /* \"#utility.yul\":8840:8902   */\n      mstore\n      shl(0xfa, 0x1b)\n        /* \"#utility.yul\":8933:8935   */\n      0x60\n        /* \"#utility.yul\":8918:8936   */\n      dup3\n      add\n        /* \"#utility.yul\":8911:8942   */\n      mstore\n        /* \"#utility.yul\":8974:8977   */\n      0x80\n        /* \"#utility.yul\":8959:8978   */\n      add\n      swap1\n        /* \"#utility.yul\":8587:8984   */\n      jump\t// out\n        /* \"#utility.yul\":9404:9784   */\n    tag_287:\n        /* \"#utility.yul\":9483:9484   */\n      0x01\n        /* \"#utility.yul\":9479:9491   */\n      dup2\n      dup2\n      shr\n      swap1\n        /* \"#utility.yul\":9526:9538   */\n      dup3\n      and\n      dup1\n        /* \"#utility.yul\":9547:9608   */\n      tag_467\n      jumpi\n        /* \"#utility.yul\":9601:9605   */\n      0x7f\n        /* \"#utility.yul\":9593:9599   */\n      dup3\n        /* \"#utility.yul\":9589:9606   */\n      and\n        /* \"#utility.yul\":9579:9606   */\n      swap2\n      pop\n        /* \"#utility.yul\":9547:9608   */\n    tag_467:\n        /* \"#utility.yul\":9654:9656   */\n      0x20\n        /* \"#utility.yul\":9646:9652   */\n      dup3\n        /* \"#utility.yul\":9643:9657   */\n      lt\n        /* \"#utility.yul\":9623:9641   */\n      dup2\n        /* \"#utility.yul\":9620:9658   */\n      sub\n        /* \"#utility.yul\":9617:9778   */\n      tag_468\n      jumpi\n        /* \"#utility.yul\":9700:9710   */\n      0x4e487b71\n        /* \"#utility.yul\":9695:9698   */\n      0xe0\n        /* \"#utility.yul\":9691:9711   */\n      shl\n        /* \"#utility.yul\":9688:9689   */\n      0x00\n        /* \"#utility.yul\":9681:9712   */\n      mstore\n        /* \"#utility.yul\":9735:9739   */\n      0x22\n        /* \"#utility.yul\":9732:9733   */\n      0x04\n        /* \"#utility.yul\":9725:9740   */\n      mstore\n        /* \"#utility.yul\":9763:9767   */\n      0x24\n        /* \"#utility.yul\":9760:9761   */\n      0x00\n        /* \"#utility.yul\":9753:9768   */\n      revert\n        /* \"#utility.yul\":9617:9778   */\n    tag_468:\n      pop\n        /* \"#utility.yul\":9404:9784   */\n      swap2\n      swap1\n      pop\n      jump\t// out\n        /* \"#utility.yul\":9915:10433   */\n    tag_400:\n        /* \"#utility.yul\":10017:10019   */\n      0x1f\n        /* \"#utility.yul\":10012:10015   */\n      dup3\n        /* \"#utility.yul\":10009:10020   */\n      gt\n        /* \"#utility.yul\":10006:10427   */\n      iszero\n      tag_191\n      jumpi\n        /* \"#utility.yul\":10053:10058   */\n      dup1\n        /* \"#utility.yul\":10050:10051   */\n      0x00\n        /* \"#utility.yul\":10043:10059   */\n      mstore\n        /* \"#utility.yul\":10097:10101   */\n      0x20\n        /* \"#utility.yul\":10094:10095   */\n      0x00\n        /* \"#utility.yul\":10084:10102   */\n      keccak256\n        /* \"#utility.yul\":10167:10169   */\n      0x1f\n        /* \"#utility.yul\":10155:10165   */\n      dup5\n        /* \"#utility.yul\":10151:10170   */\n      add\n        /* \"#utility.yul\":10148:10149   */\n      0x05\n        /* \"#utility.yul\":10144:10171   */\n      shr\n        /* \"#utility.yul\":10138:10142   */\n      dup2\n        /* \"#utility.yul\":10134:10172   */\n      add\n        /* \"#utility.yul\":10203:10207   */\n      0x20\n        /* \"#utility.yul\":10191:10201   */\n      dup6\n        /* \"#utility.yul\":10188:10208   */\n      lt\n        /* \"#utility.yul\":10185:10232   */\n      iszero\n      tag_472\n      jumpi\n      pop\n        /* \"#utility.yul\":10226:10230   */\n      dup1\n        /* \"#utility.yul\":10185:10232   */\n    tag_472:\n        /* \"#utility.yul\":10281:10283   */\n      0x1f\n        /* \"#utility.yul\":10276:10279   */\n      dup5\n        /* \"#utility.yul\":10272:10284   */\n      add\n        /* \"#utility.yul\":10269:10270   */\n      0x05\n        /* \"#utility.yul\":10265:10285   */\n      shr\n        /* \"#utility.yul\":10259:10263   */\n      dup3\n        /* \"#utility.yul\":10255:10286   */\n      add\n        /* \"#utility.yul\":10245:10286   */\n      swap2\n      pop\n        /* \"#utility.yul\":10336:10417   */\n    tag_473:\n        /* \"#utility.yul\":10354:10356   */\n      dup2\n        /* \"#utility.yul\":10347:10352   */\n      dup2\n        /* \"#utility.yul\":10344:10357   */\n      lt\n        /* \"#utility.yul\":10336:10417   */\n      iszero\n      tag_316\n      jumpi\n        /* \"#utility.yul\":10413:10414   */\n      0x00\n        /* \"#utility.yul\":10399:10415   */\n      dup2\n      sstore\n        /* \"#utility.yul\":10380:10381   */\n      0x01\n        /* \"#utility.yul\":10369:10382   */\n      add\n        /* \"#utility.yul\":10336:10417   */\n      jump(tag_473)\n        /* \"#utility.yul\":10609:11908   */\n    tag_168:\n        /* \"#utility.yul\":10735:10738   */\n      dup2\n        /* \"#utility.yul\":10729:10739   */\n      mload\n        /* \"#utility.yul\":10762:10780   */\n      0xffffffffffffffff\n        /* \"#utility.yul\":10754:10760   */\n      dup2\n        /* \"#utility.yul\":10751:10781   */\n      gt\n        /* \"#utility.yul\":10748:10804   */\n      iszero\n      tag_479\n      jumpi\n        /* \"#utility.yul\":10784:10802   */\n      tag_479\n      tag_395\n      jump\t// in\n    tag_479:\n        /* \"#utility.yul\":10813:10910   */\n      tag_480\n        /* \"#utility.yul\":10903:10909   */\n      dup2\n        /* \"#utility.yul\":10863:10901   */\n      tag_481\n        /* \"#utility.yul\":10895:10899   */\n      dup5\n        /* \"#utility.yul\":10889:10900   */\n      sload\n        /* \"#utility.yul\":10863:10901   */\n      tag_287\n      jump\t// in\n    tag_481:\n        /* \"#utility.yul\":10857:10861   */\n      dup5\n        /* \"#utility.yul\":10813:10910   */\n      tag_400\n      jump\t// in\n    tag_480:\n        /* \"#utility.yul\":10959:10963   */\n      0x20\n        /* \"#utility.yul\":10990:10992   */\n      0x1f\n        /* \"#utility.yul\":10979:10993   */\n      dup3\n      gt\n        /* \"#utility.yul\":11007:11008   */\n      0x01\n        /* \"#utility.yul\":11002:11651   */\n      dup2\n      eq\n      tag_483\n      jumpi\n        /* \"#utility.yul\":11695:11696   */\n      0x00\n        /* \"#utility.yul\":11712:11718   */\n      dup4\n        /* \"#utility.yul\":11709:11798   */\n      iszero\n      tag_484\n      jumpi\n      pop\n        /* \"#utility.yul\":11764:11783   */\n      dup5\n      dup3\n      add\n        /* \"#utility.yul\":11758:11784   */\n      mload\n        /* \"#utility.yul\":11709:11798   */\n    tag_484:\n      not(0x00)\n        /* \"#utility.yul\":10566:10567   */\n      0x03\n        /* \"#utility.yul\":10562:10573   */\n      dup6\n      swap1\n      shl\n        /* \"#utility.yul\":10558:10582   */\n      shr\n        /* \"#utility.yul\":10554:10583   */\n      not\n        /* \"#utility.yul\":10544:10584   */\n      and\n        /* \"#utility.yul\":10590:10591   */\n      0x01\n        /* \"#utility.yul\":10586:10597   */\n      dup5\n      swap1\n      shl\n        /* \"#utility.yul\":10541:10598   */\n      or\n        /* \"#utility.yul\":11811:11892   */\n      dup5\n      sstore\n        /* \"#utility.yul\":10972:11902   */\n      jump(tag_316)\n        /* \"#utility.yul\":11002:11651   */\n    tag_483:\n        /* \"#utility.yul\":9862:9863   */\n      0x00\n        /* \"#utility.yul\":9855:9869   */\n      dup5\n      dup2\n      mstore\n        /* \"#utility.yul\":9899:9903   */\n      0x20\n        /* \"#utility.yul\":9886:9904   */\n      dup2\n      keccak256\n      not(0x1f)\n        /* \"#utility.yul\":11038:11058   */\n      dup6\n      and\n      swap2\n        /* \"#utility.yul\":11156:11378   */\n    tag_487:\n        /* \"#utility.yul\":11170:11177   */\n      dup3\n        /* \"#utility.yul\":11167:11168   */\n      dup2\n        /* \"#utility.yul\":11164:11178   */\n      lt\n        /* \"#utility.yul\":11156:11378   */\n      iszero\n      tag_489\n      jumpi\n        /* \"#utility.yul\":11252:11271   */\n      dup8\n      dup6\n      add\n        /* \"#utility.yul\":11246:11272   */\n      mload\n        /* \"#utility.yul\":11231:11273   */\n      dup3\n      sstore\n        /* \"#utility.yul\":11359:11363   */\n      0x20\n        /* \"#utility.yul\":11344:11364   */\n      swap5\n      dup6\n      add\n      swap5\n        /* \"#utility.yul\":11312:11313   */\n      0x01\n        /* \"#utility.yul\":11300:11314   */\n      swap1\n      swap3\n      add\n      swap2\n        /* \"#utility.yul\":11186:11198   */\n      add\n        /* \"#utility.yul\":11156:11378   */\n      jump(tag_487)\n    tag_489:\n        /* \"#utility.yul\":11160:11163   */\n      pop\n        /* \"#utility.yul\":11406:11412   */\n      dup5\n        /* \"#utility.yul\":11397:11404   */\n      dup3\n        /* \"#utility.yul\":11394:11413   */\n      lt\n        /* \"#utility.yul\":11391:11592   */\n      iszero\n      tag_490\n      jumpi\n        /* \"#utility.yul\":11467:11486   */\n      dup7\n      dup5\n      add\n        /* \"#utility.yul\":11461:11487   */\n      mload\n      not(0x00)\n        /* \"#utility.yul\":11550:11551   */\n      0x03\n        /* \"#utility.yul\":11546:11560   */\n      dup8\n      swap1\n      shl\n        /* \"#utility.yul\":11562:11565   */\n      0xf8\n        /* \"#utility.yul\":11542:11566   */\n      and\n        /* \"#utility.yul\":11538:11575   */\n      shr\n        /* \"#utility.yul\":11534:11576   */\n      not\n        /* \"#utility.yul\":11519:11577   */\n      and\n        /* \"#utility.yul\":11504:11578   */\n      dup2\n      sstore\n        /* \"#utility.yul\":11391:11592   */\n    tag_490:\n      pop\n      pop\n      pop\n      pop\n        /* \"#utility.yul\":11638:11639   */\n      0x01\n        /* \"#utility.yul\":11622:11636   */\n      swap1\n      dup2\n      shl\n        /* \"#utility.yul\":11618:11640   */\n      add\n        /* \"#utility.yul\":11605:11641   */\n      swap1\n      sstore\n      pop\n        /* \"#utility.yul\":10609:11908   */\n      jump\t// out\n        /* \"#utility.yul\":11913:12040   */\n    tag_182:\n        /* \"#utility.yul\":11974:11984   */\n      0x4e487b71\n        /* \"#utility.yul\":11969:11972   */\n      0xe0\n        /* \"#utility.yul\":11965:11985   */\n      shl\n        /* \"#utility.yul\":11962:11963   */\n      0x00\n        /* \"#utility.yul\":11955:11986   */\n      mstore\n        /* \"#utility.yul\":12005:12009   */\n      0x32\n        /* \"#utility.yul\":12002:12003   */\n      0x04\n        /* \"#utility.yul\":11995:12010   */\n      mstore\n        /* \"#utility.yul\":12029:12033   */\n      0x24\n        /* \"#utility.yul\":12026:12027   */\n      0x00\n        /* \"#utility.yul\":12019:12034   */\n      revert\n        /* \"#utility.yul\":12045:12172   */\n    tag_402:\n        /* \"#utility.yul\":12106:12116   */\n      0x4e487b71\n        /* \"#utility.yul\":12101:12104   */\n      0xe0\n        /* \"#utility.yul\":12097:12117   */\n      shl\n        /* \"#utility.yul\":12094:12095   */\n      0x00\n        /* \"#utility.yul\":12087:12118   */\n      mstore\n        /* \"#utility.yul\":12137:12141   */\n      0x11\n        /* \"#utility.yul\":12134:12135   */\n      0x04\n        /* \"#utility.yul\":12127:12142   */\n      mstore\n        /* \"#utility.yul\":12161:12165   */\n      0x24\n        /* \"#utility.yul\":12158:12159   */\n      0x00\n        /* \"#utility.yul\":12151:12166   */\n      revert\n        /* \"#utility.yul\":12177:12312   */\n    tag_188:\n        /* \"#utility.yul\":12216:12219   */\n      0x00\n        /* \"#utility.yul\":12237:12254   */\n      0x01\n      dup3\n      add\n        /* \"#utility.yul\":12234:12277   */\n      tag_495\n      jumpi\n        /* \"#utility.yul\":12257:12275   */\n      tag_495\n      tag_402\n      jump\t// in\n    tag_495:\n      pop\n        /* \"#utility.yul\":12304:12305   */\n      0x01\n        /* \"#utility.yul\":12293:12306   */\n      add\n      swap1\n        /* \"#utility.yul\":12177:12312   */\n      jump\t// out\n        /* \"#utility.yul\":14209:14334   */\n    tag_232:\n        /* \"#utility.yul\":14274:14283   */\n      dup1\n      dup3\n      add\n        /* \"#utility.yul\":14295:14305   */\n      dup1\n      dup3\n      gt\n        /* \"#utility.yul\":14292:14328   */\n      iszero\n      tag_503\n      jumpi\n        /* \"#utility.yul\":14308:14326   */\n      tag_503\n      tag_402\n      jump\t// in\n    tag_503:\n        /* \"#utility.yul\":14209:14334   */\n      swap3\n      swap2\n      pop\n      pop\n      jump\t// out\n        /* \"#utility.yul\":14676:14844   */\n    tag_244:\n        /* \"#utility.yul\":14749:14758   */\n      dup1\n      dup3\n      mul\n        /* \"#utility.yul\":14780:14789   */\n      dup2\n      iszero\n        /* \"#utility.yul\":14797:14812   */\n      dup3\n      dup3\n      div\n        /* \"#utility.yul\":14791:14813   */\n      dup5\n      eq\n        /* \"#utility.yul\":14777:14814   */\n      or\n        /* \"#utility.yul\":14767:14838   */\n      tag_503\n      jumpi\n        /* \"#utility.yul\":14818:14836   */\n      tag_503\n      tag_402\n      jump\t// in\n        /* \"#utility.yul\":15128:15405   */\n    tag_250:\n        /* \"#utility.yul\":15195:15201   */\n      0x00\n        /* \"#utility.yul\":15248:15250   */\n      0x20\n        /* \"#utility.yul\":15236:15245   */\n      dup3\n        /* \"#utility.yul\":15227:15234   */\n      dup5\n        /* \"#utility.yul\":15223:15246   */\n      sub\n        /* \"#utility.yul\":15219:15251   */\n      slt\n        /* \"#utility.yul\":15216:15268   */\n      iszero\n      tag_510\n      jumpi\n        /* \"#utility.yul\":15264:15265   */\n      0x00\n        /* \"#utility.yul\":15261:15262   */\n      0x00\n        /* \"#utility.yul\":15254:15266   */\n      revert\n        /* \"#utility.yul\":15216:15268   */\n    tag_510:\n        /* \"#utility.yul\":15296:15305   */\n      dup2\n        /* \"#utility.yul\":15290:15306   */\n      mload\n        /* \"#utility.yul\":15349:15354   */\n      dup1\n        /* \"#utility.yul\":15342:15355   */\n      iszero\n        /* \"#utility.yul\":15335:15356   */\n      iszero\n        /* \"#utility.yul\":15328:15333   */\n      dup2\n        /* \"#utility.yul\":15325:15357   */\n      eq\n        /* \"#utility.yul\":15315:15375   */\n      tag_416\n      jumpi\n        /* \"#utility.yul\":15371:15372   */\n      0x00\n        /* \"#utility.yul\":15368:15369   */\n      0x00\n        /* \"#utility.yul\":15361:15373   */\n      revert\n        /* \"#utility.yul\":15410:15538   */\n    tag_261:\n        /* \"#utility.yul\":15477:15486   */\n      dup2\n      dup2\n      sub\n        /* \"#utility.yul\":15498:15509   */\n      dup2\n      dup2\n      gt\n        /* \"#utility.yul\":15495:15532   */\n      iszero\n      tag_503\n      jumpi\n        /* \"#utility.yul\":15512:15530   */\n      tag_503\n      tag_402\n      jump\t// in\n    stop\n    data_06b493c1ca289c5326ef56c162cd187bf96c737c2c9bbda318cc345be15042af c65a7bb8d6351c1cf70c95a316cc6a92839c986682d98bc35f958f4883f9d2a9\n    data_410c2796757c1866e144712b649ab035b22d7295530f125d2b7bc17fa7b793b5 c65a7bb8d6351c1cf70c95a316cc6a92839c986682d98bc35f958f4883f9d2a8\n    data_5370eae143cc2f6260640bd734b0cdaf587bbcfc81362df39d56d5a29a7e663b c65a7bb8d6351c1cf70c95a316cc6a92839c986682d98bc35f958f4883f9d2ab\n    data_7a0b543a77c72a2154fae01417d93ab4a7f07c9a6bbce5febfeb9904a41b7914 c65a7bb8d6351c1cf70c95a316cc6a92839c986682d98bc35f958f4883f9d2aa\n    data_d5211e5652076f058928f5b24e1816690291c298b337ea927f8d0f3aabb8a05a c65a7bb8d6351c1cf70c95a316cc6a92839c986682d98bc35f958f4883f9d2ac\n\n    auxdata: 0xa2646970667358221220fc4c986c06f9b7bab6c84f22a714f2e0aee41878d67e9b5b1da0b44b5664d26264736f6c634300081e0033\n}\n",
				"bytecode": {
					"linkReferences": {},
					"object": "6080604052348015600e575f5ffd5b5060018055611fd1806100205f395ff3fe608060405260043610610161575f3560e01c80637628a37d116100cd578063c216212a11610087578063f208593511610062578063f208593514610510578063f2fde38b1461052f578063f3b2aa941461054e578063f851a4401461056d575f5ffd5b8063c216212a14610496578063c2685793146104c6578063c54e44eb146104f1575f5ffd5b80637628a37d1461032c5780637b5005641461034b57806384412cc71461036a5780638456cb591461037d5780638da5cb5b14610391578063a87430ba146103ad575f5ffd5b80635abca48d1161011e5780635abca48d146102735780635c975abb1461029257806370ae92d2146102af578063715018a6146102da57806371747dc5146102ee57806373a5028a1461030d575f5ffd5b80632a2d0c4714610165578063348d4487146101b65780633f4ba83a146101d9578063485cc955146101ef578063509222cd1461020e578063570ca73514610254575b5f5ffd5b348015610170575f5ffd5b5061019961017f366004611978565b60086020525f90815260409020546001600160a01b031681565b6040516001600160a01b0390911681526020015b60405180910390f35b3480156101c1575f5ffd5b506101cb60065481565b6040519081526020016101ad565b3480156101e4575f5ffd5b506101ed61058c565b005b3480156101fa575f5ffd5b506101ed6102093660046119a3565b6105d2565b348015610219575f5ffd5b506102446102283660046119da565b6001600160a01b03165f90815260076020526040902054151590565b60405190151581526020016101ad565b34801561025f575f5ffd5b50600354610199906001600160a01b031681565b34801561027e575f5ffd5b506101cb61028d3660046119fc565b610c32565b34801561029d575f5ffd5b505f54600160a01b900460ff16610244565b3480156102ba575f5ffd5b506101cb6102c93660046119da565b60096020525f908152604090205481565b3480156102e5575f5ffd5b506101ed610cad565b3480156102f9575f5ffd5b50600554610199906001600160a01b031681565b348015610318575f5ffd5b506101ed6103273660046119da565b610cbe565b348015610337575f5ffd5b506101ed610346366004611a2e565b610ce8565b348015610356575f5ffd5b506101ed610365366004611a74565b610ec2565b6101ed610378366004611b69565b610fa5565b348015610388575f5ffd5b506101ed611137565b34801561039c575f5ffd5b505f546001600160a01b0316610199565b3480156103b8575f5ffd5b506104336103c73660046119da565b600760208190525f918252604090912080546001820154600283015460038401546004850154600586015460068701549787015460088801546009890154600a8a0154600b909a0154989a6001600160a01b039098169996989597949693959293919290919060ff168c565b604080519c8d526001600160a01b03909b1660208d0152998b019890985260608a0196909652608089019490945260a088019290925260c087015260e08601526101008501526101208401526101408301521515610160820152610180016101ad565b3480156104a1575f5ffd5b506104b56104b0366004611978565b611172565b6040516101ad959493929190611c47565b3480156104d1575f5ffd5b506101cb6104e0366004611978565b600b6020525f908152604090205481565b3480156104fc575f5ffd5b50600454610199906001600160a01b031681565b34801561051b575f5ffd5b506101ed61052a366004611c98565b611239565b34801561053a575f5ffd5b506101ed6105493660046119da565b611383565b348015610559575f5ffd5b506101ed610568366004611978565b6113fc565b348015610578575f5ffd5b50600254610199906001600160a01b031681565b6003546001600160a01b0316336001600160a01b0316146105c85760405162461bcd60e51b81526004016105bf90611ce1565b60405180910390fd5b6105d061148a565b565b5f54600160b01b900460ff16806105f257505f54600160a81b900460ff16155b6106555760405162461bcd60e51b815260206004820152602e60248201527f496e697469616c697a61626c653a20636f6e747261637420697320616c72656160448201526d191e481a5b9a5d1a585b1a5e995960921b60648201526084016105bf565b5f54600160b01b900460ff1615801561067d575f805461ffff60a81b191661010160a81b1790555b600480546001600160a01b0319166001600160a01b0385161790556106a1826113f0565b6040805160a08101825260018082526802b5e3af16b188000060208084019182526021848601908152605a606086019081528651808801909752600f87526e50726563696f7573204d6574616c7360881b9287019290925260808501958652600a805494850181555f52845160059094025f516020611f1c5f395f51905f52810194855592515f516020611efc5f395f51905f52840155515f516020611f5c5f395f51905f52830155515f516020611f3c5f395f51905f528201559251919290915f516020611f7c5f395f51905f529091019061077e9082611d9e565b50506040805160a08101825260028152681b1ae4d6e2ef5000006020808301918252603283850190815260b4606085019081528551808701909652600b86526a5265616c2045737461746560a81b9286019290925260808401948552600a80546001810182555f91909152845160059091025f516020611f1c5f395f51905f52810191825593515f516020611efc5f395f51905f5285015590515f516020611f5c5f395f51905f5284015590515f516020611f3c5f395f51905f5283015592519193505f516020611f7c5f395f51905f52019061085b9082611d9e565b50506040805160a0810182526003815268878678326eac90000060208083019182526043838501908152610168606085019081528551808701909652600986526855532053746f636b7360b81b9286019290925260808401948552600a80546001810182555f91909152845160059091025f516020611f1c5f395f51905f52810191825593515f516020611efc5f395f51905f5285015590515f516020611f5c5f395f51905f5284015590515f516020611f3c5f395f51905f5283015592519193505f516020611f7c5f395f51905f5201906109379082611d9e565b50506040805160a0810182526004815269010f0cf064dd59200000602080830191825260508385019081526102d0606085019081528551808701909652600c86526b119bdc995e0813585c9ad95d60a21b9286019290925260808401948552600a80546001810182555f91909152845160059091025f516020611f1c5f395f51905f52810191825593515f516020611efc5f395f51905f5285015590515f516020611f5c5f395f51905f5284015590515f516020611f3c5f395f51905f5283015592519193505f516020611f7c5f395f51905f520190610a179082611d9e565b50506040805160a081018252600580825269021e19e0c9bab240000060208084019182526064848601908152610438606086019081528651808801909752600e87526d4469676974616c2041737365747360901b9287019290925260808501958652600a80546001810182555f91909152855194025f516020611f1c5f395f51905f52810194855592515f516020611efc5f395f51905f52840155515f516020611f5c5f395f51905f52830155515f516020611f3c5f395f51905f528201559251919350915f516020611f7c5f395f51905f520190610af69082611d9e565b505f9150505b600a54811015610b6757600a8181548110610b1957610b19611e59565b905f5260205f20906005020160010154600b5f600a8481548110610b3f57610b3f611e59565b5f91825260208083206005909202909101548352820192909252604001902055600101610afc565b50600160068181556001600160a01b0384165f8181526007602090815260408220859055848252600890527fad67d757c34507f157cacfa2e3153e9f260a2244f30428821be7be64587ac55f80546001600160a01b031916909217909155610bce83611e81565b909155505060408051600181525f60208201819052916001600160a01b038516917f309bb360e8b69c23937ccc5fb01f9aeeead1c95a99604e175113ff82f2b1723a910160405180910390a38015610c2d575f805460ff60b01b191690555b505050565b6001600160a01b0383165f908152600960209081526040918290205482516bffffffffffffffffffffffff19606097881b8116828501526034820196909652605481019190915260748101939093524660948401523090941b90921660b4820152815180820360a801815260c8909101909152805191012090565b610cb56114de565b6105d05f611537565b610cc66114de565b600580546001600160a01b0319166001600160a01b0392909216919091179055565b610cf133610228565b610cff57610cff3382611586565b610d0833610228565b610d545760405162461bcd60e51b815260206004820152601860248201527f4473636c61623a2055736572206e6f742045786973747321000000000000000060448201526064016105bf565b816001148015610d865750600a8281548110610d7257610d72611e59565b905f5260205f209060050201600101548310155b610de25760405162461bcd60e51b815260206004820152602760248201527f496e76616c696420496e766573746d656e7420416d6f756e7420666f7220746860448201526634b990283630b760c91b60648201526084016105bf565b335f8181526007602090815260409182902060068101546001909101548351888152928301879052835191946001600160a01b039091169390927f5af417134f72a9d41143ace85b0a26dce6f550f894f2cbc1eeee8810603d91b6929081900390910190a2335f908152600760205260408120600681018790556003018054879290610e6f908490611e99565b9091555050335f9081526007602052604081206003015490819003610eba576001600160a01b0382165f908152600760205260408120600201805491610eb483611e81565b91905055505b505050505050565b5f546001600160a01b03163314610f075760405162461bcd60e51b815260206004820152600960248201526837b7363ca7bbb732b960b91b60448201526064016105bf565b806001600160a01b031663a9059cbb610f275f546001600160a01b031690565b610f3985670de0b6b3a7640000611eb2565b6040516001600160e01b031960e085901b1681526001600160a01b03909216600483015260248201526044016020604051808303815f875af1158015610f81573d5f5f3e3d5ffd5b505050506040513d601f19601f82011682018060405250810190610c2d9190611ec9565b815f5b8551811015610eba57848181518110610fc357610fc3611e59565b6020026020010151821015610fd6575f5ffd5b848181518110610fe857610fe8611e59565b602002602001015182610ffb9190611ee8565b9150826001600160a01b03166323b872dd3388848151811061101f5761101f611e59565b602002602001015188858151811061103957611039611e59565b60209081029190910101516040516001600160e01b031960e086901b1681526001600160a01b03938416600482015292909116602483015260448201526064016020604051808303815f875af1158015611095573d5f5f3e3d5ffd5b505050506040513d601f19601f820116820180604052508101906110b99190611ec9565b508581815181106110cc576110cc611e59565b60200260200101516001600160a01b03167fbd54bf7a35b4f30a5c2e53df02c464dc7c2a159a96b24dbb41cd9808bd6e2e3686838151811061111057611110611e59565b602002602001015160405161112791815260200190565b60405180910390a2600101610fa8565b6003546001600160a01b0316336001600160a01b03161461116a5760405162461bcd60e51b81526004016105bf90611ce1565b6105d0611738565b600a8181548110611181575f80fd5b905f5260205f2090600502015f91509050805f0154908060010154908060020154908060030154908060040180546111b890611d22565b80601f01602080910402602001604051908101604052809291908181526020018280546111e490611d22565b801561122f5780601f106112065761010080835404028352916020019161122f565b820191905f5260205f20905b81548152906001019060200180831161121257829003601f168201915b5050505050905085565b61124161177a565b61124a33610228565b6112885760405162461bcd60e51b815260206004820152600f60248201526e75736572206e6f742065786973747360881b60448201526064016105bf565b61129f611296338784610c32565b858585856117d3565b6112df5760405162461bcd60e51b8152602060048201526011602482015270696e76616c6964207369676e617475726560781b60448201526064016105bf565b6040518590339082156108fc029083905f818181858888f1935050505015801561130b573d5f5f3e3d5ffd5b50335f818152600960209081526040918290205482518a8152918201527ff279e6a1f5e320cca91135676d9cb6e44ca8a08c0b88342bcdb1144f6511b568910160405180910390a2335f90815260096020526040812080549161136d83611e81565b91905055505061137c60018055565b5050505050565b61138b6114de565b6001600160a01b0381166113f05760405162461bcd60e51b815260206004820152602660248201527f4f776e61626c653a206e6577206f776e657220697320746865207a65726f206160448201526564647265737360d01b60648201526084016105bf565b6113f981611537565b50565b5f546001600160a01b031633146114415760405162461bcd60e51b815260206004820152600960248201526837b7363ca7bbb732b960b91b60448201526064016105bf565b5f546001600160a01b03166108fc61146183670de0b6b3a7640000611eb2565b6040518115909202915f818181858888f19350505050158015611486573d5f5f3e3d5ffd5b5050565b6114926118dd565b5f805460ff60a01b191690557f5db9ee0a495bf2e6ff9c91a7834c1ba4fdd244a5e8aa4e537bd38aeae4b073aa335b6040516001600160a01b03909116815260200160405180910390a1565b5f546001600160a01b031633146105d05760405162461bcd60e51b815260206004820181905260248201527f4f776e61626c653a2063616c6c6572206973206e6f7420746865206f776e657260448201526064016105bf565b5f80546001600160a01b038381166001600160a01b0319831681178455604051919092169283917f8be0079c531659141344cd1fd0a4f28419497f9722a3daafe3b4186f6b6457e09190a35050565b6001600160a01b0382165f90815260076020526040902054156115da5760405162461bcd60e51b815260206004820152600c60248201526b55736572204578697374732160a01b60448201526064016105bf565b6001600160a01b0381165f908152600760205260409020546116355760405162461bcd60e51b81526020600482015260146024820152735265666572726572206e6f74204578697374732160601b60448201526064016105bf565b600680546001600160a01b038481165f81815260076020818152604080842087815596845260088252832080546001600160a01b031990811686179091559383525260018401805490921692861692909217905560099091018190558154919061169e83611e81565b90915550506001600160a01b0381165f9081526007602052604081206009018054916116c983611e81565b90915550506001600160a01b038281165f81815260076020526040808220549385168083529181902054905191937f309bb360e8b69c23937ccc5fb01f9aeeead1c95a99604e175113ff82f2b1723a9261172c9290918252602082015260400190565b60405180910390a35050565b61174061192c565b5f805460ff60a01b1916600160a01b1790557f62e78cea01bee320cd4e420270b5ea74000d11b0c9f74754ebdbfc544b05a2586114c13390565b6002600154036117cc5760405162461bcd60e51b815260206004820152601f60248201527f5265656e7472616e637947756172643a207265656e7472616e742063616c6c0060448201526064016105bf565b6002600155565b5f814211156118185760405162461bcd60e51b815260206004820152601160248201527014da59db985d1d5c9948195e1c1a5c9959607a1b60448201526064016105bf565b6040517f19457468657265756d205369676e6564204d6573736167653a0a3332000000006020820152603c81018790525f90605c0160408051601f1981840301815282825280516020918201205f80855291840180845281905260ff8a169284019290925260608301889052608083018790529092509060019060a0016020604051602081039080840390855afa1580156118b5573d5f5f3e3d5ffd5b5050604051601f1901516005546001600160a01b039081169116149998505050505050505050565b5f54600160a01b900460ff166105d05760405162461bcd60e51b815260206004820152601460248201527314185d5cd8589b194e881b9bdd081c185d5cd95960621b60448201526064016105bf565b5f54600160a01b900460ff16156105d05760405162461bcd60e51b815260206004820152601060248201526f14185d5cd8589b194e881c185d5cd95960821b60448201526064016105bf565b5f60208284031215611988575f5ffd5b5035919050565b6001600160a01b03811681146113f9575f5ffd5b5f5f604083850312156119b4575f5ffd5b82356119bf8161198f565b915060208301356119cf8161198f565b809150509250929050565b5f602082840312156119ea575f5ffd5b81356119f58161198f565b9392505050565b5f5f5f60608486031215611a0e575f5ffd5b8335611a198161198f565b95602085013595506040909401359392505050565b5f5f5f60608486031215611a40575f5ffd5b83359250602084013591506040840135611a598161198f565b809150509250925092565b8035611a6f8161198f565b919050565b5f5f60408385031215611a85575f5ffd5b8235915060208301356119cf8161198f565b634e487b7160e01b5f52604160045260245ffd5b604051601f8201601f1916810167ffffffffffffffff81118282101715611ad457611ad4611a97565b604052919050565b5f67ffffffffffffffff821115611af557611af5611a97565b5060051b60200190565b5f82601f830112611b0e575f5ffd5b8135611b21611b1c82611adc565b611aab565b8082825260208201915060208360051b860101925085831115611b42575f5ffd5b602085015b83811015611b5f578035835260209283019201611b47565b5095945050505050565b5f5f5f5f60808587031215611b7c575f5ffd5b843567ffffffffffffffff811115611b92575f5ffd5b8501601f81018713611ba2575f5ffd5b8035611bb0611b1c82611adc565b8082825260208201915060208360051b850101925089831115611bd1575f5ffd5b6020840193505b82841015611bfc578335611beb8161198f565b825260209384019390910190611bd8565b9650505050602085013567ffffffffffffffff811115611c1a575f5ffd5b611c2687828801611aff565b93505060408501359150611c3c60608601611a64565b905092959194509250565b85815284602082015283604082015282606082015260a060808201525f82518060a0840152806020850160c085015e5f60c0828501015260c0601f19601f8301168401019150509695505050505050565b5f5f5f5f5f60a08688031215611cac575f5ffd5b85359450602086013560ff81168114611cc3575f5ffd5b94979496505050506040830135926060810135926080909101359150565b60208082526021908201527f466f7262696464656e21204f6e6c79204f70657261746f722043616e2043616c6040820152601b60fa1b606082015260800190565b600181811c90821680611d3657607f821691505b602082108103611d5457634e487b7160e01b5f52602260045260245ffd5b50919050565b601f821115610c2d57805f5260205f20601f840160051c81016020851015611d7f5750805b601f840160051c820191505b8181101561137c575f8155600101611d8b565b815167ffffffffffffffff811115611db857611db8611a97565b611dcc81611dc68454611d22565b84611d5a565b6020601f821160018114611dfe575f8315611de75750848201515b5f19600385901b1c1916600184901b17845561137c565b5f84815260208120601f198516915b82811015611e2d5787850151825560209485019460019092019101611e0d565b5084821015611e4a57868401515f19600387901b60f8161c191681555b50505050600190811b01905550565b634e487b7160e01b5f52603260045260245ffd5b634e487b7160e01b5f52601160045260245ffd5b5f60018201611e9257611e92611e6d565b5060010190565b80820180821115611eac57611eac611e6d565b92915050565b8082028115828204841417611eac57611eac611e6d565b5f60208284031215611ed9575f5ffd5b815180151581146119f5575f5ffd5b81810381811115611eac57611eac611e6d56fec65a7bb8d6351c1cf70c95a316cc6a92839c986682d98bc35f958f4883f9d2a9c65a7bb8d6351c1cf70c95a316cc6a92839c986682d98bc35f958f4883f9d2a8c65a7bb8d6351c1cf70c95a316cc6a92839c986682d98bc35f958f4883f9d2abc65a7bb8d6351c1cf70c95a316cc6a92839c986682d98bc35f958f4883f9d2aac65a7bb8d6351c1cf70c95a316cc6a92839c986682d98bc35f958f4883f9d2aca2646970667358221220fc4c986c06f9b7bab6c84f22a714f2e0aee41878d67e9b5b1da0b44b5664d26264736f6c634300081e0033",
					"opcodes": "PUSH1 0x80 PUSH1 0x40 MSTORE CALLVALUE DUP1 ISZERO PUSH1 0xE JUMPI PUSH0 PUSH0 REVERT JUMPDEST POP PUSH1 0x1 DUP1 SSTORE PUSH2 0x1FD1 DUP1 PUSH2 0x20 PUSH0 CODECOPY PUSH0 RETURN INVALID PUSH1 0x80 PUSH1 0x40 MSTORE PUSH1 0x4 CALLDATASIZE LT PUSH2 0x161 JUMPI PUSH0 CALLDATALOAD PUSH1 0xE0 SHR DUP1 PUSH4 0x7628A37D GT PUSH2 0xCD JUMPI DUP1 PUSH4 0xC216212A GT PUSH2 0x87 JUMPI DUP1 PUSH4 0xF2085935 GT PUSH2 0x62 JUMPI DUP1 PUSH4 0xF2085935 EQ PUSH2 0x510 JUMPI DUP1 PUSH4 0xF2FDE38B EQ PUSH2 0x52F JUMPI DUP1 PUSH4 0xF3B2AA94 EQ PUSH2 0x54E JUMPI DUP1 PUSH4 0xF851A440 EQ PUSH2 0x56D JUMPI PUSH0 PUSH0 REVERT JUMPDEST DUP1 PUSH4 0xC216212A EQ PUSH2 0x496 JUMPI DUP1 PUSH4 0xC2685793 EQ PUSH2 0x4C6 JUMPI DUP1 PUSH4 0xC54E44EB EQ PUSH2 0x4F1 JUMPI PUSH0 PUSH0 REVERT JUMPDEST DUP1 PUSH4 0x7628A37D EQ PUSH2 0x32C JUMPI DUP1 PUSH4 0x7B500564 EQ PUSH2 0x34B JUMPI DUP1 PUSH4 0x84412CC7 EQ PUSH2 0x36A JUMPI DUP1 PUSH4 0x8456CB59 EQ PUSH2 0x37D JUMPI DUP1 PUSH4 0x8DA5CB5B EQ PUSH2 0x391 JUMPI DUP1 PUSH4 0xA87430BA EQ PUSH2 0x3AD JUMPI PUSH0 PUSH0 REVERT JUMPDEST DUP1 PUSH4 0x5ABCA48D GT PUSH2 0x11E JUMPI DUP1 PUSH4 0x5ABCA48D EQ PUSH2 0x273 JUMPI DUP1 PUSH4 0x5C975ABB EQ PUSH2 0x292 JUMPI DUP1 PUSH4 0x70AE92D2 EQ PUSH2 0x2AF JUMPI DUP1 PUSH4 0x715018A6 EQ PUSH2 0x2DA JUMPI DUP1 PUSH4 0x71747DC5 EQ PUSH2 0x2EE JUMPI DUP1 PUSH4 0x73A5028A EQ PUSH2 0x30D JUMPI PUSH0 PUSH0 REVERT JUMPDEST DUP1 PUSH4 0x2A2D0C47 EQ PUSH2 0x165 JUMPI DUP1 PUSH4 0x348D4487 EQ PUSH2 0x1B6 JUMPI DUP1 PUSH4 0x3F4BA83A EQ PUSH2 0x1D9 JUMPI DUP1 PUSH4 0x485CC955 EQ PUSH2 0x1EF JUMPI DUP1 PUSH4 0x509222CD EQ PUSH2 0x20E JUMPI DUP1 PUSH4 0x570CA735 EQ PUSH2 0x254 JUMPI JUMPDEST PUSH0 PUSH0 REVERT JUMPDEST CALLVALUE DUP1 ISZERO PUSH2 0x170 JUMPI PUSH0 PUSH0 REVERT JUMPDEST POP PUSH2 0x199 PUSH2 0x17F CALLDATASIZE PUSH1 0x4 PUSH2 0x1978 JUMP JUMPDEST PUSH1 0x8 PUSH1 0x20 MSTORE PUSH0 SWAP1 DUP2 MSTORE PUSH1 0x40 SWAP1 KECCAK256 SLOAD PUSH1 0x1 PUSH1 0x1 PUSH1 0xA0 SHL SUB AND DUP2 JUMP JUMPDEST PUSH1 0x40 MLOAD PUSH1 0x1 PUSH1 0x1 PUSH1 0xA0 SHL SUB SWAP1 SWAP2 AND DUP2 MSTORE PUSH1 0x20 ADD JUMPDEST PUSH1 0x40 MLOAD DUP1 SWAP2 SUB SWAP1 RETURN JUMPDEST CALLVALUE DUP1 ISZERO PUSH2 0x1C1 JUMPI PUSH0 PUSH0 REVERT JUMPDEST POP PUSH2 0x1CB PUSH1 0x6 SLOAD DUP2 JUMP JUMPDEST PUSH1 0x40 MLOAD SWAP1 DUP2 MSTORE PUSH1 0x20 ADD PUSH2 0x1AD JUMP JUMPDEST CALLVALUE DUP1 ISZERO PUSH2 0x1E4 JUMPI PUSH0 PUSH0 REVERT JUMPDEST POP PUSH2 0x1ED PUSH2 0x58C JUMP JUMPDEST STOP JUMPDEST CALLVALUE DUP1 ISZERO PUSH2 0x1FA JUMPI PUSH0 PUSH0 REVERT JUMPDEST POP PUSH2 0x1ED PUSH2 0x209 CALLDATASIZE PUSH1 0x4 PUSH2 0x19A3 JUMP JUMPDEST PUSH2 0x5D2 JUMP JUMPDEST CALLVALUE DUP1 ISZERO PUSH2 0x219 JUMPI PUSH0 PUSH0 REVERT JUMPDEST POP PUSH2 0x244 PUSH2 0x228 CALLDATASIZE PUSH1 0x4 PUSH2 0x19DA JUMP JUMPDEST PUSH1 0x1 PUSH1 0x1 PUSH1 0xA0 SHL SUB AND PUSH0 SWAP1 DUP2 MSTORE PUSH1 0x7 PUSH1 0x20 MSTORE PUSH1 0x40 SWAP1 KECCAK256 SLOAD ISZERO ISZERO SWAP1 JUMP JUMPDEST PUSH1 0x40 MLOAD SWAP1 ISZERO ISZERO DUP2 MSTORE PUSH1 0x20 ADD PUSH2 0x1AD JUMP JUMPDEST CALLVALUE DUP1 ISZERO PUSH2 0x25F JUMPI PUSH0 PUSH0 REVERT JUMPDEST POP PUSH1 0x3 SLOAD PUSH2 0x199 SWAP1 PUSH1 0x1 PUSH1 0x1 PUSH1 0xA0 SHL SUB AND DUP2 JUMP JUMPDEST CALLVALUE DUP1 ISZERO PUSH2 0x27E JUMPI PUSH0 PUSH0 REVERT JUMPDEST POP PUSH2 0x1CB PUSH2 0x28D CALLDATASIZE PUSH1 0x4 PUSH2 0x19FC JUMP JUMPDEST PUSH2 0xC32 JUMP JUMPDEST CALLVALUE DUP1 ISZERO PUSH2 0x29D JUMPI PUSH0 PUSH0 REVERT JUMPDEST POP PUSH0 SLOAD PUSH1 0x1 PUSH1 0xA0 SHL SWAP1 DIV PUSH1 0xFF AND PUSH2 0x244 JUMP JUMPDEST CALLVALUE DUP1 ISZERO PUSH2 0x2BA JUMPI PUSH0 PUSH0 REVERT JUMPDEST POP PUSH2 0x1CB PUSH2 0x2C9 CALLDATASIZE PUSH1 0x4 PUSH2 0x19DA JUMP JUMPDEST PUSH1 0x9 PUSH1 0x20 MSTORE PUSH0 SWAP1 DUP2 MSTORE PUSH1 0x40 SWAP1 KECCAK256 SLOAD DUP2 JUMP JUMPDEST CALLVALUE DUP1 ISZERO PUSH2 0x2E5 JUMPI PUSH0 PUSH0 REVERT JUMPDEST POP PUSH2 0x1ED PUSH2 0xCAD JUMP JUMPDEST CALLVALUE DUP1 ISZERO PUSH2 0x2F9 JUMPI PUSH0 PUSH0 REVERT JUMPDEST POP PUSH1 0x5 SLOAD PUSH2 0x199 SWAP1 PUSH1 0x1 PUSH1 0x1 PUSH1 0xA0 SHL SUB AND DUP2 JUMP JUMPDEST CALLVALUE DUP1 ISZERO PUSH2 0x318 JUMPI PUSH0 PUSH0 REVERT JUMPDEST POP PUSH2 0x1ED PUSH2 0x327 CALLDATASIZE PUSH1 0x4 PUSH2 0x19DA JUMP JUMPDEST PUSH2 0xCBE JUMP JUMPDEST CALLVALUE DUP1 ISZERO PUSH2 0x337 JUMPI PUSH0 PUSH0 REVERT JUMPDEST POP PUSH2 0x1ED PUSH2 0x346 CALLDATASIZE PUSH1 0x4 PUSH2 0x1A2E JUMP JUMPDEST PUSH2 0xCE8 JUMP JUMPDEST CALLVALUE DUP1 ISZERO PUSH2 0x356 JUMPI PUSH0 PUSH0 REVERT JUMPDEST POP PUSH2 0x1ED PUSH2 0x365 CALLDATASIZE PUSH1 0x4 PUSH2 0x1A74 JUMP JUMPDEST PUSH2 0xEC2 JUMP JUMPDEST PUSH2 0x1ED PUSH2 0x378 CALLDATASIZE PUSH1 0x4 PUSH2 0x1B69 JUMP JUMPDEST PUSH2 0xFA5 JUMP JUMPDEST CALLVALUE DUP1 ISZERO PUSH2 0x388 JUMPI PUSH0 PUSH0 REVERT JUMPDEST POP PUSH2 0x1ED PUSH2 0x1137 JUMP JUMPDEST CALLVALUE DUP1 ISZERO PUSH2 0x39C JUMPI PUSH0 PUSH0 REVERT JUMPDEST POP PUSH0 SLOAD PUSH1 0x1 PUSH1 0x1 PUSH1 0xA0 SHL SUB AND PUSH2 0x199 JUMP JUMPDEST CALLVALUE DUP1 ISZERO PUSH2 0x3B8 JUMPI PUSH0 PUSH0 REVERT JUMPDEST POP PUSH2 0x433 PUSH2 0x3C7 CALLDATASIZE PUSH1 0x4 PUSH2 0x19DA JUMP JUMPDEST PUSH1 0x7 PUSH1 0x20 DUP2 SWAP1 MSTORE PUSH0 SWAP2 DUP3 MSTORE PUSH1 0x40 SWAP1 SWAP2 KECCAK256 DUP1 SLOAD PUSH1 0x1 DUP3 ADD SLOAD PUSH1 0x2 DUP4 ADD SLOAD PUSH1 0x3 DUP5 ADD SLOAD PUSH1 0x4 DUP6 ADD SLOAD PUSH1 0x5 DUP7 ADD SLOAD PUSH1 0x6 DUP8 ADD SLOAD SWAP8 DUP8 ADD SLOAD PUSH1 0x8 DUP9 ADD SLOAD PUSH1 0x9 DUP10 ADD SLOAD PUSH1 0xA DUP11 ADD SLOAD PUSH1 0xB SWAP1 SWAP11 ADD SLOAD SWAP9 SWAP11 PUSH1 0x1 PUSH1 0x1 PUSH1 0xA0 SHL SUB SWAP1 SWAP9 AND SWAP10 SWAP7 SWAP9 SWAP6 SWAP8 SWAP5 SWAP7 SWAP4 SWAP6 SWAP3 SWAP4 SWAP2 SWAP3 SWAP1 SWAP2 SWAP1 PUSH1 0xFF AND DUP13 JUMP JUMPDEST PUSH1 0x40 DUP1 MLOAD SWAP13 DUP14 MSTORE PUSH1 0x1 PUSH1 0x1 PUSH1 0xA0 SHL SUB SWAP1 SWAP12 AND PUSH1 0x20 DUP14 ADD MSTORE SWAP10 DUP12 ADD SWAP9 SWAP1 SWAP9 MSTORE PUSH1 0x60 DUP11 ADD SWAP7 SWAP1 SWAP7 MSTORE PUSH1 0x80 DUP10 ADD SWAP5 SWAP1 SWAP5 MSTORE PUSH1 0xA0 DUP9 ADD SWAP3 SWAP1 SWAP3 MSTORE PUSH1 0xC0 DUP8 ADD MSTORE PUSH1 0xE0 DUP7 ADD MSTORE PUSH2 0x100 DUP6 ADD MSTORE PUSH2 0x120 DUP5 ADD MSTORE PUSH2 0x140 DUP4 ADD MSTORE ISZERO ISZERO PUSH2 0x160 DUP3 ADD MSTORE PUSH2 0x180 ADD PUSH2 0x1AD JUMP JUMPDEST CALLVALUE DUP1 ISZERO PUSH2 0x4A1 JUMPI PUSH0 PUSH0 REVERT JUMPDEST POP PUSH2 0x4B5 PUSH2 0x4B0 CALLDATASIZE PUSH1 0x4 PUSH2 0x1978 JUMP JUMPDEST PUSH2 0x1172 JUMP JUMPDEST PUSH1 0x40 MLOAD PUSH2 0x1AD SWAP6 SWAP5 SWAP4 SWAP3 SWAP2 SWAP1 PUSH2 0x1C47 JUMP JUMPDEST CALLVALUE DUP1 ISZERO PUSH2 0x4D1 JUMPI PUSH0 PUSH0 REVERT JUMPDEST POP PUSH2 0x1CB PUSH2 0x4E0 CALLDATASIZE PUSH1 0x4 PUSH2 0x1978 JUMP JUMPDEST PUSH1 0xB PUSH1 0x20 MSTORE PUSH0 SWAP1 DUP2 MSTORE PUSH1 0x40 SWAP1 KECCAK256 SLOAD DUP2 JUMP JUMPDEST CALLVALUE DUP1 ISZERO PUSH2 0x4FC JUMPI PUSH0 PUSH0 REVERT JUMPDEST POP PUSH1 0x4 SLOAD PUSH2 0x199 SWAP1 PUSH1 0x1 PUSH1 0x1 PUSH1 0xA0 SHL SUB AND DUP2 JUMP JUMPDEST CALLVALUE DUP1 ISZERO PUSH2 0x51B JUMPI PUSH0 PUSH0 REVERT JUMPDEST POP PUSH2 0x1ED PUSH2 0x52A CALLDATASIZE PUSH1 0x4 PUSH2 0x1C98 JUMP JUMPDEST PUSH2 0x1239 JUMP JUMPDEST CALLVALUE DUP1 ISZERO PUSH2 0x53A JUMPI PUSH0 PUSH0 REVERT JUMPDEST POP PUSH2 0x1ED PUSH2 0x549 CALLDATASIZE PUSH1 0x4 PUSH2 0x19DA JUMP JUMPDEST PUSH2 0x1383 JUMP JUMPDEST CALLVALUE DUP1 ISZERO PUSH2 0x559 JUMPI PUSH0 PUSH0 REVERT JUMPDEST POP PUSH2 0x1ED PUSH2 0x568 CALLDATASIZE PUSH1 0x4 PUSH2 0x1978 JUMP JUMPDEST PUSH2 0x13FC JUMP JUMPDEST CALLVALUE DUP1 ISZERO PUSH2 0x578 JUMPI PUSH0 PUSH0 REVERT JUMPDEST POP PUSH1 0x2 SLOAD PUSH2 0x199 SWAP1 PUSH1 0x1 PUSH1 0x1 PUSH1 0xA0 SHL SUB AND DUP2 JUMP JUMPDEST PUSH1 0x3 SLOAD PUSH1 0x1 PUSH1 0x1 PUSH1 0xA0 SHL SUB AND CALLER PUSH1 0x1 PUSH1 0x1 PUSH1 0xA0 SHL SUB AND EQ PUSH2 0x5C8 JUMPI PUSH1 0x40 MLOAD PUSH3 0x461BCD PUSH1 0xE5 SHL DUP2 MSTORE PUSH1 0x4 ADD PUSH2 0x5BF SWAP1 PUSH2 0x1CE1 JUMP JUMPDEST PUSH1 0x40 MLOAD DUP1 SWAP2 SUB SWAP1 REVERT JUMPDEST PUSH2 0x5D0 PUSH2 0x148A JUMP JUMPDEST JUMP JUMPDEST PUSH0 SLOAD PUSH1 0x1 PUSH1 0xB0 SHL SWAP1 DIV PUSH1 0xFF AND DUP1 PUSH2 0x5F2 JUMPI POP PUSH0 SLOAD PUSH1 0x1 PUSH1 0xA8 SHL SWAP1 DIV PUSH1 0xFF AND ISZERO JUMPDEST PUSH2 0x655 JUMPI PUSH1 0x40 MLOAD PUSH3 0x461BCD PUSH1 0xE5 SHL DUP2 MSTORE PUSH1 0x20 PUSH1 0x4 DUP3 ADD MSTORE PUSH1 0x2E PUSH1 0x24 DUP3 ADD MSTORE PUSH32 0x496E697469616C697A61626C653A20636F6E747261637420697320616C726561 PUSH1 0x44 DUP3 ADD MSTORE PUSH14 0x191E481A5B9A5D1A585B1A5E9959 PUSH1 0x92 SHL PUSH1 0x64 DUP3 ADD MSTORE PUSH1 0x84 ADD PUSH2 0x5BF JUMP JUMPDEST PUSH0 SLOAD PUSH1 0x1 PUSH1 0xB0 SHL SWAP1 DIV PUSH1 0xFF AND ISZERO DUP1 ISZERO PUSH2 0x67D JUMPI PUSH0 DUP1 SLOAD PUSH2 0xFFFF PUSH1 0xA8 SHL NOT AND PUSH2 0x101 PUSH1 0xA8 SHL OR SWAP1 SSTORE JUMPDEST PUSH1 0x4 DUP1 SLOAD PUSH1 0x1 PUSH1 0x1 PUSH1 0xA0 SHL SUB NOT AND PUSH1 0x1 PUSH1 0x1 PUSH1 0xA0 SHL SUB DUP6 AND OR SWAP1 SSTORE PUSH2 0x6A1 DUP3 PUSH2 0x13F0 JUMP JUMPDEST PUSH1 0x40 DUP1 MLOAD PUSH1 0xA0 DUP2 ADD DUP3 MSTORE PUSH1 0x1 DUP1 DUP3 MSTORE PUSH9 0x2B5E3AF16B1880000 PUSH1 0x20 DUP1 DUP5 ADD SWAP2 DUP3 MSTORE PUSH1 0x21 DUP5 DUP7 ADD SWAP1 DUP2 MSTORE PUSH1 0x5A PUSH1 0x60 DUP7 ADD SWAP1 DUP2 MSTORE DUP7 MLOAD DUP1 DUP9 ADD SWAP1 SWAP8 MSTORE PUSH1 0xF DUP8 MSTORE PUSH15 0x50726563696F7573204D6574616C73 PUSH1 0x88 SHL SWAP3 DUP8 ADD SWAP3 SWAP1 SWAP3 MSTORE PUSH1 0x80 DUP6 ADD SWAP6 DUP7 MSTORE PUSH1 0xA DUP1 SLOAD SWAP5 DUP6 ADD DUP2 SSTORE PUSH0 MSTORE DUP5 MLOAD PUSH1 0x5 SWAP1 SWAP5 MUL PUSH0 MLOAD PUSH1 0x20 PUSH2 0x1F1C PUSH0 CODECOPY PUSH0 MLOAD SWAP1 PUSH0 MSTORE DUP2 ADD SWAP5 DUP6 SSTORE SWAP3 MLOAD PUSH0 MLOAD PUSH1 0x20 PUSH2 0x1EFC PUSH0 CODECOPY PUSH0 MLOAD SWAP1 PUSH0 MSTORE DUP5 ADD SSTORE MLOAD PUSH0 MLOAD PUSH1 0x20 PUSH2 0x1F5C PUSH0 CODECOPY PUSH0 MLOAD SWAP1 PUSH0 MSTORE DUP4 ADD SSTORE MLOAD PUSH0 MLOAD PUSH1 0x20 PUSH2 0x1F3C PUSH0 CODECOPY PUSH0 MLOAD SWAP1 PUSH0 MSTORE DUP3 ADD SSTORE SWAP3 MLOAD SWAP2 SWAP3 SWAP1 SWAP2 PUSH0 MLOAD PUSH1 0x20 PUSH2 0x1F7C PUSH0 CODECOPY PUSH0 MLOAD SWAP1 PUSH0 MSTORE SWAP1 SWAP2 ADD SWAP1 PUSH2 0x77E SWAP1 DUP3 PUSH2 0x1D9E JUMP JUMPDEST POP POP PUSH1 0x40 DUP1 MLOAD PUSH1 0xA0 DUP2 ADD DUP3 MSTORE PUSH1 0x2 DUP2 MSTORE PUSH9 0x1B1AE4D6E2EF500000 PUSH1 0x20 DUP1 DUP4 ADD SWAP2 DUP3 MSTORE PUSH1 0x32 DUP4 DUP6 ADD SWAP1 DUP2 MSTORE PUSH1 0xB4 PUSH1 0x60 DUP6 ADD SWAP1 DUP2 MSTORE DUP6 MLOAD DUP1 DUP8 ADD SWAP1 SWAP7 MSTORE PUSH1 0xB DUP7 MSTORE PUSH11 0x5265616C20457374617465 PUSH1 0xA8 SHL SWAP3 DUP7 ADD SWAP3 SWAP1 SWAP3 MSTORE PUSH1 0x80 DUP5 ADD SWAP5 DUP6 MSTORE PUSH1 0xA DUP1 SLOAD PUSH1 0x1 DUP2 ADD DUP3 SSTORE PUSH0 SWAP2 SWAP1 SWAP2 MSTORE DUP5 MLOAD PUSH1 0x5 SWAP1 SWAP2 MUL PUSH0 MLOAD PUSH1 0x20 PUSH2 0x1F1C PUSH0 CODECOPY PUSH0 MLOAD SWAP1 PUSH0 MSTORE DUP2 ADD SWAP2 DUP3 SSTORE SWAP4 MLOAD PUSH0 MLOAD PUSH1 0x20 PUSH2 0x1EFC PUSH0 CODECOPY PUSH0 MLOAD SWAP1 PUSH0 MSTORE DUP6 ADD SSTORE SWAP1 MLOAD PUSH0 MLOAD PUSH1 0x20 PUSH2 0x1F5C PUSH0 CODECOPY PUSH0 MLOAD SWAP1 PUSH0 MSTORE DUP5 ADD SSTORE SWAP1 MLOAD PUSH0 MLOAD PUSH1 0x20 PUSH2 0x1F3C PUSH0 CODECOPY PUSH0 MLOAD SWAP1 PUSH0 MSTORE DUP4 ADD SSTORE SWAP3 MLOAD SWAP2 SWAP4 POP PUSH0 MLOAD PUSH1 0x20 PUSH2 0x1F7C PUSH0 CODECOPY PUSH0 MLOAD SWAP1 PUSH0 MSTORE ADD SWAP1 PUSH2 0x85B SWAP1 DUP3 PUSH2 0x1D9E JUMP JUMPDEST POP POP PUSH1 0x40 DUP1 MLOAD PUSH1 0xA0 DUP2 ADD DUP3 MSTORE PUSH1 0x3 DUP2 MSTORE PUSH9 0x878678326EAC900000 PUSH1 0x20 DUP1 DUP4 ADD SWAP2 DUP3 MSTORE PUSH1 0x43 DUP4 DUP6 ADD SWAP1 DUP2 MSTORE PUSH2 0x168 PUSH1 0x60 DUP6 ADD SWAP1 DUP2 MSTORE DUP6 MLOAD DUP1 DUP8 ADD SWAP1 SWAP7 MSTORE PUSH1 0x9 DUP7 MSTORE PUSH9 0x55532053746F636B73 PUSH1 0xB8 SHL SWAP3 DUP7 ADD SWAP3 SWAP1 SWAP3 MSTORE PUSH1 0x80 DUP5 ADD SWAP5 DUP6 MSTORE PUSH1 0xA DUP1 SLOAD PUSH1 0x1 DUP2 ADD DUP3 SSTORE PUSH0 SWAP2 SWAP1 SWAP2 MSTORE DUP5 MLOAD PUSH1 0x5 SWAP1 SWAP2 MUL PUSH0 MLOAD PUSH1 0x20 PUSH2 0x1F1C PUSH0 CODECOPY PUSH0 MLOAD SWAP1 PUSH0 MSTORE DUP2 ADD SWAP2 DUP3 SSTORE SWAP4 MLOAD PUSH0 MLOAD PUSH1 0x20 PUSH2 0x1EFC PUSH0 CODECOPY PUSH0 MLOAD SWAP1 PUSH0 MSTORE DUP6 ADD SSTORE SWAP1 MLOAD PUSH0 MLOAD PUSH1 0x20 PUSH2 0x1F5C PUSH0 CODECOPY PUSH0 MLOAD SWAP1 PUSH0 MSTORE DUP5 ADD SSTORE SWAP1 MLOAD PUSH0 MLOAD PUSH1 0x20 PUSH2 0x1F3C PUSH0 CODECOPY PUSH0 MLOAD SWAP1 PUSH0 MSTORE DUP4 ADD SSTORE SWAP3 MLOAD SWAP2 SWAP4 POP PUSH0 MLOAD PUSH1 0x20 PUSH2 0x1F7C PUSH0 CODECOPY PUSH0 MLOAD SWAP1 PUSH0 MSTORE ADD SWAP1 PUSH2 0x937 SWAP1 DUP3 PUSH2 0x1D9E JUMP JUMPDEST POP POP PUSH1 0x40 DUP1 MLOAD PUSH1 0xA0 DUP2 ADD DUP3 MSTORE PUSH1 0x4 DUP2 MSTORE PUSH10 0x10F0CF064DD59200000 PUSH1 0x20 DUP1 DUP4 ADD SWAP2 DUP3 MSTORE PUSH1 0x50 DUP4 DUP6 ADD SWAP1 DUP2 MSTORE PUSH2 0x2D0 PUSH1 0x60 DUP6 ADD SWAP1 DUP2 MSTORE DUP6 MLOAD DUP1 DUP8 ADD SWAP1 SWAP7 MSTORE PUSH1 0xC DUP7 MSTORE PUSH12 0x119BDC995E0813585C9AD95D PUSH1 0xA2 SHL SWAP3 DUP7 ADD SWAP3 SWAP1 SWAP3 MSTORE PUSH1 0x80 DUP5 ADD SWAP5 DUP6 MSTORE PUSH1 0xA DUP1 SLOAD PUSH1 0x1 DUP2 ADD DUP3 SSTORE PUSH0 SWAP2 SWAP1 SWAP2 MSTORE DUP5 MLOAD PUSH1 0x5 SWAP1 SWAP2 MUL PUSH0 MLOAD PUSH1 0x20 PUSH2 0x1F1C PUSH0 CODECOPY PUSH0 MLOAD SWAP1 PUSH0 MSTORE DUP2 ADD SWAP2 DUP3 SSTORE SWAP4 MLOAD PUSH0 MLOAD PUSH1 0x20 PUSH2 0x1EFC PUSH0 CODECOPY PUSH0 MLOAD SWAP1 PUSH0 MSTORE DUP6 ADD SSTORE SWAP1 MLOAD PUSH0 MLOAD PUSH1 0x20 PUSH2 0x1F5C PUSH0 CODECOPY PUSH0 MLOAD SWAP1 PUSH0 MSTORE DUP5 ADD SSTORE SWAP1 MLOAD PUSH0 MLOAD PUSH1 0x20 PUSH2 0x1F3C PUSH0 CODECOPY PUSH0 MLOAD SWAP1 PUSH0 MSTORE DUP4 ADD SSTORE SWAP3 MLOAD SWAP2 SWAP4 POP PUSH0 MLOAD PUSH1 0x20 PUSH2 0x1F7C PUSH0 CODECOPY PUSH0 MLOAD SWAP1 PUSH0 MSTORE ADD SWAP1 PUSH2 0xA17 SWAP1 DUP3 PUSH2 0x1D9E JUMP JUMPDEST POP POP PUSH1 0x40 DUP1 MLOAD PUSH1 0xA0 DUP2 ADD DUP3 MSTORE PUSH1 0x5 DUP1 DUP3 MSTORE PUSH10 0x21E19E0C9BAB2400000 PUSH1 0x20 DUP1 DUP5 ADD SWAP2 DUP3 MSTORE PUSH1 0x64 DUP5 DUP7 ADD SWAP1 DUP2 MSTORE PUSH2 0x438 PUSH1 0x60 DUP7 ADD SWAP1 DUP2 MSTORE DUP7 MLOAD DUP1 DUP9 ADD SWAP1 SWAP8 MSTORE PUSH1 0xE DUP8 MSTORE PUSH14 0x4469676974616C20417373657473 PUSH1 0x90 SHL SWAP3 DUP8 ADD SWAP3 SWAP1 SWAP3 MSTORE PUSH1 0x80 DUP6 ADD SWAP6 DUP7 MSTORE PUSH1 0xA DUP1 SLOAD PUSH1 0x1 DUP2 ADD DUP3 SSTORE PUSH0 SWAP2 SWAP1 SWAP2 MSTORE DUP6 MLOAD SWAP5 MUL PUSH0 MLOAD PUSH1 0x20 PUSH2 0x1F1C PUSH0 CODECOPY PUSH0 MLOAD SWAP1 PUSH0 MSTORE DUP2 ADD SWAP5 DUP6 SSTORE SWAP3 MLOAD PUSH0 MLOAD PUSH1 0x20 PUSH2 0x1EFC PUSH0 CODECOPY PUSH0 MLOAD SWAP1 PUSH0 MSTORE DUP5 ADD SSTORE MLOAD PUSH0 MLOAD PUSH1 0x20 PUSH2 0x1F5C PUSH0 CODECOPY PUSH0 MLOAD SWAP1 PUSH0 MSTORE DUP4 ADD SSTORE MLOAD PUSH0 MLOAD PUSH1 0x20 PUSH2 0x1F3C PUSH0 CODECOPY PUSH0 MLOAD SWAP1 PUSH0 MSTORE DUP3 ADD SSTORE SWAP3 MLOAD SWAP2 SWAP4 POP SWAP2 PUSH0 MLOAD PUSH1 0x20 PUSH2 0x1F7C PUSH0 CODECOPY PUSH0 MLOAD SWAP1 PUSH0 MSTORE ADD SWAP1 PUSH2 0xAF6 SWAP1 DUP3 PUSH2 0x1D9E JUMP JUMPDEST POP PUSH0 SWAP2 POP POP JUMPDEST PUSH1 0xA SLOAD DUP2 LT ISZERO PUSH2 0xB67 JUMPI PUSH1 0xA DUP2 DUP2 SLOAD DUP2 LT PUSH2 0xB19 JUMPI PUSH2 0xB19 PUSH2 0x1E59 JUMP JUMPDEST SWAP1 PUSH0 MSTORE PUSH1 0x20 PUSH0 KECCAK256 SWAP1 PUSH1 0x5 MUL ADD PUSH1 0x1 ADD SLOAD PUSH1 0xB PUSH0 PUSH1 0xA DUP5 DUP2 SLOAD DUP2 LT PUSH2 0xB3F JUMPI PUSH2 0xB3F PUSH2 0x1E59 JUMP JUMPDEST PUSH0 SWAP2 DUP3 MSTORE PUSH1 0x20 DUP1 DUP4 KECCAK256 PUSH1 0x5 SWAP1 SWAP3 MUL SWAP1 SWAP2 ADD SLOAD DUP4 MSTORE DUP3 ADD SWAP3 SWAP1 SWAP3 MSTORE PUSH1 0x40 ADD SWAP1 KECCAK256 SSTORE PUSH1 0x1 ADD PUSH2 0xAFC JUMP JUMPDEST POP PUSH1 0x1 PUSH1 0x6 DUP2 DUP2 SSTORE PUSH1 0x1 PUSH1 0x1 PUSH1 0xA0 SHL SUB DUP5 AND PUSH0 DUP2 DUP2 MSTORE PUSH1 0x7 PUSH1 0x20 SWAP1 DUP2 MSTORE PUSH1 0x40 DUP3 KECCAK256 DUP6 SWAP1 SSTORE DUP5 DUP3 MSTORE PUSH1 0x8 SWAP1 MSTORE PUSH32 0xAD67D757C34507F157CACFA2E3153E9F260A2244F30428821BE7BE64587AC55F DUP1 SLOAD PUSH1 0x1 PUSH1 0x1 PUSH1 0xA0 SHL SUB NOT AND SWAP1 SWAP3 OR SWAP1 SWAP2 SSTORE PUSH2 0xBCE DUP4 PUSH2 0x1E81 JUMP JUMPDEST SWAP1 SWAP2 SSTORE POP POP PUSH1 0x40 DUP1 MLOAD PUSH1 0x1 DUP2 MSTORE PUSH0 PUSH1 0x20 DUP3 ADD DUP2 SWAP1 MSTORE SWAP2 PUSH1 0x1 PUSH1 0x1 PUSH1 0xA0 SHL SUB DUP6 AND SWAP2 PUSH32 0x309BB360E8B69C23937CCC5FB01F9AEEEAD1C95A99604E175113FF82F2B1723A SWAP2 ADD PUSH1 0x40 MLOAD DUP1 SWAP2 SUB SWAP1 LOG3 DUP1 ISZERO PUSH2 0xC2D JUMPI PUSH0 DUP1 SLOAD PUSH1 0xFF PUSH1 0xB0 SHL NOT AND SWAP1 SSTORE JUMPDEST POP POP POP JUMP JUMPDEST PUSH1 0x1 PUSH1 0x1 PUSH1 0xA0 SHL SUB DUP4 AND PUSH0 SWAP1 DUP2 MSTORE PUSH1 0x9 PUSH1 0x20 SWAP1 DUP2 MSTORE PUSH1 0x40 SWAP2 DUP3 SWAP1 KECCAK256 SLOAD DUP3 MLOAD PUSH12 0xFFFFFFFFFFFFFFFFFFFFFFFF NOT PUSH1 0x60 SWAP8 DUP9 SHL DUP2 AND DUP3 DUP6 ADD MSTORE PUSH1 0x34 DUP3 ADD SWAP7 SWAP1 SWAP7 MSTORE PUSH1 0x54 DUP2 ADD SWAP2 SWAP1 SWAP2 MSTORE PUSH1 0x74 DUP2 ADD SWAP4 SWAP1 SWAP4 MSTORE CHAINID PUSH1 0x94 DUP5 ADD MSTORE ADDRESS SWAP1 SWAP5 SHL SWAP1 SWAP3 AND PUSH1 0xB4 DUP3 ADD MSTORE DUP2 MLOAD DUP1 DUP3 SUB PUSH1 0xA8 ADD DUP2 MSTORE PUSH1 0xC8 SWAP1 SWAP2 ADD SWAP1 SWAP2 MSTORE DUP1 MLOAD SWAP2 ADD KECCAK256 SWAP1 JUMP JUMPDEST PUSH2 0xCB5 PUSH2 0x14DE JUMP JUMPDEST PUSH2 0x5D0 PUSH0 PUSH2 0x1537 JUMP JUMPDEST PUSH2 0xCC6 PUSH2 0x14DE JUMP JUMPDEST PUSH1 0x5 DUP1 SLOAD PUSH1 0x1 PUSH1 0x1 PUSH1 0xA0 SHL SUB NOT AND PUSH1 0x1 PUSH1 0x1 PUSH1 0xA0 SHL SUB SWAP3 SWAP1 SWAP3 AND SWAP2 SWAP1 SWAP2 OR SWAP1 SSTORE JUMP JUMPDEST PUSH2 0xCF1 CALLER PUSH2 0x228 JUMP JUMPDEST PUSH2 0xCFF JUMPI PUSH2 0xCFF CALLER DUP3 PUSH2 0x1586 JUMP JUMPDEST PUSH2 0xD08 CALLER PUSH2 0x228 JUMP JUMPDEST PUSH2 0xD54 JUMPI PUSH1 0x40 MLOAD PUSH3 0x461BCD PUSH1 0xE5 SHL DUP2 MSTORE PUSH1 0x20 PUSH1 0x4 DUP3 ADD MSTORE PUSH1 0x18 PUSH1 0x24 DUP3 ADD MSTORE PUSH32 0x4473636C61623A2055736572206E6F7420457869737473210000000000000000 PUSH1 0x44 DUP3 ADD MSTORE PUSH1 0x64 ADD PUSH2 0x5BF JUMP JUMPDEST DUP2 PUSH1 0x1 EQ DUP1 ISZERO PUSH2 0xD86 JUMPI POP PUSH1 0xA DUP3 DUP2 SLOAD DUP2 LT PUSH2 0xD72 JUMPI PUSH2 0xD72 PUSH2 0x1E59 JUMP JUMPDEST SWAP1 PUSH0 MSTORE PUSH1 0x20 PUSH0 KECCAK256 SWAP1 PUSH1 0x5 MUL ADD PUSH1 0x1 ADD SLOAD DUP4 LT ISZERO JUMPDEST PUSH2 0xDE2 JUMPI PUSH1 0x40 MLOAD PUSH3 0x461BCD PUSH1 0xE5 SHL DUP2 MSTORE PUSH1 0x20 PUSH1 0x4 DUP3 ADD MSTORE PUSH1 0x27 PUSH1 0x24 DUP3 ADD MSTORE PUSH32 0x496E76616C696420496E766573746D656E7420416D6F756E7420666F72207468 PUSH1 0x44 DUP3 ADD MSTORE PUSH7 0x34B990283630B7 PUSH1 0xC9 SHL PUSH1 0x64 DUP3 ADD MSTORE PUSH1 0x84 ADD PUSH2 0x5BF JUMP JUMPDEST CALLER PUSH0 DUP2 DUP2 MSTORE PUSH1 0x7 PUSH1 0x20 SWAP1 DUP2 MSTORE PUSH1 0x40 SWAP2 DUP3 SWAP1 KECCAK256 PUSH1 0x6 DUP2 ADD SLOAD PUSH1 0x1 SWAP1 SWAP2 ADD SLOAD DUP4 MLOAD DUP9 DUP2 MSTORE SWAP3 DUP4 ADD DUP8 SWAP1 MSTORE DUP4 MLOAD SWAP2 SWAP5 PUSH1 0x1 PUSH1 0x1 PUSH1 0xA0 SHL SUB SWAP1 SWAP2 AND SWAP4 SWAP1 SWAP3 PUSH32 0x5AF417134F72A9D41143ACE85B0A26DCE6F550F894F2CBC1EEEE8810603D91B6 SWAP3 SWAP1 DUP2 SWAP1 SUB SWAP1 SWAP2 ADD SWAP1 LOG2 CALLER PUSH0 SWAP1 DUP2 MSTORE PUSH1 0x7 PUSH1 0x20 MSTORE PUSH1 0x40 DUP2 KECCAK256 PUSH1 0x6 DUP2 ADD DUP8 SWAP1 SSTORE PUSH1 0x3 ADD DUP1 SLOAD DUP8 SWAP3 SWAP1 PUSH2 0xE6F SWAP1 DUP5 SWAP1 PUSH2 0x1E99 JUMP JUMPDEST SWAP1 SWAP2 SSTORE POP POP CALLER PUSH0 SWAP1 DUP2 MSTORE PUSH1 0x7 PUSH1 0x20 MSTORE PUSH1 0x40 DUP2 KECCAK256 PUSH1 0x3 ADD SLOAD SWAP1 DUP2 SWAP1 SUB PUSH2 0xEBA JUMPI PUSH1 0x1 PUSH1 0x1 PUSH1 0xA0 SHL SUB DUP3 AND PUSH0 SWAP1 DUP2 MSTORE PUSH1 0x7 PUSH1 0x20 MSTORE PUSH1 0x40 DUP2 KECCAK256 PUSH1 0x2 ADD DUP1 SLOAD SWAP2 PUSH2 0xEB4 DUP4 PUSH2 0x1E81 JUMP JUMPDEST SWAP2 SWAP1 POP SSTORE POP JUMPDEST POP POP POP POP POP POP JUMP JUMPDEST PUSH0 SLOAD PUSH1 0x1 PUSH1 0x1 PUSH1 0xA0 SHL SUB AND CALLER EQ PUSH2 0xF07 JUMPI PUSH1 0x40 MLOAD PUSH3 0x461BCD PUSH1 0xE5 SHL DUP2 MSTORE PUSH1 0x20 PUSH1 0x4 DUP3 ADD MSTORE PUSH1 0x9 PUSH1 0x24 DUP3 ADD MSTORE PUSH9 0x37B7363CA7BBB732B9 PUSH1 0xB9 SHL PUSH1 0x44 DUP3 ADD MSTORE PUSH1 0x64 ADD PUSH2 0x5BF JUMP JUMPDEST DUP1 PUSH1 0x1 PUSH1 0x1 PUSH1 0xA0 SHL SUB AND PUSH4 0xA9059CBB PUSH2 0xF27 PUSH0 SLOAD PUSH1 0x1 PUSH1 0x1 PUSH1 0xA0 SHL SUB AND SWAP1 JUMP JUMPDEST PUSH2 0xF39 DUP6 PUSH8 0xDE0B6B3A7640000 PUSH2 0x1EB2 JUMP JUMPDEST PUSH1 0x40 MLOAD PUSH1 0x1 PUSH1 0x1 PUSH1 0xE0 SHL SUB NOT PUSH1 0xE0 DUP6 SWAP1 SHL AND DUP2 MSTORE PUSH1 0x1 PUSH1 0x1 PUSH1 0xA0 SHL SUB SWAP1 SWAP3 AND PUSH1 0x4 DUP4 ADD MSTORE PUSH1 0x24 DUP3 ADD MSTORE PUSH1 0x44 ADD PUSH1 0x20 PUSH1 0x40 MLOAD DUP1 DUP4 SUB DUP2 PUSH0 DUP8 GAS CALL ISZERO DUP1 ISZERO PUSH2 0xF81 JUMPI RETURNDATASIZE PUSH0 PUSH0 RETURNDATACOPY RETURNDATASIZE PUSH0 REVERT JUMPDEST POP POP POP POP PUSH1 0x40 MLOAD RETURNDATASIZE PUSH1 0x1F NOT PUSH1 0x1F DUP3 ADD AND DUP3 ADD DUP1 PUSH1 0x40 MSTORE POP DUP2 ADD SWAP1 PUSH2 0xC2D SWAP2 SWAP1 PUSH2 0x1EC9 JUMP JUMPDEST DUP2 PUSH0 JUMPDEST DUP6 MLOAD DUP2 LT ISZERO PUSH2 0xEBA JUMPI DUP5 DUP2 DUP2 MLOAD DUP2 LT PUSH2 0xFC3 JUMPI PUSH2 0xFC3 PUSH2 0x1E59 JUMP JUMPDEST PUSH1 0x20 MUL PUSH1 0x20 ADD ADD MLOAD DUP3 LT ISZERO PUSH2 0xFD6 JUMPI PUSH0 PUSH0 REVERT JUMPDEST DUP5 DUP2 DUP2 MLOAD DUP2 LT PUSH2 0xFE8 JUMPI PUSH2 0xFE8 PUSH2 0x1E59 JUMP JUMPDEST PUSH1 0x20 MUL PUSH1 0x20 ADD ADD MLOAD DUP3 PUSH2 0xFFB SWAP2 SWAP1 PUSH2 0x1EE8 JUMP JUMPDEST SWAP2 POP DUP3 PUSH1 0x1 PUSH1 0x1 PUSH1 0xA0 SHL SUB AND PUSH4 0x23B872DD CALLER DUP9 DUP5 DUP2 MLOAD DUP2 LT PUSH2 0x101F JUMPI PUSH2 0x101F PUSH2 0x1E59 JUMP JUMPDEST PUSH1 0x20 MUL PUSH1 0x20 ADD ADD MLOAD DUP9 DUP6 DUP2 MLOAD DUP2 LT PUSH2 0x1039 JUMPI PUSH2 0x1039 PUSH2 0x1E59 JUMP JUMPDEST PUSH1 0x20 SWAP1 DUP2 MUL SWAP2 SWAP1 SWAP2 ADD ADD MLOAD PUSH1 0x40 MLOAD PUSH1 0x1 PUSH1 0x1 PUSH1 0xE0 SHL SUB NOT PUSH1 0xE0 DUP7 SWAP1 SHL AND DUP2 MSTORE PUSH1 0x1 PUSH1 0x1 PUSH1 0xA0 SHL SUB SWAP4 DUP5 AND PUSH1 0x4 DUP3 ADD MSTORE SWAP3 SWAP1 SWAP2 AND PUSH1 0x24 DUP4 ADD MSTORE PUSH1 0x44 DUP3 ADD MSTORE PUSH1 0x64 ADD PUSH1 0x20 PUSH1 0x40 MLOAD DUP1 DUP4 SUB DUP2 PUSH0 DUP8 GAS CALL ISZERO DUP1 ISZERO PUSH2 0x1095 JUMPI RETURNDATASIZE PUSH0 PUSH0 RETURNDATACOPY RETURNDATASIZE PUSH0 REVERT JUMPDEST POP POP POP POP PUSH1 0x40 MLOAD RETURNDATASIZE PUSH1 0x1F NOT PUSH1 0x1F DUP3 ADD AND DUP3 ADD DUP1 PUSH1 0x40 MSTORE POP DUP2 ADD SWAP1 PUSH2 0x10B9 SWAP2 SWAP1 PUSH2 0x1EC9 JUMP JUMPDEST POP DUP6 DUP2 DUP2 MLOAD DUP2 LT PUSH2 0x10CC JUMPI PUSH2 0x10CC PUSH2 0x1E59 JUMP JUMPDEST PUSH1 0x20 MUL PUSH1 0x20 ADD ADD MLOAD PUSH1 0x1 PUSH1 0x1 PUSH1 0xA0 SHL SUB AND PUSH32 0xBD54BF7A35B4F30A5C2E53DF02C464DC7C2A159A96B24DBB41CD9808BD6E2E36 DUP7 DUP4 DUP2 MLOAD DUP2 LT PUSH2 0x1110 JUMPI PUSH2 0x1110 PUSH2 0x1E59 JUMP JUMPDEST PUSH1 0x20 MUL PUSH1 0x20 ADD ADD MLOAD PUSH1 0x40 MLOAD PUSH2 0x1127 SWAP2 DUP2 MSTORE PUSH1 0x20 ADD SWAP1 JUMP JUMPDEST PUSH1 0x40 MLOAD DUP1 SWAP2 SUB SWAP1 LOG2 PUSH1 0x1 ADD PUSH2 0xFA8 JUMP JUMPDEST PUSH1 0x3 SLOAD PUSH1 0x1 PUSH1 0x1 PUSH1 0xA0 SHL SUB AND CALLER PUSH1 0x1 PUSH1 0x1 PUSH1 0xA0 SHL SUB AND EQ PUSH2 0x116A JUMPI PUSH1 0x40 MLOAD PUSH3 0x461BCD PUSH1 0xE5 SHL DUP2 MSTORE PUSH1 0x4 ADD PUSH2 0x5BF SWAP1 PUSH2 0x1CE1 JUMP JUMPDEST PUSH2 0x5D0 PUSH2 0x1738 JUMP JUMPDEST PUSH1 0xA DUP2 DUP2 SLOAD DUP2 LT PUSH2 0x1181 JUMPI PUSH0 DUP1 REVERT JUMPDEST SWAP1 PUSH0 MSTORE PUSH1 0x20 PUSH0 KECCAK256 SWAP1 PUSH1 0x5 MUL ADD PUSH0 SWAP2 POP SWAP1 POP DUP1 PUSH0 ADD SLOAD SWAP1 DUP1 PUSH1 0x1 ADD SLOAD SWAP1 DUP1 PUSH1 0x2 ADD SLOAD SWAP1 DUP1 PUSH1 0x3 ADD SLOAD SWAP1 DUP1 PUSH1 0x4 ADD DUP1 SLOAD PUSH2 0x11B8 SWAP1 PUSH2 0x1D22 JUMP JUMPDEST DUP1 PUSH1 0x1F ADD PUSH1 0x20 DUP1 SWAP2 DIV MUL PUSH1 0x20 ADD PUSH1 0x40 MLOAD SWAP1 DUP2 ADD PUSH1 0x40 MSTORE DUP1 SWAP3 SWAP2 SWAP1 DUP2 DUP2 MSTORE PUSH1 0x20 ADD DUP3 DUP1 SLOAD PUSH2 0x11E4 SWAP1 PUSH2 0x1D22 JUMP JUMPDEST DUP1 ISZERO PUSH2 0x122F JUMPI DUP1 PUSH1 0x1F LT PUSH2 0x1206 JUMPI PUSH2 0x100 DUP1 DUP4 SLOAD DIV MUL DUP4 MSTORE SWAP2 PUSH1 0x20 ADD SWAP2 PUSH2 0x122F JUMP JUMPDEST DUP3 ADD SWAP2 SWAP1 PUSH0 MSTORE PUSH1 0x20 PUSH0 KECCAK256 SWAP1 JUMPDEST DUP2 SLOAD DUP2 MSTORE SWAP1 PUSH1 0x1 ADD SWAP1 PUSH1 0x20 ADD DUP1 DUP4 GT PUSH2 0x1212 JUMPI DUP3 SWAP1 SUB PUSH1 0x1F AND DUP3 ADD SWAP2 JUMPDEST POP POP POP POP POP SWAP1 POP DUP6 JUMP JUMPDEST PUSH2 0x1241 PUSH2 0x177A JUMP JUMPDEST PUSH2 0x124A CALLER PUSH2 0x228 JUMP JUMPDEST PUSH2 0x1288 JUMPI PUSH1 0x40 MLOAD PUSH3 0x461BCD PUSH1 0xE5 SHL DUP2 MSTORE PUSH1 0x20 PUSH1 0x4 DUP3 ADD MSTORE PUSH1 0xF PUSH1 0x24 DUP3 ADD MSTORE PUSH15 0x75736572206E6F7420657869737473 PUSH1 0x88 SHL PUSH1 0x44 DUP3 ADD MSTORE PUSH1 0x64 ADD PUSH2 0x5BF JUMP JUMPDEST PUSH2 0x129F PUSH2 0x1296 CALLER DUP8 DUP5 PUSH2 0xC32 JUMP JUMPDEST DUP6 DUP6 DUP6 DUP6 PUSH2 0x17D3 JUMP JUMPDEST PUSH2 0x12DF JUMPI PUSH1 0x40 MLOAD PUSH3 0x461BCD PUSH1 0xE5 SHL DUP2 MSTORE PUSH1 0x20 PUSH1 0x4 DUP3 ADD MSTORE PUSH1 0x11 PUSH1 0x24 DUP3 ADD MSTORE PUSH17 0x696E76616C6964207369676E6174757265 PUSH1 0x78 SHL PUSH1 0x44 DUP3 ADD MSTORE PUSH1 0x64 ADD PUSH2 0x5BF JUMP JUMPDEST PUSH1 0x40 MLOAD DUP6 SWAP1 CALLER SWAP1 DUP3 ISZERO PUSH2 0x8FC MUL SWAP1 DUP4 SWAP1 PUSH0 DUP2 DUP2 DUP2 DUP6 DUP9 DUP9 CALL SWAP4 POP POP POP POP ISZERO DUP1 ISZERO PUSH2 0x130B JUMPI RETURNDATASIZE PUSH0 PUSH0 RETURNDATACOPY RETURNDATASIZE PUSH0 REVERT JUMPDEST POP CALLER PUSH0 DUP2 DUP2 MSTORE PUSH1 0x9 PUSH1 0x20 SWAP1 DUP2 MSTORE PUSH1 0x40 SWAP2 DUP3 SWAP1 KECCAK256 SLOAD DUP3 MLOAD DUP11 DUP2 MSTORE SWAP2 DUP3 ADD MSTORE PUSH32 0xF279E6A1F5E320CCA91135676D9CB6E44CA8A08C0B88342BCDB1144F6511B568 SWAP2 ADD PUSH1 0x40 MLOAD DUP1 SWAP2 SUB SWAP1 LOG2 CALLER PUSH0 SWAP1 DUP2 MSTORE PUSH1 0x9 PUSH1 0x20 MSTORE PUSH1 0x40 DUP2 KECCAK256 DUP1 SLOAD SWAP2 PUSH2 0x136D DUP4 PUSH2 0x1E81 JUMP JUMPDEST SWAP2 SWAP1 POP SSTORE POP POP PUSH2 0x137C PUSH1 0x1 DUP1 SSTORE JUMP JUMPDEST POP POP POP POP POP JUMP JUMPDEST PUSH2 0x138B PUSH2 0x14DE JUMP JUMPDEST PUSH1 0x1 PUSH1 0x1 PUSH1 0xA0 SHL SUB DUP2 AND PUSH2 0x13F0 JUMPI PUSH1 0x40 MLOAD PUSH3 0x461BCD PUSH1 0xE5 SHL DUP2 MSTORE PUSH1 0x20 PUSH1 0x4 DUP3 ADD MSTORE PUSH1 0x26 PUSH1 0x24 DUP3 ADD MSTORE PUSH32 0x4F776E61626C653A206E6577206F776E657220697320746865207A65726F2061 PUSH1 0x44 DUP3 ADD MSTORE PUSH6 0x646472657373 PUSH1 0xD0 SHL PUSH1 0x64 DUP3 ADD MSTORE PUSH1 0x84 ADD PUSH2 0x5BF JUMP JUMPDEST PUSH2 0x13F9 DUP2 PUSH2 0x1537 JUMP JUMPDEST POP JUMP JUMPDEST PUSH0 SLOAD PUSH1 0x1 PUSH1 0x1 PUSH1 0xA0 SHL SUB AND CALLER EQ PUSH2 0x1441 JUMPI PUSH1 0x40 MLOAD PUSH3 0x461BCD PUSH1 0xE5 SHL DUP2 MSTORE PUSH1 0x20 PUSH1 0x4 DUP3 ADD MSTORE PUSH1 0x9 PUSH1 0x24 DUP3 ADD MSTORE PUSH9 0x37B7363CA7BBB732B9 PUSH1 0xB9 SHL PUSH1 0x44 DUP3 ADD MSTORE PUSH1 0x64 ADD PUSH2 0x5BF JUMP JUMPDEST PUSH0 SLOAD PUSH1 0x1 PUSH1 0x1 PUSH1 0xA0 SHL SUB AND PUSH2 0x8FC PUSH2 0x1461 DUP4 PUSH8 0xDE0B6B3A7640000 PUSH2 0x1EB2 JUMP JUMPDEST PUSH1 0x40 MLOAD DUP2 ISZERO SWAP1 SWAP3 MUL SWAP2 PUSH0 DUP2 DUP2 DUP2 DUP6 DUP9 DUP9 CALL SWAP4 POP POP POP POP ISZERO DUP1 ISZERO PUSH2 0x1486 JUMPI RETURNDATASIZE PUSH0 PUSH0 RETURNDATACOPY RETURNDATASIZE PUSH0 REVERT JUMPDEST POP POP JUMP JUMPDEST PUSH2 0x1492 PUSH2 0x18DD JUMP JUMPDEST PUSH0 DUP1 SLOAD PUSH1 0xFF PUSH1 0xA0 SHL NOT AND SWAP1 SSTORE PUSH32 0x5DB9EE0A495BF2E6FF9C91A7834C1BA4FDD244A5E8AA4E537BD38AEAE4B073AA CALLER JUMPDEST PUSH1 0x40 MLOAD PUSH1 0x1 PUSH1 0x1 PUSH1 0xA0 SHL SUB SWAP1 SWAP2 AND DUP2 MSTORE PUSH1 0x20 ADD PUSH1 0x40 MLOAD DUP1 SWAP2 SUB SWAP1 LOG1 JUMP JUMPDEST PUSH0 SLOAD PUSH1 0x1 PUSH1 0x1 PUSH1 0xA0 SHL SUB AND CALLER EQ PUSH2 0x5D0 JUMPI PUSH1 0x40 MLOAD PUSH3 0x461BCD PUSH1 0xE5 SHL DUP2 MSTORE PUSH1 0x20 PUSH1 0x4 DUP3 ADD DUP2 SWAP1 MSTORE PUSH1 0x24 DUP3 ADD MSTORE PUSH32 0x4F776E61626C653A2063616C6C6572206973206E6F7420746865206F776E6572 PUSH1 0x44 DUP3 ADD MSTORE PUSH1 0x64 ADD PUSH2 0x5BF JUMP JUMPDEST PUSH0 DUP1 SLOAD PUSH1 0x1 PUSH1 0x1 PUSH1 0xA0 SHL SUB DUP4 DUP2 AND PUSH1 0x1 PUSH1 0x1 PUSH1 0xA0 SHL SUB NOT DUP4 AND DUP2 OR DUP5 SSTORE PUSH1 0x40 MLOAD SWAP2 SWAP1 SWAP3 AND SWAP3 DUP4 SWAP2 PUSH32 0x8BE0079C531659141344CD1FD0A4F28419497F9722A3DAAFE3B4186F6B6457E0 SWAP2 SWAP1 LOG3 POP POP JUMP JUMPDEST PUSH1 0x1 PUSH1 0x1 PUSH1 0xA0 SHL SUB DUP3 AND PUSH0 SWAP1 DUP2 MSTORE PUSH1 0x7 PUSH1 0x20 MSTORE PUSH1 0x40 SWAP1 KECCAK256 SLOAD ISZERO PUSH2 0x15DA JUMPI PUSH1 0x40 MLOAD PUSH3 0x461BCD PUSH1 0xE5 SHL DUP2 MSTORE PUSH1 0x20 PUSH1 0x4 DUP3 ADD MSTORE PUSH1 0xC PUSH1 0x24 DUP3 ADD MSTORE PUSH12 0x557365722045786973747321 PUSH1 0xA0 SHL PUSH1 0x44 DUP3 ADD MSTORE PUSH1 0x64 ADD PUSH2 0x5BF JUMP JUMPDEST PUSH1 0x1 PUSH1 0x1 PUSH1 0xA0 SHL SUB DUP2 AND PUSH0 SWAP1 DUP2 MSTORE PUSH1 0x7 PUSH1 0x20 MSTORE PUSH1 0x40 SWAP1 KECCAK256 SLOAD PUSH2 0x1635 JUMPI PUSH1 0x40 MLOAD PUSH3 0x461BCD PUSH1 0xE5 SHL DUP2 MSTORE PUSH1 0x20 PUSH1 0x4 DUP3 ADD MSTORE PUSH1 0x14 PUSH1 0x24 DUP3 ADD MSTORE PUSH20 0x5265666572726572206E6F742045786973747321 PUSH1 0x60 SHL PUSH1 0x44 DUP3 ADD MSTORE PUSH1 0x64 ADD PUSH2 0x5BF JUMP JUMPDEST PUSH1 0x6 DUP1 SLOAD PUSH1 0x1 PUSH1 0x1 PUSH1 0xA0 SHL SUB DUP5 DUP2 AND PUSH0 DUP2 DUP2 MSTORE PUSH1 0x7 PUSH1 0x20 DUP2 DUP2 MSTORE PUSH1 0x40 DUP1 DUP5 KECCAK256 DUP8 DUP2 SSTORE SWAP7 DUP5 MSTORE PUSH1 0x8 DUP3 MSTORE DUP4 KECCAK256 DUP1 SLOAD PUSH1 0x1 PUSH1 0x1 PUSH1 0xA0 SHL SUB NOT SWAP1 DUP2 AND DUP7 OR SWAP1 SWAP2 SSTORE SWAP4 DUP4 MSTORE MSTORE PUSH1 0x1 DUP5 ADD DUP1 SLOAD SWAP1 SWAP3 AND SWAP3 DUP7 AND SWAP3 SWAP1 SWAP3 OR SWAP1 SSTORE PUSH1 0x9 SWAP1 SWAP2 ADD DUP2 SWAP1 SSTORE DUP2 SLOAD SWAP2 SWAP1 PUSH2 0x169E DUP4 PUSH2 0x1E81 JUMP JUMPDEST SWAP1 SWAP2 SSTORE POP POP PUSH1 0x1 PUSH1 0x1 PUSH1 0xA0 SHL SUB DUP2 AND PUSH0 SWAP1 DUP2 MSTORE PUSH1 0x7 PUSH1 0x20 MSTORE PUSH1 0x40 DUP2 KECCAK256 PUSH1 0x9 ADD DUP1 SLOAD SWAP2 PUSH2 0x16C9 DUP4 PUSH2 0x1E81 JUMP JUMPDEST SWAP1 SWAP2 SSTORE POP POP PUSH1 0x1 PUSH1 0x1 PUSH1 0xA0 SHL SUB DUP3 DUP2 AND PUSH0 DUP2 DUP2 MSTORE PUSH1 0x7 PUSH1 0x20 MSTORE PUSH1 0x40 DUP1 DUP3 KECCAK256 SLOAD SWAP4 DUP6 AND DUP1 DUP4 MSTORE SWAP2 DUP2 SWAP1 KECCAK256 SLOAD SWAP1 MLOAD SWAP2 SWAP4 PUSH32 0x309BB360E8B69C23937CCC5FB01F9AEEEAD1C95A99604E175113FF82F2B1723A SWAP3 PUSH2 0x172C SWAP3 SWAP1 SWAP2 DUP3 MSTORE PUSH1 0x20 DUP3 ADD MSTORE PUSH1 0x40 ADD SWAP1 JUMP JUMPDEST PUSH1 0x40 MLOAD DUP1 SWAP2 SUB SWAP1 LOG3 POP POP JUMP JUMPDEST PUSH2 0x1740 PUSH2 0x192C JUMP JUMPDEST PUSH0 DUP1 SLOAD PUSH1 0xFF PUSH1 0xA0 SHL NOT AND PUSH1 0x1 PUSH1 0xA0 SHL OR SWAP1 SSTORE PUSH32 0x62E78CEA01BEE320CD4E420270B5EA74000D11B0C9F74754EBDBFC544B05A258 PUSH2 0x14C1 CALLER SWAP1 JUMP JUMPDEST PUSH1 0x2 PUSH1 0x1 SLOAD SUB PUSH2 0x17CC JUMPI PUSH1 0x40 MLOAD PUSH3 0x461BCD PUSH1 0xE5 SHL DUP2 MSTORE PUSH1 0x20 PUSH1 0x4 DUP3 ADD MSTORE PUSH1 0x1F PUSH1 0x24 DUP3 ADD MSTORE PUSH32 0x5265656E7472616E637947756172643A207265656E7472616E742063616C6C00 PUSH1 0x44 DUP3 ADD MSTORE PUSH1 0x64 ADD PUSH2 0x5BF JUMP JUMPDEST PUSH1 0x2 PUSH1 0x1 SSTORE JUMP JUMPDEST PUSH0 DUP2 TIMESTAMP GT ISZERO PUSH2 0x1818 JUMPI PUSH1 0x40 MLOAD PUSH3 0x461BCD PUSH1 0xE5 SHL DUP2 MSTORE PUSH1 0x20 PUSH1 0x4 DUP3 ADD MSTORE PUSH1 0x11 PUSH1 0x24 DUP3 ADD MSTORE PUSH17 0x14DA59DB985D1D5C9948195E1C1A5C9959 PUSH1 0x7A SHL PUSH1 0x44 DUP3 ADD MSTORE PUSH1 0x64 ADD PUSH2 0x5BF JUMP JUMPDEST PUSH1 0x40 MLOAD PUSH32 0x19457468657265756D205369676E6564204D6573736167653A0A333200000000 PUSH1 0x20 DUP3 ADD MSTORE PUSH1 0x3C DUP2 ADD DUP8 SWAP1 MSTORE PUSH0 SWAP1 PUSH1 0x5C ADD PUSH1 0x40 DUP1 MLOAD PUSH1 0x1F NOT DUP2 DUP5 SUB ADD DUP2 MSTORE DUP3 DUP3 MSTORE DUP1 MLOAD PUSH1 0x20 SWAP2 DUP3 ADD KECCAK256 PUSH0 DUP1 DUP6 MSTORE SWAP2 DUP5 ADD DUP1 DUP5 MSTORE DUP2 SWAP1 MSTORE PUSH1 0xFF DUP11 AND SWAP3 DUP5 ADD SWAP3 SWAP1 SWAP3 MSTORE PUSH1 0x60 DUP4 ADD DUP9 SWAP1 MSTORE PUSH1 0x80 DUP4 ADD DUP8 SWAP1 MSTORE SWAP1 SWAP3 POP SWAP1 PUSH1 0x1 SWAP1 PUSH1 0xA0 ADD PUSH1 0x20 PUSH1 0x40 MLOAD PUSH1 0x20 DUP2 SUB SWAP1 DUP1 DUP5 SUB SWAP1 DUP6 GAS STATICCALL ISZERO DUP1 ISZERO PUSH2 0x18B5 JUMPI RETURNDATASIZE PUSH0 PUSH0 RETURNDATACOPY RETURNDATASIZE PUSH0 REVERT JUMPDEST POP POP PUSH1 0x40 MLOAD PUSH1 0x1F NOT ADD MLOAD PUSH1 0x5 SLOAD PUSH1 0x1 PUSH1 0x1 PUSH1 0xA0 SHL SUB SWAP1 DUP2 AND SWAP2 AND EQ SWAP10 SWAP9 POP POP POP POP POP POP POP POP POP JUMP JUMPDEST PUSH0 SLOAD PUSH1 0x1 PUSH1 0xA0 SHL SWAP1 DIV PUSH1 0xFF AND PUSH2 0x5D0 JUMPI PUSH1 0x40 MLOAD PUSH3 0x461BCD PUSH1 0xE5 SHL DUP2 MSTORE PUSH1 0x20 PUSH1 0x4 DUP3 ADD MSTORE PUSH1 0x14 PUSH1 0x24 DUP3 ADD MSTORE PUSH20 0x14185D5CD8589B194E881B9BDD081C185D5CD959 PUSH1 0x62 SHL PUSH1 0x44 DUP3 ADD MSTORE PUSH1 0x64 ADD PUSH2 0x5BF JUMP JUMPDEST PUSH0 SLOAD PUSH1 0x1 PUSH1 0xA0 SHL SWAP1 DIV PUSH1 0xFF AND ISZERO PUSH2 0x5D0 JUMPI PUSH1 0x40 MLOAD PUSH3 0x461BCD PUSH1 0xE5 SHL DUP2 MSTORE PUSH1 0x20 PUSH1 0x4 DUP3 ADD MSTORE PUSH1 0x10 PUSH1 0x24 DUP3 ADD MSTORE PUSH16 0x14185D5CD8589B194E881C185D5CD959 PUSH1 0x82 SHL PUSH1 0x44 DUP3 ADD MSTORE PUSH1 0x64 ADD PUSH2 0x5BF JUMP JUMPDEST PUSH0 PUSH1 0x20 DUP3 DUP5 SUB SLT ISZERO PUSH2 0x1988 JUMPI PUSH0 PUSH0 REVERT JUMPDEST POP CALLDATALOAD SWAP2 SWAP1 POP JUMP JUMPDEST PUSH1 0x1 PUSH1 0x1 PUSH1 0xA0 SHL SUB DUP2 AND DUP2 EQ PUSH2 0x13F9 JUMPI PUSH0 PUSH0 REVERT JUMPDEST PUSH0 PUSH0 PUSH1 0x40 DUP4 DUP6 SUB SLT ISZERO PUSH2 0x19B4 JUMPI PUSH0 PUSH0 REVERT JUMPDEST DUP3 CALLDATALOAD PUSH2 0x19BF DUP2 PUSH2 0x198F JUMP JUMPDEST SWAP2 POP PUSH1 0x20 DUP4 ADD CALLDATALOAD PUSH2 0x19CF DUP2 PUSH2 0x198F JUMP JUMPDEST DUP1 SWAP2 POP POP SWAP3 POP SWAP3 SWAP1 POP JUMP JUMPDEST PUSH0 PUSH1 0x20 DUP3 DUP5 SUB SLT ISZERO PUSH2 0x19EA JUMPI PUSH0 PUSH0 REVERT JUMPDEST DUP2 CALLDATALOAD PUSH2 0x19F5 DUP2 PUSH2 0x198F JUMP JUMPDEST SWAP4 SWAP3 POP POP POP JUMP JUMPDEST PUSH0 PUSH0 PUSH0 PUSH1 0x60 DUP5 DUP7 SUB SLT ISZERO PUSH2 0x1A0E JUMPI PUSH0 PUSH0 REVERT JUMPDEST DUP4 CALLDATALOAD PUSH2 0x1A19 DUP2 PUSH2 0x198F JUMP JUMPDEST SWAP6 PUSH1 0x20 DUP6 ADD CALLDATALOAD SWAP6 POP PUSH1 0x40 SWAP1 SWAP5 ADD CALLDATALOAD SWAP4 SWAP3 POP POP POP JUMP JUMPDEST PUSH0 PUSH0 PUSH0 PUSH1 0x60 DUP5 DUP7 SUB SLT ISZERO PUSH2 0x1A40 JUMPI PUSH0 PUSH0 REVERT JUMPDEST DUP4 CALLDATALOAD SWAP3 POP PUSH1 0x20 DUP5 ADD CALLDATALOAD SWAP2 POP PUSH1 0x40 DUP5 ADD CALLDATALOAD PUSH2 0x1A59 DUP2 PUSH2 0x198F JUMP JUMPDEST DUP1 SWAP2 POP POP SWAP3 POP SWAP3 POP SWAP3 JUMP JUMPDEST DUP1 CALLDATALOAD PUSH2 0x1A6F DUP2 PUSH2 0x198F JUMP JUMPDEST SWAP2 SWAP1 POP JUMP JUMPDEST PUSH0 PUSH0 PUSH1 0x40 DUP4 DUP6 SUB SLT ISZERO PUSH2 0x1A85 JUMPI PUSH0 PUSH0 REVERT JUMPDEST DUP3 CALLDATALOAD SWAP2 POP PUSH1 0x20 DUP4 ADD CALLDATALOAD PUSH2 0x19CF DUP2 PUSH2 0x198F JUMP JUMPDEST PUSH4 0x4E487B71 PUSH1 0xE0 SHL PUSH0 MSTORE PUSH1 0x41 PUSH1 0x4 MSTORE PUSH1 0x24 PUSH0 REVERT JUMPDEST PUSH1 0x40 MLOAD PUSH1 0x1F DUP3 ADD PUSH1 0x1F NOT AND DUP2 ADD PUSH8 0xFFFFFFFFFFFFFFFF DUP2 GT DUP3 DUP3 LT OR ISZERO PUSH2 0x1AD4 JUMPI PUSH2 0x1AD4 PUSH2 0x1A97 JUMP JUMPDEST PUSH1 0x40 MSTORE SWAP2 SWAP1 POP JUMP JUMPDEST PUSH0 PUSH8 0xFFFFFFFFFFFFFFFF DUP3 GT ISZERO PUSH2 0x1AF5 JUMPI PUSH2 0x1AF5 PUSH2 0x1A97 JUMP JUMPDEST POP PUSH1 0x5 SHL PUSH1 0x20 ADD SWAP1 JUMP JUMPDEST PUSH0 DUP3 PUSH1 0x1F DUP4 ADD SLT PUSH2 0x1B0E JUMPI PUSH0 PUSH0 REVERT JUMPDEST DUP2 CALLDATALOAD PUSH2 0x1B21 PUSH2 0x1B1C DUP3 PUSH2 0x1ADC JUMP JUMPDEST PUSH2 0x1AAB JUMP JUMPDEST DUP1 DUP3 DUP3 MSTORE PUSH1 0x20 DUP3 ADD SWAP2 POP PUSH1 0x20 DUP4 PUSH1 0x5 SHL DUP7 ADD ADD SWAP3 POP DUP6 DUP4 GT ISZERO PUSH2 0x1B42 JUMPI PUSH0 PUSH0 REVERT JUMPDEST PUSH1 0x20 DUP6 ADD JUMPDEST DUP4 DUP2 LT ISZERO PUSH2 0x1B5F JUMPI DUP1 CALLDATALOAD DUP4 MSTORE PUSH1 0x20 SWAP3 DUP4 ADD SWAP3 ADD PUSH2 0x1B47 JUMP JUMPDEST POP SWAP6 SWAP5 POP POP POP POP POP JUMP JUMPDEST PUSH0 PUSH0 PUSH0 PUSH0 PUSH1 0x80 DUP6 DUP8 SUB SLT ISZERO PUSH2 0x1B7C JUMPI PUSH0 PUSH0 REVERT JUMPDEST DUP5 CALLDATALOAD PUSH8 0xFFFFFFFFFFFFFFFF DUP2 GT ISZERO PUSH2 0x1B92 JUMPI PUSH0 PUSH0 REVERT JUMPDEST DUP6 ADD PUSH1 0x1F DUP2 ADD DUP8 SGT PUSH2 0x1BA2 JUMPI PUSH0 PUSH0 REVERT JUMPDEST DUP1 CALLDATALOAD PUSH2 0x1BB0 PUSH2 0x1B1C DUP3 PUSH2 0x1ADC JUMP JUMPDEST DUP1 DUP3 DUP3 MSTORE PUSH1 0x20 DUP3 ADD SWAP2 POP PUSH1 0x20 DUP4 PUSH1 0x5 SHL DUP6 ADD ADD SWAP3 POP DUP10 DUP4 GT ISZERO PUSH2 0x1BD1 JUMPI PUSH0 PUSH0 REVERT JUMPDEST PUSH1 0x20 DUP5 ADD SWAP4 POP JUMPDEST DUP3 DUP5 LT ISZERO PUSH2 0x1BFC JUMPI DUP4 CALLDATALOAD PUSH2 0x1BEB DUP2 PUSH2 0x198F JUMP JUMPDEST DUP3 MSTORE PUSH1 0x20 SWAP4 DUP5 ADD SWAP4 SWAP1 SWAP2 ADD SWAP1 PUSH2 0x1BD8 JUMP JUMPDEST SWAP7 POP POP POP POP PUSH1 0x20 DUP6 ADD CALLDATALOAD PUSH8 0xFFFFFFFFFFFFFFFF DUP2 GT ISZERO PUSH2 0x1C1A JUMPI PUSH0 PUSH0 REVERT JUMPDEST PUSH2 0x1C26 DUP8 DUP3 DUP9 ADD PUSH2 0x1AFF JUMP JUMPDEST SWAP4 POP POP PUSH1 0x40 DUP6 ADD CALLDATALOAD SWAP2 POP PUSH2 0x1C3C PUSH1 0x60 DUP7 ADD PUSH2 0x1A64 JUMP JUMPDEST SWAP1 POP SWAP3 SWAP6 SWAP2 SWAP5 POP SWAP3 POP JUMP JUMPDEST DUP6 DUP2 MSTORE DUP5 PUSH1 0x20 DUP3 ADD MSTORE DUP4 PUSH1 0x40 DUP3 ADD MSTORE DUP3 PUSH1 0x60 DUP3 ADD MSTORE PUSH1 0xA0 PUSH1 0x80 DUP3 ADD MSTORE PUSH0 DUP3 MLOAD DUP1 PUSH1 0xA0 DUP5 ADD MSTORE DUP1 PUSH1 0x20 DUP6 ADD PUSH1 0xC0 DUP6 ADD MCOPY PUSH0 PUSH1 0xC0 DUP3 DUP6 ADD ADD MSTORE PUSH1 0xC0 PUSH1 0x1F NOT PUSH1 0x1F DUP4 ADD AND DUP5 ADD ADD SWAP2 POP POP SWAP7 SWAP6 POP POP POP POP POP POP JUMP JUMPDEST PUSH0 PUSH0 PUSH0 PUSH0 PUSH0 PUSH1 0xA0 DUP7 DUP9 SUB SLT ISZERO PUSH2 0x1CAC JUMPI PUSH0 PUSH0 REVERT JUMPDEST DUP6 CALLDATALOAD SWAP5 POP PUSH1 0x20 DUP7 ADD CALLDATALOAD PUSH1 0xFF DUP2 AND DUP2 EQ PUSH2 0x1CC3 JUMPI PUSH0 PUSH0 REVERT JUMPDEST SWAP5 SWAP8 SWAP5 SWAP7 POP POP POP POP PUSH1 0x40 DUP4 ADD CALLDATALOAD SWAP3 PUSH1 0x60 DUP2 ADD CALLDATALOAD SWAP3 PUSH1 0x80 SWAP1 SWAP2 ADD CALLDATALOAD SWAP2 POP JUMP JUMPDEST PUSH1 0x20 DUP1 DUP3 MSTORE PUSH1 0x21 SWAP1 DUP3 ADD MSTORE PUSH32 0x466F7262696464656E21204F6E6C79204F70657261746F722043616E2043616C PUSH1 0x40 DUP3 ADD MSTORE PUSH1 0x1B PUSH1 0xFA SHL PUSH1 0x60 DUP3 ADD MSTORE PUSH1 0x80 ADD SWAP1 JUMP JUMPDEST PUSH1 0x1 DUP2 DUP2 SHR SWAP1 DUP3 AND DUP1 PUSH2 0x1D36 JUMPI PUSH1 0x7F DUP3 AND SWAP2 POP JUMPDEST PUSH1 0x20 DUP3 LT DUP2 SUB PUSH2 0x1D54 JUMPI PUSH4 0x4E487B71 PUSH1 0xE0 SHL PUSH0 MSTORE PUSH1 0x22 PUSH1 0x4 MSTORE PUSH1 0x24 PUSH0 REVERT JUMPDEST POP SWAP2 SWAP1 POP JUMP JUMPDEST PUSH1 0x1F DUP3 GT ISZERO PUSH2 0xC2D JUMPI DUP1 PUSH0 MSTORE PUSH1 0x20 PUSH0 KECCAK256 PUSH1 0x1F DUP5 ADD PUSH1 0x5 SHR DUP2 ADD PUSH1 0x20 DUP6 LT ISZERO PUSH2 0x1D7F JUMPI POP DUP1 JUMPDEST PUSH1 0x1F DUP5 ADD PUSH1 0x5 SHR DUP3 ADD SWAP2 POP JUMPDEST DUP2 DUP2 LT ISZERO PUSH2 0x137C JUMPI PUSH0 DUP2 SSTORE PUSH1 0x1 ADD PUSH2 0x1D8B JUMP JUMPDEST DUP2 MLOAD PUSH8 0xFFFFFFFFFFFFFFFF DUP2 GT ISZERO PUSH2 0x1DB8 JUMPI PUSH2 0x1DB8 PUSH2 0x1A97 JUMP JUMPDEST PUSH2 0x1DCC DUP2 PUSH2 0x1DC6 DUP5 SLOAD PUSH2 0x1D22 JUMP JUMPDEST DUP5 PUSH2 0x1D5A JUMP JUMPDEST PUSH1 0x20 PUSH1 0x1F DUP3 GT PUSH1 0x1 DUP2 EQ PUSH2 0x1DFE JUMPI PUSH0 DUP4 ISZERO PUSH2 0x1DE7 JUMPI POP DUP5 DUP3 ADD MLOAD JUMPDEST PUSH0 NOT PUSH1 0x3 DUP6 SWAP1 SHL SHR NOT AND PUSH1 0x1 DUP5 SWAP1 SHL OR DUP5 SSTORE PUSH2 0x137C JUMP JUMPDEST PUSH0 DUP5 DUP2 MSTORE PUSH1 0x20 DUP2 KECCAK256 PUSH1 0x1F NOT DUP6 AND SWAP2 JUMPDEST DUP3 DUP2 LT ISZERO PUSH2 0x1E2D JUMPI DUP8 DUP6 ADD MLOAD DUP3 SSTORE PUSH1 0x20 SWAP5 DUP6 ADD SWAP5 PUSH1 0x1 SWAP1 SWAP3 ADD SWAP2 ADD PUSH2 0x1E0D JUMP JUMPDEST POP DUP5 DUP3 LT ISZERO PUSH2 0x1E4A JUMPI DUP7 DUP5 ADD MLOAD PUSH0 NOT PUSH1 0x3 DUP8 SWAP1 SHL PUSH1 0xF8 AND SHR NOT AND DUP2 SSTORE JUMPDEST POP POP POP POP PUSH1 0x1 SWAP1 DUP2 SHL ADD SWAP1 SSTORE POP JUMP JUMPDEST PUSH4 0x4E487B71 PUSH1 0xE0 SHL PUSH0 MSTORE PUSH1 0x32 PUSH1 0x4 MSTORE PUSH1 0x24 PUSH0 REVERT JUMPDEST PUSH4 0x4E487B71 PUSH1 0xE0 SHL PUSH0 MSTORE PUSH1 0x11 PUSH1 0x4 MSTORE PUSH1 0x24 PUSH0 REVERT JUMPDEST PUSH0 PUSH1 0x1 DUP3 ADD PUSH2 0x1E92 JUMPI PUSH2 0x1E92 PUSH2 0x1E6D JUMP JUMPDEST POP PUSH1 0x1 ADD SWAP1 JUMP JUMPDEST DUP1 DUP3 ADD DUP1 DUP3 GT ISZERO PUSH2 0x1EAC JUMPI PUSH2 0x1EAC PUSH2 0x1E6D JUMP JUMPDEST SWAP3 SWAP2 POP POP JUMP JUMPDEST DUP1 DUP3 MUL DUP2 ISZERO DUP3 DUP3 DIV DUP5 EQ OR PUSH2 0x1EAC JUMPI PUSH2 0x1EAC PUSH2 0x1E6D JUMP JUMPDEST PUSH0 PUSH1 0x20 DUP3 DUP5 SUB SLT ISZERO PUSH2 0x1ED9 JUMPI PUSH0 PUSH0 REVERT JUMPDEST DUP2 MLOAD DUP1 ISZERO ISZERO DUP2 EQ PUSH2 0x19F5 JUMPI PUSH0 PUSH0 REVERT JUMPDEST DUP2 DUP2 SUB DUP2 DUP2 GT ISZERO PUSH2 0x1EAC JUMPI PUSH2 0x1EAC PUSH2 0x1E6D JUMP INVALID 0xC6 GAS PUSH28 0xB8D6351C1CF70C95A316CC6A92839C986682D98BC35F958F4883F9D2 0xA9 0xC6 GAS PUSH28 0xB8D6351C1CF70C95A316CC6A92839C986682D98BC35F958F4883F9D2 0xA8 0xC6 GAS PUSH28 0xB8D6351C1CF70C95A316CC6A92839C986682D98BC35F958F4883F9D2 0xAB 0xC6 GAS PUSH28 0xB8D6351C1CF70C95A316CC6A92839C986682D98BC35F958F4883F9D2 0xAA 0xC6 GAS PUSH28 0xB8D6351C1CF70C95A316CC6A92839C986682D98BC35F958F4883F9D2 0xAC LOG2 PUSH5 0x6970667358 0x22 SLT KECCAK256 0xFC 0x4C SWAP9 PUSH13 0x6F9B7BAB6C84F22A714F2E0AE RETF XOR PUSH25 0xD67E9B5B1DA0B44B5664D26264736F6C634300081E00330000 "
				},
				"gasEstimates": {
					"creation": {
						"codeDepositCost": "1629000",
						"executionCost": "23812",
						"totalCost": "1652812"
					},
					"external": {
						"USDT()": "2414",
						"UnitySign()": "2436",
						"admin()": "2435",
						"getWithdrawHash(address,uint256,uint256)": "2915",
						"idToAddress(uint256)": "2487",
						"initialize(address,address)": "infinite",
						"isUserExists(address)": "2652",
						"lastUserId()": "2340",
						"multisendToken(address[],uint256[],uint256,address)": "infinite",
						"nonce(address)": "2577",
						"operator()": "2459",
						"owner()": "2429",
						"packageMinAmounts(uint256)": "2502",
						"packages(uint256)": "infinite",
						"pause()": "infinite",
						"paused()": "2364",
						"renounceOwnership()": "infinite",
						"setUnitySignWallet(address)": "26859",
						"stake(uint256,uint256,address)": "infinite",
						"transferOwnership(address)": "infinite",
						"unpause()": "infinite",
						"users(address)": "26175",
						"withdrawLost(uint256)": "infinite",
						"withdrawLostTokenFromBalance(uint256,address)": "infinite",
						"withdrawRoi(uint256,uint8,bytes32,bytes32,uint256)": "infinite"
					},
					"internal": {
						"registration(address,address)": "infinite",
						"verifySignatureWithDeadline(bytes32,uint8,bytes32,bytes32,uint256)": "infinite"
					}
				},
				"methodIdentifiers": {
					"USDT()": "c54e44eb",
					"UnitySign()": "71747dc5",
					"admin()": "f851a440",
					"getWithdrawHash(address,uint256,uint256)": "5abca48d",
					"idToAddress(uint256)": "2a2d0c47",
					"initialize(address,address)": "485cc955",
					"isUserExists(address)": "509222cd",
					"lastUserId()": "348d4487",
					"multisendToken(address[],uint256[],uint256,address)": "84412cc7",
					"nonce(address)": "70ae92d2",
					"operator()": "570ca735",
					"owner()": "8da5cb5b",
					"packageMinAmounts(uint256)": "c2685793",
					"packages(uint256)": "c216212a",
					"pause()": "8456cb59",
					"paused()": "5c975abb",
					"renounceOwnership()": "715018a6",
					"setUnitySignWallet(address)": "73a5028a",
					"stake(uint256,uint256,address)": "7628a37d",
					"transferOwnership(address)": "f2fde38b",
					"unpause()": "3f4ba83a",
					"users(address)": "a87430ba",
					"withdrawLost(uint256)": "f3b2aa94",
					"withdrawLostTokenFromBalance(uint256,address)": "7b500564",
					"withdrawRoi(uint256,uint8,bytes32,bytes32,uint256)": "f2085935"
				}
			},
			"storageLayout": {
				"storage": [
					{
						"astId": 124,
						"contract": "profxexpo.sol:PROFXEXPO",
						"label": "_owner",
						"offset": 0,
						"slot": "0",
						"type": "t_address"
					},
					{
						"astId": 322,
						"contract": "profxexpo.sol:PROFXEXPO",
						"label": "_paused",
						"offset": 20,
						"slot": "0",
						"type": "t_bool"
					},
					{
						"astId": 82,
						"contract": "profxexpo.sol:PROFXEXPO",
						"label": "_initialized",
						"offset": 21,
						"slot": "0",
						"type": "t_bool"
					},
					{
						"astId": 84,
						"contract": "profxexpo.sol:PROFXEXPO",
						"label": "_initializing",
						"offset": 22,
						"slot": "0",
						"type": "t_bool"
					},
					{
						"astId": 28,
						"contract": "profxexpo.sol:PROFXEXPO",
						"label": "_status",
						"offset": 0,
						"slot": "1",
						"type": "t_uint256"
					},
					{
						"astId": 442,
						"contract": "profxexpo.sol:PROFXEXPO",
						"label": "admin",
						"offset": 0,
						"slot": "2",
						"type": "t_address"
					},
					{
						"astId": 444,
						"contract": "profxexpo.sol:PROFXEXPO",
						"label": "operator",
						"offset": 0,
						"slot": "3",
						"type": "t_address"
					},
					{
						"astId": 446,
						"contract": "profxexpo.sol:PROFXEXPO",
						"label": "USDT",
						"offset": 0,
						"slot": "4",
						"type": "t_address"
					},
					{
						"astId": 448,
						"contract": "profxexpo.sol:PROFXEXPO",
						"label": "UnitySign",
						"offset": 0,
						"slot": "5",
						"type": "t_address"
					},
					{
						"astId": 450,
						"contract": "profxexpo.sol:PROFXEXPO",
						"label": "lastUserId",
						"offset": 0,
						"slot": "6",
						"type": "t_uint256"
					},
					{
						"astId": 455,
						"contract": "profxexpo.sol:PROFXEXPO",
						"label": "users",
						"offset": 0,
						"slot": "7",
						"type": "t_mapping(t_address,t_struct(User)429_storage)"
					},
					{
						"astId": 459,
						"contract": "profxexpo.sol:PROFXEXPO",
						"label": "idToAddress",
						"offset": 0,
						"slot": "8",
						"type": "t_mapping(t_uint256,t_address)"
					},
					{
						"astId": 463,
						"contract": "profxexpo.sol:PROFXEXPO",
						"label": "nonce",
						"offset": 0,
						"slot": "9",
						"type": "t_mapping(t_address,t_uint256)"
					},
					{
						"astId": 467,
						"contract": "profxexpo.sol:PROFXEXPO",
						"label": "packages",
						"offset": 0,
						"slot": "10",
						"type": "t_array(t_struct(Package)440_storage)dyn_storage"
					},
					{
						"astId": 471,
						"contract": "profxexpo.sol:PROFXEXPO",
						"label": "packageMinAmounts",
						"offset": 0,
						"slot": "11",
						"type": "t_mapping(t_uint256,t_uint256)"
					}
				],
				"types": {
					"t_address": {
						"encoding": "inplace",
						"label": "address",
						"numberOfBytes": "20"
					},
					"t_array(t_struct(Package)440_storage)dyn_storage": {
						"base": "t_struct(Package)440_storage",
						"encoding": "dynamic_array",
						"label": "struct PROFXEXPO.Package[]",
						"numberOfBytes": "32"
					},
					"t_bool": {
						"encoding": "inplace",
						"label": "bool",
						"numberOfBytes": "1"
					},
					"t_mapping(t_address,t_struct(User)429_storage)": {
						"encoding": "mapping",
						"key": "t_address",
						"label": "mapping(address => struct PROFXEXPO.User)",
						"numberOfBytes": "32",
						"value": "t_struct(User)429_storage"
					},
					"t_mapping(t_address,t_uint256)": {
						"encoding": "mapping",
						"key": "t_address",
						"label": "mapping(address => uint256)",
						"numberOfBytes": "32",
						"value": "t_uint256"
					},
					"t_mapping(t_uint256,t_address)": {
						"encoding": "mapping",
						"key": "t_uint256",
						"label": "mapping(uint256 => address)",
						"numberOfBytes": "32",
						"value": "t_address"
					},
					"t_mapping(t_uint256,t_uint256)": {
						"encoding": "mapping",
						"key": "t_uint256",
						"label": "mapping(uint256 => uint256)",
						"numberOfBytes": "32",
						"value": "t_uint256"
					},
					"t_string_storage": {
						"encoding": "bytes",
						"label": "string",
						"numberOfBytes": "32"
					},
					"t_struct(Package)440_storage": {
						"encoding": "inplace",
						"label": "struct PROFXEXPO.Package",
						"members": [
							{
								"astId": 431,
								"contract": "profxexpo.sol:PROFXEXPO",
								"label": "packageId",
								"offset": 0,
								"slot": "0",
								"type": "t_uint256"
							},
							{
								"astId": 433,
								"contract": "profxexpo.sol:PROFXEXPO",
								"label": "minAmount",
								"offset": 0,
								"slot": "1",
								"type": "t_uint256"
							},
							{
								"astId": 435,
								"contract": "profxexpo.sol:PROFXEXPO",
								"label": "dailyROI",
								"offset": 0,
								"slot": "2",
								"type": "t_uint256"
							},
							{
								"astId": 437,
								"contract": "profxexpo.sol:PROFXEXPO",
								"label": "lockinDuration",
								"offset": 0,
								"slot": "3",
								"type": "t_uint256"
							},
							{
								"astId": 439,
								"contract": "profxexpo.sol:PROFXEXPO",
								"label": "packageName",
								"offset": 0,
								"slot": "4",
								"type": "t_string_storage"
							}
						],
						"numberOfBytes": "160"
					},
					"t_struct(User)429_storage": {
						"encoding": "inplace",
						"label": "struct PROFXEXPO.User",
						"members": [
							{
								"astId": 406,
								"contract": "profxexpo.sol:PROFXEXPO",
								"label": "userId",
								"offset": 0,
								"slot": "0",
								"type": "t_uint256"
							},
							{
								"astId": 408,
								"contract": "profxexpo.sol:PROFXEXPO",
								"label": "referrer",
								"offset": 0,
								"slot": "1",
								"type": "t_address"
							},
							{
								"astId": 410,
								"contract": "profxexpo.sol:PROFXEXPO",
								"label": "partnerCount",
								"offset": 0,
								"slot": "2",
								"type": "t_uint256"
							},
							{
								"astId": 412,
								"contract": "profxexpo.sol:PROFXEXPO",
								"label": "totalStake",
								"offset": 0,
								"slot": "3",
								"type": "t_uint256"
							},
							{
								"astId": 414,
								"contract": "profxexpo.sol:PROFXEXPO",
								"label": "directBusiness",
								"offset": 0,
								"slot": "4",
								"type": "t_uint256"
							},
							{
								"astId": 416,
								"contract": "profxexpo.sol:PROFXEXPO",
								"label": "teamBusiness",
								"offset": 0,
								"slot": "5",
								"type": "t_uint256"
							},
							{
								"astId": 418,
								"contract": "profxexpo.sol:PROFXEXPO",
								"label": "lastinvest",
								"offset": 0,
								"slot": "6",
								"type": "t_uint256"
							},
							{
								"astId": 420,
								"contract": "profxexpo.sol:PROFXEXPO",
								"label": "rewTaken",
								"offset": 0,
								"slot": "7",
								"type": "t_uint256"
							},
							{
								"astId": 422,
								"contract": "profxexpo.sol:PROFXEXPO",
								"label": "stakecount",
								"offset": 0,
								"slot": "8",
								"type": "t_uint256"
							},
							{
								"astId": 424,
								"contract": "profxexpo.sol:PROFXEXPO",
								"label": "partnersCount",
								"offset": 0,
								"slot": "9",
								"type": "t_uint256"
							},
							{
								"astId": 426,
								"contract": "profxexpo.sol:PROFXEXPO",
								"label": "levelIncome",
								"offset": 0,
								"slot": "10",
								"type": "t_uint256"
							},
							{
								"astId": 428,
								"contract": "profxexpo.sol:PROFXEXPO",
								"label": "onof",
								"offset": 0,
								"slot": "11",
								"type": "t_bool"
							}
						],
						"numberOfBytes": "384"
					},
					"t_uint256": {
						"encoding": "inplace",
						"label": "uint256",
						"numberOfBytes": "32"
					}
				}
			},
			"userdoc": {
				"kind": "user",
				"methods": {},
				"version": 1
			}
		}
	}
}