{
	"arcanix.sol": {
		"ArcanixICO": {
			"abi": [
				{
					"anonymous": false,
					"inputs": [
						{
							"indexed": true,
							"internalType": "address",
							"name": "user",
							"type": "address"
						},
						{
							"indexed": false,
							"internalType": "uint256",
							"name": "amount",
							"type": "uint256"
						}
					],
					"name": "DailyROIClaimed",
					"type": "event"
				},
				{
					"anonymous": false,
					"inputs": [
						{
							"indexed": true,
							"internalType": "address",
							"name": "buyer",
							"type": "address"
						},
						{
							"indexed": false,
							"internalType": "uint256",
							"name": "usdtAmount",
							"type": "uint256"
						},
						{
							"indexed": false,
							"internalType": "uint8",
							"name": "plan",
							"type": "uint8"
						}
					],
					"name": "Investment",
					"type": "event"
				},
				{
					"anonymous": false,
					"inputs": [
						{
							"indexed": true,
							"internalType": "address",
							"name": "sender",
							"type": "address"
						},
						{
							"indexed": true,
							"internalType": "address",
							"name": "receiver",
							"type": "address"
						},
						{
							"indexed": false,
							"internalType": "uint8",
							"name": "level",
							"type": "uint8"
						},
						{
							"indexed": false,
							"internalType": "uint256",
							"name": "levelIncome",
							"type": "uint256"
						}
					],
					"name": "LevelIncome",
					"type": "event"
				},
				{
					"anonymous": false,
					"inputs": [
						{
							"indexed": true,
							"internalType": "address",
							"name": "user",
							"type": "address"
						},
						{
							"indexed": false,
							"internalType": "uint256",
							"name": "amount",
							"type": "uint256"
						}
					],
					"name": "RealTokensDistributed",
					"type": "event"
				},
				{
					"anonymous": false,
					"inputs": [
						{
							"indexed": true,
							"internalType": "address",
							"name": "sender",
							"type": "address"
						},
						{
							"indexed": true,
							"internalType": "address",
							"name": "receiver",
							"type": "address"
						},
						{
							"indexed": false,
							"internalType": "uint256",
							"name": "tokens",
							"type": "uint256"
						}
					],
					"name": "ReferralIncome",
					"type": "event"
				},
				{
					"anonymous": false,
					"inputs": [
						{
							"indexed": true,
							"internalType": "address",
							"name": "user",
							"type": "address"
						},
						{
							"indexed": true,
							"internalType": "address",
							"name": "referrer",
							"type": "address"
						},
						{
							"indexed": false,
							"internalType": "uint256",
							"name": "id",
							"type": "uint256"
						},
						{
							"indexed": false,
							"internalType": "uint256",
							"name": "referrerId",
							"type": "uint256"
						}
					],
					"name": "Registrationico",
					"type": "event"
				},
				{
					"anonymous": false,
					"inputs": [
						{
							"indexed": true,
							"internalType": "address",
							"name": "user",
							"type": "address"
						},
						{
							"indexed": true,
							"internalType": "address",
							"name": "referrer",
							"type": "address"
						},
						{
							"indexed": false,
							"internalType": "uint256",
							"name": "id",
							"type": "uint256"
						},
						{
							"indexed": false,
							"internalType": "uint256",
							"name": "referrerId",
							"type": "uint256"
						}
					],
					"name": "Registrationinvst",
					"type": "event"
				},
				{
					"anonymous": false,
					"inputs": [
						{
							"indexed": true,
							"internalType": "address",
							"name": "buyer",
							"type": "address"
						},
						{
							"indexed": false,
							"internalType": "uint256",
							"name": "usdtAmount",
							"type": "uint256"
						},
						{
							"indexed": false,
							"internalType": "uint256",
							"name": "virtualTokens",
							"type": "uint256"
						}
					],
					"name": "TokensPurchased",
					"type": "event"
				},
				{
					"inputs": [],
					"name": "RATE",
					"outputs": [
						{
							"internalType": "uint256",
							"name": "",
							"type": "uint256"
						}
					],
					"stateMutability": "view",
					"type": "function"
				},
				{
					"inputs": [
						{
							"internalType": "address",
							"name": "user",
							"type": "address"
						}
					],
					"name": "adminDistributeRealTokens",
					"outputs": [],
					"stateMutability": "nonpayable",
					"type": "function"
				},
				{
					"inputs": [
						{
							"internalType": "uint256",
							"name": "usdtAmount",
							"type": "uint256"
						},
						{
							"internalType": "uint8",
							"name": "plan",
							"type": "uint8"
						}
					],
					"name": "arxinvest",
					"outputs": [],
					"stateMutability": "nonpayable",
					"type": "function"
				},
				{
					"inputs": [
						{
							"internalType": "address[]",
							"name": "users",
							"type": "address[]"
						}
					],
					"name": "batchDistribute",
					"outputs": [],
					"stateMutability": "nonpayable",
					"type": "function"
				},
				{
					"inputs": [
						{
							"internalType": "uint256",
							"name": "usdtAmount",
							"type": "uint256"
						}
					],
					"name": "buyTokens",
					"outputs": [],
					"stateMutability": "nonpayable",
					"type": "function"
				},
				{
					"inputs": [
						{
							"internalType": "uint8",
							"name": "plan",
							"type": "uint8"
						},
						{
							"internalType": "uint256",
							"name": "investId",
							"type": "uint256"
						}
					],
					"name": "claimCapital",
					"outputs": [],
					"stateMutability": "nonpayable",
					"type": "function"
				},
				{
					"inputs": [],
					"name": "claimDailyROI",
					"outputs": [],
					"stateMutability": "nonpayable",
					"type": "function"
				},
				{
					"inputs": [
						{
							"internalType": "uint256",
							"name": "plan",
							"type": "uint256"
						}
					],
					"name": "claimDailyROI2",
					"outputs": [],
					"stateMutability": "nonpayable",
					"type": "function"
				},
				{
					"inputs": [
						{
							"internalType": "uint256",
							"name": "plan",
							"type": "uint256"
						}
					],
					"name": "claimDailyROI3",
					"outputs": [],
					"stateMutability": "nonpayable",
					"type": "function"
				},
				{
					"inputs": [
						{
							"internalType": "address",
							"name": "_user",
							"type": "address"
						}
					],
					"name": "getCurrentClaimableROI",
					"outputs": [
						{
							"internalType": "uint256",
							"name": "",
							"type": "uint256"
						}
					],
					"stateMutability": "view",
					"type": "function"
				},
				{
					"inputs": [
						{
							"internalType": "address",
							"name": "user",
							"type": "address"
						}
					],
					"name": "getPurchase",
					"outputs": [
						{
							"internalType": "uint256",
							"name": "usdtSpent",
							"type": "uint256"
						},
						{
							"internalType": "uint256",
							"name": "tokensReceived",
							"type": "uint256"
						},
						{
							"internalType": "bool",
							"name": "distributed",
							"type": "bool"
						}
					],
					"stateMutability": "view",
					"type": "function"
				},
				{
					"inputs": [
						{
							"internalType": "address",
							"name": "user",
							"type": "address"
						},
						{
							"internalType": "uint256",
							"name": "plan",
							"type": "uint256"
						}
					],
					"name": "getROIBreakdown",
					"outputs": [
						{
							"internalType": "uint256[]",
							"name": "usdtAmounts",
							"type": "uint256[]"
						},
						{
							"internalType": "uint256[]",
							"name": "claimedROIs",
							"type": "uint256[]"
						},
						{
							"internalType": "uint256[]",
							"name": "claimableROIs",
							"type": "uint256[]"
						},
						{
							"internalType": "uint256[]",
							"name": "timestamps",
							"type": "uint256[]"
						},
						{
							"internalType": "uint256[]",
							"name": "roiPercents",
							"type": "uint256[]"
						}
					],
					"stateMutability": "view",
					"type": "function"
				},
				{
					"inputs": [
						{
							"internalType": "uint256",
							"name": "",
							"type": "uint256"
						}
					],
					"name": "idToAddress",
					"outputs": [
						{
							"internalType": "address",
							"name": "",
							"type": "address"
						}
					],
					"stateMutability": "view",
					"type": "function"
				},
				{
					"inputs": [
						{
							"internalType": "address",
							"name": "_usdtAddress",
							"type": "address"
						}
					],
					"name": "initialize",
					"outputs": [],
					"stateMutability": "nonpayable",
					"type": "function"
				},
				{
					"inputs": [
						{
							"internalType": "address",
							"name": "_user",
							"type": "address"
						}
					],
					"name": "isUserExists",
					"outputs": [
						{
							"internalType": "bool",
							"name": "",
							"type": "bool"
						}
					],
					"stateMutability": "view",
					"type": "function"
				},
				{
					"inputs": [
						{
							"internalType": "address",
							"name": "_user",
							"type": "address"
						}
					],
					"name": "isUserExistsInvst",
					"outputs": [
						{
							"internalType": "bool",
							"name": "",
							"type": "bool"
						}
					],
					"stateMutability": "view",
					"type": "function"
				},
				{
					"inputs": [],
					"name": "lastUserId",
					"outputs": [
						{
							"internalType": "uint256",
							"name": "",
							"type": "uint256"
						}
					],
					"stateMutability": "view",
					"type": "function"
				},
				{
					"inputs": [],
					"name": "owner",
					"outputs": [
						{
							"internalType": "address",
							"name": "",
							"type": "address"
						}
					],
					"stateMutability": "view",
					"type": "function"
				},
				{
					"inputs": [
						{
							"internalType": "address",
							"name": "",
							"type": "address"
						}
					],
					"name": "purchases",
					"outputs": [
						{
							"internalType": "uint256",
							"name": "id",
							"type": "uint256"
						},
						{
							"internalType": "address",
							"name": "invst_ref",
							"type": "address"
						},
						{
							"internalType": "address",
							"name": "ico_ref",
							"type": "address"
						},
						{
							"internalType": "uint256",
							"name": "partnerCount",
							"type": "uint256"
						},
						{
							"internalType": "uint256",
							"name": "usdtSpentico",
							"type": "uint256"
						},
						{
							"internalType": "uint256",
							"name": "usdtSpentinvst",
							"type": "uint256"
						},
						{
							"internalType": "uint256",
							"name": "tokensReceived",
							"type": "uint256"
						},
						{
							"internalType": "uint256",
							"name": "totalROIClaimed",
							"type": "uint256"
						},
						{
							"internalType": "uint256",
							"name": "targetROI",
							"type": "uint256"
						},
						{
							"internalType": "uint256",
							"name": "lastClaimedAt",
							"type": "uint256"
						},
						{
							"internalType": "bool",
							"name": "distributed",
							"type": "bool"
						},
						{
							"internalType": "uint256",
							"name": "refToken",
							"type": "uint256"
						},
						{
							"internalType": "uint256",
							"name": "teambusiness",
							"type": "uint256"
						}
					],
					"stateMutability": "view",
					"type": "function"
				},
				{
					"inputs": [],
					"name": "realToken",
					"outputs": [
						{
							"internalType": "contract IERC20",
							"name": "",
							"type": "address"
						}
					],
					"stateMutability": "view",
					"type": "function"
				},
				{
					"inputs": [
						{
							"internalType": "address",
							"name": "_referrer",
							"type": "address"
						}
					],
					"name": "registrationEx",
					"outputs": [],
					"stateMutability": "nonpayable",
					"type": "function"
				},
				{
					"inputs": [
						{
							"internalType": "address",
							"name": "_referrer",
							"type": "address"
						}
					],
					"name": "registrationExInvst",
					"outputs": [],
					"stateMutability": "nonpayable",
					"type": "function"
				},
				{
					"inputs": [
						{
							"internalType": "address",
							"name": "useradd",
							"type": "address"
						}
					],
					"name": "seeHistroyArx",
					"outputs": [
						{
							"components": [
								{
									"internalType": "uint256",
									"name": "usdt",
									"type": "uint256"
								},
								{
									"internalType": "uint256",
									"name": "arx",
									"type": "uint256"
								},
								{
									"internalType": "uint256",
									"name": "timestamp",
									"type": "uint256"
								}
							],
							"internalType": "struct ArcanixICO.DetailsICO[]",
							"name": "",
							"type": "tuple[]"
						}
					],
					"stateMutability": "view",
					"type": "function"
				},
				{
					"inputs": [
						{
							"internalType": "address",
							"name": "useradd",
							"type": "address"
						},
						{
							"internalType": "uint256",
							"name": "plan",
							"type": "uint256"
						}
					],
					"name": "seeHistroyInvst",
					"outputs": [
						{
							"components": [
								{
									"internalType": "uint256",
									"name": "usdtAmount",
									"type": "uint256"
								},
								{
									"internalType": "uint256",
									"name": "plan",
									"type": "uint256"
								},
								{
									"internalType": "uint256",
									"name": "timestamp",
									"type": "uint256"
								},
								{
									"internalType": "uint256",
									"name": "roiPercent",
									"type": "uint256"
								},
								{
									"internalType": "uint256",
									"name": "claimedROI",
									"type": "uint256"
								},
								{
									"internalType": "bool",
									"name": "stakestatus",
									"type": "bool"
								}
							],
							"internalType": "struct ArcanixICO.Details[]",
							"name": "",
							"type": "tuple[]"
						}
					],
					"stateMutability": "view",
					"type": "function"
				},
				{
					"inputs": [
						{
							"internalType": "address",
							"name": "_realToken",
							"type": "address"
						}
					],
					"name": "setRealToken",
					"outputs": [],
					"stateMutability": "nonpayable",
					"type": "function"
				},
				{
					"inputs": [],
					"name": "usdtToken",
					"outputs": [
						{
							"internalType": "contract IERC20",
							"name": "",
							"type": "address"
						}
					],
					"stateMutability": "view",
					"type": "function"
				},
				{
					"inputs": [],
					"name": "withdrawUSDT",
					"outputs": [],
					"stateMutability": "nonpayable",
					"type": "function"
				}
			],
			"devdoc": {
				"kind": "dev",
				"methods": {},
				"version": 1
			},
			"evm": {
				"assembly": "    /* \"arcanix.sol\":1170:22067  contract ArcanixICO is Initializable {... */\n  mstore(0x40, 0x80)\n  callvalue\n  dup1\n  iszero\n  tag_1\n  jumpi\n  revert(0x00, 0x00)\ntag_1:\n  pop\n  dataSize(sub_0)\n  dup1\n  dataOffset(sub_0)\n  0x00\n  codecopy\n  0x00\n  return\nstop\n\nsub_0: assembly {\n        /* \"arcanix.sol\":1170:22067  contract ArcanixICO is Initializable {... */\n      mstore(0x40, 0x80)\n      callvalue\n      dup1\n      iszero\n      tag_1\n      jumpi\n      revert(0x00, 0x00)\n    tag_1:\n      pop\n      jumpi(tag_2, lt(calldatasize, 0x04))\n      shr(0xe0, calldataload(0x00))\n      dup1\n      0x76636e5a\n      gt\n      tag_30\n      jumpi\n      dup1\n      0xa9510e82\n      gt\n      tag_31\n      jumpi\n      dup1\n      0xbed24c24\n      gt\n      tag_32\n      jumpi\n      dup1\n      0xbed24c24\n      eq\n      tag_26\n      jumpi\n      dup1\n      0xc4d66de8\n      eq\n      tag_27\n      jumpi\n      dup1\n      0xe8db280c\n      eq\n      tag_28\n      jumpi\n      dup1\n      0xfd6ef0de\n      eq\n      tag_29\n      jumpi\n      revert(0x00, 0x00)\n    tag_32:\n      dup1\n      0xa9510e82\n      eq\n      tag_23\n      jumpi\n      dup1\n      0xa98ad46c\n      eq\n      tag_24\n      jumpi\n      dup1\n      0xbbf7f772\n      eq\n      tag_25\n      jumpi\n      revert(0x00, 0x00)\n    tag_31:\n      dup1\n      0x8da5cb5b\n      gt\n      tag_33\n      jumpi\n      dup1\n      0x8da5cb5b\n      eq\n      tag_19\n      jumpi\n      dup1\n      0x98232a38\n      eq\n      tag_20\n      jumpi\n      dup1\n      0x9a29647d\n      eq\n      tag_21\n      jumpi\n      dup1\n      0xa275999c\n      eq\n      tag_22\n      jumpi\n      revert(0x00, 0x00)\n    tag_33:\n      dup1\n      0x76636e5a\n      eq\n      tag_16\n      jumpi\n      dup1\n      0x838a1b6d\n      eq\n      tag_17\n      jumpi\n      dup1\n      0x842a77d3\n      eq\n      tag_18\n      jumpi\n      revert(0x00, 0x00)\n    tag_30:\n      dup1\n      0x3f0d55fe\n      gt\n      tag_34\n      jumpi\n      dup1\n      0x509222cd\n      gt\n      tag_35\n      jumpi\n      dup1\n      0x509222cd\n      eq\n      tag_12\n      jumpi\n      dup1\n      0x59450a58\n      eq\n      tag_13\n      jumpi\n      dup1\n      0x664e9704\n      eq\n      tag_14\n      jumpi\n      dup1\n      0x6d704b94\n      eq\n      tag_15\n      jumpi\n      revert(0x00, 0x00)\n    tag_35:\n      dup1\n      0x3f0d55fe\n      eq\n      tag_9\n      jumpi\n      dup1\n      0x416b09dc\n      eq\n      tag_10\n      jumpi\n      dup1\n      0x44dd5e7a\n      eq\n      tag_11\n      jumpi\n      revert(0x00, 0x00)\n    tag_34:\n      dup1\n      0x21c82e68\n      eq\n      tag_3\n      jumpi\n      dup1\n      0x21f8c27d\n      eq\n      tag_4\n      jumpi\n      dup1\n      0x2a2d0c47\n      eq\n      tag_5\n      jumpi\n      dup1\n      0x348d4487\n      eq\n      tag_6\n      jumpi\n      dup1\n      0x3610724e\n      eq\n      tag_7\n      jumpi\n      dup1\n      0x362e496b\n      eq\n      tag_8\n      jumpi\n    tag_2:\n      revert(0x00, 0x00)\n        /* \"arcanix.sol\":13713:15102  function claimDailyROI3(uint256 plan) external {... */\n    tag_3:\n      tag_36\n      tag_37\n      calldatasize\n      0x04\n      tag_38\n      jump\t// in\n    tag_37:\n      tag_39\n      jump\t// in\n    tag_36:\n      stop\n        /* \"arcanix.sol\":21519:21766  function isUserExistsInvst(address _user) public view returns (bool) {... */\n    tag_4:\n      tag_40\n      tag_41\n      calldatasize\n      0x04\n      tag_42\n      jump\t// in\n    tag_41:\n      tag_43\n      jump\t// in\n    tag_40:\n      mload(0x40)\n        /* \"#utility.yul\":779:793   */\n      swap1\n      iszero\n        /* \"#utility.yul\":772:794   */\n      iszero\n        /* \"#utility.yul\":754:795   */\n      dup2\n      mstore\n        /* \"#utility.yul\":742:744   */\n      0x20\n        /* \"#utility.yul\":727:745   */\n      add\n        /* \"arcanix.sol\":21519:21766  function isUserExistsInvst(address _user) public view returns (bool) {... */\n    tag_44:\n      mload(0x40)\n      dup1\n      swap2\n      sub\n      swap1\n      return\n        /* \"arcanix.sol\":2240:2283  mapping(uint => address) public idToAddress */\n    tag_5:\n      tag_46\n      tag_47\n      calldatasize\n      0x04\n      tag_38\n      jump\t// in\n    tag_47:\n      mstore(0x20, 0x07)\n      0x00\n      swap1\n      dup2\n      mstore\n      0x40\n      swap1\n      keccak256\n      sload\n      sub(shl(0xa0, 0x01), 0x01)\n      and\n      dup2\n      jump\n    tag_46:\n      mload(0x40)\n      sub(shl(0xa0, 0x01), 0x01)\n        /* \"#utility.yul\":970:1002   */\n      swap1\n      swap2\n      and\n        /* \"#utility.yul\":952:1003   */\n      dup2\n      mstore\n        /* \"#utility.yul\":940:942   */\n      0x20\n        /* \"#utility.yul\":925:943   */\n      add\n        /* \"arcanix.sol\":2240:2283  mapping(uint => address) public idToAddress */\n      tag_44\n        /* \"#utility.yul\":806:1009   */\n      jump\n        /* \"arcanix.sol\":1358:1380  uint public lastUserId */\n    tag_6:\n      tag_51\n      sload(0x03)\n      dup2\n      jump\n    tag_51:\n      mload(0x40)\n        /* \"#utility.yul\":1160:1185   */\n      swap1\n      dup2\n      mstore\n        /* \"#utility.yul\":1148:1150   */\n      0x20\n        /* \"#utility.yul\":1133:1151   */\n      add\n        /* \"arcanix.sol\":1358:1380  uint public lastUserId */\n      tag_44\n        /* \"#utility.yul\":1014:1191   */\n      jump\n        /* \"arcanix.sol\":9746:10652  function buyTokens(uint256 usdtAmount) external {... */\n    tag_7:\n      tag_36\n      tag_56\n      calldatasize\n      0x04\n      tag_38\n      jump\t// in\n    tag_56:\n      tag_57\n      jump\t// in\n        /* \"arcanix.sol\":19662:19899  function withdrawUSDT() external onlyOwner {... */\n    tag_8:\n      tag_36\n      tag_59\n      jump\t// in\n        /* \"arcanix.sol\":18101:19410  function claimCapital(uint8 plan, uint investId) external {... */\n    tag_9:\n      tag_36\n      tag_61\n      calldatasize\n      0x04\n      tag_62\n      jump\t// in\n    tag_61:\n      tag_63\n      jump\t// in\n        /* \"arcanix.sol\":19960:20196  function setRealToken(address _realToken) external onlyOwner {... */\n    tag_10:\n      tag_36\n      tag_65\n      calldatasize\n      0x04\n      tag_42\n      jump\t// in\n    tag_65:\n      tag_66\n      jump\t// in\n        /* \"arcanix.sol\":12327:13703  function claimDailyROI2(uint256 plan) external {... */\n    tag_11:\n      tag_36\n      tag_68\n      calldatasize\n      0x04\n      tag_38\n      jump\t// in\n    tag_68:\n      tag_69\n      jump\t// in\n        /* \"arcanix.sol\":21401:21513  function isUserExists(address _user) public view returns (bool) {... */\n    tag_12:\n      tag_40\n      tag_71\n      calldatasize\n      0x04\n      tag_42\n      jump\t// in\n    tag_71:\n      sub(shl(0xa0, 0x01), 0x01)\n        /* \"arcanix.sol\":21482:21498  purchases[_user] */\n      and\n        /* \"arcanix.sol\":21459:21463  bool */\n      0x00\n        /* \"arcanix.sol\":21482:21498  purchases[_user] */\n      swap1\n      dup2\n      mstore\n        /* \"arcanix.sol\":21482:21491  purchases */\n      0x06\n        /* \"arcanix.sol\":21482:21498  purchases[_user] */\n      0x20\n      mstore\n      0x40\n      swap1\n      keccak256\n        /* \"arcanix.sol\":21482:21501  purchases[_user].id */\n      sload\n        /* \"arcanix.sol\":21482:21506  purchases[_user].id != 0 */\n      iszero\n      iszero\n      swap1\n        /* \"arcanix.sol\":21401:21513  function isUserExists(address _user) public view returns (bool) {... */\n      jump\n        /* \"arcanix.sol\":16741:18095  function getCurrentClaimableROI(address _user) external view returns (uint256) {... */\n    tag_13:\n      tag_51\n      tag_75\n      calldatasize\n      0x04\n      tag_42\n      jump\t// in\n    tag_75:\n      tag_76\n      jump\t// in\n        /* \"arcanix.sol\":1239:1271  uint256 public constant RATE = 2 */\n    tag_14:\n      tag_51\n        /* \"arcanix.sol\":1270:1271  2 */\n      0x02\n        /* \"arcanix.sol\":1239:1271  uint256 public constant RATE = 2 */\n      dup2\n      jump\n        /* \"arcanix.sol\":4908:5022  function registrationExInvst(address _referrer) external {... */\n    tag_15:\n      tag_36\n      tag_82\n      calldatasize\n      0x04\n      tag_42\n      jump\t// in\n    tag_82:\n      tag_83\n      jump\t// in\n        /* \"arcanix.sol\":1329:1352  IERC20 public realToken */\n    tag_16:\n      sload(0x02)\n      tag_46\n      swap1\n      sub(shl(0xa0, 0x01), 0x01)\n      and\n      dup2\n      jump\n        /* \"arcanix.sol\":21772:21922  function seeHistroyInvst(address useradd, uint plan) external view returns (Details[] memory) {... */\n    tag_17:\n      tag_88\n      tag_89\n      calldatasize\n      0x04\n      tag_90\n      jump\t// in\n    tag_89:\n      tag_91\n      jump\t// in\n    tag_88:\n      mload(0x40)\n      tag_44\n      swap2\n      swap1\n      tag_93\n      jump\t// in\n        /* \"arcanix.sol\":2189:2234  mapping(address => Purchase) public purchases */\n    tag_18:\n      tag_94\n      tag_95\n      calldatasize\n      0x04\n      tag_42\n      jump\t// in\n    tag_95:\n      0x06\n      0x20\n      dup2\n      swap1\n      mstore\n      0x00\n      swap2\n      dup3\n      mstore\n      0x40\n      swap1\n      swap2\n      keccak256\n      dup1\n      sload\n      0x01\n      dup3\n      add\n      sload\n      0x02\n      dup4\n      add\n      sload\n      0x03\n      dup5\n      add\n      sload\n      0x04\n      dup6\n      add\n      sload\n      0x05\n      dup7\n      add\n      sload\n      swap7\n      dup7\n      add\n      sload\n      0x07\n      dup8\n      add\n      sload\n      0x08\n      dup9\n      add\n      sload\n      0x09\n      dup10\n      add\n      sload\n      0x0a\n      dup11\n      add\n      sload\n      0x0b\n      dup12\n      add\n      sload\n      0x0c\n      swap1\n      swap12\n      add\n      sload\n      swap10\n      swap12\n      sub(shl(0xa0, 0x01), 0x01)\n      swap10\n      dup11\n      and\n      swap12\n      swap10\n      swap1\n      swap9\n      and\n      swap10\n      swap7\n      swap9\n      swap6\n      swap8\n      swap7\n      swap5\n      swap6\n      swap4\n      swap5\n      swap3\n      swap4\n      swap2\n      swap3\n      0xff\n      swap1\n      swap2\n      and\n      swap2\n      swap1\n      dup14\n      jump\n    tag_94:\n      0x40\n      dup1\n      mload\n        /* \"#utility.yul\":3655:3680   */\n      swap14\n      dup15\n      mstore\n      sub(shl(0xa0, 0x01), 0x01)\n        /* \"#utility.yul\":3716:3748   */\n      swap13\n      dup14\n      and\n        /* \"#utility.yul\":3711:3713   */\n      0x20\n        /* \"#utility.yul\":3696:3714   */\n      dup16\n      add\n        /* \"#utility.yul\":3689:3749   */\n      mstore\n        /* \"#utility.yul\":3785:3817   */\n      swap11\n      swap1\n      swap12\n      and\n        /* \"#utility.yul\":3765:3783   */\n      swap10\n      dup13\n      add\n        /* \"#utility.yul\":3758:3818   */\n      swap10\n      swap1\n      swap10\n      mstore\n        /* \"#utility.yul\":3849:3851   */\n      0x60\n        /* \"#utility.yul\":3834:3852   */\n      dup12\n      add\n        /* \"#utility.yul\":3827:3861   */\n      swap8\n      swap1\n      swap8\n      mstore\n        /* \"#utility.yul\":3892:3895   */\n      0x80\n        /* \"#utility.yul\":3877:3896   */\n      dup11\n      add\n        /* \"#utility.yul\":3870:3905   */\n      swap6\n      swap1\n      swap6\n      mstore\n        /* \"#utility.yul\":3736:3739   */\n      0xa0\n        /* \"#utility.yul\":3921:3940   */\n      dup10\n      add\n        /* \"#utility.yul\":3914:3949   */\n      swap4\n      swap1\n      swap4\n      mstore\n        /* \"#utility.yul\":3980:3983   */\n      0xc0\n        /* \"#utility.yul\":3965:3984   */\n      dup9\n      add\n        /* \"#utility.yul\":3958:3993   */\n      swap2\n      swap1\n      swap2\n      mstore\n        /* \"#utility.yul\":4024:4027   */\n      0xe0\n        /* \"#utility.yul\":4009:4028   */\n      dup8\n      add\n        /* \"#utility.yul\":4002:4037   */\n      mstore\n        /* \"#utility.yul\":4068:4071   */\n      0x0100\n        /* \"#utility.yul\":4053:4072   */\n      dup7\n      add\n        /* \"#utility.yul\":4046:4081   */\n      mstore\n        /* \"#utility.yul\":4112:4115   */\n      0x0120\n        /* \"#utility.yul\":4097:4116   */\n      dup6\n      add\n        /* \"#utility.yul\":4090:4125   */\n      mstore\n        /* \"#utility.yul\":4169:4184   */\n      iszero\n        /* \"#utility.yul\":4162:4185   */\n      iszero\n        /* \"#utility.yul\":4156:4159   */\n      0x0140\n        /* \"#utility.yul\":4141:4160   */\n      dup5\n      add\n        /* \"#utility.yul\":4134:4186   */\n      mstore\n        /* \"#utility.yul\":4217:4220   */\n      0x0160\n        /* \"#utility.yul\":4202:4221   */\n      dup4\n      add\n        /* \"#utility.yul\":4195:4231   */\n      mstore\n        /* \"#utility.yul\":4262:4265   */\n      0x0180\n        /* \"#utility.yul\":4247:4266   */\n      dup3\n      add\n        /* \"#utility.yul\":4240:4276   */\n      mstore\n        /* \"#utility.yul\":3642:3645   */\n      0x01a0\n        /* \"#utility.yul\":3627:3646   */\n      add\n        /* \"arcanix.sol\":2189:2234  mapping(address => Purchase) public purchases */\n      tag_44\n        /* \"#utility.yul\":3175:4282   */\n      jump\n        /* \"arcanix.sol\":1213:1233  address public owner */\n    tag_19:\n      sload(0x00)\n      tag_46\n      swap1\n      0x010000\n      swap1\n      div\n      sub(shl(0xa0, 0x01), 0x01)\n      and\n      dup2\n      jump\n        /* \"arcanix.sol\":5028:7769  function arxinvest(uint256 usdtAmount, uint8 plan) external {... */\n    tag_20:\n      tag_36\n      tag_103\n      calldatasize\n      0x04\n      tag_104\n      jump\t// in\n    tag_103:\n      tag_105\n      jump\t// in\n        /* \"arcanix.sol\":4797:4901  function registrationEx(address _referrer) external {... */\n    tag_21:\n      tag_36\n      tag_107\n      calldatasize\n      0x04\n      tag_42\n      jump\t// in\n    tag_107:\n      tag_108\n      jump\t// in\n        /* \"arcanix.sol\":19416:19656  function getPurchase(address user) external view returns (uint256 usdtSpent, uint256 tokensReceived, bool distributed) {... */\n    tag_22:\n      tag_109\n      tag_110\n      calldatasize\n      0x04\n      tag_42\n      jump\t// in\n    tag_110:\n      sub(shl(0xa0, 0x01), 0x01)\n        /* \"arcanix.sol\":19566:19581  purchases[user] */\n      and\n        /* \"arcanix.sol\":19474:19491  uint256 usdtSpent */\n      0x00\n        /* \"arcanix.sol\":19566:19581  purchases[user] */\n      swap1\n      dup2\n      mstore\n        /* \"arcanix.sol\":19566:19575  purchases */\n      0x06\n        /* \"arcanix.sol\":19566:19581  purchases[user] */\n      0x20\n      dup2\n      swap1\n      mstore\n      0x40\n      swap1\n      swap2\n      keccak256\n        /* \"arcanix.sol\":19599:19615  p.usdtSpentinvst */\n      0x05\n      dup2\n      add\n      sload\n        /* \"arcanix.sol\":19617:19633  p.tokensReceived */\n      swap2\n      dup2\n      add\n      sload\n        /* \"arcanix.sol\":19635:19648  p.distributed */\n      0x0a\n      swap1\n      swap2\n      add\n      sload\n        /* \"arcanix.sol\":19599:19615  p.usdtSpentinvst */\n      swap2\n      swap3\n        /* \"arcanix.sol\":19617:19633  p.tokensReceived */\n      swap1\n      swap2\n        /* \"arcanix.sol\":19635:19648  p.distributed */\n      0xff\n      and\n      swap1\n        /* \"arcanix.sol\":19416:19656  function getPurchase(address user) external view returns (uint256 usdtSpent, uint256 tokensReceived, bool distributed) {... */\n      jump\n    tag_109:\n      0x40\n      dup1\n      mload\n        /* \"#utility.yul\":4784:4809   */\n      swap4\n      dup5\n      mstore\n        /* \"#utility.yul\":4840:4842   */\n      0x20\n        /* \"#utility.yul\":4825:4843   */\n      dup5\n      add\n        /* \"#utility.yul\":4818:4852   */\n      swap3\n      swap1\n      swap3\n      mstore\n        /* \"#utility.yul\":4895:4909   */\n      iszero\n        /* \"#utility.yul\":4888:4910   */\n      iszero\n        /* \"#utility.yul\":4868:4886   */\n      swap1\n      dup3\n      add\n        /* \"#utility.yul\":4861:4911   */\n      mstore\n        /* \"#utility.yul\":4772:4774   */\n      0x60\n        /* \"#utility.yul\":4757:4775   */\n      add\n        /* \"arcanix.sol\":19416:19656  function getPurchase(address user) external view returns (uint256 usdtSpent, uint256 tokensReceived, bool distributed) {... */\n      tag_44\n        /* \"#utility.yul\":4588:4917   */\n      jump\n        /* \"arcanix.sol\":10696:12317  function claimDailyROI() external {... */\n    tag_23:\n      tag_36\n      tag_115\n      jump\t// in\n        /* \"arcanix.sol\":1300:1323  IERC20 public usdtToken */\n    tag_24:\n      sload(0x01)\n      tag_46\n      swap1\n      sub(shl(0xa0, 0x01), 0x01)\n      and\n      dup2\n      jump\n        /* \"arcanix.sol\":20260:20759  function adminDistributeRealTokens(address user) external onlyOwner {... */\n    tag_25:\n      tag_36\n      tag_120\n      calldatasize\n      0x04\n      tag_42\n      jump\t// in\n    tag_120:\n      tag_121\n      jump\t// in\n        /* \"arcanix.sol\":20828:21395  function batchDistribute(address[] calldata users) external onlyOwner {... */\n    tag_26:\n      tag_36\n      tag_123\n      calldatasize\n      0x04\n      tag_124\n      jump\t// in\n    tag_123:\n      tag_125\n      jump\t// in\n        /* \"arcanix.sol\":3177:3525  function initialize(address _usdtAddress) public initializer {... */\n    tag_27:\n      tag_36\n      tag_127\n      calldatasize\n      0x04\n      tag_42\n      jump\t// in\n    tag_127:\n      tag_128\n      jump\t// in\n        /* \"arcanix.sol\":15112:16731  function getROIBreakdown(address user, uint plan) external view returns (... */\n    tag_28:\n      tag_129\n      tag_130\n      calldatasize\n      0x04\n      tag_90\n      jump\t// in\n    tag_130:\n      tag_131\n      jump\t// in\n    tag_129:\n      mload(0x40)\n      tag_44\n      swap6\n      swap5\n      swap4\n      swap3\n      swap2\n      swap1\n      tag_133\n      jump\t// in\n        /* \"arcanix.sol\":21928:22065  function seeHistroyArx(address useradd) external view returns (DetailsICO[] memory) {... */\n    tag_29:\n      tag_134\n      tag_135\n      calldatasize\n      0x04\n      tag_42\n      jump\t// in\n    tag_135:\n      tag_136\n      jump\t// in\n    tag_134:\n      mload(0x40)\n      tag_44\n      swap2\n      swap1\n      tag_138\n      jump\t// in\n        /* \"arcanix.sol\":13713:15102  function claimDailyROI3(uint256 plan) external {... */\n    tag_39:\n        /* \"arcanix.sol\":13782:13786  plan */\n      dup1\n        /* \"arcanix.sol\":13790:13791  4 */\n      0x04\n        /* \"arcanix.sol\":13782:13791  plan == 4 */\n      eq\n        /* \"arcanix.sol\":13782:13804  plan == 4 || plan == 5 */\n      dup1\n      tag_140\n      jumpi\n      pop\n        /* \"arcanix.sol\":13795:13799  plan */\n      dup1\n        /* \"arcanix.sol\":13803:13804  5 */\n      0x05\n        /* \"arcanix.sol\":13795:13804  plan == 5 */\n      eq\n        /* \"arcanix.sol\":13782:13804  plan == 4 || plan == 5 */\n    tag_140:\n        /* \"arcanix.sol\":13774:13827  require(plan == 4 || plan == 5, \"Invalid Claim Plan\") */\n      tag_141\n      jumpi\n      mload(0x40)\n      shl(0xe5, 0x461bcd)\n      dup2\n      mstore\n        /* \"#utility.yul\":8059:8061   */\n      0x20\n        /* \"arcanix.sol\":13774:13827  require(plan == 4 || plan == 5, \"Invalid Claim Plan\") */\n      0x04\n      dup3\n      add\n        /* \"#utility.yul\":8041:8062   */\n      mstore\n        /* \"#utility.yul\":8098:8100   */\n      0x12\n        /* \"#utility.yul\":8078:8096   */\n      0x24\n      dup3\n      add\n        /* \"#utility.yul\":8071:8101   */\n      mstore\n      shl(0x71, 0x24b73b30b634b21021b630b4b690283630b7)\n        /* \"#utility.yul\":8117:8135   */\n      0x44\n      dup3\n      add\n        /* \"#utility.yul\":8110:8158   */\n      mstore\n        /* \"#utility.yul\":8175:8193   */\n      0x64\n      add\n        /* \"arcanix.sol\":13774:13827  require(plan == 4 || plan == 5, \"Invalid Claim Plan\") */\n    tag_142:\n      mload(0x40)\n      dup1\n      swap2\n      sub\n      swap1\n      revert\n    tag_141:\n        /* \"arcanix.sol\":13872:13882  msg.sender */\n      caller\n        /* \"arcanix.sol\":13841:13859  Purchase storage p */\n      0x00\n        /* \"arcanix.sol\":13862:13883  purchases[msg.sender] */\n      swap1\n      dup2\n      mstore\n        /* \"arcanix.sol\":13862:13871  purchases */\n      0x06\n        /* \"arcanix.sol\":13862:13883  purchases[msg.sender] */\n      0x20\n      mstore\n      0x40\n      swap1\n      keccak256\n        /* \"arcanix.sol\":13905:13921  p.usdtSpentinvst */\n      0x05\n      dup2\n      add\n      sload\n        /* \"arcanix.sol\":13897:13943  require(p.usdtSpentinvst > 0, \"No investment\") */\n      tag_144\n      jumpi\n      mload(0x40)\n      shl(0xe5, 0x461bcd)\n      dup2\n      mstore\n      0x04\n      add\n      tag_142\n      swap1\n      tag_146\n      jump\t// in\n    tag_144:\n        /* \"arcanix.sol\":13958:13976  uint256 totalClaim */\n      0x00\n        /* \"arcanix.sol\":14022:14037  p._detail[plan] */\n      dup3\n      dup2\n      mstore\n        /* \"arcanix.sol\":14022:14031  p._detail */\n      0x0d\n      dup3\n      add\n        /* \"arcanix.sol\":14022:14037  p._detail[plan] */\n      0x20\n      mstore\n      0x40\n      dup2\n      keccak256\n        /* \"arcanix.sol\":13958:13976  uint256 totalClaim */\n      dup2\n        /* \"arcanix.sol\":14052:14855  for (uint256 i = 0; i < details.length; i++) {... */\n    tag_147:\n        /* \"arcanix.sol\":14076:14090  details.length */\n      dup2\n      sload\n        /* \"arcanix.sol\":14072:14090  i < details.length */\n      dup2\n      lt\n        /* \"arcanix.sol\":14052:14855  for (uint256 i = 0; i < details.length; i++) {... */\n      iszero\n      tag_148\n      jumpi\n        /* \"arcanix.sol\":14115:14132  Details storage d */\n      0x00\n        /* \"arcanix.sol\":14135:14142  details */\n      dup3\n        /* \"arcanix.sol\":14143:14144  i */\n      dup3\n        /* \"arcanix.sol\":14135:14145  details[i] */\n      dup2\n      sload\n      dup2\n      lt\n      tag_151\n      jumpi\n      tag_151\n      tag_152\n      jump\t// in\n    tag_151:\n      0x00\n      swap2\n      dup3\n      mstore\n      0x20\n      swap1\n      swap2\n      keccak256\n      0x06\n      swap1\n      swap2\n      mul\n      add\n        /* \"arcanix.sol\":14185:14198  d.stakestatus */\n      0x05\n      dup2\n      add\n      sload\n        /* \"arcanix.sol\":14135:14145  details[i] */\n      swap1\n      swap2\n      pop\n        /* \"arcanix.sol\":14185:14198  d.stakestatus */\n      0xff\n      and\n        /* \"arcanix.sol\":14180:14249  if (!d.stakestatus) {... */\n      tag_154\n      jumpi\n        /* \"arcanix.sol\":14222:14230  continue */\n      pop\n      jump(tag_149)\n        /* \"arcanix.sol\":14180:14249  if (!d.stakestatus) {... */\n    tag_154:\n        /* \"arcanix.sol\":14321:14342  uint256 minutesPassed */\n      0x00\n        /* \"arcanix.sol\":14379:14385  1 days */\n      0x015180\n        /* \"arcanix.sol\":14364:14365  d */\n      dup3\n        /* \"arcanix.sol\":14364:14375  d.timestamp */\n      0x02\n      add\n      sload\n        /* \"arcanix.sol\":14346:14361  block.timestamp */\n      timestamp\n        /* \"arcanix.sol\":14346:14375  block.timestamp - d.timestamp */\n      tag_155\n      swap2\n      swap1\n      tag_156\n      jump\t// in\n    tag_155:\n        /* \"arcanix.sol\":14345:14385  (block.timestamp - d.timestamp) / 1 days */\n      tag_157\n      swap2\n      swap1\n      tag_158\n      jump\t// in\n    tag_157:\n        /* \"arcanix.sol\":14321:14385  uint256 minutesPassed = (block.timestamp - d.timestamp) / 1 days */\n      swap1\n      pop\n        /* \"arcanix.sol\":14404:14420  uint256 dailyROI */\n      0x00\n        /* \"arcanix.sol\":14455:14460  10000 */\n      0x2710\n        /* \"arcanix.sol\":14439:14440  d */\n      dup4\n        /* \"arcanix.sol\":14439:14451  d.roiPercent */\n      0x03\n      add\n      sload\n        /* \"arcanix.sol\":14424:14425  d */\n      dup5\n        /* \"arcanix.sol\":14424:14436  d.usdtAmount */\n      0x00\n      add\n      sload\n        /* \"arcanix.sol\":14424:14451  d.usdtAmount * d.roiPercent */\n      tag_159\n      swap2\n      swap1\n      tag_160\n      jump\t// in\n    tag_159:\n        /* \"arcanix.sol\":14423:14460  (d.usdtAmount * d.roiPercent) / 10000 */\n      tag_161\n      swap2\n      swap1\n      tag_158\n      jump\t// in\n    tag_161:\n        /* \"arcanix.sol\":14404:14460  uint256 dailyROI = (d.usdtAmount * d.roiPercent) / 10000 */\n      swap1\n      pop\n        /* \"arcanix.sol\":14497:14518  uint256 totalEligible */\n      0x00\n        /* \"arcanix.sol\":14521:14545  dailyROI * minutesPassed */\n      tag_162\n        /* \"arcanix.sol\":14532:14545  minutesPassed */\n      dup4\n        /* \"arcanix.sol\":14404:14460  uint256 dailyROI = (d.usdtAmount * d.roiPercent) / 10000 */\n      dup4\n        /* \"arcanix.sol\":14521:14545  dailyROI * minutesPassed */\n      tag_160\n      jump\t// in\n    tag_162:\n        /* \"arcanix.sol\":14497:14545  uint256 totalEligible = dailyROI * minutesPassed */\n      swap1\n      pop\n        /* \"arcanix.sol\":14640:14641  d */\n      dup4\n        /* \"arcanix.sol\":14640:14652  d.claimedROI */\n      0x04\n      add\n      sload\n        /* \"arcanix.sol\":14624:14637  totalEligible */\n      dup2\n        /* \"arcanix.sol\":14624:14652  totalEligible > d.claimedROI */\n      gt\n        /* \"arcanix.sol\":14620:14841  if (totalEligible > d.claimedROI) {... */\n      iszero\n      tag_163\n      jumpi\n        /* \"arcanix.sol\":14676:14695  uint256 actualClaim */\n      0x00\n        /* \"arcanix.sol\":14714:14715  d */\n      dup5\n        /* \"arcanix.sol\":14714:14726  d.claimedROI */\n      0x04\n      add\n      sload\n        /* \"arcanix.sol\":14698:14711  totalEligible */\n      dup3\n        /* \"arcanix.sol\":14698:14726  totalEligible - d.claimedROI */\n      tag_164\n      swap2\n      swap1\n      tag_156\n      jump\t// in\n    tag_164:\n        /* \"arcanix.sol\":14676:14726  uint256 actualClaim = totalEligible - d.claimedROI */\n      swap1\n      pop\n        /* \"arcanix.sol\":14764:14775  actualClaim */\n      dup1\n        /* \"arcanix.sol\":14748:14749  d */\n      dup6\n        /* \"arcanix.sol\":14748:14760  d.claimedROI */\n      0x04\n      add\n      0x00\n        /* \"arcanix.sol\":14748:14775  d.claimedROI += actualClaim */\n      dup3\n      dup3\n      sload\n      tag_165\n      swap2\n      swap1\n      tag_166\n      jump\t// in\n    tag_165:\n      swap1\n      swap2\n      sstore\n      pop\n        /* \"arcanix.sol\":14797:14822  totalClaim += actualClaim */\n      tag_167\n      swap1\n      pop\n        /* \"arcanix.sol\":14811:14822  actualClaim */\n      dup2\n        /* \"arcanix.sol\":14797:14822  totalClaim += actualClaim */\n      dup10\n      tag_166\n      jump\t// in\n    tag_167:\n      swap8\n      pop\n        /* \"arcanix.sol\":14654:14841  {... */\n      pop\n        /* \"arcanix.sol\":14620:14841  if (totalEligible > d.claimedROI) {... */\n    tag_163:\n        /* \"arcanix.sol\":14097:14855  {... */\n      pop\n      pop\n      pop\n      pop\n        /* \"arcanix.sol\":14052:14855  for (uint256 i = 0; i < details.length; i++) {... */\n    tag_149:\n        /* \"arcanix.sol\":14092:14095  i++ */\n      0x01\n      add\n        /* \"arcanix.sol\":14052:14855  for (uint256 i = 0; i < details.length; i++) {... */\n      jump(tag_147)\n    tag_148:\n      pop\n        /* \"arcanix.sol\":14877:14886  usdtToken */\n      sload(0x01)\n        /* \"arcanix.sol\":14877:14919  usdtToken.transfer(msg.sender, totalClaim) */\n      mload(0x40)\n      shl(0xe0, 0xa9059cbb)\n      dup2\n      mstore\n        /* \"arcanix.sol\":14896:14906  msg.sender */\n      caller\n        /* \"arcanix.sol\":14877:14919  usdtToken.transfer(msg.sender, totalClaim) */\n      0x04\n      dup3\n      add\n        /* \"#utility.yul\":9642:9693   */\n      mstore\n        /* \"#utility.yul\":9709:9727   */\n      0x24\n      dup2\n      add\n        /* \"#utility.yul\":9702:9736   */\n      dup5\n      swap1\n      mstore\n      sub(shl(0xa0, 0x01), 0x01)\n        /* \"arcanix.sol\":14877:14886  usdtToken */\n      swap1\n      swap2\n      and\n      swap1\n        /* \"arcanix.sol\":14877:14895  usdtToken.transfer */\n      0xa9059cbb\n      swap1\n        /* \"#utility.yul\":9615:9633   */\n      0x44\n      add\n        /* \"arcanix.sol\":14877:14919  usdtToken.transfer(msg.sender, totalClaim) */\n      0x20\n      mload(0x40)\n      dup1\n      dup4\n      sub\n      dup2\n      0x00\n      dup8\n      gas\n      call\n      iszero\n      dup1\n      iszero\n      tag_171\n      jumpi\n      returndatacopy(0x00, 0x00, returndatasize)\n      revert(0x00, returndatasize)\n    tag_171:\n      pop\n      pop\n      pop\n      pop\n      mload(0x40)\n      returndatasize\n      not(0x1f)\n      0x1f\n      dup3\n      add\n      and\n      dup3\n      add\n      dup1\n      0x40\n      mstore\n      pop\n      dup2\n      add\n      swap1\n      tag_172\n      swap2\n      swap1\n      tag_173\n      jump\t// in\n    tag_172:\n        /* \"arcanix.sol\":14869:14939  require(usdtToken.transfer(msg.sender, totalClaim), \"Transfer failed\") */\n      tag_174\n      jumpi\n      mload(0x40)\n      shl(0xe5, 0x461bcd)\n      dup2\n      mstore\n      0x04\n      add\n      tag_142\n      swap1\n      tag_176\n      jump\t// in\n    tag_174:\n        /* \"arcanix.sol\":14975:14985  totalClaim */\n      dup2\n        /* \"arcanix.sol\":14954:14955  p */\n      dup4\n        /* \"arcanix.sol\":14954:14971  p.totalROIClaimed */\n      0x07\n      add\n      0x00\n        /* \"arcanix.sol\":14954:14985  p.totalROIClaimed += totalClaim */\n      dup3\n      dup3\n      sload\n      tag_177\n      swap2\n      swap1\n      tag_166\n      jump\t// in\n    tag_177:\n      swap1\n      swap2\n      sstore\n      pop\n      pop\n        /* \"arcanix.sol\":15017:15032  block.timestamp */\n      timestamp\n        /* \"arcanix.sol\":14999:15014  p.lastClaimedAt */\n      0x09\n      dup5\n      add\n        /* \"arcanix.sol\":14999:15032  p.lastClaimedAt = block.timestamp */\n      sstore\n        /* \"arcanix.sol\":15052:15091  DailyROIClaimed(msg.sender, totalClaim) */\n      mload(0x40)\n        /* \"#utility.yul\":1160:1185   */\n      dup3\n      dup2\n      mstore\n        /* \"arcanix.sol\":15068:15078  msg.sender */\n      caller\n      swap1\n        /* \"arcanix.sol\":15052:15091  DailyROIClaimed(msg.sender, totalClaim) */\n      0x574c59dfd25e29ed9605f5accedb5aab0b989606855c61bf6fdcd0875ec8d4b5\n      swap1\n        /* \"#utility.yul\":1148:1150   */\n      0x20\n        /* \"#utility.yul\":1133:1151   */\n      add\n        /* \"arcanix.sol\":15052:15091  DailyROIClaimed(msg.sender, totalClaim) */\n      mload(0x40)\n      dup1\n      swap2\n      sub\n      swap1\n      log2\n        /* \"arcanix.sol\":13760:15102  {... */\n      pop\n      pop\n      pop\n        /* \"arcanix.sol\":13713:15102  function claimDailyROI3(uint256 plan) external {... */\n      pop\n      jump\t// out\n        /* \"arcanix.sol\":21519:21766  function isUserExistsInvst(address _user) public view returns (bool) {... */\n    tag_43:\n      sub(shl(0xa0, 0x01), 0x01)\n        /* \"arcanix.sol\":21601:21617  purchases[_user] */\n      dup2\n      dup2\n      and\n        /* \"arcanix.sol\":21582:21586  bool */\n      0x00\n        /* \"arcanix.sol\":21601:21617  purchases[_user] */\n      swap1\n      dup2\n      mstore\n        /* \"arcanix.sol\":21601:21610  purchases */\n      0x06\n        /* \"arcanix.sol\":21601:21617  purchases[_user] */\n      0x20\n      mstore\n      0x40\n      dup2\n      keccak256\n        /* \"arcanix.sol\":21601:21627  purchases[_user].invst_ref */\n      0x01\n      add\n      sload\n        /* \"arcanix.sol\":21582:21586  bool */\n      swap1\n      swap2\n        /* \"arcanix.sol\":21601:21627  purchases[_user].invst_ref */\n      and\n        /* \"arcanix.sol\":21601:21641  purchases[_user].invst_ref != address(0) */\n      iszero\n        /* \"arcanix.sol\":21598:21738  if(purchases[_user].invst_ref != address(0)){... */\n      tag_180\n      jumpi\n      pop\n        /* \"arcanix.sol\":21663:21667  true */\n      0x01\n      swap2\n        /* \"arcanix.sol\":21519:21766  function isUserExistsInvst(address _user) public view returns (bool) {... */\n      swap1\n      pop\n      jump\t// out\n        /* \"arcanix.sol\":21598:21738  if(purchases[_user].invst_ref != address(0)){... */\n    tag_180:\n        /* \"arcanix.sol\":21696:21701  owner */\n      sload(0x00)\n      sub(shl(0xa0, 0x01), 0x01)\n      0x010000\n      swap1\n      swap2\n      div\n      dup2\n      and\n        /* \"arcanix.sol\":21687:21701  _user == owner */\n      swap1\n      dup4\n      and\n      sub\n        /* \"arcanix.sol\":21684:21738  if(_user == owner){... */\n      tag_182\n      jumpi\n      pop\n        /* \"arcanix.sol\":21723:21727  true */\n      0x01\n      swap2\n        /* \"arcanix.sol\":21519:21766  function isUserExistsInvst(address _user) public view returns (bool) {... */\n      swap1\n      pop\n      jump\t// out\n        /* \"arcanix.sol\":21684:21738  if(_user == owner){... */\n    tag_182:\n      pop\n        /* \"arcanix.sol\":21754:21759  false */\n      0x00\n      swap2\n        /* \"arcanix.sol\":21519:21766  function isUserExistsInvst(address _user) public view returns (bool) {... */\n      swap1\n      pop\n      jump\t// out\n        /* \"arcanix.sol\":9746:10652  function buyTokens(uint256 usdtAmount) external {... */\n    tag_57:\n        /* \"arcanix.sol\":9834:9844  msg.sender */\n      caller\n        /* \"arcanix.sol\":21459:21463  bool */\n      0x00\n        /* \"arcanix.sol\":21482:21498  purchases[_user] */\n      swap1\n      dup2\n      mstore\n        /* \"arcanix.sol\":21482:21491  purchases */\n      0x06\n        /* \"arcanix.sol\":21482:21498  purchases[_user] */\n      0x20\n      mstore\n      0x40\n      swap1\n      keccak256\n        /* \"arcanix.sol\":21482:21501  purchases[_user].id */\n      sload\n        /* \"arcanix.sol\":9813:9869  require(isUserExists(msg.sender), \"User not registered\") */\n      tag_185\n      jumpi\n      mload(0x40)\n      shl(0xe5, 0x461bcd)\n      dup2\n      mstore\n        /* \"#utility.yul\":10575:10577   */\n      0x20\n        /* \"arcanix.sol\":9813:9869  require(isUserExists(msg.sender), \"User not registered\") */\n      0x04\n      dup3\n      add\n        /* \"#utility.yul\":10557:10578   */\n      mstore\n        /* \"#utility.yul\":10614:10616   */\n      0x13\n        /* \"#utility.yul\":10594:10612   */\n      0x24\n      dup3\n      add\n        /* \"#utility.yul\":10587:10617   */\n      mstore\n      shl(0x6a, 0x155cd95c881b9bdd081c9959da5cdd195c9959)\n        /* \"#utility.yul\":10633:10651   */\n      0x44\n      dup3\n      add\n        /* \"#utility.yul\":10626:10675   */\n      mstore\n        /* \"#utility.yul\":10692:10710   */\n      0x64\n      add\n        /* \"arcanix.sol\":9813:9869  require(isUserExists(msg.sender), \"User not registered\") */\n      tag_142\n        /* \"#utility.yul\":10373:10716   */\n      jump\n        /* \"arcanix.sol\":9813:9869  require(isUserExists(msg.sender), \"User not registered\") */\n    tag_185:\n        /* \"arcanix.sol\":9908:9909  0 */\n      0x00\n        /* \"arcanix.sol\":9895:9905  usdtAmount */\n      dup2\n        /* \"arcanix.sol\":9895:9909  usdtAmount > 0 */\n      gt\n        /* \"arcanix.sol\":9887:9932  require(usdtAmount > 0, \"Amount must be > 0\") */\n      tag_188\n      jumpi\n      mload(0x40)\n      shl(0xe5, 0x461bcd)\n      dup2\n      mstore\n        /* \"#utility.yul\":10923:10925   */\n      0x20\n        /* \"arcanix.sol\":9887:9932  require(usdtAmount > 0, \"Amount must be > 0\") */\n      0x04\n      dup3\n      add\n        /* \"#utility.yul\":10905:10926   */\n      mstore\n        /* \"#utility.yul\":10962:10964   */\n      0x12\n        /* \"#utility.yul\":10942:10960   */\n      0x24\n      dup3\n      add\n        /* \"#utility.yul\":10935:10965   */\n      mstore\n      shl(0x74, 0x0416d6f756e74206d757374206265203e203)\n        /* \"#utility.yul\":10981:10999   */\n      0x44\n      dup3\n      add\n        /* \"#utility.yul\":10974:11022   */\n      mstore\n        /* \"#utility.yul\":11039:11057   */\n      0x64\n      add\n        /* \"arcanix.sol\":9887:9932  require(usdtAmount > 0, \"Amount must be > 0\") */\n      tag_142\n        /* \"#utility.yul\":10721:11063   */\n      jump\n        /* \"arcanix.sol\":9887:9932  require(usdtAmount > 0, \"Amount must be > 0\") */\n    tag_188:\n        /* \"arcanix.sol\":9951:9960  usdtToken */\n      sload(0x01)\n        /* \"arcanix.sol\":9951:10012  usdtToken.transferFrom(msg.sender, address(this), usdtAmount) */\n      mload(0x40)\n      shl(0xe0, 0x23b872dd)\n      dup2\n      mstore\n        /* \"arcanix.sol\":9974:9984  msg.sender */\n      caller\n        /* \"arcanix.sol\":9951:10012  usdtToken.transferFrom(msg.sender, address(this), usdtAmount) */\n      0x04\n      dup3\n      add\n        /* \"#utility.yul\":11270:11321   */\n      mstore\n        /* \"arcanix.sol\":9994:9998  this */\n      address\n        /* \"#utility.yul\":11337:11355   */\n      0x24\n      dup3\n      add\n        /* \"#utility.yul\":11330:11390   */\n      mstore\n        /* \"#utility.yul\":11406:11424   */\n      0x44\n      dup2\n      add\n        /* \"#utility.yul\":11399:11433   */\n      dup4\n      swap1\n      mstore\n      sub(shl(0xa0, 0x01), 0x01)\n        /* \"arcanix.sol\":9951:9960  usdtToken */\n      swap1\n      swap2\n      and\n      swap1\n        /* \"arcanix.sol\":9951:9973  usdtToken.transferFrom */\n      0x23b872dd\n      swap1\n        /* \"#utility.yul\":11243:11261   */\n      0x64\n      add\n        /* \"arcanix.sol\":9951:10012  usdtToken.transferFrom(msg.sender, address(this), usdtAmount) */\n      0x20\n      mload(0x40)\n      dup1\n      dup4\n      sub\n      dup2\n      0x00\n      dup8\n      gas\n      call\n      iszero\n      dup1\n      iszero\n      tag_194\n      jumpi\n      returndatacopy(0x00, 0x00, returndatasize)\n      revert(0x00, returndatasize)\n    tag_194:\n      pop\n      pop\n      pop\n      pop\n      mload(0x40)\n      returndatasize\n      not(0x1f)\n      0x1f\n      dup3\n      add\n      and\n      dup3\n      add\n      dup1\n      0x40\n      mstore\n      pop\n      dup2\n      add\n      swap1\n      tag_195\n      swap2\n      swap1\n      tag_173\n      jump\t// in\n    tag_195:\n        /* \"arcanix.sol\":9943:10037  require(usdtToken.transferFrom(msg.sender, address(this), usdtAmount), \"USDT transfer failed\") */\n      tag_196\n      jumpi\n      mload(0x40)\n      shl(0xe5, 0x461bcd)\n      dup2\n      mstore\n        /* \"#utility.yul\":11646:11648   */\n      0x20\n        /* \"arcanix.sol\":9943:10037  require(usdtToken.transferFrom(msg.sender, address(this), usdtAmount), \"USDT transfer failed\") */\n      0x04\n      dup3\n      add\n        /* \"#utility.yul\":11628:11649   */\n      mstore\n        /* \"#utility.yul\":11685:11687   */\n      0x14\n        /* \"#utility.yul\":11665:11683   */\n      0x24\n      dup3\n      add\n        /* \"#utility.yul\":11658:11688   */\n      mstore\n      shl(0x62, 0x1554d115081d1c985b9cd9995c8819985a5b1959)\n        /* \"#utility.yul\":11704:11722   */\n      0x44\n      dup3\n      add\n        /* \"#utility.yul\":11697:11747   */\n      mstore\n        /* \"#utility.yul\":11764:11782   */\n      0x64\n      add\n        /* \"arcanix.sol\":9943:10037  require(usdtToken.transferFrom(msg.sender, address(this), usdtAmount), \"USDT transfer failed\") */\n      tag_142\n        /* \"#utility.yul\":11444:11788   */\n      jump\n        /* \"arcanix.sol\":9943:10037  require(usdtToken.transferFrom(msg.sender, address(this), usdtAmount), \"USDT transfer failed\") */\n    tag_196:\n        /* \"arcanix.sol\":10048:10067  uint256 tokenAmount */\n      0x00\n        /* \"arcanix.sol\":10070:10087  usdtAmount * RATE */\n      tag_199\n        /* \"arcanix.sol\":1270:1271  2 */\n      0x02\n        /* \"arcanix.sol\":10070:10080  usdtAmount */\n      dup4\n        /* \"arcanix.sol\":10070:10087  usdtAmount * RATE */\n      tag_160\n      jump\t// in\n    tag_199:\n        /* \"arcanix.sol\":10108:10118  msg.sender */\n      caller\n        /* \"arcanix.sol\":10098:10119  purchases[msg.sender] */\n      0x00\n      swap1\n      dup2\n      mstore\n        /* \"arcanix.sol\":10098:10107  purchases */\n      0x06\n        /* \"arcanix.sol\":10098:10119  purchases[msg.sender] */\n      0x20\n      mstore\n      0x40\n      dup2\n      keccak256\n        /* \"arcanix.sol\":10098:10132  purchases[msg.sender].usdtSpentico */\n      0x04\n      add\n        /* \"arcanix.sol\":10098:10146  purchases[msg.sender].usdtSpentico += usdtAmount */\n      dup1\n      sload\n        /* \"arcanix.sol\":10048:10087  uint256 tokenAmount = usdtAmount * RATE */\n      swap3\n      swap4\n      pop\n        /* \"arcanix.sol\":10136:10146  usdtAmount */\n      dup5\n      swap3\n        /* \"arcanix.sol\":10098:10132  purchases[msg.sender].usdtSpentico */\n      swap1\n      swap2\n        /* \"arcanix.sol\":10098:10119  purchases[msg.sender] */\n      swap1\n        /* \"arcanix.sol\":10098:10146  purchases[msg.sender].usdtSpentico += usdtAmount */\n      tag_200\n      swap1\n        /* \"arcanix.sol\":10136:10146  usdtAmount */\n      dup5\n      swap1\n        /* \"arcanix.sol\":10098:10146  purchases[msg.sender].usdtSpentico += usdtAmount */\n      tag_166\n      jump\t// in\n    tag_200:\n      swap1\n      swap2\n      sstore\n      pop\n      pop\n        /* \"arcanix.sol\":10166:10176  msg.sender */\n      caller\n        /* \"arcanix.sol\":10156:10177  purchases[msg.sender] */\n      0x00\n      swap1\n      dup2\n      mstore\n        /* \"arcanix.sol\":10156:10165  purchases */\n      0x06\n        /* \"arcanix.sol\":10156:10177  purchases[msg.sender] */\n      0x20\n      dup2\n      swap1\n      mstore\n      0x40\n      dup3\n      keccak256\n        /* \"arcanix.sol\":10156:10192  purchases[msg.sender].tokensReceived */\n      add\n        /* \"arcanix.sol\":10156:10207  purchases[msg.sender].tokensReceived += tokenAmount */\n      dup1\n      sload\n        /* \"arcanix.sol\":10196:10207  tokenAmount */\n      dup4\n      swap3\n        /* \"arcanix.sol\":10156:10177  purchases[msg.sender] */\n      swap1\n        /* \"arcanix.sol\":10156:10207  purchases[msg.sender].tokensReceived += tokenAmount */\n      tag_201\n      swap1\n        /* \"arcanix.sol\":10196:10207  tokenAmount */\n      dup5\n      swap1\n        /* \"arcanix.sol\":10156:10207  purchases[msg.sender].tokensReceived += tokenAmount */\n      tag_166\n      jump\t// in\n    tag_201:\n      swap1\n      swap2\n      sstore\n      pop\n        /* \"arcanix.sol\":10295:10298  100 */\n      0x64\n      swap1\n      pop\n        /* \"arcanix.sol\":10278:10291  tokenAmount*5 */\n      tag_202\n        /* \"arcanix.sol\":10278:10289  tokenAmount */\n      dup3\n        /* \"arcanix.sol\":10290:10291  5 */\n      0x05\n        /* \"arcanix.sol\":10278:10291  tokenAmount*5 */\n      tag_160\n      jump\t// in\n    tag_202:\n        /* \"arcanix.sol\":10277:10298  (tokenAmount*5) / 100 */\n      tag_203\n      swap2\n      swap1\n      tag_158\n      jump\t// in\n    tag_203:\n        /* \"arcanix.sol\":10238:10248  msg.sender */\n      caller\n        /* \"arcanix.sol\":10218:10258  purchases[purchases[msg.sender].ico_ref] */\n      0x00\n        /* \"arcanix.sol\":10228:10249  purchases[msg.sender] */\n      swap1\n      dup2\n      mstore\n        /* \"arcanix.sol\":10218:10227  purchases */\n      0x06\n        /* \"arcanix.sol\":10228:10249  purchases[msg.sender] */\n      0x20\n      dup2\n      swap1\n      mstore\n      0x40\n      dup1\n      dup4\n      keccak256\n        /* \"arcanix.sol\":10228:10257  purchases[msg.sender].ico_ref */\n      0x02\n      add\n      sload\n      sub(shl(0xa0, 0x01), 0x01)\n      and\n        /* \"arcanix.sol\":10218:10258  purchases[purchases[msg.sender].ico_ref] */\n      dup4\n      mstore\n      dup3\n      keccak256\n        /* \"arcanix.sol\":10218:10273  purchases[purchases[msg.sender].ico_ref].tokensReceived */\n      add\n        /* \"arcanix.sol\":10218:10298  purchases[purchases[msg.sender].ico_ref].tokensReceived += (tokenAmount*5) / 100 */\n      dup1\n      sload\n        /* \"arcanix.sol\":10218:10273  purchases[purchases[msg.sender].ico_ref].tokensReceived */\n      swap1\n      swap2\n        /* \"arcanix.sol\":10218:10258  purchases[purchases[msg.sender].ico_ref] */\n      swap1\n        /* \"arcanix.sol\":10218:10298  purchases[purchases[msg.sender].ico_ref].tokensReceived += (tokenAmount*5) / 100 */\n      tag_204\n      swap1\n      dup5\n      swap1\n      tag_166\n      jump\t// in\n    tag_204:\n      swap1\n      swap2\n      sstore\n      pop\n        /* \"arcanix.sol\":10379:10382  100 */\n      0x64\n      swap1\n      pop\n        /* \"arcanix.sol\":10362:10375  tokenAmount*5 */\n      tag_205\n        /* \"arcanix.sol\":10362:10373  tokenAmount */\n      dup3\n        /* \"arcanix.sol\":10374:10375  5 */\n      0x05\n        /* \"arcanix.sol\":10362:10375  tokenAmount*5 */\n      tag_160\n      jump\t// in\n    tag_205:\n        /* \"arcanix.sol\":10361:10382  (tokenAmount*5) / 100 */\n      tag_206\n      swap2\n      swap1\n      tag_158\n      jump\t// in\n    tag_206:\n        /* \"arcanix.sol\":10328:10338  msg.sender */\n      caller\n        /* \"arcanix.sol\":10308:10348  purchases[purchases[msg.sender].ico_ref] */\n      0x00\n        /* \"arcanix.sol\":10318:10339  purchases[msg.sender] */\n      swap1\n      dup2\n      mstore\n        /* \"arcanix.sol\":10308:10317  purchases */\n      0x06\n        /* \"arcanix.sol\":10318:10339  purchases[msg.sender] */\n      0x20\n      mstore\n      0x40\n      dup1\n      dup3\n      keccak256\n        /* \"arcanix.sol\":10318:10347  purchases[msg.sender].ico_ref */\n      0x02\n      add\n      sload\n      sub(shl(0xa0, 0x01), 0x01)\n      and\n        /* \"arcanix.sol\":10308:10348  purchases[purchases[msg.sender].ico_ref] */\n      dup3\n      mstore\n      dup2\n      keccak256\n        /* \"arcanix.sol\":10308:10357  purchases[purchases[msg.sender].ico_ref].refToken */\n      0x0b\n      add\n        /* \"arcanix.sol\":10308:10382  purchases[purchases[msg.sender].ico_ref].refToken += (tokenAmount*5) / 100 */\n      dup1\n      sload\n        /* \"arcanix.sol\":10308:10357  purchases[purchases[msg.sender].ico_ref].refToken */\n      swap1\n      swap2\n        /* \"arcanix.sol\":10308:10348  purchases[purchases[msg.sender].ico_ref] */\n      swap1\n        /* \"arcanix.sol\":10308:10382  purchases[purchases[msg.sender].ico_ref].refToken += (tokenAmount*5) / 100 */\n      tag_207\n      swap1\n      dup5\n      swap1\n      tag_166\n      jump\t// in\n    tag_207:\n      swap1\n      swap2\n      sstore\n      pop\n      pop\n        /* \"arcanix.sol\":10433:10443  msg.sender */\n      caller\n        /* \"arcanix.sol\":10423:10444  purchases[msg.sender] */\n      0x00\n      dup2\n      dup2\n      mstore\n        /* \"arcanix.sol\":10423:10432  purchases */\n      0x06\n        /* \"arcanix.sol\":10423:10444  purchases[msg.sender] */\n      0x20\n      mstore\n      0x40\n      swap1\n      keccak256\n        /* \"arcanix.sol\":10423:10452  purchases[msg.sender].ico_ref */\n      0x02\n      add\n      sload\n      sub(shl(0xa0, 0x01), 0x01)\n      and\n      swap1\n        /* \"arcanix.sol\":10397:10475  ReferralIncome(msg.sender,purchases[msg.sender].ico_ref,(tokenAmount*5) / 100) */\n      0x0b63ad4314f7f378e8544a3d2cf22e089f2059ebc701f71ea8f0f60869c4c4ed\n        /* \"arcanix.sol\":10471:10474  100 */\n      0x64\n        /* \"arcanix.sol\":10454:10467  tokenAmount*5 */\n      tag_208\n        /* \"arcanix.sol\":10454:10465  tokenAmount */\n      dup6\n        /* \"arcanix.sol\":10466:10467  5 */\n      0x05\n        /* \"arcanix.sol\":10454:10467  tokenAmount*5 */\n      tag_160\n      jump\t// in\n    tag_208:\n        /* \"arcanix.sol\":10453:10474  (tokenAmount*5) / 100 */\n      tag_209\n      swap2\n      swap1\n      tag_158\n      jump\t// in\n    tag_209:\n        /* \"arcanix.sol\":10397:10475  ReferralIncome(msg.sender,purchases[msg.sender].ico_ref,(tokenAmount*5) / 100) */\n      mload(0x40)\n        /* \"#utility.yul\":1160:1185   */\n      swap1\n      dup2\n      mstore\n        /* \"#utility.yul\":1148:1150   */\n      0x20\n        /* \"#utility.yul\":1133:1151   */\n      add\n        /* \"arcanix.sol\":10397:10475  ReferralIncome(msg.sender,purchases[msg.sender].ico_ref,(tokenAmount*5) / 100) */\n      mload(0x40)\n      dup1\n      swap2\n      sub\n      swap1\n      log3\n        /* \"arcanix.sol\":10496:10506  msg.sender */\n      caller\n        /* \"arcanix.sol\":10486:10507  purchases[msg.sender] */\n      0x00\n      dup2\n      dup2\n      mstore\n        /* \"arcanix.sol\":10486:10495  purchases */\n      0x06\n        /* \"arcanix.sol\":10486:10507  purchases[msg.sender] */\n      0x20\n      swap1\n      dup2\n      mstore\n      0x40\n      dup1\n      dup4\n      keccak256\n        /* \"arcanix.sol\":10524:10576  DetailsICO(usdtAmount, tokenAmount, block.timestamp) */\n      dup2\n      mload\n      0x60\n      dup2\n      add\n      dup4\n      mstore\n      dup8\n      dup2\n      mstore\n      dup1\n      dup5\n      add\n      dup8\n      dup2\n      mstore\n        /* \"arcanix.sol\":10560:10575  block.timestamp */\n      timestamp\n        /* \"arcanix.sol\":10524:10576  DetailsICO(usdtAmount, tokenAmount, block.timestamp) */\n      dup3\n      dup6\n      add\n      swap1\n      dup2\n      mstore\n        /* \"arcanix.sol\":10486:10518  purchases[msg.sender]._detailarx */\n      0x0e\n      swap1\n      swap4\n      add\n        /* \"arcanix.sol\":10486:10577  purchases[msg.sender]._detailarx.push(DetailsICO(usdtAmount, tokenAmount, block.timestamp)) */\n      dup1\n      sload\n      0x01\n      dup1\n      dup3\n      add\n      dup4\n      sstore\n      swap2\n      dup9\n      mstore\n      swap7\n      dup7\n      swap1\n      keccak256\n      swap3\n      mload\n      0x03\n      swap1\n      swap8\n      mul\n      swap1\n      swap3\n      add\n      swap6\n      dup7\n      sstore\n      mload\n      swap1\n      dup6\n      add\n      sstore\n      mload\n      0x02\n      swap1\n      swap4\n      add\n      swap3\n      swap1\n      swap3\n      sstore\n        /* \"arcanix.sol\":10593:10645  TokensPurchased(msg.sender, usdtAmount, tokenAmount) */\n      dup2\n      mload\n        /* \"#utility.yul\":11967:11992   */\n      dup6\n      dup2\n      mstore\n        /* \"#utility.yul\":12008:12026   */\n      swap1\n      dup2\n      add\n        /* \"#utility.yul\":12001:12035   */\n      dup5\n      swap1\n      mstore\n        /* \"arcanix.sol\":10593:10645  TokensPurchased(msg.sender, usdtAmount, tokenAmount) */\n      0x8fafebcaf9d154343dad25669bfa277f4fbacd7ac6b0c4fed522580e040a0f33\n      swap2\n        /* \"#utility.yul\":11940:11958   */\n      add\n        /* \"arcanix.sol\":10593:10645  TokensPurchased(msg.sender, usdtAmount, tokenAmount) */\n    tag_212:\n      mload(0x40)\n      dup1\n      swap2\n      sub\n      swap1\n      log2\n        /* \"arcanix.sol\":9794:10652  {... */\n      pop\n        /* \"arcanix.sol\":9746:10652  function buyTokens(uint256 usdtAmount) external {... */\n      pop\n      jump\t// out\n        /* \"arcanix.sol\":19662:19899  function withdrawUSDT() external onlyOwner {... */\n    tag_59:\n        /* \"arcanix.sol\":3133:3138  owner */\n      sload(0x00)\n      0x010000\n      swap1\n      div\n      sub(shl(0xa0, 0x01), 0x01)\n      and\n        /* \"arcanix.sol\":3119:3129  msg.sender */\n      caller\n        /* \"arcanix.sol\":3119:3138  msg.sender == owner */\n      eq\n        /* \"arcanix.sol\":3111:3153  require(msg.sender == owner, \"Only owner\") */\n      tag_215\n      jumpi\n      mload(0x40)\n      shl(0xe5, 0x461bcd)\n      dup2\n      mstore\n      0x04\n      add\n      tag_142\n      swap1\n      tag_217\n      jump\t// in\n    tag_215:\n        /* \"arcanix.sol\":19733:19742  usdtToken */\n      sload(0x01)\n        /* \"arcanix.sol\":19733:19767  usdtToken.balanceOf(address(this)) */\n      mload(0x40)\n      shl(0xe0, 0x70a08231)\n      dup2\n      mstore\n        /* \"arcanix.sol\":19761:19765  this */\n      address\n        /* \"arcanix.sol\":19733:19767  usdtToken.balanceOf(address(this)) */\n      0x04\n      dup3\n      add\n        /* \"#utility.yul\":952:1003   */\n      mstore\n        /* \"arcanix.sol\":19715:19730  uint256 balance */\n      0x00\n      swap2\n      sub(shl(0xa0, 0x01), 0x01)\n        /* \"arcanix.sol\":19733:19742  usdtToken */\n      and\n      swap1\n        /* \"arcanix.sol\":19733:19752  usdtToken.balanceOf */\n      0x70a08231\n      swap1\n        /* \"#utility.yul\":925:943   */\n      0x24\n      add\n        /* \"arcanix.sol\":19733:19767  usdtToken.balanceOf(address(this)) */\n      0x20\n      mload(0x40)\n      dup1\n      dup4\n      sub\n      dup2\n      dup7\n      gas\n      staticcall\n      iszero\n      dup1\n      iszero\n      tag_221\n      jumpi\n      returndatacopy(0x00, 0x00, returndatasize)\n      revert(0x00, returndatasize)\n    tag_221:\n      pop\n      pop\n      pop\n      pop\n      mload(0x40)\n      returndatasize\n      not(0x1f)\n      0x1f\n      dup3\n      add\n      and\n      dup3\n      add\n      dup1\n      0x40\n      mstore\n      pop\n      dup2\n      add\n      swap1\n      tag_222\n      swap2\n      swap1\n      tag_223\n      jump\t// in\n    tag_222:\n        /* \"arcanix.sol\":19715:19767  uint256 balance = usdtToken.balanceOf(address(this)) */\n      swap1\n      pop\n        /* \"arcanix.sol\":19795:19796  0 */\n      0x00\n        /* \"arcanix.sol\":19785:19792  balance */\n      dup2\n        /* \"arcanix.sol\":19785:19796  balance > 0 */\n      gt\n        /* \"arcanix.sol\":19777:19820  require(balance > 0, \"Nothing to withdraw\") */\n      tag_224\n      jumpi\n      mload(0x40)\n      shl(0xe5, 0x461bcd)\n      dup2\n      mstore\n        /* \"#utility.yul\":12776:12778   */\n      0x20\n        /* \"arcanix.sol\":19777:19820  require(balance > 0, \"Nothing to withdraw\") */\n      0x04\n      dup3\n      add\n        /* \"#utility.yul\":12758:12779   */\n      mstore\n        /* \"#utility.yul\":12815:12817   */\n      0x13\n        /* \"#utility.yul\":12795:12813   */\n      0x24\n      dup3\n      add\n        /* \"#utility.yul\":12788:12818   */\n      mstore\n      shl(0x68, 0x4e6f7468696e6720746f207769746864726177)\n        /* \"#utility.yul\":12834:12852   */\n      0x44\n      dup3\n      add\n        /* \"#utility.yul\":12827:12876   */\n      mstore\n        /* \"#utility.yul\":12893:12911   */\n      0x64\n      add\n        /* \"arcanix.sol\":19777:19820  require(balance > 0, \"Nothing to withdraw\") */\n      tag_142\n        /* \"#utility.yul\":12574:12917   */\n      jump\n        /* \"arcanix.sol\":19777:19820  require(balance > 0, \"Nothing to withdraw\") */\n    tag_224:\n        /* \"arcanix.sol\":19838:19847  usdtToken */\n      sload(0x01)\n      0x00\n        /* \"arcanix.sol\":19857:19862  owner */\n      sload\n        /* \"arcanix.sol\":19838:19872  usdtToken.transfer(owner, balance) */\n      mload(0x40)\n      shl(0xe0, 0xa9059cbb)\n      dup2\n      mstore\n      sub(shl(0xa0, 0x01), 0x01)\n        /* \"arcanix.sol\":19857:19862  owner */\n      0x010000\n      swap1\n      swap3\n      div\n      dup3\n      and\n        /* \"arcanix.sol\":19838:19872  usdtToken.transfer(owner, balance) */\n      0x04\n      dup3\n      add\n        /* \"#utility.yul\":9642:9693   */\n      mstore\n        /* \"#utility.yul\":9709:9727   */\n      0x24\n      dup2\n      add\n        /* \"#utility.yul\":9702:9736   */\n      dup5\n      swap1\n      mstore\n        /* \"arcanix.sol\":19838:19847  usdtToken */\n      swap2\n      and\n      swap1\n        /* \"arcanix.sol\":19838:19856  usdtToken.transfer */\n      0xa9059cbb\n      swap1\n        /* \"#utility.yul\":9615:9633   */\n      0x44\n      add\n        /* \"arcanix.sol\":19838:19872  usdtToken.transfer(owner, balance) */\n      0x20\n      mload(0x40)\n      dup1\n      dup4\n      sub\n      dup2\n      0x00\n      dup8\n      gas\n      call\n      iszero\n      dup1\n      iszero\n      tag_229\n      jumpi\n      returndatacopy(0x00, 0x00, returndatasize)\n      revert(0x00, returndatasize)\n    tag_229:\n      pop\n      pop\n      pop\n      pop\n      mload(0x40)\n      returndatasize\n      not(0x1f)\n      0x1f\n      dup3\n      add\n      and\n      dup3\n      add\n      dup1\n      0x40\n      mstore\n      pop\n      dup2\n      add\n      swap1\n      tag_230\n      swap2\n      swap1\n      tag_173\n      jump\t// in\n    tag_230:\n        /* \"arcanix.sol\":19830:19892  require(usdtToken.transfer(owner, balance), \"Withdraw failed\") */\n      tag_231\n      jumpi\n      mload(0x40)\n      shl(0xe5, 0x461bcd)\n      dup2\n      mstore\n        /* \"#utility.yul\":13124:13126   */\n      0x20\n        /* \"arcanix.sol\":19830:19892  require(usdtToken.transfer(owner, balance), \"Withdraw failed\") */\n      0x04\n      dup3\n      add\n        /* \"#utility.yul\":13106:13127   */\n      mstore\n        /* \"#utility.yul\":13163:13165   */\n      0x0f\n        /* \"#utility.yul\":13143:13161   */\n      0x24\n      dup3\n      add\n        /* \"#utility.yul\":13136:13166   */\n      mstore\n      shl(0x8a, 0x15da5d1a191c985dc819985a5b1959)\n        /* \"#utility.yul\":13182:13200   */\n      0x44\n      dup3\n      add\n        /* \"#utility.yul\":13175:13220   */\n      mstore\n        /* \"#utility.yul\":13237:13255   */\n      0x64\n      add\n        /* \"arcanix.sol\":19830:19892  require(usdtToken.transfer(owner, balance), \"Withdraw failed\") */\n      tag_142\n        /* \"#utility.yul\":12922:13261   */\n      jump\n        /* \"arcanix.sol\":19830:19892  require(usdtToken.transfer(owner, balance), \"Withdraw failed\") */\n    tag_231:\n        /* \"arcanix.sol\":19705:19899  {... */\n      pop\n        /* \"arcanix.sol\":19662:19899  function withdrawUSDT() external onlyOwner {... */\n      jump\t// out\n        /* \"arcanix.sol\":18101:19410  function claimCapital(uint8 plan, uint investId) external {... */\n    tag_63:\n        /* \"arcanix.sol\":18177:18181  plan */\n      dup2\n        /* \"arcanix.sol\":18177:18186  plan == 3 */\n      0xff\n      and\n        /* \"arcanix.sol\":18185:18186  3 */\n      0x03\n        /* \"arcanix.sol\":18177:18186  plan == 3 */\n      eq\n        /* \"arcanix.sol\":18177:18199  plan == 3 || plan == 4 */\n      dup1\n      tag_235\n      jumpi\n      pop\n        /* \"arcanix.sol\":18190:18194  plan */\n      dup2\n        /* \"arcanix.sol\":18190:18199  plan == 4 */\n      0xff\n      and\n        /* \"arcanix.sol\":18198:18199  4 */\n      0x04\n        /* \"arcanix.sol\":18190:18199  plan == 4 */\n      eq\n        /* \"arcanix.sol\":18177:18199  plan == 3 || plan == 4 */\n    tag_235:\n        /* \"arcanix.sol\":18177:18212  plan == 3 || plan == 4 || plan == 5 */\n      dup1\n      tag_236\n      jumpi\n      pop\n        /* \"arcanix.sol\":18203:18207  plan */\n      dup2\n        /* \"arcanix.sol\":18203:18212  plan == 5 */\n      0xff\n      and\n        /* \"arcanix.sol\":18211:18212  5 */\n      0x05\n        /* \"arcanix.sol\":18203:18212  plan == 5 */\n      eq\n        /* \"arcanix.sol\":18177:18212  plan == 3 || plan == 4 || plan == 5 */\n    tag_236:\n        /* \"arcanix.sol\":18169:18251  require(plan == 3 || plan == 4 || plan == 5, \"You cannot withdraw capital amount\") */\n      tag_237\n      jumpi\n      mload(0x40)\n      shl(0xe5, 0x461bcd)\n      dup2\n      mstore\n        /* \"#utility.yul\":13468:13470   */\n      0x20\n        /* \"arcanix.sol\":18169:18251  require(plan == 3 || plan == 4 || plan == 5, \"You cannot withdraw capital amount\") */\n      0x04\n      dup3\n      add\n        /* \"#utility.yul\":13450:13471   */\n      mstore\n        /* \"#utility.yul\":13507:13509   */\n      0x22\n        /* \"#utility.yul\":13487:13505   */\n      0x24\n      dup3\n      add\n        /* \"#utility.yul\":13480:13510   */\n      mstore\n        /* \"#utility.yul\":13546:13580   */\n      0x596f752063616e6e6f74207769746864726177206361706974616c20616d6f75\n        /* \"#utility.yul\":13526:13544   */\n      0x44\n      dup3\n      add\n        /* \"#utility.yul\":13519:13581   */\n      mstore\n      shl(0xf2, 0x1b9d)\n        /* \"#utility.yul\":13597:13615   */\n      0x64\n      dup3\n      add\n        /* \"#utility.yul\":13590:13622   */\n      mstore\n        /* \"#utility.yul\":13639:13658   */\n      0x84\n      add\n        /* \"arcanix.sol\":18169:18251  require(plan == 3 || plan == 4 || plan == 5, \"You cannot withdraw capital amount\") */\n      tag_142\n        /* \"#utility.yul\":13266:13664   */\n      jump\n        /* \"arcanix.sol\":18169:18251  require(plan == 3 || plan == 4 || plan == 5, \"You cannot withdraw capital amount\") */\n    tag_237:\n        /* \"arcanix.sol\":18293:18303  msg.sender */\n      caller\n        /* \"arcanix.sol\":18262:18280  Purchase storage p */\n      0x00\n        /* \"arcanix.sol\":18283:18304  purchases[msg.sender] */\n      swap1\n      dup2\n      mstore\n        /* \"arcanix.sol\":18283:18292  purchases */\n      0x06\n        /* \"arcanix.sol\":18283:18304  purchases[msg.sender] */\n      0x20\n      swap1\n      dup2\n      mstore\n      0x40\n      dup1\n      dup4\n      keccak256\n        /* \"arcanix.sol\":18334:18349  p._detail[plan] */\n      0xff\n      dup7\n      and\n      dup5\n      mstore\n        /* \"arcanix.sol\":18334:18343  p._detail */\n      0x0d\n      dup2\n      add\n        /* \"arcanix.sol\":18334:18349  p._detail[plan] */\n      swap1\n      swap3\n      mstore\n      dup3\n      keccak256\n        /* \"arcanix.sol\":18334:18359  p._detail[plan][investId] */\n      dup1\n      sload\n        /* \"arcanix.sol\":18283:18304  purchases[msg.sender] */\n      swap2\n      swap3\n        /* \"arcanix.sol\":18262:18280  Purchase storage p */\n      swap2\n        /* \"arcanix.sol\":18350:18358  investId */\n      dup5\n      swap1\n        /* \"arcanix.sol\":18334:18359  p._detail[plan][investId] */\n      dup2\n      lt\n      tag_241\n      jumpi\n      tag_241\n      tag_152\n      jump\t// in\n    tag_241:\n      swap1\n      0x00\n      mstore\n      keccak256(0x00, 0x20)\n      swap1\n      0x06\n      mul\n      add\n        /* \"arcanix.sol\":18314:18359  Details storage d = p._detail[plan][investId] */\n      swap1\n      pop\n        /* \"arcanix.sol\":18419:18423  plan */\n      dup4\n        /* \"arcanix.sol\":18419:18428  plan == 4 */\n      0xff\n      and\n        /* \"arcanix.sol\":18427:18428  4 */\n      0x04\n        /* \"arcanix.sol\":18419:18428  plan == 4 */\n      sub\n        /* \"arcanix.sol\":18415:18541  if (plan == 4) {... */\n      tag_245\n      jumpi\n        /* \"arcanix.sol\":18471:18482  d.timestamp */\n      0x02\n      dup2\n      add\n      sload\n        /* \"arcanix.sol\":18471:18493  d.timestamp + 365 days */\n      tag_244\n      swap1\n        /* \"arcanix.sol\":18485:18493  365 days */\n      0x01e13380\n        /* \"arcanix.sol\":18471:18493  d.timestamp + 365 days */\n      tag_166\n      jump\t// in\n    tag_244:\n        /* \"arcanix.sol\":18452:18467  block.timestamp */\n      timestamp\n        /* \"arcanix.sol\":18452:18493  block.timestamp >= d.timestamp + 365 days */\n      lt\n      iszero\n        /* \"arcanix.sol\":18444:18530  require(block.timestamp >= d.timestamp + 365 days, \"Plan 4: Lock period is 12 months\") */\n      tag_245\n      jumpi\n      mload(0x40)\n      shl(0xe5, 0x461bcd)\n      dup2\n      mstore\n        /* \"#utility.yul\":13871:13873   */\n      0x20\n        /* \"arcanix.sol\":18444:18530  require(block.timestamp >= d.timestamp + 365 days, \"Plan 4: Lock period is 12 months\") */\n      0x04\n      dup3\n      add\n        /* \"#utility.yul\":13853:13874   */\n      dup2\n      swap1\n      mstore\n        /* \"#utility.yul\":13890:13908   */\n      0x24\n      dup3\n      add\n        /* \"#utility.yul\":13883:13913   */\n      mstore\n        /* \"#utility.yul\":13949:13983   */\n      0x506c616e20343a204c6f636b20706572696f64206973203132206d6f6e746873\n        /* \"#utility.yul\":13929:13947   */\n      0x44\n      dup3\n      add\n        /* \"#utility.yul\":13922:13984   */\n      mstore\n        /* \"#utility.yul\":14001:14019   */\n      0x64\n      add\n        /* \"arcanix.sol\":18444:18530  require(block.timestamp >= d.timestamp + 365 days, \"Plan 4: Lock period is 12 months\") */\n      tag_142\n        /* \"#utility.yul\":13669:14025   */\n      jump\n        /* \"arcanix.sol\":18444:18530  require(block.timestamp >= d.timestamp + 365 days, \"Plan 4: Lock period is 12 months\") */\n    tag_245:\n        /* \"arcanix.sol\":18554:18558  plan */\n      dup4\n        /* \"arcanix.sol\":18554:18563  plan == 5 */\n      0xff\n      and\n        /* \"arcanix.sol\":18562:18563  5 */\n      0x05\n        /* \"arcanix.sol\":18554:18563  plan == 5 */\n      sub\n        /* \"arcanix.sol\":18550:18676  if (plan == 5) {... */\n      tag_250\n      jumpi\n        /* \"arcanix.sol\":18606:18617  d.timestamp */\n      0x02\n      dup2\n      add\n      sload\n        /* \"arcanix.sol\":18606:18628  d.timestamp + 730 days */\n      tag_249\n      swap1\n        /* \"arcanix.sol\":18620:18628  730 days */\n      0x03c26700\n        /* \"arcanix.sol\":18606:18628  d.timestamp + 730 days */\n      tag_166\n      jump\t// in\n    tag_249:\n        /* \"arcanix.sol\":18587:18602  block.timestamp */\n      timestamp\n        /* \"arcanix.sol\":18587:18628  block.timestamp >= d.timestamp + 730 days */\n      lt\n      iszero\n        /* \"arcanix.sol\":18579:18665  require(block.timestamp >= d.timestamp + 730 days, \"Plan 5: Lock period is 24 months\") */\n      tag_250\n      jumpi\n      mload(0x40)\n      shl(0xe5, 0x461bcd)\n      dup2\n      mstore\n        /* \"#utility.yul\":14232:14234   */\n      0x20\n        /* \"arcanix.sol\":18579:18665  require(block.timestamp >= d.timestamp + 730 days, \"Plan 5: Lock period is 24 months\") */\n      0x04\n      dup3\n      add\n        /* \"#utility.yul\":14214:14235   */\n      dup2\n      swap1\n      mstore\n        /* \"#utility.yul\":14251:14269   */\n      0x24\n      dup3\n      add\n        /* \"#utility.yul\":14244:14274   */\n      mstore\n        /* \"#utility.yul\":14310:14344   */\n      0x506c616e20353a204c6f636b20706572696f64206973203234206d6f6e746873\n        /* \"#utility.yul\":14290:14308   */\n      0x44\n      dup3\n      add\n        /* \"#utility.yul\":14283:14345   */\n      mstore\n        /* \"#utility.yul\":14362:14380   */\n      0x64\n      add\n        /* \"arcanix.sol\":18579:18665  require(block.timestamp >= d.timestamp + 730 days, \"Plan 5: Lock period is 24 months\") */\n      tag_142\n        /* \"#utility.yul\":14030:14386   */\n      jump\n        /* \"arcanix.sol\":18579:18665  require(block.timestamp >= d.timestamp + 730 days, \"Plan 5: Lock period is 24 months\") */\n    tag_250:\n        /* \"arcanix.sol\":18685:18698  d.stakestatus */\n      0x05\n      dup2\n      add\n        /* \"arcanix.sol\":18685:18706  d.stakestatus = false */\n      dup1\n      sload\n      not(0xff)\n      and\n      swap1\n      sstore\n        /* \"arcanix.sol\":18759:18770  d.timestamp */\n      0x02\n      dup2\n      add\n      sload\n        /* \"arcanix.sol\":18701:18706  false */\n      0x00\n      swap1\n        /* \"arcanix.sol\":18774:18780  1 days */\n      0x015180\n      swap1\n        /* \"arcanix.sol\":18741:18770  block.timestamp - d.timestamp */\n      tag_253\n      swap1\n        /* \"arcanix.sol\":18741:18756  block.timestamp */\n      timestamp\n        /* \"arcanix.sol\":18741:18770  block.timestamp - d.timestamp */\n      tag_156\n      jump\t// in\n    tag_253:\n        /* \"arcanix.sol\":18740:18780  (block.timestamp - d.timestamp) / 1 days */\n      tag_254\n      swap2\n      swap1\n      tag_158\n      jump\t// in\n    tag_254:\n        /* \"arcanix.sol\":18912:18924  d.roiPercent */\n      0x03\n      dup4\n      add\n      sload\n        /* \"arcanix.sol\":18897:18909  d.usdtAmount */\n      dup4\n      sload\n        /* \"arcanix.sol\":18716:18780  uint256 minutesPassed = (block.timestamp - d.timestamp) / 1 days */\n      swap2\n      swap3\n      pop\n        /* \"arcanix.sol\":18790:18808  uint256 totalClaim */\n      0x00\n      swap2\n      dup3\n      swap2\n        /* \"arcanix.sol\":18928:18933  10000 */\n      0x2710\n      swap2\n        /* \"arcanix.sol\":18897:18924  d.usdtAmount * d.roiPercent */\n      tag_255\n      swap2\n        /* \"arcanix.sol\":18912:18924  d.roiPercent */\n      swap1\n        /* \"arcanix.sol\":18897:18924  d.usdtAmount * d.roiPercent */\n      tag_160\n      jump\t// in\n    tag_255:\n        /* \"arcanix.sol\":18896:18933  (d.usdtAmount * d.roiPercent) / 10000 */\n      tag_256\n      swap2\n      swap1\n      tag_158\n      jump\t// in\n    tag_256:\n        /* \"arcanix.sol\":18877:18933  uint256 dailyROI = (d.usdtAmount * d.roiPercent) / 10000 */\n      swap1\n      pop\n        /* \"arcanix.sol\":18943:18964  uint256 totalEligible */\n      0x00\n        /* \"arcanix.sol\":18967:18991  dailyROI * minutesPassed */\n      tag_257\n        /* \"arcanix.sol\":18978:18991  minutesPassed */\n      dup5\n        /* \"arcanix.sol\":18877:18933  uint256 dailyROI = (d.usdtAmount * d.roiPercent) / 10000 */\n      dup4\n        /* \"arcanix.sol\":18967:18991  dailyROI * minutesPassed */\n      tag_160\n      jump\t// in\n    tag_257:\n        /* \"arcanix.sol\":18943:18991  uint256 totalEligible = dailyROI * minutesPassed */\n      swap1\n      pop\n        /* \"arcanix.sol\":19056:19075  uint256 actualClaim */\n      0x00\n        /* \"arcanix.sol\":19094:19095  d */\n      dup6\n        /* \"arcanix.sol\":19094:19106  d.claimedROI */\n      0x04\n      add\n      sload\n        /* \"arcanix.sol\":19078:19091  totalEligible */\n      dup3\n        /* \"arcanix.sol\":19078:19106  totalEligible > d.claimedROI */\n      gt\n        /* \"arcanix.sol\":19078:19165  totalEligible > d.claimedROI... */\n      tag_258\n      jumpi\n        /* \"arcanix.sol\":19164:19165  0 */\n      0x00\n        /* \"arcanix.sol\":19078:19165  totalEligible > d.claimedROI... */\n      jump(tag_260)\n    tag_258:\n        /* \"arcanix.sol\":19137:19149  d.claimedROI */\n      0x04\n      dup7\n      add\n      sload\n        /* \"arcanix.sol\":19121:19149  totalEligible - d.claimedROI */\n      tag_260\n      swap1\n        /* \"arcanix.sol\":19121:19134  totalEligible */\n      dup4\n        /* \"arcanix.sol\":19121:19149  totalEligible - d.claimedROI */\n      tag_156\n      jump\t// in\n    tag_260:\n        /* \"arcanix.sol\":19056:19165  uint256 actualClaim = totalEligible > d.claimedROI... */\n      swap1\n      pop\n        /* \"arcanix.sol\":19180:19195  actualClaim > 0 */\n      dup1\n      iszero\n        /* \"arcanix.sol\":19176:19334  if (actualClaim > 0) {... */\n      tag_261\n      jumpi\n        /* \"arcanix.sol\":19211:19236  totalClaim += actualClaim */\n      tag_262\n        /* \"arcanix.sol\":19225:19236  actualClaim */\n      dup2\n        /* \"arcanix.sol\":19211:19236  totalClaim += actualClaim */\n      dup6\n      tag_166\n      jump\t// in\n    tag_262:\n      swap4\n      pop\n        /* \"arcanix.sol\":19266:19277  actualClaim */\n      dup1\n        /* \"arcanix.sol\":19250:19251  d */\n      dup7\n        /* \"arcanix.sol\":19250:19262  d.claimedROI */\n      0x04\n      add\n      0x00\n        /* \"arcanix.sol\":19250:19277  d.claimedROI += actualClaim */\n      dup3\n      dup3\n      sload\n      tag_263\n      swap2\n      swap1\n      tag_166\n      jump\t// in\n    tag_263:\n      swap3\n      pop\n      pop\n      dup2\n      swap1\n      sstore\n      pop\n        /* \"arcanix.sol\":19312:19323  actualClaim */\n      dup1\n        /* \"arcanix.sol\":19291:19292  p */\n      dup8\n        /* \"arcanix.sol\":19291:19308  p.totalROIClaimed */\n      0x07\n      add\n      0x00\n        /* \"arcanix.sol\":19291:19323  p.totalROIClaimed += actualClaim */\n      dup3\n      dup3\n      sload\n      tag_264\n      swap2\n      swap1\n      tag_166\n      jump\t// in\n    tag_264:\n      swap1\n      swap2\n      sstore\n      pop\n      pop\n        /* \"arcanix.sol\":19176:19334  if (actualClaim > 0) {... */\n    tag_261:\n        /* \"arcanix.sol\":19344:19353  usdtToken */\n      sload(0x01)\n        /* \"arcanix.sol\":19389:19401  d.usdtAmount */\n      dup7\n      sload\n      sub(shl(0xa0, 0x01), 0x01)\n        /* \"arcanix.sol\":19344:19353  usdtToken */\n      swap1\n      swap2\n      and\n      swap1\n        /* \"arcanix.sol\":19344:19362  usdtToken.transfer */\n      0xa9059cbb\n      swap1\n        /* \"arcanix.sol\":19363:19373  msg.sender */\n      caller\n      swap1\n        /* \"arcanix.sol\":19376:19401  totalClaim + d.usdtAmount */\n      tag_265\n      swap1\n        /* \"arcanix.sol\":19376:19386  totalClaim */\n      dup9\n        /* \"arcanix.sol\":19376:19401  totalClaim + d.usdtAmount */\n      tag_166\n      jump\t// in\n    tag_265:\n        /* \"arcanix.sol\":19344:19403  usdtToken.transfer(msg.sender, (totalClaim + d.usdtAmount)) */\n      mload(0x40)\n      not(sub(shl(0xe0, 0x01), 0x01))\n      0xe0\n      dup6\n      swap1\n      shl\n      and\n      dup2\n      mstore\n      sub(shl(0xa0, 0x01), 0x01)\n        /* \"#utility.yul\":9660:9692   */\n      swap1\n      swap3\n      and\n        /* \"arcanix.sol\":19344:19403  usdtToken.transfer(msg.sender, (totalClaim + d.usdtAmount)) */\n      0x04\n      dup4\n      add\n        /* \"#utility.yul\":9642:9693   */\n      mstore\n        /* \"#utility.yul\":9709:9727   */\n      0x24\n      dup3\n      add\n        /* \"#utility.yul\":9702:9736   */\n      mstore\n        /* \"#utility.yul\":9615:9633   */\n      0x44\n      add\n        /* \"arcanix.sol\":19344:19403  usdtToken.transfer(msg.sender, (totalClaim + d.usdtAmount)) */\n      0x20\n      mload(0x40)\n      dup1\n      dup4\n      sub\n      dup2\n      0x00\n      dup8\n      gas\n      call\n      iszero\n      dup1\n      iszero\n      tag_268\n      jumpi\n      returndatacopy(0x00, 0x00, returndatasize)\n      revert(0x00, returndatasize)\n    tag_268:\n      pop\n      pop\n      pop\n      pop\n      mload(0x40)\n      returndatasize\n      not(0x1f)\n      0x1f\n      dup3\n      add\n      and\n      dup3\n      add\n      dup1\n      0x40\n      mstore\n      pop\n      dup2\n      add\n      swap1\n      tag_269\n      swap2\n      swap1\n      tag_173\n      jump\t// in\n    tag_269:\n      pop\n        /* \"arcanix.sol\":18159:19410  {... */\n      pop\n      pop\n      pop\n      pop\n      pop\n      pop\n      pop\n        /* \"arcanix.sol\":18101:19410  function claimCapital(uint8 plan, uint investId) external {... */\n      pop\n      pop\n      jump\t// out\n        /* \"arcanix.sol\":19960:20196  function setRealToken(address _realToken) external onlyOwner {... */\n    tag_66:\n        /* \"arcanix.sol\":3133:3138  owner */\n      sload(0x00)\n      0x010000\n      swap1\n      div\n      sub(shl(0xa0, 0x01), 0x01)\n      and\n        /* \"arcanix.sol\":3119:3129  msg.sender */\n      caller\n        /* \"arcanix.sol\":3119:3138  msg.sender == owner */\n      eq\n        /* \"arcanix.sol\":3111:3153  require(msg.sender == owner, \"Only owner\") */\n      tag_271\n      jumpi\n      mload(0x40)\n      shl(0xe5, 0x461bcd)\n      dup2\n      mstore\n      0x04\n      add\n      tag_142\n      swap1\n      tag_217\n      jump\t// in\n    tag_271:\n        /* \"arcanix.sol\":20047:20056  realToken */\n      and(sub(shl(0xa0, 0x01), 0x01), sload(0x02))\n        /* \"arcanix.sol\":20039:20071  address(realToken) == address(0) */\n      iszero\n        /* \"arcanix.sol\":20031:20087  require(address(realToken) == address(0), \"Already set\") */\n      tag_274\n      jumpi\n      mload(0x40)\n      shl(0xe5, 0x461bcd)\n      dup2\n      mstore\n        /* \"#utility.yul\":14593:14595   */\n      0x20\n        /* \"arcanix.sol\":20031:20087  require(address(realToken) == address(0), \"Already set\") */\n      0x04\n      dup3\n      add\n        /* \"#utility.yul\":14575:14596   */\n      mstore\n        /* \"#utility.yul\":14632:14634   */\n      0x0b\n        /* \"#utility.yul\":14612:14630   */\n      0x24\n      dup3\n      add\n        /* \"#utility.yul\":14605:14635   */\n      mstore\n      shl(0xaa, 0x105b1c9958591e481cd95d)\n        /* \"#utility.yul\":14651:14669   */\n      0x44\n      dup3\n      add\n        /* \"#utility.yul\":14644:14685   */\n      mstore\n        /* \"#utility.yul\":14702:14720   */\n      0x64\n      add\n        /* \"arcanix.sol\":20031:20087  require(address(realToken) == address(0), \"Already set\") */\n      tag_142\n        /* \"#utility.yul\":14391:14726   */\n      jump\n        /* \"arcanix.sol\":20031:20087  require(address(realToken) == address(0), \"Already set\") */\n    tag_274:\n      sub(shl(0xa0, 0x01), 0x01)\n        /* \"arcanix.sol\":20105:20129  _realToken != address(0) */\n      dup2\n      and\n        /* \"arcanix.sol\":20097:20149  require(_realToken != address(0), \"Invalid address\") */\n      tag_277\n      jumpi\n      mload(0x40)\n      shl(0xe5, 0x461bcd)\n      dup2\n      mstore\n        /* \"#utility.yul\":14933:14935   */\n      0x20\n        /* \"arcanix.sol\":20097:20149  require(_realToken != address(0), \"Invalid address\") */\n      0x04\n      dup3\n      add\n        /* \"#utility.yul\":14915:14936   */\n      mstore\n        /* \"#utility.yul\":14972:14974   */\n      0x0f\n        /* \"#utility.yul\":14952:14970   */\n      0x24\n      dup3\n      add\n        /* \"#utility.yul\":14945:14975   */\n      mstore\n      shl(0x88, 0x496e76616c69642061646472657373)\n        /* \"#utility.yul\":14991:15009   */\n      0x44\n      dup3\n      add\n        /* \"#utility.yul\":14984:15029   */\n      mstore\n        /* \"#utility.yul\":15046:15064   */\n      0x64\n      add\n        /* \"arcanix.sol\":20097:20149  require(_realToken != address(0), \"Invalid address\") */\n      tag_142\n        /* \"#utility.yul\":14731:15070   */\n      jump\n        /* \"arcanix.sol\":20097:20149  require(_realToken != address(0), \"Invalid address\") */\n    tag_277:\n        /* \"arcanix.sol\":20159:20168  realToken */\n      0x02\n        /* \"arcanix.sol\":20159:20189  realToken = IERC20(_realToken) */\n      dup1\n      sload\n      not(sub(shl(0xa0, 0x01), 0x01))\n      and\n      sub(shl(0xa0, 0x01), 0x01)\n      swap3\n      swap1\n      swap3\n      and\n      swap2\n      swap1\n      swap2\n      or\n      swap1\n      sstore\n        /* \"arcanix.sol\":19960:20196  function setRealToken(address _realToken) external onlyOwner {... */\n      jump\t// out\n        /* \"arcanix.sol\":12327:13703  function claimDailyROI2(uint256 plan) external {... */\n    tag_69:\n        /* \"arcanix.sol\":12396:12400  plan */\n      dup1\n        /* \"arcanix.sol\":12404:12405  3 */\n      0x03\n        /* \"arcanix.sol\":12396:12405  plan == 3 */\n      eq\n        /* \"arcanix.sol\":12388:12428  require(plan == 3, \"Invalid Claim Plan\") */\n      tag_281\n      jumpi\n      mload(0x40)\n      shl(0xe5, 0x461bcd)\n      dup2\n      mstore\n        /* \"#utility.yul\":8059:8061   */\n      0x20\n        /* \"arcanix.sol\":12388:12428  require(plan == 3, \"Invalid Claim Plan\") */\n      0x04\n      dup3\n      add\n        /* \"#utility.yul\":8041:8062   */\n      mstore\n        /* \"#utility.yul\":8098:8100   */\n      0x12\n        /* \"#utility.yul\":8078:8096   */\n      0x24\n      dup3\n      add\n        /* \"#utility.yul\":8071:8101   */\n      mstore\n      shl(0x71, 0x24b73b30b634b21021b630b4b690283630b7)\n        /* \"#utility.yul\":8117:8135   */\n      0x44\n      dup3\n      add\n        /* \"#utility.yul\":8110:8158   */\n      mstore\n        /* \"#utility.yul\":8175:8193   */\n      0x64\n      add\n        /* \"arcanix.sol\":12388:12428  require(plan == 3, \"Invalid Claim Plan\") */\n      tag_142\n        /* \"#utility.yul\":7857:8199   */\n      jump\n        /* \"arcanix.sol\":12388:12428  require(plan == 3, \"Invalid Claim Plan\") */\n    tag_281:\n        /* \"arcanix.sol\":12473:12483  msg.sender */\n      caller\n        /* \"arcanix.sol\":12442:12460  Purchase storage p */\n      0x00\n        /* \"arcanix.sol\":12463:12484  purchases[msg.sender] */\n      swap1\n      dup2\n      mstore\n        /* \"arcanix.sol\":12463:12472  purchases */\n      0x06\n        /* \"arcanix.sol\":12463:12484  purchases[msg.sender] */\n      0x20\n      mstore\n      0x40\n      swap1\n      keccak256\n        /* \"arcanix.sol\":12506:12522  p.usdtSpentinvst */\n      0x05\n      dup2\n      add\n      sload\n        /* \"arcanix.sol\":12498:12544  require(p.usdtSpentinvst > 0, \"No investment\") */\n      tag_283\n      jumpi\n      mload(0x40)\n      shl(0xe5, 0x461bcd)\n      dup2\n      mstore\n      0x04\n      add\n      tag_142\n      swap1\n      tag_146\n      jump\t// in\n    tag_283:\n        /* \"arcanix.sol\":12559:12577  uint256 totalClaim */\n      0x00\n        /* \"arcanix.sol\":12623:12638  p._detail[plan] */\n      dup3\n      dup2\n      mstore\n        /* \"arcanix.sol\":12623:12632  p._detail */\n      0x0d\n      dup3\n      add\n        /* \"arcanix.sol\":12623:12638  p._detail[plan] */\n      0x20\n      mstore\n      0x40\n      dup2\n      keccak256\n        /* \"arcanix.sol\":12559:12577  uint256 totalClaim */\n      dup2\n        /* \"arcanix.sol\":12653:13456  for (uint256 i = 0; i < details.length; i++) {... */\n    tag_285:\n        /* \"arcanix.sol\":12677:12691  details.length */\n      dup2\n      sload\n        /* \"arcanix.sol\":12673:12691  i < details.length */\n      dup2\n      lt\n        /* \"arcanix.sol\":12653:13456  for (uint256 i = 0; i < details.length; i++) {... */\n      iszero\n      tag_148\n      jumpi\n        /* \"arcanix.sol\":12716:12733  Details storage d */\n      0x00\n        /* \"arcanix.sol\":12736:12743  details */\n      dup3\n        /* \"arcanix.sol\":12744:12745  i */\n      dup3\n        /* \"arcanix.sol\":12736:12746  details[i] */\n      dup2\n      sload\n      dup2\n      lt\n      tag_289\n      jumpi\n      tag_289\n      tag_152\n      jump\t// in\n    tag_289:\n      0x00\n      swap2\n      dup3\n      mstore\n      0x20\n      swap1\n      swap2\n      keccak256\n      0x06\n      swap1\n      swap2\n      mul\n      add\n        /* \"arcanix.sol\":12786:12799  d.stakestatus */\n      0x05\n      dup2\n      add\n      sload\n        /* \"arcanix.sol\":12736:12746  details[i] */\n      swap1\n      swap2\n      pop\n        /* \"arcanix.sol\":12786:12799  d.stakestatus */\n      0xff\n      and\n        /* \"arcanix.sol\":12781:12850  if (!d.stakestatus) {... */\n      tag_291\n      jumpi\n        /* \"arcanix.sol\":12823:12831  continue */\n      pop\n      jump(tag_287)\n        /* \"arcanix.sol\":12781:12850  if (!d.stakestatus) {... */\n    tag_291:\n        /* \"arcanix.sol\":12922:12943  uint256 minutesPassed */\n      0x00\n        /* \"arcanix.sol\":12980:12986  1 days */\n      0x015180\n        /* \"arcanix.sol\":12965:12966  d */\n      dup3\n        /* \"arcanix.sol\":12965:12976  d.timestamp */\n      0x02\n      add\n      sload\n        /* \"arcanix.sol\":12947:12962  block.timestamp */\n      timestamp\n        /* \"arcanix.sol\":12947:12976  block.timestamp - d.timestamp */\n      tag_292\n      swap2\n      swap1\n      tag_156\n      jump\t// in\n    tag_292:\n        /* \"arcanix.sol\":12946:12986  (block.timestamp - d.timestamp) / 1 days */\n      tag_293\n      swap2\n      swap1\n      tag_158\n      jump\t// in\n    tag_293:\n        /* \"arcanix.sol\":12922:12986  uint256 minutesPassed = (block.timestamp - d.timestamp) / 1 days */\n      swap1\n      pop\n        /* \"arcanix.sol\":13005:13021  uint256 dailyROI */\n      0x00\n        /* \"arcanix.sol\":13056:13061  10000 */\n      0x2710\n        /* \"arcanix.sol\":13040:13041  d */\n      dup4\n        /* \"arcanix.sol\":13040:13052  d.roiPercent */\n      0x03\n      add\n      sload\n        /* \"arcanix.sol\":13025:13026  d */\n      dup5\n        /* \"arcanix.sol\":13025:13037  d.usdtAmount */\n      0x00\n      add\n      sload\n        /* \"arcanix.sol\":13025:13052  d.usdtAmount * d.roiPercent */\n      tag_294\n      swap2\n      swap1\n      tag_160\n      jump\t// in\n    tag_294:\n        /* \"arcanix.sol\":13024:13061  (d.usdtAmount * d.roiPercent) / 10000 */\n      tag_295\n      swap2\n      swap1\n      tag_158\n      jump\t// in\n    tag_295:\n        /* \"arcanix.sol\":13005:13061  uint256 dailyROI = (d.usdtAmount * d.roiPercent) / 10000 */\n      swap1\n      pop\n        /* \"arcanix.sol\":13098:13119  uint256 totalEligible */\n      0x00\n        /* \"arcanix.sol\":13122:13146  dailyROI * minutesPassed */\n      tag_296\n        /* \"arcanix.sol\":13133:13146  minutesPassed */\n      dup4\n        /* \"arcanix.sol\":13005:13061  uint256 dailyROI = (d.usdtAmount * d.roiPercent) / 10000 */\n      dup4\n        /* \"arcanix.sol\":13122:13146  dailyROI * minutesPassed */\n      tag_160\n      jump\t// in\n    tag_296:\n        /* \"arcanix.sol\":13098:13146  uint256 totalEligible = dailyROI * minutesPassed */\n      swap1\n      pop\n        /* \"arcanix.sol\":13241:13242  d */\n      dup4\n        /* \"arcanix.sol\":13241:13253  d.claimedROI */\n      0x04\n      add\n      sload\n        /* \"arcanix.sol\":13225:13238  totalEligible */\n      dup2\n        /* \"arcanix.sol\":13225:13253  totalEligible > d.claimedROI */\n      gt\n        /* \"arcanix.sol\":13221:13442  if (totalEligible > d.claimedROI) {... */\n      iszero\n      tag_297\n      jumpi\n        /* \"arcanix.sol\":13277:13296  uint256 actualClaim */\n      0x00\n        /* \"arcanix.sol\":13315:13316  d */\n      dup5\n        /* \"arcanix.sol\":13315:13327  d.claimedROI */\n      0x04\n      add\n      sload\n        /* \"arcanix.sol\":13299:13312  totalEligible */\n      dup3\n        /* \"arcanix.sol\":13299:13327  totalEligible - d.claimedROI */\n      tag_298\n      swap2\n      swap1\n      tag_156\n      jump\t// in\n    tag_298:\n        /* \"arcanix.sol\":13277:13327  uint256 actualClaim = totalEligible - d.claimedROI */\n      swap1\n      pop\n        /* \"arcanix.sol\":13365:13376  actualClaim */\n      dup1\n        /* \"arcanix.sol\":13349:13350  d */\n      dup6\n        /* \"arcanix.sol\":13349:13361  d.claimedROI */\n      0x04\n      add\n      0x00\n        /* \"arcanix.sol\":13349:13376  d.claimedROI += actualClaim */\n      dup3\n      dup3\n      sload\n      tag_299\n      swap2\n      swap1\n      tag_166\n      jump\t// in\n    tag_299:\n      swap1\n      swap2\n      sstore\n      pop\n        /* \"arcanix.sol\":13398:13423  totalClaim += actualClaim */\n      tag_300\n      swap1\n      pop\n        /* \"arcanix.sol\":13412:13423  actualClaim */\n      dup2\n        /* \"arcanix.sol\":13398:13423  totalClaim += actualClaim */\n      dup10\n      tag_166\n      jump\t// in\n    tag_300:\n      swap8\n      pop\n        /* \"arcanix.sol\":13255:13442  {... */\n      pop\n        /* \"arcanix.sol\":13221:13442  if (totalEligible > d.claimedROI) {... */\n    tag_297:\n        /* \"arcanix.sol\":12698:13456  {... */\n      pop\n      pop\n      pop\n      pop\n        /* \"arcanix.sol\":12653:13456  for (uint256 i = 0; i < details.length; i++) {... */\n    tag_287:\n        /* \"arcanix.sol\":12693:12696  i++ */\n      0x01\n      add\n        /* \"arcanix.sol\":12653:13456  for (uint256 i = 0; i < details.length; i++) {... */\n      jump(tag_285)\n        /* \"arcanix.sol\":16741:18095  function getCurrentClaimableROI(address _user) external view returns (uint256) {... */\n    tag_76:\n      sub(shl(0xa0, 0x01), 0x01)\n        /* \"arcanix.sol\":16859:16875  purchases[_user] */\n      dup2\n      and\n        /* \"arcanix.sol\":16811:16818  uint256 */\n      0x00\n        /* \"arcanix.sol\":16859:16875  purchases[_user] */\n      swap1\n      dup2\n      mstore\n        /* \"arcanix.sol\":16859:16868  purchases */\n      0x06\n        /* \"arcanix.sol\":16859:16875  purchases[_user] */\n      0x20\n      mstore\n      0x40\n      dup2\n      keccak256\n        /* \"arcanix.sol\":16897:16913  p.usdtSpentinvst */\n      0x05\n      dup2\n      add\n      sload\n        /* \"arcanix.sol\":16897:16918  p.usdtSpentinvst == 0 */\n      dup3\n      sub\n        /* \"arcanix.sol\":16893:16969  if (p.usdtSpentinvst == 0) {... */\n      tag_311\n      jumpi\n      pop\n        /* \"arcanix.sol\":16949:16950  0 */\n      0x00\n      swap3\n        /* \"arcanix.sol\":16741:18095  function getCurrentClaimableROI(address _user) external view returns (uint256) {... */\n      swap2\n      pop\n      pop\n      jump\t// out\n        /* \"arcanix.sol\":16893:16969  if (p.usdtSpentinvst == 0) {... */\n    tag_311:\n        /* \"arcanix.sol\":16987:17005  uint256 totalClaim */\n      0x00\n        /* \"arcanix.sol\":17043:17044  1 */\n      0x01\n        /* \"arcanix.sol\":17028:18049  for (uint8 j = 1; j <= 5; j++) {... */\n    tag_312:\n        /* \"arcanix.sol\":17051:17052  5 */\n      0x05\n        /* \"arcanix.sol\":17046:17047  j */\n      dup2\n        /* \"arcanix.sol\":17046:17052  j <= 5 */\n      0xff\n      and\n      gt\n        /* \"arcanix.sol\":17028:18049  for (uint8 j = 1; j <= 5; j++) {... */\n      tag_313\n      jumpi\n        /* \"arcanix.sol\":17086:17092  uint i */\n      0x00\n        /* \"arcanix.sol\":17081:18031  for (uint i = 0; i < p._detail[j].length; i++) {... */\n    tag_315:\n        /* \"arcanix.sol\":17102:17114  p._detail[j] */\n      0xff\n      dup3\n      and\n      0x00\n      swap1\n      dup2\n      mstore\n        /* \"arcanix.sol\":17102:17111  p._detail */\n      0x0d\n      dup6\n      add\n        /* \"arcanix.sol\":17102:17114  p._detail[j] */\n      0x20\n      mstore\n      0x40\n      swap1\n      keccak256\n        /* \"arcanix.sol\":17102:17121  p._detail[j].length */\n      sload\n        /* \"arcanix.sol\":17098:17121  i < p._detail[j].length */\n      dup2\n      lt\n        /* \"arcanix.sol\":17081:18031  for (uint i = 0; i < p._detail[j].length; i++) {... */\n      iszero\n      tag_316\n      jumpi\n        /* \"arcanix.sol\":17174:17186  p._detail[j] */\n      0xff\n      dup3\n      and\n        /* \"arcanix.sol\":17154:17171  Details storage d */\n      0x00\n        /* \"arcanix.sol\":17174:17186  p._detail[j] */\n      swap1\n      dup2\n      mstore\n        /* \"arcanix.sol\":17174:17183  p._detail */\n      0x0d\n      dup6\n      add\n        /* \"arcanix.sol\":17174:17186  p._detail[j] */\n      0x20\n      mstore\n      0x40\n      dup2\n      keccak256\n        /* \"arcanix.sol\":17174:17189  p._detail[j][i] */\n      dup1\n      sload\n        /* \"arcanix.sol\":17187:17188  i */\n      dup4\n      swap1\n        /* \"arcanix.sol\":17174:17189  p._detail[j][i] */\n      dup2\n      lt\n      tag_319\n      jumpi\n      tag_319\n      tag_152\n      jump\t// in\n    tag_319:\n      0x00\n      swap2\n      dup3\n      mstore\n      0x20\n      swap1\n      swap2\n      keccak256\n      0x06\n      swap1\n      swap2\n      mul\n      add\n        /* \"arcanix.sol\":17221:17234  d.stakestatus */\n      0x05\n      dup2\n      add\n      sload\n        /* \"arcanix.sol\":17174:17189  p._detail[j][i] */\n      swap1\n      swap2\n      pop\n        /* \"arcanix.sol\":17221:17234  d.stakestatus */\n      0xff\n      and\n        /* \"arcanix.sol\":17216:17301  if (!d.stakestatus) {... */\n      tag_321\n      jumpi\n        /* \"arcanix.sol\":17266:17274  continue */\n      pop\n      jump(tag_317)\n        /* \"arcanix.sol\":17216:17301  if (!d.stakestatus) {... */\n    tag_321:\n        /* \"arcanix.sol\":17327:17348  uint256 minutesPassed */\n      0x00\n        /* \"arcanix.sol\":17385:17391  1 days */\n      0x015180\n        /* \"arcanix.sol\":17370:17371  d */\n      dup3\n        /* \"arcanix.sol\":17370:17381  d.timestamp */\n      0x02\n      add\n      sload\n        /* \"arcanix.sol\":17352:17367  block.timestamp */\n      timestamp\n        /* \"arcanix.sol\":17352:17381  block.timestamp - d.timestamp */\n      tag_322\n      swap2\n      swap1\n      tag_156\n      jump\t// in\n    tag_322:\n        /* \"arcanix.sol\":17351:17391  (block.timestamp - d.timestamp) / 1 days */\n      tag_323\n      swap2\n      swap1\n      tag_158\n      jump\t// in\n    tag_323:\n        /* \"arcanix.sol\":17327:17391  uint256 minutesPassed = (block.timestamp - d.timestamp) / 1 days */\n      swap1\n      pop\n        /* \"arcanix.sol\":17488:17504  uint256 dailyROI */\n      0x00\n        /* \"arcanix.sol\":17539:17544  10000 */\n      0x2710\n        /* \"arcanix.sol\":17523:17524  d */\n      dup4\n        /* \"arcanix.sol\":17523:17535  d.roiPercent */\n      0x03\n      add\n      sload\n        /* \"arcanix.sol\":17508:17509  d */\n      dup5\n        /* \"arcanix.sol\":17508:17520  d.usdtAmount */\n      0x00\n      add\n      sload\n        /* \"arcanix.sol\":17508:17535  d.usdtAmount * d.roiPercent */\n      tag_324\n      swap2\n      swap1\n      tag_160\n      jump\t// in\n    tag_324:\n        /* \"arcanix.sol\":17507:17544  (d.usdtAmount * d.roiPercent) / 10000 */\n      tag_325\n      swap2\n      swap1\n      tag_158\n      jump\t// in\n    tag_325:\n        /* \"arcanix.sol\":17488:17544  uint256 dailyROI = (d.usdtAmount * d.roiPercent) / 10000 */\n      swap1\n      pop\n        /* \"arcanix.sol\":17570:17591  uint256 totalEligible */\n      0x00\n        /* \"arcanix.sol\":17594:17618  dailyROI * minutesPassed */\n      tag_326\n        /* \"arcanix.sol\":17605:17618  minutesPassed */\n      dup4\n        /* \"arcanix.sol\":17488:17544  uint256 dailyROI = (d.usdtAmount * d.roiPercent) / 10000 */\n      dup4\n        /* \"arcanix.sol\":17594:17618  dailyROI * minutesPassed */\n      tag_160\n      jump\t// in\n    tag_326:\n        /* \"arcanix.sol\":17570:17618  uint256 totalEligible = dailyROI * minutesPassed */\n      swap1\n      pop\n        /* \"arcanix.sol\":17738:17757  uint256 actualClaim */\n      0x00\n        /* \"arcanix.sol\":17776:17777  d */\n      dup5\n        /* \"arcanix.sol\":17776:17788  d.claimedROI */\n      0x04\n      add\n      sload\n        /* \"arcanix.sol\":17760:17773  totalEligible */\n      dup3\n        /* \"arcanix.sol\":17760:17788  totalEligible > d.claimedROI */\n      gt\n        /* \"arcanix.sol\":17760:17879  totalEligible > d.claimedROI... */\n      tag_327\n      jumpi\n        /* \"arcanix.sol\":17878:17879  0 */\n      0x00\n        /* \"arcanix.sol\":17760:17879  totalEligible > d.claimedROI... */\n      jump(tag_329)\n    tag_327:\n        /* \"arcanix.sol\":17835:17847  d.claimedROI */\n      0x04\n      dup6\n      add\n      sload\n        /* \"arcanix.sol\":17819:17847  totalEligible - d.claimedROI */\n      tag_329\n      swap1\n        /* \"arcanix.sol\":17819:17832  totalEligible */\n      dup4\n        /* \"arcanix.sol\":17819:17847  totalEligible - d.claimedROI */\n      tag_156\n      jump\t// in\n    tag_329:\n        /* \"arcanix.sol\":17738:17879  uint256 actualClaim = totalEligible > d.claimedROI... */\n      swap1\n      pop\n        /* \"arcanix.sol\":17910:17925  actualClaim > 0 */\n      dup1\n      iszero\n        /* \"arcanix.sol\":17906:18009  if (actualClaim > 0) {... */\n      tag_330\n      jumpi\n        /* \"arcanix.sol\":17957:17982  totalClaim += actualClaim */\n      tag_331\n        /* \"arcanix.sol\":17971:17982  actualClaim */\n      dup2\n        /* \"arcanix.sol\":17957:17982  totalClaim += actualClaim */\n      dup10\n      tag_166\n      jump\t// in\n    tag_331:\n      swap8\n      pop\n        /* \"arcanix.sol\":17906:18009  if (actualClaim > 0) {... */\n    tag_330:\n        /* \"arcanix.sol\":17128:18031  {... */\n      pop\n      pop\n      pop\n      pop\n      pop\n        /* \"arcanix.sol\":17081:18031  for (uint i = 0; i < p._detail[j].length; i++) {... */\n    tag_317:\n        /* \"arcanix.sol\":17123:17126  i++ */\n      0x01\n      add\n        /* \"arcanix.sol\":17081:18031  for (uint i = 0; i < p._detail[j].length; i++) {... */\n      jump(tag_315)\n    tag_316:\n      pop\n        /* \"arcanix.sol\":17054:17057  j++ */\n      dup1\n      tag_332\n      dup2\n      tag_333\n      jump\t// in\n    tag_332:\n      swap2\n      pop\n      pop\n        /* \"arcanix.sol\":17028:18049  for (uint8 j = 1; j <= 5; j++) {... */\n      jump(tag_312)\n    tag_313:\n      pop\n        /* \"arcanix.sol\":18074:18084  totalClaim */\n      swap4\n        /* \"arcanix.sol\":16741:18095  function getCurrentClaimableROI(address _user) external view returns (uint256) {... */\n      swap3\n      pop\n      pop\n      pop\n      jump\t// out\n        /* \"arcanix.sol\":4908:5022  function registrationExInvst(address _referrer) external {... */\n    tag_83:\n        /* \"arcanix.sol\":4975:5015  registrationinvst(msg.sender, _referrer) */\n      tag_231\n        /* \"arcanix.sol\":4993:5003  msg.sender */\n      caller\n        /* \"arcanix.sol\":5005:5014  _referrer */\n      dup3\n        /* \"arcanix.sol\":4975:4992  registrationinvst */\n      tag_336\n        /* \"arcanix.sol\":4975:5015  registrationinvst(msg.sender, _referrer) */\n      jump\t// in\n        /* \"arcanix.sol\":21772:21922  function seeHistroyInvst(address useradd, uint plan) external view returns (Details[] memory) {... */\n    tag_91:\n      sub(shl(0xa0, 0x01), 0x01)\n        /* \"arcanix.sol\":21883:21901  purchases[useradd] */\n      dup3\n      and\n      0x00\n      swap1\n      dup2\n      mstore\n        /* \"arcanix.sol\":21883:21892  purchases */\n      0x06\n        /* \"arcanix.sol\":21883:21901  purchases[useradd] */\n      0x20\n      swap1\n      dup2\n      mstore\n      0x40\n      dup1\n      dup4\n      keccak256\n        /* \"arcanix.sol\":21883:21915  purchases[useradd]._detail[plan] */\n      dup5\n      dup5\n      mstore\n        /* \"arcanix.sol\":21883:21909  purchases[useradd]._detail */\n      0x0d\n      add\n        /* \"arcanix.sol\":21883:21915  purchases[useradd]._detail[plan] */\n      dup3\n      mstore\n      dup1\n      dup4\n      keccak256\n        /* \"arcanix.sol\":21876:21915  return purchases[useradd]._detail[plan] */\n      dup1\n      sload\n      dup3\n      mload\n      dup2\n      dup6\n      mul\n      dup2\n      add\n      dup6\n      add\n      swap1\n      swap4\n      mstore\n      dup1\n      dup4\n      mstore\n        /* \"arcanix.sol\":21848:21864  Details[] memory */\n      0x60\n      swap5\n        /* \"arcanix.sol\":21876:21915  return purchases[useradd]._detail[plan] */\n      swap3\n      swap4\n        /* \"arcanix.sol\":21883:21915  purchases[useradd]._detail[plan] */\n      swap2\n      swap3\n        /* \"arcanix.sol\":21876:21915  return purchases[useradd]._detail[plan] */\n      swap1\n      swap2\n      dup5\n      add\n    tag_338:\n      dup3\n      dup3\n      lt\n      iszero\n      tag_339\n      jumpi\n      0x00\n      dup5\n      dup2\n      mstore\n      0x20\n      swap1\n      dup2\n      swap1\n      keccak256\n      0x40\n      dup1\n      mload\n      0xc0\n      dup2\n      add\n      dup3\n      mstore\n      0x06\n      dup7\n      mul\n      swap1\n      swap3\n      add\n      dup1\n      sload\n      dup4\n      mstore\n      0x01\n      dup1\n      dup3\n      add\n      sload\n      dup5\n      dup7\n      add\n      mstore\n      0x02\n      dup3\n      add\n      sload\n      swap3\n      dup5\n      add\n      swap3\n      swap1\n      swap3\n      mstore\n      0x03\n      dup2\n      add\n      sload\n      0x60\n      dup5\n      add\n      mstore\n      0x04\n      dup2\n      add\n      sload\n      0x80\n      dup5\n      add\n      mstore\n      0x05\n      add\n      sload\n      0xff\n      and\n      iszero\n      iszero\n      0xa0\n      dup4\n      add\n      mstore\n      swap1\n      dup4\n      mstore\n      swap1\n      swap3\n      add\n      swap2\n      add\n      jump(tag_338)\n    tag_339:\n      pop\n      pop\n      pop\n      pop\n      swap1\n      pop\n        /* \"arcanix.sol\":21772:21922  function seeHistroyInvst(address useradd, uint plan) external view returns (Details[] memory) {... */\n    tag_337:\n      swap3\n      swap2\n      pop\n      pop\n      jump\t// out\n        /* \"arcanix.sol\":5028:7769  function arxinvest(uint256 usdtAmount, uint8 plan) external {... */\n    tag_105:\n        /* \"arcanix.sol\":5106:5135  isUserExistsInvst(msg.sender) */\n      tag_342\n        /* \"arcanix.sol\":5124:5134  msg.sender */\n      caller\n        /* \"arcanix.sol\":5106:5123  isUserExistsInvst */\n      tag_43\n        /* \"arcanix.sol\":5106:5135  isUserExistsInvst(msg.sender) */\n      jump\t// in\n    tag_342:\n        /* \"arcanix.sol\":5098:5159  require(isUserExistsInvst(msg.sender), \"User not registered\") */\n      tag_343\n      jumpi\n      mload(0x40)\n      shl(0xe5, 0x461bcd)\n      dup2\n      mstore\n        /* \"#utility.yul\":10575:10577   */\n      0x20\n        /* \"arcanix.sol\":5098:5159  require(isUserExistsInvst(msg.sender), \"User not registered\") */\n      0x04\n      dup3\n      add\n        /* \"#utility.yul\":10557:10578   */\n      mstore\n        /* \"#utility.yul\":10614:10616   */\n      0x13\n        /* \"#utility.yul\":10594:10612   */\n      0x24\n      dup3\n      add\n        /* \"#utility.yul\":10587:10617   */\n      mstore\n      shl(0x6a, 0x155cd95c881b9bdd081c9959da5cdd195c9959)\n        /* \"#utility.yul\":10633:10651   */\n      0x44\n      dup3\n      add\n        /* \"#utility.yul\":10626:10675   */\n      mstore\n        /* \"#utility.yul\":10692:10710   */\n      0x64\n      add\n        /* \"arcanix.sol\":5098:5159  require(isUserExistsInvst(msg.sender), \"User not registered\") */\n      tag_142\n        /* \"#utility.yul\":10373:10716   */\n      jump\n        /* \"arcanix.sol\":5098:5159  require(isUserExistsInvst(msg.sender), \"User not registered\") */\n    tag_343:\n        /* \"arcanix.sol\":5279:5280  0 */\n      0x00\n        /* \"arcanix.sol\":5272:5276  plan */\n      dup2\n        /* \"arcanix.sol\":5272:5280  plan > 0 */\n      0xff\n      and\n      gt\n        /* \"arcanix.sol\":5272:5292  plan > 0 && plan < 6 */\n      dup1\n      iszero\n      tag_345\n      jumpi\n      pop\n        /* \"arcanix.sol\":5291:5292  6 */\n      0x06\n        /* \"arcanix.sol\":5284:5288  plan */\n      dup2\n        /* \"arcanix.sol\":5284:5292  plan < 6 */\n      0xff\n      and\n      lt\n        /* \"arcanix.sol\":5272:5292  plan > 0 && plan < 6 */\n    tag_345:\n        /* \"arcanix.sol\":5264:5320  require(plan > 0 && plan < 6, \"Invalid Investment Plan\") */\n      tag_346\n      jumpi\n      mload(0x40)\n      shl(0xe5, 0x461bcd)\n      dup2\n      mstore\n        /* \"#utility.yul\":15457:15459   */\n      0x20\n        /* \"arcanix.sol\":5264:5320  require(plan > 0 && plan < 6, \"Invalid Investment Plan\") */\n      0x04\n      dup3\n      add\n        /* \"#utility.yul\":15439:15460   */\n      mstore\n        /* \"#utility.yul\":15496:15498   */\n      0x17\n        /* \"#utility.yul\":15476:15494   */\n      0x24\n      dup3\n      add\n        /* \"#utility.yul\":15469:15499   */\n      mstore\n        /* \"#utility.yul\":15535:15560   */\n      0x496e76616c696420496e766573746d656e7420506c616e000000000000000000\n        /* \"#utility.yul\":15515:15533   */\n      0x44\n      dup3\n      add\n        /* \"#utility.yul\":15508:15561   */\n      mstore\n        /* \"#utility.yul\":15578:15596   */\n      0x64\n      add\n        /* \"arcanix.sol\":5264:5320  require(plan > 0 && plan < 6, \"Invalid Investment Plan\") */\n      tag_142\n        /* \"#utility.yul\":15255:15602   */\n      jump\n        /* \"arcanix.sol\":5264:5320  require(plan > 0 && plan < 6, \"Invalid Investment Plan\") */\n    tag_346:\n        /* \"arcanix.sol\":5330:5348  uint256 roiPercent */\n      0x00\n        /* \"arcanix.sol\":5361:5365  plan */\n      dup2\n        /* \"arcanix.sol\":5361:5370  plan == 1 */\n      0xff\n      and\n        /* \"arcanix.sol\":5369:5370  1 */\n      0x01\n        /* \"arcanix.sol\":5361:5370  plan == 1 */\n      sub\n        /* \"arcanix.sol\":5358:7198  if(plan == 1){... */\n      tag_349\n      jumpi\n        /* \"arcanix.sol\":5406:5411  ETHER */\n      sload(0x04)\n        /* \"arcanix.sol\":5401:5411  50 * ETHER */\n      tag_350\n      swap1\n        /* \"arcanix.sol\":5401:5403  50 */\n      0x32\n        /* \"arcanix.sol\":5401:5411  50 * ETHER */\n      tag_160\n      jump\t// in\n    tag_350:\n        /* \"arcanix.sol\":5388:5398  usdtAmount */\n      dup4\n        /* \"arcanix.sol\":5388:5411  usdtAmount < 50 * ETHER */\n      lt\n        /* \"arcanix.sol\":5385:6211  if(usdtAmount < 50 * ETHER){... */\n      iszero\n      tag_351\n      jumpi\n        /* \"arcanix.sol\":5426:5460  revert(\"Invalid investment range\") */\n      mload(0x40)\n      shl(0xe5, 0x461bcd)\n      dup2\n      mstore\n      0x04\n      add\n      tag_142\n      swap1\n      tag_353\n      jump\t// in\n        /* \"arcanix.sol\":5385:6211  if(usdtAmount < 50 * ETHER){... */\n    tag_351:\n        /* \"arcanix.sol\":5503:5508  ETHER */\n      sload(0x04)\n        /* \"arcanix.sol\":5497:5508  500 * ETHER */\n      tag_355\n      swap1\n        /* \"arcanix.sol\":5497:5500  500 */\n      0x01f4\n        /* \"arcanix.sol\":5497:5508  500 * ETHER */\n      tag_160\n      jump\t// in\n    tag_355:\n        /* \"arcanix.sol\":5484:5494  usdtAmount */\n      dup4\n        /* \"arcanix.sol\":5484:5508  usdtAmount > 500 * ETHER */\n      gt\n        /* \"arcanix.sol\":5484:5536  usdtAmount > 500 * ETHER && usdtAmount < 600 * ETHER */\n      dup1\n      iszero\n      tag_356\n      jumpi\n      pop\n        /* \"arcanix.sol\":5531:5536  ETHER */\n      sload(0x04)\n        /* \"arcanix.sol\":5525:5536  600 * ETHER */\n      tag_357\n      swap1\n        /* \"arcanix.sol\":5525:5528  600 */\n      0x0258\n        /* \"arcanix.sol\":5525:5536  600 * ETHER */\n      tag_160\n      jump\t// in\n    tag_357:\n        /* \"arcanix.sol\":5512:5522  usdtAmount */\n      dup4\n        /* \"arcanix.sol\":5512:5536  usdtAmount < 600 * ETHER */\n      lt\n        /* \"arcanix.sol\":5484:5536  usdtAmount > 500 * ETHER && usdtAmount < 600 * ETHER */\n    tag_356:\n        /* \"arcanix.sol\":5481:6211  if(usdtAmount > 500 * ETHER && usdtAmount < 600 * ETHER){... */\n      iszero\n      tag_358\n      jumpi\n        /* \"arcanix.sol\":5551:5585  revert(\"Invalid investment range\") */\n      mload(0x40)\n      shl(0xe5, 0x461bcd)\n      dup2\n      mstore\n      0x04\n      add\n      tag_142\n      swap1\n      tag_353\n      jump\t// in\n        /* \"arcanix.sol\":5481:6211  if(usdtAmount > 500 * ETHER && usdtAmount < 600 * ETHER){... */\n    tag_358:\n        /* \"arcanix.sol\":5629:5634  ETHER */\n      sload(0x04)\n        /* \"arcanix.sol\":5622:5634  3000 * ETHER */\n      tag_361\n      swap1\n        /* \"arcanix.sol\":5622:5626  3000 */\n      0x0bb8\n        /* \"arcanix.sol\":5622:5634  3000 * ETHER */\n      tag_160\n      jump\t// in\n    tag_361:\n        /* \"arcanix.sol\":5609:5619  usdtAmount */\n      dup4\n        /* \"arcanix.sol\":5609:5634  usdtAmount > 3000 * ETHER */\n      gt\n        /* \"arcanix.sol\":5609:5663  usdtAmount > 3000 * ETHER && usdtAmount < 3500 * ETHER */\n      dup1\n      iszero\n      tag_362\n      jumpi\n      pop\n        /* \"arcanix.sol\":5658:5663  ETHER */\n      sload(0x04)\n        /* \"arcanix.sol\":5651:5663  3500 * ETHER */\n      tag_363\n      swap1\n        /* \"arcanix.sol\":5651:5655  3500 */\n      0x0dac\n        /* \"arcanix.sol\":5651:5663  3500 * ETHER */\n      tag_160\n      jump\t// in\n    tag_363:\n        /* \"arcanix.sol\":5638:5648  usdtAmount */\n      dup4\n        /* \"arcanix.sol\":5638:5663  usdtAmount < 3500 * ETHER */\n      lt\n        /* \"arcanix.sol\":5609:5663  usdtAmount > 3000 * ETHER && usdtAmount < 3500 * ETHER */\n    tag_362:\n        /* \"arcanix.sol\":5606:6211  if(usdtAmount > 3000 * ETHER && usdtAmount < 3500 * ETHER){... */\n      iszero\n      tag_364\n      jumpi\n        /* \"arcanix.sol\":5678:5712  revert(\"Invalid investment range\") */\n      mload(0x40)\n      shl(0xe5, 0x461bcd)\n      dup2\n      mstore\n      0x04\n      add\n      tag_142\n      swap1\n      tag_353\n      jump\t// in\n        /* \"arcanix.sol\":5606:6211  if(usdtAmount > 3000 * ETHER && usdtAmount < 3500 * ETHER){... */\n    tag_364:\n        /* \"arcanix.sol\":5756:5761  ETHER */\n      sload(0x04)\n        /* \"arcanix.sol\":5749:5761  9900 * ETHER */\n      tag_367\n      swap1\n        /* \"arcanix.sol\":5749:5753  9900 */\n      0x26ac\n        /* \"arcanix.sol\":5749:5761  9900 * ETHER */\n      tag_160\n      jump\t// in\n    tag_367:\n        /* \"arcanix.sol\":5736:5746  usdtAmount */\n      dup4\n        /* \"arcanix.sol\":5736:5761  usdtAmount > 9900 * ETHER */\n      gt\n        /* \"arcanix.sol\":5736:5791  usdtAmount > 9900 * ETHER && usdtAmount < 10000 * ETHER */\n      dup1\n      iszero\n      tag_368\n      jumpi\n      pop\n        /* \"arcanix.sol\":5786:5791  ETHER */\n      sload(0x04)\n        /* \"arcanix.sol\":5778:5791  10000 * ETHER */\n      tag_369\n      swap1\n        /* \"arcanix.sol\":5778:5783  10000 */\n      0x2710\n        /* \"arcanix.sol\":5778:5791  10000 * ETHER */\n      tag_160\n      jump\t// in\n    tag_369:\n        /* \"arcanix.sol\":5765:5775  usdtAmount */\n      dup4\n        /* \"arcanix.sol\":5765:5791  usdtAmount < 10000 * ETHER */\n      lt\n        /* \"arcanix.sol\":5736:5791  usdtAmount > 9900 * ETHER && usdtAmount < 10000 * ETHER */\n    tag_368:\n        /* \"arcanix.sol\":5733:6211  if(usdtAmount > 9900 * ETHER && usdtAmount < 10000 * ETHER){... */\n      iszero\n      tag_370\n      jumpi\n        /* \"arcanix.sol\":5806:5840  revert(\"Invalid investment range\") */\n      mload(0x40)\n      shl(0xe5, 0x461bcd)\n      dup2\n      mstore\n      0x04\n      add\n      tag_142\n      swap1\n      tag_353\n      jump\t// in\n        /* \"arcanix.sol\":5733:6211  if(usdtAmount > 9900 * ETHER && usdtAmount < 10000 * ETHER){... */\n    tag_370:\n        /* \"arcanix.sol\":5884:5889  ETHER */\n      sload(0x04)\n        /* \"arcanix.sol\":5879:5889  50 * ETHER */\n      tag_373\n      swap1\n        /* \"arcanix.sol\":5879:5881  50 */\n      0x32\n        /* \"arcanix.sol\":5879:5889  50 * ETHER */\n      tag_160\n      jump\t// in\n    tag_373:\n        /* \"arcanix.sol\":5865:5875  usdtAmount */\n      dup4\n        /* \"arcanix.sol\":5865:5889  usdtAmount >= 50 * ETHER */\n      lt\n      iszero\n        /* \"arcanix.sol\":5865:5918  usdtAmount >= 50 * ETHER && usdtAmount <= 500 * ETHER */\n      dup1\n      iszero\n      tag_374\n      jumpi\n      pop\n        /* \"arcanix.sol\":5913:5918  ETHER */\n      sload(0x04)\n        /* \"arcanix.sol\":5907:5918  500 * ETHER */\n      tag_375\n      swap1\n        /* \"arcanix.sol\":5907:5910  500 */\n      0x01f4\n        /* \"arcanix.sol\":5907:5918  500 * ETHER */\n      tag_160\n      jump\t// in\n    tag_375:\n        /* \"arcanix.sol\":5893:5903  usdtAmount */\n      dup4\n        /* \"arcanix.sol\":5893:5918  usdtAmount <= 500 * ETHER */\n      gt\n      iszero\n        /* \"arcanix.sol\":5865:5918  usdtAmount >= 50 * ETHER && usdtAmount <= 500 * ETHER */\n    tag_374:\n        /* \"arcanix.sol\":5861:6211  if (usdtAmount >= 50 * ETHER && usdtAmount <= 500 * ETHER) roiPercent = 60;     // 0.5%... */\n      iszero\n      tag_376\n      jumpi\n      pop\n        /* \"arcanix.sol\":5933:5935  60 */\n      0x3c\n        /* \"arcanix.sol\":5358:7198  if(plan == 1){... */\n      jump(tag_427)\n        /* \"arcanix.sol\":5861:6211  if (usdtAmount >= 50 * ETHER && usdtAmount <= 500 * ETHER) roiPercent = 60;     // 0.5%... */\n    tag_376:\n        /* \"arcanix.sol\":5986:5991  ETHER */\n      sload(0x04)\n        /* \"arcanix.sol\":5980:5991  600 * ETHER */\n      tag_378\n      swap1\n        /* \"arcanix.sol\":5980:5983  600 */\n      0x0258\n        /* \"arcanix.sol\":5980:5991  600 * ETHER */\n      tag_160\n      jump\t// in\n    tag_378:\n        /* \"arcanix.sol\":5966:5976  usdtAmount */\n      dup4\n        /* \"arcanix.sol\":5966:5991  usdtAmount >= 600 * ETHER */\n      lt\n      iszero\n        /* \"arcanix.sol\":5966:6021  usdtAmount >= 600 * ETHER && usdtAmount <= 3000 * ETHER */\n      dup1\n      iszero\n      tag_379\n      jumpi\n      pop\n        /* \"arcanix.sol\":6016:6021  ETHER */\n      sload(0x04)\n        /* \"arcanix.sol\":6009:6021  3000 * ETHER */\n      tag_380\n      swap1\n        /* \"arcanix.sol\":6009:6013  3000 */\n      0x0bb8\n        /* \"arcanix.sol\":6009:6021  3000 * ETHER */\n      tag_160\n      jump\t// in\n    tag_380:\n        /* \"arcanix.sol\":5995:6005  usdtAmount */\n      dup4\n        /* \"arcanix.sol\":5995:6021  usdtAmount <= 3000 * ETHER */\n      gt\n      iszero\n        /* \"arcanix.sol\":5966:6021  usdtAmount >= 600 * ETHER && usdtAmount <= 3000 * ETHER */\n    tag_379:\n        /* \"arcanix.sol\":5962:6211  if (usdtAmount >= 600 * ETHER && usdtAmount <= 3000 * ETHER) roiPercent = 70;  // 0.6%... */\n      iszero\n      tag_381\n      jumpi\n      pop\n        /* \"arcanix.sol\":6036:6038  70 */\n      0x46\n        /* \"arcanix.sol\":5358:7198  if(plan == 1){... */\n      jump(tag_427)\n        /* \"arcanix.sol\":5962:6211  if (usdtAmount >= 600 * ETHER && usdtAmount <= 3000 * ETHER) roiPercent = 70;  // 0.6%... */\n    tag_381:\n        /* \"arcanix.sol\":6087:6092  ETHER */\n      sload(0x04)\n        /* \"arcanix.sol\":6080:6092  3500 * ETHER */\n      tag_383\n      swap1\n        /* \"arcanix.sol\":6080:6084  3500 */\n      0x0dac\n        /* \"arcanix.sol\":6080:6092  3500 * ETHER */\n      tag_160\n      jump\t// in\n    tag_383:\n        /* \"arcanix.sol\":6066:6076  usdtAmount */\n      dup4\n        /* \"arcanix.sol\":6066:6092  usdtAmount >= 3500 * ETHER */\n      lt\n      iszero\n        /* \"arcanix.sol\":6066:6122  usdtAmount >= 3500 * ETHER && usdtAmount <= 9900 * ETHER */\n      dup1\n      iszero\n      tag_384\n      jumpi\n      pop\n        /* \"arcanix.sol\":6117:6122  ETHER */\n      sload(0x04)\n        /* \"arcanix.sol\":6110:6122  9900 * ETHER */\n      tag_385\n      swap1\n        /* \"arcanix.sol\":6110:6114  9900 */\n      0x26ac\n        /* \"arcanix.sol\":6110:6122  9900 * ETHER */\n      tag_160\n      jump\t// in\n    tag_385:\n        /* \"arcanix.sol\":6096:6106  usdtAmount */\n      dup4\n        /* \"arcanix.sol\":6096:6122  usdtAmount <= 9900 * ETHER */\n      gt\n      iszero\n        /* \"arcanix.sol\":6066:6122  usdtAmount >= 3500 * ETHER && usdtAmount <= 9900 * ETHER */\n    tag_384:\n        /* \"arcanix.sol\":6062:6211  if (usdtAmount >= 3500 * ETHER && usdtAmount <= 9900 * ETHER) roiPercent = 90; // 0.7%... */\n      iszero\n      tag_386\n      jumpi\n      pop\n        /* \"arcanix.sol\":6137:6139  90 */\n      0x5a\n        /* \"arcanix.sol\":5358:7198  if(plan == 1){... */\n      jump(tag_427)\n        /* \"arcanix.sol\":6062:6211  if (usdtAmount >= 3500 * ETHER && usdtAmount <= 9900 * ETHER) roiPercent = 90; // 0.7%... */\n    tag_386:\n        /* \"arcanix.sol\":6188:6193  ETHER */\n      sload(0x04)\n        /* \"arcanix.sol\":6180:6193  10000 * ETHER */\n      tag_388\n      swap1\n        /* \"arcanix.sol\":6180:6185  10000 */\n      0x2710\n        /* \"arcanix.sol\":6180:6193  10000 * ETHER */\n      tag_160\n      jump\t// in\n    tag_388:\n        /* \"arcanix.sol\":6166:6176  usdtAmount */\n      dup4\n        /* \"arcanix.sol\":6166:6193  usdtAmount >= 10000 * ETHER */\n      lt\n        /* \"arcanix.sol\":6162:6211  if (usdtAmount >= 10000 * ETHER) roiPercent = 100 */\n      tag_389\n      jumpi\n      pop\n        /* \"arcanix.sol\":6208:6211  100 */\n      0x64\n        /* \"arcanix.sol\":6162:6211  if (usdtAmount >= 10000 * ETHER) roiPercent = 100 */\n    tag_389:\n        /* \"arcanix.sol\":5358:7198  if(plan == 1){... */\n      jump(tag_427)\n    tag_349:\n        /* \"arcanix.sol\":6231:6235  plan */\n      dup2\n        /* \"arcanix.sol\":6231:6240  plan == 2 */\n      0xff\n      and\n        /* \"arcanix.sol\":6239:6240  2 */\n      0x02\n        /* \"arcanix.sol\":6231:6240  plan == 2 */\n      sub\n        /* \"arcanix.sol\":6228:7198  if(plan == 2){... */\n      tag_391\n      jumpi\n        /* \"arcanix.sol\":6277:6282  ETHER */\n      sload(0x04)\n        /* \"arcanix.sol\":6271:6282  100 * ETHER */\n      tag_392\n      swap1\n        /* \"arcanix.sol\":6271:6274  100 */\n      0x64\n        /* \"arcanix.sol\":6271:6282  100 * ETHER */\n      tag_160\n      jump\t// in\n    tag_392:\n        /* \"arcanix.sol\":6258:6268  usdtAmount */\n      dup4\n        /* \"arcanix.sol\":6258:6282  usdtAmount < 100 * ETHER */\n      lt\n        /* \"arcanix.sol\":6255:6558  if(usdtAmount < 100 * ETHER){... */\n      iszero\n      tag_393\n      jumpi\n        /* \"arcanix.sol\":6297:6331  revert(\"Invalid investment range\") */\n      mload(0x40)\n      shl(0xe5, 0x461bcd)\n      dup2\n      mstore\n      0x04\n      add\n      tag_142\n      swap1\n      tag_353\n      jump\t// in\n        /* \"arcanix.sol\":6255:6558  if(usdtAmount < 100 * ETHER){... */\n    tag_393:\n        /* \"arcanix.sol\":6377:6382  ETHER */\n      sload(0x04)\n        /* \"arcanix.sol\":6368:6382  100000 * ETHER */\n      tag_396\n      swap1\n        /* \"arcanix.sol\":6368:6374  100000 */\n      0x0186a0\n        /* \"arcanix.sol\":6368:6382  100000 * ETHER */\n      tag_160\n      jump\t// in\n    tag_396:\n        /* \"arcanix.sol\":6355:6365  usdtAmount */\n      dup4\n        /* \"arcanix.sol\":6355:6382  usdtAmount > 100000 * ETHER */\n      gt\n        /* \"arcanix.sol\":6352:6558  if(usdtAmount > 100000 * ETHER){... */\n      iszero\n      tag_397\n      jumpi\n        /* \"arcanix.sol\":6397:6431  revert(\"Invalid investment range\") */\n      mload(0x40)\n      shl(0xe5, 0x461bcd)\n      dup2\n      mstore\n      0x04\n      add\n      tag_142\n      swap1\n      tag_353\n      jump\t// in\n        /* \"arcanix.sol\":6352:6558  if(usdtAmount > 100000 * ETHER){... */\n    tag_397:\n        /* \"arcanix.sol\":6475:6480  ETHER */\n      sload(0x04)\n        /* \"arcanix.sol\":6469:6480  100 * ETHER */\n      tag_400\n      swap1\n        /* \"arcanix.sol\":6469:6472  100 */\n      0x64\n        /* \"arcanix.sol\":6469:6480  100 * ETHER */\n      tag_160\n      jump\t// in\n    tag_400:\n        /* \"arcanix.sol\":6455:6465  usdtAmount */\n      dup4\n        /* \"arcanix.sol\":6455:6480  usdtAmount >= 100 * ETHER */\n      lt\n      iszero\n        /* \"arcanix.sol\":6455:6512  usdtAmount >= 100 * ETHER && usdtAmount <= 100000 * ETHER */\n      dup1\n      iszero\n      tag_401\n      jumpi\n      pop\n        /* \"arcanix.sol\":6507:6512  ETHER */\n      sload(0x04)\n        /* \"arcanix.sol\":6498:6512  100000 * ETHER */\n      tag_402\n      swap1\n        /* \"arcanix.sol\":6498:6504  100000 */\n      0x0186a0\n        /* \"arcanix.sol\":6498:6512  100000 * ETHER */\n      tag_160\n      jump\t// in\n    tag_402:\n        /* \"arcanix.sol\":6484:6494  usdtAmount */\n      dup4\n        /* \"arcanix.sol\":6484:6512  usdtAmount <= 100000 * ETHER */\n      gt\n      iszero\n        /* \"arcanix.sol\":6455:6512  usdtAmount >= 100 * ETHER && usdtAmount <= 100000 * ETHER */\n    tag_401:\n        /* \"arcanix.sol\":6452:6558  if(usdtAmount >= 100 * ETHER && usdtAmount <= 100000 * ETHER){... */\n      iszero\n      tag_389\n      jumpi\n      pop\n        /* \"arcanix.sol\":6541:6543  50 */\n      0x32\n        /* \"arcanix.sol\":6228:7198  if(plan == 2){... */\n      jump(tag_427)\n    tag_391:\n        /* \"arcanix.sol\":6577:6581  plan */\n      dup2\n        /* \"arcanix.sol\":6577:6586  plan == 3 */\n      0xff\n      and\n        /* \"arcanix.sol\":6585:6586  3 */\n      0x03\n        /* \"arcanix.sol\":6577:6586  plan == 3 */\n      sub\n        /* \"arcanix.sol\":6574:7198  if(plan == 3){... */\n      tag_405\n      jumpi\n        /* \"arcanix.sol\":6621:6626  ETHER */\n      sload(0x04)\n        /* \"arcanix.sol\":6617:6626  1 * ETHER */\n      tag_406\n      swap1\n        /* \"arcanix.sol\":6617:6618  1 */\n      0x01\n        /* \"arcanix.sol\":6617:6626  1 * ETHER */\n      tag_160\n      jump\t// in\n    tag_406:\n        /* \"arcanix.sol\":6604:6614  usdtAmount */\n      dup4\n        /* \"arcanix.sol\":6604:6626  usdtAmount < 1 * ETHER */\n      lt\n        /* \"arcanix.sol\":6601:6768  if(usdtAmount < 1 * ETHER){... */\n      iszero\n      tag_407\n      jumpi\n        /* \"arcanix.sol\":6641:6675  revert(\"Invalid investment range\") */\n      mload(0x40)\n      shl(0xe5, 0x461bcd)\n      dup2\n      mstore\n      0x04\n      add\n      tag_142\n      swap1\n      tag_353\n      jump\t// in\n        /* \"arcanix.sol\":6601:6768  if(usdtAmount < 1 * ETHER){... */\n    tag_407:\n        /* \"arcanix.sol\":6717:6722  ETHER */\n      sload(0x04)\n        /* \"arcanix.sol\":6713:6722  1 * ETHER */\n      tag_410\n      swap1\n        /* \"arcanix.sol\":6713:6714  1 */\n      0x01\n        /* \"arcanix.sol\":6713:6722  1 * ETHER */\n      tag_160\n      jump\t// in\n    tag_410:\n        /* \"arcanix.sol\":6699:6709  usdtAmount */\n      dup4\n        /* \"arcanix.sol\":6699:6722  usdtAmount >= 1 * ETHER */\n      lt\n        /* \"arcanix.sol\":6696:6768  if(usdtAmount >= 1 * ETHER){... */\n      tag_389\n      jumpi\n      pop\n        /* \"arcanix.sol\":6751:6753  30 */\n      0x1e\n        /* \"arcanix.sol\":6574:7198  if(plan == 3){... */\n      jump(tag_427)\n    tag_405:\n        /* \"arcanix.sol\":6787:6791  plan */\n      dup2\n        /* \"arcanix.sol\":6787:6796  plan == 4 */\n      0xff\n      and\n        /* \"arcanix.sol\":6795:6796  4 */\n      0x04\n        /* \"arcanix.sol\":6787:6796  plan == 4 */\n      sub\n        /* \"arcanix.sol\":6784:7198  if(plan == 4){... */\n      tag_413\n      jumpi\n        /* \"arcanix.sol\":6831:6836  ETHER */\n      sload(0x04)\n        /* \"arcanix.sol\":6827:6836  1 * ETHER */\n      tag_406\n      swap1\n        /* \"arcanix.sol\":6827:6828  1 */\n      0x01\n        /* \"arcanix.sol\":6827:6836  1 * ETHER */\n      tag_160\n      jump\t// in\n        /* \"arcanix.sol\":6784:7198  if(plan == 4){... */\n    tag_413:\n        /* \"arcanix.sol\":6997:7001  plan */\n      dup2\n        /* \"arcanix.sol\":6997:7006  plan == 5 */\n      0xff\n      and\n        /* \"arcanix.sol\":7005:7006  5 */\n      0x05\n        /* \"arcanix.sol\":6997:7006  plan == 5 */\n      sub\n        /* \"arcanix.sol\":6994:7198  if(plan == 5){... */\n      tag_427\n      jumpi\n        /* \"arcanix.sol\":7041:7046  ETHER */\n      sload(0x04)\n        /* \"arcanix.sol\":7037:7046  1 * ETHER */\n      tag_422\n      swap1\n        /* \"arcanix.sol\":7037:7038  1 */\n      0x01\n        /* \"arcanix.sol\":7037:7046  1 * ETHER */\n      tag_160\n      jump\t// in\n    tag_422:\n        /* \"arcanix.sol\":7024:7034  usdtAmount */\n      dup4\n        /* \"arcanix.sol\":7024:7046  usdtAmount < 1 * ETHER */\n      lt\n        /* \"arcanix.sol\":7021:7188  if(usdtAmount < 1 * ETHER){... */\n      iszero\n      tag_423\n      jumpi\n        /* \"arcanix.sol\":7061:7095  revert(\"Invalid investment range\") */\n      mload(0x40)\n      shl(0xe5, 0x461bcd)\n      dup2\n      mstore\n      0x04\n      add\n      tag_142\n      swap1\n      tag_353\n      jump\t// in\n        /* \"arcanix.sol\":7021:7188  if(usdtAmount < 1 * ETHER){... */\n    tag_423:\n        /* \"arcanix.sol\":7137:7142  ETHER */\n      sload(0x04)\n        /* \"arcanix.sol\":7133:7142  1 * ETHER */\n      tag_426\n      swap1\n        /* \"arcanix.sol\":7133:7134  1 */\n      0x01\n        /* \"arcanix.sol\":7133:7142  1 * ETHER */\n      tag_160\n      jump\t// in\n    tag_426:\n        /* \"arcanix.sol\":7119:7129  usdtAmount */\n      dup4\n        /* \"arcanix.sol\":7119:7142  usdtAmount >= 1 * ETHER */\n      lt\n        /* \"arcanix.sol\":7116:7188  if(usdtAmount >= 1 * ETHER){... */\n      tag_427\n      jumpi\n      pop\n        /* \"arcanix.sol\":7171:7173  35 */\n      0x23\n        /* \"arcanix.sol\":7116:7188  if(usdtAmount >= 1 * ETHER){... */\n    tag_427:\n        /* \"arcanix.sol\":7215:7224  usdtToken */\n      sload(0x01)\n        /* \"arcanix.sol\":7215:7276  usdtToken.transferFrom(msg.sender, address(this), usdtAmount) */\n      mload(0x40)\n      shl(0xe0, 0x23b872dd)\n      dup2\n      mstore\n        /* \"arcanix.sol\":7238:7248  msg.sender */\n      caller\n        /* \"arcanix.sol\":7215:7276  usdtToken.transferFrom(msg.sender, address(this), usdtAmount) */\n      0x04\n      dup3\n      add\n        /* \"#utility.yul\":11270:11321   */\n      mstore\n        /* \"arcanix.sol\":7258:7262  this */\n      address\n        /* \"#utility.yul\":11337:11355   */\n      0x24\n      dup3\n      add\n        /* \"#utility.yul\":11330:11390   */\n      mstore\n        /* \"#utility.yul\":11406:11424   */\n      0x44\n      dup2\n      add\n        /* \"#utility.yul\":11399:11433   */\n      dup6\n      swap1\n      mstore\n      sub(shl(0xa0, 0x01), 0x01)\n        /* \"arcanix.sol\":7215:7224  usdtToken */\n      swap1\n      swap2\n      and\n      swap1\n        /* \"arcanix.sol\":7215:7237  usdtToken.transferFrom */\n      0x23b872dd\n      swap1\n        /* \"#utility.yul\":11243:11261   */\n      0x64\n      add\n        /* \"arcanix.sol\":7215:7276  usdtToken.transferFrom(msg.sender, address(this), usdtAmount) */\n      0x20\n      mload(0x40)\n      dup1\n      dup4\n      sub\n      dup2\n      0x00\n      dup8\n      gas\n      call\n      iszero\n      dup1\n      iszero\n      tag_430\n      jumpi\n      returndatacopy(0x00, 0x00, returndatasize)\n      revert(0x00, returndatasize)\n    tag_430:\n      pop\n      pop\n      pop\n      pop\n      mload(0x40)\n      returndatasize\n      not(0x1f)\n      0x1f\n      dup3\n      add\n      and\n      dup3\n      add\n      dup1\n      0x40\n      mstore\n      pop\n      dup2\n      add\n      swap1\n      tag_431\n      swap2\n      swap1\n      tag_173\n      jump\t// in\n    tag_431:\n        /* \"arcanix.sol\":7207:7301  require(usdtToken.transferFrom(msg.sender, address(this), usdtAmount), \"USDT transfer failed\") */\n      tag_432\n      jumpi\n      mload(0x40)\n      shl(0xe5, 0x461bcd)\n      dup2\n      mstore\n        /* \"#utility.yul\":11646:11648   */\n      0x20\n        /* \"arcanix.sol\":7207:7301  require(usdtToken.transferFrom(msg.sender, address(this), usdtAmount), \"USDT transfer failed\") */\n      0x04\n      dup3\n      add\n        /* \"#utility.yul\":11628:11649   */\n      mstore\n        /* \"#utility.yul\":11685:11687   */\n      0x14\n        /* \"#utility.yul\":11665:11683   */\n      0x24\n      dup3\n      add\n        /* \"#utility.yul\":11658:11688   */\n      mstore\n      shl(0x62, 0x1554d115081d1c985b9cd9995c8819985a5b1959)\n        /* \"#utility.yul\":11704:11722   */\n      0x44\n      dup3\n      add\n        /* \"#utility.yul\":11697:11747   */\n      mstore\n        /* \"#utility.yul\":11764:11782   */\n      0x64\n      add\n        /* \"arcanix.sol\":7207:7301  require(usdtToken.transferFrom(msg.sender, address(this), usdtAmount), \"USDT transfer failed\") */\n      tag_142\n        /* \"#utility.yul\":11444:11788   */\n      jump\n        /* \"arcanix.sol\":7207:7301  require(usdtToken.transferFrom(msg.sender, address(this), usdtAmount), \"USDT transfer failed\") */\n    tag_432:\n        /* \"arcanix.sol\":7344:7354  msg.sender */\n      caller\n        /* \"arcanix.sol\":7313:7331  Purchase storage p */\n      0x00\n        /* \"arcanix.sol\":7334:7355  purchases[msg.sender] */\n      swap1\n      dup2\n      mstore\n        /* \"arcanix.sol\":7334:7343  purchases */\n      0x06\n        /* \"arcanix.sol\":7334:7355  purchases[msg.sender] */\n      0x20\n      mstore\n      0x40\n      dup2\n      keccak256\n        /* \"arcanix.sol\":7365:7381  p.usdtSpentinvst */\n      0x05\n      dup2\n      add\n        /* \"arcanix.sol\":7365:7395  p.usdtSpentinvst += usdtAmount */\n      dup1\n      sload\n        /* \"arcanix.sol\":7334:7355  purchases[msg.sender] */\n      swap2\n      swap3\n        /* \"arcanix.sol\":7385:7395  usdtAmount */\n      dup7\n      swap3\n        /* \"arcanix.sol\":7365:7395  p.usdtSpentinvst += usdtAmount */\n      tag_434\n      swap1\n        /* \"arcanix.sol\":7385:7395  usdtAmount */\n      dup5\n      swap1\n        /* \"arcanix.sol\":7365:7395  p.usdtSpentinvst += usdtAmount */\n      tag_166\n      jump\t// in\n    tag_434:\n      swap1\n      swap2\n      sstore\n      pop\n        /* \"arcanix.sol\":7420:7434  usdtAmount * 2 */\n      tag_435\n      swap1\n      pop\n        /* \"arcanix.sol\":7420:7430  usdtAmount */\n      dup5\n        /* \"arcanix.sol\":7433:7434  2 */\n      0x02\n        /* \"arcanix.sol\":7420:7434  usdtAmount * 2 */\n      tag_160\n      jump\t// in\n    tag_435:\n        /* \"arcanix.sol\":7405:7406  p */\n      dup2\n        /* \"arcanix.sol\":7405:7416  p.targetROI */\n      0x08\n      add\n      0x00\n        /* \"arcanix.sol\":7405:7434  p.targetROI += usdtAmount * 2 */\n      dup3\n      dup3\n      sload\n      tag_436\n      swap2\n      swap1\n      tag_166\n      jump\t// in\n    tag_436:\n      swap1\n      swap2\n      sstore\n      pop\n      pop\n        /* \"arcanix.sol\":7472:7487  block.timestamp */\n      timestamp\n        /* \"arcanix.sol\":7454:7469  p.lastClaimedAt */\n      0x09\n      dup3\n      add\n        /* \"arcanix.sol\":7454:7487  p.lastClaimedAt = block.timestamp */\n      dup2\n      swap1\n      sstore\n        /* \"arcanix.sol\":7498:7513  p._detail[plan] */\n      0xff\n      dup5\n      and\n      0x00\n      dup2\n      dup2\n      mstore\n        /* \"arcanix.sol\":7498:7507  p._detail */\n      0x0d\n      dup5\n      add\n        /* \"arcanix.sol\":7498:7513  p._detail[plan] */\n      0x20\n      swap1\n      dup2\n      mstore\n      0x40\n      dup1\n      dup4\n      keccak256\n        /* \"arcanix.sol\":7528:7591  Details(usdtAmount, plan, block.timestamp, roiPercent, 0, true) */\n      dup2\n      mload\n      0xc0\n      dup2\n      add\n      dup4\n      mstore\n      dup11\n      dup2\n      mstore\n      dup1\n      dup5\n      add\n      dup7\n      dup2\n      mstore\n      dup2\n      dup5\n      add\n      swap8\n      dup9\n      mstore\n      0x60\n      dup3\n      add\n      dup11\n      dup2\n      mstore\n      0x80\n      dup4\n      add\n      dup8\n      dup2\n      mstore\n        /* \"arcanix.sol\":7586:7590  true */\n      0x01\n        /* \"arcanix.sol\":7528:7591  Details(usdtAmount, plan, block.timestamp, roiPercent, 0, true) */\n      0xa0\n      dup6\n      add\n      dup2\n      dup2\n      mstore\n        /* \"arcanix.sol\":7498:7601  p._detail[plan].push(... */\n      dup7\n      sload\n      dup1\n      dup4\n      add\n      dup9\n      sstore\n      swap7\n      dup11\n      mstore\n      swap9\n      dup9\n      swap1\n      keccak256\n      swap5\n      mload\n      0x06\n      swap1\n      swap7\n      mul\n      swap1\n      swap5\n      add\n      swap5\n      dup6\n      sstore\n      swap2\n      mload\n      swap3\n      dup5\n      add\n      swap3\n      swap1\n      swap3\n      sstore\n      swap7\n      mload\n      0x02\n      dup4\n      add\n      sstore\n      mload\n      0x03\n      dup3\n      add\n      sstore\n      swap5\n      mload\n      0x04\n      dup7\n      add\n      sstore\n      swap2\n      mload\n      0x05\n      swap1\n      swap5\n      add\n      dup1\n      sload\n      not(0xff)\n      and\n      swap5\n      iszero\n      iszero\n      swap5\n      swap1\n      swap5\n      or\n      swap1\n      swap4\n      sstore\n        /* \"arcanix.sol\":7617:7657  Investment(msg.sender, usdtAmount, plan) */\n      dup1\n      mload\n        /* \"#utility.yul\":16130:16155   */\n      dup8\n      dup2\n      mstore\n        /* \"#utility.yul\":16171:16189   */\n      swap3\n      dup4\n      add\n        /* \"#utility.yul\":16164:16209   */\n      swap2\n      swap1\n      swap2\n      mstore\n        /* \"arcanix.sol\":7628:7638  msg.sender */\n      caller\n      swap2\n        /* \"arcanix.sol\":7617:7657  Investment(msg.sender, usdtAmount, plan) */\n      0xe419b79865e277810686c2278e574727f1bb7a3464fa554f499199109e5e2e3a\n      swap2\n        /* \"#utility.yul\":16103:16121   */\n      add\n        /* \"arcanix.sol\":7617:7657  Investment(msg.sender, usdtAmount, plan) */\n      mload(0x40)\n      dup1\n      swap2\n      sub\n      swap1\n      log2\n        /* \"arcanix.sol\":7668:7711  _updateTeamBusiness(usdtAmount, msg.sender) */\n      tag_440\n        /* \"arcanix.sol\":7688:7698  usdtAmount */\n      dup5\n        /* \"arcanix.sol\":7700:7710  msg.sender */\n      caller\n        /* \"arcanix.sol\":7668:7687  _updateTeamBusiness */\n      tag_441\n        /* \"arcanix.sol\":7668:7711  _updateTeamBusiness(usdtAmount, msg.sender) */\n      jump\t// in\n    tag_440:\n        /* \"arcanix.sol\":7722:7762  _sendLevelIncome(usdtAmount, msg.sender) */\n      tag_442\n        /* \"arcanix.sol\":7739:7749  usdtAmount */\n      dup5\n        /* \"arcanix.sol\":7751:7761  msg.sender */\n      caller\n        /* \"arcanix.sol\":7722:7738  _sendLevelIncome */\n      tag_443\n        /* \"arcanix.sol\":7722:7762  _sendLevelIncome(usdtAmount, msg.sender) */\n      jump\t// in\n    tag_442:\n        /* \"arcanix.sol\":5088:7769  {... */\n      pop\n      pop\n        /* \"arcanix.sol\":5028:7769  function arxinvest(uint256 usdtAmount, uint8 plan) external {... */\n      pop\n      pop\n      jump\t// out\n        /* \"arcanix.sol\":4797:4901  function registrationEx(address _referrer) external {... */\n    tag_108:\n        /* \"arcanix.sol\":4859:4894  registration(msg.sender, _referrer) */\n      tag_231\n        /* \"arcanix.sol\":4872:4882  msg.sender */\n      caller\n        /* \"arcanix.sol\":4884:4893  _referrer */\n      dup3\n        /* \"arcanix.sol\":4859:4871  registration */\n      tag_446\n        /* \"arcanix.sol\":4859:4894  registration(msg.sender, _referrer) */\n      jump\t// in\n        /* \"arcanix.sol\":10696:12317  function claimDailyROI() external {... */\n    tag_115:\n        /* \"arcanix.sol\":10775:10785  msg.sender */\n      caller\n        /* \"arcanix.sol\":10744:10762  Purchase storage p */\n      0x00\n        /* \"arcanix.sol\":10765:10786  purchases[msg.sender] */\n      swap1\n      dup2\n      mstore\n        /* \"arcanix.sol\":10765:10774  purchases */\n      0x06\n        /* \"arcanix.sol\":10765:10786  purchases[msg.sender] */\n      0x20\n      mstore\n      0x40\n      swap1\n      keccak256\n        /* \"arcanix.sol\":10808:10824  p.usdtSpentinvst */\n      0x05\n      dup2\n      add\n      sload\n        /* \"arcanix.sol\":10800:10846  require(p.usdtSpentinvst > 0, \"No investment\") */\n      tag_449\n      jumpi\n      mload(0x40)\n      shl(0xe5, 0x461bcd)\n      dup2\n      mstore\n      0x04\n      add\n      tag_142\n      swap1\n      tag_146\n      jump\t// in\n    tag_449:\n        /* \"arcanix.sol\":10861:10879  uint256 totalClaim */\n      0x00\n        /* \"arcanix.sol\":10937:10938  1 */\n      0x01\n        /* \"arcanix.sol\":10922:11894  for (uint8 j = 1; j <= 5; j++) {... */\n    tag_451:\n        /* \"arcanix.sol\":10945:10946  5 */\n      0x05\n        /* \"arcanix.sol\":10940:10941  j */\n      dup2\n        /* \"arcanix.sol\":10940:10946  j <= 5 */\n      0xff\n      and\n      gt\n        /* \"arcanix.sol\":10922:11894  for (uint8 j = 1; j <= 5; j++) {... */\n      tag_452\n      jumpi\n        /* \"arcanix.sol\":11000:11012  p._detail[j] */\n      0xff\n      dup2\n      and\n        /* \"arcanix.sol\":10972:10997  Details[] storage details */\n      0x00\n        /* \"arcanix.sol\":11000:11012  p._detail[j] */\n      swap1\n      dup2\n      mstore\n        /* \"arcanix.sol\":11000:11009  p._detail */\n      0x0d\n      dup5\n      add\n        /* \"arcanix.sol\":11000:11012  p._detail[j] */\n      0x20\n      mstore\n      0x40\n      dup2\n      keccak256\n      swap1\n        /* \"arcanix.sol\":11026:11880  for (uint256 i = 0; i < details.length; i++) {... */\n    tag_454:\n        /* \"arcanix.sol\":11050:11064  details.length */\n      dup2\n      sload\n        /* \"arcanix.sol\":11046:11064  i < details.length */\n      dup2\n      lt\n        /* \"arcanix.sol\":11026:11880  for (uint256 i = 0; i < details.length; i++) {... */\n      iszero\n      tag_455\n      jumpi\n        /* \"arcanix.sol\":11089:11106  Details storage d */\n      0x00\n        /* \"arcanix.sol\":11109:11116  details */\n      dup3\n        /* \"arcanix.sol\":11117:11118  i */\n      dup3\n        /* \"arcanix.sol\":11109:11119  details[i] */\n      dup2\n      sload\n      dup2\n      lt\n      tag_458\n      jumpi\n      tag_458\n      tag_152\n      jump\t// in\n    tag_458:\n      0x00\n      swap2\n      dup3\n      mstore\n      0x20\n      swap1\n      swap2\n      keccak256\n      0x06\n      swap1\n      swap2\n      mul\n      add\n        /* \"arcanix.sol\":11159:11172  d.stakestatus */\n      0x05\n      dup2\n      add\n      sload\n        /* \"arcanix.sol\":11109:11119  details[i] */\n      swap1\n      swap2\n      pop\n        /* \"arcanix.sol\":11159:11172  d.stakestatus */\n      0xff\n      and\n        /* \"arcanix.sol\":11154:11223  if (!d.stakestatus) {... */\n      tag_460\n      jumpi\n        /* \"arcanix.sol\":11196:11204  continue */\n      pop\n      jump(tag_456)\n        /* \"arcanix.sol\":11154:11223  if (!d.stakestatus) {... */\n    tag_460:\n        /* \"arcanix.sol\":11296:11317  uint256 minutesPassed */\n      0x00\n        /* \"arcanix.sol\":11354:11360  1 days */\n      0x015180\n        /* \"arcanix.sol\":11339:11340  d */\n      dup3\n        /* \"arcanix.sol\":11339:11350  d.timestamp */\n      0x02\n      add\n      sload\n        /* \"arcanix.sol\":11321:11336  block.timestamp */\n      timestamp\n        /* \"arcanix.sol\":11321:11350  block.timestamp - d.timestamp */\n      tag_461\n      swap2\n      swap1\n      tag_156\n      jump\t// in\n    tag_461:\n        /* \"arcanix.sol\":11320:11360  (block.timestamp - d.timestamp) / 1 days */\n      tag_462\n      swap2\n      swap1\n      tag_158\n      jump\t// in\n    tag_462:\n        /* \"arcanix.sol\":11296:11360  uint256 minutesPassed = (block.timestamp - d.timestamp) / 1 days */\n      swap1\n      pop\n        /* \"arcanix.sol\":11378:11394  uint256 dailyROI */\n      0x00\n        /* \"arcanix.sol\":11429:11434  10000 */\n      0x2710\n        /* \"arcanix.sol\":11413:11414  d */\n      dup4\n        /* \"arcanix.sol\":11413:11425  d.roiPercent */\n      0x03\n      add\n      sload\n        /* \"arcanix.sol\":11398:11399  d */\n      dup5\n        /* \"arcanix.sol\":11398:11410  d.usdtAmount */\n      0x00\n      add\n      sload\n        /* \"arcanix.sol\":11398:11425  d.usdtAmount * d.roiPercent */\n      tag_463\n      swap2\n      swap1\n      tag_160\n      jump\t// in\n    tag_463:\n        /* \"arcanix.sol\":11397:11434  (d.usdtAmount * d.roiPercent) / 10000 */\n      tag_464\n      swap2\n      swap1\n      tag_158\n      jump\t// in\n    tag_464:\n        /* \"arcanix.sol\":11378:11434  uint256 dailyROI = (d.usdtAmount * d.roiPercent) / 10000 */\n      swap1\n      pop\n        /* \"arcanix.sol\":11471:11492  uint256 totalEligible */\n      0x00\n        /* \"arcanix.sol\":11495:11519  dailyROI * minutesPassed */\n      tag_465\n        /* \"arcanix.sol\":11506:11519  minutesPassed */\n      dup4\n        /* \"arcanix.sol\":11378:11434  uint256 dailyROI = (d.usdtAmount * d.roiPercent) / 10000 */\n      dup4\n        /* \"arcanix.sol\":11495:11519  dailyROI * minutesPassed */\n      tag_160\n      jump\t// in\n    tag_465:\n        /* \"arcanix.sol\":11471:11519  uint256 totalEligible = dailyROI * minutesPassed */\n      swap1\n      pop\n        /* \"arcanix.sol\":11614:11615  d */\n      dup4\n        /* \"arcanix.sol\":11614:11626  d.claimedROI */\n      0x04\n      add\n      sload\n        /* \"arcanix.sol\":11598:11611  totalEligible */\n      dup2\n        /* \"arcanix.sol\":11598:11626  totalEligible > d.claimedROI */\n      gt\n        /* \"arcanix.sol\":11594:11866  if (totalEligible > d.claimedROI) {... */\n      iszero\n      tag_466\n      jumpi\n        /* \"arcanix.sol\":11650:11669  uint256 actualClaim */\n      0x00\n        /* \"arcanix.sol\":11688:11689  d */\n      dup5\n        /* \"arcanix.sol\":11688:11700  d.claimedROI */\n      0x04\n      add\n      sload\n        /* \"arcanix.sol\":11672:11685  totalEligible */\n      dup3\n        /* \"arcanix.sol\":11672:11700  totalEligible - d.claimedROI */\n      tag_467\n      swap2\n      swap1\n      tag_156\n      jump\t// in\n    tag_467:\n        /* \"arcanix.sol\":11650:11700  uint256 actualClaim = totalEligible - d.claimedROI */\n      swap1\n      pop\n        /* \"arcanix.sol\":11738:11749  actualClaim */\n      dup1\n        /* \"arcanix.sol\":11722:11723  d */\n      dup6\n        /* \"arcanix.sol\":11722:11734  d.claimedROI */\n      0x04\n      add\n      0x00\n        /* \"arcanix.sol\":11722:11749  d.claimedROI += actualClaim */\n      dup3\n      dup3\n      sload\n      tag_468\n      swap2\n      swap1\n      tag_166\n      jump\t// in\n    tag_468:\n      swap1\n      swap2\n      sstore\n      pop\n      pop\n        /* \"arcanix.sol\":11785:11800  block.timestamp */\n      timestamp\n        /* \"arcanix.sol\":11771:11782  d.timestamp */\n      0x02\n      dup7\n      add\n        /* \"arcanix.sol\":11771:11800  d.timestamp = block.timestamp */\n      sstore\n        /* \"arcanix.sol\":11822:11847  totalClaim += actualClaim */\n      tag_469\n        /* \"arcanix.sol\":11836:11847  actualClaim */\n      dup2\n        /* \"arcanix.sol\":11822:11847  totalClaim += actualClaim */\n      dup11\n      tag_166\n      jump\t// in\n    tag_469:\n      swap9\n      pop\n        /* \"arcanix.sol\":11628:11866  {... */\n      pop\n        /* \"arcanix.sol\":11594:11866  if (totalEligible > d.claimedROI) {... */\n    tag_466:\n        /* \"arcanix.sol\":11071:11880  {... */\n      pop\n      pop\n      pop\n      pop\n        /* \"arcanix.sol\":11026:11880  for (uint256 i = 0; i < details.length; i++) {... */\n    tag_456:\n        /* \"arcanix.sol\":11066:11069  i++ */\n      0x01\n      add\n        /* \"arcanix.sol\":11026:11880  for (uint256 i = 0; i < details.length; i++) {... */\n      jump(tag_454)\n    tag_455:\n      pop\n        /* \"arcanix.sol\":10953:11894  {... */\n      pop\n        /* \"arcanix.sol\":10948:10951  j++ */\n      dup1\n      dup1\n      tag_470\n      swap1\n      tag_333\n      jump\t// in\n    tag_470:\n      swap2\n      pop\n      pop\n        /* \"arcanix.sol\":10922:11894  for (uint8 j = 1; j <= 5; j++) {... */\n      jump(tag_451)\n    tag_452:\n      pop\n        /* \"arcanix.sol\":11935:11940  ETHER */\n      sload(0x04)\n        /* \"arcanix.sol\":11929:11940  100 * ETHER */\n      tag_471\n      swap1\n        /* \"arcanix.sol\":11929:11932  100 */\n      0x64\n        /* \"arcanix.sol\":11929:11940  100 * ETHER */\n      tag_160\n      jump\t// in\n    tag_471:\n        /* \"arcanix.sol\":11915:11925  totalClaim */\n      dup2\n        /* \"arcanix.sol\":11915:11940  totalClaim >= 100 * ETHER */\n      lt\n      iszero\n        /* \"arcanix.sol\":11907:11979  require(totalClaim >= 100 * ETHER, \"Minimum 100 USDT required to claim\") */\n      tag_472\n      jumpi\n      mload(0x40)\n      shl(0xe5, 0x461bcd)\n      dup2\n      mstore\n        /* \"#utility.yul\":16422:16424   */\n      0x20\n        /* \"arcanix.sol\":11907:11979  require(totalClaim >= 100 * ETHER, \"Minimum 100 USDT required to claim\") */\n      0x04\n      dup3\n      add\n        /* \"#utility.yul\":16404:16425   */\n      mstore\n        /* \"#utility.yul\":16461:16463   */\n      0x22\n        /* \"#utility.yul\":16441:16459   */\n      0x24\n      dup3\n      add\n        /* \"#utility.yul\":16434:16464   */\n      mstore\n        /* \"#utility.yul\":16500:16534   */\n      0x4d696e696d756d20313030205553445420726571756972656420746f20636c61\n        /* \"#utility.yul\":16480:16498   */\n      0x44\n      dup3\n      add\n        /* \"#utility.yul\":16473:16535   */\n      mstore\n      shl(0xf0, 0x696d)\n        /* \"#utility.yul\":16551:16569   */\n      0x64\n      dup3\n      add\n        /* \"#utility.yul\":16544:16576   */\n      mstore\n        /* \"#utility.yul\":16593:16612   */\n      0x84\n      add\n        /* \"arcanix.sol\":11907:11979  require(totalClaim >= 100 * ETHER, \"Minimum 100 USDT required to claim\") */\n      tag_142\n        /* \"#utility.yul\":16220:16618   */\n      jump\n        /* \"arcanix.sol\":11907:11979  require(totalClaim >= 100 * ETHER, \"Minimum 100 USDT required to claim\") */\n    tag_472:\n        /* \"arcanix.sol\":11993:12021  uint256 amountAfterDeduction */\n      0x00\n        /* \"arcanix.sol\":12044:12047  100 */\n      0x64\n        /* \"arcanix.sol\":12025:12040  totalClaim * 96 */\n      tag_475\n        /* \"arcanix.sol\":12025:12035  totalClaim */\n      dup4\n        /* \"arcanix.sol\":12038:12040  96 */\n      0x60\n        /* \"arcanix.sol\":12025:12040  totalClaim * 96 */\n      tag_160\n      jump\t// in\n    tag_475:\n        /* \"arcanix.sol\":12024:12047  (totalClaim * 96) / 100 */\n      tag_476\n      swap2\n      swap1\n      tag_158\n      jump\t// in\n    tag_476:\n        /* \"arcanix.sol\":12069:12078  usdtToken */\n      sload(0x01)\n        /* \"arcanix.sol\":12069:12121  usdtToken.transfer(msg.sender, amountAfterDeduction) */\n      mload(0x40)\n      shl(0xe0, 0xa9059cbb)\n      dup2\n      mstore\n        /* \"arcanix.sol\":12088:12098  msg.sender */\n      caller\n        /* \"arcanix.sol\":12069:12121  usdtToken.transfer(msg.sender, amountAfterDeduction) */\n      0x04\n      dup3\n      add\n        /* \"#utility.yul\":9642:9693   */\n      mstore\n        /* \"#utility.yul\":9709:9727   */\n      0x24\n      dup2\n      add\n        /* \"#utility.yul\":9702:9736   */\n      dup4\n      swap1\n      mstore\n        /* \"arcanix.sol\":11993:12047  uint256 amountAfterDeduction = (totalClaim * 96) / 100 */\n      swap2\n      swap3\n      pop\n      sub(shl(0xa0, 0x01), 0x01)\n        /* \"arcanix.sol\":12069:12078  usdtToken */\n      and\n      swap1\n        /* \"arcanix.sol\":12069:12087  usdtToken.transfer */\n      0xa9059cbb\n      swap1\n        /* \"#utility.yul\":9615:9633   */\n      0x44\n      add\n        /* \"arcanix.sol\":12069:12121  usdtToken.transfer(msg.sender, amountAfterDeduction) */\n      0x20\n      mload(0x40)\n      dup1\n      dup4\n      sub\n      dup2\n      0x00\n      dup8\n      gas\n      call\n      iszero\n      dup1\n      iszero\n      tag_479\n      jumpi\n      returndatacopy(0x00, 0x00, returndatasize)\n      revert(0x00, returndatasize)\n    tag_479:\n      pop\n      pop\n      pop\n      pop\n      mload(0x40)\n      returndatasize\n      not(0x1f)\n      0x1f\n      dup3\n      add\n      and\n      dup3\n      add\n      dup1\n      0x40\n      mstore\n      pop\n      dup2\n      add\n      swap1\n      tag_480\n      swap2\n      swap1\n      tag_173\n      jump\t// in\n    tag_480:\n        /* \"arcanix.sol\":12061:12141  require(usdtToken.transfer(msg.sender, amountAfterDeduction), \"Transfer failed\") */\n      tag_481\n      jumpi\n      mload(0x40)\n      shl(0xe5, 0x461bcd)\n      dup2\n      mstore\n      0x04\n      add\n      tag_142\n      swap1\n      tag_176\n      jump\t// in\n    tag_481:\n        /* \"arcanix.sol\":12177:12187  totalClaim */\n      dup2\n        /* \"arcanix.sol\":12156:12157  p */\n      dup4\n        /* \"arcanix.sol\":12156:12173  p.totalROIClaimed */\n      0x07\n      add\n      0x00\n        /* \"arcanix.sol\":12156:12187  p.totalROIClaimed += totalClaim */\n      dup3\n      dup3\n      sload\n      tag_483\n      swap2\n      swap1\n      tag_166\n      jump\t// in\n    tag_483:\n      swap1\n      swap2\n      sstore\n      pop\n      pop\n        /* \"arcanix.sol\":12219:12234  block.timestamp */\n      timestamp\n        /* \"arcanix.sol\":12201:12216  p.lastClaimedAt */\n      0x09\n      dup5\n      add\n        /* \"arcanix.sol\":12201:12234  p.lastClaimedAt = block.timestamp */\n      sstore\n        /* \"arcanix.sol\":12267:12306  DailyROIClaimed(msg.sender, totalClaim) */\n      mload(0x40)\n        /* \"#utility.yul\":1160:1185   */\n      dup3\n      dup2\n      mstore\n        /* \"arcanix.sol\":12283:12293  msg.sender */\n      caller\n      swap1\n        /* \"arcanix.sol\":12267:12306  DailyROIClaimed(msg.sender, totalClaim) */\n      0x574c59dfd25e29ed9605f5accedb5aab0b989606855c61bf6fdcd0875ec8d4b5\n      swap1\n        /* \"#utility.yul\":1148:1150   */\n      0x20\n        /* \"#utility.yul\":1133:1151   */\n      add\n        /* \"arcanix.sol\":12267:12306  DailyROIClaimed(msg.sender, totalClaim) */\n      mload(0x40)\n      dup1\n      swap2\n      sub\n      swap1\n      log2\n        /* \"arcanix.sol\":10730:12317  {... */\n      pop\n      pop\n      pop\n        /* \"arcanix.sol\":10696:12317  function claimDailyROI() external {... */\n      jump\t// out\n        /* \"arcanix.sol\":20260:20759  function adminDistributeRealTokens(address user) external onlyOwner {... */\n    tag_121:\n        /* \"arcanix.sol\":3133:3138  owner */\n      sload(0x00)\n      0x010000\n      swap1\n      div\n      sub(shl(0xa0, 0x01), 0x01)\n      and\n        /* \"arcanix.sol\":3119:3129  msg.sender */\n      caller\n        /* \"arcanix.sol\":3119:3138  msg.sender == owner */\n      eq\n        /* \"arcanix.sol\":3111:3153  require(msg.sender == owner, \"Only owner\") */\n      tag_486\n      jumpi\n      mload(0x40)\n      shl(0xe5, 0x461bcd)\n      dup2\n      mstore\n      0x04\n      add\n      tag_142\n      swap1\n      tag_217\n      jump\t// in\n    tag_486:\n      sub(shl(0xa0, 0x01), 0x01)\n        /* \"arcanix.sol\":20359:20374  purchases[user] */\n      dup2\n      and\n        /* \"arcanix.sol\":20338:20356  Purchase storage p */\n      0x00\n        /* \"arcanix.sol\":20359:20374  purchases[user] */\n      swap1\n      dup2\n      mstore\n        /* \"arcanix.sol\":20359:20368  purchases */\n      0x06\n        /* \"arcanix.sol\":20359:20374  purchases[user] */\n      0x20\n      mstore\n      0x40\n      swap1\n      keccak256\n        /* \"arcanix.sol\":20393:20406  p.distributed */\n      0x0a\n      dup2\n      add\n      sload\n      0xff\n      and\n        /* \"arcanix.sol\":20392:20406  !p.distributed */\n      iszero\n        /* \"arcanix.sol\":20384:20430  require(!p.distributed, \"Already distributed\") */\n      tag_489\n      jumpi\n      mload(0x40)\n      shl(0xe5, 0x461bcd)\n      dup2\n      mstore\n        /* \"#utility.yul\":16825:16827   */\n      0x20\n        /* \"arcanix.sol\":20384:20430  require(!p.distributed, \"Already distributed\") */\n      0x04\n      dup3\n      add\n        /* \"#utility.yul\":16807:16828   */\n      mstore\n        /* \"#utility.yul\":16864:16866   */\n      0x13\n        /* \"#utility.yul\":16844:16862   */\n      0x24\n      dup3\n      add\n        /* \"#utility.yul\":16837:16867   */\n      mstore\n      shl(0x6a, 0x105b1c9958591e48191a5cdd1c9a589d5d1959)\n        /* \"#utility.yul\":16883:16901   */\n      0x44\n      dup3\n      add\n        /* \"#utility.yul\":16876:16925   */\n      mstore\n        /* \"#utility.yul\":16942:16960   */\n      0x64\n      add\n        /* \"arcanix.sol\":20384:20430  require(!p.distributed, \"Already distributed\") */\n      tag_142\n        /* \"#utility.yul\":16623:16966   */\n      jump\n        /* \"arcanix.sol\":20384:20430  require(!p.distributed, \"Already distributed\") */\n    tag_489:\n        /* \"arcanix.sol\":20467:20468  0 */\n      0x00\n        /* \"arcanix.sol\":20448:20449  p */\n      dup2\n        /* \"arcanix.sol\":20448:20464  p.tokensReceived */\n      0x06\n      add\n      sload\n        /* \"arcanix.sol\":20448:20468  p.tokensReceived > 0 */\n      gt\n        /* \"arcanix.sol\":20440:20496  require(p.tokensReceived > 0, \"No tokens to distribute\") */\n      tag_492\n      jumpi\n      mload(0x40)\n      shl(0xe5, 0x461bcd)\n      dup2\n      mstore\n        /* \"#utility.yul\":17173:17175   */\n      0x20\n        /* \"arcanix.sol\":20440:20496  require(p.tokensReceived > 0, \"No tokens to distribute\") */\n      0x04\n      dup3\n      add\n        /* \"#utility.yul\":17155:17176   */\n      mstore\n        /* \"#utility.yul\":17212:17214   */\n      0x17\n        /* \"#utility.yul\":17192:17210   */\n      0x24\n      dup3\n      add\n        /* \"#utility.yul\":17185:17215   */\n      mstore\n        /* \"#utility.yul\":17251:17276   */\n      0x4e6f20746f6b656e7320746f2064697374726962757465000000000000000000\n        /* \"#utility.yul\":17231:17249   */\n      0x44\n      dup3\n      add\n        /* \"#utility.yul\":17224:17277   */\n      mstore\n        /* \"#utility.yul\":17294:17312   */\n      0x64\n      add\n        /* \"arcanix.sol\":20440:20496  require(p.tokensReceived > 0, \"No tokens to distribute\") */\n      tag_142\n        /* \"#utility.yul\":16971:17318   */\n      jump\n        /* \"arcanix.sol\":20440:20496  require(p.tokensReceived > 0, \"No tokens to distribute\") */\n    tag_492:\n        /* \"arcanix.sol\":20522:20531  realToken */\n      and(sub(shl(0xa0, 0x01), 0x01), sload(0x02))\n        /* \"arcanix.sol\":20506:20569  require(address(realToken) != address(0), \"Real token not set\") */\n      tag_495\n      jumpi\n      mload(0x40)\n      shl(0xe5, 0x461bcd)\n      dup2\n      mstore\n        /* \"#utility.yul\":17525:17527   */\n      0x20\n        /* \"arcanix.sol\":20506:20569  require(address(realToken) != address(0), \"Real token not set\") */\n      0x04\n      dup3\n      add\n        /* \"#utility.yul\":17507:17528   */\n      mstore\n        /* \"#utility.yul\":17564:17566   */\n      0x12\n        /* \"#utility.yul\":17544:17562   */\n      0x24\n      dup3\n      add\n        /* \"#utility.yul\":17537:17567   */\n      mstore\n      shl(0x72, 0x1499585b081d1bdad95b881b9bdd081cd95d)\n        /* \"#utility.yul\":17583:17601   */\n      0x44\n      dup3\n      add\n        /* \"#utility.yul\":17576:17624   */\n      mstore\n        /* \"#utility.yul\":17641:17659   */\n      0x64\n      add\n        /* \"arcanix.sol\":20506:20569  require(address(realToken) != address(0), \"Real token not set\") */\n      tag_142\n        /* \"#utility.yul\":17323:17665   */\n      jump\n        /* \"arcanix.sol\":20506:20569  require(address(realToken) != address(0), \"Real token not set\") */\n    tag_495:\n        /* \"arcanix.sol\":20580:20593  p.distributed */\n      0x0a\n      dup2\n      add\n        /* \"arcanix.sol\":20580:20600  p.distributed = true */\n      dup1\n      sload\n      not(0xff)\n      and\n        /* \"arcanix.sol\":20596:20600  true */\n      0x01\n        /* \"arcanix.sol\":20580:20600  p.distributed = true */\n      or\n      swap1\n      sstore\n        /* \"arcanix.sol\":20618:20627  realToken */\n      sload(0x02)\n        /* \"arcanix.sol\":20643:20659  p.tokensReceived */\n      0x06\n      dup3\n      add\n      sload\n        /* \"arcanix.sol\":20618:20660  realToken.transfer(user, p.tokensReceived) */\n      mload(0x40)\n      shl(0xe0, 0xa9059cbb)\n      dup2\n      mstore\n      sub(shl(0xa0, 0x01), 0x01)\n        /* \"#utility.yul\":9660:9692   */\n      dup6\n      dup2\n      and\n        /* \"arcanix.sol\":20618:20660  realToken.transfer(user, p.tokensReceived) */\n      0x04\n      dup4\n      add\n        /* \"#utility.yul\":9642:9693   */\n      mstore\n        /* \"#utility.yul\":9709:9727   */\n      0x24\n      dup3\n      add\n        /* \"#utility.yul\":9702:9736   */\n      swap3\n      swap1\n      swap3\n      mstore\n        /* \"arcanix.sol\":20618:20627  realToken */\n      swap2\n      and\n      swap1\n        /* \"arcanix.sol\":20618:20636  realToken.transfer */\n      0xa9059cbb\n      swap1\n        /* \"#utility.yul\":9615:9633   */\n      0x44\n      add\n        /* \"arcanix.sol\":20618:20660  realToken.transfer(user, p.tokensReceived) */\n      0x20\n      mload(0x40)\n      dup1\n      dup4\n      sub\n      dup2\n      0x00\n      dup8\n      gas\n      call\n      iszero\n      dup1\n      iszero\n      tag_500\n      jumpi\n      returndatacopy(0x00, 0x00, returndatasize)\n      revert(0x00, returndatasize)\n    tag_500:\n      pop\n      pop\n      pop\n      pop\n      mload(0x40)\n      returndatasize\n      not(0x1f)\n      0x1f\n      dup3\n      add\n      and\n      dup3\n      add\n      dup1\n      0x40\n      mstore\n      pop\n      dup2\n      add\n      swap1\n      tag_501\n      swap2\n      swap1\n      tag_173\n      jump\t// in\n    tag_501:\n        /* \"arcanix.sol\":20610:20691  require(realToken.transfer(user, p.tokensReceived), \"Real token transfer failed\") */\n      tag_502\n      jumpi\n      mload(0x40)\n      shl(0xe5, 0x461bcd)\n      dup2\n      mstore\n        /* \"#utility.yul\":17872:17874   */\n      0x20\n        /* \"arcanix.sol\":20610:20691  require(realToken.transfer(user, p.tokensReceived), \"Real token transfer failed\") */\n      0x04\n      dup3\n      add\n        /* \"#utility.yul\":17854:17875   */\n      mstore\n        /* \"#utility.yul\":17911:17913   */\n      0x1a\n        /* \"#utility.yul\":17891:17909   */\n      0x24\n      dup3\n      add\n        /* \"#utility.yul\":17884:17914   */\n      mstore\n        /* \"#utility.yul\":17950:17978   */\n      0x5265616c20746f6b656e207472616e73666572206661696c6564000000000000\n        /* \"#utility.yul\":17930:17948   */\n      0x44\n      dup3\n      add\n        /* \"#utility.yul\":17923:17979   */\n      mstore\n        /* \"#utility.yul\":17996:18014   */\n      0x64\n      add\n        /* \"arcanix.sol\":20610:20691  require(realToken.transfer(user, p.tokensReceived), \"Real token transfer failed\") */\n      tag_142\n        /* \"#utility.yul\":17670:18020   */\n      jump\n        /* \"arcanix.sol\":20610:20691  require(realToken.transfer(user, p.tokensReceived), \"Real token transfer failed\") */\n    tag_502:\n        /* \"arcanix.sol\":20729:20733  user */\n      dup2\n      sub(shl(0xa0, 0x01), 0x01)\n        /* \"arcanix.sol\":20707:20752  RealTokensDistributed(user, p.tokensReceived) */\n      and\n      0x13603c1beb46b471cbd10cb5b15a9f58e3929b8ec141b7c33746e26daf3a839f\n        /* \"arcanix.sol\":20735:20736  p */\n      dup3\n        /* \"arcanix.sol\":20735:20751  p.tokensReceived */\n      0x06\n      add\n      sload\n        /* \"arcanix.sol\":20707:20752  RealTokensDistributed(user, p.tokensReceived) */\n      mload(0x40)\n      tag_212\n      swap2\n        /* \"#utility.yul\":1160:1185   */\n      dup2\n      mstore\n        /* \"#utility.yul\":1148:1150   */\n      0x20\n        /* \"#utility.yul\":1133:1151   */\n      add\n      swap1\n        /* \"#utility.yul\":1014:1191   */\n      jump\n        /* \"arcanix.sol\":20828:21395  function batchDistribute(address[] calldata users) external onlyOwner {... */\n    tag_125:\n        /* \"arcanix.sol\":3133:3138  owner */\n      sload(0x00)\n      0x010000\n      swap1\n      div\n      sub(shl(0xa0, 0x01), 0x01)\n      and\n        /* \"arcanix.sol\":3119:3129  msg.sender */\n      caller\n        /* \"arcanix.sol\":3119:3138  msg.sender == owner */\n      eq\n        /* \"arcanix.sol\":3111:3153  require(msg.sender == owner, \"Only owner\") */\n      tag_507\n      jumpi\n      mload(0x40)\n      shl(0xe5, 0x461bcd)\n      dup2\n      mstore\n      0x04\n      add\n      tag_142\n      swap1\n      tag_217\n      jump\t// in\n    tag_507:\n        /* \"arcanix.sol\":20924:20933  realToken */\n      and(sub(shl(0xa0, 0x01), 0x01), sload(0x02))\n        /* \"arcanix.sol\":20908:20971  require(address(realToken) != address(0), \"Real token not set\") */\n      tag_510\n      jumpi\n      mload(0x40)\n      shl(0xe5, 0x461bcd)\n      dup2\n      mstore\n        /* \"#utility.yul\":17525:17527   */\n      0x20\n        /* \"arcanix.sol\":20908:20971  require(address(realToken) != address(0), \"Real token not set\") */\n      0x04\n      dup3\n      add\n        /* \"#utility.yul\":17507:17528   */\n      mstore\n        /* \"#utility.yul\":17564:17566   */\n      0x12\n        /* \"#utility.yul\":17544:17562   */\n      0x24\n      dup3\n      add\n        /* \"#utility.yul\":17537:17567   */\n      mstore\n      shl(0x72, 0x1499585b081d1bdad95b881b9bdd081cd95d)\n        /* \"#utility.yul\":17583:17601   */\n      0x44\n      dup3\n      add\n        /* \"#utility.yul\":17576:17624   */\n      mstore\n        /* \"#utility.yul\":17641:17659   */\n      0x64\n      add\n        /* \"arcanix.sol\":20908:20971  require(address(realToken) != address(0), \"Real token not set\") */\n      tag_142\n        /* \"#utility.yul\":17323:17665   */\n      jump\n        /* \"arcanix.sol\":20908:20971  require(address(realToken) != address(0), \"Real token not set\") */\n    tag_510:\n        /* \"arcanix.sol\":20987:20996  uint256 i */\n      0x00\n        /* \"arcanix.sol\":20982:21389  for (uint256 i = 0; i < users.length; i++) {... */\n    tag_512:\n        /* \"arcanix.sol\":21002:21018  i < users.length */\n      dup2\n      dup2\n      lt\n        /* \"arcanix.sol\":20982:21389  for (uint256 i = 0; i < users.length; i++) {... */\n      iszero\n      tag_513\n      jumpi\n        /* \"arcanix.sol\":21039:21051  address user */\n      0x00\n        /* \"arcanix.sol\":21054:21059  users */\n      dup4\n      dup4\n        /* \"arcanix.sol\":21060:21061  i */\n      dup4\n        /* \"arcanix.sol\":21054:21062  users[i] */\n      dup2\n      dup2\n      lt\n      tag_516\n      jumpi\n      tag_516\n      tag_152\n      jump\t// in\n    tag_516:\n      swap1\n      pop\n      0x20\n      mul\n      add\n      0x20\n      dup2\n      add\n      swap1\n      tag_517\n      swap2\n      swap1\n      tag_42\n      jump\t// in\n    tag_517:\n      sub(shl(0xa0, 0x01), 0x01)\n        /* \"arcanix.sol\":21097:21112  purchases[user] */\n      dup2\n      and\n        /* \"arcanix.sol\":21076:21094  Purchase storage p */\n      0x00\n        /* \"arcanix.sol\":21097:21112  purchases[user] */\n      swap1\n      dup2\n      mstore\n        /* \"arcanix.sol\":21097:21106  purchases */\n      0x06\n        /* \"arcanix.sol\":21097:21112  purchases[user] */\n      0x20\n      mstore\n      0x40\n      swap1\n      keccak256\n        /* \"arcanix.sol\":21131:21144  p.distributed */\n      0x0a\n      dup2\n      add\n      sload\n        /* \"arcanix.sol\":21039:21062  address user = users[i] */\n      swap2\n      swap3\n      pop\n        /* \"arcanix.sol\":21097:21112  purchases[user] */\n      swap1\n        /* \"arcanix.sol\":21131:21144  p.distributed */\n      0xff\n      and\n        /* \"arcanix.sol\":21130:21144  !p.distributed */\n      iszero\n        /* \"arcanix.sol\":21130:21168  !p.distributed && p.tokensReceived > 0 */\n      dup1\n      iszero\n      tag_518\n      jumpi\n      pop\n        /* \"arcanix.sol\":21167:21168  0 */\n      0x00\n        /* \"arcanix.sol\":21148:21149  p */\n      dup2\n        /* \"arcanix.sol\":21148:21164  p.tokensReceived */\n      0x06\n      add\n      sload\n        /* \"arcanix.sol\":21148:21168  p.tokensReceived > 0 */\n      gt\n        /* \"arcanix.sol\":21130:21168  !p.distributed && p.tokensReceived > 0 */\n    tag_518:\n        /* \"arcanix.sol\":21126:21379  if (!p.distributed && p.tokensReceived > 0) {... */\n      iszero\n      tag_519\n      jumpi\n        /* \"arcanix.sol\":21188:21201  p.distributed */\n      0x0a\n      dup2\n      add\n        /* \"arcanix.sol\":21188:21208  p.distributed = true */\n      dup1\n      sload\n      not(0xff)\n      and\n        /* \"arcanix.sol\":21204:21208  true */\n      0x01\n        /* \"arcanix.sol\":21188:21208  p.distributed = true */\n      or\n      swap1\n      sstore\n        /* \"arcanix.sol\":21234:21243  realToken */\n      sload(0x02)\n        /* \"arcanix.sol\":21259:21275  p.tokensReceived */\n      0x06\n      dup3\n      add\n      sload\n        /* \"arcanix.sol\":21234:21276  realToken.transfer(user, p.tokensReceived) */\n      mload(0x40)\n      shl(0xe0, 0xa9059cbb)\n      dup2\n      mstore\n      sub(shl(0xa0, 0x01), 0x01)\n        /* \"#utility.yul\":9660:9692   */\n      dup6\n      dup2\n      and\n        /* \"arcanix.sol\":21234:21276  realToken.transfer(user, p.tokensReceived) */\n      0x04\n      dup4\n      add\n        /* \"#utility.yul\":9642:9693   */\n      mstore\n        /* \"#utility.yul\":9709:9727   */\n      0x24\n      dup3\n      add\n        /* \"#utility.yul\":9702:9736   */\n      swap3\n      swap1\n      swap3\n      mstore\n        /* \"arcanix.sol\":21234:21243  realToken */\n      swap2\n      and\n      swap1\n        /* \"arcanix.sol\":21234:21252  realToken.transfer */\n      0xa9059cbb\n      swap1\n        /* \"#utility.yul\":9615:9633   */\n      0x44\n      add\n        /* \"arcanix.sol\":21234:21276  realToken.transfer(user, p.tokensReceived) */\n      0x20\n      mload(0x40)\n      dup1\n      dup4\n      sub\n      dup2\n      0x00\n      dup8\n      gas\n      call\n      iszero\n      dup1\n      iszero\n      tag_522\n      jumpi\n      returndatacopy(0x00, 0x00, returndatasize)\n      revert(0x00, returndatasize)\n    tag_522:\n      pop\n      pop\n      pop\n      pop\n      mload(0x40)\n      returndatasize\n      not(0x1f)\n      0x1f\n      dup3\n      add\n      and\n      dup3\n      add\n      dup1\n      0x40\n      mstore\n      pop\n      dup2\n      add\n      swap1\n      tag_523\n      swap2\n      swap1\n      tag_173\n      jump\t// in\n    tag_523:\n        /* \"arcanix.sol\":21226:21296  require(realToken.transfer(user, p.tokensReceived), \"Transfer failed\") */\n      tag_524\n      jumpi\n      mload(0x40)\n      shl(0xe5, 0x461bcd)\n      dup2\n      mstore\n      0x04\n      add\n      tag_142\n      swap1\n      tag_176\n      jump\t// in\n    tag_524:\n        /* \"arcanix.sol\":21341:21345  user */\n      dup2\n      sub(shl(0xa0, 0x01), 0x01)\n        /* \"arcanix.sol\":21319:21364  RealTokensDistributed(user, p.tokensReceived) */\n      and\n      0x13603c1beb46b471cbd10cb5b15a9f58e3929b8ec141b7c33746e26daf3a839f\n        /* \"arcanix.sol\":21347:21348  p */\n      dup3\n        /* \"arcanix.sol\":21347:21363  p.tokensReceived */\n      0x06\n      add\n      sload\n        /* \"arcanix.sol\":21319:21364  RealTokensDistributed(user, p.tokensReceived) */\n      mload(0x40)\n      tag_526\n      swap2\n        /* \"#utility.yul\":1160:1185   */\n      dup2\n      mstore\n        /* \"#utility.yul\":1148:1150   */\n      0x20\n        /* \"#utility.yul\":1133:1151   */\n      add\n      swap1\n        /* \"#utility.yul\":1014:1191   */\n      jump\n        /* \"arcanix.sol\":21319:21364  RealTokensDistributed(user, p.tokensReceived) */\n    tag_526:\n      mload(0x40)\n      dup1\n      swap2\n      sub\n      swap1\n      log2\n        /* \"arcanix.sol\":21126:21379  if (!p.distributed && p.tokensReceived > 0) {... */\n    tag_519:\n      pop\n      pop\n        /* \"arcanix.sol\":21020:21023  i++ */\n      0x01\n      add\n        /* \"arcanix.sol\":20982:21389  for (uint256 i = 0; i < users.length; i++) {... */\n      jump(tag_512)\n    tag_513:\n      pop\n        /* \"arcanix.sol\":20828:21395  function batchDistribute(address[] calldata users) external onlyOwner {... */\n      pop\n      pop\n      jump\t// out\n        /* \"arcanix.sol\":3177:3525  function initialize(address _usdtAddress) public initializer {... */\n    tag_128:\n        /* \"arcanix.sol\":285:298  _initializing */\n      sload(0x00)\n      0x0100\n      swap1\n      div\n      0xff\n      and\n      dup1\n        /* \"arcanix.sol\":285:315  _initializing || !_initialized */\n      tag_528\n      jumpi\n      pop\n        /* \"arcanix.sol\":303:315  _initialized */\n      and(0xff, sload(0x00))\n        /* \"arcanix.sol\":302:315  !_initialized */\n      iszero\n        /* \"arcanix.sol\":285:315  _initializing || !_initialized */\n    tag_528:\n        /* \"arcanix.sol\":264:387  require(... */\n      tag_529\n      jumpi\n      mload(0x40)\n      shl(0xe5, 0x461bcd)\n      dup2\n      mstore\n        /* \"#utility.yul\":18227:18229   */\n      0x20\n        /* \"arcanix.sol\":264:387  require(... */\n      0x04\n      dup3\n      add\n        /* \"#utility.yul\":18209:18230   */\n      mstore\n        /* \"#utility.yul\":18266:18268   */\n      0x2e\n        /* \"#utility.yul\":18246:18264   */\n      0x24\n      dup3\n      add\n        /* \"#utility.yul\":18239:18269   */\n      mstore\n        /* \"#utility.yul\":18305:18339   */\n      0x496e697469616c697a61626c653a20636f6e747261637420697320616c726561\n        /* \"#utility.yul\":18285:18303   */\n      0x44\n      dup3\n      add\n        /* \"#utility.yul\":18278:18340   */\n      mstore\n      shl(0x92, 0x191e481a5b9a5d1a585b1a5e9959)\n        /* \"#utility.yul\":18356:18374   */\n      0x64\n      dup3\n      add\n        /* \"#utility.yul\":18349:18393   */\n      mstore\n        /* \"#utility.yul\":18410:18429   */\n      0x84\n      add\n        /* \"arcanix.sol\":264:387  require(... */\n      tag_142\n        /* \"#utility.yul\":18025:18435   */\n      jump\n        /* \"arcanix.sol\":264:387  require(... */\n    tag_529:\n        /* \"arcanix.sol\":398:417  bool isTopLevelCall */\n      0x00\n        /* \"arcanix.sol\":421:434  _initializing */\n      sload\n      0x0100\n      swap1\n      div\n      0xff\n      and\n        /* \"arcanix.sol\":420:434  !_initializing */\n      iszero\n        /* \"arcanix.sol\":444:542  if (isTopLevelCall) {... */\n      dup1\n      iszero\n      tag_532\n      jumpi\n        /* \"arcanix.sol\":478:491  _initializing */\n      0x00\n        /* \"arcanix.sol\":478:498  _initializing = true */\n      dup1\n      sload\n      not(0xffff)\n        /* \"arcanix.sol\":512:531  _initialized = true */\n      and\n      0x0101\n      or\n      swap1\n      sstore\n        /* \"arcanix.sol\":444:542  if (isTopLevelCall) {... */\n    tag_532:\n      sub(shl(0xa0, 0x01), 0x01)\n        /* \"arcanix.sol\":3256:3282  _usdtAddress != address(0) */\n      dup3\n      and\n        /* \"arcanix.sol\":3248:3307  require(_usdtAddress != address(0), \"Invalid USDT address\") */\n      tag_534\n      jumpi\n      mload(0x40)\n      shl(0xe5, 0x461bcd)\n      dup2\n      mstore\n        /* \"#utility.yul\":18642:18644   */\n      0x20\n        /* \"arcanix.sol\":3248:3307  require(_usdtAddress != address(0), \"Invalid USDT address\") */\n      0x04\n      dup3\n      add\n        /* \"#utility.yul\":18624:18645   */\n      mstore\n        /* \"#utility.yul\":18681:18683   */\n      0x14\n        /* \"#utility.yul\":18661:18679   */\n      0x24\n      dup3\n      add\n        /* \"#utility.yul\":18654:18684   */\n      mstore\n      shl(0x60, 0x496e76616c696420555344542061646472657373)\n        /* \"#utility.yul\":18700:18718   */\n      0x44\n      dup3\n      add\n        /* \"#utility.yul\":18693:18743   */\n      mstore\n        /* \"#utility.yul\":18760:18778   */\n      0x64\n      add\n        /* \"arcanix.sol\":3248:3307  require(_usdtAddress != address(0), \"Invalid USDT address\") */\n      tag_142\n        /* \"#utility.yul\":18440:18784   */\n      jump\n        /* \"arcanix.sol\":3248:3307  require(_usdtAddress != address(0), \"Invalid USDT address\") */\n    tag_534:\n        /* \"arcanix.sol\":3317:3322  owner */\n      0x00\n        /* \"arcanix.sol\":3317:3335  owner = msg.sender */\n      dup1\n      sload\n      not(sub(shl(0xb0, 0x01), 0x010000))\n      and\n        /* \"arcanix.sol\":3325:3335  msg.sender */\n      caller\n        /* \"arcanix.sol\":3317:3335  owner = msg.sender */\n      0x010000\n      dup2\n      mul\n      swap2\n      swap1\n      swap2\n      or\n      dup3\n      sstore\n      0x01\n        /* \"arcanix.sol\":3345:3377  usdtToken = IERC20(_usdtAddress) */\n      dup1\n      sload\n      not(sub(shl(0xa0, 0x01), 0x01))\n      and\n      sub(shl(0xa0, 0x01), 0x01)\n      dup7\n      and\n      or\n      dup2\n      sstore\n        /* \"arcanix.sol\":3387:3397  lastUserId */\n      0x03\n        /* \"arcanix.sol\":3387:3401  lastUserId = 1 */\n      dup2\n      dup2\n      sstore\n        /* \"arcanix.sol\":3411:3432  purchases[msg.sender] */\n      swap2\n      dup4\n      mstore\n        /* \"arcanix.sol\":3411:3420  purchases */\n      0x06\n        /* \"arcanix.sol\":3411:3432  purchases[msg.sender] */\n      0x20\n      mstore\n      0x40\n      dup4\n      keccak256\n        /* \"arcanix.sol\":3411:3448  purchases[msg.sender].id = lastUserId */\n      dup2\n      swap1\n      sstore\n      swap2\n        /* \"arcanix.sol\":3458:3470  lastUserId++ */\n      tag_537\n      dup4\n      tag_538\n      jump\t// in\n    tag_537:\n      swap1\n      swap2\n      sstore\n      pop\n      pop\n        /* \"arcanix.sol\":3489:3497  10 ** 18 */\n      0x0de0b6b3a7640000\n        /* \"arcanix.sol\":3481:3486  ETHER */\n      0x04\n        /* \"arcanix.sol\":3481:3497  ETHER = 10 ** 18 */\n      sstore\n        /* \"arcanix.sol\":3515:3518  100 */\n      0x64\n        /* \"arcanix.sol\":3507:3512  LEVEL */\n      0x05\n        /* \"arcanix.sol\":3507:3518  LEVEL = 100 */\n      sstore\n        /* \"arcanix.sol\":564:630  if (isTopLevelCall) {... */\n      dup1\n      iszero\n      tag_539\n      jumpi\n        /* \"arcanix.sol\":614:619  false */\n      0x00\n        /* \"arcanix.sol\":598:619  _initializing = false */\n      dup1\n      sload\n      not(0xff00)\n      and\n      swap1\n      sstore\n        /* \"arcanix.sol\":564:630  if (isTopLevelCall) {... */\n    tag_539:\n        /* \"arcanix.sol\":254:636  {... */\n      pop\n        /* \"arcanix.sol\":3177:3525  function initialize(address _usdtAddress) public initializer {... */\n      pop\n      jump\t// out\n        /* \"arcanix.sol\":15112:16731  function getROIBreakdown(address user, uint plan) external view returns (... */\n    tag_131:\n      sub(shl(0xa0, 0x01), 0x01)\n        /* \"arcanix.sol\":15441:15456  purchases[user] */\n      dup3\n      and\n        /* \"arcanix.sol\":15420:15438  Purchase storage p */\n      0x00\n        /* \"arcanix.sol\":15441:15456  purchases[user] */\n      swap1\n      dup2\n      mstore\n        /* \"arcanix.sol\":15441:15450  purchases */\n      0x06\n        /* \"arcanix.sol\":15441:15456  purchases[user] */\n      0x20\n      swap1\n      dup2\n      mstore\n      0x40\n      dup1\n      dup4\n      keccak256\n        /* \"arcanix.sol\":15484:15499  p._detail[plan] */\n      dup5\n      dup5\n      mstore\n        /* \"arcanix.sol\":15484:15493  p._detail */\n      0x0d\n      dup2\n      add\n        /* \"arcanix.sol\":15484:15499  p._detail[plan] */\n      swap1\n      swap3\n      mstore\n      swap1\n      swap2\n      keccak256\n        /* \"arcanix.sol\":15484:15506  p._detail[plan].length */\n      sload\n        /* \"arcanix.sol\":15198:15226  uint256[] memory usdtAmounts */\n      0x60\n      swap2\n      dup3\n      swap2\n      dup3\n      swap2\n      dup3\n      swap2\n      dup3\n      swap2\n        /* \"arcanix.sol\":15441:15456  purchases[user] */\n      swap1\n        /* \"arcanix.sol\":15484:15506  p._detail[plan].length */\n      dup1\n        /* \"arcanix.sol\":15535:15553  new uint256[](len) */\n      0xffffffffffffffff\n      dup2\n      gt\n      iszero\n      tag_542\n      jumpi\n      tag_542\n      tag_543\n      jump\t// in\n    tag_542:\n      mload(0x40)\n      swap1\n      dup1\n      dup3\n      mstore\n      dup1\n      0x20\n      mul\n      0x20\n      add\n      dup3\n      add\n      0x40\n      mstore\n      dup1\n      iszero\n      tag_544\n      jumpi\n      dup2\n      0x20\n      add\n      0x20\n      dup3\n      mul\n      dup1\n      calldatasize\n      dup4\n      calldatacopy\n      add\n      swap1\n      pop\n    tag_544:\n      pop\n        /* \"arcanix.sol\":15521:15553  usdtAmounts = new uint256[](len) */\n      swap7\n      pop\n        /* \"arcanix.sol\":15595:15598  len */\n      dup1\n        /* \"arcanix.sol\":15581:15599  new uint256[](len) */\n      0xffffffffffffffff\n      dup2\n      gt\n      iszero\n      tag_546\n      jumpi\n      tag_546\n      tag_543\n      jump\t// in\n    tag_546:\n      mload(0x40)\n      swap1\n      dup1\n      dup3\n      mstore\n      dup1\n      0x20\n      mul\n      0x20\n      add\n      dup3\n      add\n      0x40\n      mstore\n      dup1\n      iszero\n      tag_547\n      jumpi\n      dup2\n      0x20\n      add\n      0x20\n      dup3\n      mul\n      dup1\n      calldatasize\n      dup4\n      calldatacopy\n      add\n      swap1\n      pop\n    tag_547:\n      pop\n        /* \"arcanix.sol\":15567:15599  claimedROIs = new uint256[](len) */\n      swap6\n      pop\n        /* \"arcanix.sol\":15643:15646  len */\n      dup1\n        /* \"arcanix.sol\":15629:15647  new uint256[](len) */\n      0xffffffffffffffff\n      dup2\n      gt\n      iszero\n      tag_549\n      jumpi\n      tag_549\n      tag_543\n      jump\t// in\n    tag_549:\n      mload(0x40)\n      swap1\n      dup1\n      dup3\n      mstore\n      dup1\n      0x20\n      mul\n      0x20\n      add\n      dup3\n      add\n      0x40\n      mstore\n      dup1\n      iszero\n      tag_550\n      jumpi\n      dup2\n      0x20\n      add\n      0x20\n      dup3\n      mul\n      dup1\n      calldatasize\n      dup4\n      calldatacopy\n      add\n      swap1\n      pop\n    tag_550:\n      pop\n        /* \"arcanix.sol\":15613:15647  claimableROIs = new uint256[](len) */\n      swap5\n      pop\n        /* \"arcanix.sol\":15688:15691  len */\n      dup1\n        /* \"arcanix.sol\":15674:15692  new uint256[](len) */\n      0xffffffffffffffff\n      dup2\n      gt\n      iszero\n      tag_552\n      jumpi\n      tag_552\n      tag_543\n      jump\t// in\n    tag_552:\n      mload(0x40)\n      swap1\n      dup1\n      dup3\n      mstore\n      dup1\n      0x20\n      mul\n      0x20\n      add\n      dup3\n      add\n      0x40\n      mstore\n      dup1\n      iszero\n      tag_553\n      jumpi\n      dup2\n      0x20\n      add\n      0x20\n      dup3\n      mul\n      dup1\n      calldatasize\n      dup4\n      calldatacopy\n      add\n      swap1\n      pop\n    tag_553:\n      pop\n        /* \"arcanix.sol\":15661:15692  timestamps = new uint256[](len) */\n      swap4\n      pop\n        /* \"arcanix.sol\":15734:15737  len */\n      dup1\n        /* \"arcanix.sol\":15720:15738  new uint256[](len) */\n      0xffffffffffffffff\n      dup2\n      gt\n      iszero\n      tag_555\n      jumpi\n      tag_555\n      tag_543\n      jump\t// in\n    tag_555:\n      mload(0x40)\n      swap1\n      dup1\n      dup3\n      mstore\n      dup1\n      0x20\n      mul\n      0x20\n      add\n      dup3\n      add\n      0x40\n      mstore\n      dup1\n      iszero\n      tag_556\n      jumpi\n      dup2\n      0x20\n      add\n      0x20\n      dup3\n      mul\n      dup1\n      calldatasize\n      dup4\n      calldatacopy\n      add\n      swap1\n      pop\n    tag_556:\n      pop\n        /* \"arcanix.sol\":15706:15738  roiPercents = new uint256[](len) */\n      swap3\n      pop\n        /* \"arcanix.sol\":15758:15764  uint i */\n      0x00\n        /* \"arcanix.sol\":15753:16721  for (uint i = 0; i < len; i++) {... */\n    tag_557:\n        /* \"arcanix.sol\":15774:15777  len */\n      dup2\n        /* \"arcanix.sol\":15770:15771  i */\n      dup2\n        /* \"arcanix.sol\":15770:15777  i < len */\n      lt\n        /* \"arcanix.sol\":15753:16721  for (uint i = 0; i < len; i++) {... */\n      iszero\n      tag_558\n      jumpi\n        /* \"arcanix.sol\":15802:15819  Details storage d */\n      0x00\n        /* \"arcanix.sol\":15822:15837  p._detail[plan] */\n      dup10\n      dup2\n      mstore\n        /* \"arcanix.sol\":15822:15831  p._detail */\n      0x0d\n      dup5\n      add\n        /* \"arcanix.sol\":15822:15837  p._detail[plan] */\n      0x20\n      mstore\n      0x40\n      dup2\n      keccak256\n        /* \"arcanix.sol\":15822:15840  p._detail[plan][i] */\n      dup1\n      sload\n        /* \"arcanix.sol\":15838:15839  i */\n      dup4\n      swap1\n        /* \"arcanix.sol\":15822:15840  p._detail[plan][i] */\n      dup2\n      lt\n      tag_561\n      jumpi\n      tag_561\n      tag_152\n      jump\t// in\n    tag_561:\n      swap1\n      0x00\n      mstore\n      keccak256(0x00, 0x20)\n      swap1\n      0x06\n      mul\n      add\n        /* \"arcanix.sol\":15802:15840  Details storage d = p._detail[plan][i] */\n      swap1\n      pop\n        /* \"arcanix.sol\":15876:15877  d */\n      dup1\n        /* \"arcanix.sol\":15876:15888  d.usdtAmount */\n      0x00\n      add\n      sload\n        /* \"arcanix.sol\":15859:15870  usdtAmounts */\n      dup10\n        /* \"arcanix.sol\":15871:15872  i */\n      dup4\n        /* \"arcanix.sol\":15859:15873  usdtAmounts[i] */\n      dup2\n      mload\n      dup2\n      lt\n      tag_564\n      jumpi\n      tag_564\n      tag_152\n      jump\t// in\n    tag_564:\n      0x20\n      mul\n      0x20\n      add\n      add\n        /* \"arcanix.sol\":15859:15888  usdtAmounts[i] = d.usdtAmount */\n      dup2\n      dup2\n      mstore\n      pop\n      pop\n        /* \"arcanix.sol\":15923:15924  d */\n      dup1\n        /* \"arcanix.sol\":15923:15935  d.claimedROI */\n      0x04\n      add\n      sload\n        /* \"arcanix.sol\":15906:15917  claimedROIs */\n      dup9\n        /* \"arcanix.sol\":15918:15919  i */\n      dup4\n        /* \"arcanix.sol\":15906:15920  claimedROIs[i] */\n      dup2\n      mload\n      dup2\n      lt\n      tag_566\n      jumpi\n      tag_566\n      tag_152\n      jump\t// in\n    tag_566:\n      0x20\n      mul\n      0x20\n      add\n      add\n        /* \"arcanix.sol\":15906:15935  claimedROIs[i] = d.claimedROI */\n      dup2\n      dup2\n      mstore\n      pop\n      pop\n        /* \"arcanix.sol\":15969:15970  d */\n      dup1\n        /* \"arcanix.sol\":15969:15980  d.timestamp */\n      0x02\n      add\n      sload\n        /* \"arcanix.sol\":15953:15963  timestamps */\n      dup7\n        /* \"arcanix.sol\":15964:15965  i */\n      dup4\n        /* \"arcanix.sol\":15953:15966  timestamps[i] */\n      dup2\n      mload\n      dup2\n      lt\n      tag_568\n      jumpi\n      tag_568\n      tag_152\n      jump\t// in\n    tag_568:\n      0x20\n      mul\n      0x20\n      add\n      add\n        /* \"arcanix.sol\":15953:15980  timestamps[i] = d.timestamp */\n      dup2\n      dup2\n      mstore\n      pop\n      pop\n        /* \"arcanix.sol\":16015:16016  d */\n      dup1\n        /* \"arcanix.sol\":16015:16027  d.roiPercent */\n      0x03\n      add\n      sload\n        /* \"arcanix.sol\":15998:16009  roiPercents */\n      dup6\n        /* \"arcanix.sol\":16010:16011  i */\n      dup4\n        /* \"arcanix.sol\":15998:16012  roiPercents[i] */\n      dup2\n      mload\n      dup2\n      lt\n      tag_570\n      jumpi\n      tag_570\n      tag_152\n      jump\t// in\n    tag_570:\n      0x20\n      swap1\n      dup2\n      mul\n      swap2\n      swap1\n      swap2\n      add\n      add\n        /* \"arcanix.sol\":15998:16027  roiPercents[i] = d.roiPercent */\n      mstore\n        /* \"arcanix.sol\":16052:16065  d.stakestatus */\n      0x05\n      dup2\n      add\n      sload\n      0xff\n      and\n        /* \"arcanix.sol\":16047:16158  if (!d.stakestatus) {... */\n      tag_571\n      jumpi\n        /* \"arcanix.sol\":16108:16109  0 */\n      0x00\n        /* \"arcanix.sol\":16089:16102  claimableROIs */\n      dup8\n        /* \"arcanix.sol\":16103:16104  i */\n      dup4\n        /* \"arcanix.sol\":16089:16105  claimableROIs[i] */\n      dup2\n      mload\n      dup2\n      lt\n      tag_573\n      jumpi\n      tag_573\n      tag_152\n      jump\t// in\n    tag_573:\n      0x20\n      mul\n      0x20\n      add\n      add\n        /* \"arcanix.sol\":16089:16109  claimableROIs[i] = 0 */\n      dup2\n      dup2\n      mstore\n      pop\n      pop\n        /* \"arcanix.sol\":16131:16139  continue */\n      pop\n      jump(tag_559)\n        /* \"arcanix.sol\":16047:16158  if (!d.stakestatus) {... */\n    tag_571:\n        /* \"arcanix.sol\":16241:16262  uint256 minutesPassed */\n      0x00\n        /* \"arcanix.sol\":16299:16305  1 days */\n      0x015180\n        /* \"arcanix.sol\":16284:16285  d */\n      dup3\n        /* \"arcanix.sol\":16284:16295  d.timestamp */\n      0x02\n      add\n      sload\n        /* \"arcanix.sol\":16266:16281  block.timestamp */\n      timestamp\n        /* \"arcanix.sol\":16266:16295  block.timestamp - d.timestamp */\n      tag_574\n      swap2\n      swap1\n      tag_156\n      jump\t// in\n    tag_574:\n        /* \"arcanix.sol\":16265:16305  (block.timestamp - d.timestamp) / 1 days */\n      tag_575\n      swap2\n      swap1\n      tag_158\n      jump\t// in\n    tag_575:\n        /* \"arcanix.sol\":16241:16305  uint256 minutesPassed = (block.timestamp - d.timestamp) / 1 days */\n      swap1\n      pop\n        /* \"arcanix.sol\":16324:16340  uint256 dailyROI */\n      0x00\n        /* \"arcanix.sol\":16375:16380  10000 */\n      0x2710\n        /* \"arcanix.sol\":16359:16360  d */\n      dup4\n        /* \"arcanix.sol\":16359:16371  d.roiPercent */\n      0x03\n      add\n      sload\n        /* \"arcanix.sol\":16344:16345  d */\n      dup5\n        /* \"arcanix.sol\":16344:16356  d.usdtAmount */\n      0x00\n      add\n      sload\n        /* \"arcanix.sol\":16344:16371  d.usdtAmount * d.roiPercent */\n      tag_576\n      swap2\n      swap1\n      tag_160\n      jump\t// in\n    tag_576:\n        /* \"arcanix.sol\":16343:16380  (d.usdtAmount * d.roiPercent) / 10000 */\n      tag_577\n      swap2\n      swap1\n      tag_158\n      jump\t// in\n    tag_577:\n        /* \"arcanix.sol\":16324:16380  uint256 dailyROI = (d.usdtAmount * d.roiPercent) / 10000 */\n      swap1\n      pop\n        /* \"arcanix.sol\":16398:16419  uint256 totalEligible */\n      0x00\n        /* \"arcanix.sol\":16422:16446  dailyROI * minutesPassed */\n      tag_578\n        /* \"arcanix.sol\":16433:16446  minutesPassed */\n      dup4\n        /* \"arcanix.sol\":16324:16380  uint256 dailyROI = (d.usdtAmount * d.roiPercent) / 10000 */\n      dup4\n        /* \"arcanix.sol\":16422:16446  dailyROI * minutesPassed */\n      tag_160\n      jump\t// in\n    tag_578:\n        /* \"arcanix.sol\":16398:16446  uint256 totalEligible = dailyROI * minutesPassed */\n      swap1\n      pop\n        /* \"arcanix.sol\":16536:16553  uint256 claimable */\n      0x00\n        /* \"arcanix.sol\":16572:16573  d */\n      dup5\n        /* \"arcanix.sol\":16572:16584  d.claimedROI */\n      0x04\n      add\n      sload\n        /* \"arcanix.sol\":16556:16569  totalEligible */\n      dup3\n        /* \"arcanix.sol\":16556:16584  totalEligible > d.claimedROI */\n      gt\n        /* \"arcanix.sol\":16556:16659  totalEligible > d.claimedROI... */\n      tag_579\n      jumpi\n        /* \"arcanix.sol\":16658:16659  0 */\n      0x00\n        /* \"arcanix.sol\":16556:16659  totalEligible > d.claimedROI... */\n      jump(tag_581)\n    tag_579:\n        /* \"arcanix.sol\":16623:16635  d.claimedROI */\n      0x04\n      dup6\n      add\n      sload\n        /* \"arcanix.sol\":16607:16635  totalEligible - d.claimedROI */\n      tag_581\n      swap1\n        /* \"arcanix.sol\":16607:16620  totalEligible */\n      dup4\n        /* \"arcanix.sol\":16607:16635  totalEligible - d.claimedROI */\n      tag_156\n      jump\t// in\n    tag_581:\n        /* \"arcanix.sol\":16536:16659  uint256 claimable = totalEligible > d.claimedROI... */\n      swap1\n      pop\n        /* \"arcanix.sol\":16697:16706  claimable */\n      dup1\n        /* \"arcanix.sol\":16678:16691  claimableROIs */\n      dup12\n        /* \"arcanix.sol\":16692:16693  i */\n      dup8\n        /* \"arcanix.sol\":16678:16694  claimableROIs[i] */\n      dup2\n      mload\n      dup2\n      lt\n      tag_583\n      jumpi\n      tag_583\n      tag_152\n      jump\t// in\n    tag_583:\n      0x20\n      mul\n      0x20\n      add\n      add\n        /* \"arcanix.sol\":16678:16706  claimableROIs[i] = claimable */\n      dup2\n      dup2\n      mstore\n      pop\n      pop\n        /* \"arcanix.sol\":15784:16721  {... */\n      pop\n      pop\n      pop\n      pop\n      pop\n        /* \"arcanix.sol\":15753:16721  for (uint i = 0; i < len; i++) {... */\n    tag_559:\n        /* \"arcanix.sol\":15779:15782  i++ */\n      0x01\n      add\n        /* \"arcanix.sol\":15753:16721  for (uint i = 0; i < len; i++) {... */\n      jump(tag_557)\n    tag_558:\n      pop\n        /* \"arcanix.sol\":15406:16731  {... */\n      pop\n      pop\n        /* \"arcanix.sol\":15112:16731  function getROIBreakdown(address user, uint plan) external view returns (... */\n      swap3\n      swap6\n      pop\n      swap3\n      swap6\n      swap1\n      swap4\n      pop\n      jump\t// out\n        /* \"arcanix.sol\":21928:22065  function seeHistroyArx(address useradd) external view returns (DetailsICO[] memory) {... */\n    tag_136:\n      sub(shl(0xa0, 0x01), 0x01)\n        /* \"arcanix.sol\":22029:22047  purchases[useradd] */\n      dup2\n      and\n      0x00\n      swap1\n      dup2\n      mstore\n        /* \"arcanix.sol\":22029:22038  purchases */\n      0x06\n        /* \"arcanix.sol\":22029:22047  purchases[useradd] */\n      0x20\n      swap1\n      dup2\n      mstore\n      0x40\n      dup1\n      dup4\n      keccak256\n        /* \"arcanix.sol\":22029:22058  purchases[useradd]._detailarx */\n      0x0e\n      add\n        /* \"arcanix.sol\":22022:22058  return purchases[useradd]._detailarx */\n      dup1\n      sload\n      dup3\n      mload\n      dup2\n      dup6\n      mul\n      dup2\n      add\n      dup6\n      add\n      swap1\n      swap4\n      mstore\n      dup1\n      dup4\n      mstore\n        /* \"arcanix.sol\":21991:22010  DetailsICO[] memory */\n      0x60\n      swap5\n        /* \"arcanix.sol\":22022:22058  return purchases[useradd]._detailarx */\n      swap3\n      swap4\n        /* \"arcanix.sol\":22029:22058  purchases[useradd]._detailarx */\n      swap2\n      swap3\n        /* \"arcanix.sol\":22022:22058  return purchases[useradd]._detailarx */\n      swap1\n      swap2\n      dup5\n      add\n    tag_585:\n      dup3\n      dup3\n      lt\n      iszero\n      tag_586\n      jumpi\n      dup4\n      dup3\n      swap1\n      0x00\n      mstore\n      keccak256(0x00, 0x20)\n      swap1\n      0x03\n      mul\n      add\n      mload(0x40)\n      dup1\n      0x60\n      add\n      0x40\n      mstore\n      swap1\n      dup2\n      0x00\n      dup3\n      add\n      sload\n      dup2\n      mstore\n      0x20\n      add\n      0x01\n      dup3\n      add\n      sload\n      dup2\n      mstore\n      0x20\n      add\n      0x02\n      dup3\n      add\n      sload\n      dup2\n      mstore\n      pop\n      pop\n      dup2\n      mstore\n      0x20\n      add\n      swap1\n      0x01\n      add\n      swap1\n      jump(tag_585)\n    tag_586:\n      pop\n      pop\n      pop\n      pop\n      swap1\n      pop\n        /* \"arcanix.sol\":21928:22065  function seeHistroyArx(address useradd) external view returns (DetailsICO[] memory) {... */\n      swap2\n      swap1\n      pop\n      jump\t// out\n        /* \"arcanix.sol\":4204:4791  function registrationinvst(... */\n    tag_336:\n      sub(shl(0xa0, 0x01), 0x01)\n        /* \"arcanix.sol\":21482:21498  purchases[_user] */\n      dup2\n      and\n        /* \"arcanix.sol\":21459:21463  bool */\n      0x00\n        /* \"arcanix.sol\":21482:21498  purchases[_user] */\n      swap1\n      dup2\n      mstore\n        /* \"arcanix.sol\":21482:21491  purchases */\n      0x06\n        /* \"arcanix.sol\":21482:21498  purchases[_user] */\n      0x20\n      mstore\n      0x40\n      swap1\n      keccak256\n        /* \"arcanix.sol\":21482:21501  purchases[_user].id */\n      sload\n        /* \"arcanix.sol\":4318:4379  require(isUserExists(referrerAddress), \"referrer not exists\") */\n      tag_590\n      jumpi\n      mload(0x40)\n      shl(0xe5, 0x461bcd)\n      dup2\n      mstore\n        /* \"#utility.yul\":19263:19265   */\n      0x20\n        /* \"arcanix.sol\":4318:4379  require(isUserExists(referrerAddress), \"referrer not exists\") */\n      0x04\n      dup3\n      add\n        /* \"#utility.yul\":19245:19266   */\n      mstore\n        /* \"#utility.yul\":19302:19304   */\n      0x13\n        /* \"#utility.yul\":19282:19300   */\n      0x24\n      dup3\n      add\n        /* \"#utility.yul\":19275:19305   */\n      mstore\n      shl(0x68, 0x7265666572726572206e6f7420657869737473)\n        /* \"#utility.yul\":19321:19339   */\n      0x44\n      dup3\n      add\n        /* \"#utility.yul\":19314:19363   */\n      mstore\n        /* \"#utility.yul\":19380:19398   */\n      0x64\n      add\n        /* \"arcanix.sol\":4318:4379  require(isUserExists(referrerAddress), \"referrer not exists\") */\n      tag_142\n        /* \"#utility.yul\":19061:19404   */\n      jump\n        /* \"arcanix.sol\":4318:4379  require(isUserExists(referrerAddress), \"referrer not exists\") */\n    tag_590:\n      sub(shl(0xa0, 0x01), 0x01)\n        /* \"arcanix.sol\":4397:4419  purchases[userAddress] */\n      dup3\n      dup2\n      and\n        /* \"arcanix.sol\":4441:4442  0 */\n      0x00\n        /* \"arcanix.sol\":4397:4419  purchases[userAddress] */\n      swap1\n      dup2\n      mstore\n        /* \"arcanix.sol\":4397:4406  purchases */\n      0x06\n        /* \"arcanix.sol\":4397:4419  purchases[userAddress] */\n      0x20\n      mstore\n      0x40\n      swap1\n      keccak256\n        /* \"arcanix.sol\":4397:4429  purchases[userAddress].invst_ref */\n      0x01\n      add\n      sload\n      and\n        /* \"arcanix.sol\":4397:4443  purchases[userAddress].invst_ref == address(0) */\n      iszero\n        /* \"arcanix.sol\":4389:4468  require(purchases[userAddress].invst_ref == address(0), \"Referral Already Set\") */\n      tag_593\n      jumpi\n      mload(0x40)\n      shl(0xe5, 0x461bcd)\n      dup2\n      mstore\n        /* \"#utility.yul\":19611:19613   */\n      0x20\n        /* \"arcanix.sol\":4389:4468  require(purchases[userAddress].invst_ref == address(0), \"Referral Already Set\") */\n      0x04\n      dup3\n      add\n        /* \"#utility.yul\":19593:19614   */\n      mstore\n        /* \"#utility.yul\":19650:19652   */\n      0x14\n        /* \"#utility.yul\":19630:19648   */\n      0x24\n      dup3\n      add\n        /* \"#utility.yul\":19623:19653   */\n      mstore\n      shl(0x62, 0x149959995c9c985b08105b1c9958591e4814d95d)\n        /* \"#utility.yul\":19669:19687   */\n      0x44\n      dup3\n      add\n        /* \"#utility.yul\":19662:19712   */\n      mstore\n        /* \"#utility.yul\":19729:19747   */\n      0x64\n      add\n        /* \"arcanix.sol\":4389:4468  require(purchases[userAddress].invst_ref == address(0), \"Referral Already Set\") */\n      tag_142\n        /* \"#utility.yul\":19409:19753   */\n      jump\n        /* \"arcanix.sol\":4389:4468  require(purchases[userAddress].invst_ref == address(0), \"Referral Already Set\") */\n    tag_593:\n      sub(shl(0xa0, 0x01), 0x01)\n        /* \"arcanix.sol\":4478:4500  purchases[userAddress] */\n      dup3\n      dup2\n      and\n      0x00\n      swap1\n      dup2\n      mstore\n        /* \"arcanix.sol\":4478:4487  purchases */\n      0x06\n        /* \"arcanix.sol\":4478:4500  purchases[userAddress] */\n      0x20\n      mstore\n      0x40\n      dup1\n      dup3\n      keccak256\n        /* \"arcanix.sol\":4478:4510  purchases[userAddress].invst_ref */\n      0x01\n      add\n        /* \"arcanix.sol\":4478:4528  purchases[userAddress].invst_ref = referrerAddress */\n      dup1\n      sload\n      not(sub(shl(0xa0, 0x01), 0x01))\n      and\n      swap4\n      dup6\n      and\n      swap4\n      dup5\n      or\n      swap1\n      sstore\n        /* \"arcanix.sol\":4538:4581  purchases[purchases[userAddress].invst_ref] */\n      swap2\n      dup2\n      mstore\n      swap1\n      dup2\n      keccak256\n        /* \"arcanix.sol\":4538:4594  purchases[purchases[userAddress].invst_ref].partnerCount */\n      0x03\n      add\n        /* \"arcanix.sol\":4538:4596  purchases[purchases[userAddress].invst_ref].partnerCount++ */\n      dup1\n      sload\n      swap2\n      tag_596\n      dup4\n      tag_538\n      jump\t// in\n    tag_596:\n      swap1\n      swap2\n      sstore\n      pop\n      pop\n      sub(shl(0xa0, 0x01), 0x01)\n        /* \"arcanix.sol\":4620:4783  Registrationinvst(... */\n      dup3\n      dup2\n      and\n        /* \"arcanix.sol\":4705:4727  purchases[userAddress] */\n      0x00\n      dup2\n      dup2\n      mstore\n        /* \"arcanix.sol\":4705:4714  purchases */\n      0x06\n        /* \"arcanix.sol\":4705:4727  purchases[userAddress] */\n      0x20\n      mstore\n      0x40\n      dup1\n      dup3\n      keccak256\n        /* \"arcanix.sol\":4705:4730  purchases[userAddress].id */\n      sload\n        /* \"arcanix.sol\":4620:4783  Registrationinvst(... */\n      swap4\n      dup6\n      and\n        /* \"arcanix.sol\":4744:4770  purchases[referrerAddress] */\n      dup1\n      dup4\n      mstore\n      swap2\n      dup2\n      swap1\n      keccak256\n        /* \"arcanix.sol\":4744:4773  purchases[referrerAddress].id */\n      sload\n        /* \"arcanix.sol\":4620:4783  Registrationinvst(... */\n      swap1\n      mload\n      swap2\n      swap4\n      0xdaf80470d36b7f80ca04a76669714675ad8a767b3228c3a17b57ce22058ac9\n      swap3\n      tag_597\n      swap3\n        /* \"arcanix.sol\":4744:4773  purchases[referrerAddress].id */\n      swap1\n        /* \"#utility.yul\":11967:11992   */\n      swap2\n      dup3\n      mstore\n        /* \"#utility.yul\":12023:12025   */\n      0x20\n        /* \"#utility.yul\":12008:12026   */\n      dup3\n      add\n        /* \"#utility.yul\":12001:12035   */\n      mstore\n        /* \"#utility.yul\":11955:11957   */\n      0x40\n        /* \"#utility.yul\":11940:11958   */\n      add\n      swap1\n        /* \"#utility.yul\":11793:12041   */\n      jump\n        /* \"arcanix.sol\":4620:4783  Registrationinvst(... */\n    tag_597:\n      mload(0x40)\n      dup1\n      swap2\n      sub\n      swap1\n      log3\n        /* \"arcanix.sol\":4204:4791  function registrationinvst(... */\n      pop\n      pop\n      jump\t// out\n        /* \"arcanix.sol\":7775:8175  function _updateTeamBusiness(uint256 amount, address user) internal {... */\n    tag_441:\n      sub(shl(0xa0, 0x01), 0x01)\n        /* \"arcanix.sol\":7870:7885  purchases[user] */\n      dup1\n      dup3\n      and\n        /* \"arcanix.sol\":7853:7867  address upline */\n      0x00\n        /* \"arcanix.sol\":7870:7885  purchases[user] */\n      swap1\n      dup2\n      mstore\n        /* \"arcanix.sol\":7870:7879  purchases */\n      0x06\n        /* \"arcanix.sol\":7870:7885  purchases[user] */\n      0x20\n      mstore\n      0x40\n      dup2\n      keccak256\n        /* \"arcanix.sol\":7870:7895  purchases[user].invst_ref */\n      0x01\n      add\n      sload\n      swap1\n      swap2\n      and\n      swap1\n        /* \"arcanix.sol\":7906:8169  for (uint8 i = 0; i < LEVEL; i++) {... */\n    tag_599:\n        /* \"arcanix.sol\":7928:7933  LEVEL */\n      sload(0x05)\n        /* \"arcanix.sol\":7924:7925  i */\n      dup2\n        /* \"arcanix.sol\":7924:7933  i < LEVEL */\n      0xff\n      and\n      lt\n        /* \"arcanix.sol\":7906:8169  for (uint8 i = 0; i < LEVEL; i++) {... */\n      iszero\n      tag_442\n      jumpi\n      sub(shl(0xa0, 0x01), 0x01)\n        /* \"arcanix.sol\":7958:7978  upline == address(0) */\n      dup3\n      and\n        /* \"arcanix.sol\":7954:8018  if (upline == address(0)) {... */\n      iszero\n        /* \"arcanix.sol\":7998:8003  break */\n      tag_442\n        /* \"arcanix.sol\":7954:8018  if (upline == address(0)) {... */\n      jumpi\n      sub(shl(0xa0, 0x01), 0x01)\n        /* \"arcanix.sol\":8032:8049  purchases[upline] */\n      dup3\n      and\n      0x00\n      swap1\n      dup2\n      mstore\n        /* \"arcanix.sol\":8032:8041  purchases */\n      0x06\n        /* \"arcanix.sol\":8032:8049  purchases[upline] */\n      0x20\n      mstore\n      0x40\n      dup2\n      keccak256\n        /* \"arcanix.sol\":8032:8062  purchases[upline].teambusiness */\n      0x0c\n      add\n        /* \"arcanix.sol\":8032:8072  purchases[upline].teambusiness += amount */\n      dup1\n      sload\n        /* \"arcanix.sol\":8066:8072  amount */\n      dup7\n      swap3\n        /* \"arcanix.sol\":8032:8049  purchases[upline] */\n      swap1\n        /* \"arcanix.sol\":8032:8072  purchases[upline].teambusiness += amount */\n      tag_603\n      swap1\n        /* \"arcanix.sol\":8066:8072  amount */\n      dup5\n      swap1\n        /* \"arcanix.sol\":8032:8072  purchases[upline].teambusiness += amount */\n      tag_166\n      jump\t// in\n    tag_603:\n      swap1\n      swap2\n      sstore\n      pop\n      pop\n      sub(shl(0xa0, 0x01), 0x01)\n        /* \"arcanix.sol\":8131:8148  purchases[upline] */\n      swap2\n      dup3\n      and\n      0x00\n      swap1\n      dup2\n      mstore\n        /* \"arcanix.sol\":8131:8140  purchases */\n      0x06\n        /* \"arcanix.sol\":8131:8148  purchases[upline] */\n      0x20\n      mstore\n      0x40\n      swap1\n      keccak256\n        /* \"arcanix.sol\":8131:8158  purchases[upline].invst_ref */\n      0x01\n      add\n      sload\n      swap1\n      swap2\n      and\n      swap1\n        /* \"arcanix.sol\":7935:7938  i++ */\n      dup1\n      tag_604\n      dup2\n      tag_333\n      jump\t// in\n    tag_604:\n      swap2\n      pop\n      pop\n        /* \"arcanix.sol\":7906:8169  for (uint8 i = 0; i < LEVEL; i++) {... */\n      jump(tag_599)\n        /* \"arcanix.sol\":8189:8822  function _sendLevelIncome(uint256 amount, address fromUser) internal {... */\n    tag_443:\n      sub(shl(0xa0, 0x01), 0x01)\n        /* \"arcanix.sol\":8289:8308  purchases[fromUser] */\n      dup1\n      dup3\n      and\n        /* \"arcanix.sol\":8272:8286  address upline */\n      0x00\n        /* \"arcanix.sol\":8289:8308  purchases[fromUser] */\n      swap1\n      dup2\n      mstore\n        /* \"arcanix.sol\":8289:8298  purchases */\n      0x06\n        /* \"arcanix.sol\":8289:8308  purchases[fromUser] */\n      0x20\n      mstore\n      0x40\n      swap1\n      keccak256\n        /* \"arcanix.sol\":8289:8318  purchases[fromUser].invst_ref */\n      0x01\n      swap1\n      dup2\n      add\n      sload\n      swap1\n      swap2\n      and\n      swap1\n        /* \"arcanix.sol\":8333:8812  for (uint8 level = 1; level <= 30; level++) {... */\n    tag_606:\n        /* \"arcanix.sol\":8364:8366  30 */\n      0x1e\n        /* \"arcanix.sol\":8355:8360  level */\n      dup2\n        /* \"arcanix.sol\":8355:8366  level <= 30 */\n      0xff\n      and\n      gt\n        /* \"arcanix.sol\":8333:8812  for (uint8 level = 1; level <= 30; level++) {... */\n      tag_442\n      jumpi\n      sub(shl(0xa0, 0x01), 0x01)\n        /* \"arcanix.sol\":8399:8419  upline == address(0) */\n      dup3\n      and\n        /* \"arcanix.sol\":8395:8426  if (upline == address(0)) break */\n      iszero\n        /* \"arcanix.sol\":8421:8426  break */\n      tag_442\n        /* \"arcanix.sol\":8395:8426  if (upline == address(0)) break */\n      jumpi\n        /* \"arcanix.sol\":8445:8463  uint256 percentage */\n      0x00\n        /* \"arcanix.sol\":8466:8500  _getLevelPercentage(level, upline) */\n      tag_610\n        /* \"arcanix.sol\":8486:8491  level */\n      dup3\n        /* \"arcanix.sol\":8493:8499  upline */\n      dup5\n        /* \"arcanix.sol\":8466:8485  _getLevelPercentage */\n      tag_611\n        /* \"arcanix.sol\":8466:8500  _getLevelPercentage(level, upline) */\n      jump\t// in\n    tag_610:\n        /* \"arcanix.sol\":8445:8500  uint256 percentage = _getLevelPercentage(level, upline) */\n      swap1\n      pop\n        /* \"arcanix.sol\":8518:8532  uint256 income */\n      0x00\n        /* \"arcanix.sol\":8559:8562  100 */\n      0x64\n        /* \"arcanix.sol\":8536:8555  amount * percentage */\n      tag_612\n        /* \"arcanix.sol\":8445:8500  uint256 percentage = _getLevelPercentage(level, upline) */\n      dup4\n        /* \"arcanix.sol\":8536:8542  amount */\n      dup9\n        /* \"arcanix.sol\":8536:8555  amount * percentage */\n      tag_160\n      jump\t// in\n    tag_612:\n        /* \"arcanix.sol\":8535:8562  (amount * percentage) / 100 */\n      tag_613\n      swap2\n      swap1\n      tag_158\n      jump\t// in\n    tag_613:\n        /* \"arcanix.sol\":8518:8562  uint256 income = (amount * percentage) / 100 */\n      swap1\n      pop\n        /* \"arcanix.sol\":8585:8595  income > 0 */\n      dup1\n      iszero\n        /* \"arcanix.sol\":8581:8743  if (income > 0) {... */\n      tag_614\n      jumpi\n        /* \"arcanix.sol\":8619:8628  usdtToken */\n      sload(0x01)\n        /* \"arcanix.sol\":8619:8652  usdtToken.transfer(upline,income) */\n      mload(0x40)\n      shl(0xe0, 0xa9059cbb)\n      dup2\n      mstore\n      sub(shl(0xa0, 0x01), 0x01)\n        /* \"#utility.yul\":9660:9692   */\n      dup7\n      dup2\n      and\n        /* \"arcanix.sol\":8619:8652  usdtToken.transfer(upline,income) */\n      0x04\n      dup4\n      add\n        /* \"#utility.yul\":9642:9693   */\n      mstore\n        /* \"#utility.yul\":9709:9727   */\n      0x24\n      dup3\n      add\n        /* \"#utility.yul\":9702:9736   */\n      dup5\n      swap1\n      mstore\n        /* \"arcanix.sol\":8619:8628  usdtToken */\n      swap1\n      swap2\n      and\n      swap1\n        /* \"arcanix.sol\":8619:8637  usdtToken.transfer */\n      0xa9059cbb\n      swap1\n        /* \"#utility.yul\":9615:9633   */\n      0x44\n      add\n        /* \"arcanix.sol\":8619:8652  usdtToken.transfer(upline,income) */\n      0x20\n      mload(0x40)\n      dup1\n      dup4\n      sub\n      dup2\n      0x00\n      dup8\n      gas\n      call\n      iszero\n      dup1\n      iszero\n      tag_617\n      jumpi\n      returndatacopy(0x00, 0x00, returndatasize)\n      revert(0x00, returndatasize)\n    tag_617:\n      pop\n      pop\n      pop\n      pop\n      mload(0x40)\n      returndatasize\n      not(0x1f)\n      0x1f\n      dup3\n      add\n      and\n      dup3\n      add\n      dup1\n      0x40\n      mstore\n      pop\n      dup2\n      add\n      swap1\n      tag_618\n      swap2\n      swap1\n      tag_173\n      jump\t// in\n    tag_618:\n      pop\n        /* \"arcanix.sol\":8680:8724  LevelIncome(fromUser, upline, level, income) */\n      0x40\n      dup1\n      mload\n        /* \"#utility.yul\":19958:19962   */\n      0xff\n        /* \"#utility.yul\":19946:19963   */\n      dup6\n      and\n        /* \"#utility.yul\":19928:19964   */\n      dup2\n      mstore\n        /* \"#utility.yul\":19995:19997   */\n      0x20\n        /* \"#utility.yul\":19980:19998   */\n      dup2\n      add\n        /* \"#utility.yul\":19973:20007   */\n      dup4\n      swap1\n      mstore\n      sub(shl(0xa0, 0x01), 0x01)\n        /* \"arcanix.sol\":8680:8724  LevelIncome(fromUser, upline, level, income) */\n      dup1\n      dup8\n      and\n      swap3\n      swap1\n      dup9\n      and\n      swap2\n      0x566f5a6632d8591dfbec04ce6cc94a1e57e98e83d507257143f926d8efd01d03\n      swap2\n        /* \"#utility.yul\":19901:19919   */\n      add\n        /* \"arcanix.sol\":8680:8724  LevelIncome(fromUser, upline, level, income) */\n      mload(0x40)\n      dup1\n      swap2\n      sub\n      swap1\n      log3\n        /* \"arcanix.sol\":8581:8743  if (income > 0) {... */\n    tag_614:\n      pop\n      pop\n      sub(shl(0xa0, 0x01), 0x01)\n        /* \"arcanix.sol\":8770:8787  purchases[upline] */\n      swap2\n      dup3\n      and\n      0x00\n      swap1\n      dup2\n      mstore\n        /* \"arcanix.sol\":8770:8779  purchases */\n      0x06\n        /* \"arcanix.sol\":8770:8787  purchases[upline] */\n      0x20\n      mstore\n      0x40\n      swap1\n      keccak256\n        /* \"arcanix.sol\":8770:8797  purchases[upline].invst_ref */\n      0x01\n      add\n      sload\n      swap1\n      swap2\n      and\n      swap1\n        /* \"arcanix.sol\":8368:8375  level++ */\n      dup1\n      tag_621\n      dup2\n      tag_333\n      jump\t// in\n    tag_621:\n      swap2\n      pop\n      pop\n        /* \"arcanix.sol\":8333:8812  for (uint8 level = 1; level <= 30; level++) {... */\n      jump(tag_606)\n        /* \"arcanix.sol\":3531:4198  function registration(... */\n    tag_446:\n      sub(shl(0xa0, 0x01), 0x01)\n        /* \"arcanix.sol\":21482:21498  purchases[_user] */\n      dup3\n      and\n        /* \"arcanix.sol\":21459:21463  bool */\n      0x00\n        /* \"arcanix.sol\":21482:21498  purchases[_user] */\n      swap1\n      dup2\n      mstore\n        /* \"arcanix.sol\":21482:21491  purchases */\n      0x06\n        /* \"arcanix.sol\":21482:21498  purchases[_user] */\n      0x20\n      mstore\n      0x40\n      swap1\n      keccak256\n        /* \"arcanix.sol\":21482:21501  purchases[_user].id */\n      sload\n        /* \"arcanix.sol\":21482:21506  purchases[_user].id != 0 */\n      iszero\n        /* \"arcanix.sol\":3640:3690  require(!isUserExists(userAddress), \"user exists\") */\n      tag_624\n      jumpi\n      mload(0x40)\n      shl(0xe5, 0x461bcd)\n      dup2\n      mstore\n        /* \"#utility.yul\":20220:20222   */\n      0x20\n        /* \"arcanix.sol\":3640:3690  require(!isUserExists(userAddress), \"user exists\") */\n      0x04\n      dup3\n      add\n        /* \"#utility.yul\":20202:20223   */\n      mstore\n        /* \"#utility.yul\":20259:20261   */\n      0x0b\n        /* \"#utility.yul\":20239:20257   */\n      0x24\n      dup3\n      add\n        /* \"#utility.yul\":20232:20262   */\n      mstore\n      shl(0xa8, 0x7573657220657869737473)\n        /* \"#utility.yul\":20278:20296   */\n      0x44\n      dup3\n      add\n        /* \"#utility.yul\":20271:20312   */\n      mstore\n        /* \"#utility.yul\":20329:20347   */\n      0x64\n      add\n        /* \"arcanix.sol\":3640:3690  require(!isUserExists(userAddress), \"user exists\") */\n      tag_142\n        /* \"#utility.yul\":20018:20353   */\n      jump\n        /* \"arcanix.sol\":3640:3690  require(!isUserExists(userAddress), \"user exists\") */\n    tag_624:\n      sub(shl(0xa0, 0x01), 0x01)\n        /* \"arcanix.sol\":21482:21498  purchases[_user] */\n      dup2\n      and\n        /* \"arcanix.sol\":21459:21463  bool */\n      0x00\n        /* \"arcanix.sol\":21482:21498  purchases[_user] */\n      swap1\n      dup2\n      mstore\n        /* \"arcanix.sol\":21482:21491  purchases */\n      0x06\n        /* \"arcanix.sol\":21482:21498  purchases[_user] */\n      0x20\n      mstore\n      0x40\n      swap1\n      keccak256\n        /* \"arcanix.sol\":21482:21501  purchases[_user].id */\n      sload\n        /* \"arcanix.sol\":3700:3761  require(isUserExists(referrerAddress), \"referrer not exists\") */\n      tag_628\n      jumpi\n      mload(0x40)\n      shl(0xe5, 0x461bcd)\n      dup2\n      mstore\n        /* \"#utility.yul\":19263:19265   */\n      0x20\n        /* \"arcanix.sol\":3700:3761  require(isUserExists(referrerAddress), \"referrer not exists\") */\n      0x04\n      dup3\n      add\n        /* \"#utility.yul\":19245:19266   */\n      mstore\n        /* \"#utility.yul\":19302:19304   */\n      0x13\n        /* \"#utility.yul\":19282:19300   */\n      0x24\n      dup3\n      add\n        /* \"#utility.yul\":19275:19305   */\n      mstore\n      shl(0x68, 0x7265666572726572206e6f7420657869737473)\n        /* \"#utility.yul\":19321:19339   */\n      0x44\n      dup3\n      add\n        /* \"#utility.yul\":19314:19363   */\n      mstore\n        /* \"#utility.yul\":19380:19398   */\n      0x64\n      add\n        /* \"arcanix.sol\":3700:3761  require(isUserExists(referrerAddress), \"referrer not exists\") */\n      tag_142\n        /* \"#utility.yul\":19061:19404   */\n      jump\n        /* \"arcanix.sol\":3700:3761  require(isUserExists(referrerAddress), \"referrer not exists\") */\n    tag_628:\n        /* \"arcanix.sol\":3799:3809  lastUserId */\n      0x03\n      dup1\n      sload\n      sub(shl(0xa0, 0x01), 0x01)\n        /* \"arcanix.sol\":3771:3793  purchases[userAddress] */\n      dup1\n      dup6\n      and\n      0x00\n      dup2\n      dup2\n      mstore\n        /* \"arcanix.sol\":3771:3780  purchases */\n      0x06\n        /* \"arcanix.sol\":3771:3793  purchases[userAddress] */\n      0x20\n      swap1\n      dup2\n      mstore\n      0x40\n      dup1\n      dup4\n      keccak256\n        /* \"arcanix.sol\":3771:3809  purchases[userAddress].id = lastUserId */\n      swap6\n      dup7\n      sstore\n        /* \"arcanix.sol\":3819:3849  purchases[userAddress].ico_ref */\n      0x02\n      swap1\n      swap6\n      add\n        /* \"arcanix.sol\":3819:3867  purchases[userAddress].ico_ref = referrerAddress */\n      dup1\n      sload\n      swap5\n      dup9\n      and\n      not(sub(shl(0xa0, 0x01), 0x01))\n      swap6\n      dup7\n      and\n      or\n      swap1\n      sstore\n        /* \"arcanix.sol\":3889:3899  lastUserId */\n      dup6\n      sload\n        /* \"arcanix.sol\":3877:3900  idToAddress[lastUserId] */\n      dup3\n      mstore\n        /* \"arcanix.sol\":3877:3888  idToAddress */\n      0x07\n        /* \"arcanix.sol\":3877:3900  idToAddress[lastUserId] */\n      swap1\n      mstore\n      swap3\n      dup4\n      keccak256\n        /* \"arcanix.sol\":3877:3914  idToAddress[lastUserId] = userAddress */\n      dup1\n      sload\n      swap1\n      swap3\n      and\n      or\n      swap1\n      sstore\n        /* \"arcanix.sol\":3924:3936  lastUserId++ */\n      dup2\n      sload\n      swap2\n        /* \"arcanix.sol\":3799:3809  lastUserId */\n      swap1\n        /* \"arcanix.sol\":3924:3936  lastUserId++ */\n      tag_630\n      dup4\n      tag_538\n      jump\t// in\n    tag_630:\n      swap1\n      swap2\n      sstore\n      pop\n      pop\n      sub(shl(0xa0, 0x01), 0x01)\n        /* \"arcanix.sol\":4029:4190  Registrationico(... */\n      dup3\n      dup2\n      and\n        /* \"arcanix.sol\":4112:4134  purchases[userAddress] */\n      0x00\n      dup2\n      dup2\n      mstore\n        /* \"arcanix.sol\":4112:4121  purchases */\n      0x06\n        /* \"arcanix.sol\":4112:4134  purchases[userAddress] */\n      0x20\n      mstore\n      0x40\n      dup1\n      dup3\n      keccak256\n        /* \"arcanix.sol\":4112:4137  purchases[userAddress].id */\n      sload\n        /* \"arcanix.sol\":4029:4190  Registrationico(... */\n      swap4\n      dup6\n      and\n        /* \"arcanix.sol\":4151:4177  purchases[referrerAddress] */\n      dup1\n      dup4\n      mstore\n      swap2\n      dup2\n      swap1\n      keccak256\n        /* \"arcanix.sol\":4151:4180  purchases[referrerAddress].id */\n      sload\n        /* \"arcanix.sol\":4029:4190  Registrationico(... */\n      swap1\n      mload\n      swap2\n      swap4\n      0x60c0f269b7ea51048f44b9b44dd98960b4bd2867503b86eadc866744dc2c608f\n      swap3\n      tag_597\n      swap3\n        /* \"arcanix.sol\":4151:4180  purchases[referrerAddress].id */\n      swap1\n        /* \"#utility.yul\":11967:11992   */\n      swap2\n      dup3\n      mstore\n        /* \"#utility.yul\":12023:12025   */\n      0x20\n        /* \"#utility.yul\":12008:12026   */\n      dup3\n      add\n        /* \"#utility.yul\":12001:12035   */\n      mstore\n        /* \"#utility.yul\":11955:11957   */\n      0x40\n        /* \"#utility.yul\":11940:11958   */\n      add\n      swap1\n        /* \"#utility.yul\":11793:12041   */\n      jump\n        /* \"arcanix.sol\":8832:9740  function _getLevelPercentage(uint8 level, address upline) internal view returns (uint256) {... */\n    tag_611:\n      sub(shl(0xa0, 0x01), 0x01)\n        /* \"arcanix.sol\":8953:8970  purchases[upline] */\n      dup2\n      and\n        /* \"arcanix.sol\":8913:8920  uint256 */\n      0x00\n        /* \"arcanix.sol\":8953:8970  purchases[upline] */\n      swap1\n      dup2\n      mstore\n        /* \"arcanix.sol\":8953:8962  purchases */\n      0x06\n        /* \"arcanix.sol\":8953:8970  purchases[upline] */\n      0x20\n      mstore\n      0x40\n      dup2\n      keccak256\n        /* \"arcanix.sol\":8953:8983  purchases[upline].partnerCount */\n      0x03\n      dup2\n      add\n      sload\n        /* \"arcanix.sol\":9015:9045  purchases[upline].teambusiness */\n      0x0c\n      swap1\n      swap2\n      add\n      sload\n        /* \"arcanix.sol\":9116:9117  4 */\n      0x04\n        /* \"arcanix.sol\":9106:9117  direct >= 4 */\n      dup3\n      lt\n        /* \"arcanix.sol\":9102:9321  if (direct >= 4) {... */\n      tag_639\n      jumpi\n        /* \"arcanix.sol\":9141:9146  level */\n      dup5\n        /* \"arcanix.sol\":9141:9151  level == 1 */\n      0xff\n      and\n        /* \"arcanix.sol\":9150:9151  1 */\n      0x01\n        /* \"arcanix.sol\":9141:9151  level == 1 */\n      eq\n        /* \"arcanix.sol\":9141:9170  level == 1 && teamBiz >= 1600 */\n      dup1\n      iszero\n      tag_634\n      jumpi\n      pop\n        /* \"arcanix.sol\":9166:9170  1600 */\n      0x0640\n        /* \"arcanix.sol\":9155:9162  teamBiz */\n      dup2\n        /* \"arcanix.sol\":9155:9170  teamBiz >= 1600 */\n      lt\n      iszero\n        /* \"arcanix.sol\":9141:9170  level == 1 && teamBiz >= 1600 */\n    tag_634:\n        /* \"arcanix.sol\":9137:9181  if (level == 1 && teamBiz >= 1600) return 25 */\n      iszero\n      tag_635\n      jumpi\n        /* \"arcanix.sol\":9179:9181  25 */\n      0x19\n        /* \"arcanix.sol\":9172:9181  return 25 */\n      swap3\n      pop\n      pop\n      pop\n      jump(tag_337)\n        /* \"arcanix.sol\":9137:9181  if (level == 1 && teamBiz >= 1600) return 25 */\n    tag_635:\n        /* \"arcanix.sol\":9203:9208  level */\n      dup5\n        /* \"arcanix.sol\":9203:9213  level == 2 */\n      0xff\n      and\n        /* \"arcanix.sol\":9212:9213  2 */\n      0x02\n        /* \"arcanix.sol\":9203:9213  level == 2 */\n      eq\n        /* \"arcanix.sol\":9203:9232  level == 2 && teamBiz >= 5000 */\n      dup1\n      iszero\n      tag_636\n      jumpi\n      pop\n        /* \"arcanix.sol\":9228:9232  5000 */\n      0x1388\n        /* \"arcanix.sol\":9217:9224  teamBiz */\n      dup2\n        /* \"arcanix.sol\":9217:9232  teamBiz >= 5000 */\n      lt\n      iszero\n        /* \"arcanix.sol\":9203:9232  level == 2 && teamBiz >= 5000 */\n    tag_636:\n        /* \"arcanix.sol\":9199:9243  if (level == 2 && teamBiz >= 5000) return 20 */\n      iszero\n      tag_637\n      jumpi\n        /* \"arcanix.sol\":9241:9243  20 */\n      0x14\n        /* \"arcanix.sol\":9234:9243  return 20 */\n      swap3\n      pop\n      pop\n      pop\n      jump(tag_337)\n        /* \"arcanix.sol\":9199:9243  if (level == 2 && teamBiz >= 5000) return 20 */\n    tag_637:\n        /* \"arcanix.sol\":9265:9270  level */\n      dup5\n        /* \"arcanix.sol\":9265:9275  level == 3 */\n      0xff\n      and\n        /* \"arcanix.sol\":9274:9275  3 */\n      0x03\n        /* \"arcanix.sol\":9265:9275  level == 3 */\n      eq\n        /* \"arcanix.sol\":9265:9295  level == 3 && teamBiz >= 10000 */\n      dup1\n      iszero\n      tag_638\n      jumpi\n      pop\n        /* \"arcanix.sol\":9290:9295  10000 */\n      0x2710\n        /* \"arcanix.sol\":9279:9286  teamBiz */\n      dup2\n        /* \"arcanix.sol\":9279:9295  teamBiz >= 10000 */\n      lt\n      iszero\n        /* \"arcanix.sol\":9265:9295  level == 3 && teamBiz >= 10000 */\n    tag_638:\n        /* \"arcanix.sol\":9261:9306  if (level == 3 && teamBiz >= 10000) return 20 */\n      iszero\n      tag_639\n      jumpi\n        /* \"arcanix.sol\":9304:9306  20 */\n      0x14\n        /* \"arcanix.sol\":9297:9306  return 20 */\n      swap3\n      pop\n      pop\n      pop\n      jump(tag_337)\n        /* \"arcanix.sol\":9261:9306  if (level == 3 && teamBiz >= 10000) return 20 */\n    tag_639:\n        /* \"arcanix.sol\":9365:9370  level */\n      dup5\n        /* \"arcanix.sol\":9365:9375  level == 1 */\n      0xff\n      and\n        /* \"arcanix.sol\":9374:9375  1 */\n      0x01\n        /* \"arcanix.sol\":9365:9375  level == 1 */\n      sub\n        /* \"arcanix.sol\":9361:9386  if (level == 1) return 12 */\n      tag_640\n      jumpi\n        /* \"arcanix.sol\":9384:9386  12 */\n      0x0c\n        /* \"arcanix.sol\":9377:9386  return 12 */\n      swap3\n      pop\n      pop\n      pop\n      jump(tag_337)\n        /* \"arcanix.sol\":9361:9386  if (level == 1) return 12 */\n    tag_640:\n        /* \"arcanix.sol\":9413:9414  2 */\n      0x02\n        /* \"arcanix.sol\":9404:9409  level */\n      dup6\n        /* \"arcanix.sol\":9404:9414  level >= 2 */\n      0xff\n      and\n      lt\n      iszero\n        /* \"arcanix.sol\":9404:9428  level >= 2 && level <= 4 */\n      dup1\n      iszero\n      tag_641\n      jumpi\n      pop\n        /* \"arcanix.sol\":9427:9428  4 */\n      0x04\n        /* \"arcanix.sol\":9418:9423  level */\n      dup6\n        /* \"arcanix.sol\":9418:9428  level <= 4 */\n      0xff\n      and\n      gt\n      iszero\n        /* \"arcanix.sol\":9404:9428  level >= 2 && level <= 4 */\n    tag_641:\n        /* \"arcanix.sol\":9400:9439  if (level >= 2 && level <= 4) return 10 */\n      iszero\n      tag_642\n      jumpi\n        /* \"arcanix.sol\":9437:9439  10 */\n      0x0a\n        /* \"arcanix.sol\":9430:9439  return 10 */\n      swap3\n      pop\n      pop\n      pop\n      jump(tag_337)\n        /* \"arcanix.sol\":9400:9439  if (level >= 2 && level <= 4) return 10 */\n    tag_642:\n        /* \"arcanix.sol\":9466:9467  5 */\n      0x05\n        /* \"arcanix.sol\":9457:9462  level */\n      dup6\n        /* \"arcanix.sol\":9457:9467  level >= 5 */\n      0xff\n      and\n      lt\n      iszero\n        /* \"arcanix.sol\":9457:9481  level >= 5 && level <= 6 */\n      dup1\n      iszero\n      tag_643\n      jumpi\n      pop\n        /* \"arcanix.sol\":9480:9481  6 */\n      0x06\n        /* \"arcanix.sol\":9471:9476  level */\n      dup6\n        /* \"arcanix.sol\":9471:9481  level <= 6 */\n      0xff\n      and\n      gt\n      iszero\n        /* \"arcanix.sol\":9457:9481  level >= 5 && level <= 6 */\n    tag_643:\n        /* \"arcanix.sol\":9453:9491  if (level >= 5 && level <= 6) return 5 */\n      iszero\n      tag_644\n      jumpi\n        /* \"arcanix.sol\":9490:9491  5 */\n      0x05\n        /* \"arcanix.sol\":9483:9491  return 5 */\n      swap3\n      pop\n      pop\n      pop\n      jump(tag_337)\n        /* \"arcanix.sol\":9453:9491  if (level >= 5 && level <= 6) return 5 */\n    tag_644:\n        /* \"arcanix.sol\":9518:9519  7 */\n      0x07\n        /* \"arcanix.sol\":9509:9514  level */\n      dup6\n        /* \"arcanix.sol\":9509:9519  level >= 7 */\n      0xff\n      and\n      lt\n      iszero\n        /* \"arcanix.sol\":9509:9534  level >= 7 && level <= 12 */\n      dup1\n      iszero\n      tag_645\n      jumpi\n      pop\n        /* \"arcanix.sol\":9532:9534  12 */\n      0x0c\n        /* \"arcanix.sol\":9523:9528  level */\n      dup6\n        /* \"arcanix.sol\":9523:9534  level <= 12 */\n      0xff\n      and\n      gt\n      iszero\n        /* \"arcanix.sol\":9509:9534  level >= 7 && level <= 12 */\n    tag_645:\n        /* \"arcanix.sol\":9505:9544  if (level >= 7 && level <= 12) return 3 */\n      iszero\n      tag_646\n      jumpi\n        /* \"arcanix.sol\":9543:9544  3 */\n      0x03\n        /* \"arcanix.sol\":9536:9544  return 3 */\n      swap3\n      pop\n      pop\n      pop\n      jump(tag_337)\n        /* \"arcanix.sol\":9505:9544  if (level >= 7 && level <= 12) return 3 */\n    tag_646:\n        /* \"arcanix.sol\":9571:9573  13 */\n      0x0d\n        /* \"arcanix.sol\":9562:9567  level */\n      dup6\n        /* \"arcanix.sol\":9562:9573  level >= 13 */\n      0xff\n      and\n      lt\n      iszero\n        /* \"arcanix.sol\":9562:9588  level >= 13 && level <= 20 */\n      dup1\n      iszero\n      tag_647\n      jumpi\n      pop\n        /* \"arcanix.sol\":9586:9588  20 */\n      0x14\n        /* \"arcanix.sol\":9577:9582  level */\n      dup6\n        /* \"arcanix.sol\":9577:9588  level <= 20 */\n      0xff\n      and\n      gt\n      iszero\n        /* \"arcanix.sol\":9562:9588  level >= 13 && level <= 20 */\n    tag_647:\n        /* \"arcanix.sol\":9558:9598  if (level >= 13 && level <= 20) return 2 */\n      iszero\n      tag_648\n      jumpi\n        /* \"arcanix.sol\":9597:9598  2 */\n      0x02\n        /* \"arcanix.sol\":9590:9598  return 2 */\n      swap3\n      pop\n      pop\n      pop\n      jump(tag_337)\n        /* \"arcanix.sol\":9558:9598  if (level >= 13 && level <= 20) return 2 */\n    tag_648:\n        /* \"arcanix.sol\":9625:9627  21 */\n      0x15\n        /* \"arcanix.sol\":9616:9621  level */\n      dup6\n        /* \"arcanix.sol\":9616:9627  level >= 21 */\n      0xff\n      and\n      lt\n      iszero\n        /* \"arcanix.sol\":9616:9642  level >= 21 && level <= 25 */\n      dup1\n      iszero\n      tag_649\n      jumpi\n      pop\n        /* \"arcanix.sol\":9640:9642  25 */\n      0x19\n        /* \"arcanix.sol\":9631:9636  level */\n      dup6\n        /* \"arcanix.sol\":9631:9642  level <= 25 */\n      0xff\n      and\n      gt\n      iszero\n        /* \"arcanix.sol\":9616:9642  level >= 21 && level <= 25 */\n    tag_649:\n        /* \"arcanix.sol\":9612:9652  if (level >= 21 && level <= 25) return 1 */\n      iszero\n      tag_650\n      jumpi\n        /* \"arcanix.sol\":9651:9652  1 */\n      0x01\n        /* \"arcanix.sol\":9644:9652  return 1 */\n      swap3\n      pop\n      pop\n      pop\n      jump(tag_337)\n        /* \"arcanix.sol\":9612:9652  if (level >= 21 && level <= 25) return 1 */\n    tag_650:\n        /* \"arcanix.sol\":9679:9681  26 */\n      0x1a\n        /* \"arcanix.sol\":9670:9675  level */\n      dup6\n        /* \"arcanix.sol\":9670:9681  level >= 26 */\n      0xff\n      and\n      lt\n      iszero\n        /* \"arcanix.sol\":9670:9696  level >= 26 && level <= 30 */\n      dup1\n      iszero\n      tag_651\n      jumpi\n      pop\n        /* \"arcanix.sol\":9694:9696  30 */\n      0x1e\n        /* \"arcanix.sol\":9685:9690  level */\n      dup6\n        /* \"arcanix.sol\":9685:9696  level <= 30 */\n      0xff\n      and\n      gt\n      iszero\n        /* \"arcanix.sol\":9670:9696  level >= 26 && level <= 30 */\n    tag_651:\n        /* \"arcanix.sol\":9666:9706  if (level >= 26 && level <= 30) return 4 */\n      iszero\n      tag_652\n      jumpi\n        /* \"arcanix.sol\":9705:9706  4 */\n      0x04\n        /* \"arcanix.sol\":9698:9706  return 4 */\n      swap3\n      pop\n      pop\n      pop\n      jump(tag_337)\n        /* \"arcanix.sol\":9666:9706  if (level >= 26 && level <= 30) return 4 */\n    tag_652:\n      pop\n        /* \"arcanix.sol\":9728:9729  0 */\n      0x00\n      swap5\n        /* \"arcanix.sol\":8832:9740  function _getLevelPercentage(uint8 level, address upline) internal view returns (uint256) {... */\n      swap4\n      pop\n      pop\n      pop\n      pop\n      jump\t// out\n        /* \"#utility.yul\":14:240   */\n    tag_38:\n        /* \"#utility.yul\":73:79   */\n      0x00\n        /* \"#utility.yul\":126:128   */\n      0x20\n        /* \"#utility.yul\":114:123   */\n      dup3\n        /* \"#utility.yul\":105:112   */\n      dup5\n        /* \"#utility.yul\":101:124   */\n      sub\n        /* \"#utility.yul\":97:129   */\n      slt\n        /* \"#utility.yul\":94:146   */\n      iszero\n      tag_659\n      jumpi\n        /* \"#utility.yul\":142:143   */\n      0x00\n        /* \"#utility.yul\":139:140   */\n      0x00\n        /* \"#utility.yul\":132:144   */\n      revert\n        /* \"#utility.yul\":94:146   */\n    tag_659:\n      pop\n        /* \"#utility.yul\":187:210   */\n      calldataload\n      swap2\n        /* \"#utility.yul\":14:240   */\n      swap1\n      pop\n      jump\t// out\n        /* \"#utility.yul\":245:418   */\n    tag_653:\n        /* \"#utility.yul\":313:333   */\n      dup1\n      calldataload\n      sub(shl(0xa0, 0x01), 0x01)\n        /* \"#utility.yul\":362:393   */\n      dup2\n      and\n        /* \"#utility.yul\":352:394   */\n      dup2\n      eq\n        /* \"#utility.yul\":342:412   */\n      tag_661\n      jumpi\n        /* \"#utility.yul\":408:409   */\n      0x00\n        /* \"#utility.yul\":405:406   */\n      0x00\n        /* \"#utility.yul\":398:410   */\n      revert\n        /* \"#utility.yul\":342:412   */\n    tag_661:\n        /* \"#utility.yul\":245:418   */\n      swap2\n      swap1\n      pop\n      jump\t// out\n        /* \"#utility.yul\":423:609   */\n    tag_42:\n        /* \"#utility.yul\":482:488   */\n      0x00\n        /* \"#utility.yul\":535:537   */\n      0x20\n        /* \"#utility.yul\":523:532   */\n      dup3\n        /* \"#utility.yul\":514:521   */\n      dup5\n        /* \"#utility.yul\":510:533   */\n      sub\n        /* \"#utility.yul\":506:538   */\n      slt\n        /* \"#utility.yul\":503:555   */\n      iszero\n      tag_663\n      jumpi\n        /* \"#utility.yul\":551:552   */\n      0x00\n        /* \"#utility.yul\":548:549   */\n      0x00\n        /* \"#utility.yul\":541:553   */\n      revert\n        /* \"#utility.yul\":503:555   */\n    tag_663:\n        /* \"#utility.yul\":574:603   */\n      tag_664\n        /* \"#utility.yul\":593:602   */\n      dup3\n        /* \"#utility.yul\":574:603   */\n      tag_653\n      jump\t// in\n    tag_664:\n        /* \"#utility.yul\":564:603   */\n      swap4\n        /* \"#utility.yul\":423:609   */\n      swap3\n      pop\n      pop\n      pop\n      jump\t// out\n        /* \"#utility.yul\":1196:1352   */\n    tag_654:\n        /* \"#utility.yul\":1262:1282   */\n      dup1\n      calldataload\n        /* \"#utility.yul\":1322:1326   */\n      0xff\n        /* \"#utility.yul\":1311:1327   */\n      dup2\n      and\n        /* \"#utility.yul\":1301:1328   */\n      dup2\n      eq\n        /* \"#utility.yul\":1291:1346   */\n      tag_661\n      jumpi\n        /* \"#utility.yul\":1342:1343   */\n      0x00\n        /* \"#utility.yul\":1339:1340   */\n      0x00\n        /* \"#utility.yul\":1332:1344   */\n      revert\n        /* \"#utility.yul\":1357:1653   */\n    tag_62:\n        /* \"#utility.yul\":1423:1429   */\n      0x00\n        /* \"#utility.yul\":1431:1437   */\n      0x00\n        /* \"#utility.yul\":1484:1486   */\n      0x40\n        /* \"#utility.yul\":1472:1481   */\n      dup4\n        /* \"#utility.yul\":1463:1470   */\n      dup6\n        /* \"#utility.yul\":1459:1482   */\n      sub\n        /* \"#utility.yul\":1455:1487   */\n      slt\n        /* \"#utility.yul\":1452:1504   */\n      iszero\n      tag_671\n      jumpi\n        /* \"#utility.yul\":1500:1501   */\n      0x00\n        /* \"#utility.yul\":1497:1498   */\n      0x00\n        /* \"#utility.yul\":1490:1502   */\n      revert\n        /* \"#utility.yul\":1452:1504   */\n    tag_671:\n        /* \"#utility.yul\":1523:1550   */\n      tag_672\n        /* \"#utility.yul\":1540:1549   */\n      dup4\n        /* \"#utility.yul\":1523:1550   */\n      tag_654\n      jump\t// in\n    tag_672:\n        /* \"#utility.yul\":1513:1550   */\n      swap5\n        /* \"#utility.yul\":1619:1621   */\n      0x20\n        /* \"#utility.yul\":1604:1622   */\n      swap4\n      swap1\n      swap4\n      add\n        /* \"#utility.yul\":1591:1623   */\n      calldataload\n      swap4\n      pop\n      pop\n      pop\n        /* \"#utility.yul\":1357:1653   */\n      jump\t// out\n        /* \"#utility.yul\":1879:2179   */\n    tag_90:\n        /* \"#utility.yul\":1947:1953   */\n      0x00\n        /* \"#utility.yul\":1955:1961   */\n      0x00\n        /* \"#utility.yul\":2008:2010   */\n      0x40\n        /* \"#utility.yul\":1996:2005   */\n      dup4\n        /* \"#utility.yul\":1987:1994   */\n      dup6\n        /* \"#utility.yul\":1983:2006   */\n      sub\n        /* \"#utility.yul\":1979:2011   */\n      slt\n        /* \"#utility.yul\":1976:2028   */\n      iszero\n      tag_675\n      jumpi\n        /* \"#utility.yul\":2024:2025   */\n      0x00\n        /* \"#utility.yul\":2021:2022   */\n      0x00\n        /* \"#utility.yul\":2014:2026   */\n      revert\n        /* \"#utility.yul\":1976:2028   */\n    tag_675:\n        /* \"#utility.yul\":2047:2076   */\n      tag_672\n        /* \"#utility.yul\":2066:2075   */\n      dup4\n        /* \"#utility.yul\":2047:2076   */\n      tag_653\n      jump\t// in\n        /* \"#utility.yul\":2184:3170   */\n    tag_93:\n        /* \"#utility.yul\":2422:2424   */\n      0x20\n        /* \"#utility.yul\":2434:2455   */\n      dup1\n      dup3\n      mstore\n        /* \"#utility.yul\":2504:2517   */\n      dup3\n      mload\n        /* \"#utility.yul\":2407:2425   */\n      dup3\n      dup3\n      add\n        /* \"#utility.yul\":2526:2548   */\n      dup2\n      swap1\n      mstore\n        /* \"#utility.yul\":2374:2378   */\n      0x00\n      swap2\n        /* \"#utility.yul\":2605:2620   */\n      dup5\n      add\n      swap1\n        /* \"#utility.yul\":2579:2581   */\n      0x40\n        /* \"#utility.yul\":2564:2582   */\n      dup5\n      add\n      swap1\n        /* \"#utility.yul\":2374:2378   */\n      dup4\n        /* \"#utility.yul\":2648:3144   */\n    tag_678:\n        /* \"#utility.yul\":2662:2668   */\n      dup2\n        /* \"#utility.yul\":2659:2660   */\n      dup2\n        /* \"#utility.yul\":2656:2669   */\n      lt\n        /* \"#utility.yul\":2648:3144   */\n      iszero\n      tag_680\n      jumpi\n        /* \"#utility.yul\":2727:2733   */\n      dup4\n        /* \"#utility.yul\":2721:2734   */\n      mload\n        /* \"#utility.yul\":2765:2767   */\n      dup1\n        /* \"#utility.yul\":2759:2768   */\n      mload\n        /* \"#utility.yul\":2754:2757   */\n      dup5\n        /* \"#utility.yul\":2747:2769   */\n      mstore\n        /* \"#utility.yul\":2817:2819   */\n      0x20\n        /* \"#utility.yul\":2813:2815   */\n      dup2\n        /* \"#utility.yul\":2809:2820   */\n      add\n        /* \"#utility.yul\":2803:2821   */\n      mload\n        /* \"#utility.yul\":2798:2800   */\n      0x20\n        /* \"#utility.yul\":2793:2796   */\n      dup6\n        /* \"#utility.yul\":2789:2801   */\n      add\n        /* \"#utility.yul\":2782:2822   */\n      mstore\n        /* \"#utility.yul\":2870:2872   */\n      0x40\n        /* \"#utility.yul\":2866:2868   */\n      dup2\n        /* \"#utility.yul\":2862:2873   */\n      add\n        /* \"#utility.yul\":2856:2874   */\n      mload\n        /* \"#utility.yul\":2851:2853   */\n      0x40\n        /* \"#utility.yul\":2846:2849   */\n      dup6\n        /* \"#utility.yul\":2842:2854   */\n      add\n        /* \"#utility.yul\":2835:2875   */\n      mstore\n        /* \"#utility.yul\":2925:2929   */\n      0x60\n        /* \"#utility.yul\":2921:2923   */\n      dup2\n        /* \"#utility.yul\":2917:2930   */\n      add\n        /* \"#utility.yul\":2911:2931   */\n      mload\n        /* \"#utility.yul\":2904:2908   */\n      0x60\n        /* \"#utility.yul\":2899:2902   */\n      dup6\n        /* \"#utility.yul\":2895:2909   */\n      add\n        /* \"#utility.yul\":2888:2932   */\n      mstore\n        /* \"#utility.yul\":2982:2986   */\n      0x80\n        /* \"#utility.yul\":2978:2980   */\n      dup2\n        /* \"#utility.yul\":2974:2987   */\n      add\n        /* \"#utility.yul\":2968:2988   */\n      mload\n        /* \"#utility.yul\":2961:2965   */\n      0x80\n        /* \"#utility.yul\":2956:2959   */\n      dup6\n        /* \"#utility.yul\":2952:2966   */\n      add\n        /* \"#utility.yul\":2945:2989   */\n      mstore\n        /* \"#utility.yul\":3053:3057   */\n      0xa0\n        /* \"#utility.yul\":3049:3051   */\n      dup2\n        /* \"#utility.yul\":3045:3058   */\n      add\n        /* \"#utility.yul\":3039:3059   */\n      mload\n        /* \"#utility.yul\":3032:3060   */\n      iszero\n        /* \"#utility.yul\":3025:3061   */\n      iszero\n        /* \"#utility.yul\":3018:3022   */\n      0xa0\n        /* \"#utility.yul\":3013:3016   */\n      dup6\n        /* \"#utility.yul\":3009:3023   */\n      add\n        /* \"#utility.yul\":3002:3062   */\n      mstore\n      pop\n        /* \"#utility.yul\":3091:3095   */\n      0xc0\n        /* \"#utility.yul\":3086:3089   */\n      dup4\n        /* \"#utility.yul\":3082:3096   */\n      add\n        /* \"#utility.yul\":3075:3096   */\n      swap3\n      pop\n        /* \"#utility.yul\":3131:3133   */\n      0x20\n        /* \"#utility.yul\":3123:3129   */\n      dup5\n        /* \"#utility.yul\":3119:3134   */\n      add\n        /* \"#utility.yul\":3109:3134   */\n      swap4\n      pop\n        /* \"#utility.yul\":2684:2685   */\n      0x01\n        /* \"#utility.yul\":2681:2682   */\n      dup2\n        /* \"#utility.yul\":2677:2686   */\n      add\n        /* \"#utility.yul\":2672:2686   */\n      swap1\n      pop\n        /* \"#utility.yul\":2648:3144   */\n      jump(tag_678)\n    tag_680:\n      pop\n        /* \"#utility.yul\":3161:3164   */\n      swap1\n      swap6\n        /* \"#utility.yul\":2184:3170   */\n      swap5\n      pop\n      pop\n      pop\n      pop\n      pop\n      jump\t// out\n        /* \"#utility.yul\":4287:4583   */\n    tag_104:\n        /* \"#utility.yul\":4353:4359   */\n      0x00\n        /* \"#utility.yul\":4361:4367   */\n      0x00\n        /* \"#utility.yul\":4414:4416   */\n      0x40\n        /* \"#utility.yul\":4402:4411   */\n      dup4\n        /* \"#utility.yul\":4393:4400   */\n      dup6\n        /* \"#utility.yul\":4389:4412   */\n      sub\n        /* \"#utility.yul\":4385:4417   */\n      slt\n        /* \"#utility.yul\":4382:4434   */\n      iszero\n      tag_683\n      jumpi\n        /* \"#utility.yul\":4430:4431   */\n      0x00\n        /* \"#utility.yul\":4427:4428   */\n      0x00\n        /* \"#utility.yul\":4420:4432   */\n      revert\n        /* \"#utility.yul\":4382:4434   */\n    tag_683:\n        /* \"#utility.yul\":4475:4498   */\n      dup3\n      calldataload\n      swap2\n      pop\n        /* \"#utility.yul\":4541:4577   */\n      tag_684\n        /* \"#utility.yul\":4573:4575   */\n      0x20\n        /* \"#utility.yul\":4558:4576   */\n      dup5\n      add\n        /* \"#utility.yul\":4541:4577   */\n      tag_654\n      jump\t// in\n    tag_684:\n        /* \"#utility.yul\":4531:4577   */\n      swap1\n      pop\n        /* \"#utility.yul\":4287:4583   */\n      swap3\n      pop\n      swap3\n      swap1\n      pop\n      jump\t// out\n        /* \"#utility.yul\":4922:5532   */\n    tag_124:\n        /* \"#utility.yul\":5008:5014   */\n      0x00\n        /* \"#utility.yul\":5016:5022   */\n      0x00\n        /* \"#utility.yul\":5069:5071   */\n      0x20\n        /* \"#utility.yul\":5057:5066   */\n      dup4\n        /* \"#utility.yul\":5048:5055   */\n      dup6\n        /* \"#utility.yul\":5044:5067   */\n      sub\n        /* \"#utility.yul\":5040:5072   */\n      slt\n        /* \"#utility.yul\":5037:5089   */\n      iszero\n      tag_687\n      jumpi\n        /* \"#utility.yul\":5085:5086   */\n      0x00\n        /* \"#utility.yul\":5082:5083   */\n      0x00\n        /* \"#utility.yul\":5075:5087   */\n      revert\n        /* \"#utility.yul\":5037:5089   */\n    tag_687:\n        /* \"#utility.yul\":5125:5134   */\n      dup3\n        /* \"#utility.yul\":5112:5135   */\n      calldataload\n        /* \"#utility.yul\":5158:5176   */\n      0xffffffffffffffff\n        /* \"#utility.yul\":5150:5156   */\n      dup2\n        /* \"#utility.yul\":5147:5177   */\n      gt\n        /* \"#utility.yul\":5144:5194   */\n      iszero\n      tag_688\n      jumpi\n        /* \"#utility.yul\":5190:5191   */\n      0x00\n        /* \"#utility.yul\":5187:5188   */\n      0x00\n        /* \"#utility.yul\":5180:5192   */\n      revert\n        /* \"#utility.yul\":5144:5194   */\n    tag_688:\n        /* \"#utility.yul\":5213:5235   */\n      dup4\n      add\n        /* \"#utility.yul\":5266:5270   */\n      0x1f\n        /* \"#utility.yul\":5258:5271   */\n      dup2\n      add\n        /* \"#utility.yul\":5254:5281   */\n      dup6\n      sgt\n        /* \"#utility.yul\":5244:5299   */\n      tag_689\n      jumpi\n        /* \"#utility.yul\":5295:5296   */\n      0x00\n        /* \"#utility.yul\":5292:5293   */\n      0x00\n        /* \"#utility.yul\":5285:5297   */\n      revert\n        /* \"#utility.yul\":5244:5299   */\n    tag_689:\n        /* \"#utility.yul\":5335:5337   */\n      dup1\n        /* \"#utility.yul\":5322:5338   */\n      calldataload\n        /* \"#utility.yul\":5361:5379   */\n      0xffffffffffffffff\n        /* \"#utility.yul\":5353:5359   */\n      dup2\n        /* \"#utility.yul\":5350:5380   */\n      gt\n        /* \"#utility.yul\":5347:5397   */\n      iszero\n      tag_690\n      jumpi\n        /* \"#utility.yul\":5393:5394   */\n      0x00\n        /* \"#utility.yul\":5390:5391   */\n      0x00\n        /* \"#utility.yul\":5383:5395   */\n      revert\n        /* \"#utility.yul\":5347:5397   */\n    tag_690:\n        /* \"#utility.yul\":5446:5453   */\n      dup6\n        /* \"#utility.yul\":5441:5443   */\n      0x20\n        /* \"#utility.yul\":5431:5437   */\n      dup3\n        /* \"#utility.yul\":5428:5429   */\n      0x05\n        /* \"#utility.yul\":5424:5438   */\n      shl\n        /* \"#utility.yul\":5420:5422   */\n      dup5\n        /* \"#utility.yul\":5416:5439   */\n      add\n        /* \"#utility.yul\":5412:5444   */\n      add\n        /* \"#utility.yul\":5409:5454   */\n      gt\n        /* \"#utility.yul\":5406:5471   */\n      iszero\n      tag_691\n      jumpi\n        /* \"#utility.yul\":5467:5468   */\n      0x00\n        /* \"#utility.yul\":5464:5465   */\n      0x00\n        /* \"#utility.yul\":5457:5469   */\n      revert\n        /* \"#utility.yul\":5406:5471   */\n    tag_691:\n        /* \"#utility.yul\":5498:5500   */\n      0x20\n        /* \"#utility.yul\":5490:5501   */\n      swap2\n      swap1\n      swap2\n      add\n      swap6\n        /* \"#utility.yul\":5520:5526   */\n      swap1\n      swap5\n      pop\n        /* \"#utility.yul\":4922:5532   */\n      swap3\n      pop\n      pop\n      pop\n      jump\t// out\n        /* \"#utility.yul\":5537:5957   */\n    tag_655:\n        /* \"#utility.yul\":5590:5593   */\n      0x00\n        /* \"#utility.yul\":5628:5633   */\n      dup2\n        /* \"#utility.yul\":5622:5634   */\n      mload\n        /* \"#utility.yul\":5655:5661   */\n      dup1\n        /* \"#utility.yul\":5650:5653   */\n      dup5\n        /* \"#utility.yul\":5643:5662   */\n      mstore\n        /* \"#utility.yul\":5687:5691   */\n      0x20\n        /* \"#utility.yul\":5682:5685   */\n      dup5\n        /* \"#utility.yul\":5678:5692   */\n      add\n        /* \"#utility.yul\":5671:5692   */\n      swap4\n      pop\n        /* \"#utility.yul\":5726:5730   */\n      0x20\n        /* \"#utility.yul\":5719:5724   */\n      dup4\n        /* \"#utility.yul\":5715:5731   */\n      add\n        /* \"#utility.yul\":5749:5750   */\n      0x00\n        /* \"#utility.yul\":5759:5932   */\n    tag_693:\n        /* \"#utility.yul\":5773:5779   */\n      dup3\n        /* \"#utility.yul\":5770:5771   */\n      dup2\n        /* \"#utility.yul\":5767:5780   */\n      lt\n        /* \"#utility.yul\":5759:5932   */\n      iszero\n      tag_695\n      jumpi\n        /* \"#utility.yul\":5834:5847   */\n      dup2\n      mload\n        /* \"#utility.yul\":5822:5848   */\n      dup7\n      mstore\n        /* \"#utility.yul\":5877:5881   */\n      0x20\n        /* \"#utility.yul\":5868:5882   */\n      swap6\n      dup7\n      add\n      swap6\n        /* \"#utility.yul\":5905:5922   */\n      swap1\n      swap2\n      add\n      swap1\n        /* \"#utility.yul\":5795:5796   */\n      0x01\n        /* \"#utility.yul\":5788:5797   */\n      add\n        /* \"#utility.yul\":5759:5932   */\n      jump(tag_693)\n    tag_695:\n      pop\n        /* \"#utility.yul\":5948:5951   */\n      swap4\n      swap5\n        /* \"#utility.yul\":5537:5957   */\n      swap4\n      pop\n      pop\n      pop\n      pop\n      jump\t// out\n        /* \"#utility.yul\":5962:7042   */\n    tag_133:\n        /* \"#utility.yul\":6453:6456   */\n      0xa0\n        /* \"#utility.yul\":6442:6451   */\n      dup2\n        /* \"#utility.yul\":6435:6457   */\n      mstore\n        /* \"#utility.yul\":6416:6420   */\n      0x00\n        /* \"#utility.yul\":6480:6537   */\n      tag_697\n        /* \"#utility.yul\":6532:6535   */\n      0xa0\n        /* \"#utility.yul\":6521:6530   */\n      dup4\n        /* \"#utility.yul\":6517:6536   */\n      add\n        /* \"#utility.yul\":6509:6515   */\n      dup9\n        /* \"#utility.yul\":6480:6537   */\n      tag_655\n      jump\t// in\n    tag_697:\n        /* \"#utility.yul\":6585:6594   */\n      dup3\n        /* \"#utility.yul\":6577:6583   */\n      dup2\n        /* \"#utility.yul\":6573:6595   */\n      sub\n        /* \"#utility.yul\":6568:6570   */\n      0x20\n        /* \"#utility.yul\":6557:6566   */\n      dup5\n        /* \"#utility.yul\":6553:6571   */\n      add\n        /* \"#utility.yul\":6546:6596   */\n      mstore\n        /* \"#utility.yul\":6619:6663   */\n      tag_698\n        /* \"#utility.yul\":6656:6662   */\n      dup2\n        /* \"#utility.yul\":6648:6654   */\n      dup9\n        /* \"#utility.yul\":6619:6663   */\n      tag_655\n      jump\t// in\n    tag_698:\n        /* \"#utility.yul\":6605:6663   */\n      swap1\n      pop\n        /* \"#utility.yul\":6711:6720   */\n      dup3\n        /* \"#utility.yul\":6703:6709   */\n      dup2\n        /* \"#utility.yul\":6699:6721   */\n      sub\n        /* \"#utility.yul\":6694:6696   */\n      0x40\n        /* \"#utility.yul\":6683:6692   */\n      dup5\n        /* \"#utility.yul\":6679:6697   */\n      add\n        /* \"#utility.yul\":6672:6722   */\n      mstore\n        /* \"#utility.yul\":6745:6789   */\n      tag_699\n        /* \"#utility.yul\":6782:6788   */\n      dup2\n        /* \"#utility.yul\":6774:6780   */\n      dup8\n        /* \"#utility.yul\":6745:6789   */\n      tag_655\n      jump\t// in\n    tag_699:\n        /* \"#utility.yul\":6731:6789   */\n      swap1\n      pop\n        /* \"#utility.yul\":6837:6846   */\n      dup3\n        /* \"#utility.yul\":6829:6835   */\n      dup2\n        /* \"#utility.yul\":6825:6847   */\n      sub\n        /* \"#utility.yul\":6820:6822   */\n      0x60\n        /* \"#utility.yul\":6809:6818   */\n      dup5\n        /* \"#utility.yul\":6805:6823   */\n      add\n        /* \"#utility.yul\":6798:6848   */\n      mstore\n        /* \"#utility.yul\":6871:6915   */\n      tag_700\n        /* \"#utility.yul\":6908:6914   */\n      dup2\n        /* \"#utility.yul\":6900:6906   */\n      dup7\n        /* \"#utility.yul\":6871:6915   */\n      tag_655\n      jump\t// in\n    tag_700:\n        /* \"#utility.yul\":6857:6915   */\n      swap1\n      pop\n        /* \"#utility.yul\":6964:6973   */\n      dup3\n        /* \"#utility.yul\":6956:6962   */\n      dup2\n        /* \"#utility.yul\":6952:6974   */\n      sub\n        /* \"#utility.yul\":6946:6949   */\n      0x80\n        /* \"#utility.yul\":6935:6944   */\n      dup5\n        /* \"#utility.yul\":6931:6950   */\n      add\n        /* \"#utility.yul\":6924:6975   */\n      mstore\n        /* \"#utility.yul\":6992:7036   */\n      tag_701\n        /* \"#utility.yul\":7029:7035   */\n      dup2\n        /* \"#utility.yul\":7021:7027   */\n      dup6\n        /* \"#utility.yul\":6992:7036   */\n      tag_655\n      jump\t// in\n    tag_701:\n        /* \"#utility.yul\":6984:7036   */\n      swap9\n        /* \"#utility.yul\":5962:7042   */\n      swap8\n      pop\n      pop\n      pop\n      pop\n      pop\n      pop\n      pop\n      pop\n      jump\t// out\n        /* \"#utility.yul\":7047:7852   */\n    tag_138:\n        /* \"#utility.yul\":7291:7293   */\n      0x20\n        /* \"#utility.yul\":7303:7324   */\n      dup1\n      dup3\n      mstore\n        /* \"#utility.yul\":7373:7386   */\n      dup3\n      mload\n        /* \"#utility.yul\":7276:7294   */\n      dup3\n      dup3\n      add\n        /* \"#utility.yul\":7395:7417   */\n      dup2\n      swap1\n      mstore\n        /* \"#utility.yul\":7243:7247   */\n      0x00\n      swap2\n        /* \"#utility.yul\":7474:7489   */\n      dup5\n      add\n      swap1\n        /* \"#utility.yul\":7448:7450   */\n      0x40\n        /* \"#utility.yul\":7433:7451   */\n      dup5\n      add\n      swap1\n        /* \"#utility.yul\":7243:7247   */\n      dup4\n        /* \"#utility.yul\":7517:7826   */\n    tag_703:\n        /* \"#utility.yul\":7531:7537   */\n      dup2\n        /* \"#utility.yul\":7528:7529   */\n      dup2\n        /* \"#utility.yul\":7525:7538   */\n      lt\n        /* \"#utility.yul\":7517:7826   */\n      iszero\n      tag_680\n      jumpi\n        /* \"#utility.yul\":7596:7602   */\n      dup4\n        /* \"#utility.yul\":7590:7603   */\n      mload\n        /* \"#utility.yul\":7634:7636   */\n      dup1\n        /* \"#utility.yul\":7628:7637   */\n      mload\n        /* \"#utility.yul\":7623:7626   */\n      dup5\n        /* \"#utility.yul\":7616:7638   */\n      mstore\n        /* \"#utility.yul\":7686:7688   */\n      0x20\n        /* \"#utility.yul\":7682:7684   */\n      dup2\n        /* \"#utility.yul\":7678:7689   */\n      add\n        /* \"#utility.yul\":7672:7690   */\n      mload\n        /* \"#utility.yul\":7667:7669   */\n      0x20\n        /* \"#utility.yul\":7662:7665   */\n      dup6\n        /* \"#utility.yul\":7658:7670   */\n      add\n        /* \"#utility.yul\":7651:7691   */\n      mstore\n        /* \"#utility.yul\":7739:7741   */\n      0x40\n        /* \"#utility.yul\":7735:7737   */\n      dup2\n        /* \"#utility.yul\":7731:7742   */\n      add\n        /* \"#utility.yul\":7725:7743   */\n      mload\n        /* \"#utility.yul\":7720:7722   */\n      0x40\n        /* \"#utility.yul\":7715:7718   */\n      dup6\n        /* \"#utility.yul\":7711:7723   */\n      add\n        /* \"#utility.yul\":7704:7744   */\n      mstore\n      pop\n        /* \"#utility.yul\":7773:7777   */\n      0x60\n        /* \"#utility.yul\":7768:7771   */\n      dup4\n        /* \"#utility.yul\":7764:7778   */\n      add\n        /* \"#utility.yul\":7757:7778   */\n      swap3\n      pop\n        /* \"#utility.yul\":7813:7815   */\n      0x20\n        /* \"#utility.yul\":7805:7811   */\n      dup5\n        /* \"#utility.yul\":7801:7816   */\n      add\n        /* \"#utility.yul\":7791:7816   */\n      swap4\n      pop\n        /* \"#utility.yul\":7553:7554   */\n      0x01\n        /* \"#utility.yul\":7550:7551   */\n      dup2\n        /* \"#utility.yul\":7546:7555   */\n      add\n        /* \"#utility.yul\":7541:7555   */\n      swap1\n      pop\n        /* \"#utility.yul\":7517:7826   */\n      jump(tag_703)\n        /* \"#utility.yul\":8204:8541   */\n    tag_146:\n        /* \"#utility.yul\":8406:8408   */\n      0x20\n        /* \"#utility.yul\":8388:8409   */\n      dup1\n      dup3\n      mstore\n        /* \"#utility.yul\":8445:8447   */\n      0x0d\n        /* \"#utility.yul\":8425:8443   */\n      swap1\n      dup3\n      add\n        /* \"#utility.yul\":8418:8448   */\n      mstore\n      shl(0x9a, 0x139bc81a5b9d995cdd1b595b9d)\n        /* \"#utility.yul\":8479:8481   */\n      0x40\n        /* \"#utility.yul\":8464:8482   */\n      dup3\n      add\n        /* \"#utility.yul\":8457:8500   */\n      mstore\n        /* \"#utility.yul\":8532:8534   */\n      0x60\n        /* \"#utility.yul\":8517:8535   */\n      add\n      swap1\n        /* \"#utility.yul\":8204:8541   */\n      jump\t// out\n        /* \"#utility.yul\":8546:8673   */\n    tag_152:\n        /* \"#utility.yul\":8607:8617   */\n      0x4e487b71\n        /* \"#utility.yul\":8602:8605   */\n      0xe0\n        /* \"#utility.yul\":8598:8618   */\n      shl\n        /* \"#utility.yul\":8595:8596   */\n      0x00\n        /* \"#utility.yul\":8588:8619   */\n      mstore\n        /* \"#utility.yul\":8638:8642   */\n      0x32\n        /* \"#utility.yul\":8635:8636   */\n      0x04\n        /* \"#utility.yul\":8628:8643   */\n      mstore\n        /* \"#utility.yul\":8662:8666   */\n      0x24\n        /* \"#utility.yul\":8659:8660   */\n      0x00\n        /* \"#utility.yul\":8652:8667   */\n      revert\n        /* \"#utility.yul\":8678:8805   */\n    tag_656:\n        /* \"#utility.yul\":8739:8749   */\n      0x4e487b71\n        /* \"#utility.yul\":8734:8737   */\n      0xe0\n        /* \"#utility.yul\":8730:8750   */\n      shl\n        /* \"#utility.yul\":8727:8728   */\n      0x00\n        /* \"#utility.yul\":8720:8751   */\n      mstore\n        /* \"#utility.yul\":8770:8774   */\n      0x11\n        /* \"#utility.yul\":8767:8768   */\n      0x04\n        /* \"#utility.yul\":8760:8775   */\n      mstore\n        /* \"#utility.yul\":8794:8798   */\n      0x24\n        /* \"#utility.yul\":8791:8792   */\n      0x00\n        /* \"#utility.yul\":8784:8799   */\n      revert\n        /* \"#utility.yul\":8810:8938   */\n    tag_156:\n        /* \"#utility.yul\":8877:8886   */\n      dup2\n      dup2\n      sub\n        /* \"#utility.yul\":8898:8909   */\n      dup2\n      dup2\n      gt\n        /* \"#utility.yul\":8895:8932   */\n      iszero\n      tag_337\n      jumpi\n        /* \"#utility.yul\":8912:8930   */\n      tag_337\n      tag_656\n      jump\t// in\n        /* \"#utility.yul\":8943:9160   */\n    tag_158:\n        /* \"#utility.yul\":8983:8984   */\n      0x00\n        /* \"#utility.yul\":9009:9010   */\n      dup3\n        /* \"#utility.yul\":8999:9131   */\n      tag_714\n      jumpi\n        /* \"#utility.yul\":9053:9063   */\n      0x4e487b71\n        /* \"#utility.yul\":9048:9051   */\n      0xe0\n        /* \"#utility.yul\":9044:9064   */\n      shl\n        /* \"#utility.yul\":9041:9042   */\n      0x00\n        /* \"#utility.yul\":9034:9065   */\n      mstore\n        /* \"#utility.yul\":9088:9092   */\n      0x12\n        /* \"#utility.yul\":9085:9086   */\n      0x04\n        /* \"#utility.yul\":9078:9093   */\n      mstore\n        /* \"#utility.yul\":9116:9120   */\n      0x24\n        /* \"#utility.yul\":9113:9114   */\n      0x00\n        /* \"#utility.yul\":9106:9121   */\n      revert\n        /* \"#utility.yul\":8999:9131   */\n    tag_714:\n      pop\n        /* \"#utility.yul\":9145:9154   */\n      div\n      swap1\n        /* \"#utility.yul\":8943:9160   */\n      jump\t// out\n        /* \"#utility.yul\":9165:9333   */\n    tag_160:\n        /* \"#utility.yul\":9238:9247   */\n      dup1\n      dup3\n      mul\n        /* \"#utility.yul\":9269:9278   */\n      dup2\n      iszero\n        /* \"#utility.yul\":9286:9301   */\n      dup3\n      dup3\n      div\n        /* \"#utility.yul\":9280:9302   */\n      dup5\n      eq\n        /* \"#utility.yul\":9266:9303   */\n      or\n        /* \"#utility.yul\":9256:9327   */\n      tag_337\n      jumpi\n        /* \"#utility.yul\":9307:9325   */\n      tag_337\n      tag_656\n      jump\t// in\n        /* \"#utility.yul\":9338:9463   */\n    tag_166:\n        /* \"#utility.yul\":9403:9412   */\n      dup1\n      dup3\n      add\n        /* \"#utility.yul\":9424:9434   */\n      dup1\n      dup3\n      gt\n        /* \"#utility.yul\":9421:9457   */\n      iszero\n      tag_337\n      jumpi\n        /* \"#utility.yul\":9437:9455   */\n      tag_337\n      tag_656\n      jump\t// in\n        /* \"#utility.yul\":9747:10024   */\n    tag_173:\n        /* \"#utility.yul\":9814:9820   */\n      0x00\n        /* \"#utility.yul\":9867:9869   */\n      0x20\n        /* \"#utility.yul\":9855:9864   */\n      dup3\n        /* \"#utility.yul\":9846:9853   */\n      dup5\n        /* \"#utility.yul\":9842:9865   */\n      sub\n        /* \"#utility.yul\":9838:9870   */\n      slt\n        /* \"#utility.yul\":9835:9887   */\n      iszero\n      tag_723\n      jumpi\n        /* \"#utility.yul\":9883:9884   */\n      0x00\n        /* \"#utility.yul\":9880:9881   */\n      0x00\n        /* \"#utility.yul\":9873:9885   */\n      revert\n        /* \"#utility.yul\":9835:9887   */\n    tag_723:\n        /* \"#utility.yul\":9915:9924   */\n      dup2\n        /* \"#utility.yul\":9909:9925   */\n      mload\n        /* \"#utility.yul\":9968:9973   */\n      dup1\n        /* \"#utility.yul\":9961:9974   */\n      iszero\n        /* \"#utility.yul\":9954:9975   */\n      iszero\n        /* \"#utility.yul\":9947:9952   */\n      dup2\n        /* \"#utility.yul\":9944:9976   */\n      eq\n        /* \"#utility.yul\":9934:9994   */\n      tag_664\n      jumpi\n        /* \"#utility.yul\":9990:9991   */\n      0x00\n        /* \"#utility.yul\":9987:9988   */\n      0x00\n        /* \"#utility.yul\":9980:9992   */\n      revert\n        /* \"#utility.yul\":10029:10368   */\n    tag_176:\n        /* \"#utility.yul\":10231:10233   */\n      0x20\n        /* \"#utility.yul\":10213:10234   */\n      dup1\n      dup3\n      mstore\n        /* \"#utility.yul\":10270:10272   */\n      0x0f\n        /* \"#utility.yul\":10250:10268   */\n      swap1\n      dup3\n      add\n        /* \"#utility.yul\":10243:10273   */\n      mstore\n      shl(0x8a, 0x151c985b9cd9995c8819985a5b1959)\n        /* \"#utility.yul\":10304:10306   */\n      0x40\n        /* \"#utility.yul\":10289:10307   */\n      dup3\n      add\n        /* \"#utility.yul\":10282:10327   */\n      mstore\n        /* \"#utility.yul\":10359:10361   */\n      0x60\n        /* \"#utility.yul\":10344:10362   */\n      add\n      swap1\n        /* \"#utility.yul\":10029:10368   */\n      jump\t// out\n        /* \"#utility.yul\":12046:12380   */\n    tag_217:\n        /* \"#utility.yul\":12248:12250   */\n      0x20\n        /* \"#utility.yul\":12230:12251   */\n      dup1\n      dup3\n      mstore\n        /* \"#utility.yul\":12287:12289   */\n      0x0a\n        /* \"#utility.yul\":12267:12285   */\n      swap1\n      dup3\n      add\n        /* \"#utility.yul\":12260:12290   */\n      mstore\n      shl(0xb1, 0x27b7363c9037bbb732b9)\n        /* \"#utility.yul\":12321:12323   */\n      0x40\n        /* \"#utility.yul\":12306:12324   */\n      dup3\n      add\n        /* \"#utility.yul\":12299:12339   */\n      mstore\n        /* \"#utility.yul\":12371:12373   */\n      0x60\n        /* \"#utility.yul\":12356:12374   */\n      add\n      swap1\n        /* \"#utility.yul\":12046:12380   */\n      jump\t// out\n        /* \"#utility.yul\":12385:12569   */\n    tag_223:\n        /* \"#utility.yul\":12455:12461   */\n      0x00\n        /* \"#utility.yul\":12508:12510   */\n      0x20\n        /* \"#utility.yul\":12496:12505   */\n      dup3\n        /* \"#utility.yul\":12487:12494   */\n      dup5\n        /* \"#utility.yul\":12483:12506   */\n      sub\n        /* \"#utility.yul\":12479:12511   */\n      slt\n        /* \"#utility.yul\":12476:12528   */\n      iszero\n      tag_733\n      jumpi\n        /* \"#utility.yul\":12524:12525   */\n      0x00\n        /* \"#utility.yul\":12521:12522   */\n      0x00\n        /* \"#utility.yul\":12514:12526   */\n      revert\n        /* \"#utility.yul\":12476:12528   */\n    tag_733:\n      pop\n        /* \"#utility.yul\":12547:12563   */\n      mload\n      swap2\n        /* \"#utility.yul\":12385:12569   */\n      swap1\n      pop\n      jump\t// out\n        /* \"#utility.yul\":15075:15250   */\n    tag_333:\n        /* \"#utility.yul\":15112:15115   */\n      0x00\n        /* \"#utility.yul\":15156:15160   */\n      0xff\n        /* \"#utility.yul\":15149:15154   */\n      dup3\n        /* \"#utility.yul\":15145:15161   */\n      and\n        /* \"#utility.yul\":15185:15189   */\n      0xff\n        /* \"#utility.yul\":15176:15183   */\n      dup2\n        /* \"#utility.yul\":15173:15190   */\n      sub\n        /* \"#utility.yul\":15170:15213   */\n      tag_743\n      jumpi\n        /* \"#utility.yul\":15193:15211   */\n      tag_743\n      tag_656\n      jump\t// in\n    tag_743:\n        /* \"#utility.yul\":15242:15243   */\n      0x01\n        /* \"#utility.yul\":15229:15244   */\n      add\n      swap3\n        /* \"#utility.yul\":15075:15250   */\n      swap2\n      pop\n      pop\n      jump\t// out\n        /* \"#utility.yul\":15607:15955   */\n    tag_353:\n        /* \"#utility.yul\":15809:15811   */\n      0x20\n        /* \"#utility.yul\":15791:15812   */\n      dup1\n      dup3\n      mstore\n        /* \"#utility.yul\":15848:15850   */\n      0x18\n        /* \"#utility.yul\":15828:15846   */\n      swap1\n      dup3\n      add\n        /* \"#utility.yul\":15821:15851   */\n      mstore\n        /* \"#utility.yul\":15887:15913   */\n      0x496e76616c696420696e766573746d656e742072616e67650000000000000000\n        /* \"#utility.yul\":15882:15884   */\n      0x40\n        /* \"#utility.yul\":15867:15885   */\n      dup3\n      add\n        /* \"#utility.yul\":15860:15914   */\n      mstore\n        /* \"#utility.yul\":15946:15948   */\n      0x60\n        /* \"#utility.yul\":15931:15949   */\n      add\n      swap1\n        /* \"#utility.yul\":15607:15955   */\n      jump\t// out\n        /* \"#utility.yul\":18789:18924   */\n    tag_538:\n        /* \"#utility.yul\":18828:18831   */\n      0x00\n        /* \"#utility.yul\":18849:18866   */\n      0x01\n      dup3\n      add\n        /* \"#utility.yul\":18846:18889   */\n      tag_756\n      jumpi\n        /* \"#utility.yul\":18869:18887   */\n      tag_756\n      tag_656\n      jump\t// in\n    tag_756:\n      pop\n        /* \"#utility.yul\":18916:18917   */\n      0x01\n        /* \"#utility.yul\":18905:18918   */\n      add\n      swap1\n        /* \"#utility.yul\":18789:18924   */\n      jump\t// out\n        /* \"#utility.yul\":18929:19056   */\n    tag_543:\n        /* \"#utility.yul\":18990:19000   */\n      0x4e487b71\n        /* \"#utility.yul\":18985:18988   */\n      0xe0\n        /* \"#utility.yul\":18981:19001   */\n      shl\n        /* \"#utility.yul\":18978:18979   */\n      0x00\n        /* \"#utility.yul\":18971:19002   */\n      mstore\n        /* \"#utility.yul\":19021:19025   */\n      0x41\n        /* \"#utility.yul\":19018:19019   */\n      0x04\n        /* \"#utility.yul\":19011:19026   */\n      mstore\n        /* \"#utility.yul\":19045:19049   */\n      0x24\n        /* \"#utility.yul\":19042:19043   */\n      0x00\n        /* \"#utility.yul\":19035:19050   */\n      revert\n\n    auxdata: 0xa264697066735822122000160a277fcd69cb4061be41952f76366d371a43d35602d79b59bd5e77af734b64736f6c634300081e0033\n}\n",
				"bytecode": {
					"linkReferences": {},
					"object": "6080604052348015600e575f5ffd5b506131308061001c5f395ff3fe608060405234801561000f575f5ffd5b50600436106101a1575f3560e01c806376636e5a116100f3578063a9510e8211610093578063bed24c241161006e578063bed24c24146104d7578063c4d66de8146104ea578063e8db280c146104fd578063fd6ef0de14610521575f5ffd5b8063a9510e82146104a9578063a98ad46c146104b1578063bbf7f772146104c4575f5ffd5b80638da5cb5b116100ce5780638da5cb5b1461040e57806398232a38146104265780639a29647d14610439578063a275999c1461044c575f5ffd5b806376636e5a146102e5578063838a1b6d146102f8578063842a77d314610318575f5ffd5b80633f0d55fe1161015e578063509222cd11610139578063509222cd1461028d57806359450a58146102b7578063664e9704146102ca5780636d704b94146102d2575f5ffd5b80633f0d55fe14610254578063416b09dc1461026757806344dd5e7a1461027a575f5ffd5b806321c82e68146101a557806321f8c27d146101ba5780632a2d0c47146101e2578063348d4487146102225780633610724e14610239578063362e496b1461024c575b5f5ffd5b6101b86101b3366004612c95565b610541565b005b6101cd6101c8366004612cc7565b6107a2565b60405190151581526020015b60405180910390f35b61020a6101f0366004612c95565b60076020525f90815260409020546001600160a01b031681565b6040516001600160a01b0390911681526020016101d9565b61022b60035481565b6040519081526020016101d9565b6101b8610247366004612c95565b6107f8565b6101b8610b3f565b6101b8610262366004612cf7565b610cdb565b6101b8610275366004612cc7565b610fd6565b6101b8610288366004612c95565b6110b6565b6101cd61029b366004612cc7565b6001600160a01b03165f90815260066020526040902054151590565b61022b6102c5366004612cc7565b61121f565b61022b600281565b6101b86102e0366004612cc7565b61136e565b60025461020a906001600160a01b031681565b61030b610306366004612d1f565b611378565b6040516101d99190612d39565b61039e610326366004612cc7565b600660208190525f918252604090912080546001820154600283015460038401546004850154600586015496860154600787015460088801546009890154600a8a0154600b8b0154600c909b0154999b6001600160a01b03998a169b99909816999698959796949593949293919260ff90911691908d565b604080519d8e526001600160a01b039c8d1660208f01529a909b16998c019990995260608b019790975260808a019590955260a089019390935260c088019190915260e087015261010086015261012085015215156101408401526101608301526101808201526101a0016101d9565b5f5461020a906201000090046001600160a01b031681565b6101b8610434366004612db7565b611433565b6101b8610447366004612cc7565b611a06565b61048c61045a366004612cc7565b6001600160a01b03165f908152600660208190526040909120600581015491810154600a909101549192909160ff1690565b6040805193845260208401929092521515908201526060016101d9565b6101b8611a10565b60015461020a906001600160a01b031681565b6101b86104d2366004612cc7565b611cc9565b6101b86104e5366004612de1565b611f0d565b6101b86104f8366004612cc7565b6120ee565b61051061050b366004612d1f565b612255565b6040516101d9959493929190612e8c565b61053461052f366004612cc7565b612584565b6040516101d99190612ef8565b80600414806105505750806005145b6105965760405162461bcd60e51b815260206004820152601260248201527124b73b30b634b21021b630b4b690283630b760711b60448201526064015b60405180910390fd5b335f90815260066020526040902060058101546105c55760405162461bcd60e51b815260040161058d90612f4b565b5f828152600d820160205260408120815b81548110156106ba575f8282815481106105f2576105f2612f72565b5f9182526020909120600690910201600581015490915060ff1661061657506106b2565b5f6201518082600201544261062b9190612f9a565b6106359190612fad565b90505f6127108360030154845f015461064e9190612fcc565b6106589190612fad565b90505f6106658383612fcc565b905083600401548111156106ad575f8460040154826106849190612f9a565b905080856004015f8282546106999190612fe3565b909155506106a990508189612fe3565b9750505b505050505b6001016105d6565b5060015460405163a9059cbb60e01b8152336004820152602481018490526001600160a01b039091169063a9059cbb906044016020604051808303815f875af1158015610709573d5f5f3e3d5ffd5b505050506040513d601f19601f8201168201806040525081019061072d9190612ff6565b6107495760405162461bcd60e51b815260040161058d90613015565b81836007015f82825461075c9190612fe3565b909155505042600984015560405182815233907f574c59dfd25e29ed9605f5accedb5aab0b989606855c61bf6fdcd0875ec8d4b59060200160405180910390a250505050565b6001600160a01b038181165f90815260066020526040812060010154909116156107ce57506001919050565b5f546001600160a01b03620100009091048116908316036107f157506001919050565b505f919050565b335f908152600660205260409020546108495760405162461bcd60e51b8152602060048201526013602482015272155cd95c881b9bdd081c9959da5cdd195c9959606a1b604482015260640161058d565b5f811161088d5760405162461bcd60e51b81526020600482015260126024820152710416d6f756e74206d757374206265203e20360741b604482015260640161058d565b6001546040516323b872dd60e01b8152336004820152306024820152604481018390526001600160a01b03909116906323b872dd906064016020604051808303815f875af11580156108e1573d5f5f3e3d5ffd5b505050506040513d601f19601f820116820180604052508101906109059190612ff6565b6109485760405162461bcd60e51b81526020600482015260146024820152731554d115081d1c985b9cd9995c8819985a5b195960621b604482015260640161058d565b5f610954600283612fcc565b335f9081526006602052604081206004018054929350849290919061097a908490612fe3565b9091555050335f90815260066020819052604082200180548392906109a0908490612fe3565b90915550606490506109b3826005612fcc565b6109bd9190612fad565b335f908152600660208190526040808320600201546001600160a01b0316835282200180549091906109f0908490612fe3565b9091555060649050610a03826005612fcc565b610a0d9190612fad565b335f90815260066020526040808220600201546001600160a01b031682528120600b018054909190610a40908490612fe3565b9091555050335f818152600660205260409020600201546001600160a01b0316907f0b63ad4314f7f378e8544a3d2cf22e089f2059ebc701f71ea8f0f60869c4c4ed6064610a8f856005612fcc565b610a999190612fad565b60405190815260200160405180910390a3335f818152600660209081526040808320815160608101835287815280840187815242828501908152600e909301805460018082018355918852968690209251600390970290920195865551908501555160029093019290925581518581529081018490527f8fafebcaf9d154343dad25669bfa277f4fbacd7ac6b0c4fed522580e040a0f3391015b60405180910390a25050565b5f546201000090046001600160a01b03163314610b6e5760405162461bcd60e51b815260040161058d9061303e565b6001546040516370a0823160e01b81523060048201525f916001600160a01b0316906370a0823190602401602060405180830381865afa158015610bb4573d5f5f3e3d5ffd5b505050506040513d601f19601f82011682018060405250810190610bd89190613062565b90505f8111610c1f5760405162461bcd60e51b81526020600482015260136024820152724e6f7468696e6720746f20776974686472617760681b604482015260640161058d565b6001545f5460405163a9059cbb60e01b81526001600160a01b0362010000909204821660048201526024810184905291169063a9059cbb906044016020604051808303815f875af1158015610c76573d5f5f3e3d5ffd5b505050506040513d601f19601f82011682018060405250810190610c9a9190612ff6565b610cd85760405162461bcd60e51b815260206004820152600f60248201526e15da5d1a191c985dc819985a5b1959608a1b604482015260640161058d565b50565b8160ff1660031480610cf057508160ff166004145b80610cfe57508160ff166005145b610d555760405162461bcd60e51b815260206004820152602260248201527f596f752063616e6e6f74207769746864726177206361706974616c20616d6f756044820152611b9d60f21b606482015260840161058d565b335f90815260066020908152604080832060ff86168452600d81019092528220805491929184908110610d8a57610d8a612f72565b905f5260205f20906006020190508360ff16600403610e05576002810154610db6906301e13380612fe3565b421015610e055760405162461bcd60e51b815260206004820181905260248201527f506c616e20343a204c6f636b20706572696f64206973203132206d6f6e746873604482015260640161058d565b8360ff16600503610e72576002810154610e23906303c26700612fe3565b421015610e725760405162461bcd60e51b815260206004820181905260248201527f506c616e20353a204c6f636b20706572696f64206973203234206d6f6e746873604482015260640161058d565b60058101805460ff1916905560028101545f906201518090610e949042612f9a565b610e9e9190612fad565b600383015483549192505f91829161271091610eba9190612fcc565b610ec49190612fad565b90505f610ed18483612fcc565b90505f85600401548211610ee5575f610ef4565b6004860154610ef49083612f9a565b90508015610f3b57610f068185612fe3565b935080866004015f828254610f1b9190612fe3565b9250508190555080876007015f828254610f359190612fe3565b90915550505b60015486546001600160a01b039091169063a9059cbb903390610f5e9088612fe3565b6040516001600160e01b031960e085901b1681526001600160a01b03909216600483015260248201526044016020604051808303815f875af1158015610fa6573d5f5f3e3d5ffd5b505050506040513d601f19601f82011682018060405250810190610fca9190612ff6565b50505050505050505050565b5f546201000090046001600160a01b031633146110055760405162461bcd60e51b815260040161058d9061303e565b6002546001600160a01b03161561104c5760405162461bcd60e51b815260206004820152600b60248201526a105b1c9958591e481cd95d60aa1b604482015260640161058d565b6001600160a01b0381166110945760405162461bcd60e51b815260206004820152600f60248201526e496e76616c6964206164647265737360881b604482015260640161058d565b600280546001600160a01b0319166001600160a01b0392909216919091179055565b806003146110fb5760405162461bcd60e51b815260206004820152601260248201527124b73b30b634b21021b630b4b690283630b760711b604482015260640161058d565b335f908152600660205260409020600581015461112a5760405162461bcd60e51b815260040161058d90612f4b565b5f828152600d820160205260408120815b81548110156106ba575f82828154811061115757611157612f72565b5f9182526020909120600690910201600581015490915060ff1661117b5750611217565b5f620151808260020154426111909190612f9a565b61119a9190612fad565b90505f6127108360030154845f01546111b39190612fcc565b6111bd9190612fad565b90505f6111ca8383612fcc565b90508360040154811115611212575f8460040154826111e99190612f9a565b905080856004015f8282546111fe9190612fe3565b9091555061120e90508189612fe3565b9750505b505050505b60010161113b565b6001600160a01b0381165f9081526006602052604081206005810154820361124957505f92915050565b5f60015b60058160ff1611611366575f5b60ff82165f908152600d850160205260409020548110156113535760ff82165f908152600d85016020526040812080548390811061129a5761129a612f72565b5f9182526020909120600690910201600581015490915060ff166112be575061134b565b5f620151808260020154426112d39190612f9a565b6112dd9190612fad565b90505f6127108360030154845f01546112f69190612fcc565b6113009190612fad565b90505f61130d8383612fcc565b90505f84600401548211611321575f611330565b60048501546113309083612f9a565b90508015611345576113428189612fe3565b97505b50505050505b60010161125a565b508061135e81613079565b91505061124d565b509392505050565b610cd83382612616565b6001600160a01b0382165f908152600660209081526040808320848452600d018252808320805482518185028101850190935280835260609492939192909184015b82821015611426575f8481526020908190206040805160c08101825260068602909201805483526001808201548486015260028201549284019290925260038101546060840152600481015460808401526005015460ff16151560a083015290835290920191016113ba565b5050505090505b92915050565b61143c336107a2565b61147e5760405162461bcd60e51b8152602060048201526013602482015272155cd95c881b9bdd081c9959da5cdd195c9959606a1b604482015260640161058d565b5f8160ff16118015611493575060068160ff16105b6114df5760405162461bcd60e51b815260206004820152601760248201527f496e76616c696420496e766573746d656e7420506c616e000000000000000000604482015260640161058d565b5f8160ff166001036116b5576004546114f9906032612fcc565b8310156115185760405162461bcd60e51b815260040161058d90613097565b600454611527906101f4612fcc565b83118015611542575060045461153f90610258612fcc565b83105b1561155f5760405162461bcd60e51b815260040161058d90613097565b60045461156e90610bb8612fcc565b83118015611589575060045461158690610dac612fcc565b83105b156115a65760405162461bcd60e51b815260040161058d90613097565b6004546115b5906126ac612fcc565b831180156115d057506004546115cd90612710612fcc565b83105b156115ed5760405162461bcd60e51b815260040161058d90613097565b6004546115fb906032612fcc565b83101580156116185750600454611614906101f4612fcc565b8311155b156116255750603c611812565b60045461163490610258612fcc565b8310158015611651575060045461164d90610bb8612fcc565b8311155b1561165e57506046611812565b60045461166d90610dac612fcc565b831015801561168a5750600454611686906126ac612fcc565b8311155b156116975750605a611812565b6004546116a690612710612fcc565b83106116b0575060645b611812565b8160ff16600203611755576004546116ce906064612fcc565b8310156116ed5760405162461bcd60e51b815260040161058d90613097565b6004546116fd90620186a0612fcc565b83111561171c5760405162461bcd60e51b815260040161058d90613097565b60045461172a906064612fcc565b8310158015611748575060045461174490620186a0612fcc565b8311155b156116b057506032611812565b8160ff166003036117a95760045461176e906001612fcc565b83101561178d5760405162461bcd60e51b815260040161058d90613097565b60045461179b906001612fcc565b83106116b05750601e611812565b8160ff166004036117c25760045461176e906001612fcc565b8160ff16600503611812576004546117db906001612fcc565b8310156117fa5760405162461bcd60e51b815260040161058d90613097565b600454611808906001612fcc565b8310611812575060235b6001546040516323b872dd60e01b8152336004820152306024820152604481018590526001600160a01b03909116906323b872dd906064016020604051808303815f875af1158015611866573d5f5f3e3d5ffd5b505050506040513d601f19601f8201168201806040525081019061188a9190612ff6565b6118cd5760405162461bcd60e51b81526020600482015260146024820152731554d115081d1c985b9cd9995c8819985a5b195960621b604482015260640161058d565b335f908152600660205260408120600581018054919286926118f0908490612fe3565b909155506119019050846002612fcc565b816008015f8282546119139190612fe3565b9091555050426009820181905560ff84165f818152600d840160209081526040808320815160c0810183528a8152808401868152818401978852606082018a815260808301878152600160a0850181815286548083018855968a529888902094516006909602909401948555915192840192909255965160028301555160038201559451600486015591516005909401805460ff19169415159490941790935580518781529283019190915233917fe419b79865e277810686c2278e574727f1bb7a3464fa554f499199109e5e2e3a910160405180910390a26119f68433612784565b611a008433612822565b50505050565b610cd83382612981565b335f9081526006602052604090206005810154611a3f5760405162461bcd60e51b815260040161058d90612f4b565b5f60015b60058160ff1611611b615760ff81165f908152600d840160205260408120905b8154811015611b4c575f828281548110611a7f57611a7f612f72565b5f9182526020909120600690910201600581015490915060ff16611aa35750611b44565b5f62015180826002015442611ab89190612f9a565b611ac29190612fad565b90505f6127108360030154845f0154611adb9190612fcc565b611ae59190612fad565b90505f611af28383612fcc565b90508360040154811115611b3f575f846004015482611b119190612f9a565b905080856004015f828254611b269190612fe3565b9091555050426002860155611b3b818a612fe3565b9850505b505050505b600101611a63565b50508080611b5990613079565b915050611a43565b50600454611b70906064612fcc565b811015611bca5760405162461bcd60e51b815260206004820152602260248201527f4d696e696d756d20313030205553445420726571756972656420746f20636c61604482015261696d60f01b606482015260840161058d565b5f6064611bd8836060612fcc565b611be29190612fad565b60015460405163a9059cbb60e01b8152336004820152602481018390529192506001600160a01b03169063a9059cbb906044016020604051808303815f875af1158015611c31573d5f5f3e3d5ffd5b505050506040513d601f19601f82011682018060405250810190611c559190612ff6565b611c715760405162461bcd60e51b815260040161058d90613015565b81836007015f828254611c849190612fe3565b909155505042600984015560405182815233907f574c59dfd25e29ed9605f5accedb5aab0b989606855c61bf6fdcd0875ec8d4b59060200160405180910390a2505050565b5f546201000090046001600160a01b03163314611cf85760405162461bcd60e51b815260040161058d9061303e565b6001600160a01b0381165f908152600660205260409020600a81015460ff1615611d5a5760405162461bcd60e51b8152602060048201526013602482015272105b1c9958591e48191a5cdd1c9a589d5d1959606a1b604482015260640161058d565b5f816006015411611dad5760405162461bcd60e51b815260206004820152601760248201527f4e6f20746f6b656e7320746f2064697374726962757465000000000000000000604482015260640161058d565b6002546001600160a01b0316611dfa5760405162461bcd60e51b81526020600482015260126024820152711499585b081d1bdad95b881b9bdd081cd95d60721b604482015260640161058d565b600a8101805460ff19166001179055600254600682015460405163a9059cbb60e01b81526001600160a01b038581166004830152602482019290925291169063a9059cbb906044016020604051808303815f875af1158015611e5e573d5f5f3e3d5ffd5b505050506040513d601f19601f82011682018060405250810190611e829190612ff6565b611ece5760405162461bcd60e51b815260206004820152601a60248201527f5265616c20746f6b656e207472616e73666572206661696c6564000000000000604482015260640161058d565b816001600160a01b03167f13603c1beb46b471cbd10cb5b15a9f58e3929b8ec141b7c33746e26daf3a839f8260060154604051610b3391815260200190565b5f546201000090046001600160a01b03163314611f3c5760405162461bcd60e51b815260040161058d9061303e565b6002546001600160a01b0316611f895760405162461bcd60e51b81526020600482015260126024820152711499585b081d1bdad95b881b9bdd081cd95d60721b604482015260640161058d565b5f5b818110156120e9575f838383818110611fa657611fa6612f72565b9050602002016020810190611fbb9190612cc7565b6001600160a01b0381165f908152600660205260409020600a8101549192509060ff16158015611fee57505f8160060154115b156120df57600a8101805460ff19166001179055600254600682015460405163a9059cbb60e01b81526001600160a01b038581166004830152602482019290925291169063a9059cbb906044016020604051808303815f875af1158015612057573d5f5f3e3d5ffd5b505050506040513d601f19601f8201168201806040525081019061207b9190612ff6565b6120975760405162461bcd60e51b815260040161058d90613015565b816001600160a01b03167f13603c1beb46b471cbd10cb5b15a9f58e3929b8ec141b7c33746e26daf3a839f82600601546040516120d691815260200190565b60405180910390a25b5050600101611f8b565b505050565b5f54610100900460ff168061210557505f5460ff16155b6121685760405162461bcd60e51b815260206004820152602e60248201527f496e697469616c697a61626c653a20636f6e747261637420697320616c72656160448201526d191e481a5b9a5d1a585b1a5e995960921b606482015260840161058d565b5f54610100900460ff16158015612188575f805461ffff19166101011790555b6001600160a01b0382166121d55760405162461bcd60e51b8152602060048201526014602482015273496e76616c69642055534454206164647265737360601b604482015260640161058d565b5f805462010000600160b01b03191633620100008102919091178255600180546001600160a01b0319166001600160a01b03861617815560038181559183526006602052604083208190559161222a836130ce565b9091555050670de0b6b3a764000060045560646005558015612251575f805461ff00191690555b5050565b6001600160a01b0382165f908152600660209081526040808320848452600d8101909252909120546060918291829182918291908067ffffffffffffffff8111156122a2576122a26130e6565b6040519080825280602002602001820160405280156122cb578160200160208202803683370190505b5096508067ffffffffffffffff8111156122e7576122e76130e6565b604051908082528060200260200182016040528015612310578160200160208202803683370190505b5095508067ffffffffffffffff81111561232c5761232c6130e6565b604051908082528060200260200182016040528015612355578160200160208202803683370190505b5094508067ffffffffffffffff811115612371576123716130e6565b60405190808252806020026020018201604052801561239a578160200160208202803683370190505b5093508067ffffffffffffffff8111156123b6576123b66130e6565b6040519080825280602002602001820160405280156123df578160200160208202803683370190505b5092505f5b81811015612577575f898152600d84016020526040812080548390811061240d5761240d612f72565b905f5260205f2090600602019050805f015489838151811061243157612431612f72565b602002602001018181525050806004015488838151811061245457612454612f72565b602002602001018181525050806002015486838151811061247757612477612f72565b602002602001018181525050806003015485838151811061249a5761249a612f72565b6020908102919091010152600581015460ff166124d6575f8783815181106124c4576124c4612f72565b6020026020010181815250505061256f565b5f620151808260020154426124eb9190612f9a565b6124f59190612fad565b90505f6127108360030154845f015461250e9190612fcc565b6125189190612fad565b90505f6125258383612fcc565b90505f84600401548211612539575f612548565b60048501546125489083612f9a565b9050808b878151811061255d5761255d612f72565b60200260200101818152505050505050505b6001016123e4565b5050509295509295909350565b6001600160a01b0381165f908152600660209081526040808320600e01805482518185028101850190935280835260609492939192909184015b8282101561260b578382905f5260205f2090600302016040518060600160405290815f820154815260200160018201548152602001600282015481525050815260200190600101906125be565b505050509050919050565b6001600160a01b0381165f908152600660205260409020546126705760405162461bcd60e51b81526020600482015260136024820152727265666572726572206e6f742065786973747360681b604482015260640161058d565b6001600160a01b038281165f9081526006602052604090206001015416156126d15760405162461bcd60e51b8152602060048201526014602482015273149959995c9c985b08105b1c9958591e4814d95d60621b604482015260640161058d565b6001600160a01b038281165f9081526006602052604080822060010180546001600160a01b0319169385169384179055918152908120600301805491612716836130ce565b90915550506001600160a01b038281165f81815260066020526040808220549385168083529181902054905191937edaf80470d36b7f80ca04a76669714675ad8a767b3228c3a17b57ce22058ac9926127789290918252602082015260400190565b60405180910390a35050565b6001600160a01b038082165f90815260066020526040812060010154909116905b6005548160ff161015611a00576001600160a01b03821615611a00576001600160a01b0382165f908152600660205260408120600c0180548692906127eb908490612fe3565b90915550506001600160a01b039182165f90815260066020526040902060010154909116908061281a81613079565b9150506127a5565b6001600160a01b038082165f908152600660205260409020600190810154909116905b601e8160ff1611611a00576001600160a01b03821615611a00575f61286a8284612aec565b90505f60646128798388612fcc565b6128839190612fad565b9050801561294d5760015460405163a9059cbb60e01b81526001600160a01b038681166004830152602482018490529091169063a9059cbb906044016020604051808303815f875af11580156128db573d5f5f3e3d5ffd5b505050506040513d601f19601f820116820180604052508101906128ff9190612ff6565b506040805160ff85168152602081018390526001600160a01b0380871692908816917f566f5a6632d8591dfbec04ce6cc94a1e57e98e83d507257143f926d8efd01d03910160405180910390a35b50506001600160a01b039182165f90815260066020526040902060010154909116908061297981613079565b915050612845565b6001600160a01b0382165f90815260066020526040902054156129d45760405162461bcd60e51b815260206004820152600b60248201526a757365722065786973747360a81b604482015260640161058d565b6001600160a01b0381165f90815260066020526040902054612a2e5760405162461bcd60e51b81526020600482015260136024820152727265666572726572206e6f742065786973747360681b604482015260640161058d565b600380546001600160a01b038085165f818152600660209081526040808320958655600290950180549488166001600160a01b03199586161790558554825260079052928320805490921617905581549190612a89836130ce565b90915550506001600160a01b038281165f81815260066020526040808220549385168083529181902054905191937f60c0f269b7ea51048f44b9b44dd98960b4bd2867503b86eadc866744dc2c608f926127789290918252602082015260400190565b6001600160a01b0381165f9081526006602052604081206003810154600c9091015460048210612b85578460ff166001148015612b2b57506106408110155b15612b3b5760199250505061142d565b8460ff166002148015612b5057506113888110155b15612b605760149250505061142d565b8460ff166003148015612b7557506127108110155b15612b855760149250505061142d565b8460ff16600103612b9b57600c9250505061142d565b60028560ff1610158015612bb3575060048560ff1611155b15612bc357600a9250505061142d565b60058560ff1610158015612bdb575060068560ff1611155b15612beb5760059250505061142d565b60078560ff1610158015612c035750600c8560ff1611155b15612c135760039250505061142d565b600d8560ff1610158015612c2b575060148560ff1611155b15612c3b5760029250505061142d565b60158560ff1610158015612c53575060198560ff1611155b15612c635760019250505061142d565b601a8560ff1610158015612c7b5750601e8560ff1611155b15612c8b5760049250505061142d565b505f949350505050565b5f60208284031215612ca5575f5ffd5b5035919050565b80356001600160a01b0381168114612cc2575f5ffd5b919050565b5f60208284031215612cd7575f5ffd5b612ce082612cac565b9392505050565b803560ff81168114612cc2575f5ffd5b5f5f60408385031215612d08575f5ffd5b612d1183612ce7565b946020939093013593505050565b5f5f60408385031215612d30575f5ffd5b612d1183612cac565b602080825282518282018190525f918401906040840190835b81811015612dac578351805184526020810151602085015260408101516040850152606081015160608501526080810151608085015260a0810151151560a08501525060c083019250602084019350600181019050612d52565b509095945050505050565b5f5f60408385031215612dc8575f5ffd5b82359150612dd860208401612ce7565b90509250929050565b5f5f60208385031215612df2575f5ffd5b823567ffffffffffffffff811115612e08575f5ffd5b8301601f81018513612e18575f5ffd5b803567ffffffffffffffff811115612e2e575f5ffd5b8560208260051b8401011115612e42575f5ffd5b6020919091019590945092505050565b5f8151808452602084019350602083015f5b82811015612e82578151865260209586019590910190600101612e64565b5093949350505050565b60a081525f612e9e60a0830188612e52565b8281036020840152612eb08188612e52565b90508281036040840152612ec48187612e52565b90508281036060840152612ed88186612e52565b90508281036080840152612eec8185612e52565b98975050505050505050565b602080825282518282018190525f918401906040840190835b81811015612dac57835180518452602081015160208501526040810151604085015250606083019250602084019350600181019050612f11565b6020808252600d908201526c139bc81a5b9d995cdd1b595b9d609a1b604082015260600190565b634e487b7160e01b5f52603260045260245ffd5b634e487b7160e01b5f52601160045260245ffd5b8181038181111561142d5761142d612f86565b5f82612fc757634e487b7160e01b5f52601260045260245ffd5b500490565b808202811582820484141761142d5761142d612f86565b8082018082111561142d5761142d612f86565b5f60208284031215613006575f5ffd5b81518015158114612ce0575f5ffd5b6020808252600f908201526e151c985b9cd9995c8819985a5b1959608a1b604082015260600190565b6020808252600a908201526927b7363c9037bbb732b960b11b604082015260600190565b5f60208284031215613072575f5ffd5b5051919050565b5f60ff821660ff810361308e5761308e612f86565b60010192915050565b60208082526018908201527f496e76616c696420696e766573746d656e742072616e67650000000000000000604082015260600190565b5f600182016130df576130df612f86565b5060010190565b634e487b7160e01b5f52604160045260245ffdfea264697066735822122000160a277fcd69cb4061be41952f76366d371a43d35602d79b59bd5e77af734b64736f6c634300081e0033",
					"opcodes": "PUSH1 0x80 PUSH1 0x40 MSTORE CALLVALUE DUP1 ISZERO PUSH1 0xE JUMPI PUSH0 PUSH0 REVERT JUMPDEST POP PUSH2 0x3130 DUP1 PUSH2 0x1C PUSH0 CODECOPY PUSH0 RETURN INVALID PUSH1 0x80 PUSH1 0x40 MSTORE CALLVALUE DUP1 ISZERO PUSH2 0xF JUMPI PUSH0 PUSH0 REVERT JUMPDEST POP PUSH1 0x4 CALLDATASIZE LT PUSH2 0x1A1 JUMPI PUSH0 CALLDATALOAD PUSH1 0xE0 SHR DUP1 PUSH4 0x76636E5A GT PUSH2 0xF3 JUMPI DUP1 PUSH4 0xA9510E82 GT PUSH2 0x93 JUMPI DUP1 PUSH4 0xBED24C24 GT PUSH2 0x6E JUMPI DUP1 PUSH4 0xBED24C24 EQ PUSH2 0x4D7 JUMPI DUP1 PUSH4 0xC4D66DE8 EQ PUSH2 0x4EA JUMPI DUP1 PUSH4 0xE8DB280C EQ PUSH2 0x4FD JUMPI DUP1 PUSH4 0xFD6EF0DE EQ PUSH2 0x521 JUMPI PUSH0 PUSH0 REVERT JUMPDEST DUP1 PUSH4 0xA9510E82 EQ PUSH2 0x4A9 JUMPI DUP1 PUSH4 0xA98AD46C EQ PUSH2 0x4B1 JUMPI DUP1 PUSH4 0xBBF7F772 EQ PUSH2 0x4C4 JUMPI PUSH0 PUSH0 REVERT JUMPDEST DUP1 PUSH4 0x8DA5CB5B GT PUSH2 0xCE JUMPI DUP1 PUSH4 0x8DA5CB5B EQ PUSH2 0x40E JUMPI DUP1 PUSH4 0x98232A38 EQ PUSH2 0x426 JUMPI DUP1 PUSH4 0x9A29647D EQ PUSH2 0x439 JUMPI DUP1 PUSH4 0xA275999C EQ PUSH2 0x44C JUMPI PUSH0 PUSH0 REVERT JUMPDEST DUP1 PUSH4 0x76636E5A EQ PUSH2 0x2E5 JUMPI DUP1 PUSH4 0x838A1B6D EQ PUSH2 0x2F8 JUMPI DUP1 PUSH4 0x842A77D3 EQ PUSH2 0x318 JUMPI PUSH0 PUSH0 REVERT JUMPDEST DUP1 PUSH4 0x3F0D55FE GT PUSH2 0x15E JUMPI DUP1 PUSH4 0x509222CD GT PUSH2 0x139 JUMPI DUP1 PUSH4 0x509222CD EQ PUSH2 0x28D JUMPI DUP1 PUSH4 0x59450A58 EQ PUSH2 0x2B7 JUMPI DUP1 PUSH4 0x664E9704 EQ PUSH2 0x2CA JUMPI DUP1 PUSH4 0x6D704B94 EQ PUSH2 0x2D2 JUMPI PUSH0 PUSH0 REVERT JUMPDEST DUP1 PUSH4 0x3F0D55FE EQ PUSH2 0x254 JUMPI DUP1 PUSH4 0x416B09DC EQ PUSH2 0x267 JUMPI DUP1 PUSH4 0x44DD5E7A EQ PUSH2 0x27A JUMPI PUSH0 PUSH0 REVERT JUMPDEST DUP1 PUSH4 0x21C82E68 EQ PUSH2 0x1A5 JUMPI DUP1 PUSH4 0x21F8C27D EQ PUSH2 0x1BA JUMPI DUP1 PUSH4 0x2A2D0C47 EQ PUSH2 0x1E2 JUMPI DUP1 PUSH4 0x348D4487 EQ PUSH2 0x222 JUMPI DUP1 PUSH4 0x3610724E EQ PUSH2 0x239 JUMPI DUP1 PUSH4 0x362E496B EQ PUSH2 0x24C JUMPI JUMPDEST PUSH0 PUSH0 REVERT JUMPDEST PUSH2 0x1B8 PUSH2 0x1B3 CALLDATASIZE PUSH1 0x4 PUSH2 0x2C95 JUMP JUMPDEST PUSH2 0x541 JUMP JUMPDEST STOP JUMPDEST PUSH2 0x1CD PUSH2 0x1C8 CALLDATASIZE PUSH1 0x4 PUSH2 0x2CC7 JUMP JUMPDEST PUSH2 0x7A2 JUMP JUMPDEST PUSH1 0x40 MLOAD SWAP1 ISZERO ISZERO DUP2 MSTORE PUSH1 0x20 ADD JUMPDEST PUSH1 0x40 MLOAD DUP1 SWAP2 SUB SWAP1 RETURN JUMPDEST PUSH2 0x20A PUSH2 0x1F0 CALLDATASIZE PUSH1 0x4 PUSH2 0x2C95 JUMP JUMPDEST PUSH1 0x7 PUSH1 0x20 MSTORE PUSH0 SWAP1 DUP2 MSTORE PUSH1 0x40 SWAP1 KECCAK256 SLOAD PUSH1 0x1 PUSH1 0x1 PUSH1 0xA0 SHL SUB AND DUP2 JUMP JUMPDEST PUSH1 0x40 MLOAD PUSH1 0x1 PUSH1 0x1 PUSH1 0xA0 SHL SUB SWAP1 SWAP2 AND DUP2 MSTORE PUSH1 0x20 ADD PUSH2 0x1D9 JUMP JUMPDEST PUSH2 0x22B PUSH1 0x3 SLOAD DUP2 JUMP JUMPDEST PUSH1 0x40 MLOAD SWAP1 DUP2 MSTORE PUSH1 0x20 ADD PUSH2 0x1D9 JUMP JUMPDEST PUSH2 0x1B8 PUSH2 0x247 CALLDATASIZE PUSH1 0x4 PUSH2 0x2C95 JUMP JUMPDEST PUSH2 0x7F8 JUMP JUMPDEST PUSH2 0x1B8 PUSH2 0xB3F JUMP JUMPDEST PUSH2 0x1B8 PUSH2 0x262 CALLDATASIZE PUSH1 0x4 PUSH2 0x2CF7 JUMP JUMPDEST PUSH2 0xCDB JUMP JUMPDEST PUSH2 0x1B8 PUSH2 0x275 CALLDATASIZE PUSH1 0x4 PUSH2 0x2CC7 JUMP JUMPDEST PUSH2 0xFD6 JUMP JUMPDEST PUSH2 0x1B8 PUSH2 0x288 CALLDATASIZE PUSH1 0x4 PUSH2 0x2C95 JUMP JUMPDEST PUSH2 0x10B6 JUMP JUMPDEST PUSH2 0x1CD PUSH2 0x29B CALLDATASIZE PUSH1 0x4 PUSH2 0x2CC7 JUMP JUMPDEST PUSH1 0x1 PUSH1 0x1 PUSH1 0xA0 SHL SUB AND PUSH0 SWAP1 DUP2 MSTORE PUSH1 0x6 PUSH1 0x20 MSTORE PUSH1 0x40 SWAP1 KECCAK256 SLOAD ISZERO ISZERO SWAP1 JUMP JUMPDEST PUSH2 0x22B PUSH2 0x2C5 CALLDATASIZE PUSH1 0x4 PUSH2 0x2CC7 JUMP JUMPDEST PUSH2 0x121F JUMP JUMPDEST PUSH2 0x22B PUSH1 0x2 DUP2 JUMP JUMPDEST PUSH2 0x1B8 PUSH2 0x2E0 CALLDATASIZE PUSH1 0x4 PUSH2 0x2CC7 JUMP JUMPDEST PUSH2 0x136E JUMP JUMPDEST PUSH1 0x2 SLOAD PUSH2 0x20A SWAP1 PUSH1 0x1 PUSH1 0x1 PUSH1 0xA0 SHL SUB AND DUP2 JUMP JUMPDEST PUSH2 0x30B PUSH2 0x306 CALLDATASIZE PUSH1 0x4 PUSH2 0x2D1F JUMP JUMPDEST PUSH2 0x1378 JUMP JUMPDEST PUSH1 0x40 MLOAD PUSH2 0x1D9 SWAP2 SWAP1 PUSH2 0x2D39 JUMP JUMPDEST PUSH2 0x39E PUSH2 0x326 CALLDATASIZE PUSH1 0x4 PUSH2 0x2CC7 JUMP JUMPDEST PUSH1 0x6 PUSH1 0x20 DUP2 SWAP1 MSTORE PUSH0 SWAP2 DUP3 MSTORE PUSH1 0x40 SWAP1 SWAP2 KECCAK256 DUP1 SLOAD PUSH1 0x1 DUP3 ADD SLOAD PUSH1 0x2 DUP4 ADD SLOAD PUSH1 0x3 DUP5 ADD SLOAD PUSH1 0x4 DUP6 ADD SLOAD PUSH1 0x5 DUP7 ADD SLOAD SWAP7 DUP7 ADD SLOAD PUSH1 0x7 DUP8 ADD SLOAD PUSH1 0x8 DUP9 ADD SLOAD PUSH1 0x9 DUP10 ADD SLOAD PUSH1 0xA DUP11 ADD SLOAD PUSH1 0xB DUP12 ADD SLOAD PUSH1 0xC SWAP1 SWAP12 ADD SLOAD SWAP10 SWAP12 PUSH1 0x1 PUSH1 0x1 PUSH1 0xA0 SHL SUB SWAP10 DUP11 AND SWAP12 SWAP10 SWAP1 SWAP9 AND SWAP10 SWAP7 SWAP9 SWAP6 SWAP8 SWAP7 SWAP5 SWAP6 SWAP4 SWAP5 SWAP3 SWAP4 SWAP2 SWAP3 PUSH1 0xFF SWAP1 SWAP2 AND SWAP2 SWAP1 DUP14 JUMP JUMPDEST PUSH1 0x40 DUP1 MLOAD SWAP14 DUP15 MSTORE PUSH1 0x1 PUSH1 0x1 PUSH1 0xA0 SHL SUB SWAP13 DUP14 AND PUSH1 0x20 DUP16 ADD MSTORE SWAP11 SWAP1 SWAP12 AND SWAP10 DUP13 ADD SWAP10 SWAP1 SWAP10 MSTORE PUSH1 0x60 DUP12 ADD SWAP8 SWAP1 SWAP8 MSTORE PUSH1 0x80 DUP11 ADD SWAP6 SWAP1 SWAP6 MSTORE PUSH1 0xA0 DUP10 ADD SWAP4 SWAP1 SWAP4 MSTORE PUSH1 0xC0 DUP9 ADD SWAP2 SWAP1 SWAP2 MSTORE PUSH1 0xE0 DUP8 ADD MSTORE PUSH2 0x100 DUP7 ADD MSTORE PUSH2 0x120 DUP6 ADD MSTORE ISZERO ISZERO PUSH2 0x140 DUP5 ADD MSTORE PUSH2 0x160 DUP4 ADD MSTORE PUSH2 0x180 DUP3 ADD MSTORE PUSH2 0x1A0 ADD PUSH2 0x1D9 JUMP JUMPDEST PUSH0 SLOAD PUSH2 0x20A SWAP1 PUSH3 0x10000 SWAP1 DIV PUSH1 0x1 PUSH1 0x1 PUSH1 0xA0 SHL SUB AND DUP2 JUMP JUMPDEST PUSH2 0x1B8 PUSH2 0x434 CALLDATASIZE PUSH1 0x4 PUSH2 0x2DB7 JUMP JUMPDEST PUSH2 0x1433 JUMP JUMPDEST PUSH2 0x1B8 PUSH2 0x447 CALLDATASIZE PUSH1 0x4 PUSH2 0x2CC7 JUMP JUMPDEST PUSH2 0x1A06 JUMP JUMPDEST PUSH2 0x48C PUSH2 0x45A CALLDATASIZE PUSH1 0x4 PUSH2 0x2CC7 JUMP JUMPDEST PUSH1 0x1 PUSH1 0x1 PUSH1 0xA0 SHL SUB AND PUSH0 SWAP1 DUP2 MSTORE PUSH1 0x6 PUSH1 0x20 DUP2 SWAP1 MSTORE PUSH1 0x40 SWAP1 SWAP2 KECCAK256 PUSH1 0x5 DUP2 ADD SLOAD SWAP2 DUP2 ADD SLOAD PUSH1 0xA SWAP1 SWAP2 ADD SLOAD SWAP2 SWAP3 SWAP1 SWAP2 PUSH1 0xFF AND SWAP1 JUMP JUMPDEST PUSH1 0x40 DUP1 MLOAD SWAP4 DUP5 MSTORE PUSH1 0x20 DUP5 ADD SWAP3 SWAP1 SWAP3 MSTORE ISZERO ISZERO SWAP1 DUP3 ADD MSTORE PUSH1 0x60 ADD PUSH2 0x1D9 JUMP JUMPDEST PUSH2 0x1B8 PUSH2 0x1A10 JUMP JUMPDEST PUSH1 0x1 SLOAD PUSH2 0x20A SWAP1 PUSH1 0x1 PUSH1 0x1 PUSH1 0xA0 SHL SUB AND DUP2 JUMP JUMPDEST PUSH2 0x1B8 PUSH2 0x4D2 CALLDATASIZE PUSH1 0x4 PUSH2 0x2CC7 JUMP JUMPDEST PUSH2 0x1CC9 JUMP JUMPDEST PUSH2 0x1B8 PUSH2 0x4E5 CALLDATASIZE PUSH1 0x4 PUSH2 0x2DE1 JUMP JUMPDEST PUSH2 0x1F0D JUMP JUMPDEST PUSH2 0x1B8 PUSH2 0x4F8 CALLDATASIZE PUSH1 0x4 PUSH2 0x2CC7 JUMP JUMPDEST PUSH2 0x20EE JUMP JUMPDEST PUSH2 0x510 PUSH2 0x50B CALLDATASIZE PUSH1 0x4 PUSH2 0x2D1F JUMP JUMPDEST PUSH2 0x2255 JUMP JUMPDEST PUSH1 0x40 MLOAD PUSH2 0x1D9 SWAP6 SWAP5 SWAP4 SWAP3 SWAP2 SWAP1 PUSH2 0x2E8C JUMP JUMPDEST PUSH2 0x534 PUSH2 0x52F CALLDATASIZE PUSH1 0x4 PUSH2 0x2CC7 JUMP JUMPDEST PUSH2 0x2584 JUMP JUMPDEST PUSH1 0x40 MLOAD PUSH2 0x1D9 SWAP2 SWAP1 PUSH2 0x2EF8 JUMP JUMPDEST DUP1 PUSH1 0x4 EQ DUP1 PUSH2 0x550 JUMPI POP DUP1 PUSH1 0x5 EQ JUMPDEST PUSH2 0x596 JUMPI PUSH1 0x40 MLOAD PUSH3 0x461BCD PUSH1 0xE5 SHL DUP2 MSTORE PUSH1 0x20 PUSH1 0x4 DUP3 ADD MSTORE PUSH1 0x12 PUSH1 0x24 DUP3 ADD MSTORE PUSH18 0x24B73B30B634B21021B630B4B690283630B7 PUSH1 0x71 SHL PUSH1 0x44 DUP3 ADD MSTORE PUSH1 0x64 ADD JUMPDEST PUSH1 0x40 MLOAD DUP1 SWAP2 SUB SWAP1 REVERT JUMPDEST CALLER PUSH0 SWAP1 DUP2 MSTORE PUSH1 0x6 PUSH1 0x20 MSTORE PUSH1 0x40 SWAP1 KECCAK256 PUSH1 0x5 DUP2 ADD SLOAD PUSH2 0x5C5 JUMPI PUSH1 0x40 MLOAD PUSH3 0x461BCD PUSH1 0xE5 SHL DUP2 MSTORE PUSH1 0x4 ADD PUSH2 0x58D SWAP1 PUSH2 0x2F4B JUMP JUMPDEST PUSH0 DUP3 DUP2 MSTORE PUSH1 0xD DUP3 ADD PUSH1 0x20 MSTORE PUSH1 0x40 DUP2 KECCAK256 DUP2 JUMPDEST DUP2 SLOAD DUP2 LT ISZERO PUSH2 0x6BA JUMPI PUSH0 DUP3 DUP3 DUP2 SLOAD DUP2 LT PUSH2 0x5F2 JUMPI PUSH2 0x5F2 PUSH2 0x2F72 JUMP JUMPDEST PUSH0 SWAP2 DUP3 MSTORE PUSH1 0x20 SWAP1 SWAP2 KECCAK256 PUSH1 0x6 SWAP1 SWAP2 MUL ADD PUSH1 0x5 DUP2 ADD SLOAD SWAP1 SWAP2 POP PUSH1 0xFF AND PUSH2 0x616 JUMPI POP PUSH2 0x6B2 JUMP JUMPDEST PUSH0 PUSH3 0x15180 DUP3 PUSH1 0x2 ADD SLOAD TIMESTAMP PUSH2 0x62B SWAP2 SWAP1 PUSH2 0x2F9A JUMP JUMPDEST PUSH2 0x635 SWAP2 SWAP1 PUSH2 0x2FAD JUMP JUMPDEST SWAP1 POP PUSH0 PUSH2 0x2710 DUP4 PUSH1 0x3 ADD SLOAD DUP5 PUSH0 ADD SLOAD PUSH2 0x64E SWAP2 SWAP1 PUSH2 0x2FCC JUMP JUMPDEST PUSH2 0x658 SWAP2 SWAP1 PUSH2 0x2FAD JUMP JUMPDEST SWAP1 POP PUSH0 PUSH2 0x665 DUP4 DUP4 PUSH2 0x2FCC JUMP JUMPDEST SWAP1 POP DUP4 PUSH1 0x4 ADD SLOAD DUP2 GT ISZERO PUSH2 0x6AD JUMPI PUSH0 DUP5 PUSH1 0x4 ADD SLOAD DUP3 PUSH2 0x684 SWAP2 SWAP1 PUSH2 0x2F9A JUMP JUMPDEST SWAP1 POP DUP1 DUP6 PUSH1 0x4 ADD PUSH0 DUP3 DUP3 SLOAD PUSH2 0x699 SWAP2 SWAP1 PUSH2 0x2FE3 JUMP JUMPDEST SWAP1 SWAP2 SSTORE POP PUSH2 0x6A9 SWAP1 POP DUP2 DUP10 PUSH2 0x2FE3 JUMP JUMPDEST SWAP8 POP POP JUMPDEST POP POP POP POP JUMPDEST PUSH1 0x1 ADD PUSH2 0x5D6 JUMP JUMPDEST POP PUSH1 0x1 SLOAD PUSH1 0x40 MLOAD PUSH4 0xA9059CBB PUSH1 0xE0 SHL DUP2 MSTORE CALLER PUSH1 0x4 DUP3 ADD MSTORE PUSH1 0x24 DUP2 ADD DUP5 SWAP1 MSTORE PUSH1 0x1 PUSH1 0x1 PUSH1 0xA0 SHL SUB SWAP1 SWAP2 AND SWAP1 PUSH4 0xA9059CBB SWAP1 PUSH1 0x44 ADD PUSH1 0x20 PUSH1 0x40 MLOAD DUP1 DUP4 SUB DUP2 PUSH0 DUP8 GAS CALL ISZERO DUP1 ISZERO PUSH2 0x709 JUMPI RETURNDATASIZE PUSH0 PUSH0 RETURNDATACOPY RETURNDATASIZE PUSH0 REVERT JUMPDEST POP POP POP POP PUSH1 0x40 MLOAD RETURNDATASIZE PUSH1 0x1F NOT PUSH1 0x1F DUP3 ADD AND DUP3 ADD DUP1 PUSH1 0x40 MSTORE POP DUP2 ADD SWAP1 PUSH2 0x72D SWAP2 SWAP1 PUSH2 0x2FF6 JUMP JUMPDEST PUSH2 0x749 JUMPI PUSH1 0x40 MLOAD PUSH3 0x461BCD PUSH1 0xE5 SHL DUP2 MSTORE PUSH1 0x4 ADD PUSH2 0x58D SWAP1 PUSH2 0x3015 JUMP JUMPDEST DUP2 DUP4 PUSH1 0x7 ADD PUSH0 DUP3 DUP3 SLOAD PUSH2 0x75C SWAP2 SWAP1 PUSH2 0x2FE3 JUMP JUMPDEST SWAP1 SWAP2 SSTORE POP POP TIMESTAMP PUSH1 0x9 DUP5 ADD SSTORE PUSH1 0x40 MLOAD DUP3 DUP2 MSTORE CALLER SWAP1 PUSH32 0x574C59DFD25E29ED9605F5ACCEDB5AAB0B989606855C61BF6FDCD0875EC8D4B5 SWAP1 PUSH1 0x20 ADD PUSH1 0x40 MLOAD DUP1 SWAP2 SUB SWAP1 LOG2 POP POP POP POP JUMP JUMPDEST PUSH1 0x1 PUSH1 0x1 PUSH1 0xA0 SHL SUB DUP2 DUP2 AND PUSH0 SWAP1 DUP2 MSTORE PUSH1 0x6 PUSH1 0x20 MSTORE PUSH1 0x40 DUP2 KECCAK256 PUSH1 0x1 ADD SLOAD SWAP1 SWAP2 AND ISZERO PUSH2 0x7CE JUMPI POP PUSH1 0x1 SWAP2 SWAP1 POP JUMP JUMPDEST PUSH0 SLOAD PUSH1 0x1 PUSH1 0x1 PUSH1 0xA0 SHL SUB PUSH3 0x10000 SWAP1 SWAP2 DIV DUP2 AND SWAP1 DUP4 AND SUB PUSH2 0x7F1 JUMPI POP PUSH1 0x1 SWAP2 SWAP1 POP JUMP JUMPDEST POP PUSH0 SWAP2 SWAP1 POP JUMP JUMPDEST CALLER PUSH0 SWAP1 DUP2 MSTORE PUSH1 0x6 PUSH1 0x20 MSTORE PUSH1 0x40 SWAP1 KECCAK256 SLOAD PUSH2 0x849 JUMPI PUSH1 0x40 MLOAD PUSH3 0x461BCD PUSH1 0xE5 SHL DUP2 MSTORE PUSH1 0x20 PUSH1 0x4 DUP3 ADD MSTORE PUSH1 0x13 PUSH1 0x24 DUP3 ADD MSTORE PUSH19 0x155CD95C881B9BDD081C9959DA5CDD195C9959 PUSH1 0x6A SHL PUSH1 0x44 DUP3 ADD MSTORE PUSH1 0x64 ADD PUSH2 0x58D JUMP JUMPDEST PUSH0 DUP2 GT PUSH2 0x88D JUMPI PUSH1 0x40 MLOAD PUSH3 0x461BCD PUSH1 0xE5 SHL DUP2 MSTORE PUSH1 0x20 PUSH1 0x4 DUP3 ADD MSTORE PUSH1 0x12 PUSH1 0x24 DUP3 ADD MSTORE PUSH18 0x416D6F756E74206D757374206265203E203 PUSH1 0x74 SHL PUSH1 0x44 DUP3 ADD MSTORE PUSH1 0x64 ADD PUSH2 0x58D JUMP JUMPDEST PUSH1 0x1 SLOAD PUSH1 0x40 MLOAD PUSH4 0x23B872DD PUSH1 0xE0 SHL DUP2 MSTORE CALLER PUSH1 0x4 DUP3 ADD MSTORE ADDRESS PUSH1 0x24 DUP3 ADD MSTORE PUSH1 0x44 DUP2 ADD DUP4 SWAP1 MSTORE PUSH1 0x1 PUSH1 0x1 PUSH1 0xA0 SHL SUB SWAP1 SWAP2 AND SWAP1 PUSH4 0x23B872DD SWAP1 PUSH1 0x64 ADD PUSH1 0x20 PUSH1 0x40 MLOAD DUP1 DUP4 SUB DUP2 PUSH0 DUP8 GAS CALL ISZERO DUP1 ISZERO PUSH2 0x8E1 JUMPI RETURNDATASIZE PUSH0 PUSH0 RETURNDATACOPY RETURNDATASIZE PUSH0 REVERT JUMPDEST POP POP POP POP PUSH1 0x40 MLOAD RETURNDATASIZE PUSH1 0x1F NOT PUSH1 0x1F DUP3 ADD AND DUP3 ADD DUP1 PUSH1 0x40 MSTORE POP DUP2 ADD SWAP1 PUSH2 0x905 SWAP2 SWAP1 PUSH2 0x2FF6 JUMP JUMPDEST PUSH2 0x948 JUMPI PUSH1 0x40 MLOAD PUSH3 0x461BCD PUSH1 0xE5 SHL DUP2 MSTORE PUSH1 0x20 PUSH1 0x4 DUP3 ADD MSTORE PUSH1 0x14 PUSH1 0x24 DUP3 ADD MSTORE PUSH20 0x1554D115081D1C985B9CD9995C8819985A5B1959 PUSH1 0x62 SHL PUSH1 0x44 DUP3 ADD MSTORE PUSH1 0x64 ADD PUSH2 0x58D JUMP JUMPDEST PUSH0 PUSH2 0x954 PUSH1 0x2 DUP4 PUSH2 0x2FCC JUMP JUMPDEST CALLER PUSH0 SWAP1 DUP2 MSTORE PUSH1 0x6 PUSH1 0x20 MSTORE PUSH1 0x40 DUP2 KECCAK256 PUSH1 0x4 ADD DUP1 SLOAD SWAP3 SWAP4 POP DUP5 SWAP3 SWAP1 SWAP2 SWAP1 PUSH2 0x97A SWAP1 DUP5 SWAP1 PUSH2 0x2FE3 JUMP JUMPDEST SWAP1 SWAP2 SSTORE POP POP CALLER PUSH0 SWAP1 DUP2 MSTORE PUSH1 0x6 PUSH1 0x20 DUP2 SWAP1 MSTORE PUSH1 0x40 DUP3 KECCAK256 ADD DUP1 SLOAD DUP4 SWAP3 SWAP1 PUSH2 0x9A0 SWAP1 DUP5 SWAP1 PUSH2 0x2FE3 JUMP JUMPDEST SWAP1 SWAP2 SSTORE POP PUSH1 0x64 SWAP1 POP PUSH2 0x9B3 DUP3 PUSH1 0x5 PUSH2 0x2FCC JUMP JUMPDEST PUSH2 0x9BD SWAP2 SWAP1 PUSH2 0x2FAD JUMP JUMPDEST CALLER PUSH0 SWAP1 DUP2 MSTORE PUSH1 0x6 PUSH1 0x20 DUP2 SWAP1 MSTORE PUSH1 0x40 DUP1 DUP4 KECCAK256 PUSH1 0x2 ADD SLOAD PUSH1 0x1 PUSH1 0x1 PUSH1 0xA0 SHL SUB AND DUP4 MSTORE DUP3 KECCAK256 ADD DUP1 SLOAD SWAP1 SWAP2 SWAP1 PUSH2 0x9F0 SWAP1 DUP5 SWAP1 PUSH2 0x2FE3 JUMP JUMPDEST SWAP1 SWAP2 SSTORE POP PUSH1 0x64 SWAP1 POP PUSH2 0xA03 DUP3 PUSH1 0x5 PUSH2 0x2FCC JUMP JUMPDEST PUSH2 0xA0D SWAP2 SWAP1 PUSH2 0x2FAD JUMP JUMPDEST CALLER PUSH0 SWAP1 DUP2 MSTORE PUSH1 0x6 PUSH1 0x20 MSTORE PUSH1 0x40 DUP1 DUP3 KECCAK256 PUSH1 0x2 ADD SLOAD PUSH1 0x1 PUSH1 0x1 PUSH1 0xA0 SHL SUB AND DUP3 MSTORE DUP2 KECCAK256 PUSH1 0xB ADD DUP1 SLOAD SWAP1 SWAP2 SWAP1 PUSH2 0xA40 SWAP1 DUP5 SWAP1 PUSH2 0x2FE3 JUMP JUMPDEST SWAP1 SWAP2 SSTORE POP POP CALLER PUSH0 DUP2 DUP2 MSTORE PUSH1 0x6 PUSH1 0x20 MSTORE PUSH1 0x40 SWAP1 KECCAK256 PUSH1 0x2 ADD SLOAD PUSH1 0x1 PUSH1 0x1 PUSH1 0xA0 SHL SUB AND SWAP1 PUSH32 0xB63AD4314F7F378E8544A3D2CF22E089F2059EBC701F71EA8F0F60869C4C4ED PUSH1 0x64 PUSH2 0xA8F DUP6 PUSH1 0x5 PUSH2 0x2FCC JUMP JUMPDEST PUSH2 0xA99 SWAP2 SWAP1 PUSH2 0x2FAD JUMP JUMPDEST PUSH1 0x40 MLOAD SWAP1 DUP2 MSTORE PUSH1 0x20 ADD PUSH1 0x40 MLOAD DUP1 SWAP2 SUB SWAP1 LOG3 CALLER PUSH0 DUP2 DUP2 MSTORE PUSH1 0x6 PUSH1 0x20 SWAP1 DUP2 MSTORE PUSH1 0x40 DUP1 DUP4 KECCAK256 DUP2 MLOAD PUSH1 0x60 DUP2 ADD DUP4 MSTORE DUP8 DUP2 MSTORE DUP1 DUP5 ADD DUP8 DUP2 MSTORE TIMESTAMP DUP3 DUP6 ADD SWAP1 DUP2 MSTORE PUSH1 0xE SWAP1 SWAP4 ADD DUP1 SLOAD PUSH1 0x1 DUP1 DUP3 ADD DUP4 SSTORE SWAP2 DUP9 MSTORE SWAP7 DUP7 SWAP1 KECCAK256 SWAP3 MLOAD PUSH1 0x3 SWAP1 SWAP8 MUL SWAP1 SWAP3 ADD SWAP6 DUP7 SSTORE MLOAD SWAP1 DUP6 ADD SSTORE MLOAD PUSH1 0x2 SWAP1 SWAP4 ADD SWAP3 SWAP1 SWAP3 SSTORE DUP2 MLOAD DUP6 DUP2 MSTORE SWAP1 DUP2 ADD DUP5 SWAP1 MSTORE PUSH32 0x8FAFEBCAF9D154343DAD25669BFA277F4FBACD7AC6B0C4FED522580E040A0F33 SWAP2 ADD JUMPDEST PUSH1 0x40 MLOAD DUP1 SWAP2 SUB SWAP1 LOG2 POP POP JUMP JUMPDEST PUSH0 SLOAD PUSH3 0x10000 SWAP1 DIV PUSH1 0x1 PUSH1 0x1 PUSH1 0xA0 SHL SUB AND CALLER EQ PUSH2 0xB6E JUMPI PUSH1 0x40 MLOAD PUSH3 0x461BCD PUSH1 0xE5 SHL DUP2 MSTORE PUSH1 0x4 ADD PUSH2 0x58D SWAP1 PUSH2 0x303E JUMP JUMPDEST PUSH1 0x1 SLOAD PUSH1 0x40 MLOAD PUSH4 0x70A08231 PUSH1 0xE0 SHL DUP2 MSTORE ADDRESS PUSH1 0x4 DUP3 ADD MSTORE PUSH0 SWAP2 PUSH1 0x1 PUSH1 0x1 PUSH1 0xA0 SHL SUB AND SWAP1 PUSH4 0x70A08231 SWAP1 PUSH1 0x24 ADD PUSH1 0x20 PUSH1 0x40 MLOAD DUP1 DUP4 SUB DUP2 DUP7 GAS STATICCALL ISZERO DUP1 ISZERO PUSH2 0xBB4 JUMPI RETURNDATASIZE PUSH0 PUSH0 RETURNDATACOPY RETURNDATASIZE PUSH0 REVERT JUMPDEST POP POP POP POP PUSH1 0x40 MLOAD RETURNDATASIZE PUSH1 0x1F NOT PUSH1 0x1F DUP3 ADD AND DUP3 ADD DUP1 PUSH1 0x40 MSTORE POP DUP2 ADD SWAP1 PUSH2 0xBD8 SWAP2 SWAP1 PUSH2 0x3062 JUMP JUMPDEST SWAP1 POP PUSH0 DUP2 GT PUSH2 0xC1F JUMPI PUSH1 0x40 MLOAD PUSH3 0x461BCD PUSH1 0xE5 SHL DUP2 MSTORE PUSH1 0x20 PUSH1 0x4 DUP3 ADD MSTORE PUSH1 0x13 PUSH1 0x24 DUP3 ADD MSTORE PUSH19 0x4E6F7468696E6720746F207769746864726177 PUSH1 0x68 SHL PUSH1 0x44 DUP3 ADD MSTORE PUSH1 0x64 ADD PUSH2 0x58D JUMP JUMPDEST PUSH1 0x1 SLOAD PUSH0 SLOAD PUSH1 0x40 MLOAD PUSH4 0xA9059CBB PUSH1 0xE0 SHL DUP2 MSTORE PUSH1 0x1 PUSH1 0x1 PUSH1 0xA0 SHL SUB PUSH3 0x10000 SWAP1 SWAP3 DIV DUP3 AND PUSH1 0x4 DUP3 ADD MSTORE PUSH1 0x24 DUP2 ADD DUP5 SWAP1 MSTORE SWAP2 AND SWAP1 PUSH4 0xA9059CBB SWAP1 PUSH1 0x44 ADD PUSH1 0x20 PUSH1 0x40 MLOAD DUP1 DUP4 SUB DUP2 PUSH0 DUP8 GAS CALL ISZERO DUP1 ISZERO PUSH2 0xC76 JUMPI RETURNDATASIZE PUSH0 PUSH0 RETURNDATACOPY RETURNDATASIZE PUSH0 REVERT JUMPDEST POP POP POP POP PUSH1 0x40 MLOAD RETURNDATASIZE PUSH1 0x1F NOT PUSH1 0x1F DUP3 ADD AND DUP3 ADD DUP1 PUSH1 0x40 MSTORE POP DUP2 ADD SWAP1 PUSH2 0xC9A SWAP2 SWAP1 PUSH2 0x2FF6 JUMP JUMPDEST PUSH2 0xCD8 JUMPI PUSH1 0x40 MLOAD PUSH3 0x461BCD PUSH1 0xE5 SHL DUP2 MSTORE PUSH1 0x20 PUSH1 0x4 DUP3 ADD MSTORE PUSH1 0xF PUSH1 0x24 DUP3 ADD MSTORE PUSH15 0x15DA5D1A191C985DC819985A5B1959 PUSH1 0x8A SHL PUSH1 0x44 DUP3 ADD MSTORE PUSH1 0x64 ADD PUSH2 0x58D JUMP JUMPDEST POP JUMP JUMPDEST DUP2 PUSH1 0xFF AND PUSH1 0x3 EQ DUP1 PUSH2 0xCF0 JUMPI POP DUP2 PUSH1 0xFF AND PUSH1 0x4 EQ JUMPDEST DUP1 PUSH2 0xCFE JUMPI POP DUP2 PUSH1 0xFF AND PUSH1 0x5 EQ JUMPDEST PUSH2 0xD55 JUMPI PUSH1 0x40 MLOAD PUSH3 0x461BCD PUSH1 0xE5 SHL DUP2 MSTORE PUSH1 0x20 PUSH1 0x4 DUP3 ADD MSTORE PUSH1 0x22 PUSH1 0x24 DUP3 ADD MSTORE PUSH32 0x596F752063616E6E6F74207769746864726177206361706974616C20616D6F75 PUSH1 0x44 DUP3 ADD MSTORE PUSH2 0x1B9D PUSH1 0xF2 SHL PUSH1 0x64 DUP3 ADD MSTORE PUSH1 0x84 ADD PUSH2 0x58D JUMP JUMPDEST CALLER PUSH0 SWAP1 DUP2 MSTORE PUSH1 0x6 PUSH1 0x20 SWAP1 DUP2 MSTORE PUSH1 0x40 DUP1 DUP4 KECCAK256 PUSH1 0xFF DUP7 AND DUP5 MSTORE PUSH1 0xD DUP2 ADD SWAP1 SWAP3 MSTORE DUP3 KECCAK256 DUP1 SLOAD SWAP2 SWAP3 SWAP2 DUP5 SWAP1 DUP2 LT PUSH2 0xD8A JUMPI PUSH2 0xD8A PUSH2 0x2F72 JUMP JUMPDEST SWAP1 PUSH0 MSTORE PUSH1 0x20 PUSH0 KECCAK256 SWAP1 PUSH1 0x6 MUL ADD SWAP1 POP DUP4 PUSH1 0xFF AND PUSH1 0x4 SUB PUSH2 0xE05 JUMPI PUSH1 0x2 DUP2 ADD SLOAD PUSH2 0xDB6 SWAP1 PUSH4 0x1E13380 PUSH2 0x2FE3 JUMP JUMPDEST TIMESTAMP LT ISZERO PUSH2 0xE05 JUMPI PUSH1 0x40 MLOAD PUSH3 0x461BCD PUSH1 0xE5 SHL DUP2 MSTORE PUSH1 0x20 PUSH1 0x4 DUP3 ADD DUP2 SWAP1 MSTORE PUSH1 0x24 DUP3 ADD MSTORE PUSH32 0x506C616E20343A204C6F636B20706572696F64206973203132206D6F6E746873 PUSH1 0x44 DUP3 ADD MSTORE PUSH1 0x64 ADD PUSH2 0x58D JUMP JUMPDEST DUP4 PUSH1 0xFF AND PUSH1 0x5 SUB PUSH2 0xE72 JUMPI PUSH1 0x2 DUP2 ADD SLOAD PUSH2 0xE23 SWAP1 PUSH4 0x3C26700 PUSH2 0x2FE3 JUMP JUMPDEST TIMESTAMP LT ISZERO PUSH2 0xE72 JUMPI PUSH1 0x40 MLOAD PUSH3 0x461BCD PUSH1 0xE5 SHL DUP2 MSTORE PUSH1 0x20 PUSH1 0x4 DUP3 ADD DUP2 SWAP1 MSTORE PUSH1 0x24 DUP3 ADD MSTORE PUSH32 0x506C616E20353A204C6F636B20706572696F64206973203234206D6F6E746873 PUSH1 0x44 DUP3 ADD MSTORE PUSH1 0x64 ADD PUSH2 0x58D JUMP JUMPDEST PUSH1 0x5 DUP2 ADD DUP1 SLOAD PUSH1 0xFF NOT AND SWAP1 SSTORE PUSH1 0x2 DUP2 ADD SLOAD PUSH0 SWAP1 PUSH3 0x15180 SWAP1 PUSH2 0xE94 SWAP1 TIMESTAMP PUSH2 0x2F9A JUMP JUMPDEST PUSH2 0xE9E SWAP2 SWAP1 PUSH2 0x2FAD JUMP JUMPDEST PUSH1 0x3 DUP4 ADD SLOAD DUP4 SLOAD SWAP2 SWAP3 POP PUSH0 SWAP2 DUP3 SWAP2 PUSH2 0x2710 SWAP2 PUSH2 0xEBA SWAP2 SWAP1 PUSH2 0x2FCC JUMP JUMPDEST PUSH2 0xEC4 SWAP2 SWAP1 PUSH2 0x2FAD JUMP JUMPDEST SWAP1 POP PUSH0 PUSH2 0xED1 DUP5 DUP4 PUSH2 0x2FCC JUMP JUMPDEST SWAP1 POP PUSH0 DUP6 PUSH1 0x4 ADD SLOAD DUP3 GT PUSH2 0xEE5 JUMPI PUSH0 PUSH2 0xEF4 JUMP JUMPDEST PUSH1 0x4 DUP7 ADD SLOAD PUSH2 0xEF4 SWAP1 DUP4 PUSH2 0x2F9A JUMP JUMPDEST SWAP1 POP DUP1 ISZERO PUSH2 0xF3B JUMPI PUSH2 0xF06 DUP2 DUP6 PUSH2 0x2FE3 JUMP JUMPDEST SWAP4 POP DUP1 DUP7 PUSH1 0x4 ADD PUSH0 DUP3 DUP3 SLOAD PUSH2 0xF1B SWAP2 SWAP1 PUSH2 0x2FE3 JUMP JUMPDEST SWAP3 POP POP DUP2 SWAP1 SSTORE POP DUP1 DUP8 PUSH1 0x7 ADD PUSH0 DUP3 DUP3 SLOAD PUSH2 0xF35 SWAP2 SWAP1 PUSH2 0x2FE3 JUMP JUMPDEST SWAP1 SWAP2 SSTORE POP POP JUMPDEST PUSH1 0x1 SLOAD DUP7 SLOAD PUSH1 0x1 PUSH1 0x1 PUSH1 0xA0 SHL SUB SWAP1 SWAP2 AND SWAP1 PUSH4 0xA9059CBB SWAP1 CALLER SWAP1 PUSH2 0xF5E SWAP1 DUP9 PUSH2 0x2FE3 JUMP JUMPDEST PUSH1 0x40 MLOAD PUSH1 0x1 PUSH1 0x1 PUSH1 0xE0 SHL SUB NOT PUSH1 0xE0 DUP6 SWAP1 SHL AND DUP2 MSTORE PUSH1 0x1 PUSH1 0x1 PUSH1 0xA0 SHL SUB SWAP1 SWAP3 AND PUSH1 0x4 DUP4 ADD MSTORE PUSH1 0x24 DUP3 ADD MSTORE PUSH1 0x44 ADD PUSH1 0x20 PUSH1 0x40 MLOAD DUP1 DUP4 SUB DUP2 PUSH0 DUP8 GAS CALL ISZERO DUP1 ISZERO PUSH2 0xFA6 JUMPI RETURNDATASIZE PUSH0 PUSH0 RETURNDATACOPY RETURNDATASIZE PUSH0 REVERT JUMPDEST POP POP POP POP PUSH1 0x40 MLOAD RETURNDATASIZE PUSH1 0x1F NOT PUSH1 0x1F DUP3 ADD AND DUP3 ADD DUP1 PUSH1 0x40 MSTORE POP DUP2 ADD SWAP1 PUSH2 0xFCA SWAP2 SWAP1 PUSH2 0x2FF6 JUMP JUMPDEST POP POP POP POP POP POP POP POP POP POP JUMP JUMPDEST PUSH0 SLOAD PUSH3 0x10000 SWAP1 DIV PUSH1 0x1 PUSH1 0x1 PUSH1 0xA0 SHL SUB AND CALLER EQ PUSH2 0x1005 JUMPI PUSH1 0x40 MLOAD PUSH3 0x461BCD PUSH1 0xE5 SHL DUP2 MSTORE PUSH1 0x4 ADD PUSH2 0x58D SWAP1 PUSH2 0x303E JUMP JUMPDEST PUSH1 0x2 SLOAD PUSH1 0x1 PUSH1 0x1 PUSH1 0xA0 SHL SUB AND ISZERO PUSH2 0x104C JUMPI PUSH1 0x40 MLOAD PUSH3 0x461BCD PUSH1 0xE5 SHL DUP2 MSTORE PUSH1 0x20 PUSH1 0x4 DUP3 ADD MSTORE PUSH1 0xB PUSH1 0x24 DUP3 ADD MSTORE PUSH11 0x105B1C9958591E481CD95D PUSH1 0xAA SHL PUSH1 0x44 DUP3 ADD MSTORE PUSH1 0x64 ADD PUSH2 0x58D JUMP JUMPDEST PUSH1 0x1 PUSH1 0x1 PUSH1 0xA0 SHL SUB DUP2 AND PUSH2 0x1094 JUMPI PUSH1 0x40 MLOAD PUSH3 0x461BCD PUSH1 0xE5 SHL DUP2 MSTORE PUSH1 0x20 PUSH1 0x4 DUP3 ADD MSTORE PUSH1 0xF PUSH1 0x24 DUP3 ADD MSTORE PUSH15 0x496E76616C69642061646472657373 PUSH1 0x88 SHL PUSH1 0x44 DUP3 ADD MSTORE PUSH1 0x64 ADD PUSH2 0x58D JUMP JUMPDEST PUSH1 0x2 DUP1 SLOAD PUSH1 0x1 PUSH1 0x1 PUSH1 0xA0 SHL SUB NOT AND PUSH1 0x1 PUSH1 0x1 PUSH1 0xA0 SHL SUB SWAP3 SWAP1 SWAP3 AND SWAP2 SWAP1 SWAP2 OR SWAP1 SSTORE JUMP JUMPDEST DUP1 PUSH1 0x3 EQ PUSH2 0x10FB JUMPI PUSH1 0x40 MLOAD PUSH3 0x461BCD PUSH1 0xE5 SHL DUP2 MSTORE PUSH1 0x20 PUSH1 0x4 DUP3 ADD MSTORE PUSH1 0x12 PUSH1 0x24 DUP3 ADD MSTORE PUSH18 0x24B73B30B634B21021B630B4B690283630B7 PUSH1 0x71 SHL PUSH1 0x44 DUP3 ADD MSTORE PUSH1 0x64 ADD PUSH2 0x58D JUMP JUMPDEST CALLER PUSH0 SWAP1 DUP2 MSTORE PUSH1 0x6 PUSH1 0x20 MSTORE PUSH1 0x40 SWAP1 KECCAK256 PUSH1 0x5 DUP2 ADD SLOAD PUSH2 0x112A JUMPI PUSH1 0x40 MLOAD PUSH3 0x461BCD PUSH1 0xE5 SHL DUP2 MSTORE PUSH1 0x4 ADD PUSH2 0x58D SWAP1 PUSH2 0x2F4B JUMP JUMPDEST PUSH0 DUP3 DUP2 MSTORE PUSH1 0xD DUP3 ADD PUSH1 0x20 MSTORE PUSH1 0x40 DUP2 KECCAK256 DUP2 JUMPDEST DUP2 SLOAD DUP2 LT ISZERO PUSH2 0x6BA JUMPI PUSH0 DUP3 DUP3 DUP2 SLOAD DUP2 LT PUSH2 0x1157 JUMPI PUSH2 0x1157 PUSH2 0x2F72 JUMP JUMPDEST PUSH0 SWAP2 DUP3 MSTORE PUSH1 0x20 SWAP1 SWAP2 KECCAK256 PUSH1 0x6 SWAP1 SWAP2 MUL ADD PUSH1 0x5 DUP2 ADD SLOAD SWAP1 SWAP2 POP PUSH1 0xFF AND PUSH2 0x117B JUMPI POP PUSH2 0x1217 JUMP JUMPDEST PUSH0 PUSH3 0x15180 DUP3 PUSH1 0x2 ADD SLOAD TIMESTAMP PUSH2 0x1190 SWAP2 SWAP1 PUSH2 0x2F9A JUMP JUMPDEST PUSH2 0x119A SWAP2 SWAP1 PUSH2 0x2FAD JUMP JUMPDEST SWAP1 POP PUSH0 PUSH2 0x2710 DUP4 PUSH1 0x3 ADD SLOAD DUP5 PUSH0 ADD SLOAD PUSH2 0x11B3 SWAP2 SWAP1 PUSH2 0x2FCC JUMP JUMPDEST PUSH2 0x11BD SWAP2 SWAP1 PUSH2 0x2FAD JUMP JUMPDEST SWAP1 POP PUSH0 PUSH2 0x11CA DUP4 DUP4 PUSH2 0x2FCC JUMP JUMPDEST SWAP1 POP DUP4 PUSH1 0x4 ADD SLOAD DUP2 GT ISZERO PUSH2 0x1212 JUMPI PUSH0 DUP5 PUSH1 0x4 ADD SLOAD DUP3 PUSH2 0x11E9 SWAP2 SWAP1 PUSH2 0x2F9A JUMP JUMPDEST SWAP1 POP DUP1 DUP6 PUSH1 0x4 ADD PUSH0 DUP3 DUP3 SLOAD PUSH2 0x11FE SWAP2 SWAP1 PUSH2 0x2FE3 JUMP JUMPDEST SWAP1 SWAP2 SSTORE POP PUSH2 0x120E SWAP1 POP DUP2 DUP10 PUSH2 0x2FE3 JUMP JUMPDEST SWAP8 POP POP JUMPDEST POP POP POP POP JUMPDEST PUSH1 0x1 ADD PUSH2 0x113B JUMP JUMPDEST PUSH1 0x1 PUSH1 0x1 PUSH1 0xA0 SHL SUB DUP2 AND PUSH0 SWAP1 DUP2 MSTORE PUSH1 0x6 PUSH1 0x20 MSTORE PUSH1 0x40 DUP2 KECCAK256 PUSH1 0x5 DUP2 ADD SLOAD DUP3 SUB PUSH2 0x1249 JUMPI POP PUSH0 SWAP3 SWAP2 POP POP JUMP JUMPDEST PUSH0 PUSH1 0x1 JUMPDEST PUSH1 0x5 DUP2 PUSH1 0xFF AND GT PUSH2 0x1366 JUMPI PUSH0 JUMPDEST PUSH1 0xFF DUP3 AND PUSH0 SWAP1 DUP2 MSTORE PUSH1 0xD DUP6 ADD PUSH1 0x20 MSTORE PUSH1 0x40 SWAP1 KECCAK256 SLOAD DUP2 LT ISZERO PUSH2 0x1353 JUMPI PUSH1 0xFF DUP3 AND PUSH0 SWAP1 DUP2 MSTORE PUSH1 0xD DUP6 ADD PUSH1 0x20 MSTORE PUSH1 0x40 DUP2 KECCAK256 DUP1 SLOAD DUP4 SWAP1 DUP2 LT PUSH2 0x129A JUMPI PUSH2 0x129A PUSH2 0x2F72 JUMP JUMPDEST PUSH0 SWAP2 DUP3 MSTORE PUSH1 0x20 SWAP1 SWAP2 KECCAK256 PUSH1 0x6 SWAP1 SWAP2 MUL ADD PUSH1 0x5 DUP2 ADD SLOAD SWAP1 SWAP2 POP PUSH1 0xFF AND PUSH2 0x12BE JUMPI POP PUSH2 0x134B JUMP JUMPDEST PUSH0 PUSH3 0x15180 DUP3 PUSH1 0x2 ADD SLOAD TIMESTAMP PUSH2 0x12D3 SWAP2 SWAP1 PUSH2 0x2F9A JUMP JUMPDEST PUSH2 0x12DD SWAP2 SWAP1 PUSH2 0x2FAD JUMP JUMPDEST SWAP1 POP PUSH0 PUSH2 0x2710 DUP4 PUSH1 0x3 ADD SLOAD DUP5 PUSH0 ADD SLOAD PUSH2 0x12F6 SWAP2 SWAP1 PUSH2 0x2FCC JUMP JUMPDEST PUSH2 0x1300 SWAP2 SWAP1 PUSH2 0x2FAD JUMP JUMPDEST SWAP1 POP PUSH0 PUSH2 0x130D DUP4 DUP4 PUSH2 0x2FCC JUMP JUMPDEST SWAP1 POP PUSH0 DUP5 PUSH1 0x4 ADD SLOAD DUP3 GT PUSH2 0x1321 JUMPI PUSH0 PUSH2 0x1330 JUMP JUMPDEST PUSH1 0x4 DUP6 ADD SLOAD PUSH2 0x1330 SWAP1 DUP4 PUSH2 0x2F9A JUMP JUMPDEST SWAP1 POP DUP1 ISZERO PUSH2 0x1345 JUMPI PUSH2 0x1342 DUP2 DUP10 PUSH2 0x2FE3 JUMP JUMPDEST SWAP8 POP JUMPDEST POP POP POP POP POP JUMPDEST PUSH1 0x1 ADD PUSH2 0x125A JUMP JUMPDEST POP DUP1 PUSH2 0x135E DUP2 PUSH2 0x3079 JUMP JUMPDEST SWAP2 POP POP PUSH2 0x124D JUMP JUMPDEST POP SWAP4 SWAP3 POP POP POP JUMP JUMPDEST PUSH2 0xCD8 CALLER DUP3 PUSH2 0x2616 JUMP JUMPDEST PUSH1 0x1 PUSH1 0x1 PUSH1 0xA0 SHL SUB DUP3 AND PUSH0 SWAP1 DUP2 MSTORE PUSH1 0x6 PUSH1 0x20 SWAP1 DUP2 MSTORE PUSH1 0x40 DUP1 DUP4 KECCAK256 DUP5 DUP5 MSTORE PUSH1 0xD ADD DUP3 MSTORE DUP1 DUP4 KECCAK256 DUP1 SLOAD DUP3 MLOAD DUP2 DUP6 MUL DUP2 ADD DUP6 ADD SWAP1 SWAP4 MSTORE DUP1 DUP4 MSTORE PUSH1 0x60 SWAP5 SWAP3 SWAP4 SWAP2 SWAP3 SWAP1 SWAP2 DUP5 ADD JUMPDEST DUP3 DUP3 LT ISZERO PUSH2 0x1426 JUMPI PUSH0 DUP5 DUP2 MSTORE PUSH1 0x20 SWAP1 DUP2 SWAP1 KECCAK256 PUSH1 0x40 DUP1 MLOAD PUSH1 0xC0 DUP2 ADD DUP3 MSTORE PUSH1 0x6 DUP7 MUL SWAP1 SWAP3 ADD DUP1 SLOAD DUP4 MSTORE PUSH1 0x1 DUP1 DUP3 ADD SLOAD DUP5 DUP7 ADD MSTORE PUSH1 0x2 DUP3 ADD SLOAD SWAP3 DUP5 ADD SWAP3 SWAP1 SWAP3 MSTORE PUSH1 0x3 DUP2 ADD SLOAD PUSH1 0x60 DUP5 ADD MSTORE PUSH1 0x4 DUP2 ADD SLOAD PUSH1 0x80 DUP5 ADD MSTORE PUSH1 0x5 ADD SLOAD PUSH1 0xFF AND ISZERO ISZERO PUSH1 0xA0 DUP4 ADD MSTORE SWAP1 DUP4 MSTORE SWAP1 SWAP3 ADD SWAP2 ADD PUSH2 0x13BA JUMP JUMPDEST POP POP POP POP SWAP1 POP JUMPDEST SWAP3 SWAP2 POP POP JUMP JUMPDEST PUSH2 0x143C CALLER PUSH2 0x7A2 JUMP JUMPDEST PUSH2 0x147E JUMPI PUSH1 0x40 MLOAD PUSH3 0x461BCD PUSH1 0xE5 SHL DUP2 MSTORE PUSH1 0x20 PUSH1 0x4 DUP3 ADD MSTORE PUSH1 0x13 PUSH1 0x24 DUP3 ADD MSTORE PUSH19 0x155CD95C881B9BDD081C9959DA5CDD195C9959 PUSH1 0x6A SHL PUSH1 0x44 DUP3 ADD MSTORE PUSH1 0x64 ADD PUSH2 0x58D JUMP JUMPDEST PUSH0 DUP2 PUSH1 0xFF AND GT DUP1 ISZERO PUSH2 0x1493 JUMPI POP PUSH1 0x6 DUP2 PUSH1 0xFF AND LT JUMPDEST PUSH2 0x14DF JUMPI PUSH1 0x40 MLOAD PUSH3 0x461BCD PUSH1 0xE5 SHL DUP2 MSTORE PUSH1 0x20 PUSH1 0x4 DUP3 ADD MSTORE PUSH1 0x17 PUSH1 0x24 DUP3 ADD MSTORE PUSH32 0x496E76616C696420496E766573746D656E7420506C616E000000000000000000 PUSH1 0x44 DUP3 ADD MSTORE PUSH1 0x64 ADD PUSH2 0x58D JUMP JUMPDEST PUSH0 DUP2 PUSH1 0xFF AND PUSH1 0x1 SUB PUSH2 0x16B5 JUMPI PUSH1 0x4 SLOAD PUSH2 0x14F9 SWAP1 PUSH1 0x32 PUSH2 0x2FCC JUMP JUMPDEST DUP4 LT ISZERO PUSH2 0x1518 JUMPI PUSH1 0x40 MLOAD PUSH3 0x461BCD PUSH1 0xE5 SHL DUP2 MSTORE PUSH1 0x4 ADD PUSH2 0x58D SWAP1 PUSH2 0x3097 JUMP JUMPDEST PUSH1 0x4 SLOAD PUSH2 0x1527 SWAP1 PUSH2 0x1F4 PUSH2 0x2FCC JUMP JUMPDEST DUP4 GT DUP1 ISZERO PUSH2 0x1542 JUMPI POP PUSH1 0x4 SLOAD PUSH2 0x153F SWAP1 PUSH2 0x258 PUSH2 0x2FCC JUMP JUMPDEST DUP4 LT JUMPDEST ISZERO PUSH2 0x155F JUMPI PUSH1 0x40 MLOAD PUSH3 0x461BCD PUSH1 0xE5 SHL DUP2 MSTORE PUSH1 0x4 ADD PUSH2 0x58D SWAP1 PUSH2 0x3097 JUMP JUMPDEST PUSH1 0x4 SLOAD PUSH2 0x156E SWAP1 PUSH2 0xBB8 PUSH2 0x2FCC JUMP JUMPDEST DUP4 GT DUP1 ISZERO PUSH2 0x1589 JUMPI POP PUSH1 0x4 SLOAD PUSH2 0x1586 SWAP1 PUSH2 0xDAC PUSH2 0x2FCC JUMP JUMPDEST DUP4 LT JUMPDEST ISZERO PUSH2 0x15A6 JUMPI PUSH1 0x40 MLOAD PUSH3 0x461BCD PUSH1 0xE5 SHL DUP2 MSTORE PUSH1 0x4 ADD PUSH2 0x58D SWAP1 PUSH2 0x3097 JUMP JUMPDEST PUSH1 0x4 SLOAD PUSH2 0x15B5 SWAP1 PUSH2 0x26AC PUSH2 0x2FCC JUMP JUMPDEST DUP4 GT DUP1 ISZERO PUSH2 0x15D0 JUMPI POP PUSH1 0x4 SLOAD PUSH2 0x15CD SWAP1 PUSH2 0x2710 PUSH2 0x2FCC JUMP JUMPDEST DUP4 LT JUMPDEST ISZERO PUSH2 0x15ED JUMPI PUSH1 0x40 MLOAD PUSH3 0x461BCD PUSH1 0xE5 SHL DUP2 MSTORE PUSH1 0x4 ADD PUSH2 0x58D SWAP1 PUSH2 0x3097 JUMP JUMPDEST PUSH1 0x4 SLOAD PUSH2 0x15FB SWAP1 PUSH1 0x32 PUSH2 0x2FCC JUMP JUMPDEST DUP4 LT ISZERO DUP1 ISZERO PUSH2 0x1618 JUMPI POP PUSH1 0x4 SLOAD PUSH2 0x1614 SWAP1 PUSH2 0x1F4 PUSH2 0x2FCC JUMP JUMPDEST DUP4 GT ISZERO JUMPDEST ISZERO PUSH2 0x1625 JUMPI POP PUSH1 0x3C PUSH2 0x1812 JUMP JUMPDEST PUSH1 0x4 SLOAD PUSH2 0x1634 SWAP1 PUSH2 0x258 PUSH2 0x2FCC JUMP JUMPDEST DUP4 LT ISZERO DUP1 ISZERO PUSH2 0x1651 JUMPI POP PUSH1 0x4 SLOAD PUSH2 0x164D SWAP1 PUSH2 0xBB8 PUSH2 0x2FCC JUMP JUMPDEST DUP4 GT ISZERO JUMPDEST ISZERO PUSH2 0x165E JUMPI POP PUSH1 0x46 PUSH2 0x1812 JUMP JUMPDEST PUSH1 0x4 SLOAD PUSH2 0x166D SWAP1 PUSH2 0xDAC PUSH2 0x2FCC JUMP JUMPDEST DUP4 LT ISZERO DUP1 ISZERO PUSH2 0x168A JUMPI POP PUSH1 0x4 SLOAD PUSH2 0x1686 SWAP1 PUSH2 0x26AC PUSH2 0x2FCC JUMP JUMPDEST DUP4 GT ISZERO JUMPDEST ISZERO PUSH2 0x1697 JUMPI POP PUSH1 0x5A PUSH2 0x1812 JUMP JUMPDEST PUSH1 0x4 SLOAD PUSH2 0x16A6 SWAP1 PUSH2 0x2710 PUSH2 0x2FCC JUMP JUMPDEST DUP4 LT PUSH2 0x16B0 JUMPI POP PUSH1 0x64 JUMPDEST PUSH2 0x1812 JUMP JUMPDEST DUP2 PUSH1 0xFF AND PUSH1 0x2 SUB PUSH2 0x1755 JUMPI PUSH1 0x4 SLOAD PUSH2 0x16CE SWAP1 PUSH1 0x64 PUSH2 0x2FCC JUMP JUMPDEST DUP4 LT ISZERO PUSH2 0x16ED JUMPI PUSH1 0x40 MLOAD PUSH3 0x461BCD PUSH1 0xE5 SHL DUP2 MSTORE PUSH1 0x4 ADD PUSH2 0x58D SWAP1 PUSH2 0x3097 JUMP JUMPDEST PUSH1 0x4 SLOAD PUSH2 0x16FD SWAP1 PUSH3 0x186A0 PUSH2 0x2FCC JUMP JUMPDEST DUP4 GT ISZERO PUSH2 0x171C JUMPI PUSH1 0x40 MLOAD PUSH3 0x461BCD PUSH1 0xE5 SHL DUP2 MSTORE PUSH1 0x4 ADD PUSH2 0x58D SWAP1 PUSH2 0x3097 JUMP JUMPDEST PUSH1 0x4 SLOAD PUSH2 0x172A SWAP1 PUSH1 0x64 PUSH2 0x2FCC JUMP JUMPDEST DUP4 LT ISZERO DUP1 ISZERO PUSH2 0x1748 JUMPI POP PUSH1 0x4 SLOAD PUSH2 0x1744 SWAP1 PUSH3 0x186A0 PUSH2 0x2FCC JUMP JUMPDEST DUP4 GT ISZERO JUMPDEST ISZERO PUSH2 0x16B0 JUMPI POP PUSH1 0x32 PUSH2 0x1812 JUMP JUMPDEST DUP2 PUSH1 0xFF AND PUSH1 0x3 SUB PUSH2 0x17A9 JUMPI PUSH1 0x4 SLOAD PUSH2 0x176E SWAP1 PUSH1 0x1 PUSH2 0x2FCC JUMP JUMPDEST DUP4 LT ISZERO PUSH2 0x178D JUMPI PUSH1 0x40 MLOAD PUSH3 0x461BCD PUSH1 0xE5 SHL DUP2 MSTORE PUSH1 0x4 ADD PUSH2 0x58D SWAP1 PUSH2 0x3097 JUMP JUMPDEST PUSH1 0x4 SLOAD PUSH2 0x179B SWAP1 PUSH1 0x1 PUSH2 0x2FCC JUMP JUMPDEST DUP4 LT PUSH2 0x16B0 JUMPI POP PUSH1 0x1E PUSH2 0x1812 JUMP JUMPDEST DUP2 PUSH1 0xFF AND PUSH1 0x4 SUB PUSH2 0x17C2 JUMPI PUSH1 0x4 SLOAD PUSH2 0x176E SWAP1 PUSH1 0x1 PUSH2 0x2FCC JUMP JUMPDEST DUP2 PUSH1 0xFF AND PUSH1 0x5 SUB PUSH2 0x1812 JUMPI PUSH1 0x4 SLOAD PUSH2 0x17DB SWAP1 PUSH1 0x1 PUSH2 0x2FCC JUMP JUMPDEST DUP4 LT ISZERO PUSH2 0x17FA JUMPI PUSH1 0x40 MLOAD PUSH3 0x461BCD PUSH1 0xE5 SHL DUP2 MSTORE PUSH1 0x4 ADD PUSH2 0x58D SWAP1 PUSH2 0x3097 JUMP JUMPDEST PUSH1 0x4 SLOAD PUSH2 0x1808 SWAP1 PUSH1 0x1 PUSH2 0x2FCC JUMP JUMPDEST DUP4 LT PUSH2 0x1812 JUMPI POP PUSH1 0x23 JUMPDEST PUSH1 0x1 SLOAD PUSH1 0x40 MLOAD PUSH4 0x23B872DD PUSH1 0xE0 SHL DUP2 MSTORE CALLER PUSH1 0x4 DUP3 ADD MSTORE ADDRESS PUSH1 0x24 DUP3 ADD MSTORE PUSH1 0x44 DUP2 ADD DUP6 SWAP1 MSTORE PUSH1 0x1 PUSH1 0x1 PUSH1 0xA0 SHL SUB SWAP1 SWAP2 AND SWAP1 PUSH4 0x23B872DD SWAP1 PUSH1 0x64 ADD PUSH1 0x20 PUSH1 0x40 MLOAD DUP1 DUP4 SUB DUP2 PUSH0 DUP8 GAS CALL ISZERO DUP1 ISZERO PUSH2 0x1866 JUMPI RETURNDATASIZE PUSH0 PUSH0 RETURNDATACOPY RETURNDATASIZE PUSH0 REVERT JUMPDEST POP POP POP POP PUSH1 0x40 MLOAD RETURNDATASIZE PUSH1 0x1F NOT PUSH1 0x1F DUP3 ADD AND DUP3 ADD DUP1 PUSH1 0x40 MSTORE POP DUP2 ADD SWAP1 PUSH2 0x188A SWAP2 SWAP1 PUSH2 0x2FF6 JUMP JUMPDEST PUSH2 0x18CD JUMPI PUSH1 0x40 MLOAD PUSH3 0x461BCD PUSH1 0xE5 SHL DUP2 MSTORE PUSH1 0x20 PUSH1 0x4 DUP3 ADD MSTORE PUSH1 0x14 PUSH1 0x24 DUP3 ADD MSTORE PUSH20 0x1554D115081D1C985B9CD9995C8819985A5B1959 PUSH1 0x62 SHL PUSH1 0x44 DUP3 ADD MSTORE PUSH1 0x64 ADD PUSH2 0x58D JUMP JUMPDEST CALLER PUSH0 SWAP1 DUP2 MSTORE PUSH1 0x6 PUSH1 0x20 MSTORE PUSH1 0x40 DUP2 KECCAK256 PUSH1 0x5 DUP2 ADD DUP1 SLOAD SWAP2 SWAP3 DUP7 SWAP3 PUSH2 0x18F0 SWAP1 DUP5 SWAP1 PUSH2 0x2FE3 JUMP JUMPDEST SWAP1 SWAP2 SSTORE POP PUSH2 0x1901 SWAP1 POP DUP5 PUSH1 0x2 PUSH2 0x2FCC JUMP JUMPDEST DUP2 PUSH1 0x8 ADD PUSH0 DUP3 DUP3 SLOAD PUSH2 0x1913 SWAP2 SWAP1 PUSH2 0x2FE3 JUMP JUMPDEST SWAP1 SWAP2 SSTORE POP POP TIMESTAMP PUSH1 0x9 DUP3 ADD DUP2 SWAP1 SSTORE PUSH1 0xFF DUP5 AND PUSH0 DUP2 DUP2 MSTORE PUSH1 0xD DUP5 ADD PUSH1 0x20 SWAP1 DUP2 MSTORE PUSH1 0x40 DUP1 DUP4 KECCAK256 DUP2 MLOAD PUSH1 0xC0 DUP2 ADD DUP4 MSTORE DUP11 DUP2 MSTORE DUP1 DUP5 ADD DUP7 DUP2 MSTORE DUP2 DUP5 ADD SWAP8 DUP9 MSTORE PUSH1 0x60 DUP3 ADD DUP11 DUP2 MSTORE PUSH1 0x80 DUP4 ADD DUP8 DUP2 MSTORE PUSH1 0x1 PUSH1 0xA0 DUP6 ADD DUP2 DUP2 MSTORE DUP7 SLOAD DUP1 DUP4 ADD DUP9 SSTORE SWAP7 DUP11 MSTORE SWAP9 DUP9 SWAP1 KECCAK256 SWAP5 MLOAD PUSH1 0x6 SWAP1 SWAP7 MUL SWAP1 SWAP5 ADD SWAP5 DUP6 SSTORE SWAP2 MLOAD SWAP3 DUP5 ADD SWAP3 SWAP1 SWAP3 SSTORE SWAP7 MLOAD PUSH1 0x2 DUP4 ADD SSTORE MLOAD PUSH1 0x3 DUP3 ADD SSTORE SWAP5 MLOAD PUSH1 0x4 DUP7 ADD SSTORE SWAP2 MLOAD PUSH1 0x5 SWAP1 SWAP5 ADD DUP1 SLOAD PUSH1 0xFF NOT AND SWAP5 ISZERO ISZERO SWAP5 SWAP1 SWAP5 OR SWAP1 SWAP4 SSTORE DUP1 MLOAD DUP8 DUP2 MSTORE SWAP3 DUP4 ADD SWAP2 SWAP1 SWAP2 MSTORE CALLER SWAP2 PUSH32 0xE419B79865E277810686C2278E574727F1BB7A3464FA554F499199109E5E2E3A SWAP2 ADD PUSH1 0x40 MLOAD DUP1 SWAP2 SUB SWAP1 LOG2 PUSH2 0x19F6 DUP5 CALLER PUSH2 0x2784 JUMP JUMPDEST PUSH2 0x1A00 DUP5 CALLER PUSH2 0x2822 JUMP JUMPDEST POP POP POP POP JUMP JUMPDEST PUSH2 0xCD8 CALLER DUP3 PUSH2 0x2981 JUMP JUMPDEST CALLER PUSH0 SWAP1 DUP2 MSTORE PUSH1 0x6 PUSH1 0x20 MSTORE PUSH1 0x40 SWAP1 KECCAK256 PUSH1 0x5 DUP2 ADD SLOAD PUSH2 0x1A3F JUMPI PUSH1 0x40 MLOAD PUSH3 0x461BCD PUSH1 0xE5 SHL DUP2 MSTORE PUSH1 0x4 ADD PUSH2 0x58D SWAP1 PUSH2 0x2F4B JUMP JUMPDEST PUSH0 PUSH1 0x1 JUMPDEST PUSH1 0x5 DUP2 PUSH1 0xFF AND GT PUSH2 0x1B61 JUMPI PUSH1 0xFF DUP2 AND PUSH0 SWAP1 DUP2 MSTORE PUSH1 0xD DUP5 ADD PUSH1 0x20 MSTORE PUSH1 0x40 DUP2 KECCAK256 SWAP1 JUMPDEST DUP2 SLOAD DUP2 LT ISZERO PUSH2 0x1B4C JUMPI PUSH0 DUP3 DUP3 DUP2 SLOAD DUP2 LT PUSH2 0x1A7F JUMPI PUSH2 0x1A7F PUSH2 0x2F72 JUMP JUMPDEST PUSH0 SWAP2 DUP3 MSTORE PUSH1 0x20 SWAP1 SWAP2 KECCAK256 PUSH1 0x6 SWAP1 SWAP2 MUL ADD PUSH1 0x5 DUP2 ADD SLOAD SWAP1 SWAP2 POP PUSH1 0xFF AND PUSH2 0x1AA3 JUMPI POP PUSH2 0x1B44 JUMP JUMPDEST PUSH0 PUSH3 0x15180 DUP3 PUSH1 0x2 ADD SLOAD TIMESTAMP PUSH2 0x1AB8 SWAP2 SWAP1 PUSH2 0x2F9A JUMP JUMPDEST PUSH2 0x1AC2 SWAP2 SWAP1 PUSH2 0x2FAD JUMP JUMPDEST SWAP1 POP PUSH0 PUSH2 0x2710 DUP4 PUSH1 0x3 ADD SLOAD DUP5 PUSH0 ADD SLOAD PUSH2 0x1ADB SWAP2 SWAP1 PUSH2 0x2FCC JUMP JUMPDEST PUSH2 0x1AE5 SWAP2 SWAP1 PUSH2 0x2FAD JUMP JUMPDEST SWAP1 POP PUSH0 PUSH2 0x1AF2 DUP4 DUP4 PUSH2 0x2FCC JUMP JUMPDEST SWAP1 POP DUP4 PUSH1 0x4 ADD SLOAD DUP2 GT ISZERO PUSH2 0x1B3F JUMPI PUSH0 DUP5 PUSH1 0x4 ADD SLOAD DUP3 PUSH2 0x1B11 SWAP2 SWAP1 PUSH2 0x2F9A JUMP JUMPDEST SWAP1 POP DUP1 DUP6 PUSH1 0x4 ADD PUSH0 DUP3 DUP3 SLOAD PUSH2 0x1B26 SWAP2 SWAP1 PUSH2 0x2FE3 JUMP JUMPDEST SWAP1 SWAP2 SSTORE POP POP TIMESTAMP PUSH1 0x2 DUP7 ADD SSTORE PUSH2 0x1B3B DUP2 DUP11 PUSH2 0x2FE3 JUMP JUMPDEST SWAP9 POP POP JUMPDEST POP POP POP POP JUMPDEST PUSH1 0x1 ADD PUSH2 0x1A63 JUMP JUMPDEST POP POP DUP1 DUP1 PUSH2 0x1B59 SWAP1 PUSH2 0x3079 JUMP JUMPDEST SWAP2 POP POP PUSH2 0x1A43 JUMP JUMPDEST POP PUSH1 0x4 SLOAD PUSH2 0x1B70 SWAP1 PUSH1 0x64 PUSH2 0x2FCC JUMP JUMPDEST DUP2 LT ISZERO PUSH2 0x1BCA JUMPI PUSH1 0x40 MLOAD PUSH3 0x461BCD PUSH1 0xE5 SHL DUP2 MSTORE PUSH1 0x20 PUSH1 0x4 DUP3 ADD MSTORE PUSH1 0x22 PUSH1 0x24 DUP3 ADD MSTORE PUSH32 0x4D696E696D756D20313030205553445420726571756972656420746F20636C61 PUSH1 0x44 DUP3 ADD MSTORE PUSH2 0x696D PUSH1 0xF0 SHL PUSH1 0x64 DUP3 ADD MSTORE PUSH1 0x84 ADD PUSH2 0x58D JUMP JUMPDEST PUSH0 PUSH1 0x64 PUSH2 0x1BD8 DUP4 PUSH1 0x60 PUSH2 0x2FCC JUMP JUMPDEST PUSH2 0x1BE2 SWAP2 SWAP1 PUSH2 0x2FAD JUMP JUMPDEST PUSH1 0x1 SLOAD PUSH1 0x40 MLOAD PUSH4 0xA9059CBB PUSH1 0xE0 SHL DUP2 MSTORE CALLER PUSH1 0x4 DUP3 ADD MSTORE PUSH1 0x24 DUP2 ADD DUP4 SWAP1 MSTORE SWAP2 SWAP3 POP PUSH1 0x1 PUSH1 0x1 PUSH1 0xA0 SHL SUB AND SWAP1 PUSH4 0xA9059CBB SWAP1 PUSH1 0x44 ADD PUSH1 0x20 PUSH1 0x40 MLOAD DUP1 DUP4 SUB DUP2 PUSH0 DUP8 GAS CALL ISZERO DUP1 ISZERO PUSH2 0x1C31 JUMPI RETURNDATASIZE PUSH0 PUSH0 RETURNDATACOPY RETURNDATASIZE PUSH0 REVERT JUMPDEST POP POP POP POP PUSH1 0x40 MLOAD RETURNDATASIZE PUSH1 0x1F NOT PUSH1 0x1F DUP3 ADD AND DUP3 ADD DUP1 PUSH1 0x40 MSTORE POP DUP2 ADD SWAP1 PUSH2 0x1C55 SWAP2 SWAP1 PUSH2 0x2FF6 JUMP JUMPDEST PUSH2 0x1C71 JUMPI PUSH1 0x40 MLOAD PUSH3 0x461BCD PUSH1 0xE5 SHL DUP2 MSTORE PUSH1 0x4 ADD PUSH2 0x58D SWAP1 PUSH2 0x3015 JUMP JUMPDEST DUP2 DUP4 PUSH1 0x7 ADD PUSH0 DUP3 DUP3 SLOAD PUSH2 0x1C84 SWAP2 SWAP1 PUSH2 0x2FE3 JUMP JUMPDEST SWAP1 SWAP2 SSTORE POP POP TIMESTAMP PUSH1 0x9 DUP5 ADD SSTORE PUSH1 0x40 MLOAD DUP3 DUP2 MSTORE CALLER SWAP1 PUSH32 0x574C59DFD25E29ED9605F5ACCEDB5AAB0B989606855C61BF6FDCD0875EC8D4B5 SWAP1 PUSH1 0x20 ADD PUSH1 0x40 MLOAD DUP1 SWAP2 SUB SWAP1 LOG2 POP POP POP JUMP JUMPDEST PUSH0 SLOAD PUSH3 0x10000 SWAP1 DIV PUSH1 0x1 PUSH1 0x1 PUSH1 0xA0 SHL SUB AND CALLER EQ PUSH2 0x1CF8 JUMPI PUSH1 0x40 MLOAD PUSH3 0x461BCD PUSH1 0xE5 SHL DUP2 MSTORE PUSH1 0x4 ADD PUSH2 0x58D SWAP1 PUSH2 0x303E JUMP JUMPDEST PUSH1 0x1 PUSH1 0x1 PUSH1 0xA0 SHL SUB DUP2 AND PUSH0 SWAP1 DUP2 MSTORE PUSH1 0x6 PUSH1 0x20 MSTORE PUSH1 0x40 SWAP1 KECCAK256 PUSH1 0xA DUP2 ADD SLOAD PUSH1 0xFF AND ISZERO PUSH2 0x1D5A JUMPI PUSH1 0x40 MLOAD PUSH3 0x461BCD PUSH1 0xE5 SHL DUP2 MSTORE PUSH1 0x20 PUSH1 0x4 DUP3 ADD MSTORE PUSH1 0x13 PUSH1 0x24 DUP3 ADD MSTORE PUSH19 0x105B1C9958591E48191A5CDD1C9A589D5D1959 PUSH1 0x6A SHL PUSH1 0x44 DUP3 ADD MSTORE PUSH1 0x64 ADD PUSH2 0x58D JUMP JUMPDEST PUSH0 DUP2 PUSH1 0x6 ADD SLOAD GT PUSH2 0x1DAD JUMPI PUSH1 0x40 MLOAD PUSH3 0x461BCD PUSH1 0xE5 SHL DUP2 MSTORE PUSH1 0x20 PUSH1 0x4 DUP3 ADD MSTORE PUSH1 0x17 PUSH1 0x24 DUP3 ADD MSTORE PUSH32 0x4E6F20746F6B656E7320746F2064697374726962757465000000000000000000 PUSH1 0x44 DUP3 ADD MSTORE PUSH1 0x64 ADD PUSH2 0x58D JUMP JUMPDEST PUSH1 0x2 SLOAD PUSH1 0x1 PUSH1 0x1 PUSH1 0xA0 SHL SUB AND PUSH2 0x1DFA JUMPI PUSH1 0x40 MLOAD PUSH3 0x461BCD PUSH1 0xE5 SHL DUP2 MSTORE PUSH1 0x20 PUSH1 0x4 DUP3 ADD MSTORE PUSH1 0x12 PUSH1 0x24 DUP3 ADD MSTORE PUSH18 0x1499585B081D1BDAD95B881B9BDD081CD95D PUSH1 0x72 SHL PUSH1 0x44 DUP3 ADD MSTORE PUSH1 0x64 ADD PUSH2 0x58D JUMP JUMPDEST PUSH1 0xA DUP2 ADD DUP1 SLOAD PUSH1 0xFF NOT AND PUSH1 0x1 OR SWAP1 SSTORE PUSH1 0x2 SLOAD PUSH1 0x6 DUP3 ADD SLOAD PUSH1 0x40 MLOAD PUSH4 0xA9059CBB PUSH1 0xE0 SHL DUP2 MSTORE PUSH1 0x1 PUSH1 0x1 PUSH1 0xA0 SHL SUB DUP6 DUP2 AND PUSH1 0x4 DUP4 ADD MSTORE PUSH1 0x24 DUP3 ADD SWAP3 SWAP1 SWAP3 MSTORE SWAP2 AND SWAP1 PUSH4 0xA9059CBB SWAP1 PUSH1 0x44 ADD PUSH1 0x20 PUSH1 0x40 MLOAD DUP1 DUP4 SUB DUP2 PUSH0 DUP8 GAS CALL ISZERO DUP1 ISZERO PUSH2 0x1E5E JUMPI RETURNDATASIZE PUSH0 PUSH0 RETURNDATACOPY RETURNDATASIZE PUSH0 REVERT JUMPDEST POP POP POP POP PUSH1 0x40 MLOAD RETURNDATASIZE PUSH1 0x1F NOT PUSH1 0x1F DUP3 ADD AND DUP3 ADD DUP1 PUSH1 0x40 MSTORE POP DUP2 ADD SWAP1 PUSH2 0x1E82 SWAP2 SWAP1 PUSH2 0x2FF6 JUMP JUMPDEST PUSH2 0x1ECE JUMPI PUSH1 0x40 MLOAD PUSH3 0x461BCD PUSH1 0xE5 SHL DUP2 MSTORE PUSH1 0x20 PUSH1 0x4 DUP3 ADD MSTORE PUSH1 0x1A PUSH1 0x24 DUP3 ADD MSTORE PUSH32 0x5265616C20746F6B656E207472616E73666572206661696C6564000000000000 PUSH1 0x44 DUP3 ADD MSTORE PUSH1 0x64 ADD PUSH2 0x58D JUMP JUMPDEST DUP2 PUSH1 0x1 PUSH1 0x1 PUSH1 0xA0 SHL SUB AND PUSH32 0x13603C1BEB46B471CBD10CB5B15A9F58E3929B8EC141B7C33746E26DAF3A839F DUP3 PUSH1 0x6 ADD SLOAD PUSH1 0x40 MLOAD PUSH2 0xB33 SWAP2 DUP2 MSTORE PUSH1 0x20 ADD SWAP1 JUMP JUMPDEST PUSH0 SLOAD PUSH3 0x10000 SWAP1 DIV PUSH1 0x1 PUSH1 0x1 PUSH1 0xA0 SHL SUB AND CALLER EQ PUSH2 0x1F3C JUMPI PUSH1 0x40 MLOAD PUSH3 0x461BCD PUSH1 0xE5 SHL DUP2 MSTORE PUSH1 0x4 ADD PUSH2 0x58D SWAP1 PUSH2 0x303E JUMP JUMPDEST PUSH1 0x2 SLOAD PUSH1 0x1 PUSH1 0x1 PUSH1 0xA0 SHL SUB AND PUSH2 0x1F89 JUMPI PUSH1 0x40 MLOAD PUSH3 0x461BCD PUSH1 0xE5 SHL DUP2 MSTORE PUSH1 0x20 PUSH1 0x4 DUP3 ADD MSTORE PUSH1 0x12 PUSH1 0x24 DUP3 ADD MSTORE PUSH18 0x1499585B081D1BDAD95B881B9BDD081CD95D PUSH1 0x72 SHL PUSH1 0x44 DUP3 ADD MSTORE PUSH1 0x64 ADD PUSH2 0x58D JUMP JUMPDEST PUSH0 JUMPDEST DUP2 DUP2 LT ISZERO PUSH2 0x20E9 JUMPI PUSH0 DUP4 DUP4 DUP4 DUP2 DUP2 LT PUSH2 0x1FA6 JUMPI PUSH2 0x1FA6 PUSH2 0x2F72 JUMP JUMPDEST SWAP1 POP PUSH1 0x20 MUL ADD PUSH1 0x20 DUP2 ADD SWAP1 PUSH2 0x1FBB SWAP2 SWAP1 PUSH2 0x2CC7 JUMP JUMPDEST PUSH1 0x1 PUSH1 0x1 PUSH1 0xA0 SHL SUB DUP2 AND PUSH0 SWAP1 DUP2 MSTORE PUSH1 0x6 PUSH1 0x20 MSTORE PUSH1 0x40 SWAP1 KECCAK256 PUSH1 0xA DUP2 ADD SLOAD SWAP2 SWAP3 POP SWAP1 PUSH1 0xFF AND ISZERO DUP1 ISZERO PUSH2 0x1FEE JUMPI POP PUSH0 DUP2 PUSH1 0x6 ADD SLOAD GT JUMPDEST ISZERO PUSH2 0x20DF JUMPI PUSH1 0xA DUP2 ADD DUP1 SLOAD PUSH1 0xFF NOT AND PUSH1 0x1 OR SWAP1 SSTORE PUSH1 0x2 SLOAD PUSH1 0x6 DUP3 ADD SLOAD PUSH1 0x40 MLOAD PUSH4 0xA9059CBB PUSH1 0xE0 SHL DUP2 MSTORE PUSH1 0x1 PUSH1 0x1 PUSH1 0xA0 SHL SUB DUP6 DUP2 AND PUSH1 0x4 DUP4 ADD MSTORE PUSH1 0x24 DUP3 ADD SWAP3 SWAP1 SWAP3 MSTORE SWAP2 AND SWAP1 PUSH4 0xA9059CBB SWAP1 PUSH1 0x44 ADD PUSH1 0x20 PUSH1 0x40 MLOAD DUP1 DUP4 SUB DUP2 PUSH0 DUP8 GAS CALL ISZERO DUP1 ISZERO PUSH2 0x2057 JUMPI RETURNDATASIZE PUSH0 PUSH0 RETURNDATACOPY RETURNDATASIZE PUSH0 REVERT JUMPDEST POP POP POP POP PUSH1 0x40 MLOAD RETURNDATASIZE PUSH1 0x1F NOT PUSH1 0x1F DUP3 ADD AND DUP3 ADD DUP1 PUSH1 0x40 MSTORE POP DUP2 ADD SWAP1 PUSH2 0x207B SWAP2 SWAP1 PUSH2 0x2FF6 JUMP JUMPDEST PUSH2 0x2097 JUMPI PUSH1 0x40 MLOAD PUSH3 0x461BCD PUSH1 0xE5 SHL DUP2 MSTORE PUSH1 0x4 ADD PUSH2 0x58D SWAP1 PUSH2 0x3015 JUMP JUMPDEST DUP2 PUSH1 0x1 PUSH1 0x1 PUSH1 0xA0 SHL SUB AND PUSH32 0x13603C1BEB46B471CBD10CB5B15A9F58E3929B8EC141B7C33746E26DAF3A839F DUP3 PUSH1 0x6 ADD SLOAD PUSH1 0x40 MLOAD PUSH2 0x20D6 SWAP2 DUP2 MSTORE PUSH1 0x20 ADD SWAP1 JUMP JUMPDEST PUSH1 0x40 MLOAD DUP1 SWAP2 SUB SWAP1 LOG2 JUMPDEST POP POP PUSH1 0x1 ADD PUSH2 0x1F8B JUMP JUMPDEST POP POP POP JUMP JUMPDEST PUSH0 SLOAD PUSH2 0x100 SWAP1 DIV PUSH1 0xFF AND DUP1 PUSH2 0x2105 JUMPI POP PUSH0 SLOAD PUSH1 0xFF AND ISZERO JUMPDEST PUSH2 0x2168 JUMPI PUSH1 0x40 MLOAD PUSH3 0x461BCD PUSH1 0xE5 SHL DUP2 MSTORE PUSH1 0x20 PUSH1 0x4 DUP3 ADD MSTORE PUSH1 0x2E PUSH1 0x24 DUP3 ADD MSTORE PUSH32 0x496E697469616C697A61626C653A20636F6E747261637420697320616C726561 PUSH1 0x44 DUP3 ADD MSTORE PUSH14 0x191E481A5B9A5D1A585B1A5E9959 PUSH1 0x92 SHL PUSH1 0x64 DUP3 ADD MSTORE PUSH1 0x84 ADD PUSH2 0x58D JUMP JUMPDEST PUSH0 SLOAD PUSH2 0x100 SWAP1 DIV PUSH1 0xFF AND ISZERO DUP1 ISZERO PUSH2 0x2188 JUMPI PUSH0 DUP1 SLOAD PUSH2 0xFFFF NOT AND PUSH2 0x101 OR SWAP1 SSTORE JUMPDEST PUSH1 0x1 PUSH1 0x1 PUSH1 0xA0 SHL SUB DUP3 AND PUSH2 0x21D5 JUMPI PUSH1 0x40 MLOAD PUSH3 0x461BCD PUSH1 0xE5 SHL DUP2 MSTORE PUSH1 0x20 PUSH1 0x4 DUP3 ADD MSTORE PUSH1 0x14 PUSH1 0x24 DUP3 ADD MSTORE PUSH20 0x496E76616C696420555344542061646472657373 PUSH1 0x60 SHL PUSH1 0x44 DUP3 ADD MSTORE PUSH1 0x64 ADD PUSH2 0x58D JUMP JUMPDEST PUSH0 DUP1 SLOAD PUSH3 0x10000 PUSH1 0x1 PUSH1 0xB0 SHL SUB NOT AND CALLER PUSH3 0x10000 DUP2 MUL SWAP2 SWAP1 SWAP2 OR DUP3 SSTORE PUSH1 0x1 DUP1 SLOAD PUSH1 0x1 PUSH1 0x1 PUSH1 0xA0 SHL SUB NOT AND PUSH1 0x1 PUSH1 0x1 PUSH1 0xA0 SHL SUB DUP7 AND OR DUP2 SSTORE PUSH1 0x3 DUP2 DUP2 SSTORE SWAP2 DUP4 MSTORE PUSH1 0x6 PUSH1 0x20 MSTORE PUSH1 0x40 DUP4 KECCAK256 DUP2 SWAP1 SSTORE SWAP2 PUSH2 0x222A DUP4 PUSH2 0x30CE JUMP JUMPDEST SWAP1 SWAP2 SSTORE POP POP PUSH8 0xDE0B6B3A7640000 PUSH1 0x4 SSTORE PUSH1 0x64 PUSH1 0x5 SSTORE DUP1 ISZERO PUSH2 0x2251 JUMPI PUSH0 DUP1 SLOAD PUSH2 0xFF00 NOT AND SWAP1 SSTORE JUMPDEST POP POP JUMP JUMPDEST PUSH1 0x1 PUSH1 0x1 PUSH1 0xA0 SHL SUB DUP3 AND PUSH0 SWAP1 DUP2 MSTORE PUSH1 0x6 PUSH1 0x20 SWAP1 DUP2 MSTORE PUSH1 0x40 DUP1 DUP4 KECCAK256 DUP5 DUP5 MSTORE PUSH1 0xD DUP2 ADD SWAP1 SWAP3 MSTORE SWAP1 SWAP2 KECCAK256 SLOAD PUSH1 0x60 SWAP2 DUP3 SWAP2 DUP3 SWAP2 DUP3 SWAP2 DUP3 SWAP2 SWAP1 DUP1 PUSH8 0xFFFFFFFFFFFFFFFF DUP2 GT ISZERO PUSH2 0x22A2 JUMPI PUSH2 0x22A2 PUSH2 0x30E6 JUMP JUMPDEST PUSH1 0x40 MLOAD SWAP1 DUP1 DUP3 MSTORE DUP1 PUSH1 0x20 MUL PUSH1 0x20 ADD DUP3 ADD PUSH1 0x40 MSTORE DUP1 ISZERO PUSH2 0x22CB JUMPI DUP2 PUSH1 0x20 ADD PUSH1 0x20 DUP3 MUL DUP1 CALLDATASIZE DUP4 CALLDATACOPY ADD SWAP1 POP JUMPDEST POP SWAP7 POP DUP1 PUSH8 0xFFFFFFFFFFFFFFFF DUP2 GT ISZERO PUSH2 0x22E7 JUMPI PUSH2 0x22E7 PUSH2 0x30E6 JUMP JUMPDEST PUSH1 0x40 MLOAD SWAP1 DUP1 DUP3 MSTORE DUP1 PUSH1 0x20 MUL PUSH1 0x20 ADD DUP3 ADD PUSH1 0x40 MSTORE DUP1 ISZERO PUSH2 0x2310 JUMPI DUP2 PUSH1 0x20 ADD PUSH1 0x20 DUP3 MUL DUP1 CALLDATASIZE DUP4 CALLDATACOPY ADD SWAP1 POP JUMPDEST POP SWAP6 POP DUP1 PUSH8 0xFFFFFFFFFFFFFFFF DUP2 GT ISZERO PUSH2 0x232C JUMPI PUSH2 0x232C PUSH2 0x30E6 JUMP JUMPDEST PUSH1 0x40 MLOAD SWAP1 DUP1 DUP3 MSTORE DUP1 PUSH1 0x20 MUL PUSH1 0x20 ADD DUP3 ADD PUSH1 0x40 MSTORE DUP1 ISZERO PUSH2 0x2355 JUMPI DUP2 PUSH1 0x20 ADD PUSH1 0x20 DUP3 MUL DUP1 CALLDATASIZE DUP4 CALLDATACOPY ADD SWAP1 POP JUMPDEST POP SWAP5 POP DUP1 PUSH8 0xFFFFFFFFFFFFFFFF DUP2 GT ISZERO PUSH2 0x2371 JUMPI PUSH2 0x2371 PUSH2 0x30E6 JUMP JUMPDEST PUSH1 0x40 MLOAD SWAP1 DUP1 DUP3 MSTORE DUP1 PUSH1 0x20 MUL PUSH1 0x20 ADD DUP3 ADD PUSH1 0x40 MSTORE DUP1 ISZERO PUSH2 0x239A JUMPI DUP2 PUSH1 0x20 ADD PUSH1 0x20 DUP3 MUL DUP1 CALLDATASIZE DUP4 CALLDATACOPY ADD SWAP1 POP JUMPDEST POP SWAP4 POP DUP1 PUSH8 0xFFFFFFFFFFFFFFFF DUP2 GT ISZERO PUSH2 0x23B6 JUMPI PUSH2 0x23B6 PUSH2 0x30E6 JUMP JUMPDEST PUSH1 0x40 MLOAD SWAP1 DUP1 DUP3 MSTORE DUP1 PUSH1 0x20 MUL PUSH1 0x20 ADD DUP3 ADD PUSH1 0x40 MSTORE DUP1 ISZERO PUSH2 0x23DF JUMPI DUP2 PUSH1 0x20 ADD PUSH1 0x20 DUP3 MUL DUP1 CALLDATASIZE DUP4 CALLDATACOPY ADD SWAP1 POP JUMPDEST POP SWAP3 POP PUSH0 JUMPDEST DUP2 DUP2 LT ISZERO PUSH2 0x2577 JUMPI PUSH0 DUP10 DUP2 MSTORE PUSH1 0xD DUP5 ADD PUSH1 0x20 MSTORE PUSH1 0x40 DUP2 KECCAK256 DUP1 SLOAD DUP4 SWAP1 DUP2 LT PUSH2 0x240D JUMPI PUSH2 0x240D PUSH2 0x2F72 JUMP JUMPDEST SWAP1 PUSH0 MSTORE PUSH1 0x20 PUSH0 KECCAK256 SWAP1 PUSH1 0x6 MUL ADD SWAP1 POP DUP1 PUSH0 ADD SLOAD DUP10 DUP4 DUP2 MLOAD DUP2 LT PUSH2 0x2431 JUMPI PUSH2 0x2431 PUSH2 0x2F72 JUMP JUMPDEST PUSH1 0x20 MUL PUSH1 0x20 ADD ADD DUP2 DUP2 MSTORE POP POP DUP1 PUSH1 0x4 ADD SLOAD DUP9 DUP4 DUP2 MLOAD DUP2 LT PUSH2 0x2454 JUMPI PUSH2 0x2454 PUSH2 0x2F72 JUMP JUMPDEST PUSH1 0x20 MUL PUSH1 0x20 ADD ADD DUP2 DUP2 MSTORE POP POP DUP1 PUSH1 0x2 ADD SLOAD DUP7 DUP4 DUP2 MLOAD DUP2 LT PUSH2 0x2477 JUMPI PUSH2 0x2477 PUSH2 0x2F72 JUMP JUMPDEST PUSH1 0x20 MUL PUSH1 0x20 ADD ADD DUP2 DUP2 MSTORE POP POP DUP1 PUSH1 0x3 ADD SLOAD DUP6 DUP4 DUP2 MLOAD DUP2 LT PUSH2 0x249A JUMPI PUSH2 0x249A PUSH2 0x2F72 JUMP JUMPDEST PUSH1 0x20 SWAP1 DUP2 MUL SWAP2 SWAP1 SWAP2 ADD ADD MSTORE PUSH1 0x5 DUP2 ADD SLOAD PUSH1 0xFF AND PUSH2 0x24D6 JUMPI PUSH0 DUP8 DUP4 DUP2 MLOAD DUP2 LT PUSH2 0x24C4 JUMPI PUSH2 0x24C4 PUSH2 0x2F72 JUMP JUMPDEST PUSH1 0x20 MUL PUSH1 0x20 ADD ADD DUP2 DUP2 MSTORE POP POP POP PUSH2 0x256F JUMP JUMPDEST PUSH0 PUSH3 0x15180 DUP3 PUSH1 0x2 ADD SLOAD TIMESTAMP PUSH2 0x24EB SWAP2 SWAP1 PUSH2 0x2F9A JUMP JUMPDEST PUSH2 0x24F5 SWAP2 SWAP1 PUSH2 0x2FAD JUMP JUMPDEST SWAP1 POP PUSH0 PUSH2 0x2710 DUP4 PUSH1 0x3 ADD SLOAD DUP5 PUSH0 ADD SLOAD PUSH2 0x250E SWAP2 SWAP1 PUSH2 0x2FCC JUMP JUMPDEST PUSH2 0x2518 SWAP2 SWAP1 PUSH2 0x2FAD JUMP JUMPDEST SWAP1 POP PUSH0 PUSH2 0x2525 DUP4 DUP4 PUSH2 0x2FCC JUMP JUMPDEST SWAP1 POP PUSH0 DUP5 PUSH1 0x4 ADD SLOAD DUP3 GT PUSH2 0x2539 JUMPI PUSH0 PUSH2 0x2548 JUMP JUMPDEST PUSH1 0x4 DUP6 ADD SLOAD PUSH2 0x2548 SWAP1 DUP4 PUSH2 0x2F9A JUMP JUMPDEST SWAP1 POP DUP1 DUP12 DUP8 DUP2 MLOAD DUP2 LT PUSH2 0x255D JUMPI PUSH2 0x255D PUSH2 0x2F72 JUMP JUMPDEST PUSH1 0x20 MUL PUSH1 0x20 ADD ADD DUP2 DUP2 MSTORE POP POP POP POP POP POP POP JUMPDEST PUSH1 0x1 ADD PUSH2 0x23E4 JUMP JUMPDEST POP POP POP SWAP3 SWAP6 POP SWAP3 SWAP6 SWAP1 SWAP4 POP JUMP JUMPDEST PUSH1 0x1 PUSH1 0x1 PUSH1 0xA0 SHL SUB DUP2 AND PUSH0 SWAP1 DUP2 MSTORE PUSH1 0x6 PUSH1 0x20 SWAP1 DUP2 MSTORE PUSH1 0x40 DUP1 DUP4 KECCAK256 PUSH1 0xE ADD DUP1 SLOAD DUP3 MLOAD DUP2 DUP6 MUL DUP2 ADD DUP6 ADD SWAP1 SWAP4 MSTORE DUP1 DUP4 MSTORE PUSH1 0x60 SWAP5 SWAP3 SWAP4 SWAP2 SWAP3 SWAP1 SWAP2 DUP5 ADD JUMPDEST DUP3 DUP3 LT ISZERO PUSH2 0x260B JUMPI DUP4 DUP3 SWAP1 PUSH0 MSTORE PUSH1 0x20 PUSH0 KECCAK256 SWAP1 PUSH1 0x3 MUL ADD PUSH1 0x40 MLOAD DUP1 PUSH1 0x60 ADD PUSH1 0x40 MSTORE SWAP1 DUP2 PUSH0 DUP3 ADD SLOAD DUP2 MSTORE PUSH1 0x20 ADD PUSH1 0x1 DUP3 ADD SLOAD DUP2 MSTORE PUSH1 0x20 ADD PUSH1 0x2 DUP3 ADD SLOAD DUP2 MSTORE POP POP DUP2 MSTORE PUSH1 0x20 ADD SWAP1 PUSH1 0x1 ADD SWAP1 PUSH2 0x25BE JUMP JUMPDEST POP POP POP POP SWAP1 POP SWAP2 SWAP1 POP JUMP JUMPDEST PUSH1 0x1 PUSH1 0x1 PUSH1 0xA0 SHL SUB DUP2 AND PUSH0 SWAP1 DUP2 MSTORE PUSH1 0x6 PUSH1 0x20 MSTORE PUSH1 0x40 SWAP1 KECCAK256 SLOAD PUSH2 0x2670 JUMPI PUSH1 0x40 MLOAD PUSH3 0x461BCD PUSH1 0xE5 SHL DUP2 MSTORE PUSH1 0x20 PUSH1 0x4 DUP3 ADD MSTORE PUSH1 0x13 PUSH1 0x24 DUP3 ADD MSTORE PUSH19 0x7265666572726572206E6F7420657869737473 PUSH1 0x68 SHL PUSH1 0x44 DUP3 ADD MSTORE PUSH1 0x64 ADD PUSH2 0x58D JUMP JUMPDEST PUSH1 0x1 PUSH1 0x1 PUSH1 0xA0 SHL SUB DUP3 DUP2 AND PUSH0 SWAP1 DUP2 MSTORE PUSH1 0x6 PUSH1 0x20 MSTORE PUSH1 0x40 SWAP1 KECCAK256 PUSH1 0x1 ADD SLOAD AND ISZERO PUSH2 0x26D1 JUMPI PUSH1 0x40 MLOAD PUSH3 0x461BCD PUSH1 0xE5 SHL DUP2 MSTORE PUSH1 0x20 PUSH1 0x4 DUP3 ADD MSTORE PUSH1 0x14 PUSH1 0x24 DUP3 ADD MSTORE PUSH20 0x149959995C9C985B08105B1C9958591E4814D95D PUSH1 0x62 SHL PUSH1 0x44 DUP3 ADD MSTORE PUSH1 0x64 ADD PUSH2 0x58D JUMP JUMPDEST PUSH1 0x1 PUSH1 0x1 PUSH1 0xA0 SHL SUB DUP3 DUP2 AND PUSH0 SWAP1 DUP2 MSTORE PUSH1 0x6 PUSH1 0x20 MSTORE PUSH1 0x40 DUP1 DUP3 KECCAK256 PUSH1 0x1 ADD DUP1 SLOAD PUSH1 0x1 PUSH1 0x1 PUSH1 0xA0 SHL SUB NOT AND SWAP4 DUP6 AND SWAP4 DUP5 OR SWAP1 SSTORE SWAP2 DUP2 MSTORE SWAP1 DUP2 KECCAK256 PUSH1 0x3 ADD DUP1 SLOAD SWAP2 PUSH2 0x2716 DUP4 PUSH2 0x30CE JUMP JUMPDEST SWAP1 SWAP2 SSTORE POP POP PUSH1 0x1 PUSH1 0x1 PUSH1 0xA0 SHL SUB DUP3 DUP2 AND PUSH0 DUP2 DUP2 MSTORE PUSH1 0x6 PUSH1 0x20 MSTORE PUSH1 0x40 DUP1 DUP3 KECCAK256 SLOAD SWAP4 DUP6 AND DUP1 DUP4 MSTORE SWAP2 DUP2 SWAP1 KECCAK256 SLOAD SWAP1 MLOAD SWAP2 SWAP4 PUSH31 0xDAF80470D36B7F80CA04A76669714675AD8A767B3228C3A17B57CE22058AC9 SWAP3 PUSH2 0x2778 SWAP3 SWAP1 SWAP2 DUP3 MSTORE PUSH1 0x20 DUP3 ADD MSTORE PUSH1 0x40 ADD SWAP1 JUMP JUMPDEST PUSH1 0x40 MLOAD DUP1 SWAP2 SUB SWAP1 LOG3 POP POP JUMP JUMPDEST PUSH1 0x1 PUSH1 0x1 PUSH1 0xA0 SHL SUB DUP1 DUP3 AND PUSH0 SWAP1 DUP2 MSTORE PUSH1 0x6 PUSH1 0x20 MSTORE PUSH1 0x40 DUP2 KECCAK256 PUSH1 0x1 ADD SLOAD SWAP1 SWAP2 AND SWAP1 JUMPDEST PUSH1 0x5 SLOAD DUP2 PUSH1 0xFF AND LT ISZERO PUSH2 0x1A00 JUMPI PUSH1 0x1 PUSH1 0x1 PUSH1 0xA0 SHL SUB DUP3 AND ISZERO PUSH2 0x1A00 JUMPI PUSH1 0x1 PUSH1 0x1 PUSH1 0xA0 SHL SUB DUP3 AND PUSH0 SWAP1 DUP2 MSTORE PUSH1 0x6 PUSH1 0x20 MSTORE PUSH1 0x40 DUP2 KECCAK256 PUSH1 0xC ADD DUP1 SLOAD DUP7 SWAP3 SWAP1 PUSH2 0x27EB SWAP1 DUP5 SWAP1 PUSH2 0x2FE3 JUMP JUMPDEST SWAP1 SWAP2 SSTORE POP POP PUSH1 0x1 PUSH1 0x1 PUSH1 0xA0 SHL SUB SWAP2 DUP3 AND PUSH0 SWAP1 DUP2 MSTORE PUSH1 0x6 PUSH1 0x20 MSTORE PUSH1 0x40 SWAP1 KECCAK256 PUSH1 0x1 ADD SLOAD SWAP1 SWAP2 AND SWAP1 DUP1 PUSH2 0x281A DUP2 PUSH2 0x3079 JUMP JUMPDEST SWAP2 POP POP PUSH2 0x27A5 JUMP JUMPDEST PUSH1 0x1 PUSH1 0x1 PUSH1 0xA0 SHL SUB DUP1 DUP3 AND PUSH0 SWAP1 DUP2 MSTORE PUSH1 0x6 PUSH1 0x20 MSTORE PUSH1 0x40 SWAP1 KECCAK256 PUSH1 0x1 SWAP1 DUP2 ADD SLOAD SWAP1 SWAP2 AND SWAP1 JUMPDEST PUSH1 0x1E DUP2 PUSH1 0xFF AND GT PUSH2 0x1A00 JUMPI PUSH1 0x1 PUSH1 0x1 PUSH1 0xA0 SHL SUB DUP3 AND ISZERO PUSH2 0x1A00 JUMPI PUSH0 PUSH2 0x286A DUP3 DUP5 PUSH2 0x2AEC JUMP JUMPDEST SWAP1 POP PUSH0 PUSH1 0x64 PUSH2 0x2879 DUP4 DUP9 PUSH2 0x2FCC JUMP JUMPDEST PUSH2 0x2883 SWAP2 SWAP1 PUSH2 0x2FAD JUMP JUMPDEST SWAP1 POP DUP1 ISZERO PUSH2 0x294D JUMPI PUSH1 0x1 SLOAD PUSH1 0x40 MLOAD PUSH4 0xA9059CBB PUSH1 0xE0 SHL DUP2 MSTORE PUSH1 0x1 PUSH1 0x1 PUSH1 0xA0 SHL SUB DUP7 DUP2 AND PUSH1 0x4 DUP4 ADD MSTORE PUSH1 0x24 DUP3 ADD DUP5 SWAP1 MSTORE SWAP1 SWAP2 AND SWAP1 PUSH4 0xA9059CBB SWAP1 PUSH1 0x44 ADD PUSH1 0x20 PUSH1 0x40 MLOAD DUP1 DUP4 SUB DUP2 PUSH0 DUP8 GAS CALL ISZERO DUP1 ISZERO PUSH2 0x28DB JUMPI RETURNDATASIZE PUSH0 PUSH0 RETURNDATACOPY RETURNDATASIZE PUSH0 REVERT JUMPDEST POP POP POP POP PUSH1 0x40 MLOAD RETURNDATASIZE PUSH1 0x1F NOT PUSH1 0x1F DUP3 ADD AND DUP3 ADD DUP1 PUSH1 0x40 MSTORE POP DUP2 ADD SWAP1 PUSH2 0x28FF SWAP2 SWAP1 PUSH2 0x2FF6 JUMP JUMPDEST POP PUSH1 0x40 DUP1 MLOAD PUSH1 0xFF DUP6 AND DUP2 MSTORE PUSH1 0x20 DUP2 ADD DUP4 SWAP1 MSTORE PUSH1 0x1 PUSH1 0x1 PUSH1 0xA0 SHL SUB DUP1 DUP8 AND SWAP3 SWAP1 DUP9 AND SWAP2 PUSH32 0x566F5A6632D8591DFBEC04CE6CC94A1E57E98E83D507257143F926D8EFD01D03 SWAP2 ADD PUSH1 0x40 MLOAD DUP1 SWAP2 SUB SWAP1 LOG3 JUMPDEST POP POP PUSH1 0x1 PUSH1 0x1 PUSH1 0xA0 SHL SUB SWAP2 DUP3 AND PUSH0 SWAP1 DUP2 MSTORE PUSH1 0x6 PUSH1 0x20 MSTORE PUSH1 0x40 SWAP1 KECCAK256 PUSH1 0x1 ADD SLOAD SWAP1 SWAP2 AND SWAP1 DUP1 PUSH2 0x2979 DUP2 PUSH2 0x3079 JUMP JUMPDEST SWAP2 POP POP PUSH2 0x2845 JUMP JUMPDEST PUSH1 0x1 PUSH1 0x1 PUSH1 0xA0 SHL SUB DUP3 AND PUSH0 SWAP1 DUP2 MSTORE PUSH1 0x6 PUSH1 0x20 MSTORE PUSH1 0x40 SWAP1 KECCAK256 SLOAD ISZERO PUSH2 0x29D4 JUMPI PUSH1 0x40 MLOAD PUSH3 0x461BCD PUSH1 0xE5 SHL DUP2 MSTORE PUSH1 0x20 PUSH1 0x4 DUP3 ADD MSTORE PUSH1 0xB PUSH1 0x24 DUP3 ADD MSTORE PUSH11 0x7573657220657869737473 PUSH1 0xA8 SHL PUSH1 0x44 DUP3 ADD MSTORE PUSH1 0x64 ADD PUSH2 0x58D JUMP JUMPDEST PUSH1 0x1 PUSH1 0x1 PUSH1 0xA0 SHL SUB DUP2 AND PUSH0 SWAP1 DUP2 MSTORE PUSH1 0x6 PUSH1 0x20 MSTORE PUSH1 0x40 SWAP1 KECCAK256 SLOAD PUSH2 0x2A2E JUMPI PUSH1 0x40 MLOAD PUSH3 0x461BCD PUSH1 0xE5 SHL DUP2 MSTORE PUSH1 0x20 PUSH1 0x4 DUP3 ADD MSTORE PUSH1 0x13 PUSH1 0x24 DUP3 ADD MSTORE PUSH19 0x7265666572726572206E6F7420657869737473 PUSH1 0x68 SHL PUSH1 0x44 DUP3 ADD MSTORE PUSH1 0x64 ADD PUSH2 0x58D JUMP JUMPDEST PUSH1 0x3 DUP1 SLOAD PUSH1 0x1 PUSH1 0x1 PUSH1 0xA0 SHL SUB DUP1 DUP6 AND PUSH0 DUP2 DUP2 MSTORE PUSH1 0x6 PUSH1 0x20 SWAP1 DUP2 MSTORE PUSH1 0x40 DUP1 DUP4 KECCAK256 SWAP6 DUP7 SSTORE PUSH1 0x2 SWAP1 SWAP6 ADD DUP1 SLOAD SWAP5 DUP9 AND PUSH1 0x1 PUSH1 0x1 PUSH1 0xA0 SHL SUB NOT SWAP6 DUP7 AND OR SWAP1 SSTORE DUP6 SLOAD DUP3 MSTORE PUSH1 0x7 SWAP1 MSTORE SWAP3 DUP4 KECCAK256 DUP1 SLOAD SWAP1 SWAP3 AND OR SWAP1 SSTORE DUP2 SLOAD SWAP2 SWAP1 PUSH2 0x2A89 DUP4 PUSH2 0x30CE JUMP JUMPDEST SWAP1 SWAP2 SSTORE POP POP PUSH1 0x1 PUSH1 0x1 PUSH1 0xA0 SHL SUB DUP3 DUP2 AND PUSH0 DUP2 DUP2 MSTORE PUSH1 0x6 PUSH1 0x20 MSTORE PUSH1 0x40 DUP1 DUP3 KECCAK256 SLOAD SWAP4 DUP6 AND DUP1 DUP4 MSTORE SWAP2 DUP2 SWAP1 KECCAK256 SLOAD SWAP1 MLOAD SWAP2 SWAP4 PUSH32 0x60C0F269B7EA51048F44B9B44DD98960B4BD2867503B86EADC866744DC2C608F SWAP3 PUSH2 0x2778 SWAP3 SWAP1 SWAP2 DUP3 MSTORE PUSH1 0x20 DUP3 ADD MSTORE PUSH1 0x40 ADD SWAP1 JUMP JUMPDEST PUSH1 0x1 PUSH1 0x1 PUSH1 0xA0 SHL SUB DUP2 AND PUSH0 SWAP1 DUP2 MSTORE PUSH1 0x6 PUSH1 0x20 MSTORE PUSH1 0x40 DUP2 KECCAK256 PUSH1 0x3 DUP2 ADD SLOAD PUSH1 0xC SWAP1 SWAP2 ADD SLOAD PUSH1 0x4 DUP3 LT PUSH2 0x2B85 JUMPI DUP5 PUSH1 0xFF AND PUSH1 0x1 EQ DUP1 ISZERO PUSH2 0x2B2B JUMPI POP PUSH2 0x640 DUP2 LT ISZERO JUMPDEST ISZERO PUSH2 0x2B3B JUMPI PUSH1 0x19 SWAP3 POP POP POP PUSH2 0x142D JUMP JUMPDEST DUP5 PUSH1 0xFF AND PUSH1 0x2 EQ DUP1 ISZERO PUSH2 0x2B50 JUMPI POP PUSH2 0x1388 DUP2 LT ISZERO JUMPDEST ISZERO PUSH2 0x2B60 JUMPI PUSH1 0x14 SWAP3 POP POP POP PUSH2 0x142D JUMP JUMPDEST DUP5 PUSH1 0xFF AND PUSH1 0x3 EQ DUP1 ISZERO PUSH2 0x2B75 JUMPI POP PUSH2 0x2710 DUP2 LT ISZERO JUMPDEST ISZERO PUSH2 0x2B85 JUMPI PUSH1 0x14 SWAP3 POP POP POP PUSH2 0x142D JUMP JUMPDEST DUP5 PUSH1 0xFF AND PUSH1 0x1 SUB PUSH2 0x2B9B JUMPI PUSH1 0xC SWAP3 POP POP POP PUSH2 0x142D JUMP JUMPDEST PUSH1 0x2 DUP6 PUSH1 0xFF AND LT ISZERO DUP1 ISZERO PUSH2 0x2BB3 JUMPI POP PUSH1 0x4 DUP6 PUSH1 0xFF AND GT ISZERO JUMPDEST ISZERO PUSH2 0x2BC3 JUMPI PUSH1 0xA SWAP3 POP POP POP PUSH2 0x142D JUMP JUMPDEST PUSH1 0x5 DUP6 PUSH1 0xFF AND LT ISZERO DUP1 ISZERO PUSH2 0x2BDB JUMPI POP PUSH1 0x6 DUP6 PUSH1 0xFF AND GT ISZERO JUMPDEST ISZERO PUSH2 0x2BEB JUMPI PUSH1 0x5 SWAP3 POP POP POP PUSH2 0x142D JUMP JUMPDEST PUSH1 0x7 DUP6 PUSH1 0xFF AND LT ISZERO DUP1 ISZERO PUSH2 0x2C03 JUMPI POP PUSH1 0xC DUP6 PUSH1 0xFF AND GT ISZERO JUMPDEST ISZERO PUSH2 0x2C13 JUMPI PUSH1 0x3 SWAP3 POP POP POP PUSH2 0x142D JUMP JUMPDEST PUSH1 0xD DUP6 PUSH1 0xFF AND LT ISZERO DUP1 ISZERO PUSH2 0x2C2B JUMPI POP PUSH1 0x14 DUP6 PUSH1 0xFF AND GT ISZERO JUMPDEST ISZERO PUSH2 0x2C3B JUMPI PUSH1 0x2 SWAP3 POP POP POP PUSH2 0x142D JUMP JUMPDEST PUSH1 0x15 DUP6 PUSH1 0xFF AND LT ISZERO DUP1 ISZERO PUSH2 0x2C53 JUMPI POP PUSH1 0x19 DUP6 PUSH1 0xFF AND GT ISZERO JUMPDEST ISZERO PUSH2 0x2C63 JUMPI PUSH1 0x1 SWAP3 POP POP POP PUSH2 0x142D JUMP JUMPDEST PUSH1 0x1A DUP6 PUSH1 0xFF AND LT ISZERO DUP1 ISZERO PUSH2 0x2C7B JUMPI POP PUSH1 0x1E DUP6 PUSH1 0xFF AND GT ISZERO JUMPDEST ISZERO PUSH2 0x2C8B JUMPI PUSH1 0x4 SWAP3 POP POP POP PUSH2 0x142D JUMP JUMPDEST POP PUSH0 SWAP5 SWAP4 POP POP POP POP JUMP JUMPDEST PUSH0 PUSH1 0x20 DUP3 DUP5 SUB SLT ISZERO PUSH2 0x2CA5 JUMPI PUSH0 PUSH0 REVERT JUMPDEST POP CALLDATALOAD SWAP2 SWAP1 POP JUMP JUMPDEST DUP1 CALLDATALOAD PUSH1 0x1 PUSH1 0x1 PUSH1 0xA0 SHL SUB DUP2 AND DUP2 EQ PUSH2 0x2CC2 JUMPI PUSH0 PUSH0 REVERT JUMPDEST SWAP2 SWAP1 POP JUMP JUMPDEST PUSH0 PUSH1 0x20 DUP3 DUP5 SUB SLT ISZERO PUSH2 0x2CD7 JUMPI PUSH0 PUSH0 REVERT JUMPDEST PUSH2 0x2CE0 DUP3 PUSH2 0x2CAC JUMP JUMPDEST SWAP4 SWAP3 POP POP POP JUMP JUMPDEST DUP1 CALLDATALOAD PUSH1 0xFF DUP2 AND DUP2 EQ PUSH2 0x2CC2 JUMPI PUSH0 PUSH0 REVERT JUMPDEST PUSH0 PUSH0 PUSH1 0x40 DUP4 DUP6 SUB SLT ISZERO PUSH2 0x2D08 JUMPI PUSH0 PUSH0 REVERT JUMPDEST PUSH2 0x2D11 DUP4 PUSH2 0x2CE7 JUMP JUMPDEST SWAP5 PUSH1 0x20 SWAP4 SWAP1 SWAP4 ADD CALLDATALOAD SWAP4 POP POP POP JUMP JUMPDEST PUSH0 PUSH0 PUSH1 0x40 DUP4 DUP6 SUB SLT ISZERO PUSH2 0x2D30 JUMPI PUSH0 PUSH0 REVERT JUMPDEST PUSH2 0x2D11 DUP4 PUSH2 0x2CAC JUMP JUMPDEST PUSH1 0x20 DUP1 DUP3 MSTORE DUP3 MLOAD DUP3 DUP3 ADD DUP2 SWAP1 MSTORE PUSH0 SWAP2 DUP5 ADD SWAP1 PUSH1 0x40 DUP5 ADD SWAP1 DUP4 JUMPDEST DUP2 DUP2 LT ISZERO PUSH2 0x2DAC JUMPI DUP4 MLOAD DUP1 MLOAD DUP5 MSTORE PUSH1 0x20 DUP2 ADD MLOAD PUSH1 0x20 DUP6 ADD MSTORE PUSH1 0x40 DUP2 ADD MLOAD PUSH1 0x40 DUP6 ADD MSTORE PUSH1 0x60 DUP2 ADD MLOAD PUSH1 0x60 DUP6 ADD MSTORE PUSH1 0x80 DUP2 ADD MLOAD PUSH1 0x80 DUP6 ADD MSTORE PUSH1 0xA0 DUP2 ADD MLOAD ISZERO ISZERO PUSH1 0xA0 DUP6 ADD MSTORE POP PUSH1 0xC0 DUP4 ADD SWAP3 POP PUSH1 0x20 DUP5 ADD SWAP4 POP PUSH1 0x1 DUP2 ADD SWAP1 POP PUSH2 0x2D52 JUMP JUMPDEST POP SWAP1 SWAP6 SWAP5 POP POP POP POP POP JUMP JUMPDEST PUSH0 PUSH0 PUSH1 0x40 DUP4 DUP6 SUB SLT ISZERO PUSH2 0x2DC8 JUMPI PUSH0 PUSH0 REVERT JUMPDEST DUP3 CALLDATALOAD SWAP2 POP PUSH2 0x2DD8 PUSH1 0x20 DUP5 ADD PUSH2 0x2CE7 JUMP JUMPDEST SWAP1 POP SWAP3 POP SWAP3 SWAP1 POP JUMP JUMPDEST PUSH0 PUSH0 PUSH1 0x20 DUP4 DUP6 SUB SLT ISZERO PUSH2 0x2DF2 JUMPI PUSH0 PUSH0 REVERT JUMPDEST DUP3 CALLDATALOAD PUSH8 0xFFFFFFFFFFFFFFFF DUP2 GT ISZERO PUSH2 0x2E08 JUMPI PUSH0 PUSH0 REVERT JUMPDEST DUP4 ADD PUSH1 0x1F DUP2 ADD DUP6 SGT PUSH2 0x2E18 JUMPI PUSH0 PUSH0 REVERT JUMPDEST DUP1 CALLDATALOAD PUSH8 0xFFFFFFFFFFFFFFFF DUP2 GT ISZERO PUSH2 0x2E2E JUMPI PUSH0 PUSH0 REVERT JUMPDEST DUP6 PUSH1 0x20 DUP3 PUSH1 0x5 SHL DUP5 ADD ADD GT ISZERO PUSH2 0x2E42 JUMPI PUSH0 PUSH0 REVERT JUMPDEST PUSH1 0x20 SWAP2 SWAP1 SWAP2 ADD SWAP6 SWAP1 SWAP5 POP SWAP3 POP POP POP JUMP JUMPDEST PUSH0 DUP2 MLOAD DUP1 DUP5 MSTORE PUSH1 0x20 DUP5 ADD SWAP4 POP PUSH1 0x20 DUP4 ADD PUSH0 JUMPDEST DUP3 DUP2 LT ISZERO PUSH2 0x2E82 JUMPI DUP2 MLOAD DUP7 MSTORE PUSH1 0x20 SWAP6 DUP7 ADD SWAP6 SWAP1 SWAP2 ADD SWAP1 PUSH1 0x1 ADD PUSH2 0x2E64 JUMP JUMPDEST POP SWAP4 SWAP5 SWAP4 POP POP POP POP JUMP JUMPDEST PUSH1 0xA0 DUP2 MSTORE PUSH0 PUSH2 0x2E9E PUSH1 0xA0 DUP4 ADD DUP9 PUSH2 0x2E52 JUMP JUMPDEST DUP3 DUP2 SUB PUSH1 0x20 DUP5 ADD MSTORE PUSH2 0x2EB0 DUP2 DUP9 PUSH2 0x2E52 JUMP JUMPDEST SWAP1 POP DUP3 DUP2 SUB PUSH1 0x40 DUP5 ADD MSTORE PUSH2 0x2EC4 DUP2 DUP8 PUSH2 0x2E52 JUMP JUMPDEST SWAP1 POP DUP3 DUP2 SUB PUSH1 0x60 DUP5 ADD MSTORE PUSH2 0x2ED8 DUP2 DUP7 PUSH2 0x2E52 JUMP JUMPDEST SWAP1 POP DUP3 DUP2 SUB PUSH1 0x80 DUP5 ADD MSTORE PUSH2 0x2EEC DUP2 DUP6 PUSH2 0x2E52 JUMP JUMPDEST SWAP9 SWAP8 POP POP POP POP POP POP POP POP JUMP JUMPDEST PUSH1 0x20 DUP1 DUP3 MSTORE DUP3 MLOAD DUP3 DUP3 ADD DUP2 SWAP1 MSTORE PUSH0 SWAP2 DUP5 ADD SWAP1 PUSH1 0x40 DUP5 ADD SWAP1 DUP4 JUMPDEST DUP2 DUP2 LT ISZERO PUSH2 0x2DAC JUMPI DUP4 MLOAD DUP1 MLOAD DUP5 MSTORE PUSH1 0x20 DUP2 ADD MLOAD PUSH1 0x20 DUP6 ADD MSTORE PUSH1 0x40 DUP2 ADD MLOAD PUSH1 0x40 DUP6 ADD MSTORE POP PUSH1 0x60 DUP4 ADD SWAP3 POP PUSH1 0x20 DUP5 ADD SWAP4 POP PUSH1 0x1 DUP2 ADD SWAP1 POP PUSH2 0x2F11 JUMP JUMPDEST PUSH1 0x20 DUP1 DUP3 MSTORE PUSH1 0xD SWAP1 DUP3 ADD MSTORE PUSH13 0x139BC81A5B9D995CDD1B595B9D PUSH1 0x9A SHL PUSH1 0x40 DUP3 ADD MSTORE PUSH1 0x60 ADD SWAP1 JUMP JUMPDEST PUSH4 0x4E487B71 PUSH1 0xE0 SHL PUSH0 MSTORE PUSH1 0x32 PUSH1 0x4 MSTORE PUSH1 0x24 PUSH0 REVERT JUMPDEST PUSH4 0x4E487B71 PUSH1 0xE0 SHL PUSH0 MSTORE PUSH1 0x11 PUSH1 0x4 MSTORE PUSH1 0x24 PUSH0 REVERT JUMPDEST DUP2 DUP2 SUB DUP2 DUP2 GT ISZERO PUSH2 0x142D JUMPI PUSH2 0x142D PUSH2 0x2F86 JUMP JUMPDEST PUSH0 DUP3 PUSH2 0x2FC7 JUMPI PUSH4 0x4E487B71 PUSH1 0xE0 SHL PUSH0 MSTORE PUSH1 0x12 PUSH1 0x4 MSTORE PUSH1 0x24 PUSH0 REVERT JUMPDEST POP DIV SWAP1 JUMP JUMPDEST DUP1 DUP3 MUL DUP2 ISZERO DUP3 DUP3 DIV DUP5 EQ OR PUSH2 0x142D JUMPI PUSH2 0x142D PUSH2 0x2F86 JUMP JUMPDEST DUP1 DUP3 ADD DUP1 DUP3 GT ISZERO PUSH2 0x142D JUMPI PUSH2 0x142D PUSH2 0x2F86 JUMP JUMPDEST PUSH0 PUSH1 0x20 DUP3 DUP5 SUB SLT ISZERO PUSH2 0x3006 JUMPI PUSH0 PUSH0 REVERT JUMPDEST DUP2 MLOAD DUP1 ISZERO ISZERO DUP2 EQ PUSH2 0x2CE0 JUMPI PUSH0 PUSH0 REVERT JUMPDEST PUSH1 0x20 DUP1 DUP3 MSTORE PUSH1 0xF SWAP1 DUP3 ADD MSTORE PUSH15 0x151C985B9CD9995C8819985A5B1959 PUSH1 0x8A SHL PUSH1 0x40 DUP3 ADD MSTORE PUSH1 0x60 ADD SWAP1 JUMP JUMPDEST PUSH1 0x20 DUP1 DUP3 MSTORE PUSH1 0xA SWAP1 DUP3 ADD MSTORE PUSH10 0x27B7363C9037BBB732B9 PUSH1 0xB1 SHL PUSH1 0x40 DUP3 ADD MSTORE PUSH1 0x60 ADD SWAP1 JUMP JUMPDEST PUSH0 PUSH1 0x20 DUP3 DUP5 SUB SLT ISZERO PUSH2 0x3072 JUMPI PUSH0 PUSH0 REVERT JUMPDEST POP MLOAD SWAP2 SWAP1 POP JUMP JUMPDEST PUSH0 PUSH1 0xFF DUP3 AND PUSH1 0xFF DUP2 SUB PUSH2 0x308E JUMPI PUSH2 0x308E PUSH2 0x2F86 JUMP JUMPDEST PUSH1 0x1 ADD SWAP3 SWAP2 POP POP JUMP JUMPDEST PUSH1 0x20 DUP1 DUP3 MSTORE PUSH1 0x18 SWAP1 DUP3 ADD MSTORE PUSH32 0x496E76616C696420696E766573746D656E742072616E67650000000000000000 PUSH1 0x40 DUP3 ADD MSTORE PUSH1 0x60 ADD SWAP1 JUMP JUMPDEST PUSH0 PUSH1 0x1 DUP3 ADD PUSH2 0x30DF JUMPI PUSH2 0x30DF PUSH2 0x2F86 JUMP JUMPDEST POP PUSH1 0x1 ADD SWAP1 JUMP JUMPDEST PUSH4 0x4E487B71 PUSH1 0xE0 SHL PUSH0 MSTORE PUSH1 0x41 PUSH1 0x4 MSTORE PUSH1 0x24 PUSH0 REVERT INVALID LOG2 PUSH5 0x6970667358 0x22 SLT KECCAK256 STOP AND EXP 0x27 PUSH32 0xCD69CB4061BE41952F76366D371A43D35602D79B59BD5E77AF734B64736F6C63 NUMBER STOP ADDMOD 0x1E STOP CALLER "
				},
				"gasEstimates": {
					"creation": {
						"codeDepositCost": "2518400",
						"executionCost": "2716",
						"totalCost": "2521116"
					},
					"external": {
						"RATE()": "283",
						"adminDistributeRealTokens(address)": "infinite",
						"arxinvest(uint256,uint8)": "infinite",
						"batchDistribute(address[])": "infinite",
						"buyTokens(uint256)": "infinite",
						"claimCapital(uint8,uint256)": "infinite",
						"claimDailyROI()": "infinite",
						"claimDailyROI2(uint256)": "infinite",
						"claimDailyROI3(uint256)": "infinite",
						"getCurrentClaimableROI(address)": "infinite",
						"getPurchase(address)": "6950",
						"getROIBreakdown(address,uint256)": "infinite",
						"idToAddress(uint256)": "2542",
						"initialize(address)": "197347",
						"isUserExists(address)": "2580",
						"isUserExistsInvst(address)": "4797",
						"lastUserId()": "2384",
						"owner()": "2391",
						"purchases(address)": "28304",
						"realToken()": "2382",
						"registrationEx(address)": "110538",
						"registrationExInvst(address)": "60024",
						"seeHistroyArx(address)": "infinite",
						"seeHistroyInvst(address,uint256)": "infinite",
						"setRealToken(address)": "28960",
						"usdtToken()": "2403",
						"withdrawUSDT()": "infinite"
					},
					"internal": {
						"_getLevelPercentage(uint8,address)": "5057",
						"_sendLevelIncome(uint256,address)": "infinite",
						"_updateTeamBusiness(uint256,address)": "infinite",
						"registration(address,address)": "infinite",
						"registrationinvst(address,address)": "infinite"
					}
				},
				"methodIdentifiers": {
					"RATE()": "664e9704",
					"adminDistributeRealTokens(address)": "bbf7f772",
					"arxinvest(uint256,uint8)": "98232a38",
					"batchDistribute(address[])": "bed24c24",
					"buyTokens(uint256)": "3610724e",
					"claimCapital(uint8,uint256)": "3f0d55fe",
					"claimDailyROI()": "a9510e82",
					"claimDailyROI2(uint256)": "44dd5e7a",
					"claimDailyROI3(uint256)": "21c82e68",
					"getCurrentClaimableROI(address)": "59450a58",
					"getPurchase(address)": "a275999c",
					"getROIBreakdown(address,uint256)": "e8db280c",
					"idToAddress(uint256)": "2a2d0c47",
					"initialize(address)": "c4d66de8",
					"isUserExists(address)": "509222cd",
					"isUserExistsInvst(address)": "21f8c27d",
					"lastUserId()": "348d4487",
					"owner()": "8da5cb5b",
					"purchases(address)": "842a77d3",
					"realToken()": "76636e5a",
					"registrationEx(address)": "9a29647d",
					"registrationExInvst(address)": "6d704b94",
					"seeHistroyArx(address)": "fd6ef0de",
					"seeHistroyInvst(address,uint256)": "838a1b6d",
					"setRealToken(address)": "416b09dc",
					"usdtToken()": "a98ad46c",
					"withdrawUSDT()": "362e496b"
				}
			},
			"storageLayout": {
				"storage": [
					{
						"astId": 3,
						"contract": "arcanix.sol:ArcanixICO",
						"label": "_initialized",
						"offset": 0,
						"slot": "0",
						"type": "t_bool"
					},
					{
						"astId": 5,
						"contract": "arcanix.sol:ArcanixICO",
						"label": "_initializing",
						"offset": 1,
						"slot": "0",
						"type": "t_bool"
					},
					{
						"astId": 96,
						"contract": "arcanix.sol:ArcanixICO",
						"label": "owner",
						"offset": 2,
						"slot": "0",
						"type": "t_address"
					},
					{
						"astId": 102,
						"contract": "arcanix.sol:ArcanixICO",
						"label": "usdtToken",
						"offset": 0,
						"slot": "1",
						"type": "t_contract(IERC20)92"
					},
					{
						"astId": 105,
						"contract": "arcanix.sol:ArcanixICO",
						"label": "realToken",
						"offset": 0,
						"slot": "2",
						"type": "t_contract(IERC20)92"
					},
					{
						"astId": 107,
						"contract": "arcanix.sol:ArcanixICO",
						"label": "lastUserId",
						"offset": 0,
						"slot": "3",
						"type": "t_uint256"
					},
					{
						"astId": 109,
						"contract": "arcanix.sol:ArcanixICO",
						"label": "ETHER",
						"offset": 0,
						"slot": "4",
						"type": "t_uint256"
					},
					{
						"astId": 111,
						"contract": "arcanix.sol:ArcanixICO",
						"label": "LEVEL",
						"offset": 0,
						"slot": "5",
						"type": "t_uint256"
					},
					{
						"astId": 173,
						"contract": "arcanix.sol:ArcanixICO",
						"label": "purchases",
						"offset": 0,
						"slot": "6",
						"type": "t_mapping(t_address,t_struct(Purchase)168_storage)"
					},
					{
						"astId": 177,
						"contract": "arcanix.sol:ArcanixICO",
						"label": "idToAddress",
						"offset": 0,
						"slot": "7",
						"type": "t_mapping(t_uint256,t_address)"
					}
				],
				"types": {
					"t_address": {
						"encoding": "inplace",
						"label": "address",
						"numberOfBytes": "20"
					},
					"t_array(t_struct(Details)124_storage)dyn_storage": {
						"base": "t_struct(Details)124_storage",
						"encoding": "dynamic_array",
						"label": "struct ArcanixICO.Details[]",
						"numberOfBytes": "32"
					},
					"t_array(t_struct(DetailsICO)131_storage)dyn_storage": {
						"base": "t_struct(DetailsICO)131_storage",
						"encoding": "dynamic_array",
						"label": "struct ArcanixICO.DetailsICO[]",
						"numberOfBytes": "32"
					},
					"t_bool": {
						"encoding": "inplace",
						"label": "bool",
						"numberOfBytes": "1"
					},
					"t_contract(IERC20)92": {
						"encoding": "inplace",
						"label": "contract IERC20",
						"numberOfBytes": "20"
					},
					"t_mapping(t_address,t_struct(Purchase)168_storage)": {
						"encoding": "mapping",
						"key": "t_address",
						"label": "mapping(address => struct ArcanixICO.Purchase)",
						"numberOfBytes": "32",
						"value": "t_struct(Purchase)168_storage"
					},
					"t_mapping(t_uint256,t_address)": {
						"encoding": "mapping",
						"key": "t_uint256",
						"label": "mapping(uint256 => address)",
						"numberOfBytes": "32",
						"value": "t_address"
					},
					"t_mapping(t_uint256,t_array(t_struct(Details)124_storage)dyn_storage)": {
						"encoding": "mapping",
						"key": "t_uint256",
						"label": "mapping(uint256 => struct ArcanixICO.Details[])",
						"numberOfBytes": "32",
						"value": "t_array(t_struct(Details)124_storage)dyn_storage"
					},
					"t_struct(Details)124_storage": {
						"encoding": "inplace",
						"label": "struct ArcanixICO.Details",
						"members": [
							{
								"astId": 113,
								"contract": "arcanix.sol:ArcanixICO",
								"label": "usdtAmount",
								"offset": 0,
								"slot": "0",
								"type": "t_uint256"
							},
							{
								"astId": 115,
								"contract": "arcanix.sol:ArcanixICO",
								"label": "plan",
								"offset": 0,
								"slot": "1",
								"type": "t_uint256"
							},
							{
								"astId": 117,
								"contract": "arcanix.sol:ArcanixICO",
								"label": "timestamp",
								"offset": 0,
								"slot": "2",
								"type": "t_uint256"
							},
							{
								"astId": 119,
								"contract": "arcanix.sol:ArcanixICO",
								"label": "roiPercent",
								"offset": 0,
								"slot": "3",
								"type": "t_uint256"
							},
							{
								"astId": 121,
								"contract": "arcanix.sol:ArcanixICO",
								"label": "claimedROI",
								"offset": 0,
								"slot": "4",
								"type": "t_uint256"
							},
							{
								"astId": 123,
								"contract": "arcanix.sol:ArcanixICO",
								"label": "stakestatus",
								"offset": 0,
								"slot": "5",
								"type": "t_bool"
							}
						],
						"numberOfBytes": "192"
					},
					"t_struct(DetailsICO)131_storage": {
						"encoding": "inplace",
						"label": "struct ArcanixICO.DetailsICO",
						"members": [
							{
								"astId": 126,
								"contract": "arcanix.sol:ArcanixICO",
								"label": "usdt",
								"offset": 0,
								"slot": "0",
								"type": "t_uint256"
							},
							{
								"astId": 128,
								"contract": "arcanix.sol:ArcanixICO",
								"label": "arx",
								"offset": 0,
								"slot": "1",
								"type": "t_uint256"
							},
							{
								"astId": 130,
								"contract": "arcanix.sol:ArcanixICO",
								"label": "timestamp",
								"offset": 0,
								"slot": "2",
								"type": "t_uint256"
							}
						],
						"numberOfBytes": "96"
					},
					"t_struct(Purchase)168_storage": {
						"encoding": "inplace",
						"label": "struct ArcanixICO.Purchase",
						"members": [
							{
								"astId": 133,
								"contract": "arcanix.sol:ArcanixICO",
								"label": "id",
								"offset": 0,
								"slot": "0",
								"type": "t_uint256"
							},
							{
								"astId": 135,
								"contract": "arcanix.sol:ArcanixICO",
								"label": "invst_ref",
								"offset": 0,
								"slot": "1",
								"type": "t_address"
							},
							{
								"astId": 137,
								"contract": "arcanix.sol:ArcanixICO",
								"label": "ico_ref",
								"offset": 0,
								"slot": "2",
								"type": "t_address"
							},
							{
								"astId": 139,
								"contract": "arcanix.sol:ArcanixICO",
								"label": "partnerCount",
								"offset": 0,
								"slot": "3",
								"type": "t_uint256"
							},
							{
								"astId": 141,
								"contract": "arcanix.sol:ArcanixICO",
								"label": "usdtSpentico",
								"offset": 0,
								"slot": "4",
								"type": "t_uint256"
							},
							{
								"astId": 143,
								"contract": "arcanix.sol:ArcanixICO",
								"label": "usdtSpentinvst",
								"offset": 0,
								"slot": "5",
								"type": "t_uint256"
							},
							{
								"astId": 145,
								"contract": "arcanix.sol:ArcanixICO",
								"label": "tokensReceived",
								"offset": 0,
								"slot": "6",
								"type": "t_uint256"
							},
							{
								"astId": 147,
								"contract": "arcanix.sol:ArcanixICO",
								"label": "totalROIClaimed",
								"offset": 0,
								"slot": "7",
								"type": "t_uint256"
							},
							{
								"astId": 149,
								"contract": "arcanix.sol:ArcanixICO",
								"label": "targetROI",
								"offset": 0,
								"slot": "8",
								"type": "t_uint256"
							},
							{
								"astId": 151,
								"contract": "arcanix.sol:ArcanixICO",
								"label": "lastClaimedAt",
								"offset": 0,
								"slot": "9",
								"type": "t_uint256"
							},
							{
								"astId": 153,
								"contract": "arcanix.sol:ArcanixICO",
								"label": "distributed",
								"offset": 0,
								"slot": "10",
								"type": "t_bool"
							},
							{
								"astId": 155,
								"contract": "arcanix.sol:ArcanixICO",
								"label": "refToken",
								"offset": 0,
								"slot": "11",
								"type": "t_uint256"
							},
							{
								"astId": 157,
								"contract": "arcanix.sol:ArcanixICO",
								"label": "teambusiness",
								"offset": 0,
								"slot": "12",
								"type": "t_uint256"
							},
							{
								"astId": 163,
								"contract": "arcanix.sol:ArcanixICO",
								"label": "_detail",
								"offset": 0,
								"slot": "13",
								"type": "t_mapping(t_uint256,t_array(t_struct(Details)124_storage)dyn_storage)"
							},
							{
								"astId": 167,
								"contract": "arcanix.sol:ArcanixICO",
								"label": "_detailarx",
								"offset": 0,
								"slot": "14",
								"type": "t_array(t_struct(DetailsICO)131_storage)dyn_storage"
							}
						],
						"numberOfBytes": "480"
					},
					"t_uint256": {
						"encoding": "inplace",
						"label": "uint256",
						"numberOfBytes": "32"
					}
				}
			},
			"userdoc": {
				"kind": "user",
				"methods": {
					"adminDistributeRealTokens(address)": {
						"notice": "Distribute real tokens to a specific user"
					},
					"batchDistribute(address[])": {
						"notice": "Batch distribute real tokens to multiple users"
					},
					"setRealToken(address)": {
						"notice": "Set the real token address (only once)"
					}
				},
				"version": 1
			}
		}
	}
}