{
	"profxexpo.sol": {
		"PROFXEXPO": {
			"abi": [
				{
					"anonymous": false,
					"inputs": [
						{
							"indexed": true,
							"internalType": "address",
							"name": "investor",
							"type": "address"
						},
						{
							"indexed": false,
							"internalType": "uint256",
							"name": "netAmt",
							"type": "uint256"
						}
					],
					"name": "MemberPayment",
					"type": "event"
				},
				{
					"anonymous": false,
					"inputs": [
						{
							"indexed": true,
							"internalType": "address",
							"name": "previousOwner",
							"type": "address"
						},
						{
							"indexed": true,
							"internalType": "address",
							"name": "newOwner",
							"type": "address"
						}
					],
					"name": "OwnershipTransferred",
					"type": "event"
				},
				{
					"anonymous": false,
					"inputs": [
						{
							"indexed": false,
							"internalType": "address",
							"name": "account",
							"type": "address"
						}
					],
					"name": "Paused",
					"type": "event"
				},
				{
					"anonymous": false,
					"inputs": [
						{
							"indexed": true,
							"internalType": "address",
							"name": "user",
							"type": "address"
						},
						{
							"indexed": true,
							"internalType": "address",
							"name": "referrer",
							"type": "address"
						},
						{
							"indexed": false,
							"internalType": "uint256",
							"name": "userId",
							"type": "uint256"
						},
						{
							"indexed": false,
							"internalType": "uint256",
							"name": "referrerId",
							"type": "uint256"
						},
						{
							"indexed": false,
							"internalType": "string",
							"name": "regby",
							"type": "string"
						}
					],
					"name": "Registration",
					"type": "event"
				},
				{
					"anonymous": false,
					"inputs": [
						{
							"indexed": true,
							"internalType": "address",
							"name": "user",
							"type": "address"
						},
						{
							"indexed": false,
							"internalType": "uint256",
							"name": "amount",
							"type": "uint256"
						},
						{
							"indexed": false,
							"internalType": "uint256",
							"name": "token",
							"type": "uint256"
						},
						{
							"indexed": false,
							"internalType": "string",
							"name": "plan",
							"type": "string"
						},
						{
							"indexed": false,
							"internalType": "string",
							"name": "tyyp",
							"type": "string"
						},
						{
							"indexed": false,
							"internalType": "uint256",
							"name": "plantype",
							"type": "uint256"
						}
					],
					"name": "Stake",
					"type": "event"
				},
				{
					"anonymous": false,
					"inputs": [
						{
							"indexed": true,
							"internalType": "address",
							"name": "user",
							"type": "address"
						},
						{
							"indexed": false,
							"internalType": "uint256",
							"name": "amount",
							"type": "uint256"
						},
						{
							"indexed": false,
							"internalType": "uint256",
							"name": "token",
							"type": "uint256"
						},
						{
							"indexed": false,
							"internalType": "string",
							"name": "plan",
							"type": "string"
						}
					],
					"name": "ToppedUp",
					"type": "event"
				},
				{
					"anonymous": false,
					"inputs": [
						{
							"indexed": false,
							"internalType": "address",
							"name": "account",
							"type": "address"
						}
					],
					"name": "Unpaused",
					"type": "event"
				},
				{
					"anonymous": false,
					"inputs": [
						{
							"indexed": true,
							"internalType": "address",
							"name": "user",
							"type": "address"
						},
						{
							"indexed": false,
							"internalType": "uint256",
							"name": "amount",
							"type": "uint256"
						},
						{
							"indexed": false,
							"internalType": "uint256",
							"name": "nonce",
							"type": "uint256"
						}
					],
					"name": "Withdraw",
					"type": "event"
				},
				{
					"inputs": [],
					"name": "LASTLEVEL",
					"outputs": [
						{
							"internalType": "uint256",
							"name": "",
							"type": "uint256"
						}
					],
					"stateMutability": "view",
					"type": "function"
				},
				{
					"inputs": [],
					"name": "PERCENT_DIVIDER",
					"outputs": [
						{
							"internalType": "uint256",
							"name": "",
							"type": "uint256"
						}
					],
					"stateMutability": "view",
					"type": "function"
				},
				{
					"inputs": [],
					"name": "TIME_STEP",
					"outputs": [
						{
							"internalType": "uint256",
							"name": "",
							"type": "uint256"
						}
					],
					"stateMutability": "view",
					"type": "function"
				},
				{
					"inputs": [],
					"name": "USDT",
					"outputs": [
						{
							"internalType": "address",
							"name": "",
							"type": "address"
						}
					],
					"stateMutability": "view",
					"type": "function"
				},
				{
					"inputs": [],
					"name": "UnitySign",
					"outputs": [
						{
							"internalType": "address",
							"name": "",
							"type": "address"
						}
					],
					"stateMutability": "view",
					"type": "function"
				},
				{
					"inputs": [],
					"name": "admin",
					"outputs": [
						{
							"internalType": "address",
							"name": "",
							"type": "address"
						}
					],
					"stateMutability": "view",
					"type": "function"
				},
				{
					"inputs": [
						{
							"internalType": "uint256",
							"name": "",
							"type": "uint256"
						}
					],
					"name": "adminAchivers",
					"outputs": [
						{
							"internalType": "address",
							"name": "",
							"type": "address"
						}
					],
					"stateMutability": "view",
					"type": "function"
				},
				{
					"inputs": [],
					"name": "airdropAmount",
					"outputs": [
						{
							"internalType": "uint256",
							"name": "",
							"type": "uint256"
						}
					],
					"stateMutability": "view",
					"type": "function"
				},
				{
					"inputs": [
						{
							"internalType": "uint256",
							"name": "",
							"type": "uint256"
						}
					],
					"name": "airdropLevelShares",
					"outputs": [
						{
							"internalType": "uint256",
							"name": "",
							"type": "uint256"
						}
					],
					"stateMutability": "view",
					"type": "function"
				},
				{
					"inputs": [],
					"name": "airdropPerMonth",
					"outputs": [
						{
							"internalType": "uint256",
							"name": "",
							"type": "uint256"
						}
					],
					"stateMutability": "view",
					"type": "function"
				},
				{
					"inputs": [],
					"name": "airdropUserCount",
					"outputs": [
						{
							"internalType": "uint256",
							"name": "",
							"type": "uint256"
						}
					],
					"stateMutability": "view",
					"type": "function"
				},
				{
					"inputs": [
						{
							"internalType": "address",
							"name": "user",
							"type": "address"
						},
						{
							"internalType": "uint256",
							"name": "weeklyReward",
							"type": "uint256"
						},
						{
							"internalType": "uint256",
							"name": "deadline",
							"type": "uint256"
						}
					],
					"name": "getWithdrawHash",
					"outputs": [
						{
							"internalType": "bytes32",
							"name": "",
							"type": "bytes32"
						}
					],
					"stateMutability": "view",
					"type": "function"
				},
				{
					"inputs": [
						{
							"internalType": "uint256",
							"name": "",
							"type": "uint256"
						}
					],
					"name": "idToAddress",
					"outputs": [
						{
							"internalType": "address",
							"name": "",
							"type": "address"
						}
					],
					"stateMutability": "view",
					"type": "function"
				},
				{
					"inputs": [
						{
							"internalType": "address",
							"name": "_usdt",
							"type": "address"
						},
						{
							"internalType": "address",
							"name": "_owner",
							"type": "address"
						}
					],
					"name": "initialize",
					"outputs": [],
					"stateMutability": "nonpayable",
					"type": "function"
				},
				{
					"inputs": [
						{
							"internalType": "address",
							"name": "",
							"type": "address"
						}
					],
					"name": "isAdminAchived",
					"outputs": [
						{
							"internalType": "bool",
							"name": "",
							"type": "bool"
						}
					],
					"stateMutability": "view",
					"type": "function"
				},
				{
					"inputs": [],
					"name": "isAirdropPaused",
					"outputs": [
						{
							"internalType": "bool",
							"name": "",
							"type": "bool"
						}
					],
					"stateMutability": "view",
					"type": "function"
				},
				{
					"inputs": [
						{
							"internalType": "address",
							"name": "user",
							"type": "address"
						}
					],
					"name": "isUserExists",
					"outputs": [
						{
							"internalType": "bool",
							"name": "",
							"type": "bool"
						}
					],
					"stateMutability": "view",
					"type": "function"
				},
				{
					"inputs": [],
					"name": "joiningFee",
					"outputs": [
						{
							"internalType": "uint256",
							"name": "",
							"type": "uint256"
						}
					],
					"stateMutability": "view",
					"type": "function"
				},
				{
					"inputs": [],
					"name": "lastUserId",
					"outputs": [
						{
							"internalType": "uint256",
							"name": "",
							"type": "uint256"
						}
					],
					"stateMutability": "view",
					"type": "function"
				},
				{
					"inputs": [
						{
							"internalType": "uint256",
							"name": "",
							"type": "uint256"
						}
					],
					"name": "levelBonusShares",
					"outputs": [
						{
							"internalType": "uint256",
							"name": "",
							"type": "uint256"
						}
					],
					"stateMutability": "view",
					"type": "function"
				},
				{
					"inputs": [],
					"name": "levelRoiPerDay",
					"outputs": [
						{
							"internalType": "uint256",
							"name": "",
							"type": "uint256"
						}
					],
					"stateMutability": "view",
					"type": "function"
				},
				{
					"inputs": [
						{
							"internalType": "uint256",
							"name": "",
							"type": "uint256"
						}
					],
					"name": "levelShare",
					"outputs": [
						{
							"internalType": "uint256",
							"name": "",
							"type": "uint256"
						}
					],
					"stateMutability": "view",
					"type": "function"
				},
				{
					"inputs": [],
					"name": "maxStake",
					"outputs": [
						{
							"internalType": "uint256",
							"name": "",
							"type": "uint256"
						}
					],
					"stateMutability": "view",
					"type": "function"
				},
				{
					"inputs": [],
					"name": "minStake",
					"outputs": [
						{
							"internalType": "uint256",
							"name": "",
							"type": "uint256"
						}
					],
					"stateMutability": "view",
					"type": "function"
				},
				{
					"inputs": [],
					"name": "minWithdraw",
					"outputs": [
						{
							"internalType": "uint256",
							"name": "",
							"type": "uint256"
						}
					],
					"stateMutability": "view",
					"type": "function"
				},
				{
					"inputs": [],
					"name": "multipler",
					"outputs": [
						{
							"internalType": "uint256",
							"name": "",
							"type": "uint256"
						}
					],
					"stateMutability": "view",
					"type": "function"
				},
				{
					"inputs": [
						{
							"internalType": "address payable[]",
							"name": "_contributors",
							"type": "address[]"
						},
						{
							"internalType": "uint256[]",
							"name": "_balances",
							"type": "uint256[]"
						},
						{
							"internalType": "uint256",
							"name": "totalQty",
							"type": "uint256"
						},
						{
							"internalType": "contract IERC20",
							"name": "_TKN",
							"type": "address"
						}
					],
					"name": "multisendToken",
					"outputs": [],
					"stateMutability": "payable",
					"type": "function"
				},
				{
					"inputs": [
						{
							"internalType": "address",
							"name": "",
							"type": "address"
						}
					],
					"name": "nonce",
					"outputs": [
						{
							"internalType": "uint256",
							"name": "",
							"type": "uint256"
						}
					],
					"stateMutability": "view",
					"type": "function"
				},
				{
					"inputs": [],
					"name": "operator",
					"outputs": [
						{
							"internalType": "address",
							"name": "",
							"type": "address"
						}
					],
					"stateMutability": "view",
					"type": "function"
				},
				{
					"inputs": [],
					"name": "owner",
					"outputs": [
						{
							"internalType": "address",
							"name": "",
							"type": "address"
						}
					],
					"stateMutability": "view",
					"type": "function"
				},
				{
					"inputs": [
						{
							"internalType": "uint256",
							"name": "",
							"type": "uint256"
						}
					],
					"name": "packageMinAmounts",
					"outputs": [
						{
							"internalType": "uint256",
							"name": "",
							"type": "uint256"
						}
					],
					"stateMutability": "view",
					"type": "function"
				},
				{
					"inputs": [
						{
							"internalType": "uint256",
							"name": "",
							"type": "uint256"
						}
					],
					"name": "packages",
					"outputs": [
						{
							"internalType": "uint256",
							"name": "packageId",
							"type": "uint256"
						},
						{
							"internalType": "uint256",
							"name": "minAmount",
							"type": "uint256"
						},
						{
							"internalType": "uint256",
							"name": "dailyROI",
							"type": "uint256"
						},
						{
							"internalType": "uint256",
							"name": "lockinDuration",
							"type": "uint256"
						},
						{
							"internalType": "string",
							"name": "packageName",
							"type": "string"
						}
					],
					"stateMutability": "view",
					"type": "function"
				},
				{
					"inputs": [],
					"name": "pause",
					"outputs": [],
					"stateMutability": "nonpayable",
					"type": "function"
				},
				{
					"inputs": [],
					"name": "paused",
					"outputs": [
						{
							"internalType": "bool",
							"name": "",
							"type": "bool"
						}
					],
					"stateMutability": "view",
					"type": "function"
				},
				{
					"inputs": [],
					"name": "renounceOwnership",
					"outputs": [],
					"stateMutability": "nonpayable",
					"type": "function"
				},
				{
					"inputs": [],
					"name": "roiPerDay",
					"outputs": [
						{
							"internalType": "uint256",
							"name": "",
							"type": "uint256"
						}
					],
					"stateMutability": "view",
					"type": "function"
				},
				{
					"inputs": [
						{
							"internalType": "address",
							"name": "_UnitySign",
							"type": "address"
						}
					],
					"name": "setUnitySignWallet",
					"outputs": [],
					"stateMutability": "nonpayable",
					"type": "function"
				},
				{
					"inputs": [
						{
							"internalType": "uint256",
							"name": "amount",
							"type": "uint256"
						},
						{
							"internalType": "uint256",
							"name": "plan",
							"type": "uint256"
						},
						{
							"internalType": "address",
							"name": "_referral",
							"type": "address"
						}
					],
					"name": "stakestDSC",
					"outputs": [],
					"stateMutability": "nonpayable",
					"type": "function"
				},
				{
					"inputs": [],
					"name": "totalStaked",
					"outputs": [
						{
							"internalType": "uint256",
							"name": "",
							"type": "uint256"
						}
					],
					"stateMutability": "view",
					"type": "function"
				},
				{
					"inputs": [],
					"name": "totalWithdrawal",
					"outputs": [
						{
							"internalType": "uint256",
							"name": "",
							"type": "uint256"
						}
					],
					"stateMutability": "view",
					"type": "function"
				},
				{
					"inputs": [
						{
							"internalType": "address",
							"name": "newOwner",
							"type": "address"
						}
					],
					"name": "transferOwnership",
					"outputs": [],
					"stateMutability": "nonpayable",
					"type": "function"
				},
				{
					"inputs": [],
					"name": "unpause",
					"outputs": [],
					"stateMutability": "nonpayable",
					"type": "function"
				},
				{
					"inputs": [
						{
							"internalType": "address",
							"name": "",
							"type": "address"
						}
					],
					"name": "users",
					"outputs": [
						{
							"internalType": "uint256",
							"name": "userId",
							"type": "uint256"
						},
						{
							"internalType": "address",
							"name": "referrer",
							"type": "address"
						},
						{
							"internalType": "uint256",
							"name": "partnerCount",
							"type": "uint256"
						},
						{
							"internalType": "uint256",
							"name": "totalStake",
							"type": "uint256"
						},
						{
							"internalType": "uint256",
							"name": "directBusiness",
							"type": "uint256"
						},
						{
							"internalType": "uint256",
							"name": "teamBusiness",
							"type": "uint256"
						},
						{
							"internalType": "uint256",
							"name": "lastinvest",
							"type": "uint256"
						},
						{
							"internalType": "uint256",
							"name": "rewTaken",
							"type": "uint256"
						},
						{
							"internalType": "uint256",
							"name": "stakecount",
							"type": "uint256"
						},
						{
							"internalType": "uint256",
							"name": "partnersCount",
							"type": "uint256"
						},
						{
							"internalType": "uint256",
							"name": "levelIncome",
							"type": "uint256"
						},
						{
							"internalType": "bool",
							"name": "onof",
							"type": "bool"
						}
					],
					"stateMutability": "view",
					"type": "function"
				},
				{
					"inputs": [
						{
							"internalType": "uint256",
							"name": "WithAmt",
							"type": "uint256"
						}
					],
					"name": "withdrawLost",
					"outputs": [],
					"stateMutability": "nonpayable",
					"type": "function"
				},
				{
					"inputs": [
						{
							"internalType": "uint256",
							"name": "QtyAmt",
							"type": "uint256"
						},
						{
							"internalType": "contract IERC20",
							"name": "_TOKEN",
							"type": "address"
						}
					],
					"name": "withdrawLostTokenFromBalance",
					"outputs": [],
					"stateMutability": "nonpayable",
					"type": "function"
				},
				{
					"inputs": [
						{
							"internalType": "uint256",
							"name": "amount",
							"type": "uint256"
						},
						{
							"internalType": "uint8",
							"name": "v",
							"type": "uint8"
						},
						{
							"internalType": "bytes32",
							"name": "r",
							"type": "bytes32"
						},
						{
							"internalType": "bytes32",
							"name": "s",
							"type": "bytes32"
						},
						{
							"internalType": "uint256",
							"name": "deadline",
							"type": "uint256"
						}
					],
					"name": "withdrawWeeklyReward",
					"outputs": [],
					"stateMutability": "nonpayable",
					"type": "function"
				}
			],
			"devdoc": {
				"kind": "dev",
				"methods": {},
				"version": 1
			},
			"evm": {
				"assembly": "    /* \"profxexpo.sol\":4509:14402  contract PROFXEXPO is  Ownable, Pausable, Initializable, ReentrancyGuard {... */\n  mstore(0x40, 0x80)\n  callvalue\n  dup1\n  iszero\n  tag_1\n  jumpi\n  revert(0x00, 0x00)\ntag_1:\n  pop\n    /* \"profxexpo.sol\":448:449  1 */\n  0x01\n    /* \"profxexpo.sol\":553:575  _status = _NOT_ENTERED */\n  dup1\n  sstore\n    /* \"profxexpo.sol\":4509:14402  contract PROFXEXPO is  Ownable, Pausable, Initializable, ReentrancyGuard {... */\n  dataSize(sub_0)\n  dup1\n  dataOffset(sub_0)\n  0x00\n  codecopy\n  0x00\n  return\nstop\n\nsub_0: assembly {\n        /* \"profxexpo.sol\":4509:14402  contract PROFXEXPO is  Ownable, Pausable, Initializable, ReentrancyGuard {... */\n      mstore(0x40, 0x80)\n      jumpi(tag_1, lt(calldatasize, 0x04))\n      shr(0xe0, calldataload(0x00))\n      dup1\n      0x7b500564\n      gt\n      tag_48\n      jumpi\n      dup1\n      0xca33fa3f\n      gt\n      tag_49\n      jumpi\n      dup1\n      0xeff4228a\n      gt\n      tag_50\n      jumpi\n      dup1\n      0xeff4228a\n      eq\n      tag_42\n      jumpi\n      dup1\n      0xf2fde38b\n      eq\n      tag_43\n      jumpi\n      dup1\n      0xf3b2aa94\n      eq\n      tag_44\n      jumpi\n      dup1\n      0xf851a440\n      eq\n      tag_45\n      jumpi\n      dup1\n      0xfa13a304\n      eq\n      tag_46\n      jumpi\n      dup1\n      0xfc2ea8a5\n      eq\n      tag_47\n      jumpi\n      revert(0x00, 0x00)\n    tag_50:\n      dup1\n      0xca33fa3f\n      eq\n      tag_36\n      jumpi\n      dup1\n      0xcc3d2721\n      eq\n      tag_37\n      jumpi\n      dup1\n      0xd58ea276\n      eq\n      tag_38\n      jumpi\n      dup1\n      0xd8a04dfa\n      eq\n      tag_39\n      jumpi\n      dup1\n      0xdc43f0e6\n      eq\n      tag_40\n      jumpi\n      dup1\n      0xea1b28e0\n      eq\n      tag_41\n      jumpi\n      revert(0x00, 0x00)\n    tag_49:\n      dup1\n      0x8da5cb5b\n      gt\n      tag_51\n      jumpi\n      dup1\n      0x8da5cb5b\n      eq\n      tag_30\n      jumpi\n      dup1\n      0x99f584b3\n      eq\n      tag_31\n      jumpi\n      dup1\n      0xa87430ba\n      eq\n      tag_32\n      jumpi\n      dup1\n      0xc216212a\n      eq\n      tag_33\n      jumpi\n      dup1\n      0xc2685793\n      eq\n      tag_34\n      jumpi\n      dup1\n      0xc54e44eb\n      eq\n      tag_35\n      jumpi\n      revert(0x00, 0x00)\n    tag_51:\n      dup1\n      0x7b500564\n      eq\n      tag_25\n      jumpi\n      dup1\n      0x817b1cd2\n      eq\n      tag_26\n      jumpi\n      dup1\n      0x82f4c6a6\n      eq\n      tag_27\n      jumpi\n      dup1\n      0x84412cc7\n      eq\n      tag_28\n      jumpi\n      dup1\n      0x8456cb59\n      eq\n      tag_29\n      jumpi\n      revert(0x00, 0x00)\n    tag_48:\n      dup1\n      0x485cc955\n      gt\n      tag_52\n      jumpi\n      dup1\n      0x6b56ee02\n      gt\n      tag_53\n      jumpi\n      dup1\n      0x6b56ee02\n      eq\n      tag_19\n      jumpi\n      dup1\n      0x6eeeaaa5\n      eq\n      tag_20\n      jumpi\n      dup1\n      0x70ae92d2\n      eq\n      tag_21\n      jumpi\n      dup1\n      0x715018a6\n      eq\n      tag_22\n      jumpi\n      dup1\n      0x71747dc5\n      eq\n      tag_23\n      jumpi\n      dup1\n      0x73a5028a\n      eq\n      tag_24\n      jumpi\n      revert(0x00, 0x00)\n    tag_53:\n      dup1\n      0x485cc955\n      eq\n      tag_13\n      jumpi\n      dup1\n      0x509222cd\n      eq\n      tag_14\n      jumpi\n      dup1\n      0x570ca735\n      eq\n      tag_15\n      jumpi\n      dup1\n      0x578013e0\n      eq\n      tag_16\n      jumpi\n      dup1\n      0x5abca48d\n      eq\n      tag_17\n      jumpi\n      dup1\n      0x5c975abb\n      eq\n      tag_18\n      jumpi\n      revert(0x00, 0x00)\n    tag_52:\n      dup1\n      0x32bc298c\n      gt\n      tag_54\n      jumpi\n      dup1\n      0x32bc298c\n      eq\n      tag_7\n      jumpi\n      dup1\n      0x348d4487\n      eq\n      tag_8\n      jumpi\n      dup1\n      0x375b3c0a\n      eq\n      tag_9\n      jumpi\n      dup1\n      0x383143e5\n      eq\n      tag_10\n      jumpi\n      dup1\n      0x3f4ba83a\n      eq\n      tag_11\n      jumpi\n      dup1\n      0x452b4729\n      eq\n      tag_12\n      jumpi\n      revert(0x00, 0x00)\n    tag_54:\n      dup1\n      0x02121272\n      eq\n      tag_2\n      jumpi\n      dup1\n      0x0da5a1b7\n      eq\n      tag_3\n      jumpi\n      dup1\n      0x29fc7bd8\n      eq\n      tag_4\n      jumpi\n      dup1\n      0x2a2d0c47\n      eq\n      tag_5\n      jumpi\n      dup1\n      0x2dd4f9b0\n      eq\n      tag_6\n      jumpi\n    tag_1:\n      revert(0x00, 0x00)\n        /* \"profxexpo.sol\":5863:5898  uint256[] public airdropLevelShares */\n    tag_2:\n      callvalue\n      dup1\n      iszero\n      tag_55\n      jumpi\n      revert(0x00, 0x00)\n    tag_55:\n      pop\n      tag_56\n      tag_57\n      calldatasize\n      0x04\n      tag_58\n      jump\t// in\n    tag_57:\n      tag_59\n      jump\t// in\n    tag_56:\n      mload(0x40)\n        /* \"#utility.yul\":391:416   */\n      swap1\n      dup2\n      mstore\n        /* \"#utility.yul\":379:381   */\n      0x20\n        /* \"#utility.yul\":364:382   */\n      add\n        /* \"profxexpo.sol\":5863:5898  uint256[] public airdropLevelShares */\n    tag_60:\n      mload(0x40)\n      dup1\n      swap2\n      sub\n      swap1\n      return\n        /* \"profxexpo.sol\":5488:5519  uint256 public airdropUserCount */\n    tag_3:\n      callvalue\n      dup1\n      iszero\n      tag_62\n      jumpi\n      revert(0x00, 0x00)\n    tag_62:\n      pop\n      tag_56\n      sload(0x0d)\n      dup2\n      jump\n        /* \"profxexpo.sol\":5690:5720  uint256 public PERCENT_DIVIDER */\n    tag_4:\n      callvalue\n      dup1\n      iszero\n      tag_66\n      jumpi\n      revert(0x00, 0x00)\n    tag_66:\n      pop\n      tag_56\n      sload(0x13)\n      dup2\n      jump\n        /* \"profxexpo.sol\":6078:6124  mapping(uint256 => address) public idToAddress */\n    tag_5:\n      callvalue\n      dup1\n      iszero\n      tag_70\n      jumpi\n      revert(0x00, 0x00)\n    tag_70:\n      pop\n      tag_71\n      tag_72\n      calldatasize\n      0x04\n      tag_58\n      jump\t// in\n    tag_72:\n      mstore(0x20, 0x1d)\n      0x00\n      swap1\n      dup2\n      mstore\n      0x40\n      swap1\n      keccak256\n      sload\n      sub(shl(0xa0, 0x01), 0x01)\n      and\n      dup2\n      jump\n    tag_71:\n      mload(0x40)\n      sub(shl(0xa0, 0x01), 0x01)\n        /* \"#utility.yul\":591:623   */\n      swap1\n      swap2\n      and\n        /* \"#utility.yul\":573:624   */\n      dup2\n      mstore\n        /* \"#utility.yul\":561:563   */\n      0x20\n        /* \"#utility.yul\":546:564   */\n      add\n        /* \"profxexpo.sol\":6078:6124  mapping(uint256 => address) public idToAddress */\n      tag_60\n        /* \"#utility.yul\":427:630   */\n      jump\n        /* \"profxexpo.sol\":5726:5750  uint256 public LASTLEVEL */\n    tag_6:\n      callvalue\n      dup1\n      iszero\n      tag_76\n      jumpi\n      revert(0x00, 0x00)\n    tag_76:\n      pop\n      tag_56\n      sload(0x14)\n      dup2\n      jump\n        /* \"profxexpo.sol\":5629:5653  uint256 public TIME_STEP */\n    tag_7:\n      callvalue\n      dup1\n      iszero\n      tag_80\n      jumpi\n      revert(0x00, 0x00)\n    tag_80:\n      pop\n      tag_56\n      sload(0x11)\n      dup2\n      jump\n        /* \"profxexpo.sol\":5659:5684  uint256 public lastUserId */\n    tag_8:\n      callvalue\n      dup1\n      iszero\n      tag_84\n      jumpi\n      revert(0x00, 0x00)\n    tag_84:\n      pop\n      tag_56\n      sload(0x12)\n      dup2\n      jump\n        /* \"profxexpo.sol\":5429:5452  uint256 public minStake */\n    tag_9:\n      callvalue\n      dup1\n      iszero\n      tag_88\n      jumpi\n      revert(0x00, 0x00)\n    tag_88:\n      pop\n      tag_56\n      sload(0x0b)\n      dup2\n      jump\n        /* \"profxexpo.sol\":5559:5589  uint256 public airdropPerMonth */\n    tag_10:\n      callvalue\n      dup1\n      iszero\n      tag_92\n      jumpi\n      revert(0x00, 0x00)\n    tag_92:\n      pop\n      tag_56\n      sload(0x0f)\n      dup2\n      jump\n        /* \"profxexpo.sol\":11866:11933  function unpause() external onlyOperator {... */\n    tag_11:\n      callvalue\n      dup1\n      iszero\n      tag_96\n      jumpi\n      revert(0x00, 0x00)\n    tag_96:\n      pop\n      tag_97\n      tag_98\n      jump\t// in\n    tag_97:\n      stop\n        /* \"profxexpo.sol\":5940:5977  mapping(uint=>uint) public levelShare */\n    tag_12:\n      callvalue\n      dup1\n      iszero\n      tag_99\n      jumpi\n      revert(0x00, 0x00)\n    tag_99:\n      pop\n      tag_56\n      tag_101\n      calldatasize\n      0x04\n      tag_58\n      jump\t// in\n    tag_101:\n      mstore(0x20, 0x1a)\n      0x00\n      swap1\n      dup2\n      mstore\n      0x40\n      swap1\n      keccak256\n      sload\n      dup2\n      jump\n        /* \"profxexpo.sol\":6883:8173  function initialize( address _usdt, address _owner)  external initializer  {... */\n    tag_13:\n      callvalue\n      dup1\n      iszero\n      tag_104\n      jumpi\n      revert(0x00, 0x00)\n    tag_104:\n      pop\n      tag_97\n      tag_106\n      calldatasize\n      0x04\n      tag_107\n      jump\t// in\n    tag_106:\n      tag_108\n      jump\t// in\n        /* \"profxexpo.sol\":11678:11790  function isUserExists(address user) public view returns (bool) {... */\n    tag_14:\n      callvalue\n      dup1\n      iszero\n      tag_109\n      jumpi\n      revert(0x00, 0x00)\n    tag_109:\n      pop\n      tag_110\n      tag_111\n      calldatasize\n      0x04\n      tag_112\n      jump\t// in\n    tag_111:\n      sub(shl(0xa0, 0x01), 0x01)\n        /* \"profxexpo.sol\":11759:11770  users[user] */\n      and\n        /* \"profxexpo.sol\":11735:11739  bool */\n      0x00\n        /* \"profxexpo.sol\":11759:11770  users[user] */\n      swap1\n      dup2\n      mstore\n        /* \"profxexpo.sol\":11759:11764  users */\n      0x1c\n        /* \"profxexpo.sol\":11759:11770  users[user] */\n      0x20\n      mstore\n      0x40\n      swap1\n      keccak256\n        /* \"profxexpo.sol\":11759:11777  users[user].userId */\n      sload\n        /* \"profxexpo.sol\":11759:11782  users[user].userId != 0 */\n      iszero\n      iszero\n      swap1\n        /* \"profxexpo.sol\":11678:11790  function isUserExists(address user) public view returns (bool) {... */\n      jump\n    tag_110:\n      mload(0x40)\n        /* \"#utility.yul\":1581:1595   */\n      swap1\n      iszero\n        /* \"#utility.yul\":1574:1596   */\n      iszero\n        /* \"#utility.yul\":1556:1597   */\n      dup2\n      mstore\n        /* \"#utility.yul\":1544:1546   */\n      0x20\n        /* \"#utility.yul\":1529:1547   */\n      add\n        /* \"profxexpo.sol\":11678:11790  function isUserExists(address user) public view returns (bool) {... */\n      tag_60\n        /* \"#utility.yul\":1416:1603   */\n      jump\n        /* \"profxexpo.sol\":5186:5209  address public operator */\n    tag_15:\n      callvalue\n      dup1\n      iszero\n      tag_116\n      jumpi\n      revert(0x00, 0x00)\n    tag_116:\n      pop\n      sload(0x03)\n      tag_71\n      swap1\n      sub(shl(0xa0, 0x01), 0x01)\n      and\n      dup2\n      jump\n        /* \"profxexpo.sol\":5983:6029  mapping(address => bool) public isAdminAchived */\n    tag_16:\n      callvalue\n      dup1\n      iszero\n      tag_120\n      jumpi\n      revert(0x00, 0x00)\n    tag_120:\n      pop\n      tag_110\n      tag_122\n      calldatasize\n      0x04\n      tag_112\n      jump\t// in\n    tag_122:\n      mstore(0x20, 0x1b)\n      0x00\n      swap1\n      dup2\n      mstore\n      0x40\n      swap1\n      keccak256\n      sload\n      0xff\n      and\n      dup2\n      jump\n        /* \"profxexpo.sol\":12776:13219  function getWithdrawHash(... */\n    tag_17:\n      callvalue\n      dup1\n      iszero\n      tag_125\n      jumpi\n      revert(0x00, 0x00)\n    tag_125:\n      pop\n      tag_56\n      tag_127\n      calldatasize\n      0x04\n      tag_128\n      jump\t// in\n    tag_127:\n      tag_129\n      jump\t// in\n        /* \"profxexpo.sol\":3953:4037  function paused() public view virtual returns (bool) {... */\n    tag_18:\n      callvalue\n      dup1\n      iszero\n      tag_132\n      jumpi\n      revert(0x00, 0x00)\n    tag_132:\n      pop\n        /* \"profxexpo.sol\":4000:4004  bool */\n      0x00\n        /* \"profxexpo.sol\":4023:4030  _paused */\n      sload\n      shl(0xa0, 0x01)\n      swap1\n      div\n      0xff\n      and\n        /* \"profxexpo.sol\":3953:4037  function paused() public view virtual returns (bool) {... */\n      jump(tag_110)\n        /* \"profxexpo.sol\":5788:5818  uint256 public totalWithdrawal */\n    tag_19:\n      callvalue\n      dup1\n      iszero\n      tag_136\n      jumpi\n      revert(0x00, 0x00)\n    tag_136:\n      pop\n      tag_56\n      sload(0x16)\n      dup2\n      jump\n        /* \"profxexpo.sol\":5398:5423  uint256 public joiningFee */\n    tag_20:\n      callvalue\n      dup1\n      iszero\n      tag_140\n      jumpi\n      revert(0x00, 0x00)\n    tag_140:\n      pop\n      tag_56\n      sload(0x0a)\n      dup2\n      jump\n        /* \"profxexpo.sol\":6130:6167  mapping(address => uint) public nonce */\n    tag_21:\n      callvalue\n      dup1\n      iszero\n      tag_144\n      jumpi\n      revert(0x00, 0x00)\n    tag_144:\n      pop\n      tag_56\n      tag_146\n      calldatasize\n      0x04\n      tag_112\n      jump\t// in\n    tag_146:\n      mstore(0x20, 0x1e)\n      0x00\n      swap1\n      dup2\n      mstore\n      0x40\n      swap1\n      keccak256\n      sload\n      dup2\n      jump\n        /* \"profxexpo.sol\":2163:2264  function renounceOwnership() public virtual onlyOwner {... */\n    tag_22:\n      callvalue\n      dup1\n      iszero\n      tag_149\n      jumpi\n      revert(0x00, 0x00)\n    tag_149:\n      pop\n      tag_97\n      tag_151\n      jump\t// in\n        /* \"profxexpo.sol\":5240:5264  address public UnitySign */\n    tag_23:\n      callvalue\n      dup1\n      iszero\n      tag_152\n      jumpi\n      revert(0x00, 0x00)\n    tag_152:\n      pop\n      sload(0x05)\n      tag_71\n      swap1\n      sub(shl(0xa0, 0x01), 0x01)\n      and\n      dup2\n      jump\n        /* \"profxexpo.sol\":14292:14398  function setUnitySignWallet(address _UnitySign) external onlyOwner {... */\n    tag_24:\n      callvalue\n      dup1\n      iszero\n      tag_156\n      jumpi\n      revert(0x00, 0x00)\n    tag_156:\n      pop\n      tag_97\n      tag_158\n      calldatasize\n      0x04\n      tag_112\n      jump\t// in\n    tag_158:\n      tag_159\n      jump\t// in\n        /* \"profxexpo.sol\":12101:12280  function withdrawLostTokenFromBalance(uint QtyAmt,IERC20 _TOKEN) public {... */\n    tag_25:\n      callvalue\n      dup1\n      iszero\n      tag_160\n      jumpi\n      revert(0x00, 0x00)\n    tag_160:\n      pop\n      tag_97\n      tag_162\n      calldatasize\n      0x04\n      tag_163\n      jump\t// in\n    tag_162:\n      tag_164\n      jump\t// in\n        /* \"profxexpo.sol\":5756:5782  uint256 public totalStaked */\n    tag_26:\n      callvalue\n      dup1\n      iszero\n      tag_165\n      jumpi\n      revert(0x00, 0x00)\n    tag_165:\n      pop\n      tag_56\n      sload(0x15)\n      dup2\n      jump\n        /* \"profxexpo.sol\":5824:5857  uint256[] public levelBonusShares */\n    tag_27:\n      callvalue\n      dup1\n      iszero\n      tag_169\n      jumpi\n      revert(0x00, 0x00)\n    tag_169:\n      pop\n      tag_56\n      tag_171\n      calldatasize\n      0x04\n      tag_58\n      jump\t// in\n    tag_171:\n      tag_172\n      jump\t// in\n        /* \"profxexpo.sol\":12286:12766  function multisendToken(address payable[]  memory  _contributors, uint256[] memory _balances, uint256 totalQty,IERC20 _TKN) public payable {... */\n    tag_28:\n      tag_97\n      tag_175\n      calldatasize\n      0x04\n      tag_176\n      jump\t// in\n    tag_175:\n      tag_177\n      jump\t// in\n        /* \"profxexpo.sol\":11798:11860  function pause() external onlyOperator {... */\n    tag_29:\n      callvalue\n      dup1\n      iszero\n      tag_178\n      jumpi\n      revert(0x00, 0x00)\n    tag_178:\n      pop\n      tag_97\n      tag_180\n      jump\t// in\n        /* \"profxexpo.sol\":1936:2021  function owner() public view virtual returns (address) {... */\n    tag_30:\n      callvalue\n      dup1\n      iszero\n      tag_181\n      jumpi\n      revert(0x00, 0x00)\n    tag_181:\n      pop\n        /* \"profxexpo.sol\":1982:1989  address */\n      0x00\n        /* \"profxexpo.sol\":2008:2014  _owner */\n      sload\n      sub(shl(0xa0, 0x01), 0x01)\n      and\n        /* \"profxexpo.sol\":1936:2021  function owner() public view virtual returns (address) {... */\n      jump(tag_71)\n        /* \"profxexpo.sol\":5336:5360  uint256 public multipler */\n    tag_31:\n      callvalue\n      dup1\n      iszero\n      tag_185\n      jumpi\n      revert(0x00, 0x00)\n    tag_185:\n      pop\n      tag_56\n      sload(0x08)\n      dup2\n      jump\n        /* \"profxexpo.sol\":6035:6072  mapping(address => User) public users */\n    tag_32:\n      callvalue\n      dup1\n      iszero\n      tag_189\n      jumpi\n      revert(0x00, 0x00)\n    tag_189:\n      pop\n      tag_190\n      tag_191\n      calldatasize\n      0x04\n      tag_112\n      jump\t// in\n    tag_191:\n      mstore(0x20, 0x1c)\n      0x00\n      swap1\n      dup2\n      mstore\n      0x40\n      swap1\n      keccak256\n      dup1\n      sload\n      0x01\n      dup3\n      add\n      sload\n      0x02\n      dup4\n      add\n      sload\n      0x03\n      dup5\n      add\n      sload\n      0x04\n      dup6\n      add\n      sload\n      0x05\n      dup7\n      add\n      sload\n      0x06\n      dup8\n      add\n      sload\n      0x07\n      dup9\n      add\n      sload\n      0x08\n      dup10\n      add\n      sload\n      0x09\n      dup11\n      add\n      sload\n      0x0a\n      dup12\n      add\n      sload\n      0x0b\n      swap1\n      swap12\n      add\n      sload\n      swap10\n      swap11\n      sub(shl(0xa0, 0x01), 0x01)\n      swap1\n      swap10\n      and\n      swap10\n      swap8\n      swap9\n      swap7\n      swap8\n      swap6\n      swap7\n      swap5\n      swap6\n      swap4\n      swap5\n      swap3\n      swap4\n      swap2\n      swap3\n      swap1\n      swap2\n      0xff\n      and\n      dup13\n      jump\n    tag_190:\n      0x40\n      dup1\n      mload\n        /* \"#utility.yul\":6063:6088   */\n      swap13\n      dup14\n      mstore\n      sub(shl(0xa0, 0x01), 0x01)\n        /* \"#utility.yul\":6124:6156   */\n      swap1\n      swap12\n      and\n        /* \"#utility.yul\":6119:6121   */\n      0x20\n        /* \"#utility.yul\":6104:6122   */\n      dup14\n      add\n        /* \"#utility.yul\":6097:6157   */\n      mstore\n        /* \"#utility.yul\":6173:6191   */\n      swap10\n      dup12\n      add\n        /* \"#utility.yul\":6166:6200   */\n      swap9\n      swap1\n      swap9\n      mstore\n        /* \"#utility.yul\":6231:6233   */\n      0x60\n        /* \"#utility.yul\":6216:6234   */\n      dup11\n      add\n        /* \"#utility.yul\":6209:6243   */\n      swap7\n      swap1\n      swap7\n      mstore\n        /* \"#utility.yul\":6274:6277   */\n      0x80\n        /* \"#utility.yul\":6259:6278   */\n      dup10\n      add\n        /* \"#utility.yul\":6252:6287   */\n      swap5\n      swap1\n      swap5\n      mstore\n        /* \"#utility.yul\":6144:6147   */\n      0xa0\n        /* \"#utility.yul\":6303:6322   */\n      dup9\n      add\n        /* \"#utility.yul\":6296:6331   */\n      swap3\n      swap1\n      swap3\n      mstore\n        /* \"#utility.yul\":6362:6365   */\n      0xc0\n        /* \"#utility.yul\":6347:6366   */\n      dup8\n      add\n        /* \"#utility.yul\":6340:6375   */\n      mstore\n        /* \"#utility.yul\":6406:6409   */\n      0xe0\n        /* \"#utility.yul\":6391:6410   */\n      dup7\n      add\n        /* \"#utility.yul\":6384:6419   */\n      mstore\n        /* \"#utility.yul\":6450:6453   */\n      0x0100\n        /* \"#utility.yul\":6435:6454   */\n      dup6\n      add\n        /* \"#utility.yul\":6428:6463   */\n      mstore\n        /* \"#utility.yul\":6494:6497   */\n      0x0120\n        /* \"#utility.yul\":6479:6498   */\n      dup5\n      add\n        /* \"#utility.yul\":6472:6507   */\n      mstore\n        /* \"#utility.yul\":6538:6541   */\n      0x0140\n        /* \"#utility.yul\":6523:6542   */\n      dup4\n      add\n        /* \"#utility.yul\":6516:6552   */\n      mstore\n        /* \"#utility.yul\":6596:6611   */\n      iszero\n        /* \"#utility.yul\":6589:6612   */\n      iszero\n        /* \"#utility.yul\":6583:6586   */\n      0x0160\n        /* \"#utility.yul\":6568:6587   */\n      dup3\n      add\n        /* \"#utility.yul\":6561:6613   */\n      mstore\n        /* \"#utility.yul\":6050:6053   */\n      0x0180\n        /* \"#utility.yul\":6035:6054   */\n      add\n        /* \"profxexpo.sol\":6035:6072  mapping(address => User) public users */\n      tag_60\n        /* \"#utility.yul\":5612:6619   */\n      jump\n        /* \"profxexpo.sol\":6173:6198  Package[] public packages */\n    tag_33:\n      callvalue\n      dup1\n      iszero\n      tag_195\n      jumpi\n      revert(0x00, 0x00)\n    tag_195:\n      pop\n      tag_196\n      tag_197\n      calldatasize\n      0x04\n      tag_58\n      jump\t// in\n    tag_197:\n      tag_198\n      jump\t// in\n    tag_196:\n      mload(0x40)\n      tag_60\n      swap6\n      swap5\n      swap4\n      swap3\n      swap2\n      swap1\n      tag_200\n      jump\t// in\n        /* \"profxexpo.sol\":6204:6256  mapping(uint256 => uint256) public packageMinAmounts */\n    tag_34:\n      callvalue\n      dup1\n      iszero\n      tag_201\n      jumpi\n      revert(0x00, 0x00)\n    tag_201:\n      pop\n      tag_56\n      tag_203\n      calldatasize\n      0x04\n      tag_58\n      jump\t// in\n    tag_203:\n      0x20\n      dup1\n      mstore\n      0x00\n      swap1\n      dup2\n      mstore\n      0x40\n      swap1\n      keccak256\n      sload\n      dup2\n      jump\n        /* \"profxexpo.sol\":5215:5234  address public USDT */\n    tag_35:\n      callvalue\n      dup1\n      iszero\n      tag_206\n      jumpi\n      revert(0x00, 0x00)\n    tag_206:\n      pop\n      sload(0x04)\n      tag_71\n      swap1\n      sub(shl(0xa0, 0x01), 0x01)\n      and\n      dup2\n      jump\n        /* \"profxexpo.sol\":5596:5623  bool public isAirdropPaused */\n    tag_36:\n      callvalue\n      dup1\n      iszero\n      tag_210\n      jumpi\n      revert(0x00, 0x00)\n    tag_210:\n      pop\n      sload(0x10)\n      tag_110\n      swap1\n      0xff\n      and\n      dup2\n      jump\n        /* \"profxexpo.sol\":5366:5392  uint256 public minWithdraw */\n    tag_37:\n      callvalue\n      dup1\n      iszero\n      tag_214\n      jumpi\n      revert(0x00, 0x00)\n    tag_214:\n      pop\n      tag_56\n      sload(0x09)\n      dup2\n      jump\n        /* \"profxexpo.sol\":8837:10085  function stakestDSC(uint amount, uint plan, address _referral) public {... */\n    tag_38:\n      callvalue\n      dup1\n      iszero\n      tag_218\n      jumpi\n      revert(0x00, 0x00)\n    tag_218:\n      pop\n      tag_97\n      tag_220\n      calldatasize\n      0x04\n      tag_221\n      jump\t// in\n    tag_220:\n      tag_222\n      jump\t// in\n        /* \"profxexpo.sol\":5271:5300  uint256 public levelRoiPerDay */\n    tag_39:\n      callvalue\n      dup1\n      iszero\n      tag_223\n      jumpi\n      revert(0x00, 0x00)\n    tag_223:\n      pop\n      tag_56\n      sload(0x06)\n      dup2\n      jump\n        /* \"profxexpo.sol\":5306:5330  uint256 public roiPerDay */\n    tag_40:\n      callvalue\n      dup1\n      iszero\n      tag_227\n      jumpi\n      revert(0x00, 0x00)\n    tag_227:\n      pop\n      tag_56\n      sload(0x07)\n      dup2\n      jump\n        /* \"profxexpo.sol\":5458:5481  uint256 public maxStake */\n    tag_41:\n      callvalue\n      dup1\n      iszero\n      tag_231\n      jumpi\n      revert(0x00, 0x00)\n    tag_231:\n      pop\n      tag_56\n      sload(0x0c)\n      dup2\n      jump\n        /* \"profxexpo.sol\":5904:5934  address[] public adminAchivers */\n    tag_42:\n      callvalue\n      dup1\n      iszero\n      tag_235\n      jumpi\n      revert(0x00, 0x00)\n    tag_235:\n      pop\n      tag_71\n      tag_237\n      calldatasize\n      0x04\n      tag_58\n      jump\t// in\n    tag_237:\n      tag_238\n      jump\t// in\n        /* \"profxexpo.sol\":2270:2502  function transferOwnership(address newOwner) public virtual onlyOwner {... */\n    tag_43:\n      callvalue\n      dup1\n      iszero\n      tag_240\n      jumpi\n      revert(0x00, 0x00)\n    tag_240:\n      pop\n      tag_97\n      tag_242\n      calldatasize\n      0x04\n      tag_112\n      jump\t// in\n    tag_242:\n      tag_243\n      jump\t// in\n        /* \"profxexpo.sol\":11939:12096  function withdrawLost(uint256 WithAmt) public {... */\n    tag_44:\n      callvalue\n      dup1\n      iszero\n      tag_244\n      jumpi\n      revert(0x00, 0x00)\n    tag_244:\n      pop\n      tag_97\n      tag_246\n      calldatasize\n      0x04\n      tag_58\n      jump\t// in\n    tag_246:\n      tag_247\n      jump\t// in\n        /* \"profxexpo.sol\":5160:5180  address public admin */\n    tag_45:\n      callvalue\n      dup1\n      iszero\n      tag_248\n      jumpi\n      revert(0x00, 0x00)\n    tag_248:\n      pop\n      sload(0x02)\n      tag_71\n      swap1\n      sub(shl(0xa0, 0x01), 0x01)\n      and\n      dup2\n      jump\n        /* \"profxexpo.sol\":13742:14282  function withdrawWeeklyReward(... */\n    tag_46:\n      callvalue\n      dup1\n      iszero\n      tag_252\n      jumpi\n      revert(0x00, 0x00)\n    tag_252:\n      pop\n      tag_97\n      tag_254\n      calldatasize\n      0x04\n      tag_255\n      jump\t// in\n    tag_254:\n      tag_256\n      jump\t// in\n        /* \"profxexpo.sol\":5525:5553  uint256 public airdropAmount */\n    tag_47:\n      callvalue\n      dup1\n      iszero\n      tag_257\n      jumpi\n      revert(0x00, 0x00)\n    tag_257:\n      pop\n      tag_56\n      sload(0x0e)\n      dup2\n      jump\n        /* \"profxexpo.sol\":5863:5898  uint256[] public airdropLevelShares */\n    tag_59:\n      0x18\n      dup2\n      dup2\n      sload\n      dup2\n      lt\n      tag_261\n      jumpi\n      0x00\n      dup1\n      revert\n    tag_261:\n      0x00\n      swap2\n      dup3\n      mstore\n      0x20\n      swap1\n      swap2\n      keccak256\n      add\n      sload\n      swap1\n      pop\n      dup2\n      jump\t// out\n        /* \"profxexpo.sol\":11866:11933  function unpause() external onlyOperator {... */\n    tag_98:\n        /* \"profxexpo.sol\":6812:6820  operator */\n      and(sub(shl(0xa0, 0x01), 0x01), sload(0x03))\n        /* \"profxexpo.sol\":242:252  msg.sender */\n      caller\n      sub(shl(0xa0, 0x01), 0x01)\n        /* \"profxexpo.sol\":6798:6820  _msgSender()==operator */\n      and\n      eq\n        /* \"profxexpo.sol\":6790:6857  require(_msgSender()==operator,\"Forbidden! Only Operator Can Call\") */\n      tag_266\n      jumpi\n      mload(0x40)\n      shl(0xe5, 0x461bcd)\n      dup2\n      mstore\n      0x04\n      add\n      tag_267\n      swap1\n      tag_268\n      jump\t// in\n    tag_267:\n      mload(0x40)\n      dup1\n      swap2\n      sub\n      swap1\n      revert\n    tag_266:\n        /* \"profxexpo.sol\":11916:11926  _unpause() */\n      tag_270\n        /* \"profxexpo.sol\":11916:11924  _unpause */\n      tag_271\n        /* \"profxexpo.sol\":11916:11926  _unpause() */\n      jump\t// in\n    tag_270:\n        /* \"profxexpo.sol\":11866:11933  function unpause() external onlyOperator {... */\n      jump\t// out\n        /* \"profxexpo.sol\":6883:8173  function initialize( address _usdt, address _owner)  external initializer  {... */\n    tag_108:\n        /* \"profxexpo.sol\":1253:1266  _initializing */\n      sload(0x00)\n      shl(0xb0, 0x01)\n      swap1\n      div\n      0xff\n      and\n      dup1\n        /* \"profxexpo.sol\":1253:1283  _initializing || !_initialized */\n      tag_273\n      jumpi\n      pop\n        /* \"profxexpo.sol\":1271:1283  _initialized */\n      sload(0x00)\n      shl(0xa8, 0x01)\n      swap1\n      div\n      0xff\n      and\n        /* \"profxexpo.sol\":1270:1283  !_initialized */\n      iszero\n        /* \"profxexpo.sol\":1253:1283  _initializing || !_initialized */\n    tag_273:\n        /* \"profxexpo.sol\":1245:1334  require(_initializing || !_initialized, \"Initializable: contract is already initialized\") */\n      tag_274\n      jumpi\n      mload(0x40)\n      shl(0xe5, 0x461bcd)\n      dup2\n      mstore\n        /* \"#utility.yul\":9284:9286   */\n      0x20\n        /* \"profxexpo.sol\":1245:1334  require(_initializing || !_initialized, \"Initializable: contract is already initialized\") */\n      0x04\n      dup3\n      add\n        /* \"#utility.yul\":9266:9287   */\n      mstore\n        /* \"#utility.yul\":9323:9325   */\n      0x2e\n        /* \"#utility.yul\":9303:9321   */\n      0x24\n      dup3\n      add\n        /* \"#utility.yul\":9296:9326   */\n      mstore\n        /* \"#utility.yul\":9362:9396   */\n      0x496e697469616c697a61626c653a20636f6e747261637420697320616c726561\n        /* \"#utility.yul\":9342:9360   */\n      0x44\n      dup3\n      add\n        /* \"#utility.yul\":9335:9397   */\n      mstore\n      shl(0x92, 0x191e481a5b9a5d1a585b1a5e9959)\n        /* \"#utility.yul\":9413:9431   */\n      0x64\n      dup3\n      add\n        /* \"#utility.yul\":9406:9450   */\n      mstore\n        /* \"#utility.yul\":9467:9486   */\n      0x84\n      add\n        /* \"profxexpo.sol\":1245:1334  require(_initializing || !_initialized, \"Initializable: contract is already initialized\") */\n      tag_267\n        /* \"#utility.yul\":9082:9492   */\n      jump\n        /* \"profxexpo.sol\":1245:1334  require(_initializing || !_initialized, \"Initializable: contract is already initialized\") */\n    tag_274:\n        /* \"profxexpo.sol\":1345:1364  bool isTopLevelCall */\n      0x00\n        /* \"profxexpo.sol\":1368:1381  _initializing */\n      sload\n      shl(0xb0, 0x01)\n      swap1\n      div\n      0xff\n      and\n        /* \"profxexpo.sol\":1367:1381  !_initializing */\n      iszero\n        /* \"profxexpo.sol\":1391:1489  if (isTopLevelCall) {... */\n      dup1\n      iszero\n      tag_277\n      jumpi\n        /* \"profxexpo.sol\":1425:1438  _initializing */\n      0x00\n        /* \"profxexpo.sol\":1425:1445  _initializing = true */\n      dup1\n      sload\n      not(shl(0xa8, 0xffff))\n        /* \"profxexpo.sol\":1459:1478  _initialized = true */\n      and\n      shl(0xa8, 0x0101)\n      or\n      swap1\n      sstore\n        /* \"profxexpo.sol\":1391:1489  if (isTopLevelCall) {... */\n    tag_277:\n        /* \"profxexpo.sol\":6968:6972  USDT */\n      0x04\n        /* \"profxexpo.sol\":6968:6980  USDT = _usdt */\n      dup1\n      sload\n      not(sub(shl(0xa0, 0x01), 0x01))\n      and\n      sub(shl(0xa0, 0x01), 0x01)\n      dup6\n      and\n      or\n      swap1\n      sstore\n        /* \"profxexpo.sol\":6996:7011  ownable(_owner) */\n      tag_279\n        /* \"profxexpo.sol\":7004:7010  _owner */\n      dup3\n        /* \"profxexpo.sol\":6996:7003  ownable */\n      tag_426\n        /* \"profxexpo.sol\":6996:7011  ownable(_owner) */\n      jump\t// in\n    tag_279:\n        /* \"profxexpo.sol\":7045:7095  Package(1, 50 * 10**18, 33, 90, \"Precious Metals\") */\n      0x40\n      dup1\n      mload\n      0xa0\n      dup2\n      add\n      dup3\n      mstore\n        /* \"profxexpo.sol\":7053:7054  1 */\n      0x01\n        /* \"profxexpo.sol\":7045:7095  Package(1, 50 * 10**18, 33, 90, \"Precious Metals\") */\n      dup1\n      dup3\n      mstore\n        /* \"profxexpo.sol\":7056:7067  50 * 10**18 */\n      0x02b5e3af16b1880000\n        /* \"profxexpo.sol\":7045:7095  Package(1, 50 * 10**18, 33, 90, \"Precious Metals\") */\n      0x20\n      dup1\n      dup5\n      add\n      swap2\n      dup3\n      mstore\n        /* \"profxexpo.sol\":7069:7071  33 */\n      0x21\n        /* \"profxexpo.sol\":7045:7095  Package(1, 50 * 10**18, 33, 90, \"Precious Metals\") */\n      dup5\n      dup7\n      add\n      swap1\n      dup2\n      mstore\n        /* \"profxexpo.sol\":7073:7075  90 */\n      0x5a\n        /* \"profxexpo.sol\":7045:7095  Package(1, 50 * 10**18, 33, 90, \"Precious Metals\") */\n      0x60\n      dup7\n      add\n      swap1\n      dup2\n      mstore\n      dup7\n      mload\n      dup1\n      dup9\n      add\n      swap1\n      swap8\n      mstore\n      0x0f\n      dup8\n      mstore\n      shl(0x88, 0x50726563696f7573204d6574616c73)\n      swap3\n      dup8\n      add\n      swap3\n      swap1\n      swap3\n      mstore\n      0x80\n      dup6\n      add\n      swap6\n      dup7\n      mstore\n        /* \"profxexpo.sol\":7031:7039  packages */\n      0x1f\n        /* \"profxexpo.sol\":7031:7096  packages.push(Package(1, 50 * 10**18, 33, 90, \"Precious Metals\")) */\n      dup1\n      sload\n      swap5\n      dup6\n      add\n      dup2\n      sstore\n      0x00\n      mstore\n      dup5\n      mload\n      0x05\n      swap1\n      swap5\n      mul\n      mload(0x00)\n      codecopy(0x00, data_97f3fe46cd4557bc11eb175f266ac5627865b55de9057d4dc0d60920f7af3bd4, 0x20)\n      mload(0x00)\n      swap1\n      0x00\n      mstore\n      dup2\n      add\n      swap5\n      dup6\n      sstore\n      swap3\n      mload\n      mload(0x00)\n      codecopy(0x00, data_f46ae2667168dfc59776f785b546a4ccb1eaded3ebf62491f20ad2fecc678f09, 0x20)\n      mload(0x00)\n      swap1\n      0x00\n      mstore\n      dup5\n      add\n      sstore\n      mload\n      mload(0x00)\n      codecopy(0x00, data_61b3bcc7b45117fbb866fef94e5cfc4e058c47c1965b26163e0e42e3aee1c2c8, 0x20)\n      mload(0x00)\n      swap1\n      0x00\n      mstore\n      dup4\n      add\n      sstore\n      mload\n      mload(0x00)\n      codecopy(0x00, data_d1aa1c789c4c75eae5095fc3d7f5337de53facf64a6f7f96ce3488aa4719b62d, 0x20)\n      mload(0x00)\n      swap1\n      0x00\n      mstore\n      dup3\n      add\n      sstore\n      swap3\n      mload\n        /* \"profxexpo.sol\":7045:7095  Package(1, 50 * 10**18, 33, 90, \"Precious Metals\") */\n      swap2\n      swap3\n        /* \"profxexpo.sol\":7031:7096  packages.push(Package(1, 50 * 10**18, 33, 90, \"Precious Metals\")) */\n      swap1\n      swap2\n      mload(0x00)\n      codecopy(0x00, data_d65ec5e5a0302fc6632c8a837a7f7ec394709b2e0822eab8206d960e5226505d, 0x20)\n      mload(0x00)\n      swap1\n      0x00\n      mstore\n      swap1\n      swap2\n      add\n      swap1\n      tag_282\n      swap1\n      dup3\n      tag_283\n      jump\t// in\n    tag_282:\n      pop\n      pop\n        /* \"profxexpo.sol\":7120:7168  Package(2, 500 * 10**18, 50, 180, \"Real Estate\") */\n      0x40\n      dup1\n      mload\n      0xa0\n      dup2\n      add\n      dup3\n      mstore\n        /* \"profxexpo.sol\":7128:7129  2 */\n      0x02\n        /* \"profxexpo.sol\":7120:7168  Package(2, 500 * 10**18, 50, 180, \"Real Estate\") */\n      dup2\n      mstore\n        /* \"profxexpo.sol\":7131:7143  500 * 10**18 */\n      0x1b1ae4d6e2ef500000\n        /* \"profxexpo.sol\":7120:7168  Package(2, 500 * 10**18, 50, 180, \"Real Estate\") */\n      0x20\n      dup1\n      dup4\n      add\n      swap2\n      dup3\n      mstore\n        /* \"profxexpo.sol\":7145:7147  50 */\n      0x32\n        /* \"profxexpo.sol\":7120:7168  Package(2, 500 * 10**18, 50, 180, \"Real Estate\") */\n      dup4\n      dup6\n      add\n      swap1\n      dup2\n      mstore\n        /* \"profxexpo.sol\":7149:7152  180 */\n      0xb4\n        /* \"profxexpo.sol\":7120:7168  Package(2, 500 * 10**18, 50, 180, \"Real Estate\") */\n      0x60\n      dup6\n      add\n      swap1\n      dup2\n      mstore\n      dup6\n      mload\n      dup1\n      dup8\n      add\n      swap1\n      swap7\n      mstore\n      0x0b\n      dup7\n      mstore\n      shl(0xa8, 0x5265616c20457374617465)\n      swap3\n      dup7\n      add\n      swap3\n      swap1\n      swap3\n      mstore\n      0x80\n      dup5\n      add\n      swap5\n      dup6\n      mstore\n        /* \"profxexpo.sol\":7106:7114  packages */\n      0x1f\n        /* \"profxexpo.sol\":7106:7169  packages.push(Package(2, 500 * 10**18, 50, 180, \"Real Estate\")) */\n      dup1\n      sload\n      0x01\n      dup2\n      add\n      dup3\n      sstore\n      0x00\n      swap2\n      swap1\n      swap2\n      mstore\n      dup5\n      mload\n      0x05\n      swap1\n      swap2\n      mul\n      mload(0x00)\n      codecopy(0x00, data_97f3fe46cd4557bc11eb175f266ac5627865b55de9057d4dc0d60920f7af3bd4, 0x20)\n      mload(0x00)\n      swap1\n      0x00\n      mstore\n      dup2\n      add\n      swap2\n      dup3\n      sstore\n      swap4\n      mload\n      mload(0x00)\n      codecopy(0x00, data_f46ae2667168dfc59776f785b546a4ccb1eaded3ebf62491f20ad2fecc678f09, 0x20)\n      mload(0x00)\n      swap1\n      0x00\n      mstore\n      dup6\n      add\n      sstore\n      swap1\n      mload\n      mload(0x00)\n      codecopy(0x00, data_61b3bcc7b45117fbb866fef94e5cfc4e058c47c1965b26163e0e42e3aee1c2c8, 0x20)\n      mload(0x00)\n      swap1\n      0x00\n      mstore\n      dup5\n      add\n      sstore\n      swap1\n      mload\n      mload(0x00)\n      codecopy(0x00, data_d1aa1c789c4c75eae5095fc3d7f5337de53facf64a6f7f96ce3488aa4719b62d, 0x20)\n      mload(0x00)\n      swap1\n      0x00\n      mstore\n      dup4\n      add\n      sstore\n      swap3\n      mload\n        /* \"profxexpo.sol\":7120:7168  Package(2, 500 * 10**18, 50, 180, \"Real Estate\") */\n      swap2\n      swap4\n      pop\n      mload(0x00)\n      codecopy(0x00, data_d65ec5e5a0302fc6632c8a837a7f7ec394709b2e0822eab8206d960e5226505d, 0x20)\n      mload(0x00)\n      swap1\n      0x00\n      mstore\n        /* \"profxexpo.sol\":7106:7169  packages.push(Package(2, 500 * 10**18, 50, 180, \"Real Estate\")) */\n      add\n      swap1\n      tag_285\n      swap1\n      dup3\n      tag_283\n      jump\t// in\n    tag_285:\n      pop\n      pop\n        /* \"profxexpo.sol\":7193:7240  Package(3, 2500 * 10**18, 67, 360, \"US Stocks\") */\n      0x40\n      dup1\n      mload\n      0xa0\n      dup2\n      add\n      dup3\n      mstore\n        /* \"profxexpo.sol\":7201:7202  3 */\n      0x03\n        /* \"profxexpo.sol\":7193:7240  Package(3, 2500 * 10**18, 67, 360, \"US Stocks\") */\n      dup2\n      mstore\n        /* \"profxexpo.sol\":7204:7217  2500 * 10**18 */\n      0x878678326eac900000\n        /* \"profxexpo.sol\":7193:7240  Package(3, 2500 * 10**18, 67, 360, \"US Stocks\") */\n      0x20\n      dup1\n      dup4\n      add\n      swap2\n      dup3\n      mstore\n        /* \"profxexpo.sol\":7219:7221  67 */\n      0x43\n        /* \"profxexpo.sol\":7193:7240  Package(3, 2500 * 10**18, 67, 360, \"US Stocks\") */\n      dup4\n      dup6\n      add\n      swap1\n      dup2\n      mstore\n        /* \"profxexpo.sol\":7223:7226  360 */\n      0x0168\n        /* \"profxexpo.sol\":7193:7240  Package(3, 2500 * 10**18, 67, 360, \"US Stocks\") */\n      0x60\n      dup6\n      add\n      swap1\n      dup2\n      mstore\n      dup6\n      mload\n      dup1\n      dup8\n      add\n      swap1\n      swap7\n      mstore\n      0x09\n      dup7\n      mstore\n      shl(0xb8, 0x55532053746f636b73)\n      swap3\n      dup7\n      add\n      swap3\n      swap1\n      swap3\n      mstore\n      0x80\n      dup5\n      add\n      swap5\n      dup6\n      mstore\n        /* \"profxexpo.sol\":7179:7187  packages */\n      0x1f\n        /* \"profxexpo.sol\":7179:7241  packages.push(Package(3, 2500 * 10**18, 67, 360, \"US Stocks\")) */\n      dup1\n      sload\n      0x01\n      dup2\n      add\n      dup3\n      sstore\n      0x00\n      swap2\n      swap1\n      swap2\n      mstore\n      dup5\n      mload\n      0x05\n      swap1\n      swap2\n      mul\n      mload(0x00)\n      codecopy(0x00, data_97f3fe46cd4557bc11eb175f266ac5627865b55de9057d4dc0d60920f7af3bd4, 0x20)\n      mload(0x00)\n      swap1\n      0x00\n      mstore\n      dup2\n      add\n      swap2\n      dup3\n      sstore\n      swap4\n      mload\n      mload(0x00)\n      codecopy(0x00, data_f46ae2667168dfc59776f785b546a4ccb1eaded3ebf62491f20ad2fecc678f09, 0x20)\n      mload(0x00)\n      swap1\n      0x00\n      mstore\n      dup6\n      add\n      sstore\n      swap1\n      mload\n      mload(0x00)\n      codecopy(0x00, data_61b3bcc7b45117fbb866fef94e5cfc4e058c47c1965b26163e0e42e3aee1c2c8, 0x20)\n      mload(0x00)\n      swap1\n      0x00\n      mstore\n      dup5\n      add\n      sstore\n      swap1\n      mload\n      mload(0x00)\n      codecopy(0x00, data_d1aa1c789c4c75eae5095fc3d7f5337de53facf64a6f7f96ce3488aa4719b62d, 0x20)\n      mload(0x00)\n      swap1\n      0x00\n      mstore\n      dup4\n      add\n      sstore\n      swap3\n      mload\n        /* \"profxexpo.sol\":7193:7240  Package(3, 2500 * 10**18, 67, 360, \"US Stocks\") */\n      swap2\n      swap4\n      pop\n      mload(0x00)\n      codecopy(0x00, data_d65ec5e5a0302fc6632c8a837a7f7ec394709b2e0822eab8206d960e5226505d, 0x20)\n      mload(0x00)\n      swap1\n      0x00\n      mstore\n        /* \"profxexpo.sol\":7179:7241  packages.push(Package(3, 2500 * 10**18, 67, 360, \"US Stocks\")) */\n      add\n      swap1\n      tag_287\n      swap1\n      dup3\n      tag_283\n      jump\t// in\n    tag_287:\n      pop\n      pop\n        /* \"profxexpo.sol\":7265:7315  Package(4, 5000 * 10**18, 80, 720, \"Forex Market\") */\n      0x40\n      dup1\n      mload\n      0xa0\n      dup2\n      add\n      dup3\n      mstore\n        /* \"profxexpo.sol\":7273:7274  4 */\n      0x04\n        /* \"profxexpo.sol\":7265:7315  Package(4, 5000 * 10**18, 80, 720, \"Forex Market\") */\n      dup2\n      mstore\n        /* \"profxexpo.sol\":7276:7289  5000 * 10**18 */\n      0x010f0cf064dd59200000\n        /* \"profxexpo.sol\":7265:7315  Package(4, 5000 * 10**18, 80, 720, \"Forex Market\") */\n      0x20\n      dup1\n      dup4\n      add\n      swap2\n      dup3\n      mstore\n        /* \"profxexpo.sol\":7291:7293  80 */\n      0x50\n        /* \"profxexpo.sol\":7265:7315  Package(4, 5000 * 10**18, 80, 720, \"Forex Market\") */\n      dup4\n      dup6\n      add\n      swap1\n      dup2\n      mstore\n        /* \"profxexpo.sol\":7295:7298  720 */\n      0x02d0\n        /* \"profxexpo.sol\":7265:7315  Package(4, 5000 * 10**18, 80, 720, \"Forex Market\") */\n      0x60\n      dup6\n      add\n      swap1\n      dup2\n      mstore\n      dup6\n      mload\n      dup1\n      dup8\n      add\n      swap1\n      swap7\n      mstore\n      0x0c\n      dup7\n      mstore\n      shl(0xa2, 0x119bdc995e0813585c9ad95d)\n      swap3\n      dup7\n      add\n      swap3\n      swap1\n      swap3\n      mstore\n      0x80\n      dup5\n      add\n      swap5\n      dup6\n      mstore\n        /* \"profxexpo.sol\":7251:7259  packages */\n      0x1f\n        /* \"profxexpo.sol\":7251:7316  packages.push(Package(4, 5000 * 10**18, 80, 720, \"Forex Market\")) */\n      dup1\n      sload\n      0x01\n      dup2\n      add\n      dup3\n      sstore\n      0x00\n      swap2\n      swap1\n      swap2\n      mstore\n      dup5\n      mload\n      0x05\n      swap1\n      swap2\n      mul\n      mload(0x00)\n      codecopy(0x00, data_97f3fe46cd4557bc11eb175f266ac5627865b55de9057d4dc0d60920f7af3bd4, 0x20)\n      mload(0x00)\n      swap1\n      0x00\n      mstore\n      dup2\n      add\n      swap2\n      dup3\n      sstore\n      swap4\n      mload\n      mload(0x00)\n      codecopy(0x00, data_f46ae2667168dfc59776f785b546a4ccb1eaded3ebf62491f20ad2fecc678f09, 0x20)\n      mload(0x00)\n      swap1\n      0x00\n      mstore\n      dup6\n      add\n      sstore\n      swap1\n      mload\n      mload(0x00)\n      codecopy(0x00, data_61b3bcc7b45117fbb866fef94e5cfc4e058c47c1965b26163e0e42e3aee1c2c8, 0x20)\n      mload(0x00)\n      swap1\n      0x00\n      mstore\n      dup5\n      add\n      sstore\n      swap1\n      mload\n      mload(0x00)\n      codecopy(0x00, data_d1aa1c789c4c75eae5095fc3d7f5337de53facf64a6f7f96ce3488aa4719b62d, 0x20)\n      mload(0x00)\n      swap1\n      0x00\n      mstore\n      dup4\n      add\n      sstore\n      swap3\n      mload\n        /* \"profxexpo.sol\":7265:7315  Package(4, 5000 * 10**18, 80, 720, \"Forex Market\") */\n      swap2\n      swap4\n      pop\n      mload(0x00)\n      codecopy(0x00, data_d65ec5e5a0302fc6632c8a837a7f7ec394709b2e0822eab8206d960e5226505d, 0x20)\n      mload(0x00)\n      swap1\n      0x00\n      mstore\n        /* \"profxexpo.sol\":7251:7316  packages.push(Package(4, 5000 * 10**18, 80, 720, \"Forex Market\")) */\n      add\n      swap1\n      tag_289\n      swap1\n      dup3\n      tag_283\n      jump\t// in\n    tag_289:\n      pop\n      pop\n        /* \"profxexpo.sol\":7340:7395  Package(5, 10000 * 10**18, 100, 1080, \"Digital Assets\") */\n      0x40\n      dup1\n      mload\n      0xa0\n      dup2\n      add\n      dup3\n      mstore\n        /* \"profxexpo.sol\":7348:7349  5 */\n      0x05\n        /* \"profxexpo.sol\":7340:7395  Package(5, 10000 * 10**18, 100, 1080, \"Digital Assets\") */\n      dup1\n      dup3\n      mstore\n        /* \"profxexpo.sol\":7351:7365  10000 * 10**18 */\n      0x021e19e0c9bab2400000\n        /* \"profxexpo.sol\":7340:7395  Package(5, 10000 * 10**18, 100, 1080, \"Digital Assets\") */\n      0x20\n      dup1\n      dup5\n      add\n      swap2\n      dup3\n      mstore\n        /* \"profxexpo.sol\":7367:7370  100 */\n      0x64\n        /* \"profxexpo.sol\":7340:7395  Package(5, 10000 * 10**18, 100, 1080, \"Digital Assets\") */\n      dup5\n      dup7\n      add\n      swap1\n      dup2\n      mstore\n        /* \"profxexpo.sol\":7372:7376  1080 */\n      0x0438\n        /* \"profxexpo.sol\":7340:7395  Package(5, 10000 * 10**18, 100, 1080, \"Digital Assets\") */\n      0x60\n      dup7\n      add\n      swap1\n      dup2\n      mstore\n      dup7\n      mload\n      dup1\n      dup9\n      add\n      swap1\n      swap8\n      mstore\n      0x0e\n      dup8\n      mstore\n      shl(0x90, 0x4469676974616c20417373657473)\n      swap3\n      dup8\n      add\n      swap3\n      swap1\n      swap3\n      mstore\n      0x80\n      dup6\n      add\n      swap6\n      dup7\n      mstore\n        /* \"profxexpo.sol\":7326:7334  packages */\n      0x1f\n        /* \"profxexpo.sol\":7326:7396  packages.push(Package(5, 10000 * 10**18, 100, 1080, \"Digital Assets\")) */\n      dup1\n      sload\n      0x01\n      dup2\n      add\n      dup3\n      sstore\n      0x00\n      swap2\n      swap1\n      swap2\n      mstore\n      dup6\n      mload\n      swap5\n      mul\n      mload(0x00)\n      codecopy(0x00, data_97f3fe46cd4557bc11eb175f266ac5627865b55de9057d4dc0d60920f7af3bd4, 0x20)\n      mload(0x00)\n      swap1\n      0x00\n      mstore\n      dup2\n      add\n      swap5\n      dup6\n      sstore\n      swap3\n      mload\n      mload(0x00)\n      codecopy(0x00, data_f46ae2667168dfc59776f785b546a4ccb1eaded3ebf62491f20ad2fecc678f09, 0x20)\n      mload(0x00)\n      swap1\n      0x00\n      mstore\n      dup5\n      add\n      sstore\n      mload\n      mload(0x00)\n      codecopy(0x00, data_61b3bcc7b45117fbb866fef94e5cfc4e058c47c1965b26163e0e42e3aee1c2c8, 0x20)\n      mload(0x00)\n      swap1\n      0x00\n      mstore\n      dup4\n      add\n      sstore\n      mload\n      mload(0x00)\n      codecopy(0x00, data_d1aa1c789c4c75eae5095fc3d7f5337de53facf64a6f7f96ce3488aa4719b62d, 0x20)\n      mload(0x00)\n      swap1\n      0x00\n      mstore\n      dup3\n      add\n      sstore\n      swap3\n      mload\n        /* \"profxexpo.sol\":7340:7395  Package(5, 10000 * 10**18, 100, 1080, \"Digital Assets\") */\n      swap2\n      swap4\n      pop\n        /* \"profxexpo.sol\":7326:7396  packages.push(Package(5, 10000 * 10**18, 100, 1080, \"Digital Assets\")) */\n      swap2\n      mload(0x00)\n      codecopy(0x00, data_d65ec5e5a0302fc6632c8a837a7f7ec394709b2e0822eab8206d960e5226505d, 0x20)\n      mload(0x00)\n      swap1\n      0x00\n      mstore\n      add\n      swap1\n      tag_291\n      swap1\n      dup3\n      tag_283\n      jump\t// in\n    tag_291:\n      pop\n        /* \"profxexpo.sol\":7450:7459  uint256 i */\n      0x00\n      swap2\n      pop\n      pop\n        /* \"profxexpo.sol\":7445:7580  for (uint256 i = 0; i < packages.length; i++) {... */\n    tag_292:\n        /* \"profxexpo.sol\":7469:7477  packages */\n      0x1f\n        /* \"profxexpo.sol\":7469:7484  packages.length */\n      sload\n        /* \"profxexpo.sol\":7465:7484  i < packages.length */\n      dup2\n      lt\n        /* \"profxexpo.sol\":7445:7580  for (uint256 i = 0; i < packages.length; i++) {... */\n      iszero\n      tag_293\n      jumpi\n        /* \"profxexpo.sol\":7548:7556  packages */\n      0x1f\n        /* \"profxexpo.sol\":7557:7558  i */\n      dup2\n        /* \"profxexpo.sol\":7548:7559  packages[i] */\n      dup2\n      sload\n      dup2\n      lt\n      tag_296\n      jumpi\n      tag_296\n      tag_297\n      jump\t// in\n    tag_296:\n      swap1\n      0x00\n      mstore\n      keccak256(0x00, 0x20)\n      swap1\n      0x05\n      mul\n      add\n        /* \"profxexpo.sol\":7548:7569  packages[i].minAmount */\n      0x01\n      add\n      sload\n        /* \"profxexpo.sol\":7505:7522  packageMinAmounts */\n      0x20\n        /* \"profxexpo.sol\":7505:7545  packageMinAmounts[packages[i].packageId] */\n      0x00\n        /* \"profxexpo.sol\":7523:7531  packages */\n      0x1f\n        /* \"profxexpo.sol\":7532:7533  i */\n      dup5\n        /* \"profxexpo.sol\":7523:7534  packages[i] */\n      dup2\n      sload\n      dup2\n      lt\n      tag_300\n      jumpi\n      tag_300\n      tag_297\n      jump\t// in\n    tag_300:\n      0x00\n      swap2\n      dup3\n      mstore\n      0x20\n      dup1\n      dup4\n      keccak256\n      0x05\n      swap1\n      swap3\n      mul\n      swap1\n      swap2\n      add\n        /* \"profxexpo.sol\":7523:7544  packages[i].packageId */\n      sload\n        /* \"profxexpo.sol\":7505:7545  packageMinAmounts[packages[i].packageId] */\n      dup4\n      mstore\n      dup3\n      add\n      swap3\n      swap1\n      swap3\n      mstore\n      0x40\n      add\n      swap1\n      keccak256\n        /* \"profxexpo.sol\":7505:7569  packageMinAmounts[packages[i].packageId] = packages[i].minAmount */\n      sstore\n        /* \"profxexpo.sol\":7486:7489  i++ */\n      0x01\n      add\n        /* \"profxexpo.sol\":7445:7580  for (uint256 i = 0; i < packages.length; i++) {... */\n      jump(tag_292)\n    tag_293:\n      pop\n        /* \"profxexpo.sol\":7602:7611  60 * 1e18 */\n      0x0340aad21b3b700000\n        /* \"profxexpo.sol\":7591:7599  minStake */\n      0x0b\n        /* \"profxexpo.sol\":7591:7611  minStake = 60 * 1e18 */\n      sstore\n        /* \"profxexpo.sol\":7632:7644  10000 * 1e18 */\n      0x021e19e0c9bab2400000\n        /* \"profxexpo.sol\":7621:7629  maxStake */\n      0x0c\n        /* \"profxexpo.sol\":7621:7644  maxStake = 10000 * 1e18 */\n      sstore\n        /* \"profxexpo.sol\":7674:7683  30 * 1e18 */\n      0x01a055690d9db80000\n        /* \"profxexpo.sol\":7661:7671  joiningFee */\n      0x0a\n        /* \"profxexpo.sol\":7661:7683  joiningFee = 30 * 1e18 */\n      swap1\n      dup2\n      sstore\n      0x02\n        /* \"profxexpo.sol\":7693:7702  multipler */\n      0x08\n        /* \"profxexpo.sol\":7693:7706  multipler = 2 */\n      sstore\n        /* \"profxexpo.sol\":7717:7726  LASTLEVEL */\n      0x14\n        /* \"profxexpo.sol\":7717:7731  LASTLEVEL = 10 */\n      sstore\n        /* \"profxexpo.sol\":7753:7759  1 days */\n      0x015180\n        /* \"profxexpo.sol\":7741:7750  TIME_STEP */\n      0x11\n        /* \"profxexpo.sol\":7741:7759  TIME_STEP = 1 days */\n      sstore\n        /* \"profxexpo.sol\":7788:7792  1000 */\n      0x03e8\n        /* \"profxexpo.sol\":7770:7785  PERCENT_DIVIDER */\n      0x13\n        /* \"profxexpo.sol\":7770:7792  PERCENT_DIVIDER = 1000 */\n      sstore\n        /* \"profxexpo.sol\":7819:7823  3000 */\n      0x0bb8\n        /* \"profxexpo.sol\":7803:7816  levelShare[1] */\n      0xf88cd8d612926ebb404e40725c01084b6e9b3ce0344cde068570342cbd448c61\n        /* \"profxexpo.sol\":7803:7823  levelShare[1] = 3000 */\n      sstore\n        /* \"profxexpo.sol\":7849:7853  1500 */\n      0x05dc\n        /* \"profxexpo.sol\":7833:7846  levelShare[2] */\n      0x4c287b3e2c2cb129ae3ba596d613d760b15affdac7242e12903c37a886ea1c4f\n        /* \"profxexpo.sol\":7833:7853  levelShare[2] = 1500 */\n      sstore\n        /* \"profxexpo.sol\":7879:7882  750 */\n      0x02ee\n        /* \"profxexpo.sol\":7863:7876  levelShare[3] */\n      0x4ac83fca211703e3ddb90093cd219714e5e3715bf0b4fd15b0441390534a24e2\n        /* \"profxexpo.sol\":7863:7882  levelShare[3] = 750 */\n      sstore\n        /* \"profxexpo.sol\":7908:7911  500 */\n      0x01f4\n        /* \"profxexpo.sol\":7892:7905  levelShare[4] */\n      0x06b28f262ad931a15c9e47271fc159a891b2bcb0da2659cac5bbfed4886cf26e\n        /* \"profxexpo.sol\":7892:7911  levelShare[4] = 500 */\n      sstore\n        /* \"profxexpo.sol\":7937:7940  400 */\n      0x0190\n        /* \"profxexpo.sol\":7921:7934  levelShare[5] */\n      0x82f07edc09f3a46c1925d02252613a7fcc7be7d03b538b0c268df85f2f13a7ab\n        /* \"profxexpo.sol\":7921:7940  levelShare[5] = 400 */\n      sstore\n        /* \"profxexpo.sol\":7951:7966  isAirdropPaused */\n      0x10\n        /* \"profxexpo.sol\":7951:7974  isAirdropPaused = false */\n      dup1\n      sload\n      not(0xff)\n      and\n      swap1\n      sstore\n      0x01\n        /* \"profxexpo.sol\":7984:7994  lastUserId */\n      0x12\n        /* \"profxexpo.sol\":7984:7998  lastUserId = 1 */\n      dup2\n      dup2\n      sstore\n      sub(shl(0xa0, 0x01), 0x01)\n        /* \"profxexpo.sol\":8008:8021  users[_owner] */\n      dup5\n      and\n      0x00\n      dup2\n      dup2\n      mstore\n        /* \"profxexpo.sol\":8008:8013  users */\n      0x1c\n        /* \"profxexpo.sol\":7803:7816  levelShare[1] */\n      0x20\n        /* \"profxexpo.sol\":8008:8021  users[_owner] */\n      swap1\n      dup2\n      mstore\n        /* \"profxexpo.sol\":7803:7816  levelShare[1] */\n      0x40\n        /* \"profxexpo.sol\":8008:8021  users[_owner] */\n      dup3\n      keccak256\n        /* \"profxexpo.sol\":8008:8041  users[_owner].userId = lastUserId */\n      dup6\n      swap1\n      sstore\n        /* \"profxexpo.sol\":8051:8074  idToAddress[lastUserId] */\n      dup5\n      dup3\n      mstore\n        /* \"profxexpo.sol\":8051:8062  idToAddress */\n      0x1d\n        /* \"profxexpo.sol\":8051:8074  idToAddress[lastUserId] */\n      swap1\n      mstore\n      0x9de6abd965d55c3bb0cdbf6fa175050624c6ff8fe86f682dc08f2a450ede2278\n        /* \"profxexpo.sol\":8051:8083  idToAddress[lastUserId] = _owner */\n      dup1\n      sload\n      not(sub(shl(0xa0, 0x01), 0x01))\n      and\n      swap1\n      swap3\n      or\n      swap1\n      swap2\n      sstore\n        /* \"profxexpo.sol\":8093:8105  lastUserId++ */\n      tag_302\n      dup4\n      tag_303\n      jump\t// in\n    tag_302:\n      swap2\n      swap1\n      pop\n      sstore\n      pop\n        /* \"profxexpo.sol\":8149:8150  0 */\n      0x00\n      sub(shl(0xa0, 0x01), 0x01)\n        /* \"profxexpo.sol\":8120:8166  Registration(_owner, address(0), 1, 0,\"Owner\") */\n      and\n        /* \"profxexpo.sol\":8133:8139  _owner */\n      dup3\n      sub(shl(0xa0, 0x01), 0x01)\n        /* \"profxexpo.sol\":8120:8166  Registration(_owner, address(0), 1, 0,\"Owner\") */\n      and\n      0x5df5c588e24e80ddfa2166a642d3fe27393f08228d5b903311972824fbd0d607\n        /* \"profxexpo.sol\":8153:8154  1 */\n      0x01\n        /* \"profxexpo.sol\":8156:8157  0 */\n      0x00\n        /* \"profxexpo.sol\":8120:8166  Registration(_owner, address(0), 1, 0,\"Owner\") */\n      mload(0x40)\n      tag_304\n      swap3\n      swap2\n      swap1\n        /* \"#utility.yul\":12666:12691   */\n      swap2\n      dup3\n      mstore\n        /* \"#utility.yul\":12722:12724   */\n      0x20\n        /* \"#utility.yul\":12707:12725   */\n      dup3\n      add\n        /* \"#utility.yul\":12700:12734   */\n      mstore\n        /* \"#utility.yul\":12770:12772   */\n      0x60\n        /* \"#utility.yul\":12765:12767   */\n      0x40\n        /* \"#utility.yul\":12750:12768   */\n      dup3\n      add\n        /* \"#utility.yul\":12743:12773   */\n      dup2\n      swap1\n      mstore\n        /* \"#utility.yul\":12809:12810   */\n      0x05\n        /* \"#utility.yul\":12789:12807   */\n      swap1\n      dup3\n      add\n        /* \"#utility.yul\":12782:12811   */\n      mstore\n      shl(0xd9, 0x27bbb732b9)\n        /* \"#utility.yul\":12842:12845   */\n      0x80\n        /* \"#utility.yul\":12827:12846   */\n      dup3\n      add\n        /* \"#utility.yul\":12820:12856   */\n      mstore\n        /* \"#utility.yul\":12888:12891   */\n      0xa0\n        /* \"#utility.yul\":12873:12892   */\n      add\n      swap1\n        /* \"#utility.yul\":12410:12898   */\n      jump\n        /* \"profxexpo.sol\":8120:8166  Registration(_owner, address(0), 1, 0,\"Owner\") */\n    tag_304:\n      mload(0x40)\n      dup1\n      swap2\n      sub\n      swap1\n      log3\n        /* \"profxexpo.sol\":1515:1529  isTopLevelCall */\n      dup1\n        /* \"profxexpo.sol\":1511:1577  if (isTopLevelCall) {... */\n      iszero\n      tag_306\n      jumpi\n        /* \"profxexpo.sol\":1561:1566  false */\n      0x00\n        /* \"profxexpo.sol\":1545:1566  _initializing = false */\n      dup1\n      sload\n      not(shl(0xb0, 0xff))\n      and\n      swap1\n      sstore\n        /* \"profxexpo.sol\":1511:1577  if (isTopLevelCall) {... */\n    tag_306:\n        /* \"profxexpo.sol\":1235:1583  {... */\n      pop\n        /* \"profxexpo.sol\":6883:8173  function initialize( address _usdt, address _owner)  external initializer  {... */\n      pop\n      pop\n      jump\t// out\n        /* \"profxexpo.sol\":12776:13219  function getWithdrawHash(... */\n    tag_129:\n      sub(shl(0xa0, 0x01), 0x01)\n        /* \"profxexpo.sol\":13069:13080  nonce[user] */\n      dup4\n      and\n        /* \"profxexpo.sol\":12906:12913  bytes32 */\n      0x00\n        /* \"profxexpo.sol\":13069:13080  nonce[user] */\n      swap1\n      dup2\n      mstore\n        /* \"profxexpo.sol\":13069:13074  nonce */\n      0x1e\n        /* \"profxexpo.sol\":13069:13080  nonce[user] */\n      0x20\n      swap1\n      dup2\n      mstore\n      0x40\n      swap2\n      dup3\n      swap1\n      keccak256\n      sload\n        /* \"profxexpo.sol\":12971:13198  abi.encodePacked(... */\n      dup3\n      mload\n      not(0xffffffffffffffffffffffff)\n        /* \"#utility.yul\":13192:13194   */\n      0x60\n        /* \"#utility.yul\":13188:13203   */\n      swap8\n      dup9\n      shl\n        /* \"#utility.yul\":13184:13237   */\n      dup2\n      and\n        /* \"profxexpo.sol\":12971:13198  abi.encodePacked(... */\n      dup3\n      dup6\n      add\n        /* \"#utility.yul\":13172:13238   */\n      mstore\n        /* \"#utility.yul\":13254:13266   */\n      0x34\n      dup3\n      add\n        /* \"#utility.yul\":13247:13275   */\n      swap7\n      swap1\n      swap7\n      mstore\n        /* \"#utility.yul\":13291:13303   */\n      0x54\n      dup2\n      add\n        /* \"#utility.yul\":13284:13312   */\n      swap2\n      swap1\n      swap2\n      mstore\n        /* \"#utility.yul\":13328:13340   */\n      0x74\n      dup2\n      add\n        /* \"#utility.yul\":13321:13349   */\n      swap4\n      swap1\n      swap4\n      mstore\n        /* \"profxexpo.sol\":13132:13145  block.chainid */\n      chainid\n        /* \"#utility.yul\":13365:13378   */\n      0x94\n      dup5\n      add\n        /* \"#utility.yul\":13358:13387   */\n      mstore\n        /* \"profxexpo.sol\":13175:13179  this */\n      address\n        /* \"#utility.yul\":13422:13437   */\n      swap1\n      swap5\n      shl\n        /* \"#utility.yul\":13418:13471   */\n      swap1\n      swap3\n      and\n        /* \"#utility.yul\":13403:13416   */\n      0xb4\n      dup3\n      add\n        /* \"#utility.yul\":13396:13472   */\n      mstore\n        /* \"profxexpo.sol\":12971:13198  abi.encodePacked(... */\n      dup2\n      mload\n      dup1\n      dup3\n      sub\n      0xa8\n      add\n      dup2\n      mstore\n        /* \"#utility.yul\":13488:13501   */\n      0xc8\n      swap1\n      swap2\n      add\n        /* \"profxexpo.sol\":12971:13198  abi.encodePacked(... */\n      swap1\n      swap2\n      mstore\n        /* \"profxexpo.sol\":12944:13212  keccak256(... */\n      dup1\n      mload\n      swap2\n      add\n      keccak256\n      swap1\n        /* \"profxexpo.sol\":12776:13219  function getWithdrawHash(... */\n      jump\t// out\n        /* \"profxexpo.sol\":2163:2264  function renounceOwnership() public virtual onlyOwner {... */\n    tag_151:\n        /* \"profxexpo.sol\":1899:1912  _checkOwner() */\n      tag_313\n        /* \"profxexpo.sol\":1899:1910  _checkOwner */\n      tag_314\n        /* \"profxexpo.sol\":1899:1912  _checkOwner() */\n      jump\t// in\n    tag_313:\n        /* \"profxexpo.sol\":2227:2257  _transferOwnership(address(0)) */\n      tag_270\n        /* \"profxexpo.sol\":2254:2255  0 */\n      0x00\n        /* \"profxexpo.sol\":2227:2245  _transferOwnership */\n      tag_317\n        /* \"profxexpo.sol\":2227:2257  _transferOwnership(address(0)) */\n      jump\t// in\n        /* \"profxexpo.sol\":14292:14398  function setUnitySignWallet(address _UnitySign) external onlyOwner {... */\n    tag_159:\n        /* \"profxexpo.sol\":1899:1912  _checkOwner() */\n      tag_319\n        /* \"profxexpo.sol\":1899:1910  _checkOwner */\n      tag_314\n        /* \"profxexpo.sol\":1899:1912  _checkOwner() */\n      jump\t// in\n    tag_319:\n        /* \"profxexpo.sol\":14369:14378  UnitySign */\n      0x05\n        /* \"profxexpo.sol\":14369:14391  UnitySign = _UnitySign */\n      dup1\n      sload\n      not(sub(shl(0xa0, 0x01), 0x01))\n      and\n      sub(shl(0xa0, 0x01), 0x01)\n      swap3\n      swap1\n      swap3\n      and\n      swap2\n      swap1\n      swap2\n      or\n      swap1\n      sstore\n        /* \"profxexpo.sol\":14292:14398  function setUnitySignWallet(address _UnitySign) external onlyOwner {... */\n      jump\t// out\n        /* \"profxexpo.sol\":12101:12280  function withdrawLostTokenFromBalance(uint QtyAmt,IERC20 _TOKEN) public {... */\n    tag_164:\n        /* \"profxexpo.sol\":1982:1989  address */\n      0x00\n        /* \"profxexpo.sol\":2008:2014  _owner */\n      sload\n      sub(shl(0xa0, 0x01), 0x01)\n      and\n        /* \"profxexpo.sol\":242:252  msg.sender */\n      caller\n        /* \"profxexpo.sol\":12191:12214  _msgSender() == owner() */\n      eq\n        /* \"profxexpo.sol\":12183:12228  require(_msgSender() == owner(), \"onlyOwner\") */\n      tag_324\n      jumpi\n      mload(0x40)\n      shl(0xe5, 0x461bcd)\n      dup2\n      mstore\n        /* \"#utility.yul\":13714:13716   */\n      0x20\n        /* \"profxexpo.sol\":12183:12228  require(_msgSender() == owner(), \"onlyOwner\") */\n      0x04\n      dup3\n      add\n        /* \"#utility.yul\":13696:13717   */\n      mstore\n        /* \"#utility.yul\":13753:13754   */\n      0x09\n        /* \"#utility.yul\":13733:13751   */\n      0x24\n      dup3\n      add\n        /* \"#utility.yul\":13726:13755   */\n      mstore\n      shl(0xb9, 0x37b7363ca7bbb732b9)\n        /* \"#utility.yul\":13771:13789   */\n      0x44\n      dup3\n      add\n        /* \"#utility.yul\":13764:13803   */\n      mstore\n        /* \"#utility.yul\":13820:13838   */\n      0x64\n      add\n        /* \"profxexpo.sol\":12183:12228  require(_msgSender() == owner(), \"onlyOwner\") */\n      tag_267\n        /* \"#utility.yul\":13512:13844   */\n      jump\n        /* \"profxexpo.sol\":12183:12228  require(_msgSender() == owner(), \"onlyOwner\") */\n    tag_324:\n        /* \"profxexpo.sol\":12238:12244  _TOKEN */\n      dup1\n      sub(shl(0xa0, 0x01), 0x01)\n        /* \"profxexpo.sol\":12238:12253  _TOKEN.transfer */\n      and\n      0xa9059cbb\n        /* \"profxexpo.sol\":12254:12261  owner() */\n      tag_327\n        /* \"profxexpo.sol\":1982:1989  address */\n      0x00\n        /* \"profxexpo.sol\":2008:2014  _owner */\n      sload\n      sub(shl(0xa0, 0x01), 0x01)\n      and\n      swap1\n        /* \"profxexpo.sol\":1936:2021  function owner() public view virtual returns (address) {... */\n      jump\n        /* \"profxexpo.sol\":12254:12261  owner() */\n    tag_327:\n        /* \"profxexpo.sol\":12263:12274  QtyAmt*1e18 */\n      tag_328\n        /* \"profxexpo.sol\":12263:12269  QtyAmt */\n      dup6\n        /* \"profxexpo.sol\":12270:12274  1e18 */\n      0x0de0b6b3a7640000\n        /* \"profxexpo.sol\":12263:12274  QtyAmt*1e18 */\n      tag_329\n      jump\t// in\n    tag_328:\n        /* \"profxexpo.sol\":12238:12276  _TOKEN.transfer(owner(),(QtyAmt*1e18)) */\n      mload(0x40)\n      not(sub(shl(0xe0, 0x01), 0x01))\n      0xe0\n      dup6\n      swap1\n      shl\n      and\n      dup2\n      mstore\n      sub(shl(0xa0, 0x01), 0x01)\n        /* \"#utility.yul\":14214:14246   */\n      swap1\n      swap3\n      and\n        /* \"profxexpo.sol\":12238:12276  _TOKEN.transfer(owner(),(QtyAmt*1e18)) */\n      0x04\n      dup4\n      add\n        /* \"#utility.yul\":14196:14247   */\n      mstore\n        /* \"#utility.yul\":14263:14281   */\n      0x24\n      dup3\n      add\n        /* \"#utility.yul\":14256:14290   */\n      mstore\n        /* \"#utility.yul\":14169:14187   */\n      0x44\n      add\n        /* \"profxexpo.sol\":12238:12276  _TOKEN.transfer(owner(),(QtyAmt*1e18)) */\n      0x20\n      mload(0x40)\n      dup1\n      dup4\n      sub\n      dup2\n      0x00\n      dup8\n      gas\n      call\n      iszero\n      dup1\n      iszero\n      tag_333\n      jumpi\n      returndatacopy(0x00, 0x00, returndatasize)\n      revert(0x00, returndatasize)\n    tag_333:\n      pop\n      pop\n      pop\n      pop\n      mload(0x40)\n      returndatasize\n      not(0x1f)\n      0x1f\n      dup3\n      add\n      and\n      dup3\n      add\n      dup1\n      0x40\n      mstore\n      pop\n      dup2\n      add\n      swap1\n      tag_306\n      swap2\n      swap1\n      tag_335\n      jump\t// in\n        /* \"profxexpo.sol\":5824:5857  uint256[] public levelBonusShares */\n    tag_172:\n      0x17\n      dup2\n      dup2\n      sload\n      dup2\n      lt\n      tag_261\n      jumpi\n      0x00\n      dup1\n      revert\n        /* \"profxexpo.sol\":12286:12766  function multisendToken(address payable[]  memory  _contributors, uint256[] memory _balances, uint256 totalQty,IERC20 _TKN) public payable {... */\n    tag_177:\n        /* \"profxexpo.sol\":12448:12456  totalQty */\n      dup2\n        /* \"profxexpo.sol\":12432:12445  uint256 total */\n      0x00\n        /* \"profxexpo.sol\":12489:12760  for (i; i < _contributors.length; i++) {... */\n    tag_339:\n        /* \"profxexpo.sol\":12501:12514  _contributors */\n      dup6\n        /* \"profxexpo.sol\":12501:12521  _contributors.length */\n      mload\n        /* \"profxexpo.sol\":12497:12498  i */\n      dup2\n        /* \"profxexpo.sol\":12497:12521  i < _contributors.length */\n      lt\n        /* \"profxexpo.sol\":12489:12760  for (i; i < _contributors.length; i++) {... */\n      iszero\n      tag_340\n      jumpi\n        /* \"profxexpo.sol\":12559:12568  _balances */\n      dup5\n        /* \"profxexpo.sol\":12569:12570  i */\n      dup2\n        /* \"profxexpo.sol\":12559:12571  _balances[i] */\n      dup2\n      mload\n      dup2\n      lt\n      tag_343\n      jumpi\n      tag_343\n      tag_297\n      jump\t// in\n    tag_343:\n      0x20\n      mul\n      0x20\n      add\n      add\n      mload\n        /* \"profxexpo.sol\":12550:12555  total */\n      dup3\n        /* \"profxexpo.sol\":12550:12571  total >= _balances[i] */\n      lt\n      iszero\n        /* \"profxexpo.sol\":12542:12572  require(total >= _balances[i]) */\n      tag_344\n      jumpi\n      revert(0x00, 0x00)\n    tag_344:\n        /* \"profxexpo.sol\":12602:12611  _balances */\n      dup5\n        /* \"profxexpo.sol\":12612:12613  i */\n      dup2\n        /* \"profxexpo.sol\":12602:12614  _balances[i] */\n      dup2\n      mload\n      dup2\n      lt\n      tag_346\n      jumpi\n      tag_346\n      tag_297\n      jump\t// in\n    tag_346:\n      0x20\n      mul\n      0x20\n      add\n      add\n      mload\n        /* \"profxexpo.sol\":12594:12599  total */\n      dup3\n        /* \"profxexpo.sol\":12594:12614  total - _balances[i] */\n      tag_347\n      swap2\n      swap1\n      tag_348\n      jump\t// in\n    tag_347:\n        /* \"profxexpo.sol\":12586:12614  total = total - _balances[i] */\n      swap2\n      pop\n        /* \"profxexpo.sol\":12628:12632  _TKN */\n      dup3\n      sub(shl(0xa0, 0x01), 0x01)\n        /* \"profxexpo.sol\":12628:12645  _TKN.transferFrom */\n      and\n      0x23b872dd\n        /* \"profxexpo.sol\":12646:12656  msg.sender */\n      caller\n        /* \"profxexpo.sol\":12658:12671  _contributors */\n      dup9\n        /* \"profxexpo.sol\":12672:12673  i */\n      dup5\n        /* \"profxexpo.sol\":12658:12674  _contributors[i] */\n      dup2\n      mload\n      dup2\n      lt\n      tag_350\n      jumpi\n      tag_350\n      tag_297\n      jump\t// in\n    tag_350:\n      0x20\n      mul\n      0x20\n      add\n      add\n      mload\n        /* \"profxexpo.sol\":12676:12685  _balances */\n      dup9\n        /* \"profxexpo.sol\":12686:12687  i */\n      dup6\n        /* \"profxexpo.sol\":12676:12688  _balances[i] */\n      dup2\n      mload\n      dup2\n      lt\n      tag_352\n      jumpi\n      tag_352\n      tag_297\n      jump\t// in\n    tag_352:\n      0x20\n      swap1\n      dup2\n      mul\n      swap2\n      swap1\n      swap2\n      add\n      add\n      mload\n        /* \"profxexpo.sol\":12628:12689  _TKN.transferFrom(msg.sender, _contributors[i], _balances[i]) */\n      mload(0x40)\n      not(sub(shl(0xe0, 0x01), 0x01))\n      0xe0\n      dup7\n      swap1\n      shl\n      and\n      dup2\n      mstore\n      sub(shl(0xa0, 0x01), 0x01)\n        /* \"#utility.yul\":14944:14976   */\n      swap4\n      dup5\n      and\n        /* \"profxexpo.sol\":12628:12689  _TKN.transferFrom(msg.sender, _contributors[i], _balances[i]) */\n      0x04\n      dup3\n      add\n        /* \"#utility.yul\":14926:14977   */\n      mstore\n        /* \"#utility.yul\":15013:15045   */\n      swap3\n      swap1\n      swap2\n      and\n        /* \"#utility.yul\":14993:15011   */\n      0x24\n      dup4\n      add\n        /* \"#utility.yul\":14986:15046   */\n      mstore\n        /* \"#utility.yul\":15062:15080   */\n      0x44\n      dup3\n      add\n        /* \"#utility.yul\":15055:15089   */\n      mstore\n        /* \"#utility.yul\":14899:14917   */\n      0x64\n      add\n        /* \"profxexpo.sol\":12628:12689  _TKN.transferFrom(msg.sender, _contributors[i], _balances[i]) */\n      0x20\n      mload(0x40)\n      dup1\n      dup4\n      sub\n      dup2\n      0x00\n      dup8\n      gas\n      call\n      iszero\n      dup1\n      iszero\n      tag_356\n      jumpi\n      returndatacopy(0x00, 0x00, returndatasize)\n      revert(0x00, returndatasize)\n    tag_356:\n      pop\n      pop\n      pop\n      pop\n      mload(0x40)\n      returndatasize\n      not(0x1f)\n      0x1f\n      dup3\n      add\n      and\n      dup3\n      add\n      dup1\n      0x40\n      mstore\n      pop\n      dup2\n      add\n      swap1\n      tag_357\n      swap2\n      swap1\n      tag_335\n      jump\t// in\n    tag_357:\n      pop\n        /* \"profxexpo.sol\":12719:12732  _contributors */\n      dup6\n        /* \"profxexpo.sol\":12733:12734  i */\n      dup2\n        /* \"profxexpo.sol\":12719:12735  _contributors[i] */\n      dup2\n      mload\n      dup2\n      lt\n      tag_359\n      jumpi\n      tag_359\n      tag_297\n      jump\t// in\n    tag_359:\n      0x20\n      mul\n      0x20\n      add\n      add\n      mload\n      sub(shl(0xa0, 0x01), 0x01)\n        /* \"profxexpo.sol\":12705:12749  MemberPayment(_contributors[i],_balances[i]) */\n      and\n      0xbd54bf7a35b4f30a5c2e53df02c464dc7c2a159a96b24dbb41cd9808bd6e2e36\n        /* \"profxexpo.sol\":12736:12745  _balances */\n      dup7\n        /* \"profxexpo.sol\":12746:12747  i */\n      dup4\n        /* \"profxexpo.sol\":12736:12748  _balances[i] */\n      dup2\n      mload\n      dup2\n      lt\n      tag_361\n      jumpi\n      tag_361\n      tag_297\n      jump\t// in\n    tag_361:\n      0x20\n      mul\n      0x20\n      add\n      add\n      mload\n        /* \"profxexpo.sol\":12705:12749  MemberPayment(_contributors[i],_balances[i]) */\n      mload(0x40)\n      tag_362\n      swap2\n        /* \"#utility.yul\":391:416   */\n      dup2\n      mstore\n        /* \"#utility.yul\":379:381   */\n      0x20\n        /* \"#utility.yul\":364:382   */\n      add\n      swap1\n        /* \"#utility.yul\":245:422   */\n      jump\n        /* \"profxexpo.sol\":12705:12749  MemberPayment(_contributors[i],_balances[i]) */\n    tag_362:\n      mload(0x40)\n      dup1\n      swap2\n      sub\n      swap1\n      log2\n        /* \"profxexpo.sol\":12523:12526  i++ */\n      0x01\n      add\n        /* \"profxexpo.sol\":12489:12760  for (i; i < _contributors.length; i++) {... */\n      jump(tag_339)\n    tag_340:\n        /* \"profxexpo.sol\":12425:12766  {... */\n      pop\n      pop\n        /* \"profxexpo.sol\":12286:12766  function multisendToken(address payable[]  memory  _contributors, uint256[] memory _balances, uint256 totalQty,IERC20 _TKN) public payable {... */\n      pop\n      pop\n      pop\n      pop\n      jump\t// out\n        /* \"profxexpo.sol\":11798:11860  function pause() external onlyOperator {... */\n    tag_180:\n        /* \"profxexpo.sol\":6812:6820  operator */\n      and(sub(shl(0xa0, 0x01), 0x01), sload(0x03))\n        /* \"profxexpo.sol\":242:252  msg.sender */\n      caller\n      sub(shl(0xa0, 0x01), 0x01)\n        /* \"profxexpo.sol\":6798:6820  _msgSender()==operator */\n      and\n      eq\n        /* \"profxexpo.sol\":6790:6857  require(_msgSender()==operator,\"Forbidden! Only Operator Can Call\") */\n      tag_365\n      jumpi\n      mload(0x40)\n      shl(0xe5, 0x461bcd)\n      dup2\n      mstore\n      0x04\n      add\n      tag_267\n      swap1\n      tag_268\n      jump\t// in\n    tag_365:\n        /* \"profxexpo.sol\":11845:11853  _pause() */\n      tag_270\n        /* \"profxexpo.sol\":11845:11851  _pause */\n      tag_369\n        /* \"profxexpo.sol\":11845:11853  _pause() */\n      jump\t// in\n        /* \"profxexpo.sol\":6173:6198  Package[] public packages */\n    tag_198:\n      0x1f\n      dup2\n      dup2\n      sload\n      dup2\n      lt\n      tag_371\n      jumpi\n      0x00\n      dup1\n      revert\n    tag_371:\n      swap1\n      0x00\n      mstore\n      keccak256(0x00, 0x20)\n      swap1\n      0x05\n      mul\n      add\n      0x00\n      swap2\n      pop\n      swap1\n      pop\n      dup1\n      0x00\n      add\n      sload\n      swap1\n      dup1\n      0x01\n      add\n      sload\n      swap1\n      dup1\n      0x02\n      add\n      sload\n      swap1\n      dup1\n      0x03\n      add\n      sload\n      swap1\n      dup1\n      0x04\n      add\n      dup1\n      sload\n      tag_373\n      swap1\n      tag_374\n      jump\t// in\n    tag_373:\n      dup1\n      0x1f\n      add\n      0x20\n      dup1\n      swap2\n      div\n      mul\n      0x20\n      add\n      mload(0x40)\n      swap1\n      dup2\n      add\n      0x40\n      mstore\n      dup1\n      swap3\n      swap2\n      swap1\n      dup2\n      dup2\n      mstore\n      0x20\n      add\n      dup3\n      dup1\n      sload\n      tag_375\n      swap1\n      tag_374\n      jump\t// in\n    tag_375:\n      dup1\n      iszero\n      tag_376\n      jumpi\n      dup1\n      0x1f\n      lt\n      tag_377\n      jumpi\n      0x0100\n      dup1\n      dup4\n      sload\n      div\n      mul\n      dup4\n      mstore\n      swap2\n      0x20\n      add\n      swap2\n      jump(tag_376)\n    tag_377:\n      dup3\n      add\n      swap2\n      swap1\n      0x00\n      mstore\n      keccak256(0x00, 0x20)\n      swap1\n    tag_378:\n      dup2\n      sload\n      dup2\n      mstore\n      swap1\n      0x01\n      add\n      swap1\n      0x20\n      add\n      dup1\n      dup4\n      gt\n      tag_378\n      jumpi\n      dup3\n      swap1\n      sub\n      0x1f\n      and\n      dup3\n      add\n      swap2\n    tag_376:\n      pop\n      pop\n      pop\n      pop\n      pop\n      swap1\n      pop\n      dup6\n      jump\t// out\n        /* \"profxexpo.sol\":8837:10085  function stakestDSC(uint amount, uint plan, address _referral) public {... */\n    tag_222:\n        /* \"profxexpo.sol\":8922:8948  isUserExists(_msgSender()) */\n      tag_380\n        /* \"profxexpo.sol\":242:252  msg.sender */\n      caller\n        /* \"profxexpo.sol\":11678:11790  function isUserExists(address user) public view returns (bool) {... */\n      tag_111\n      jump\t// in\n        /* \"profxexpo.sol\":8922:8948  isUserExists(_msgSender()) */\n    tag_380:\n        /* \"profxexpo.sol\":8918:9014  if(!isUserExists(_msgSender())){... */\n      tag_383\n      jumpi\n        /* \"profxexpo.sol\":8959:9003  registration(_msgSender(),_referral,\"stDSC\") */\n      tag_383\n        /* \"profxexpo.sol\":242:252  msg.sender */\n      caller\n        /* \"profxexpo.sol\":8985:8994  _referral */\n      dup3\n        /* \"profxexpo.sol\":8959:9003  registration(_msgSender(),_referral,\"stDSC\") */\n      mload(0x40)\n      dup1\n      0x40\n      add\n      0x40\n      mstore\n      dup1\n      0x05\n      dup2\n      mstore\n      0x20\n      add\n      shl(0xd8, 0x7374445343)\n      dup2\n      mstore\n      pop\n        /* \"profxexpo.sol\":8959:8971  registration */\n      tag_385\n        /* \"profxexpo.sol\":8959:9003  registration(_msgSender(),_referral,\"stDSC\") */\n      jump\t// in\n    tag_383:\n        /* \"profxexpo.sol\":9031:9057  isUserExists(_msgSender()) */\n      tag_386\n        /* \"profxexpo.sol\":242:252  msg.sender */\n      caller\n        /* \"profxexpo.sol\":11678:11790  function isUserExists(address user) public view returns (bool) {... */\n      tag_111\n      jump\t// in\n        /* \"profxexpo.sol\":9031:9057  isUserExists(_msgSender()) */\n    tag_386:\n        /* \"profxexpo.sol\":9023:9086  require(isUserExists(_msgSender()), \"Dsclab: User not Exists!\") */\n      tag_388\n      jumpi\n      mload(0x40)\n      shl(0xe5, 0x461bcd)\n      dup2\n      mstore\n        /* \"#utility.yul\":15302:15304   */\n      0x20\n        /* \"profxexpo.sol\":9023:9086  require(isUserExists(_msgSender()), \"Dsclab: User not Exists!\") */\n      0x04\n      dup3\n      add\n        /* \"#utility.yul\":15284:15305   */\n      mstore\n        /* \"#utility.yul\":15341:15343   */\n      0x18\n        /* \"#utility.yul\":15321:15339   */\n      0x24\n      dup3\n      add\n        /* \"#utility.yul\":15314:15344   */\n      mstore\n        /* \"#utility.yul\":15380:15406   */\n      0x4473636c61623a2055736572206e6f7420457869737473210000000000000000\n        /* \"#utility.yul\":15360:15378   */\n      0x44\n      dup3\n      add\n        /* \"#utility.yul\":15353:15407   */\n      mstore\n        /* \"#utility.yul\":15424:15442   */\n      0x64\n      add\n        /* \"profxexpo.sol\":9023:9086  require(isUserExists(_msgSender()), \"Dsclab: User not Exists!\") */\n      tag_267\n        /* \"#utility.yul\":15100:15448   */\n      jump\n        /* \"profxexpo.sol\":9023:9086  require(isUserExists(_msgSender()), \"Dsclab: User not Exists!\") */\n    tag_388:\n        /* \"profxexpo.sol\":9114:9122  minStake */\n      sload(0x0b)\n        /* \"profxexpo.sol\":9104:9110  amount */\n      dup4\n        /* \"profxexpo.sol\":9104:9122  amount >= minStake */\n      lt\n      iszero\n        /* \"profxexpo.sol\":9096:9152  require(amount >= minStake, \"Minimum Activation is $60\") */\n      tag_391\n      jumpi\n      mload(0x40)\n      shl(0xe5, 0x461bcd)\n      dup2\n      mstore\n        /* \"#utility.yul\":15655:15657   */\n      0x20\n        /* \"profxexpo.sol\":9096:9152  require(amount >= minStake, \"Minimum Activation is $60\") */\n      0x04\n      dup3\n      add\n        /* \"#utility.yul\":15637:15658   */\n      mstore\n        /* \"#utility.yul\":15694:15696   */\n      0x19\n        /* \"#utility.yul\":15674:15692   */\n      0x24\n      dup3\n      add\n        /* \"#utility.yul\":15667:15697   */\n      mstore\n        /* \"#utility.yul\":15733:15760   */\n      0x4d696e696d756d2041637469766174696f6e2069732024363000000000000000\n        /* \"#utility.yul\":15713:15731   */\n      0x44\n      dup3\n      add\n        /* \"#utility.yul\":15706:15761   */\n      mstore\n        /* \"#utility.yul\":15778:15796   */\n      0x64\n      add\n        /* \"profxexpo.sol\":9096:9152  require(amount >= minStake, \"Minimum Activation is $60\") */\n      tag_267\n        /* \"#utility.yul\":15453:15802   */\n      jump\n        /* \"profxexpo.sol\":9096:9152  require(amount >= minStake, \"Minimum Activation is $60\") */\n    tag_391:\n        /* \"profxexpo.sol\":9180:9188  maxStake */\n      sload(0x0c)\n        /* \"profxexpo.sol\":9170:9176  amount */\n      dup4\n        /* \"profxexpo.sol\":9170:9188  amount <= maxStake */\n      gt\n      iszero\n        /* \"profxexpo.sol\":9162:9221  require(amount <= maxStake, \"Maximum Activation is $10000\") */\n      tag_394\n      jumpi\n      mload(0x40)\n      shl(0xe5, 0x461bcd)\n      dup2\n      mstore\n        /* \"#utility.yul\":16009:16011   */\n      0x20\n        /* \"profxexpo.sol\":9162:9221  require(amount <= maxStake, \"Maximum Activation is $10000\") */\n      0x04\n      dup3\n      add\n        /* \"#utility.yul\":15991:16012   */\n      mstore\n        /* \"#utility.yul\":16048:16050   */\n      0x1c\n        /* \"#utility.yul\":16028:16046   */\n      0x24\n      dup3\n      add\n        /* \"#utility.yul\":16021:16051   */\n      mstore\n        /* \"#utility.yul\":16087:16117   */\n      0x4d6178696d756d2041637469766174696f6e2069732024313030303000000000\n        /* \"#utility.yul\":16067:16085   */\n      0x44\n      dup3\n      add\n        /* \"#utility.yul\":16060:16118   */\n      mstore\n        /* \"#utility.yul\":16135:16153   */\n      0x64\n      add\n        /* \"profxexpo.sol\":9162:9221  require(amount <= maxStake, \"Maximum Activation is $10000\") */\n      tag_267\n        /* \"#utility.yul\":15807:16159   */\n      jump\n        /* \"profxexpo.sol\":9162:9221  require(amount <= maxStake, \"Maximum Activation is $10000\") */\n    tag_394:\n        /* \"profxexpo.sol\":9239:9243  plan */\n      dup2\n        /* \"profxexpo.sol\":9247:9248  1 */\n      0x01\n        /* \"profxexpo.sol\":9239:9248  plan == 1 */\n      eq\n        /* \"profxexpo.sol\":9231:9296  require(plan == 1, \"In Fix plan only USDT investment is allowed\") */\n      tag_397\n      jumpi\n      mload(0x40)\n      shl(0xe5, 0x461bcd)\n      dup2\n      mstore\n        /* \"#utility.yul\":16366:16368   */\n      0x20\n        /* \"profxexpo.sol\":9231:9296  require(plan == 1, \"In Fix plan only USDT investment is allowed\") */\n      0x04\n      dup3\n      add\n        /* \"#utility.yul\":16348:16369   */\n      mstore\n        /* \"#utility.yul\":16405:16407   */\n      0x2b\n        /* \"#utility.yul\":16385:16403   */\n      0x24\n      dup3\n      add\n        /* \"#utility.yul\":16378:16408   */\n      mstore\n        /* \"#utility.yul\":16444:16478   */\n      0x496e2046697820706c616e206f6e6c79205553445420696e766573746d656e74\n        /* \"#utility.yul\":16424:16442   */\n      0x44\n      dup3\n      add\n        /* \"#utility.yul\":16417:16479   */\n      mstore\n      shl(0xaa, 0x081a5cc8185b1b1bddd959)\n        /* \"#utility.yul\":16495:16513   */\n      0x64\n      dup3\n      add\n        /* \"#utility.yul\":16488:16529   */\n      mstore\n        /* \"#utility.yul\":16546:16565   */\n      0x84\n      add\n        /* \"profxexpo.sol\":9231:9296  require(plan == 1, \"In Fix plan only USDT investment is allowed\") */\n      tag_267\n        /* \"#utility.yul\":16164:16571   */\n      jump\n        /* \"profxexpo.sol\":9231:9296  require(plan == 1, \"In Fix plan only USDT investment is allowed\") */\n    tag_397:\n        /* \"profxexpo.sol\":242:252  msg.sender */\n      caller\n        /* \"profxexpo.sol\":9306:9320  uint lastinvst */\n      0x00\n        /* \"profxexpo.sol\":9323:9342  users[_msgSender()] */\n      swap1\n      dup2\n      mstore\n        /* \"profxexpo.sol\":9323:9328  users */\n      0x1c\n        /* \"profxexpo.sol\":9323:9342  users[_msgSender()] */\n      0x20\n      mstore\n      0x40\n      swap1\n      keccak256\n        /* \"profxexpo.sol\":9323:9353  users[_msgSender()].lastinvest */\n      0x06\n      add\n      sload\n        /* \"profxexpo.sol\":9366:9379  lastinvst > 0 */\n      dup1\n      iszero\n        /* \"profxexpo.sol\":9363:9492  if(lastinvst > 0){... */\n      tag_402\n      jumpi\n        /* \"profxexpo.sol\":9408:9417  lastinvst */\n      dup1\n        /* \"profxexpo.sol\":9398:9404  amount */\n      dup5\n        /* \"profxexpo.sol\":9398:9417  amount >= lastinvst */\n      lt\n      iszero\n        /* \"profxexpo.sol\":9390:9477  require(amount >= lastinvst, \"Re Investment Should Equal/Greater than last Investment\") */\n      tag_402\n      jumpi\n      mload(0x40)\n      shl(0xe5, 0x461bcd)\n      dup2\n      mstore\n        /* \"#utility.yul\":16778:16780   */\n      0x20\n        /* \"profxexpo.sol\":9390:9477  require(amount >= lastinvst, \"Re Investment Should Equal/Greater than last Investment\") */\n      0x04\n      dup3\n      add\n        /* \"#utility.yul\":16760:16781   */\n      mstore\n        /* \"#utility.yul\":16817:16819   */\n      0x37\n        /* \"#utility.yul\":16797:16815   */\n      0x24\n      dup3\n      add\n        /* \"#utility.yul\":16790:16820   */\n      mstore\n        /* \"#utility.yul\":16856:16890   */\n      0x526520496e766573746d656e742053686f756c6420457175616c2f4772656174\n        /* \"#utility.yul\":16836:16854   */\n      0x44\n      dup3\n      add\n        /* \"#utility.yul\":16829:16891   */\n      mstore\n        /* \"#utility.yul\":16927:16952   */\n      0x6572207468616e206c61737420496e766573746d656e74000000000000000000\n        /* \"#utility.yul\":16907:16925   */\n      0x64\n      dup3\n      add\n        /* \"#utility.yul\":16900:16953   */\n      mstore\n        /* \"#utility.yul\":16970:16989   */\n      0x84\n      add\n        /* \"profxexpo.sol\":9390:9477  require(amount >= lastinvst, \"Re Investment Should Equal/Greater than last Investment\") */\n      tag_267\n        /* \"#utility.yul\":16576:16995   */\n      jump\n        /* \"profxexpo.sol\":9390:9477  require(amount >= lastinvst, \"Re Investment Should Equal/Greater than last Investment\") */\n    tag_402:\n        /* \"profxexpo.sol\":9515:9532  11200000000000000 */\n      0x27ca57357c0000\n        /* \"profxexpo.sol\":9502:9512  uint price */\n      0x00\n        /* \"profxexpo.sol\":9515:9532  11200000000000000 */\n      dup2\n        /* \"profxexpo.sol\":9561:9572  amount*1e18 */\n      tag_405\n        /* \"profxexpo.sol\":9561:9567  amount */\n      dup8\n        /* \"profxexpo.sol\":9568:9572  1e18 */\n      0x0de0b6b3a7640000\n        /* \"profxexpo.sol\":9561:9572  amount*1e18 */\n      tag_329\n      jump\t// in\n    tag_405:\n        /* \"profxexpo.sol\":9560:9579  (amount*1e18)/price */\n      tag_406\n      swap2\n      swap1\n      tag_407\n      jump\t// in\n    tag_406:\n        /* \"profxexpo.sol\":242:252  msg.sender */\n      caller\n        /* \"profxexpo.sol\":9597:9608  address ref */\n      0x00\n        /* \"profxexpo.sol\":9611:9630  users[_msgSender()] */\n      swap1\n      dup2\n      mstore\n        /* \"profxexpo.sol\":9611:9616  users */\n      0x1c\n        /* \"profxexpo.sol\":9611:9630  users[_msgSender()] */\n      0x20\n      mstore\n      0x40\n      dup2\n      keccak256\n        /* \"profxexpo.sol\":9611:9639  users[_msgSender()].referrer */\n      0x01\n      dup2\n      add\n      sload\n        /* \"profxexpo.sol\":9665:9695  users[_msgSender()].totalStake */\n      0x03\n      swap1\n      swap2\n      add\n      sload\n        /* \"profxexpo.sol\":9543:9579  uint256 DSCCMQty=(amount*1e18)/price */\n      swap3\n      swap4\n      pop\n      sub(shl(0xa0, 0x01), 0x01)\n        /* \"profxexpo.sol\":9611:9639  users[_msgSender()].referrer */\n      and\n      swap2\n        /* \"profxexpo.sol\":9665:9695  users[_msgSender()].totalStake */\n      swap1\n        /* \"profxexpo.sol\":9732:9745  usrstake == 0 */\n      dup2\n      iszero\n        /* \"profxexpo.sol\":9731:9766  (usrstake == 0) ? \"New\" : \"Retopup\" */\n      tag_410\n      jumpi\n      mload(0x40)\n      dup1\n      0x40\n      add\n      0x40\n      mstore\n      dup1\n      0x07\n      dup2\n      mstore\n      0x20\n      add\n      shl(0xcc, 0x05265746f70757)\n      dup2\n      mstore\n      pop\n      jump(tag_411)\n    tag_410:\n      mload(0x40)\n      dup1\n      0x40\n      add\n      0x40\n      mstore\n      dup1\n      0x03\n      dup2\n      mstore\n      0x20\n      add\n      shl(0xe8, 0x4e6577)\n      dup2\n      mstore\n      pop\n    tag_411:\n        /* \"profxexpo.sol\":9705:9766  string memory stakeType = (usrstake == 0) ? \"New\" : \"Retopup\" */\n      swap1\n      pop\n        /* \"profxexpo.sol\":9787:9797  msg.sender */\n      caller\n      sub(shl(0xa0, 0x01), 0x01)\n        /* \"profxexpo.sol\":9781:9842  Stake(msg.sender, amount, DSCCMQty, \"stDSC\", stakeType, plan) */\n      and\n      0xabd608a4ba071391876d4741f99ba49362bd2fc5afcf4f1fc9ecf91d6a73ccf8\n        /* \"profxexpo.sol\":9799:9805  amount */\n      dup11\n        /* \"profxexpo.sol\":9807:9815  DSCCMQty */\n      dup7\n        /* \"profxexpo.sol\":9826:9835  stakeType */\n      dup5\n        /* \"profxexpo.sol\":9837:9841  plan */\n      dup13\n        /* \"profxexpo.sol\":9781:9842  Stake(msg.sender, amount, DSCCMQty, \"stDSC\", stakeType, plan) */\n      mload(0x40)\n      tag_412\n      swap5\n      swap4\n      swap3\n      swap2\n      swap1\n      tag_413\n      jump\t// in\n    tag_412:\n      mload(0x40)\n      dup1\n      swap2\n      sub\n      swap1\n      log2\n        /* \"profxexpo.sol\":242:252  msg.sender */\n      caller\n        /* \"profxexpo.sol\":9852:9871  users[_msgSender()] */\n      0x00\n      swap1\n      dup2\n      mstore\n        /* \"profxexpo.sol\":9852:9857  users */\n      0x1c\n        /* \"profxexpo.sol\":9852:9871  users[_msgSender()] */\n      0x20\n      mstore\n      0x40\n      dup2\n      keccak256\n        /* \"profxexpo.sol\":9852:9882  users[_msgSender()].lastinvest */\n      0x06\n      dup2\n      add\n        /* \"profxexpo.sol\":9852:9891  users[_msgSender()].lastinvest = amount */\n      dup12\n      swap1\n      sstore\n        /* \"profxexpo.sol\":9901:9931  users[_msgSender()].totalStake */\n      0x03\n      add\n        /* \"profxexpo.sol\":9901:9941  users[_msgSender()].totalStake += amount */\n      dup1\n      sload\n        /* \"profxexpo.sol\":9852:9891  users[_msgSender()].lastinvest = amount */\n      dup12\n      swap3\n        /* \"profxexpo.sol\":9852:9871  users[_msgSender()] */\n      swap1\n        /* \"profxexpo.sol\":9901:9941  users[_msgSender()].totalStake += amount */\n      tag_416\n      swap1\n        /* \"profxexpo.sol\":9852:9891  users[_msgSender()].lastinvest = amount */\n      dup5\n      swap1\n        /* \"profxexpo.sol\":9901:9941  users[_msgSender()].totalStake += amount */\n      tag_417\n      jump\t// in\n    tag_416:\n      swap1\n      swap2\n      sstore\n      pop\n      pop\n        /* \"profxexpo.sol\":242:252  msg.sender */\n      caller\n        /* \"profxexpo.sol\":9951:9964  uint refStake */\n      0x00\n        /* \"profxexpo.sol\":9967:9986  users[_msgSender()] */\n      swap1\n      dup2\n      mstore\n        /* \"profxexpo.sol\":9967:9972  users */\n      0x1c\n        /* \"profxexpo.sol\":9967:9986  users[_msgSender()] */\n      0x20\n      mstore\n      0x40\n      dup2\n      keccak256\n        /* \"profxexpo.sol\":9967:9997  users[_msgSender()].totalStake */\n      0x03\n      add\n      sload\n      swap1\n        /* \"profxexpo.sol\":10010:10023  refStake == 0 */\n      dup2\n      swap1\n      sub\n        /* \"profxexpo.sol\":10007:10070  if(refStake == 0){... */\n      tag_419\n      jumpi\n      sub(shl(0xa0, 0x01), 0x01)\n        /* \"profxexpo.sol\":10034:10044  users[ref] */\n      dup5\n      and\n      0x00\n      swap1\n      dup2\n      mstore\n        /* \"profxexpo.sol\":10034:10039  users */\n      0x1c\n        /* \"profxexpo.sol\":10034:10044  users[ref] */\n      0x20\n      mstore\n      0x40\n      dup2\n      keccak256\n        /* \"profxexpo.sol\":10034:10057  users[ref].partnerCount */\n      0x02\n      add\n        /* \"profxexpo.sol\":10034:10059  users[ref].partnerCount++ */\n      dup1\n      sload\n      swap2\n      tag_420\n      dup4\n      tag_303\n      jump\t// in\n    tag_420:\n      swap2\n      swap1\n      pop\n      sstore\n      pop\n        /* \"profxexpo.sol\":10007:10070  if(refStake == 0){... */\n    tag_419:\n        /* \"profxexpo.sol\":8907:10085  {... */\n      pop\n      pop\n      pop\n      pop\n      pop\n      pop\n      pop\n        /* \"profxexpo.sol\":8837:10085  function stakestDSC(uint amount, uint plan, address _referral) public {... */\n      pop\n      pop\n      pop\n      jump\t// out\n        /* \"profxexpo.sol\":5904:5934  address[] public adminAchivers */\n    tag_238:\n      0x19\n      dup2\n      dup2\n      sload\n      dup2\n      lt\n      tag_421\n      jumpi\n      0x00\n      dup1\n      revert\n    tag_421:\n      0x00\n      swap2\n      dup3\n      mstore\n      0x20\n      swap1\n      swap2\n      keccak256\n      add\n      sload\n      sub(shl(0xa0, 0x01), 0x01)\n      and\n      swap1\n      pop\n      dup2\n      jump\t// out\n        /* \"profxexpo.sol\":2270:2502  function transferOwnership(address newOwner) public virtual onlyOwner {... */\n    tag_243:\n        /* \"profxexpo.sol\":1899:1912  _checkOwner() */\n      tag_424\n        /* \"profxexpo.sol\":1899:1910  _checkOwner */\n      tag_314\n        /* \"profxexpo.sol\":1899:1912  _checkOwner() */\n      jump\t// in\n    tag_424:\n      sub(shl(0xa0, 0x01), 0x01)\n        /* \"profxexpo.sol\":2371:2393  newOwner != address(0) */\n      dup2\n      and\n        /* \"profxexpo.sol\":2350:2457  require(... */\n      tag_426\n      jumpi\n      mload(0x40)\n      shl(0xe5, 0x461bcd)\n      dup2\n      mstore\n        /* \"#utility.yul\":18220:18222   */\n      0x20\n        /* \"profxexpo.sol\":2350:2457  require(... */\n      0x04\n      dup3\n      add\n        /* \"#utility.yul\":18202:18223   */\n      mstore\n        /* \"#utility.yul\":18259:18261   */\n      0x26\n        /* \"#utility.yul\":18239:18257   */\n      0x24\n      dup3\n      add\n        /* \"#utility.yul\":18232:18262   */\n      mstore\n        /* \"#utility.yul\":18298:18332   */\n      0x4f776e61626c653a206e6577206f776e657220697320746865207a65726f2061\n        /* \"#utility.yul\":18278:18296   */\n      0x44\n      dup3\n      add\n        /* \"#utility.yul\":18271:18333   */\n      mstore\n      shl(0xd0, 0x646472657373)\n        /* \"#utility.yul\":18349:18367   */\n      0x64\n      dup3\n      add\n        /* \"#utility.yul\":18342:18378   */\n      mstore\n        /* \"#utility.yul\":18395:18414   */\n      0x84\n      add\n        /* \"profxexpo.sol\":2350:2457  require(... */\n      tag_267\n        /* \"#utility.yul\":18018:18420   */\n      jump\n        /* \"profxexpo.sol\":2350:2457  require(... */\n    tag_426:\n        /* \"profxexpo.sol\":2467:2495  _transferOwnership(newOwner) */\n      tag_429\n        /* \"profxexpo.sol\":2486:2494  newOwner */\n      dup2\n        /* \"profxexpo.sol\":2467:2485  _transferOwnership */\n      tag_317\n        /* \"profxexpo.sol\":2467:2495  _transferOwnership(newOwner) */\n      jump\t// in\n    tag_429:\n        /* \"profxexpo.sol\":2270:2502  function transferOwnership(address newOwner) public virtual onlyOwner {... */\n      pop\n      jump\t// out\n        /* \"profxexpo.sol\":11939:12096  function withdrawLost(uint256 WithAmt) public {... */\n    tag_247:\n        /* \"profxexpo.sol\":1982:1989  address */\n      0x00\n        /* \"profxexpo.sol\":2008:2014  _owner */\n      sload\n      sub(shl(0xa0, 0x01), 0x01)\n      and\n        /* \"profxexpo.sol\":242:252  msg.sender */\n      caller\n        /* \"profxexpo.sol\":12003:12026  _msgSender() == owner() */\n      eq\n        /* \"profxexpo.sol\":11995:12040  require(_msgSender() == owner(), \"onlyOwner\") */\n      tag_433\n      jumpi\n      mload(0x40)\n      shl(0xe5, 0x461bcd)\n      dup2\n      mstore\n        /* \"#utility.yul\":13714:13716   */\n      0x20\n        /* \"profxexpo.sol\":11995:12040  require(_msgSender() == owner(), \"onlyOwner\") */\n      0x04\n      dup3\n      add\n        /* \"#utility.yul\":13696:13717   */\n      mstore\n        /* \"#utility.yul\":13753:13754   */\n      0x09\n        /* \"#utility.yul\":13733:13751   */\n      0x24\n      dup3\n      add\n        /* \"#utility.yul\":13726:13755   */\n      mstore\n      shl(0xb9, 0x37b7363ca7bbb732b9)\n        /* \"#utility.yul\":13771:13789   */\n      0x44\n      dup3\n      add\n        /* \"#utility.yul\":13764:13803   */\n      mstore\n        /* \"#utility.yul\":13820:13838   */\n      0x64\n      add\n        /* \"profxexpo.sol\":11995:12040  require(_msgSender() == owner(), \"onlyOwner\") */\n      tag_267\n        /* \"#utility.yul\":13512:13844   */\n      jump\n        /* \"profxexpo.sol\":11995:12040  require(_msgSender() == owner(), \"onlyOwner\") */\n    tag_433:\n        /* \"profxexpo.sol\":1982:1989  address */\n      0x00\n        /* \"profxexpo.sol\":2008:2014  _owner */\n      sload\n      sub(shl(0xa0, 0x01), 0x01)\n      and\n        /* \"profxexpo.sol\":12050:12089  payable(owner()).transfer(WithAmt*1e18) */\n      0x08fc\n        /* \"profxexpo.sol\":12076:12088  WithAmt*1e18 */\n      tag_436\n        /* \"profxexpo.sol\":12076:12083  WithAmt */\n      dup4\n        /* \"profxexpo.sol\":12084:12088  1e18 */\n      0x0de0b6b3a7640000\n        /* \"profxexpo.sol\":12076:12088  WithAmt*1e18 */\n      tag_329\n      jump\t// in\n    tag_436:\n        /* \"profxexpo.sol\":12050:12089  payable(owner()).transfer(WithAmt*1e18) */\n      mload(0x40)\n      dup2\n      iszero\n      swap1\n      swap3\n      mul\n      swap2\n      0x00\n      dup2\n      dup2\n      dup2\n      dup6\n      dup9\n      dup9\n      call\n      swap4\n      pop\n      pop\n      pop\n      pop\n      iszero\n      dup1\n      iszero\n      tag_438\n      jumpi\n      returndatacopy(0x00, 0x00, returndatasize)\n      revert(0x00, returndatasize)\n    tag_438:\n      pop\n        /* \"profxexpo.sol\":11939:12096  function withdrawLost(uint256 WithAmt) public {... */\n      pop\n      jump\t// out\n        /* \"profxexpo.sol\":13742:14282  function withdrawWeeklyReward(... */\n    tag_256:\n        /* \"profxexpo.sol\":620:641  _nonReentrantBefore() */\n      tag_440\n        /* \"profxexpo.sol\":620:639  _nonReentrantBefore */\n      tag_441\n        /* \"profxexpo.sol\":620:641  _nonReentrantBefore() */\n      jump\t// in\n    tag_440:\n        /* \"profxexpo.sol\":13923:13949  isUserExists(_msgSender()) */\n      tag_443\n        /* \"profxexpo.sol\":242:252  msg.sender */\n      caller\n        /* \"profxexpo.sol\":11678:11790  function isUserExists(address user) public view returns (bool) {... */\n      tag_111\n      jump\t// in\n        /* \"profxexpo.sol\":13923:13949  isUserExists(_msgSender()) */\n    tag_443:\n        /* \"profxexpo.sol\":13915:13969  require(isUserExists(_msgSender()), \"user not exists\") */\n      tag_445\n      jumpi\n      mload(0x40)\n      shl(0xe5, 0x461bcd)\n      dup2\n      mstore\n        /* \"#utility.yul\":18627:18629   */\n      0x20\n        /* \"profxexpo.sol\":13915:13969  require(isUserExists(_msgSender()), \"user not exists\") */\n      0x04\n      dup3\n      add\n        /* \"#utility.yul\":18609:18630   */\n      mstore\n        /* \"#utility.yul\":18666:18668   */\n      0x0f\n        /* \"#utility.yul\":18646:18664   */\n      0x24\n      dup3\n      add\n        /* \"#utility.yul\":18639:18669   */\n      mstore\n      shl(0x88, 0x75736572206e6f7420657869737473)\n        /* \"#utility.yul\":18685:18703   */\n      0x44\n      dup3\n      add\n        /* \"#utility.yul\":18678:18723   */\n      mstore\n        /* \"#utility.yul\":18740:18758   */\n      0x64\n      add\n        /* \"profxexpo.sol\":13915:13969  require(isUserExists(_msgSender()), \"user not exists\") */\n      tag_267\n        /* \"#utility.yul\":18425:18764   */\n      jump\n        /* \"profxexpo.sol\":13915:13969  require(isUserExists(_msgSender()), \"user not exists\") */\n    tag_445:\n        /* \"profxexpo.sol\":13987:14079  verifySignatureWithDeadline(getWithdrawHash(_msgSender(), amount,  deadline),v,r,s,deadline) */\n      tag_448\n        /* \"profxexpo.sol\":14015:14063  getWithdrawHash(_msgSender(), amount,  deadline) */\n      tag_449\n        /* \"profxexpo.sol\":242:252  msg.sender */\n      caller\n        /* \"profxexpo.sol\":14045:14051  amount */\n      dup8\n        /* \"profxexpo.sol\":14054:14062  deadline */\n      dup5\n        /* \"profxexpo.sol\":14015:14030  getWithdrawHash */\n      tag_129\n        /* \"profxexpo.sol\":14015:14063  getWithdrawHash(_msgSender(), amount,  deadline) */\n      jump\t// in\n    tag_449:\n        /* \"profxexpo.sol\":14064:14065  v */\n      dup6\n        /* \"profxexpo.sol\":14066:14067  r */\n      dup6\n        /* \"profxexpo.sol\":14068:14069  s */\n      dup6\n        /* \"profxexpo.sol\":14070:14078  deadline */\n      dup6\n        /* \"profxexpo.sol\":13987:14014  verifySignatureWithDeadline */\n      tag_451\n        /* \"profxexpo.sol\":13987:14079  verifySignatureWithDeadline(getWithdrawHash(_msgSender(), amount,  deadline),v,r,s,deadline) */\n      jump\t// in\n    tag_448:\n        /* \"profxexpo.sol\":13979:14100  require(verifySignatureWithDeadline(getWithdrawHash(_msgSender(), amount,  deadline),v,r,s,deadline),\"invalid signature\") */\n      tag_452\n      jumpi\n      mload(0x40)\n      shl(0xe5, 0x461bcd)\n      dup2\n      mstore\n        /* \"#utility.yul\":18971:18973   */\n      0x20\n        /* \"profxexpo.sol\":13979:14100  require(verifySignatureWithDeadline(getWithdrawHash(_msgSender(), amount,  deadline),v,r,s,deadline),\"invalid signature\") */\n      0x04\n      dup3\n      add\n        /* \"#utility.yul\":18953:18974   */\n      mstore\n        /* \"#utility.yul\":19010:19012   */\n      0x11\n        /* \"#utility.yul\":18990:19008   */\n      0x24\n      dup3\n      add\n        /* \"#utility.yul\":18983:19013   */\n      mstore\n      shl(0x78, 0x696e76616c6964207369676e6174757265)\n        /* \"#utility.yul\":19029:19047   */\n      0x44\n      dup3\n      add\n        /* \"#utility.yul\":19022:19069   */\n      mstore\n        /* \"#utility.yul\":19086:19104   */\n      0x64\n      add\n        /* \"profxexpo.sol\":13979:14100  require(verifySignatureWithDeadline(getWithdrawHash(_msgSender(), amount,  deadline),v,r,s,deadline),\"invalid signature\") */\n      tag_267\n        /* \"#utility.yul\":18769:19110   */\n      jump\n        /* \"profxexpo.sol\":13979:14100  require(verifySignatureWithDeadline(getWithdrawHash(_msgSender(), amount,  deadline),v,r,s,deadline),\"invalid signature\") */\n    tag_452:\n        /* \"profxexpo.sol\":14142:14180  payable(_msgSender()).transfer(polAmt) */\n      mload(0x40)\n        /* \"profxexpo.sol\":14125:14131  amount */\n      dup6\n      swap1\n        /* \"profxexpo.sol\":242:252  msg.sender */\n      caller\n      swap1\n        /* \"profxexpo.sol\":14142:14180  payable(_msgSender()).transfer(polAmt) */\n      dup3\n      iszero\n      0x08fc\n      mul\n      swap1\n        /* \"profxexpo.sol\":14125:14131  amount */\n      dup4\n      swap1\n        /* \"profxexpo.sol\":14142:14180  payable(_msgSender()).transfer(polAmt) */\n      0x00\n      dup2\n      dup2\n      dup2\n        /* \"profxexpo.sol\":14125:14131  amount */\n      dup6\n        /* \"profxexpo.sol\":242:252  msg.sender */\n      dup9\n        /* \"profxexpo.sol\":14142:14180  payable(_msgSender()).transfer(polAmt) */\n      dup9\n      call\n      swap4\n      pop\n      pop\n      pop\n      pop\n      iszero\n      dup1\n      iszero\n      tag_457\n      jumpi\n      returndatacopy(0x00, 0x00, returndatasize)\n      revert(0x00, returndatasize)\n    tag_457:\n      pop\n        /* \"profxexpo.sol\":242:252  msg.sender */\n      caller\n        /* \"profxexpo.sol\":14224:14243  nonce[_msgSender()] */\n      0x00\n      dup2\n      dup2\n      mstore\n        /* \"profxexpo.sol\":14224:14229  nonce */\n      0x1e\n        /* \"profxexpo.sol\":14224:14243  nonce[_msgSender()] */\n      0x20\n      swap1\n      dup2\n      mstore\n      0x40\n      swap2\n      dup3\n      swap1\n      keccak256\n      sload\n        /* \"profxexpo.sol\":14195:14244  Withdraw(_msgSender(),amount,nonce[_msgSender()]) */\n      dup3\n      mload\n        /* \"#utility.yul\":19289:19314   */\n      dup11\n      dup2\n      mstore\n        /* \"#utility.yul\":19330:19348   */\n      swap2\n      dup3\n      add\n        /* \"#utility.yul\":19323:19357   */\n      mstore\n        /* \"profxexpo.sol\":14195:14244  Withdraw(_msgSender(),amount,nonce[_msgSender()]) */\n      0xf279e6a1f5e320cca91135676d9cb6e44ca8a08c0b88342bcdb1144f6511b568\n      swap2\n        /* \"#utility.yul\":19262:19280   */\n      add\n        /* \"profxexpo.sol\":14195:14244  Withdraw(_msgSender(),amount,nonce[_msgSender()]) */\n      mload(0x40)\n      dup1\n      swap2\n      sub\n      swap1\n      log2\n        /* \"profxexpo.sol\":242:252  msg.sender */\n      caller\n        /* \"profxexpo.sol\":14254:14273  nonce[_msgSender()] */\n      0x00\n      swap1\n      dup2\n      mstore\n        /* \"profxexpo.sol\":14254:14259  nonce */\n      0x1e\n        /* \"profxexpo.sol\":14254:14273  nonce[_msgSender()] */\n      0x20\n      mstore\n      0x40\n      dup2\n      keccak256\n        /* \"profxexpo.sol\":14254:14275  nonce[_msgSender()]++ */\n      dup1\n      sload\n      swap2\n      tag_463\n      dup4\n      tag_303\n      jump\t// in\n    tag_463:\n      swap2\n      swap1\n      pop\n      sstore\n      pop\n        /* \"profxexpo.sol\":13905:14282  {... */\n      pop\n        /* \"profxexpo.sol\":662:682  _nonReentrantAfter() */\n      tag_464\n        /* \"profxexpo.sol\":448:449  1 */\n      0x01\n        /* \"profxexpo.sol\":972:994  _status = _NOT_ENTERED */\n      dup1\n      sstore\n        /* \"profxexpo.sol\":923:1001  function _nonReentrantAfter() private {... */\n      jump\n        /* \"profxexpo.sol\":662:682  _nonReentrantAfter() */\n    tag_464:\n        /* \"profxexpo.sol\":13742:14282  function withdrawWeeklyReward(... */\n      pop\n      pop\n      pop\n      pop\n      pop\n      jump\t// out\n        /* \"profxexpo.sol\":4388:4505  function _unpause() internal virtual whenPaused {... */\n    tag_271:\n        /* \"profxexpo.sol\":3913:3929  _requirePaused() */\n      tag_468\n        /* \"profxexpo.sol\":3913:3927  _requirePaused */\n      tag_469\n        /* \"profxexpo.sol\":3913:3929  _requirePaused() */\n      jump\t// in\n    tag_468:\n        /* \"profxexpo.sol\":4456:4461  false */\n      0x00\n        /* \"profxexpo.sol\":4446:4461  _paused = false */\n      dup1\n      sload\n      not(shl(0xa0, 0xff))\n      and\n      swap1\n      sstore\n        /* \"profxexpo.sol\":4476:4498  Unpaused(_msgSender()) */\n      0x5db9ee0a495bf2e6ff9c91a7834c1ba4fdd244a5e8aa4e537bd38aeae4b073aa\n        /* \"profxexpo.sol\":242:252  msg.sender */\n      caller\n        /* \"profxexpo.sol\":4485:4497  _msgSender() */\n    tag_471:\n        /* \"profxexpo.sol\":4476:4498  Unpaused(_msgSender()) */\n      mload(0x40)\n      sub(shl(0xa0, 0x01), 0x01)\n        /* \"#utility.yul\":591:623   */\n      swap1\n      swap2\n      and\n        /* \"#utility.yul\":573:624   */\n      dup2\n      mstore\n        /* \"#utility.yul\":561:563   */\n      0x20\n        /* \"#utility.yul\":546:564   */\n      add\n        /* \"profxexpo.sol\":4476:4498  Unpaused(_msgSender()) */\n      mload(0x40)\n      dup1\n      swap2\n      sub\n      swap1\n      log1\n        /* \"profxexpo.sol\":4388:4505  function _unpause() internal virtual whenPaused {... */\n      jump\t// out\n        /* \"profxexpo.sol\":2027:2157  function _checkOwner() internal view virtual {... */\n    tag_314:\n        /* \"profxexpo.sol\":1982:1989  address */\n      0x00\n        /* \"profxexpo.sol\":2008:2014  _owner */\n      sload\n      sub(shl(0xa0, 0x01), 0x01)\n      and\n        /* \"profxexpo.sol\":242:252  msg.sender */\n      caller\n        /* \"profxexpo.sol\":2090:2113  owner() == _msgSender() */\n      eq\n        /* \"profxexpo.sol\":2082:2150  require(owner() == _msgSender(), \"Ownable: caller is not the owner\") */\n      tag_270\n      jumpi\n      mload(0x40)\n      shl(0xe5, 0x461bcd)\n      dup2\n      mstore\n        /* \"#utility.yul\":19570:19572   */\n      0x20\n        /* \"profxexpo.sol\":2082:2150  require(owner() == _msgSender(), \"Ownable: caller is not the owner\") */\n      0x04\n      dup3\n      add\n        /* \"#utility.yul\":19552:19573   */\n      dup2\n      swap1\n      mstore\n        /* \"#utility.yul\":19589:19607   */\n      0x24\n      dup3\n      add\n        /* \"#utility.yul\":19582:19612   */\n      mstore\n        /* \"#utility.yul\":19648:19682   */\n      0x4f776e61626c653a2063616c6c6572206973206e6f7420746865206f776e6572\n        /* \"#utility.yul\":19628:19646   */\n      0x44\n      dup3\n      add\n        /* \"#utility.yul\":19621:19683   */\n      mstore\n        /* \"#utility.yul\":19700:19718   */\n      0x64\n      add\n        /* \"profxexpo.sol\":2082:2150  require(owner() == _msgSender(), \"Ownable: caller is not the owner\") */\n      tag_267\n        /* \"#utility.yul\":19368:19724   */\n      jump\n        /* \"profxexpo.sol\":2508:2695  function _transferOwnership(address newOwner) internal virtual {... */\n    tag_317:\n        /* \"profxexpo.sol\":2581:2597  address oldOwner */\n      0x00\n        /* \"profxexpo.sol\":2600:2606  _owner */\n      dup1\n      sload\n      sub(shl(0xa0, 0x01), 0x01)\n        /* \"profxexpo.sol\":2616:2633  _owner = newOwner */\n      dup4\n      dup2\n      and\n      not(sub(shl(0xa0, 0x01), 0x01))\n      dup4\n      and\n      dup2\n      or\n      dup5\n      sstore\n        /* \"profxexpo.sol\":2648:2688  OwnershipTransferred(oldOwner, newOwner) */\n      mload(0x40)\n        /* \"profxexpo.sol\":2600:2606  _owner */\n      swap2\n      swap1\n      swap3\n      and\n      swap3\n      dup4\n      swap2\n        /* \"profxexpo.sol\":2648:2688  OwnershipTransferred(oldOwner, newOwner) */\n      0x8be0079c531659141344cd1fd0a4f28419497f9722a3daafe3b4186f6b6457e0\n      swap2\n        /* \"profxexpo.sol\":2581:2597  address oldOwner */\n      swap1\n        /* \"profxexpo.sol\":2648:2688  OwnershipTransferred(oldOwner, newOwner) */\n      log3\n        /* \"profxexpo.sol\":2571:2695  {... */\n      pop\n        /* \"profxexpo.sol\":2508:2695  function _transferOwnership(address newOwner) internal virtual {... */\n      pop\n      jump\t// out\n        /* \"profxexpo.sol\":4267:4382  function _pause() internal virtual whenNotPaused {... */\n    tag_369:\n        /* \"profxexpo.sol\":3838:3857  _requireNotPaused() */\n      tag_483\n        /* \"profxexpo.sol\":3838:3855  _requireNotPaused */\n      tag_484\n        /* \"profxexpo.sol\":3838:3857  _requireNotPaused() */\n      jump\t// in\n    tag_483:\n        /* \"profxexpo.sol\":4326:4333  _paused */\n      0x00\n        /* \"profxexpo.sol\":4326:4340  _paused = true */\n      dup1\n      sload\n      not(shl(0xa0, 0xff))\n      and\n      shl(0xa0, 0x01)\n      or\n      swap1\n      sstore\n        /* \"profxexpo.sol\":4355:4375  Paused(_msgSender()) */\n      0x62e78cea01bee320cd4e420270b5ea74000d11b0c9f74754ebdbfc544b05a258\n        /* \"profxexpo.sol\":4362:4374  _msgSender() */\n      tag_471\n        /* \"profxexpo.sol\":242:252  msg.sender */\n      caller\n      swap1\n        /* \"profxexpo.sol\":163:259  function _msgSender() internal view virtual returns (address) {... */\n      jump\n        /* \"profxexpo.sol\":8181:8825  function registration(address userAddress, address referrerAddress, string memory tyyp) private {... */\n    tag_385:\n      sub(shl(0xa0, 0x01), 0x01)\n        /* \"profxexpo.sol\":11759:11770  users[user] */\n      dup4\n      and\n        /* \"profxexpo.sol\":11735:11739  bool */\n      0x00\n        /* \"profxexpo.sol\":11759:11770  users[user] */\n      swap1\n      dup2\n      mstore\n        /* \"profxexpo.sol\":11759:11764  users */\n      0x1c\n        /* \"profxexpo.sol\":11759:11770  users[user] */\n      0x20\n      mstore\n      0x40\n      swap1\n      keccak256\n        /* \"profxexpo.sol\":11759:11777  users[user].userId */\n      sload\n        /* \"profxexpo.sol\":11759:11782  users[user].userId != 0 */\n      iszero\n        /* \"profxexpo.sol\":8287:8338  require(!isUserExists(userAddress), \"User Exists!\") */\n      tag_490\n      jumpi\n      mload(0x40)\n      shl(0xe5, 0x461bcd)\n      dup2\n      mstore\n        /* \"#utility.yul\":19931:19933   */\n      0x20\n        /* \"profxexpo.sol\":8287:8338  require(!isUserExists(userAddress), \"User Exists!\") */\n      0x04\n      dup3\n      add\n        /* \"#utility.yul\":19913:19934   */\n      mstore\n        /* \"#utility.yul\":19970:19972   */\n      0x0c\n        /* \"#utility.yul\":19950:19968   */\n      0x24\n      dup3\n      add\n        /* \"#utility.yul\":19943:19973   */\n      mstore\n      shl(0xa0, 0x557365722045786973747321)\n        /* \"#utility.yul\":19989:20007   */\n      0x44\n      dup3\n      add\n        /* \"#utility.yul\":19982:20024   */\n      mstore\n        /* \"#utility.yul\":20041:20059   */\n      0x64\n      add\n        /* \"profxexpo.sol\":8287:8338  require(!isUserExists(userAddress), \"User Exists!\") */\n      tag_267\n        /* \"#utility.yul\":19729:20065   */\n      jump\n        /* \"profxexpo.sol\":8287:8338  require(!isUserExists(userAddress), \"User Exists!\") */\n    tag_490:\n      sub(shl(0xa0, 0x01), 0x01)\n        /* \"profxexpo.sol\":11759:11770  users[user] */\n      dup3\n      and\n        /* \"profxexpo.sol\":11735:11739  bool */\n      0x00\n        /* \"profxexpo.sol\":11759:11770  users[user] */\n      swap1\n      dup2\n      mstore\n        /* \"profxexpo.sol\":11759:11764  users */\n      0x1c\n        /* \"profxexpo.sol\":11759:11770  users[user] */\n      0x20\n      mstore\n      0x40\n      swap1\n      keccak256\n        /* \"profxexpo.sol\":11759:11777  users[user].userId */\n      sload\n        /* \"profxexpo.sol\":8348:8410  require(isUserExists(referrerAddress), \"Referrer not Exists!\") */\n      tag_494\n      jumpi\n      mload(0x40)\n      shl(0xe5, 0x461bcd)\n      dup2\n      mstore\n        /* \"#utility.yul\":20272:20274   */\n      0x20\n        /* \"profxexpo.sol\":8348:8410  require(isUserExists(referrerAddress), \"Referrer not Exists!\") */\n      0x04\n      dup3\n      add\n        /* \"#utility.yul\":20254:20275   */\n      mstore\n        /* \"#utility.yul\":20311:20313   */\n      0x14\n        /* \"#utility.yul\":20291:20309   */\n      0x24\n      dup3\n      add\n        /* \"#utility.yul\":20284:20314   */\n      mstore\n      shl(0x60, 0x5265666572726572206e6f742045786973747321)\n        /* \"#utility.yul\":20330:20348   */\n      0x44\n      dup3\n      add\n        /* \"#utility.yul\":20323:20373   */\n      mstore\n        /* \"#utility.yul\":20390:20408   */\n      0x64\n      add\n        /* \"profxexpo.sol\":8348:8410  require(isUserExists(referrerAddress), \"Referrer not Exists!\") */\n      tag_267\n        /* \"#utility.yul\":20070:20414   */\n      jump\n        /* \"profxexpo.sol\":8348:8410  require(isUserExists(referrerAddress), \"Referrer not Exists!\") */\n    tag_494:\n        /* \"profxexpo.sol\":8448:8458  lastUserId */\n      0x12\n      dup1\n      sload\n      sub(shl(0xa0, 0x01), 0x01)\n        /* \"profxexpo.sol\":8420:8438  users[userAddress] */\n      dup6\n      dup2\n      and\n      0x00\n      dup2\n      dup2\n      mstore\n        /* \"profxexpo.sol\":8420:8425  users */\n      0x1c\n        /* \"profxexpo.sol\":8420:8438  users[userAddress] */\n      0x20\n      dup2\n      dup2\n      mstore\n      0x40\n      dup1\n      dup5\n      keccak256\n        /* \"profxexpo.sol\":8420:8458  users[userAddress].userId = lastUserId */\n      dup8\n      dup2\n      sstore\n        /* \"profxexpo.sol\":8469:8507  idToAddress[users[userAddress].userId] */\n      swap7\n      dup5\n      mstore\n        /* \"profxexpo.sol\":8469:8480  idToAddress */\n      0x1d\n        /* \"profxexpo.sol\":8469:8507  idToAddress[users[userAddress].userId] */\n      dup3\n      mstore\n      dup4\n      keccak256\n        /* \"profxexpo.sol\":8469:8521  idToAddress[users[userAddress].userId] = userAddress */\n      dup1\n      sload\n      not(sub(shl(0xa0, 0x01), 0x01))\n      swap1\n      dup2\n      and\n      dup7\n      or\n      swap1\n      swap2\n      sstore\n        /* \"profxexpo.sol\":8538:8556  users[userAddress] */\n      swap4\n      dup4\n      mstore\n      mstore\n      0x01\n        /* \"profxexpo.sol\":8538:8565  users[userAddress].referrer */\n      dup5\n      add\n        /* \"profxexpo.sol\":8538:8583  users[userAddress].referrer = referrerAddress */\n      dup1\n      sload\n      swap1\n      swap3\n      and\n      swap3\n      dup8\n      and\n      swap3\n      swap1\n      swap3\n      or\n      swap1\n      sstore\n        /* \"profxexpo.sol\":8593:8625  users[userAddress].partnersCount */\n      0x09\n      swap1\n      swap2\n      add\n        /* \"profxexpo.sol\":8593:8629  users[userAddress].partnersCount = 0 */\n      dup2\n      swap1\n      sstore\n        /* \"profxexpo.sol\":8639:8651  lastUserId++ */\n      dup2\n      sload\n      swap2\n        /* \"profxexpo.sol\":8448:8458  lastUserId */\n      swap1\n        /* \"profxexpo.sol\":8639:8651  lastUserId++ */\n      tag_497\n      dup4\n      tag_303\n      jump\t// in\n    tag_497:\n      swap1\n      swap2\n      sstore\n      pop\n      pop\n      sub(shl(0xa0, 0x01), 0x01)\n        /* \"profxexpo.sol\":8661:8683  users[referrerAddress] */\n      dup3\n      and\n      0x00\n      swap1\n      dup2\n      mstore\n        /* \"profxexpo.sol\":8661:8666  users */\n      0x1c\n        /* \"profxexpo.sol\":8661:8683  users[referrerAddress] */\n      0x20\n      mstore\n      0x40\n      dup2\n      keccak256\n        /* \"profxexpo.sol\":8661:8697  users[referrerAddress].partnersCount */\n      0x09\n      add\n        /* \"profxexpo.sol\":8661:8699  users[referrerAddress].partnersCount++ */\n      dup1\n      sload\n      swap2\n      tag_498\n      dup4\n      tag_303\n      jump\t// in\n    tag_498:\n      swap1\n      swap2\n      sstore\n      pop\n      pop\n      sub(shl(0xa0, 0x01), 0x01)\n        /* \"profxexpo.sol\":8714:8818  Registration(userAddress, referrerAddress, users[userAddress].userId,users[referrerAddress].userId,tyyp) */\n      dup4\n      dup2\n      and\n        /* \"profxexpo.sol\":8757:8775  users[userAddress] */\n      0x00\n      dup2\n      dup2\n      mstore\n        /* \"profxexpo.sol\":8757:8762  users */\n      0x1c\n        /* \"profxexpo.sol\":8757:8775  users[userAddress] */\n      0x20\n      mstore\n      0x40\n      dup1\n      dup3\n      keccak256\n        /* \"profxexpo.sol\":8757:8782  users[userAddress].userId */\n      sload\n        /* \"profxexpo.sol\":8714:8818  Registration(userAddress, referrerAddress, users[userAddress].userId,users[referrerAddress].userId,tyyp) */\n      swap4\n      dup7\n      and\n        /* \"profxexpo.sol\":8783:8805  users[referrerAddress] */\n      dup1\n      dup4\n      mstore\n      swap2\n      dup2\n      swap1\n      keccak256\n        /* \"profxexpo.sol\":8783:8812  users[referrerAddress].userId */\n      sload\n        /* \"profxexpo.sol\":8714:8818  Registration(userAddress, referrerAddress, users[userAddress].userId,users[referrerAddress].userId,tyyp) */\n      swap1\n      mload\n      swap2\n      swap4\n      0x5df5c588e24e80ddfa2166a642d3fe27393f08228d5b903311972824fbd0d607\n      swap3\n      tag_499\n      swap3\n        /* \"profxexpo.sol\":8783:8812  users[referrerAddress].userId */\n      swap1\n        /* \"profxexpo.sol\":8813:8817  tyyp */\n      dup8\n      swap1\n        /* \"profxexpo.sol\":8714:8818  Registration(userAddress, referrerAddress, users[userAddress].userId,users[referrerAddress].userId,tyyp) */\n      tag_500\n      jump\t// in\n    tag_499:\n      mload(0x40)\n      dup1\n      swap2\n      sub\n      swap1\n      log3\n        /* \"profxexpo.sol\":8181:8825  function registration(address userAddress, address referrerAddress, string memory tyyp) private {... */\n      pop\n      pop\n      pop\n      jump\t// out\n        /* \"profxexpo.sol\":695:917  function _nonReentrantBefore() private {... */\n    tag_441:\n        /* \"profxexpo.sol\":491:492  2 */\n      0x02\n        /* \"profxexpo.sol\":827:834  _status */\n      sload(0x01)\n        /* \"profxexpo.sol\":827:846  _status != _ENTERED */\n      sub\n        /* \"profxexpo.sol\":819:882  require(_status != _ENTERED, \"ReentrancyGuard: reentrant call\") */\n      tag_502\n      jumpi\n      mload(0x40)\n      shl(0xe5, 0x461bcd)\n      dup2\n      mstore\n        /* \"#utility.yul\":20988:20990   */\n      0x20\n        /* \"profxexpo.sol\":819:882  require(_status != _ENTERED, \"ReentrancyGuard: reentrant call\") */\n      0x04\n      dup3\n      add\n        /* \"#utility.yul\":20970:20991   */\n      mstore\n        /* \"#utility.yul\":21027:21029   */\n      0x1f\n        /* \"#utility.yul\":21007:21025   */\n      0x24\n      dup3\n      add\n        /* \"#utility.yul\":21000:21030   */\n      mstore\n        /* \"#utility.yul\":21066:21099   */\n      0x5265656e7472616e637947756172643a207265656e7472616e742063616c6c00\n        /* \"#utility.yul\":21046:21064   */\n      0x44\n      dup3\n      add\n        /* \"#utility.yul\":21039:21100   */\n      mstore\n        /* \"#utility.yul\":21117:21135   */\n      0x64\n      add\n        /* \"profxexpo.sol\":819:882  require(_status != _ENTERED, \"ReentrancyGuard: reentrant call\") */\n      tag_267\n        /* \"#utility.yul\":20786:21141   */\n      jump\n        /* \"profxexpo.sol\":819:882  require(_status != _ENTERED, \"ReentrancyGuard: reentrant call\") */\n    tag_502:\n        /* \"profxexpo.sol\":491:492  2 */\n      0x02\n        /* \"profxexpo.sol\":892:899  _status */\n      0x01\n        /* \"profxexpo.sol\":892:910  _status = _ENTERED */\n      sstore\n        /* \"profxexpo.sol\":695:917  function _nonReentrantBefore() private {... */\n      jump\t// out\n        /* \"profxexpo.sol\":13270:13736  function verifySignatureWithDeadline(... */\n    tag_451:\n        /* \"profxexpo.sol\":13439:13443  bool */\n      0x00\n        /* \"profxexpo.sol\":13482:13490  deadline */\n      dup2\n        /* \"profxexpo.sol\":13463:13478  block.timestamp */\n      timestamp\n        /* \"profxexpo.sol\":13463:13490  block.timestamp <= deadline */\n      gt\n      iszero\n        /* \"profxexpo.sol\":13455:13512  require(block.timestamp <= deadline, \"Signature expired\") */\n      tag_506\n      jumpi\n      mload(0x40)\n      shl(0xe5, 0x461bcd)\n      dup2\n      mstore\n        /* \"#utility.yul\":21348:21350   */\n      0x20\n        /* \"profxexpo.sol\":13455:13512  require(block.timestamp <= deadline, \"Signature expired\") */\n      0x04\n      dup3\n      add\n        /* \"#utility.yul\":21330:21351   */\n      mstore\n        /* \"#utility.yul\":21387:21389   */\n      0x11\n        /* \"#utility.yul\":21367:21385   */\n      0x24\n      dup3\n      add\n        /* \"#utility.yul\":21360:21390   */\n      mstore\n      shl(0x7a, 0x14da59db985d1d5c9948195e1c1a5c9959)\n        /* \"#utility.yul\":21406:21424   */\n      0x44\n      dup3\n      add\n        /* \"#utility.yul\":21399:21446   */\n      mstore\n        /* \"#utility.yul\":21463:21481   */\n      0x64\n      add\n        /* \"profxexpo.sol\":13455:13512  require(block.timestamp <= deadline, \"Signature expired\") */\n      tag_267\n        /* \"#utility.yul\":21146:21487   */\n      jump\n        /* \"profxexpo.sol\":13455:13512  require(block.timestamp <= deadline, \"Signature expired\") */\n    tag_506:\n        /* \"profxexpo.sol\":13567:13625  abi.encodePacked(\"\\x19Ethereum Signed Message:\\n32\", hash) */\n      mload(0x40)\n        /* \"#utility.yul\":21734:21800   */\n      0x19457468657265756d205369676e6564204d6573736167653a0a333200000000\n        /* \"profxexpo.sol\":13567:13625  abi.encodePacked(\"\\x19Ethereum Signed Message:\\n32\", hash) */\n      0x20\n      dup3\n      add\n        /* \"#utility.yul\":21722:21801   */\n      mstore\n        /* \"#utility.yul\":21817:21829   */\n      0x3c\n      dup2\n      add\n        /* \"#utility.yul\":21810:21838   */\n      dup8\n      swap1\n      mstore\n        /* \"profxexpo.sol\":13522:13541  bytes32 messageHash */\n      0x00\n      swap1\n        /* \"#utility.yul\":21854:21866   */\n      0x5c\n      add\n        /* \"profxexpo.sol\":13567:13625  abi.encodePacked(\"\\x19Ethereum Signed Message:\\n32\", hash) */\n      0x40\n      dup1\n      mload\n      not(0x1f)\n      dup2\n      dup5\n      sub\n      add\n      dup2\n      mstore\n      dup3\n      dup3\n      mstore\n        /* \"profxexpo.sol\":13544:13635  keccak256(... */\n      dup1\n      mload\n        /* \"profxexpo.sol\":13567:13625  abi.encodePacked(\"\\x19Ethereum Signed Message:\\n32\", hash) */\n      0x20\n        /* \"profxexpo.sol\":13544:13635  keccak256(... */\n      swap2\n      dup3\n      add\n      keccak256\n        /* \"profxexpo.sol\":13645:13659  address signer */\n      0x00\n        /* \"profxexpo.sol\":13662:13693  ecrecover(messageHash, v, r, s) */\n      dup1\n      dup6\n      mstore\n      swap2\n      dup5\n      add\n      dup1\n      dup5\n      mstore\n        /* \"#utility.yul\":22104:22129   */\n      dup2\n      swap1\n      mstore\n        /* \"#utility.yul\":22177:22181   */\n      0xff\n        /* \"#utility.yul\":22165:22182   */\n      dup11\n      and\n        /* \"#utility.yul\":22145:22163   */\n      swap3\n      dup5\n      add\n        /* \"#utility.yul\":22138:22183   */\n      swap3\n      swap1\n      swap3\n      mstore\n        /* \"#utility.yul\":22199:22217   */\n      0x60\n      dup4\n      add\n        /* \"#utility.yul\":22192:22226   */\n      dup9\n      swap1\n      mstore\n        /* \"#utility.yul\":22242:22260   */\n      0x80\n      dup4\n      add\n        /* \"#utility.yul\":22235:22269   */\n      dup8\n      swap1\n      mstore\n        /* \"profxexpo.sol\":13544:13635  keccak256(... */\n      swap1\n      swap3\n      pop\n        /* \"profxexpo.sol\":13645:13659  address signer */\n      swap1\n        /* \"profxexpo.sol\":13662:13693  ecrecover(messageHash, v, r, s) */\n      0x01\n      swap1\n        /* \"#utility.yul\":22076:22095   */\n      0xa0\n      add\n        /* \"profxexpo.sol\":13662:13693  ecrecover(messageHash, v, r, s) */\n      0x20\n      mload(0x40)\n      0x20\n      dup2\n      sub\n      swap1\n      dup1\n      dup5\n      sub\n      swap1\n      dup6\n      gas\n      staticcall\n      iszero\n      dup1\n      iszero\n      tag_514\n      jumpi\n      returndatacopy(0x00, 0x00, returndatasize)\n      revert(0x00, returndatasize)\n    tag_514:\n      pop\n      pop\n      mload(add(not(0x1f), mload(0x40)))\n        /* \"profxexpo.sol\":13720:13729  UnitySign */\n      sload(0x05)\n      sub(shl(0xa0, 0x01), 0x01)\n      swap1\n      dup2\n      and\n        /* \"profxexpo.sol\":13710:13729  signer == UnitySign */\n      swap2\n      and\n      eq\n      swap10\n        /* \"profxexpo.sol\":13270:13736  function verifySignatureWithDeadline(... */\n      swap9\n      pop\n      pop\n      pop\n      pop\n      pop\n      pop\n      pop\n      pop\n      pop\n      jump\t// out\n        /* \"profxexpo.sol\":4155:4261  function _requirePaused() internal view virtual {... */\n    tag_469:\n        /* \"profxexpo.sol\":4000:4004  bool */\n      0x00\n        /* \"profxexpo.sol\":4023:4030  _paused */\n      sload\n      shl(0xa0, 0x01)\n      swap1\n      div\n      0xff\n      and\n        /* \"profxexpo.sol\":4213:4254  require(paused(), \"Pausable: not paused\") */\n      tag_270\n      jumpi\n      mload(0x40)\n      shl(0xe5, 0x461bcd)\n      dup2\n      mstore\n        /* \"#utility.yul\":22482:22484   */\n      0x20\n        /* \"profxexpo.sol\":4213:4254  require(paused(), \"Pausable: not paused\") */\n      0x04\n      dup3\n      add\n        /* \"#utility.yul\":22464:22485   */\n      mstore\n        /* \"#utility.yul\":22521:22523   */\n      0x14\n        /* \"#utility.yul\":22501:22519   */\n      0x24\n      dup3\n      add\n        /* \"#utility.yul\":22494:22524   */\n      mstore\n      shl(0x62, 0x14185d5cd8589b194e881b9bdd081c185d5cd959)\n        /* \"#utility.yul\":22540:22558   */\n      0x44\n      dup3\n      add\n        /* \"#utility.yul\":22533:22583   */\n      mstore\n        /* \"#utility.yul\":22600:22618   */\n      0x64\n      add\n        /* \"profxexpo.sol\":4213:4254  require(paused(), \"Pausable: not paused\") */\n      tag_267\n        /* \"#utility.yul\":22280:22624   */\n      jump\n        /* \"profxexpo.sol\":4043:4149  function _requireNotPaused() internal view virtual {... */\n    tag_484:\n        /* \"profxexpo.sol\":4000:4004  bool */\n      0x00\n        /* \"profxexpo.sol\":4023:4030  _paused */\n      sload\n      shl(0xa0, 0x01)\n      swap1\n      div\n      0xff\n      and\n        /* \"profxexpo.sol\":4112:4121  !paused() */\n      iszero\n        /* \"profxexpo.sol\":4104:4142  require(!paused(), \"Pausable: paused\") */\n      tag_270\n      jumpi\n      mload(0x40)\n      shl(0xe5, 0x461bcd)\n      dup2\n      mstore\n        /* \"#utility.yul\":22831:22833   */\n      0x20\n        /* \"profxexpo.sol\":4104:4142  require(!paused(), \"Pausable: paused\") */\n      0x04\n      dup3\n      add\n        /* \"#utility.yul\":22813:22834   */\n      mstore\n        /* \"#utility.yul\":22870:22872   */\n      0x10\n        /* \"#utility.yul\":22850:22868   */\n      0x24\n      dup3\n      add\n        /* \"#utility.yul\":22843:22873   */\n      mstore\n      shl(0x82, 0x14185d5cd8589b194e881c185d5cd959)\n        /* \"#utility.yul\":22889:22907   */\n      0x44\n      dup3\n      add\n        /* \"#utility.yul\":22882:22928   */\n      mstore\n        /* \"#utility.yul\":22945:22963   */\n      0x64\n      add\n        /* \"profxexpo.sol\":4104:4142  require(!paused(), \"Pausable: paused\") */\n      tag_267\n        /* \"#utility.yul\":22629:22969   */\n      jump\n        /* \"#utility.yul\":14:240   */\n    tag_58:\n        /* \"#utility.yul\":73:79   */\n      0x00\n        /* \"#utility.yul\":126:128   */\n      0x20\n        /* \"#utility.yul\":114:123   */\n      dup3\n        /* \"#utility.yul\":105:112   */\n      dup5\n        /* \"#utility.yul\":101:124   */\n      sub\n        /* \"#utility.yul\":97:129   */\n      slt\n        /* \"#utility.yul\":94:146   */\n      iszero\n      tag_539\n      jumpi\n        /* \"#utility.yul\":142:143   */\n      0x00\n        /* \"#utility.yul\":139:140   */\n      0x00\n        /* \"#utility.yul\":132:144   */\n      revert\n        /* \"#utility.yul\":94:146   */\n    tag_539:\n      pop\n        /* \"#utility.yul\":187:210   */\n      calldataload\n      swap2\n        /* \"#utility.yul\":14:240   */\n      swap1\n      pop\n      jump\t// out\n        /* \"#utility.yul\":635:766   */\n    tag_526:\n      sub(shl(0xa0, 0x01), 0x01)\n        /* \"#utility.yul\":710:741   */\n      dup2\n      and\n        /* \"#utility.yul\":700:742   */\n      dup2\n      eq\n        /* \"#utility.yul\":690:760   */\n      tag_429\n      jumpi\n        /* \"#utility.yul\":756:757   */\n      0x00\n        /* \"#utility.yul\":753:754   */\n      0x00\n        /* \"#utility.yul\":746:758   */\n      revert\n        /* \"#utility.yul\":771:1159   */\n    tag_107:\n        /* \"#utility.yul\":839:845   */\n      0x00\n        /* \"#utility.yul\":847:853   */\n      0x00\n        /* \"#utility.yul\":900:902   */\n      0x40\n        /* \"#utility.yul\":888:897   */\n      dup4\n        /* \"#utility.yul\":879:886   */\n      dup6\n        /* \"#utility.yul\":875:898   */\n      sub\n        /* \"#utility.yul\":871:903   */\n      slt\n        /* \"#utility.yul\":868:920   */\n      iszero\n      tag_545\n      jumpi\n        /* \"#utility.yul\":916:917   */\n      0x00\n        /* \"#utility.yul\":913:914   */\n      0x00\n        /* \"#utility.yul\":906:918   */\n      revert\n        /* \"#utility.yul\":868:920   */\n    tag_545:\n        /* \"#utility.yul\":955:964   */\n      dup3\n        /* \"#utility.yul\":942:965   */\n      calldataload\n        /* \"#utility.yul\":974:1005   */\n      tag_546\n        /* \"#utility.yul\":999:1004   */\n      dup2\n        /* \"#utility.yul\":974:1005   */\n      tag_526\n      jump\t// in\n    tag_546:\n        /* \"#utility.yul\":1024:1029   */\n      swap2\n      pop\n        /* \"#utility.yul\":1081:1083   */\n      0x20\n        /* \"#utility.yul\":1066:1084   */\n      dup4\n      add\n        /* \"#utility.yul\":1053:1085   */\n      calldataload\n        /* \"#utility.yul\":1094:1127   */\n      tag_547\n        /* \"#utility.yul\":1053:1085   */\n      dup2\n        /* \"#utility.yul\":1094:1127   */\n      tag_526\n      jump\t// in\n    tag_547:\n        /* \"#utility.yul\":1146:1153   */\n      dup1\n        /* \"#utility.yul\":1136:1153   */\n      swap2\n      pop\n      pop\n        /* \"#utility.yul\":771:1159   */\n      swap3\n      pop\n      swap3\n      swap1\n      pop\n      jump\t// out\n        /* \"#utility.yul\":1164:1411   */\n    tag_112:\n        /* \"#utility.yul\":1223:1229   */\n      0x00\n        /* \"#utility.yul\":1276:1278   */\n      0x20\n        /* \"#utility.yul\":1264:1273   */\n      dup3\n        /* \"#utility.yul\":1255:1262   */\n      dup5\n        /* \"#utility.yul\":1251:1274   */\n      sub\n        /* \"#utility.yul\":1247:1279   */\n      slt\n        /* \"#utility.yul\":1244:1296   */\n      iszero\n      tag_549\n      jumpi\n        /* \"#utility.yul\":1292:1293   */\n      0x00\n        /* \"#utility.yul\":1289:1290   */\n      0x00\n        /* \"#utility.yul\":1282:1294   */\n      revert\n        /* \"#utility.yul\":1244:1296   */\n    tag_549:\n        /* \"#utility.yul\":1331:1340   */\n      dup2\n        /* \"#utility.yul\":1318:1341   */\n      calldataload\n        /* \"#utility.yul\":1350:1381   */\n      tag_550\n        /* \"#utility.yul\":1375:1380   */\n      dup2\n        /* \"#utility.yul\":1350:1381   */\n      tag_526\n      jump\t// in\n    tag_550:\n        /* \"#utility.yul\":1400:1405   */\n      swap4\n        /* \"#utility.yul\":1164:1411   */\n      swap3\n      pop\n      pop\n      pop\n      jump\t// out\n        /* \"#utility.yul\":1608:2095   */\n    tag_128:\n        /* \"#utility.yul\":1685:1691   */\n      0x00\n        /* \"#utility.yul\":1693:1699   */\n      0x00\n        /* \"#utility.yul\":1701:1707   */\n      0x00\n        /* \"#utility.yul\":1754:1756   */\n      0x60\n        /* \"#utility.yul\":1742:1751   */\n      dup5\n        /* \"#utility.yul\":1733:1740   */\n      dup7\n        /* \"#utility.yul\":1729:1752   */\n      sub\n        /* \"#utility.yul\":1725:1757   */\n      slt\n        /* \"#utility.yul\":1722:1774   */\n      iszero\n      tag_553\n      jumpi\n        /* \"#utility.yul\":1770:1771   */\n      0x00\n        /* \"#utility.yul\":1767:1768   */\n      0x00\n        /* \"#utility.yul\":1760:1772   */\n      revert\n        /* \"#utility.yul\":1722:1774   */\n    tag_553:\n        /* \"#utility.yul\":1809:1818   */\n      dup4\n        /* \"#utility.yul\":1796:1819   */\n      calldataload\n        /* \"#utility.yul\":1828:1859   */\n      tag_554\n        /* \"#utility.yul\":1853:1858   */\n      dup2\n        /* \"#utility.yul\":1828:1859   */\n      tag_526\n      jump\t// in\n    tag_554:\n        /* \"#utility.yul\":1878:1883   */\n      swap6\n        /* \"#utility.yul\":1956:1958   */\n      0x20\n        /* \"#utility.yul\":1941:1959   */\n      dup6\n      add\n        /* \"#utility.yul\":1928:1960   */\n      calldataload\n      swap6\n      pop\n        /* \"#utility.yul\":2059:2061   */\n      0x40\n        /* \"#utility.yul\":2044:2062   */\n      swap1\n      swap5\n      add\n        /* \"#utility.yul\":2031:2063   */\n      calldataload\n      swap4\n        /* \"#utility.yul\":1608:2095   */\n      swap3\n      pop\n      pop\n      pop\n      jump\t// out\n        /* \"#utility.yul\":2282:2424   */\n    tag_527:\n        /* \"#utility.yul\":2358:2378   */\n      dup1\n      calldataload\n        /* \"#utility.yul\":2387:2418   */\n      tag_557\n        /* \"#utility.yul\":2358:2378   */\n      dup2\n        /* \"#utility.yul\":2387:2418   */\n      tag_526\n      jump\t// in\n    tag_557:\n        /* \"#utility.yul\":2282:2424   */\n      swap2\n      swap1\n      pop\n      jump\t// out\n        /* \"#utility.yul\":2429:2810   */\n    tag_163:\n        /* \"#utility.yul\":2511:2517   */\n      0x00\n        /* \"#utility.yul\":2519:2525   */\n      0x00\n        /* \"#utility.yul\":2572:2574   */\n      0x40\n        /* \"#utility.yul\":2560:2569   */\n      dup4\n        /* \"#utility.yul\":2551:2558   */\n      dup6\n        /* \"#utility.yul\":2547:2570   */\n      sub\n        /* \"#utility.yul\":2543:2575   */\n      slt\n        /* \"#utility.yul\":2540:2592   */\n      iszero\n      tag_559\n      jumpi\n        /* \"#utility.yul\":2588:2589   */\n      0x00\n        /* \"#utility.yul\":2585:2586   */\n      0x00\n        /* \"#utility.yul\":2578:2590   */\n      revert\n        /* \"#utility.yul\":2540:2592   */\n    tag_559:\n        /* \"#utility.yul\":2633:2656   */\n      dup3\n      calldataload\n      swap2\n      pop\n        /* \"#utility.yul\":2732:2734   */\n      0x20\n        /* \"#utility.yul\":2717:2735   */\n      dup4\n      add\n        /* \"#utility.yul\":2704:2736   */\n      calldataload\n        /* \"#utility.yul\":2745:2778   */\n      tag_547\n        /* \"#utility.yul\":2704:2736   */\n      dup2\n        /* \"#utility.yul\":2745:2778   */\n      tag_526\n      jump\t// in\n        /* \"#utility.yul\":2815:2942   */\n    tag_528:\n        /* \"#utility.yul\":2876:2886   */\n      0x4e487b71\n        /* \"#utility.yul\":2871:2874   */\n      0xe0\n        /* \"#utility.yul\":2867:2887   */\n      shl\n        /* \"#utility.yul\":2864:2865   */\n      0x00\n        /* \"#utility.yul\":2857:2888   */\n      mstore\n        /* \"#utility.yul\":2907:2911   */\n      0x41\n        /* \"#utility.yul\":2904:2905   */\n      0x04\n        /* \"#utility.yul\":2897:2912   */\n      mstore\n        /* \"#utility.yul\":2931:2935   */\n      0x24\n        /* \"#utility.yul\":2928:2929   */\n      0x00\n        /* \"#utility.yul\":2921:2936   */\n      revert\n        /* \"#utility.yul\":2947:3222   */\n    tag_529:\n        /* \"#utility.yul\":3018:3020   */\n      0x40\n        /* \"#utility.yul\":3012:3021   */\n      mload\n        /* \"#utility.yul\":3083:3085   */\n      0x1f\n        /* \"#utility.yul\":3064:3077   */\n      dup3\n      add\n      not(0x1f)\n        /* \"#utility.yul\":3060:3087   */\n      and\n        /* \"#utility.yul\":3048:3088   */\n      dup2\n      add\n        /* \"#utility.yul\":3118:3136   */\n      0xffffffffffffffff\n        /* \"#utility.yul\":3103:3137   */\n      dup2\n      gt\n        /* \"#utility.yul\":3139:3161   */\n      dup3\n      dup3\n      lt\n        /* \"#utility.yul\":3100:3162   */\n      or\n        /* \"#utility.yul\":3097:3185   */\n      iszero\n      tag_564\n      jumpi\n        /* \"#utility.yul\":3165:3183   */\n      tag_564\n      tag_528\n      jump\t// in\n    tag_564:\n        /* \"#utility.yul\":3201:3203   */\n      0x40\n        /* \"#utility.yul\":3194:3216   */\n      mstore\n        /* \"#utility.yul\":2947:3222   */\n      swap2\n      swap1\n      pop\n      jump\t// out\n        /* \"#utility.yul\":3227:3418   */\n    tag_530:\n        /* \"#utility.yul\":3295:3299   */\n      0x00\n        /* \"#utility.yul\":3328:3346   */\n      0xffffffffffffffff\n        /* \"#utility.yul\":3320:3326   */\n      dup3\n        /* \"#utility.yul\":3317:3347   */\n      gt\n        /* \"#utility.yul\":3314:3370   */\n      iszero\n      tag_567\n      jumpi\n        /* \"#utility.yul\":3350:3368   */\n      tag_567\n      tag_528\n      jump\t// in\n    tag_567:\n      pop\n        /* \"#utility.yul\":3395:3396   */\n      0x05\n        /* \"#utility.yul\":3391:3405   */\n      shl\n        /* \"#utility.yul\":3407:3411   */\n      0x20\n        /* \"#utility.yul\":3387:3412   */\n      add\n      swap1\n        /* \"#utility.yul\":3227:3418   */\n      jump\t// out\n        /* \"#utility.yul\":3423:4154   */\n    tag_531:\n        /* \"#utility.yul\":3477:3482   */\n      0x00\n        /* \"#utility.yul\":3530:3533   */\n      dup3\n        /* \"#utility.yul\":3523:3527   */\n      0x1f\n        /* \"#utility.yul\":3515:3521   */\n      dup4\n        /* \"#utility.yul\":3511:3528   */\n      add\n        /* \"#utility.yul\":3507:3534   */\n      slt\n        /* \"#utility.yul\":3497:3552   */\n      tag_569\n      jumpi\n        /* \"#utility.yul\":3548:3549   */\n      0x00\n        /* \"#utility.yul\":3545:3546   */\n      0x00\n        /* \"#utility.yul\":3538:3550   */\n      revert\n        /* \"#utility.yul\":3497:3552   */\n    tag_569:\n        /* \"#utility.yul\":3588:3594   */\n      dup2\n        /* \"#utility.yul\":3575:3595   */\n      calldataload\n        /* \"#utility.yul\":3615:3687   */\n      tag_570\n        /* \"#utility.yul\":3631:3686   */\n      tag_571\n        /* \"#utility.yul\":3679:3685   */\n      dup3\n        /* \"#utility.yul\":3631:3686   */\n      tag_530\n      jump\t// in\n    tag_571:\n        /* \"#utility.yul\":3615:3687   */\n      tag_529\n      jump\t// in\n    tag_570:\n        /* \"#utility.yul\":3711:3714   */\n      dup1\n        /* \"#utility.yul\":3735:3741   */\n      dup3\n        /* \"#utility.yul\":3730:3733   */\n      dup3\n        /* \"#utility.yul\":3723:3742   */\n      mstore\n        /* \"#utility.yul\":3767:3771   */\n      0x20\n        /* \"#utility.yul\":3762:3765   */\n      dup3\n        /* \"#utility.yul\":3758:3772   */\n      add\n        /* \"#utility.yul\":3751:3772   */\n      swap2\n      pop\n        /* \"#utility.yul\":3828:3832   */\n      0x20\n        /* \"#utility.yul\":3818:3824   */\n      dup4\n        /* \"#utility.yul\":3815:3816   */\n      0x05\n        /* \"#utility.yul\":3811:3825   */\n      shl\n        /* \"#utility.yul\":3803:3809   */\n      dup7\n        /* \"#utility.yul\":3799:3826   */\n      add\n        /* \"#utility.yul\":3795:3833   */\n      add\n        /* \"#utility.yul\":3781:3833   */\n      swap3\n      pop\n        /* \"#utility.yul\":3856:3859   */\n      dup6\n        /* \"#utility.yul\":3848:3854   */\n      dup4\n        /* \"#utility.yul\":3845:3860   */\n      gt\n        /* \"#utility.yul\":3842:3877   */\n      iszero\n      tag_572\n      jumpi\n        /* \"#utility.yul\":3873:3874   */\n      0x00\n        /* \"#utility.yul\":3870:3871   */\n      0x00\n        /* \"#utility.yul\":3863:3875   */\n      revert\n        /* \"#utility.yul\":3842:3877   */\n    tag_572:\n        /* \"#utility.yul\":3909:3913   */\n      0x20\n        /* \"#utility.yul\":3901:3907   */\n      dup6\n        /* \"#utility.yul\":3897:3914   */\n      add\n        /* \"#utility.yul\":3923:4123   */\n    tag_573:\n        /* \"#utility.yul\":3939:3945   */\n      dup4\n        /* \"#utility.yul\":3934:3937   */\n      dup2\n        /* \"#utility.yul\":3931:3946   */\n      lt\n        /* \"#utility.yul\":3923:4123   */\n      iszero\n      tag_575\n      jumpi\n        /* \"#utility.yul\":4031:4048   */\n      dup1\n      calldataload\n        /* \"#utility.yul\":4061:4079   */\n      dup4\n      mstore\n        /* \"#utility.yul\":4108:4112   */\n      0x20\n        /* \"#utility.yul\":4099:4113   */\n      swap3\n      dup4\n      add\n      swap3\n        /* \"#utility.yul\":3956:3970   */\n      add\n        /* \"#utility.yul\":3923:4123   */\n      jump(tag_573)\n    tag_575:\n      pop\n        /* \"#utility.yul\":4141:4148   */\n      swap6\n        /* \"#utility.yul\":3423:4154   */\n      swap5\n      pop\n      pop\n      pop\n      pop\n      pop\n      jump\t// out\n        /* \"#utility.yul\":4159:5607   */\n    tag_176:\n        /* \"#utility.yul\":4317:4323   */\n      0x00\n        /* \"#utility.yul\":4325:4331   */\n      0x00\n        /* \"#utility.yul\":4333:4339   */\n      0x00\n        /* \"#utility.yul\":4341:4347   */\n      0x00\n        /* \"#utility.yul\":4394:4397   */\n      0x80\n        /* \"#utility.yul\":4382:4391   */\n      dup6\n        /* \"#utility.yul\":4373:4380   */\n      dup8\n        /* \"#utility.yul\":4369:4392   */\n      sub\n        /* \"#utility.yul\":4365:4398   */\n      slt\n        /* \"#utility.yul\":4362:4415   */\n      iszero\n      tag_577\n      jumpi\n        /* \"#utility.yul\":4411:4412   */\n      0x00\n        /* \"#utility.yul\":4408:4409   */\n      0x00\n        /* \"#utility.yul\":4401:4413   */\n      revert\n        /* \"#utility.yul\":4362:4415   */\n    tag_577:\n        /* \"#utility.yul\":4451:4460   */\n      dup5\n        /* \"#utility.yul\":4438:4461   */\n      calldataload\n        /* \"#utility.yul\":4484:4502   */\n      0xffffffffffffffff\n        /* \"#utility.yul\":4476:4482   */\n      dup2\n        /* \"#utility.yul\":4473:4503   */\n      gt\n        /* \"#utility.yul\":4470:4520   */\n      iszero\n      tag_578\n      jumpi\n        /* \"#utility.yul\":4516:4517   */\n      0x00\n        /* \"#utility.yul\":4513:4514   */\n      0x00\n        /* \"#utility.yul\":4506:4518   */\n      revert\n        /* \"#utility.yul\":4470:4520   */\n    tag_578:\n        /* \"#utility.yul\":4539:4561   */\n      dup6\n      add\n        /* \"#utility.yul\":4592:4596   */\n      0x1f\n        /* \"#utility.yul\":4584:4597   */\n      dup2\n      add\n        /* \"#utility.yul\":4580:4607   */\n      dup8\n      sgt\n        /* \"#utility.yul\":4570:4625   */\n      tag_579\n      jumpi\n        /* \"#utility.yul\":4621:4622   */\n      0x00\n        /* \"#utility.yul\":4618:4619   */\n      0x00\n        /* \"#utility.yul\":4611:4623   */\n      revert\n        /* \"#utility.yul\":4570:4625   */\n    tag_579:\n        /* \"#utility.yul\":4661:4663   */\n      dup1\n        /* \"#utility.yul\":4648:4664   */\n      calldataload\n        /* \"#utility.yul\":4684:4756   */\n      tag_580\n        /* \"#utility.yul\":4700:4755   */\n      tag_571\n        /* \"#utility.yul\":4748:4754   */\n      dup3\n        /* \"#utility.yul\":4700:4755   */\n      tag_530\n      jump\t// in\n        /* \"#utility.yul\":4684:4756   */\n    tag_580:\n        /* \"#utility.yul\":4778:4781   */\n      dup1\n        /* \"#utility.yul\":4802:4808   */\n      dup3\n        /* \"#utility.yul\":4797:4800   */\n      dup3\n        /* \"#utility.yul\":4790:4809   */\n      mstore\n        /* \"#utility.yul\":4834:4838   */\n      0x20\n        /* \"#utility.yul\":4829:4832   */\n      dup3\n        /* \"#utility.yul\":4825:4839   */\n      add\n        /* \"#utility.yul\":4818:4839   */\n      swap2\n      pop\n        /* \"#utility.yul\":4891:4895   */\n      0x20\n        /* \"#utility.yul\":4881:4887   */\n      dup4\n        /* \"#utility.yul\":4878:4879   */\n      0x05\n        /* \"#utility.yul\":4874:4888   */\n      shl\n        /* \"#utility.yul\":4870:4872   */\n      dup6\n        /* \"#utility.yul\":4866:4889   */\n      add\n        /* \"#utility.yul\":4862:4896   */\n      add\n        /* \"#utility.yul\":4848:4896   */\n      swap3\n      pop\n        /* \"#utility.yul\":4919:4926   */\n      dup10\n        /* \"#utility.yul\":4911:4917   */\n      dup4\n        /* \"#utility.yul\":4908:4927   */\n      gt\n        /* \"#utility.yul\":4905:4944   */\n      iszero\n      tag_582\n      jumpi\n        /* \"#utility.yul\":4940:4941   */\n      0x00\n        /* \"#utility.yul\":4937:4938   */\n      0x00\n        /* \"#utility.yul\":4930:4942   */\n      revert\n        /* \"#utility.yul\":4905:4944   */\n    tag_582:\n        /* \"#utility.yul\":4972:4976   */\n      0x20\n        /* \"#utility.yul\":4968:4970   */\n      dup5\n        /* \"#utility.yul\":4964:4977   */\n      add\n        /* \"#utility.yul\":4953:4977   */\n      swap4\n      pop\n        /* \"#utility.yul\":4986:5207   */\n    tag_583:\n        /* \"#utility.yul\":5002:5008   */\n      dup3\n        /* \"#utility.yul\":4997:5000   */\n      dup5\n        /* \"#utility.yul\":4994:5009   */\n      lt\n        /* \"#utility.yul\":4986:5207   */\n      iszero\n      tag_585\n      jumpi\n        /* \"#utility.yul\":5084:5087   */\n      dup4\n        /* \"#utility.yul\":5071:5088   */\n      calldataload\n        /* \"#utility.yul\":5101:5132   */\n      tag_586\n        /* \"#utility.yul\":5126:5131   */\n      dup2\n        /* \"#utility.yul\":5101:5132   */\n      tag_526\n      jump\t// in\n    tag_586:\n        /* \"#utility.yul\":5145:5163   */\n      dup3\n      mstore\n        /* \"#utility.yul\":5192:5196   */\n      0x20\n        /* \"#utility.yul\":5019:5033   */\n      swap4\n      dup5\n      add\n      swap4\n        /* \"#utility.yul\":5183:5197   */\n      swap1\n      swap2\n      add\n      swap1\n        /* \"#utility.yul\":4986:5207   */\n      jump(tag_583)\n    tag_585:\n        /* \"#utility.yul\":5226:5231   */\n      swap7\n      pop\n      pop\n      pop\n      pop\n        /* \"#utility.yul\":5284:5288   */\n      0x20\n        /* \"#utility.yul\":5269:5289   */\n      dup6\n      add\n        /* \"#utility.yul\":5256:5290   */\n      calldataload\n        /* \"#utility.yul\":5315:5333   */\n      0xffffffffffffffff\n        /* \"#utility.yul\":5302:5334   */\n      dup2\n      gt\n        /* \"#utility.yul\":5299:5351   */\n      iszero\n      tag_587\n      jumpi\n        /* \"#utility.yul\":5347:5348   */\n      0x00\n        /* \"#utility.yul\":5344:5345   */\n      0x00\n        /* \"#utility.yul\":5337:5349   */\n      revert\n        /* \"#utility.yul\":5299:5351   */\n    tag_587:\n        /* \"#utility.yul\":5370:5433   */\n      tag_588\n        /* \"#utility.yul\":5425:5432   */\n      dup8\n        /* \"#utility.yul\":5414:5422   */\n      dup3\n        /* \"#utility.yul\":5403:5412   */\n      dup9\n        /* \"#utility.yul\":5399:5423   */\n      add\n        /* \"#utility.yul\":5370:5433   */\n      tag_531\n      jump\t// in\n    tag_588:\n        /* \"#utility.yul\":5360:5433   */\n      swap4\n      pop\n      pop\n        /* \"#utility.yul\":5506:5508   */\n      0x40\n        /* \"#utility.yul\":5491:5509   */\n      dup6\n      add\n        /* \"#utility.yul\":5478:5510   */\n      calldataload\n      swap2\n      pop\n        /* \"#utility.yul\":5555:5601   */\n      tag_589\n        /* \"#utility.yul\":5597:5599   */\n      0x60\n        /* \"#utility.yul\":5582:5600   */\n      dup7\n      add\n        /* \"#utility.yul\":5555:5601   */\n      tag_527\n      jump\t// in\n    tag_589:\n        /* \"#utility.yul\":5545:5601   */\n      swap1\n      pop\n        /* \"#utility.yul\":4159:5607   */\n      swap3\n      swap6\n      swap2\n      swap5\n      pop\n      swap3\n      pop\n      jump\t// out\n        /* \"#utility.yul\":6624:6913   */\n    tag_532:\n        /* \"#utility.yul\":6666:6669   */\n      0x00\n        /* \"#utility.yul\":6704:6709   */\n      dup2\n        /* \"#utility.yul\":6698:6710   */\n      mload\n        /* \"#utility.yul\":6731:6737   */\n      dup1\n        /* \"#utility.yul\":6726:6729   */\n      dup5\n        /* \"#utility.yul\":6719:6738   */\n      mstore\n        /* \"#utility.yul\":6787:6793   */\n      dup1\n        /* \"#utility.yul\":6780:6784   */\n      0x20\n        /* \"#utility.yul\":6773:6778   */\n      dup5\n        /* \"#utility.yul\":6769:6785   */\n      add\n        /* \"#utility.yul\":6762:6766   */\n      0x20\n        /* \"#utility.yul\":6757:6760   */\n      dup7\n        /* \"#utility.yul\":6753:6767   */\n      add\n        /* \"#utility.yul\":6747:6794   */\n      mcopy\n        /* \"#utility.yul\":6839:6840   */\n      0x00\n        /* \"#utility.yul\":6832:6836   */\n      0x20\n        /* \"#utility.yul\":6823:6829   */\n      dup3\n        /* \"#utility.yul\":6818:6821   */\n      dup7\n        /* \"#utility.yul\":6814:6830   */\n      add\n        /* \"#utility.yul\":6810:6837   */\n      add\n        /* \"#utility.yul\":6803:6841   */\n      mstore\n        /* \"#utility.yul\":6902:6906   */\n      0x20\n        /* \"#utility.yul\":6895:6897   */\n      0x1f\n        /* \"#utility.yul\":6891:6898   */\n      not\n        /* \"#utility.yul\":6886:6888   */\n      0x1f\n        /* \"#utility.yul\":6878:6884   */\n      dup4\n        /* \"#utility.yul\":6874:6889   */\n      add\n        /* \"#utility.yul\":6870:6899   */\n      and\n        /* \"#utility.yul\":6865:6868   */\n      dup6\n        /* \"#utility.yul\":6861:6900   */\n      add\n        /* \"#utility.yul\":6857:6907   */\n      add\n        /* \"#utility.yul\":6850:6907   */\n      swap2\n      pop\n      pop\n        /* \"#utility.yul\":6624:6913   */\n      swap3\n      swap2\n      pop\n      pop\n      jump\t// out\n        /* \"#utility.yul\":6918:7425   */\n    tag_200:\n        /* \"#utility.yul\":7179:7185   */\n      dup6\n        /* \"#utility.yul\":7168:7177   */\n      dup2\n        /* \"#utility.yul\":7161:7186   */\n      mstore\n        /* \"#utility.yul\":7222:7228   */\n      dup5\n        /* \"#utility.yul\":7217:7219   */\n      0x20\n        /* \"#utility.yul\":7206:7215   */\n      dup3\n        /* \"#utility.yul\":7202:7220   */\n      add\n        /* \"#utility.yul\":7195:7229   */\n      mstore\n        /* \"#utility.yul\":7265:7271   */\n      dup4\n        /* \"#utility.yul\":7260:7262   */\n      0x40\n        /* \"#utility.yul\":7249:7258   */\n      dup3\n        /* \"#utility.yul\":7245:7263   */\n      add\n        /* \"#utility.yul\":7238:7272   */\n      mstore\n        /* \"#utility.yul\":7308:7314   */\n      dup3\n        /* \"#utility.yul\":7303:7305   */\n      0x60\n        /* \"#utility.yul\":7292:7301   */\n      dup3\n        /* \"#utility.yul\":7288:7306   */\n      add\n        /* \"#utility.yul\":7281:7315   */\n      mstore\n        /* \"#utility.yul\":7352:7355   */\n      0xa0\n        /* \"#utility.yul\":7346:7349   */\n      0x80\n        /* \"#utility.yul\":7335:7344   */\n      dup3\n        /* \"#utility.yul\":7331:7350   */\n      add\n        /* \"#utility.yul\":7324:7356   */\n      mstore\n        /* \"#utility.yul\":7142:7146   */\n      0x00\n        /* \"#utility.yul\":7373:7419   */\n      tag_593\n        /* \"#utility.yul\":7414:7417   */\n      0xa0\n        /* \"#utility.yul\":7403:7412   */\n      dup4\n        /* \"#utility.yul\":7399:7418   */\n      add\n        /* \"#utility.yul\":7391:7397   */\n      dup5\n        /* \"#utility.yul\":7373:7419   */\n      tag_532\n      jump\t// in\n    tag_593:\n        /* \"#utility.yul\":7365:7419   */\n      swap8\n        /* \"#utility.yul\":6918:7425   */\n      swap7\n      pop\n      pop\n      pop\n      pop\n      pop\n      pop\n      pop\n      jump\t// out\n        /* \"#utility.yul\":7430:7917   */\n    tag_221:\n        /* \"#utility.yul\":7507:7513   */\n      0x00\n        /* \"#utility.yul\":7515:7521   */\n      0x00\n        /* \"#utility.yul\":7523:7529   */\n      0x00\n        /* \"#utility.yul\":7576:7578   */\n      0x60\n        /* \"#utility.yul\":7564:7573   */\n      dup5\n        /* \"#utility.yul\":7555:7562   */\n      dup7\n        /* \"#utility.yul\":7551:7574   */\n      sub\n        /* \"#utility.yul\":7547:7579   */\n      slt\n        /* \"#utility.yul\":7544:7596   */\n      iszero\n      tag_595\n      jumpi\n        /* \"#utility.yul\":7592:7593   */\n      0x00\n        /* \"#utility.yul\":7589:7590   */\n      0x00\n        /* \"#utility.yul\":7582:7594   */\n      revert\n        /* \"#utility.yul\":7544:7596   */\n    tag_595:\n        /* \"#utility.yul\":7637:7660   */\n      dup4\n      calldataload\n      swap3\n      pop\n        /* \"#utility.yul\":7757:7759   */\n      0x20\n        /* \"#utility.yul\":7742:7760   */\n      dup5\n      add\n        /* \"#utility.yul\":7729:7761   */\n      calldataload\n      swap2\n      pop\n        /* \"#utility.yul\":7839:7841   */\n      0x40\n        /* \"#utility.yul\":7824:7842   */\n      dup5\n      add\n        /* \"#utility.yul\":7811:7843   */\n      calldataload\n        /* \"#utility.yul\":7852:7885   */\n      tag_596\n        /* \"#utility.yul\":7811:7843   */\n      dup2\n        /* \"#utility.yul\":7852:7885   */\n      tag_526\n      jump\t// in\n    tag_596:\n        /* \"#utility.yul\":7904:7911   */\n      dup1\n        /* \"#utility.yul\":7894:7911   */\n      swap2\n      pop\n      pop\n        /* \"#utility.yul\":7430:7917   */\n      swap3\n      pop\n      swap3\n      pop\n      swap3\n      jump\t// out\n        /* \"#utility.yul\":7922:8675   */\n    tag_255:\n        /* \"#utility.yul\":8015:8021   */\n      0x00\n        /* \"#utility.yul\":8023:8029   */\n      0x00\n        /* \"#utility.yul\":8031:8037   */\n      0x00\n        /* \"#utility.yul\":8039:8045   */\n      0x00\n        /* \"#utility.yul\":8047:8053   */\n      0x00\n        /* \"#utility.yul\":8100:8103   */\n      0xa0\n        /* \"#utility.yul\":8088:8097   */\n      dup7\n        /* \"#utility.yul\":8079:8086   */\n      dup9\n        /* \"#utility.yul\":8075:8098   */\n      sub\n        /* \"#utility.yul\":8071:8104   */\n      slt\n        /* \"#utility.yul\":8068:8121   */\n      iszero\n      tag_598\n      jumpi\n        /* \"#utility.yul\":8117:8118   */\n      0x00\n        /* \"#utility.yul\":8114:8115   */\n      0x00\n        /* \"#utility.yul\":8107:8119   */\n      revert\n        /* \"#utility.yul\":8068:8121   */\n    tag_598:\n        /* \"#utility.yul\":8162:8185   */\n      dup6\n      calldataload\n      swap5\n      pop\n        /* \"#utility.yul\":8261:8263   */\n      0x20\n        /* \"#utility.yul\":8246:8264   */\n      dup7\n      add\n        /* \"#utility.yul\":8233:8265   */\n      calldataload\n        /* \"#utility.yul\":8309:8313   */\n      0xff\n        /* \"#utility.yul\":8296:8314   */\n      dup2\n      and\n        /* \"#utility.yul\":8284:8315   */\n      dup2\n      eq\n        /* \"#utility.yul\":8274:8333   */\n      tag_599\n      jumpi\n        /* \"#utility.yul\":8329:8330   */\n      0x00\n        /* \"#utility.yul\":8326:8327   */\n      0x00\n        /* \"#utility.yul\":8319:8331   */\n      revert\n        /* \"#utility.yul\":8274:8333   */\n    tag_599:\n        /* \"#utility.yul\":7922:8675   */\n      swap5\n      swap8\n        /* \"#utility.yul\":8352:8359   */\n      swap5\n      swap7\n      pop\n      pop\n      pop\n      pop\n        /* \"#utility.yul\":8432:8434   */\n      0x40\n        /* \"#utility.yul\":8417:8435   */\n      dup4\n      add\n        /* \"#utility.yul\":8404:8436   */\n      calldataload\n      swap3\n        /* \"#utility.yul\":8535:8537   */\n      0x60\n        /* \"#utility.yul\":8520:8538   */\n      dup2\n      add\n        /* \"#utility.yul\":8507:8539   */\n      calldataload\n      swap3\n        /* \"#utility.yul\":8638:8641   */\n      0x80\n        /* \"#utility.yul\":8623:8642   */\n      swap1\n      swap2\n      add\n        /* \"#utility.yul\":8610:8643   */\n      calldataload\n      swap2\n      pop\n        /* \"#utility.yul\":7922:8675   */\n      jump\t// out\n        /* \"#utility.yul\":8680:9077   */\n    tag_268:\n        /* \"#utility.yul\":8882:8884   */\n      0x20\n        /* \"#utility.yul\":8864:8885   */\n      dup1\n      dup3\n      mstore\n        /* \"#utility.yul\":8921:8923   */\n      0x21\n        /* \"#utility.yul\":8901:8919   */\n      swap1\n      dup3\n      add\n        /* \"#utility.yul\":8894:8924   */\n      mstore\n        /* \"#utility.yul\":8960:8994   */\n      0x466f7262696464656e21204f6e6c79204f70657261746f722043616e2043616c\n        /* \"#utility.yul\":8955:8957   */\n      0x40\n        /* \"#utility.yul\":8940:8958   */\n      dup3\n      add\n        /* \"#utility.yul\":8933:8995   */\n      mstore\n      shl(0xfa, 0x1b)\n        /* \"#utility.yul\":9026:9028   */\n      0x60\n        /* \"#utility.yul\":9011:9029   */\n      dup3\n      add\n        /* \"#utility.yul\":9004:9035   */\n      mstore\n        /* \"#utility.yul\":9067:9070   */\n      0x80\n        /* \"#utility.yul\":9052:9071   */\n      add\n      swap1\n        /* \"#utility.yul\":8680:9077   */\n      jump\t// out\n        /* \"#utility.yul\":9497:9877   */\n    tag_374:\n        /* \"#utility.yul\":9576:9577   */\n      0x01\n        /* \"#utility.yul\":9572:9584   */\n      dup2\n      dup2\n      shr\n      swap1\n        /* \"#utility.yul\":9619:9631   */\n      dup3\n      and\n      dup1\n        /* \"#utility.yul\":9640:9701   */\n      tag_603\n      jumpi\n        /* \"#utility.yul\":9694:9698   */\n      0x7f\n        /* \"#utility.yul\":9686:9692   */\n      dup3\n        /* \"#utility.yul\":9682:9699   */\n      and\n        /* \"#utility.yul\":9672:9699   */\n      swap2\n      pop\n        /* \"#utility.yul\":9640:9701   */\n    tag_603:\n        /* \"#utility.yul\":9747:9749   */\n      0x20\n        /* \"#utility.yul\":9739:9745   */\n      dup3\n        /* \"#utility.yul\":9736:9750   */\n      lt\n        /* \"#utility.yul\":9716:9734   */\n      dup2\n        /* \"#utility.yul\":9713:9751   */\n      sub\n        /* \"#utility.yul\":9710:9871   */\n      tag_604\n      jumpi\n        /* \"#utility.yul\":9793:9803   */\n      0x4e487b71\n        /* \"#utility.yul\":9788:9791   */\n      0xe0\n        /* \"#utility.yul\":9784:9804   */\n      shl\n        /* \"#utility.yul\":9781:9782   */\n      0x00\n        /* \"#utility.yul\":9774:9805   */\n      mstore\n        /* \"#utility.yul\":9828:9832   */\n      0x22\n        /* \"#utility.yul\":9825:9826   */\n      0x04\n        /* \"#utility.yul\":9818:9833   */\n      mstore\n        /* \"#utility.yul\":9856:9860   */\n      0x24\n        /* \"#utility.yul\":9853:9854   */\n      0x00\n        /* \"#utility.yul\":9846:9861   */\n      revert\n        /* \"#utility.yul\":9710:9871   */\n    tag_604:\n      pop\n        /* \"#utility.yul\":9497:9877   */\n      swap2\n      swap1\n      pop\n      jump\t// out\n        /* \"#utility.yul\":10008:10526   */\n    tag_534:\n        /* \"#utility.yul\":10110:10112   */\n      0x1f\n        /* \"#utility.yul\":10105:10108   */\n      dup3\n        /* \"#utility.yul\":10102:10113   */\n      gt\n        /* \"#utility.yul\":10099:10520   */\n      iszero\n      tag_306\n      jumpi\n        /* \"#utility.yul\":10146:10151   */\n      dup1\n        /* \"#utility.yul\":10143:10144   */\n      0x00\n        /* \"#utility.yul\":10136:10152   */\n      mstore\n        /* \"#utility.yul\":10190:10194   */\n      0x20\n        /* \"#utility.yul\":10187:10188   */\n      0x00\n        /* \"#utility.yul\":10177:10195   */\n      keccak256\n        /* \"#utility.yul\":10260:10262   */\n      0x1f\n        /* \"#utility.yul\":10248:10258   */\n      dup5\n        /* \"#utility.yul\":10244:10263   */\n      add\n        /* \"#utility.yul\":10241:10242   */\n      0x05\n        /* \"#utility.yul\":10237:10264   */\n      shr\n        /* \"#utility.yul\":10231:10235   */\n      dup2\n        /* \"#utility.yul\":10227:10265   */\n      add\n        /* \"#utility.yul\":10296:10300   */\n      0x20\n        /* \"#utility.yul\":10284:10294   */\n      dup6\n        /* \"#utility.yul\":10281:10301   */\n      lt\n        /* \"#utility.yul\":10278:10325   */\n      iszero\n      tag_608\n      jumpi\n      pop\n        /* \"#utility.yul\":10319:10323   */\n      dup1\n        /* \"#utility.yul\":10278:10325   */\n    tag_608:\n        /* \"#utility.yul\":10374:10376   */\n      0x1f\n        /* \"#utility.yul\":10369:10372   */\n      dup5\n        /* \"#utility.yul\":10365:10377   */\n      add\n        /* \"#utility.yul\":10362:10363   */\n      0x05\n        /* \"#utility.yul\":10358:10378   */\n      shr\n        /* \"#utility.yul\":10352:10356   */\n      dup3\n        /* \"#utility.yul\":10348:10379   */\n      add\n        /* \"#utility.yul\":10338:10379   */\n      swap2\n      pop\n        /* \"#utility.yul\":10429:10510   */\n    tag_609:\n        /* \"#utility.yul\":10447:10449   */\n      dup2\n        /* \"#utility.yul\":10440:10445   */\n      dup2\n        /* \"#utility.yul\":10437:10450   */\n      lt\n        /* \"#utility.yul\":10429:10510   */\n      iszero\n      tag_464\n      jumpi\n        /* \"#utility.yul\":10506:10507   */\n      0x00\n        /* \"#utility.yul\":10492:10508   */\n      dup2\n      sstore\n        /* \"#utility.yul\":10473:10474   */\n      0x01\n        /* \"#utility.yul\":10462:10475   */\n      add\n        /* \"#utility.yul\":10429:10510   */\n      jump(tag_609)\n        /* \"#utility.yul\":10702:12001   */\n    tag_283:\n        /* \"#utility.yul\":10828:10831   */\n      dup2\n        /* \"#utility.yul\":10822:10832   */\n      mload\n        /* \"#utility.yul\":10855:10873   */\n      0xffffffffffffffff\n        /* \"#utility.yul\":10847:10853   */\n      dup2\n        /* \"#utility.yul\":10844:10874   */\n      gt\n        /* \"#utility.yul\":10841:10897   */\n      iszero\n      tag_615\n      jumpi\n        /* \"#utility.yul\":10877:10895   */\n      tag_615\n      tag_528\n      jump\t// in\n    tag_615:\n        /* \"#utility.yul\":10906:11003   */\n      tag_616\n        /* \"#utility.yul\":10996:11002   */\n      dup2\n        /* \"#utility.yul\":10956:10994   */\n      tag_617\n        /* \"#utility.yul\":10988:10992   */\n      dup5\n        /* \"#utility.yul\":10982:10993   */\n      sload\n        /* \"#utility.yul\":10956:10994   */\n      tag_374\n      jump\t// in\n    tag_617:\n        /* \"#utility.yul\":10950:10954   */\n      dup5\n        /* \"#utility.yul\":10906:11003   */\n      tag_534\n      jump\t// in\n    tag_616:\n        /* \"#utility.yul\":11052:11056   */\n      0x20\n        /* \"#utility.yul\":11083:11085   */\n      0x1f\n        /* \"#utility.yul\":11072:11086   */\n      dup3\n      gt\n        /* \"#utility.yul\":11100:11101   */\n      0x01\n        /* \"#utility.yul\":11095:11744   */\n      dup2\n      eq\n      tag_619\n      jumpi\n        /* \"#utility.yul\":11788:11789   */\n      0x00\n        /* \"#utility.yul\":11805:11811   */\n      dup4\n        /* \"#utility.yul\":11802:11891   */\n      iszero\n      tag_620\n      jumpi\n      pop\n        /* \"#utility.yul\":11857:11876   */\n      dup5\n      dup3\n      add\n        /* \"#utility.yul\":11851:11877   */\n      mload\n        /* \"#utility.yul\":11802:11891   */\n    tag_620:\n      not(0x00)\n        /* \"#utility.yul\":10659:10660   */\n      0x03\n        /* \"#utility.yul\":10655:10666   */\n      dup6\n      swap1\n      shl\n        /* \"#utility.yul\":10651:10675   */\n      shr\n        /* \"#utility.yul\":10647:10676   */\n      not\n        /* \"#utility.yul\":10637:10677   */\n      and\n        /* \"#utility.yul\":10683:10684   */\n      0x01\n        /* \"#utility.yul\":10679:10690   */\n      dup5\n      swap1\n      shl\n        /* \"#utility.yul\":10634:10691   */\n      or\n        /* \"#utility.yul\":11904:11985   */\n      dup5\n      sstore\n        /* \"#utility.yul\":11065:11995   */\n      jump(tag_464)\n        /* \"#utility.yul\":11095:11744   */\n    tag_619:\n        /* \"#utility.yul\":9955:9956   */\n      0x00\n        /* \"#utility.yul\":9948:9962   */\n      dup5\n      dup2\n      mstore\n        /* \"#utility.yul\":9992:9996   */\n      0x20\n        /* \"#utility.yul\":9979:9997   */\n      dup2\n      keccak256\n      not(0x1f)\n        /* \"#utility.yul\":11131:11151   */\n      dup6\n      and\n      swap2\n        /* \"#utility.yul\":11249:11471   */\n    tag_623:\n        /* \"#utility.yul\":11263:11270   */\n      dup3\n        /* \"#utility.yul\":11260:11261   */\n      dup2\n        /* \"#utility.yul\":11257:11271   */\n      lt\n        /* \"#utility.yul\":11249:11471   */\n      iszero\n      tag_625\n      jumpi\n        /* \"#utility.yul\":11345:11364   */\n      dup8\n      dup6\n      add\n        /* \"#utility.yul\":11339:11365   */\n      mload\n        /* \"#utility.yul\":11324:11366   */\n      dup3\n      sstore\n        /* \"#utility.yul\":11452:11456   */\n      0x20\n        /* \"#utility.yul\":11437:11457   */\n      swap5\n      dup6\n      add\n      swap5\n        /* \"#utility.yul\":11405:11406   */\n      0x01\n        /* \"#utility.yul\":11393:11407   */\n      swap1\n      swap3\n      add\n      swap2\n        /* \"#utility.yul\":11279:11291   */\n      add\n        /* \"#utility.yul\":11249:11471   */\n      jump(tag_623)\n    tag_625:\n        /* \"#utility.yul\":11253:11256   */\n      pop\n        /* \"#utility.yul\":11499:11505   */\n      dup5\n        /* \"#utility.yul\":11490:11497   */\n      dup3\n        /* \"#utility.yul\":11487:11506   */\n      lt\n        /* \"#utility.yul\":11484:11685   */\n      iszero\n      tag_626\n      jumpi\n        /* \"#utility.yul\":11560:11579   */\n      dup7\n      dup5\n      add\n        /* \"#utility.yul\":11554:11580   */\n      mload\n      not(0x00)\n        /* \"#utility.yul\":11643:11644   */\n      0x03\n        /* \"#utility.yul\":11639:11653   */\n      dup8\n      swap1\n      shl\n        /* \"#utility.yul\":11655:11658   */\n      0xf8\n        /* \"#utility.yul\":11635:11659   */\n      and\n        /* \"#utility.yul\":11631:11668   */\n      shr\n        /* \"#utility.yul\":11627:11669   */\n      not\n        /* \"#utility.yul\":11612:11670   */\n      and\n        /* \"#utility.yul\":11597:11671   */\n      dup2\n      sstore\n        /* \"#utility.yul\":11484:11685   */\n    tag_626:\n      pop\n      pop\n      pop\n      pop\n        /* \"#utility.yul\":11731:11732   */\n      0x01\n        /* \"#utility.yul\":11715:11729   */\n      swap1\n      dup2\n      shl\n        /* \"#utility.yul\":11711:11733   */\n      add\n        /* \"#utility.yul\":11698:11734   */\n      swap1\n      sstore\n      pop\n        /* \"#utility.yul\":10702:12001   */\n      jump\t// out\n        /* \"#utility.yul\":12006:12133   */\n    tag_297:\n        /* \"#utility.yul\":12067:12077   */\n      0x4e487b71\n        /* \"#utility.yul\":12062:12065   */\n      0xe0\n        /* \"#utility.yul\":12058:12078   */\n      shl\n        /* \"#utility.yul\":12055:12056   */\n      0x00\n        /* \"#utility.yul\":12048:12079   */\n      mstore\n        /* \"#utility.yul\":12098:12102   */\n      0x32\n        /* \"#utility.yul\":12095:12096   */\n      0x04\n        /* \"#utility.yul\":12088:12103   */\n      mstore\n        /* \"#utility.yul\":12122:12126   */\n      0x24\n        /* \"#utility.yul\":12119:12120   */\n      0x00\n        /* \"#utility.yul\":12112:12127   */\n      revert\n        /* \"#utility.yul\":12138:12265   */\n    tag_536:\n        /* \"#utility.yul\":12199:12209   */\n      0x4e487b71\n        /* \"#utility.yul\":12194:12197   */\n      0xe0\n        /* \"#utility.yul\":12190:12210   */\n      shl\n        /* \"#utility.yul\":12187:12188   */\n      0x00\n        /* \"#utility.yul\":12180:12211   */\n      mstore\n        /* \"#utility.yul\":12230:12234   */\n      0x11\n        /* \"#utility.yul\":12227:12228   */\n      0x04\n        /* \"#utility.yul\":12220:12235   */\n      mstore\n        /* \"#utility.yul\":12254:12258   */\n      0x24\n        /* \"#utility.yul\":12251:12252   */\n      0x00\n        /* \"#utility.yul\":12244:12259   */\n      revert\n        /* \"#utility.yul\":12270:12405   */\n    tag_303:\n        /* \"#utility.yul\":12309:12312   */\n      0x00\n        /* \"#utility.yul\":12330:12347   */\n      0x01\n      dup3\n      add\n        /* \"#utility.yul\":12327:12370   */\n      tag_631\n      jumpi\n        /* \"#utility.yul\":12350:12368   */\n      tag_631\n      tag_536\n      jump\t// in\n    tag_631:\n      pop\n        /* \"#utility.yul\":12397:12398   */\n      0x01\n        /* \"#utility.yul\":12386:12399   */\n      add\n      swap1\n        /* \"#utility.yul\":12270:12405   */\n      jump\t// out\n        /* \"#utility.yul\":13849:14017   */\n    tag_329:\n        /* \"#utility.yul\":13922:13931   */\n      dup1\n      dup3\n      mul\n        /* \"#utility.yul\":13953:13962   */\n      dup2\n      iszero\n        /* \"#utility.yul\":13970:13985   */\n      dup3\n      dup3\n      div\n        /* \"#utility.yul\":13964:13986   */\n      dup5\n      eq\n        /* \"#utility.yul\":13950:13987   */\n      or\n        /* \"#utility.yul\":13940:14011   */\n      tag_637\n      jumpi\n        /* \"#utility.yul\":13991:14009   */\n      tag_637\n      tag_536\n      jump\t// in\n    tag_637:\n        /* \"#utility.yul\":13849:14017   */\n      swap3\n      swap2\n      pop\n      pop\n      jump\t// out\n        /* \"#utility.yul\":14301:14578   */\n    tag_335:\n        /* \"#utility.yul\":14368:14374   */\n      0x00\n        /* \"#utility.yul\":14421:14423   */\n      0x20\n        /* \"#utility.yul\":14409:14418   */\n      dup3\n        /* \"#utility.yul\":14400:14407   */\n      dup5\n        /* \"#utility.yul\":14396:14419   */\n      sub\n        /* \"#utility.yul\":14392:14424   */\n      slt\n        /* \"#utility.yul\":14389:14441   */\n      iszero\n      tag_640\n      jumpi\n        /* \"#utility.yul\":14437:14438   */\n      0x00\n        /* \"#utility.yul\":14434:14435   */\n      0x00\n        /* \"#utility.yul\":14427:14439   */\n      revert\n        /* \"#utility.yul\":14389:14441   */\n    tag_640:\n        /* \"#utility.yul\":14469:14478   */\n      dup2\n        /* \"#utility.yul\":14463:14479   */\n      mload\n        /* \"#utility.yul\":14522:14527   */\n      dup1\n        /* \"#utility.yul\":14515:14528   */\n      iszero\n        /* \"#utility.yul\":14508:14529   */\n      iszero\n        /* \"#utility.yul\":14501:14506   */\n      dup2\n        /* \"#utility.yul\":14498:14530   */\n      eq\n        /* \"#utility.yul\":14488:14548   */\n      tag_550\n      jumpi\n        /* \"#utility.yul\":14544:14545   */\n      0x00\n        /* \"#utility.yul\":14541:14542   */\n      0x00\n        /* \"#utility.yul\":14534:14546   */\n      revert\n        /* \"#utility.yul\":14583:14711   */\n    tag_348:\n        /* \"#utility.yul\":14650:14659   */\n      dup2\n      dup2\n      sub\n        /* \"#utility.yul\":14671:14682   */\n      dup2\n      dup2\n      gt\n        /* \"#utility.yul\":14668:14705   */\n      iszero\n      tag_637\n      jumpi\n        /* \"#utility.yul\":14685:14703   */\n      tag_637\n      tag_536\n      jump\t// in\n        /* \"#utility.yul\":17000:17217   */\n    tag_407:\n        /* \"#utility.yul\":17040:17041   */\n      0x00\n        /* \"#utility.yul\":17066:17067   */\n      dup3\n        /* \"#utility.yul\":17056:17188   */\n      tag_652\n      jumpi\n        /* \"#utility.yul\":17110:17120   */\n      0x4e487b71\n        /* \"#utility.yul\":17105:17108   */\n      0xe0\n        /* \"#utility.yul\":17101:17121   */\n      shl\n        /* \"#utility.yul\":17098:17099   */\n      0x00\n        /* \"#utility.yul\":17091:17122   */\n      mstore\n        /* \"#utility.yul\":17145:17149   */\n      0x12\n        /* \"#utility.yul\":17142:17143   */\n      0x04\n        /* \"#utility.yul\":17135:17150   */\n      mstore\n        /* \"#utility.yul\":17173:17177   */\n      0x24\n        /* \"#utility.yul\":17170:17171   */\n      0x00\n        /* \"#utility.yul\":17163:17178   */\n      revert\n        /* \"#utility.yul\":17056:17188   */\n    tag_652:\n      pop\n        /* \"#utility.yul\":17202:17211   */\n      div\n      swap1\n        /* \"#utility.yul\":17000:17217   */\n      jump\t// out\n        /* \"#utility.yul\":17222:17883   */\n    tag_413:\n        /* \"#utility.yul\":17556:17562   */\n      dup5\n        /* \"#utility.yul\":17545:17554   */\n      dup2\n        /* \"#utility.yul\":17538:17563   */\n      mstore\n        /* \"#utility.yul\":17599:17605   */\n      dup4\n        /* \"#utility.yul\":17594:17596   */\n      0x20\n        /* \"#utility.yul\":17583:17592   */\n      dup3\n        /* \"#utility.yul\":17579:17597   */\n      add\n        /* \"#utility.yul\":17572:17606   */\n      mstore\n        /* \"#utility.yul\":17642:17645   */\n      0xa0\n        /* \"#utility.yul\":17637:17639   */\n      0x40\n        /* \"#utility.yul\":17626:17635   */\n      dup3\n        /* \"#utility.yul\":17622:17640   */\n      add\n        /* \"#utility.yul\":17615:17646   */\n      mstore\n        /* \"#utility.yul\":17683:17684   */\n      0x05\n        /* \"#utility.yul\":17677:17680   */\n      0xa0\n        /* \"#utility.yul\":17666:17675   */\n      dup3\n        /* \"#utility.yul\":17662:17681   */\n      add\n        /* \"#utility.yul\":17655:17685   */\n      mstore\n      shl(0xd8, 0x7374445343)\n        /* \"#utility.yul\":17716:17719   */\n      0xc0\n        /* \"#utility.yul\":17705:17714   */\n      dup3\n        /* \"#utility.yul\":17701:17720   */\n      add\n        /* \"#utility.yul\":17694:17730   */\n      mstore\n        /* \"#utility.yul\":17766:17769   */\n      0xe0\n        /* \"#utility.yul\":17761:17763   */\n      0x60\n        /* \"#utility.yul\":17750:17759   */\n      dup3\n        /* \"#utility.yul\":17746:17764   */\n      add\n        /* \"#utility.yul\":17739:17770   */\n      mstore\n        /* \"#utility.yul\":17519:17523   */\n      0x00\n        /* \"#utility.yul\":17787:17833   */\n      tag_654\n        /* \"#utility.yul\":17828:17831   */\n      0xe0\n        /* \"#utility.yul\":17817:17826   */\n      dup4\n        /* \"#utility.yul\":17813:17832   */\n      add\n        /* \"#utility.yul\":17805:17811   */\n      dup6\n        /* \"#utility.yul\":17787:17833   */\n      tag_532\n      jump\t// in\n    tag_654:\n        /* \"#utility.yul\":17779:17833   */\n      swap1\n      pop\n        /* \"#utility.yul\":17870:17876   */\n      dup3\n        /* \"#utility.yul\":17864:17867   */\n      0x80\n        /* \"#utility.yul\":17853:17862   */\n      dup4\n        /* \"#utility.yul\":17849:17868   */\n      add\n        /* \"#utility.yul\":17842:17877   */\n      mstore\n        /* \"#utility.yul\":17222:17883   */\n      swap6\n      swap5\n      pop\n      pop\n      pop\n      pop\n      pop\n      jump\t// out\n        /* \"#utility.yul\":17888:18013   */\n    tag_417:\n        /* \"#utility.yul\":17953:17962   */\n      dup1\n      dup3\n      add\n        /* \"#utility.yul\":17974:17984   */\n      dup1\n      dup3\n      gt\n        /* \"#utility.yul\":17971:18007   */\n      iszero\n      tag_637\n      jumpi\n        /* \"#utility.yul\":17987:18005   */\n      tag_637\n      tag_536\n      jump\t// in\n        /* \"#utility.yul\":20419:20781   */\n    tag_500:\n        /* \"#utility.yul\":20624:20630   */\n      dup4\n        /* \"#utility.yul\":20613:20622   */\n      dup2\n        /* \"#utility.yul\":20606:20631   */\n      mstore\n        /* \"#utility.yul\":20667:20673   */\n      dup3\n        /* \"#utility.yul\":20662:20664   */\n      0x20\n        /* \"#utility.yul\":20651:20660   */\n      dup3\n        /* \"#utility.yul\":20647:20665   */\n      add\n        /* \"#utility.yul\":20640:20674   */\n      mstore\n        /* \"#utility.yul\":20710:20712   */\n      0x60\n        /* \"#utility.yul\":20705:20707   */\n      0x40\n        /* \"#utility.yul\":20694:20703   */\n      dup3\n        /* \"#utility.yul\":20690:20708   */\n      add\n        /* \"#utility.yul\":20683:20713   */\n      mstore\n        /* \"#utility.yul\":20587:20591   */\n      0x00\n        /* \"#utility.yul\":20730:20775   */\n      tag_666\n        /* \"#utility.yul\":20771:20773   */\n      0x60\n        /* \"#utility.yul\":20760:20769   */\n      dup4\n        /* \"#utility.yul\":20756:20774   */\n      add\n        /* \"#utility.yul\":20748:20754   */\n      dup5\n        /* \"#utility.yul\":20730:20775   */\n      tag_532\n      jump\t// in\n    tag_666:\n        /* \"#utility.yul\":20722:20775   */\n      swap6\n        /* \"#utility.yul\":20419:20781   */\n      swap5\n      pop\n      pop\n      pop\n      pop\n      pop\n      jump\t// out\n    stop\n    data_61b3bcc7b45117fbb866fef94e5cfc4e058c47c1965b26163e0e42e3aee1c2c8 a03837a25210ee280c2113ff4b77ca23440b19d4866cca721c801278fd08d809\n    data_97f3fe46cd4557bc11eb175f266ac5627865b55de9057d4dc0d60920f7af3bd4 a03837a25210ee280c2113ff4b77ca23440b19d4866cca721c801278fd08d807\n    data_d1aa1c789c4c75eae5095fc3d7f5337de53facf64a6f7f96ce3488aa4719b62d a03837a25210ee280c2113ff4b77ca23440b19d4866cca721c801278fd08d80a\n    data_d65ec5e5a0302fc6632c8a837a7f7ec394709b2e0822eab8206d960e5226505d a03837a25210ee280c2113ff4b77ca23440b19d4866cca721c801278fd08d80b\n    data_f46ae2667168dfc59776f785b546a4ccb1eaded3ebf62491f20ad2fecc678f09 a03837a25210ee280c2113ff4b77ca23440b19d4866cca721c801278fd08d808\n\n    auxdata: 0xa264697066735822122094b065f5a4472de4195758125fd840917bcc6c26b364ba8a88ed6c893a6857e064736f6c634300081e0033\n}\n",
				"bytecode": {
					"linkReferences": {},
					"object": "6080604052348015600e575f5ffd5b50600180556126ba806100205f395ff3fe608060405260043610610275575f3560e01c80637b5005641161014a578063ca33fa3f116100be578063eff4228a11610078578063eff4228a146107f8578063f2fde38b14610817578063f3b2aa9414610836578063f851a44014610855578063fa13a30414610874578063fc2ea8a514610893575f5ffd5b8063ca33fa3f1461076c578063cc3d272114610785578063d58ea2761461079a578063d8a04dfa146107b9578063dc43f0e6146107ce578063ea1b28e0146107e3575f5ffd5b80638da5cb5b1161010f5780638da5cb5b146105da57806399f584b3146105f6578063a87430ba1461060b578063c216212a146106f3578063c268579314610723578063c54e44eb1461074d575f5ffd5b80637b50056414610560578063817b1cd21461057f57806382f4c6a61461059457806384412cc7146105b35780638456cb59146105c6575f5ffd5b8063485cc955116101ec5780636b56ee02116101a65780636b56ee02146104b95780636eeeaaa5146104ce57806370ae92d2146104e3578063715018a61461050e57806371747dc51461052257806373a5028a14610541575f5ffd5b8063485cc955146103cb578063509222cd146103ea578063570ca73514610430578063578013e01461044f5780635abca48d1461047d5780635c975abb1461049c575f5ffd5b806332bc298c1161023d57806332bc298c14610336578063348d44871461034b578063375b3c0a14610360578063383143e5146103755780633f4ba83a1461038a578063452b4729146103a0575f5ffd5b806302121272146102795780630da5a1b7146102ab57806329fc7bd8146102c05780632a2d0c47146102d55780632dd4f9b014610321575b5f5ffd5b348015610284575f5ffd5b50610298610293366004611fbe565b6108a8565b6040519081526020015b60405180910390f35b3480156102b6575f5ffd5b50610298600d5481565b3480156102cb575f5ffd5b5061029860135481565b3480156102e0575f5ffd5b506103096102ef366004611fbe565b601d6020525f90815260409020546001600160a01b031681565b6040516001600160a01b0390911681526020016102a2565b34801561032c575f5ffd5b5061029860145481565b348015610341575f5ffd5b5061029860115481565b348015610356575f5ffd5b5061029860125481565b34801561036b575f5ffd5b50610298600b5481565b348015610380575f5ffd5b50610298600f5481565b348015610395575f5ffd5b5061039e6108c7565b005b3480156103ab575f5ffd5b506102986103ba366004611fbe565b601a6020525f908152604090205481565b3480156103d6575f5ffd5b5061039e6103e5366004611fe9565b61090d565b3480156103f5575f5ffd5b50610420610404366004612020565b6001600160a01b03165f908152601c6020526040902054151590565b60405190151581526020016102a2565b34801561043b575f5ffd5b50600354610309906001600160a01b031681565b34801561045a575f5ffd5b50610420610469366004612020565b601b6020525f908152604090205460ff1681565b348015610488575f5ffd5b50610298610497366004612042565b61109c565b3480156104a7575f5ffd5b505f54600160a01b900460ff16610420565b3480156104c4575f5ffd5b5061029860165481565b3480156104d9575f5ffd5b50610298600a5481565b3480156104ee575f5ffd5b506102986104fd366004612020565b601e6020525f908152604090205481565b348015610519575f5ffd5b5061039e611117565b34801561052d575f5ffd5b50600554610309906001600160a01b031681565b34801561054c575f5ffd5b5061039e61055b366004612020565b611128565b34801561056b575f5ffd5b5061039e61057a366004612084565b611152565b34801561058a575f5ffd5b5061029860155481565b34801561059f575f5ffd5b506102986105ae366004611fbe565b611235565b61039e6105c1366004612179565b611244565b3480156105d1575f5ffd5b5061039e6113de565b3480156105e5575f5ffd5b505f546001600160a01b0316610309565b348015610601575f5ffd5b5061029860085481565b348015610616575f5ffd5b50610690610625366004612020565b601c6020525f9081526040902080546001820154600283015460038401546004850154600586015460068701546007880154600889015460098a0154600a8b0154600b909b0154999a6001600160a01b03909916999798969795969495939492939192909160ff168c565b604080519c8d526001600160a01b03909b1660208d0152998b019890985260608a0196909652608089019490945260a088019290925260c087015260e08601526101008501526101208401526101408301521515610160820152610180016102a2565b3480156106fe575f5ffd5b5061071261070d366004611fbe565b611419565b6040516102a2959493929190612285565b34801561072e575f5ffd5b5061029861073d366004611fbe565b602080525f908152604090205481565b348015610758575f5ffd5b50600454610309906001600160a01b031681565b348015610777575f5ffd5b506010546104209060ff1681565b348015610790575f5ffd5b5061029860095481565b3480156107a5575f5ffd5b5061039e6107b43660046122ba565b6114e0565b3480156107c4575f5ffd5b5061029860065481565b3480156107d9575f5ffd5b5061029860075481565b3480156107ee575f5ffd5b50610298600c5481565b348015610803575f5ffd5b50610309610812366004611fbe565b61185d565b348015610822575f5ffd5b5061039e610831366004612020565b611885565b348015610841575f5ffd5b5061039e610850366004611fbe565b6118fe565b348015610860575f5ffd5b50600254610309906001600160a01b031681565b34801561087f575f5ffd5b5061039e61088e3660046122f0565b61198c565b34801561089e575f5ffd5b50610298600e5481565b601881815481106108b7575f80fd5b5f91825260209091200154905081565b6003546001600160a01b0316336001600160a01b0316146109035760405162461bcd60e51b81526004016108fa90612339565b60405180910390fd5b61090b611ad6565b565b5f54600160b01b900460ff168061092d57505f54600160a81b900460ff16155b6109905760405162461bcd60e51b815260206004820152602e60248201527f496e697469616c697a61626c653a20636f6e747261637420697320616c72656160448201526d191e481a5b9a5d1a585b1a5e995960921b60648201526084016108fa565b5f54600160b01b900460ff161580156109b8575f805461ffff60a81b191661010160a81b1790555b600480546001600160a01b0319166001600160a01b0385161790556109dc826118f2565b6040805160a08101825260018082526802b5e3af16b188000060208084019182526021848601908152605a606086019081528651808801909752600f87526e50726563696f7573204d6574616c7360881b9287019290925260808501958652601f805494850181555f52845160059094025f5160206126055f395f51905f52810194855592515f5160206126655f395f51905f52840155515f5160206125e55f395f51905f52830155515f5160206126255f395f51905f528201559251919290915f5160206126455f395f51905f5290910190610ab990826123f6565b50506040805160a08101825260028152681b1ae4d6e2ef5000006020808301918252603283850190815260b4606085019081528551808701909652600b86526a5265616c2045737461746560a81b9286019290925260808401948552601f80546001810182555f91909152845160059091025f5160206126055f395f51905f52810191825593515f5160206126655f395f51905f5285015590515f5160206125e55f395f51905f5284015590515f5160206126255f395f51905f5283015592519193505f5160206126455f395f51905f520190610b9690826123f6565b50506040805160a0810182526003815268878678326eac90000060208083019182526043838501908152610168606085019081528551808701909652600986526855532053746f636b7360b81b9286019290925260808401948552601f80546001810182555f91909152845160059091025f5160206126055f395f51905f52810191825593515f5160206126655f395f51905f5285015590515f5160206125e55f395f51905f5284015590515f5160206126255f395f51905f5283015592519193505f5160206126455f395f51905f520190610c7290826123f6565b50506040805160a0810182526004815269010f0cf064dd59200000602080830191825260508385019081526102d0606085019081528551808701909652600c86526b119bdc995e0813585c9ad95d60a21b9286019290925260808401948552601f80546001810182555f91909152845160059091025f5160206126055f395f51905f52810191825593515f5160206126655f395f51905f5285015590515f5160206125e55f395f51905f5284015590515f5160206126255f395f51905f5283015592519193505f5160206126455f395f51905f520190610d5290826123f6565b50506040805160a081018252600580825269021e19e0c9bab240000060208084019182526064848601908152610438606086019081528651808801909752600e87526d4469676974616c2041737365747360901b9287019290925260808501958652601f80546001810182555f91909152855194025f5160206126055f395f51905f52810194855592515f5160206126655f395f51905f52840155515f5160206125e55f395f51905f52830155515f5160206126255f395f51905f528201559251919350915f5160206126455f395f51905f520190610e3190826123f6565b505f9150505b601f54811015610ea257601f8181548110610e5457610e546124b1565b905f5260205f2090600502016001015460205f601f8481548110610e7a57610e7a6124b1565b5f91825260208083206005909202909101548352820192909252604001902055600101610e37565b50680340aad21b3b700000600b5569021e19e0c9bab2400000600c556801a055690d9db80000600a9081556002600855601455620151806011556103e8601355610bb87ff88cd8d612926ebb404e40725c01084b6e9b3ce0344cde068570342cbd448c61556105dc7f4c287b3e2c2cb129ae3ba596d613d760b15affdac7242e12903c37a886ea1c4f556102ee7f4ac83fca211703e3ddb90093cd219714e5e3715bf0b4fd15b0441390534a24e2556101f47f06b28f262ad931a15c9e47271fc159a891b2bcb0da2659cac5bbfed4886cf26e556101907f82f07edc09f3a46c1925d02252613a7fcc7be7d03b538b0c268df85f2f13a7ab556010805460ff19169055600160128181556001600160a01b0384165f818152601c602090815260408220859055848252601d90527f9de6abd965d55c3bb0cdbf6fa175050624c6ff8fe86f682dc08f2a450ede227880546001600160a01b03191690921790915561100b836124d9565b91905055505f6001600160a01b0316826001600160a01b03167f5df5c588e24e80ddfa2166a642d3fe27393f08228d5b903311972824fbd0d60760015f60405161107c92919091825260208201526060604082018190526005908201526427bbb732b960d91b608082015260a00190565b60405180910390a38015611097575f805460ff60b01b191690555b505050565b6001600160a01b0383165f908152601e60209081526040918290205482516bffffffffffffffffffffffff19606097881b8116828501526034820196909652605481019190915260748101939093524660948401523090941b90921660b4820152815180820360a801815260c8909101909152805191012090565b61111f611b2a565b61090b5f611b83565b611130611b2a565b600580546001600160a01b0319166001600160a01b0392909216919091179055565b5f546001600160a01b031633146111975760405162461bcd60e51b815260206004820152600960248201526837b7363ca7bbb732b960b91b60448201526064016108fa565b806001600160a01b031663a9059cbb6111b75f546001600160a01b031690565b6111c985670de0b6b3a76400006124f1565b6040516001600160e01b031960e085901b1681526001600160a01b03909216600483015260248201526044016020604051808303815f875af1158015611211573d5f5f3e3d5ffd5b505050506040513d601f19601f82011682018060405250810190611097919061250e565b601781815481106108b7575f80fd5b815f5b85518110156113d657848181518110611262576112626124b1565b6020026020010151821015611275575f5ffd5b848181518110611287576112876124b1565b60200260200101518261129a919061252d565b9150826001600160a01b03166323b872dd338884815181106112be576112be6124b1565b60200260200101518885815181106112d8576112d86124b1565b60209081029190910101516040516001600160e01b031960e086901b1681526001600160a01b03938416600482015292909116602483015260448201526064016020604051808303815f875af1158015611334573d5f5f3e3d5ffd5b505050506040513d601f19601f82011682018060405250810190611358919061250e565b5085818151811061136b5761136b6124b1565b60200260200101516001600160a01b03167fbd54bf7a35b4f30a5c2e53df02c464dc7c2a159a96b24dbb41cd9808bd6e2e368683815181106113af576113af6124b1565b60200260200101516040516113c691815260200190565b60405180910390a2600101611247565b505050505050565b6003546001600160a01b0316336001600160a01b0316146114115760405162461bcd60e51b81526004016108fa90612339565b61090b611bd2565b601f8181548110611428575f80fd5b905f5260205f2090600502015f91509050805f01549080600101549080600201549080600301549080600401805461145f9061237a565b80601f016020809104026020016040519081016040528092919081815260200182805461148b9061237a565b80156114d65780601f106114ad576101008083540402835291602001916114d6565b820191905f5260205f20905b8154815290600101906020018083116114b957829003601f168201915b5050505050905085565b6114e933610404565b61151557611515338260405180604001604052806005815260200164737444534360d81b815250611c14565b61151e33610404565b61156a5760405162461bcd60e51b815260206004820152601860248201527f4473636c61623a2055736572206e6f742045786973747321000000000000000060448201526064016108fa565b600b548310156115bc5760405162461bcd60e51b815260206004820152601960248201527f4d696e696d756d2041637469766174696f6e206973202436300000000000000060448201526064016108fa565b600c5483111561160e5760405162461bcd60e51b815260206004820152601c60248201527f4d6178696d756d2041637469766174696f6e206973202431303030300000000060448201526064016108fa565b816001146116725760405162461bcd60e51b815260206004820152602b60248201527f496e2046697820706c616e206f6e6c79205553445420696e766573746d656e7460448201526a081a5cc8185b1b1bddd95960aa1b60648201526084016108fa565b335f908152601c6020526040902060060154801561170057808410156117005760405162461bcd60e51b815260206004820152603760248201527f526520496e766573746d656e742053686f756c6420457175616c2f477265617460448201527f6572207468616e206c61737420496e766573746d656e7400000000000000000060648201526084016108fa565b6627ca57357c00005f8161171c87670de0b6b3a76400006124f1565b6117269190612540565b335f908152601c6020526040812060018101546003909101549293506001600160a01b031691908115611778576040518060400160405280600781526020016605265746f7075760cc1b815250611795565b604051806040016040528060038152602001624e657760e81b8152505b9050336001600160a01b03167fabd608a4ba071391876d4741f99ba49362bd2fc5afcf4f1fc9ecf91d6a73ccf88a86848c6040516117d6949392919061255f565b60405180910390a2335f908152601c60205260408120600681018b905560030180548b92906118069084906125aa565b9091555050335f908152601c602052604081206003015490819003611851576001600160a01b0384165f908152601c6020526040812060020180549161184b836124d9565b91905055505b50505050505050505050565b6019818154811061186c575f80fd5b5f918252602090912001546001600160a01b0316905081565b61188d611b2a565b6001600160a01b0381166118f25760405162461bcd60e51b815260206004820152602660248201527f4f776e61626c653a206e6577206f776e657220697320746865207a65726f206160448201526564647265737360d01b60648201526084016108fa565b6118fb81611b83565b50565b5f546001600160a01b031633146119435760405162461bcd60e51b815260206004820152600960248201526837b7363ca7bbb732b960b91b60448201526064016108fa565b5f546001600160a01b03166108fc61196383670de0b6b3a76400006124f1565b6040518115909202915f818181858888f19350505050158015611988573d5f5f3e3d5ffd5b5050565b611994611dc0565b61199d33610404565b6119db5760405162461bcd60e51b815260206004820152600f60248201526e75736572206e6f742065786973747360881b60448201526064016108fa565b6119f26119e933878461109c565b85858585611e19565b611a325760405162461bcd60e51b8152602060048201526011602482015270696e76616c6964207369676e617475726560781b60448201526064016108fa565b6040518590339082156108fc029083905f818181858888f19350505050158015611a5e573d5f5f3e3d5ffd5b50335f818152601e60209081526040918290205482518a8152918201527ff279e6a1f5e320cca91135676d9cb6e44ca8a08c0b88342bcdb1144f6511b568910160405180910390a2335f908152601e60205260408120805491611ac0836124d9565b919050555050611acf60018055565b5050505050565b611ade611f23565b5f805460ff60a01b191690557f5db9ee0a495bf2e6ff9c91a7834c1ba4fdd244a5e8aa4e537bd38aeae4b073aa335b6040516001600160a01b03909116815260200160405180910390a1565b5f546001600160a01b0316331461090b5760405162461bcd60e51b815260206004820181905260248201527f4f776e61626c653a2063616c6c6572206973206e6f7420746865206f776e657260448201526064016108fa565b5f80546001600160a01b038381166001600160a01b0319831681178455604051919092169283917f8be0079c531659141344cd1fd0a4f28419497f9722a3daafe3b4186f6b6457e09190a35050565b611bda611f72565b5f805460ff60a01b1916600160a01b1790557f62e78cea01bee320cd4e420270b5ea74000d11b0c9f74754ebdbfc544b05a258611b0d3390565b6001600160a01b0383165f908152601c602052604090205415611c685760405162461bcd60e51b815260206004820152600c60248201526b55736572204578697374732160a01b60448201526064016108fa565b6001600160a01b0382165f908152601c6020526040902054611cc35760405162461bcd60e51b81526020600482015260146024820152735265666572726572206e6f74204578697374732160601b60448201526064016108fa565b601280546001600160a01b038581165f818152601c60208181526040808420878155968452601d8252832080546001600160a01b0319908116861790915593835252600184018054909216928716929092179055600990910181905581549190611d2c836124d9565b90915550506001600160a01b0382165f908152601c60205260408120600901805491611d57836124d9565b90915550506001600160a01b038381165f818152601c6020526040808220549386168083529181902054905191937f5df5c588e24e80ddfa2166a642d3fe27393f08228d5b903311972824fbd0d60792611db3929087906125bd565b60405180910390a3505050565b600260015403611e125760405162461bcd60e51b815260206004820152601f60248201527f5265656e7472616e637947756172643a207265656e7472616e742063616c6c0060448201526064016108fa565b6002600155565b5f81421115611e5e5760405162461bcd60e51b815260206004820152601160248201527014da59db985d1d5c9948195e1c1a5c9959607a1b60448201526064016108fa565b6040517f19457468657265756d205369676e6564204d6573736167653a0a3332000000006020820152603c81018790525f90605c0160408051601f1981840301815282825280516020918201205f80855291840180845281905260ff8a169284019290925260608301889052608083018790529092509060019060a0016020604051602081039080840390855afa158015611efb573d5f5f3e3d5ffd5b5050604051601f1901516005546001600160a01b039081169116149998505050505050505050565b5f54600160a01b900460ff1661090b5760405162461bcd60e51b815260206004820152601460248201527314185d5cd8589b194e881b9bdd081c185d5cd95960621b60448201526064016108fa565b5f54600160a01b900460ff161561090b5760405162461bcd60e51b815260206004820152601060248201526f14185d5cd8589b194e881c185d5cd95960821b60448201526064016108fa565b5f60208284031215611fce575f5ffd5b5035919050565b6001600160a01b03811681146118fb575f5ffd5b5f5f60408385031215611ffa575f5ffd5b823561200581611fd5565b9150602083013561201581611fd5565b809150509250929050565b5f60208284031215612030575f5ffd5b813561203b81611fd5565b9392505050565b5f5f5f60608486031215612054575f5ffd5b833561205f81611fd5565b95602085013595506040909401359392505050565b803561207f81611fd5565b919050565b5f5f60408385031215612095575f5ffd5b82359150602083013561201581611fd5565b634e487b7160e01b5f52604160045260245ffd5b604051601f8201601f1916810167ffffffffffffffff811182821017156120e4576120e46120a7565b604052919050565b5f67ffffffffffffffff821115612105576121056120a7565b5060051b60200190565b5f82601f83011261211e575f5ffd5b813561213161212c826120ec565b6120bb565b8082825260208201915060208360051b860101925085831115612152575f5ffd5b602085015b8381101561216f578035835260209283019201612157565b5095945050505050565b5f5f5f5f6080858703121561218c575f5ffd5b843567ffffffffffffffff8111156121a2575f5ffd5b8501601f810187136121b2575f5ffd5b80356121c061212c826120ec565b8082825260208201915060208360051b8501019250898311156121e1575f5ffd5b6020840193505b8284101561220c5783356121fb81611fd5565b8252602093840193909101906121e8565b9650505050602085013567ffffffffffffffff81111561222a575f5ffd5b6122368782880161210f565b9350506040850135915061224c60608601612074565b905092959194509250565b5f81518084528060208401602086015e5f602082860101526020601f19601f83011685010191505092915050565b85815284602082015283604082015282606082015260a060808201525f6122af60a0830184612257565b979650505050505050565b5f5f5f606084860312156122cc575f5ffd5b833592506020840135915060408401356122e581611fd5565b809150509250925092565b5f5f5f5f5f60a08688031215612304575f5ffd5b85359450602086013560ff8116811461231b575f5ffd5b94979496505050506040830135926060810135926080909101359150565b60208082526021908201527f466f7262696464656e21204f6e6c79204f70657261746f722043616e2043616c6040820152601b60fa1b606082015260800190565b600181811c9082168061238e57607f821691505b6020821081036123ac57634e487b7160e01b5f52602260045260245ffd5b50919050565b601f82111561109757805f5260205f20601f840160051c810160208510156123d75750805b601f840160051c820191505b81811015611acf575f81556001016123e3565b815167ffffffffffffffff811115612410576124106120a7565b6124248161241e845461237a565b846123b2565b6020601f821160018114612456575f831561243f5750848201515b5f19600385901b1c1916600184901b178455611acf565b5f84815260208120601f198516915b828110156124855787850151825560209485019460019092019101612465565b50848210156124a257868401515f19600387901b60f8161c191681555b50505050600190811b01905550565b634e487b7160e01b5f52603260045260245ffd5b634e487b7160e01b5f52601160045260245ffd5b5f600182016124ea576124ea6124c5565b5060010190565b8082028115828204841417612508576125086124c5565b92915050565b5f6020828403121561251e575f5ffd5b8151801515811461203b575f5ffd5b81810381811115612508576125086124c5565b5f8261255a57634e487b7160e01b5f52601260045260245ffd5b500490565b84815283602082015260a06040820152600560a082015264737444534360d81b60c082015260e060608201525f61259960e0830185612257565b905082608083015295945050505050565b80820180821115612508576125086124c5565b838152826020820152606060408201525f6125db6060830184612257565b9594505050505056fea03837a25210ee280c2113ff4b77ca23440b19d4866cca721c801278fd08d809a03837a25210ee280c2113ff4b77ca23440b19d4866cca721c801278fd08d807a03837a25210ee280c2113ff4b77ca23440b19d4866cca721c801278fd08d80aa03837a25210ee280c2113ff4b77ca23440b19d4866cca721c801278fd08d80ba03837a25210ee280c2113ff4b77ca23440b19d4866cca721c801278fd08d808a264697066735822122094b065f5a4472de4195758125fd840917bcc6c26b364ba8a88ed6c893a6857e064736f6c634300081e0033",
					"opcodes": "PUSH1 0x80 PUSH1 0x40 MSTORE CALLVALUE DUP1 ISZERO PUSH1 0xE JUMPI PUSH0 PUSH0 REVERT JUMPDEST POP PUSH1 0x1 DUP1 SSTORE PUSH2 0x26BA DUP1 PUSH2 0x20 PUSH0 CODECOPY PUSH0 RETURN INVALID PUSH1 0x80 PUSH1 0x40 MSTORE PUSH1 0x4 CALLDATASIZE LT PUSH2 0x275 JUMPI PUSH0 CALLDATALOAD PUSH1 0xE0 SHR DUP1 PUSH4 0x7B500564 GT PUSH2 0x14A JUMPI DUP1 PUSH4 0xCA33FA3F GT PUSH2 0xBE JUMPI DUP1 PUSH4 0xEFF4228A GT PUSH2 0x78 JUMPI DUP1 PUSH4 0xEFF4228A EQ PUSH2 0x7F8 JUMPI DUP1 PUSH4 0xF2FDE38B EQ PUSH2 0x817 JUMPI DUP1 PUSH4 0xF3B2AA94 EQ PUSH2 0x836 JUMPI DUP1 PUSH4 0xF851A440 EQ PUSH2 0x855 JUMPI DUP1 PUSH4 0xFA13A304 EQ PUSH2 0x874 JUMPI DUP1 PUSH4 0xFC2EA8A5 EQ PUSH2 0x893 JUMPI PUSH0 PUSH0 REVERT JUMPDEST DUP1 PUSH4 0xCA33FA3F EQ PUSH2 0x76C JUMPI DUP1 PUSH4 0xCC3D2721 EQ PUSH2 0x785 JUMPI DUP1 PUSH4 0xD58EA276 EQ PUSH2 0x79A JUMPI DUP1 PUSH4 0xD8A04DFA EQ PUSH2 0x7B9 JUMPI DUP1 PUSH4 0xDC43F0E6 EQ PUSH2 0x7CE JUMPI DUP1 PUSH4 0xEA1B28E0 EQ PUSH2 0x7E3 JUMPI PUSH0 PUSH0 REVERT JUMPDEST DUP1 PUSH4 0x8DA5CB5B GT PUSH2 0x10F JUMPI DUP1 PUSH4 0x8DA5CB5B EQ PUSH2 0x5DA JUMPI DUP1 PUSH4 0x99F584B3 EQ PUSH2 0x5F6 JUMPI DUP1 PUSH4 0xA87430BA EQ PUSH2 0x60B JUMPI DUP1 PUSH4 0xC216212A EQ PUSH2 0x6F3 JUMPI DUP1 PUSH4 0xC2685793 EQ PUSH2 0x723 JUMPI DUP1 PUSH4 0xC54E44EB EQ PUSH2 0x74D JUMPI PUSH0 PUSH0 REVERT JUMPDEST DUP1 PUSH4 0x7B500564 EQ PUSH2 0x560 JUMPI DUP1 PUSH4 0x817B1CD2 EQ PUSH2 0x57F JUMPI DUP1 PUSH4 0x82F4C6A6 EQ PUSH2 0x594 JUMPI DUP1 PUSH4 0x84412CC7 EQ PUSH2 0x5B3 JUMPI DUP1 PUSH4 0x8456CB59 EQ PUSH2 0x5C6 JUMPI PUSH0 PUSH0 REVERT JUMPDEST DUP1 PUSH4 0x485CC955 GT PUSH2 0x1EC JUMPI DUP1 PUSH4 0x6B56EE02 GT PUSH2 0x1A6 JUMPI DUP1 PUSH4 0x6B56EE02 EQ PUSH2 0x4B9 JUMPI DUP1 PUSH4 0x6EEEAAA5 EQ PUSH2 0x4CE JUMPI DUP1 PUSH4 0x70AE92D2 EQ PUSH2 0x4E3 JUMPI DUP1 PUSH4 0x715018A6 EQ PUSH2 0x50E JUMPI DUP1 PUSH4 0x71747DC5 EQ PUSH2 0x522 JUMPI DUP1 PUSH4 0x73A5028A EQ PUSH2 0x541 JUMPI PUSH0 PUSH0 REVERT JUMPDEST DUP1 PUSH4 0x485CC955 EQ PUSH2 0x3CB JUMPI DUP1 PUSH4 0x509222CD EQ PUSH2 0x3EA JUMPI DUP1 PUSH4 0x570CA735 EQ PUSH2 0x430 JUMPI DUP1 PUSH4 0x578013E0 EQ PUSH2 0x44F JUMPI DUP1 PUSH4 0x5ABCA48D EQ PUSH2 0x47D JUMPI DUP1 PUSH4 0x5C975ABB EQ PUSH2 0x49C JUMPI PUSH0 PUSH0 REVERT JUMPDEST DUP1 PUSH4 0x32BC298C GT PUSH2 0x23D JUMPI DUP1 PUSH4 0x32BC298C EQ PUSH2 0x336 JUMPI DUP1 PUSH4 0x348D4487 EQ PUSH2 0x34B JUMPI DUP1 PUSH4 0x375B3C0A EQ PUSH2 0x360 JUMPI DUP1 PUSH4 0x383143E5 EQ PUSH2 0x375 JUMPI DUP1 PUSH4 0x3F4BA83A EQ PUSH2 0x38A JUMPI DUP1 PUSH4 0x452B4729 EQ PUSH2 0x3A0 JUMPI PUSH0 PUSH0 REVERT JUMPDEST DUP1 PUSH4 0x2121272 EQ PUSH2 0x279 JUMPI DUP1 PUSH4 0xDA5A1B7 EQ PUSH2 0x2AB JUMPI DUP1 PUSH4 0x29FC7BD8 EQ PUSH2 0x2C0 JUMPI DUP1 PUSH4 0x2A2D0C47 EQ PUSH2 0x2D5 JUMPI DUP1 PUSH4 0x2DD4F9B0 EQ PUSH2 0x321 JUMPI JUMPDEST PUSH0 PUSH0 REVERT JUMPDEST CALLVALUE DUP1 ISZERO PUSH2 0x284 JUMPI PUSH0 PUSH0 REVERT JUMPDEST POP PUSH2 0x298 PUSH2 0x293 CALLDATASIZE PUSH1 0x4 PUSH2 0x1FBE JUMP JUMPDEST PUSH2 0x8A8 JUMP JUMPDEST PUSH1 0x40 MLOAD SWAP1 DUP2 MSTORE PUSH1 0x20 ADD JUMPDEST PUSH1 0x40 MLOAD DUP1 SWAP2 SUB SWAP1 RETURN JUMPDEST CALLVALUE DUP1 ISZERO PUSH2 0x2B6 JUMPI PUSH0 PUSH0 REVERT JUMPDEST POP PUSH2 0x298 PUSH1 0xD SLOAD DUP2 JUMP JUMPDEST CALLVALUE DUP1 ISZERO PUSH2 0x2CB JUMPI PUSH0 PUSH0 REVERT JUMPDEST POP PUSH2 0x298 PUSH1 0x13 SLOAD DUP2 JUMP JUMPDEST CALLVALUE DUP1 ISZERO PUSH2 0x2E0 JUMPI PUSH0 PUSH0 REVERT JUMPDEST POP PUSH2 0x309 PUSH2 0x2EF CALLDATASIZE PUSH1 0x4 PUSH2 0x1FBE JUMP JUMPDEST PUSH1 0x1D PUSH1 0x20 MSTORE PUSH0 SWAP1 DUP2 MSTORE PUSH1 0x40 SWAP1 KECCAK256 SLOAD PUSH1 0x1 PUSH1 0x1 PUSH1 0xA0 SHL SUB AND DUP2 JUMP JUMPDEST PUSH1 0x40 MLOAD PUSH1 0x1 PUSH1 0x1 PUSH1 0xA0 SHL SUB SWAP1 SWAP2 AND DUP2 MSTORE PUSH1 0x20 ADD PUSH2 0x2A2 JUMP JUMPDEST CALLVALUE DUP1 ISZERO PUSH2 0x32C JUMPI PUSH0 PUSH0 REVERT JUMPDEST POP PUSH2 0x298 PUSH1 0x14 SLOAD DUP2 JUMP JUMPDEST CALLVALUE DUP1 ISZERO PUSH2 0x341 JUMPI PUSH0 PUSH0 REVERT JUMPDEST POP PUSH2 0x298 PUSH1 0x11 SLOAD DUP2 JUMP JUMPDEST CALLVALUE DUP1 ISZERO PUSH2 0x356 JUMPI PUSH0 PUSH0 REVERT JUMPDEST POP PUSH2 0x298 PUSH1 0x12 SLOAD DUP2 JUMP JUMPDEST CALLVALUE DUP1 ISZERO PUSH2 0x36B JUMPI PUSH0 PUSH0 REVERT JUMPDEST POP PUSH2 0x298 PUSH1 0xB SLOAD DUP2 JUMP JUMPDEST CALLVALUE DUP1 ISZERO PUSH2 0x380 JUMPI PUSH0 PUSH0 REVERT JUMPDEST POP PUSH2 0x298 PUSH1 0xF SLOAD DUP2 JUMP JUMPDEST CALLVALUE DUP1 ISZERO PUSH2 0x395 JUMPI PUSH0 PUSH0 REVERT JUMPDEST POP PUSH2 0x39E PUSH2 0x8C7 JUMP JUMPDEST STOP JUMPDEST CALLVALUE DUP1 ISZERO PUSH2 0x3AB JUMPI PUSH0 PUSH0 REVERT JUMPDEST POP PUSH2 0x298 PUSH2 0x3BA CALLDATASIZE PUSH1 0x4 PUSH2 0x1FBE JUMP JUMPDEST PUSH1 0x1A PUSH1 0x20 MSTORE PUSH0 SWAP1 DUP2 MSTORE PUSH1 0x40 SWAP1 KECCAK256 SLOAD DUP2 JUMP JUMPDEST CALLVALUE DUP1 ISZERO PUSH2 0x3D6 JUMPI PUSH0 PUSH0 REVERT JUMPDEST POP PUSH2 0x39E PUSH2 0x3E5 CALLDATASIZE PUSH1 0x4 PUSH2 0x1FE9 JUMP JUMPDEST PUSH2 0x90D JUMP JUMPDEST CALLVALUE DUP1 ISZERO PUSH2 0x3F5 JUMPI PUSH0 PUSH0 REVERT JUMPDEST POP PUSH2 0x420 PUSH2 0x404 CALLDATASIZE PUSH1 0x4 PUSH2 0x2020 JUMP JUMPDEST PUSH1 0x1 PUSH1 0x1 PUSH1 0xA0 SHL SUB AND PUSH0 SWAP1 DUP2 MSTORE PUSH1 0x1C PUSH1 0x20 MSTORE PUSH1 0x40 SWAP1 KECCAK256 SLOAD ISZERO ISZERO SWAP1 JUMP JUMPDEST PUSH1 0x40 MLOAD SWAP1 ISZERO ISZERO DUP2 MSTORE PUSH1 0x20 ADD PUSH2 0x2A2 JUMP JUMPDEST CALLVALUE DUP1 ISZERO PUSH2 0x43B JUMPI PUSH0 PUSH0 REVERT JUMPDEST POP PUSH1 0x3 SLOAD PUSH2 0x309 SWAP1 PUSH1 0x1 PUSH1 0x1 PUSH1 0xA0 SHL SUB AND DUP2 JUMP JUMPDEST CALLVALUE DUP1 ISZERO PUSH2 0x45A JUMPI PUSH0 PUSH0 REVERT JUMPDEST POP PUSH2 0x420 PUSH2 0x469 CALLDATASIZE PUSH1 0x4 PUSH2 0x2020 JUMP JUMPDEST PUSH1 0x1B PUSH1 0x20 MSTORE PUSH0 SWAP1 DUP2 MSTORE PUSH1 0x40 SWAP1 KECCAK256 SLOAD PUSH1 0xFF AND DUP2 JUMP JUMPDEST CALLVALUE DUP1 ISZERO PUSH2 0x488 JUMPI PUSH0 PUSH0 REVERT JUMPDEST POP PUSH2 0x298 PUSH2 0x497 CALLDATASIZE PUSH1 0x4 PUSH2 0x2042 JUMP JUMPDEST PUSH2 0x109C JUMP JUMPDEST CALLVALUE DUP1 ISZERO PUSH2 0x4A7 JUMPI PUSH0 PUSH0 REVERT JUMPDEST POP PUSH0 SLOAD PUSH1 0x1 PUSH1 0xA0 SHL SWAP1 DIV PUSH1 0xFF AND PUSH2 0x420 JUMP JUMPDEST CALLVALUE DUP1 ISZERO PUSH2 0x4C4 JUMPI PUSH0 PUSH0 REVERT JUMPDEST POP PUSH2 0x298 PUSH1 0x16 SLOAD DUP2 JUMP JUMPDEST CALLVALUE DUP1 ISZERO PUSH2 0x4D9 JUMPI PUSH0 PUSH0 REVERT JUMPDEST POP PUSH2 0x298 PUSH1 0xA SLOAD DUP2 JUMP JUMPDEST CALLVALUE DUP1 ISZERO PUSH2 0x4EE JUMPI PUSH0 PUSH0 REVERT JUMPDEST POP PUSH2 0x298 PUSH2 0x4FD CALLDATASIZE PUSH1 0x4 PUSH2 0x2020 JUMP JUMPDEST PUSH1 0x1E PUSH1 0x20 MSTORE PUSH0 SWAP1 DUP2 MSTORE PUSH1 0x40 SWAP1 KECCAK256 SLOAD DUP2 JUMP JUMPDEST CALLVALUE DUP1 ISZERO PUSH2 0x519 JUMPI PUSH0 PUSH0 REVERT JUMPDEST POP PUSH2 0x39E PUSH2 0x1117 JUMP JUMPDEST CALLVALUE DUP1 ISZERO PUSH2 0x52D JUMPI PUSH0 PUSH0 REVERT JUMPDEST POP PUSH1 0x5 SLOAD PUSH2 0x309 SWAP1 PUSH1 0x1 PUSH1 0x1 PUSH1 0xA0 SHL SUB AND DUP2 JUMP JUMPDEST CALLVALUE DUP1 ISZERO PUSH2 0x54C JUMPI PUSH0 PUSH0 REVERT JUMPDEST POP PUSH2 0x39E PUSH2 0x55B CALLDATASIZE PUSH1 0x4 PUSH2 0x2020 JUMP JUMPDEST PUSH2 0x1128 JUMP JUMPDEST CALLVALUE DUP1 ISZERO PUSH2 0x56B JUMPI PUSH0 PUSH0 REVERT JUMPDEST POP PUSH2 0x39E PUSH2 0x57A CALLDATASIZE PUSH1 0x4 PUSH2 0x2084 JUMP JUMPDEST PUSH2 0x1152 JUMP JUMPDEST CALLVALUE DUP1 ISZERO PUSH2 0x58A JUMPI PUSH0 PUSH0 REVERT JUMPDEST POP PUSH2 0x298 PUSH1 0x15 SLOAD DUP2 JUMP JUMPDEST CALLVALUE DUP1 ISZERO PUSH2 0x59F JUMPI PUSH0 PUSH0 REVERT JUMPDEST POP PUSH2 0x298 PUSH2 0x5AE CALLDATASIZE PUSH1 0x4 PUSH2 0x1FBE JUMP JUMPDEST PUSH2 0x1235 JUMP JUMPDEST PUSH2 0x39E PUSH2 0x5C1 CALLDATASIZE PUSH1 0x4 PUSH2 0x2179 JUMP JUMPDEST PUSH2 0x1244 JUMP JUMPDEST CALLVALUE DUP1 ISZERO PUSH2 0x5D1 JUMPI PUSH0 PUSH0 REVERT JUMPDEST POP PUSH2 0x39E PUSH2 0x13DE JUMP JUMPDEST CALLVALUE DUP1 ISZERO PUSH2 0x5E5 JUMPI PUSH0 PUSH0 REVERT JUMPDEST POP PUSH0 SLOAD PUSH1 0x1 PUSH1 0x1 PUSH1 0xA0 SHL SUB AND PUSH2 0x309 JUMP JUMPDEST CALLVALUE DUP1 ISZERO PUSH2 0x601 JUMPI PUSH0 PUSH0 REVERT JUMPDEST POP PUSH2 0x298 PUSH1 0x8 SLOAD DUP2 JUMP JUMPDEST CALLVALUE DUP1 ISZERO PUSH2 0x616 JUMPI PUSH0 PUSH0 REVERT JUMPDEST POP PUSH2 0x690 PUSH2 0x625 CALLDATASIZE PUSH1 0x4 PUSH2 0x2020 JUMP JUMPDEST PUSH1 0x1C PUSH1 0x20 MSTORE PUSH0 SWAP1 DUP2 MSTORE PUSH1 0x40 SWAP1 KECCAK256 DUP1 SLOAD PUSH1 0x1 DUP3 ADD SLOAD PUSH1 0x2 DUP4 ADD SLOAD PUSH1 0x3 DUP5 ADD SLOAD PUSH1 0x4 DUP6 ADD SLOAD PUSH1 0x5 DUP7 ADD SLOAD PUSH1 0x6 DUP8 ADD SLOAD PUSH1 0x7 DUP9 ADD SLOAD PUSH1 0x8 DUP10 ADD SLOAD PUSH1 0x9 DUP11 ADD SLOAD PUSH1 0xA DUP12 ADD SLOAD PUSH1 0xB SWAP1 SWAP12 ADD SLOAD SWAP10 SWAP11 PUSH1 0x1 PUSH1 0x1 PUSH1 0xA0 SHL SUB SWAP1 SWAP10 AND SWAP10 SWAP8 SWAP9 SWAP7 SWAP8 SWAP6 SWAP7 SWAP5 SWAP6 SWAP4 SWAP5 SWAP3 SWAP4 SWAP2 SWAP3 SWAP1 SWAP2 PUSH1 0xFF AND DUP13 JUMP JUMPDEST PUSH1 0x40 DUP1 MLOAD SWAP13 DUP14 MSTORE PUSH1 0x1 PUSH1 0x1 PUSH1 0xA0 SHL SUB SWAP1 SWAP12 AND PUSH1 0x20 DUP14 ADD MSTORE SWAP10 DUP12 ADD SWAP9 SWAP1 SWAP9 MSTORE PUSH1 0x60 DUP11 ADD SWAP7 SWAP1 SWAP7 MSTORE PUSH1 0x80 DUP10 ADD SWAP5 SWAP1 SWAP5 MSTORE PUSH1 0xA0 DUP9 ADD SWAP3 SWAP1 SWAP3 MSTORE PUSH1 0xC0 DUP8 ADD MSTORE PUSH1 0xE0 DUP7 ADD MSTORE PUSH2 0x100 DUP6 ADD MSTORE PUSH2 0x120 DUP5 ADD MSTORE PUSH2 0x140 DUP4 ADD MSTORE ISZERO ISZERO PUSH2 0x160 DUP3 ADD MSTORE PUSH2 0x180 ADD PUSH2 0x2A2 JUMP JUMPDEST CALLVALUE DUP1 ISZERO PUSH2 0x6FE JUMPI PUSH0 PUSH0 REVERT JUMPDEST POP PUSH2 0x712 PUSH2 0x70D CALLDATASIZE PUSH1 0x4 PUSH2 0x1FBE JUMP JUMPDEST PUSH2 0x1419 JUMP JUMPDEST PUSH1 0x40 MLOAD PUSH2 0x2A2 SWAP6 SWAP5 SWAP4 SWAP3 SWAP2 SWAP1 PUSH2 0x2285 JUMP JUMPDEST CALLVALUE DUP1 ISZERO PUSH2 0x72E JUMPI PUSH0 PUSH0 REVERT JUMPDEST POP PUSH2 0x298 PUSH2 0x73D CALLDATASIZE PUSH1 0x4 PUSH2 0x1FBE JUMP JUMPDEST PUSH1 0x20 DUP1 MSTORE PUSH0 SWAP1 DUP2 MSTORE PUSH1 0x40 SWAP1 KECCAK256 SLOAD DUP2 JUMP JUMPDEST CALLVALUE DUP1 ISZERO PUSH2 0x758 JUMPI PUSH0 PUSH0 REVERT JUMPDEST POP PUSH1 0x4 SLOAD PUSH2 0x309 SWAP1 PUSH1 0x1 PUSH1 0x1 PUSH1 0xA0 SHL SUB AND DUP2 JUMP JUMPDEST CALLVALUE DUP1 ISZERO PUSH2 0x777 JUMPI PUSH0 PUSH0 REVERT JUMPDEST POP PUSH1 0x10 SLOAD PUSH2 0x420 SWAP1 PUSH1 0xFF AND DUP2 JUMP JUMPDEST CALLVALUE DUP1 ISZERO PUSH2 0x790 JUMPI PUSH0 PUSH0 REVERT JUMPDEST POP PUSH2 0x298 PUSH1 0x9 SLOAD DUP2 JUMP JUMPDEST CALLVALUE DUP1 ISZERO PUSH2 0x7A5 JUMPI PUSH0 PUSH0 REVERT JUMPDEST POP PUSH2 0x39E PUSH2 0x7B4 CALLDATASIZE PUSH1 0x4 PUSH2 0x22BA JUMP JUMPDEST PUSH2 0x14E0 JUMP JUMPDEST CALLVALUE DUP1 ISZERO PUSH2 0x7C4 JUMPI PUSH0 PUSH0 REVERT JUMPDEST POP PUSH2 0x298 PUSH1 0x6 SLOAD DUP2 JUMP JUMPDEST CALLVALUE DUP1 ISZERO PUSH2 0x7D9 JUMPI PUSH0 PUSH0 REVERT JUMPDEST POP PUSH2 0x298 PUSH1 0x7 SLOAD DUP2 JUMP JUMPDEST CALLVALUE DUP1 ISZERO PUSH2 0x7EE JUMPI PUSH0 PUSH0 REVERT JUMPDEST POP PUSH2 0x298 PUSH1 0xC SLOAD DUP2 JUMP JUMPDEST CALLVALUE DUP1 ISZERO PUSH2 0x803 JUMPI PUSH0 PUSH0 REVERT JUMPDEST POP PUSH2 0x309 PUSH2 0x812 CALLDATASIZE PUSH1 0x4 PUSH2 0x1FBE JUMP JUMPDEST PUSH2 0x185D JUMP JUMPDEST CALLVALUE DUP1 ISZERO PUSH2 0x822 JUMPI PUSH0 PUSH0 REVERT JUMPDEST POP PUSH2 0x39E PUSH2 0x831 CALLDATASIZE PUSH1 0x4 PUSH2 0x2020 JUMP JUMPDEST PUSH2 0x1885 JUMP JUMPDEST CALLVALUE DUP1 ISZERO PUSH2 0x841 JUMPI PUSH0 PUSH0 REVERT JUMPDEST POP PUSH2 0x39E PUSH2 0x850 CALLDATASIZE PUSH1 0x4 PUSH2 0x1FBE JUMP JUMPDEST PUSH2 0x18FE JUMP JUMPDEST CALLVALUE DUP1 ISZERO PUSH2 0x860 JUMPI PUSH0 PUSH0 REVERT JUMPDEST POP PUSH1 0x2 SLOAD PUSH2 0x309 SWAP1 PUSH1 0x1 PUSH1 0x1 PUSH1 0xA0 SHL SUB AND DUP2 JUMP JUMPDEST CALLVALUE DUP1 ISZERO PUSH2 0x87F JUMPI PUSH0 PUSH0 REVERT JUMPDEST POP PUSH2 0x39E PUSH2 0x88E CALLDATASIZE PUSH1 0x4 PUSH2 0x22F0 JUMP JUMPDEST PUSH2 0x198C JUMP JUMPDEST CALLVALUE DUP1 ISZERO PUSH2 0x89E JUMPI PUSH0 PUSH0 REVERT JUMPDEST POP PUSH2 0x298 PUSH1 0xE SLOAD DUP2 JUMP JUMPDEST PUSH1 0x18 DUP2 DUP2 SLOAD DUP2 LT PUSH2 0x8B7 JUMPI PUSH0 DUP1 REVERT JUMPDEST PUSH0 SWAP2 DUP3 MSTORE PUSH1 0x20 SWAP1 SWAP2 KECCAK256 ADD SLOAD SWAP1 POP DUP2 JUMP JUMPDEST PUSH1 0x3 SLOAD PUSH1 0x1 PUSH1 0x1 PUSH1 0xA0 SHL SUB AND CALLER PUSH1 0x1 PUSH1 0x1 PUSH1 0xA0 SHL SUB AND EQ PUSH2 0x903 JUMPI PUSH1 0x40 MLOAD PUSH3 0x461BCD PUSH1 0xE5 SHL DUP2 MSTORE PUSH1 0x4 ADD PUSH2 0x8FA SWAP1 PUSH2 0x2339 JUMP JUMPDEST PUSH1 0x40 MLOAD DUP1 SWAP2 SUB SWAP1 REVERT JUMPDEST PUSH2 0x90B PUSH2 0x1AD6 JUMP JUMPDEST JUMP JUMPDEST PUSH0 SLOAD PUSH1 0x1 PUSH1 0xB0 SHL SWAP1 DIV PUSH1 0xFF AND DUP1 PUSH2 0x92D JUMPI POP PUSH0 SLOAD PUSH1 0x1 PUSH1 0xA8 SHL SWAP1 DIV PUSH1 0xFF AND ISZERO JUMPDEST PUSH2 0x990 JUMPI PUSH1 0x40 MLOAD PUSH3 0x461BCD PUSH1 0xE5 SHL DUP2 MSTORE PUSH1 0x20 PUSH1 0x4 DUP3 ADD MSTORE PUSH1 0x2E PUSH1 0x24 DUP3 ADD MSTORE PUSH32 0x496E697469616C697A61626C653A20636F6E747261637420697320616C726561 PUSH1 0x44 DUP3 ADD MSTORE PUSH14 0x191E481A5B9A5D1A585B1A5E9959 PUSH1 0x92 SHL PUSH1 0x64 DUP3 ADD MSTORE PUSH1 0x84 ADD PUSH2 0x8FA JUMP JUMPDEST PUSH0 SLOAD PUSH1 0x1 PUSH1 0xB0 SHL SWAP1 DIV PUSH1 0xFF AND ISZERO DUP1 ISZERO PUSH2 0x9B8 JUMPI PUSH0 DUP1 SLOAD PUSH2 0xFFFF PUSH1 0xA8 SHL NOT AND PUSH2 0x101 PUSH1 0xA8 SHL OR SWAP1 SSTORE JUMPDEST PUSH1 0x4 DUP1 SLOAD PUSH1 0x1 PUSH1 0x1 PUSH1 0xA0 SHL SUB NOT AND PUSH1 0x1 PUSH1 0x1 PUSH1 0xA0 SHL SUB DUP6 AND OR SWAP1 SSTORE PUSH2 0x9DC DUP3 PUSH2 0x18F2 JUMP JUMPDEST PUSH1 0x40 DUP1 MLOAD PUSH1 0xA0 DUP2 ADD DUP3 MSTORE PUSH1 0x1 DUP1 DUP3 MSTORE PUSH9 0x2B5E3AF16B1880000 PUSH1 0x20 DUP1 DUP5 ADD SWAP2 DUP3 MSTORE PUSH1 0x21 DUP5 DUP7 ADD SWAP1 DUP2 MSTORE PUSH1 0x5A PUSH1 0x60 DUP7 ADD SWAP1 DUP2 MSTORE DUP7 MLOAD DUP1 DUP9 ADD SWAP1 SWAP8 MSTORE PUSH1 0xF DUP8 MSTORE PUSH15 0x50726563696F7573204D6574616C73 PUSH1 0x88 SHL SWAP3 DUP8 ADD SWAP3 SWAP1 SWAP3 MSTORE PUSH1 0x80 DUP6 ADD SWAP6 DUP7 MSTORE PUSH1 0x1F DUP1 SLOAD SWAP5 DUP6 ADD DUP2 SSTORE PUSH0 MSTORE DUP5 MLOAD PUSH1 0x5 SWAP1 SWAP5 MUL PUSH0 MLOAD PUSH1 0x20 PUSH2 0x2605 PUSH0 CODECOPY PUSH0 MLOAD SWAP1 PUSH0 MSTORE DUP2 ADD SWAP5 DUP6 SSTORE SWAP3 MLOAD PUSH0 MLOAD PUSH1 0x20 PUSH2 0x2665 PUSH0 CODECOPY PUSH0 MLOAD SWAP1 PUSH0 MSTORE DUP5 ADD SSTORE MLOAD PUSH0 MLOAD PUSH1 0x20 PUSH2 0x25E5 PUSH0 CODECOPY PUSH0 MLOAD SWAP1 PUSH0 MSTORE DUP4 ADD SSTORE MLOAD PUSH0 MLOAD PUSH1 0x20 PUSH2 0x2625 PUSH0 CODECOPY PUSH0 MLOAD SWAP1 PUSH0 MSTORE DUP3 ADD SSTORE SWAP3 MLOAD SWAP2 SWAP3 SWAP1 SWAP2 PUSH0 MLOAD PUSH1 0x20 PUSH2 0x2645 PUSH0 CODECOPY PUSH0 MLOAD SWAP1 PUSH0 MSTORE SWAP1 SWAP2 ADD SWAP1 PUSH2 0xAB9 SWAP1 DUP3 PUSH2 0x23F6 JUMP JUMPDEST POP POP PUSH1 0x40 DUP1 MLOAD PUSH1 0xA0 DUP2 ADD DUP3 MSTORE PUSH1 0x2 DUP2 MSTORE PUSH9 0x1B1AE4D6E2EF500000 PUSH1 0x20 DUP1 DUP4 ADD SWAP2 DUP3 MSTORE PUSH1 0x32 DUP4 DUP6 ADD SWAP1 DUP2 MSTORE PUSH1 0xB4 PUSH1 0x60 DUP6 ADD SWAP1 DUP2 MSTORE DUP6 MLOAD DUP1 DUP8 ADD SWAP1 SWAP7 MSTORE PUSH1 0xB DUP7 MSTORE PUSH11 0x5265616C20457374617465 PUSH1 0xA8 SHL SWAP3 DUP7 ADD SWAP3 SWAP1 SWAP3 MSTORE PUSH1 0x80 DUP5 ADD SWAP5 DUP6 MSTORE PUSH1 0x1F DUP1 SLOAD PUSH1 0x1 DUP2 ADD DUP3 SSTORE PUSH0 SWAP2 SWAP1 SWAP2 MSTORE DUP5 MLOAD PUSH1 0x5 SWAP1 SWAP2 MUL PUSH0 MLOAD PUSH1 0x20 PUSH2 0x2605 PUSH0 CODECOPY PUSH0 MLOAD SWAP1 PUSH0 MSTORE DUP2 ADD SWAP2 DUP3 SSTORE SWAP4 MLOAD PUSH0 MLOAD PUSH1 0x20 PUSH2 0x2665 PUSH0 CODECOPY PUSH0 MLOAD SWAP1 PUSH0 MSTORE DUP6 ADD SSTORE SWAP1 MLOAD PUSH0 MLOAD PUSH1 0x20 PUSH2 0x25E5 PUSH0 CODECOPY PUSH0 MLOAD SWAP1 PUSH0 MSTORE DUP5 ADD SSTORE SWAP1 MLOAD PUSH0 MLOAD PUSH1 0x20 PUSH2 0x2625 PUSH0 CODECOPY PUSH0 MLOAD SWAP1 PUSH0 MSTORE DUP4 ADD SSTORE SWAP3 MLOAD SWAP2 SWAP4 POP PUSH0 MLOAD PUSH1 0x20 PUSH2 0x2645 PUSH0 CODECOPY PUSH0 MLOAD SWAP1 PUSH0 MSTORE ADD SWAP1 PUSH2 0xB96 SWAP1 DUP3 PUSH2 0x23F6 JUMP JUMPDEST POP POP PUSH1 0x40 DUP1 MLOAD PUSH1 0xA0 DUP2 ADD DUP3 MSTORE PUSH1 0x3 DUP2 MSTORE PUSH9 0x878678326EAC900000 PUSH1 0x20 DUP1 DUP4 ADD SWAP2 DUP3 MSTORE PUSH1 0x43 DUP4 DUP6 ADD SWAP1 DUP2 MSTORE PUSH2 0x168 PUSH1 0x60 DUP6 ADD SWAP1 DUP2 MSTORE DUP6 MLOAD DUP1 DUP8 ADD SWAP1 SWAP7 MSTORE PUSH1 0x9 DUP7 MSTORE PUSH9 0x55532053746F636B73 PUSH1 0xB8 SHL SWAP3 DUP7 ADD SWAP3 SWAP1 SWAP3 MSTORE PUSH1 0x80 DUP5 ADD SWAP5 DUP6 MSTORE PUSH1 0x1F DUP1 SLOAD PUSH1 0x1 DUP2 ADD DUP3 SSTORE PUSH0 SWAP2 SWAP1 SWAP2 MSTORE DUP5 MLOAD PUSH1 0x5 SWAP1 SWAP2 MUL PUSH0 MLOAD PUSH1 0x20 PUSH2 0x2605 PUSH0 CODECOPY PUSH0 MLOAD SWAP1 PUSH0 MSTORE DUP2 ADD SWAP2 DUP3 SSTORE SWAP4 MLOAD PUSH0 MLOAD PUSH1 0x20 PUSH2 0x2665 PUSH0 CODECOPY PUSH0 MLOAD SWAP1 PUSH0 MSTORE DUP6 ADD SSTORE SWAP1 MLOAD PUSH0 MLOAD PUSH1 0x20 PUSH2 0x25E5 PUSH0 CODECOPY PUSH0 MLOAD SWAP1 PUSH0 MSTORE DUP5 ADD SSTORE SWAP1 MLOAD PUSH0 MLOAD PUSH1 0x20 PUSH2 0x2625 PUSH0 CODECOPY PUSH0 MLOAD SWAP1 PUSH0 MSTORE DUP4 ADD SSTORE SWAP3 MLOAD SWAP2 SWAP4 POP PUSH0 MLOAD PUSH1 0x20 PUSH2 0x2645 PUSH0 CODECOPY PUSH0 MLOAD SWAP1 PUSH0 MSTORE ADD SWAP1 PUSH2 0xC72 SWAP1 DUP3 PUSH2 0x23F6 JUMP JUMPDEST POP POP PUSH1 0x40 DUP1 MLOAD PUSH1 0xA0 DUP2 ADD DUP3 MSTORE PUSH1 0x4 DUP2 MSTORE PUSH10 0x10F0CF064DD59200000 PUSH1 0x20 DUP1 DUP4 ADD SWAP2 DUP3 MSTORE PUSH1 0x50 DUP4 DUP6 ADD SWAP1 DUP2 MSTORE PUSH2 0x2D0 PUSH1 0x60 DUP6 ADD SWAP1 DUP2 MSTORE DUP6 MLOAD DUP1 DUP8 ADD SWAP1 SWAP7 MSTORE PUSH1 0xC DUP7 MSTORE PUSH12 0x119BDC995E0813585C9AD95D PUSH1 0xA2 SHL SWAP3 DUP7 ADD SWAP3 SWAP1 SWAP3 MSTORE PUSH1 0x80 DUP5 ADD SWAP5 DUP6 MSTORE PUSH1 0x1F DUP1 SLOAD PUSH1 0x1 DUP2 ADD DUP3 SSTORE PUSH0 SWAP2 SWAP1 SWAP2 MSTORE DUP5 MLOAD PUSH1 0x5 SWAP1 SWAP2 MUL PUSH0 MLOAD PUSH1 0x20 PUSH2 0x2605 PUSH0 CODECOPY PUSH0 MLOAD SWAP1 PUSH0 MSTORE DUP2 ADD SWAP2 DUP3 SSTORE SWAP4 MLOAD PUSH0 MLOAD PUSH1 0x20 PUSH2 0x2665 PUSH0 CODECOPY PUSH0 MLOAD SWAP1 PUSH0 MSTORE DUP6 ADD SSTORE SWAP1 MLOAD PUSH0 MLOAD PUSH1 0x20 PUSH2 0x25E5 PUSH0 CODECOPY PUSH0 MLOAD SWAP1 PUSH0 MSTORE DUP5 ADD SSTORE SWAP1 MLOAD PUSH0 MLOAD PUSH1 0x20 PUSH2 0x2625 PUSH0 CODECOPY PUSH0 MLOAD SWAP1 PUSH0 MSTORE DUP4 ADD SSTORE SWAP3 MLOAD SWAP2 SWAP4 POP PUSH0 MLOAD PUSH1 0x20 PUSH2 0x2645 PUSH0 CODECOPY PUSH0 MLOAD SWAP1 PUSH0 MSTORE ADD SWAP1 PUSH2 0xD52 SWAP1 DUP3 PUSH2 0x23F6 JUMP JUMPDEST POP POP PUSH1 0x40 DUP1 MLOAD PUSH1 0xA0 DUP2 ADD DUP3 MSTORE PUSH1 0x5 DUP1 DUP3 MSTORE PUSH10 0x21E19E0C9BAB2400000 PUSH1 0x20 DUP1 DUP5 ADD SWAP2 DUP3 MSTORE PUSH1 0x64 DUP5 DUP7 ADD SWAP1 DUP2 MSTORE PUSH2 0x438 PUSH1 0x60 DUP7 ADD SWAP1 DUP2 MSTORE DUP7 MLOAD DUP1 DUP9 ADD SWAP1 SWAP8 MSTORE PUSH1 0xE DUP8 MSTORE PUSH14 0x4469676974616C20417373657473 PUSH1 0x90 SHL SWAP3 DUP8 ADD SWAP3 SWAP1 SWAP3 MSTORE PUSH1 0x80 DUP6 ADD SWAP6 DUP7 MSTORE PUSH1 0x1F DUP1 SLOAD PUSH1 0x1 DUP2 ADD DUP3 SSTORE PUSH0 SWAP2 SWAP1 SWAP2 MSTORE DUP6 MLOAD SWAP5 MUL PUSH0 MLOAD PUSH1 0x20 PUSH2 0x2605 PUSH0 CODECOPY PUSH0 MLOAD SWAP1 PUSH0 MSTORE DUP2 ADD SWAP5 DUP6 SSTORE SWAP3 MLOAD PUSH0 MLOAD PUSH1 0x20 PUSH2 0x2665 PUSH0 CODECOPY PUSH0 MLOAD SWAP1 PUSH0 MSTORE DUP5 ADD SSTORE MLOAD PUSH0 MLOAD PUSH1 0x20 PUSH2 0x25E5 PUSH0 CODECOPY PUSH0 MLOAD SWAP1 PUSH0 MSTORE DUP4 ADD SSTORE MLOAD PUSH0 MLOAD PUSH1 0x20 PUSH2 0x2625 PUSH0 CODECOPY PUSH0 MLOAD SWAP1 PUSH0 MSTORE DUP3 ADD SSTORE SWAP3 MLOAD SWAP2 SWAP4 POP SWAP2 PUSH0 MLOAD PUSH1 0x20 PUSH2 0x2645 PUSH0 CODECOPY PUSH0 MLOAD SWAP1 PUSH0 MSTORE ADD SWAP1 PUSH2 0xE31 SWAP1 DUP3 PUSH2 0x23F6 JUMP JUMPDEST POP PUSH0 SWAP2 POP POP JUMPDEST PUSH1 0x1F SLOAD DUP2 LT ISZERO PUSH2 0xEA2 JUMPI PUSH1 0x1F DUP2 DUP2 SLOAD DUP2 LT PUSH2 0xE54 JUMPI PUSH2 0xE54 PUSH2 0x24B1 JUMP JUMPDEST SWAP1 PUSH0 MSTORE PUSH1 0x20 PUSH0 KECCAK256 SWAP1 PUSH1 0x5 MUL ADD PUSH1 0x1 ADD SLOAD PUSH1 0x20 PUSH0 PUSH1 0x1F DUP5 DUP2 SLOAD DUP2 LT PUSH2 0xE7A JUMPI PUSH2 0xE7A PUSH2 0x24B1 JUMP JUMPDEST PUSH0 SWAP2 DUP3 MSTORE PUSH1 0x20 DUP1 DUP4 KECCAK256 PUSH1 0x5 SWAP1 SWAP3 MUL SWAP1 SWAP2 ADD SLOAD DUP4 MSTORE DUP3 ADD SWAP3 SWAP1 SWAP3 MSTORE PUSH1 0x40 ADD SWAP1 KECCAK256 SSTORE PUSH1 0x1 ADD PUSH2 0xE37 JUMP JUMPDEST POP PUSH9 0x340AAD21B3B700000 PUSH1 0xB SSTORE PUSH10 0x21E19E0C9BAB2400000 PUSH1 0xC SSTORE PUSH9 0x1A055690D9DB80000 PUSH1 0xA SWAP1 DUP2 SSTORE PUSH1 0x2 PUSH1 0x8 SSTORE PUSH1 0x14 SSTORE PUSH3 0x15180 PUSH1 0x11 SSTORE PUSH2 0x3E8 PUSH1 0x13 SSTORE PUSH2 0xBB8 PUSH32 0xF88CD8D612926EBB404E40725C01084B6E9B3CE0344CDE068570342CBD448C61 SSTORE PUSH2 0x5DC PUSH32 0x4C287B3E2C2CB129AE3BA596D613D760B15AFFDAC7242E12903C37A886EA1C4F SSTORE PUSH2 0x2EE PUSH32 0x4AC83FCA211703E3DDB90093CD219714E5E3715BF0B4FD15B0441390534A24E2 SSTORE PUSH2 0x1F4 PUSH32 0x6B28F262AD931A15C9E47271FC159A891B2BCB0DA2659CAC5BBFED4886CF26E SSTORE PUSH2 0x190 PUSH32 0x82F07EDC09F3A46C1925D02252613A7FCC7BE7D03B538B0C268DF85F2F13A7AB SSTORE PUSH1 0x10 DUP1 SLOAD PUSH1 0xFF NOT AND SWAP1 SSTORE PUSH1 0x1 PUSH1 0x12 DUP2 DUP2 SSTORE PUSH1 0x1 PUSH1 0x1 PUSH1 0xA0 SHL SUB DUP5 AND PUSH0 DUP2 DUP2 MSTORE PUSH1 0x1C PUSH1 0x20 SWAP1 DUP2 MSTORE PUSH1 0x40 DUP3 KECCAK256 DUP6 SWAP1 SSTORE DUP5 DUP3 MSTORE PUSH1 0x1D SWAP1 MSTORE PUSH32 0x9DE6ABD965D55C3BB0CDBF6FA175050624C6FF8FE86F682DC08F2A450EDE2278 DUP1 SLOAD PUSH1 0x1 PUSH1 0x1 PUSH1 0xA0 SHL SUB NOT AND SWAP1 SWAP3 OR SWAP1 SWAP2 SSTORE PUSH2 0x100B DUP4 PUSH2 0x24D9 JUMP JUMPDEST SWAP2 SWAP1 POP SSTORE POP PUSH0 PUSH1 0x1 PUSH1 0x1 PUSH1 0xA0 SHL SUB AND DUP3 PUSH1 0x1 PUSH1 0x1 PUSH1 0xA0 SHL SUB AND PUSH32 0x5DF5C588E24E80DDFA2166A642D3FE27393F08228D5B903311972824FBD0D607 PUSH1 0x1 PUSH0 PUSH1 0x40 MLOAD PUSH2 0x107C SWAP3 SWAP2 SWAP1 SWAP2 DUP3 MSTORE PUSH1 0x20 DUP3 ADD MSTORE PUSH1 0x60 PUSH1 0x40 DUP3 ADD DUP2 SWAP1 MSTORE PUSH1 0x5 SWAP1 DUP3 ADD MSTORE PUSH5 0x27BBB732B9 PUSH1 0xD9 SHL PUSH1 0x80 DUP3 ADD MSTORE PUSH1 0xA0 ADD SWAP1 JUMP JUMPDEST PUSH1 0x40 MLOAD DUP1 SWAP2 SUB SWAP1 LOG3 DUP1 ISZERO PUSH2 0x1097 JUMPI PUSH0 DUP1 SLOAD PUSH1 0xFF PUSH1 0xB0 SHL NOT AND SWAP1 SSTORE JUMPDEST POP POP POP JUMP JUMPDEST PUSH1 0x1 PUSH1 0x1 PUSH1 0xA0 SHL SUB DUP4 AND PUSH0 SWAP1 DUP2 MSTORE PUSH1 0x1E PUSH1 0x20 SWAP1 DUP2 MSTORE PUSH1 0x40 SWAP2 DUP3 SWAP1 KECCAK256 SLOAD DUP3 MLOAD PUSH12 0xFFFFFFFFFFFFFFFFFFFFFFFF NOT PUSH1 0x60 SWAP8 DUP9 SHL DUP2 AND DUP3 DUP6 ADD MSTORE PUSH1 0x34 DUP3 ADD SWAP7 SWAP1 SWAP7 MSTORE PUSH1 0x54 DUP2 ADD SWAP2 SWAP1 SWAP2 MSTORE PUSH1 0x74 DUP2 ADD SWAP4 SWAP1 SWAP4 MSTORE CHAINID PUSH1 0x94 DUP5 ADD MSTORE ADDRESS SWAP1 SWAP5 SHL SWAP1 SWAP3 AND PUSH1 0xB4 DUP3 ADD MSTORE DUP2 MLOAD DUP1 DUP3 SUB PUSH1 0xA8 ADD DUP2 MSTORE PUSH1 0xC8 SWAP1 SWAP2 ADD SWAP1 SWAP2 MSTORE DUP1 MLOAD SWAP2 ADD KECCAK256 SWAP1 JUMP JUMPDEST PUSH2 0x111F PUSH2 0x1B2A JUMP JUMPDEST PUSH2 0x90B PUSH0 PUSH2 0x1B83 JUMP JUMPDEST PUSH2 0x1130 PUSH2 0x1B2A JUMP JUMPDEST PUSH1 0x5 DUP1 SLOAD PUSH1 0x1 PUSH1 0x1 PUSH1 0xA0 SHL SUB NOT AND PUSH1 0x1 PUSH1 0x1 PUSH1 0xA0 SHL SUB SWAP3 SWAP1 SWAP3 AND SWAP2 SWAP1 SWAP2 OR SWAP1 SSTORE JUMP JUMPDEST PUSH0 SLOAD PUSH1 0x1 PUSH1 0x1 PUSH1 0xA0 SHL SUB AND CALLER EQ PUSH2 0x1197 JUMPI PUSH1 0x40 MLOAD PUSH3 0x461BCD PUSH1 0xE5 SHL DUP2 MSTORE PUSH1 0x20 PUSH1 0x4 DUP3 ADD MSTORE PUSH1 0x9 PUSH1 0x24 DUP3 ADD MSTORE PUSH9 0x37B7363CA7BBB732B9 PUSH1 0xB9 SHL PUSH1 0x44 DUP3 ADD MSTORE PUSH1 0x64 ADD PUSH2 0x8FA JUMP JUMPDEST DUP1 PUSH1 0x1 PUSH1 0x1 PUSH1 0xA0 SHL SUB AND PUSH4 0xA9059CBB PUSH2 0x11B7 PUSH0 SLOAD PUSH1 0x1 PUSH1 0x1 PUSH1 0xA0 SHL SUB AND SWAP1 JUMP JUMPDEST PUSH2 0x11C9 DUP6 PUSH8 0xDE0B6B3A7640000 PUSH2 0x24F1 JUMP JUMPDEST PUSH1 0x40 MLOAD PUSH1 0x1 PUSH1 0x1 PUSH1 0xE0 SHL SUB NOT PUSH1 0xE0 DUP6 SWAP1 SHL AND DUP2 MSTORE PUSH1 0x1 PUSH1 0x1 PUSH1 0xA0 SHL SUB SWAP1 SWAP3 AND PUSH1 0x4 DUP4 ADD MSTORE PUSH1 0x24 DUP3 ADD MSTORE PUSH1 0x44 ADD PUSH1 0x20 PUSH1 0x40 MLOAD DUP1 DUP4 SUB DUP2 PUSH0 DUP8 GAS CALL ISZERO DUP1 ISZERO PUSH2 0x1211 JUMPI RETURNDATASIZE PUSH0 PUSH0 RETURNDATACOPY RETURNDATASIZE PUSH0 REVERT JUMPDEST POP POP POP POP PUSH1 0x40 MLOAD RETURNDATASIZE PUSH1 0x1F NOT PUSH1 0x1F DUP3 ADD AND DUP3 ADD DUP1 PUSH1 0x40 MSTORE POP DUP2 ADD SWAP1 PUSH2 0x1097 SWAP2 SWAP1 PUSH2 0x250E JUMP JUMPDEST PUSH1 0x17 DUP2 DUP2 SLOAD DUP2 LT PUSH2 0x8B7 JUMPI PUSH0 DUP1 REVERT JUMPDEST DUP2 PUSH0 JUMPDEST DUP6 MLOAD DUP2 LT ISZERO PUSH2 0x13D6 JUMPI DUP5 DUP2 DUP2 MLOAD DUP2 LT PUSH2 0x1262 JUMPI PUSH2 0x1262 PUSH2 0x24B1 JUMP JUMPDEST PUSH1 0x20 MUL PUSH1 0x20 ADD ADD MLOAD DUP3 LT ISZERO PUSH2 0x1275 JUMPI PUSH0 PUSH0 REVERT JUMPDEST DUP5 DUP2 DUP2 MLOAD DUP2 LT PUSH2 0x1287 JUMPI PUSH2 0x1287 PUSH2 0x24B1 JUMP JUMPDEST PUSH1 0x20 MUL PUSH1 0x20 ADD ADD MLOAD DUP3 PUSH2 0x129A SWAP2 SWAP1 PUSH2 0x252D JUMP JUMPDEST SWAP2 POP DUP3 PUSH1 0x1 PUSH1 0x1 PUSH1 0xA0 SHL SUB AND PUSH4 0x23B872DD CALLER DUP9 DUP5 DUP2 MLOAD DUP2 LT PUSH2 0x12BE JUMPI PUSH2 0x12BE PUSH2 0x24B1 JUMP JUMPDEST PUSH1 0x20 MUL PUSH1 0x20 ADD ADD MLOAD DUP9 DUP6 DUP2 MLOAD DUP2 LT PUSH2 0x12D8 JUMPI PUSH2 0x12D8 PUSH2 0x24B1 JUMP JUMPDEST PUSH1 0x20 SWAP1 DUP2 MUL SWAP2 SWAP1 SWAP2 ADD ADD MLOAD PUSH1 0x40 MLOAD PUSH1 0x1 PUSH1 0x1 PUSH1 0xE0 SHL SUB NOT PUSH1 0xE0 DUP7 SWAP1 SHL AND DUP2 MSTORE PUSH1 0x1 PUSH1 0x1 PUSH1 0xA0 SHL SUB SWAP4 DUP5 AND PUSH1 0x4 DUP3 ADD MSTORE SWAP3 SWAP1 SWAP2 AND PUSH1 0x24 DUP4 ADD MSTORE PUSH1 0x44 DUP3 ADD MSTORE PUSH1 0x64 ADD PUSH1 0x20 PUSH1 0x40 MLOAD DUP1 DUP4 SUB DUP2 PUSH0 DUP8 GAS CALL ISZERO DUP1 ISZERO PUSH2 0x1334 JUMPI RETURNDATASIZE PUSH0 PUSH0 RETURNDATACOPY RETURNDATASIZE PUSH0 REVERT JUMPDEST POP POP POP POP PUSH1 0x40 MLOAD RETURNDATASIZE PUSH1 0x1F NOT PUSH1 0x1F DUP3 ADD AND DUP3 ADD DUP1 PUSH1 0x40 MSTORE POP DUP2 ADD SWAP1 PUSH2 0x1358 SWAP2 SWAP1 PUSH2 0x250E JUMP JUMPDEST POP DUP6 DUP2 DUP2 MLOAD DUP2 LT PUSH2 0x136B JUMPI PUSH2 0x136B PUSH2 0x24B1 JUMP JUMPDEST PUSH1 0x20 MUL PUSH1 0x20 ADD ADD MLOAD PUSH1 0x1 PUSH1 0x1 PUSH1 0xA0 SHL SUB AND PUSH32 0xBD54BF7A35B4F30A5C2E53DF02C464DC7C2A159A96B24DBB41CD9808BD6E2E36 DUP7 DUP4 DUP2 MLOAD DUP2 LT PUSH2 0x13AF JUMPI PUSH2 0x13AF PUSH2 0x24B1 JUMP JUMPDEST PUSH1 0x20 MUL PUSH1 0x20 ADD ADD MLOAD PUSH1 0x40 MLOAD PUSH2 0x13C6 SWAP2 DUP2 MSTORE PUSH1 0x20 ADD SWAP1 JUMP JUMPDEST PUSH1 0x40 MLOAD DUP1 SWAP2 SUB SWAP1 LOG2 PUSH1 0x1 ADD PUSH2 0x1247 JUMP JUMPDEST POP POP POP POP POP POP JUMP JUMPDEST PUSH1 0x3 SLOAD PUSH1 0x1 PUSH1 0x1 PUSH1 0xA0 SHL SUB AND CALLER PUSH1 0x1 PUSH1 0x1 PUSH1 0xA0 SHL SUB AND EQ PUSH2 0x1411 JUMPI PUSH1 0x40 MLOAD PUSH3 0x461BCD PUSH1 0xE5 SHL DUP2 MSTORE PUSH1 0x4 ADD PUSH2 0x8FA SWAP1 PUSH2 0x2339 JUMP JUMPDEST PUSH2 0x90B PUSH2 0x1BD2 JUMP JUMPDEST PUSH1 0x1F DUP2 DUP2 SLOAD DUP2 LT PUSH2 0x1428 JUMPI PUSH0 DUP1 REVERT JUMPDEST SWAP1 PUSH0 MSTORE PUSH1 0x20 PUSH0 KECCAK256 SWAP1 PUSH1 0x5 MUL ADD PUSH0 SWAP2 POP SWAP1 POP DUP1 PUSH0 ADD SLOAD SWAP1 DUP1 PUSH1 0x1 ADD SLOAD SWAP1 DUP1 PUSH1 0x2 ADD SLOAD SWAP1 DUP1 PUSH1 0x3 ADD SLOAD SWAP1 DUP1 PUSH1 0x4 ADD DUP1 SLOAD PUSH2 0x145F SWAP1 PUSH2 0x237A JUMP JUMPDEST DUP1 PUSH1 0x1F ADD PUSH1 0x20 DUP1 SWAP2 DIV MUL PUSH1 0x20 ADD PUSH1 0x40 MLOAD SWAP1 DUP2 ADD PUSH1 0x40 MSTORE DUP1 SWAP3 SWAP2 SWAP1 DUP2 DUP2 MSTORE PUSH1 0x20 ADD DUP3 DUP1 SLOAD PUSH2 0x148B SWAP1 PUSH2 0x237A JUMP JUMPDEST DUP1 ISZERO PUSH2 0x14D6 JUMPI DUP1 PUSH1 0x1F LT PUSH2 0x14AD JUMPI PUSH2 0x100 DUP1 DUP4 SLOAD DIV MUL DUP4 MSTORE SWAP2 PUSH1 0x20 ADD SWAP2 PUSH2 0x14D6 JUMP JUMPDEST DUP3 ADD SWAP2 SWAP1 PUSH0 MSTORE PUSH1 0x20 PUSH0 KECCAK256 SWAP1 JUMPDEST DUP2 SLOAD DUP2 MSTORE SWAP1 PUSH1 0x1 ADD SWAP1 PUSH1 0x20 ADD DUP1 DUP4 GT PUSH2 0x14B9 JUMPI DUP3 SWAP1 SUB PUSH1 0x1F AND DUP3 ADD SWAP2 JUMPDEST POP POP POP POP POP SWAP1 POP DUP6 JUMP JUMPDEST PUSH2 0x14E9 CALLER PUSH2 0x404 JUMP JUMPDEST PUSH2 0x1515 JUMPI PUSH2 0x1515 CALLER DUP3 PUSH1 0x40 MLOAD DUP1 PUSH1 0x40 ADD PUSH1 0x40 MSTORE DUP1 PUSH1 0x5 DUP2 MSTORE PUSH1 0x20 ADD PUSH5 0x7374445343 PUSH1 0xD8 SHL DUP2 MSTORE POP PUSH2 0x1C14 JUMP JUMPDEST PUSH2 0x151E CALLER PUSH2 0x404 JUMP JUMPDEST PUSH2 0x156A JUMPI PUSH1 0x40 MLOAD PUSH3 0x461BCD PUSH1 0xE5 SHL DUP2 MSTORE PUSH1 0x20 PUSH1 0x4 DUP3 ADD MSTORE PUSH1 0x18 PUSH1 0x24 DUP3 ADD MSTORE PUSH32 0x4473636C61623A2055736572206E6F7420457869737473210000000000000000 PUSH1 0x44 DUP3 ADD MSTORE PUSH1 0x64 ADD PUSH2 0x8FA JUMP JUMPDEST PUSH1 0xB SLOAD DUP4 LT ISZERO PUSH2 0x15BC JUMPI PUSH1 0x40 MLOAD PUSH3 0x461BCD PUSH1 0xE5 SHL DUP2 MSTORE PUSH1 0x20 PUSH1 0x4 DUP3 ADD MSTORE PUSH1 0x19 PUSH1 0x24 DUP3 ADD MSTORE PUSH32 0x4D696E696D756D2041637469766174696F6E2069732024363000000000000000 PUSH1 0x44 DUP3 ADD MSTORE PUSH1 0x64 ADD PUSH2 0x8FA JUMP JUMPDEST PUSH1 0xC SLOAD DUP4 GT ISZERO PUSH2 0x160E JUMPI PUSH1 0x40 MLOAD PUSH3 0x461BCD PUSH1 0xE5 SHL DUP2 MSTORE PUSH1 0x20 PUSH1 0x4 DUP3 ADD MSTORE PUSH1 0x1C PUSH1 0x24 DUP3 ADD MSTORE PUSH32 0x4D6178696D756D2041637469766174696F6E2069732024313030303000000000 PUSH1 0x44 DUP3 ADD MSTORE PUSH1 0x64 ADD PUSH2 0x8FA JUMP JUMPDEST DUP2 PUSH1 0x1 EQ PUSH2 0x1672 JUMPI PUSH1 0x40 MLOAD PUSH3 0x461BCD PUSH1 0xE5 SHL DUP2 MSTORE PUSH1 0x20 PUSH1 0x4 DUP3 ADD MSTORE PUSH1 0x2B PUSH1 0x24 DUP3 ADD MSTORE PUSH32 0x496E2046697820706C616E206F6E6C79205553445420696E766573746D656E74 PUSH1 0x44 DUP3 ADD MSTORE PUSH11 0x81A5CC8185B1B1BDDD959 PUSH1 0xAA SHL PUSH1 0x64 DUP3 ADD MSTORE PUSH1 0x84 ADD PUSH2 0x8FA JUMP JUMPDEST CALLER PUSH0 SWAP1 DUP2 MSTORE PUSH1 0x1C PUSH1 0x20 MSTORE PUSH1 0x40 SWAP1 KECCAK256 PUSH1 0x6 ADD SLOAD DUP1 ISZERO PUSH2 0x1700 JUMPI DUP1 DUP5 LT ISZERO PUSH2 0x1700 JUMPI PUSH1 0x40 MLOAD PUSH3 0x461BCD PUSH1 0xE5 SHL DUP2 MSTORE PUSH1 0x20 PUSH1 0x4 DUP3 ADD MSTORE PUSH1 0x37 PUSH1 0x24 DUP3 ADD MSTORE PUSH32 0x526520496E766573746D656E742053686F756C6420457175616C2F4772656174 PUSH1 0x44 DUP3 ADD MSTORE PUSH32 0x6572207468616E206C61737420496E766573746D656E74000000000000000000 PUSH1 0x64 DUP3 ADD MSTORE PUSH1 0x84 ADD PUSH2 0x8FA JUMP JUMPDEST PUSH7 0x27CA57357C0000 PUSH0 DUP2 PUSH2 0x171C DUP8 PUSH8 0xDE0B6B3A7640000 PUSH2 0x24F1 JUMP JUMPDEST PUSH2 0x1726 SWAP2 SWAP1 PUSH2 0x2540 JUMP JUMPDEST CALLER PUSH0 SWAP1 DUP2 MSTORE PUSH1 0x1C PUSH1 0x20 MSTORE PUSH1 0x40 DUP2 KECCAK256 PUSH1 0x1 DUP2 ADD SLOAD PUSH1 0x3 SWAP1 SWAP2 ADD SLOAD SWAP3 SWAP4 POP PUSH1 0x1 PUSH1 0x1 PUSH1 0xA0 SHL SUB AND SWAP2 SWAP1 DUP2 ISZERO PUSH2 0x1778 JUMPI PUSH1 0x40 MLOAD DUP1 PUSH1 0x40 ADD PUSH1 0x40 MSTORE DUP1 PUSH1 0x7 DUP2 MSTORE PUSH1 0x20 ADD PUSH7 0x5265746F70757 PUSH1 0xCC SHL DUP2 MSTORE POP PUSH2 0x1795 JUMP JUMPDEST PUSH1 0x40 MLOAD DUP1 PUSH1 0x40 ADD PUSH1 0x40 MSTORE DUP1 PUSH1 0x3 DUP2 MSTORE PUSH1 0x20 ADD PUSH3 0x4E6577 PUSH1 0xE8 SHL DUP2 MSTORE POP JUMPDEST SWAP1 POP CALLER PUSH1 0x1 PUSH1 0x1 PUSH1 0xA0 SHL SUB AND PUSH32 0xABD608A4BA071391876D4741F99BA49362BD2FC5AFCF4F1FC9ECF91D6A73CCF8 DUP11 DUP7 DUP5 DUP13 PUSH1 0x40 MLOAD PUSH2 0x17D6 SWAP5 SWAP4 SWAP3 SWAP2 SWAP1 PUSH2 0x255F JUMP JUMPDEST PUSH1 0x40 MLOAD DUP1 SWAP2 SUB SWAP1 LOG2 CALLER PUSH0 SWAP1 DUP2 MSTORE PUSH1 0x1C PUSH1 0x20 MSTORE PUSH1 0x40 DUP2 KECCAK256 PUSH1 0x6 DUP2 ADD DUP12 SWAP1 SSTORE PUSH1 0x3 ADD DUP1 SLOAD DUP12 SWAP3 SWAP1 PUSH2 0x1806 SWAP1 DUP5 SWAP1 PUSH2 0x25AA JUMP JUMPDEST SWAP1 SWAP2 SSTORE POP POP CALLER PUSH0 SWAP1 DUP2 MSTORE PUSH1 0x1C PUSH1 0x20 MSTORE PUSH1 0x40 DUP2 KECCAK256 PUSH1 0x3 ADD SLOAD SWAP1 DUP2 SWAP1 SUB PUSH2 0x1851 JUMPI PUSH1 0x1 PUSH1 0x1 PUSH1 0xA0 SHL SUB DUP5 AND PUSH0 SWAP1 DUP2 MSTORE PUSH1 0x1C PUSH1 0x20 MSTORE PUSH1 0x40 DUP2 KECCAK256 PUSH1 0x2 ADD DUP1 SLOAD SWAP2 PUSH2 0x184B DUP4 PUSH2 0x24D9 JUMP JUMPDEST SWAP2 SWAP1 POP SSTORE POP JUMPDEST POP POP POP POP POP POP POP POP POP POP JUMP JUMPDEST PUSH1 0x19 DUP2 DUP2 SLOAD DUP2 LT PUSH2 0x186C JUMPI PUSH0 DUP1 REVERT JUMPDEST PUSH0 SWAP2 DUP3 MSTORE PUSH1 0x20 SWAP1 SWAP2 KECCAK256 ADD SLOAD PUSH1 0x1 PUSH1 0x1 PUSH1 0xA0 SHL SUB AND SWAP1 POP DUP2 JUMP JUMPDEST PUSH2 0x188D PUSH2 0x1B2A JUMP JUMPDEST PUSH1 0x1 PUSH1 0x1 PUSH1 0xA0 SHL SUB DUP2 AND PUSH2 0x18F2 JUMPI PUSH1 0x40 MLOAD PUSH3 0x461BCD PUSH1 0xE5 SHL DUP2 MSTORE PUSH1 0x20 PUSH1 0x4 DUP3 ADD MSTORE PUSH1 0x26 PUSH1 0x24 DUP3 ADD MSTORE PUSH32 0x4F776E61626C653A206E6577206F776E657220697320746865207A65726F2061 PUSH1 0x44 DUP3 ADD MSTORE PUSH6 0x646472657373 PUSH1 0xD0 SHL PUSH1 0x64 DUP3 ADD MSTORE PUSH1 0x84 ADD PUSH2 0x8FA JUMP JUMPDEST PUSH2 0x18FB DUP2 PUSH2 0x1B83 JUMP JUMPDEST POP JUMP JUMPDEST PUSH0 SLOAD PUSH1 0x1 PUSH1 0x1 PUSH1 0xA0 SHL SUB AND CALLER EQ PUSH2 0x1943 JUMPI PUSH1 0x40 MLOAD PUSH3 0x461BCD PUSH1 0xE5 SHL DUP2 MSTORE PUSH1 0x20 PUSH1 0x4 DUP3 ADD MSTORE PUSH1 0x9 PUSH1 0x24 DUP3 ADD MSTORE PUSH9 0x37B7363CA7BBB732B9 PUSH1 0xB9 SHL PUSH1 0x44 DUP3 ADD MSTORE PUSH1 0x64 ADD PUSH2 0x8FA JUMP JUMPDEST PUSH0 SLOAD PUSH1 0x1 PUSH1 0x1 PUSH1 0xA0 SHL SUB AND PUSH2 0x8FC PUSH2 0x1963 DUP4 PUSH8 0xDE0B6B3A7640000 PUSH2 0x24F1 JUMP JUMPDEST PUSH1 0x40 MLOAD DUP2 ISZERO SWAP1 SWAP3 MUL SWAP2 PUSH0 DUP2 DUP2 DUP2 DUP6 DUP9 DUP9 CALL SWAP4 POP POP POP POP ISZERO DUP1 ISZERO PUSH2 0x1988 JUMPI RETURNDATASIZE PUSH0 PUSH0 RETURNDATACOPY RETURNDATASIZE PUSH0 REVERT JUMPDEST POP POP JUMP JUMPDEST PUSH2 0x1994 PUSH2 0x1DC0 JUMP JUMPDEST PUSH2 0x199D CALLER PUSH2 0x404 JUMP JUMPDEST PUSH2 0x19DB JUMPI PUSH1 0x40 MLOAD PUSH3 0x461BCD PUSH1 0xE5 SHL DUP2 MSTORE PUSH1 0x20 PUSH1 0x4 DUP3 ADD MSTORE PUSH1 0xF PUSH1 0x24 DUP3 ADD MSTORE PUSH15 0x75736572206E6F7420657869737473 PUSH1 0x88 SHL PUSH1 0x44 DUP3 ADD MSTORE PUSH1 0x64 ADD PUSH2 0x8FA JUMP JUMPDEST PUSH2 0x19F2 PUSH2 0x19E9 CALLER DUP8 DUP5 PUSH2 0x109C JUMP JUMPDEST DUP6 DUP6 DUP6 DUP6 PUSH2 0x1E19 JUMP JUMPDEST PUSH2 0x1A32 JUMPI PUSH1 0x40 MLOAD PUSH3 0x461BCD PUSH1 0xE5 SHL DUP2 MSTORE PUSH1 0x20 PUSH1 0x4 DUP3 ADD MSTORE PUSH1 0x11 PUSH1 0x24 DUP3 ADD MSTORE PUSH17 0x696E76616C6964207369676E6174757265 PUSH1 0x78 SHL PUSH1 0x44 DUP3 ADD MSTORE PUSH1 0x64 ADD PUSH2 0x8FA JUMP JUMPDEST PUSH1 0x40 MLOAD DUP6 SWAP1 CALLER SWAP1 DUP3 ISZERO PUSH2 0x8FC MUL SWAP1 DUP4 SWAP1 PUSH0 DUP2 DUP2 DUP2 DUP6 DUP9 DUP9 CALL SWAP4 POP POP POP POP ISZERO DUP1 ISZERO PUSH2 0x1A5E JUMPI RETURNDATASIZE PUSH0 PUSH0 RETURNDATACOPY RETURNDATASIZE PUSH0 REVERT JUMPDEST POP CALLER PUSH0 DUP2 DUP2 MSTORE PUSH1 0x1E PUSH1 0x20 SWAP1 DUP2 MSTORE PUSH1 0x40 SWAP2 DUP3 SWAP1 KECCAK256 SLOAD DUP3 MLOAD DUP11 DUP2 MSTORE SWAP2 DUP3 ADD MSTORE PUSH32 0xF279E6A1F5E320CCA91135676D9CB6E44CA8A08C0B88342BCDB1144F6511B568 SWAP2 ADD PUSH1 0x40 MLOAD DUP1 SWAP2 SUB SWAP1 LOG2 CALLER PUSH0 SWAP1 DUP2 MSTORE PUSH1 0x1E PUSH1 0x20 MSTORE PUSH1 0x40 DUP2 KECCAK256 DUP1 SLOAD SWAP2 PUSH2 0x1AC0 DUP4 PUSH2 0x24D9 JUMP JUMPDEST SWAP2 SWAP1 POP SSTORE POP POP PUSH2 0x1ACF PUSH1 0x1 DUP1 SSTORE JUMP JUMPDEST POP POP POP POP POP JUMP JUMPDEST PUSH2 0x1ADE PUSH2 0x1F23 JUMP JUMPDEST PUSH0 DUP1 SLOAD PUSH1 0xFF PUSH1 0xA0 SHL NOT AND SWAP1 SSTORE PUSH32 0x5DB9EE0A495BF2E6FF9C91A7834C1BA4FDD244A5E8AA4E537BD38AEAE4B073AA CALLER JUMPDEST PUSH1 0x40 MLOAD PUSH1 0x1 PUSH1 0x1 PUSH1 0xA0 SHL SUB SWAP1 SWAP2 AND DUP2 MSTORE PUSH1 0x20 ADD PUSH1 0x40 MLOAD DUP1 SWAP2 SUB SWAP1 LOG1 JUMP JUMPDEST PUSH0 SLOAD PUSH1 0x1 PUSH1 0x1 PUSH1 0xA0 SHL SUB AND CALLER EQ PUSH2 0x90B JUMPI PUSH1 0x40 MLOAD PUSH3 0x461BCD PUSH1 0xE5 SHL DUP2 MSTORE PUSH1 0x20 PUSH1 0x4 DUP3 ADD DUP2 SWAP1 MSTORE PUSH1 0x24 DUP3 ADD MSTORE PUSH32 0x4F776E61626C653A2063616C6C6572206973206E6F7420746865206F776E6572 PUSH1 0x44 DUP3 ADD MSTORE PUSH1 0x64 ADD PUSH2 0x8FA JUMP JUMPDEST PUSH0 DUP1 SLOAD PUSH1 0x1 PUSH1 0x1 PUSH1 0xA0 SHL SUB DUP4 DUP2 AND PUSH1 0x1 PUSH1 0x1 PUSH1 0xA0 SHL SUB NOT DUP4 AND DUP2 OR DUP5 SSTORE PUSH1 0x40 MLOAD SWAP2 SWAP1 SWAP3 AND SWAP3 DUP4 SWAP2 PUSH32 0x8BE0079C531659141344CD1FD0A4F28419497F9722A3DAAFE3B4186F6B6457E0 SWAP2 SWAP1 LOG3 POP POP JUMP JUMPDEST PUSH2 0x1BDA PUSH2 0x1F72 JUMP JUMPDEST PUSH0 DUP1 SLOAD PUSH1 0xFF PUSH1 0xA0 SHL NOT AND PUSH1 0x1 PUSH1 0xA0 SHL OR SWAP1 SSTORE PUSH32 0x62E78CEA01BEE320CD4E420270B5EA74000D11B0C9F74754EBDBFC544B05A258 PUSH2 0x1B0D CALLER SWAP1 JUMP JUMPDEST PUSH1 0x1 PUSH1 0x1 PUSH1 0xA0 SHL SUB DUP4 AND PUSH0 SWAP1 DUP2 MSTORE PUSH1 0x1C PUSH1 0x20 MSTORE PUSH1 0x40 SWAP1 KECCAK256 SLOAD ISZERO PUSH2 0x1C68 JUMPI PUSH1 0x40 MLOAD PUSH3 0x461BCD PUSH1 0xE5 SHL DUP2 MSTORE PUSH1 0x20 PUSH1 0x4 DUP3 ADD MSTORE PUSH1 0xC PUSH1 0x24 DUP3 ADD MSTORE PUSH12 0x557365722045786973747321 PUSH1 0xA0 SHL PUSH1 0x44 DUP3 ADD MSTORE PUSH1 0x64 ADD PUSH2 0x8FA JUMP JUMPDEST PUSH1 0x1 PUSH1 0x1 PUSH1 0xA0 SHL SUB DUP3 AND PUSH0 SWAP1 DUP2 MSTORE PUSH1 0x1C PUSH1 0x20 MSTORE PUSH1 0x40 SWAP1 KECCAK256 SLOAD PUSH2 0x1CC3 JUMPI PUSH1 0x40 MLOAD PUSH3 0x461BCD PUSH1 0xE5 SHL DUP2 MSTORE PUSH1 0x20 PUSH1 0x4 DUP3 ADD MSTORE PUSH1 0x14 PUSH1 0x24 DUP3 ADD MSTORE PUSH20 0x5265666572726572206E6F742045786973747321 PUSH1 0x60 SHL PUSH1 0x44 DUP3 ADD MSTORE PUSH1 0x64 ADD PUSH2 0x8FA JUMP JUMPDEST PUSH1 0x12 DUP1 SLOAD PUSH1 0x1 PUSH1 0x1 PUSH1 0xA0 SHL SUB DUP6 DUP2 AND PUSH0 DUP2 DUP2 MSTORE PUSH1 0x1C PUSH1 0x20 DUP2 DUP2 MSTORE PUSH1 0x40 DUP1 DUP5 KECCAK256 DUP8 DUP2 SSTORE SWAP7 DUP5 MSTORE PUSH1 0x1D DUP3 MSTORE DUP4 KECCAK256 DUP1 SLOAD PUSH1 0x1 PUSH1 0x1 PUSH1 0xA0 SHL SUB NOT SWAP1 DUP2 AND DUP7 OR SWAP1 SWAP2 SSTORE SWAP4 DUP4 MSTORE MSTORE PUSH1 0x1 DUP5 ADD DUP1 SLOAD SWAP1 SWAP3 AND SWAP3 DUP8 AND SWAP3 SWAP1 SWAP3 OR SWAP1 SSTORE PUSH1 0x9 SWAP1 SWAP2 ADD DUP2 SWAP1 SSTORE DUP2 SLOAD SWAP2 SWAP1 PUSH2 0x1D2C DUP4 PUSH2 0x24D9 JUMP JUMPDEST SWAP1 SWAP2 SSTORE POP POP PUSH1 0x1 PUSH1 0x1 PUSH1 0xA0 SHL SUB DUP3 AND PUSH0 SWAP1 DUP2 MSTORE PUSH1 0x1C PUSH1 0x20 MSTORE PUSH1 0x40 DUP2 KECCAK256 PUSH1 0x9 ADD DUP1 SLOAD SWAP2 PUSH2 0x1D57 DUP4 PUSH2 0x24D9 JUMP JUMPDEST SWAP1 SWAP2 SSTORE POP POP PUSH1 0x1 PUSH1 0x1 PUSH1 0xA0 SHL SUB DUP4 DUP2 AND PUSH0 DUP2 DUP2 MSTORE PUSH1 0x1C PUSH1 0x20 MSTORE PUSH1 0x40 DUP1 DUP3 KECCAK256 SLOAD SWAP4 DUP7 AND DUP1 DUP4 MSTORE SWAP2 DUP2 SWAP1 KECCAK256 SLOAD SWAP1 MLOAD SWAP2 SWAP4 PUSH32 0x5DF5C588E24E80DDFA2166A642D3FE27393F08228D5B903311972824FBD0D607 SWAP3 PUSH2 0x1DB3 SWAP3 SWAP1 DUP8 SWAP1 PUSH2 0x25BD JUMP JUMPDEST PUSH1 0x40 MLOAD DUP1 SWAP2 SUB SWAP1 LOG3 POP POP POP JUMP JUMPDEST PUSH1 0x2 PUSH1 0x1 SLOAD SUB PUSH2 0x1E12 JUMPI PUSH1 0x40 MLOAD PUSH3 0x461BCD PUSH1 0xE5 SHL DUP2 MSTORE PUSH1 0x20 PUSH1 0x4 DUP3 ADD MSTORE PUSH1 0x1F PUSH1 0x24 DUP3 ADD MSTORE PUSH32 0x5265656E7472616E637947756172643A207265656E7472616E742063616C6C00 PUSH1 0x44 DUP3 ADD MSTORE PUSH1 0x64 ADD PUSH2 0x8FA JUMP JUMPDEST PUSH1 0x2 PUSH1 0x1 SSTORE JUMP JUMPDEST PUSH0 DUP2 TIMESTAMP GT ISZERO PUSH2 0x1E5E JUMPI PUSH1 0x40 MLOAD PUSH3 0x461BCD PUSH1 0xE5 SHL DUP2 MSTORE PUSH1 0x20 PUSH1 0x4 DUP3 ADD MSTORE PUSH1 0x11 PUSH1 0x24 DUP3 ADD MSTORE PUSH17 0x14DA59DB985D1D5C9948195E1C1A5C9959 PUSH1 0x7A SHL PUSH1 0x44 DUP3 ADD MSTORE PUSH1 0x64 ADD PUSH2 0x8FA JUMP JUMPDEST PUSH1 0x40 MLOAD PUSH32 0x19457468657265756D205369676E6564204D6573736167653A0A333200000000 PUSH1 0x20 DUP3 ADD MSTORE PUSH1 0x3C DUP2 ADD DUP8 SWAP1 MSTORE PUSH0 SWAP1 PUSH1 0x5C ADD PUSH1 0x40 DUP1 MLOAD PUSH1 0x1F NOT DUP2 DUP5 SUB ADD DUP2 MSTORE DUP3 DUP3 MSTORE DUP1 MLOAD PUSH1 0x20 SWAP2 DUP3 ADD KECCAK256 PUSH0 DUP1 DUP6 MSTORE SWAP2 DUP5 ADD DUP1 DUP5 MSTORE DUP2 SWAP1 MSTORE PUSH1 0xFF DUP11 AND SWAP3 DUP5 ADD SWAP3 SWAP1 SWAP3 MSTORE PUSH1 0x60 DUP4 ADD DUP9 SWAP1 MSTORE PUSH1 0x80 DUP4 ADD DUP8 SWAP1 MSTORE SWAP1 SWAP3 POP SWAP1 PUSH1 0x1 SWAP1 PUSH1 0xA0 ADD PUSH1 0x20 PUSH1 0x40 MLOAD PUSH1 0x20 DUP2 SUB SWAP1 DUP1 DUP5 SUB SWAP1 DUP6 GAS STATICCALL ISZERO DUP1 ISZERO PUSH2 0x1EFB JUMPI RETURNDATASIZE PUSH0 PUSH0 RETURNDATACOPY RETURNDATASIZE PUSH0 REVERT JUMPDEST POP POP PUSH1 0x40 MLOAD PUSH1 0x1F NOT ADD MLOAD PUSH1 0x5 SLOAD PUSH1 0x1 PUSH1 0x1 PUSH1 0xA0 SHL SUB SWAP1 DUP2 AND SWAP2 AND EQ SWAP10 SWAP9 POP POP POP POP POP POP POP POP POP JUMP JUMPDEST PUSH0 SLOAD PUSH1 0x1 PUSH1 0xA0 SHL SWAP1 DIV PUSH1 0xFF AND PUSH2 0x90B JUMPI PUSH1 0x40 MLOAD PUSH3 0x461BCD PUSH1 0xE5 SHL DUP2 MSTORE PUSH1 0x20 PUSH1 0x4 DUP3 ADD MSTORE PUSH1 0x14 PUSH1 0x24 DUP3 ADD MSTORE PUSH20 0x14185D5CD8589B194E881B9BDD081C185D5CD959 PUSH1 0x62 SHL PUSH1 0x44 DUP3 ADD MSTORE PUSH1 0x64 ADD PUSH2 0x8FA JUMP JUMPDEST PUSH0 SLOAD PUSH1 0x1 PUSH1 0xA0 SHL SWAP1 DIV PUSH1 0xFF AND ISZERO PUSH2 0x90B JUMPI PUSH1 0x40 MLOAD PUSH3 0x461BCD PUSH1 0xE5 SHL DUP2 MSTORE PUSH1 0x20 PUSH1 0x4 DUP3 ADD MSTORE PUSH1 0x10 PUSH1 0x24 DUP3 ADD MSTORE PUSH16 0x14185D5CD8589B194E881C185D5CD959 PUSH1 0x82 SHL PUSH1 0x44 DUP3 ADD MSTORE PUSH1 0x64 ADD PUSH2 0x8FA JUMP JUMPDEST PUSH0 PUSH1 0x20 DUP3 DUP5 SUB SLT ISZERO PUSH2 0x1FCE JUMPI PUSH0 PUSH0 REVERT JUMPDEST POP CALLDATALOAD SWAP2 SWAP1 POP JUMP JUMPDEST PUSH1 0x1 PUSH1 0x1 PUSH1 0xA0 SHL SUB DUP2 AND DUP2 EQ PUSH2 0x18FB JUMPI PUSH0 PUSH0 REVERT JUMPDEST PUSH0 PUSH0 PUSH1 0x40 DUP4 DUP6 SUB SLT ISZERO PUSH2 0x1FFA JUMPI PUSH0 PUSH0 REVERT JUMPDEST DUP3 CALLDATALOAD PUSH2 0x2005 DUP2 PUSH2 0x1FD5 JUMP JUMPDEST SWAP2 POP PUSH1 0x20 DUP4 ADD CALLDATALOAD PUSH2 0x2015 DUP2 PUSH2 0x1FD5 JUMP JUMPDEST DUP1 SWAP2 POP POP SWAP3 POP SWAP3 SWAP1 POP JUMP JUMPDEST PUSH0 PUSH1 0x20 DUP3 DUP5 SUB SLT ISZERO PUSH2 0x2030 JUMPI PUSH0 PUSH0 REVERT JUMPDEST DUP2 CALLDATALOAD PUSH2 0x203B DUP2 PUSH2 0x1FD5 JUMP JUMPDEST SWAP4 SWAP3 POP POP POP JUMP JUMPDEST PUSH0 PUSH0 PUSH0 PUSH1 0x60 DUP5 DUP7 SUB SLT ISZERO PUSH2 0x2054 JUMPI PUSH0 PUSH0 REVERT JUMPDEST DUP4 CALLDATALOAD PUSH2 0x205F DUP2 PUSH2 0x1FD5 JUMP JUMPDEST SWAP6 PUSH1 0x20 DUP6 ADD CALLDATALOAD SWAP6 POP PUSH1 0x40 SWAP1 SWAP5 ADD CALLDATALOAD SWAP4 SWAP3 POP POP POP JUMP JUMPDEST DUP1 CALLDATALOAD PUSH2 0x207F DUP2 PUSH2 0x1FD5 JUMP JUMPDEST SWAP2 SWAP1 POP JUMP JUMPDEST PUSH0 PUSH0 PUSH1 0x40 DUP4 DUP6 SUB SLT ISZERO PUSH2 0x2095 JUMPI PUSH0 PUSH0 REVERT JUMPDEST DUP3 CALLDATALOAD SWAP2 POP PUSH1 0x20 DUP4 ADD CALLDATALOAD PUSH2 0x2015 DUP2 PUSH2 0x1FD5 JUMP JUMPDEST PUSH4 0x4E487B71 PUSH1 0xE0 SHL PUSH0 MSTORE PUSH1 0x41 PUSH1 0x4 MSTORE PUSH1 0x24 PUSH0 REVERT JUMPDEST PUSH1 0x40 MLOAD PUSH1 0x1F DUP3 ADD PUSH1 0x1F NOT AND DUP2 ADD PUSH8 0xFFFFFFFFFFFFFFFF DUP2 GT DUP3 DUP3 LT OR ISZERO PUSH2 0x20E4 JUMPI PUSH2 0x20E4 PUSH2 0x20A7 JUMP JUMPDEST PUSH1 0x40 MSTORE SWAP2 SWAP1 POP JUMP JUMPDEST PUSH0 PUSH8 0xFFFFFFFFFFFFFFFF DUP3 GT ISZERO PUSH2 0x2105 JUMPI PUSH2 0x2105 PUSH2 0x20A7 JUMP JUMPDEST POP PUSH1 0x5 SHL PUSH1 0x20 ADD SWAP1 JUMP JUMPDEST PUSH0 DUP3 PUSH1 0x1F DUP4 ADD SLT PUSH2 0x211E JUMPI PUSH0 PUSH0 REVERT JUMPDEST DUP2 CALLDATALOAD PUSH2 0x2131 PUSH2 0x212C DUP3 PUSH2 0x20EC JUMP JUMPDEST PUSH2 0x20BB JUMP JUMPDEST DUP1 DUP3 DUP3 MSTORE PUSH1 0x20 DUP3 ADD SWAP2 POP PUSH1 0x20 DUP4 PUSH1 0x5 SHL DUP7 ADD ADD SWAP3 POP DUP6 DUP4 GT ISZERO PUSH2 0x2152 JUMPI PUSH0 PUSH0 REVERT JUMPDEST PUSH1 0x20 DUP6 ADD JUMPDEST DUP4 DUP2 LT ISZERO PUSH2 0x216F JUMPI DUP1 CALLDATALOAD DUP4 MSTORE PUSH1 0x20 SWAP3 DUP4 ADD SWAP3 ADD PUSH2 0x2157 JUMP JUMPDEST POP SWAP6 SWAP5 POP POP POP POP POP JUMP JUMPDEST PUSH0 PUSH0 PUSH0 PUSH0 PUSH1 0x80 DUP6 DUP8 SUB SLT ISZERO PUSH2 0x218C JUMPI PUSH0 PUSH0 REVERT JUMPDEST DUP5 CALLDATALOAD PUSH8 0xFFFFFFFFFFFFFFFF DUP2 GT ISZERO PUSH2 0x21A2 JUMPI PUSH0 PUSH0 REVERT JUMPDEST DUP6 ADD PUSH1 0x1F DUP2 ADD DUP8 SGT PUSH2 0x21B2 JUMPI PUSH0 PUSH0 REVERT JUMPDEST DUP1 CALLDATALOAD PUSH2 0x21C0 PUSH2 0x212C DUP3 PUSH2 0x20EC JUMP JUMPDEST DUP1 DUP3 DUP3 MSTORE PUSH1 0x20 DUP3 ADD SWAP2 POP PUSH1 0x20 DUP4 PUSH1 0x5 SHL DUP6 ADD ADD SWAP3 POP DUP10 DUP4 GT ISZERO PUSH2 0x21E1 JUMPI PUSH0 PUSH0 REVERT JUMPDEST PUSH1 0x20 DUP5 ADD SWAP4 POP JUMPDEST DUP3 DUP5 LT ISZERO PUSH2 0x220C JUMPI DUP4 CALLDATALOAD PUSH2 0x21FB DUP2 PUSH2 0x1FD5 JUMP JUMPDEST DUP3 MSTORE PUSH1 0x20 SWAP4 DUP5 ADD SWAP4 SWAP1 SWAP2 ADD SWAP1 PUSH2 0x21E8 JUMP JUMPDEST SWAP7 POP POP POP POP PUSH1 0x20 DUP6 ADD CALLDATALOAD PUSH8 0xFFFFFFFFFFFFFFFF DUP2 GT ISZERO PUSH2 0x222A JUMPI PUSH0 PUSH0 REVERT JUMPDEST PUSH2 0x2236 DUP8 DUP3 DUP9 ADD PUSH2 0x210F JUMP JUMPDEST SWAP4 POP POP PUSH1 0x40 DUP6 ADD CALLDATALOAD SWAP2 POP PUSH2 0x224C PUSH1 0x60 DUP7 ADD PUSH2 0x2074 JUMP JUMPDEST SWAP1 POP SWAP3 SWAP6 SWAP2 SWAP5 POP SWAP3 POP JUMP JUMPDEST PUSH0 DUP2 MLOAD DUP1 DUP5 MSTORE DUP1 PUSH1 0x20 DUP5 ADD PUSH1 0x20 DUP7 ADD MCOPY PUSH0 PUSH1 0x20 DUP3 DUP7 ADD ADD MSTORE PUSH1 0x20 PUSH1 0x1F NOT PUSH1 0x1F DUP4 ADD AND DUP6 ADD ADD SWAP2 POP POP SWAP3 SWAP2 POP POP JUMP JUMPDEST DUP6 DUP2 MSTORE DUP5 PUSH1 0x20 DUP3 ADD MSTORE DUP4 PUSH1 0x40 DUP3 ADD MSTORE DUP3 PUSH1 0x60 DUP3 ADD MSTORE PUSH1 0xA0 PUSH1 0x80 DUP3 ADD MSTORE PUSH0 PUSH2 0x22AF PUSH1 0xA0 DUP4 ADD DUP5 PUSH2 0x2257 JUMP JUMPDEST SWAP8 SWAP7 POP POP POP POP POP POP POP JUMP JUMPDEST PUSH0 PUSH0 PUSH0 PUSH1 0x60 DUP5 DUP7 SUB SLT ISZERO PUSH2 0x22CC JUMPI PUSH0 PUSH0 REVERT JUMPDEST DUP4 CALLDATALOAD SWAP3 POP PUSH1 0x20 DUP5 ADD CALLDATALOAD SWAP2 POP PUSH1 0x40 DUP5 ADD CALLDATALOAD PUSH2 0x22E5 DUP2 PUSH2 0x1FD5 JUMP JUMPDEST DUP1 SWAP2 POP POP SWAP3 POP SWAP3 POP SWAP3 JUMP JUMPDEST PUSH0 PUSH0 PUSH0 PUSH0 PUSH0 PUSH1 0xA0 DUP7 DUP9 SUB SLT ISZERO PUSH2 0x2304 JUMPI PUSH0 PUSH0 REVERT JUMPDEST DUP6 CALLDATALOAD SWAP5 POP PUSH1 0x20 DUP7 ADD CALLDATALOAD PUSH1 0xFF DUP2 AND DUP2 EQ PUSH2 0x231B JUMPI PUSH0 PUSH0 REVERT JUMPDEST SWAP5 SWAP8 SWAP5 SWAP7 POP POP POP POP PUSH1 0x40 DUP4 ADD CALLDATALOAD SWAP3 PUSH1 0x60 DUP2 ADD CALLDATALOAD SWAP3 PUSH1 0x80 SWAP1 SWAP2 ADD CALLDATALOAD SWAP2 POP JUMP JUMPDEST PUSH1 0x20 DUP1 DUP3 MSTORE PUSH1 0x21 SWAP1 DUP3 ADD MSTORE PUSH32 0x466F7262696464656E21204F6E6C79204F70657261746F722043616E2043616C PUSH1 0x40 DUP3 ADD MSTORE PUSH1 0x1B PUSH1 0xFA SHL PUSH1 0x60 DUP3 ADD MSTORE PUSH1 0x80 ADD SWAP1 JUMP JUMPDEST PUSH1 0x1 DUP2 DUP2 SHR SWAP1 DUP3 AND DUP1 PUSH2 0x238E JUMPI PUSH1 0x7F DUP3 AND SWAP2 POP JUMPDEST PUSH1 0x20 DUP3 LT DUP2 SUB PUSH2 0x23AC JUMPI PUSH4 0x4E487B71 PUSH1 0xE0 SHL PUSH0 MSTORE PUSH1 0x22 PUSH1 0x4 MSTORE PUSH1 0x24 PUSH0 REVERT JUMPDEST POP SWAP2 SWAP1 POP JUMP JUMPDEST PUSH1 0x1F DUP3 GT ISZERO PUSH2 0x1097 JUMPI DUP1 PUSH0 MSTORE PUSH1 0x20 PUSH0 KECCAK256 PUSH1 0x1F DUP5 ADD PUSH1 0x5 SHR DUP2 ADD PUSH1 0x20 DUP6 LT ISZERO PUSH2 0x23D7 JUMPI POP DUP1 JUMPDEST PUSH1 0x1F DUP5 ADD PUSH1 0x5 SHR DUP3 ADD SWAP2 POP JUMPDEST DUP2 DUP2 LT ISZERO PUSH2 0x1ACF JUMPI PUSH0 DUP2 SSTORE PUSH1 0x1 ADD PUSH2 0x23E3 JUMP JUMPDEST DUP2 MLOAD PUSH8 0xFFFFFFFFFFFFFFFF DUP2 GT ISZERO PUSH2 0x2410 JUMPI PUSH2 0x2410 PUSH2 0x20A7 JUMP JUMPDEST PUSH2 0x2424 DUP2 PUSH2 0x241E DUP5 SLOAD PUSH2 0x237A JUMP JUMPDEST DUP5 PUSH2 0x23B2 JUMP JUMPDEST PUSH1 0x20 PUSH1 0x1F DUP3 GT PUSH1 0x1 DUP2 EQ PUSH2 0x2456 JUMPI PUSH0 DUP4 ISZERO PUSH2 0x243F JUMPI POP DUP5 DUP3 ADD MLOAD JUMPDEST PUSH0 NOT PUSH1 0x3 DUP6 SWAP1 SHL SHR NOT AND PUSH1 0x1 DUP5 SWAP1 SHL OR DUP5 SSTORE PUSH2 0x1ACF JUMP JUMPDEST PUSH0 DUP5 DUP2 MSTORE PUSH1 0x20 DUP2 KECCAK256 PUSH1 0x1F NOT DUP6 AND SWAP2 JUMPDEST DUP3 DUP2 LT ISZERO PUSH2 0x2485 JUMPI DUP8 DUP6 ADD MLOAD DUP3 SSTORE PUSH1 0x20 SWAP5 DUP6 ADD SWAP5 PUSH1 0x1 SWAP1 SWAP3 ADD SWAP2 ADD PUSH2 0x2465 JUMP JUMPDEST POP DUP5 DUP3 LT ISZERO PUSH2 0x24A2 JUMPI DUP7 DUP5 ADD MLOAD PUSH0 NOT PUSH1 0x3 DUP8 SWAP1 SHL PUSH1 0xF8 AND SHR NOT AND DUP2 SSTORE JUMPDEST POP POP POP POP PUSH1 0x1 SWAP1 DUP2 SHL ADD SWAP1 SSTORE POP JUMP JUMPDEST PUSH4 0x4E487B71 PUSH1 0xE0 SHL PUSH0 MSTORE PUSH1 0x32 PUSH1 0x4 MSTORE PUSH1 0x24 PUSH0 REVERT JUMPDEST PUSH4 0x4E487B71 PUSH1 0xE0 SHL PUSH0 MSTORE PUSH1 0x11 PUSH1 0x4 MSTORE PUSH1 0x24 PUSH0 REVERT JUMPDEST PUSH0 PUSH1 0x1 DUP3 ADD PUSH2 0x24EA JUMPI PUSH2 0x24EA PUSH2 0x24C5 JUMP JUMPDEST POP PUSH1 0x1 ADD SWAP1 JUMP JUMPDEST DUP1 DUP3 MUL DUP2 ISZERO DUP3 DUP3 DIV DUP5 EQ OR PUSH2 0x2508 JUMPI PUSH2 0x2508 PUSH2 0x24C5 JUMP JUMPDEST SWAP3 SWAP2 POP POP JUMP JUMPDEST PUSH0 PUSH1 0x20 DUP3 DUP5 SUB SLT ISZERO PUSH2 0x251E JUMPI PUSH0 PUSH0 REVERT JUMPDEST DUP2 MLOAD DUP1 ISZERO ISZERO DUP2 EQ PUSH2 0x203B JUMPI PUSH0 PUSH0 REVERT JUMPDEST DUP2 DUP2 SUB DUP2 DUP2 GT ISZERO PUSH2 0x2508 JUMPI PUSH2 0x2508 PUSH2 0x24C5 JUMP JUMPDEST PUSH0 DUP3 PUSH2 0x255A JUMPI PUSH4 0x4E487B71 PUSH1 0xE0 SHL PUSH0 MSTORE PUSH1 0x12 PUSH1 0x4 MSTORE PUSH1 0x24 PUSH0 REVERT JUMPDEST POP DIV SWAP1 JUMP JUMPDEST DUP5 DUP2 MSTORE DUP4 PUSH1 0x20 DUP3 ADD MSTORE PUSH1 0xA0 PUSH1 0x40 DUP3 ADD MSTORE PUSH1 0x5 PUSH1 0xA0 DUP3 ADD MSTORE PUSH5 0x7374445343 PUSH1 0xD8 SHL PUSH1 0xC0 DUP3 ADD MSTORE PUSH1 0xE0 PUSH1 0x60 DUP3 ADD MSTORE PUSH0 PUSH2 0x2599 PUSH1 0xE0 DUP4 ADD DUP6 PUSH2 0x2257 JUMP JUMPDEST SWAP1 POP DUP3 PUSH1 0x80 DUP4 ADD MSTORE SWAP6 SWAP5 POP POP POP POP POP JUMP JUMPDEST DUP1 DUP3 ADD DUP1 DUP3 GT ISZERO PUSH2 0x2508 JUMPI PUSH2 0x2508 PUSH2 0x24C5 JUMP JUMPDEST DUP4 DUP2 MSTORE DUP3 PUSH1 0x20 DUP3 ADD MSTORE PUSH1 0x60 PUSH1 0x40 DUP3 ADD MSTORE PUSH0 PUSH2 0x25DB PUSH1 0x60 DUP4 ADD DUP5 PUSH2 0x2257 JUMP JUMPDEST SWAP6 SWAP5 POP POP POP POP POP JUMP INVALID LOG0 CODESIZE CALLDATACOPY LOG2 MSTORE LT RETURNCONTRACT 0x28 0xC 0x21 SGT SELFDESTRUCT 0x4B PUSH24 0xCA23440B19D4866CCA721C801278FD08D809A03837A25210 RETURNCONTRACT 0x28 0xC 0x21 SGT SELFDESTRUCT 0x4B PUSH24 0xCA23440B19D4866CCA721C801278FD08D807A03837A25210 RETURNCONTRACT 0x28 0xC 0x21 SGT SELFDESTRUCT 0x4B PUSH24 0xCA23440B19D4866CCA721C801278FD08D80AA03837A25210 RETURNCONTRACT 0x28 0xC 0x21 SGT SELFDESTRUCT 0x4B PUSH24 0xCA23440B19D4866CCA721C801278FD08D80BA03837A25210 RETURNCONTRACT 0x28 0xC 0x21 SGT SELFDESTRUCT 0x4B PUSH24 0xCA23440B19D4866CCA721C801278FD08D808A26469706673 PC 0x22 SLT KECCAK256 SWAP5 0xB0 PUSH6 0xF5A4472DE419 JUMPI PC SLT PUSH0 0xD8 BLOCKHASH SWAP2 PUSH28 0xCC6C26B364BA8A88ED6C893A6857E064736F6C634300081E00330000 "
				},
				"gasEstimates": {
					"creation": {
						"codeDepositCost": "1982800",
						"executionCost": "24202",
						"totalCost": "2007002"
					},
					"external": {
						"LASTLEVEL()": "2418",
						"PERCENT_DIVIDER()": "2374",
						"TIME_STEP()": "2329",
						"USDT()": "2491",
						"UnitySign()": "2469",
						"admin()": "2446",
						"adminAchivers(uint256)": "4655",
						"airdropAmount()": "2437",
						"airdropLevelShares(uint256)": "4608",
						"airdropPerMonth()": "2395",
						"airdropUserCount()": "2352",
						"getWithdrawHash(address,uint256,uint256)": "3015",
						"idToAddress(uint256)": "2587",
						"initialize(address,address)": "infinite",
						"isAdminAchived(address)": "2634",
						"isAirdropPaused()": "2354",
						"isUserExists(address)": "2608",
						"joiningFee()": "2350",
						"lastUserId()": "2351",
						"levelBonusShares(uint256)": "4651",
						"levelRoiPerDay()": "2394",
						"levelShare(uint256)": "2580",
						"maxStake()": "2438",
						"minStake()": "2373",
						"minWithdraw()": "2350",
						"multipler()": "2350",
						"multisendToken(address[],uint256[],uint256,address)": "infinite",
						"nonce(address)": "2588",
						"operator()": "2426",
						"owner()": "2374",
						"packageMinAmounts(uint256)": "2557",
						"packages(uint256)": "infinite",
						"pause()": "infinite",
						"paused()": "2475",
						"renounceOwnership()": "infinite",
						"roiPerDay()": "2416",
						"setUnitySignWallet(address)": "26881",
						"stakestDSC(uint256,uint256,address)": "infinite",
						"totalStaked()": "2351",
						"totalWithdrawal()": "2328",
						"transferOwnership(address)": "infinite",
						"unpause()": "infinite",
						"users(address)": "26125",
						"withdrawLost(uint256)": "infinite",
						"withdrawLostTokenFromBalance(uint256,address)": "infinite",
						"withdrawWeeklyReward(uint256,uint8,bytes32,bytes32,uint256)": "infinite"
					},
					"internal": {
						"registration(address,address,string memory)": "infinite",
						"sendLevelIncome(address,uint256)": "infinite",
						"verifySignatureWithDeadline(bytes32,uint8,bytes32,bytes32,uint256)": "infinite"
					}
				},
				"methodIdentifiers": {
					"LASTLEVEL()": "2dd4f9b0",
					"PERCENT_DIVIDER()": "29fc7bd8",
					"TIME_STEP()": "32bc298c",
					"USDT()": "c54e44eb",
					"UnitySign()": "71747dc5",
					"admin()": "f851a440",
					"adminAchivers(uint256)": "eff4228a",
					"airdropAmount()": "fc2ea8a5",
					"airdropLevelShares(uint256)": "02121272",
					"airdropPerMonth()": "383143e5",
					"airdropUserCount()": "0da5a1b7",
					"getWithdrawHash(address,uint256,uint256)": "5abca48d",
					"idToAddress(uint256)": "2a2d0c47",
					"initialize(address,address)": "485cc955",
					"isAdminAchived(address)": "578013e0",
					"isAirdropPaused()": "ca33fa3f",
					"isUserExists(address)": "509222cd",
					"joiningFee()": "6eeeaaa5",
					"lastUserId()": "348d4487",
					"levelBonusShares(uint256)": "82f4c6a6",
					"levelRoiPerDay()": "d8a04dfa",
					"levelShare(uint256)": "452b4729",
					"maxStake()": "ea1b28e0",
					"minStake()": "375b3c0a",
					"minWithdraw()": "cc3d2721",
					"multipler()": "99f584b3",
					"multisendToken(address[],uint256[],uint256,address)": "84412cc7",
					"nonce(address)": "70ae92d2",
					"operator()": "570ca735",
					"owner()": "8da5cb5b",
					"packageMinAmounts(uint256)": "c2685793",
					"packages(uint256)": "c216212a",
					"pause()": "8456cb59",
					"paused()": "5c975abb",
					"renounceOwnership()": "715018a6",
					"roiPerDay()": "dc43f0e6",
					"setUnitySignWallet(address)": "73a5028a",
					"stakestDSC(uint256,uint256,address)": "d58ea276",
					"totalStaked()": "817b1cd2",
					"totalWithdrawal()": "6b56ee02",
					"transferOwnership(address)": "f2fde38b",
					"unpause()": "3f4ba83a",
					"users(address)": "a87430ba",
					"withdrawLost(uint256)": "f3b2aa94",
					"withdrawLostTokenFromBalance(uint256,address)": "7b500564",
					"withdrawWeeklyReward(uint256,uint8,bytes32,bytes32,uint256)": "fa13a304"
				}
			},
			"storageLayout": {
				"storage": [
					{
						"astId": 124,
						"contract": "profxexpo.sol:PROFXEXPO",
						"label": "_owner",
						"offset": 0,
						"slot": "0",
						"type": "t_address"
					},
					{
						"astId": 322,
						"contract": "profxexpo.sol:PROFXEXPO",
						"label": "_paused",
						"offset": 20,
						"slot": "0",
						"type": "t_bool"
					},
					{
						"astId": 82,
						"contract": "profxexpo.sol:PROFXEXPO",
						"label": "_initialized",
						"offset": 21,
						"slot": "0",
						"type": "t_bool"
					},
					{
						"astId": 84,
						"contract": "profxexpo.sol:PROFXEXPO",
						"label": "_initializing",
						"offset": 22,
						"slot": "0",
						"type": "t_bool"
					},
					{
						"astId": 28,
						"contract": "profxexpo.sol:PROFXEXPO",
						"label": "_status",
						"offset": 0,
						"slot": "1",
						"type": "t_uint256"
					},
					{
						"astId": 442,
						"contract": "profxexpo.sol:PROFXEXPO",
						"label": "admin",
						"offset": 0,
						"slot": "2",
						"type": "t_address"
					},
					{
						"astId": 444,
						"contract": "profxexpo.sol:PROFXEXPO",
						"label": "operator",
						"offset": 0,
						"slot": "3",
						"type": "t_address"
					},
					{
						"astId": 446,
						"contract": "profxexpo.sol:PROFXEXPO",
						"label": "USDT",
						"offset": 0,
						"slot": "4",
						"type": "t_address"
					},
					{
						"astId": 448,
						"contract": "profxexpo.sol:PROFXEXPO",
						"label": "UnitySign",
						"offset": 0,
						"slot": "5",
						"type": "t_address"
					},
					{
						"astId": 450,
						"contract": "profxexpo.sol:PROFXEXPO",
						"label": "levelRoiPerDay",
						"offset": 0,
						"slot": "6",
						"type": "t_uint256"
					},
					{
						"astId": 452,
						"contract": "profxexpo.sol:PROFXEXPO",
						"label": "roiPerDay",
						"offset": 0,
						"slot": "7",
						"type": "t_uint256"
					},
					{
						"astId": 454,
						"contract": "profxexpo.sol:PROFXEXPO",
						"label": "multipler",
						"offset": 0,
						"slot": "8",
						"type": "t_uint256"
					},
					{
						"astId": 456,
						"contract": "profxexpo.sol:PROFXEXPO",
						"label": "minWithdraw",
						"offset": 0,
						"slot": "9",
						"type": "t_uint256"
					},
					{
						"astId": 458,
						"contract": "profxexpo.sol:PROFXEXPO",
						"label": "joiningFee",
						"offset": 0,
						"slot": "10",
						"type": "t_uint256"
					},
					{
						"astId": 460,
						"contract": "profxexpo.sol:PROFXEXPO",
						"label": "minStake",
						"offset": 0,
						"slot": "11",
						"type": "t_uint256"
					},
					{
						"astId": 462,
						"contract": "profxexpo.sol:PROFXEXPO",
						"label": "maxStake",
						"offset": 0,
						"slot": "12",
						"type": "t_uint256"
					},
					{
						"astId": 464,
						"contract": "profxexpo.sol:PROFXEXPO",
						"label": "airdropUserCount",
						"offset": 0,
						"slot": "13",
						"type": "t_uint256"
					},
					{
						"astId": 466,
						"contract": "profxexpo.sol:PROFXEXPO",
						"label": "airdropAmount",
						"offset": 0,
						"slot": "14",
						"type": "t_uint256"
					},
					{
						"astId": 468,
						"contract": "profxexpo.sol:PROFXEXPO",
						"label": "airdropPerMonth",
						"offset": 0,
						"slot": "15",
						"type": "t_uint256"
					},
					{
						"astId": 470,
						"contract": "profxexpo.sol:PROFXEXPO",
						"label": "isAirdropPaused",
						"offset": 0,
						"slot": "16",
						"type": "t_bool"
					},
					{
						"astId": 472,
						"contract": "profxexpo.sol:PROFXEXPO",
						"label": "TIME_STEP",
						"offset": 0,
						"slot": "17",
						"type": "t_uint256"
					},
					{
						"astId": 474,
						"contract": "profxexpo.sol:PROFXEXPO",
						"label": "lastUserId",
						"offset": 0,
						"slot": "18",
						"type": "t_uint256"
					},
					{
						"astId": 476,
						"contract": "profxexpo.sol:PROFXEXPO",
						"label": "PERCENT_DIVIDER",
						"offset": 0,
						"slot": "19",
						"type": "t_uint256"
					},
					{
						"astId": 478,
						"contract": "profxexpo.sol:PROFXEXPO",
						"label": "LASTLEVEL",
						"offset": 0,
						"slot": "20",
						"type": "t_uint256"
					},
					{
						"astId": 480,
						"contract": "profxexpo.sol:PROFXEXPO",
						"label": "totalStaked",
						"offset": 0,
						"slot": "21",
						"type": "t_uint256"
					},
					{
						"astId": 482,
						"contract": "profxexpo.sol:PROFXEXPO",
						"label": "totalWithdrawal",
						"offset": 0,
						"slot": "22",
						"type": "t_uint256"
					},
					{
						"astId": 485,
						"contract": "profxexpo.sol:PROFXEXPO",
						"label": "levelBonusShares",
						"offset": 0,
						"slot": "23",
						"type": "t_array(t_uint256)dyn_storage"
					},
					{
						"astId": 488,
						"contract": "profxexpo.sol:PROFXEXPO",
						"label": "airdropLevelShares",
						"offset": 0,
						"slot": "24",
						"type": "t_array(t_uint256)dyn_storage"
					},
					{
						"astId": 491,
						"contract": "profxexpo.sol:PROFXEXPO",
						"label": "adminAchivers",
						"offset": 0,
						"slot": "25",
						"type": "t_array(t_address)dyn_storage"
					},
					{
						"astId": 495,
						"contract": "profxexpo.sol:PROFXEXPO",
						"label": "levelShare",
						"offset": 0,
						"slot": "26",
						"type": "t_mapping(t_uint256,t_uint256)"
					},
					{
						"astId": 499,
						"contract": "profxexpo.sol:PROFXEXPO",
						"label": "isAdminAchived",
						"offset": 0,
						"slot": "27",
						"type": "t_mapping(t_address,t_bool)"
					},
					{
						"astId": 504,
						"contract": "profxexpo.sol:PROFXEXPO",
						"label": "users",
						"offset": 0,
						"slot": "28",
						"type": "t_mapping(t_address,t_struct(User)429_storage)"
					},
					{
						"astId": 508,
						"contract": "profxexpo.sol:PROFXEXPO",
						"label": "idToAddress",
						"offset": 0,
						"slot": "29",
						"type": "t_mapping(t_uint256,t_address)"
					},
					{
						"astId": 512,
						"contract": "profxexpo.sol:PROFXEXPO",
						"label": "nonce",
						"offset": 0,
						"slot": "30",
						"type": "t_mapping(t_address,t_uint256)"
					},
					{
						"astId": 516,
						"contract": "profxexpo.sol:PROFXEXPO",
						"label": "packages",
						"offset": 0,
						"slot": "31",
						"type": "t_array(t_struct(Package)440_storage)dyn_storage"
					},
					{
						"astId": 520,
						"contract": "profxexpo.sol:PROFXEXPO",
						"label": "packageMinAmounts",
						"offset": 0,
						"slot": "32",
						"type": "t_mapping(t_uint256,t_uint256)"
					}
				],
				"types": {
					"t_address": {
						"encoding": "inplace",
						"label": "address",
						"numberOfBytes": "20"
					},
					"t_array(t_address)dyn_storage": {
						"base": "t_address",
						"encoding": "dynamic_array",
						"label": "address[]",
						"numberOfBytes": "32"
					},
					"t_array(t_struct(Package)440_storage)dyn_storage": {
						"base": "t_struct(Package)440_storage",
						"encoding": "dynamic_array",
						"label": "struct PROFXEXPO.Package[]",
						"numberOfBytes": "32"
					},
					"t_array(t_uint256)dyn_storage": {
						"base": "t_uint256",
						"encoding": "dynamic_array",
						"label": "uint256[]",
						"numberOfBytes": "32"
					},
					"t_bool": {
						"encoding": "inplace",
						"label": "bool",
						"numberOfBytes": "1"
					},
					"t_mapping(t_address,t_bool)": {
						"encoding": "mapping",
						"key": "t_address",
						"label": "mapping(address => bool)",
						"numberOfBytes": "32",
						"value": "t_bool"
					},
					"t_mapping(t_address,t_struct(User)429_storage)": {
						"encoding": "mapping",
						"key": "t_address",
						"label": "mapping(address => struct PROFXEXPO.User)",
						"numberOfBytes": "32",
						"value": "t_struct(User)429_storage"
					},
					"t_mapping(t_address,t_uint256)": {
						"encoding": "mapping",
						"key": "t_address",
						"label": "mapping(address => uint256)",
						"numberOfBytes": "32",
						"value": "t_uint256"
					},
					"t_mapping(t_uint256,t_address)": {
						"encoding": "mapping",
						"key": "t_uint256",
						"label": "mapping(uint256 => address)",
						"numberOfBytes": "32",
						"value": "t_address"
					},
					"t_mapping(t_uint256,t_uint256)": {
						"encoding": "mapping",
						"key": "t_uint256",
						"label": "mapping(uint256 => uint256)",
						"numberOfBytes": "32",
						"value": "t_uint256"
					},
					"t_string_storage": {
						"encoding": "bytes",
						"label": "string",
						"numberOfBytes": "32"
					},
					"t_struct(Package)440_storage": {
						"encoding": "inplace",
						"label": "struct PROFXEXPO.Package",
						"members": [
							{
								"astId": 431,
								"contract": "profxexpo.sol:PROFXEXPO",
								"label": "packageId",
								"offset": 0,
								"slot": "0",
								"type": "t_uint256"
							},
							{
								"astId": 433,
								"contract": "profxexpo.sol:PROFXEXPO",
								"label": "minAmount",
								"offset": 0,
								"slot": "1",
								"type": "t_uint256"
							},
							{
								"astId": 435,
								"contract": "profxexpo.sol:PROFXEXPO",
								"label": "dailyROI",
								"offset": 0,
								"slot": "2",
								"type": "t_uint256"
							},
							{
								"astId": 437,
								"contract": "profxexpo.sol:PROFXEXPO",
								"label": "lockinDuration",
								"offset": 0,
								"slot": "3",
								"type": "t_uint256"
							},
							{
								"astId": 439,
								"contract": "profxexpo.sol:PROFXEXPO",
								"label": "packageName",
								"offset": 0,
								"slot": "4",
								"type": "t_string_storage"
							}
						],
						"numberOfBytes": "160"
					},
					"t_struct(User)429_storage": {
						"encoding": "inplace",
						"label": "struct PROFXEXPO.User",
						"members": [
							{
								"astId": 406,
								"contract": "profxexpo.sol:PROFXEXPO",
								"label": "userId",
								"offset": 0,
								"slot": "0",
								"type": "t_uint256"
							},
							{
								"astId": 408,
								"contract": "profxexpo.sol:PROFXEXPO",
								"label": "referrer",
								"offset": 0,
								"slot": "1",
								"type": "t_address"
							},
							{
								"astId": 410,
								"contract": "profxexpo.sol:PROFXEXPO",
								"label": "partnerCount",
								"offset": 0,
								"slot": "2",
								"type": "t_uint256"
							},
							{
								"astId": 412,
								"contract": "profxexpo.sol:PROFXEXPO",
								"label": "totalStake",
								"offset": 0,
								"slot": "3",
								"type": "t_uint256"
							},
							{
								"astId": 414,
								"contract": "profxexpo.sol:PROFXEXPO",
								"label": "directBusiness",
								"offset": 0,
								"slot": "4",
								"type": "t_uint256"
							},
							{
								"astId": 416,
								"contract": "profxexpo.sol:PROFXEXPO",
								"label": "teamBusiness",
								"offset": 0,
								"slot": "5",
								"type": "t_uint256"
							},
							{
								"astId": 418,
								"contract": "profxexpo.sol:PROFXEXPO",
								"label": "lastinvest",
								"offset": 0,
								"slot": "6",
								"type": "t_uint256"
							},
							{
								"astId": 420,
								"contract": "profxexpo.sol:PROFXEXPO",
								"label": "rewTaken",
								"offset": 0,
								"slot": "7",
								"type": "t_uint256"
							},
							{
								"astId": 422,
								"contract": "profxexpo.sol:PROFXEXPO",
								"label": "stakecount",
								"offset": 0,
								"slot": "8",
								"type": "t_uint256"
							},
							{
								"astId": 424,
								"contract": "profxexpo.sol:PROFXEXPO",
								"label": "partnersCount",
								"offset": 0,
								"slot": "9",
								"type": "t_uint256"
							},
							{
								"astId": 426,
								"contract": "profxexpo.sol:PROFXEXPO",
								"label": "levelIncome",
								"offset": 0,
								"slot": "10",
								"type": "t_uint256"
							},
							{
								"astId": 428,
								"contract": "profxexpo.sol:PROFXEXPO",
								"label": "onof",
								"offset": 0,
								"slot": "11",
								"type": "t_bool"
							}
						],
						"numberOfBytes": "384"
					},
					"t_uint256": {
						"encoding": "inplace",
						"label": "uint256",
						"numberOfBytes": "32"
					}
				}
			},
			"userdoc": {
				"kind": "user",
				"methods": {},
				"version": 1
			}
		}
	}
}