{
	"profxexpo.sol": {
		"DSCSTAKE": {
			"abi": [
				{
					"anonymous": false,
					"inputs": [
						{
							"indexed": true,
							"internalType": "address",
							"name": "investor",
							"type": "address"
						},
						{
							"indexed": false,
							"internalType": "uint256",
							"name": "netAmt",
							"type": "uint256"
						}
					],
					"name": "MemberPayment",
					"type": "event"
				},
				{
					"anonymous": false,
					"inputs": [
						{
							"indexed": true,
							"internalType": "address",
							"name": "previousOwner",
							"type": "address"
						},
						{
							"indexed": true,
							"internalType": "address",
							"name": "newOwner",
							"type": "address"
						}
					],
					"name": "OwnershipTransferred",
					"type": "event"
				},
				{
					"anonymous": false,
					"inputs": [
						{
							"indexed": false,
							"internalType": "address",
							"name": "account",
							"type": "address"
						}
					],
					"name": "Paused",
					"type": "event"
				},
				{
					"anonymous": false,
					"inputs": [
						{
							"indexed": true,
							"internalType": "address",
							"name": "user",
							"type": "address"
						},
						{
							"indexed": true,
							"internalType": "address",
							"name": "referrer",
							"type": "address"
						},
						{
							"indexed": false,
							"internalType": "uint256",
							"name": "userId",
							"type": "uint256"
						},
						{
							"indexed": false,
							"internalType": "uint256",
							"name": "referrerId",
							"type": "uint256"
						},
						{
							"indexed": false,
							"internalType": "string",
							"name": "regby",
							"type": "string"
						}
					],
					"name": "Registration",
					"type": "event"
				},
				{
					"anonymous": false,
					"inputs": [
						{
							"indexed": true,
							"internalType": "address",
							"name": "user",
							"type": "address"
						},
						{
							"indexed": false,
							"internalType": "uint256",
							"name": "amount",
							"type": "uint256"
						},
						{
							"indexed": false,
							"internalType": "uint256",
							"name": "token",
							"type": "uint256"
						},
						{
							"indexed": false,
							"internalType": "string",
							"name": "plan",
							"type": "string"
						},
						{
							"indexed": false,
							"internalType": "string",
							"name": "tyyp",
							"type": "string"
						},
						{
							"indexed": false,
							"internalType": "uint256",
							"name": "plantype",
							"type": "uint256"
						}
					],
					"name": "Stake",
					"type": "event"
				},
				{
					"anonymous": false,
					"inputs": [
						{
							"indexed": true,
							"internalType": "address",
							"name": "user",
							"type": "address"
						},
						{
							"indexed": false,
							"internalType": "uint256",
							"name": "amount",
							"type": "uint256"
						},
						{
							"indexed": false,
							"internalType": "uint256",
							"name": "token",
							"type": "uint256"
						},
						{
							"indexed": false,
							"internalType": "string",
							"name": "plan",
							"type": "string"
						}
					],
					"name": "ToppedUp",
					"type": "event"
				},
				{
					"anonymous": false,
					"inputs": [
						{
							"indexed": false,
							"internalType": "address",
							"name": "account",
							"type": "address"
						}
					],
					"name": "Unpaused",
					"type": "event"
				},
				{
					"inputs": [],
					"name": "DSC",
					"outputs": [
						{
							"internalType": "address",
							"name": "",
							"type": "address"
						}
					],
					"stateMutability": "view",
					"type": "function"
				},
				{
					"inputs": [],
					"name": "LASTLEVEL",
					"outputs": [
						{
							"internalType": "uint256",
							"name": "",
							"type": "uint256"
						}
					],
					"stateMutability": "view",
					"type": "function"
				},
				{
					"inputs": [],
					"name": "PERCENT_DIVIDER",
					"outputs": [
						{
							"internalType": "uint256",
							"name": "",
							"type": "uint256"
						}
					],
					"stateMutability": "view",
					"type": "function"
				},
				{
					"inputs": [],
					"name": "TIME_STEP",
					"outputs": [
						{
							"internalType": "uint256",
							"name": "",
							"type": "uint256"
						}
					],
					"stateMutability": "view",
					"type": "function"
				},
				{
					"inputs": [],
					"name": "USDT",
					"outputs": [
						{
							"internalType": "address",
							"name": "",
							"type": "address"
						}
					],
					"stateMutability": "view",
					"type": "function"
				},
				{
					"inputs": [],
					"name": "admin",
					"outputs": [
						{
							"internalType": "address",
							"name": "",
							"type": "address"
						}
					],
					"stateMutability": "view",
					"type": "function"
				},
				{
					"inputs": [
						{
							"internalType": "uint256",
							"name": "",
							"type": "uint256"
						}
					],
					"name": "adminAchivers",
					"outputs": [
						{
							"internalType": "address",
							"name": "",
							"type": "address"
						}
					],
					"stateMutability": "view",
					"type": "function"
				},
				{
					"inputs": [],
					"name": "airdropAmount",
					"outputs": [
						{
							"internalType": "uint256",
							"name": "",
							"type": "uint256"
						}
					],
					"stateMutability": "view",
					"type": "function"
				},
				{
					"inputs": [
						{
							"internalType": "uint256",
							"name": "",
							"type": "uint256"
						}
					],
					"name": "airdropLevelShares",
					"outputs": [
						{
							"internalType": "uint256",
							"name": "",
							"type": "uint256"
						}
					],
					"stateMutability": "view",
					"type": "function"
				},
				{
					"inputs": [],
					"name": "airdropPerMonth",
					"outputs": [
						{
							"internalType": "uint256",
							"name": "",
							"type": "uint256"
						}
					],
					"stateMutability": "view",
					"type": "function"
				},
				{
					"inputs": [],
					"name": "airdropUserCount",
					"outputs": [
						{
							"internalType": "uint256",
							"name": "",
							"type": "uint256"
						}
					],
					"stateMutability": "view",
					"type": "function"
				},
				{
					"inputs": [
						{
							"internalType": "address[]",
							"name": "path",
							"type": "address[]"
						}
					],
					"name": "getCurrentPrice",
					"outputs": [
						{
							"internalType": "uint256",
							"name": "",
							"type": "uint256"
						}
					],
					"stateMutability": "view",
					"type": "function"
				},
				{
					"inputs": [
						{
							"internalType": "uint256",
							"name": "amountUsd",
							"type": "uint256"
						}
					],
					"name": "getPriceFromUniswapV2",
					"outputs": [
						{
							"internalType": "uint256",
							"name": "",
							"type": "uint256"
						}
					],
					"stateMutability": "view",
					"type": "function"
				},
				{
					"inputs": [
						{
							"internalType": "uint256",
							"name": "",
							"type": "uint256"
						}
					],
					"name": "idToAddress",
					"outputs": [
						{
							"internalType": "address",
							"name": "",
							"type": "address"
						}
					],
					"stateMutability": "view",
					"type": "function"
				},
				{
					"inputs": [
						{
							"internalType": "address",
							"name": "_usdt",
							"type": "address"
						},
						{
							"internalType": "address",
							"name": "_dsc",
							"type": "address"
						},
						{
							"internalType": "address",
							"name": "_stdsc",
							"type": "address"
						},
						{
							"internalType": "address",
							"name": "_owner",
							"type": "address"
						}
					],
					"name": "initialize",
					"outputs": [],
					"stateMutability": "nonpayable",
					"type": "function"
				},
				{
					"inputs": [
						{
							"internalType": "address",
							"name": "",
							"type": "address"
						}
					],
					"name": "isAdminAchived",
					"outputs": [
						{
							"internalType": "bool",
							"name": "",
							"type": "bool"
						}
					],
					"stateMutability": "view",
					"type": "function"
				},
				{
					"inputs": [],
					"name": "isAirdropPaused",
					"outputs": [
						{
							"internalType": "bool",
							"name": "",
							"type": "bool"
						}
					],
					"stateMutability": "view",
					"type": "function"
				},
				{
					"inputs": [
						{
							"internalType": "address",
							"name": "user",
							"type": "address"
						}
					],
					"name": "isUserExists",
					"outputs": [
						{
							"internalType": "bool",
							"name": "",
							"type": "bool"
						}
					],
					"stateMutability": "view",
					"type": "function"
				},
				{
					"inputs": [],
					"name": "joiningFee",
					"outputs": [
						{
							"internalType": "uint256",
							"name": "",
							"type": "uint256"
						}
					],
					"stateMutability": "view",
					"type": "function"
				},
				{
					"inputs": [],
					"name": "lastUserId",
					"outputs": [
						{
							"internalType": "uint256",
							"name": "",
							"type": "uint256"
						}
					],
					"stateMutability": "view",
					"type": "function"
				},
				{
					"inputs": [
						{
							"internalType": "uint256",
							"name": "",
							"type": "uint256"
						}
					],
					"name": "levelBonusShares",
					"outputs": [
						{
							"internalType": "uint256",
							"name": "",
							"type": "uint256"
						}
					],
					"stateMutability": "view",
					"type": "function"
				},
				{
					"inputs": [],
					"name": "levelRoiPerDay",
					"outputs": [
						{
							"internalType": "uint256",
							"name": "",
							"type": "uint256"
						}
					],
					"stateMutability": "view",
					"type": "function"
				},
				{
					"inputs": [
						{
							"internalType": "uint256",
							"name": "",
							"type": "uint256"
						}
					],
					"name": "levelShare",
					"outputs": [
						{
							"internalType": "uint256",
							"name": "",
							"type": "uint256"
						}
					],
					"stateMutability": "view",
					"type": "function"
				},
				{
					"inputs": [],
					"name": "maxStake",
					"outputs": [
						{
							"internalType": "uint256",
							"name": "",
							"type": "uint256"
						}
					],
					"stateMutability": "view",
					"type": "function"
				},
				{
					"inputs": [],
					"name": "minStake",
					"outputs": [
						{
							"internalType": "uint256",
							"name": "",
							"type": "uint256"
						}
					],
					"stateMutability": "view",
					"type": "function"
				},
				{
					"inputs": [],
					"name": "minWithdraw",
					"outputs": [
						{
							"internalType": "uint256",
							"name": "",
							"type": "uint256"
						}
					],
					"stateMutability": "view",
					"type": "function"
				},
				{
					"inputs": [],
					"name": "multipler",
					"outputs": [
						{
							"internalType": "uint256",
							"name": "",
							"type": "uint256"
						}
					],
					"stateMutability": "view",
					"type": "function"
				},
				{
					"inputs": [
						{
							"internalType": "address payable[]",
							"name": "_contributors",
							"type": "address[]"
						},
						{
							"internalType": "uint256[]",
							"name": "_balances",
							"type": "uint256[]"
						},
						{
							"internalType": "uint256",
							"name": "totalQty",
							"type": "uint256"
						},
						{
							"internalType": "contract IERC20",
							"name": "_TKN",
							"type": "address"
						}
					],
					"name": "multisendToken",
					"outputs": [],
					"stateMutability": "payable",
					"type": "function"
				},
				{
					"inputs": [],
					"name": "operator",
					"outputs": [
						{
							"internalType": "address",
							"name": "",
							"type": "address"
						}
					],
					"stateMutability": "view",
					"type": "function"
				},
				{
					"inputs": [],
					"name": "owner",
					"outputs": [
						{
							"internalType": "address",
							"name": "",
							"type": "address"
						}
					],
					"stateMutability": "view",
					"type": "function"
				},
				{
					"inputs": [],
					"name": "pause",
					"outputs": [],
					"stateMutability": "nonpayable",
					"type": "function"
				},
				{
					"inputs": [],
					"name": "paused",
					"outputs": [
						{
							"internalType": "bool",
							"name": "",
							"type": "bool"
						}
					],
					"stateMutability": "view",
					"type": "function"
				},
				{
					"inputs": [
						{
							"internalType": "address",
							"name": "_user",
							"type": "address"
						},
						{
							"internalType": "address",
							"name": "_referral",
							"type": "address"
						}
					],
					"name": "registerbyDSC",
					"outputs": [],
					"stateMutability": "nonpayable",
					"type": "function"
				},
				{
					"inputs": [
						{
							"internalType": "address",
							"name": "_user",
							"type": "address"
						},
						{
							"internalType": "address",
							"name": "_referral",
							"type": "address"
						}
					],
					"name": "registerbystDSC",
					"outputs": [],
					"stateMutability": "nonpayable",
					"type": "function"
				},
				{
					"inputs": [
						{
							"internalType": "address",
							"name": "_user",
							"type": "address"
						},
						{
							"internalType": "address",
							"name": "_referral",
							"type": "address"
						}
					],
					"name": "registrationUSDT",
					"outputs": [],
					"stateMutability": "nonpayable",
					"type": "function"
				},
				{
					"inputs": [],
					"name": "renounceOwnership",
					"outputs": [],
					"stateMutability": "nonpayable",
					"type": "function"
				},
				{
					"inputs": [],
					"name": "roiPerDay",
					"outputs": [
						{
							"internalType": "uint256",
							"name": "",
							"type": "uint256"
						}
					],
					"stateMutability": "view",
					"type": "function"
				},
				{
					"inputs": [],
					"name": "stDSC",
					"outputs": [
						{
							"internalType": "address",
							"name": "",
							"type": "address"
						}
					],
					"stateMutability": "view",
					"type": "function"
				},
				{
					"inputs": [
						{
							"internalType": "uint256",
							"name": "amount",
							"type": "uint256"
						},
						{
							"internalType": "uint256",
							"name": "plan",
							"type": "uint256"
						},
						{
							"internalType": "address",
							"name": "_referral",
							"type": "address"
						}
					],
					"name": "stakeDSC",
					"outputs": [],
					"stateMutability": "nonpayable",
					"type": "function"
				},
				{
					"inputs": [
						{
							"internalType": "uint256",
							"name": "amount",
							"type": "uint256"
						},
						{
							"internalType": "uint256",
							"name": "plan",
							"type": "uint256"
						},
						{
							"internalType": "address",
							"name": "_referral",
							"type": "address"
						}
					],
					"name": "stakeUSDT",
					"outputs": [],
					"stateMutability": "nonpayable",
					"type": "function"
				},
				{
					"inputs": [
						{
							"internalType": "uint256",
							"name": "amount",
							"type": "uint256"
						},
						{
							"internalType": "uint256",
							"name": "plan",
							"type": "uint256"
						},
						{
							"internalType": "address",
							"name": "_referral",
							"type": "address"
						}
					],
					"name": "stakestDSC",
					"outputs": [],
					"stateMutability": "nonpayable",
					"type": "function"
				},
				{
					"inputs": [],
					"name": "totalStaked",
					"outputs": [
						{
							"internalType": "uint256",
							"name": "",
							"type": "uint256"
						}
					],
					"stateMutability": "view",
					"type": "function"
				},
				{
					"inputs": [],
					"name": "totalWithdrawal",
					"outputs": [
						{
							"internalType": "uint256",
							"name": "",
							"type": "uint256"
						}
					],
					"stateMutability": "view",
					"type": "function"
				},
				{
					"inputs": [
						{
							"internalType": "address",
							"name": "newOwner",
							"type": "address"
						}
					],
					"name": "transferOwnership",
					"outputs": [],
					"stateMutability": "nonpayable",
					"type": "function"
				},
				{
					"inputs": [],
					"name": "uniswapRouter",
					"outputs": [
						{
							"internalType": "contract IUniswapV2Router02",
							"name": "",
							"type": "address"
						}
					],
					"stateMutability": "view",
					"type": "function"
				},
				{
					"inputs": [],
					"name": "unpause",
					"outputs": [],
					"stateMutability": "nonpayable",
					"type": "function"
				},
				{
					"inputs": [
						{
							"internalType": "address",
							"name": "",
							"type": "address"
						}
					],
					"name": "users",
					"outputs": [
						{
							"internalType": "uint256",
							"name": "userId",
							"type": "uint256"
						},
						{
							"internalType": "address",
							"name": "referrer",
							"type": "address"
						},
						{
							"internalType": "uint256",
							"name": "partnerCount",
							"type": "uint256"
						},
						{
							"internalType": "uint256",
							"name": "totalStake",
							"type": "uint256"
						},
						{
							"internalType": "uint256",
							"name": "directBusiness",
							"type": "uint256"
						},
						{
							"internalType": "uint256",
							"name": "teamBusiness",
							"type": "uint256"
						},
						{
							"internalType": "uint256",
							"name": "lastinvest",
							"type": "uint256"
						},
						{
							"internalType": "uint256",
							"name": "rewTaken",
							"type": "uint256"
						},
						{
							"internalType": "uint256",
							"name": "stakecount",
							"type": "uint256"
						},
						{
							"internalType": "uint256",
							"name": "partnersCount",
							"type": "uint256"
						},
						{
							"internalType": "uint256",
							"name": "levelIncome",
							"type": "uint256"
						},
						{
							"internalType": "bool",
							"name": "onof",
							"type": "bool"
						}
					],
					"stateMutability": "view",
					"type": "function"
				},
				{
					"inputs": [
						{
							"internalType": "uint256",
							"name": "WithAmt",
							"type": "uint256"
						}
					],
					"name": "withdrawLost",
					"outputs": [],
					"stateMutability": "nonpayable",
					"type": "function"
				},
				{
					"inputs": [
						{
							"internalType": "uint256",
							"name": "QtyAmt",
							"type": "uint256"
						},
						{
							"internalType": "contract IERC20",
							"name": "_TOKEN",
							"type": "address"
						}
					],
					"name": "withdrawLostTokenFromBalance",
					"outputs": [],
					"stateMutability": "nonpayable",
					"type": "function"
				}
			],
			"devdoc": {
				"kind": "dev",
				"methods": {},
				"version": 1
			},
			"evm": {
				"assembly": "    /* \"profxexpo.sol\":9967:25141  contract DSCSTAKE is  Ownable, Pausable, Initializable, ReentrancyGuard {... */\n  mstore(0x40, 0x80)\n  callvalue\n  dup1\n  iszero\n  tag_1\n  jumpi\n  revert(0x00, 0x00)\ntag_1:\n  pop\n    /* \"profxexpo.sol\":448:449  1 */\n  0x01\n    /* \"profxexpo.sol\":553:575  _status = _NOT_ENTERED */\n  dup1\n  sstore\n    /* \"profxexpo.sol\":9967:25141  contract DSCSTAKE is  Ownable, Pausable, Initializable, ReentrancyGuard {... */\n  dataSize(sub_0)\n  dup1\n  dataOffset(sub_0)\n  0x00\n  codecopy\n  0x00\n  return\nstop\n\nsub_0: assembly {\n        /* \"profxexpo.sol\":9967:25141  contract DSCSTAKE is  Ownable, Pausable, Initializable, ReentrancyGuard {... */\n      mstore(0x40, 0x80)\n      jumpi(tag_1, lt(calldatasize, 0x04))\n      shr(0xe0, calldataload(0x00))\n      dup1\n      0x735de9f7\n      gt\n      tag_51\n      jumpi\n      dup1\n      0xc8804b7b\n      gt\n      tag_52\n      jumpi\n      dup1\n      0xea1b28e0\n      gt\n      tag_53\n      jumpi\n      dup1\n      0xf3b2aa94\n      gt\n      tag_54\n      jumpi\n      dup1\n      0xf3b2aa94\n      eq\n      tag_47\n      jumpi\n      dup1\n      0xf851a440\n      eq\n      tag_48\n      jumpi\n      dup1\n      0xf8c8765e\n      eq\n      tag_49\n      jumpi\n      dup1\n      0xfc2ea8a5\n      eq\n      tag_50\n      jumpi\n      revert(0x00, 0x00)\n    tag_54:\n      dup1\n      0xea1b28e0\n      eq\n      tag_44\n      jumpi\n      dup1\n      0xeff4228a\n      eq\n      tag_45\n      jumpi\n      dup1\n      0xf2fde38b\n      eq\n      tag_46\n      jumpi\n      revert(0x00, 0x00)\n    tag_53:\n      dup1\n      0xc8804b7b\n      eq\n      tag_38\n      jumpi\n      dup1\n      0xca33fa3f\n      eq\n      tag_39\n      jumpi\n      dup1\n      0xcc3d2721\n      eq\n      tag_40\n      jumpi\n      dup1\n      0xd58ea276\n      eq\n      tag_41\n      jumpi\n      dup1\n      0xd8a04dfa\n      eq\n      tag_42\n      jumpi\n      dup1\n      0xdc43f0e6\n      eq\n      tag_43\n      jumpi\n      revert(0x00, 0x00)\n    tag_52:\n      dup1\n      0x84412cc7\n      gt\n      tag_55\n      jumpi\n      dup1\n      0x84412cc7\n      eq\n      tag_32\n      jumpi\n      dup1\n      0x8456cb59\n      eq\n      tag_33\n      jumpi\n      dup1\n      0x8da5cb5b\n      eq\n      tag_34\n      jumpi\n      dup1\n      0x99f584b3\n      eq\n      tag_35\n      jumpi\n      dup1\n      0xa87430ba\n      eq\n      tag_36\n      jumpi\n      dup1\n      0xc54e44eb\n      eq\n      tag_37\n      jumpi\n      revert(0x00, 0x00)\n    tag_55:\n      dup1\n      0x735de9f7\n      eq\n      tag_26\n      jumpi\n      dup1\n      0x744b611b\n      eq\n      tag_27\n      jumpi\n      dup1\n      0x78981741\n      eq\n      tag_28\n      jumpi\n      dup1\n      0x7b500564\n      eq\n      tag_29\n      jumpi\n      dup1\n      0x817b1cd2\n      eq\n      tag_30\n      jumpi\n      dup1\n      0x82f4c6a6\n      eq\n      tag_31\n      jumpi\n      revert(0x00, 0x00)\n    tag_51:\n      dup1\n      0x39a93f35\n      gt\n      tag_56\n      jumpi\n      dup1\n      0x5c975abb\n      gt\n      tag_57\n      jumpi\n      dup1\n      0x5c975abb\n      eq\n      tag_20\n      jumpi\n      dup1\n      0x68a215a2\n      eq\n      tag_21\n      jumpi\n      dup1\n      0x6b0ac432\n      eq\n      tag_22\n      jumpi\n      dup1\n      0x6b56ee02\n      eq\n      tag_23\n      jumpi\n      dup1\n      0x6eeeaaa5\n      eq\n      tag_24\n      jumpi\n      dup1\n      0x715018a6\n      eq\n      tag_25\n      jumpi\n      revert(0x00, 0x00)\n    tag_57:\n      dup1\n      0x39a93f35\n      eq\n      tag_14\n      jumpi\n      dup1\n      0x3f4ba83a\n      eq\n      tag_15\n      jumpi\n      dup1\n      0x452b4729\n      eq\n      tag_16\n      jumpi\n      dup1\n      0x509222cd\n      eq\n      tag_17\n      jumpi\n      dup1\n      0x570ca735\n      eq\n      tag_18\n      jumpi\n      dup1\n      0x578013e0\n      eq\n      tag_19\n      jumpi\n      revert(0x00, 0x00)\n    tag_56:\n      dup1\n      0x2a2d0c47\n      gt\n      tag_58\n      jumpi\n      dup1\n      0x2a2d0c47\n      eq\n      tag_8\n      jumpi\n      dup1\n      0x2dd4f9b0\n      eq\n      tag_9\n      jumpi\n      dup1\n      0x32bc298c\n      eq\n      tag_10\n      jumpi\n      dup1\n      0x348d4487\n      eq\n      tag_11\n      jumpi\n      dup1\n      0x375b3c0a\n      eq\n      tag_12\n      jumpi\n      dup1\n      0x383143e5\n      eq\n      tag_13\n      jumpi\n      revert(0x00, 0x00)\n    tag_58:\n      dup1\n      0x02121272\n      eq\n      tag_2\n      jumpi\n      dup1\n      0x09fd9bca\n      eq\n      tag_3\n      jumpi\n      dup1\n      0x0da5a1b7\n      eq\n      tag_4\n      jumpi\n      dup1\n      0x117aea11\n      eq\n      tag_5\n      jumpi\n      dup1\n      0x1a454b92\n      eq\n      tag_6\n      jumpi\n      dup1\n      0x29fc7bd8\n      eq\n      tag_7\n      jumpi\n    tag_1:\n      revert(0x00, 0x00)\n        /* \"profxexpo.sol\":11129:11164  uint256[] public airdropLevelShares */\n    tag_2:\n      callvalue\n      dup1\n      iszero\n      tag_59\n      jumpi\n      revert(0x00, 0x00)\n    tag_59:\n      pop\n      tag_60\n      tag_61\n      calldatasize\n      0x04\n      tag_62\n      jump\t// in\n    tag_61:\n      tag_63\n      jump\t// in\n    tag_60:\n      mload(0x40)\n        /* \"#utility.yul\":391:416   */\n      swap1\n      dup2\n      mstore\n        /* \"#utility.yul\":379:381   */\n      0x20\n        /* \"#utility.yul\":364:382   */\n      add\n        /* \"profxexpo.sol\":11129:11164  uint256[] public airdropLevelShares */\n    tag_64:\n      mload(0x40)\n      dup1\n      swap2\n      sub\n      swap1\n      return\n        /* \"profxexpo.sol\":10510:10530  address public stDSC */\n    tag_3:\n      callvalue\n      dup1\n      iszero\n      tag_66\n      jumpi\n      revert(0x00, 0x00)\n    tag_66:\n      pop\n      sload(0x06)\n      tag_67\n      swap1\n      sub(shl(0xa0, 0x01), 0x01)\n      and\n      dup2\n      jump\n    tag_67:\n      mload(0x40)\n      sub(shl(0xa0, 0x01), 0x01)\n        /* \"#utility.yul\":591:623   */\n      swap1\n      swap2\n      and\n        /* \"#utility.yul\":573:624   */\n      dup2\n      mstore\n        /* \"#utility.yul\":561:563   */\n      0x20\n        /* \"#utility.yul\":546:564   */\n      add\n        /* \"profxexpo.sol\":10510:10530  address public stDSC */\n      tag_64\n        /* \"#utility.yul\":427:630   */\n      jump\n        /* \"profxexpo.sol\":10754:10785  uint256 public airdropUserCount */\n    tag_4:\n      callvalue\n      dup1\n      iszero\n      tag_71\n      jumpi\n      revert(0x00, 0x00)\n    tag_71:\n      pop\n      tag_60\n      sload(0x0e)\n      dup2\n      jump\n        /* \"profxexpo.sol\":13634:15010  function registrationUSDT(address _user, address _referral) public {... */\n    tag_5:\n      callvalue\n      dup1\n      iszero\n      tag_75\n      jumpi\n      revert(0x00, 0x00)\n    tag_75:\n      pop\n      tag_76\n      tag_77\n      calldatasize\n      0x04\n      tag_78\n      jump\t// in\n    tag_77:\n      tag_79\n      jump\t// in\n    tag_76:\n      stop\n        /* \"profxexpo.sol\":23804:24162  function getPriceFromUniswapV2(uint256 amountUsd)... */\n    tag_6:\n      callvalue\n      dup1\n      iszero\n      tag_80\n      jumpi\n      revert(0x00, 0x00)\n    tag_80:\n      pop\n      tag_60\n      tag_82\n      calldatasize\n      0x04\n      tag_62\n      jump\t// in\n    tag_82:\n      tag_83\n      jump\t// in\n        /* \"profxexpo.sol\":10956:10986  uint256 public PERCENT_DIVIDER */\n    tag_7:\n      callvalue\n      dup1\n      iszero\n      tag_85\n      jumpi\n      revert(0x00, 0x00)\n    tag_85:\n      pop\n      tag_60\n      sload(0x14)\n      dup2\n      jump\n        /* \"profxexpo.sol\":11344:11390  mapping(uint256 => address) public idToAddress */\n    tag_8:\n      callvalue\n      dup1\n      iszero\n      tag_89\n      jumpi\n      revert(0x00, 0x00)\n    tag_89:\n      pop\n      tag_67\n      tag_91\n      calldatasize\n      0x04\n      tag_62\n      jump\t// in\n    tag_91:\n      mstore(0x20, 0x1e)\n      0x00\n      swap1\n      dup2\n      mstore\n      0x40\n      swap1\n      keccak256\n      sload\n      sub(shl(0xa0, 0x01), 0x01)\n      and\n      dup2\n      jump\n        /* \"profxexpo.sol\":10992:11016  uint256 public LASTLEVEL */\n    tag_9:\n      callvalue\n      dup1\n      iszero\n      tag_94\n      jumpi\n      revert(0x00, 0x00)\n    tag_94:\n      pop\n      tag_60\n      sload(0x15)\n      dup2\n      jump\n        /* \"profxexpo.sol\":10895:10919  uint256 public TIME_STEP */\n    tag_10:\n      callvalue\n      dup1\n      iszero\n      tag_98\n      jumpi\n      revert(0x00, 0x00)\n    tag_98:\n      pop\n      tag_60\n      sload(0x12)\n      dup2\n      jump\n        /* \"profxexpo.sol\":10925:10950  uint256 public lastUserId */\n    tag_11:\n      callvalue\n      dup1\n      iszero\n      tag_102\n      jumpi\n      revert(0x00, 0x00)\n    tag_102:\n      pop\n      tag_60\n      sload(0x13)\n      dup2\n      jump\n        /* \"profxexpo.sol\":10695:10718  uint256 public minStake */\n    tag_12:\n      callvalue\n      dup1\n      iszero\n      tag_106\n      jumpi\n      revert(0x00, 0x00)\n    tag_106:\n      pop\n      tag_60\n      sload(0x0c)\n      dup2\n      jump\n        /* \"profxexpo.sol\":10825:10855  uint256 public airdropPerMonth */\n    tag_13:\n      callvalue\n      dup1\n      iszero\n      tag_110\n      jumpi\n      revert(0x00, 0x00)\n    tag_110:\n      pop\n      tag_60\n      sload(0x10)\n      dup2\n      jump\n        /* \"profxexpo.sol\":18716:20371  function stakeDSC(uint amount, uint plan, address _referral) public {... */\n    tag_14:\n      callvalue\n      dup1\n      iszero\n      tag_114\n      jumpi\n      revert(0x00, 0x00)\n    tag_114:\n      pop\n      tag_76\n      tag_116\n      calldatasize\n      0x04\n      tag_117\n      jump\t// in\n    tag_116:\n      tag_118\n      jump\t// in\n        /* \"profxexpo.sol\":24237:24304  function unpause() external onlyOperator {... */\n    tag_15:\n      callvalue\n      dup1\n      iszero\n      tag_119\n      jumpi\n      revert(0x00, 0x00)\n    tag_119:\n      pop\n      tag_76\n      tag_121\n      jump\t// in\n        /* \"profxexpo.sol\":11206:11243  mapping(uint=>uint) public levelShare */\n    tag_16:\n      callvalue\n      dup1\n      iszero\n      tag_122\n      jumpi\n      revert(0x00, 0x00)\n    tag_122:\n      pop\n      tag_60\n      tag_124\n      calldatasize\n      0x04\n      tag_62\n      jump\t// in\n    tag_124:\n      mstore(0x20, 0x1b)\n      0x00\n      swap1\n      dup2\n      mstore\n      0x40\n      swap1\n      keccak256\n      sload\n      dup2\n      jump\n        /* \"profxexpo.sol\":23686:23798  function isUserExists(address user) public view returns (bool) {... */\n    tag_17:\n      callvalue\n      dup1\n      iszero\n      tag_127\n      jumpi\n      revert(0x00, 0x00)\n    tag_127:\n      pop\n      tag_128\n      tag_129\n      calldatasize\n      0x04\n      tag_130\n      jump\t// in\n    tag_129:\n      tag_131\n      jump\t// in\n    tag_128:\n      mload(0x40)\n        /* \"#utility.yul\":2073:2087   */\n      swap1\n      iszero\n        /* \"#utility.yul\":2066:2088   */\n      iszero\n        /* \"#utility.yul\":2048:2089   */\n      dup2\n      mstore\n        /* \"#utility.yul\":2036:2038   */\n      0x20\n        /* \"#utility.yul\":2021:2039   */\n      add\n        /* \"profxexpo.sol\":23686:23798  function isUserExists(address user) public view returns (bool) {... */\n      tag_64\n        /* \"#utility.yul\":1908:2095   */\n      jump\n        /* \"profxexpo.sol\":10432:10455  address public operator */\n    tag_18:\n      callvalue\n      dup1\n      iszero\n      tag_134\n      jumpi\n      revert(0x00, 0x00)\n    tag_134:\n      pop\n      sload(0x03)\n      tag_67\n      swap1\n      sub(shl(0xa0, 0x01), 0x01)\n      and\n      dup2\n      jump\n        /* \"profxexpo.sol\":11249:11295  mapping(address => bool) public isAdminAchived */\n    tag_19:\n      callvalue\n      dup1\n      iszero\n      tag_138\n      jumpi\n      revert(0x00, 0x00)\n    tag_138:\n      pop\n      tag_128\n      tag_140\n      calldatasize\n      0x04\n      tag_130\n      jump\t// in\n    tag_140:\n      mstore(0x20, 0x1c)\n      0x00\n      swap1\n      dup2\n      mstore\n      0x40\n      swap1\n      keccak256\n      sload\n      0xff\n      and\n      dup2\n      jump\n        /* \"profxexpo.sol\":9411:9495  function paused() public view virtual returns (bool) {... */\n    tag_20:\n      callvalue\n      dup1\n      iszero\n      tag_143\n      jumpi\n      revert(0x00, 0x00)\n    tag_143:\n      pop\n        /* \"profxexpo.sol\":9458:9462  bool */\n      0x00\n        /* \"profxexpo.sol\":9481:9488  _paused */\n      sload\n      shl(0xa0, 0x01)\n      swap1\n      div\n      0xff\n      and\n        /* \"profxexpo.sol\":9411:9495  function paused() public view virtual returns (bool) {... */\n      jump(tag_128)\n        /* \"profxexpo.sol\":15016:15830  function registerbystDSC(address _user, address _referral) external {... */\n    tag_21:\n      callvalue\n      dup1\n      iszero\n      tag_147\n      jumpi\n      revert(0x00, 0x00)\n    tag_147:\n      pop\n      tag_76\n      tag_149\n      calldatasize\n      0x04\n      tag_78\n      jump\t// in\n    tag_149:\n      tag_150\n      jump\t// in\n        /* \"profxexpo.sol\":16721:18706  function stakeUSDT(uint amount, uint plan, address _referral) public {... */\n    tag_22:\n      callvalue\n      dup1\n      iszero\n      tag_151\n      jumpi\n      revert(0x00, 0x00)\n    tag_151:\n      pop\n      tag_76\n      tag_153\n      calldatasize\n      0x04\n      tag_117\n      jump\t// in\n    tag_153:\n      tag_154\n      jump\t// in\n        /* \"profxexpo.sol\":11054:11084  uint256 public totalWithdrawal */\n    tag_23:\n      callvalue\n      dup1\n      iszero\n      tag_155\n      jumpi\n      revert(0x00, 0x00)\n    tag_155:\n      pop\n      tag_60\n      sload(0x17)\n      dup2\n      jump\n        /* \"profxexpo.sol\":10664:10689  uint256 public joiningFee */\n    tag_24:\n      callvalue\n      dup1\n      iszero\n      tag_159\n      jumpi\n      revert(0x00, 0x00)\n    tag_159:\n      pop\n      tag_60\n      sload(0x0b)\n      dup2\n      jump\n        /* \"profxexpo.sol\":2163:2264  function renounceOwnership() public virtual onlyOwner {... */\n    tag_25:\n      callvalue\n      dup1\n      iszero\n      tag_163\n      jumpi\n      revert(0x00, 0x00)\n    tag_163:\n      pop\n      tag_76\n      tag_165\n      jump\t// in\n        /* \"profxexpo.sol\":11396:11435  IUniswapV2Router02 public uniswapRouter */\n    tag_26:\n      callvalue\n      dup1\n      iszero\n      tag_166\n      jumpi\n      revert(0x00, 0x00)\n    tag_166:\n      pop\n      sload(0x1f)\n      tag_67\n      swap1\n      sub(shl(0xa0, 0x01), 0x01)\n      and\n      dup2\n      jump\n        /* \"profxexpo.sol\":15836:16711  function registerbyDSC(address _user, address _referral) external... */\n    tag_27:\n      callvalue\n      dup1\n      iszero\n      tag_171\n      jumpi\n      revert(0x00, 0x00)\n    tag_171:\n      pop\n      tag_76\n      tag_173\n      calldatasize\n      0x04\n      tag_78\n      jump\t// in\n    tag_173:\n      tag_174\n      jump\t// in\n        /* \"profxexpo.sol\":23345:23680  function getCurrentPrice(address[] memory path)... */\n    tag_28:\n      callvalue\n      dup1\n      iszero\n      tag_175\n      jumpi\n      revert(0x00, 0x00)\n    tag_175:\n      pop\n      tag_60\n      tag_177\n      calldatasize\n      0x04\n      tag_178\n      jump\t// in\n    tag_177:\n      tag_179\n      jump\t// in\n        /* \"profxexpo.sol\":24472:24651  function withdrawLostTokenFromBalance(uint QtyAmt,IERC20 _TOKEN) public {... */\n    tag_29:\n      callvalue\n      dup1\n      iszero\n      tag_181\n      jumpi\n      revert(0x00, 0x00)\n    tag_181:\n      pop\n      tag_76\n      tag_183\n      calldatasize\n      0x04\n      tag_184\n      jump\t// in\n    tag_183:\n      tag_185\n      jump\t// in\n        /* \"profxexpo.sol\":11022:11048  uint256 public totalStaked */\n    tag_30:\n      callvalue\n      dup1\n      iszero\n      tag_186\n      jumpi\n      revert(0x00, 0x00)\n    tag_186:\n      pop\n      tag_60\n      sload(0x16)\n      dup2\n      jump\n        /* \"profxexpo.sol\":11090:11123  uint256[] public levelBonusShares */\n    tag_31:\n      callvalue\n      dup1\n      iszero\n      tag_190\n      jumpi\n      revert(0x00, 0x00)\n    tag_190:\n      pop\n      tag_60\n      tag_192\n      calldatasize\n      0x04\n      tag_62\n      jump\t// in\n    tag_192:\n      tag_193\n      jump\t// in\n        /* \"profxexpo.sol\":24657:25137  function multisendToken(address payable[]  memory  _contributors, uint256[] memory _balances, uint256 totalQty,IERC20 _TKN) public payable {... */\n    tag_32:\n      tag_76\n      tag_196\n      calldatasize\n      0x04\n      tag_197\n      jump\t// in\n    tag_196:\n      tag_198\n      jump\t// in\n        /* \"profxexpo.sol\":24169:24231  function pause() external onlyOperator {... */\n    tag_33:\n      callvalue\n      dup1\n      iszero\n      tag_199\n      jumpi\n      revert(0x00, 0x00)\n    tag_199:\n      pop\n      tag_76\n      tag_201\n      jump\t// in\n        /* \"profxexpo.sol\":1936:2021  function owner() public view virtual returns (address) {... */\n    tag_34:\n      callvalue\n      dup1\n      iszero\n      tag_202\n      jumpi\n      revert(0x00, 0x00)\n    tag_202:\n      pop\n        /* \"profxexpo.sol\":1982:1989  address */\n      0x00\n        /* \"profxexpo.sol\":2008:2014  _owner */\n      sload\n      sub(shl(0xa0, 0x01), 0x01)\n      and\n        /* \"profxexpo.sol\":1936:2021  function owner() public view virtual returns (address) {... */\n      jump(tag_67)\n        /* \"profxexpo.sol\":10602:10626  uint256 public multipler */\n    tag_35:\n      callvalue\n      dup1\n      iszero\n      tag_206\n      jumpi\n      revert(0x00, 0x00)\n    tag_206:\n      pop\n      tag_60\n      sload(0x09)\n      dup2\n      jump\n        /* \"profxexpo.sol\":11301:11338  mapping(address => User) public users */\n    tag_36:\n      callvalue\n      dup1\n      iszero\n      tag_210\n      jumpi\n      revert(0x00, 0x00)\n    tag_210:\n      pop\n      tag_211\n      tag_212\n      calldatasize\n      0x04\n      tag_130\n      jump\t// in\n    tag_212:\n      mstore(0x20, 0x1d)\n      0x00\n      swap1\n      dup2\n      mstore\n      0x40\n      swap1\n      keccak256\n      dup1\n      sload\n      0x01\n      dup3\n      add\n      sload\n      0x02\n      dup4\n      add\n      sload\n      0x03\n      dup5\n      add\n      sload\n      0x04\n      dup6\n      add\n      sload\n      0x05\n      dup7\n      add\n      sload\n      0x06\n      dup8\n      add\n      sload\n      0x07\n      dup9\n      add\n      sload\n      0x08\n      dup10\n      add\n      sload\n      0x09\n      dup11\n      add\n      sload\n      0x0a\n      dup12\n      add\n      sload\n      0x0b\n      swap1\n      swap12\n      add\n      sload\n      swap10\n      swap11\n      sub(shl(0xa0, 0x01), 0x01)\n      swap1\n      swap10\n      and\n      swap10\n      swap8\n      swap9\n      swap7\n      swap8\n      swap6\n      swap7\n      swap5\n      swap6\n      swap4\n      swap5\n      swap3\n      swap4\n      swap2\n      swap3\n      swap1\n      swap2\n      0xff\n      and\n      dup13\n      jump\n    tag_211:\n      0x40\n      dup1\n      mload\n        /* \"#utility.yul\":7057:7082   */\n      swap13\n      dup14\n      mstore\n      sub(shl(0xa0, 0x01), 0x01)\n        /* \"#utility.yul\":7118:7150   */\n      swap1\n      swap12\n      and\n        /* \"#utility.yul\":7113:7115   */\n      0x20\n        /* \"#utility.yul\":7098:7116   */\n      dup14\n      add\n        /* \"#utility.yul\":7091:7151   */\n      mstore\n        /* \"#utility.yul\":7167:7185   */\n      swap10\n      dup12\n      add\n        /* \"#utility.yul\":7160:7194   */\n      swap9\n      swap1\n      swap9\n      mstore\n        /* \"#utility.yul\":7225:7227   */\n      0x60\n        /* \"#utility.yul\":7210:7228   */\n      dup11\n      add\n        /* \"#utility.yul\":7203:7237   */\n      swap7\n      swap1\n      swap7\n      mstore\n        /* \"#utility.yul\":7268:7271   */\n      0x80\n        /* \"#utility.yul\":7253:7272   */\n      dup10\n      add\n        /* \"#utility.yul\":7246:7281   */\n      swap5\n      swap1\n      swap5\n      mstore\n        /* \"#utility.yul\":7138:7141   */\n      0xa0\n        /* \"#utility.yul\":7297:7316   */\n      dup9\n      add\n        /* \"#utility.yul\":7290:7325   */\n      swap3\n      swap1\n      swap3\n      mstore\n        /* \"#utility.yul\":7356:7359   */\n      0xc0\n        /* \"#utility.yul\":7341:7360   */\n      dup8\n      add\n        /* \"#utility.yul\":7334:7369   */\n      mstore\n        /* \"#utility.yul\":7400:7403   */\n      0xe0\n        /* \"#utility.yul\":7385:7404   */\n      dup7\n      add\n        /* \"#utility.yul\":7378:7413   */\n      mstore\n        /* \"#utility.yul\":7444:7447   */\n      0x0100\n        /* \"#utility.yul\":7429:7448   */\n      dup6\n      add\n        /* \"#utility.yul\":7422:7457   */\n      mstore\n        /* \"#utility.yul\":7488:7491   */\n      0x0120\n        /* \"#utility.yul\":7473:7492   */\n      dup5\n      add\n        /* \"#utility.yul\":7466:7501   */\n      mstore\n        /* \"#utility.yul\":7532:7535   */\n      0x0140\n        /* \"#utility.yul\":7517:7536   */\n      dup4\n      add\n        /* \"#utility.yul\":7510:7546   */\n      mstore\n        /* \"#utility.yul\":7590:7605   */\n      iszero\n        /* \"#utility.yul\":7583:7606   */\n      iszero\n        /* \"#utility.yul\":7577:7580   */\n      0x0160\n        /* \"#utility.yul\":7562:7581   */\n      dup3\n      add\n        /* \"#utility.yul\":7555:7607   */\n      mstore\n        /* \"#utility.yul\":7044:7047   */\n      0x0180\n        /* \"#utility.yul\":7029:7048   */\n      add\n        /* \"profxexpo.sol\":11301:11338  mapping(address => User) public users */\n      tag_64\n        /* \"#utility.yul\":6606:7613   */\n      jump\n        /* \"profxexpo.sol\":10461:10480  address public USDT */\n    tag_37:\n      callvalue\n      dup1\n      iszero\n      tag_216\n      jumpi\n      revert(0x00, 0x00)\n    tag_216:\n      pop\n      sload(0x04)\n      tag_67\n      swap1\n      sub(shl(0xa0, 0x01), 0x01)\n      and\n      dup2\n      jump\n        /* \"profxexpo.sol\":10486:10504  address public DSC */\n    tag_38:\n      callvalue\n      dup1\n      iszero\n      tag_220\n      jumpi\n      revert(0x00, 0x00)\n    tag_220:\n      pop\n      sload(0x05)\n      tag_67\n      swap1\n      sub(shl(0xa0, 0x01), 0x01)\n      and\n      dup2\n      jump\n        /* \"profxexpo.sol\":10862:10889  bool public isAirdropPaused */\n    tag_39:\n      callvalue\n      dup1\n      iszero\n      tag_224\n      jumpi\n      revert(0x00, 0x00)\n    tag_224:\n      pop\n      sload(0x11)\n      tag_128\n      swap1\n      0xff\n      and\n      dup2\n      jump\n        /* \"profxexpo.sol\":10632:10658  uint256 public minWithdraw */\n    tag_40:\n      callvalue\n      dup1\n      iszero\n      tag_228\n      jumpi\n      revert(0x00, 0x00)\n    tag_228:\n      pop\n      tag_60\n      sload(0x0a)\n      dup2\n      jump\n        /* \"profxexpo.sol\":20381:21751  function stakestDSC(uint amount, uint plan, address _referral) public {... */\n    tag_41:\n      callvalue\n      dup1\n      iszero\n      tag_232\n      jumpi\n      revert(0x00, 0x00)\n    tag_232:\n      pop\n      tag_76\n      tag_234\n      calldatasize\n      0x04\n      tag_117\n      jump\t// in\n    tag_234:\n      tag_235\n      jump\t// in\n        /* \"profxexpo.sol\":10537:10566  uint256 public levelRoiPerDay */\n    tag_42:\n      callvalue\n      dup1\n      iszero\n      tag_236\n      jumpi\n      revert(0x00, 0x00)\n    tag_236:\n      pop\n      tag_60\n      sload(0x07)\n      dup2\n      jump\n        /* \"profxexpo.sol\":10572:10596  uint256 public roiPerDay */\n    tag_43:\n      callvalue\n      dup1\n      iszero\n      tag_240\n      jumpi\n      revert(0x00, 0x00)\n    tag_240:\n      pop\n      tag_60\n      sload(0x08)\n      dup2\n      jump\n        /* \"profxexpo.sol\":10724:10747  uint256 public maxStake */\n    tag_44:\n      callvalue\n      dup1\n      iszero\n      tag_244\n      jumpi\n      revert(0x00, 0x00)\n    tag_244:\n      pop\n      tag_60\n      sload(0x0d)\n      dup2\n      jump\n        /* \"profxexpo.sol\":11170:11200  address[] public adminAchivers */\n    tag_45:\n      callvalue\n      dup1\n      iszero\n      tag_248\n      jumpi\n      revert(0x00, 0x00)\n    tag_248:\n      pop\n      tag_67\n      tag_250\n      calldatasize\n      0x04\n      tag_62\n      jump\t// in\n    tag_250:\n      tag_251\n      jump\t// in\n        /* \"profxexpo.sol\":2270:2502  function transferOwnership(address newOwner) public virtual onlyOwner {... */\n    tag_46:\n      callvalue\n      dup1\n      iszero\n      tag_253\n      jumpi\n      revert(0x00, 0x00)\n    tag_253:\n      pop\n      tag_76\n      tag_255\n      calldatasize\n      0x04\n      tag_130\n      jump\t// in\n    tag_255:\n      tag_256\n      jump\t// in\n        /* \"profxexpo.sol\":24310:24467  function withdrawLost(uint256 WithAmt) public {... */\n    tag_47:\n      callvalue\n      dup1\n      iszero\n      tag_257\n      jumpi\n      revert(0x00, 0x00)\n    tag_257:\n      pop\n      tag_76\n      tag_259\n      calldatasize\n      0x04\n      tag_62\n      jump\t// in\n    tag_259:\n      tag_260\n      jump\t// in\n        /* \"profxexpo.sol\":10406:10426  address public admin */\n    tag_48:\n      callvalue\n      dup1\n      iszero\n      tag_261\n      jumpi\n      revert(0x00, 0x00)\n    tag_261:\n      pop\n      sload(0x02)\n      tag_67\n      swap1\n      sub(shl(0xa0, 0x01), 0x01)\n      and\n      dup2\n      jump\n        /* \"profxexpo.sol\":11994:12975  function initialize( address _usdt, address _dsc, address _stdsc, address _owner)  external initializer  {... */\n    tag_49:\n      callvalue\n      dup1\n      iszero\n      tag_265\n      jumpi\n      revert(0x00, 0x00)\n    tag_265:\n      pop\n      tag_76\n      tag_267\n      calldatasize\n      0x04\n      tag_268\n      jump\t// in\n    tag_267:\n      tag_269\n      jump\t// in\n        /* \"profxexpo.sol\":10791:10819  uint256 public airdropAmount */\n    tag_50:\n      callvalue\n      dup1\n      iszero\n      tag_270\n      jumpi\n      revert(0x00, 0x00)\n    tag_270:\n      pop\n      tag_60\n      sload(0x0f)\n      dup2\n      jump\n        /* \"profxexpo.sol\":11129:11164  uint256[] public airdropLevelShares */\n    tag_63:\n      0x19\n      dup2\n      dup2\n      sload\n      dup2\n      lt\n      tag_274\n      jumpi\n      0x00\n      dup1\n      revert\n    tag_274:\n      0x00\n      swap2\n      dup3\n      mstore\n      0x20\n      swap1\n      swap2\n      keccak256\n      add\n      sload\n      swap1\n      pop\n      dup2\n      jump\t// out\n        /* \"profxexpo.sol\":13634:15010  function registrationUSDT(address _user, address _referral) public {... */\n    tag_79:\n        /* \"profxexpo.sol\":13720:13739  isUserExists(_user) */\n      tag_277\n        /* \"profxexpo.sol\":13733:13738  _user */\n      dup3\n        /* \"profxexpo.sol\":13720:13732  isUserExists */\n      tag_131\n        /* \"profxexpo.sol\":13720:13739  isUserExists(_user) */\n      jump\t// in\n    tag_277:\n        /* \"profxexpo.sol\":13719:13739  !isUserExists(_user) */\n      iszero\n        /* \"profxexpo.sol\":13711:13764  require(!isUserExists(_user), \"Dsclab: User Exists!\") */\n      tag_278\n      jumpi\n      mload(0x40)\n      shl(0xe5, 0x461bcd)\n      dup2\n      mstore\n      0x04\n      add\n      tag_279\n      swap1\n      tag_280\n      jump\t// in\n    tag_279:\n      mload(0x40)\n      dup1\n      swap2\n      sub\n      swap1\n      revert\n    tag_278:\n        /* \"profxexpo.sol\":13782:13805  isUserExists(_referral) */\n      tag_281\n        /* \"profxexpo.sol\":13795:13804  _referral */\n      dup2\n        /* \"profxexpo.sol\":13782:13794  isUserExists */\n      tag_131\n        /* \"profxexpo.sol\":13782:13805  isUserExists(_referral) */\n      jump\t// in\n    tag_281:\n        /* \"profxexpo.sol\":13774:13838  require(isUserExists(_referral), \"Dsclab: Referrer not Exists!\") */\n      tag_282\n      jumpi\n      mload(0x40)\n      shl(0xe5, 0x461bcd)\n      dup2\n      mstore\n        /* \"#utility.yul\":8845:8847   */\n      0x20\n        /* \"profxexpo.sol\":13774:13838  require(isUserExists(_referral), \"Dsclab: Referrer not Exists!\") */\n      0x04\n      dup3\n      add\n        /* \"#utility.yul\":8827:8848   */\n      mstore\n        /* \"#utility.yul\":8884:8886   */\n      0x1c\n        /* \"#utility.yul\":8864:8882   */\n      0x24\n      dup3\n      add\n        /* \"#utility.yul\":8857:8887   */\n      mstore\n        /* \"#utility.yul\":8923:8953   */\n      0x4473636c61623a205265666572726572206e6f74204578697374732100000000\n        /* \"#utility.yul\":8903:8921   */\n      0x44\n      dup3\n      add\n        /* \"#utility.yul\":8896:8954   */\n      mstore\n        /* \"#utility.yul\":8971:8989   */\n      0x64\n      add\n        /* \"profxexpo.sol\":13774:13838  require(isUserExists(_referral), \"Dsclab: Referrer not Exists!\") */\n      tag_279\n        /* \"#utility.yul\":8643:8995   */\n      jump\n        /* \"profxexpo.sol\":13774:13838  require(isUserExists(_referral), \"Dsclab: Referrer not Exists!\") */\n    tag_282:\n        /* \"profxexpo.sol\":13848:13891  registration(_msgSender(),_referral,\"USDT\") */\n      tag_285\n        /* \"profxexpo.sol\":242:252  msg.sender */\n      caller\n        /* \"profxexpo.sol\":13861:13873  _msgSender() */\n    tag_286:\n        /* \"profxexpo.sol\":13874:13883  _referral */\n      dup3\n        /* \"profxexpo.sol\":13848:13891  registration(_msgSender(),_referral,\"USDT\") */\n      mload(0x40)\n      dup1\n      0x40\n      add\n      0x40\n      mstore\n      dup1\n      0x04\n      dup2\n      mstore\n      0x20\n      add\n      shl(0xe2, 0x1554d115)\n      dup2\n      mstore\n      pop\n        /* \"profxexpo.sol\":13848:13860  registration */\n      tag_288\n        /* \"profxexpo.sol\":13848:13891  registration(_msgSender(),_referral,\"USDT\") */\n      jump\t// in\n    tag_285:\n        /* \"profxexpo.sol\":13977:13987  joiningFee */\n      sload(0x0b)\n        /* \"profxexpo.sol\":13929:13933  USDT */\n      and(sub(shl(0xa0, 0x01), 0x01), sload(0x04))\n        /* \"profxexpo.sol\":13922:13944  IERC20(USDT).allowance */\n      0xdd62ed3e\n        /* \"profxexpo.sol\":242:252  msg.sender */\n      caller\n        /* \"profxexpo.sol\":13922:13973  IERC20(USDT).allowance(_msgSender(), address(this)) */\n      mload(0x40)\n      not(sub(shl(0xe0, 0x01), 0x01))\n      0xe0\n      dup5\n      swap1\n      shl\n      and\n      dup2\n      mstore\n      sub(shl(0xa0, 0x01), 0x01)\n        /* \"#utility.yul\":9192:9224   */\n      swap1\n      swap2\n      and\n        /* \"profxexpo.sol\":13922:13973  IERC20(USDT).allowance(_msgSender(), address(this)) */\n      0x04\n      dup3\n      add\n        /* \"#utility.yul\":9174:9225   */\n      mstore\n        /* \"profxexpo.sol\":13967:13971  this */\n      address\n        /* \"#utility.yul\":9241:9259   */\n      0x24\n      dup3\n      add\n        /* \"#utility.yul\":9234:9294   */\n      mstore\n        /* \"#utility.yul\":9147:9165   */\n      0x44\n      add\n        /* \"profxexpo.sol\":13922:13973  IERC20(USDT).allowance(_msgSender(), address(this)) */\n      0x20\n      mload(0x40)\n      dup1\n      dup4\n      sub\n      dup2\n      dup7\n      gas\n      staticcall\n      iszero\n      dup1\n      iszero\n      tag_293\n      jumpi\n      returndatacopy(0x00, 0x00, returndatasize)\n      revert(0x00, returndatasize)\n    tag_293:\n      pop\n      pop\n      pop\n      pop\n      mload(0x40)\n      returndatasize\n      not(0x1f)\n      0x1f\n      dup3\n      add\n      and\n      dup3\n      add\n      dup1\n      0x40\n      mstore\n      pop\n      dup2\n      add\n      swap1\n      tag_294\n      swap2\n      swap1\n      tag_295\n      jump\t// in\n    tag_294:\n        /* \"profxexpo.sol\":13922:13987  IERC20(USDT).allowance(_msgSender(), address(this)) >= joiningFee */\n      lt\n      iszero\n        /* \"profxexpo.sol\":13901:14031  require(... */\n      tag_296\n      jumpi\n      mload(0x40)\n      shl(0xe5, 0x461bcd)\n      dup2\n      mstore\n        /* \"#utility.yul\":9742:9744   */\n      0x20\n        /* \"profxexpo.sol\":13901:14031  require(... */\n      0x04\n      dup3\n      add\n        /* \"#utility.yul\":9724:9745   */\n      mstore\n        /* \"#utility.yul\":9781:9783   */\n      0x12\n        /* \"#utility.yul\":9761:9779   */\n      0x24\n      dup3\n      add\n        /* \"#utility.yul\":9754:9784   */\n      mstore\n      shl(0x75, 0x02239b1b630b11d1030b63637bbb0b731b29)\n        /* \"#utility.yul\":9800:9818   */\n      0x44\n      dup3\n      add\n        /* \"#utility.yul\":9793:9841   */\n      mstore\n        /* \"#utility.yul\":9858:9876   */\n      0x64\n      add\n        /* \"profxexpo.sol\":13901:14031  require(... */\n      tag_279\n        /* \"#utility.yul\":9540:9882   */\n      jump\n        /* \"profxexpo.sol\":13901:14031  require(... */\n    tag_296:\n        /* \"profxexpo.sol\":14048:14052  USDT */\n      0x04\n      dup1\n      sload\n        /* \"profxexpo.sol\":14096:14106  joiningFee */\n      sload(0x0b)\n        /* \"profxexpo.sol\":14041:14107  IERC20(USDT).transferFrom(_msgSender(), address(this), joiningFee) */\n      mload(0x40)\n      shl(0xe0, 0x23b872dd)\n      dup2\n      mstore\n      sub(shl(0xa0, 0x01), 0x01)\n        /* \"profxexpo.sol\":14048:14052  USDT */\n      swap1\n      swap3\n      and\n      swap3\n        /* \"profxexpo.sol\":14041:14066  IERC20(USDT).transferFrom */\n      0x23b872dd\n      swap3\n        /* \"profxexpo.sol\":14041:14107  IERC20(USDT).transferFrom(_msgSender(), address(this), joiningFee) */\n      tag_300\n      swap3\n        /* \"profxexpo.sol\":242:252  msg.sender */\n      caller\n      swap3\n        /* \"profxexpo.sol\":14089:14093  this */\n      address\n      swap3\n        /* \"profxexpo.sol\":14041:14107  IERC20(USDT).transferFrom(_msgSender(), address(this), joiningFee) */\n      add\n      tag_301\n      jump\t// in\n    tag_300:\n      0x20\n      mload(0x40)\n      dup1\n      dup4\n      sub\n      dup2\n      0x00\n      dup8\n      gas\n      call\n      iszero\n      dup1\n      iszero\n      tag_303\n      jumpi\n      returndatacopy(0x00, 0x00, returndatasize)\n      revert(0x00, returndatasize)\n    tag_303:\n      pop\n      pop\n      pop\n      pop\n      mload(0x40)\n      returndatasize\n      not(0x1f)\n      0x1f\n      dup3\n      add\n      and\n      dup3\n      add\n      dup1\n      0x40\n      mstore\n      pop\n      dup2\n      add\n      swap1\n      tag_304\n      swap2\n      swap1\n      tag_305\n      jump\t// in\n    tag_304:\n      pop\n        /* \"profxexpo.sol\":14125:14129  USDT */\n      0x04\n      dup1\n      sload\n        /* \"profxexpo.sol\":14147:14160  uniswapRouter */\n      sload(0x1f)\n        /* \"profxexpo.sol\":14163:14173  joiningFee */\n      sload(0x0b)\n        /* \"profxexpo.sol\":14118:14174  IERC20(USDT).approve(address(uniswapRouter), joiningFee) */\n      mload(0x40)\n      shl(0xe0, 0x095ea7b3)\n      dup2\n      mstore\n      sub(shl(0xa0, 0x01), 0x01)\n        /* \"profxexpo.sol\":14147:14160  uniswapRouter */\n      swap3\n      dup4\n      and\n        /* \"profxexpo.sol\":14118:14174  IERC20(USDT).approve(address(uniswapRouter), joiningFee) */\n      swap5\n      dup2\n      add\n        /* \"#utility.yul\":10719:10770   */\n      swap5\n      swap1\n      swap5\n      mstore\n        /* \"#utility.yul\":10786:10804   */\n      0x24\n      dup5\n      add\n        /* \"#utility.yul\":10779:10813   */\n      mstore\n        /* \"profxexpo.sol\":14125:14129  USDT */\n      and\n      swap1\n        /* \"profxexpo.sol\":14118:14138  IERC20(USDT).approve */\n      0x095ea7b3\n      swap1\n        /* \"#utility.yul\":10692:10710   */\n      0x44\n      add\n        /* \"profxexpo.sol\":14118:14174  IERC20(USDT).approve(address(uniswapRouter), joiningFee) */\n      0x20\n      mload(0x40)\n      dup1\n      dup4\n      sub\n      dup2\n      0x00\n      dup8\n      gas\n      call\n      iszero\n      dup1\n      iszero\n      tag_309\n      jumpi\n      returndatacopy(0x00, 0x00, returndatasize)\n      revert(0x00, returndatasize)\n    tag_309:\n      pop\n      pop\n      pop\n      pop\n      mload(0x40)\n      returndatasize\n      not(0x1f)\n      0x1f\n      dup3\n      add\n      and\n      dup3\n      add\n      dup1\n      0x40\n      mstore\n      pop\n      dup2\n      add\n      swap1\n      tag_310\n      swap2\n      swap1\n      tag_305\n      jump\t// in\n    tag_310:\n      pop\n        /* \"profxexpo.sol\":14209:14225  new address[](2) */\n      0x40\n      dup1\n      mload\n        /* \"profxexpo.sol\":14223:14224  2 */\n      0x02\n        /* \"profxexpo.sol\":14209:14225  new address[](2) */\n      dup1\n      dup3\n      mstore\n      0x60\n      dup3\n      add\n      dup4\n      mstore\n        /* \"profxexpo.sol\":14184:14206  address[] memory paths */\n      0x00\n      swap3\n        /* \"profxexpo.sol\":14209:14225  new address[](2) */\n      0x20\n      dup4\n      add\n      swap1\n      dup1\n      calldatasize\n      dup4\n      calldatacopy\n      pop\n      pop\n        /* \"profxexpo.sol\":14246:14250  USDT */\n      sload(0x04)\n        /* \"profxexpo.sol\":14235:14243  paths[0] */\n      dup3\n      mload\n      swap3\n      swap4\n      pop\n      sub(shl(0xa0, 0x01), 0x01)\n        /* \"profxexpo.sol\":14246:14250  USDT */\n      and\n      swap2\n        /* \"profxexpo.sol\":14235:14243  paths[0] */\n      dup4\n      swap2\n      pop\n        /* \"profxexpo.sol\":14246:14250  USDT */\n      0x00\n      swap1\n        /* \"profxexpo.sol\":14235:14243  paths[0] */\n      tag_316\n      jumpi\n      tag_316\n      tag_317\n      jump\t// in\n    tag_316:\n      sub(shl(0xa0, 0x01), 0x01)\n        /* \"profxexpo.sol\":14235:14250  paths[0] = USDT */\n      swap3\n      dup4\n      and\n        /* \"profxexpo.sol\":14235:14243  paths[0] */\n      0x20\n      swap2\n      dup3\n      mul\n      swap3\n      swap1\n      swap3\n      add\n      add\n        /* \"profxexpo.sol\":14235:14250  paths[0] = USDT */\n      mstore\n        /* \"profxexpo.sol\":14271:14274  DSC */\n      sload(0x05)\n        /* \"profxexpo.sol\":14260:14268  paths[1] */\n      dup3\n      mload\n        /* \"profxexpo.sol\":14271:14274  DSC */\n      swap2\n      and\n      swap1\n        /* \"profxexpo.sol\":14260:14265  paths */\n      dup3\n      swap1\n        /* \"profxexpo.sol\":14271:14274  DSC */\n      0x01\n      swap1\n        /* \"profxexpo.sol\":14260:14268  paths[1] */\n      dup2\n      lt\n      tag_319\n      jumpi\n      tag_319\n      tag_317\n      jump\t// in\n    tag_319:\n      sub(shl(0xa0, 0x01), 0x01)\n        /* \"profxexpo.sol\":14260:14274  paths[1] = DSC */\n      swap3\n      dup4\n      and\n        /* \"profxexpo.sol\":14260:14268  paths[1] */\n      0x20\n      swap2\n      dup3\n      mul\n      swap3\n      swap1\n      swap3\n      add\n      add\n        /* \"profxexpo.sol\":14260:14274  paths[1] = DSC */\n      mstore\n        /* \"profxexpo.sol\":14311:14324  uniswapRouter */\n      sload(0x1f)\n        /* \"profxexpo.sol\":14352:14362  joiningFee */\n      sload(0x0b)\n        /* \"profxexpo.sol\":14311:14391  uniswapRouter.getAmountsOut(... */\n      mload(0x40)\n      shl(0xe0, 0xd06ca61f)\n      dup2\n      mstore\n        /* \"profxexpo.sol\":14284:14308  uint256[] memory amounts */\n      0x00\n      swap4\n        /* \"profxexpo.sol\":14311:14324  uniswapRouter */\n      swap3\n      swap1\n      swap3\n      and\n      swap2\n        /* \"profxexpo.sol\":14311:14338  uniswapRouter.getAmountsOut */\n      0xd06ca61f\n      swap2\n        /* \"profxexpo.sol\":14311:14391  uniswapRouter.getAmountsOut(... */\n      tag_320\n      swap2\n        /* \"profxexpo.sol\":14376:14381  paths */\n      dup7\n      swap1\n        /* \"profxexpo.sol\":14311:14391  uniswapRouter.getAmountsOut(... */\n      0x04\n      add\n      tag_321\n      jump\t// in\n    tag_320:\n      0x00\n      mload(0x40)\n      dup1\n      dup4\n      sub\n      dup2\n      dup7\n      gas\n      staticcall\n      iszero\n      dup1\n      iszero\n      tag_323\n      jumpi\n      returndatacopy(0x00, 0x00, returndatasize)\n      revert(0x00, returndatasize)\n    tag_323:\n      pop\n      pop\n      pop\n      pop\n      mload(0x40)\n      returndatasize\n      0x00\n      dup3\n      returndatacopy\n      0x1f\n      returndatasize\n      swap1\n      dup2\n      add\n      not(0x1f)\n      and\n      dup3\n      add\n      0x40\n      mstore\n      tag_324\n      swap2\n      swap1\n      dup2\n      add\n      swap1\n      tag_325\n      jump\t// in\n    tag_324:\n        /* \"profxexpo.sol\":14401:14414  uniswapRouter */\n      sload(0x1f)\n        /* \"profxexpo.sol\":14453:14463  joiningFee */\n      sload(0x0b)\n        /* \"profxexpo.sol\":14477:14487  amounts[1] */\n      dup3\n      mload\n        /* \"profxexpo.sol\":14284:14391  uint256[] memory amounts = uniswapRouter.getAmountsOut(... */\n      swap3\n      swap4\n      pop\n      sub(shl(0xa0, 0x01), 0x01)\n        /* \"profxexpo.sol\":14401:14414  uniswapRouter */\n      swap1\n      swap2\n      and\n      swap2\n        /* \"profxexpo.sol\":14401:14439  uniswapRouter.swapExactTokensForTokens */\n      0x38ed1739\n      swap2\n        /* \"profxexpo.sol\":14453:14463  joiningFee */\n      swap1\n        /* \"profxexpo.sol\":14284:14391  uint256[] memory amounts = uniswapRouter.getAmountsOut(... */\n      dup5\n      swap1\n        /* \"profxexpo.sol\":14401:14414  uniswapRouter */\n      0x01\n      swap1\n        /* \"profxexpo.sol\":14477:14487  amounts[1] */\n      dup2\n      lt\n      tag_327\n      jumpi\n      tag_327\n      tag_317\n      jump\t// in\n    tag_327:\n      0x20\n      mul\n      0x20\n      add\n      add\n      mload\n        /* \"profxexpo.sol\":14501:14506  paths */\n      dup6\n        /* \"profxexpo.sol\":14528:14532  this */\n      address\n        /* \"profxexpo.sol\":14547:14562  block.timestamp */\n      timestamp\n        /* \"profxexpo.sol\":14565:14567  10 */\n      0x0a\n        /* \"profxexpo.sol\":14547:14567  block.timestamp + 10 */\n      tag_328\n      swap2\n      swap1\n      tag_329\n      jump\t// in\n    tag_328:\n        /* \"profxexpo.sol\":14401:14577  uniswapRouter.swapExactTokensForTokens(... */\n      mload(0x40)\n      dup7\n      0xffffffff\n      and\n      0xe0\n      shl\n      dup2\n      mstore\n      0x04\n      add\n      tag_330\n      swap6\n      swap5\n      swap4\n      swap3\n      swap2\n      swap1\n      tag_331\n      jump\t// in\n    tag_330:\n      0x00\n      mload(0x40)\n      dup1\n      dup4\n      sub\n      dup2\n      0x00\n      dup8\n      gas\n      call\n      iszero\n      dup1\n      iszero\n      tag_333\n      jumpi\n      returndatacopy(0x00, 0x00, returndatasize)\n      revert(0x00, returndatasize)\n    tag_333:\n      pop\n      pop\n      pop\n      pop\n      mload(0x40)\n      returndatasize\n      0x00\n      dup3\n      returndatacopy\n      0x1f\n      returndatasize\n      swap1\n      dup2\n      add\n      not(0x1f)\n      and\n      dup3\n      add\n      0x40\n      mstore\n      tag_334\n      swap2\n      swap1\n      dup2\n      add\n      swap1\n      tag_325\n      jump\t// in\n    tag_334:\n      pop\n        /* \"profxexpo.sol\":14675:14685  lastUserId */\n      0x13\n      dup1\n      sload\n      sub(shl(0xa0, 0x01), 0x01)\n        /* \"profxexpo.sol\":14653:14665  users[_user] */\n      dup7\n      dup2\n      and\n      0x00\n      dup2\n      dup2\n      mstore\n        /* \"profxexpo.sol\":14653:14658  users */\n      0x1d\n        /* \"profxexpo.sol\":14653:14665  users[_user] */\n      0x20\n      dup2\n      dup2\n      mstore\n      0x40\n      dup1\n      dup5\n      keccak256\n        /* \"profxexpo.sol\":14653:14685  users[_user].userId = lastUserId */\n      dup8\n      dup2\n      sstore\n        /* \"profxexpo.sol\":14695:14718  idToAddress[lastUserId] */\n      swap7\n      dup5\n      mstore\n        /* \"profxexpo.sol\":14695:14706  idToAddress */\n      0x1e\n        /* \"profxexpo.sol\":14695:14718  idToAddress[lastUserId] */\n      dup3\n      mstore\n      dup4\n      keccak256\n        /* \"profxexpo.sol\":14695:14726  idToAddress[lastUserId] = _user */\n      dup1\n      sload\n      not(sub(shl(0xa0, 0x01), 0x01))\n      swap1\n      dup2\n      and\n      dup7\n      or\n      swap1\n      swap2\n      sstore\n        /* \"profxexpo.sol\":14736:14748  users[_user] */\n      swap4\n      dup4\n      mstore\n      mstore\n      0x01\n        /* \"profxexpo.sol\":14736:14757  users[_user].referrer */\n      swap1\n      swap4\n      add\n        /* \"profxexpo.sol\":14736:14769  users[_user].referrer = _referral */\n      dup1\n      sload\n      swap1\n      swap2\n      and\n      swap2\n      dup8\n      and\n      swap2\n      swap1\n      swap2\n      or\n      swap1\n      sstore\n        /* \"profxexpo.sol\":14779:14791  lastUserId++ */\n      dup2\n      sload\n      swap2\n        /* \"profxexpo.sol\":14675:14685  lastUserId */\n      swap1\n        /* \"profxexpo.sol\":14779:14791  lastUserId++ */\n      tag_335\n      dup4\n      tag_336\n      jump\t// in\n    tag_335:\n      swap1\n      swap2\n      sstore\n      pop\n      pop\n      sub(shl(0xa0, 0x01), 0x01)\n        /* \"profxexpo.sol\":14801:14817  users[_referral] */\n      dup4\n      and\n      0x00\n      swap1\n      dup2\n      mstore\n        /* \"profxexpo.sol\":14801:14806  users */\n      0x1d\n        /* \"profxexpo.sol\":14801:14817  users[_referral] */\n      0x20\n      mstore\n      0x40\n      dup2\n      keccak256\n        /* \"profxexpo.sol\":14801:14830  users[_referral].partnerCount */\n      0x02\n      add\n        /* \"profxexpo.sol\":14801:14832  users[_referral].partnerCount++ */\n      dup1\n      sload\n      swap2\n      tag_337\n      dup4\n      tag_336\n      jump\t// in\n    tag_337:\n      swap1\n      swap2\n      sstore\n      pop\n      pop\n      sub(shl(0xa0, 0x01), 0x01)\n        /* \"profxexpo.sol\":14848:15002  Registration(... */\n      dup5\n      dup2\n      and\n        /* \"profxexpo.sol\":14916:14928  users[_user] */\n      0x00\n      dup2\n      dup2\n      mstore\n        /* \"profxexpo.sol\":14916:14921  users */\n      0x1d\n        /* \"profxexpo.sol\":14916:14928  users[_user] */\n      0x20\n      mstore\n      0x40\n      dup1\n      dup3\n      keccak256\n        /* \"profxexpo.sol\":14916:14935  users[_user].userId */\n      sload\n        /* \"profxexpo.sol\":14848:15002  Registration(... */\n      swap4\n      dup8\n      and\n        /* \"profxexpo.sol\":14949:14965  users[_referral] */\n      dup1\n      dup4\n      mstore\n      swap2\n      dup2\n      swap1\n      keccak256\n        /* \"profxexpo.sol\":14949:14972  users[_referral].userId */\n      sload\n        /* \"profxexpo.sol\":14848:15002  Registration(... */\n      swap1\n      mload\n      swap2\n      swap4\n      mload(0x00)\n      codecopy(0x00, data_94466a41869f0ad3d2beb923f23817e68426e7ab720b5288442cefdbe65a2fef, 0x20)\n      mload(0x00)\n      swap1\n      0x00\n      mstore\n      swap3\n      tag_338\n      swap3\n        /* \"profxexpo.sol\":14949:14972  users[_referral].userId */\n      swap1\n        /* \"profxexpo.sol\":14848:15002  Registration(... */\n      tag_339\n      jump\t// in\n    tag_338:\n      mload(0x40)\n      dup1\n      swap2\n      sub\n      swap1\n      log3\n        /* \"profxexpo.sol\":13701:15010  {... */\n      pop\n      pop\n        /* \"profxexpo.sol\":13634:15010  function registrationUSDT(address _user, address _referral) public {... */\n      pop\n      pop\n      jump\t// out\n        /* \"profxexpo.sol\":23804:24162  function getPriceFromUniswapV2(uint256 amountUsd)... */\n    tag_83:\n        /* \"profxexpo.sol\":23947:23963  new address[](2) */\n      0x40\n      dup1\n      mload\n        /* \"profxexpo.sol\":23961:23962  2 */\n      0x02\n        /* \"profxexpo.sol\":23947:23963  new address[](2) */\n      dup1\n      dup3\n      mstore\n      0x60\n      dup3\n      add\n      dup4\n      mstore\n        /* \"profxexpo.sol\":23899:23906  uint256 */\n      0x00\n      swap3\n      dup4\n      swap3\n        /* \"profxexpo.sol\":23947:23963  new address[](2) */\n      swap2\n        /* \"profxexpo.sol\":23961:23962  2 */\n      swap1\n        /* \"profxexpo.sol\":23947:23963  new address[](2) */\n      0x20\n      dup4\n      add\n      swap1\n      dup1\n      calldatasize\n      dup4\n      calldatacopy\n      pop\n      pop\n        /* \"profxexpo.sol\":23984:23988  USDT */\n      sload(0x04)\n        /* \"profxexpo.sol\":23973:23981  paths[0] */\n      dup3\n      mload\n      swap3\n      swap4\n      pop\n      sub(shl(0xa0, 0x01), 0x01)\n        /* \"profxexpo.sol\":23984:23988  USDT */\n      and\n      swap2\n        /* \"profxexpo.sol\":23973:23981  paths[0] */\n      dup4\n      swap2\n      pop\n        /* \"profxexpo.sol\":23984:23988  USDT */\n      0x00\n      swap1\n        /* \"profxexpo.sol\":23973:23981  paths[0] */\n      tag_345\n      jumpi\n      tag_345\n      tag_317\n      jump\t// in\n    tag_345:\n      sub(shl(0xa0, 0x01), 0x01)\n        /* \"profxexpo.sol\":23973:23988  paths[0] = USDT */\n      swap3\n      dup4\n      and\n        /* \"profxexpo.sol\":23973:23981  paths[0] */\n      0x20\n      swap2\n      dup3\n      mul\n      swap3\n      swap1\n      swap3\n      add\n      add\n        /* \"profxexpo.sol\":23973:23988  paths[0] = USDT */\n      mstore\n        /* \"profxexpo.sol\":24009:24012  DSC */\n      sload(0x05)\n        /* \"profxexpo.sol\":23998:24006  paths[1] */\n      dup3\n      mload\n        /* \"profxexpo.sol\":24009:24012  DSC */\n      swap2\n      and\n      swap1\n        /* \"profxexpo.sol\":23998:24003  paths */\n      dup3\n      swap1\n        /* \"profxexpo.sol\":24009:24012  DSC */\n      0x01\n      swap1\n        /* \"profxexpo.sol\":23998:24006  paths[1] */\n      dup2\n      lt\n      tag_347\n      jumpi\n      tag_347\n      tag_317\n      jump\t// in\n    tag_347:\n      sub(shl(0xa0, 0x01), 0x01)\n        /* \"profxexpo.sol\":23998:24012  paths[1] = DSC */\n      swap3\n      dup4\n      and\n        /* \"profxexpo.sol\":23998:24006  paths[1] */\n      0x20\n      swap2\n      dup3\n      mul\n      swap3\n      swap1\n      swap3\n      add\n      add\n        /* \"profxexpo.sol\":23998:24012  paths[1] = DSC */\n      mstore\n        /* \"profxexpo.sol\":24049:24062  uniswapRouter */\n      sload(0x1f)\n        /* \"profxexpo.sol\":24049:24128  uniswapRouter.getAmountsOut(... */\n      mload(0x40)\n      shl(0xe0, 0xd06ca61f)\n      dup2\n      mstore\n        /* \"profxexpo.sol\":24022:24046  uint256[] memory amounts */\n      0x00\n      swap3\n        /* \"profxexpo.sol\":24049:24062  uniswapRouter */\n      swap2\n      swap1\n      swap2\n      and\n      swap1\n        /* \"profxexpo.sol\":24049:24076  uniswapRouter.getAmountsOut */\n      0xd06ca61f\n      swap1\n        /* \"profxexpo.sol\":24049:24128  uniswapRouter.getAmountsOut(... */\n      tag_348\n      swap1\n        /* \"profxexpo.sol\":24090:24099  amountUsd */\n      dup8\n      swap1\n        /* \"profxexpo.sol\":24113:24118  paths */\n      dup7\n      swap1\n        /* \"profxexpo.sol\":24049:24128  uniswapRouter.getAmountsOut(... */\n      0x04\n      add\n      tag_321\n      jump\t// in\n    tag_348:\n      0x00\n      mload(0x40)\n      dup1\n      dup4\n      sub\n      dup2\n      dup7\n      gas\n      staticcall\n      iszero\n      dup1\n      iszero\n      tag_350\n      jumpi\n      returndatacopy(0x00, 0x00, returndatasize)\n      revert(0x00, returndatasize)\n    tag_350:\n      pop\n      pop\n      pop\n      pop\n      mload(0x40)\n      returndatasize\n      0x00\n      dup3\n      returndatacopy\n      0x1f\n      returndatasize\n      swap1\n      dup2\n      add\n      not(0x1f)\n      and\n      dup3\n      add\n      0x40\n      mstore\n      tag_351\n      swap2\n      swap1\n      dup2\n      add\n      swap1\n      tag_325\n      jump\t// in\n    tag_351:\n        /* \"profxexpo.sol\":24022:24128  uint256[] memory amounts = uniswapRouter.getAmountsOut(... */\n      swap1\n      pop\n        /* \"profxexpo.sol\":24145:24152  amounts */\n      dup1\n        /* \"profxexpo.sol\":24153:24154  1 */\n      0x01\n        /* \"profxexpo.sol\":24145:24155  amounts[1] */\n      dup2\n      mload\n      dup2\n      lt\n      tag_353\n      jumpi\n      tag_353\n      tag_317\n      jump\t// in\n    tag_353:\n      0x20\n      mul\n      0x20\n      add\n      add\n      mload\n        /* \"profxexpo.sol\":24138:24155  return amounts[1] */\n      swap3\n      pop\n      pop\n      pop\n        /* \"profxexpo.sol\":23804:24162  function getPriceFromUniswapV2(uint256 amountUsd)... */\n      swap2\n      swap1\n      pop\n      jump\t// out\n        /* \"profxexpo.sol\":18716:20371  function stakeDSC(uint amount, uint plan, address _referral) public {... */\n    tag_118:\n        /* \"profxexpo.sol\":18798:18824  isUserExists(_msgSender()) */\n      tag_355\n        /* \"profxexpo.sol\":242:252  msg.sender */\n      caller\n        /* \"profxexpo.sol\":23686:23798  function isUserExists(address user) public view returns (bool) {... */\n      tag_131\n      jump\t// in\n        /* \"profxexpo.sol\":18798:18824  isUserExists(_msgSender()) */\n    tag_355:\n        /* \"profxexpo.sol\":18794:18888  if(!isUserExists(_msgSender())){... */\n      tag_358\n      jumpi\n        /* \"profxexpo.sol\":18835:18877  registration(_msgSender(),_referral,\"DSC\") */\n      tag_358\n        /* \"profxexpo.sol\":242:252  msg.sender */\n      caller\n        /* \"profxexpo.sol\":18848:18860  _msgSender() */\n    tag_359:\n        /* \"profxexpo.sol\":18861:18870  _referral */\n      dup3\n        /* \"profxexpo.sol\":18835:18877  registration(_msgSender(),_referral,\"DSC\") */\n      mload(0x40)\n      dup1\n      0x40\n      add\n      0x40\n      mstore\n      dup1\n      0x03\n      dup2\n      mstore\n      0x20\n      add\n      shl(0xe8, 0x445343)\n      dup2\n      mstore\n      pop\n        /* \"profxexpo.sol\":18835:18847  registration */\n      tag_288\n        /* \"profxexpo.sol\":18835:18877  registration(_msgSender(),_referral,\"DSC\") */\n      jump\t// in\n    tag_358:\n        /* \"profxexpo.sol\":18905:18931  isUserExists(_msgSender()) */\n      tag_360\n        /* \"profxexpo.sol\":242:252  msg.sender */\n      caller\n        /* \"profxexpo.sol\":23686:23798  function isUserExists(address user) public view returns (bool) {... */\n      tag_131\n      jump\t// in\n        /* \"profxexpo.sol\":18905:18931  isUserExists(_msgSender()) */\n    tag_360:\n        /* \"profxexpo.sol\":18897:18960  require(isUserExists(_msgSender()), \"Dsclab: User not Exists!\") */\n      tag_362\n      jumpi\n      mload(0x40)\n      shl(0xe5, 0x461bcd)\n      dup2\n      mstore\n      0x04\n      add\n      tag_279\n      swap1\n      tag_364\n      jump\t// in\n    tag_362:\n        /* \"profxexpo.sol\":18988:18996  minStake */\n      sload(0x0c)\n        /* \"profxexpo.sol\":18978:18984  amount */\n      dup4\n        /* \"profxexpo.sol\":18978:18996  amount >= minStake */\n      lt\n      iszero\n        /* \"profxexpo.sol\":18970:19026  require(amount >= minStake, \"Minimum Activation is $60\") */\n      tag_365\n      jumpi\n      mload(0x40)\n      shl(0xe5, 0x461bcd)\n      dup2\n      mstore\n      0x04\n      add\n      tag_279\n      swap1\n      tag_367\n      jump\t// in\n    tag_365:\n        /* \"profxexpo.sol\":19054:19062  maxStake */\n      sload(0x0d)\n        /* \"profxexpo.sol\":19044:19050  amount */\n      dup4\n        /* \"profxexpo.sol\":19044:19062  amount <= maxStake */\n      gt\n      iszero\n        /* \"profxexpo.sol\":19036:19095  require(amount <= maxStake, \"Maximum Activation is $10000\") */\n      tag_368\n      jumpi\n      mload(0x40)\n      shl(0xe5, 0x461bcd)\n      dup2\n      mstore\n      0x04\n      add\n      tag_279\n      swap1\n      tag_370\n      jump\t// in\n    tag_368:\n        /* \"profxexpo.sol\":19113:19117  plan */\n      dup2\n        /* \"profxexpo.sol\":19121:19122  1 */\n      0x01\n        /* \"profxexpo.sol\":19113:19122  plan == 1 */\n      eq\n        /* \"profxexpo.sol\":19105:19170  require(plan == 1, \"In Fix plan only USDT investment is allowed\") */\n      tag_371\n      jumpi\n      mload(0x40)\n      shl(0xe5, 0x461bcd)\n      dup2\n      mstore\n      0x04\n      add\n      tag_279\n      swap1\n      tag_373\n      jump\t// in\n    tag_371:\n        /* \"profxexpo.sol\":242:252  msg.sender */\n      caller\n        /* \"profxexpo.sol\":19180:19194  uint lastinvst */\n      0x00\n        /* \"profxexpo.sol\":19197:19216  users[_msgSender()] */\n      swap1\n      dup2\n      mstore\n        /* \"profxexpo.sol\":19197:19202  users */\n      0x1d\n        /* \"profxexpo.sol\":19197:19216  users[_msgSender()] */\n      0x20\n      mstore\n      0x40\n      swap1\n      keccak256\n        /* \"profxexpo.sol\":19197:19227  users[_msgSender()].lastinvest */\n      0x06\n      add\n      sload\n        /* \"profxexpo.sol\":19240:19253  lastinvst > 0 */\n      dup1\n      iszero\n        /* \"profxexpo.sol\":19237:19366  if(lastinvst > 0){... */\n      tag_376\n      jumpi\n        /* \"profxexpo.sol\":19282:19291  lastinvst */\n      dup1\n        /* \"profxexpo.sol\":19272:19278  amount */\n      dup5\n        /* \"profxexpo.sol\":19272:19291  amount >= lastinvst */\n      lt\n      iszero\n        /* \"profxexpo.sol\":19264:19351  require(amount >= lastinvst, \"Re Investment Should Equal/Greater than last Investment\") */\n      tag_376\n      jumpi\n      mload(0x40)\n      shl(0xe5, 0x461bcd)\n      dup2\n      mstore\n      0x04\n      add\n      tag_279\n      swap1\n      tag_378\n      jump\t// in\n    tag_376:\n        /* \"profxexpo.sol\":19399:19415  new address[](2) */\n      0x40\n      dup1\n      mload\n        /* \"profxexpo.sol\":19413:19414  2 */\n      0x02\n        /* \"profxexpo.sol\":19399:19415  new address[](2) */\n      dup1\n      dup3\n      mstore\n      0x60\n      dup3\n      add\n      dup4\n      mstore\n        /* \"profxexpo.sol\":19375:19396  address[] memory path */\n      0x00\n      swap3\n        /* \"profxexpo.sol\":19399:19415  new address[](2) */\n      0x20\n      dup4\n      add\n      swap1\n      dup1\n      calldatasize\n      dup4\n      calldatacopy\n      pop\n      pop\n        /* \"profxexpo.sol\":19471:19475  USDT */\n      sload(0x04)\n        /* \"profxexpo.sol\":19461:19468  path[0] */\n      dup3\n      mload\n      swap3\n      swap4\n      pop\n      sub(shl(0xa0, 0x01), 0x01)\n        /* \"profxexpo.sol\":19471:19475  USDT */\n      and\n      swap2\n        /* \"profxexpo.sol\":19461:19468  path[0] */\n      dup4\n      swap2\n      pop\n        /* \"profxexpo.sol\":19471:19475  USDT */\n      0x00\n      swap1\n        /* \"profxexpo.sol\":19461:19468  path[0] */\n      tag_383\n      jumpi\n      tag_383\n      tag_317\n      jump\t// in\n    tag_383:\n      sub(shl(0xa0, 0x01), 0x01)\n        /* \"profxexpo.sol\":19461:19475  path[0] = USDT */\n      swap3\n      dup4\n      and\n        /* \"profxexpo.sol\":19461:19468  path[0] */\n      0x20\n      swap2\n      dup3\n      mul\n      swap3\n      swap1\n      swap3\n      add\n      add\n        /* \"profxexpo.sol\":19461:19475  path[0] = USDT */\n      mstore\n        /* \"profxexpo.sol\":19495:19498  DSC */\n      sload(0x05)\n        /* \"profxexpo.sol\":19485:19492  path[1] */\n      dup3\n      mload\n        /* \"profxexpo.sol\":19495:19498  DSC */\n      swap2\n      and\n      swap1\n        /* \"profxexpo.sol\":19485:19489  path */\n      dup3\n      swap1\n        /* \"profxexpo.sol\":19495:19498  DSC */\n      0x01\n      swap1\n        /* \"profxexpo.sol\":19485:19492  path[1] */\n      dup2\n      lt\n      tag_385\n      jumpi\n      tag_385\n      tag_317\n      jump\t// in\n    tag_385:\n      0x20\n      mul\n      0x20\n      add\n      add\n        /* \"profxexpo.sol\":19485:19498  path[1] = DSC */\n      swap1\n      sub(shl(0xa0, 0x01), 0x01)\n      and\n      swap1\n      dup2\n      sub(shl(0xa0, 0x01), 0x01)\n      and\n      dup2\n      mstore\n      pop\n      pop\n        /* \"profxexpo.sol\":19508:19517  uint rate */\n      0x00\n        /* \"profxexpo.sol\":19520:19541  getCurrentPrice(path) */\n      tag_386\n        /* \"profxexpo.sol\":19536:19540  path */\n      dup3\n        /* \"profxexpo.sol\":19520:19535  getCurrentPrice */\n      tag_179\n        /* \"profxexpo.sol\":19520:19541  getCurrentPrice(path) */\n      jump\t// in\n    tag_386:\n        /* \"profxexpo.sol\":19508:19541  uint rate = getCurrentPrice(path) */\n      swap1\n      pop\n        /* \"profxexpo.sol\":19551:19566  uint dsctotrans */\n      0x00\n        /* \"profxexpo.sol\":19585:19589  1e18 */\n      0x0de0b6b3a7640000\n        /* \"profxexpo.sol\":19570:19583  amount * rate */\n      tag_387\n        /* \"profxexpo.sol\":19508:19541  uint rate = getCurrentPrice(path) */\n      dup4\n        /* \"profxexpo.sol\":19570:19576  amount */\n      dup10\n        /* \"profxexpo.sol\":19570:19583  amount * rate */\n      tag_388\n      jump\t// in\n    tag_387:\n        /* \"profxexpo.sol\":19569:19589  (amount * rate)/1e18 */\n      tag_389\n      swap2\n      swap1\n      tag_390\n      jump\t// in\n    tag_389:\n        /* \"profxexpo.sol\":19627:19630  DSC */\n      sload(0x05)\n        /* \"profxexpo.sol\":19551:19589  uint dsctotrans = (amount * rate)/1e18 */\n      swap1\n      swap2\n      pop\n      dup2\n      swap1\n      sub(shl(0xa0, 0x01), 0x01)\n        /* \"profxexpo.sol\":19627:19630  DSC */\n      and\n        /* \"profxexpo.sol\":19620:19641  IERC20(DSC).allowance */\n      0xdd62ed3e\n        /* \"profxexpo.sol\":242:252  msg.sender */\n      caller\n        /* \"profxexpo.sol\":19620:19670  IERC20(DSC).allowance(_msgSender(), address(this)) */\n      mload(0x40)\n      not(sub(shl(0xe0, 0x01), 0x01))\n      0xe0\n      dup5\n      swap1\n      shl\n      and\n      dup2\n      mstore\n      sub(shl(0xa0, 0x01), 0x01)\n        /* \"#utility.yul\":9192:9224   */\n      swap1\n      swap2\n      and\n        /* \"profxexpo.sol\":19620:19670  IERC20(DSC).allowance(_msgSender(), address(this)) */\n      0x04\n      dup3\n      add\n        /* \"#utility.yul\":9174:9225   */\n      mstore\n        /* \"profxexpo.sol\":19664:19668  this */\n      address\n        /* \"#utility.yul\":9241:9259   */\n      0x24\n      dup3\n      add\n        /* \"#utility.yul\":9234:9294   */\n      mstore\n        /* \"#utility.yul\":9147:9165   */\n      0x44\n      add\n        /* \"profxexpo.sol\":19620:19670  IERC20(DSC).allowance(_msgSender(), address(this)) */\n      0x20\n      mload(0x40)\n      dup1\n      dup4\n      sub\n      dup2\n      dup7\n      gas\n      staticcall\n      iszero\n      dup1\n      iszero\n      tag_394\n      jumpi\n      returndatacopy(0x00, 0x00, returndatasize)\n      revert(0x00, returndatasize)\n    tag_394:\n      pop\n      pop\n      pop\n      pop\n      mload(0x40)\n      returndatasize\n      not(0x1f)\n      0x1f\n      dup3\n      add\n      and\n      dup3\n      add\n      dup1\n      0x40\n      mstore\n      pop\n      dup2\n      add\n      swap1\n      tag_395\n      swap2\n      swap1\n      tag_295\n      jump\t// in\n    tag_395:\n        /* \"profxexpo.sol\":19620:19684  IERC20(DSC).allowance(_msgSender(), address(this)) >= dsctotrans */\n      lt\n      iszero\n        /* \"profxexpo.sol\":19599:19728  require(... */\n      tag_396\n      jumpi\n      mload(0x40)\n      shl(0xe5, 0x461bcd)\n      dup2\n      mstore\n        /* \"#utility.yul\":16738:16740   */\n      0x20\n        /* \"profxexpo.sol\":19599:19728  require(... */\n      0x04\n      dup3\n      add\n        /* \"#utility.yul\":16720:16741   */\n      mstore\n        /* \"#utility.yul\":16777:16779   */\n      0x12\n        /* \"#utility.yul\":16757:16775   */\n      0x24\n      dup3\n      add\n        /* \"#utility.yul\":16750:16780   */\n      mstore\n      shl(0x75, 0x02229a1b630b11d1030b63637bbb0b731b29)\n        /* \"#utility.yul\":16796:16814   */\n      0x44\n      dup3\n      add\n        /* \"#utility.yul\":16789:16837   */\n      mstore\n        /* \"#utility.yul\":16854:16872   */\n      0x64\n      add\n        /* \"profxexpo.sol\":19599:19728  require(... */\n      tag_279\n        /* \"#utility.yul\":16536:16878   */\n      jump\n        /* \"profxexpo.sol\":19599:19728  require(... */\n    tag_396:\n        /* \"profxexpo.sol\":19750:19753  DSC */\n      and(sub(shl(0xa0, 0x01), 0x01), sload(0x05))\n        /* \"profxexpo.sol\":19743:19767  IERC20(DSC).transferFrom */\n      0x23b872dd\n        /* \"profxexpo.sol\":242:252  msg.sender */\n      caller\n        /* \"profxexpo.sol\":19790:19794  this */\n      address\n        /* \"profxexpo.sol\":19797:19807  dsctotrans */\n      dup5\n        /* \"profxexpo.sol\":19743:19808  IERC20(DSC).transferFrom(_msgSender(), address(this), dsctotrans) */\n      mload(0x40)\n      dup5\n      0xffffffff\n      and\n      0xe0\n      shl\n      dup2\n      mstore\n      0x04\n      add\n      tag_400\n      swap4\n      swap3\n      swap2\n      swap1\n      tag_301\n      jump\t// in\n    tag_400:\n      0x20\n      mload(0x40)\n      dup1\n      dup4\n      sub\n      dup2\n      0x00\n      dup8\n      gas\n      call\n      iszero\n      dup1\n      iszero\n      tag_402\n      jumpi\n      returndatacopy(0x00, 0x00, returndatasize)\n      revert(0x00, returndatasize)\n    tag_402:\n      pop\n      pop\n      pop\n      pop\n      mload(0x40)\n      returndatasize\n      not(0x1f)\n      0x1f\n      dup3\n      add\n      and\n      dup3\n      add\n      dup1\n      0x40\n      mstore\n      pop\n      dup2\n      add\n      swap1\n      tag_403\n      swap2\n      swap1\n      tag_305\n      jump\t// in\n    tag_403:\n      pop\n        /* \"profxexpo.sol\":242:252  msg.sender */\n      caller\n        /* \"profxexpo.sol\":19883:19894  address ref */\n      0x00\n        /* \"profxexpo.sol\":19897:19916  users[_msgSender()] */\n      swap1\n      dup2\n      mstore\n        /* \"profxexpo.sol\":19897:19902  users */\n      0x1d\n        /* \"profxexpo.sol\":19897:19916  users[_msgSender()] */\n      0x20\n      mstore\n      0x40\n      dup2\n      keccak256\n        /* \"profxexpo.sol\":19897:19925  users[_msgSender()].referrer */\n      0x01\n      dup2\n      add\n      sload\n        /* \"profxexpo.sol\":19951:19981  users[_msgSender()].totalStake */\n      0x03\n      swap1\n      swap2\n      add\n      sload\n      sub(shl(0xa0, 0x01), 0x01)\n        /* \"profxexpo.sol\":19897:19925  users[_msgSender()].referrer */\n      swap1\n      swap2\n      and\n      swap2\n        /* \"profxexpo.sol\":20018:20031  usrstake == 0 */\n      dup2\n      iszero\n        /* \"profxexpo.sol\":20017:20052  (usrstake == 0) ? \"New\" : \"Retopup\" */\n      tag_406\n      jumpi\n      mload(0x40)\n      dup1\n      0x40\n      add\n      0x40\n      mstore\n      dup1\n      0x07\n      dup2\n      mstore\n      0x20\n      add\n      shl(0xcc, 0x05265746f70757)\n      dup2\n      mstore\n      pop\n      jump(tag_407)\n    tag_406:\n      mload(0x40)\n      dup1\n      0x40\n      add\n      0x40\n      mstore\n      dup1\n      0x03\n      dup2\n      mstore\n      0x20\n      add\n      shl(0xe8, 0x4e6577)\n      dup2\n      mstore\n      pop\n    tag_407:\n        /* \"profxexpo.sol\":19991:20052  string memory stakeType = (usrstake == 0) ? \"New\" : \"Retopup\" */\n      swap1\n      pop\n        /* \"profxexpo.sol\":20073:20083  msg.sender */\n      caller\n      sub(shl(0xa0, 0x01), 0x01)\n        /* \"profxexpo.sol\":20067:20128  Stake(msg.sender, amount, dsctotrans, \"DSC\", stakeType, plan) */\n      and\n      0xabd608a4ba071391876d4741f99ba49362bd2fc5afcf4f1fc9ecf91d6a73ccf8\n        /* \"profxexpo.sol\":20085:20091  amount */\n      dup12\n        /* \"profxexpo.sol\":20093:20103  dsctotrans */\n      dup7\n        /* \"profxexpo.sol\":20112:20121  stakeType */\n      dup5\n        /* \"profxexpo.sol\":20123:20127  plan */\n      dup14\n        /* \"profxexpo.sol\":20067:20128  Stake(msg.sender, amount, dsctotrans, \"DSC\", stakeType, plan) */\n      mload(0x40)\n      tag_408\n      swap5\n      swap4\n      swap3\n      swap2\n      swap1\n      tag_409\n      jump\t// in\n    tag_408:\n      mload(0x40)\n      dup1\n      swap2\n      sub\n      swap1\n      log2\n        /* \"profxexpo.sol\":242:252  msg.sender */\n      caller\n        /* \"profxexpo.sol\":20138:20157  users[_msgSender()] */\n      0x00\n      swap1\n      dup2\n      mstore\n        /* \"profxexpo.sol\":20138:20143  users */\n      0x1d\n        /* \"profxexpo.sol\":20138:20157  users[_msgSender()] */\n      0x20\n      mstore\n      0x40\n      dup2\n      keccak256\n        /* \"profxexpo.sol\":20138:20168  users[_msgSender()].lastinvest */\n      0x06\n      dup2\n      add\n        /* \"profxexpo.sol\":20138:20177  users[_msgSender()].lastinvest = amount */\n      dup13\n      swap1\n      sstore\n        /* \"profxexpo.sol\":20187:20217  users[_msgSender()].totalStake */\n      0x03\n      add\n        /* \"profxexpo.sol\":20187:20227  users[_msgSender()].totalStake += amount */\n      dup1\n      sload\n        /* \"profxexpo.sol\":20138:20177  users[_msgSender()].lastinvest = amount */\n      dup13\n      swap3\n        /* \"profxexpo.sol\":20138:20157  users[_msgSender()] */\n      swap1\n        /* \"profxexpo.sol\":20187:20227  users[_msgSender()].totalStake += amount */\n      tag_412\n      swap1\n        /* \"profxexpo.sol\":20138:20177  users[_msgSender()].lastinvest = amount */\n      dup5\n      swap1\n        /* \"profxexpo.sol\":20187:20227  users[_msgSender()].totalStake += amount */\n      tag_329\n      jump\t// in\n    tag_412:\n      swap1\n      swap2\n      sstore\n      pop\n      pop\n        /* \"profxexpo.sol\":242:252  msg.sender */\n      caller\n        /* \"profxexpo.sol\":20237:20250  uint refStake */\n      0x00\n        /* \"profxexpo.sol\":20253:20272  users[_msgSender()] */\n      swap1\n      dup2\n      mstore\n        /* \"profxexpo.sol\":20253:20258  users */\n      0x1d\n        /* \"profxexpo.sol\":20253:20272  users[_msgSender()] */\n      0x20\n      mstore\n      0x40\n      dup2\n      keccak256\n        /* \"profxexpo.sol\":20253:20283  users[_msgSender()].totalStake */\n      0x03\n      add\n      sload\n      swap1\n        /* \"profxexpo.sol\":20296:20309  refStake == 0 */\n      dup2\n      swap1\n      sub\n        /* \"profxexpo.sol\":20293:20356  if(refStake == 0){... */\n      tag_414\n      jumpi\n      sub(shl(0xa0, 0x01), 0x01)\n        /* \"profxexpo.sol\":20320:20330  users[ref] */\n      dup5\n      and\n      0x00\n      swap1\n      dup2\n      mstore\n        /* \"profxexpo.sol\":20320:20325  users */\n      0x1d\n        /* \"profxexpo.sol\":20320:20330  users[ref] */\n      0x20\n      mstore\n      0x40\n      dup2\n      keccak256\n        /* \"profxexpo.sol\":20320:20343  users[ref].partnerCount */\n      0x02\n      add\n        /* \"profxexpo.sol\":20320:20345  users[ref].partnerCount++ */\n      dup1\n      sload\n      swap2\n      tag_415\n      dup4\n      tag_336\n      jump\t// in\n    tag_415:\n      swap2\n      swap1\n      pop\n      sstore\n      pop\n        /* \"profxexpo.sol\":20293:20356  if(refStake == 0){... */\n    tag_414:\n        /* \"profxexpo.sol\":18784:20371  {... */\n      pop\n      pop\n      pop\n      pop\n      pop\n      pop\n      pop\n      pop\n        /* \"profxexpo.sol\":18716:20371  function stakeDSC(uint amount, uint plan, address _referral) public {... */\n      pop\n      pop\n      pop\n      jump\t// out\n        /* \"profxexpo.sol\":24237:24304  function unpause() external onlyOperator {... */\n    tag_121:\n        /* \"profxexpo.sol\":11923:11931  operator */\n      and(sub(shl(0xa0, 0x01), 0x01), sload(0x03))\n        /* \"profxexpo.sol\":242:252  msg.sender */\n      caller\n      sub(shl(0xa0, 0x01), 0x01)\n        /* \"profxexpo.sol\":11909:11931  _msgSender()==operator */\n      and\n      eq\n        /* \"profxexpo.sol\":11901:11968  require(_msgSender()==operator,\"Forbidden! Only Operator Can Call\") */\n      tag_418\n      jumpi\n      mload(0x40)\n      shl(0xe5, 0x461bcd)\n      dup2\n      mstore\n      0x04\n      add\n      tag_279\n      swap1\n      tag_420\n      jump\t// in\n    tag_418:\n        /* \"profxexpo.sol\":24287:24297  _unpause() */\n      tag_422\n        /* \"profxexpo.sol\":24287:24295  _unpause */\n      tag_423\n        /* \"profxexpo.sol\":24287:24297  _unpause() */\n      jump\t// in\n    tag_422:\n        /* \"profxexpo.sol\":24237:24304  function unpause() external onlyOperator {... */\n      jump\t// out\n        /* \"profxexpo.sol\":23686:23798  function isUserExists(address user) public view returns (bool) {... */\n    tag_131:\n      sub(shl(0xa0, 0x01), 0x01)\n        /* \"profxexpo.sol\":23767:23778  users[user] */\n      and\n        /* \"profxexpo.sol\":23743:23747  bool */\n      0x00\n        /* \"profxexpo.sol\":23767:23778  users[user] */\n      swap1\n      dup2\n      mstore\n        /* \"profxexpo.sol\":23767:23772  users */\n      0x1d\n        /* \"profxexpo.sol\":23767:23778  users[user] */\n      0x20\n      mstore\n      0x40\n      swap1\n      keccak256\n        /* \"profxexpo.sol\":23767:23785  users[user].userId */\n      sload\n        /* \"profxexpo.sol\":23767:23790  users[user].userId != 0 */\n      iszero\n      iszero\n      swap1\n        /* \"profxexpo.sol\":23686:23798  function isUserExists(address user) public view returns (bool) {... */\n      jump\t// out\n        /* \"profxexpo.sol\":15016:15830  function registerbystDSC(address _user, address _referral) external {... */\n    tag_150:\n        /* \"profxexpo.sol\":15103:15122  isUserExists(_user) */\n      tag_427\n        /* \"profxexpo.sol\":15116:15121  _user */\n      dup3\n        /* \"profxexpo.sol\":15103:15115  isUserExists */\n      tag_131\n        /* \"profxexpo.sol\":15103:15122  isUserExists(_user) */\n      jump\t// in\n    tag_427:\n        /* \"profxexpo.sol\":15102:15122  !isUserExists(_user) */\n      iszero\n        /* \"profxexpo.sol\":15094:15147  require(!isUserExists(_user), \"Dsclab: User Exists!\") */\n      tag_428\n      jumpi\n      mload(0x40)\n      shl(0xe5, 0x461bcd)\n      dup2\n      mstore\n      0x04\n      add\n      tag_279\n      swap1\n      tag_280\n      jump\t// in\n    tag_428:\n        /* \"profxexpo.sol\":15165:15188  isUserExists(_referral) */\n      tag_430\n        /* \"profxexpo.sol\":15178:15187  _referral */\n      dup2\n        /* \"profxexpo.sol\":15165:15177  isUserExists */\n      tag_131\n        /* \"profxexpo.sol\":15165:15188  isUserExists(_referral) */\n      jump\t// in\n    tag_430:\n        /* \"profxexpo.sol\":15157:15225  require(isUserExists(_referral), \"Dsclab: Referrer does not exist!\") */\n      tag_431\n      jumpi\n      mload(0x40)\n      shl(0xe5, 0x461bcd)\n      dup2\n      mstore\n        /* \"#utility.yul\":18598:18600   */\n      0x20\n        /* \"profxexpo.sol\":15157:15225  require(isUserExists(_referral), \"Dsclab: Referrer does not exist!\") */\n      0x04\n      dup3\n      add\n        /* \"#utility.yul\":18580:18601   */\n      dup2\n      swap1\n      mstore\n        /* \"#utility.yul\":18617:18635   */\n      0x24\n      dup3\n      add\n        /* \"#utility.yul\":18610:18640   */\n      mstore\n        /* \"#utility.yul\":18676:18710   */\n      0x4473636c61623a20526566657272657220646f6573206e6f7420657869737421\n        /* \"#utility.yul\":18656:18674   */\n      0x44\n      dup3\n      add\n        /* \"#utility.yul\":18649:18711   */\n      mstore\n        /* \"#utility.yul\":18728:18746   */\n      0x64\n      add\n        /* \"profxexpo.sol\":15157:15225  require(isUserExists(_referral), \"Dsclab: Referrer does not exist!\") */\n      tag_279\n        /* \"#utility.yul\":18396:18752   */\n      jump\n        /* \"profxexpo.sol\":15157:15225  require(isUserExists(_referral), \"Dsclab: Referrer does not exist!\") */\n    tag_431:\n        /* \"profxexpo.sol\":15236:15275  registration(_user, _referral, \"stDSC\") */\n      tag_434\n        /* \"profxexpo.sol\":15249:15254  _user */\n      dup3\n        /* \"profxexpo.sol\":15256:15265  _referral */\n      dup3\n        /* \"profxexpo.sol\":15236:15275  registration(_user, _referral, \"stDSC\") */\n      mload(0x40)\n      dup1\n      0x40\n      add\n      0x40\n      mstore\n      dup1\n      0x05\n      dup2\n      mstore\n      0x20\n      add\n      shl(0xd8, 0x7374445343)\n      dup2\n      mstore\n      pop\n        /* \"profxexpo.sol\":15236:15248  registration */\n      tag_288\n        /* \"profxexpo.sol\":15236:15275  registration(_user, _referral, \"stDSC\") */\n      jump\t// in\n    tag_434:\n        /* \"profxexpo.sol\":15345:15355  joiningFee */\n      sload(0x0b)\n        /* \"profxexpo.sol\":15299:15316  11200000000000000 */\n      0x27ca57357c0000\n      swap1\n        /* \"profxexpo.sol\":15286:15296  uint price */\n      0x00\n      swap1\n        /* \"profxexpo.sol\":15299:15316  11200000000000000 */\n      dup3\n      swap1\n        /* \"profxexpo.sol\":15345:15360  joiningFee*1e18 */\n      tag_435\n      swap1\n        /* \"profxexpo.sol\":15356:15360  1e18 */\n      0x0de0b6b3a7640000\n        /* \"profxexpo.sol\":15345:15360  joiningFee*1e18 */\n      tag_388\n      jump\t// in\n    tag_435:\n        /* \"profxexpo.sol\":15344:15367  (joiningFee*1e18)/price */\n      tag_436\n      swap2\n      swap1\n      tag_390\n      jump\t// in\n    tag_436:\n        /* \"profxexpo.sol\":15415:15420  stDSC */\n      sload(0x06)\n        /* \"profxexpo.sol\":15327:15367  uint256 DSCCMQty=(joiningFee*1e18)/price */\n      swap1\n      swap2\n      pop\n      dup2\n      swap1\n      sub(shl(0xa0, 0x01), 0x01)\n        /* \"profxexpo.sol\":15415:15420  stDSC */\n      and\n        /* \"profxexpo.sol\":15408:15431  IERC20(stDSC).allowance */\n      0xdd62ed3e\n        /* \"profxexpo.sol\":242:252  msg.sender */\n      caller\n        /* \"profxexpo.sol\":15408:15460  IERC20(stDSC).allowance(_msgSender(), address(this)) */\n      mload(0x40)\n      not(sub(shl(0xe0, 0x01), 0x01))\n      0xe0\n      dup5\n      swap1\n      shl\n      and\n      dup2\n      mstore\n      sub(shl(0xa0, 0x01), 0x01)\n        /* \"#utility.yul\":9192:9224   */\n      swap1\n      swap2\n      and\n        /* \"profxexpo.sol\":15408:15460  IERC20(stDSC).allowance(_msgSender(), address(this)) */\n      0x04\n      dup3\n      add\n        /* \"#utility.yul\":9174:9225   */\n      mstore\n        /* \"profxexpo.sol\":15454:15458  this */\n      address\n        /* \"#utility.yul\":9241:9259   */\n      0x24\n      dup3\n      add\n        /* \"#utility.yul\":9234:9294   */\n      mstore\n        /* \"#utility.yul\":9147:9165   */\n      0x44\n      add\n        /* \"profxexpo.sol\":15408:15460  IERC20(stDSC).allowance(_msgSender(), address(this)) */\n      0x20\n      mload(0x40)\n      dup1\n      dup4\n      sub\n      dup2\n      dup7\n      gas\n      staticcall\n      iszero\n      dup1\n      iszero\n      tag_440\n      jumpi\n      returndatacopy(0x00, 0x00, returndatasize)\n      revert(0x00, returndatasize)\n    tag_440:\n      pop\n      pop\n      pop\n      pop\n      mload(0x40)\n      returndatasize\n      not(0x1f)\n      0x1f\n      dup3\n      add\n      and\n      dup3\n      add\n      dup1\n      0x40\n      mstore\n      pop\n      dup2\n      add\n      swap1\n      tag_441\n      swap2\n      swap1\n      tag_295\n      jump\t// in\n    tag_441:\n        /* \"profxexpo.sol\":15408:15472  IERC20(stDSC).allowance(_msgSender(), address(this)) >= DSCCMQty */\n      lt\n      iszero\n        /* \"profxexpo.sol\":15387:15530  require(... */\n      tag_442\n      jumpi\n      mload(0x40)\n      shl(0xe5, 0x461bcd)\n      dup2\n      mstore\n        /* \"#utility.yul\":18959:18961   */\n      0x20\n        /* \"profxexpo.sol\":15387:15530  require(... */\n      0x04\n      dup3\n      add\n        /* \"#utility.yul\":18941:18962   */\n      dup2\n      swap1\n      mstore\n        /* \"#utility.yul\":18978:18996   */\n      0x24\n      dup3\n      add\n        /* \"#utility.yul\":18971:19001   */\n      mstore\n        /* \"#utility.yul\":19037:19071   */\n      0x73744473636c61623a20496e73756666696369656e7420616c6c6f77616e6365\n        /* \"#utility.yul\":19017:19035   */\n      0x44\n      dup3\n      add\n        /* \"#utility.yul\":19010:19072   */\n      mstore\n        /* \"#utility.yul\":19089:19107   */\n      0x64\n      add\n        /* \"profxexpo.sol\":15387:15530  require(... */\n      tag_279\n        /* \"#utility.yul\":18757:19113   */\n      jump\n        /* \"profxexpo.sol\":15387:15530  require(... */\n    tag_442:\n        /* \"profxexpo.sol\":15548:15553  stDSC */\n      and(sub(shl(0xa0, 0x01), 0x01), sload(0x06))\n        /* \"profxexpo.sol\":15541:15567  IERC20(stDSC).transferFrom */\n      0x23b872dd\n        /* \"profxexpo.sol\":242:252  msg.sender */\n      caller\n        /* \"profxexpo.sol\":15590:15594  this */\n      address\n        /* \"profxexpo.sol\":15597:15605  DSCCMQty */\n      dup5\n        /* \"profxexpo.sol\":15541:15606  IERC20(stDSC).transferFrom(_msgSender(), address(this), DSCCMQty) */\n      mload(0x40)\n      dup5\n      0xffffffff\n      and\n      0xe0\n      shl\n      dup2\n      mstore\n      0x04\n      add\n      tag_446\n      swap4\n      swap3\n      swap2\n      swap1\n      tag_301\n      jump\t// in\n    tag_446:\n      0x20\n      mload(0x40)\n      dup1\n      dup4\n      sub\n      dup2\n      0x00\n      dup8\n      gas\n      call\n      iszero\n      dup1\n      iszero\n      tag_448\n      jumpi\n      returndatacopy(0x00, 0x00, returndatasize)\n      revert(0x00, returndatasize)\n    tag_448:\n      pop\n      pop\n      pop\n      pop\n      mload(0x40)\n      returndatasize\n      not(0x1f)\n      0x1f\n      dup3\n      add\n      and\n      dup3\n      add\n      dup1\n      0x40\n      mstore\n      pop\n      dup2\n      add\n      swap1\n      tag_449\n      swap2\n      swap1\n      tag_305\n      jump\t// in\n    tag_449:\n      pop\n        /* \"profxexpo.sol\":15623:15628  stDSC */\n      sload(0x06)\n        /* \"profxexpo.sol\":15616:15644  IERC20(stDSC).burn(DSCCMQty) */\n      mload(0x40)\n      shl(0xe3, 0x0852cd8d)\n      dup2\n      mstore\n      0x04\n      dup2\n      add\n        /* \"#utility.yul\":391:416   */\n      dup4\n      swap1\n      mstore\n      sub(shl(0xa0, 0x01), 0x01)\n        /* \"profxexpo.sol\":15623:15628  stDSC */\n      swap1\n      swap2\n      and\n      swap1\n        /* \"profxexpo.sol\":15616:15634  IERC20(stDSC).burn */\n      0x42966c68\n      swap1\n        /* \"#utility.yul\":364:382   */\n      0x24\n      add\n        /* \"profxexpo.sol\":15616:15644  IERC20(stDSC).burn(DSCCMQty) */\n      0x00\n      mload(0x40)\n      dup1\n      dup4\n      sub\n      dup2\n      0x00\n      dup8\n      dup1\n      extcodesize\n      iszero\n      dup1\n      iszero\n      tag_451\n      jumpi\n      revert(0x00, 0x00)\n    tag_451:\n      pop\n      gas\n      call\n      iszero\n      dup1\n      iszero\n      tag_453\n      jumpi\n      returndatacopy(0x00, 0x00, returndatasize)\n      revert(0x00, returndatasize)\n    tag_453:\n      pop\n      pop\n      pop\n      pop\n      sub(shl(0xa0, 0x01), 0x01)\n        /* \"profxexpo.sol\":15668:15823  Registration(... */\n      dup5\n      dup2\n      and\n        /* \"profxexpo.sol\":15736:15748  users[_user] */\n      0x00\n      dup2\n      dup2\n      mstore\n        /* \"profxexpo.sol\":15736:15741  users */\n      0x1d\n        /* \"profxexpo.sol\":15736:15748  users[_user] */\n      0x20\n      mstore\n      0x40\n      dup1\n      dup3\n      keccak256\n        /* \"profxexpo.sol\":15736:15755  users[_user].userId */\n      sload\n        /* \"profxexpo.sol\":15668:15823  Registration(... */\n      swap4\n      dup8\n      and\n        /* \"profxexpo.sol\":15769:15785  users[_referral] */\n      dup1\n      dup4\n      mstore\n      swap2\n      dup2\n      swap1\n      keccak256\n        /* \"profxexpo.sol\":15769:15792  users[_referral].userId */\n      sload\n        /* \"profxexpo.sol\":15668:15823  Registration(... */\n      swap1\n      mload\n      swap2\n      swap4\n      mload(0x00)\n      codecopy(0x00, data_94466a41869f0ad3d2beb923f23817e68426e7ab720b5288442cefdbe65a2fef, 0x20)\n      mload(0x00)\n      swap1\n      0x00\n      mstore\n      swap3\n      tag_338\n      swap3\n        /* \"profxexpo.sol\":15769:15792  users[_referral].userId */\n      swap1\n        /* \"profxexpo.sol\":15668:15823  Registration(... */\n      tag_455\n      jump\t// in\n        /* \"profxexpo.sol\":16721:18706  function stakeUSDT(uint amount, uint plan, address _referral) public {... */\n    tag_154:\n        /* \"profxexpo.sol\":16805:16831  isUserExists(_msgSender()) */\n      tag_457\n        /* \"profxexpo.sol\":242:252  msg.sender */\n      caller\n        /* \"profxexpo.sol\":23686:23798  function isUserExists(address user) public view returns (bool) {... */\n      tag_131\n      jump\t// in\n        /* \"profxexpo.sol\":16805:16831  isUserExists(_msgSender()) */\n    tag_457:\n        /* \"profxexpo.sol\":16801:16896  if(!isUserExists(_msgSender())){... */\n      tag_460\n      jumpi\n        /* \"profxexpo.sol\":16842:16885  registration(_msgSender(),_referral,\"USDT\") */\n      tag_460\n        /* \"profxexpo.sol\":242:252  msg.sender */\n      caller\n        /* \"profxexpo.sol\":16855:16867  _msgSender() */\n      tag_286\n        /* \"profxexpo.sol\":163:259  function _msgSender() internal view virtual returns (address) {... */\n      jump\n        /* \"profxexpo.sol\":16842:16885  registration(_msgSender(),_referral,\"USDT\") */\n    tag_460:\n        /* \"profxexpo.sol\":16913:16939  isUserExists(_msgSender()) */\n      tag_462\n        /* \"profxexpo.sol\":242:252  msg.sender */\n      caller\n        /* \"profxexpo.sol\":23686:23798  function isUserExists(address user) public view returns (bool) {... */\n      tag_131\n      jump\t// in\n        /* \"profxexpo.sol\":16913:16939  isUserExists(_msgSender()) */\n    tag_462:\n        /* \"profxexpo.sol\":16905:16968  require(isUserExists(_msgSender()), \"Dsclab: User not Exists!\") */\n      tag_464\n      jumpi\n      mload(0x40)\n      shl(0xe5, 0x461bcd)\n      dup2\n      mstore\n      0x04\n      add\n      tag_279\n      swap1\n      tag_364\n      jump\t// in\n    tag_464:\n        /* \"profxexpo.sol\":16996:17004  minStake */\n      sload(0x0c)\n        /* \"profxexpo.sol\":16986:16992  amount */\n      dup4\n        /* \"profxexpo.sol\":16986:17004  amount >= minStake */\n      lt\n      iszero\n        /* \"profxexpo.sol\":16978:17034  require(amount >= minStake, \"Minimum Activation is $60\") */\n      tag_466\n      jumpi\n      mload(0x40)\n      shl(0xe5, 0x461bcd)\n      dup2\n      mstore\n      0x04\n      add\n      tag_279\n      swap1\n      tag_367\n      jump\t// in\n    tag_466:\n        /* \"profxexpo.sol\":17062:17070  maxStake */\n      sload(0x0d)\n        /* \"profxexpo.sol\":17052:17058  amount */\n      dup4\n        /* \"profxexpo.sol\":17052:17070  amount <= maxStake */\n      gt\n      iszero\n        /* \"profxexpo.sol\":17044:17103  require(amount <= maxStake, \"Maximum Activation is $10000\") */\n      tag_468\n      jumpi\n      mload(0x40)\n      shl(0xe5, 0x461bcd)\n      dup2\n      mstore\n      0x04\n      add\n      tag_279\n      swap1\n      tag_370\n      jump\t// in\n    tag_468:\n        /* \"profxexpo.sol\":17122:17126  plan */\n      dup2\n        /* \"profxexpo.sol\":17130:17131  1 */\n      0x01\n        /* \"profxexpo.sol\":17122:17131  plan == 1 */\n      eq\n        /* \"profxexpo.sol\":17122:17144  plan == 1 || plan == 2 */\n      dup1\n      tag_470\n      jumpi\n      pop\n        /* \"profxexpo.sol\":17135:17139  plan */\n      dup2\n        /* \"profxexpo.sol\":17143:17144  2 */\n      0x02\n        /* \"profxexpo.sol\":17135:17144  plan == 2 */\n      eq\n        /* \"profxexpo.sol\":17122:17144  plan == 1 || plan == 2 */\n    tag_470:\n        /* \"profxexpo.sol\":17113:17179  require((plan == 1 || plan == 2), \"Select Only Plan Flexi or Fix\") */\n      tag_471\n      jumpi\n      mload(0x40)\n      shl(0xe5, 0x461bcd)\n      dup2\n      mstore\n        /* \"#utility.yul\":19902:19904   */\n      0x20\n        /* \"profxexpo.sol\":17113:17179  require((plan == 1 || plan == 2), \"Select Only Plan Flexi or Fix\") */\n      0x04\n      dup3\n      add\n        /* \"#utility.yul\":19884:19905   */\n      mstore\n        /* \"#utility.yul\":19941:19943   */\n      0x1d\n        /* \"#utility.yul\":19921:19939   */\n      0x24\n      dup3\n      add\n        /* \"#utility.yul\":19914:19944   */\n      mstore\n        /* \"#utility.yul\":19980:20011   */\n      0x53656c656374204f6e6c7920506c616e20466c657869206f7220466978000000\n        /* \"#utility.yul\":19960:19978   */\n      0x44\n      dup3\n      add\n        /* \"#utility.yul\":19953:20012   */\n      mstore\n        /* \"#utility.yul\":20029:20047   */\n      0x64\n      add\n        /* \"profxexpo.sol\":17113:17179  require((plan == 1 || plan == 2), \"Select Only Plan Flexi or Fix\") */\n      tag_279\n        /* \"#utility.yul\":19700:20053   */\n      jump\n        /* \"profxexpo.sol\":17113:17179  require((plan == 1 || plan == 2), \"Select Only Plan Flexi or Fix\") */\n    tag_471:\n        /* \"profxexpo.sol\":17217:17221  USDT */\n      sload(0x04)\n        /* \"profxexpo.sol\":17265:17271  amount */\n      dup4\n      swap1\n      sub(shl(0xa0, 0x01), 0x01)\n        /* \"profxexpo.sol\":17217:17221  USDT */\n      and\n        /* \"profxexpo.sol\":17210:17232  IERC20(USDT).allowance */\n      0xdd62ed3e\n        /* \"profxexpo.sol\":242:252  msg.sender */\n      caller\n        /* \"profxexpo.sol\":17210:17261  IERC20(USDT).allowance(_msgSender(), address(this)) */\n      mload(0x40)\n      not(sub(shl(0xe0, 0x01), 0x01))\n      0xe0\n      dup5\n      swap1\n      shl\n      and\n      dup2\n      mstore\n      sub(shl(0xa0, 0x01), 0x01)\n        /* \"#utility.yul\":9192:9224   */\n      swap1\n      swap2\n      and\n        /* \"profxexpo.sol\":17210:17261  IERC20(USDT).allowance(_msgSender(), address(this)) */\n      0x04\n      dup3\n      add\n        /* \"#utility.yul\":9174:9225   */\n      mstore\n        /* \"profxexpo.sol\":17255:17259  this */\n      address\n        /* \"#utility.yul\":9241:9259   */\n      0x24\n      dup3\n      add\n        /* \"#utility.yul\":9234:9294   */\n      mstore\n        /* \"#utility.yul\":9147:9165   */\n      0x44\n      add\n        /* \"profxexpo.sol\":17210:17261  IERC20(USDT).allowance(_msgSender(), address(this)) */\n      0x20\n      mload(0x40)\n      dup1\n      dup4\n      sub\n      dup2\n      dup7\n      gas\n      staticcall\n      iszero\n      dup1\n      iszero\n      tag_477\n      jumpi\n      returndatacopy(0x00, 0x00, returndatasize)\n      revert(0x00, returndatasize)\n    tag_477:\n      pop\n      pop\n      pop\n      pop\n      mload(0x40)\n      returndatasize\n      not(0x1f)\n      0x1f\n      dup3\n      add\n      and\n      dup3\n      add\n      dup1\n      0x40\n      mstore\n      pop\n      dup2\n      add\n      swap1\n      tag_478\n      swap2\n      swap1\n      tag_295\n      jump\t// in\n    tag_478:\n        /* \"profxexpo.sol\":17210:17271  IERC20(USDT).allowance(_msgSender(), address(this)) >= amount */\n      lt\n      iszero\n        /* \"profxexpo.sol\":17189:17314  require(... */\n      tag_479\n      jumpi\n      mload(0x40)\n      shl(0xe5, 0x461bcd)\n      dup2\n      mstore\n        /* \"#utility.yul\":20260:20262   */\n      0x20\n        /* \"profxexpo.sol\":17189:17314  require(... */\n      0x04\n      dup3\n      add\n        /* \"#utility.yul\":20242:20263   */\n      mstore\n        /* \"#utility.yul\":20299:20301   */\n      0x11\n        /* \"#utility.yul\":20279:20297   */\n      0x24\n      dup3\n      add\n        /* \"#utility.yul\":20272:20302   */\n      mstore\n      shl(0x7d, 0x03ab9b23a101d1030b63637bbb0b731b29)\n        /* \"#utility.yul\":20318:20336   */\n      0x44\n      dup3\n      add\n        /* \"#utility.yul\":20311:20358   */\n      mstore\n        /* \"#utility.yul\":20375:20393   */\n      0x64\n      add\n        /* \"profxexpo.sol\":17189:17314  require(... */\n      tag_279\n        /* \"#utility.yul\":20058:20399   */\n      jump\n        /* \"profxexpo.sol\":17189:17314  require(... */\n    tag_479:\n        /* \"profxexpo.sol\":242:252  msg.sender */\n      caller\n        /* \"profxexpo.sol\":17324:17338  uint lastinvst */\n      0x00\n        /* \"profxexpo.sol\":17341:17360  users[_msgSender()] */\n      swap1\n      dup2\n      mstore\n        /* \"profxexpo.sol\":17341:17346  users */\n      0x1d\n        /* \"profxexpo.sol\":17341:17360  users[_msgSender()] */\n      0x20\n      mstore\n      0x40\n      swap1\n      keccak256\n        /* \"profxexpo.sol\":17341:17371  users[_msgSender()].lastinvest */\n      0x06\n      add\n      sload\n        /* \"profxexpo.sol\":17384:17397  lastinvst > 0 */\n      dup1\n      iszero\n        /* \"profxexpo.sol\":17381:17510  if(lastinvst > 0){... */\n      tag_484\n      jumpi\n        /* \"profxexpo.sol\":17426:17435  lastinvst */\n      dup1\n        /* \"profxexpo.sol\":17416:17422  amount */\n      dup5\n        /* \"profxexpo.sol\":17416:17435  amount >= lastinvst */\n      lt\n      iszero\n        /* \"profxexpo.sol\":17408:17495  require(amount >= lastinvst, \"Re Investment Should Equal/Greater than last Investment\") */\n      tag_484\n      jumpi\n      mload(0x40)\n      shl(0xe5, 0x461bcd)\n      dup2\n      mstore\n      0x04\n      add\n      tag_279\n      swap1\n      tag_378\n      jump\t// in\n    tag_484:\n        /* \"profxexpo.sol\":17535:17539  USDT */\n      and(sub(shl(0xa0, 0x01), 0x01), sload(0x04))\n        /* \"profxexpo.sol\":17528:17553  IERC20(USDT).transferFrom */\n      0x23b872dd\n        /* \"profxexpo.sol\":242:252  msg.sender */\n      caller\n        /* \"profxexpo.sol\":17576:17580  this */\n      address\n        /* \"profxexpo.sol\":17583:17589  amount */\n      dup8\n        /* \"profxexpo.sol\":17528:17590  IERC20(USDT).transferFrom(_msgSender(), address(this), amount) */\n      mload(0x40)\n      dup5\n      0xffffffff\n      and\n      0xe0\n      shl\n      dup2\n      mstore\n      0x04\n      add\n      tag_487\n      swap4\n      swap3\n      swap2\n      swap1\n      tag_301\n      jump\t// in\n    tag_487:\n      0x20\n      mload(0x40)\n      dup1\n      dup4\n      sub\n      dup2\n      0x00\n      dup8\n      gas\n      call\n      iszero\n      dup1\n      iszero\n      tag_489\n      jumpi\n      returndatacopy(0x00, 0x00, returndatasize)\n      revert(0x00, returndatasize)\n    tag_489:\n      pop\n      pop\n      pop\n      pop\n      mload(0x40)\n      returndatasize\n      not(0x1f)\n      0x1f\n      dup3\n      add\n      and\n      dup3\n      add\n      dup1\n      0x40\n      mstore\n      pop\n      dup2\n      add\n      swap1\n      tag_490\n      swap2\n      swap1\n      tag_305\n      jump\t// in\n    tag_490:\n      pop\n        /* \"profxexpo.sol\":17608:17612  USDT */\n      0x04\n      dup1\n      sload\n        /* \"profxexpo.sol\":17630:17643  uniswapRouter */\n      sload(0x1f)\n        /* \"profxexpo.sol\":17601:17653  IERC20(USDT).approve(address(uniswapRouter), amount) */\n      mload(0x40)\n      shl(0xe0, 0x095ea7b3)\n      dup2\n      mstore\n      sub(shl(0xa0, 0x01), 0x01)\n        /* \"profxexpo.sol\":17630:17643  uniswapRouter */\n      swap2\n      dup3\n      and\n        /* \"profxexpo.sol\":17601:17653  IERC20(USDT).approve(address(uniswapRouter), amount) */\n      swap4\n      dup2\n      add\n        /* \"#utility.yul\":10719:10770   */\n      swap4\n      swap1\n      swap4\n      mstore\n        /* \"#utility.yul\":10786:10804   */\n      0x24\n      dup4\n      add\n        /* \"#utility.yul\":10779:10813   */\n      dup8\n      swap1\n      mstore\n        /* \"profxexpo.sol\":17608:17612  USDT */\n      and\n      swap1\n        /* \"profxexpo.sol\":17601:17621  IERC20(USDT).approve */\n      0x095ea7b3\n      swap1\n        /* \"#utility.yul\":10692:10710   */\n      0x44\n      add\n        /* \"profxexpo.sol\":17601:17653  IERC20(USDT).approve(address(uniswapRouter), amount) */\n      0x20\n      mload(0x40)\n      dup1\n      dup4\n      sub\n      dup2\n      0x00\n      dup8\n      gas\n      call\n      iszero\n      dup1\n      iszero\n      tag_493\n      jumpi\n      returndatacopy(0x00, 0x00, returndatasize)\n      revert(0x00, returndatasize)\n    tag_493:\n      pop\n      pop\n      pop\n      pop\n      mload(0x40)\n      returndatasize\n      not(0x1f)\n      0x1f\n      dup3\n      add\n      and\n      dup3\n      add\n      dup1\n      0x40\n      mstore\n      pop\n      dup2\n      add\n      swap1\n      tag_494\n      swap2\n      swap1\n      tag_305\n      jump\t// in\n    tag_494:\n      pop\n        /* \"profxexpo.sol\":17689:17705  new address[](2) */\n      0x40\n      dup1\n      mload\n        /* \"profxexpo.sol\":17703:17704  2 */\n      0x02\n        /* \"profxexpo.sol\":17689:17705  new address[](2) */\n      dup1\n      dup3\n      mstore\n      0x60\n      dup3\n      add\n      dup4\n      mstore\n        /* \"profxexpo.sol\":17664:17686  address[] memory paths */\n      0x00\n      swap3\n        /* \"profxexpo.sol\":17689:17705  new address[](2) */\n      0x20\n      dup4\n      add\n      swap1\n      dup1\n      calldatasize\n      dup4\n      calldatacopy\n      pop\n      pop\n        /* \"profxexpo.sol\":17726:17730  USDT */\n      sload(0x04)\n        /* \"profxexpo.sol\":17715:17723  paths[0] */\n      dup3\n      mload\n      swap3\n      swap4\n      pop\n      sub(shl(0xa0, 0x01), 0x01)\n        /* \"profxexpo.sol\":17726:17730  USDT */\n      and\n      swap2\n        /* \"profxexpo.sol\":17715:17723  paths[0] */\n      dup4\n      swap2\n      pop\n        /* \"profxexpo.sol\":17726:17730  USDT */\n      0x00\n      swap1\n        /* \"profxexpo.sol\":17715:17723  paths[0] */\n      tag_499\n      jumpi\n      tag_499\n      tag_317\n      jump\t// in\n    tag_499:\n      sub(shl(0xa0, 0x01), 0x01)\n        /* \"profxexpo.sol\":17715:17730  paths[0] = USDT */\n      swap3\n      dup4\n      and\n        /* \"profxexpo.sol\":17715:17723  paths[0] */\n      0x20\n      swap2\n      dup3\n      mul\n      swap3\n      swap1\n      swap3\n      add\n      add\n        /* \"profxexpo.sol\":17715:17730  paths[0] = USDT */\n      mstore\n        /* \"profxexpo.sol\":17751:17754  DSC */\n      sload(0x05)\n        /* \"profxexpo.sol\":17740:17748  paths[1] */\n      dup3\n      mload\n        /* \"profxexpo.sol\":17751:17754  DSC */\n      swap2\n      and\n      swap1\n        /* \"profxexpo.sol\":17740:17745  paths */\n      dup3\n      swap1\n        /* \"profxexpo.sol\":17751:17754  DSC */\n      0x01\n      swap1\n        /* \"profxexpo.sol\":17740:17748  paths[1] */\n      dup2\n      lt\n      tag_501\n      jumpi\n      tag_501\n      tag_317\n      jump\t// in\n    tag_501:\n      0x20\n      mul\n      0x20\n      add\n      add\n        /* \"profxexpo.sol\":17740:17754  paths[1] = DSC */\n      swap1\n      sub(shl(0xa0, 0x01), 0x01)\n      and\n      swap1\n      dup2\n      sub(shl(0xa0, 0x01), 0x01)\n      and\n      dup2\n      mstore\n      pop\n      pop\n        /* \"profxexpo.sol\":17764:17773  uint rate */\n      0x00\n        /* \"profxexpo.sol\":17776:17798  getCurrentPrice(paths) */\n      tag_502\n        /* \"profxexpo.sol\":17792:17797  paths */\n      dup3\n        /* \"profxexpo.sol\":17776:17791  getCurrentPrice */\n      tag_179\n        /* \"profxexpo.sol\":17776:17798  getCurrentPrice(paths) */\n      jump\t// in\n    tag_502:\n        /* \"profxexpo.sol\":17764:17798  uint rate = getCurrentPrice(paths) */\n      swap1\n      pop\n        /* \"profxexpo.sol\":17808:17823  uint dsctotrans */\n      0x00\n        /* \"profxexpo.sol\":17842:17846  1e18 */\n      0x0de0b6b3a7640000\n        /* \"profxexpo.sol\":17827:17840  amount * rate */\n      tag_503\n        /* \"profxexpo.sol\":17764:17798  uint rate = getCurrentPrice(paths) */\n      dup4\n        /* \"profxexpo.sol\":17827:17833  amount */\n      dup10\n        /* \"profxexpo.sol\":17827:17840  amount * rate */\n      tag_388\n      jump\t// in\n    tag_503:\n        /* \"profxexpo.sol\":17826:17846  (amount * rate)/1e18 */\n      tag_504\n      swap2\n      swap1\n      tag_390\n      jump\t// in\n    tag_504:\n        /* \"profxexpo.sol\":17883:17896  uniswapRouter */\n      sload(0x1f)\n        /* \"profxexpo.sol\":17883:17959  uniswapRouter.getAmountsOut(... */\n      mload(0x40)\n      shl(0xe0, 0xd06ca61f)\n      dup2\n      mstore\n        /* \"profxexpo.sol\":17808:17846  uint dsctotrans = (amount * rate)/1e18 */\n      swap2\n      swap3\n      pop\n        /* \"profxexpo.sol\":17856:17880  uint256[] memory amounts */\n      0x00\n      swap2\n      sub(shl(0xa0, 0x01), 0x01)\n        /* \"profxexpo.sol\":17883:17896  uniswapRouter */\n      swap1\n      swap2\n      and\n      swap1\n        /* \"profxexpo.sol\":17883:17910  uniswapRouter.getAmountsOut */\n      0xd06ca61f\n      swap1\n        /* \"profxexpo.sol\":17883:17959  uniswapRouter.getAmountsOut(... */\n      tag_505\n      swap1\n        /* \"profxexpo.sol\":17924:17930  amount */\n      dup12\n      swap1\n        /* \"profxexpo.sol\":17944:17949  paths */\n      dup9\n      swap1\n        /* \"profxexpo.sol\":17883:17959  uniswapRouter.getAmountsOut(... */\n      0x04\n      add\n      tag_321\n      jump\t// in\n    tag_505:\n      0x00\n      mload(0x40)\n      dup1\n      dup4\n      sub\n      dup2\n      dup7\n      gas\n      staticcall\n      iszero\n      dup1\n      iszero\n      tag_507\n      jumpi\n      returndatacopy(0x00, 0x00, returndatasize)\n      revert(0x00, returndatasize)\n    tag_507:\n      pop\n      pop\n      pop\n      pop\n      mload(0x40)\n      returndatasize\n      0x00\n      dup3\n      returndatacopy\n      0x1f\n      returndatasize\n      swap1\n      dup2\n      add\n      not(0x1f)\n      and\n      dup3\n      add\n      0x40\n      mstore\n      tag_508\n      swap2\n      swap1\n      dup2\n      add\n      swap1\n      tag_325\n      jump\t// in\n    tag_508:\n        /* \"profxexpo.sol\":17969:17982  uniswapRouter */\n      sload(0x1f)\n        /* \"profxexpo.sol\":18041:18051  amounts[1] */\n      dup2\n      mload\n        /* \"profxexpo.sol\":17856:17959  uint256[] memory amounts = uniswapRouter.getAmountsOut(... */\n      swap2\n      swap3\n      pop\n      sub(shl(0xa0, 0x01), 0x01)\n        /* \"profxexpo.sol\":17969:17982  uniswapRouter */\n      and\n      swap1\n        /* \"profxexpo.sol\":17969:18007  uniswapRouter.swapExactTokensForTokens */\n      0x38ed1739\n      swap1\n        /* \"profxexpo.sol\":18021:18027  amount */\n      dup11\n      swap1\n        /* \"profxexpo.sol\":17856:17959  uint256[] memory amounts = uniswapRouter.getAmountsOut(... */\n      dup5\n      swap1\n        /* \"profxexpo.sol\":17969:17982  uniswapRouter */\n      0x01\n      swap1\n        /* \"profxexpo.sol\":18041:18051  amounts[1] */\n      dup2\n      lt\n      tag_510\n      jumpi\n      tag_510\n      tag_317\n      jump\t// in\n    tag_510:\n      0x20\n      mul\n      0x20\n      add\n      add\n      mload\n        /* \"profxexpo.sol\":18065:18070  paths */\n      dup8\n        /* \"profxexpo.sol\":18092:18096  this */\n      address\n        /* \"profxexpo.sol\":18111:18126  block.timestamp */\n      timestamp\n        /* \"profxexpo.sol\":18129:18131  10 */\n      0x0a\n        /* \"profxexpo.sol\":18111:18131  block.timestamp + 10 */\n      tag_511\n      swap2\n      swap1\n      tag_329\n      jump\t// in\n    tag_511:\n        /* \"profxexpo.sol\":17969:18141  uniswapRouter.swapExactTokensForTokens(... */\n      mload(0x40)\n      dup7\n      0xffffffff\n      and\n      0xe0\n      shl\n      dup2\n      mstore\n      0x04\n      add\n      tag_512\n      swap6\n      swap5\n      swap4\n      swap3\n      swap2\n      swap1\n      tag_331\n      jump\t// in\n    tag_512:\n      0x00\n      mload(0x40)\n      dup1\n      dup4\n      sub\n      dup2\n      0x00\n      dup8\n      gas\n      call\n      iszero\n      dup1\n      iszero\n      tag_514\n      jumpi\n      returndatacopy(0x00, 0x00, returndatasize)\n      revert(0x00, returndatasize)\n    tag_514:\n      pop\n      pop\n      pop\n      pop\n      mload(0x40)\n      returndatasize\n      0x00\n      dup3\n      returndatacopy\n      0x1f\n      returndatasize\n      swap1\n      dup2\n      add\n      not(0x1f)\n      and\n      dup3\n      add\n      0x40\n      mstore\n      tag_515\n      swap2\n      swap1\n      dup2\n      add\n      swap1\n      tag_325\n      jump\t// in\n    tag_515:\n      pop\n        /* \"profxexpo.sol\":242:252  msg.sender */\n      caller\n        /* \"profxexpo.sol\":18216:18227  address ref */\n      0x00\n        /* \"profxexpo.sol\":18230:18249  users[_msgSender()] */\n      swap1\n      dup2\n      mstore\n        /* \"profxexpo.sol\":18230:18235  users */\n      0x1d\n        /* \"profxexpo.sol\":18230:18249  users[_msgSender()] */\n      0x20\n      mstore\n      0x40\n      dup2\n      keccak256\n        /* \"profxexpo.sol\":18230:18258  users[_msgSender()].referrer */\n      0x01\n      dup2\n      add\n      sload\n        /* \"profxexpo.sol\":18284:18314  users[_msgSender()].totalStake */\n      0x03\n      swap1\n      swap2\n      add\n      sload\n      sub(shl(0xa0, 0x01), 0x01)\n        /* \"profxexpo.sol\":18230:18258  users[_msgSender()].referrer */\n      swap1\n      swap2\n      and\n      swap2\n        /* \"profxexpo.sol\":18351:18364  usrstake == 0 */\n      dup2\n      iszero\n        /* \"profxexpo.sol\":18350:18385  (usrstake == 0) ? \"New\" : \"Retopup\" */\n      tag_518\n      jumpi\n      mload(0x40)\n      dup1\n      0x40\n      add\n      0x40\n      mstore\n      dup1\n      0x07\n      dup2\n      mstore\n      0x20\n      add\n      shl(0xcc, 0x05265746f70757)\n      dup2\n      mstore\n      pop\n      jump(tag_519)\n    tag_518:\n      mload(0x40)\n      dup1\n      0x40\n      add\n      0x40\n      mstore\n      dup1\n      0x03\n      dup2\n      mstore\n      0x20\n      add\n      shl(0xe8, 0x4e6577)\n      dup2\n      mstore\n      pop\n    tag_519:\n        /* \"profxexpo.sol\":18324:18385  string memory stakeType = (usrstake == 0) ? \"New\" : \"Retopup\" */\n      swap1\n      pop\n        /* \"profxexpo.sol\":18406:18416  msg.sender */\n      caller\n      sub(shl(0xa0, 0x01), 0x01)\n        /* \"profxexpo.sol\":18400:18463  Stake(msg.sender, amount, dsctotrans, \"USDT\", stakeType, plan ) */\n      and\n      0xabd608a4ba071391876d4741f99ba49362bd2fc5afcf4f1fc9ecf91d6a73ccf8\n        /* \"profxexpo.sol\":18418:18424  amount */\n      dup13\n        /* \"profxexpo.sol\":18426:18436  dsctotrans */\n      dup8\n        /* \"profxexpo.sol\":18446:18455  stakeType */\n      dup5\n        /* \"profxexpo.sol\":18457:18461  plan */\n      dup15\n        /* \"profxexpo.sol\":18400:18463  Stake(msg.sender, amount, dsctotrans, \"USDT\", stakeType, plan ) */\n      mload(0x40)\n      tag_520\n      swap5\n      swap4\n      swap3\n      swap2\n      swap1\n      tag_521\n      jump\t// in\n    tag_520:\n      mload(0x40)\n      dup1\n      swap2\n      sub\n      swap1\n      log2\n        /* \"profxexpo.sol\":242:252  msg.sender */\n      caller\n        /* \"profxexpo.sol\":18473:18492  users[_msgSender()] */\n      0x00\n      swap1\n      dup2\n      mstore\n        /* \"profxexpo.sol\":18473:18478  users */\n      0x1d\n        /* \"profxexpo.sol\":18473:18492  users[_msgSender()] */\n      0x20\n      mstore\n      0x40\n      dup2\n      keccak256\n        /* \"profxexpo.sol\":18473:18503  users[_msgSender()].lastinvest */\n      0x06\n      dup2\n      add\n        /* \"profxexpo.sol\":18473:18512  users[_msgSender()].lastinvest = amount */\n      dup14\n      swap1\n      sstore\n        /* \"profxexpo.sol\":18522:18552  users[_msgSender()].totalStake */\n      0x03\n      add\n        /* \"profxexpo.sol\":18522:18562  users[_msgSender()].totalStake += amount */\n      dup1\n      sload\n        /* \"profxexpo.sol\":18473:18512  users[_msgSender()].lastinvest = amount */\n      dup14\n      swap3\n        /* \"profxexpo.sol\":18473:18492  users[_msgSender()] */\n      swap1\n        /* \"profxexpo.sol\":18522:18562  users[_msgSender()].totalStake += amount */\n      tag_524\n      swap1\n        /* \"profxexpo.sol\":18473:18512  users[_msgSender()].lastinvest = amount */\n      dup5\n      swap1\n        /* \"profxexpo.sol\":18522:18562  users[_msgSender()].totalStake += amount */\n      tag_329\n      jump\t// in\n    tag_524:\n      swap1\n      swap2\n      sstore\n      pop\n      pop\n        /* \"profxexpo.sol\":242:252  msg.sender */\n      caller\n        /* \"profxexpo.sol\":18572:18585  uint refStake */\n      0x00\n        /* \"profxexpo.sol\":18588:18607  users[_msgSender()] */\n      swap1\n      dup2\n      mstore\n        /* \"profxexpo.sol\":18588:18593  users */\n      0x1d\n        /* \"profxexpo.sol\":18588:18607  users[_msgSender()] */\n      0x20\n      mstore\n      0x40\n      dup2\n      keccak256\n        /* \"profxexpo.sol\":18588:18618  users[_msgSender()].totalStake */\n      0x03\n      add\n      sload\n      swap1\n        /* \"profxexpo.sol\":18631:18644  refStake == 0 */\n      dup2\n      swap1\n      sub\n        /* \"profxexpo.sol\":18628:18691  if(refStake == 0){... */\n      tag_526\n      jumpi\n      sub(shl(0xa0, 0x01), 0x01)\n        /* \"profxexpo.sol\":18655:18665  users[ref] */\n      dup5\n      and\n      0x00\n      swap1\n      dup2\n      mstore\n        /* \"profxexpo.sol\":18655:18660  users */\n      0x1d\n        /* \"profxexpo.sol\":18655:18665  users[ref] */\n      0x20\n      mstore\n      0x40\n      dup2\n      keccak256\n        /* \"profxexpo.sol\":18655:18678  users[ref].partnerCount */\n      0x02\n      add\n        /* \"profxexpo.sol\":18655:18680  users[ref].partnerCount++ */\n      dup1\n      sload\n      swap2\n      tag_527\n      dup4\n      tag_336\n      jump\t// in\n    tag_527:\n      swap2\n      swap1\n      pop\n      sstore\n      pop\n        /* \"profxexpo.sol\":18628:18691  if(refStake == 0){... */\n    tag_526:\n        /* \"profxexpo.sol\":16790:18706  {... */\n      pop\n      pop\n      pop\n      pop\n      pop\n      pop\n      pop\n      pop\n      pop\n        /* \"profxexpo.sol\":16721:18706  function stakeUSDT(uint amount, uint plan, address _referral) public {... */\n      pop\n      pop\n      pop\n      jump\t// out\n        /* \"profxexpo.sol\":2163:2264  function renounceOwnership() public virtual onlyOwner {... */\n    tag_165:\n        /* \"profxexpo.sol\":1899:1912  _checkOwner() */\n      tag_529\n        /* \"profxexpo.sol\":1899:1910  _checkOwner */\n      tag_530\n        /* \"profxexpo.sol\":1899:1912  _checkOwner() */\n      jump\t// in\n    tag_529:\n        /* \"profxexpo.sol\":2227:2257  _transferOwnership(address(0)) */\n      tag_422\n        /* \"profxexpo.sol\":2254:2255  0 */\n      0x00\n        /* \"profxexpo.sol\":2227:2245  _transferOwnership */\n      tag_533\n        /* \"profxexpo.sol\":2227:2257  _transferOwnership(address(0)) */\n      jump\t// in\n        /* \"profxexpo.sol\":15836:16711  function registerbyDSC(address _user, address _referral) external... */\n    tag_174:\n        /* \"profxexpo.sol\":15923:15942  isUserExists(_user) */\n      tag_535\n        /* \"profxexpo.sol\":15936:15941  _user */\n      dup3\n        /* \"profxexpo.sol\":15923:15935  isUserExists */\n      tag_131\n        /* \"profxexpo.sol\":15923:15942  isUserExists(_user) */\n      jump\t// in\n    tag_535:\n        /* \"profxexpo.sol\":15922:15942  !isUserExists(_user) */\n      iszero\n        /* \"profxexpo.sol\":15914:15967  require(!isUserExists(_user), \"Dsclab: User Exists!\") */\n      tag_536\n      jumpi\n      mload(0x40)\n      shl(0xe5, 0x461bcd)\n      dup2\n      mstore\n      0x04\n      add\n      tag_279\n      swap1\n      tag_280\n      jump\t// in\n    tag_536:\n        /* \"profxexpo.sol\":15985:16008  isUserExists(_referral) */\n      tag_538\n        /* \"profxexpo.sol\":15998:16007  _referral */\n      dup2\n        /* \"profxexpo.sol\":15985:15997  isUserExists */\n      tag_131\n        /* \"profxexpo.sol\":15985:16008  isUserExists(_referral) */\n      jump\t// in\n    tag_538:\n        /* \"profxexpo.sol\":15977:16041  require(isUserExists(_referral), \"Dsclab: Referrer not Exists!\") */\n      tag_539\n      jumpi\n      mload(0x40)\n      shl(0xe5, 0x461bcd)\n      dup2\n      mstore\n        /* \"#utility.yul\":8845:8847   */\n      0x20\n        /* \"profxexpo.sol\":15977:16041  require(isUserExists(_referral), \"Dsclab: Referrer not Exists!\") */\n      0x04\n      dup3\n      add\n        /* \"#utility.yul\":8827:8848   */\n      mstore\n        /* \"#utility.yul\":8884:8886   */\n      0x1c\n        /* \"#utility.yul\":8864:8882   */\n      0x24\n      dup3\n      add\n        /* \"#utility.yul\":8857:8887   */\n      mstore\n        /* \"#utility.yul\":8923:8953   */\n      0x4473636c61623a205265666572726572206e6f74204578697374732100000000\n        /* \"#utility.yul\":8903:8921   */\n      0x44\n      dup3\n      add\n        /* \"#utility.yul\":8896:8954   */\n      mstore\n        /* \"#utility.yul\":8971:8989   */\n      0x64\n      add\n        /* \"profxexpo.sol\":15977:16041  require(isUserExists(_referral), \"Dsclab: Referrer not Exists!\") */\n      tag_279\n        /* \"#utility.yul\":8643:8995   */\n      jump\n        /* \"profxexpo.sol\":15977:16041  require(isUserExists(_referral), \"Dsclab: Referrer not Exists!\") */\n    tag_539:\n        /* \"profxexpo.sol\":16051:16093  registration(_msgSender(),_referral,\"DSC\") */\n      tag_541\n        /* \"profxexpo.sol\":242:252  msg.sender */\n      caller\n        /* \"profxexpo.sol\":16064:16076  _msgSender() */\n      tag_359\n        /* \"profxexpo.sol\":163:259  function _msgSender() internal view virtual returns (address) {... */\n      jump\n        /* \"profxexpo.sol\":16051:16093  registration(_msgSender(),_referral,\"DSC\") */\n    tag_541:\n        /* \"profxexpo.sol\":16127:16143  new address[](2) */\n      0x40\n      dup1\n      mload\n        /* \"profxexpo.sol\":16141:16142  2 */\n      0x02\n        /* \"profxexpo.sol\":16127:16143  new address[](2) */\n      dup1\n      dup3\n      mstore\n      0x60\n      dup3\n      add\n      dup4\n      mstore\n        /* \"profxexpo.sol\":16103:16124  address[] memory path */\n      0x00\n      swap3\n        /* \"profxexpo.sol\":16127:16143  new address[](2) */\n      0x20\n      dup4\n      add\n      swap1\n      dup1\n      calldatasize\n      dup4\n      calldatacopy\n      pop\n      pop\n        /* \"profxexpo.sol\":16199:16203  USDT */\n      sload(0x04)\n        /* \"profxexpo.sol\":16189:16196  path[0] */\n      dup3\n      mload\n      swap3\n      swap4\n      pop\n      sub(shl(0xa0, 0x01), 0x01)\n        /* \"profxexpo.sol\":16199:16203  USDT */\n      and\n      swap2\n        /* \"profxexpo.sol\":16189:16196  path[0] */\n      dup4\n      swap2\n      pop\n        /* \"profxexpo.sol\":16199:16203  USDT */\n      0x00\n      swap1\n        /* \"profxexpo.sol\":16189:16196  path[0] */\n      tag_547\n      jumpi\n      tag_547\n      tag_317\n      jump\t// in\n    tag_547:\n      sub(shl(0xa0, 0x01), 0x01)\n        /* \"profxexpo.sol\":16189:16203  path[0] = USDT */\n      swap3\n      dup4\n      and\n        /* \"profxexpo.sol\":16189:16196  path[0] */\n      0x20\n      swap2\n      dup3\n      mul\n      swap3\n      swap1\n      swap3\n      add\n      add\n        /* \"profxexpo.sol\":16189:16203  path[0] = USDT */\n      mstore\n        /* \"profxexpo.sol\":16223:16226  DSC */\n      sload(0x05)\n        /* \"profxexpo.sol\":16213:16220  path[1] */\n      dup3\n      mload\n        /* \"profxexpo.sol\":16223:16226  DSC */\n      swap2\n      and\n      swap1\n        /* \"profxexpo.sol\":16213:16217  path */\n      dup3\n      swap1\n        /* \"profxexpo.sol\":16223:16226  DSC */\n      0x01\n      swap1\n        /* \"profxexpo.sol\":16213:16220  path[1] */\n      dup2\n      lt\n      tag_549\n      jumpi\n      tag_549\n      tag_317\n      jump\t// in\n    tag_549:\n      0x20\n      mul\n      0x20\n      add\n      add\n        /* \"profxexpo.sol\":16213:16226  path[1] = DSC */\n      swap1\n      sub(shl(0xa0, 0x01), 0x01)\n      and\n      swap1\n      dup2\n      sub(shl(0xa0, 0x01), 0x01)\n      and\n      dup2\n      mstore\n      pop\n      pop\n        /* \"profxexpo.sol\":16236:16245  uint rate */\n      0x00\n        /* \"profxexpo.sol\":16248:16269  getCurrentPrice(path) */\n      tag_550\n        /* \"profxexpo.sol\":16264:16268  path */\n      dup3\n        /* \"profxexpo.sol\":16248:16263  getCurrentPrice */\n      tag_179\n        /* \"profxexpo.sol\":16248:16269  getCurrentPrice(path) */\n      jump\t// in\n    tag_550:\n        /* \"profxexpo.sol\":16236:16269  uint rate = getCurrentPrice(path) */\n      swap1\n      pop\n        /* \"profxexpo.sol\":16279:16294  uint dsctotrans */\n      0x00\n        /* \"profxexpo.sol\":16317:16321  1e18 */\n      0x0de0b6b3a7640000\n        /* \"profxexpo.sol\":16311:16315  rate */\n      dup3\n        /* \"profxexpo.sol\":16298:16308  joiningFee */\n      sload(0x0b)\n        /* \"profxexpo.sol\":16298:16315  joiningFee * rate */\n      tag_551\n      swap2\n      swap1\n      tag_388\n      jump\t// in\n    tag_551:\n        /* \"profxexpo.sol\":16297:16321  (joiningFee * rate)/1e18 */\n      tag_552\n      swap2\n      swap1\n      tag_390\n      jump\t// in\n    tag_552:\n        /* \"profxexpo.sol\":16359:16362  DSC */\n      sload(0x05)\n        /* \"profxexpo.sol\":16279:16321  uint dsctotrans = (joiningFee * rate)/1e18 */\n      swap1\n      swap2\n      pop\n      dup2\n      swap1\n      sub(shl(0xa0, 0x01), 0x01)\n        /* \"profxexpo.sol\":16359:16362  DSC */\n      and\n        /* \"profxexpo.sol\":16352:16373  IERC20(DSC).allowance */\n      0xdd62ed3e\n        /* \"profxexpo.sol\":242:252  msg.sender */\n      caller\n        /* \"profxexpo.sol\":16352:16402  IERC20(DSC).allowance(_msgSender(), address(this)) */\n      mload(0x40)\n      not(sub(shl(0xe0, 0x01), 0x01))\n      0xe0\n      dup5\n      swap1\n      shl\n      and\n      dup2\n      mstore\n      sub(shl(0xa0, 0x01), 0x01)\n        /* \"#utility.yul\":9192:9224   */\n      swap1\n      swap2\n      and\n        /* \"profxexpo.sol\":16352:16402  IERC20(DSC).allowance(_msgSender(), address(this)) */\n      0x04\n      dup3\n      add\n        /* \"#utility.yul\":9174:9225   */\n      mstore\n        /* \"profxexpo.sol\":16396:16400  this */\n      address\n        /* \"#utility.yul\":9241:9259   */\n      0x24\n      dup3\n      add\n        /* \"#utility.yul\":9234:9294   */\n      mstore\n        /* \"#utility.yul\":9147:9165   */\n      0x44\n      add\n        /* \"profxexpo.sol\":16352:16402  IERC20(DSC).allowance(_msgSender(), address(this)) */\n      0x20\n      mload(0x40)\n      dup1\n      dup4\n      sub\n      dup2\n      dup7\n      gas\n      staticcall\n      iszero\n      dup1\n      iszero\n      tag_556\n      jumpi\n      returndatacopy(0x00, 0x00, returndatasize)\n      revert(0x00, returndatasize)\n    tag_556:\n      pop\n      pop\n      pop\n      pop\n      mload(0x40)\n      returndatasize\n      not(0x1f)\n      0x1f\n      dup3\n      add\n      and\n      dup3\n      add\n      dup1\n      0x40\n      mstore\n      pop\n      dup2\n      add\n      swap1\n      tag_557\n      swap2\n      swap1\n      tag_295\n      jump\t// in\n    tag_557:\n        /* \"profxexpo.sol\":16352:16416  IERC20(DSC).allowance(_msgSender(), address(this)) >= dsctotrans */\n      lt\n      iszero\n        /* \"profxexpo.sol\":16331:16460  require(... */\n      tag_558\n      jumpi\n      mload(0x40)\n      shl(0xe5, 0x461bcd)\n      dup2\n      mstore\n        /* \"#utility.yul\":16738:16740   */\n      0x20\n        /* \"profxexpo.sol\":16331:16460  require(... */\n      0x04\n      dup3\n      add\n        /* \"#utility.yul\":16720:16741   */\n      mstore\n        /* \"#utility.yul\":16777:16779   */\n      0x12\n        /* \"#utility.yul\":16757:16775   */\n      0x24\n      dup3\n      add\n        /* \"#utility.yul\":16750:16780   */\n      mstore\n      shl(0x75, 0x02229a1b630b11d1030b63637bbb0b731b29)\n        /* \"#utility.yul\":16796:16814   */\n      0x44\n      dup3\n      add\n        /* \"#utility.yul\":16789:16837   */\n      mstore\n        /* \"#utility.yul\":16854:16872   */\n      0x64\n      add\n        /* \"profxexpo.sol\":16331:16460  require(... */\n      tag_279\n        /* \"#utility.yul\":16536:16878   */\n      jump\n        /* \"profxexpo.sol\":16331:16460  require(... */\n    tag_558:\n        /* \"profxexpo.sol\":16482:16485  DSC */\n      and(sub(shl(0xa0, 0x01), 0x01), sload(0x05))\n        /* \"profxexpo.sol\":16475:16499  IERC20(DSC).transferFrom */\n      0x23b872dd\n        /* \"profxexpo.sol\":242:252  msg.sender */\n      caller\n        /* \"profxexpo.sol\":16522:16526  this */\n      address\n        /* \"profxexpo.sol\":16529:16539  dsctotrans */\n      dup5\n        /* \"profxexpo.sol\":16475:16540  IERC20(DSC).transferFrom(_msgSender(), address(this), dsctotrans) */\n      mload(0x40)\n      dup5\n      0xffffffff\n      and\n      0xe0\n      shl\n      dup2\n      mstore\n      0x04\n      add\n      tag_561\n      swap4\n      swap3\n      swap2\n      swap1\n      tag_301\n      jump\t// in\n    tag_561:\n      0x20\n      mload(0x40)\n      dup1\n      dup4\n      sub\n      dup2\n      0x00\n      dup8\n      gas\n      call\n      iszero\n      dup1\n      iszero\n      tag_563\n      jumpi\n      returndatacopy(0x00, 0x00, returndatasize)\n      revert(0x00, returndatasize)\n    tag_563:\n      pop\n      pop\n      pop\n      pop\n      mload(0x40)\n      returndatasize\n      not(0x1f)\n      0x1f\n      dup3\n      add\n      and\n      dup3\n      add\n      dup1\n      0x40\n      mstore\n      pop\n      dup2\n      add\n      swap1\n      tag_564\n      swap2\n      swap1\n      tag_305\n      jump\t// in\n    tag_564:\n      pop\n      sub(shl(0xa0, 0x01), 0x01)\n        /* \"profxexpo.sol\":16553:16706  Registration(... */\n      dup6\n      dup2\n      and\n        /* \"profxexpo.sol\":16621:16633  users[_user] */\n      0x00\n      dup2\n      dup2\n      mstore\n        /* \"profxexpo.sol\":16621:16626  users */\n      0x1d\n        /* \"profxexpo.sol\":16621:16633  users[_user] */\n      0x20\n      mstore\n      0x40\n      dup1\n      dup3\n      keccak256\n        /* \"profxexpo.sol\":16621:16640  users[_user].userId */\n      sload\n        /* \"profxexpo.sol\":16553:16706  Registration(... */\n      swap4\n      dup9\n      and\n        /* \"profxexpo.sol\":16654:16670  users[_referral] */\n      dup1\n      dup4\n      mstore\n      swap2\n      dup2\n      swap1\n      keccak256\n        /* \"profxexpo.sol\":16654:16677  users[_referral].userId */\n      sload\n        /* \"profxexpo.sol\":16553:16706  Registration(... */\n      swap1\n      mload\n      swap2\n      swap4\n      mload(0x00)\n      codecopy(0x00, data_94466a41869f0ad3d2beb923f23817e68426e7ab720b5288442cefdbe65a2fef, 0x20)\n      mload(0x00)\n      swap1\n      0x00\n      mstore\n      swap3\n      tag_565\n      swap3\n        /* \"profxexpo.sol\":16654:16677  users[_referral].userId */\n      swap1\n        /* \"profxexpo.sol\":16553:16706  Registration(... */\n      tag_566\n      jump\t// in\n    tag_565:\n      mload(0x40)\n      dup1\n      swap2\n      sub\n      swap1\n      log3\n        /* \"profxexpo.sol\":15903:16711  { ... */\n      pop\n      pop\n      pop\n        /* \"profxexpo.sol\":15836:16711  function registerbyDSC(address _user, address _referral) external... */\n      pop\n      pop\n      jump\t// out\n        /* \"profxexpo.sol\":23345:23680  function getCurrentPrice(address[] memory path)... */\n    tag_179:\n        /* \"profxexpo.sol\":23566:23579  uniswapRouter */\n      sload(0x1f)\n        /* \"profxexpo.sol\":23547:23623  IUniswapV2Router01(uniswapRouter)... */\n      mload(0x40)\n      shl(0xe0, 0xd06ca61f)\n      dup2\n      mstore\n        /* \"profxexpo.sol\":23438:23445  uint256 */\n      0x00\n      swap2\n        /* \"profxexpo.sol\":23480:23487  1 ether */\n      0x0de0b6b3a7640000\n      swap2\n        /* \"profxexpo.sol\":23438:23445  uint256 */\n      dup4\n      swap2\n      sub(shl(0xa0, 0x01), 0x01)\n        /* \"profxexpo.sol\":23566:23579  uniswapRouter */\n      and\n      swap1\n        /* \"profxexpo.sol\":23547:23607  IUniswapV2Router01(uniswapRouter)... */\n      0xd06ca61f\n      swap1\n        /* \"profxexpo.sol\":23547:23623  IUniswapV2Router01(uniswapRouter)... */\n      tag_568\n      swap1\n        /* \"profxexpo.sol\":23480:23487  1 ether */\n      dup6\n      swap1\n        /* \"profxexpo.sol\":23618:23622  path */\n      dup9\n      swap1\n        /* \"profxexpo.sol\":23547:23623  IUniswapV2Router01(uniswapRouter)... */\n      0x04\n      add\n      tag_321\n      jump\t// in\n    tag_568:\n      0x00\n      mload(0x40)\n      dup1\n      dup4\n      sub\n      dup2\n      dup7\n      gas\n      staticcall\n      iszero\n      dup1\n      iszero\n      tag_570\n      jumpi\n      returndatacopy(0x00, 0x00, returndatasize)\n      revert(0x00, returndatasize)\n    tag_570:\n      pop\n      pop\n      pop\n      pop\n      mload(0x40)\n      returndatasize\n      0x00\n      dup3\n      returndatacopy\n      0x1f\n      returndatasize\n      swap1\n      dup2\n      add\n      not(0x1f)\n      and\n      dup3\n      add\n      0x40\n      mstore\n      tag_571\n      swap2\n      swap1\n      dup2\n      add\n      swap1\n      tag_325\n      jump\t// in\n    tag_571:\n        /* \"profxexpo.sol\":23517:23623  uint256[] memory amountsOut = IUniswapV2Router01(uniswapRouter)... */\n      swap1\n      pop\n        /* \"profxexpo.sol\":23640:23650  amountsOut */\n      dup1\n        /* \"profxexpo.sol\":23671:23672  1 */\n      0x01\n        /* \"profxexpo.sol\":23651:23661  amountsOut */\n      dup3\n        /* \"profxexpo.sol\":23651:23668  amountsOut.length */\n      mload\n        /* \"profxexpo.sol\":23651:23672  amountsOut.length - 1 */\n      tag_572\n      swap2\n      swap1\n      tag_573\n      jump\t// in\n    tag_572:\n        /* \"profxexpo.sol\":23640:23673  amountsOut[amountsOut.length - 1] */\n      dup2\n      mload\n      dup2\n      lt\n      tag_353\n      jumpi\n      tag_353\n      tag_317\n      jump\t// in\n        /* \"profxexpo.sol\":24472:24651  function withdrawLostTokenFromBalance(uint QtyAmt,IERC20 _TOKEN) public {... */\n    tag_185:\n        /* \"profxexpo.sol\":1982:1989  address */\n      0x00\n        /* \"profxexpo.sol\":2008:2014  _owner */\n      sload\n      sub(shl(0xa0, 0x01), 0x01)\n      and\n        /* \"profxexpo.sol\":242:252  msg.sender */\n      caller\n        /* \"profxexpo.sol\":24562:24585  _msgSender() == owner() */\n      eq\n        /* \"profxexpo.sol\":24554:24599  require(_msgSender() == owner(), \"onlyOwner\") */\n      tag_579\n      jumpi\n      mload(0x40)\n      shl(0xe5, 0x461bcd)\n      dup2\n      mstore\n        /* \"#utility.yul\":21824:21826   */\n      0x20\n        /* \"profxexpo.sol\":24554:24599  require(_msgSender() == owner(), \"onlyOwner\") */\n      0x04\n      dup3\n      add\n        /* \"#utility.yul\":21806:21827   */\n      mstore\n        /* \"#utility.yul\":21863:21864   */\n      0x09\n        /* \"#utility.yul\":21843:21861   */\n      0x24\n      dup3\n      add\n        /* \"#utility.yul\":21836:21865   */\n      mstore\n      shl(0xb9, 0x37b7363ca7bbb732b9)\n        /* \"#utility.yul\":21881:21899   */\n      0x44\n      dup3\n      add\n        /* \"#utility.yul\":21874:21913   */\n      mstore\n        /* \"#utility.yul\":21930:21948   */\n      0x64\n      add\n        /* \"profxexpo.sol\":24554:24599  require(_msgSender() == owner(), \"onlyOwner\") */\n      tag_279\n        /* \"#utility.yul\":21622:21954   */\n      jump\n        /* \"profxexpo.sol\":24554:24599  require(_msgSender() == owner(), \"onlyOwner\") */\n    tag_579:\n        /* \"profxexpo.sol\":24609:24615  _TOKEN */\n      dup1\n      sub(shl(0xa0, 0x01), 0x01)\n        /* \"profxexpo.sol\":24609:24624  _TOKEN.transfer */\n      and\n      0xa9059cbb\n        /* \"profxexpo.sol\":24625:24632  owner() */\n      tag_582\n        /* \"profxexpo.sol\":1982:1989  address */\n      0x00\n        /* \"profxexpo.sol\":2008:2014  _owner */\n      sload\n      sub(shl(0xa0, 0x01), 0x01)\n      and\n      swap1\n        /* \"profxexpo.sol\":1936:2021  function owner() public view virtual returns (address) {... */\n      jump\n        /* \"profxexpo.sol\":24625:24632  owner() */\n    tag_582:\n        /* \"profxexpo.sol\":24634:24645  QtyAmt*1e18 */\n      tag_583\n        /* \"profxexpo.sol\":24634:24640  QtyAmt */\n      dup6\n        /* \"profxexpo.sol\":24641:24645  1e18 */\n      0x0de0b6b3a7640000\n        /* \"profxexpo.sol\":24634:24645  QtyAmt*1e18 */\n      tag_388\n      jump\t// in\n    tag_583:\n        /* \"profxexpo.sol\":24609:24647  _TOKEN.transfer(owner(),(QtyAmt*1e18)) */\n      mload(0x40)\n      not(sub(shl(0xe0, 0x01), 0x01))\n      0xe0\n      dup6\n      swap1\n      shl\n      and\n      dup2\n      mstore\n      sub(shl(0xa0, 0x01), 0x01)\n        /* \"#utility.yul\":10737:10769   */\n      swap1\n      swap3\n      and\n        /* \"profxexpo.sol\":24609:24647  _TOKEN.transfer(owner(),(QtyAmt*1e18)) */\n      0x04\n      dup4\n      add\n        /* \"#utility.yul\":10719:10770   */\n      mstore\n        /* \"#utility.yul\":10786:10804   */\n      0x24\n      dup3\n      add\n        /* \"#utility.yul\":10779:10813   */\n      mstore\n        /* \"#utility.yul\":10692:10710   */\n      0x44\n      add\n        /* \"profxexpo.sol\":24609:24647  _TOKEN.transfer(owner(),(QtyAmt*1e18)) */\n      0x20\n      mload(0x40)\n      dup1\n      dup4\n      sub\n      dup2\n      0x00\n      dup8\n      gas\n      call\n      iszero\n      dup1\n      iszero\n      tag_586\n      jumpi\n      returndatacopy(0x00, 0x00, returndatasize)\n      revert(0x00, returndatasize)\n    tag_586:\n      pop\n      pop\n      pop\n      pop\n      mload(0x40)\n      returndatasize\n      not(0x1f)\n      0x1f\n      dup3\n      add\n      and\n      dup3\n      add\n      dup1\n      0x40\n      mstore\n      pop\n      dup2\n      add\n      swap1\n      tag_587\n      swap2\n      swap1\n      tag_305\n      jump\t// in\n    tag_587:\n      pop\n        /* \"profxexpo.sol\":24472:24651  function withdrawLostTokenFromBalance(uint QtyAmt,IERC20 _TOKEN) public {... */\n      pop\n      pop\n      jump\t// out\n        /* \"profxexpo.sol\":11090:11123  uint256[] public levelBonusShares */\n    tag_193:\n      0x18\n      dup2\n      dup2\n      sload\n      dup2\n      lt\n      tag_274\n      jumpi\n      0x00\n      dup1\n      revert\n        /* \"profxexpo.sol\":24657:25137  function multisendToken(address payable[]  memory  _contributors, uint256[] memory _balances, uint256 totalQty,IERC20 _TKN) public payable {... */\n    tag_198:\n        /* \"profxexpo.sol\":24819:24827  totalQty */\n      dup2\n        /* \"profxexpo.sol\":24803:24816  uint256 total */\n      0x00\n        /* \"profxexpo.sol\":24860:25131  for (i; i < _contributors.length; i++) {... */\n    tag_591:\n        /* \"profxexpo.sol\":24872:24885  _contributors */\n      dup6\n        /* \"profxexpo.sol\":24872:24892  _contributors.length */\n      mload\n        /* \"profxexpo.sol\":24868:24869  i */\n      dup2\n        /* \"profxexpo.sol\":24868:24892  i < _contributors.length */\n      lt\n        /* \"profxexpo.sol\":24860:25131  for (i; i < _contributors.length; i++) {... */\n      iszero\n      tag_592\n      jumpi\n        /* \"profxexpo.sol\":24930:24939  _balances */\n      dup5\n        /* \"profxexpo.sol\":24940:24941  i */\n      dup2\n        /* \"profxexpo.sol\":24930:24942  _balances[i] */\n      dup2\n      mload\n      dup2\n      lt\n      tag_595\n      jumpi\n      tag_595\n      tag_317\n      jump\t// in\n    tag_595:\n      0x20\n      mul\n      0x20\n      add\n      add\n      mload\n        /* \"profxexpo.sol\":24921:24926  total */\n      dup3\n        /* \"profxexpo.sol\":24921:24942  total >= _balances[i] */\n      lt\n      iszero\n        /* \"profxexpo.sol\":24913:24943  require(total >= _balances[i]) */\n      tag_596\n      jumpi\n      revert(0x00, 0x00)\n    tag_596:\n        /* \"profxexpo.sol\":24973:24982  _balances */\n      dup5\n        /* \"profxexpo.sol\":24983:24984  i */\n      dup2\n        /* \"profxexpo.sol\":24973:24985  _balances[i] */\n      dup2\n      mload\n      dup2\n      lt\n      tag_598\n      jumpi\n      tag_598\n      tag_317\n      jump\t// in\n    tag_598:\n      0x20\n      mul\n      0x20\n      add\n      add\n      mload\n        /* \"profxexpo.sol\":24965:24970  total */\n      dup3\n        /* \"profxexpo.sol\":24965:24985  total - _balances[i] */\n      tag_599\n      swap2\n      swap1\n      tag_573\n      jump\t// in\n    tag_599:\n        /* \"profxexpo.sol\":24957:24985  total = total - _balances[i] */\n      swap2\n      pop\n        /* \"profxexpo.sol\":24999:25003  _TKN */\n      dup3\n      sub(shl(0xa0, 0x01), 0x01)\n        /* \"profxexpo.sol\":24999:25016  _TKN.transferFrom */\n      and\n      0x23b872dd\n        /* \"profxexpo.sol\":25017:25027  msg.sender */\n      caller\n        /* \"profxexpo.sol\":25029:25042  _contributors */\n      dup9\n        /* \"profxexpo.sol\":25043:25044  i */\n      dup5\n        /* \"profxexpo.sol\":25029:25045  _contributors[i] */\n      dup2\n      mload\n      dup2\n      lt\n      tag_601\n      jumpi\n      tag_601\n      tag_317\n      jump\t// in\n    tag_601:\n      0x20\n      mul\n      0x20\n      add\n      add\n      mload\n        /* \"profxexpo.sol\":25047:25056  _balances */\n      dup9\n        /* \"profxexpo.sol\":25057:25058  i */\n      dup6\n        /* \"profxexpo.sol\":25047:25059  _balances[i] */\n      dup2\n      mload\n      dup2\n      lt\n      tag_603\n      jumpi\n      tag_603\n      tag_317\n      jump\t// in\n    tag_603:\n      0x20\n      mul\n      0x20\n      add\n      add\n      mload\n        /* \"profxexpo.sol\":24999:25060  _TKN.transferFrom(msg.sender, _contributors[i], _balances[i]) */\n      mload(0x40)\n      dup5\n      0xffffffff\n      and\n      0xe0\n      shl\n      dup2\n      mstore\n      0x04\n      add\n      tag_604\n      swap4\n      swap3\n      swap2\n      swap1\n      tag_301\n      jump\t// in\n    tag_604:\n      0x20\n      mload(0x40)\n      dup1\n      dup4\n      sub\n      dup2\n      0x00\n      dup8\n      gas\n      call\n      iszero\n      dup1\n      iszero\n      tag_607\n      jumpi\n      returndatacopy(0x00, 0x00, returndatasize)\n      revert(0x00, returndatasize)\n    tag_607:\n      pop\n      pop\n      pop\n      pop\n      mload(0x40)\n      returndatasize\n      not(0x1f)\n      0x1f\n      dup3\n      add\n      and\n      dup3\n      add\n      dup1\n      0x40\n      mstore\n      pop\n      dup2\n      add\n      swap1\n      tag_608\n      swap2\n      swap1\n      tag_305\n      jump\t// in\n    tag_608:\n      pop\n        /* \"profxexpo.sol\":25090:25103  _contributors */\n      dup6\n        /* \"profxexpo.sol\":25104:25105  i */\n      dup2\n        /* \"profxexpo.sol\":25090:25106  _contributors[i] */\n      dup2\n      mload\n      dup2\n      lt\n      tag_610\n      jumpi\n      tag_610\n      tag_317\n      jump\t// in\n    tag_610:\n      0x20\n      mul\n      0x20\n      add\n      add\n      mload\n      sub(shl(0xa0, 0x01), 0x01)\n        /* \"profxexpo.sol\":25076:25120  MemberPayment(_contributors[i],_balances[i]) */\n      and\n      0xbd54bf7a35b4f30a5c2e53df02c464dc7c2a159a96b24dbb41cd9808bd6e2e36\n        /* \"profxexpo.sol\":25107:25116  _balances */\n      dup7\n        /* \"profxexpo.sol\":25117:25118  i */\n      dup4\n        /* \"profxexpo.sol\":25107:25119  _balances[i] */\n      dup2\n      mload\n      dup2\n      lt\n      tag_612\n      jumpi\n      tag_612\n      tag_317\n      jump\t// in\n    tag_612:\n      0x20\n      mul\n      0x20\n      add\n      add\n      mload\n        /* \"profxexpo.sol\":25076:25120  MemberPayment(_contributors[i],_balances[i]) */\n      mload(0x40)\n      tag_613\n      swap2\n        /* \"#utility.yul\":391:416   */\n      dup2\n      mstore\n        /* \"#utility.yul\":379:381   */\n      0x20\n        /* \"#utility.yul\":364:382   */\n      add\n      swap1\n        /* \"#utility.yul\":245:422   */\n      jump\n        /* \"profxexpo.sol\":25076:25120  MemberPayment(_contributors[i],_balances[i]) */\n    tag_613:\n      mload(0x40)\n      dup1\n      swap2\n      sub\n      swap1\n      log2\n        /* \"profxexpo.sol\":24894:24897  i++ */\n      0x01\n      add\n        /* \"profxexpo.sol\":24860:25131  for (i; i < _contributors.length; i++) {... */\n      jump(tag_591)\n    tag_592:\n        /* \"profxexpo.sol\":24796:25137  {... */\n      pop\n      pop\n        /* \"profxexpo.sol\":24657:25137  function multisendToken(address payable[]  memory  _contributors, uint256[] memory _balances, uint256 totalQty,IERC20 _TKN) public payable {... */\n      pop\n      pop\n      pop\n      pop\n      jump\t// out\n        /* \"profxexpo.sol\":24169:24231  function pause() external onlyOperator {... */\n    tag_201:\n        /* \"profxexpo.sol\":11923:11931  operator */\n      and(sub(shl(0xa0, 0x01), 0x01), sload(0x03))\n        /* \"profxexpo.sol\":242:252  msg.sender */\n      caller\n      sub(shl(0xa0, 0x01), 0x01)\n        /* \"profxexpo.sol\":11909:11931  _msgSender()==operator */\n      and\n      eq\n        /* \"profxexpo.sol\":11901:11968  require(_msgSender()==operator,\"Forbidden! Only Operator Can Call\") */\n      tag_616\n      jumpi\n      mload(0x40)\n      shl(0xe5, 0x461bcd)\n      dup2\n      mstore\n      0x04\n      add\n      tag_279\n      swap1\n      tag_420\n      jump\t// in\n    tag_616:\n        /* \"profxexpo.sol\":24216:24224  _pause() */\n      tag_422\n        /* \"profxexpo.sol\":24216:24222  _pause */\n      tag_620\n        /* \"profxexpo.sol\":24216:24224  _pause() */\n      jump\t// in\n        /* \"profxexpo.sol\":20381:21751  function stakestDSC(uint amount, uint plan, address _referral) public {... */\n    tag_235:\n        /* \"profxexpo.sol\":20466:20492  isUserExists(_msgSender()) */\n      tag_623\n        /* \"profxexpo.sol\":242:252  msg.sender */\n      caller\n        /* \"profxexpo.sol\":23686:23798  function isUserExists(address user) public view returns (bool) {... */\n      tag_131\n      jump\t// in\n        /* \"profxexpo.sol\":20466:20492  isUserExists(_msgSender()) */\n    tag_623:\n        /* \"profxexpo.sol\":20462:20558  if(!isUserExists(_msgSender())){... */\n      tag_626\n      jumpi\n        /* \"profxexpo.sol\":20503:20547  registration(_msgSender(),_referral,\"stDSC\") */\n      tag_626\n        /* \"profxexpo.sol\":242:252  msg.sender */\n      caller\n        /* \"profxexpo.sol\":20529:20538  _referral */\n      dup3\n        /* \"profxexpo.sol\":20503:20547  registration(_msgSender(),_referral,\"stDSC\") */\n      mload(0x40)\n      dup1\n      0x40\n      add\n      0x40\n      mstore\n      dup1\n      0x05\n      dup2\n      mstore\n      0x20\n      add\n      shl(0xd8, 0x7374445343)\n      dup2\n      mstore\n      pop\n        /* \"profxexpo.sol\":20503:20515  registration */\n      tag_288\n        /* \"profxexpo.sol\":20503:20547  registration(_msgSender(),_referral,\"stDSC\") */\n      jump\t// in\n    tag_626:\n        /* \"profxexpo.sol\":20575:20601  isUserExists(_msgSender()) */\n      tag_628\n        /* \"profxexpo.sol\":242:252  msg.sender */\n      caller\n        /* \"profxexpo.sol\":23686:23798  function isUserExists(address user) public view returns (bool) {... */\n      tag_131\n      jump\t// in\n        /* \"profxexpo.sol\":20575:20601  isUserExists(_msgSender()) */\n    tag_628:\n        /* \"profxexpo.sol\":20567:20630  require(isUserExists(_msgSender()), \"Dsclab: User not Exists!\") */\n      tag_630\n      jumpi\n      mload(0x40)\n      shl(0xe5, 0x461bcd)\n      dup2\n      mstore\n      0x04\n      add\n      tag_279\n      swap1\n      tag_364\n      jump\t// in\n    tag_630:\n        /* \"profxexpo.sol\":20658:20666  minStake */\n      sload(0x0c)\n        /* \"profxexpo.sol\":20648:20654  amount */\n      dup4\n        /* \"profxexpo.sol\":20648:20666  amount >= minStake */\n      lt\n      iszero\n        /* \"profxexpo.sol\":20640:20696  require(amount >= minStake, \"Minimum Activation is $60\") */\n      tag_632\n      jumpi\n      mload(0x40)\n      shl(0xe5, 0x461bcd)\n      dup2\n      mstore\n      0x04\n      add\n      tag_279\n      swap1\n      tag_367\n      jump\t// in\n    tag_632:\n        /* \"profxexpo.sol\":20724:20732  maxStake */\n      sload(0x0d)\n        /* \"profxexpo.sol\":20714:20720  amount */\n      dup4\n        /* \"profxexpo.sol\":20714:20732  amount <= maxStake */\n      gt\n      iszero\n        /* \"profxexpo.sol\":20706:20765  require(amount <= maxStake, \"Maximum Activation is $10000\") */\n      tag_634\n      jumpi\n      mload(0x40)\n      shl(0xe5, 0x461bcd)\n      dup2\n      mstore\n      0x04\n      add\n      tag_279\n      swap1\n      tag_370\n      jump\t// in\n    tag_634:\n        /* \"profxexpo.sol\":20783:20787  plan */\n      dup2\n        /* \"profxexpo.sol\":20791:20792  1 */\n      0x01\n        /* \"profxexpo.sol\":20783:20792  plan == 1 */\n      eq\n        /* \"profxexpo.sol\":20775:20840  require(plan == 1, \"In Fix plan only USDT investment is allowed\") */\n      tag_636\n      jumpi\n      mload(0x40)\n      shl(0xe5, 0x461bcd)\n      dup2\n      mstore\n      0x04\n      add\n      tag_279\n      swap1\n      tag_373\n      jump\t// in\n    tag_636:\n        /* \"profxexpo.sol\":242:252  msg.sender */\n      caller\n        /* \"profxexpo.sol\":20850:20864  uint lastinvst */\n      0x00\n        /* \"profxexpo.sol\":20867:20886  users[_msgSender()] */\n      swap1\n      dup2\n      mstore\n        /* \"profxexpo.sol\":20867:20872  users */\n      0x1d\n        /* \"profxexpo.sol\":20867:20886  users[_msgSender()] */\n      0x20\n      mstore\n      0x40\n      swap1\n      keccak256\n        /* \"profxexpo.sol\":20867:20897  users[_msgSender()].lastinvest */\n      0x06\n      add\n      sload\n        /* \"profxexpo.sol\":20910:20923  lastinvst > 0 */\n      dup1\n      iszero\n        /* \"profxexpo.sol\":20907:21036  if(lastinvst > 0){... */\n      tag_640\n      jumpi\n        /* \"profxexpo.sol\":20952:20961  lastinvst */\n      dup1\n        /* \"profxexpo.sol\":20942:20948  amount */\n      dup5\n        /* \"profxexpo.sol\":20942:20961  amount >= lastinvst */\n      lt\n      iszero\n        /* \"profxexpo.sol\":20934:21021  require(amount >= lastinvst, \"Re Investment Should Equal/Greater than last Investment\") */\n      tag_640\n      jumpi\n      mload(0x40)\n      shl(0xe5, 0x461bcd)\n      dup2\n      mstore\n      0x04\n      add\n      tag_279\n      swap1\n      tag_378\n      jump\t// in\n    tag_640:\n        /* \"profxexpo.sol\":21059:21076  11200000000000000 */\n      0x27ca57357c0000\n        /* \"profxexpo.sol\":21046:21056  uint price */\n      0x00\n        /* \"profxexpo.sol\":21059:21076  11200000000000000 */\n      dup2\n        /* \"profxexpo.sol\":21105:21116  amount*1e18 */\n      tag_642\n        /* \"profxexpo.sol\":21105:21111  amount */\n      dup8\n        /* \"profxexpo.sol\":21112:21116  1e18 */\n      0x0de0b6b3a7640000\n        /* \"profxexpo.sol\":21105:21116  amount*1e18 */\n      tag_388\n      jump\t// in\n    tag_642:\n        /* \"profxexpo.sol\":21104:21123  (amount*1e18)/price */\n      tag_643\n      swap2\n      swap1\n      tag_390\n      jump\t// in\n    tag_643:\n        /* \"profxexpo.sol\":21148:21153  stDSC */\n      sload(0x06)\n        /* \"profxexpo.sol\":21141:21206  IERC20(stDSC).transferFrom(_msgSender(), address(this), DSCCMQty) */\n      mload(0x40)\n      shl(0xe0, 0x23b872dd)\n      dup2\n      mstore\n        /* \"profxexpo.sol\":21087:21123  uint256 DSCCMQty=(amount*1e18)/price */\n      swap2\n      swap3\n      pop\n      sub(shl(0xa0, 0x01), 0x01)\n        /* \"profxexpo.sol\":21148:21153  stDSC */\n      and\n      swap1\n        /* \"profxexpo.sol\":21141:21167  IERC20(stDSC).transferFrom */\n      0x23b872dd\n      swap1\n        /* \"profxexpo.sol\":21141:21206  IERC20(stDSC).transferFrom(_msgSender(), address(this), DSCCMQty) */\n      tag_645\n      swap1\n        /* \"profxexpo.sol\":242:252  msg.sender */\n      caller\n      swap1\n        /* \"profxexpo.sol\":21190:21194  this */\n      address\n      swap1\n        /* \"profxexpo.sol\":21087:21123  uint256 DSCCMQty=(amount*1e18)/price */\n      dup7\n      swap1\n        /* \"profxexpo.sol\":21141:21206  IERC20(stDSC).transferFrom(_msgSender(), address(this), DSCCMQty) */\n      0x04\n      add\n      tag_301\n      jump\t// in\n    tag_645:\n      0x20\n      mload(0x40)\n      dup1\n      dup4\n      sub\n      dup2\n      0x00\n      dup8\n      gas\n      call\n      iszero\n      dup1\n      iszero\n      tag_647\n      jumpi\n      returndatacopy(0x00, 0x00, returndatasize)\n      revert(0x00, returndatasize)\n    tag_647:\n      pop\n      pop\n      pop\n      pop\n      mload(0x40)\n      returndatasize\n      not(0x1f)\n      0x1f\n      dup3\n      add\n      and\n      dup3\n      add\n      dup1\n      0x40\n      mstore\n      pop\n      dup2\n      add\n      swap1\n      tag_648\n      swap2\n      swap1\n      tag_305\n      jump\t// in\n    tag_648:\n      pop\n        /* \"profxexpo.sol\":21223:21228  stDSC */\n      sload(0x06)\n        /* \"profxexpo.sol\":21216:21244  IERC20(stDSC).burn(DSCCMQty) */\n      mload(0x40)\n      shl(0xe3, 0x0852cd8d)\n      dup2\n      mstore\n      0x04\n      dup2\n      add\n        /* \"#utility.yul\":391:416   */\n      dup4\n      swap1\n      mstore\n      sub(shl(0xa0, 0x01), 0x01)\n        /* \"profxexpo.sol\":21223:21228  stDSC */\n      swap1\n      swap2\n      and\n      swap1\n        /* \"profxexpo.sol\":21216:21234  IERC20(stDSC).burn */\n      0x42966c68\n      swap1\n        /* \"#utility.yul\":364:382   */\n      0x24\n      add\n        /* \"profxexpo.sol\":21216:21244  IERC20(stDSC).burn(DSCCMQty) */\n      0x00\n      mload(0x40)\n      dup1\n      dup4\n      sub\n      dup2\n      0x00\n      dup8\n      dup1\n      extcodesize\n      iszero\n      dup1\n      iszero\n      tag_650\n      jumpi\n      revert(0x00, 0x00)\n    tag_650:\n      pop\n      gas\n      call\n      iszero\n      dup1\n      iszero\n      tag_652\n      jumpi\n      returndatacopy(0x00, 0x00, returndatasize)\n      revert(0x00, returndatasize)\n    tag_652:\n      pop\n      pop\n      pop\n      pop\n        /* \"profxexpo.sol\":21263:21274  address ref */\n      0x00\n        /* \"profxexpo.sol\":21277:21282  users */\n      0x1d\n        /* \"profxexpo.sol\":21277:21296  users[_msgSender()] */\n      0x00\n        /* \"profxexpo.sol\":21283:21295  _msgSender() */\n      tag_653\n        /* \"profxexpo.sol\":242:252  msg.sender */\n      caller\n      swap1\n        /* \"profxexpo.sol\":163:259  function _msgSender() internal view virtual returns (address) {... */\n      jump\n        /* \"profxexpo.sol\":21283:21295  _msgSender() */\n    tag_653:\n      sub(shl(0xa0, 0x01), 0x01)\n        /* \"profxexpo.sol\":21277:21296  users[_msgSender()] */\n      swap1\n      dup2\n      and\n      dup3\n      mstore\n      0x20\n      dup1\n      dup4\n      add\n      swap4\n      swap1\n      swap4\n      mstore\n      0x40\n      swap2\n      dup3\n      add\n      0x00\n      swap1\n      dup2\n      keccak256\n        /* \"profxexpo.sol\":21277:21305  users[_msgSender()].referrer */\n      0x01\n      add\n      sload\n        /* \"profxexpo.sol\":242:252  msg.sender */\n      caller\n        /* \"profxexpo.sol\":21331:21350  users[_msgSender()] */\n      dup3\n      mstore\n        /* \"profxexpo.sol\":21331:21336  users */\n      0x1d\n        /* \"profxexpo.sol\":21331:21350  users[_msgSender()] */\n      swap1\n      swap5\n      mstore\n      swap2\n      dup3\n      keccak256\n        /* \"profxexpo.sol\":21331:21361  users[_msgSender()].totalStake */\n      0x03\n      add\n      sload\n        /* \"profxexpo.sol\":21277:21305  users[_msgSender()].referrer */\n      swap3\n      and\n      swap3\n      pop\n        /* \"profxexpo.sol\":21398:21411  usrstake == 0 */\n      dup2\n      iszero\n        /* \"profxexpo.sol\":21397:21432  (usrstake == 0) ? \"New\" : \"Retopup\" */\n      tag_655\n      jumpi\n      mload(0x40)\n      dup1\n      0x40\n      add\n      0x40\n      mstore\n      dup1\n      0x07\n      dup2\n      mstore\n      0x20\n      add\n      shl(0xcc, 0x05265746f70757)\n      dup2\n      mstore\n      pop\n      jump(tag_656)\n    tag_655:\n      mload(0x40)\n      dup1\n      0x40\n      add\n      0x40\n      mstore\n      dup1\n      0x03\n      dup2\n      mstore\n      0x20\n      add\n      shl(0xe8, 0x4e6577)\n      dup2\n      mstore\n      pop\n    tag_656:\n        /* \"profxexpo.sol\":21371:21432  string memory stakeType = (usrstake == 0) ? \"New\" : \"Retopup\" */\n      swap1\n      pop\n        /* \"profxexpo.sol\":21453:21463  msg.sender */\n      caller\n      sub(shl(0xa0, 0x01), 0x01)\n        /* \"profxexpo.sol\":21447:21508  Stake(msg.sender, amount, DSCCMQty, \"stDSC\", stakeType, plan) */\n      and\n      0xabd608a4ba071391876d4741f99ba49362bd2fc5afcf4f1fc9ecf91d6a73ccf8\n        /* \"profxexpo.sol\":21465:21471  amount */\n      dup11\n        /* \"profxexpo.sol\":21473:21481  DSCCMQty */\n      dup7\n        /* \"profxexpo.sol\":21492:21501  stakeType */\n      dup5\n        /* \"profxexpo.sol\":21503:21507  plan */\n      dup13\n        /* \"profxexpo.sol\":21447:21508  Stake(msg.sender, amount, DSCCMQty, \"stDSC\", stakeType, plan) */\n      mload(0x40)\n      tag_657\n      swap5\n      swap4\n      swap3\n      swap2\n      swap1\n      tag_658\n      jump\t// in\n    tag_657:\n      mload(0x40)\n      dup1\n      swap2\n      sub\n      swap1\n      log2\n        /* \"profxexpo.sol\":242:252  msg.sender */\n      caller\n        /* \"profxexpo.sol\":21518:21537  users[_msgSender()] */\n      0x00\n      swap1\n      dup2\n      mstore\n        /* \"profxexpo.sol\":21518:21523  users */\n      0x1d\n        /* \"profxexpo.sol\":21518:21537  users[_msgSender()] */\n      0x20\n      mstore\n      0x40\n      dup2\n      keccak256\n        /* \"profxexpo.sol\":21518:21548  users[_msgSender()].lastinvest */\n      0x06\n      dup2\n      add\n        /* \"profxexpo.sol\":21518:21557  users[_msgSender()].lastinvest = amount */\n      dup12\n      swap1\n      sstore\n        /* \"profxexpo.sol\":21567:21597  users[_msgSender()].totalStake */\n      0x03\n      add\n        /* \"profxexpo.sol\":21567:21607  users[_msgSender()].totalStake += amount */\n      dup1\n      sload\n        /* \"profxexpo.sol\":21518:21557  users[_msgSender()].lastinvest = amount */\n      dup12\n      swap3\n        /* \"profxexpo.sol\":21518:21537  users[_msgSender()] */\n      swap1\n        /* \"profxexpo.sol\":21567:21607  users[_msgSender()].totalStake += amount */\n      tag_661\n      swap1\n        /* \"profxexpo.sol\":21518:21557  users[_msgSender()].lastinvest = amount */\n      dup5\n      swap1\n        /* \"profxexpo.sol\":21567:21607  users[_msgSender()].totalStake += amount */\n      tag_329\n      jump\t// in\n    tag_661:\n      swap1\n      swap2\n      sstore\n      pop\n      pop\n        /* \"profxexpo.sol\":242:252  msg.sender */\n      caller\n        /* \"profxexpo.sol\":21617:21630  uint refStake */\n      0x00\n        /* \"profxexpo.sol\":21633:21652  users[_msgSender()] */\n      swap1\n      dup2\n      mstore\n        /* \"profxexpo.sol\":21633:21638  users */\n      0x1d\n        /* \"profxexpo.sol\":21633:21652  users[_msgSender()] */\n      0x20\n      mstore\n      0x40\n      dup2\n      keccak256\n        /* \"profxexpo.sol\":21633:21663  users[_msgSender()].totalStake */\n      0x03\n      add\n      sload\n      swap1\n        /* \"profxexpo.sol\":21676:21689  refStake == 0 */\n      dup2\n      swap1\n      sub\n        /* \"profxexpo.sol\":21673:21736  if(refStake == 0){... */\n      tag_663\n      jumpi\n      sub(shl(0xa0, 0x01), 0x01)\n        /* \"profxexpo.sol\":21700:21710  users[ref] */\n      dup5\n      and\n      0x00\n      swap1\n      dup2\n      mstore\n        /* \"profxexpo.sol\":21700:21705  users */\n      0x1d\n        /* \"profxexpo.sol\":21700:21710  users[ref] */\n      0x20\n      mstore\n      0x40\n      dup2\n      keccak256\n        /* \"profxexpo.sol\":21700:21723  users[ref].partnerCount */\n      0x02\n      add\n        /* \"profxexpo.sol\":21700:21725  users[ref].partnerCount++ */\n      dup1\n      sload\n      swap2\n      tag_664\n      dup4\n      tag_336\n      jump\t// in\n    tag_664:\n      swap2\n      swap1\n      pop\n      sstore\n      pop\n        /* \"profxexpo.sol\":21673:21736  if(refStake == 0){... */\n    tag_663:\n        /* \"profxexpo.sol\":20451:21751  {... */\n      pop\n      pop\n      pop\n      pop\n      pop\n      pop\n      pop\n        /* \"profxexpo.sol\":20381:21751  function stakestDSC(uint amount, uint plan, address _referral) public {... */\n      pop\n      pop\n      pop\n      jump\t// out\n        /* \"profxexpo.sol\":11170:11200  address[] public adminAchivers */\n    tag_251:\n      0x1a\n      dup2\n      dup2\n      sload\n      dup2\n      lt\n      tag_665\n      jumpi\n      0x00\n      dup1\n      revert\n    tag_665:\n      0x00\n      swap2\n      dup3\n      mstore\n      0x20\n      swap1\n      swap2\n      keccak256\n      add\n      sload\n      sub(shl(0xa0, 0x01), 0x01)\n      and\n      swap1\n      pop\n      dup2\n      jump\t// out\n        /* \"profxexpo.sol\":2270:2502  function transferOwnership(address newOwner) public virtual onlyOwner {... */\n    tag_256:\n        /* \"profxexpo.sol\":1899:1912  _checkOwner() */\n      tag_668\n        /* \"profxexpo.sol\":1899:1910  _checkOwner */\n      tag_530\n        /* \"profxexpo.sol\":1899:1912  _checkOwner() */\n      jump\t// in\n    tag_668:\n      sub(shl(0xa0, 0x01), 0x01)\n        /* \"profxexpo.sol\":2371:2393  newOwner != address(0) */\n      dup2\n      and\n        /* \"profxexpo.sol\":2350:2457  require(... */\n      tag_670\n      jumpi\n      mload(0x40)\n      shl(0xe5, 0x461bcd)\n      dup2\n      mstore\n        /* \"#utility.yul\":23206:23208   */\n      0x20\n        /* \"profxexpo.sol\":2350:2457  require(... */\n      0x04\n      dup3\n      add\n        /* \"#utility.yul\":23188:23209   */\n      mstore\n        /* \"#utility.yul\":23245:23247   */\n      0x26\n        /* \"#utility.yul\":23225:23243   */\n      0x24\n      dup3\n      add\n        /* \"#utility.yul\":23218:23248   */\n      mstore\n        /* \"#utility.yul\":23284:23318   */\n      0x4f776e61626c653a206e6577206f776e657220697320746865207a65726f2061\n        /* \"#utility.yul\":23264:23282   */\n      0x44\n      dup3\n      add\n        /* \"#utility.yul\":23257:23319   */\n      mstore\n      shl(0xd0, 0x646472657373)\n        /* \"#utility.yul\":23335:23353   */\n      0x64\n      dup3\n      add\n        /* \"#utility.yul\":23328:23364   */\n      mstore\n        /* \"#utility.yul\":23381:23400   */\n      0x84\n      add\n        /* \"profxexpo.sol\":2350:2457  require(... */\n      tag_279\n        /* \"#utility.yul\":23004:23406   */\n      jump\n        /* \"profxexpo.sol\":2350:2457  require(... */\n    tag_670:\n        /* \"profxexpo.sol\":2467:2495  _transferOwnership(newOwner) */\n      tag_673\n        /* \"profxexpo.sol\":2486:2494  newOwner */\n      dup2\n        /* \"profxexpo.sol\":2467:2485  _transferOwnership */\n      tag_533\n        /* \"profxexpo.sol\":2467:2495  _transferOwnership(newOwner) */\n      jump\t// in\n    tag_673:\n        /* \"profxexpo.sol\":2270:2502  function transferOwnership(address newOwner) public virtual onlyOwner {... */\n      pop\n      jump\t// out\n        /* \"profxexpo.sol\":24310:24467  function withdrawLost(uint256 WithAmt) public {... */\n    tag_260:\n        /* \"profxexpo.sol\":1982:1989  address */\n      0x00\n        /* \"profxexpo.sol\":2008:2014  _owner */\n      sload\n      sub(shl(0xa0, 0x01), 0x01)\n      and\n        /* \"profxexpo.sol\":242:252  msg.sender */\n      caller\n        /* \"profxexpo.sol\":24374:24397  _msgSender() == owner() */\n      eq\n        /* \"profxexpo.sol\":24366:24411  require(_msgSender() == owner(), \"onlyOwner\") */\n      tag_677\n      jumpi\n      mload(0x40)\n      shl(0xe5, 0x461bcd)\n      dup2\n      mstore\n        /* \"#utility.yul\":21824:21826   */\n      0x20\n        /* \"profxexpo.sol\":24366:24411  require(_msgSender() == owner(), \"onlyOwner\") */\n      0x04\n      dup3\n      add\n        /* \"#utility.yul\":21806:21827   */\n      mstore\n        /* \"#utility.yul\":21863:21864   */\n      0x09\n        /* \"#utility.yul\":21843:21861   */\n      0x24\n      dup3\n      add\n        /* \"#utility.yul\":21836:21865   */\n      mstore\n      shl(0xb9, 0x37b7363ca7bbb732b9)\n        /* \"#utility.yul\":21881:21899   */\n      0x44\n      dup3\n      add\n        /* \"#utility.yul\":21874:21913   */\n      mstore\n        /* \"#utility.yul\":21930:21948   */\n      0x64\n      add\n        /* \"profxexpo.sol\":24366:24411  require(_msgSender() == owner(), \"onlyOwner\") */\n      tag_279\n        /* \"#utility.yul\":21622:21954   */\n      jump\n        /* \"profxexpo.sol\":24366:24411  require(_msgSender() == owner(), \"onlyOwner\") */\n    tag_677:\n        /* \"profxexpo.sol\":1982:1989  address */\n      0x00\n        /* \"profxexpo.sol\":2008:2014  _owner */\n      sload\n      sub(shl(0xa0, 0x01), 0x01)\n      and\n        /* \"profxexpo.sol\":24421:24460  payable(owner()).transfer(WithAmt*1e18) */\n      0x08fc\n        /* \"profxexpo.sol\":24447:24459  WithAmt*1e18 */\n      tag_680\n        /* \"profxexpo.sol\":24447:24454  WithAmt */\n      dup4\n        /* \"profxexpo.sol\":24455:24459  1e18 */\n      0x0de0b6b3a7640000\n        /* \"profxexpo.sol\":24447:24459  WithAmt*1e18 */\n      tag_388\n      jump\t// in\n    tag_680:\n        /* \"profxexpo.sol\":24421:24460  payable(owner()).transfer(WithAmt*1e18) */\n      mload(0x40)\n      dup2\n      iszero\n      swap1\n      swap3\n      mul\n      swap2\n      0x00\n      dup2\n      dup2\n      dup2\n      dup6\n      dup9\n      dup9\n      call\n      swap4\n      pop\n      pop\n      pop\n      pop\n      iszero\n      dup1\n      iszero\n      tag_682\n      jumpi\n      returndatacopy(0x00, 0x00, returndatasize)\n      revert(0x00, returndatasize)\n    tag_682:\n      pop\n        /* \"profxexpo.sol\":24310:24467  function withdrawLost(uint256 WithAmt) public {... */\n      pop\n      jump\t// out\n        /* \"profxexpo.sol\":11994:12975  function initialize( address _usdt, address _dsc, address _stdsc, address _owner)  external initializer  {... */\n    tag_269:\n        /* \"profxexpo.sol\":1253:1266  _initializing */\n      sload(0x00)\n      shl(0xb0, 0x01)\n      swap1\n      div\n      0xff\n      and\n      dup1\n        /* \"profxexpo.sol\":1253:1283  _initializing || !_initialized */\n      tag_684\n      jumpi\n      pop\n        /* \"profxexpo.sol\":1271:1283  _initialized */\n      sload(0x00)\n      shl(0xa8, 0x01)\n      swap1\n      div\n      0xff\n      and\n        /* \"profxexpo.sol\":1270:1283  !_initialized */\n      iszero\n        /* \"profxexpo.sol\":1253:1283  _initializing || !_initialized */\n    tag_684:\n        /* \"profxexpo.sol\":1245:1334  require(_initializing || !_initialized, \"Initializable: contract is already initialized\") */\n      tag_685\n      jumpi\n      mload(0x40)\n      shl(0xe5, 0x461bcd)\n      dup2\n      mstore\n        /* \"#utility.yul\":23613:23615   */\n      0x20\n        /* \"profxexpo.sol\":1245:1334  require(_initializing || !_initialized, \"Initializable: contract is already initialized\") */\n      0x04\n      dup3\n      add\n        /* \"#utility.yul\":23595:23616   */\n      mstore\n        /* \"#utility.yul\":23652:23654   */\n      0x2e\n        /* \"#utility.yul\":23632:23650   */\n      0x24\n      dup3\n      add\n        /* \"#utility.yul\":23625:23655   */\n      mstore\n        /* \"#utility.yul\":23691:23725   */\n      0x496e697469616c697a61626c653a20636f6e747261637420697320616c726561\n        /* \"#utility.yul\":23671:23689   */\n      0x44\n      dup3\n      add\n        /* \"#utility.yul\":23664:23726   */\n      mstore\n      shl(0x92, 0x191e481a5b9a5d1a585b1a5e9959)\n        /* \"#utility.yul\":23742:23760   */\n      0x64\n      dup3\n      add\n        /* \"#utility.yul\":23735:23779   */\n      mstore\n        /* \"#utility.yul\":23796:23815   */\n      0x84\n      add\n        /* \"profxexpo.sol\":1245:1334  require(_initializing || !_initialized, \"Initializable: contract is already initialized\") */\n      tag_279\n        /* \"#utility.yul\":23411:23821   */\n      jump\n        /* \"profxexpo.sol\":1245:1334  require(_initializing || !_initialized, \"Initializable: contract is already initialized\") */\n    tag_685:\n        /* \"profxexpo.sol\":1345:1364  bool isTopLevelCall */\n      0x00\n        /* \"profxexpo.sol\":1368:1381  _initializing */\n      sload\n      shl(0xb0, 0x01)\n      swap1\n      div\n      0xff\n      and\n        /* \"profxexpo.sol\":1367:1381  !_initializing */\n      iszero\n        /* \"profxexpo.sol\":1391:1489  if (isTopLevelCall) {... */\n      dup1\n      iszero\n      tag_688\n      jumpi\n        /* \"profxexpo.sol\":1425:1438  _initializing */\n      0x00\n        /* \"profxexpo.sol\":1425:1445  _initializing = true */\n      dup1\n      sload\n      not(shl(0xa8, 0xffff))\n        /* \"profxexpo.sol\":1459:1478  _initialized = true */\n      and\n      shl(0xa8, 0x0101)\n      or\n      swap1\n      sstore\n        /* \"profxexpo.sol\":1391:1489  if (isTopLevelCall) {... */\n    tag_688:\n        /* \"profxexpo.sol\":12109:12113  USDT */\n      0x04\n        /* \"profxexpo.sol\":12109:12121  USDT = _usdt */\n      dup1\n      sload\n      sub(shl(0xa0, 0x01), 0x01)\n      dup1\n      dup9\n      and\n      not(sub(shl(0xa0, 0x01), 0x01))\n      swap3\n      dup4\n      and\n      or\n      swap1\n      swap3\n      sstore\n        /* \"profxexpo.sol\":12131:12134  DSC */\n      0x05\n        /* \"profxexpo.sol\":12131:12141  DSC = _dsc */\n      dup1\n      sload\n      dup8\n      dup5\n      and\n      swap1\n      dup4\n      and\n      or\n      swap1\n      sstore\n        /* \"profxexpo.sol\":12151:12156  stDSC */\n      0x06\n        /* \"profxexpo.sol\":12151:12165  stDSC = _stdsc */\n      dup1\n      sload\n      swap3\n      dup7\n      and\n      swap3\n      swap1\n      swap2\n      and\n      swap2\n      swap1\n      swap2\n      or\n      swap1\n      sstore\n        /* \"profxexpo.sol\":12175:12190  ownable(_owner) */\n      tag_690\n        /* \"profxexpo.sol\":12183:12189  _owner */\n      dup3\n        /* \"profxexpo.sol\":12175:12182  ownable */\n      tag_670\n        /* \"profxexpo.sol\":12175:12190  ownable(_owner) */\n      jump\t// in\n    tag_690:\n        /* \"profxexpo.sol\":12200:12213  uniswapRouter */\n      0x1f\n        /* \"profxexpo.sol\":12200:12300  uniswapRouter = IUniswapV2Router02(... */\n      dup1\n      sload\n      not(sub(shl(0xa0, 0x01), 0x01))\n      and\n        /* \"profxexpo.sol\":12248:12290  0x10ED43C718714eb63d5aA57B78B54704E256024E */\n      0x10ed43c718714eb63d5aa57b78b54704e256024e\n        /* \"profxexpo.sol\":12200:12300  uniswapRouter = IUniswapV2Router02(... */\n      or\n      swap1\n      sstore\n        /* \"profxexpo.sol\":12321:12381  levelBonusShares = [100, 50, 30, 20, 10, 20, 20, 20, 30, 30] */\n      0x40\n      dup1\n      mload\n      0x0140\n      dup2\n      add\n      dup3\n      mstore\n        /* \"profxexpo.sol\":12341:12344  100 */\n      0x64\n        /* \"profxexpo.sol\":12321:12381  levelBonusShares = [100, 50, 30, 20, 10, 20, 20, 20, 30, 30] */\n      dup2\n      mstore\n        /* \"profxexpo.sol\":12346:12348  50 */\n      0x32\n        /* \"profxexpo.sol\":12321:12381  levelBonusShares = [100, 50, 30, 20, 10, 20, 20, 20, 30, 30] */\n      0x20\n      dup3\n      add\n      mstore\n        /* \"profxexpo.sol\":12350:12352  30 */\n      0x1e\n        /* \"profxexpo.sol\":12321:12381  levelBonusShares = [100, 50, 30, 20, 10, 20, 20, 20, 30, 30] */\n      swap2\n      dup2\n      add\n      dup3\n      swap1\n      mstore\n        /* \"profxexpo.sol\":12354:12356  20 */\n      0x14\n        /* \"profxexpo.sol\":12321:12381  levelBonusShares = [100, 50, 30, 20, 10, 20, 20, 20, 30, 30] */\n      0x60\n      dup3\n      add\n      dup2\n      swap1\n      mstore\n        /* \"profxexpo.sol\":12358:12360  10 */\n      0x0a\n        /* \"profxexpo.sol\":12321:12381  levelBonusShares = [100, 50, 30, 20, 10, 20, 20, 20, 30, 30] */\n      0x80\n      dup4\n      add\n      dup2\n      swap1\n      mstore\n      0xa0\n      dup4\n      add\n      dup3\n      swap1\n      mstore\n      0xc0\n      dup4\n      add\n      dup3\n      swap1\n      mstore\n      0xe0\n      dup4\n      add\n      swap2\n      swap1\n      swap2\n      mstore\n        /* \"profxexpo.sol\":12200:12300  uniswapRouter = IUniswapV2Router02(... */\n      0x0100\n        /* \"profxexpo.sol\":12321:12381  levelBonusShares = [100, 50, 30, 20, 10, 20, 20, 20, 30, 30] */\n      dup3\n      add\n      dup4\n      swap1\n      mstore\n      0x0120\n      dup3\n      add\n      swap3\n      swap1\n      swap3\n      mstore\n      tag_692\n      swap2\n        /* \"profxexpo.sol\":12321:12337  levelBonusShares */\n      0x18\n      swap2\n        /* \"profxexpo.sol\":12321:12381  levelBonusShares = [100, 50, 30, 20, 10, 20, 20, 20, 30, 30] */\n      swap1\n      tag_693\n      jump\t// in\n    tag_692:\n      pop\n        /* \"profxexpo.sol\":12404:12413  60 * 1e18 */\n      0x0340aad21b3b700000\n        /* \"profxexpo.sol\":12393:12401  minStake */\n      0x0c\n        /* \"profxexpo.sol\":12393:12413  minStake = 60 * 1e18 */\n      sstore\n        /* \"profxexpo.sol\":12434:12446  10000 * 1e18 */\n      0x021e19e0c9bab2400000\n        /* \"profxexpo.sol\":12423:12431  maxStake */\n      0x0d\n        /* \"profxexpo.sol\":12423:12446  maxStake = 10000 * 1e18 */\n      sstore\n        /* \"profxexpo.sol\":12476:12485  30 * 1e18 */\n      0x01a055690d9db80000\n        /* \"profxexpo.sol\":12463:12473  joiningFee */\n      0x0b\n        /* \"profxexpo.sol\":12463:12485  joiningFee = 30 * 1e18 */\n      sstore\n      0x02\n        /* \"profxexpo.sol\":12495:12504  multipler */\n      0x09\n        /* \"profxexpo.sol\":12495:12508  multipler = 2 */\n      sstore\n        /* \"profxexpo.sol\":12531:12533  10 */\n      0x0a\n        /* \"profxexpo.sol\":12519:12528  LASTLEVEL */\n      0x15\n        /* \"profxexpo.sol\":12519:12533  LASTLEVEL = 10 */\n      sstore\n        /* \"profxexpo.sol\":12555:12561  1 days */\n      0x015180\n        /* \"profxexpo.sol\":12543:12552  TIME_STEP */\n      0x12\n        /* \"profxexpo.sol\":12543:12561  TIME_STEP = 1 days */\n      sstore\n        /* \"profxexpo.sol\":12590:12594  1000 */\n      0x03e8\n        /* \"profxexpo.sol\":12572:12587  PERCENT_DIVIDER */\n      0x14\n        /* \"profxexpo.sol\":12572:12594  PERCENT_DIVIDER = 1000 */\n      sstore\n        /* \"profxexpo.sol\":12621:12625  3000 */\n      0x0bb8\n        /* \"profxexpo.sol\":12605:12618  levelShare[1] */\n      0x9fafca4c9c0d5c2cbf85f49fd8ab8212430ce78c2a0cb75b51e0f9c4f9ace003\n        /* \"profxexpo.sol\":12605:12625  levelShare[1] = 3000 */\n      sstore\n        /* \"profxexpo.sol\":12651:12655  1500 */\n      0x05dc\n        /* \"profxexpo.sol\":12635:12648  levelShare[2] */\n      0x1dd2f4b94a51cfb409e6e317a497f7cfd9013960a1c723f830c49c05a25f08a5\n        /* \"profxexpo.sol\":12635:12655  levelShare[2] = 1500 */\n      sstore\n        /* \"profxexpo.sol\":12681:12684  750 */\n      0x02ee\n        /* \"profxexpo.sol\":12665:12678  levelShare[3] */\n      0x804a3d0621e73505f5f0c57c922f3e57d6b48e175551184eb12f80d7b4a9c783\n        /* \"profxexpo.sol\":12665:12684  levelShare[3] = 750 */\n      sstore\n        /* \"profxexpo.sol\":12710:12713  500 */\n      0x01f4\n        /* \"profxexpo.sol\":12694:12707  levelShare[4] */\n      0xa952f8c0f40734b22d2328e0f7ff57eeffee78885b9cf2147ff941cc37e1c86e\n        /* \"profxexpo.sol\":12694:12713  levelShare[4] = 500 */\n      sstore\n        /* \"profxexpo.sol\":12739:12742  400 */\n      0x0190\n        /* \"profxexpo.sol\":12723:12736  levelShare[5] */\n      0xb48400cb19cf39e58355a7c9fd856f9b5b7298c53856a6766c6b39755ccafa79\n        /* \"profxexpo.sol\":12723:12742  levelShare[5] = 400 */\n      sstore\n        /* \"profxexpo.sol\":12753:12768  isAirdropPaused */\n      0x11\n        /* \"profxexpo.sol\":12753:12776  isAirdropPaused = false */\n      dup1\n      sload\n      not(0xff)\n      and\n      swap1\n      sstore\n      0x01\n        /* \"profxexpo.sol\":12786:12796  lastUserId */\n      0x13\n        /* \"profxexpo.sol\":12786:12800  lastUserId = 1 */\n      dup2\n      dup2\n      sstore\n      sub(shl(0xa0, 0x01), 0x01)\n        /* \"profxexpo.sol\":12810:12823  users[_owner] */\n      dup5\n      and\n      0x00\n      dup2\n      dup2\n      mstore\n        /* \"profxexpo.sol\":12810:12815  users */\n      0x1d\n        /* \"profxexpo.sol\":12605:12618  levelShare[1] */\n      0x20\n        /* \"profxexpo.sol\":12810:12823  users[_owner] */\n      swap1\n      dup2\n      mstore\n        /* \"profxexpo.sol\":12605:12618  levelShare[1] */\n      0x40\n        /* \"profxexpo.sol\":12810:12823  users[_owner] */\n      dup3\n      keccak256\n        /* \"profxexpo.sol\":12810:12843  users[_owner].userId = lastUserId */\n      dup6\n      swap1\n      sstore\n        /* \"profxexpo.sol\":12853:12876  idToAddress[lastUserId] */\n      dup5\n      dup3\n      mstore\n        /* \"profxexpo.sol\":12853:12864  idToAddress */\n      0x1e\n        /* \"profxexpo.sol\":12853:12876  idToAddress[lastUserId] */\n      swap1\n      mstore\n      0x873299c6a6c39b8b92f01922bb622df4a3236ea2876aac2da76f6c092cf7e98f\n        /* \"profxexpo.sol\":12853:12885  idToAddress[lastUserId] = _owner */\n      dup1\n      sload\n      not(sub(shl(0xa0, 0x01), 0x01))\n      and\n      swap1\n      swap3\n      or\n      swap1\n      swap2\n      sstore\n        /* \"profxexpo.sol\":12895:12907  lastUserId++ */\n      tag_694\n      dup4\n      tag_336\n      jump\t// in\n    tag_694:\n      swap2\n      swap1\n      pop\n      sstore\n      pop\n        /* \"profxexpo.sol\":12951:12952  0 */\n      0x00\n      sub(shl(0xa0, 0x01), 0x01)\n        /* \"profxexpo.sol\":12922:12968  Registration(_owner, address(0), 1, 0,\"Owner\") */\n      and\n        /* \"profxexpo.sol\":12935:12941  _owner */\n      dup3\n      sub(shl(0xa0, 0x01), 0x01)\n        /* \"profxexpo.sol\":12922:12968  Registration(_owner, address(0), 1, 0,\"Owner\") */\n      and\n      mload(0x00)\n      codecopy(0x00, data_94466a41869f0ad3d2beb923f23817e68426e7ab720b5288442cefdbe65a2fef, 0x20)\n      mload(0x00)\n      swap1\n      0x00\n      mstore\n        /* \"profxexpo.sol\":12955:12956  1 */\n      0x01\n        /* \"profxexpo.sol\":12958:12959  0 */\n      0x00\n        /* \"profxexpo.sol\":12922:12968  Registration(_owner, address(0), 1, 0,\"Owner\") */\n      mload(0x40)\n      tag_695\n      swap3\n      swap2\n      swap1\n        /* \"#utility.yul\":24082:24107   */\n      swap2\n      dup3\n      mstore\n        /* \"#utility.yul\":24138:24140   */\n      0x20\n        /* \"#utility.yul\":24123:24141   */\n      dup3\n      add\n        /* \"#utility.yul\":24116:24150   */\n      mstore\n        /* \"#utility.yul\":24186:24188   */\n      0x60\n        /* \"#utility.yul\":24181:24183   */\n      0x40\n        /* \"#utility.yul\":24166:24184   */\n      dup3\n      add\n        /* \"#utility.yul\":24159:24189   */\n      dup2\n      swap1\n      mstore\n        /* \"#utility.yul\":24225:24226   */\n      0x05\n        /* \"#utility.yul\":24205:24223   */\n      swap1\n      dup3\n      add\n        /* \"#utility.yul\":24198:24227   */\n      mstore\n      shl(0xd9, 0x27bbb732b9)\n        /* \"#utility.yul\":24258:24261   */\n      0x80\n        /* \"#utility.yul\":24243:24262   */\n      dup3\n      add\n        /* \"#utility.yul\":24236:24272   */\n      mstore\n        /* \"#utility.yul\":24304:24307   */\n      0xa0\n        /* \"#utility.yul\":24289:24308   */\n      add\n      swap1\n        /* \"#utility.yul\":23826:24314   */\n      jump\n        /* \"profxexpo.sol\":12922:12968  Registration(_owner, address(0), 1, 0,\"Owner\") */\n    tag_695:\n      mload(0x40)\n      dup1\n      swap2\n      sub\n      swap1\n      log3\n        /* \"profxexpo.sol\":1515:1529  isTopLevelCall */\n      dup1\n        /* \"profxexpo.sol\":1511:1577  if (isTopLevelCall) {... */\n      iszero\n      tag_697\n      jumpi\n        /* \"profxexpo.sol\":1561:1566  false */\n      0x00\n        /* \"profxexpo.sol\":1545:1566  _initializing = false */\n      dup1\n      sload\n      not(shl(0xb0, 0xff))\n      and\n      swap1\n      sstore\n        /* \"profxexpo.sol\":1511:1577  if (isTopLevelCall) {... */\n    tag_697:\n        /* \"profxexpo.sol\":1235:1583  {... */\n      pop\n        /* \"profxexpo.sol\":11994:12975  function initialize( address _usdt, address _dsc, address _stdsc, address _owner)  external initializer  {... */\n      pop\n      pop\n      pop\n      pop\n      jump\t// out\n        /* \"profxexpo.sol\":12983:13627  function registration(address userAddress, address referrerAddress, string memory tyyp) private {... */\n    tag_288:\n        /* \"profxexpo.sol\":13098:13123  isUserExists(userAddress) */\n      tag_700\n        /* \"profxexpo.sol\":13111:13122  userAddress */\n      dup4\n        /* \"profxexpo.sol\":13098:13110  isUserExists */\n      tag_131\n        /* \"profxexpo.sol\":13098:13123  isUserExists(userAddress) */\n      jump\t// in\n    tag_700:\n        /* \"profxexpo.sol\":13097:13123  !isUserExists(userAddress) */\n      iszero\n        /* \"profxexpo.sol\":13089:13140  require(!isUserExists(userAddress), \"User Exists!\") */\n      tag_701\n      jumpi\n      mload(0x40)\n      shl(0xe5, 0x461bcd)\n      dup2\n      mstore\n        /* \"#utility.yul\":24521:24523   */\n      0x20\n        /* \"profxexpo.sol\":13089:13140  require(!isUserExists(userAddress), \"User Exists!\") */\n      0x04\n      dup3\n      add\n        /* \"#utility.yul\":24503:24524   */\n      mstore\n        /* \"#utility.yul\":24560:24562   */\n      0x0c\n        /* \"#utility.yul\":24540:24558   */\n      0x24\n      dup3\n      add\n        /* \"#utility.yul\":24533:24563   */\n      mstore\n      shl(0xa0, 0x557365722045786973747321)\n        /* \"#utility.yul\":24579:24597   */\n      0x44\n      dup3\n      add\n        /* \"#utility.yul\":24572:24614   */\n      mstore\n        /* \"#utility.yul\":24631:24649   */\n      0x64\n      add\n        /* \"profxexpo.sol\":13089:13140  require(!isUserExists(userAddress), \"User Exists!\") */\n      tag_279\n        /* \"#utility.yul\":24319:24655   */\n      jump\n        /* \"profxexpo.sol\":13089:13140  require(!isUserExists(userAddress), \"User Exists!\") */\n    tag_701:\n        /* \"profxexpo.sol\":13158:13187  isUserExists(referrerAddress) */\n      tag_704\n        /* \"profxexpo.sol\":13171:13186  referrerAddress */\n      dup3\n        /* \"profxexpo.sol\":13158:13170  isUserExists */\n      tag_131\n        /* \"profxexpo.sol\":13158:13187  isUserExists(referrerAddress) */\n      jump\t// in\n    tag_704:\n        /* \"profxexpo.sol\":13150:13212  require(isUserExists(referrerAddress), \"Referrer not Exists!\") */\n      tag_705\n      jumpi\n      mload(0x40)\n      shl(0xe5, 0x461bcd)\n      dup2\n      mstore\n        /* \"#utility.yul\":24862:24864   */\n      0x20\n        /* \"profxexpo.sol\":13150:13212  require(isUserExists(referrerAddress), \"Referrer not Exists!\") */\n      0x04\n      dup3\n      add\n        /* \"#utility.yul\":24844:24865   */\n      mstore\n        /* \"#utility.yul\":24901:24903   */\n      0x14\n        /* \"#utility.yul\":24881:24899   */\n      0x24\n      dup3\n      add\n        /* \"#utility.yul\":24874:24904   */\n      mstore\n      shl(0x60, 0x5265666572726572206e6f742045786973747321)\n        /* \"#utility.yul\":24920:24938   */\n      0x44\n      dup3\n      add\n        /* \"#utility.yul\":24913:24963   */\n      mstore\n        /* \"#utility.yul\":24980:24998   */\n      0x64\n      add\n        /* \"profxexpo.sol\":13150:13212  require(isUserExists(referrerAddress), \"Referrer not Exists!\") */\n      tag_279\n        /* \"#utility.yul\":24660:25004   */\n      jump\n        /* \"profxexpo.sol\":13150:13212  require(isUserExists(referrerAddress), \"Referrer not Exists!\") */\n    tag_705:\n        /* \"profxexpo.sol\":13250:13260  lastUserId */\n      0x13\n      dup1\n      sload\n      sub(shl(0xa0, 0x01), 0x01)\n        /* \"profxexpo.sol\":13222:13240  users[userAddress] */\n      dup6\n      dup2\n      and\n      0x00\n      dup2\n      dup2\n      mstore\n        /* \"profxexpo.sol\":13222:13227  users */\n      0x1d\n        /* \"profxexpo.sol\":13222:13240  users[userAddress] */\n      0x20\n      dup2\n      dup2\n      mstore\n      0x40\n      dup1\n      dup5\n      keccak256\n        /* \"profxexpo.sol\":13222:13260  users[userAddress].userId = lastUserId */\n      dup8\n      dup2\n      sstore\n        /* \"profxexpo.sol\":13271:13309  idToAddress[users[userAddress].userId] */\n      swap7\n      dup5\n      mstore\n        /* \"profxexpo.sol\":13271:13282  idToAddress */\n      0x1e\n        /* \"profxexpo.sol\":13271:13309  idToAddress[users[userAddress].userId] */\n      dup3\n      mstore\n      dup4\n      keccak256\n        /* \"profxexpo.sol\":13271:13323  idToAddress[users[userAddress].userId] = userAddress */\n      dup1\n      sload\n      not(sub(shl(0xa0, 0x01), 0x01))\n      swap1\n      dup2\n      and\n      dup7\n      or\n      swap1\n      swap2\n      sstore\n        /* \"profxexpo.sol\":13340:13358  users[userAddress] */\n      swap4\n      dup4\n      mstore\n      mstore\n      0x01\n        /* \"profxexpo.sol\":13340:13367  users[userAddress].referrer */\n      dup5\n      add\n        /* \"profxexpo.sol\":13340:13385  users[userAddress].referrer = referrerAddress */\n      dup1\n      sload\n      swap1\n      swap3\n      and\n      swap3\n      dup8\n      and\n      swap3\n      swap1\n      swap3\n      or\n      swap1\n      sstore\n        /* \"profxexpo.sol\":13395:13427  users[userAddress].partnersCount */\n      0x09\n      swap1\n      swap2\n      add\n        /* \"profxexpo.sol\":13395:13431  users[userAddress].partnersCount = 0 */\n      dup2\n      swap1\n      sstore\n        /* \"profxexpo.sol\":13441:13453  lastUserId++ */\n      dup2\n      sload\n      swap2\n        /* \"profxexpo.sol\":13250:13260  lastUserId */\n      swap1\n        /* \"profxexpo.sol\":13441:13453  lastUserId++ */\n      tag_708\n      dup4\n      tag_336\n      jump\t// in\n    tag_708:\n      swap1\n      swap2\n      sstore\n      pop\n      pop\n      sub(shl(0xa0, 0x01), 0x01)\n        /* \"profxexpo.sol\":13463:13485  users[referrerAddress] */\n      dup3\n      and\n      0x00\n      swap1\n      dup2\n      mstore\n        /* \"profxexpo.sol\":13463:13468  users */\n      0x1d\n        /* \"profxexpo.sol\":13463:13485  users[referrerAddress] */\n      0x20\n      mstore\n      0x40\n      dup2\n      keccak256\n        /* \"profxexpo.sol\":13463:13499  users[referrerAddress].partnersCount */\n      0x09\n      add\n        /* \"profxexpo.sol\":13463:13501  users[referrerAddress].partnersCount++ */\n      dup1\n      sload\n      swap2\n      tag_709\n      dup4\n      tag_336\n      jump\t// in\n    tag_709:\n      swap1\n      swap2\n      sstore\n      pop\n      pop\n      sub(shl(0xa0, 0x01), 0x01)\n        /* \"profxexpo.sol\":13516:13620  Registration(userAddress, referrerAddress, users[userAddress].userId,users[referrerAddress].userId,tyyp) */\n      dup4\n      dup2\n      and\n        /* \"profxexpo.sol\":13559:13577  users[userAddress] */\n      0x00\n      dup2\n      dup2\n      mstore\n        /* \"profxexpo.sol\":13559:13564  users */\n      0x1d\n        /* \"profxexpo.sol\":13559:13577  users[userAddress] */\n      0x20\n      mstore\n      0x40\n      dup1\n      dup3\n      keccak256\n        /* \"profxexpo.sol\":13559:13584  users[userAddress].userId */\n      sload\n        /* \"profxexpo.sol\":13516:13620  Registration(userAddress, referrerAddress, users[userAddress].userId,users[referrerAddress].userId,tyyp) */\n      swap4\n      dup7\n      and\n        /* \"profxexpo.sol\":13585:13607  users[referrerAddress] */\n      dup1\n      dup4\n      mstore\n      swap2\n      dup2\n      swap1\n      keccak256\n        /* \"profxexpo.sol\":13585:13614  users[referrerAddress].userId */\n      sload\n        /* \"profxexpo.sol\":13516:13620  Registration(userAddress, referrerAddress, users[userAddress].userId,users[referrerAddress].userId,tyyp) */\n      swap1\n      mload\n      swap2\n      swap4\n      mload(0x00)\n      codecopy(0x00, data_94466a41869f0ad3d2beb923f23817e68426e7ab720b5288442cefdbe65a2fef, 0x20)\n      mload(0x00)\n      swap1\n      0x00\n      mstore\n      swap3\n      tag_710\n      swap3\n        /* \"profxexpo.sol\":13585:13614  users[referrerAddress].userId */\n      swap1\n        /* \"profxexpo.sol\":13615:13619  tyyp */\n      dup8\n      swap1\n        /* \"profxexpo.sol\":13516:13620  Registration(userAddress, referrerAddress, users[userAddress].userId,users[referrerAddress].userId,tyyp) */\n      tag_711\n      jump\t// in\n    tag_710:\n      mload(0x40)\n      dup1\n      swap2\n      sub\n      swap1\n      log3\n        /* \"profxexpo.sol\":12983:13627  function registration(address userAddress, address referrerAddress, string memory tyyp) private {... */\n      pop\n      pop\n      pop\n      jump\t// out\n        /* \"profxexpo.sol\":9846:9963  function _unpause() internal virtual whenPaused {... */\n    tag_423:\n        /* \"profxexpo.sol\":9371:9387  _requirePaused() */\n      tag_713\n        /* \"profxexpo.sol\":9371:9385  _requirePaused */\n      tag_714\n        /* \"profxexpo.sol\":9371:9387  _requirePaused() */\n      jump\t// in\n    tag_713:\n        /* \"profxexpo.sol\":9914:9919  false */\n      0x00\n        /* \"profxexpo.sol\":9904:9919  _paused = false */\n      dup1\n      sload\n      not(shl(0xa0, 0xff))\n      and\n      swap1\n      sstore\n        /* \"profxexpo.sol\":9934:9956  Unpaused(_msgSender()) */\n      0x5db9ee0a495bf2e6ff9c91a7834c1ba4fdd244a5e8aa4e537bd38aeae4b073aa\n        /* \"profxexpo.sol\":242:252  msg.sender */\n      caller\n        /* \"profxexpo.sol\":9943:9955  _msgSender() */\n    tag_716:\n        /* \"profxexpo.sol\":9934:9956  Unpaused(_msgSender()) */\n      mload(0x40)\n      sub(shl(0xa0, 0x01), 0x01)\n        /* \"#utility.yul\":591:623   */\n      swap1\n      swap2\n      and\n        /* \"#utility.yul\":573:624   */\n      dup2\n      mstore\n        /* \"#utility.yul\":561:563   */\n      0x20\n        /* \"#utility.yul\":546:564   */\n      add\n        /* \"profxexpo.sol\":9934:9956  Unpaused(_msgSender()) */\n      mload(0x40)\n      dup1\n      swap2\n      sub\n      swap1\n      log1\n        /* \"profxexpo.sol\":9846:9963  function _unpause() internal virtual whenPaused {... */\n      jump\t// out\n        /* \"profxexpo.sol\":2027:2157  function _checkOwner() internal view virtual {... */\n    tag_530:\n        /* \"profxexpo.sol\":1982:1989  address */\n      0x00\n        /* \"profxexpo.sol\":2008:2014  _owner */\n      sload\n      sub(shl(0xa0, 0x01), 0x01)\n      and\n        /* \"profxexpo.sol\":242:252  msg.sender */\n      caller\n        /* \"profxexpo.sol\":2090:2113  owner() == _msgSender() */\n      eq\n        /* \"profxexpo.sol\":2082:2150  require(owner() == _msgSender(), \"Ownable: caller is not the owner\") */\n      tag_422\n      jumpi\n      mload(0x40)\n      shl(0xe5, 0x461bcd)\n      dup2\n      mstore\n        /* \"#utility.yul\":25578:25580   */\n      0x20\n        /* \"profxexpo.sol\":2082:2150  require(owner() == _msgSender(), \"Ownable: caller is not the owner\") */\n      0x04\n      dup3\n      add\n        /* \"#utility.yul\":25560:25581   */\n      dup2\n      swap1\n      mstore\n        /* \"#utility.yul\":25597:25615   */\n      0x24\n      dup3\n      add\n        /* \"#utility.yul\":25590:25620   */\n      mstore\n        /* \"#utility.yul\":25656:25690   */\n      0x4f776e61626c653a2063616c6c6572206973206e6f7420746865206f776e6572\n        /* \"#utility.yul\":25636:25654   */\n      0x44\n      dup3\n      add\n        /* \"#utility.yul\":25629:25691   */\n      mstore\n        /* \"#utility.yul\":25708:25726   */\n      0x64\n      add\n        /* \"profxexpo.sol\":2082:2150  require(owner() == _msgSender(), \"Ownable: caller is not the owner\") */\n      tag_279\n        /* \"#utility.yul\":25376:25732   */\n      jump\n        /* \"profxexpo.sol\":2508:2695  function _transferOwnership(address newOwner) internal virtual {... */\n    tag_533:\n        /* \"profxexpo.sol\":2581:2597  address oldOwner */\n      0x00\n        /* \"profxexpo.sol\":2600:2606  _owner */\n      dup1\n      sload\n      sub(shl(0xa0, 0x01), 0x01)\n        /* \"profxexpo.sol\":2616:2633  _owner = newOwner */\n      dup4\n      dup2\n      and\n      not(sub(shl(0xa0, 0x01), 0x01))\n      dup4\n      and\n      dup2\n      or\n      dup5\n      sstore\n        /* \"profxexpo.sol\":2648:2688  OwnershipTransferred(oldOwner, newOwner) */\n      mload(0x40)\n        /* \"profxexpo.sol\":2600:2606  _owner */\n      swap2\n      swap1\n      swap3\n      and\n      swap3\n      dup4\n      swap2\n        /* \"profxexpo.sol\":2648:2688  OwnershipTransferred(oldOwner, newOwner) */\n      0x8be0079c531659141344cd1fd0a4f28419497f9722a3daafe3b4186f6b6457e0\n      swap2\n        /* \"profxexpo.sol\":2581:2597  address oldOwner */\n      swap1\n        /* \"profxexpo.sol\":2648:2688  OwnershipTransferred(oldOwner, newOwner) */\n      log3\n        /* \"profxexpo.sol\":2571:2695  {... */\n      pop\n        /* \"profxexpo.sol\":2508:2695  function _transferOwnership(address newOwner) internal virtual {... */\n      pop\n      jump\t// out\n        /* \"profxexpo.sol\":9725:9840  function _pause() internal virtual whenNotPaused {... */\n    tag_620:\n        /* \"profxexpo.sol\":9296:9315  _requireNotPaused() */\n      tag_726\n        /* \"profxexpo.sol\":9296:9313  _requireNotPaused */\n      tag_727\n        /* \"profxexpo.sol\":9296:9315  _requireNotPaused() */\n      jump\t// in\n    tag_726:\n        /* \"profxexpo.sol\":9784:9791  _paused */\n      0x00\n        /* \"profxexpo.sol\":9784:9798  _paused = true */\n      dup1\n      sload\n      not(shl(0xa0, 0xff))\n      and\n      shl(0xa0, 0x01)\n      or\n      swap1\n      sstore\n        /* \"profxexpo.sol\":9813:9833  Paused(_msgSender()) */\n      0x62e78cea01bee320cd4e420270b5ea74000d11b0c9f74754ebdbfc544b05a258\n        /* \"profxexpo.sol\":9820:9832  _msgSender() */\n      tag_716\n        /* \"profxexpo.sol\":242:252  msg.sender */\n      caller\n      swap1\n        /* \"profxexpo.sol\":163:259  function _msgSender() internal view virtual returns (address) {... */\n      jump\n        /* \"profxexpo.sol\":9613:9719  function _requirePaused() internal view virtual {... */\n    tag_714:\n        /* \"profxexpo.sol\":9458:9462  bool */\n      0x00\n        /* \"profxexpo.sol\":9481:9488  _paused */\n      sload\n      shl(0xa0, 0x01)\n      swap1\n      div\n      0xff\n      and\n        /* \"profxexpo.sol\":9671:9712  require(paused(), \"Pausable: not paused\") */\n      tag_422\n      jumpi\n      mload(0x40)\n      shl(0xe5, 0x461bcd)\n      dup2\n      mstore\n        /* \"#utility.yul\":25939:25941   */\n      0x20\n        /* \"profxexpo.sol\":9671:9712  require(paused(), \"Pausable: not paused\") */\n      0x04\n      dup3\n      add\n        /* \"#utility.yul\":25921:25942   */\n      mstore\n        /* \"#utility.yul\":25978:25980   */\n      0x14\n        /* \"#utility.yul\":25958:25976   */\n      0x24\n      dup3\n      add\n        /* \"#utility.yul\":25951:25981   */\n      mstore\n      shl(0x62, 0x14185d5cd8589b194e881b9bdd081c185d5cd959)\n        /* \"#utility.yul\":25997:26015   */\n      0x44\n      dup3\n      add\n        /* \"#utility.yul\":25990:26040   */\n      mstore\n        /* \"#utility.yul\":26057:26075   */\n      0x64\n      add\n        /* \"profxexpo.sol\":9671:9712  require(paused(), \"Pausable: not paused\") */\n      tag_279\n        /* \"#utility.yul\":25737:26081   */\n      jump\n        /* \"profxexpo.sol\":9501:9607  function _requireNotPaused() internal view virtual {... */\n    tag_727:\n        /* \"profxexpo.sol\":9458:9462  bool */\n      0x00\n        /* \"profxexpo.sol\":9481:9488  _paused */\n      sload\n      shl(0xa0, 0x01)\n      swap1\n      div\n      0xff\n      and\n        /* \"profxexpo.sol\":9570:9579  !paused() */\n      iszero\n        /* \"profxexpo.sol\":9562:9600  require(!paused(), \"Pausable: paused\") */\n      tag_422\n      jumpi\n      mload(0x40)\n      shl(0xe5, 0x461bcd)\n      dup2\n      mstore\n        /* \"#utility.yul\":26288:26290   */\n      0x20\n        /* \"profxexpo.sol\":9562:9600  require(!paused(), \"Pausable: paused\") */\n      0x04\n      dup3\n      add\n        /* \"#utility.yul\":26270:26291   */\n      mstore\n        /* \"#utility.yul\":26327:26329   */\n      0x10\n        /* \"#utility.yul\":26307:26325   */\n      0x24\n      dup3\n      add\n        /* \"#utility.yul\":26300:26330   */\n      mstore\n      shl(0x82, 0x14185d5cd8589b194e881c185d5cd959)\n        /* \"#utility.yul\":26346:26364   */\n      0x44\n      dup3\n      add\n        /* \"#utility.yul\":26339:26385   */\n      mstore\n        /* \"#utility.yul\":26402:26420   */\n      0x64\n      add\n        /* \"profxexpo.sol\":9562:9600  require(!paused(), \"Pausable: paused\") */\n      tag_279\n        /* \"#utility.yul\":26086:26426   */\n      jump\n    tag_693:\n      dup3\n      dup1\n      sload\n      dup3\n      dup3\n      sstore\n      swap1\n      0x00\n      mstore\n      keccak256(0x00, 0x20)\n      swap1\n      dup2\n      add\n      swap3\n      dup3\n      iszero\n      tag_745\n      jumpi\n      swap2\n      0x20\n      mul\n      dup3\n      add\n    tag_744:\n      dup3\n      dup2\n      gt\n      iszero\n      tag_745\n      jumpi\n      dup3\n      mload\n      dup3\n      swap1\n      0xff\n      and\n      swap1\n      sstore\n      swap2\n      0x20\n      add\n      swap2\n      swap1\n      0x01\n      add\n      swap1\n      jump(tag_744)\n    tag_745:\n      pop\n      tag_746\n      swap3\n      swap2\n      pop\n      tag_747\n      jump\t// in\n    tag_746:\n      pop\n      swap1\n      jump\t// out\n    tag_747:\n    tag_748:\n      dup1\n      dup3\n      gt\n      iszero\n      tag_746\n      jumpi\n      0x00\n      dup2\n      sstore\n      0x01\n      add\n      jump(tag_748)\n        /* \"#utility.yul\":14:240   */\n    tag_62:\n        /* \"#utility.yul\":73:79   */\n      0x00\n        /* \"#utility.yul\":126:128   */\n      0x20\n        /* \"#utility.yul\":114:123   */\n      dup3\n        /* \"#utility.yul\":105:112   */\n      dup5\n        /* \"#utility.yul\":101:124   */\n      sub\n        /* \"#utility.yul\":97:129   */\n      slt\n        /* \"#utility.yul\":94:146   */\n      iszero\n      tag_763\n      jumpi\n        /* \"#utility.yul\":142:143   */\n      0x00\n        /* \"#utility.yul\":139:140   */\n      0x00\n        /* \"#utility.yul\":132:144   */\n      revert\n        /* \"#utility.yul\":94:146   */\n    tag_763:\n      pop\n        /* \"#utility.yul\":187:210   */\n      calldataload\n      swap2\n        /* \"#utility.yul\":14:240   */\n      swap1\n      pop\n      jump\t// out\n        /* \"#utility.yul\":635:766   */\n    tag_750:\n      sub(shl(0xa0, 0x01), 0x01)\n        /* \"#utility.yul\":710:741   */\n      dup2\n      and\n        /* \"#utility.yul\":700:742   */\n      dup2\n      eq\n        /* \"#utility.yul\":690:760   */\n      tag_673\n      jumpi\n        /* \"#utility.yul\":756:757   */\n      0x00\n        /* \"#utility.yul\":753:754   */\n      0x00\n        /* \"#utility.yul\":746:758   */\n      revert\n        /* \"#utility.yul\":771:1159   */\n    tag_78:\n        /* \"#utility.yul\":839:845   */\n      0x00\n        /* \"#utility.yul\":847:853   */\n      0x00\n        /* \"#utility.yul\":900:902   */\n      0x40\n        /* \"#utility.yul\":888:897   */\n      dup4\n        /* \"#utility.yul\":879:886   */\n      dup6\n        /* \"#utility.yul\":875:898   */\n      sub\n        /* \"#utility.yul\":871:903   */\n      slt\n        /* \"#utility.yul\":868:920   */\n      iszero\n      tag_769\n      jumpi\n        /* \"#utility.yul\":916:917   */\n      0x00\n        /* \"#utility.yul\":913:914   */\n      0x00\n        /* \"#utility.yul\":906:918   */\n      revert\n        /* \"#utility.yul\":868:920   */\n    tag_769:\n        /* \"#utility.yul\":955:964   */\n      dup3\n        /* \"#utility.yul\":942:965   */\n      calldataload\n        /* \"#utility.yul\":974:1005   */\n      tag_770\n        /* \"#utility.yul\":999:1004   */\n      dup2\n        /* \"#utility.yul\":974:1005   */\n      tag_750\n      jump\t// in\n    tag_770:\n        /* \"#utility.yul\":1024:1029   */\n      swap2\n      pop\n        /* \"#utility.yul\":1081:1083   */\n      0x20\n        /* \"#utility.yul\":1066:1084   */\n      dup4\n      add\n        /* \"#utility.yul\":1053:1085   */\n      calldataload\n        /* \"#utility.yul\":1094:1127   */\n      tag_771\n        /* \"#utility.yul\":1053:1085   */\n      dup2\n        /* \"#utility.yul\":1094:1127   */\n      tag_750\n      jump\t// in\n    tag_771:\n        /* \"#utility.yul\":1146:1153   */\n      dup1\n        /* \"#utility.yul\":1136:1153   */\n      swap2\n      pop\n      pop\n        /* \"#utility.yul\":771:1159   */\n      swap3\n      pop\n      swap3\n      swap1\n      pop\n      jump\t// out\n        /* \"#utility.yul\":1164:1651   */\n    tag_117:\n        /* \"#utility.yul\":1241:1247   */\n      0x00\n        /* \"#utility.yul\":1249:1255   */\n      0x00\n        /* \"#utility.yul\":1257:1263   */\n      0x00\n        /* \"#utility.yul\":1310:1312   */\n      0x60\n        /* \"#utility.yul\":1298:1307   */\n      dup5\n        /* \"#utility.yul\":1289:1296   */\n      dup7\n        /* \"#utility.yul\":1285:1308   */\n      sub\n        /* \"#utility.yul\":1281:1313   */\n      slt\n        /* \"#utility.yul\":1278:1330   */\n      iszero\n      tag_773\n      jumpi\n        /* \"#utility.yul\":1326:1327   */\n      0x00\n        /* \"#utility.yul\":1323:1324   */\n      0x00\n        /* \"#utility.yul\":1316:1328   */\n      revert\n        /* \"#utility.yul\":1278:1330   */\n    tag_773:\n        /* \"#utility.yul\":1371:1394   */\n      dup4\n      calldataload\n      swap3\n      pop\n        /* \"#utility.yul\":1491:1493   */\n      0x20\n        /* \"#utility.yul\":1476:1494   */\n      dup5\n      add\n        /* \"#utility.yul\":1463:1495   */\n      calldataload\n      swap2\n      pop\n        /* \"#utility.yul\":1573:1575   */\n      0x40\n        /* \"#utility.yul\":1558:1576   */\n      dup5\n      add\n        /* \"#utility.yul\":1545:1577   */\n      calldataload\n        /* \"#utility.yul\":1586:1619   */\n      tag_774\n        /* \"#utility.yul\":1545:1577   */\n      dup2\n        /* \"#utility.yul\":1586:1619   */\n      tag_750\n      jump\t// in\n    tag_774:\n        /* \"#utility.yul\":1638:1645   */\n      dup1\n        /* \"#utility.yul\":1628:1645   */\n      swap2\n      pop\n      pop\n        /* \"#utility.yul\":1164:1651   */\n      swap3\n      pop\n      swap3\n      pop\n      swap3\n      jump\t// out\n        /* \"#utility.yul\":1656:1903   */\n    tag_130:\n        /* \"#utility.yul\":1715:1721   */\n      0x00\n        /* \"#utility.yul\":1768:1770   */\n      0x20\n        /* \"#utility.yul\":1756:1765   */\n      dup3\n        /* \"#utility.yul\":1747:1754   */\n      dup5\n        /* \"#utility.yul\":1743:1766   */\n      sub\n        /* \"#utility.yul\":1739:1771   */\n      slt\n        /* \"#utility.yul\":1736:1788   */\n      iszero\n      tag_776\n      jumpi\n        /* \"#utility.yul\":1784:1785   */\n      0x00\n        /* \"#utility.yul\":1781:1782   */\n      0x00\n        /* \"#utility.yul\":1774:1786   */\n      revert\n        /* \"#utility.yul\":1736:1788   */\n    tag_776:\n        /* \"#utility.yul\":1823:1832   */\n      dup2\n        /* \"#utility.yul\":1810:1833   */\n      calldataload\n        /* \"#utility.yul\":1842:1873   */\n      tag_777\n        /* \"#utility.yul\":1867:1872   */\n      dup2\n        /* \"#utility.yul\":1842:1873   */\n      tag_750\n      jump\t// in\n    tag_777:\n        /* \"#utility.yul\":1892:1897   */\n      swap4\n        /* \"#utility.yul\":1656:1903   */\n      swap3\n      pop\n      pop\n      pop\n      jump\t// out\n        /* \"#utility.yul\":2334:2461   */\n    tag_313:\n        /* \"#utility.yul\":2395:2405   */\n      0x4e487b71\n        /* \"#utility.yul\":2390:2393   */\n      0xe0\n        /* \"#utility.yul\":2386:2406   */\n      shl\n        /* \"#utility.yul\":2383:2384   */\n      0x00\n        /* \"#utility.yul\":2376:2407   */\n      mstore\n        /* \"#utility.yul\":2426:2430   */\n      0x41\n        /* \"#utility.yul\":2423:2424   */\n      0x04\n        /* \"#utility.yul\":2416:2431   */\n      mstore\n        /* \"#utility.yul\":2450:2454   */\n      0x24\n        /* \"#utility.yul\":2447:2448   */\n      0x00\n        /* \"#utility.yul\":2440:2455   */\n      revert\n        /* \"#utility.yul\":2466:2741   */\n    tag_751:\n        /* \"#utility.yul\":2537:2539   */\n      0x40\n        /* \"#utility.yul\":2531:2540   */\n      mload\n        /* \"#utility.yul\":2602:2604   */\n      0x1f\n        /* \"#utility.yul\":2583:2596   */\n      dup3\n      add\n      not(0x1f)\n        /* \"#utility.yul\":2579:2606   */\n      and\n        /* \"#utility.yul\":2567:2607   */\n      dup2\n      add\n        /* \"#utility.yul\":2637:2655   */\n      0xffffffffffffffff\n        /* \"#utility.yul\":2622:2656   */\n      dup2\n      gt\n        /* \"#utility.yul\":2658:2680   */\n      dup3\n      dup3\n      lt\n        /* \"#utility.yul\":2619:2681   */\n      or\n        /* \"#utility.yul\":2616:2704   */\n      iszero\n      tag_783\n      jumpi\n        /* \"#utility.yul\":2684:2702   */\n      tag_783\n      tag_313\n      jump\t// in\n    tag_783:\n        /* \"#utility.yul\":2720:2722   */\n      0x40\n        /* \"#utility.yul\":2713:2735   */\n      mstore\n        /* \"#utility.yul\":2466:2741   */\n      swap2\n      swap1\n      pop\n      jump\t// out\n        /* \"#utility.yul\":2746:2929   */\n    tag_752:\n        /* \"#utility.yul\":2806:2810   */\n      0x00\n        /* \"#utility.yul\":2839:2857   */\n      0xffffffffffffffff\n        /* \"#utility.yul\":2831:2837   */\n      dup3\n        /* \"#utility.yul\":2828:2858   */\n      gt\n        /* \"#utility.yul\":2825:2881   */\n      iszero\n      tag_786\n      jumpi\n        /* \"#utility.yul\":2861:2879   */\n      tag_786\n      tag_313\n      jump\t// in\n    tag_786:\n      pop\n        /* \"#utility.yul\":2906:2907   */\n      0x05\n        /* \"#utility.yul\":2902:2916   */\n      shl\n        /* \"#utility.yul\":2918:2922   */\n      0x20\n        /* \"#utility.yul\":2898:2923   */\n      add\n      swap1\n        /* \"#utility.yul\":2746:2929   */\n      jump\t// out\n        /* \"#utility.yul\":2934:3895   */\n    tag_178:\n        /* \"#utility.yul\":3018:3024   */\n      0x00\n        /* \"#utility.yul\":3071:3073   */\n      0x20\n        /* \"#utility.yul\":3059:3068   */\n      dup3\n        /* \"#utility.yul\":3050:3057   */\n      dup5\n        /* \"#utility.yul\":3046:3069   */\n      sub\n        /* \"#utility.yul\":3042:3074   */\n      slt\n        /* \"#utility.yul\":3039:3091   */\n      iszero\n      tag_788\n      jumpi\n        /* \"#utility.yul\":3087:3088   */\n      0x00\n        /* \"#utility.yul\":3084:3085   */\n      0x00\n        /* \"#utility.yul\":3077:3089   */\n      revert\n        /* \"#utility.yul\":3039:3091   */\n    tag_788:\n        /* \"#utility.yul\":3127:3136   */\n      dup2\n        /* \"#utility.yul\":3114:3137   */\n      calldataload\n        /* \"#utility.yul\":3160:3178   */\n      0xffffffffffffffff\n        /* \"#utility.yul\":3152:3158   */\n      dup2\n        /* \"#utility.yul\":3149:3179   */\n      gt\n        /* \"#utility.yul\":3146:3196   */\n      iszero\n      tag_789\n      jumpi\n        /* \"#utility.yul\":3192:3193   */\n      0x00\n        /* \"#utility.yul\":3189:3190   */\n      0x00\n        /* \"#utility.yul\":3182:3194   */\n      revert\n        /* \"#utility.yul\":3146:3196   */\n    tag_789:\n        /* \"#utility.yul\":3215:3237   */\n      dup3\n      add\n        /* \"#utility.yul\":3268:3272   */\n      0x1f\n        /* \"#utility.yul\":3260:3273   */\n      dup2\n      add\n        /* \"#utility.yul\":3256:3283   */\n      dup5\n      sgt\n        /* \"#utility.yul\":3246:3301   */\n      tag_790\n      jumpi\n        /* \"#utility.yul\":3297:3298   */\n      0x00\n        /* \"#utility.yul\":3294:3295   */\n      0x00\n        /* \"#utility.yul\":3287:3299   */\n      revert\n        /* \"#utility.yul\":3246:3301   */\n    tag_790:\n        /* \"#utility.yul\":3337:3339   */\n      dup1\n        /* \"#utility.yul\":3324:3340   */\n      calldataload\n        /* \"#utility.yul\":3360:3424   */\n      tag_791\n        /* \"#utility.yul\":3376:3423   */\n      tag_792\n        /* \"#utility.yul\":3416:3422   */\n      dup3\n        /* \"#utility.yul\":3376:3423   */\n      tag_752\n      jump\t// in\n    tag_792:\n        /* \"#utility.yul\":3360:3424   */\n      tag_751\n      jump\t// in\n    tag_791:\n        /* \"#utility.yul\":3446:3449   */\n      dup1\n        /* \"#utility.yul\":3470:3476   */\n      dup3\n        /* \"#utility.yul\":3465:3468   */\n      dup3\n        /* \"#utility.yul\":3458:3477   */\n      mstore\n        /* \"#utility.yul\":3502:3504   */\n      0x20\n        /* \"#utility.yul\":3497:3500   */\n      dup3\n        /* \"#utility.yul\":3493:3505   */\n      add\n        /* \"#utility.yul\":3486:3505   */\n      swap2\n      pop\n        /* \"#utility.yul\":3557:3559   */\n      0x20\n        /* \"#utility.yul\":3547:3553   */\n      dup4\n        /* \"#utility.yul\":3544:3545   */\n      0x05\n        /* \"#utility.yul\":3540:3554   */\n      shl\n        /* \"#utility.yul\":3536:3538   */\n      dup6\n        /* \"#utility.yul\":3532:3555   */\n      add\n        /* \"#utility.yul\":3528:3560   */\n      add\n        /* \"#utility.yul\":3514:3560   */\n      swap3\n      pop\n        /* \"#utility.yul\":3583:3590   */\n      dup7\n        /* \"#utility.yul\":3575:3581   */\n      dup4\n        /* \"#utility.yul\":3572:3591   */\n      gt\n        /* \"#utility.yul\":3569:3608   */\n      iszero\n      tag_793\n      jumpi\n        /* \"#utility.yul\":3604:3605   */\n      0x00\n        /* \"#utility.yul\":3601:3602   */\n      0x00\n        /* \"#utility.yul\":3594:3606   */\n      revert\n        /* \"#utility.yul\":3569:3608   */\n    tag_793:\n        /* \"#utility.yul\":3636:3638   */\n      0x20\n        /* \"#utility.yul\":3632:3634   */\n      dup5\n        /* \"#utility.yul\":3628:3639   */\n      add\n        /* \"#utility.yul\":3617:3639   */\n      swap4\n      pop\n        /* \"#utility.yul\":3648:3865   */\n    tag_794:\n        /* \"#utility.yul\":3664:3670   */\n      dup3\n        /* \"#utility.yul\":3659:3662   */\n      dup5\n        /* \"#utility.yul\":3656:3671   */\n      lt\n        /* \"#utility.yul\":3648:3865   */\n      iszero\n      tag_796\n      jumpi\n        /* \"#utility.yul\":3744:3747   */\n      dup4\n        /* \"#utility.yul\":3731:3748   */\n      calldataload\n        /* \"#utility.yul\":3761:3792   */\n      tag_797\n        /* \"#utility.yul\":3786:3791   */\n      dup2\n        /* \"#utility.yul\":3761:3792   */\n      tag_750\n      jump\t// in\n    tag_797:\n        /* \"#utility.yul\":3805:3823   */\n      dup3\n      mstore\n        /* \"#utility.yul\":3852:3854   */\n      0x20\n        /* \"#utility.yul\":3681:3693   */\n      swap4\n      dup5\n      add\n      swap4\n        /* \"#utility.yul\":3843:3855   */\n      swap1\n      swap2\n      add\n      swap1\n        /* \"#utility.yul\":3648:3865   */\n      jump(tag_794)\n    tag_796:\n        /* \"#utility.yul\":3884:3889   */\n      swap7\n        /* \"#utility.yul\":2934:3895   */\n      swap6\n      pop\n      pop\n      pop\n      pop\n      pop\n      pop\n      jump\t// out\n        /* \"#utility.yul\":3900:4042   */\n    tag_753:\n        /* \"#utility.yul\":3976:3996   */\n      dup1\n      calldataload\n        /* \"#utility.yul\":4005:4036   */\n      tag_799\n        /* \"#utility.yul\":3976:3996   */\n      dup2\n        /* \"#utility.yul\":4005:4036   */\n      tag_750\n      jump\t// in\n    tag_799:\n        /* \"#utility.yul\":3900:4042   */\n      swap2\n      swap1\n      pop\n      jump\t// out\n        /* \"#utility.yul\":4047:4428   */\n    tag_184:\n        /* \"#utility.yul\":4129:4135   */\n      0x00\n        /* \"#utility.yul\":4137:4143   */\n      0x00\n        /* \"#utility.yul\":4190:4192   */\n      0x40\n        /* \"#utility.yul\":4178:4187   */\n      dup4\n        /* \"#utility.yul\":4169:4176   */\n      dup6\n        /* \"#utility.yul\":4165:4188   */\n      sub\n        /* \"#utility.yul\":4161:4193   */\n      slt\n        /* \"#utility.yul\":4158:4210   */\n      iszero\n      tag_801\n      jumpi\n        /* \"#utility.yul\":4206:4207   */\n      0x00\n        /* \"#utility.yul\":4203:4204   */\n      0x00\n        /* \"#utility.yul\":4196:4208   */\n      revert\n        /* \"#utility.yul\":4158:4210   */\n    tag_801:\n        /* \"#utility.yul\":4251:4274   */\n      dup3\n      calldataload\n      swap2\n      pop\n        /* \"#utility.yul\":4350:4352   */\n      0x20\n        /* \"#utility.yul\":4335:4353   */\n      dup4\n      add\n        /* \"#utility.yul\":4322:4354   */\n      calldataload\n        /* \"#utility.yul\":4363:4396   */\n      tag_771\n        /* \"#utility.yul\":4322:4354   */\n      dup2\n        /* \"#utility.yul\":4363:4396   */\n      tag_750\n      jump\t// in\n        /* \"#utility.yul\":4433:5156   */\n    tag_754:\n        /* \"#utility.yul\":4487:4492   */\n      0x00\n        /* \"#utility.yul\":4540:4543   */\n      dup3\n        /* \"#utility.yul\":4533:4537   */\n      0x1f\n        /* \"#utility.yul\":4525:4531   */\n      dup4\n        /* \"#utility.yul\":4521:4538   */\n      add\n        /* \"#utility.yul\":4517:4544   */\n      slt\n        /* \"#utility.yul\":4507:4562   */\n      tag_804\n      jumpi\n        /* \"#utility.yul\":4558:4559   */\n      0x00\n        /* \"#utility.yul\":4555:4556   */\n      0x00\n        /* \"#utility.yul\":4548:4560   */\n      revert\n        /* \"#utility.yul\":4507:4562   */\n    tag_804:\n        /* \"#utility.yul\":4598:4604   */\n      dup2\n        /* \"#utility.yul\":4585:4605   */\n      calldataload\n        /* \"#utility.yul\":4625:4689   */\n      tag_805\n        /* \"#utility.yul\":4641:4688   */\n      tag_792\n        /* \"#utility.yul\":4681:4687   */\n      dup3\n        /* \"#utility.yul\":4641:4688   */\n      tag_752\n      jump\t// in\n        /* \"#utility.yul\":4625:4689   */\n    tag_805:\n        /* \"#utility.yul\":4713:4716   */\n      dup1\n        /* \"#utility.yul\":4737:4743   */\n      dup3\n        /* \"#utility.yul\":4732:4735   */\n      dup3\n        /* \"#utility.yul\":4725:4744   */\n      mstore\n        /* \"#utility.yul\":4769:4773   */\n      0x20\n        /* \"#utility.yul\":4764:4767   */\n      dup3\n        /* \"#utility.yul\":4760:4774   */\n      add\n        /* \"#utility.yul\":4753:4774   */\n      swap2\n      pop\n        /* \"#utility.yul\":4830:4834   */\n      0x20\n        /* \"#utility.yul\":4820:4826   */\n      dup4\n        /* \"#utility.yul\":4817:4818   */\n      0x05\n        /* \"#utility.yul\":4813:4827   */\n      shl\n        /* \"#utility.yul\":4805:4811   */\n      dup7\n        /* \"#utility.yul\":4801:4828   */\n      add\n        /* \"#utility.yul\":4797:4835   */\n      add\n        /* \"#utility.yul\":4783:4835   */\n      swap3\n      pop\n        /* \"#utility.yul\":4858:4861   */\n      dup6\n        /* \"#utility.yul\":4850:4856   */\n      dup4\n        /* \"#utility.yul\":4847:4862   */\n      gt\n        /* \"#utility.yul\":4844:4879   */\n      iszero\n      tag_807\n      jumpi\n        /* \"#utility.yul\":4875:4876   */\n      0x00\n        /* \"#utility.yul\":4872:4873   */\n      0x00\n        /* \"#utility.yul\":4865:4877   */\n      revert\n        /* \"#utility.yul\":4844:4879   */\n    tag_807:\n        /* \"#utility.yul\":4911:4915   */\n      0x20\n        /* \"#utility.yul\":4903:4909   */\n      dup6\n        /* \"#utility.yul\":4899:4916   */\n      add\n        /* \"#utility.yul\":4925:5125   */\n    tag_808:\n        /* \"#utility.yul\":4941:4947   */\n      dup4\n        /* \"#utility.yul\":4936:4939   */\n      dup2\n        /* \"#utility.yul\":4933:4948   */\n      lt\n        /* \"#utility.yul\":4925:5125   */\n      iszero\n      tag_810\n      jumpi\n        /* \"#utility.yul\":5033:5050   */\n      dup1\n      calldataload\n        /* \"#utility.yul\":5063:5081   */\n      dup4\n      mstore\n        /* \"#utility.yul\":5110:5114   */\n      0x20\n        /* \"#utility.yul\":5101:5115   */\n      swap3\n      dup4\n      add\n      swap3\n        /* \"#utility.yul\":4958:4972   */\n      add\n        /* \"#utility.yul\":4925:5125   */\n      jump(tag_808)\n    tag_810:\n      pop\n        /* \"#utility.yul\":5143:5150   */\n      swap6\n        /* \"#utility.yul\":4433:5156   */\n      swap5\n      pop\n      pop\n      pop\n      pop\n      pop\n      jump\t// out\n        /* \"#utility.yul\":5161:6601   */\n    tag_197:\n        /* \"#utility.yul\":5319:5325   */\n      0x00\n        /* \"#utility.yul\":5327:5333   */\n      0x00\n        /* \"#utility.yul\":5335:5341   */\n      0x00\n        /* \"#utility.yul\":5343:5349   */\n      0x00\n        /* \"#utility.yul\":5396:5399   */\n      0x80\n        /* \"#utility.yul\":5384:5393   */\n      dup6\n        /* \"#utility.yul\":5375:5382   */\n      dup8\n        /* \"#utility.yul\":5371:5394   */\n      sub\n        /* \"#utility.yul\":5367:5400   */\n      slt\n        /* \"#utility.yul\":5364:5417   */\n      iszero\n      tag_812\n      jumpi\n        /* \"#utility.yul\":5413:5414   */\n      0x00\n        /* \"#utility.yul\":5410:5411   */\n      0x00\n        /* \"#utility.yul\":5403:5415   */\n      revert\n        /* \"#utility.yul\":5364:5417   */\n    tag_812:\n        /* \"#utility.yul\":5453:5462   */\n      dup5\n        /* \"#utility.yul\":5440:5463   */\n      calldataload\n        /* \"#utility.yul\":5486:5504   */\n      0xffffffffffffffff\n        /* \"#utility.yul\":5478:5484   */\n      dup2\n        /* \"#utility.yul\":5475:5505   */\n      gt\n        /* \"#utility.yul\":5472:5522   */\n      iszero\n      tag_813\n      jumpi\n        /* \"#utility.yul\":5518:5519   */\n      0x00\n        /* \"#utility.yul\":5515:5516   */\n      0x00\n        /* \"#utility.yul\":5508:5520   */\n      revert\n        /* \"#utility.yul\":5472:5522   */\n    tag_813:\n        /* \"#utility.yul\":5541:5563   */\n      dup6\n      add\n        /* \"#utility.yul\":5594:5598   */\n      0x1f\n        /* \"#utility.yul\":5586:5599   */\n      dup2\n      add\n        /* \"#utility.yul\":5582:5609   */\n      dup8\n      sgt\n        /* \"#utility.yul\":5572:5627   */\n      tag_814\n      jumpi\n        /* \"#utility.yul\":5623:5624   */\n      0x00\n        /* \"#utility.yul\":5620:5621   */\n      0x00\n        /* \"#utility.yul\":5613:5625   */\n      revert\n        /* \"#utility.yul\":5572:5627   */\n    tag_814:\n        /* \"#utility.yul\":5663:5665   */\n      dup1\n        /* \"#utility.yul\":5650:5666   */\n      calldataload\n        /* \"#utility.yul\":5686:5750   */\n      tag_815\n        /* \"#utility.yul\":5702:5749   */\n      tag_792\n        /* \"#utility.yul\":5742:5748   */\n      dup3\n        /* \"#utility.yul\":5702:5749   */\n      tag_752\n      jump\t// in\n        /* \"#utility.yul\":5686:5750   */\n    tag_815:\n        /* \"#utility.yul\":5772:5775   */\n      dup1\n        /* \"#utility.yul\":5796:5802   */\n      dup3\n        /* \"#utility.yul\":5791:5794   */\n      dup3\n        /* \"#utility.yul\":5784:5803   */\n      mstore\n        /* \"#utility.yul\":5828:5832   */\n      0x20\n        /* \"#utility.yul\":5823:5826   */\n      dup3\n        /* \"#utility.yul\":5819:5833   */\n      add\n        /* \"#utility.yul\":5812:5833   */\n      swap2\n      pop\n        /* \"#utility.yul\":5885:5889   */\n      0x20\n        /* \"#utility.yul\":5875:5881   */\n      dup4\n        /* \"#utility.yul\":5872:5873   */\n      0x05\n        /* \"#utility.yul\":5868:5882   */\n      shl\n        /* \"#utility.yul\":5864:5866   */\n      dup6\n        /* \"#utility.yul\":5860:5883   */\n      add\n        /* \"#utility.yul\":5856:5890   */\n      add\n        /* \"#utility.yul\":5842:5890   */\n      swap3\n      pop\n        /* \"#utility.yul\":5913:5920   */\n      dup10\n        /* \"#utility.yul\":5905:5911   */\n      dup4\n        /* \"#utility.yul\":5902:5921   */\n      gt\n        /* \"#utility.yul\":5899:5938   */\n      iszero\n      tag_817\n      jumpi\n        /* \"#utility.yul\":5934:5935   */\n      0x00\n        /* \"#utility.yul\":5931:5932   */\n      0x00\n        /* \"#utility.yul\":5924:5936   */\n      revert\n        /* \"#utility.yul\":5899:5938   */\n    tag_817:\n        /* \"#utility.yul\":5966:5970   */\n      0x20\n        /* \"#utility.yul\":5962:5964   */\n      dup5\n        /* \"#utility.yul\":5958:5971   */\n      add\n        /* \"#utility.yul\":5947:5971   */\n      swap4\n      pop\n        /* \"#utility.yul\":5980:6201   */\n    tag_818:\n        /* \"#utility.yul\":5996:6002   */\n      dup3\n        /* \"#utility.yul\":5991:5994   */\n      dup5\n        /* \"#utility.yul\":5988:6003   */\n      lt\n        /* \"#utility.yul\":5980:6201   */\n      iszero\n      tag_820\n      jumpi\n        /* \"#utility.yul\":6078:6081   */\n      dup4\n        /* \"#utility.yul\":6065:6082   */\n      calldataload\n        /* \"#utility.yul\":6095:6126   */\n      tag_821\n        /* \"#utility.yul\":6120:6125   */\n      dup2\n        /* \"#utility.yul\":6095:6126   */\n      tag_750\n      jump\t// in\n    tag_821:\n        /* \"#utility.yul\":6139:6157   */\n      dup3\n      mstore\n        /* \"#utility.yul\":6186:6190   */\n      0x20\n        /* \"#utility.yul\":6013:6027   */\n      swap4\n      dup5\n      add\n      swap4\n        /* \"#utility.yul\":6177:6191   */\n      swap1\n      swap2\n      add\n      swap1\n        /* \"#utility.yul\":5980:6201   */\n      jump(tag_818)\n    tag_820:\n        /* \"#utility.yul\":6220:6225   */\n      swap7\n      pop\n      pop\n      pop\n      pop\n        /* \"#utility.yul\":6278:6282   */\n      0x20\n        /* \"#utility.yul\":6263:6283   */\n      dup6\n      add\n        /* \"#utility.yul\":6250:6284   */\n      calldataload\n        /* \"#utility.yul\":6309:6327   */\n      0xffffffffffffffff\n        /* \"#utility.yul\":6296:6328   */\n      dup2\n      gt\n        /* \"#utility.yul\":6293:6345   */\n      iszero\n      tag_822\n      jumpi\n        /* \"#utility.yul\":6341:6342   */\n      0x00\n        /* \"#utility.yul\":6338:6339   */\n      0x00\n        /* \"#utility.yul\":6331:6343   */\n      revert\n        /* \"#utility.yul\":6293:6345   */\n    tag_822:\n        /* \"#utility.yul\":6364:6427   */\n      tag_823\n        /* \"#utility.yul\":6419:6426   */\n      dup8\n        /* \"#utility.yul\":6408:6416   */\n      dup3\n        /* \"#utility.yul\":6397:6406   */\n      dup9\n        /* \"#utility.yul\":6393:6417   */\n      add\n        /* \"#utility.yul\":6364:6427   */\n      tag_754\n      jump\t// in\n    tag_823:\n        /* \"#utility.yul\":6354:6427   */\n      swap4\n      pop\n      pop\n        /* \"#utility.yul\":6500:6502   */\n      0x40\n        /* \"#utility.yul\":6485:6503   */\n      dup6\n      add\n        /* \"#utility.yul\":6472:6504   */\n      calldataload\n      swap2\n      pop\n        /* \"#utility.yul\":6549:6595   */\n      tag_824\n        /* \"#utility.yul\":6591:6593   */\n      0x60\n        /* \"#utility.yul\":6576:6594   */\n      dup7\n      add\n        /* \"#utility.yul\":6549:6595   */\n      tag_753\n      jump\t// in\n    tag_824:\n        /* \"#utility.yul\":6539:6595   */\n      swap1\n      pop\n        /* \"#utility.yul\":5161:6601   */\n      swap3\n      swap6\n      swap2\n      swap5\n      pop\n      swap3\n      pop\n      jump\t// out\n        /* \"#utility.yul\":7618:8289   */\n    tag_268:\n        /* \"#utility.yul\":7704:7710   */\n      0x00\n        /* \"#utility.yul\":7712:7718   */\n      0x00\n        /* \"#utility.yul\":7720:7726   */\n      0x00\n        /* \"#utility.yul\":7728:7734   */\n      0x00\n        /* \"#utility.yul\":7781:7784   */\n      0x80\n        /* \"#utility.yul\":7769:7778   */\n      dup6\n        /* \"#utility.yul\":7760:7767   */\n      dup8\n        /* \"#utility.yul\":7756:7779   */\n      sub\n        /* \"#utility.yul\":7752:7785   */\n      slt\n        /* \"#utility.yul\":7749:7802   */\n      iszero\n      tag_827\n      jumpi\n        /* \"#utility.yul\":7798:7799   */\n      0x00\n        /* \"#utility.yul\":7795:7796   */\n      0x00\n        /* \"#utility.yul\":7788:7800   */\n      revert\n        /* \"#utility.yul\":7749:7802   */\n    tag_827:\n        /* \"#utility.yul\":7837:7846   */\n      dup5\n        /* \"#utility.yul\":7824:7847   */\n      calldataload\n        /* \"#utility.yul\":7856:7887   */\n      tag_828\n        /* \"#utility.yul\":7881:7886   */\n      dup2\n        /* \"#utility.yul\":7856:7887   */\n      tag_750\n      jump\t// in\n    tag_828:\n        /* \"#utility.yul\":7906:7911   */\n      swap4\n      pop\n        /* \"#utility.yul\":7963:7965   */\n      0x20\n        /* \"#utility.yul\":7948:7966   */\n      dup6\n      add\n        /* \"#utility.yul\":7935:7967   */\n      calldataload\n        /* \"#utility.yul\":7976:8009   */\n      tag_829\n        /* \"#utility.yul\":7935:7967   */\n      dup2\n        /* \"#utility.yul\":7976:8009   */\n      tag_750\n      jump\t// in\n    tag_829:\n        /* \"#utility.yul\":8028:8035   */\n      swap3\n      pop\n        /* \"#utility.yul\":8087:8089   */\n      0x40\n        /* \"#utility.yul\":8072:8090   */\n      dup6\n      add\n        /* \"#utility.yul\":8059:8091   */\n      calldataload\n        /* \"#utility.yul\":8100:8133   */\n      tag_830\n        /* \"#utility.yul\":8059:8091   */\n      dup2\n        /* \"#utility.yul\":8100:8133   */\n      tag_750\n      jump\t// in\n    tag_830:\n        /* \"#utility.yul\":8152:8159   */\n      swap2\n      pop\n        /* \"#utility.yul\":8211:8213   */\n      0x60\n        /* \"#utility.yul\":8196:8214   */\n      dup6\n      add\n        /* \"#utility.yul\":8183:8215   */\n      calldataload\n        /* \"#utility.yul\":8224:8257   */\n      tag_831\n        /* \"#utility.yul\":8183:8215   */\n      dup2\n        /* \"#utility.yul\":8224:8257   */\n      tag_750\n      jump\t// in\n    tag_831:\n        /* \"#utility.yul\":7618:8289   */\n      swap4\n      swap7\n      swap3\n      swap6\n      pop\n      swap1\n      swap4\n      pop\n      pop\n      jump\t// out\n        /* \"#utility.yul\":8294:8638   */\n    tag_280:\n        /* \"#utility.yul\":8496:8498   */\n      0x20\n        /* \"#utility.yul\":8478:8499   */\n      dup1\n      dup3\n      mstore\n        /* \"#utility.yul\":8535:8537   */\n      0x14\n        /* \"#utility.yul\":8515:8533   */\n      swap1\n      dup3\n      add\n        /* \"#utility.yul\":8508:8538   */\n      mstore\n      shl(0x60, 0x4473636c61623a20557365722045786973747321)\n        /* \"#utility.yul\":8569:8571   */\n      0x40\n        /* \"#utility.yul\":8554:8572   */\n      dup3\n      add\n        /* \"#utility.yul\":8547:8597   */\n      mstore\n        /* \"#utility.yul\":8629:8631   */\n      0x60\n        /* \"#utility.yul\":8614:8632   */\n      add\n      swap1\n        /* \"#utility.yul\":8294:8638   */\n      jump\t// out\n        /* \"#utility.yul\":9305:9535   */\n    tag_295:\n        /* \"#utility.yul\":9375:9381   */\n      0x00\n        /* \"#utility.yul\":9428:9430   */\n      0x20\n        /* \"#utility.yul\":9416:9425   */\n      dup3\n        /* \"#utility.yul\":9407:9414   */\n      dup5\n        /* \"#utility.yul\":9403:9426   */\n      sub\n        /* \"#utility.yul\":9399:9431   */\n      slt\n        /* \"#utility.yul\":9396:9448   */\n      iszero\n      tag_836\n      jumpi\n        /* \"#utility.yul\":9444:9445   */\n      0x00\n        /* \"#utility.yul\":9441:9442   */\n      0x00\n        /* \"#utility.yul\":9434:9446   */\n      revert\n        /* \"#utility.yul\":9396:9448   */\n    tag_836:\n      pop\n        /* \"#utility.yul\":9489:9505   */\n      mload\n      swap2\n        /* \"#utility.yul\":9305:9535   */\n      swap1\n      pop\n      jump\t// out\n        /* \"#utility.yul\":9887:10258   */\n    tag_301:\n      sub(shl(0xa0, 0x01), 0x01)\n        /* \"#utility.yul\":10107:10139   */\n      swap4\n      dup5\n      and\n        /* \"#utility.yul\":10089:10140   */\n      dup2\n      mstore\n        /* \"#utility.yul\":10176:10208   */\n      swap2\n      swap1\n      swap3\n      and\n        /* \"#utility.yul\":10171:10173   */\n      0x20\n        /* \"#utility.yul\":10156:10174   */\n      dup3\n      add\n        /* \"#utility.yul\":10149:10209   */\n      mstore\n        /* \"#utility.yul\":10240:10242   */\n      0x40\n        /* \"#utility.yul\":10225:10243   */\n      dup2\n      add\n        /* \"#utility.yul\":10218:10252   */\n      swap2\n      swap1\n      swap2\n      mstore\n        /* \"#utility.yul\":10077:10079   */\n      0x60\n        /* \"#utility.yul\":10062:10080   */\n      add\n      swap1\n        /* \"#utility.yul\":9887:10258   */\n      jump\t// out\n        /* \"#utility.yul\":10263:10540   */\n    tag_305:\n        /* \"#utility.yul\":10330:10336   */\n      0x00\n        /* \"#utility.yul\":10383:10385   */\n      0x20\n        /* \"#utility.yul\":10371:10380   */\n      dup3\n        /* \"#utility.yul\":10362:10369   */\n      dup5\n        /* \"#utility.yul\":10358:10381   */\n      sub\n        /* \"#utility.yul\":10354:10386   */\n      slt\n        /* \"#utility.yul\":10351:10403   */\n      iszero\n      tag_840\n      jumpi\n        /* \"#utility.yul\":10399:10400   */\n      0x00\n        /* \"#utility.yul\":10396:10397   */\n      0x00\n        /* \"#utility.yul\":10389:10401   */\n      revert\n        /* \"#utility.yul\":10351:10403   */\n    tag_840:\n        /* \"#utility.yul\":10431:10440   */\n      dup2\n        /* \"#utility.yul\":10425:10441   */\n      mload\n        /* \"#utility.yul\":10484:10489   */\n      dup1\n        /* \"#utility.yul\":10477:10490   */\n      iszero\n        /* \"#utility.yul\":10470:10491   */\n      iszero\n        /* \"#utility.yul\":10463:10468   */\n      dup2\n        /* \"#utility.yul\":10460:10492   */\n      eq\n        /* \"#utility.yul\":10450:10510   */\n      tag_777\n      jumpi\n        /* \"#utility.yul\":10506:10507   */\n      0x00\n        /* \"#utility.yul\":10503:10504   */\n      0x00\n        /* \"#utility.yul\":10496:10508   */\n      revert\n        /* \"#utility.yul\":10824:10951   */\n    tag_317:\n        /* \"#utility.yul\":10885:10895   */\n      0x4e487b71\n        /* \"#utility.yul\":10880:10883   */\n      0xe0\n        /* \"#utility.yul\":10876:10896   */\n      shl\n        /* \"#utility.yul\":10873:10874   */\n      0x00\n        /* \"#utility.yul\":10866:10897   */\n      mstore\n        /* \"#utility.yul\":10916:10920   */\n      0x32\n        /* \"#utility.yul\":10913:10914   */\n      0x04\n        /* \"#utility.yul\":10906:10921   */\n      mstore\n        /* \"#utility.yul\":10940:10944   */\n      0x24\n        /* \"#utility.yul\":10937:10938   */\n      0x00\n        /* \"#utility.yul\":10930:10945   */\n      revert\n        /* \"#utility.yul\":10956:11402   */\n    tag_755:\n        /* \"#utility.yul\":11009:11012   */\n      0x00\n        /* \"#utility.yul\":11047:11052   */\n      dup2\n        /* \"#utility.yul\":11041:11053   */\n      mload\n        /* \"#utility.yul\":11074:11080   */\n      dup1\n        /* \"#utility.yul\":11069:11072   */\n      dup5\n        /* \"#utility.yul\":11062:11081   */\n      mstore\n        /* \"#utility.yul\":11106:11110   */\n      0x20\n        /* \"#utility.yul\":11101:11104   */\n      dup5\n        /* \"#utility.yul\":11097:11111   */\n      add\n        /* \"#utility.yul\":11090:11111   */\n      swap4\n      pop\n        /* \"#utility.yul\":11145:11149   */\n      0x20\n        /* \"#utility.yul\":11138:11143   */\n      dup4\n        /* \"#utility.yul\":11134:11150   */\n      add\n        /* \"#utility.yul\":11168:11169   */\n      0x00\n        /* \"#utility.yul\":11178:11377   */\n    tag_845:\n        /* \"#utility.yul\":11192:11198   */\n      dup3\n        /* \"#utility.yul\":11189:11190   */\n      dup2\n        /* \"#utility.yul\":11186:11199   */\n      lt\n        /* \"#utility.yul\":11178:11377   */\n      iszero\n      tag_847\n      jumpi\n        /* \"#utility.yul\":11257:11270   */\n      dup2\n      mload\n      sub(shl(0xa0, 0x01), 0x01)\n        /* \"#utility.yul\":11253:11292   */\n      and\n        /* \"#utility.yul\":11241:11293   */\n      dup7\n      mstore\n        /* \"#utility.yul\":11322:11326   */\n      0x20\n        /* \"#utility.yul\":11313:11327   */\n      swap6\n      dup7\n      add\n      swap6\n        /* \"#utility.yul\":11350:11367   */\n      swap1\n      swap2\n      add\n      swap1\n        /* \"#utility.yul\":11289:11290   */\n      0x01\n        /* \"#utility.yul\":11207:11216   */\n      add\n        /* \"#utility.yul\":11178:11377   */\n      jump(tag_845)\n    tag_847:\n      pop\n        /* \"#utility.yul\":11393:11396   */\n      swap4\n      swap5\n        /* \"#utility.yul\":10956:11402   */\n      swap4\n      pop\n      pop\n      pop\n      pop\n      jump\t// out\n        /* \"#utility.yul\":11407:11739   */\n    tag_321:\n        /* \"#utility.yul\":11614:11620   */\n      dup3\n        /* \"#utility.yul\":11603:11612   */\n      dup2\n        /* \"#utility.yul\":11596:11621   */\n      mstore\n        /* \"#utility.yul\":11657:11659   */\n      0x40\n        /* \"#utility.yul\":11652:11654   */\n      0x20\n        /* \"#utility.yul\":11641:11650   */\n      dup3\n        /* \"#utility.yul\":11637:11655   */\n      add\n        /* \"#utility.yul\":11630:11660   */\n      mstore\n        /* \"#utility.yul\":11577:11581   */\n      0x00\n        /* \"#utility.yul\":11677:11733   */\n      tag_849\n        /* \"#utility.yul\":11729:11731   */\n      0x40\n        /* \"#utility.yul\":11718:11727   */\n      dup4\n        /* \"#utility.yul\":11714:11732   */\n      add\n        /* \"#utility.yul\":11706:11712   */\n      dup5\n        /* \"#utility.yul\":11677:11733   */\n      tag_755\n      jump\t// in\n    tag_849:\n        /* \"#utility.yul\":11669:11733   */\n      swap5\n        /* \"#utility.yul\":11407:11739   */\n      swap4\n      pop\n      pop\n      pop\n      pop\n      jump\t// out\n        /* \"#utility.yul\":11744:12674   */\n    tag_325:\n        /* \"#utility.yul\":11839:11845   */\n      0x00\n        /* \"#utility.yul\":11892:11894   */\n      0x20\n        /* \"#utility.yul\":11880:11889   */\n      dup3\n        /* \"#utility.yul\":11871:11878   */\n      dup5\n        /* \"#utility.yul\":11867:11890   */\n      sub\n        /* \"#utility.yul\":11863:11895   */\n      slt\n        /* \"#utility.yul\":11860:11912   */\n      iszero\n      tag_851\n      jumpi\n        /* \"#utility.yul\":11908:11909   */\n      0x00\n        /* \"#utility.yul\":11905:11906   */\n      0x00\n        /* \"#utility.yul\":11898:11910   */\n      revert\n        /* \"#utility.yul\":11860:11912   */\n    tag_851:\n        /* \"#utility.yul\":11941:11950   */\n      dup2\n        /* \"#utility.yul\":11935:11951   */\n      mload\n        /* \"#utility.yul\":11974:11992   */\n      0xffffffffffffffff\n        /* \"#utility.yul\":11966:11972   */\n      dup2\n        /* \"#utility.yul\":11963:11993   */\n      gt\n        /* \"#utility.yul\":11960:12010   */\n      iszero\n      tag_852\n      jumpi\n        /* \"#utility.yul\":12006:12007   */\n      0x00\n        /* \"#utility.yul\":12003:12004   */\n      0x00\n        /* \"#utility.yul\":11996:12008   */\n      revert\n        /* \"#utility.yul\":11960:12010   */\n    tag_852:\n        /* \"#utility.yul\":12029:12051   */\n      dup3\n      add\n        /* \"#utility.yul\":12082:12086   */\n      0x1f\n        /* \"#utility.yul\":12074:12087   */\n      dup2\n      add\n        /* \"#utility.yul\":12070:12097   */\n      dup5\n      sgt\n        /* \"#utility.yul\":12060:12115   */\n      tag_853\n      jumpi\n        /* \"#utility.yul\":12111:12112   */\n      0x00\n        /* \"#utility.yul\":12108:12109   */\n      0x00\n        /* \"#utility.yul\":12101:12113   */\n      revert\n        /* \"#utility.yul\":12060:12115   */\n    tag_853:\n        /* \"#utility.yul\":12144:12146   */\n      dup1\n        /* \"#utility.yul\":12138:12147   */\n      mload\n        /* \"#utility.yul\":12167:12231   */\n      tag_854\n        /* \"#utility.yul\":12183:12230   */\n      tag_792\n        /* \"#utility.yul\":12223:12229   */\n      dup3\n        /* \"#utility.yul\":12183:12230   */\n      tag_752\n      jump\t// in\n        /* \"#utility.yul\":12167:12231   */\n    tag_854:\n        /* \"#utility.yul\":12253:12256   */\n      dup1\n        /* \"#utility.yul\":12277:12283   */\n      dup3\n        /* \"#utility.yul\":12272:12275   */\n      dup3\n        /* \"#utility.yul\":12265:12284   */\n      mstore\n        /* \"#utility.yul\":12309:12311   */\n      0x20\n        /* \"#utility.yul\":12304:12307   */\n      dup3\n        /* \"#utility.yul\":12300:12312   */\n      add\n        /* \"#utility.yul\":12293:12312   */\n      swap2\n      pop\n        /* \"#utility.yul\":12364:12366   */\n      0x20\n        /* \"#utility.yul\":12354:12360   */\n      dup4\n        /* \"#utility.yul\":12351:12352   */\n      0x05\n        /* \"#utility.yul\":12347:12361   */\n      shl\n        /* \"#utility.yul\":12343:12345   */\n      dup6\n        /* \"#utility.yul\":12339:12362   */\n      add\n        /* \"#utility.yul\":12335:12367   */\n      add\n        /* \"#utility.yul\":12321:12367   */\n      swap3\n      pop\n        /* \"#utility.yul\":12390:12397   */\n      dup7\n        /* \"#utility.yul\":12382:12388   */\n      dup4\n        /* \"#utility.yul\":12379:12398   */\n      gt\n        /* \"#utility.yul\":12376:12415   */\n      iszero\n      tag_856\n      jumpi\n        /* \"#utility.yul\":12411:12412   */\n      0x00\n        /* \"#utility.yul\":12408:12409   */\n      0x00\n        /* \"#utility.yul\":12401:12413   */\n      revert\n        /* \"#utility.yul\":12376:12415   */\n    tag_856:\n        /* \"#utility.yul\":12443:12445   */\n      0x20\n        /* \"#utility.yul\":12439:12441   */\n      dup5\n        /* \"#utility.yul\":12435:12446   */\n      add\n        /* \"#utility.yul\":12424:12446   */\n      swap4\n      pop\n        /* \"#utility.yul\":12455:12644   */\n    tag_857:\n        /* \"#utility.yul\":12471:12477   */\n      dup3\n        /* \"#utility.yul\":12466:12469   */\n      dup5\n        /* \"#utility.yul\":12463:12478   */\n      lt\n        /* \"#utility.yul\":12455:12644   */\n      iszero\n      tag_796\n      jumpi\n        /* \"#utility.yul\":12561:12571   */\n      dup4\n      mload\n        /* \"#utility.yul\":12584:12602   */\n      dup3\n      mstore\n        /* \"#utility.yul\":12631:12633   */\n      0x20\n        /* \"#utility.yul\":12488:12500   */\n      swap4\n      dup5\n      add\n      swap4\n        /* \"#utility.yul\":12622:12634   */\n      swap1\n      swap2\n      add\n      swap1\n        /* \"#utility.yul\":12455:12644   */\n      jump(tag_857)\n        /* \"#utility.yul\":12679:12806   */\n    tag_756:\n        /* \"#utility.yul\":12740:12750   */\n      0x4e487b71\n        /* \"#utility.yul\":12735:12738   */\n      0xe0\n        /* \"#utility.yul\":12731:12751   */\n      shl\n        /* \"#utility.yul\":12728:12729   */\n      0x00\n        /* \"#utility.yul\":12721:12752   */\n      mstore\n        /* \"#utility.yul\":12771:12775   */\n      0x11\n        /* \"#utility.yul\":12768:12769   */\n      0x04\n        /* \"#utility.yul\":12761:12776   */\n      mstore\n        /* \"#utility.yul\":12795:12799   */\n      0x24\n        /* \"#utility.yul\":12792:12793   */\n      0x00\n        /* \"#utility.yul\":12785:12800   */\n      revert\n        /* \"#utility.yul\":12811:12936   */\n    tag_329:\n        /* \"#utility.yul\":12876:12885   */\n      dup1\n      dup3\n      add\n        /* \"#utility.yul\":12897:12907   */\n      dup1\n      dup3\n      gt\n        /* \"#utility.yul\":12894:12930   */\n      iszero\n      tag_863\n      jumpi\n        /* \"#utility.yul\":12910:12928   */\n      tag_863\n      tag_756\n      jump\t// in\n    tag_863:\n        /* \"#utility.yul\":12811:12936   */\n      swap3\n      swap2\n      pop\n      pop\n      jump\t// out\n        /* \"#utility.yul\":12941:13515   */\n    tag_331:\n        /* \"#utility.yul\":13232:13238   */\n      dup6\n        /* \"#utility.yul\":13221:13230   */\n      dup2\n        /* \"#utility.yul\":13214:13239   */\n      mstore\n        /* \"#utility.yul\":13275:13281   */\n      dup5\n        /* \"#utility.yul\":13270:13272   */\n      0x20\n        /* \"#utility.yul\":13259:13268   */\n      dup3\n        /* \"#utility.yul\":13255:13273   */\n      add\n        /* \"#utility.yul\":13248:13282   */\n      mstore\n        /* \"#utility.yul\":13318:13321   */\n      0xa0\n        /* \"#utility.yul\":13313:13315   */\n      0x40\n        /* \"#utility.yul\":13302:13311   */\n      dup3\n        /* \"#utility.yul\":13298:13316   */\n      add\n        /* \"#utility.yul\":13291:13322   */\n      mstore\n        /* \"#utility.yul\":13195:13199   */\n      0x00\n        /* \"#utility.yul\":13339:13396   */\n      tag_865\n        /* \"#utility.yul\":13391:13394   */\n      0xa0\n        /* \"#utility.yul\":13380:13389   */\n      dup4\n        /* \"#utility.yul\":13376:13395   */\n      add\n        /* \"#utility.yul\":13368:13374   */\n      dup7\n        /* \"#utility.yul\":13339:13396   */\n      tag_755\n      jump\t// in\n    tag_865:\n      sub(shl(0xa0, 0x01), 0x01)\n        /* \"#utility.yul\":13432:13464   */\n      swap5\n      swap1\n      swap5\n      and\n        /* \"#utility.yul\":13427:13429   */\n      0x60\n        /* \"#utility.yul\":13412:13430   */\n      dup4\n      add\n        /* \"#utility.yul\":13405:13465   */\n      mstore\n      pop\n        /* \"#utility.yul\":13496:13499   */\n      0x80\n        /* \"#utility.yul\":13481:13500   */\n      add\n        /* \"#utility.yul\":13474:13509   */\n      mstore\n        /* \"#utility.yul\":13331:13396   */\n      swap4\n        /* \"#utility.yul\":12941:13515   */\n      swap3\n      pop\n      pop\n      pop\n      jump\t// out\n        /* \"#utility.yul\":13520:13655   */\n    tag_336:\n        /* \"#utility.yul\":13559:13562   */\n      0x00\n        /* \"#utility.yul\":13580:13597   */\n      0x01\n      dup3\n      add\n        /* \"#utility.yul\":13577:13620   */\n      tag_868\n      jumpi\n        /* \"#utility.yul\":13600:13618   */\n      tag_868\n      tag_756\n      jump\t// in\n    tag_868:\n      pop\n        /* \"#utility.yul\":13647:13648   */\n      0x01\n        /* \"#utility.yul\":13636:13649   */\n      add\n      swap1\n        /* \"#utility.yul\":13520:13655   */\n      jump\t// out\n        /* \"#utility.yul\":13817:14236   */\n    tag_339:\n        /* \"#utility.yul\":14075:14081   */\n      dup3\n        /* \"#utility.yul\":14064:14073   */\n      dup2\n        /* \"#utility.yul\":14057:14082   */\n      mstore\n        /* \"#utility.yul\":14118:14124   */\n      dup2\n        /* \"#utility.yul\":14113:14115   */\n      0x20\n        /* \"#utility.yul\":14102:14111   */\n      dup3\n        /* \"#utility.yul\":14098:14116   */\n      add\n        /* \"#utility.yul\":14091:14125   */\n      mstore\n        /* \"#utility.yul\":14161:14163   */\n      0x60\n        /* \"#utility.yul\":14156:14158   */\n      0x40\n        /* \"#utility.yul\":14145:14154   */\n      dup3\n        /* \"#utility.yul\":14141:14159   */\n      add\n        /* \"#utility.yul\":14134:14164   */\n      mstore\n        /* \"#utility.yul\":14038:14042   */\n      0x00\n        /* \"#utility.yul\":14181:14230   */\n      tag_849\n        /* \"#utility.yul\":14226:14228   */\n      0x60\n        /* \"#utility.yul\":14215:14224   */\n      dup4\n        /* \"#utility.yul\":14211:14229   */\n      add\n        /* \"#utility.yul\":13737:13738   */\n      0x04\n        /* \"#utility.yul\":13725:13739   */\n      dup2\n      mstore\n      shl(0xe2, 0x1554d115)\n        /* \"#utility.yul\":13764:13768   */\n      0x20\n        /* \"#utility.yul\":13755:13769   */\n      dup3\n      add\n        /* \"#utility.yul\":13748:13778   */\n      mstore\n        /* \"#utility.yul\":13803:13805   */\n      0x40\n        /* \"#utility.yul\":13794:13806   */\n      add\n      swap1\n        /* \"#utility.yul\":13660:13812   */\n      jump\n        /* \"#utility.yul\":14241:14589   */\n    tag_364:\n        /* \"#utility.yul\":14443:14445   */\n      0x20\n        /* \"#utility.yul\":14425:14446   */\n      dup1\n      dup3\n      mstore\n        /* \"#utility.yul\":14482:14484   */\n      0x18\n        /* \"#utility.yul\":14462:14480   */\n      swap1\n      dup3\n      add\n        /* \"#utility.yul\":14455:14485   */\n      mstore\n        /* \"#utility.yul\":14521:14547   */\n      0x4473636c61623a2055736572206e6f7420457869737473210000000000000000\n        /* \"#utility.yul\":14516:14518   */\n      0x40\n        /* \"#utility.yul\":14501:14519   */\n      dup3\n      add\n        /* \"#utility.yul\":14494:14548   */\n      mstore\n        /* \"#utility.yul\":14580:14582   */\n      0x60\n        /* \"#utility.yul\":14565:14583   */\n      add\n      swap1\n        /* \"#utility.yul\":14241:14589   */\n      jump\t// out\n        /* \"#utility.yul\":14594:14943   */\n    tag_367:\n        /* \"#utility.yul\":14796:14798   */\n      0x20\n        /* \"#utility.yul\":14778:14799   */\n      dup1\n      dup3\n      mstore\n        /* \"#utility.yul\":14835:14837   */\n      0x19\n        /* \"#utility.yul\":14815:14833   */\n      swap1\n      dup3\n      add\n        /* \"#utility.yul\":14808:14838   */\n      mstore\n        /* \"#utility.yul\":14874:14901   */\n      0x4d696e696d756d2041637469766174696f6e2069732024363000000000000000\n        /* \"#utility.yul\":14869:14871   */\n      0x40\n        /* \"#utility.yul\":14854:14872   */\n      dup3\n      add\n        /* \"#utility.yul\":14847:14902   */\n      mstore\n        /* \"#utility.yul\":14934:14936   */\n      0x60\n        /* \"#utility.yul\":14919:14937   */\n      add\n      swap1\n        /* \"#utility.yul\":14594:14943   */\n      jump\t// out\n        /* \"#utility.yul\":14948:15300   */\n    tag_370:\n        /* \"#utility.yul\":15150:15152   */\n      0x20\n        /* \"#utility.yul\":15132:15153   */\n      dup1\n      dup3\n      mstore\n        /* \"#utility.yul\":15189:15191   */\n      0x1c\n        /* \"#utility.yul\":15169:15187   */\n      swap1\n      dup3\n      add\n        /* \"#utility.yul\":15162:15192   */\n      mstore\n        /* \"#utility.yul\":15228:15258   */\n      0x4d6178696d756d2041637469766174696f6e2069732024313030303000000000\n        /* \"#utility.yul\":15223:15225   */\n      0x40\n        /* \"#utility.yul\":15208:15226   */\n      dup3\n      add\n        /* \"#utility.yul\":15201:15259   */\n      mstore\n        /* \"#utility.yul\":15291:15293   */\n      0x60\n        /* \"#utility.yul\":15276:15294   */\n      add\n      swap1\n        /* \"#utility.yul\":14948:15300   */\n      jump\t// out\n        /* \"#utility.yul\":15305:15712   */\n    tag_373:\n        /* \"#utility.yul\":15507:15509   */\n      0x20\n        /* \"#utility.yul\":15489:15510   */\n      dup1\n      dup3\n      mstore\n        /* \"#utility.yul\":15546:15548   */\n      0x2b\n        /* \"#utility.yul\":15526:15544   */\n      swap1\n      dup3\n      add\n        /* \"#utility.yul\":15519:15549   */\n      mstore\n        /* \"#utility.yul\":15585:15619   */\n      0x496e2046697820706c616e206f6e6c79205553445420696e766573746d656e74\n        /* \"#utility.yul\":15580:15582   */\n      0x40\n        /* \"#utility.yul\":15565:15583   */\n      dup3\n      add\n        /* \"#utility.yul\":15558:15620   */\n      mstore\n      shl(0xaa, 0x081a5cc8185b1b1bddd959)\n        /* \"#utility.yul\":15651:15653   */\n      0x60\n        /* \"#utility.yul\":15636:15654   */\n      dup3\n      add\n        /* \"#utility.yul\":15629:15670   */\n      mstore\n        /* \"#utility.yul\":15702:15705   */\n      0x80\n        /* \"#utility.yul\":15687:15706   */\n      add\n      swap1\n        /* \"#utility.yul\":15305:15712   */\n      jump\t// out\n        /* \"#utility.yul\":15717:16136   */\n    tag_378:\n        /* \"#utility.yul\":15919:15921   */\n      0x20\n        /* \"#utility.yul\":15901:15922   */\n      dup1\n      dup3\n      mstore\n        /* \"#utility.yul\":15958:15960   */\n      0x37\n        /* \"#utility.yul\":15938:15956   */\n      swap1\n      dup3\n      add\n        /* \"#utility.yul\":15931:15961   */\n      mstore\n        /* \"#utility.yul\":15997:16031   */\n      0x526520496e766573746d656e742053686f756c6420457175616c2f4772656174\n        /* \"#utility.yul\":15992:15994   */\n      0x40\n        /* \"#utility.yul\":15977:15995   */\n      dup3\n      add\n        /* \"#utility.yul\":15970:16032   */\n      mstore\n        /* \"#utility.yul\":16068:16093   */\n      0x6572207468616e206c61737420496e766573746d656e74000000000000000000\n        /* \"#utility.yul\":16063:16065   */\n      0x60\n        /* \"#utility.yul\":16048:16066   */\n      dup3\n      add\n        /* \"#utility.yul\":16041:16094   */\n      mstore\n        /* \"#utility.yul\":16126:16129   */\n      0x80\n        /* \"#utility.yul\":16111:16130   */\n      add\n      swap1\n        /* \"#utility.yul\":15717:16136   */\n      jump\t// out\n        /* \"#utility.yul\":16141:16309   */\n    tag_388:\n        /* \"#utility.yul\":16214:16223   */\n      dup1\n      dup3\n      mul\n        /* \"#utility.yul\":16245:16254   */\n      dup2\n      iszero\n        /* \"#utility.yul\":16262:16277   */\n      dup3\n      dup3\n      div\n        /* \"#utility.yul\":16256:16278   */\n      dup5\n      eq\n        /* \"#utility.yul\":16242:16279   */\n      or\n        /* \"#utility.yul\":16232:16303   */\n      tag_863\n      jumpi\n        /* \"#utility.yul\":16283:16301   */\n      tag_863\n      tag_756\n      jump\t// in\n        /* \"#utility.yul\":16314:16531   */\n    tag_390:\n        /* \"#utility.yul\":16354:16355   */\n      0x00\n        /* \"#utility.yul\":16380:16381   */\n      dup3\n        /* \"#utility.yul\":16370:16502   */\n      tag_881\n      jumpi\n        /* \"#utility.yul\":16424:16434   */\n      0x4e487b71\n        /* \"#utility.yul\":16419:16422   */\n      0xe0\n        /* \"#utility.yul\":16415:16435   */\n      shl\n        /* \"#utility.yul\":16412:16413   */\n      0x00\n        /* \"#utility.yul\":16405:16436   */\n      mstore\n        /* \"#utility.yul\":16459:16463   */\n      0x12\n        /* \"#utility.yul\":16456:16457   */\n      0x04\n        /* \"#utility.yul\":16449:16464   */\n      mstore\n        /* \"#utility.yul\":16487:16491   */\n      0x24\n        /* \"#utility.yul\":16484:16485   */\n      0x00\n        /* \"#utility.yul\":16477:16492   */\n      revert\n        /* \"#utility.yul\":16370:16502   */\n    tag_881:\n      pop\n        /* \"#utility.yul\":16516:16525   */\n      div\n      swap1\n        /* \"#utility.yul\":16314:16531   */\n      jump\t// out\n        /* \"#utility.yul\":17039:17328   */\n    tag_759:\n        /* \"#utility.yul\":17081:17084   */\n      0x00\n        /* \"#utility.yul\":17119:17124   */\n      dup2\n        /* \"#utility.yul\":17113:17125   */\n      mload\n        /* \"#utility.yul\":17146:17152   */\n      dup1\n        /* \"#utility.yul\":17141:17144   */\n      dup5\n        /* \"#utility.yul\":17134:17153   */\n      mstore\n        /* \"#utility.yul\":17202:17208   */\n      dup1\n        /* \"#utility.yul\":17195:17199   */\n      0x20\n        /* \"#utility.yul\":17188:17193   */\n      dup5\n        /* \"#utility.yul\":17184:17200   */\n      add\n        /* \"#utility.yul\":17177:17181   */\n      0x20\n        /* \"#utility.yul\":17172:17175   */\n      dup7\n        /* \"#utility.yul\":17168:17182   */\n      add\n        /* \"#utility.yul\":17162:17209   */\n      mcopy\n        /* \"#utility.yul\":17254:17255   */\n      0x00\n        /* \"#utility.yul\":17247:17251   */\n      0x20\n        /* \"#utility.yul\":17238:17244   */\n      dup3\n        /* \"#utility.yul\":17233:17236   */\n      dup7\n        /* \"#utility.yul\":17229:17245   */\n      add\n        /* \"#utility.yul\":17225:17252   */\n      add\n        /* \"#utility.yul\":17218:17256   */\n      mstore\n        /* \"#utility.yul\":17317:17321   */\n      0x20\n        /* \"#utility.yul\":17310:17312   */\n      0x1f\n        /* \"#utility.yul\":17306:17313   */\n      not\n        /* \"#utility.yul\":17301:17303   */\n      0x1f\n        /* \"#utility.yul\":17293:17299   */\n      dup4\n        /* \"#utility.yul\":17289:17304   */\n      add\n        /* \"#utility.yul\":17285:17314   */\n      and\n        /* \"#utility.yul\":17280:17283   */\n      dup6\n        /* \"#utility.yul\":17276:17315   */\n      add\n        /* \"#utility.yul\":17272:17322   */\n      add\n        /* \"#utility.yul\":17265:17322   */\n      swap2\n      pop\n      pop\n        /* \"#utility.yul\":17039:17328   */\n      swap3\n      swap2\n      pop\n      pop\n      jump\t// out\n        /* \"#utility.yul\":17333:17989   */\n    tag_409:\n        /* \"#utility.yul\":17667:17673   */\n      dup5\n        /* \"#utility.yul\":17656:17665   */\n      dup2\n        /* \"#utility.yul\":17649:17674   */\n      mstore\n        /* \"#utility.yul\":17710:17716   */\n      dup4\n        /* \"#utility.yul\":17705:17707   */\n      0x20\n        /* \"#utility.yul\":17694:17703   */\n      dup3\n        /* \"#utility.yul\":17690:17708   */\n      add\n        /* \"#utility.yul\":17683:17717   */\n      mstore\n        /* \"#utility.yul\":17753:17756   */\n      0xa0\n        /* \"#utility.yul\":17748:17750   */\n      0x40\n        /* \"#utility.yul\":17737:17746   */\n      dup3\n        /* \"#utility.yul\":17733:17751   */\n      add\n        /* \"#utility.yul\":17726:17757   */\n      mstore\n        /* \"#utility.yul\":17630:17634   */\n      0x00\n        /* \"#utility.yul\":17780:17830   */\n      tag_886\n        /* \"#utility.yul\":17825:17828   */\n      0xa0\n        /* \"#utility.yul\":17814:17823   */\n      dup4\n        /* \"#utility.yul\":17810:17829   */\n      add\n        /* \"#utility.yul\":16960:16961   */\n      0x03\n        /* \"#utility.yul\":16948:16962   */\n      dup2\n      mstore\n      shl(0xe8, 0x445343)\n        /* \"#utility.yul\":16987:16991   */\n      0x20\n        /* \"#utility.yul\":16978:16992   */\n      dup3\n      add\n        /* \"#utility.yul\":16971:17000   */\n      mstore\n        /* \"#utility.yul\":17025:17027   */\n      0x40\n        /* \"#utility.yul\":17016:17028   */\n      add\n      swap1\n        /* \"#utility.yul\":16883:17034   */\n      jump\n        /* \"#utility.yul\":17780:17830   */\n    tag_886:\n        /* \"#utility.yul\":17878:17887   */\n      dup3\n        /* \"#utility.yul\":17870:17876   */\n      dup2\n        /* \"#utility.yul\":17866:17888   */\n      sub\n        /* \"#utility.yul\":17861:17863   */\n      0x60\n        /* \"#utility.yul\":17850:17859   */\n      dup5\n        /* \"#utility.yul\":17846:17864   */\n      add\n        /* \"#utility.yul\":17839:17889   */\n      mstore\n        /* \"#utility.yul\":17906:17939   */\n      tag_887\n        /* \"#utility.yul\":17932:17938   */\n      dup2\n        /* \"#utility.yul\":17924:17930   */\n      dup7\n        /* \"#utility.yul\":17906:17939   */\n      tag_759\n      jump\t// in\n    tag_887:\n        /* \"#utility.yul\":17898:17939   */\n      swap2\n      pop\n      pop\n        /* \"#utility.yul\":17976:17982   */\n      dup3\n        /* \"#utility.yul\":17970:17973   */\n      0x80\n        /* \"#utility.yul\":17959:17968   */\n      dup4\n        /* \"#utility.yul\":17955:17974   */\n      add\n        /* \"#utility.yul\":17948:17983   */\n      mstore\n        /* \"#utility.yul\":17333:17989   */\n      swap6\n      swap5\n      pop\n      pop\n      pop\n      pop\n      pop\n      jump\t// out\n        /* \"#utility.yul\":17994:18391   */\n    tag_420:\n        /* \"#utility.yul\":18196:18198   */\n      0x20\n        /* \"#utility.yul\":18178:18199   */\n      dup1\n      dup3\n      mstore\n        /* \"#utility.yul\":18235:18237   */\n      0x21\n        /* \"#utility.yul\":18215:18233   */\n      swap1\n      dup3\n      add\n        /* \"#utility.yul\":18208:18238   */\n      mstore\n        /* \"#utility.yul\":18274:18308   */\n      0x466f7262696464656e21204f6e6c79204f70657261746f722043616e2043616c\n        /* \"#utility.yul\":18269:18271   */\n      0x40\n        /* \"#utility.yul\":18254:18272   */\n      dup3\n      add\n        /* \"#utility.yul\":18247:18309   */\n      mstore\n      shl(0xfa, 0x1b)\n        /* \"#utility.yul\":18340:18342   */\n      0x60\n        /* \"#utility.yul\":18325:18343   */\n      dup3\n      add\n        /* \"#utility.yul\":18318:18349   */\n      mstore\n        /* \"#utility.yul\":18381:18384   */\n      0x80\n        /* \"#utility.yul\":18366:18385   */\n      add\n      swap1\n        /* \"#utility.yul\":17994:18391   */\n      jump\t// out\n        /* \"#utility.yul\":19276:19695   */\n    tag_455:\n        /* \"#utility.yul\":19534:19540   */\n      dup3\n        /* \"#utility.yul\":19523:19532   */\n      dup2\n        /* \"#utility.yul\":19516:19541   */\n      mstore\n        /* \"#utility.yul\":19577:19583   */\n      dup2\n        /* \"#utility.yul\":19572:19574   */\n      0x20\n        /* \"#utility.yul\":19561:19570   */\n      dup3\n        /* \"#utility.yul\":19557:19575   */\n      add\n        /* \"#utility.yul\":19550:19584   */\n      mstore\n        /* \"#utility.yul\":19620:19622   */\n      0x60\n        /* \"#utility.yul\":19615:19617   */\n      0x40\n        /* \"#utility.yul\":19604:19613   */\n      dup3\n        /* \"#utility.yul\":19600:19618   */\n      add\n        /* \"#utility.yul\":19593:19623   */\n      mstore\n        /* \"#utility.yul\":19497:19501   */\n      0x00\n        /* \"#utility.yul\":19640:19689   */\n      tag_849\n        /* \"#utility.yul\":19685:19687   */\n      0x60\n        /* \"#utility.yul\":19674:19683   */\n      dup4\n        /* \"#utility.yul\":19670:19688   */\n      add\n        /* \"#utility.yul\":19195:19196   */\n      0x05\n        /* \"#utility.yul\":19183:19197   */\n      dup2\n      mstore\n      shl(0xd8, 0x7374445343)\n        /* \"#utility.yul\":19222:19226   */\n      0x20\n        /* \"#utility.yul\":19213:19227   */\n      dup3\n      add\n        /* \"#utility.yul\":19206:19237   */\n      mstore\n        /* \"#utility.yul\":19262:19264   */\n      0x40\n        /* \"#utility.yul\":19253:19265   */\n      add\n      swap1\n        /* \"#utility.yul\":19118:19271   */\n      jump\n        /* \"#utility.yul\":20404:21060   */\n    tag_521:\n        /* \"#utility.yul\":20738:20744   */\n      dup5\n        /* \"#utility.yul\":20727:20736   */\n      dup2\n        /* \"#utility.yul\":20720:20745   */\n      mstore\n        /* \"#utility.yul\":20781:20787   */\n      dup4\n        /* \"#utility.yul\":20776:20778   */\n      0x20\n        /* \"#utility.yul\":20765:20774   */\n      dup3\n        /* \"#utility.yul\":20761:20779   */\n      add\n        /* \"#utility.yul\":20754:20788   */\n      mstore\n        /* \"#utility.yul\":20824:20827   */\n      0xa0\n        /* \"#utility.yul\":20819:20821   */\n      0x40\n        /* \"#utility.yul\":20808:20817   */\n      dup3\n        /* \"#utility.yul\":20804:20822   */\n      add\n        /* \"#utility.yul\":20797:20828   */\n      mstore\n        /* \"#utility.yul\":20701:20705   */\n      0x00\n        /* \"#utility.yul\":20851:20901   */\n      tag_886\n        /* \"#utility.yul\":20896:20899   */\n      0xa0\n        /* \"#utility.yul\":20885:20894   */\n      dup4\n        /* \"#utility.yul\":20881:20900   */\n      add\n        /* \"#utility.yul\":13737:13738   */\n      0x04\n        /* \"#utility.yul\":13725:13739   */\n      dup2\n      mstore\n      shl(0xe2, 0x1554d115)\n        /* \"#utility.yul\":13764:13768   */\n      0x20\n        /* \"#utility.yul\":13755:13769   */\n      dup3\n      add\n        /* \"#utility.yul\":13748:13778   */\n      mstore\n        /* \"#utility.yul\":13803:13805   */\n      0x40\n        /* \"#utility.yul\":13794:13806   */\n      add\n      swap1\n        /* \"#utility.yul\":13660:13812   */\n      jump\n        /* \"#utility.yul\":21065:21484   */\n    tag_566:\n        /* \"#utility.yul\":21323:21329   */\n      dup3\n        /* \"#utility.yul\":21312:21321   */\n      dup2\n        /* \"#utility.yul\":21305:21330   */\n      mstore\n        /* \"#utility.yul\":21366:21372   */\n      dup2\n        /* \"#utility.yul\":21361:21363   */\n      0x20\n        /* \"#utility.yul\":21350:21359   */\n      dup3\n        /* \"#utility.yul\":21346:21364   */\n      add\n        /* \"#utility.yul\":21339:21373   */\n      mstore\n        /* \"#utility.yul\":21409:21411   */\n      0x60\n        /* \"#utility.yul\":21404:21406   */\n      0x40\n        /* \"#utility.yul\":21393:21402   */\n      dup3\n        /* \"#utility.yul\":21389:21407   */\n      add\n        /* \"#utility.yul\":21382:21412   */\n      mstore\n        /* \"#utility.yul\":21286:21290   */\n      0x00\n        /* \"#utility.yul\":21429:21478   */\n      tag_849\n        /* \"#utility.yul\":21474:21476   */\n      0x60\n        /* \"#utility.yul\":21463:21472   */\n      dup4\n        /* \"#utility.yul\":21459:21477   */\n      add\n        /* \"#utility.yul\":16960:16961   */\n      0x03\n        /* \"#utility.yul\":16948:16962   */\n      dup2\n      mstore\n      shl(0xe8, 0x445343)\n        /* \"#utility.yul\":16987:16991   */\n      0x20\n        /* \"#utility.yul\":16978:16992   */\n      dup3\n      add\n        /* \"#utility.yul\":16971:17000   */\n      mstore\n        /* \"#utility.yul\":17025:17027   */\n      0x40\n        /* \"#utility.yul\":17016:17028   */\n      add\n      swap1\n        /* \"#utility.yul\":16883:17034   */\n      jump\n        /* \"#utility.yul\":21489:21617   */\n    tag_573:\n        /* \"#utility.yul\":21556:21565   */\n      dup2\n      dup2\n      sub\n        /* \"#utility.yul\":21577:21588   */\n      dup2\n      dup2\n      gt\n        /* \"#utility.yul\":21574:21611   */\n      iszero\n      tag_863\n      jumpi\n        /* \"#utility.yul\":21591:21609   */\n      tag_863\n      tag_756\n      jump\t// in\n        /* \"#utility.yul\":22343:22999   */\n    tag_658:\n        /* \"#utility.yul\":22677:22683   */\n      dup5\n        /* \"#utility.yul\":22666:22675   */\n      dup2\n        /* \"#utility.yul\":22659:22684   */\n      mstore\n        /* \"#utility.yul\":22720:22726   */\n      dup4\n        /* \"#utility.yul\":22715:22717   */\n      0x20\n        /* \"#utility.yul\":22704:22713   */\n      dup3\n        /* \"#utility.yul\":22700:22718   */\n      add\n        /* \"#utility.yul\":22693:22727   */\n      mstore\n        /* \"#utility.yul\":22763:22766   */\n      0xa0\n        /* \"#utility.yul\":22758:22760   */\n      0x40\n        /* \"#utility.yul\":22747:22756   */\n      dup3\n        /* \"#utility.yul\":22743:22761   */\n      add\n        /* \"#utility.yul\":22736:22767   */\n      mstore\n        /* \"#utility.yul\":22640:22644   */\n      0x00\n        /* \"#utility.yul\":22790:22840   */\n      tag_886\n        /* \"#utility.yul\":22835:22838   */\n      0xa0\n        /* \"#utility.yul\":22824:22833   */\n      dup4\n        /* \"#utility.yul\":22820:22839   */\n      add\n        /* \"#utility.yul\":19195:19196   */\n      0x05\n        /* \"#utility.yul\":19183:19197   */\n      dup2\n      mstore\n      shl(0xd8, 0x7374445343)\n        /* \"#utility.yul\":19222:19226   */\n      0x20\n        /* \"#utility.yul\":19213:19227   */\n      dup3\n      add\n        /* \"#utility.yul\":19206:19237   */\n      mstore\n        /* \"#utility.yul\":19262:19264   */\n      0x40\n        /* \"#utility.yul\":19253:19265   */\n      add\n      swap1\n        /* \"#utility.yul\":19118:19271   */\n      jump\n        /* \"#utility.yul\":25009:25371   */\n    tag_711:\n        /* \"#utility.yul\":25214:25220   */\n      dup4\n        /* \"#utility.yul\":25203:25212   */\n      dup2\n        /* \"#utility.yul\":25196:25221   */\n      mstore\n        /* \"#utility.yul\":25257:25263   */\n      dup3\n        /* \"#utility.yul\":25252:25254   */\n      0x20\n        /* \"#utility.yul\":25241:25250   */\n      dup3\n        /* \"#utility.yul\":25237:25255   */\n      add\n        /* \"#utility.yul\":25230:25264   */\n      mstore\n        /* \"#utility.yul\":25300:25302   */\n      0x60\n        /* \"#utility.yul\":25295:25297   */\n      0x40\n        /* \"#utility.yul\":25284:25293   */\n      dup3\n        /* \"#utility.yul\":25280:25298   */\n      add\n        /* \"#utility.yul\":25273:25303   */\n      mstore\n        /* \"#utility.yul\":25177:25181   */\n      0x00\n        /* \"#utility.yul\":25320:25365   */\n      tag_915\n        /* \"#utility.yul\":25361:25363   */\n      0x60\n        /* \"#utility.yul\":25350:25359   */\n      dup4\n        /* \"#utility.yul\":25346:25364   */\n      add\n        /* \"#utility.yul\":25338:25344   */\n      dup5\n        /* \"#utility.yul\":25320:25365   */\n      tag_759\n      jump\t// in\n    tag_915:\n        /* \"#utility.yul\":25312:25365   */\n      swap6\n        /* \"#utility.yul\":25009:25371   */\n      swap5\n      pop\n      pop\n      pop\n      pop\n      pop\n      jump\t// out\n    stop\n    data_94466a41869f0ad3d2beb923f23817e68426e7ab720b5288442cefdbe65a2fef 5df5c588e24e80ddfa2166a642d3fe27393f08228d5b903311972824fbd0d607\n\n    auxdata: 0xa2646970667358221220e44669d26a4f35b03bcdf5951ccf2a09c7a7f6992e75acb73b78ea5a32edbda364736f6c634300081e0033\n}\n",
				"bytecode": {
					"linkReferences": {},
					"object": "6080604052348015600e575f5ffd5b5060018055613713806100205f395ff3fe6080604052600436106102a5575f3560e01c8063735de9f71161016f578063c8804b7b116100d8578063ea1b28e011610092578063f3b2aa941161006d578063f3b2aa9414610884578063f851a440146108a3578063f8c8765e146108c2578063fc2ea8a5146108e1575f5ffd5b8063ea1b28e014610831578063eff4228a14610846578063f2fde38b14610865575f5ffd5b8063c8804b7b1461079b578063ca33fa3f146107ba578063cc3d2721146107d3578063d58ea276146107e8578063d8a04dfa14610807578063dc43f0e61461081c575f5ffd5b806384412cc71161012957806384412cc71461063c5780638456cb591461064f5780638da5cb5b1461066357806399f584b31461067f578063a87430ba14610694578063c54e44eb1461077c575f5ffd5b8063735de9f71461058c578063744b611b146105ab57806378981741146105ca5780637b500564146105e9578063817b1cd21461060857806382f4c6a61461061d575f5ffd5b806339a93f35116102115780635c975abb116101cb5780635c975abb146104f357806368a215a2146105105780636b0ac4321461052f5780636b56ee021461054e5780636eeeaaa514610563578063715018a614610578575f5ffd5b806339a93f35146104195780633f4ba83a14610438578063452b47291461044c578063509222cd14610477578063570ca735146104a6578063578013e0146104c5575f5ffd5b80632a2d0c47116102625780632a2d0c471461037c5780632dd4f9b0146103b057806332bc298c146103c5578063348d4487146103da578063375b3c0a146103ef578063383143e514610404575f5ffd5b806302121272146102a957806309fd9bca146102db5780630da5a1b714610312578063117aea11146103275780631a454b921461034857806329fc7bd814610367575b5f5ffd5b3480156102b4575f5ffd5b506102c86102c3366004612dbd565b6108f6565b6040519081526020015b60405180910390f35b3480156102e6575f5ffd5b506006546102fa906001600160a01b031681565b6040516001600160a01b0390911681526020016102d2565b34801561031d575f5ffd5b506102c8600e5481565b348015610332575f5ffd5b50610346610341366004612de8565b610915565b005b348015610353575f5ffd5b506102c8610362366004612dbd565b610df6565b348015610372575f5ffd5b506102c860145481565b348015610387575f5ffd5b506102fa610396366004612dbd565b601e6020525f90815260409020546001600160a01b031681565b3480156103bb575f5ffd5b506102c860155481565b3480156103d0575f5ffd5b506102c860125481565b3480156103e5575f5ffd5b506102c860135481565b3480156103fa575f5ffd5b506102c8600c5481565b34801561040f575f5ffd5b506102c860105481565b348015610424575f5ffd5b50610346610433366004612e1f565b610f14565b348015610443575f5ffd5b50610346611332565b348015610457575f5ffd5b506102c8610466366004612dbd565b601b6020525f908152604090205481565b348015610482575f5ffd5b50610496610491366004612e55565b61136f565b60405190151581526020016102d2565b3480156104b1575f5ffd5b506003546102fa906001600160a01b031681565b3480156104d0575f5ffd5b506104966104df366004612e55565b601c6020525f908152604090205460ff1681565b3480156104fe575f5ffd5b505f54600160a01b900460ff16610496565b34801561051b575f5ffd5b5061034661052a366004612de8565b61138b565b34801561053a575f5ffd5b50610346610549366004612e1f565b611639565b348015610559575f5ffd5b506102c860175481565b34801561056e575f5ffd5b506102c8600b5481565b348015610583575f5ffd5b50610346611c09565b348015610597575f5ffd5b50601f546102fa906001600160a01b031681565b3480156105b6575f5ffd5b506103466105c5366004612de8565b611c1a565b3480156105d5575f5ffd5b506102c86105e4366004612edf565b611ee6565b3480156105f4575f5ffd5b50610346610603366004612f8e565b611f86565b348015610613575f5ffd5b506102c860165481565b348015610628575f5ffd5b506102c8610637366004612dbd565b61206e565b61034661064a366004613016565b61207d565b34801561065a575f5ffd5b506103466121fd565b34801561066e575f5ffd5b505f546001600160a01b03166102fa565b34801561068a575f5ffd5b506102c860095481565b34801561069f575f5ffd5b506107196106ae366004612e55565b601d6020525f9081526040902080546001820154600283015460038401546004850154600586015460068701546007880154600889015460098a0154600a8b0154600b909b0154999a6001600160a01b03909916999798969795969495939492939192909160ff168c565b604080519c8d526001600160a01b03909b1660208d0152998b019890985260608a0196909652608089019490945260a088019290925260c087015260e08601526101008501526101208401526101408301521515610160820152610180016102d2565b348015610787575f5ffd5b506004546102fa906001600160a01b031681565b3480156107a6575f5ffd5b506005546102fa906001600160a01b031681565b3480156107c5575f5ffd5b506011546104969060ff1681565b3480156107de575f5ffd5b506102c8600a5481565b3480156107f3575f5ffd5b50610346610802366004612e1f565b612238565b348015610812575f5ffd5b506102c860075481565b348015610827575f5ffd5b506102c860085481565b34801561083c575f5ffd5b506102c8600d5481565b348015610851575f5ffd5b506102fa610860366004612dbd565b612574565b348015610870575f5ffd5b5061034661087f366004612e55565b61259c565b34801561088f575f5ffd5b5061034661089e366004612dbd565b612615565b3480156108ae575f5ffd5b506002546102fa906001600160a01b031681565b3480156108cd575f5ffd5b506103466108dc3660046130f4565b6126a3565b3480156108ec575f5ffd5b506102c8600f5481565b60198181548110610905575f80fd5b5f91825260209091200154905081565b61091e8261136f565b156109445760405162461bcd60e51b815260040161093b9061314d565b60405180910390fd5b61094d8161136f565b6109995760405162461bcd60e51b815260206004820152601c60248201527f4473636c61623a205265666572726572206e6f74204578697374732100000000604482015260640161093b565b6109c1335b82604051806040016040528060048152602001631554d11560e21b815250612a07565b600b546004546001600160a01b031663dd62ed3e336040516001600160e01b031960e084901b1681526001600160a01b039091166004820152306024820152604401602060405180830381865afa158015610a1e573d5f5f3e3d5ffd5b505050506040513d601f19601f82011682018060405250810190610a42919061317b565b1015610a855760405162461bcd60e51b815260206004820152601260248201527102239b1b630b11d1030b63637bbb0b731b2960751b604482015260640161093b565b60048054600b546040516323b872dd60e01b81526001600160a01b03909216926323b872dd92610ab9923392309201613192565b6020604051808303815f875af1158015610ad5573d5f5f3e3d5ffd5b505050506040513d601f19601f82011682018060405250810190610af991906131b6565b5060048054601f54600b5460405163095ea7b360e01b81526001600160a01b03928316948101949094526024840152169063095ea7b3906044016020604051808303815f875af1158015610b4f573d5f5f3e3d5ffd5b505050506040513d601f19601f82011682018060405250810190610b7391906131b6565b506040805160028082526060820183525f92602083019080368337505060045482519293506001600160a01b0316918391505f90610bb357610bb36131d5565b6001600160a01b039283166020918202929092010152600554825191169082906001908110610be457610be46131d5565b6001600160a01b039283166020918202929092010152601f54600b5460405163d06ca61f60e01b81525f93929092169163d06ca61f91610c2891869060040161322c565b5f60405180830381865afa158015610c42573d5f5f3e3d5ffd5b505050506040513d5f823e601f3d908101601f19168201604052610c69919081019061324c565b601f54600b5482519293506001600160a01b03909116916338ed1739919084906001908110610c9a57610c9a6131d5565b6020026020010151853042600a610cb191906132e7565b6040518663ffffffff1660e01b8152600401610cd1959493929190613300565b5f604051808303815f875af1158015610cec573d5f5f3e3d5ffd5b505050506040513d5f823e601f3d908101601f19168201604052610d13919081019061324c565b50601380546001600160a01b038681165f818152601d60208181526040808420878155968452601e8252832080546001600160a01b03199081168617909155938352526001909301805490911691871691909117905581549190610d768361333b565b90915550506001600160a01b0383165f908152601d60205260408120600201805491610da18361333b565b90915550506001600160a01b038481165f818152601d6020526040808220549387168083529181902054905191935f5160206136be5f395f51905f5292610de89290613353565b60405180910390a350505050565b6040805160028082526060820183525f9283929190602083019080368337505060045482519293506001600160a01b0316918391505f90610e3957610e396131d5565b6001600160a01b039283166020918202929092010152600554825191169082906001908110610e6a57610e6a6131d5565b6001600160a01b039283166020918202929092010152601f5460405163d06ca61f60e01b81525f92919091169063d06ca61f90610ead908790869060040161322c565b5f60405180830381865afa158015610ec7573d5f5f3e3d5ffd5b505050506040513d5f823e601f3d908101601f19168201604052610eee919081019061324c565b905080600181518110610f0357610f036131d5565b602002602001015192505050919050565b610f1d3361136f565b610f4857610f48335b826040518060400160405280600381526020016244534360e81b815250612a07565b610f513361136f565b610f6d5760405162461bcd60e51b815260040161093b90613382565b600c54831015610f8f5760405162461bcd60e51b815260040161093b906133b9565b600d54831115610fb15760405162461bcd60e51b815260040161093b906133f0565b81600114610fd15760405162461bcd60e51b815260040161093b90613427565b335f908152601d6020526040902060060154801561100957808410156110095760405162461bcd60e51b815260040161093b90613472565b6040805160028082526060820183525f92602083019080368337505060045482519293506001600160a01b0316918391505f90611048576110486131d5565b6001600160a01b039283166020918202929092010152600554825191169082906001908110611079576110796131d5565b60200260200101906001600160a01b031690816001600160a01b0316815250505f6110a382611ee6565b90505f670de0b6b3a76400006110b983896134cf565b6110c391906134e6565b60055490915081906001600160a01b031663dd62ed3e336040516001600160e01b031960e084901b1681526001600160a01b039091166004820152306024820152604401602060405180830381865afa158015611122573d5f5f3e3d5ffd5b505050506040513d601f19601f82011682018060405250810190611146919061317b565b10156111895760405162461bcd60e51b815260206004820152601260248201527102229a1b630b11d1030b63637bbb0b731b2960751b604482015260640161093b565b6005546001600160a01b03166323b872dd3330846040518463ffffffff1660e01b81526004016111bb93929190613192565b6020604051808303815f875af11580156111d7573d5f5f3e3d5ffd5b505050506040513d601f19601f820116820180604052508101906111fb91906131b6565b50335f908152601d6020526040812060018101546003909101546001600160a01b0390911691811561124c576040518060400160405280600781526020016605265746f7075760cc1b815250611269565b604051806040016040528060038152602001624e657760e81b8152505b9050336001600160a01b03167fabd608a4ba071391876d4741f99ba49362bd2fc5afcf4f1fc9ecf91d6a73ccf88b86848d6040516112aa9493929190613533565b60405180910390a2335f908152601d60205260408120600681018c905560030180548c92906112da9084906132e7565b9091555050335f908152601d602052604081206003015490819003611325576001600160a01b0384165f908152601d6020526040812060020180549161131f8361333b565b91905055505b5050505050505050505050565b6003546001600160a01b0316336001600160a01b0316146113655760405162461bcd60e51b815260040161093b90613585565b61136d612b82565b565b6001600160a01b03165f908152601d6020526040902054151590565b6113948261136f565b156113b15760405162461bcd60e51b815260040161093b9061314d565b6113ba8161136f565b6114065760405162461bcd60e51b815260206004820181905260248201527f4473636c61623a20526566657272657220646f6573206e6f7420657869737421604482015260640161093b565b61142e828260405180604001604052806005815260200164737444534360d81b815250612a07565b600b546627ca57357c0000905f90829061145090670de0b6b3a76400006134cf565b61145a91906134e6565b60065490915081906001600160a01b031663dd62ed3e336040516001600160e01b031960e084901b1681526001600160a01b039091166004820152306024820152604401602060405180830381865afa1580156114b9573d5f5f3e3d5ffd5b505050506040513d601f19601f820116820180604052508101906114dd919061317b565b101561152b5760405162461bcd60e51b815260206004820181905260248201527f73744473636c61623a20496e73756666696369656e7420616c6c6f77616e6365604482015260640161093b565b6006546001600160a01b03166323b872dd3330846040518463ffffffff1660e01b815260040161155d93929190613192565b6020604051808303815f875af1158015611579573d5f5f3e3d5ffd5b505050506040513d601f19601f8201168201806040525081019061159d91906131b6565b50600654604051630852cd8d60e31b8152600481018390526001600160a01b03909116906342966c68906024015f604051808303815f87803b1580156115e1575f5ffd5b505af11580156115f3573d5f5f3e3d5ffd5b505050506001600160a01b038481165f818152601d6020526040808220549387168083529181902054905191935f5160206136be5f395f51905f5292610de892906135c6565b6116423361136f565b61164f5761164f3361099e565b6116583361136f565b6116745760405162461bcd60e51b815260040161093b90613382565b600c548310156116965760405162461bcd60e51b815260040161093b906133b9565b600d548311156116b85760405162461bcd60e51b815260040161093b906133f0565b81600114806116c75750816002145b6117135760405162461bcd60e51b815260206004820152601d60248201527f53656c656374204f6e6c7920506c616e20466c657869206f7220466978000000604482015260640161093b565b60045483906001600160a01b031663dd62ed3e336040516001600160e01b031960e084901b1681526001600160a01b039091166004820152306024820152604401602060405180830381865afa15801561176f573d5f5f3e3d5ffd5b505050506040513d601f19601f82011682018060405250810190611793919061317b565b10156117d55760405162461bcd60e51b815260206004820152601160248201527003ab9b23a101d1030b63637bbb0b731b29607d1b604482015260640161093b565b335f908152601d6020526040902060060154801561180d578084101561180d5760405162461bcd60e51b815260040161093b90613472565b6004546001600160a01b03166323b872dd3330876040518463ffffffff1660e01b815260040161183f93929190613192565b6020604051808303815f875af115801561185b573d5f5f3e3d5ffd5b505050506040513d601f19601f8201168201806040525081019061187f91906131b6565b5060048054601f5460405163095ea7b360e01b81526001600160a01b039182169381019390935260248301879052169063095ea7b3906044016020604051808303815f875af11580156118d4573d5f5f3e3d5ffd5b505050506040513d601f19601f820116820180604052508101906118f891906131b6565b506040805160028082526060820183525f92602083019080368337505060045482519293506001600160a01b0316918391505f90611938576119386131d5565b6001600160a01b039283166020918202929092010152600554825191169082906001908110611969576119696131d5565b60200260200101906001600160a01b031690816001600160a01b0316815250505f61199382611ee6565b90505f670de0b6b3a76400006119a983896134cf565b6119b391906134e6565b601f5460405163d06ca61f60e01b81529192505f916001600160a01b039091169063d06ca61f906119ea908b90889060040161322c565b5f60405180830381865afa158015611a04573d5f5f3e3d5ffd5b505050506040513d5f823e601f3d908101601f19168201604052611a2b919081019061324c565b601f5481519192506001600160a01b0316906338ed1739908a9084906001908110611a5857611a586131d5565b6020026020010151873042600a611a6f91906132e7565b6040518663ffffffff1660e01b8152600401611a8f959493929190613300565b5f604051808303815f875af1158015611aaa573d5f5f3e3d5ffd5b505050506040513d5f823e601f3d908101601f19168201604052611ad1919081019061324c565b50335f908152601d6020526040812060018101546003909101546001600160a01b03909116918115611b22576040518060400160405280600781526020016605265746f7075760cc1b815250611b3f565b604051806040016040528060038152602001624e657760e81b8152505b9050336001600160a01b03167fabd608a4ba071391876d4741f99ba49362bd2fc5afcf4f1fc9ecf91d6a73ccf88c87848e604051611b8094939291906135f6565b60405180910390a2335f908152601d60205260408120600681018d905560030180548d9290611bb09084906132e7565b9091555050335f908152601d602052604081206003015490819003611bfb576001600160a01b0384165f908152601d60205260408120600201805491611bf58361333b565b91905055505b505050505050505050505050565b611c11612bd6565b61136d5f612c2f565b611c238261136f565b15611c405760405162461bcd60e51b815260040161093b9061314d565b611c498161136f565b611c955760405162461bcd60e51b815260206004820152601c60248201527f4473636c61623a205265666572726572206e6f74204578697374732100000000604482015260640161093b565b611c9e33610f26565b6040805160028082526060820183525f92602083019080368337505060045482519293506001600160a01b0316918391505f90611cdd57611cdd6131d5565b6001600160a01b039283166020918202929092010152600554825191169082906001908110611d0e57611d0e6131d5565b60200260200101906001600160a01b031690816001600160a01b0316815250505f611d3882611ee6565b90505f670de0b6b3a764000082600b54611d5291906134cf565b611d5c91906134e6565b60055490915081906001600160a01b031663dd62ed3e336040516001600160e01b031960e084901b1681526001600160a01b039091166004820152306024820152604401602060405180830381865afa158015611dbb573d5f5f3e3d5ffd5b505050506040513d601f19601f82011682018060405250810190611ddf919061317b565b1015611e225760405162461bcd60e51b815260206004820152601260248201527102229a1b630b11d1030b63637bbb0b731b2960751b604482015260640161093b565b6005546001600160a01b03166323b872dd3330846040518463ffffffff1660e01b8152600401611e5493929190613192565b6020604051808303815f875af1158015611e70573d5f5f3e3d5ffd5b505050506040513d601f19601f82011682018060405250810190611e9491906131b6565b506001600160a01b038581165f818152601d6020526040808220549388168083529181902054905191935f5160206136be5f395f51905f5292611ed79290613625565b60405180910390a35050505050565b601f5460405163d06ca61f60e01b81525f91670de0b6b3a76400009183916001600160a01b03169063d06ca61f90611f24908590889060040161322c565b5f60405180830381865afa158015611f3e573d5f5f3e3d5ffd5b505050506040513d5f823e601f3d908101601f19168201604052611f65919081019061324c565b90508060018251611f769190613653565b81518110610f0357610f036131d5565b5f546001600160a01b03163314611fcb5760405162461bcd60e51b815260206004820152600960248201526837b7363ca7bbb732b960b91b604482015260640161093b565b806001600160a01b031663a9059cbb611feb5f546001600160a01b031690565b611ffd85670de0b6b3a76400006134cf565b6040516001600160e01b031960e085901b1681526001600160a01b03909216600483015260248201526044016020604051808303815f875af1158015612045573d5f5f3e3d5ffd5b505050506040513d601f19601f8201168201806040525081019061206991906131b6565b505050565b60188181548110610905575f80fd5b815f5b85518110156121f55784818151811061209b5761209b6131d5565b60200260200101518210156120ae575f5ffd5b8481815181106120c0576120c06131d5565b6020026020010151826120d39190613653565b9150826001600160a01b03166323b872dd338884815181106120f7576120f76131d5565b6020026020010151888581518110612111576121116131d5565b60200260200101516040518463ffffffff1660e01b815260040161213793929190613192565b6020604051808303815f875af1158015612153573d5f5f3e3d5ffd5b505050506040513d601f19601f8201168201806040525081019061217791906131b6565b5085818151811061218a5761218a6131d5565b60200260200101516001600160a01b03167fbd54bf7a35b4f30a5c2e53df02c464dc7c2a159a96b24dbb41cd9808bd6e2e368683815181106121ce576121ce6131d5565b60200260200101516040516121e591815260200190565b60405180910390a2600101612080565b505050505050565b6003546001600160a01b0316336001600160a01b0316146122305760405162461bcd60e51b815260040161093b90613585565b61136d612c7e565b6122413361136f565b61226d5761226d338260405180604001604052806005815260200164737444534360d81b815250612a07565b6122763361136f565b6122925760405162461bcd60e51b815260040161093b90613382565b600c548310156122b45760405162461bcd60e51b815260040161093b906133b9565b600d548311156122d65760405162461bcd60e51b815260040161093b906133f0565b816001146122f65760405162461bcd60e51b815260040161093b90613427565b335f908152601d6020526040902060060154801561232e578084101561232e5760405162461bcd60e51b815260040161093b90613472565b6627ca57357c00005f8161234a87670de0b6b3a76400006134cf565b61235491906134e6565b6006546040516323b872dd60e01b81529192506001600160a01b0316906323b872dd9061238990339030908690600401613192565b6020604051808303815f875af11580156123a5573d5f5f3e3d5ffd5b505050506040513d601f19601f820116820180604052508101906123c991906131b6565b50600654604051630852cd8d60e31b8152600481018390526001600160a01b03909116906342966c68906024015f604051808303815f87803b15801561240d575f5ffd5b505af115801561241f573d5f5f3e3d5ffd5b505050505f601d5f61242e3390565b6001600160a01b03908116825260208083019390935260409182015f90812060010154338252601d9094529182206003015492169250811561248f576040518060400160405280600781526020016605265746f7075760cc1b8152506124ac565b604051806040016040528060038152602001624e657760e81b8152505b9050336001600160a01b03167fabd608a4ba071391876d4741f99ba49362bd2fc5afcf4f1fc9ecf91d6a73ccf88a86848c6040516124ed9493929190613666565b60405180910390a2335f908152601d60205260408120600681018b905560030180548b929061251d9084906132e7565b9091555050335f908152601d602052604081206003015490819003612568576001600160a01b0384165f908152601d602052604081206002018054916125628361333b565b91905055505b50505050505050505050565b601a8181548110612583575f80fd5b5f918252602090912001546001600160a01b0316905081565b6125a4612bd6565b6001600160a01b0381166126095760405162461bcd60e51b815260206004820152602660248201527f4f776e61626c653a206e6577206f776e657220697320746865207a65726f206160448201526564647265737360d01b606482015260840161093b565b61261281612c2f565b50565b5f546001600160a01b0316331461265a5760405162461bcd60e51b815260206004820152600960248201526837b7363ca7bbb732b960b91b604482015260640161093b565b5f546001600160a01b03166108fc61267a83670de0b6b3a76400006134cf565b6040518115909202915f818181858888f1935050505015801561269f573d5f5f3e3d5ffd5b5050565b5f54600160b01b900460ff16806126c357505f54600160a81b900460ff16155b6127265760405162461bcd60e51b815260206004820152602e60248201527f496e697469616c697a61626c653a20636f6e747261637420697320616c72656160448201526d191e481a5b9a5d1a585b1a5e995960921b606482015260840161093b565b5f54600160b01b900460ff1615801561274e575f805461ffff60a81b191661010160a81b1790555b600480546001600160a01b038088166001600160a01b03199283161790925560058054878416908316179055600680549286169290911691909117905561279482612609565b601f80546001600160a01b0319167310ed43c718714eb63d5aa57b78b54704e256024e17905560408051610140810182526064815260326020820152601e918101829052601460608201819052600a6080830181905260a0830182905260c0830182905260e0830191909152610100820183905261012082019290925261281e9160189190612d5b565b50680340aad21b3b700000600c5569021e19e0c9bab2400000600d556801a055690d9db80000600b556002600955600a601555620151806012556103e8601455610bb87f9fafca4c9c0d5c2cbf85f49fd8ab8212430ce78c2a0cb75b51e0f9c4f9ace003556105dc7f1dd2f4b94a51cfb409e6e317a497f7cfd9013960a1c723f830c49c05a25f08a5556102ee7f804a3d0621e73505f5f0c57c922f3e57d6b48e175551184eb12f80d7b4a9c783556101f47fa952f8c0f40734b22d2328e0f7ff57eeffee78885b9cf2147ff941cc37e1c86e556101907fb48400cb19cf39e58355a7c9fd856f9b5b7298c53856a6766c6b39755ccafa79556011805460ff19169055600160138181556001600160a01b0384165f818152601d602090815260408220859055848252601e90527f873299c6a6c39b8b92f01922bb622df4a3236ea2876aac2da76f6c092cf7e98f80546001600160a01b0319169092179091556129878361333b565b91905055505f6001600160a01b0316826001600160a01b03165f5160206136be5f395f51905f5260015f6040516129e592919091825260208201526060604082018190526005908201526427bbb732b960d91b608082015260a00190565b60405180910390a38015612a00575f805460ff60b01b191690555b5050505050565b612a108361136f565b15612a4c5760405162461bcd60e51b815260206004820152600c60248201526b55736572204578697374732160a01b604482015260640161093b565b612a558261136f565b612a985760405162461bcd60e51b81526020600482015260146024820152735265666572726572206e6f74204578697374732160601b604482015260640161093b565b601380546001600160a01b038581165f818152601d60208181526040808420878155968452601e8252832080546001600160a01b0319908116861790915593835252600184018054909216928716929092179055600990910181905581549190612b018361333b565b90915550506001600160a01b0382165f908152601d60205260408120600901805491612b2c8361333b565b90915550506001600160a01b038381165f818152601d6020526040808220549386168083529181902054905191935f5160206136be5f395f51905f5292612b7592908790613696565b60405180910390a3505050565b612b8a612cc0565b5f805460ff60a01b191690557f5db9ee0a495bf2e6ff9c91a7834c1ba4fdd244a5e8aa4e537bd38aeae4b073aa335b6040516001600160a01b03909116815260200160405180910390a1565b5f546001600160a01b0316331461136d5760405162461bcd60e51b815260206004820181905260248201527f4f776e61626c653a2063616c6c6572206973206e6f7420746865206f776e6572604482015260640161093b565b5f80546001600160a01b038381166001600160a01b0319831681178455604051919092169283917f8be0079c531659141344cd1fd0a4f28419497f9722a3daafe3b4186f6b6457e09190a35050565b612c86612d0f565b5f805460ff60a01b1916600160a01b1790557f62e78cea01bee320cd4e420270b5ea74000d11b0c9f74754ebdbfc544b05a258612bb93390565b5f54600160a01b900460ff1661136d5760405162461bcd60e51b815260206004820152601460248201527314185d5cd8589b194e881b9bdd081c185d5cd95960621b604482015260640161093b565b5f54600160a01b900460ff161561136d5760405162461bcd60e51b815260206004820152601060248201526f14185d5cd8589b194e881c185d5cd95960821b604482015260640161093b565b828054828255905f5260205f20908101928215612d99579160200282015b82811115612d99578251829060ff16905591602001919060010190612d79565b50612da5929150612da9565b5090565b5b80821115612da5575f8155600101612daa565b5f60208284031215612dcd575f5ffd5b5035919050565b6001600160a01b0381168114612612575f5ffd5b5f5f60408385031215612df9575f5ffd5b8235612e0481612dd4565b91506020830135612e1481612dd4565b809150509250929050565b5f5f5f60608486031215612e31575f5ffd5b83359250602084013591506040840135612e4a81612dd4565b809150509250925092565b5f60208284031215612e65575f5ffd5b8135612e7081612dd4565b9392505050565b634e487b7160e01b5f52604160045260245ffd5b604051601f8201601f1916810167ffffffffffffffff81118282101715612eb457612eb4612e77565b604052919050565b5f67ffffffffffffffff821115612ed557612ed5612e77565b5060051b60200190565b5f60208284031215612eef575f5ffd5b813567ffffffffffffffff811115612f05575f5ffd5b8201601f81018413612f15575f5ffd5b8035612f28612f2382612ebc565b612e8b565b8082825260208201915060208360051b850101925086831115612f49575f5ffd5b6020840193505b82841015612f74578335612f6381612dd4565b825260209384019390910190612f50565b9695505050505050565b8035612f8981612dd4565b919050565b5f5f60408385031215612f9f575f5ffd5b823591506020830135612e1481612dd4565b5f82601f830112612fc0575f5ffd5b8135612fce612f2382612ebc565b8082825260208201915060208360051b860101925085831115612fef575f5ffd5b602085015b8381101561300c578035835260209283019201612ff4565b5095945050505050565b5f5f5f5f60808587031215613029575f5ffd5b843567ffffffffffffffff81111561303f575f5ffd5b8501601f8101871361304f575f5ffd5b803561305d612f2382612ebc565b8082825260208201915060208360051b85010192508983111561307e575f5ffd5b6020840193505b828410156130a957833561309881612dd4565b825260209384019390910190613085565b9650505050602085013567ffffffffffffffff8111156130c7575f5ffd5b6130d387828801612fb1565b935050604085013591506130e960608601612f7e565b905092959194509250565b5f5f5f5f60808587031215613107575f5ffd5b843561311281612dd4565b9350602085013561312281612dd4565b9250604085013561313281612dd4565b9150606085013561314281612dd4565b939692955090935050565b6020808252601490820152734473636c61623a2055736572204578697374732160601b604082015260600190565b5f6020828403121561318b575f5ffd5b5051919050565b6001600160a01b039384168152919092166020820152604081019190915260600190565b5f602082840312156131c6575f5ffd5b81518015158114612e70575f5ffd5b634e487b7160e01b5f52603260045260245ffd5b5f8151808452602084019350602083015f5b828110156132225781516001600160a01b03168652602095860195909101906001016131fb565b5093949350505050565b828152604060208201525f61324460408301846131e9565b949350505050565b5f6020828403121561325c575f5ffd5b815167ffffffffffffffff811115613272575f5ffd5b8201601f81018413613282575f5ffd5b8051613290612f2382612ebc565b8082825260208201915060208360051b8501019250868311156132b1575f5ffd5b6020840193505b82841015612f745783518252602093840193909101906132b8565b634e487b7160e01b5f52601160045260245ffd5b808201808211156132fa576132fa6132d3565b92915050565b85815284602082015260a060408201525f61331e60a08301866131e9565b6001600160a01b0394909416606083015250608001529392505050565b5f6001820161334c5761334c6132d3565b5060010190565b828152816020820152606060408201525f6132446060830160048152631554d11560e21b602082015260400190565b60208082526018908201527f4473636c61623a2055736572206e6f7420457869737473210000000000000000604082015260600190565b60208082526019908201527f4d696e696d756d2041637469766174696f6e2069732024363000000000000000604082015260600190565b6020808252601c908201527f4d6178696d756d2041637469766174696f6e2069732024313030303000000000604082015260600190565b6020808252602b908201527f496e2046697820706c616e206f6e6c79205553445420696e766573746d656e7460408201526a081a5cc8185b1b1bddd95960aa1b606082015260800190565b60208082526037908201527f526520496e766573746d656e742053686f756c6420457175616c2f477265617460408201527f6572207468616e206c61737420496e766573746d656e74000000000000000000606082015260800190565b80820281158282048414176132fa576132fa6132d3565b5f8261350057634e487b7160e01b5f52601260045260245ffd5b500490565b5f81518084528060208401602086015e5f602082860101526020601f19601f83011685010191505092915050565b84815283602082015260a060408201525f61356160a08301600381526244534360e81b602082015260400190565b82810360608401526135738186613505565b91505082608083015295945050505050565b60208082526021908201527f466f7262696464656e21204f6e6c79204f70657261746f722043616e2043616c6040820152601b60fa1b606082015260800190565b828152816020820152606060408201525f613244606083016005815264737444534360d81b602082015260400190565b84815283602082015260a060408201525f61356160a0830160048152631554d11560e21b602082015260400190565b828152816020820152606060408201525f61324460608301600381526244534360e81b602082015260400190565b818103818111156132fa576132fa6132d3565b84815283602082015260a060408201525f61356160a083016005815264737444534360d81b602082015260400190565b838152826020820152606060408201525f6136b46060830184613505565b9594505050505056fe5df5c588e24e80ddfa2166a642d3fe27393f08228d5b903311972824fbd0d607a2646970667358221220e44669d26a4f35b03bcdf5951ccf2a09c7a7f6992e75acb73b78ea5a32edbda364736f6c634300081e0033",
					"opcodes": "PUSH1 0x80 PUSH1 0x40 MSTORE CALLVALUE DUP1 ISZERO PUSH1 0xE JUMPI PUSH0 PUSH0 REVERT JUMPDEST POP PUSH1 0x1 DUP1 SSTORE PUSH2 0x3713 DUP1 PUSH2 0x20 PUSH0 CODECOPY PUSH0 RETURN INVALID PUSH1 0x80 PUSH1 0x40 MSTORE PUSH1 0x4 CALLDATASIZE LT PUSH2 0x2A5 JUMPI PUSH0 CALLDATALOAD PUSH1 0xE0 SHR DUP1 PUSH4 0x735DE9F7 GT PUSH2 0x16F JUMPI DUP1 PUSH4 0xC8804B7B GT PUSH2 0xD8 JUMPI DUP1 PUSH4 0xEA1B28E0 GT PUSH2 0x92 JUMPI DUP1 PUSH4 0xF3B2AA94 GT PUSH2 0x6D JUMPI DUP1 PUSH4 0xF3B2AA94 EQ PUSH2 0x884 JUMPI DUP1 PUSH4 0xF851A440 EQ PUSH2 0x8A3 JUMPI DUP1 PUSH4 0xF8C8765E EQ PUSH2 0x8C2 JUMPI DUP1 PUSH4 0xFC2EA8A5 EQ PUSH2 0x8E1 JUMPI PUSH0 PUSH0 REVERT JUMPDEST DUP1 PUSH4 0xEA1B28E0 EQ PUSH2 0x831 JUMPI DUP1 PUSH4 0xEFF4228A EQ PUSH2 0x846 JUMPI DUP1 PUSH4 0xF2FDE38B EQ PUSH2 0x865 JUMPI PUSH0 PUSH0 REVERT JUMPDEST DUP1 PUSH4 0xC8804B7B EQ PUSH2 0x79B JUMPI DUP1 PUSH4 0xCA33FA3F EQ PUSH2 0x7BA JUMPI DUP1 PUSH4 0xCC3D2721 EQ PUSH2 0x7D3 JUMPI DUP1 PUSH4 0xD58EA276 EQ PUSH2 0x7E8 JUMPI DUP1 PUSH4 0xD8A04DFA EQ PUSH2 0x807 JUMPI DUP1 PUSH4 0xDC43F0E6 EQ PUSH2 0x81C JUMPI PUSH0 PUSH0 REVERT JUMPDEST DUP1 PUSH4 0x84412CC7 GT PUSH2 0x129 JUMPI DUP1 PUSH4 0x84412CC7 EQ PUSH2 0x63C JUMPI DUP1 PUSH4 0x8456CB59 EQ PUSH2 0x64F JUMPI DUP1 PUSH4 0x8DA5CB5B EQ PUSH2 0x663 JUMPI DUP1 PUSH4 0x99F584B3 EQ PUSH2 0x67F JUMPI DUP1 PUSH4 0xA87430BA EQ PUSH2 0x694 JUMPI DUP1 PUSH4 0xC54E44EB EQ PUSH2 0x77C JUMPI PUSH0 PUSH0 REVERT JUMPDEST DUP1 PUSH4 0x735DE9F7 EQ PUSH2 0x58C JUMPI DUP1 PUSH4 0x744B611B EQ PUSH2 0x5AB JUMPI DUP1 PUSH4 0x78981741 EQ PUSH2 0x5CA JUMPI DUP1 PUSH4 0x7B500564 EQ PUSH2 0x5E9 JUMPI DUP1 PUSH4 0x817B1CD2 EQ PUSH2 0x608 JUMPI DUP1 PUSH4 0x82F4C6A6 EQ PUSH2 0x61D JUMPI PUSH0 PUSH0 REVERT JUMPDEST DUP1 PUSH4 0x39A93F35 GT PUSH2 0x211 JUMPI DUP1 PUSH4 0x5C975ABB GT PUSH2 0x1CB JUMPI DUP1 PUSH4 0x5C975ABB EQ PUSH2 0x4F3 JUMPI DUP1 PUSH4 0x68A215A2 EQ PUSH2 0x510 JUMPI DUP1 PUSH4 0x6B0AC432 EQ PUSH2 0x52F JUMPI DUP1 PUSH4 0x6B56EE02 EQ PUSH2 0x54E JUMPI DUP1 PUSH4 0x6EEEAAA5 EQ PUSH2 0x563 JUMPI DUP1 PUSH4 0x715018A6 EQ PUSH2 0x578 JUMPI PUSH0 PUSH0 REVERT JUMPDEST DUP1 PUSH4 0x39A93F35 EQ PUSH2 0x419 JUMPI DUP1 PUSH4 0x3F4BA83A EQ PUSH2 0x438 JUMPI DUP1 PUSH4 0x452B4729 EQ PUSH2 0x44C JUMPI DUP1 PUSH4 0x509222CD EQ PUSH2 0x477 JUMPI DUP1 PUSH4 0x570CA735 EQ PUSH2 0x4A6 JUMPI DUP1 PUSH4 0x578013E0 EQ PUSH2 0x4C5 JUMPI PUSH0 PUSH0 REVERT JUMPDEST DUP1 PUSH4 0x2A2D0C47 GT PUSH2 0x262 JUMPI DUP1 PUSH4 0x2A2D0C47 EQ PUSH2 0x37C JUMPI DUP1 PUSH4 0x2DD4F9B0 EQ PUSH2 0x3B0 JUMPI DUP1 PUSH4 0x32BC298C EQ PUSH2 0x3C5 JUMPI DUP1 PUSH4 0x348D4487 EQ PUSH2 0x3DA JUMPI DUP1 PUSH4 0x375B3C0A EQ PUSH2 0x3EF JUMPI DUP1 PUSH4 0x383143E5 EQ PUSH2 0x404 JUMPI PUSH0 PUSH0 REVERT JUMPDEST DUP1 PUSH4 0x2121272 EQ PUSH2 0x2A9 JUMPI DUP1 PUSH4 0x9FD9BCA EQ PUSH2 0x2DB JUMPI DUP1 PUSH4 0xDA5A1B7 EQ PUSH2 0x312 JUMPI DUP1 PUSH4 0x117AEA11 EQ PUSH2 0x327 JUMPI DUP1 PUSH4 0x1A454B92 EQ PUSH2 0x348 JUMPI DUP1 PUSH4 0x29FC7BD8 EQ PUSH2 0x367 JUMPI JUMPDEST PUSH0 PUSH0 REVERT JUMPDEST CALLVALUE DUP1 ISZERO PUSH2 0x2B4 JUMPI PUSH0 PUSH0 REVERT JUMPDEST POP PUSH2 0x2C8 PUSH2 0x2C3 CALLDATASIZE PUSH1 0x4 PUSH2 0x2DBD JUMP JUMPDEST PUSH2 0x8F6 JUMP JUMPDEST PUSH1 0x40 MLOAD SWAP1 DUP2 MSTORE PUSH1 0x20 ADD JUMPDEST PUSH1 0x40 MLOAD DUP1 SWAP2 SUB SWAP1 RETURN JUMPDEST CALLVALUE DUP1 ISZERO PUSH2 0x2E6 JUMPI PUSH0 PUSH0 REVERT JUMPDEST POP PUSH1 0x6 SLOAD PUSH2 0x2FA SWAP1 PUSH1 0x1 PUSH1 0x1 PUSH1 0xA0 SHL SUB AND DUP2 JUMP JUMPDEST PUSH1 0x40 MLOAD PUSH1 0x1 PUSH1 0x1 PUSH1 0xA0 SHL SUB SWAP1 SWAP2 AND DUP2 MSTORE PUSH1 0x20 ADD PUSH2 0x2D2 JUMP JUMPDEST CALLVALUE DUP1 ISZERO PUSH2 0x31D JUMPI PUSH0 PUSH0 REVERT JUMPDEST POP PUSH2 0x2C8 PUSH1 0xE SLOAD DUP2 JUMP JUMPDEST CALLVALUE DUP1 ISZERO PUSH2 0x332 JUMPI PUSH0 PUSH0 REVERT JUMPDEST POP PUSH2 0x346 PUSH2 0x341 CALLDATASIZE PUSH1 0x4 PUSH2 0x2DE8 JUMP JUMPDEST PUSH2 0x915 JUMP JUMPDEST STOP JUMPDEST CALLVALUE DUP1 ISZERO PUSH2 0x353 JUMPI PUSH0 PUSH0 REVERT JUMPDEST POP PUSH2 0x2C8 PUSH2 0x362 CALLDATASIZE PUSH1 0x4 PUSH2 0x2DBD JUMP JUMPDEST PUSH2 0xDF6 JUMP JUMPDEST CALLVALUE DUP1 ISZERO PUSH2 0x372 JUMPI PUSH0 PUSH0 REVERT JUMPDEST POP PUSH2 0x2C8 PUSH1 0x14 SLOAD DUP2 JUMP JUMPDEST CALLVALUE DUP1 ISZERO PUSH2 0x387 JUMPI PUSH0 PUSH0 REVERT JUMPDEST POP PUSH2 0x2FA PUSH2 0x396 CALLDATASIZE PUSH1 0x4 PUSH2 0x2DBD JUMP JUMPDEST PUSH1 0x1E PUSH1 0x20 MSTORE PUSH0 SWAP1 DUP2 MSTORE PUSH1 0x40 SWAP1 KECCAK256 SLOAD PUSH1 0x1 PUSH1 0x1 PUSH1 0xA0 SHL SUB AND DUP2 JUMP JUMPDEST CALLVALUE DUP1 ISZERO PUSH2 0x3BB JUMPI PUSH0 PUSH0 REVERT JUMPDEST POP PUSH2 0x2C8 PUSH1 0x15 SLOAD DUP2 JUMP JUMPDEST CALLVALUE DUP1 ISZERO PUSH2 0x3D0 JUMPI PUSH0 PUSH0 REVERT JUMPDEST POP PUSH2 0x2C8 PUSH1 0x12 SLOAD DUP2 JUMP JUMPDEST CALLVALUE DUP1 ISZERO PUSH2 0x3E5 JUMPI PUSH0 PUSH0 REVERT JUMPDEST POP PUSH2 0x2C8 PUSH1 0x13 SLOAD DUP2 JUMP JUMPDEST CALLVALUE DUP1 ISZERO PUSH2 0x3FA JUMPI PUSH0 PUSH0 REVERT JUMPDEST POP PUSH2 0x2C8 PUSH1 0xC SLOAD DUP2 JUMP JUMPDEST CALLVALUE DUP1 ISZERO PUSH2 0x40F JUMPI PUSH0 PUSH0 REVERT JUMPDEST POP PUSH2 0x2C8 PUSH1 0x10 SLOAD DUP2 JUMP JUMPDEST CALLVALUE DUP1 ISZERO PUSH2 0x424 JUMPI PUSH0 PUSH0 REVERT JUMPDEST POP PUSH2 0x346 PUSH2 0x433 CALLDATASIZE PUSH1 0x4 PUSH2 0x2E1F JUMP JUMPDEST PUSH2 0xF14 JUMP JUMPDEST CALLVALUE DUP1 ISZERO PUSH2 0x443 JUMPI PUSH0 PUSH0 REVERT JUMPDEST POP PUSH2 0x346 PUSH2 0x1332 JUMP JUMPDEST CALLVALUE DUP1 ISZERO PUSH2 0x457 JUMPI PUSH0 PUSH0 REVERT JUMPDEST POP PUSH2 0x2C8 PUSH2 0x466 CALLDATASIZE PUSH1 0x4 PUSH2 0x2DBD JUMP JUMPDEST PUSH1 0x1B PUSH1 0x20 MSTORE PUSH0 SWAP1 DUP2 MSTORE PUSH1 0x40 SWAP1 KECCAK256 SLOAD DUP2 JUMP JUMPDEST CALLVALUE DUP1 ISZERO PUSH2 0x482 JUMPI PUSH0 PUSH0 REVERT JUMPDEST POP PUSH2 0x496 PUSH2 0x491 CALLDATASIZE PUSH1 0x4 PUSH2 0x2E55 JUMP JUMPDEST PUSH2 0x136F JUMP JUMPDEST PUSH1 0x40 MLOAD SWAP1 ISZERO ISZERO DUP2 MSTORE PUSH1 0x20 ADD PUSH2 0x2D2 JUMP JUMPDEST CALLVALUE DUP1 ISZERO PUSH2 0x4B1 JUMPI PUSH0 PUSH0 REVERT JUMPDEST POP PUSH1 0x3 SLOAD PUSH2 0x2FA SWAP1 PUSH1 0x1 PUSH1 0x1 PUSH1 0xA0 SHL SUB AND DUP2 JUMP JUMPDEST CALLVALUE DUP1 ISZERO PUSH2 0x4D0 JUMPI PUSH0 PUSH0 REVERT JUMPDEST POP PUSH2 0x496 PUSH2 0x4DF CALLDATASIZE PUSH1 0x4 PUSH2 0x2E55 JUMP JUMPDEST PUSH1 0x1C PUSH1 0x20 MSTORE PUSH0 SWAP1 DUP2 MSTORE PUSH1 0x40 SWAP1 KECCAK256 SLOAD PUSH1 0xFF AND DUP2 JUMP JUMPDEST CALLVALUE DUP1 ISZERO PUSH2 0x4FE JUMPI PUSH0 PUSH0 REVERT JUMPDEST POP PUSH0 SLOAD PUSH1 0x1 PUSH1 0xA0 SHL SWAP1 DIV PUSH1 0xFF AND PUSH2 0x496 JUMP JUMPDEST CALLVALUE DUP1 ISZERO PUSH2 0x51B JUMPI PUSH0 PUSH0 REVERT JUMPDEST POP PUSH2 0x346 PUSH2 0x52A CALLDATASIZE PUSH1 0x4 PUSH2 0x2DE8 JUMP JUMPDEST PUSH2 0x138B JUMP JUMPDEST CALLVALUE DUP1 ISZERO PUSH2 0x53A JUMPI PUSH0 PUSH0 REVERT JUMPDEST POP PUSH2 0x346 PUSH2 0x549 CALLDATASIZE PUSH1 0x4 PUSH2 0x2E1F JUMP JUMPDEST PUSH2 0x1639 JUMP JUMPDEST CALLVALUE DUP1 ISZERO PUSH2 0x559 JUMPI PUSH0 PUSH0 REVERT JUMPDEST POP PUSH2 0x2C8 PUSH1 0x17 SLOAD DUP2 JUMP JUMPDEST CALLVALUE DUP1 ISZERO PUSH2 0x56E JUMPI PUSH0 PUSH0 REVERT JUMPDEST POP PUSH2 0x2C8 PUSH1 0xB SLOAD DUP2 JUMP JUMPDEST CALLVALUE DUP1 ISZERO PUSH2 0x583 JUMPI PUSH0 PUSH0 REVERT JUMPDEST POP PUSH2 0x346 PUSH2 0x1C09 JUMP JUMPDEST CALLVALUE DUP1 ISZERO PUSH2 0x597 JUMPI PUSH0 PUSH0 REVERT JUMPDEST POP PUSH1 0x1F SLOAD PUSH2 0x2FA SWAP1 PUSH1 0x1 PUSH1 0x1 PUSH1 0xA0 SHL SUB AND DUP2 JUMP JUMPDEST CALLVALUE DUP1 ISZERO PUSH2 0x5B6 JUMPI PUSH0 PUSH0 REVERT JUMPDEST POP PUSH2 0x346 PUSH2 0x5C5 CALLDATASIZE PUSH1 0x4 PUSH2 0x2DE8 JUMP JUMPDEST PUSH2 0x1C1A JUMP JUMPDEST CALLVALUE DUP1 ISZERO PUSH2 0x5D5 JUMPI PUSH0 PUSH0 REVERT JUMPDEST POP PUSH2 0x2C8 PUSH2 0x5E4 CALLDATASIZE PUSH1 0x4 PUSH2 0x2EDF JUMP JUMPDEST PUSH2 0x1EE6 JUMP JUMPDEST CALLVALUE DUP1 ISZERO PUSH2 0x5F4 JUMPI PUSH0 PUSH0 REVERT JUMPDEST POP PUSH2 0x346 PUSH2 0x603 CALLDATASIZE PUSH1 0x4 PUSH2 0x2F8E JUMP JUMPDEST PUSH2 0x1F86 JUMP JUMPDEST CALLVALUE DUP1 ISZERO PUSH2 0x613 JUMPI PUSH0 PUSH0 REVERT JUMPDEST POP PUSH2 0x2C8 PUSH1 0x16 SLOAD DUP2 JUMP JUMPDEST CALLVALUE DUP1 ISZERO PUSH2 0x628 JUMPI PUSH0 PUSH0 REVERT JUMPDEST POP PUSH2 0x2C8 PUSH2 0x637 CALLDATASIZE PUSH1 0x4 PUSH2 0x2DBD JUMP JUMPDEST PUSH2 0x206E JUMP JUMPDEST PUSH2 0x346 PUSH2 0x64A CALLDATASIZE PUSH1 0x4 PUSH2 0x3016 JUMP JUMPDEST PUSH2 0x207D JUMP JUMPDEST CALLVALUE DUP1 ISZERO PUSH2 0x65A JUMPI PUSH0 PUSH0 REVERT JUMPDEST POP PUSH2 0x346 PUSH2 0x21FD JUMP JUMPDEST CALLVALUE DUP1 ISZERO PUSH2 0x66E JUMPI PUSH0 PUSH0 REVERT JUMPDEST POP PUSH0 SLOAD PUSH1 0x1 PUSH1 0x1 PUSH1 0xA0 SHL SUB AND PUSH2 0x2FA JUMP JUMPDEST CALLVALUE DUP1 ISZERO PUSH2 0x68A JUMPI PUSH0 PUSH0 REVERT JUMPDEST POP PUSH2 0x2C8 PUSH1 0x9 SLOAD DUP2 JUMP JUMPDEST CALLVALUE DUP1 ISZERO PUSH2 0x69F JUMPI PUSH0 PUSH0 REVERT JUMPDEST POP PUSH2 0x719 PUSH2 0x6AE CALLDATASIZE PUSH1 0x4 PUSH2 0x2E55 JUMP JUMPDEST PUSH1 0x1D PUSH1 0x20 MSTORE PUSH0 SWAP1 DUP2 MSTORE PUSH1 0x40 SWAP1 KECCAK256 DUP1 SLOAD PUSH1 0x1 DUP3 ADD SLOAD PUSH1 0x2 DUP4 ADD SLOAD PUSH1 0x3 DUP5 ADD SLOAD PUSH1 0x4 DUP6 ADD SLOAD PUSH1 0x5 DUP7 ADD SLOAD PUSH1 0x6 DUP8 ADD SLOAD PUSH1 0x7 DUP9 ADD SLOAD PUSH1 0x8 DUP10 ADD SLOAD PUSH1 0x9 DUP11 ADD SLOAD PUSH1 0xA DUP12 ADD SLOAD PUSH1 0xB SWAP1 SWAP12 ADD SLOAD SWAP10 SWAP11 PUSH1 0x1 PUSH1 0x1 PUSH1 0xA0 SHL SUB SWAP1 SWAP10 AND SWAP10 SWAP8 SWAP9 SWAP7 SWAP8 SWAP6 SWAP7 SWAP5 SWAP6 SWAP4 SWAP5 SWAP3 SWAP4 SWAP2 SWAP3 SWAP1 SWAP2 PUSH1 0xFF AND DUP13 JUMP JUMPDEST PUSH1 0x40 DUP1 MLOAD SWAP13 DUP14 MSTORE PUSH1 0x1 PUSH1 0x1 PUSH1 0xA0 SHL SUB SWAP1 SWAP12 AND PUSH1 0x20 DUP14 ADD MSTORE SWAP10 DUP12 ADD SWAP9 SWAP1 SWAP9 MSTORE PUSH1 0x60 DUP11 ADD SWAP7 SWAP1 SWAP7 MSTORE PUSH1 0x80 DUP10 ADD SWAP5 SWAP1 SWAP5 MSTORE PUSH1 0xA0 DUP9 ADD SWAP3 SWAP1 SWAP3 MSTORE PUSH1 0xC0 DUP8 ADD MSTORE PUSH1 0xE0 DUP7 ADD MSTORE PUSH2 0x100 DUP6 ADD MSTORE PUSH2 0x120 DUP5 ADD MSTORE PUSH2 0x140 DUP4 ADD MSTORE ISZERO ISZERO PUSH2 0x160 DUP3 ADD MSTORE PUSH2 0x180 ADD PUSH2 0x2D2 JUMP JUMPDEST CALLVALUE DUP1 ISZERO PUSH2 0x787 JUMPI PUSH0 PUSH0 REVERT JUMPDEST POP PUSH1 0x4 SLOAD PUSH2 0x2FA SWAP1 PUSH1 0x1 PUSH1 0x1 PUSH1 0xA0 SHL SUB AND DUP2 JUMP JUMPDEST CALLVALUE DUP1 ISZERO PUSH2 0x7A6 JUMPI PUSH0 PUSH0 REVERT JUMPDEST POP PUSH1 0x5 SLOAD PUSH2 0x2FA SWAP1 PUSH1 0x1 PUSH1 0x1 PUSH1 0xA0 SHL SUB AND DUP2 JUMP JUMPDEST CALLVALUE DUP1 ISZERO PUSH2 0x7C5 JUMPI PUSH0 PUSH0 REVERT JUMPDEST POP PUSH1 0x11 SLOAD PUSH2 0x496 SWAP1 PUSH1 0xFF AND DUP2 JUMP JUMPDEST CALLVALUE DUP1 ISZERO PUSH2 0x7DE JUMPI PUSH0 PUSH0 REVERT JUMPDEST POP PUSH2 0x2C8 PUSH1 0xA SLOAD DUP2 JUMP JUMPDEST CALLVALUE DUP1 ISZERO PUSH2 0x7F3 JUMPI PUSH0 PUSH0 REVERT JUMPDEST POP PUSH2 0x346 PUSH2 0x802 CALLDATASIZE PUSH1 0x4 PUSH2 0x2E1F JUMP JUMPDEST PUSH2 0x2238 JUMP JUMPDEST CALLVALUE DUP1 ISZERO PUSH2 0x812 JUMPI PUSH0 PUSH0 REVERT JUMPDEST POP PUSH2 0x2C8 PUSH1 0x7 SLOAD DUP2 JUMP JUMPDEST CALLVALUE DUP1 ISZERO PUSH2 0x827 JUMPI PUSH0 PUSH0 REVERT JUMPDEST POP PUSH2 0x2C8 PUSH1 0x8 SLOAD DUP2 JUMP JUMPDEST CALLVALUE DUP1 ISZERO PUSH2 0x83C JUMPI PUSH0 PUSH0 REVERT JUMPDEST POP PUSH2 0x2C8 PUSH1 0xD SLOAD DUP2 JUMP JUMPDEST CALLVALUE DUP1 ISZERO PUSH2 0x851 JUMPI PUSH0 PUSH0 REVERT JUMPDEST POP PUSH2 0x2FA PUSH2 0x860 CALLDATASIZE PUSH1 0x4 PUSH2 0x2DBD JUMP JUMPDEST PUSH2 0x2574 JUMP JUMPDEST CALLVALUE DUP1 ISZERO PUSH2 0x870 JUMPI PUSH0 PUSH0 REVERT JUMPDEST POP PUSH2 0x346 PUSH2 0x87F CALLDATASIZE PUSH1 0x4 PUSH2 0x2E55 JUMP JUMPDEST PUSH2 0x259C JUMP JUMPDEST CALLVALUE DUP1 ISZERO PUSH2 0x88F JUMPI PUSH0 PUSH0 REVERT JUMPDEST POP PUSH2 0x346 PUSH2 0x89E CALLDATASIZE PUSH1 0x4 PUSH2 0x2DBD JUMP JUMPDEST PUSH2 0x2615 JUMP JUMPDEST CALLVALUE DUP1 ISZERO PUSH2 0x8AE JUMPI PUSH0 PUSH0 REVERT JUMPDEST POP PUSH1 0x2 SLOAD PUSH2 0x2FA SWAP1 PUSH1 0x1 PUSH1 0x1 PUSH1 0xA0 SHL SUB AND DUP2 JUMP JUMPDEST CALLVALUE DUP1 ISZERO PUSH2 0x8CD JUMPI PUSH0 PUSH0 REVERT JUMPDEST POP PUSH2 0x346 PUSH2 0x8DC CALLDATASIZE PUSH1 0x4 PUSH2 0x30F4 JUMP JUMPDEST PUSH2 0x26A3 JUMP JUMPDEST CALLVALUE DUP1 ISZERO PUSH2 0x8EC JUMPI PUSH0 PUSH0 REVERT JUMPDEST POP PUSH2 0x2C8 PUSH1 0xF SLOAD DUP2 JUMP JUMPDEST PUSH1 0x19 DUP2 DUP2 SLOAD DUP2 LT PUSH2 0x905 JUMPI PUSH0 DUP1 REVERT JUMPDEST PUSH0 SWAP2 DUP3 MSTORE PUSH1 0x20 SWAP1 SWAP2 KECCAK256 ADD SLOAD SWAP1 POP DUP2 JUMP JUMPDEST PUSH2 0x91E DUP3 PUSH2 0x136F JUMP JUMPDEST ISZERO PUSH2 0x944 JUMPI PUSH1 0x40 MLOAD PUSH3 0x461BCD PUSH1 0xE5 SHL DUP2 MSTORE PUSH1 0x4 ADD PUSH2 0x93B SWAP1 PUSH2 0x314D JUMP JUMPDEST PUSH1 0x40 MLOAD DUP1 SWAP2 SUB SWAP1 REVERT JUMPDEST PUSH2 0x94D DUP2 PUSH2 0x136F JUMP JUMPDEST PUSH2 0x999 JUMPI PUSH1 0x40 MLOAD PUSH3 0x461BCD PUSH1 0xE5 SHL DUP2 MSTORE PUSH1 0x20 PUSH1 0x4 DUP3 ADD MSTORE PUSH1 0x1C PUSH1 0x24 DUP3 ADD MSTORE PUSH32 0x4473636C61623A205265666572726572206E6F74204578697374732100000000 PUSH1 0x44 DUP3 ADD MSTORE PUSH1 0x64 ADD PUSH2 0x93B JUMP JUMPDEST PUSH2 0x9C1 CALLER JUMPDEST DUP3 PUSH1 0x40 MLOAD DUP1 PUSH1 0x40 ADD PUSH1 0x40 MSTORE DUP1 PUSH1 0x4 DUP2 MSTORE PUSH1 0x20 ADD PUSH4 0x1554D115 PUSH1 0xE2 SHL DUP2 MSTORE POP PUSH2 0x2A07 JUMP JUMPDEST PUSH1 0xB SLOAD PUSH1 0x4 SLOAD PUSH1 0x1 PUSH1 0x1 PUSH1 0xA0 SHL SUB AND PUSH4 0xDD62ED3E CALLER PUSH1 0x40 MLOAD PUSH1 0x1 PUSH1 0x1 PUSH1 0xE0 SHL SUB NOT PUSH1 0xE0 DUP5 SWAP1 SHL AND DUP2 MSTORE PUSH1 0x1 PUSH1 0x1 PUSH1 0xA0 SHL SUB SWAP1 SWAP2 AND PUSH1 0x4 DUP3 ADD MSTORE ADDRESS PUSH1 0x24 DUP3 ADD MSTORE PUSH1 0x44 ADD PUSH1 0x20 PUSH1 0x40 MLOAD DUP1 DUP4 SUB DUP2 DUP7 GAS STATICCALL ISZERO DUP1 ISZERO PUSH2 0xA1E JUMPI RETURNDATASIZE PUSH0 PUSH0 RETURNDATACOPY RETURNDATASIZE PUSH0 REVERT JUMPDEST POP POP POP POP PUSH1 0x40 MLOAD RETURNDATASIZE PUSH1 0x1F NOT PUSH1 0x1F DUP3 ADD AND DUP3 ADD DUP1 PUSH1 0x40 MSTORE POP DUP2 ADD SWAP1 PUSH2 0xA42 SWAP2 SWAP1 PUSH2 0x317B JUMP JUMPDEST LT ISZERO PUSH2 0xA85 JUMPI PUSH1 0x40 MLOAD PUSH3 0x461BCD PUSH1 0xE5 SHL DUP2 MSTORE PUSH1 0x20 PUSH1 0x4 DUP3 ADD MSTORE PUSH1 0x12 PUSH1 0x24 DUP3 ADD MSTORE PUSH18 0x2239B1B630B11D1030B63637BBB0B731B29 PUSH1 0x75 SHL PUSH1 0x44 DUP3 ADD MSTORE PUSH1 0x64 ADD PUSH2 0x93B JUMP JUMPDEST PUSH1 0x4 DUP1 SLOAD PUSH1 0xB SLOAD PUSH1 0x40 MLOAD PUSH4 0x23B872DD PUSH1 0xE0 SHL DUP2 MSTORE PUSH1 0x1 PUSH1 0x1 PUSH1 0xA0 SHL SUB SWAP1 SWAP3 AND SWAP3 PUSH4 0x23B872DD SWAP3 PUSH2 0xAB9 SWAP3 CALLER SWAP3 ADDRESS SWAP3 ADD PUSH2 0x3192 JUMP JUMPDEST PUSH1 0x20 PUSH1 0x40 MLOAD DUP1 DUP4 SUB DUP2 PUSH0 DUP8 GAS CALL ISZERO DUP1 ISZERO PUSH2 0xAD5 JUMPI RETURNDATASIZE PUSH0 PUSH0 RETURNDATACOPY RETURNDATASIZE PUSH0 REVERT JUMPDEST POP POP POP POP PUSH1 0x40 MLOAD RETURNDATASIZE PUSH1 0x1F NOT PUSH1 0x1F DUP3 ADD AND DUP3 ADD DUP1 PUSH1 0x40 MSTORE POP DUP2 ADD SWAP1 PUSH2 0xAF9 SWAP2 SWAP1 PUSH2 0x31B6 JUMP JUMPDEST POP PUSH1 0x4 DUP1 SLOAD PUSH1 0x1F SLOAD PUSH1 0xB SLOAD PUSH1 0x40 MLOAD PUSH4 0x95EA7B3 PUSH1 0xE0 SHL DUP2 MSTORE PUSH1 0x1 PUSH1 0x1 PUSH1 0xA0 SHL SUB SWAP3 DUP4 AND SWAP5 DUP2 ADD SWAP5 SWAP1 SWAP5 MSTORE PUSH1 0x24 DUP5 ADD MSTORE AND SWAP1 PUSH4 0x95EA7B3 SWAP1 PUSH1 0x44 ADD PUSH1 0x20 PUSH1 0x40 MLOAD DUP1 DUP4 SUB DUP2 PUSH0 DUP8 GAS CALL ISZERO DUP1 ISZERO PUSH2 0xB4F JUMPI RETURNDATASIZE PUSH0 PUSH0 RETURNDATACOPY RETURNDATASIZE PUSH0 REVERT JUMPDEST POP POP POP POP PUSH1 0x40 MLOAD RETURNDATASIZE PUSH1 0x1F NOT PUSH1 0x1F DUP3 ADD AND DUP3 ADD DUP1 PUSH1 0x40 MSTORE POP DUP2 ADD SWAP1 PUSH2 0xB73 SWAP2 SWAP1 PUSH2 0x31B6 JUMP JUMPDEST POP PUSH1 0x40 DUP1 MLOAD PUSH1 0x2 DUP1 DUP3 MSTORE PUSH1 0x60 DUP3 ADD DUP4 MSTORE PUSH0 SWAP3 PUSH1 0x20 DUP4 ADD SWAP1 DUP1 CALLDATASIZE DUP4 CALLDATACOPY POP POP PUSH1 0x4 SLOAD DUP3 MLOAD SWAP3 SWAP4 POP PUSH1 0x1 PUSH1 0x1 PUSH1 0xA0 SHL SUB AND SWAP2 DUP4 SWAP2 POP PUSH0 SWAP1 PUSH2 0xBB3 JUMPI PUSH2 0xBB3 PUSH2 0x31D5 JUMP JUMPDEST PUSH1 0x1 PUSH1 0x1 PUSH1 0xA0 SHL SUB SWAP3 DUP4 AND PUSH1 0x20 SWAP2 DUP3 MUL SWAP3 SWAP1 SWAP3 ADD ADD MSTORE PUSH1 0x5 SLOAD DUP3 MLOAD SWAP2 AND SWAP1 DUP3 SWAP1 PUSH1 0x1 SWAP1 DUP2 LT PUSH2 0xBE4 JUMPI PUSH2 0xBE4 PUSH2 0x31D5 JUMP JUMPDEST PUSH1 0x1 PUSH1 0x1 PUSH1 0xA0 SHL SUB SWAP3 DUP4 AND PUSH1 0x20 SWAP2 DUP3 MUL SWAP3 SWAP1 SWAP3 ADD ADD MSTORE PUSH1 0x1F SLOAD PUSH1 0xB SLOAD PUSH1 0x40 MLOAD PUSH4 0xD06CA61F PUSH1 0xE0 SHL DUP2 MSTORE PUSH0 SWAP4 SWAP3 SWAP1 SWAP3 AND SWAP2 PUSH4 0xD06CA61F SWAP2 PUSH2 0xC28 SWAP2 DUP7 SWAP1 PUSH1 0x4 ADD PUSH2 0x322C JUMP JUMPDEST PUSH0 PUSH1 0x40 MLOAD DUP1 DUP4 SUB DUP2 DUP7 GAS STATICCALL ISZERO DUP1 ISZERO PUSH2 0xC42 JUMPI RETURNDATASIZE PUSH0 PUSH0 RETURNDATACOPY RETURNDATASIZE PUSH0 REVERT JUMPDEST POP POP POP POP PUSH1 0x40 MLOAD RETURNDATASIZE PUSH0 DUP3 RETURNDATACOPY PUSH1 0x1F RETURNDATASIZE SWAP1 DUP2 ADD PUSH1 0x1F NOT AND DUP3 ADD PUSH1 0x40 MSTORE PUSH2 0xC69 SWAP2 SWAP1 DUP2 ADD SWAP1 PUSH2 0x324C JUMP JUMPDEST PUSH1 0x1F SLOAD PUSH1 0xB SLOAD DUP3 MLOAD SWAP3 SWAP4 POP PUSH1 0x1 PUSH1 0x1 PUSH1 0xA0 SHL SUB SWAP1 SWAP2 AND SWAP2 PUSH4 0x38ED1739 SWAP2 SWAP1 DUP5 SWAP1 PUSH1 0x1 SWAP1 DUP2 LT PUSH2 0xC9A JUMPI PUSH2 0xC9A PUSH2 0x31D5 JUMP JUMPDEST PUSH1 0x20 MUL PUSH1 0x20 ADD ADD MLOAD DUP6 ADDRESS TIMESTAMP PUSH1 0xA PUSH2 0xCB1 SWAP2 SWAP1 PUSH2 0x32E7 JUMP JUMPDEST PUSH1 0x40 MLOAD DUP7 PUSH4 0xFFFFFFFF AND PUSH1 0xE0 SHL DUP2 MSTORE PUSH1 0x4 ADD PUSH2 0xCD1 SWAP6 SWAP5 SWAP4 SWAP3 SWAP2 SWAP1 PUSH2 0x3300 JUMP JUMPDEST PUSH0 PUSH1 0x40 MLOAD DUP1 DUP4 SUB DUP2 PUSH0 DUP8 GAS CALL ISZERO DUP1 ISZERO PUSH2 0xCEC JUMPI RETURNDATASIZE PUSH0 PUSH0 RETURNDATACOPY RETURNDATASIZE PUSH0 REVERT JUMPDEST POP POP POP POP PUSH1 0x40 MLOAD RETURNDATASIZE PUSH0 DUP3 RETURNDATACOPY PUSH1 0x1F RETURNDATASIZE SWAP1 DUP2 ADD PUSH1 0x1F NOT AND DUP3 ADD PUSH1 0x40 MSTORE PUSH2 0xD13 SWAP2 SWAP1 DUP2 ADD SWAP1 PUSH2 0x324C JUMP JUMPDEST POP PUSH1 0x13 DUP1 SLOAD PUSH1 0x1 PUSH1 0x1 PUSH1 0xA0 SHL SUB DUP7 DUP2 AND PUSH0 DUP2 DUP2 MSTORE PUSH1 0x1D PUSH1 0x20 DUP2 DUP2 MSTORE PUSH1 0x40 DUP1 DUP5 KECCAK256 DUP8 DUP2 SSTORE SWAP7 DUP5 MSTORE PUSH1 0x1E DUP3 MSTORE DUP4 KECCAK256 DUP1 SLOAD PUSH1 0x1 PUSH1 0x1 PUSH1 0xA0 SHL SUB NOT SWAP1 DUP2 AND DUP7 OR SWAP1 SWAP2 SSTORE SWAP4 DUP4 MSTORE MSTORE PUSH1 0x1 SWAP1 SWAP4 ADD DUP1 SLOAD SWAP1 SWAP2 AND SWAP2 DUP8 AND SWAP2 SWAP1 SWAP2 OR SWAP1 SSTORE DUP2 SLOAD SWAP2 SWAP1 PUSH2 0xD76 DUP4 PUSH2 0x333B JUMP JUMPDEST SWAP1 SWAP2 SSTORE POP POP PUSH1 0x1 PUSH1 0x1 PUSH1 0xA0 SHL SUB DUP4 AND PUSH0 SWAP1 DUP2 MSTORE PUSH1 0x1D PUSH1 0x20 MSTORE PUSH1 0x40 DUP2 KECCAK256 PUSH1 0x2 ADD DUP1 SLOAD SWAP2 PUSH2 0xDA1 DUP4 PUSH2 0x333B JUMP JUMPDEST SWAP1 SWAP2 SSTORE POP POP PUSH1 0x1 PUSH1 0x1 PUSH1 0xA0 SHL SUB DUP5 DUP2 AND PUSH0 DUP2 DUP2 MSTORE PUSH1 0x1D PUSH1 0x20 MSTORE PUSH1 0x40 DUP1 DUP3 KECCAK256 SLOAD SWAP4 DUP8 AND DUP1 DUP4 MSTORE SWAP2 DUP2 SWAP1 KECCAK256 SLOAD SWAP1 MLOAD SWAP2 SWAP4 PUSH0 MLOAD PUSH1 0x20 PUSH2 0x36BE PUSH0 CODECOPY PUSH0 MLOAD SWAP1 PUSH0 MSTORE SWAP3 PUSH2 0xDE8 SWAP3 SWAP1 PUSH2 0x3353 JUMP JUMPDEST PUSH1 0x40 MLOAD DUP1 SWAP2 SUB SWAP1 LOG3 POP POP POP POP JUMP JUMPDEST PUSH1 0x40 DUP1 MLOAD PUSH1 0x2 DUP1 DUP3 MSTORE PUSH1 0x60 DUP3 ADD DUP4 MSTORE PUSH0 SWAP3 DUP4 SWAP3 SWAP2 SWAP1 PUSH1 0x20 DUP4 ADD SWAP1 DUP1 CALLDATASIZE DUP4 CALLDATACOPY POP POP PUSH1 0x4 SLOAD DUP3 MLOAD SWAP3 SWAP4 POP PUSH1 0x1 PUSH1 0x1 PUSH1 0xA0 SHL SUB AND SWAP2 DUP4 SWAP2 POP PUSH0 SWAP1 PUSH2 0xE39 JUMPI PUSH2 0xE39 PUSH2 0x31D5 JUMP JUMPDEST PUSH1 0x1 PUSH1 0x1 PUSH1 0xA0 SHL SUB SWAP3 DUP4 AND PUSH1 0x20 SWAP2 DUP3 MUL SWAP3 SWAP1 SWAP3 ADD ADD MSTORE PUSH1 0x5 SLOAD DUP3 MLOAD SWAP2 AND SWAP1 DUP3 SWAP1 PUSH1 0x1 SWAP1 DUP2 LT PUSH2 0xE6A JUMPI PUSH2 0xE6A PUSH2 0x31D5 JUMP JUMPDEST PUSH1 0x1 PUSH1 0x1 PUSH1 0xA0 SHL SUB SWAP3 DUP4 AND PUSH1 0x20 SWAP2 DUP3 MUL SWAP3 SWAP1 SWAP3 ADD ADD MSTORE PUSH1 0x1F SLOAD PUSH1 0x40 MLOAD PUSH4 0xD06CA61F PUSH1 0xE0 SHL DUP2 MSTORE PUSH0 SWAP3 SWAP2 SWAP1 SWAP2 AND SWAP1 PUSH4 0xD06CA61F SWAP1 PUSH2 0xEAD SWAP1 DUP8 SWAP1 DUP7 SWAP1 PUSH1 0x4 ADD PUSH2 0x322C JUMP JUMPDEST PUSH0 PUSH1 0x40 MLOAD DUP1 DUP4 SUB DUP2 DUP7 GAS STATICCALL ISZERO DUP1 ISZERO PUSH2 0xEC7 JUMPI RETURNDATASIZE PUSH0 PUSH0 RETURNDATACOPY RETURNDATASIZE PUSH0 REVERT JUMPDEST POP POP POP POP PUSH1 0x40 MLOAD RETURNDATASIZE PUSH0 DUP3 RETURNDATACOPY PUSH1 0x1F RETURNDATASIZE SWAP1 DUP2 ADD PUSH1 0x1F NOT AND DUP3 ADD PUSH1 0x40 MSTORE PUSH2 0xEEE SWAP2 SWAP1 DUP2 ADD SWAP1 PUSH2 0x324C JUMP JUMPDEST SWAP1 POP DUP1 PUSH1 0x1 DUP2 MLOAD DUP2 LT PUSH2 0xF03 JUMPI PUSH2 0xF03 PUSH2 0x31D5 JUMP JUMPDEST PUSH1 0x20 MUL PUSH1 0x20 ADD ADD MLOAD SWAP3 POP POP POP SWAP2 SWAP1 POP JUMP JUMPDEST PUSH2 0xF1D CALLER PUSH2 0x136F JUMP JUMPDEST PUSH2 0xF48 JUMPI PUSH2 0xF48 CALLER JUMPDEST DUP3 PUSH1 0x40 MLOAD DUP1 PUSH1 0x40 ADD PUSH1 0x40 MSTORE DUP1 PUSH1 0x3 DUP2 MSTORE PUSH1 0x20 ADD PUSH3 0x445343 PUSH1 0xE8 SHL DUP2 MSTORE POP PUSH2 0x2A07 JUMP JUMPDEST PUSH2 0xF51 CALLER PUSH2 0x136F JUMP JUMPDEST PUSH2 0xF6D JUMPI PUSH1 0x40 MLOAD PUSH3 0x461BCD PUSH1 0xE5 SHL DUP2 MSTORE PUSH1 0x4 ADD PUSH2 0x93B SWAP1 PUSH2 0x3382 JUMP JUMPDEST PUSH1 0xC SLOAD DUP4 LT ISZERO PUSH2 0xF8F JUMPI PUSH1 0x40 MLOAD PUSH3 0x461BCD PUSH1 0xE5 SHL DUP2 MSTORE PUSH1 0x4 ADD PUSH2 0x93B SWAP1 PUSH2 0x33B9 JUMP JUMPDEST PUSH1 0xD SLOAD DUP4 GT ISZERO PUSH2 0xFB1 JUMPI PUSH1 0x40 MLOAD PUSH3 0x461BCD PUSH1 0xE5 SHL DUP2 MSTORE PUSH1 0x4 ADD PUSH2 0x93B SWAP1 PUSH2 0x33F0 JUMP JUMPDEST DUP2 PUSH1 0x1 EQ PUSH2 0xFD1 JUMPI PUSH1 0x40 MLOAD PUSH3 0x461BCD PUSH1 0xE5 SHL DUP2 MSTORE PUSH1 0x4 ADD PUSH2 0x93B SWAP1 PUSH2 0x3427 JUMP JUMPDEST CALLER PUSH0 SWAP1 DUP2 MSTORE PUSH1 0x1D PUSH1 0x20 MSTORE PUSH1 0x40 SWAP1 KECCAK256 PUSH1 0x6 ADD SLOAD DUP1 ISZERO PUSH2 0x1009 JUMPI DUP1 DUP5 LT ISZERO PUSH2 0x1009 JUMPI PUSH1 0x40 MLOAD PUSH3 0x461BCD PUSH1 0xE5 SHL DUP2 MSTORE PUSH1 0x4 ADD PUSH2 0x93B SWAP1 PUSH2 0x3472 JUMP JUMPDEST PUSH1 0x40 DUP1 MLOAD PUSH1 0x2 DUP1 DUP3 MSTORE PUSH1 0x60 DUP3 ADD DUP4 MSTORE PUSH0 SWAP3 PUSH1 0x20 DUP4 ADD SWAP1 DUP1 CALLDATASIZE DUP4 CALLDATACOPY POP POP PUSH1 0x4 SLOAD DUP3 MLOAD SWAP3 SWAP4 POP PUSH1 0x1 PUSH1 0x1 PUSH1 0xA0 SHL SUB AND SWAP2 DUP4 SWAP2 POP PUSH0 SWAP1 PUSH2 0x1048 JUMPI PUSH2 0x1048 PUSH2 0x31D5 JUMP JUMPDEST PUSH1 0x1 PUSH1 0x1 PUSH1 0xA0 SHL SUB SWAP3 DUP4 AND PUSH1 0x20 SWAP2 DUP3 MUL SWAP3 SWAP1 SWAP3 ADD ADD MSTORE PUSH1 0x5 SLOAD DUP3 MLOAD SWAP2 AND SWAP1 DUP3 SWAP1 PUSH1 0x1 SWAP1 DUP2 LT PUSH2 0x1079 JUMPI PUSH2 0x1079 PUSH2 0x31D5 JUMP JUMPDEST PUSH1 0x20 MUL PUSH1 0x20 ADD ADD SWAP1 PUSH1 0x1 PUSH1 0x1 PUSH1 0xA0 SHL SUB AND SWAP1 DUP2 PUSH1 0x1 PUSH1 0x1 PUSH1 0xA0 SHL SUB AND DUP2 MSTORE POP POP PUSH0 PUSH2 0x10A3 DUP3 PUSH2 0x1EE6 JUMP JUMPDEST SWAP1 POP PUSH0 PUSH8 0xDE0B6B3A7640000 PUSH2 0x10B9 DUP4 DUP10 PUSH2 0x34CF JUMP JUMPDEST PUSH2 0x10C3 SWAP2 SWAP1 PUSH2 0x34E6 JUMP JUMPDEST PUSH1 0x5 SLOAD SWAP1 SWAP2 POP DUP2 SWAP1 PUSH1 0x1 PUSH1 0x1 PUSH1 0xA0 SHL SUB AND PUSH4 0xDD62ED3E CALLER PUSH1 0x40 MLOAD PUSH1 0x1 PUSH1 0x1 PUSH1 0xE0 SHL SUB NOT PUSH1 0xE0 DUP5 SWAP1 SHL AND DUP2 MSTORE PUSH1 0x1 PUSH1 0x1 PUSH1 0xA0 SHL SUB SWAP1 SWAP2 AND PUSH1 0x4 DUP3 ADD MSTORE ADDRESS PUSH1 0x24 DUP3 ADD MSTORE PUSH1 0x44 ADD PUSH1 0x20 PUSH1 0x40 MLOAD DUP1 DUP4 SUB DUP2 DUP7 GAS STATICCALL ISZERO DUP1 ISZERO PUSH2 0x1122 JUMPI RETURNDATASIZE PUSH0 PUSH0 RETURNDATACOPY RETURNDATASIZE PUSH0 REVERT JUMPDEST POP POP POP POP PUSH1 0x40 MLOAD RETURNDATASIZE PUSH1 0x1F NOT PUSH1 0x1F DUP3 ADD AND DUP3 ADD DUP1 PUSH1 0x40 MSTORE POP DUP2 ADD SWAP1 PUSH2 0x1146 SWAP2 SWAP1 PUSH2 0x317B JUMP JUMPDEST LT ISZERO PUSH2 0x1189 JUMPI PUSH1 0x40 MLOAD PUSH3 0x461BCD PUSH1 0xE5 SHL DUP2 MSTORE PUSH1 0x20 PUSH1 0x4 DUP3 ADD MSTORE PUSH1 0x12 PUSH1 0x24 DUP3 ADD MSTORE PUSH18 0x2229A1B630B11D1030B63637BBB0B731B29 PUSH1 0x75 SHL PUSH1 0x44 DUP3 ADD MSTORE PUSH1 0x64 ADD PUSH2 0x93B JUMP JUMPDEST PUSH1 0x5 SLOAD PUSH1 0x1 PUSH1 0x1 PUSH1 0xA0 SHL SUB AND PUSH4 0x23B872DD CALLER ADDRESS DUP5 PUSH1 0x40 MLOAD DUP5 PUSH4 0xFFFFFFFF AND PUSH1 0xE0 SHL DUP2 MSTORE PUSH1 0x4 ADD PUSH2 0x11BB SWAP4 SWAP3 SWAP2 SWAP1 PUSH2 0x3192 JUMP JUMPDEST PUSH1 0x20 PUSH1 0x40 MLOAD DUP1 DUP4 SUB DUP2 PUSH0 DUP8 GAS CALL ISZERO DUP1 ISZERO PUSH2 0x11D7 JUMPI RETURNDATASIZE PUSH0 PUSH0 RETURNDATACOPY RETURNDATASIZE PUSH0 REVERT JUMPDEST POP POP POP POP PUSH1 0x40 MLOAD RETURNDATASIZE PUSH1 0x1F NOT PUSH1 0x1F DUP3 ADD AND DUP3 ADD DUP1 PUSH1 0x40 MSTORE POP DUP2 ADD SWAP1 PUSH2 0x11FB SWAP2 SWAP1 PUSH2 0x31B6 JUMP JUMPDEST POP CALLER PUSH0 SWAP1 DUP2 MSTORE PUSH1 0x1D PUSH1 0x20 MSTORE PUSH1 0x40 DUP2 KECCAK256 PUSH1 0x1 DUP2 ADD SLOAD PUSH1 0x3 SWAP1 SWAP2 ADD SLOAD PUSH1 0x1 PUSH1 0x1 PUSH1 0xA0 SHL SUB SWAP1 SWAP2 AND SWAP2 DUP2 ISZERO PUSH2 0x124C JUMPI PUSH1 0x40 MLOAD DUP1 PUSH1 0x40 ADD PUSH1 0x40 MSTORE DUP1 PUSH1 0x7 DUP2 MSTORE PUSH1 0x20 ADD PUSH7 0x5265746F70757 PUSH1 0xCC SHL DUP2 MSTORE POP PUSH2 0x1269 JUMP JUMPDEST PUSH1 0x40 MLOAD DUP1 PUSH1 0x40 ADD PUSH1 0x40 MSTORE DUP1 PUSH1 0x3 DUP2 MSTORE PUSH1 0x20 ADD PUSH3 0x4E6577 PUSH1 0xE8 SHL DUP2 MSTORE POP JUMPDEST SWAP1 POP CALLER PUSH1 0x1 PUSH1 0x1 PUSH1 0xA0 SHL SUB AND PUSH32 0xABD608A4BA071391876D4741F99BA49362BD2FC5AFCF4F1FC9ECF91D6A73CCF8 DUP12 DUP7 DUP5 DUP14 PUSH1 0x40 MLOAD PUSH2 0x12AA SWAP5 SWAP4 SWAP3 SWAP2 SWAP1 PUSH2 0x3533 JUMP JUMPDEST PUSH1 0x40 MLOAD DUP1 SWAP2 SUB SWAP1 LOG2 CALLER PUSH0 SWAP1 DUP2 MSTORE PUSH1 0x1D PUSH1 0x20 MSTORE PUSH1 0x40 DUP2 KECCAK256 PUSH1 0x6 DUP2 ADD DUP13 SWAP1 SSTORE PUSH1 0x3 ADD DUP1 SLOAD DUP13 SWAP3 SWAP1 PUSH2 0x12DA SWAP1 DUP5 SWAP1 PUSH2 0x32E7 JUMP JUMPDEST SWAP1 SWAP2 SSTORE POP POP CALLER PUSH0 SWAP1 DUP2 MSTORE PUSH1 0x1D PUSH1 0x20 MSTORE PUSH1 0x40 DUP2 KECCAK256 PUSH1 0x3 ADD SLOAD SWAP1 DUP2 SWAP1 SUB PUSH2 0x1325 JUMPI PUSH1 0x1 PUSH1 0x1 PUSH1 0xA0 SHL SUB DUP5 AND PUSH0 SWAP1 DUP2 MSTORE PUSH1 0x1D PUSH1 0x20 MSTORE PUSH1 0x40 DUP2 KECCAK256 PUSH1 0x2 ADD DUP1 SLOAD SWAP2 PUSH2 0x131F DUP4 PUSH2 0x333B JUMP JUMPDEST SWAP2 SWAP1 POP SSTORE POP JUMPDEST POP POP POP POP POP POP POP POP POP POP POP JUMP JUMPDEST PUSH1 0x3 SLOAD PUSH1 0x1 PUSH1 0x1 PUSH1 0xA0 SHL SUB AND CALLER PUSH1 0x1 PUSH1 0x1 PUSH1 0xA0 SHL SUB AND EQ PUSH2 0x1365 JUMPI PUSH1 0x40 MLOAD PUSH3 0x461BCD PUSH1 0xE5 SHL DUP2 MSTORE PUSH1 0x4 ADD PUSH2 0x93B SWAP1 PUSH2 0x3585 JUMP JUMPDEST PUSH2 0x136D PUSH2 0x2B82 JUMP JUMPDEST JUMP JUMPDEST PUSH1 0x1 PUSH1 0x1 PUSH1 0xA0 SHL SUB AND PUSH0 SWAP1 DUP2 MSTORE PUSH1 0x1D PUSH1 0x20 MSTORE PUSH1 0x40 SWAP1 KECCAK256 SLOAD ISZERO ISZERO SWAP1 JUMP JUMPDEST PUSH2 0x1394 DUP3 PUSH2 0x136F JUMP JUMPDEST ISZERO PUSH2 0x13B1 JUMPI PUSH1 0x40 MLOAD PUSH3 0x461BCD PUSH1 0xE5 SHL DUP2 MSTORE PUSH1 0x4 ADD PUSH2 0x93B SWAP1 PUSH2 0x314D JUMP JUMPDEST PUSH2 0x13BA DUP2 PUSH2 0x136F JUMP JUMPDEST PUSH2 0x1406 JUMPI PUSH1 0x40 MLOAD PUSH3 0x461BCD PUSH1 0xE5 SHL DUP2 MSTORE PUSH1 0x20 PUSH1 0x4 DUP3 ADD DUP2 SWAP1 MSTORE PUSH1 0x24 DUP3 ADD MSTORE PUSH32 0x4473636C61623A20526566657272657220646F6573206E6F7420657869737421 PUSH1 0x44 DUP3 ADD MSTORE PUSH1 0x64 ADD PUSH2 0x93B JUMP JUMPDEST PUSH2 0x142E DUP3 DUP3 PUSH1 0x40 MLOAD DUP1 PUSH1 0x40 ADD PUSH1 0x40 MSTORE DUP1 PUSH1 0x5 DUP2 MSTORE PUSH1 0x20 ADD PUSH5 0x7374445343 PUSH1 0xD8 SHL DUP2 MSTORE POP PUSH2 0x2A07 JUMP JUMPDEST PUSH1 0xB SLOAD PUSH7 0x27CA57357C0000 SWAP1 PUSH0 SWAP1 DUP3 SWAP1 PUSH2 0x1450 SWAP1 PUSH8 0xDE0B6B3A7640000 PUSH2 0x34CF JUMP JUMPDEST PUSH2 0x145A SWAP2 SWAP1 PUSH2 0x34E6 JUMP JUMPDEST PUSH1 0x6 SLOAD SWAP1 SWAP2 POP DUP2 SWAP1 PUSH1 0x1 PUSH1 0x1 PUSH1 0xA0 SHL SUB AND PUSH4 0xDD62ED3E CALLER PUSH1 0x40 MLOAD PUSH1 0x1 PUSH1 0x1 PUSH1 0xE0 SHL SUB NOT PUSH1 0xE0 DUP5 SWAP1 SHL AND DUP2 MSTORE PUSH1 0x1 PUSH1 0x1 PUSH1 0xA0 SHL SUB SWAP1 SWAP2 AND PUSH1 0x4 DUP3 ADD MSTORE ADDRESS PUSH1 0x24 DUP3 ADD MSTORE PUSH1 0x44 ADD PUSH1 0x20 PUSH1 0x40 MLOAD DUP1 DUP4 SUB DUP2 DUP7 GAS STATICCALL ISZERO DUP1 ISZERO PUSH2 0x14B9 JUMPI RETURNDATASIZE PUSH0 PUSH0 RETURNDATACOPY RETURNDATASIZE PUSH0 REVERT JUMPDEST POP POP POP POP PUSH1 0x40 MLOAD RETURNDATASIZE PUSH1 0x1F NOT PUSH1 0x1F DUP3 ADD AND DUP3 ADD DUP1 PUSH1 0x40 MSTORE POP DUP2 ADD SWAP1 PUSH2 0x14DD SWAP2 SWAP1 PUSH2 0x317B JUMP JUMPDEST LT ISZERO PUSH2 0x152B JUMPI PUSH1 0x40 MLOAD PUSH3 0x461BCD PUSH1 0xE5 SHL DUP2 MSTORE PUSH1 0x20 PUSH1 0x4 DUP3 ADD DUP2 SWAP1 MSTORE PUSH1 0x24 DUP3 ADD MSTORE PUSH32 0x73744473636C61623A20496E73756666696369656E7420616C6C6F77616E6365 PUSH1 0x44 DUP3 ADD MSTORE PUSH1 0x64 ADD PUSH2 0x93B JUMP JUMPDEST PUSH1 0x6 SLOAD PUSH1 0x1 PUSH1 0x1 PUSH1 0xA0 SHL SUB AND PUSH4 0x23B872DD CALLER ADDRESS DUP5 PUSH1 0x40 MLOAD DUP5 PUSH4 0xFFFFFFFF AND PUSH1 0xE0 SHL DUP2 MSTORE PUSH1 0x4 ADD PUSH2 0x155D SWAP4 SWAP3 SWAP2 SWAP1 PUSH2 0x3192 JUMP JUMPDEST PUSH1 0x20 PUSH1 0x40 MLOAD DUP1 DUP4 SUB DUP2 PUSH0 DUP8 GAS CALL ISZERO DUP1 ISZERO PUSH2 0x1579 JUMPI RETURNDATASIZE PUSH0 PUSH0 RETURNDATACOPY RETURNDATASIZE PUSH0 REVERT JUMPDEST POP POP POP POP PUSH1 0x40 MLOAD RETURNDATASIZE PUSH1 0x1F NOT PUSH1 0x1F DUP3 ADD AND DUP3 ADD DUP1 PUSH1 0x40 MSTORE POP DUP2 ADD SWAP1 PUSH2 0x159D SWAP2 SWAP1 PUSH2 0x31B6 JUMP JUMPDEST POP PUSH1 0x6 SLOAD PUSH1 0x40 MLOAD PUSH4 0x852CD8D PUSH1 0xE3 SHL DUP2 MSTORE PUSH1 0x4 DUP2 ADD DUP4 SWAP1 MSTORE PUSH1 0x1 PUSH1 0x1 PUSH1 0xA0 SHL SUB SWAP1 SWAP2 AND SWAP1 PUSH4 0x42966C68 SWAP1 PUSH1 0x24 ADD PUSH0 PUSH1 0x40 MLOAD DUP1 DUP4 SUB DUP2 PUSH0 DUP8 DUP1 EXTCODESIZE ISZERO DUP1 ISZERO PUSH2 0x15E1 JUMPI PUSH0 PUSH0 REVERT JUMPDEST POP GAS CALL ISZERO DUP1 ISZERO PUSH2 0x15F3 JUMPI RETURNDATASIZE PUSH0 PUSH0 RETURNDATACOPY RETURNDATASIZE PUSH0 REVERT JUMPDEST POP POP POP POP PUSH1 0x1 PUSH1 0x1 PUSH1 0xA0 SHL SUB DUP5 DUP2 AND PUSH0 DUP2 DUP2 MSTORE PUSH1 0x1D PUSH1 0x20 MSTORE PUSH1 0x40 DUP1 DUP3 KECCAK256 SLOAD SWAP4 DUP8 AND DUP1 DUP4 MSTORE SWAP2 DUP2 SWAP1 KECCAK256 SLOAD SWAP1 MLOAD SWAP2 SWAP4 PUSH0 MLOAD PUSH1 0x20 PUSH2 0x36BE PUSH0 CODECOPY PUSH0 MLOAD SWAP1 PUSH0 MSTORE SWAP3 PUSH2 0xDE8 SWAP3 SWAP1 PUSH2 0x35C6 JUMP JUMPDEST PUSH2 0x1642 CALLER PUSH2 0x136F JUMP JUMPDEST PUSH2 0x164F JUMPI PUSH2 0x164F CALLER PUSH2 0x99E JUMP JUMPDEST PUSH2 0x1658 CALLER PUSH2 0x136F JUMP JUMPDEST PUSH2 0x1674 JUMPI PUSH1 0x40 MLOAD PUSH3 0x461BCD PUSH1 0xE5 SHL DUP2 MSTORE PUSH1 0x4 ADD PUSH2 0x93B SWAP1 PUSH2 0x3382 JUMP JUMPDEST PUSH1 0xC SLOAD DUP4 LT ISZERO PUSH2 0x1696 JUMPI PUSH1 0x40 MLOAD PUSH3 0x461BCD PUSH1 0xE5 SHL DUP2 MSTORE PUSH1 0x4 ADD PUSH2 0x93B SWAP1 PUSH2 0x33B9 JUMP JUMPDEST PUSH1 0xD SLOAD DUP4 GT ISZERO PUSH2 0x16B8 JUMPI PUSH1 0x40 MLOAD PUSH3 0x461BCD PUSH1 0xE5 SHL DUP2 MSTORE PUSH1 0x4 ADD PUSH2 0x93B SWAP1 PUSH2 0x33F0 JUMP JUMPDEST DUP2 PUSH1 0x1 EQ DUP1 PUSH2 0x16C7 JUMPI POP DUP2 PUSH1 0x2 EQ JUMPDEST PUSH2 0x1713 JUMPI PUSH1 0x40 MLOAD PUSH3 0x461BCD PUSH1 0xE5 SHL DUP2 MSTORE PUSH1 0x20 PUSH1 0x4 DUP3 ADD MSTORE PUSH1 0x1D PUSH1 0x24 DUP3 ADD MSTORE PUSH32 0x53656C656374204F6E6C7920506C616E20466C657869206F7220466978000000 PUSH1 0x44 DUP3 ADD MSTORE PUSH1 0x64 ADD PUSH2 0x93B JUMP JUMPDEST PUSH1 0x4 SLOAD DUP4 SWAP1 PUSH1 0x1 PUSH1 0x1 PUSH1 0xA0 SHL SUB AND PUSH4 0xDD62ED3E CALLER PUSH1 0x40 MLOAD PUSH1 0x1 PUSH1 0x1 PUSH1 0xE0 SHL SUB NOT PUSH1 0xE0 DUP5 SWAP1 SHL AND DUP2 MSTORE PUSH1 0x1 PUSH1 0x1 PUSH1 0xA0 SHL SUB SWAP1 SWAP2 AND PUSH1 0x4 DUP3 ADD MSTORE ADDRESS PUSH1 0x24 DUP3 ADD MSTORE PUSH1 0x44 ADD PUSH1 0x20 PUSH1 0x40 MLOAD DUP1 DUP4 SUB DUP2 DUP7 GAS STATICCALL ISZERO DUP1 ISZERO PUSH2 0x176F JUMPI RETURNDATASIZE PUSH0 PUSH0 RETURNDATACOPY RETURNDATASIZE PUSH0 REVERT JUMPDEST POP POP POP POP PUSH1 0x40 MLOAD RETURNDATASIZE PUSH1 0x1F NOT PUSH1 0x1F DUP3 ADD AND DUP3 ADD DUP1 PUSH1 0x40 MSTORE POP DUP2 ADD SWAP1 PUSH2 0x1793 SWAP2 SWAP1 PUSH2 0x317B JUMP JUMPDEST LT ISZERO PUSH2 0x17D5 JUMPI PUSH1 0x40 MLOAD PUSH3 0x461BCD PUSH1 0xE5 SHL DUP2 MSTORE PUSH1 0x20 PUSH1 0x4 DUP3 ADD MSTORE PUSH1 0x11 PUSH1 0x24 DUP3 ADD MSTORE PUSH17 0x3AB9B23A101D1030B63637BBB0B731B29 PUSH1 0x7D SHL PUSH1 0x44 DUP3 ADD MSTORE PUSH1 0x64 ADD PUSH2 0x93B JUMP JUMPDEST CALLER PUSH0 SWAP1 DUP2 MSTORE PUSH1 0x1D PUSH1 0x20 MSTORE PUSH1 0x40 SWAP1 KECCAK256 PUSH1 0x6 ADD SLOAD DUP1 ISZERO PUSH2 0x180D JUMPI DUP1 DUP5 LT ISZERO PUSH2 0x180D JUMPI PUSH1 0x40 MLOAD PUSH3 0x461BCD PUSH1 0xE5 SHL DUP2 MSTORE PUSH1 0x4 ADD PUSH2 0x93B SWAP1 PUSH2 0x3472 JUMP JUMPDEST PUSH1 0x4 SLOAD PUSH1 0x1 PUSH1 0x1 PUSH1 0xA0 SHL SUB AND PUSH4 0x23B872DD CALLER ADDRESS DUP8 PUSH1 0x40 MLOAD DUP5 PUSH4 0xFFFFFFFF AND PUSH1 0xE0 SHL DUP2 MSTORE PUSH1 0x4 ADD PUSH2 0x183F SWAP4 SWAP3 SWAP2 SWAP1 PUSH2 0x3192 JUMP JUMPDEST PUSH1 0x20 PUSH1 0x40 MLOAD DUP1 DUP4 SUB DUP2 PUSH0 DUP8 GAS CALL ISZERO DUP1 ISZERO PUSH2 0x185B JUMPI RETURNDATASIZE PUSH0 PUSH0 RETURNDATACOPY RETURNDATASIZE PUSH0 REVERT JUMPDEST POP POP POP POP PUSH1 0x40 MLOAD RETURNDATASIZE PUSH1 0x1F NOT PUSH1 0x1F DUP3 ADD AND DUP3 ADD DUP1 PUSH1 0x40 MSTORE POP DUP2 ADD SWAP1 PUSH2 0x187F SWAP2 SWAP1 PUSH2 0x31B6 JUMP JUMPDEST POP PUSH1 0x4 DUP1 SLOAD PUSH1 0x1F SLOAD PUSH1 0x40 MLOAD PUSH4 0x95EA7B3 PUSH1 0xE0 SHL DUP2 MSTORE PUSH1 0x1 PUSH1 0x1 PUSH1 0xA0 SHL SUB SWAP2 DUP3 AND SWAP4 DUP2 ADD SWAP4 SWAP1 SWAP4 MSTORE PUSH1 0x24 DUP4 ADD DUP8 SWAP1 MSTORE AND SWAP1 PUSH4 0x95EA7B3 SWAP1 PUSH1 0x44 ADD PUSH1 0x20 PUSH1 0x40 MLOAD DUP1 DUP4 SUB DUP2 PUSH0 DUP8 GAS CALL ISZERO DUP1 ISZERO PUSH2 0x18D4 JUMPI RETURNDATASIZE PUSH0 PUSH0 RETURNDATACOPY RETURNDATASIZE PUSH0 REVERT JUMPDEST POP POP POP POP PUSH1 0x40 MLOAD RETURNDATASIZE PUSH1 0x1F NOT PUSH1 0x1F DUP3 ADD AND DUP3 ADD DUP1 PUSH1 0x40 MSTORE POP DUP2 ADD SWAP1 PUSH2 0x18F8 SWAP2 SWAP1 PUSH2 0x31B6 JUMP JUMPDEST POP PUSH1 0x40 DUP1 MLOAD PUSH1 0x2 DUP1 DUP3 MSTORE PUSH1 0x60 DUP3 ADD DUP4 MSTORE PUSH0 SWAP3 PUSH1 0x20 DUP4 ADD SWAP1 DUP1 CALLDATASIZE DUP4 CALLDATACOPY POP POP PUSH1 0x4 SLOAD DUP3 MLOAD SWAP3 SWAP4 POP PUSH1 0x1 PUSH1 0x1 PUSH1 0xA0 SHL SUB AND SWAP2 DUP4 SWAP2 POP PUSH0 SWAP1 PUSH2 0x1938 JUMPI PUSH2 0x1938 PUSH2 0x31D5 JUMP JUMPDEST PUSH1 0x1 PUSH1 0x1 PUSH1 0xA0 SHL SUB SWAP3 DUP4 AND PUSH1 0x20 SWAP2 DUP3 MUL SWAP3 SWAP1 SWAP3 ADD ADD MSTORE PUSH1 0x5 SLOAD DUP3 MLOAD SWAP2 AND SWAP1 DUP3 SWAP1 PUSH1 0x1 SWAP1 DUP2 LT PUSH2 0x1969 JUMPI PUSH2 0x1969 PUSH2 0x31D5 JUMP JUMPDEST PUSH1 0x20 MUL PUSH1 0x20 ADD ADD SWAP1 PUSH1 0x1 PUSH1 0x1 PUSH1 0xA0 SHL SUB AND SWAP1 DUP2 PUSH1 0x1 PUSH1 0x1 PUSH1 0xA0 SHL SUB AND DUP2 MSTORE POP POP PUSH0 PUSH2 0x1993 DUP3 PUSH2 0x1EE6 JUMP JUMPDEST SWAP1 POP PUSH0 PUSH8 0xDE0B6B3A7640000 PUSH2 0x19A9 DUP4 DUP10 PUSH2 0x34CF JUMP JUMPDEST PUSH2 0x19B3 SWAP2 SWAP1 PUSH2 0x34E6 JUMP JUMPDEST PUSH1 0x1F SLOAD PUSH1 0x40 MLOAD PUSH4 0xD06CA61F PUSH1 0xE0 SHL DUP2 MSTORE SWAP2 SWAP3 POP PUSH0 SWAP2 PUSH1 0x1 PUSH1 0x1 PUSH1 0xA0 SHL SUB SWAP1 SWAP2 AND SWAP1 PUSH4 0xD06CA61F SWAP1 PUSH2 0x19EA SWAP1 DUP12 SWAP1 DUP9 SWAP1 PUSH1 0x4 ADD PUSH2 0x322C JUMP JUMPDEST PUSH0 PUSH1 0x40 MLOAD DUP1 DUP4 SUB DUP2 DUP7 GAS STATICCALL ISZERO DUP1 ISZERO PUSH2 0x1A04 JUMPI RETURNDATASIZE PUSH0 PUSH0 RETURNDATACOPY RETURNDATASIZE PUSH0 REVERT JUMPDEST POP POP POP POP PUSH1 0x40 MLOAD RETURNDATASIZE PUSH0 DUP3 RETURNDATACOPY PUSH1 0x1F RETURNDATASIZE SWAP1 DUP2 ADD PUSH1 0x1F NOT AND DUP3 ADD PUSH1 0x40 MSTORE PUSH2 0x1A2B SWAP2 SWAP1 DUP2 ADD SWAP1 PUSH2 0x324C JUMP JUMPDEST PUSH1 0x1F SLOAD DUP2 MLOAD SWAP2 SWAP3 POP PUSH1 0x1 PUSH1 0x1 PUSH1 0xA0 SHL SUB AND SWAP1 PUSH4 0x38ED1739 SWAP1 DUP11 SWAP1 DUP5 SWAP1 PUSH1 0x1 SWAP1 DUP2 LT PUSH2 0x1A58 JUMPI PUSH2 0x1A58 PUSH2 0x31D5 JUMP JUMPDEST PUSH1 0x20 MUL PUSH1 0x20 ADD ADD MLOAD DUP8 ADDRESS TIMESTAMP PUSH1 0xA PUSH2 0x1A6F SWAP2 SWAP1 PUSH2 0x32E7 JUMP JUMPDEST PUSH1 0x40 MLOAD DUP7 PUSH4 0xFFFFFFFF AND PUSH1 0xE0 SHL DUP2 MSTORE PUSH1 0x4 ADD PUSH2 0x1A8F SWAP6 SWAP5 SWAP4 SWAP3 SWAP2 SWAP1 PUSH2 0x3300 JUMP JUMPDEST PUSH0 PUSH1 0x40 MLOAD DUP1 DUP4 SUB DUP2 PUSH0 DUP8 GAS CALL ISZERO DUP1 ISZERO PUSH2 0x1AAA JUMPI RETURNDATASIZE PUSH0 PUSH0 RETURNDATACOPY RETURNDATASIZE PUSH0 REVERT JUMPDEST POP POP POP POP PUSH1 0x40 MLOAD RETURNDATASIZE PUSH0 DUP3 RETURNDATACOPY PUSH1 0x1F RETURNDATASIZE SWAP1 DUP2 ADD PUSH1 0x1F NOT AND DUP3 ADD PUSH1 0x40 MSTORE PUSH2 0x1AD1 SWAP2 SWAP1 DUP2 ADD SWAP1 PUSH2 0x324C JUMP JUMPDEST POP CALLER PUSH0 SWAP1 DUP2 MSTORE PUSH1 0x1D PUSH1 0x20 MSTORE PUSH1 0x40 DUP2 KECCAK256 PUSH1 0x1 DUP2 ADD SLOAD PUSH1 0x3 SWAP1 SWAP2 ADD SLOAD PUSH1 0x1 PUSH1 0x1 PUSH1 0xA0 SHL SUB SWAP1 SWAP2 AND SWAP2 DUP2 ISZERO PUSH2 0x1B22 JUMPI PUSH1 0x40 MLOAD DUP1 PUSH1 0x40 ADD PUSH1 0x40 MSTORE DUP1 PUSH1 0x7 DUP2 MSTORE PUSH1 0x20 ADD PUSH7 0x5265746F70757 PUSH1 0xCC SHL DUP2 MSTORE POP PUSH2 0x1B3F JUMP JUMPDEST PUSH1 0x40 MLOAD DUP1 PUSH1 0x40 ADD PUSH1 0x40 MSTORE DUP1 PUSH1 0x3 DUP2 MSTORE PUSH1 0x20 ADD PUSH3 0x4E6577 PUSH1 0xE8 SHL DUP2 MSTORE POP JUMPDEST SWAP1 POP CALLER PUSH1 0x1 PUSH1 0x1 PUSH1 0xA0 SHL SUB AND PUSH32 0xABD608A4BA071391876D4741F99BA49362BD2FC5AFCF4F1FC9ECF91D6A73CCF8 DUP13 DUP8 DUP5 DUP15 PUSH1 0x40 MLOAD PUSH2 0x1B80 SWAP5 SWAP4 SWAP3 SWAP2 SWAP1 PUSH2 0x35F6 JUMP JUMPDEST PUSH1 0x40 MLOAD DUP1 SWAP2 SUB SWAP1 LOG2 CALLER PUSH0 SWAP1 DUP2 MSTORE PUSH1 0x1D PUSH1 0x20 MSTORE PUSH1 0x40 DUP2 KECCAK256 PUSH1 0x6 DUP2 ADD DUP14 SWAP1 SSTORE PUSH1 0x3 ADD DUP1 SLOAD DUP14 SWAP3 SWAP1 PUSH2 0x1BB0 SWAP1 DUP5 SWAP1 PUSH2 0x32E7 JUMP JUMPDEST SWAP1 SWAP2 SSTORE POP POP CALLER PUSH0 SWAP1 DUP2 MSTORE PUSH1 0x1D PUSH1 0x20 MSTORE PUSH1 0x40 DUP2 KECCAK256 PUSH1 0x3 ADD SLOAD SWAP1 DUP2 SWAP1 SUB PUSH2 0x1BFB JUMPI PUSH1 0x1 PUSH1 0x1 PUSH1 0xA0 SHL SUB DUP5 AND PUSH0 SWAP1 DUP2 MSTORE PUSH1 0x1D PUSH1 0x20 MSTORE PUSH1 0x40 DUP2 KECCAK256 PUSH1 0x2 ADD DUP1 SLOAD SWAP2 PUSH2 0x1BF5 DUP4 PUSH2 0x333B JUMP JUMPDEST SWAP2 SWAP1 POP SSTORE POP JUMPDEST POP POP POP POP POP POP POP POP POP POP POP POP JUMP JUMPDEST PUSH2 0x1C11 PUSH2 0x2BD6 JUMP JUMPDEST PUSH2 0x136D PUSH0 PUSH2 0x2C2F JUMP JUMPDEST PUSH2 0x1C23 DUP3 PUSH2 0x136F JUMP JUMPDEST ISZERO PUSH2 0x1C40 JUMPI PUSH1 0x40 MLOAD PUSH3 0x461BCD PUSH1 0xE5 SHL DUP2 MSTORE PUSH1 0x4 ADD PUSH2 0x93B SWAP1 PUSH2 0x314D JUMP JUMPDEST PUSH2 0x1C49 DUP2 PUSH2 0x136F JUMP JUMPDEST PUSH2 0x1C95 JUMPI PUSH1 0x40 MLOAD PUSH3 0x461BCD PUSH1 0xE5 SHL DUP2 MSTORE PUSH1 0x20 PUSH1 0x4 DUP3 ADD MSTORE PUSH1 0x1C PUSH1 0x24 DUP3 ADD MSTORE PUSH32 0x4473636C61623A205265666572726572206E6F74204578697374732100000000 PUSH1 0x44 DUP3 ADD MSTORE PUSH1 0x64 ADD PUSH2 0x93B JUMP JUMPDEST PUSH2 0x1C9E CALLER PUSH2 0xF26 JUMP JUMPDEST PUSH1 0x40 DUP1 MLOAD PUSH1 0x2 DUP1 DUP3 MSTORE PUSH1 0x60 DUP3 ADD DUP4 MSTORE PUSH0 SWAP3 PUSH1 0x20 DUP4 ADD SWAP1 DUP1 CALLDATASIZE DUP4 CALLDATACOPY POP POP PUSH1 0x4 SLOAD DUP3 MLOAD SWAP3 SWAP4 POP PUSH1 0x1 PUSH1 0x1 PUSH1 0xA0 SHL SUB AND SWAP2 DUP4 SWAP2 POP PUSH0 SWAP1 PUSH2 0x1CDD JUMPI PUSH2 0x1CDD PUSH2 0x31D5 JUMP JUMPDEST PUSH1 0x1 PUSH1 0x1 PUSH1 0xA0 SHL SUB SWAP3 DUP4 AND PUSH1 0x20 SWAP2 DUP3 MUL SWAP3 SWAP1 SWAP3 ADD ADD MSTORE PUSH1 0x5 SLOAD DUP3 MLOAD SWAP2 AND SWAP1 DUP3 SWAP1 PUSH1 0x1 SWAP1 DUP2 LT PUSH2 0x1D0E JUMPI PUSH2 0x1D0E PUSH2 0x31D5 JUMP JUMPDEST PUSH1 0x20 MUL PUSH1 0x20 ADD ADD SWAP1 PUSH1 0x1 PUSH1 0x1 PUSH1 0xA0 SHL SUB AND SWAP1 DUP2 PUSH1 0x1 PUSH1 0x1 PUSH1 0xA0 SHL SUB AND DUP2 MSTORE POP POP PUSH0 PUSH2 0x1D38 DUP3 PUSH2 0x1EE6 JUMP JUMPDEST SWAP1 POP PUSH0 PUSH8 0xDE0B6B3A7640000 DUP3 PUSH1 0xB SLOAD PUSH2 0x1D52 SWAP2 SWAP1 PUSH2 0x34CF JUMP JUMPDEST PUSH2 0x1D5C SWAP2 SWAP1 PUSH2 0x34E6 JUMP JUMPDEST PUSH1 0x5 SLOAD SWAP1 SWAP2 POP DUP2 SWAP1 PUSH1 0x1 PUSH1 0x1 PUSH1 0xA0 SHL SUB AND PUSH4 0xDD62ED3E CALLER PUSH1 0x40 MLOAD PUSH1 0x1 PUSH1 0x1 PUSH1 0xE0 SHL SUB NOT PUSH1 0xE0 DUP5 SWAP1 SHL AND DUP2 MSTORE PUSH1 0x1 PUSH1 0x1 PUSH1 0xA0 SHL SUB SWAP1 SWAP2 AND PUSH1 0x4 DUP3 ADD MSTORE ADDRESS PUSH1 0x24 DUP3 ADD MSTORE PUSH1 0x44 ADD PUSH1 0x20 PUSH1 0x40 MLOAD DUP1 DUP4 SUB DUP2 DUP7 GAS STATICCALL ISZERO DUP1 ISZERO PUSH2 0x1DBB JUMPI RETURNDATASIZE PUSH0 PUSH0 RETURNDATACOPY RETURNDATASIZE PUSH0 REVERT JUMPDEST POP POP POP POP PUSH1 0x40 MLOAD RETURNDATASIZE PUSH1 0x1F NOT PUSH1 0x1F DUP3 ADD AND DUP3 ADD DUP1 PUSH1 0x40 MSTORE POP DUP2 ADD SWAP1 PUSH2 0x1DDF SWAP2 SWAP1 PUSH2 0x317B JUMP JUMPDEST LT ISZERO PUSH2 0x1E22 JUMPI PUSH1 0x40 MLOAD PUSH3 0x461BCD PUSH1 0xE5 SHL DUP2 MSTORE PUSH1 0x20 PUSH1 0x4 DUP3 ADD MSTORE PUSH1 0x12 PUSH1 0x24 DUP3 ADD MSTORE PUSH18 0x2229A1B630B11D1030B63637BBB0B731B29 PUSH1 0x75 SHL PUSH1 0x44 DUP3 ADD MSTORE PUSH1 0x64 ADD PUSH2 0x93B JUMP JUMPDEST PUSH1 0x5 SLOAD PUSH1 0x1 PUSH1 0x1 PUSH1 0xA0 SHL SUB AND PUSH4 0x23B872DD CALLER ADDRESS DUP5 PUSH1 0x40 MLOAD DUP5 PUSH4 0xFFFFFFFF AND PUSH1 0xE0 SHL DUP2 MSTORE PUSH1 0x4 ADD PUSH2 0x1E54 SWAP4 SWAP3 SWAP2 SWAP1 PUSH2 0x3192 JUMP JUMPDEST PUSH1 0x20 PUSH1 0x40 MLOAD DUP1 DUP4 SUB DUP2 PUSH0 DUP8 GAS CALL ISZERO DUP1 ISZERO PUSH2 0x1E70 JUMPI RETURNDATASIZE PUSH0 PUSH0 RETURNDATACOPY RETURNDATASIZE PUSH0 REVERT JUMPDEST POP POP POP POP PUSH1 0x40 MLOAD RETURNDATASIZE PUSH1 0x1F NOT PUSH1 0x1F DUP3 ADD AND DUP3 ADD DUP1 PUSH1 0x40 MSTORE POP DUP2 ADD SWAP1 PUSH2 0x1E94 SWAP2 SWAP1 PUSH2 0x31B6 JUMP JUMPDEST POP PUSH1 0x1 PUSH1 0x1 PUSH1 0xA0 SHL SUB DUP6 DUP2 AND PUSH0 DUP2 DUP2 MSTORE PUSH1 0x1D PUSH1 0x20 MSTORE PUSH1 0x40 DUP1 DUP3 KECCAK256 SLOAD SWAP4 DUP9 AND DUP1 DUP4 MSTORE SWAP2 DUP2 SWAP1 KECCAK256 SLOAD SWAP1 MLOAD SWAP2 SWAP4 PUSH0 MLOAD PUSH1 0x20 PUSH2 0x36BE PUSH0 CODECOPY PUSH0 MLOAD SWAP1 PUSH0 MSTORE SWAP3 PUSH2 0x1ED7 SWAP3 SWAP1 PUSH2 0x3625 JUMP JUMPDEST PUSH1 0x40 MLOAD DUP1 SWAP2 SUB SWAP1 LOG3 POP POP POP POP POP JUMP JUMPDEST PUSH1 0x1F SLOAD PUSH1 0x40 MLOAD PUSH4 0xD06CA61F PUSH1 0xE0 SHL DUP2 MSTORE PUSH0 SWAP2 PUSH8 0xDE0B6B3A7640000 SWAP2 DUP4 SWAP2 PUSH1 0x1 PUSH1 0x1 PUSH1 0xA0 SHL SUB AND SWAP1 PUSH4 0xD06CA61F SWAP1 PUSH2 0x1F24 SWAP1 DUP6 SWAP1 DUP9 SWAP1 PUSH1 0x4 ADD PUSH2 0x322C JUMP JUMPDEST PUSH0 PUSH1 0x40 MLOAD DUP1 DUP4 SUB DUP2 DUP7 GAS STATICCALL ISZERO DUP1 ISZERO PUSH2 0x1F3E JUMPI RETURNDATASIZE PUSH0 PUSH0 RETURNDATACOPY RETURNDATASIZE PUSH0 REVERT JUMPDEST POP POP POP POP PUSH1 0x40 MLOAD RETURNDATASIZE PUSH0 DUP3 RETURNDATACOPY PUSH1 0x1F RETURNDATASIZE SWAP1 DUP2 ADD PUSH1 0x1F NOT AND DUP3 ADD PUSH1 0x40 MSTORE PUSH2 0x1F65 SWAP2 SWAP1 DUP2 ADD SWAP1 PUSH2 0x324C JUMP JUMPDEST SWAP1 POP DUP1 PUSH1 0x1 DUP3 MLOAD PUSH2 0x1F76 SWAP2 SWAP1 PUSH2 0x3653 JUMP JUMPDEST DUP2 MLOAD DUP2 LT PUSH2 0xF03 JUMPI PUSH2 0xF03 PUSH2 0x31D5 JUMP JUMPDEST PUSH0 SLOAD PUSH1 0x1 PUSH1 0x1 PUSH1 0xA0 SHL SUB AND CALLER EQ PUSH2 0x1FCB JUMPI PUSH1 0x40 MLOAD PUSH3 0x461BCD PUSH1 0xE5 SHL DUP2 MSTORE PUSH1 0x20 PUSH1 0x4 DUP3 ADD MSTORE PUSH1 0x9 PUSH1 0x24 DUP3 ADD MSTORE PUSH9 0x37B7363CA7BBB732B9 PUSH1 0xB9 SHL PUSH1 0x44 DUP3 ADD MSTORE PUSH1 0x64 ADD PUSH2 0x93B JUMP JUMPDEST DUP1 PUSH1 0x1 PUSH1 0x1 PUSH1 0xA0 SHL SUB AND PUSH4 0xA9059CBB PUSH2 0x1FEB PUSH0 SLOAD PUSH1 0x1 PUSH1 0x1 PUSH1 0xA0 SHL SUB AND SWAP1 JUMP JUMPDEST PUSH2 0x1FFD DUP6 PUSH8 0xDE0B6B3A7640000 PUSH2 0x34CF JUMP JUMPDEST PUSH1 0x40 MLOAD PUSH1 0x1 PUSH1 0x1 PUSH1 0xE0 SHL SUB NOT PUSH1 0xE0 DUP6 SWAP1 SHL AND DUP2 MSTORE PUSH1 0x1 PUSH1 0x1 PUSH1 0xA0 SHL SUB SWAP1 SWAP3 AND PUSH1 0x4 DUP4 ADD MSTORE PUSH1 0x24 DUP3 ADD MSTORE PUSH1 0x44 ADD PUSH1 0x20 PUSH1 0x40 MLOAD DUP1 DUP4 SUB DUP2 PUSH0 DUP8 GAS CALL ISZERO DUP1 ISZERO PUSH2 0x2045 JUMPI RETURNDATASIZE PUSH0 PUSH0 RETURNDATACOPY RETURNDATASIZE PUSH0 REVERT JUMPDEST POP POP POP POP PUSH1 0x40 MLOAD RETURNDATASIZE PUSH1 0x1F NOT PUSH1 0x1F DUP3 ADD AND DUP3 ADD DUP1 PUSH1 0x40 MSTORE POP DUP2 ADD SWAP1 PUSH2 0x2069 SWAP2 SWAP1 PUSH2 0x31B6 JUMP JUMPDEST POP POP POP JUMP JUMPDEST PUSH1 0x18 DUP2 DUP2 SLOAD DUP2 LT PUSH2 0x905 JUMPI PUSH0 DUP1 REVERT JUMPDEST DUP2 PUSH0 JUMPDEST DUP6 MLOAD DUP2 LT ISZERO PUSH2 0x21F5 JUMPI DUP5 DUP2 DUP2 MLOAD DUP2 LT PUSH2 0x209B JUMPI PUSH2 0x209B PUSH2 0x31D5 JUMP JUMPDEST PUSH1 0x20 MUL PUSH1 0x20 ADD ADD MLOAD DUP3 LT ISZERO PUSH2 0x20AE JUMPI PUSH0 PUSH0 REVERT JUMPDEST DUP5 DUP2 DUP2 MLOAD DUP2 LT PUSH2 0x20C0 JUMPI PUSH2 0x20C0 PUSH2 0x31D5 JUMP JUMPDEST PUSH1 0x20 MUL PUSH1 0x20 ADD ADD MLOAD DUP3 PUSH2 0x20D3 SWAP2 SWAP1 PUSH2 0x3653 JUMP JUMPDEST SWAP2 POP DUP3 PUSH1 0x1 PUSH1 0x1 PUSH1 0xA0 SHL SUB AND PUSH4 0x23B872DD CALLER DUP9 DUP5 DUP2 MLOAD DUP2 LT PUSH2 0x20F7 JUMPI PUSH2 0x20F7 PUSH2 0x31D5 JUMP JUMPDEST PUSH1 0x20 MUL PUSH1 0x20 ADD ADD MLOAD DUP9 DUP6 DUP2 MLOAD DUP2 LT PUSH2 0x2111 JUMPI PUSH2 0x2111 PUSH2 0x31D5 JUMP JUMPDEST PUSH1 0x20 MUL PUSH1 0x20 ADD ADD MLOAD PUSH1 0x40 MLOAD DUP5 PUSH4 0xFFFFFFFF AND PUSH1 0xE0 SHL DUP2 MSTORE PUSH1 0x4 ADD PUSH2 0x2137 SWAP4 SWAP3 SWAP2 SWAP1 PUSH2 0x3192 JUMP JUMPDEST PUSH1 0x20 PUSH1 0x40 MLOAD DUP1 DUP4 SUB DUP2 PUSH0 DUP8 GAS CALL ISZERO DUP1 ISZERO PUSH2 0x2153 JUMPI RETURNDATASIZE PUSH0 PUSH0 RETURNDATACOPY RETURNDATASIZE PUSH0 REVERT JUMPDEST POP POP POP POP PUSH1 0x40 MLOAD RETURNDATASIZE PUSH1 0x1F NOT PUSH1 0x1F DUP3 ADD AND DUP3 ADD DUP1 PUSH1 0x40 MSTORE POP DUP2 ADD SWAP1 PUSH2 0x2177 SWAP2 SWAP1 PUSH2 0x31B6 JUMP JUMPDEST POP DUP6 DUP2 DUP2 MLOAD DUP2 LT PUSH2 0x218A JUMPI PUSH2 0x218A PUSH2 0x31D5 JUMP JUMPDEST PUSH1 0x20 MUL PUSH1 0x20 ADD ADD MLOAD PUSH1 0x1 PUSH1 0x1 PUSH1 0xA0 SHL SUB AND PUSH32 0xBD54BF7A35B4F30A5C2E53DF02C464DC7C2A159A96B24DBB41CD9808BD6E2E36 DUP7 DUP4 DUP2 MLOAD DUP2 LT PUSH2 0x21CE JUMPI PUSH2 0x21CE PUSH2 0x31D5 JUMP JUMPDEST PUSH1 0x20 MUL PUSH1 0x20 ADD ADD MLOAD PUSH1 0x40 MLOAD PUSH2 0x21E5 SWAP2 DUP2 MSTORE PUSH1 0x20 ADD SWAP1 JUMP JUMPDEST PUSH1 0x40 MLOAD DUP1 SWAP2 SUB SWAP1 LOG2 PUSH1 0x1 ADD PUSH2 0x2080 JUMP JUMPDEST POP POP POP POP POP POP JUMP JUMPDEST PUSH1 0x3 SLOAD PUSH1 0x1 PUSH1 0x1 PUSH1 0xA0 SHL SUB AND CALLER PUSH1 0x1 PUSH1 0x1 PUSH1 0xA0 SHL SUB AND EQ PUSH2 0x2230 JUMPI PUSH1 0x40 MLOAD PUSH3 0x461BCD PUSH1 0xE5 SHL DUP2 MSTORE PUSH1 0x4 ADD PUSH2 0x93B SWAP1 PUSH2 0x3585 JUMP JUMPDEST PUSH2 0x136D PUSH2 0x2C7E JUMP JUMPDEST PUSH2 0x2241 CALLER PUSH2 0x136F JUMP JUMPDEST PUSH2 0x226D JUMPI PUSH2 0x226D CALLER DUP3 PUSH1 0x40 MLOAD DUP1 PUSH1 0x40 ADD PUSH1 0x40 MSTORE DUP1 PUSH1 0x5 DUP2 MSTORE PUSH1 0x20 ADD PUSH5 0x7374445343 PUSH1 0xD8 SHL DUP2 MSTORE POP PUSH2 0x2A07 JUMP JUMPDEST PUSH2 0x2276 CALLER PUSH2 0x136F JUMP JUMPDEST PUSH2 0x2292 JUMPI PUSH1 0x40 MLOAD PUSH3 0x461BCD PUSH1 0xE5 SHL DUP2 MSTORE PUSH1 0x4 ADD PUSH2 0x93B SWAP1 PUSH2 0x3382 JUMP JUMPDEST PUSH1 0xC SLOAD DUP4 LT ISZERO PUSH2 0x22B4 JUMPI PUSH1 0x40 MLOAD PUSH3 0x461BCD PUSH1 0xE5 SHL DUP2 MSTORE PUSH1 0x4 ADD PUSH2 0x93B SWAP1 PUSH2 0x33B9 JUMP JUMPDEST PUSH1 0xD SLOAD DUP4 GT ISZERO PUSH2 0x22D6 JUMPI PUSH1 0x40 MLOAD PUSH3 0x461BCD PUSH1 0xE5 SHL DUP2 MSTORE PUSH1 0x4 ADD PUSH2 0x93B SWAP1 PUSH2 0x33F0 JUMP JUMPDEST DUP2 PUSH1 0x1 EQ PUSH2 0x22F6 JUMPI PUSH1 0x40 MLOAD PUSH3 0x461BCD PUSH1 0xE5 SHL DUP2 MSTORE PUSH1 0x4 ADD PUSH2 0x93B SWAP1 PUSH2 0x3427 JUMP JUMPDEST CALLER PUSH0 SWAP1 DUP2 MSTORE PUSH1 0x1D PUSH1 0x20 MSTORE PUSH1 0x40 SWAP1 KECCAK256 PUSH1 0x6 ADD SLOAD DUP1 ISZERO PUSH2 0x232E JUMPI DUP1 DUP5 LT ISZERO PUSH2 0x232E JUMPI PUSH1 0x40 MLOAD PUSH3 0x461BCD PUSH1 0xE5 SHL DUP2 MSTORE PUSH1 0x4 ADD PUSH2 0x93B SWAP1 PUSH2 0x3472 JUMP JUMPDEST PUSH7 0x27CA57357C0000 PUSH0 DUP2 PUSH2 0x234A DUP8 PUSH8 0xDE0B6B3A7640000 PUSH2 0x34CF JUMP JUMPDEST PUSH2 0x2354 SWAP2 SWAP1 PUSH2 0x34E6 JUMP JUMPDEST PUSH1 0x6 SLOAD PUSH1 0x40 MLOAD PUSH4 0x23B872DD PUSH1 0xE0 SHL DUP2 MSTORE SWAP2 SWAP3 POP PUSH1 0x1 PUSH1 0x1 PUSH1 0xA0 SHL SUB AND SWAP1 PUSH4 0x23B872DD SWAP1 PUSH2 0x2389 SWAP1 CALLER SWAP1 ADDRESS SWAP1 DUP7 SWAP1 PUSH1 0x4 ADD PUSH2 0x3192 JUMP JUMPDEST PUSH1 0x20 PUSH1 0x40 MLOAD DUP1 DUP4 SUB DUP2 PUSH0 DUP8 GAS CALL ISZERO DUP1 ISZERO PUSH2 0x23A5 JUMPI RETURNDATASIZE PUSH0 PUSH0 RETURNDATACOPY RETURNDATASIZE PUSH0 REVERT JUMPDEST POP POP POP POP PUSH1 0x40 MLOAD RETURNDATASIZE PUSH1 0x1F NOT PUSH1 0x1F DUP3 ADD AND DUP3 ADD DUP1 PUSH1 0x40 MSTORE POP DUP2 ADD SWAP1 PUSH2 0x23C9 SWAP2 SWAP1 PUSH2 0x31B6 JUMP JUMPDEST POP PUSH1 0x6 SLOAD PUSH1 0x40 MLOAD PUSH4 0x852CD8D PUSH1 0xE3 SHL DUP2 MSTORE PUSH1 0x4 DUP2 ADD DUP4 SWAP1 MSTORE PUSH1 0x1 PUSH1 0x1 PUSH1 0xA0 SHL SUB SWAP1 SWAP2 AND SWAP1 PUSH4 0x42966C68 SWAP1 PUSH1 0x24 ADD PUSH0 PUSH1 0x40 MLOAD DUP1 DUP4 SUB DUP2 PUSH0 DUP8 DUP1 EXTCODESIZE ISZERO DUP1 ISZERO PUSH2 0x240D JUMPI PUSH0 PUSH0 REVERT JUMPDEST POP GAS CALL ISZERO DUP1 ISZERO PUSH2 0x241F JUMPI RETURNDATASIZE PUSH0 PUSH0 RETURNDATACOPY RETURNDATASIZE PUSH0 REVERT JUMPDEST POP POP POP POP PUSH0 PUSH1 0x1D PUSH0 PUSH2 0x242E CALLER SWAP1 JUMP JUMPDEST PUSH1 0x1 PUSH1 0x1 PUSH1 0xA0 SHL SUB SWAP1 DUP2 AND DUP3 MSTORE PUSH1 0x20 DUP1 DUP4 ADD SWAP4 SWAP1 SWAP4 MSTORE PUSH1 0x40 SWAP2 DUP3 ADD PUSH0 SWAP1 DUP2 KECCAK256 PUSH1 0x1 ADD SLOAD CALLER DUP3 MSTORE PUSH1 0x1D SWAP1 SWAP5 MSTORE SWAP2 DUP3 KECCAK256 PUSH1 0x3 ADD SLOAD SWAP3 AND SWAP3 POP DUP2 ISZERO PUSH2 0x248F JUMPI PUSH1 0x40 MLOAD DUP1 PUSH1 0x40 ADD PUSH1 0x40 MSTORE DUP1 PUSH1 0x7 DUP2 MSTORE PUSH1 0x20 ADD PUSH7 0x5265746F70757 PUSH1 0xCC SHL DUP2 MSTORE POP PUSH2 0x24AC JUMP JUMPDEST PUSH1 0x40 MLOAD DUP1 PUSH1 0x40 ADD PUSH1 0x40 MSTORE DUP1 PUSH1 0x3 DUP2 MSTORE PUSH1 0x20 ADD PUSH3 0x4E6577 PUSH1 0xE8 SHL DUP2 MSTORE POP JUMPDEST SWAP1 POP CALLER PUSH1 0x1 PUSH1 0x1 PUSH1 0xA0 SHL SUB AND PUSH32 0xABD608A4BA071391876D4741F99BA49362BD2FC5AFCF4F1FC9ECF91D6A73CCF8 DUP11 DUP7 DUP5 DUP13 PUSH1 0x40 MLOAD PUSH2 0x24ED SWAP5 SWAP4 SWAP3 SWAP2 SWAP1 PUSH2 0x3666 JUMP JUMPDEST PUSH1 0x40 MLOAD DUP1 SWAP2 SUB SWAP1 LOG2 CALLER PUSH0 SWAP1 DUP2 MSTORE PUSH1 0x1D PUSH1 0x20 MSTORE PUSH1 0x40 DUP2 KECCAK256 PUSH1 0x6 DUP2 ADD DUP12 SWAP1 SSTORE PUSH1 0x3 ADD DUP1 SLOAD DUP12 SWAP3 SWAP1 PUSH2 0x251D SWAP1 DUP5 SWAP1 PUSH2 0x32E7 JUMP JUMPDEST SWAP1 SWAP2 SSTORE POP POP CALLER PUSH0 SWAP1 DUP2 MSTORE PUSH1 0x1D PUSH1 0x20 MSTORE PUSH1 0x40 DUP2 KECCAK256 PUSH1 0x3 ADD SLOAD SWAP1 DUP2 SWAP1 SUB PUSH2 0x2568 JUMPI PUSH1 0x1 PUSH1 0x1 PUSH1 0xA0 SHL SUB DUP5 AND PUSH0 SWAP1 DUP2 MSTORE PUSH1 0x1D PUSH1 0x20 MSTORE PUSH1 0x40 DUP2 KECCAK256 PUSH1 0x2 ADD DUP1 SLOAD SWAP2 PUSH2 0x2562 DUP4 PUSH2 0x333B JUMP JUMPDEST SWAP2 SWAP1 POP SSTORE POP JUMPDEST POP POP POP POP POP POP POP POP POP POP JUMP JUMPDEST PUSH1 0x1A DUP2 DUP2 SLOAD DUP2 LT PUSH2 0x2583 JUMPI PUSH0 DUP1 REVERT JUMPDEST PUSH0 SWAP2 DUP3 MSTORE PUSH1 0x20 SWAP1 SWAP2 KECCAK256 ADD SLOAD PUSH1 0x1 PUSH1 0x1 PUSH1 0xA0 SHL SUB AND SWAP1 POP DUP2 JUMP JUMPDEST PUSH2 0x25A4 PUSH2 0x2BD6 JUMP JUMPDEST PUSH1 0x1 PUSH1 0x1 PUSH1 0xA0 SHL SUB DUP2 AND PUSH2 0x2609 JUMPI PUSH1 0x40 MLOAD PUSH3 0x461BCD PUSH1 0xE5 SHL DUP2 MSTORE PUSH1 0x20 PUSH1 0x4 DUP3 ADD MSTORE PUSH1 0x26 PUSH1 0x24 DUP3 ADD MSTORE PUSH32 0x4F776E61626C653A206E6577206F776E657220697320746865207A65726F2061 PUSH1 0x44 DUP3 ADD MSTORE PUSH6 0x646472657373 PUSH1 0xD0 SHL PUSH1 0x64 DUP3 ADD MSTORE PUSH1 0x84 ADD PUSH2 0x93B JUMP JUMPDEST PUSH2 0x2612 DUP2 PUSH2 0x2C2F JUMP JUMPDEST POP JUMP JUMPDEST PUSH0 SLOAD PUSH1 0x1 PUSH1 0x1 PUSH1 0xA0 SHL SUB AND CALLER EQ PUSH2 0x265A JUMPI PUSH1 0x40 MLOAD PUSH3 0x461BCD PUSH1 0xE5 SHL DUP2 MSTORE PUSH1 0x20 PUSH1 0x4 DUP3 ADD MSTORE PUSH1 0x9 PUSH1 0x24 DUP3 ADD MSTORE PUSH9 0x37B7363CA7BBB732B9 PUSH1 0xB9 SHL PUSH1 0x44 DUP3 ADD MSTORE PUSH1 0x64 ADD PUSH2 0x93B JUMP JUMPDEST PUSH0 SLOAD PUSH1 0x1 PUSH1 0x1 PUSH1 0xA0 SHL SUB AND PUSH2 0x8FC PUSH2 0x267A DUP4 PUSH8 0xDE0B6B3A7640000 PUSH2 0x34CF JUMP JUMPDEST PUSH1 0x40 MLOAD DUP2 ISZERO SWAP1 SWAP3 MUL SWAP2 PUSH0 DUP2 DUP2 DUP2 DUP6 DUP9 DUP9 CALL SWAP4 POP POP POP POP ISZERO DUP1 ISZERO PUSH2 0x269F JUMPI RETURNDATASIZE PUSH0 PUSH0 RETURNDATACOPY RETURNDATASIZE PUSH0 REVERT JUMPDEST POP POP JUMP JUMPDEST PUSH0 SLOAD PUSH1 0x1 PUSH1 0xB0 SHL SWAP1 DIV PUSH1 0xFF AND DUP1 PUSH2 0x26C3 JUMPI POP PUSH0 SLOAD PUSH1 0x1 PUSH1 0xA8 SHL SWAP1 DIV PUSH1 0xFF AND ISZERO JUMPDEST PUSH2 0x2726 JUMPI PUSH1 0x40 MLOAD PUSH3 0x461BCD PUSH1 0xE5 SHL DUP2 MSTORE PUSH1 0x20 PUSH1 0x4 DUP3 ADD MSTORE PUSH1 0x2E PUSH1 0x24 DUP3 ADD MSTORE PUSH32 0x496E697469616C697A61626C653A20636F6E747261637420697320616C726561 PUSH1 0x44 DUP3 ADD MSTORE PUSH14 0x191E481A5B9A5D1A585B1A5E9959 PUSH1 0x92 SHL PUSH1 0x64 DUP3 ADD MSTORE PUSH1 0x84 ADD PUSH2 0x93B JUMP JUMPDEST PUSH0 SLOAD PUSH1 0x1 PUSH1 0xB0 SHL SWAP1 DIV PUSH1 0xFF AND ISZERO DUP1 ISZERO PUSH2 0x274E JUMPI PUSH0 DUP1 SLOAD PUSH2 0xFFFF PUSH1 0xA8 SHL NOT AND PUSH2 0x101 PUSH1 0xA8 SHL OR SWAP1 SSTORE JUMPDEST PUSH1 0x4 DUP1 SLOAD PUSH1 0x1 PUSH1 0x1 PUSH1 0xA0 SHL SUB DUP1 DUP9 AND PUSH1 0x1 PUSH1 0x1 PUSH1 0xA0 SHL SUB NOT SWAP3 DUP4 AND OR SWAP1 SWAP3 SSTORE PUSH1 0x5 DUP1 SLOAD DUP8 DUP5 AND SWAP1 DUP4 AND OR SWAP1 SSTORE PUSH1 0x6 DUP1 SLOAD SWAP3 DUP7 AND SWAP3 SWAP1 SWAP2 AND SWAP2 SWAP1 SWAP2 OR SWAP1 SSTORE PUSH2 0x2794 DUP3 PUSH2 0x2609 JUMP JUMPDEST PUSH1 0x1F DUP1 SLOAD PUSH1 0x1 PUSH1 0x1 PUSH1 0xA0 SHL SUB NOT AND PUSH20 0x10ED43C718714EB63D5AA57B78B54704E256024E OR SWAP1 SSTORE PUSH1 0x40 DUP1 MLOAD PUSH2 0x140 DUP2 ADD DUP3 MSTORE PUSH1 0x64 DUP2 MSTORE PUSH1 0x32 PUSH1 0x20 DUP3 ADD MSTORE PUSH1 0x1E SWAP2 DUP2 ADD DUP3 SWAP1 MSTORE PUSH1 0x14 PUSH1 0x60 DUP3 ADD DUP2 SWAP1 MSTORE PUSH1 0xA PUSH1 0x80 DUP4 ADD DUP2 SWAP1 MSTORE PUSH1 0xA0 DUP4 ADD DUP3 SWAP1 MSTORE PUSH1 0xC0 DUP4 ADD DUP3 SWAP1 MSTORE PUSH1 0xE0 DUP4 ADD SWAP2 SWAP1 SWAP2 MSTORE PUSH2 0x100 DUP3 ADD DUP4 SWAP1 MSTORE PUSH2 0x120 DUP3 ADD SWAP3 SWAP1 SWAP3 MSTORE PUSH2 0x281E SWAP2 PUSH1 0x18 SWAP2 SWAP1 PUSH2 0x2D5B JUMP JUMPDEST POP PUSH9 0x340AAD21B3B700000 PUSH1 0xC SSTORE PUSH10 0x21E19E0C9BAB2400000 PUSH1 0xD SSTORE PUSH9 0x1A055690D9DB80000 PUSH1 0xB SSTORE PUSH1 0x2 PUSH1 0x9 SSTORE PUSH1 0xA PUSH1 0x15 SSTORE PUSH3 0x15180 PUSH1 0x12 SSTORE PUSH2 0x3E8 PUSH1 0x14 SSTORE PUSH2 0xBB8 PUSH32 0x9FAFCA4C9C0D5C2CBF85F49FD8AB8212430CE78C2A0CB75B51E0F9C4F9ACE003 SSTORE PUSH2 0x5DC PUSH32 0x1DD2F4B94A51CFB409E6E317A497F7CFD9013960A1C723F830C49C05A25F08A5 SSTORE PUSH2 0x2EE PUSH32 0x804A3D0621E73505F5F0C57C922F3E57D6B48E175551184EB12F80D7B4A9C783 SSTORE PUSH2 0x1F4 PUSH32 0xA952F8C0F40734B22D2328E0F7FF57EEFFEE78885B9CF2147FF941CC37E1C86E SSTORE PUSH2 0x190 PUSH32 0xB48400CB19CF39E58355A7C9FD856F9B5B7298C53856A6766C6B39755CCAFA79 SSTORE PUSH1 0x11 DUP1 SLOAD PUSH1 0xFF NOT AND SWAP1 SSTORE PUSH1 0x1 PUSH1 0x13 DUP2 DUP2 SSTORE PUSH1 0x1 PUSH1 0x1 PUSH1 0xA0 SHL SUB DUP5 AND PUSH0 DUP2 DUP2 MSTORE PUSH1 0x1D PUSH1 0x20 SWAP1 DUP2 MSTORE PUSH1 0x40 DUP3 KECCAK256 DUP6 SWAP1 SSTORE DUP5 DUP3 MSTORE PUSH1 0x1E SWAP1 MSTORE PUSH32 0x873299C6A6C39B8B92F01922BB622DF4A3236EA2876AAC2DA76F6C092CF7E98F DUP1 SLOAD PUSH1 0x1 PUSH1 0x1 PUSH1 0xA0 SHL SUB NOT AND SWAP1 SWAP3 OR SWAP1 SWAP2 SSTORE PUSH2 0x2987 DUP4 PUSH2 0x333B JUMP JUMPDEST SWAP2 SWAP1 POP SSTORE POP PUSH0 PUSH1 0x1 PUSH1 0x1 PUSH1 0xA0 SHL SUB AND DUP3 PUSH1 0x1 PUSH1 0x1 PUSH1 0xA0 SHL SUB AND PUSH0 MLOAD PUSH1 0x20 PUSH2 0x36BE PUSH0 CODECOPY PUSH0 MLOAD SWAP1 PUSH0 MSTORE PUSH1 0x1 PUSH0 PUSH1 0x40 MLOAD PUSH2 0x29E5 SWAP3 SWAP2 SWAP1 SWAP2 DUP3 MSTORE PUSH1 0x20 DUP3 ADD MSTORE PUSH1 0x60 PUSH1 0x40 DUP3 ADD DUP2 SWAP1 MSTORE PUSH1 0x5 SWAP1 DUP3 ADD MSTORE PUSH5 0x27BBB732B9 PUSH1 0xD9 SHL PUSH1 0x80 DUP3 ADD MSTORE PUSH1 0xA0 ADD SWAP1 JUMP JUMPDEST PUSH1 0x40 MLOAD DUP1 SWAP2 SUB SWAP1 LOG3 DUP1 ISZERO PUSH2 0x2A00 JUMPI PUSH0 DUP1 SLOAD PUSH1 0xFF PUSH1 0xB0 SHL NOT AND SWAP1 SSTORE JUMPDEST POP POP POP POP POP JUMP JUMPDEST PUSH2 0x2A10 DUP4 PUSH2 0x136F JUMP JUMPDEST ISZERO PUSH2 0x2A4C JUMPI PUSH1 0x40 MLOAD PUSH3 0x461BCD PUSH1 0xE5 SHL DUP2 MSTORE PUSH1 0x20 PUSH1 0x4 DUP3 ADD MSTORE PUSH1 0xC PUSH1 0x24 DUP3 ADD MSTORE PUSH12 0x557365722045786973747321 PUSH1 0xA0 SHL PUSH1 0x44 DUP3 ADD MSTORE PUSH1 0x64 ADD PUSH2 0x93B JUMP JUMPDEST PUSH2 0x2A55 DUP3 PUSH2 0x136F JUMP JUMPDEST PUSH2 0x2A98 JUMPI PUSH1 0x40 MLOAD PUSH3 0x461BCD PUSH1 0xE5 SHL DUP2 MSTORE PUSH1 0x20 PUSH1 0x4 DUP3 ADD MSTORE PUSH1 0x14 PUSH1 0x24 DUP3 ADD MSTORE PUSH20 0x5265666572726572206E6F742045786973747321 PUSH1 0x60 SHL PUSH1 0x44 DUP3 ADD MSTORE PUSH1 0x64 ADD PUSH2 0x93B JUMP JUMPDEST PUSH1 0x13 DUP1 SLOAD PUSH1 0x1 PUSH1 0x1 PUSH1 0xA0 SHL SUB DUP6 DUP2 AND PUSH0 DUP2 DUP2 MSTORE PUSH1 0x1D PUSH1 0x20 DUP2 DUP2 MSTORE PUSH1 0x40 DUP1 DUP5 KECCAK256 DUP8 DUP2 SSTORE SWAP7 DUP5 MSTORE PUSH1 0x1E DUP3 MSTORE DUP4 KECCAK256 DUP1 SLOAD PUSH1 0x1 PUSH1 0x1 PUSH1 0xA0 SHL SUB NOT SWAP1 DUP2 AND DUP7 OR SWAP1 SWAP2 SSTORE SWAP4 DUP4 MSTORE MSTORE PUSH1 0x1 DUP5 ADD DUP1 SLOAD SWAP1 SWAP3 AND SWAP3 DUP8 AND SWAP3 SWAP1 SWAP3 OR SWAP1 SSTORE PUSH1 0x9 SWAP1 SWAP2 ADD DUP2 SWAP1 SSTORE DUP2 SLOAD SWAP2 SWAP1 PUSH2 0x2B01 DUP4 PUSH2 0x333B JUMP JUMPDEST SWAP1 SWAP2 SSTORE POP POP PUSH1 0x1 PUSH1 0x1 PUSH1 0xA0 SHL SUB DUP3 AND PUSH0 SWAP1 DUP2 MSTORE PUSH1 0x1D PUSH1 0x20 MSTORE PUSH1 0x40 DUP2 KECCAK256 PUSH1 0x9 ADD DUP1 SLOAD SWAP2 PUSH2 0x2B2C DUP4 PUSH2 0x333B JUMP JUMPDEST SWAP1 SWAP2 SSTORE POP POP PUSH1 0x1 PUSH1 0x1 PUSH1 0xA0 SHL SUB DUP4 DUP2 AND PUSH0 DUP2 DUP2 MSTORE PUSH1 0x1D PUSH1 0x20 MSTORE PUSH1 0x40 DUP1 DUP3 KECCAK256 SLOAD SWAP4 DUP7 AND DUP1 DUP4 MSTORE SWAP2 DUP2 SWAP1 KECCAK256 SLOAD SWAP1 MLOAD SWAP2 SWAP4 PUSH0 MLOAD PUSH1 0x20 PUSH2 0x36BE PUSH0 CODECOPY PUSH0 MLOAD SWAP1 PUSH0 MSTORE SWAP3 PUSH2 0x2B75 SWAP3 SWAP1 DUP8 SWAP1 PUSH2 0x3696 JUMP JUMPDEST PUSH1 0x40 MLOAD DUP1 SWAP2 SUB SWAP1 LOG3 POP POP POP JUMP JUMPDEST PUSH2 0x2B8A PUSH2 0x2CC0 JUMP JUMPDEST PUSH0 DUP1 SLOAD PUSH1 0xFF PUSH1 0xA0 SHL NOT AND SWAP1 SSTORE PUSH32 0x5DB9EE0A495BF2E6FF9C91A7834C1BA4FDD244A5E8AA4E537BD38AEAE4B073AA CALLER JUMPDEST PUSH1 0x40 MLOAD PUSH1 0x1 PUSH1 0x1 PUSH1 0xA0 SHL SUB SWAP1 SWAP2 AND DUP2 MSTORE PUSH1 0x20 ADD PUSH1 0x40 MLOAD DUP1 SWAP2 SUB SWAP1 LOG1 JUMP JUMPDEST PUSH0 SLOAD PUSH1 0x1 PUSH1 0x1 PUSH1 0xA0 SHL SUB AND CALLER EQ PUSH2 0x136D JUMPI PUSH1 0x40 MLOAD PUSH3 0x461BCD PUSH1 0xE5 SHL DUP2 MSTORE PUSH1 0x20 PUSH1 0x4 DUP3 ADD DUP2 SWAP1 MSTORE PUSH1 0x24 DUP3 ADD MSTORE PUSH32 0x4F776E61626C653A2063616C6C6572206973206E6F7420746865206F776E6572 PUSH1 0x44 DUP3 ADD MSTORE PUSH1 0x64 ADD PUSH2 0x93B JUMP JUMPDEST PUSH0 DUP1 SLOAD PUSH1 0x1 PUSH1 0x1 PUSH1 0xA0 SHL SUB DUP4 DUP2 AND PUSH1 0x1 PUSH1 0x1 PUSH1 0xA0 SHL SUB NOT DUP4 AND DUP2 OR DUP5 SSTORE PUSH1 0x40 MLOAD SWAP2 SWAP1 SWAP3 AND SWAP3 DUP4 SWAP2 PUSH32 0x8BE0079C531659141344CD1FD0A4F28419497F9722A3DAAFE3B4186F6B6457E0 SWAP2 SWAP1 LOG3 POP POP JUMP JUMPDEST PUSH2 0x2C86 PUSH2 0x2D0F JUMP JUMPDEST PUSH0 DUP1 SLOAD PUSH1 0xFF PUSH1 0xA0 SHL NOT AND PUSH1 0x1 PUSH1 0xA0 SHL OR SWAP1 SSTORE PUSH32 0x62E78CEA01BEE320CD4E420270B5EA74000D11B0C9F74754EBDBFC544B05A258 PUSH2 0x2BB9 CALLER SWAP1 JUMP JUMPDEST PUSH0 SLOAD PUSH1 0x1 PUSH1 0xA0 SHL SWAP1 DIV PUSH1 0xFF AND PUSH2 0x136D JUMPI PUSH1 0x40 MLOAD PUSH3 0x461BCD PUSH1 0xE5 SHL DUP2 MSTORE PUSH1 0x20 PUSH1 0x4 DUP3 ADD MSTORE PUSH1 0x14 PUSH1 0x24 DUP3 ADD MSTORE PUSH20 0x14185D5CD8589B194E881B9BDD081C185D5CD959 PUSH1 0x62 SHL PUSH1 0x44 DUP3 ADD MSTORE PUSH1 0x64 ADD PUSH2 0x93B JUMP JUMPDEST PUSH0 SLOAD PUSH1 0x1 PUSH1 0xA0 SHL SWAP1 DIV PUSH1 0xFF AND ISZERO PUSH2 0x136D JUMPI PUSH1 0x40 MLOAD PUSH3 0x461BCD PUSH1 0xE5 SHL DUP2 MSTORE PUSH1 0x20 PUSH1 0x4 DUP3 ADD MSTORE PUSH1 0x10 PUSH1 0x24 DUP3 ADD MSTORE PUSH16 0x14185D5CD8589B194E881C185D5CD959 PUSH1 0x82 SHL PUSH1 0x44 DUP3 ADD MSTORE PUSH1 0x64 ADD PUSH2 0x93B JUMP JUMPDEST DUP3 DUP1 SLOAD DUP3 DUP3 SSTORE SWAP1 PUSH0 MSTORE PUSH1 0x20 PUSH0 KECCAK256 SWAP1 DUP2 ADD SWAP3 DUP3 ISZERO PUSH2 0x2D99 JUMPI SWAP2 PUSH1 0x20 MUL DUP3 ADD JUMPDEST DUP3 DUP2 GT ISZERO PUSH2 0x2D99 JUMPI DUP3 MLOAD DUP3 SWAP1 PUSH1 0xFF AND SWAP1 SSTORE SWAP2 PUSH1 0x20 ADD SWAP2 SWAP1 PUSH1 0x1 ADD SWAP1 PUSH2 0x2D79 JUMP JUMPDEST POP PUSH2 0x2DA5 SWAP3 SWAP2 POP PUSH2 0x2DA9 JUMP JUMPDEST POP SWAP1 JUMP JUMPDEST JUMPDEST DUP1 DUP3 GT ISZERO PUSH2 0x2DA5 JUMPI PUSH0 DUP2 SSTORE PUSH1 0x1 ADD PUSH2 0x2DAA JUMP JUMPDEST PUSH0 PUSH1 0x20 DUP3 DUP5 SUB SLT ISZERO PUSH2 0x2DCD JUMPI PUSH0 PUSH0 REVERT JUMPDEST POP CALLDATALOAD SWAP2 SWAP1 POP JUMP JUMPDEST PUSH1 0x1 PUSH1 0x1 PUSH1 0xA0 SHL SUB DUP2 AND DUP2 EQ PUSH2 0x2612 JUMPI PUSH0 PUSH0 REVERT JUMPDEST PUSH0 PUSH0 PUSH1 0x40 DUP4 DUP6 SUB SLT ISZERO PUSH2 0x2DF9 JUMPI PUSH0 PUSH0 REVERT JUMPDEST DUP3 CALLDATALOAD PUSH2 0x2E04 DUP2 PUSH2 0x2DD4 JUMP JUMPDEST SWAP2 POP PUSH1 0x20 DUP4 ADD CALLDATALOAD PUSH2 0x2E14 DUP2 PUSH2 0x2DD4 JUMP JUMPDEST DUP1 SWAP2 POP POP SWAP3 POP SWAP3 SWAP1 POP JUMP JUMPDEST PUSH0 PUSH0 PUSH0 PUSH1 0x60 DUP5 DUP7 SUB SLT ISZERO PUSH2 0x2E31 JUMPI PUSH0 PUSH0 REVERT JUMPDEST DUP4 CALLDATALOAD SWAP3 POP PUSH1 0x20 DUP5 ADD CALLDATALOAD SWAP2 POP PUSH1 0x40 DUP5 ADD CALLDATALOAD PUSH2 0x2E4A DUP2 PUSH2 0x2DD4 JUMP JUMPDEST DUP1 SWAP2 POP POP SWAP3 POP SWAP3 POP SWAP3 JUMP JUMPDEST PUSH0 PUSH1 0x20 DUP3 DUP5 SUB SLT ISZERO PUSH2 0x2E65 JUMPI PUSH0 PUSH0 REVERT JUMPDEST DUP2 CALLDATALOAD PUSH2 0x2E70 DUP2 PUSH2 0x2DD4 JUMP JUMPDEST SWAP4 SWAP3 POP POP POP JUMP JUMPDEST PUSH4 0x4E487B71 PUSH1 0xE0 SHL PUSH0 MSTORE PUSH1 0x41 PUSH1 0x4 MSTORE PUSH1 0x24 PUSH0 REVERT JUMPDEST PUSH1 0x40 MLOAD PUSH1 0x1F DUP3 ADD PUSH1 0x1F NOT AND DUP2 ADD PUSH8 0xFFFFFFFFFFFFFFFF DUP2 GT DUP3 DUP3 LT OR ISZERO PUSH2 0x2EB4 JUMPI PUSH2 0x2EB4 PUSH2 0x2E77 JUMP JUMPDEST PUSH1 0x40 MSTORE SWAP2 SWAP1 POP JUMP JUMPDEST PUSH0 PUSH8 0xFFFFFFFFFFFFFFFF DUP3 GT ISZERO PUSH2 0x2ED5 JUMPI PUSH2 0x2ED5 PUSH2 0x2E77 JUMP JUMPDEST POP PUSH1 0x5 SHL PUSH1 0x20 ADD SWAP1 JUMP JUMPDEST PUSH0 PUSH1 0x20 DUP3 DUP5 SUB SLT ISZERO PUSH2 0x2EEF JUMPI PUSH0 PUSH0 REVERT JUMPDEST DUP2 CALLDATALOAD PUSH8 0xFFFFFFFFFFFFFFFF DUP2 GT ISZERO PUSH2 0x2F05 JUMPI PUSH0 PUSH0 REVERT JUMPDEST DUP3 ADD PUSH1 0x1F DUP2 ADD DUP5 SGT PUSH2 0x2F15 JUMPI PUSH0 PUSH0 REVERT JUMPDEST DUP1 CALLDATALOAD PUSH2 0x2F28 PUSH2 0x2F23 DUP3 PUSH2 0x2EBC JUMP JUMPDEST PUSH2 0x2E8B JUMP JUMPDEST DUP1 DUP3 DUP3 MSTORE PUSH1 0x20 DUP3 ADD SWAP2 POP PUSH1 0x20 DUP4 PUSH1 0x5 SHL DUP6 ADD ADD SWAP3 POP DUP7 DUP4 GT ISZERO PUSH2 0x2F49 JUMPI PUSH0 PUSH0 REVERT JUMPDEST PUSH1 0x20 DUP5 ADD SWAP4 POP JUMPDEST DUP3 DUP5 LT ISZERO PUSH2 0x2F74 JUMPI DUP4 CALLDATALOAD PUSH2 0x2F63 DUP2 PUSH2 0x2DD4 JUMP JUMPDEST DUP3 MSTORE PUSH1 0x20 SWAP4 DUP5 ADD SWAP4 SWAP1 SWAP2 ADD SWAP1 PUSH2 0x2F50 JUMP JUMPDEST SWAP7 SWAP6 POP POP POP POP POP POP JUMP JUMPDEST DUP1 CALLDATALOAD PUSH2 0x2F89 DUP2 PUSH2 0x2DD4 JUMP JUMPDEST SWAP2 SWAP1 POP JUMP JUMPDEST PUSH0 PUSH0 PUSH1 0x40 DUP4 DUP6 SUB SLT ISZERO PUSH2 0x2F9F JUMPI PUSH0 PUSH0 REVERT JUMPDEST DUP3 CALLDATALOAD SWAP2 POP PUSH1 0x20 DUP4 ADD CALLDATALOAD PUSH2 0x2E14 DUP2 PUSH2 0x2DD4 JUMP JUMPDEST PUSH0 DUP3 PUSH1 0x1F DUP4 ADD SLT PUSH2 0x2FC0 JUMPI PUSH0 PUSH0 REVERT JUMPDEST DUP2 CALLDATALOAD PUSH2 0x2FCE PUSH2 0x2F23 DUP3 PUSH2 0x2EBC JUMP JUMPDEST DUP1 DUP3 DUP3 MSTORE PUSH1 0x20 DUP3 ADD SWAP2 POP PUSH1 0x20 DUP4 PUSH1 0x5 SHL DUP7 ADD ADD SWAP3 POP DUP6 DUP4 GT ISZERO PUSH2 0x2FEF JUMPI PUSH0 PUSH0 REVERT JUMPDEST PUSH1 0x20 DUP6 ADD JUMPDEST DUP4 DUP2 LT ISZERO PUSH2 0x300C JUMPI DUP1 CALLDATALOAD DUP4 MSTORE PUSH1 0x20 SWAP3 DUP4 ADD SWAP3 ADD PUSH2 0x2FF4 JUMP JUMPDEST POP SWAP6 SWAP5 POP POP POP POP POP JUMP JUMPDEST PUSH0 PUSH0 PUSH0 PUSH0 PUSH1 0x80 DUP6 DUP8 SUB SLT ISZERO PUSH2 0x3029 JUMPI PUSH0 PUSH0 REVERT JUMPDEST DUP5 CALLDATALOAD PUSH8 0xFFFFFFFFFFFFFFFF DUP2 GT ISZERO PUSH2 0x303F JUMPI PUSH0 PUSH0 REVERT JUMPDEST DUP6 ADD PUSH1 0x1F DUP2 ADD DUP8 SGT PUSH2 0x304F JUMPI PUSH0 PUSH0 REVERT JUMPDEST DUP1 CALLDATALOAD PUSH2 0x305D PUSH2 0x2F23 DUP3 PUSH2 0x2EBC JUMP JUMPDEST DUP1 DUP3 DUP3 MSTORE PUSH1 0x20 DUP3 ADD SWAP2 POP PUSH1 0x20 DUP4 PUSH1 0x5 SHL DUP6 ADD ADD SWAP3 POP DUP10 DUP4 GT ISZERO PUSH2 0x307E JUMPI PUSH0 PUSH0 REVERT JUMPDEST PUSH1 0x20 DUP5 ADD SWAP4 POP JUMPDEST DUP3 DUP5 LT ISZERO PUSH2 0x30A9 JUMPI DUP4 CALLDATALOAD PUSH2 0x3098 DUP2 PUSH2 0x2DD4 JUMP JUMPDEST DUP3 MSTORE PUSH1 0x20 SWAP4 DUP5 ADD SWAP4 SWAP1 SWAP2 ADD SWAP1 PUSH2 0x3085 JUMP JUMPDEST SWAP7 POP POP POP POP PUSH1 0x20 DUP6 ADD CALLDATALOAD PUSH8 0xFFFFFFFFFFFFFFFF DUP2 GT ISZERO PUSH2 0x30C7 JUMPI PUSH0 PUSH0 REVERT JUMPDEST PUSH2 0x30D3 DUP8 DUP3 DUP9 ADD PUSH2 0x2FB1 JUMP JUMPDEST SWAP4 POP POP PUSH1 0x40 DUP6 ADD CALLDATALOAD SWAP2 POP PUSH2 0x30E9 PUSH1 0x60 DUP7 ADD PUSH2 0x2F7E JUMP JUMPDEST SWAP1 POP SWAP3 SWAP6 SWAP2 SWAP5 POP SWAP3 POP JUMP JUMPDEST PUSH0 PUSH0 PUSH0 PUSH0 PUSH1 0x80 DUP6 DUP8 SUB SLT ISZERO PUSH2 0x3107 JUMPI PUSH0 PUSH0 REVERT JUMPDEST DUP5 CALLDATALOAD PUSH2 0x3112 DUP2 PUSH2 0x2DD4 JUMP JUMPDEST SWAP4 POP PUSH1 0x20 DUP6 ADD CALLDATALOAD PUSH2 0x3122 DUP2 PUSH2 0x2DD4 JUMP JUMPDEST SWAP3 POP PUSH1 0x40 DUP6 ADD CALLDATALOAD PUSH2 0x3132 DUP2 PUSH2 0x2DD4 JUMP JUMPDEST SWAP2 POP PUSH1 0x60 DUP6 ADD CALLDATALOAD PUSH2 0x3142 DUP2 PUSH2 0x2DD4 JUMP JUMPDEST SWAP4 SWAP7 SWAP3 SWAP6 POP SWAP1 SWAP4 POP POP JUMP JUMPDEST PUSH1 0x20 DUP1 DUP3 MSTORE PUSH1 0x14 SWAP1 DUP3 ADD MSTORE PUSH20 0x4473636C61623A20557365722045786973747321 PUSH1 0x60 SHL PUSH1 0x40 DUP3 ADD MSTORE PUSH1 0x60 ADD SWAP1 JUMP JUMPDEST PUSH0 PUSH1 0x20 DUP3 DUP5 SUB SLT ISZERO PUSH2 0x318B JUMPI PUSH0 PUSH0 REVERT JUMPDEST POP MLOAD SWAP2 SWAP1 POP JUMP JUMPDEST PUSH1 0x1 PUSH1 0x1 PUSH1 0xA0 SHL SUB SWAP4 DUP5 AND DUP2 MSTORE SWAP2 SWAP1 SWAP3 AND PUSH1 0x20 DUP3 ADD MSTORE PUSH1 0x40 DUP2 ADD SWAP2 SWAP1 SWAP2 MSTORE PUSH1 0x60 ADD SWAP1 JUMP JUMPDEST PUSH0 PUSH1 0x20 DUP3 DUP5 SUB SLT ISZERO PUSH2 0x31C6 JUMPI PUSH0 PUSH0 REVERT JUMPDEST DUP2 MLOAD DUP1 ISZERO ISZERO DUP2 EQ PUSH2 0x2E70 JUMPI PUSH0 PUSH0 REVERT JUMPDEST PUSH4 0x4E487B71 PUSH1 0xE0 SHL PUSH0 MSTORE PUSH1 0x32 PUSH1 0x4 MSTORE PUSH1 0x24 PUSH0 REVERT JUMPDEST PUSH0 DUP2 MLOAD DUP1 DUP5 MSTORE PUSH1 0x20 DUP5 ADD SWAP4 POP PUSH1 0x20 DUP4 ADD PUSH0 JUMPDEST DUP3 DUP2 LT ISZERO PUSH2 0x3222 JUMPI DUP2 MLOAD PUSH1 0x1 PUSH1 0x1 PUSH1 0xA0 SHL SUB AND DUP7 MSTORE PUSH1 0x20 SWAP6 DUP7 ADD SWAP6 SWAP1 SWAP2 ADD SWAP1 PUSH1 0x1 ADD PUSH2 0x31FB JUMP JUMPDEST POP SWAP4 SWAP5 SWAP4 POP POP POP POP JUMP JUMPDEST DUP3 DUP2 MSTORE PUSH1 0x40 PUSH1 0x20 DUP3 ADD MSTORE PUSH0 PUSH2 0x3244 PUSH1 0x40 DUP4 ADD DUP5 PUSH2 0x31E9 JUMP JUMPDEST SWAP5 SWAP4 POP POP POP POP JUMP JUMPDEST PUSH0 PUSH1 0x20 DUP3 DUP5 SUB SLT ISZERO PUSH2 0x325C JUMPI PUSH0 PUSH0 REVERT JUMPDEST DUP2 MLOAD PUSH8 0xFFFFFFFFFFFFFFFF DUP2 GT ISZERO PUSH2 0x3272 JUMPI PUSH0 PUSH0 REVERT JUMPDEST DUP3 ADD PUSH1 0x1F DUP2 ADD DUP5 SGT PUSH2 0x3282 JUMPI PUSH0 PUSH0 REVERT JUMPDEST DUP1 MLOAD PUSH2 0x3290 PUSH2 0x2F23 DUP3 PUSH2 0x2EBC JUMP JUMPDEST DUP1 DUP3 DUP3 MSTORE PUSH1 0x20 DUP3 ADD SWAP2 POP PUSH1 0x20 DUP4 PUSH1 0x5 SHL DUP6 ADD ADD SWAP3 POP DUP7 DUP4 GT ISZERO PUSH2 0x32B1 JUMPI PUSH0 PUSH0 REVERT JUMPDEST PUSH1 0x20 DUP5 ADD SWAP4 POP JUMPDEST DUP3 DUP5 LT ISZERO PUSH2 0x2F74 JUMPI DUP4 MLOAD DUP3 MSTORE PUSH1 0x20 SWAP4 DUP5 ADD SWAP4 SWAP1 SWAP2 ADD SWAP1 PUSH2 0x32B8 JUMP JUMPDEST PUSH4 0x4E487B71 PUSH1 0xE0 SHL PUSH0 MSTORE PUSH1 0x11 PUSH1 0x4 MSTORE PUSH1 0x24 PUSH0 REVERT JUMPDEST DUP1 DUP3 ADD DUP1 DUP3 GT ISZERO PUSH2 0x32FA JUMPI PUSH2 0x32FA PUSH2 0x32D3 JUMP JUMPDEST SWAP3 SWAP2 POP POP JUMP JUMPDEST DUP6 DUP2 MSTORE DUP5 PUSH1 0x20 DUP3 ADD MSTORE PUSH1 0xA0 PUSH1 0x40 DUP3 ADD MSTORE PUSH0 PUSH2 0x331E PUSH1 0xA0 DUP4 ADD DUP7 PUSH2 0x31E9 JUMP JUMPDEST PUSH1 0x1 PUSH1 0x1 PUSH1 0xA0 SHL SUB SWAP5 SWAP1 SWAP5 AND PUSH1 0x60 DUP4 ADD MSTORE POP PUSH1 0x80 ADD MSTORE SWAP4 SWAP3 POP POP POP JUMP JUMPDEST PUSH0 PUSH1 0x1 DUP3 ADD PUSH2 0x334C JUMPI PUSH2 0x334C PUSH2 0x32D3 JUMP JUMPDEST POP PUSH1 0x1 ADD SWAP1 JUMP JUMPDEST DUP3 DUP2 MSTORE DUP2 PUSH1 0x20 DUP3 ADD MSTORE PUSH1 0x60 PUSH1 0x40 DUP3 ADD MSTORE PUSH0 PUSH2 0x3244 PUSH1 0x60 DUP4 ADD PUSH1 0x4 DUP2 MSTORE PUSH4 0x1554D115 PUSH1 0xE2 SHL PUSH1 0x20 DUP3 ADD MSTORE PUSH1 0x40 ADD SWAP1 JUMP JUMPDEST PUSH1 0x20 DUP1 DUP3 MSTORE PUSH1 0x18 SWAP1 DUP3 ADD MSTORE PUSH32 0x4473636C61623A2055736572206E6F7420457869737473210000000000000000 PUSH1 0x40 DUP3 ADD MSTORE PUSH1 0x60 ADD SWAP1 JUMP JUMPDEST PUSH1 0x20 DUP1 DUP3 MSTORE PUSH1 0x19 SWAP1 DUP3 ADD MSTORE PUSH32 0x4D696E696D756D2041637469766174696F6E2069732024363000000000000000 PUSH1 0x40 DUP3 ADD MSTORE PUSH1 0x60 ADD SWAP1 JUMP JUMPDEST PUSH1 0x20 DUP1 DUP3 MSTORE PUSH1 0x1C SWAP1 DUP3 ADD MSTORE PUSH32 0x4D6178696D756D2041637469766174696F6E2069732024313030303000000000 PUSH1 0x40 DUP3 ADD MSTORE PUSH1 0x60 ADD SWAP1 JUMP JUMPDEST PUSH1 0x20 DUP1 DUP3 MSTORE PUSH1 0x2B SWAP1 DUP3 ADD MSTORE PUSH32 0x496E2046697820706C616E206F6E6C79205553445420696E766573746D656E74 PUSH1 0x40 DUP3 ADD MSTORE PUSH11 0x81A5CC8185B1B1BDDD959 PUSH1 0xAA SHL PUSH1 0x60 DUP3 ADD MSTORE PUSH1 0x80 ADD SWAP1 JUMP JUMPDEST PUSH1 0x20 DUP1 DUP3 MSTORE PUSH1 0x37 SWAP1 DUP3 ADD MSTORE PUSH32 0x526520496E766573746D656E742053686F756C6420457175616C2F4772656174 PUSH1 0x40 DUP3 ADD MSTORE PUSH32 0x6572207468616E206C61737420496E766573746D656E74000000000000000000 PUSH1 0x60 DUP3 ADD MSTORE PUSH1 0x80 ADD SWAP1 JUMP JUMPDEST DUP1 DUP3 MUL DUP2 ISZERO DUP3 DUP3 DIV DUP5 EQ OR PUSH2 0x32FA JUMPI PUSH2 0x32FA PUSH2 0x32D3 JUMP JUMPDEST PUSH0 DUP3 PUSH2 0x3500 JUMPI PUSH4 0x4E487B71 PUSH1 0xE0 SHL PUSH0 MSTORE PUSH1 0x12 PUSH1 0x4 MSTORE PUSH1 0x24 PUSH0 REVERT JUMPDEST POP DIV SWAP1 JUMP JUMPDEST PUSH0 DUP2 MLOAD DUP1 DUP5 MSTORE DUP1 PUSH1 0x20 DUP5 ADD PUSH1 0x20 DUP7 ADD MCOPY PUSH0 PUSH1 0x20 DUP3 DUP7 ADD ADD MSTORE PUSH1 0x20 PUSH1 0x1F NOT PUSH1 0x1F DUP4 ADD AND DUP6 ADD ADD SWAP2 POP POP SWAP3 SWAP2 POP POP JUMP JUMPDEST DUP5 DUP2 MSTORE DUP4 PUSH1 0x20 DUP3 ADD MSTORE PUSH1 0xA0 PUSH1 0x40 DUP3 ADD MSTORE PUSH0 PUSH2 0x3561 PUSH1 0xA0 DUP4 ADD PUSH1 0x3 DUP2 MSTORE PUSH3 0x445343 PUSH1 0xE8 SHL PUSH1 0x20 DUP3 ADD MSTORE PUSH1 0x40 ADD SWAP1 JUMP JUMPDEST DUP3 DUP2 SUB PUSH1 0x60 DUP5 ADD MSTORE PUSH2 0x3573 DUP2 DUP7 PUSH2 0x3505 JUMP JUMPDEST SWAP2 POP POP DUP3 PUSH1 0x80 DUP4 ADD MSTORE SWAP6 SWAP5 POP POP POP POP POP JUMP JUMPDEST PUSH1 0x20 DUP1 DUP3 MSTORE PUSH1 0x21 SWAP1 DUP3 ADD MSTORE PUSH32 0x466F7262696464656E21204F6E6C79204F70657261746F722043616E2043616C PUSH1 0x40 DUP3 ADD MSTORE PUSH1 0x1B PUSH1 0xFA SHL PUSH1 0x60 DUP3 ADD MSTORE PUSH1 0x80 ADD SWAP1 JUMP JUMPDEST DUP3 DUP2 MSTORE DUP2 PUSH1 0x20 DUP3 ADD MSTORE PUSH1 0x60 PUSH1 0x40 DUP3 ADD MSTORE PUSH0 PUSH2 0x3244 PUSH1 0x60 DUP4 ADD PUSH1 0x5 DUP2 MSTORE PUSH5 0x7374445343 PUSH1 0xD8 SHL PUSH1 0x20 DUP3 ADD MSTORE PUSH1 0x40 ADD SWAP1 JUMP JUMPDEST DUP5 DUP2 MSTORE DUP4 PUSH1 0x20 DUP3 ADD MSTORE PUSH1 0xA0 PUSH1 0x40 DUP3 ADD MSTORE PUSH0 PUSH2 0x3561 PUSH1 0xA0 DUP4 ADD PUSH1 0x4 DUP2 MSTORE PUSH4 0x1554D115 PUSH1 0xE2 SHL PUSH1 0x20 DUP3 ADD MSTORE PUSH1 0x40 ADD SWAP1 JUMP JUMPDEST DUP3 DUP2 MSTORE DUP2 PUSH1 0x20 DUP3 ADD MSTORE PUSH1 0x60 PUSH1 0x40 DUP3 ADD MSTORE PUSH0 PUSH2 0x3244 PUSH1 0x60 DUP4 ADD PUSH1 0x3 DUP2 MSTORE PUSH3 0x445343 PUSH1 0xE8 SHL PUSH1 0x20 DUP3 ADD MSTORE PUSH1 0x40 ADD SWAP1 JUMP JUMPDEST DUP2 DUP2 SUB DUP2 DUP2 GT ISZERO PUSH2 0x32FA JUMPI PUSH2 0x32FA PUSH2 0x32D3 JUMP JUMPDEST DUP5 DUP2 MSTORE DUP4 PUSH1 0x20 DUP3 ADD MSTORE PUSH1 0xA0 PUSH1 0x40 DUP3 ADD MSTORE PUSH0 PUSH2 0x3561 PUSH1 0xA0 DUP4 ADD PUSH1 0x5 DUP2 MSTORE PUSH5 0x7374445343 PUSH1 0xD8 SHL PUSH1 0x20 DUP3 ADD MSTORE PUSH1 0x40 ADD SWAP1 JUMP JUMPDEST DUP4 DUP2 MSTORE DUP3 PUSH1 0x20 DUP3 ADD MSTORE PUSH1 0x60 PUSH1 0x40 DUP3 ADD MSTORE PUSH0 PUSH2 0x36B4 PUSH1 0x60 DUP4 ADD DUP5 PUSH2 0x3505 JUMP JUMPDEST SWAP6 SWAP5 POP POP POP POP POP JUMP INVALID TSTORE CREATE2 0xC5 DUP9 0xE2 0x4E DUP1 0xDD STATICCALL 0x21 PUSH7 0xA642D3FE27393F ADDMOD 0x22 DUP14 JUMPDEST SWAP1 CALLER GT SWAP8 0x28 0x24 EXTSTATICCALL 0xD0 0xD6 SMOD LOG2 PUSH5 0x6970667358 0x22 SLT KECCAK256 RETF CHAINID PUSH10 0xD26A4F35B03BCDF5951C 0xCF 0x2A MULMOD 0xC7 0xA7 0xF6 SWAP10 0x2E PUSH22 0xACB73B78EA5A32EDBDA364736F6C634300081E003300 "
				},
				"gasEstimates": {
					"creation": {
						"codeDepositCost": "2819800",
						"executionCost": "25180",
						"totalCost": "2844980"
					},
					"external": {
						"DSC()": "2381",
						"LASTLEVEL()": "2351",
						"PERCENT_DIVIDER()": "2440",
						"TIME_STEP()": "2373",
						"USDT()": "2491",
						"admin()": "2424",
						"adminAchivers(uint256)": "4700",
						"airdropAmount()": "2415",
						"airdropLevelShares(uint256)": "4608",
						"airdropPerMonth()": "2439",
						"airdropUserCount()": "2374",
						"getCurrentPrice(address[])": "infinite",
						"getPriceFromUniswapV2(uint256)": "infinite",
						"idToAddress(uint256)": "2520",
						"initialize(address,address,address,address)": "infinite",
						"isAdminAchived(address)": "2678",
						"isAirdropPaused()": "2376",
						"isUserExists(address)": "2664",
						"joiningFee()": "2416",
						"lastUserId()": "2395",
						"levelBonusShares(uint256)": "4717",
						"levelRoiPerDay()": "2416",
						"levelShare(uint256)": "2514",
						"maxStake()": "2350",
						"minStake()": "2417",
						"minWithdraw()": "2372",
						"multipler()": "2394",
						"multisendToken(address[],uint256[],uint256,address)": "infinite",
						"operator()": "2470",
						"owner()": "2418",
						"pause()": "infinite",
						"paused()": "2364",
						"registerbyDSC(address,address)": "infinite",
						"registerbystDSC(address,address)": "infinite",
						"registrationUSDT(address,address)": "infinite",
						"renounceOwnership()": "infinite",
						"roiPerDay()": "2438",
						"stDSC()": "2405",
						"stakeDSC(uint256,uint256,address)": "infinite",
						"stakeUSDT(uint256,uint256,address)": "infinite",
						"stakestDSC(uint256,uint256,address)": "infinite",
						"totalStaked()": "2417",
						"totalWithdrawal()": "2394",
						"transferOwnership(address)": "infinite",
						"uniswapRouter()": "2382",
						"unpause()": "infinite",
						"users(address)": "26169",
						"withdrawLost(uint256)": "infinite",
						"withdrawLostTokenFromBalance(uint256,address)": "infinite"
					},
					"internal": {
						"registration(address,address,string memory)": "infinite",
						"sendLevelIncome(address,uint256)": "infinite"
					}
				},
				"methodIdentifiers": {
					"DSC()": "c8804b7b",
					"LASTLEVEL()": "2dd4f9b0",
					"PERCENT_DIVIDER()": "29fc7bd8",
					"TIME_STEP()": "32bc298c",
					"USDT()": "c54e44eb",
					"admin()": "f851a440",
					"adminAchivers(uint256)": "eff4228a",
					"airdropAmount()": "fc2ea8a5",
					"airdropLevelShares(uint256)": "02121272",
					"airdropPerMonth()": "383143e5",
					"airdropUserCount()": "0da5a1b7",
					"getCurrentPrice(address[])": "78981741",
					"getPriceFromUniswapV2(uint256)": "1a454b92",
					"idToAddress(uint256)": "2a2d0c47",
					"initialize(address,address,address,address)": "f8c8765e",
					"isAdminAchived(address)": "578013e0",
					"isAirdropPaused()": "ca33fa3f",
					"isUserExists(address)": "509222cd",
					"joiningFee()": "6eeeaaa5",
					"lastUserId()": "348d4487",
					"levelBonusShares(uint256)": "82f4c6a6",
					"levelRoiPerDay()": "d8a04dfa",
					"levelShare(uint256)": "452b4729",
					"maxStake()": "ea1b28e0",
					"minStake()": "375b3c0a",
					"minWithdraw()": "cc3d2721",
					"multipler()": "99f584b3",
					"multisendToken(address[],uint256[],uint256,address)": "84412cc7",
					"operator()": "570ca735",
					"owner()": "8da5cb5b",
					"pause()": "8456cb59",
					"paused()": "5c975abb",
					"registerbyDSC(address,address)": "744b611b",
					"registerbystDSC(address,address)": "68a215a2",
					"registrationUSDT(address,address)": "117aea11",
					"renounceOwnership()": "715018a6",
					"roiPerDay()": "dc43f0e6",
					"stDSC()": "09fd9bca",
					"stakeDSC(uint256,uint256,address)": "39a93f35",
					"stakeUSDT(uint256,uint256,address)": "6b0ac432",
					"stakestDSC(uint256,uint256,address)": "d58ea276",
					"totalStaked()": "817b1cd2",
					"totalWithdrawal()": "6b56ee02",
					"transferOwnership(address)": "f2fde38b",
					"uniswapRouter()": "735de9f7",
					"unpause()": "3f4ba83a",
					"users(address)": "a87430ba",
					"withdrawLost(uint256)": "f3b2aa94",
					"withdrawLostTokenFromBalance(uint256,address)": "7b500564"
				}
			},
			"storageLayout": {
				"storage": [
					{
						"astId": 124,
						"contract": "profxexpo.sol:DSCSTAKE",
						"label": "_owner",
						"offset": 0,
						"slot": "0",
						"type": "t_address"
					},
					{
						"astId": 713,
						"contract": "profxexpo.sol:DSCSTAKE",
						"label": "_paused",
						"offset": 20,
						"slot": "0",
						"type": "t_bool"
					},
					{
						"astId": 82,
						"contract": "profxexpo.sol:DSCSTAKE",
						"label": "_initialized",
						"offset": 21,
						"slot": "0",
						"type": "t_bool"
					},
					{
						"astId": 84,
						"contract": "profxexpo.sol:DSCSTAKE",
						"label": "_initializing",
						"offset": 22,
						"slot": "0",
						"type": "t_bool"
					},
					{
						"astId": 28,
						"contract": "profxexpo.sol:DSCSTAKE",
						"label": "_status",
						"offset": 0,
						"slot": "1",
						"type": "t_uint256"
					},
					{
						"astId": 822,
						"contract": "profxexpo.sol:DSCSTAKE",
						"label": "admin",
						"offset": 0,
						"slot": "2",
						"type": "t_address"
					},
					{
						"astId": 824,
						"contract": "profxexpo.sol:DSCSTAKE",
						"label": "operator",
						"offset": 0,
						"slot": "3",
						"type": "t_address"
					},
					{
						"astId": 826,
						"contract": "profxexpo.sol:DSCSTAKE",
						"label": "USDT",
						"offset": 0,
						"slot": "4",
						"type": "t_address"
					},
					{
						"astId": 828,
						"contract": "profxexpo.sol:DSCSTAKE",
						"label": "DSC",
						"offset": 0,
						"slot": "5",
						"type": "t_address"
					},
					{
						"astId": 830,
						"contract": "profxexpo.sol:DSCSTAKE",
						"label": "stDSC",
						"offset": 0,
						"slot": "6",
						"type": "t_address"
					},
					{
						"astId": 832,
						"contract": "profxexpo.sol:DSCSTAKE",
						"label": "levelRoiPerDay",
						"offset": 0,
						"slot": "7",
						"type": "t_uint256"
					},
					{
						"astId": 834,
						"contract": "profxexpo.sol:DSCSTAKE",
						"label": "roiPerDay",
						"offset": 0,
						"slot": "8",
						"type": "t_uint256"
					},
					{
						"astId": 836,
						"contract": "profxexpo.sol:DSCSTAKE",
						"label": "multipler",
						"offset": 0,
						"slot": "9",
						"type": "t_uint256"
					},
					{
						"astId": 838,
						"contract": "profxexpo.sol:DSCSTAKE",
						"label": "minWithdraw",
						"offset": 0,
						"slot": "10",
						"type": "t_uint256"
					},
					{
						"astId": 840,
						"contract": "profxexpo.sol:DSCSTAKE",
						"label": "joiningFee",
						"offset": 0,
						"slot": "11",
						"type": "t_uint256"
					},
					{
						"astId": 842,
						"contract": "profxexpo.sol:DSCSTAKE",
						"label": "minStake",
						"offset": 0,
						"slot": "12",
						"type": "t_uint256"
					},
					{
						"astId": 844,
						"contract": "profxexpo.sol:DSCSTAKE",
						"label": "maxStake",
						"offset": 0,
						"slot": "13",
						"type": "t_uint256"
					},
					{
						"astId": 846,
						"contract": "profxexpo.sol:DSCSTAKE",
						"label": "airdropUserCount",
						"offset": 0,
						"slot": "14",
						"type": "t_uint256"
					},
					{
						"astId": 848,
						"contract": "profxexpo.sol:DSCSTAKE",
						"label": "airdropAmount",
						"offset": 0,
						"slot": "15",
						"type": "t_uint256"
					},
					{
						"astId": 850,
						"contract": "profxexpo.sol:DSCSTAKE",
						"label": "airdropPerMonth",
						"offset": 0,
						"slot": "16",
						"type": "t_uint256"
					},
					{
						"astId": 852,
						"contract": "profxexpo.sol:DSCSTAKE",
						"label": "isAirdropPaused",
						"offset": 0,
						"slot": "17",
						"type": "t_bool"
					},
					{
						"astId": 854,
						"contract": "profxexpo.sol:DSCSTAKE",
						"label": "TIME_STEP",
						"offset": 0,
						"slot": "18",
						"type": "t_uint256"
					},
					{
						"astId": 856,
						"contract": "profxexpo.sol:DSCSTAKE",
						"label": "lastUserId",
						"offset": 0,
						"slot": "19",
						"type": "t_uint256"
					},
					{
						"astId": 858,
						"contract": "profxexpo.sol:DSCSTAKE",
						"label": "PERCENT_DIVIDER",
						"offset": 0,
						"slot": "20",
						"type": "t_uint256"
					},
					{
						"astId": 860,
						"contract": "profxexpo.sol:DSCSTAKE",
						"label": "LASTLEVEL",
						"offset": 0,
						"slot": "21",
						"type": "t_uint256"
					},
					{
						"astId": 862,
						"contract": "profxexpo.sol:DSCSTAKE",
						"label": "totalStaked",
						"offset": 0,
						"slot": "22",
						"type": "t_uint256"
					},
					{
						"astId": 864,
						"contract": "profxexpo.sol:DSCSTAKE",
						"label": "totalWithdrawal",
						"offset": 0,
						"slot": "23",
						"type": "t_uint256"
					},
					{
						"astId": 867,
						"contract": "profxexpo.sol:DSCSTAKE",
						"label": "levelBonusShares",
						"offset": 0,
						"slot": "24",
						"type": "t_array(t_uint256)dyn_storage"
					},
					{
						"astId": 870,
						"contract": "profxexpo.sol:DSCSTAKE",
						"label": "airdropLevelShares",
						"offset": 0,
						"slot": "25",
						"type": "t_array(t_uint256)dyn_storage"
					},
					{
						"astId": 873,
						"contract": "profxexpo.sol:DSCSTAKE",
						"label": "adminAchivers",
						"offset": 0,
						"slot": "26",
						"type": "t_array(t_address)dyn_storage"
					},
					{
						"astId": 877,
						"contract": "profxexpo.sol:DSCSTAKE",
						"label": "levelShare",
						"offset": 0,
						"slot": "27",
						"type": "t_mapping(t_uint256,t_uint256)"
					},
					{
						"astId": 881,
						"contract": "profxexpo.sol:DSCSTAKE",
						"label": "isAdminAchived",
						"offset": 0,
						"slot": "28",
						"type": "t_mapping(t_address,t_bool)"
					},
					{
						"astId": 886,
						"contract": "profxexpo.sol:DSCSTAKE",
						"label": "users",
						"offset": 0,
						"slot": "29",
						"type": "t_mapping(t_address,t_struct(User)820_storage)"
					},
					{
						"astId": 890,
						"contract": "profxexpo.sol:DSCSTAKE",
						"label": "idToAddress",
						"offset": 0,
						"slot": "30",
						"type": "t_mapping(t_uint256,t_address)"
					},
					{
						"astId": 893,
						"contract": "profxexpo.sol:DSCSTAKE",
						"label": "uniswapRouter",
						"offset": 0,
						"slot": "31",
						"type": "t_contract(IUniswapV2Router02)701"
					}
				],
				"types": {
					"t_address": {
						"encoding": "inplace",
						"label": "address",
						"numberOfBytes": "20"
					},
					"t_array(t_address)dyn_storage": {
						"base": "t_address",
						"encoding": "dynamic_array",
						"label": "address[]",
						"numberOfBytes": "32"
					},
					"t_array(t_uint256)dyn_storage": {
						"base": "t_uint256",
						"encoding": "dynamic_array",
						"label": "uint256[]",
						"numberOfBytes": "32"
					},
					"t_bool": {
						"encoding": "inplace",
						"label": "bool",
						"numberOfBytes": "1"
					},
					"t_contract(IUniswapV2Router02)701": {
						"encoding": "inplace",
						"label": "contract IUniswapV2Router02",
						"numberOfBytes": "20"
					},
					"t_mapping(t_address,t_bool)": {
						"encoding": "mapping",
						"key": "t_address",
						"label": "mapping(address => bool)",
						"numberOfBytes": "32",
						"value": "t_bool"
					},
					"t_mapping(t_address,t_struct(User)820_storage)": {
						"encoding": "mapping",
						"key": "t_address",
						"label": "mapping(address => struct DSCSTAKE.User)",
						"numberOfBytes": "32",
						"value": "t_struct(User)820_storage"
					},
					"t_mapping(t_uint256,t_address)": {
						"encoding": "mapping",
						"key": "t_uint256",
						"label": "mapping(uint256 => address)",
						"numberOfBytes": "32",
						"value": "t_address"
					},
					"t_mapping(t_uint256,t_uint256)": {
						"encoding": "mapping",
						"key": "t_uint256",
						"label": "mapping(uint256 => uint256)",
						"numberOfBytes": "32",
						"value": "t_uint256"
					},
					"t_struct(User)820_storage": {
						"encoding": "inplace",
						"label": "struct DSCSTAKE.User",
						"members": [
							{
								"astId": 797,
								"contract": "profxexpo.sol:DSCSTAKE",
								"label": "userId",
								"offset": 0,
								"slot": "0",
								"type": "t_uint256"
							},
							{
								"astId": 799,
								"contract": "profxexpo.sol:DSCSTAKE",
								"label": "referrer",
								"offset": 0,
								"slot": "1",
								"type": "t_address"
							},
							{
								"astId": 801,
								"contract": "profxexpo.sol:DSCSTAKE",
								"label": "partnerCount",
								"offset": 0,
								"slot": "2",
								"type": "t_uint256"
							},
							{
								"astId": 803,
								"contract": "profxexpo.sol:DSCSTAKE",
								"label": "totalStake",
								"offset": 0,
								"slot": "3",
								"type": "t_uint256"
							},
							{
								"astId": 805,
								"contract": "profxexpo.sol:DSCSTAKE",
								"label": "directBusiness",
								"offset": 0,
								"slot": "4",
								"type": "t_uint256"
							},
							{
								"astId": 807,
								"contract": "profxexpo.sol:DSCSTAKE",
								"label": "teamBusiness",
								"offset": 0,
								"slot": "5",
								"type": "t_uint256"
							},
							{
								"astId": 809,
								"contract": "profxexpo.sol:DSCSTAKE",
								"label": "lastinvest",
								"offset": 0,
								"slot": "6",
								"type": "t_uint256"
							},
							{
								"astId": 811,
								"contract": "profxexpo.sol:DSCSTAKE",
								"label": "rewTaken",
								"offset": 0,
								"slot": "7",
								"type": "t_uint256"
							},
							{
								"astId": 813,
								"contract": "profxexpo.sol:DSCSTAKE",
								"label": "stakecount",
								"offset": 0,
								"slot": "8",
								"type": "t_uint256"
							},
							{
								"astId": 815,
								"contract": "profxexpo.sol:DSCSTAKE",
								"label": "partnersCount",
								"offset": 0,
								"slot": "9",
								"type": "t_uint256"
							},
							{
								"astId": 817,
								"contract": "profxexpo.sol:DSCSTAKE",
								"label": "levelIncome",
								"offset": 0,
								"slot": "10",
								"type": "t_uint256"
							},
							{
								"astId": 819,
								"contract": "profxexpo.sol:DSCSTAKE",
								"label": "onof",
								"offset": 0,
								"slot": "11",
								"type": "t_bool"
							}
						],
						"numberOfBytes": "384"
					},
					"t_uint256": {
						"encoding": "inplace",
						"label": "uint256",
						"numberOfBytes": "32"
					}
				}
			},
			"userdoc": {
				"kind": "user",
				"methods": {},
				"version": 1
			}
		}
	}
}