{
	"arcanixtoken.sol": {
		"ARCANIX": {
			"abi": [
				{
					"inputs": [],
					"stateMutability": "nonpayable",
					"type": "constructor"
				},
				{
					"anonymous": false,
					"inputs": [
						{
							"indexed": true,
							"internalType": "address",
							"name": "owner",
							"type": "address"
						},
						{
							"indexed": true,
							"internalType": "address",
							"name": "spender",
							"type": "address"
						},
						{
							"indexed": false,
							"internalType": "uint256",
							"name": "value",
							"type": "uint256"
						}
					],
					"name": "Approval",
					"type": "event"
				},
				{
					"anonymous": false,
					"inputs": [
						{
							"indexed": true,
							"internalType": "address",
							"name": "previousOwner",
							"type": "address"
						},
						{
							"indexed": true,
							"internalType": "address",
							"name": "newOwner",
							"type": "address"
						}
					],
					"name": "OwnershipTransferred",
					"type": "event"
				},
				{
					"anonymous": false,
					"inputs": [
						{
							"indexed": true,
							"internalType": "address",
							"name": "from",
							"type": "address"
						},
						{
							"indexed": true,
							"internalType": "address",
							"name": "to",
							"type": "address"
						},
						{
							"indexed": false,
							"internalType": "uint256",
							"name": "value",
							"type": "uint256"
						}
					],
					"name": "Transfer",
					"type": "event"
				},
				{
					"inputs": [],
					"name": "_decimals",
					"outputs": [
						{
							"internalType": "uint8",
							"name": "",
							"type": "uint8"
						}
					],
					"stateMutability": "view",
					"type": "function"
				},
				{
					"inputs": [],
					"name": "_name",
					"outputs": [
						{
							"internalType": "string",
							"name": "",
							"type": "string"
						}
					],
					"stateMutability": "view",
					"type": "function"
				},
				{
					"inputs": [],
					"name": "_symbol",
					"outputs": [
						{
							"internalType": "string",
							"name": "",
							"type": "string"
						}
					],
					"stateMutability": "view",
					"type": "function"
				},
				{
					"inputs": [
						{
							"internalType": "address",
							"name": "owner_",
							"type": "address"
						},
						{
							"internalType": "address",
							"name": "spender",
							"type": "address"
						}
					],
					"name": "allowance",
					"outputs": [
						{
							"internalType": "uint256",
							"name": "",
							"type": "uint256"
						}
					],
					"stateMutability": "view",
					"type": "function"
				},
				{
					"inputs": [
						{
							"internalType": "address",
							"name": "spender",
							"type": "address"
						},
						{
							"internalType": "uint256",
							"name": "amount",
							"type": "uint256"
						}
					],
					"name": "approve",
					"outputs": [
						{
							"internalType": "bool",
							"name": "",
							"type": "bool"
						}
					],
					"stateMutability": "nonpayable",
					"type": "function"
				},
				{
					"inputs": [
						{
							"internalType": "address",
							"name": "account",
							"type": "address"
						}
					],
					"name": "balanceOf",
					"outputs": [
						{
							"internalType": "uint256",
							"name": "",
							"type": "uint256"
						}
					],
					"stateMutability": "view",
					"type": "function"
				},
				{
					"inputs": [
						{
							"internalType": "uint256",
							"name": "amount",
							"type": "uint256"
						}
					],
					"name": "burn",
					"outputs": [
						{
							"internalType": "bool",
							"name": "",
							"type": "bool"
						}
					],
					"stateMutability": "nonpayable",
					"type": "function"
				},
				{
					"inputs": [],
					"name": "decimals",
					"outputs": [
						{
							"internalType": "uint8",
							"name": "",
							"type": "uint8"
						}
					],
					"stateMutability": "view",
					"type": "function"
				},
				{
					"inputs": [
						{
							"internalType": "address",
							"name": "spender",
							"type": "address"
						},
						{
							"internalType": "uint256",
							"name": "subtractedValue",
							"type": "uint256"
						}
					],
					"name": "decreaseAllowance",
					"outputs": [
						{
							"internalType": "bool",
							"name": "",
							"type": "bool"
						}
					],
					"stateMutability": "nonpayable",
					"type": "function"
				},
				{
					"inputs": [],
					"name": "getOwner",
					"outputs": [
						{
							"internalType": "address",
							"name": "",
							"type": "address"
						}
					],
					"stateMutability": "view",
					"type": "function"
				},
				{
					"inputs": [
						{
							"internalType": "address",
							"name": "spender",
							"type": "address"
						},
						{
							"internalType": "uint256",
							"name": "addedValue",
							"type": "uint256"
						}
					],
					"name": "increaseAllowance",
					"outputs": [
						{
							"internalType": "bool",
							"name": "",
							"type": "bool"
						}
					],
					"stateMutability": "nonpayable",
					"type": "function"
				},
				{
					"inputs": [],
					"name": "name",
					"outputs": [
						{
							"internalType": "string",
							"name": "",
							"type": "string"
						}
					],
					"stateMutability": "view",
					"type": "function"
				},
				{
					"inputs": [],
					"name": "owner",
					"outputs": [
						{
							"internalType": "address",
							"name": "",
							"type": "address"
						}
					],
					"stateMutability": "view",
					"type": "function"
				},
				{
					"inputs": [],
					"name": "renounceOwnership",
					"outputs": [],
					"stateMutability": "nonpayable",
					"type": "function"
				},
				{
					"inputs": [],
					"name": "symbol",
					"outputs": [
						{
							"internalType": "string",
							"name": "",
							"type": "string"
						}
					],
					"stateMutability": "view",
					"type": "function"
				},
				{
					"inputs": [],
					"name": "totalSupply",
					"outputs": [
						{
							"internalType": "uint256",
							"name": "",
							"type": "uint256"
						}
					],
					"stateMutability": "view",
					"type": "function"
				},
				{
					"inputs": [
						{
							"internalType": "address",
							"name": "recipient",
							"type": "address"
						},
						{
							"internalType": "uint256",
							"name": "amount",
							"type": "uint256"
						}
					],
					"name": "transfer",
					"outputs": [
						{
							"internalType": "bool",
							"name": "",
							"type": "bool"
						}
					],
					"stateMutability": "nonpayable",
					"type": "function"
				},
				{
					"inputs": [
						{
							"internalType": "address",
							"name": "sender",
							"type": "address"
						},
						{
							"internalType": "address",
							"name": "recipient",
							"type": "address"
						},
						{
							"internalType": "uint256",
							"name": "amount",
							"type": "uint256"
						}
					],
					"name": "transferFrom",
					"outputs": [
						{
							"internalType": "bool",
							"name": "",
							"type": "bool"
						}
					],
					"stateMutability": "nonpayable",
					"type": "function"
				},
				{
					"inputs": [
						{
							"internalType": "address",
							"name": "newOwner",
							"type": "address"
						}
					],
					"name": "transferOwnership",
					"outputs": [],
					"stateMutability": "nonpayable",
					"type": "function"
				}
			],
			"devdoc": {
				"kind": "dev",
				"methods": {},
				"version": 1
			},
			"evm": {
				"assembly": "    /* \"arcanixtoken.sol\":2083:5727  contract ARCANIX is Context, IBEP20, Ownable {... */\n  mstore(0x40, 0x80)\n    /* \"arcanixtoken.sol\":2374:2619  constructor() {... */\n  callvalue\n  dup1\n  iszero\n  tag_1\n  jumpi\n  revert(0x00, 0x00)\ntag_1:\n  pop\n    /* \"arcanixtoken.sol\":1389:1395  _owner */\n  0x00\n    /* \"arcanixtoken.sol\":1389:1410  _owner = _msgSender() */\n  dup1\n  sload\n  not(sub(shl(0xa0, 0x01), 0x01))\n  and\n    /* \"arcanixtoken.sol\":1076:1086  msg.sender */\n  caller\n    /* \"arcanixtoken.sol\":1389:1410  _owner = _msgSender() */\n  swap1\n  dup2\n  or\n  dup3\n  sstore\n    /* \"arcanixtoken.sol\":1425:1465  OwnershipTransferred(address(0), _owner) */\n  mload(0x40)\n    /* \"arcanixtoken.sol\":1076:1086  msg.sender */\n  swap1\n  swap2\n    /* \"arcanixtoken.sol\":1389:1395  _owner */\n  swap1\n    /* \"arcanixtoken.sol\":1425:1465  OwnershipTransferred(address(0), _owner) */\n  0x8be0079c531659141344cd1fd0a4f28419497f9722a3daafe3b4186f6b6457e0\n  swap1\n    /* \"arcanixtoken.sol\":1389:1395  _owner */\n  dup3\n  swap1\n    /* \"arcanixtoken.sol\":1425:1465  OwnershipTransferred(address(0), _owner) */\n  log3\n    /* \"arcanixtoken.sol\":2398:2415  _name = \"Arcanix\" */\n  0x40\n  dup1\n  mload\n  dup1\n  dup3\n  add\n  swap1\n  swap2\n  mstore\n  0x07\n  dup2\n  mstore\n  shl(0xcb, 0x082e4c6c2dcd2f)\n  0x20\n  dup3\n  add\n  mstore\n    /* \"arcanixtoken.sol\":2398:2403  _name */\n  0x06\n  swap1\n    /* \"arcanixtoken.sol\":2398:2415  _name = \"Arcanix\" */\n  tag_8\n  swap1\n    /* \"arcanixtoken.sol\":2398:2403  _name */\n  dup3\n    /* \"arcanixtoken.sol\":2398:2415  _name = \"Arcanix\" */\n  tag_9\n  jump\t// in\ntag_8:\n  pop\n    /* \"arcanixtoken.sol\":2425:2440  _symbol = \"ARX\" */\n  0x40\n  dup1\n  mload\n  dup1\n  dup3\n  add\n  swap1\n  swap2\n  mstore\n  0x03\n  dup2\n  mstore\n  shl(0xeb, 0x082a4b)\n  0x20\n  dup3\n  add\n  mstore\n    /* \"arcanixtoken.sol\":2425:2432  _symbol */\n  0x05\n  swap1\n    /* \"arcanixtoken.sol\":2425:2440  _symbol = \"ARX\" */\n  tag_10\n  swap1\n    /* \"arcanixtoken.sol\":2425:2432  _symbol */\n  dup3\n    /* \"arcanixtoken.sol\":2425:2440  _symbol = \"ARX\" */\n  tag_9\n  jump\t// in\ntag_10:\n  pop\n    /* \"arcanixtoken.sol\":2450:2459  _decimals */\n  0x04\n    /* \"arcanixtoken.sol\":2450:2464  _decimals = 18 */\n  dup1\n  sload\n  not(0xff)\n  and\n    /* \"arcanixtoken.sol\":2462:2464  18 */\n  0x12\n    /* \"arcanixtoken.sol\":2450:2464  _decimals = 18 */\n  or\n  swap1\n  sstore\n    /* \"arcanixtoken.sol\":2488:2504  50000000000*1e18 */\n  0xa18f07d736b90be550000000\n    /* \"arcanixtoken.sol\":2474:2486  _totalSupply */\n  0x03\n    /* \"arcanixtoken.sol\":2474:2504  _totalSupply =50000000000*1e18 */\n  dup2\n  swap1\n  sstore\n    /* \"arcanixtoken.sol\":2524:2534  msg.sender */\n  caller\n    /* \"arcanixtoken.sol\":2450:2459  _decimals */\n  0x00\n    /* \"arcanixtoken.sol\":2514:2535  _balances[msg.sender] */\n  dup2\n  dup2\n  mstore\n    /* \"arcanixtoken.sol\":2450:2464  _decimals = 18 */\n  0x01\n    /* \"arcanixtoken.sol\":2514:2535  _balances[msg.sender] */\n  0x20\n  mstore\n  0x40\n  dup1\n  dup3\n  keccak256\n    /* \"arcanixtoken.sol\":2514:2550  _balances[msg.sender] = _totalSupply */\n  dup5\n  swap1\n  sstore\n    /* \"arcanixtoken.sol\":2566:2612  Transfer(address(0), msg.sender, _totalSupply) */\n  mload\n    /* \"arcanixtoken.sol\":2524:2534  msg.sender */\n  swap2\n  swap3\n    /* \"arcanixtoken.sol\":2450:2459  _decimals */\n  swap1\n  swap2\n    /* \"arcanixtoken.sol\":2566:2612  Transfer(address(0), msg.sender, _totalSupply) */\n  0xddf252ad1be2c89b69c2b068fc378daa952ba7f163c4a11628f55a4df523b3ef\n  swap2\n  tag_11\n  swap2\n    /* \"#utility.yul\":2801:2826   */\n  swap1\n  dup2\n  mstore\n    /* \"#utility.yul\":2789:2791   */\n  0x20\n    /* \"#utility.yul\":2774:2792   */\n  add\n  swap1\n    /* \"#utility.yul\":2655:2832   */\n  jump\n    /* \"arcanixtoken.sol\":2566:2612  Transfer(address(0), msg.sender, _totalSupply) */\ntag_11:\n  mload(0x40)\n  dup1\n  swap2\n  sub\n  swap1\n  log3\n    /* \"arcanixtoken.sol\":2083:5727  contract ARCANIX is Context, IBEP20, Ownable {... */\n  jump(tag_20)\n    /* \"#utility.yul\":14:141   */\ntag_15:\n    /* \"#utility.yul\":75:85   */\n  0x4e487b71\n    /* \"#utility.yul\":70:73   */\n  0xe0\n    /* \"#utility.yul\":66:86   */\n  shl\n    /* \"#utility.yul\":63:64   */\n  0x00\n    /* \"#utility.yul\":56:87   */\n  mstore\n    /* \"#utility.yul\":106:110   */\n  0x41\n    /* \"#utility.yul\":103:104   */\n  0x04\n    /* \"#utility.yul\":96:111   */\n  mstore\n    /* \"#utility.yul\":130:134   */\n  0x24\n    /* \"#utility.yul\":127:128   */\n  0x00\n    /* \"#utility.yul\":120:135   */\n  revert\n    /* \"#utility.yul\":146:526   */\ntag_16:\n    /* \"#utility.yul\":225:226   */\n  0x01\n    /* \"#utility.yul\":221:233   */\n  dup2\n  dup2\n  shr\n  swap1\n    /* \"#utility.yul\":268:280   */\n  dup3\n  and\n  dup1\n    /* \"#utility.yul\":289:350   */\n  tag_23\n  jumpi\n    /* \"#utility.yul\":343:347   */\n  0x7f\n    /* \"#utility.yul\":335:341   */\n  dup3\n    /* \"#utility.yul\":331:348   */\n  and\n    /* \"#utility.yul\":321:348   */\n  swap2\n  pop\n    /* \"#utility.yul\":289:350   */\ntag_23:\n    /* \"#utility.yul\":396:398   */\n  0x20\n    /* \"#utility.yul\":388:394   */\n  dup3\n    /* \"#utility.yul\":385:399   */\n  lt\n    /* \"#utility.yul\":365:383   */\n  dup2\n    /* \"#utility.yul\":362:400   */\n  sub\n    /* \"#utility.yul\":359:520   */\n  tag_24\n  jumpi\n    /* \"#utility.yul\":442:452   */\n  0x4e487b71\n    /* \"#utility.yul\":437:440   */\n  0xe0\n    /* \"#utility.yul\":433:453   */\n  shl\n    /* \"#utility.yul\":430:431   */\n  0x00\n    /* \"#utility.yul\":423:454   */\n  mstore\n    /* \"#utility.yul\":477:481   */\n  0x22\n    /* \"#utility.yul\":474:475   */\n  0x04\n    /* \"#utility.yul\":467:482   */\n  mstore\n    /* \"#utility.yul\":505:509   */\n  0x24\n    /* \"#utility.yul\":502:503   */\n  0x00\n    /* \"#utility.yul\":495:510   */\n  revert\n    /* \"#utility.yul\":359:520   */\ntag_24:\n  pop\n    /* \"#utility.yul\":146:526   */\n  swap2\n  swap1\n  pop\n  jump\t// out\n    /* \"#utility.yul\":657:1175   */\ntag_18:\n    /* \"#utility.yul\":759:761   */\n  0x1f\n    /* \"#utility.yul\":754:757   */\n  dup3\n    /* \"#utility.yul\":751:762   */\n  gt\n    /* \"#utility.yul\":748:1169   */\n  iszero\n  tag_27\n  jumpi\n    /* \"#utility.yul\":795:800   */\n  dup1\n    /* \"#utility.yul\":792:793   */\n  0x00\n    /* \"#utility.yul\":785:801   */\n  mstore\n    /* \"#utility.yul\":839:843   */\n  0x20\n    /* \"#utility.yul\":836:837   */\n  0x00\n    /* \"#utility.yul\":826:844   */\n  keccak256\n    /* \"#utility.yul\":909:911   */\n  0x1f\n    /* \"#utility.yul\":897:907   */\n  dup5\n    /* \"#utility.yul\":893:912   */\n  add\n    /* \"#utility.yul\":890:891   */\n  0x05\n    /* \"#utility.yul\":886:913   */\n  shr\n    /* \"#utility.yul\":880:884   */\n  dup2\n    /* \"#utility.yul\":876:914   */\n  add\n    /* \"#utility.yul\":945:949   */\n  0x20\n    /* \"#utility.yul\":933:943   */\n  dup6\n    /* \"#utility.yul\":930:950   */\n  lt\n    /* \"#utility.yul\":927:974   */\n  iszero\n  tag_28\n  jumpi\n  pop\n    /* \"#utility.yul\":968:972   */\n  dup1\n    /* \"#utility.yul\":927:974   */\ntag_28:\n    /* \"#utility.yul\":1023:1025   */\n  0x1f\n    /* \"#utility.yul\":1018:1021   */\n  dup5\n    /* \"#utility.yul\":1014:1026   */\n  add\n    /* \"#utility.yul\":1011:1012   */\n  0x05\n    /* \"#utility.yul\":1007:1027   */\n  shr\n    /* \"#utility.yul\":1001:1005   */\n  dup3\n    /* \"#utility.yul\":997:1028   */\n  add\n    /* \"#utility.yul\":987:1028   */\n  swap2\n  pop\n    /* \"#utility.yul\":1078:1159   */\ntag_29:\n    /* \"#utility.yul\":1096:1098   */\n  dup2\n    /* \"#utility.yul\":1089:1094   */\n  dup2\n    /* \"#utility.yul\":1086:1099   */\n  lt\n    /* \"#utility.yul\":1078:1159   */\n  iszero\n  tag_31\n  jumpi\n    /* \"#utility.yul\":1155:1156   */\n  0x00\n    /* \"#utility.yul\":1141:1157   */\n  dup2\n  sstore\n    /* \"#utility.yul\":1122:1123   */\n  0x01\n    /* \"#utility.yul\":1111:1124   */\n  add\n    /* \"#utility.yul\":1078:1159   */\n  jump(tag_29)\ntag_31:\n    /* \"#utility.yul\":1082:1085   */\n  pop\n  pop\n    /* \"#utility.yul\":748:1169   */\ntag_27:\n    /* \"#utility.yul\":657:1175   */\n  pop\n  pop\n  pop\n  jump\t// out\n    /* \"#utility.yul\":1351:2650   */\ntag_9:\n    /* \"#utility.yul\":1471:1481   */\n  dup2\n  mload\n  sub(shl(0x40, 0x01), 0x01)\n    /* \"#utility.yul\":1493:1523   */\n  dup2\n  gt\n    /* \"#utility.yul\":1490:1546   */\n  iszero\n  tag_35\n  jumpi\n    /* \"#utility.yul\":1526:1544   */\n  tag_35\n  tag_15\n  jump\t// in\ntag_35:\n    /* \"#utility.yul\":1555:1652   */\n  tag_36\n    /* \"#utility.yul\":1645:1651   */\n  dup2\n    /* \"#utility.yul\":1605:1643   */\n  tag_37\n    /* \"#utility.yul\":1637:1641   */\n  dup5\n    /* \"#utility.yul\":1631:1642   */\n  sload\n    /* \"#utility.yul\":1605:1643   */\n  tag_16\n  jump\t// in\ntag_37:\n    /* \"#utility.yul\":1599:1603   */\n  dup5\n    /* \"#utility.yul\":1555:1652   */\n  tag_18\n  jump\t// in\ntag_36:\n    /* \"#utility.yul\":1701:1705   */\n  0x20\n    /* \"#utility.yul\":1732:1734   */\n  0x1f\n    /* \"#utility.yul\":1721:1735   */\n  dup3\n  gt\n    /* \"#utility.yul\":1749:1750   */\n  0x01\n    /* \"#utility.yul\":1744:2393   */\n  dup2\n  eq\n  tag_39\n  jumpi\n    /* \"#utility.yul\":2437:2438   */\n  0x00\n    /* \"#utility.yul\":2454:2460   */\n  dup4\n    /* \"#utility.yul\":2451:2540   */\n  iszero\n  tag_40\n  jumpi\n  pop\n    /* \"#utility.yul\":2506:2525   */\n  dup5\n  dup3\n  add\n    /* \"#utility.yul\":2500:2526   */\n  mload\n    /* \"#utility.yul\":2451:2540   */\ntag_40:\n  not(0x00)\n    /* \"#utility.yul\":1308:1309   */\n  0x03\n    /* \"#utility.yul\":1304:1315   */\n  dup6\n  swap1\n  shl\n    /* \"#utility.yul\":1300:1324   */\n  shr\n    /* \"#utility.yul\":1296:1325   */\n  not\n    /* \"#utility.yul\":1286:1326   */\n  and\n    /* \"#utility.yul\":1332:1333   */\n  0x01\n    /* \"#utility.yul\":1328:1339   */\n  dup5\n  swap1\n  shl\n    /* \"#utility.yul\":1283:1340   */\n  or\n    /* \"#utility.yul\":2553:2634   */\n  dup5\n  sstore\n    /* \"#utility.yul\":1714:2644   */\n  jump(tag_31)\n    /* \"#utility.yul\":1744:2393   */\ntag_39:\n    /* \"#utility.yul\":604:605   */\n  0x00\n    /* \"#utility.yul\":597:611   */\n  dup5\n  dup2\n  mstore\n    /* \"#utility.yul\":641:645   */\n  0x20\n    /* \"#utility.yul\":628:646   */\n  dup2\n  keccak256\n  not(0x1f)\n    /* \"#utility.yul\":1780:1800   */\n  dup6\n  and\n  swap2\n    /* \"#utility.yul\":1898:2120   */\ntag_43:\n    /* \"#utility.yul\":1912:1919   */\n  dup3\n    /* \"#utility.yul\":1909:1910   */\n  dup2\n    /* \"#utility.yul\":1906:1920   */\n  lt\n    /* \"#utility.yul\":1898:2120   */\n  iszero\n  tag_45\n  jumpi\n    /* \"#utility.yul\":1994:2013   */\n  dup8\n  dup6\n  add\n    /* \"#utility.yul\":1988:2014   */\n  mload\n    /* \"#utility.yul\":1973:2015   */\n  dup3\n  sstore\n    /* \"#utility.yul\":2101:2105   */\n  0x20\n    /* \"#utility.yul\":2086:2106   */\n  swap5\n  dup6\n  add\n  swap5\n    /* \"#utility.yul\":2054:2055   */\n  0x01\n    /* \"#utility.yul\":2042:2056   */\n  swap1\n  swap3\n  add\n  swap2\n    /* \"#utility.yul\":1928:1940   */\n  add\n    /* \"#utility.yul\":1898:2120   */\n  jump(tag_43)\ntag_45:\n    /* \"#utility.yul\":1902:1905   */\n  pop\n    /* \"#utility.yul\":2148:2154   */\n  dup5\n    /* \"#utility.yul\":2139:2146   */\n  dup3\n    /* \"#utility.yul\":2136:2155   */\n  lt\n    /* \"#utility.yul\":2133:2334   */\n  iszero\n  tag_46\n  jumpi\n    /* \"#utility.yul\":2209:2228   */\n  dup7\n  dup5\n  add\n    /* \"#utility.yul\":2203:2229   */\n  mload\n  not(0x00)\n    /* \"#utility.yul\":2292:2293   */\n  0x03\n    /* \"#utility.yul\":2288:2302   */\n  dup8\n  swap1\n  shl\n    /* \"#utility.yul\":2304:2307   */\n  0xf8\n    /* \"#utility.yul\":2284:2308   */\n  and\n    /* \"#utility.yul\":2280:2317   */\n  shr\n    /* \"#utility.yul\":2276:2318   */\n  not\n    /* \"#utility.yul\":2261:2319   */\n  and\n    /* \"#utility.yul\":2246:2320   */\n  dup2\n  sstore\n    /* \"#utility.yul\":2133:2334   */\ntag_46:\n  pop\n  pop\n  pop\n  pop\n    /* \"#utility.yul\":2380:2381   */\n  0x01\n    /* \"#utility.yul\":2364:2378   */\n  swap1\n  dup2\n  shl\n    /* \"#utility.yul\":2360:2382   */\n  add\n    /* \"#utility.yul\":2347:2383   */\n  swap1\n  sstore\n  pop\n    /* \"#utility.yul\":1351:2650   */\n  jump\t// out\n    /* \"#utility.yul\":2655:2832   */\ntag_20:\n    /* \"arcanixtoken.sol\":2083:5727  contract ARCANIX is Context, IBEP20, Ownable {... */\n  dataSize(sub_0)\n  dup1\n  dataOffset(sub_0)\n  0x00\n  codecopy\n  0x00\n  return\nstop\n\nsub_0: assembly {\n        /* \"arcanixtoken.sol\":2083:5727  contract ARCANIX is Context, IBEP20, Ownable {... */\n      mstore(0x40, 0x80)\n      callvalue\n      dup1\n      iszero\n      tag_1\n      jumpi\n      revert(0x00, 0x00)\n    tag_1:\n      pop\n      jumpi(tag_2, lt(calldatasize, 0x04))\n      shr(0xe0, calldataload(0x00))\n      dup1\n      0x715018a6\n      gt\n      tag_22\n      jumpi\n      dup1\n      0xa9059cbb\n      gt\n      tag_23\n      jumpi\n      dup1\n      0xa9059cbb\n      eq\n      tag_17\n      jumpi\n      dup1\n      0xb09f1266\n      eq\n      tag_18\n      jumpi\n      dup1\n      0xd28d8852\n      eq\n      tag_19\n      jumpi\n      dup1\n      0xdd62ed3e\n      eq\n      tag_20\n      jumpi\n      dup1\n      0xf2fde38b\n      eq\n      tag_21\n      jumpi\n      revert(0x00, 0x00)\n    tag_23:\n      dup1\n      0x715018a6\n      eq\n      tag_12\n      jumpi\n      dup1\n      0x893d20e8\n      eq\n      tag_13\n      jumpi\n      dup1\n      0x8da5cb5b\n      eq\n      tag_14\n      jumpi\n      dup1\n      0x95d89b41\n      eq\n      tag_15\n      jumpi\n      dup1\n      0xa457c2d7\n      eq\n      tag_16\n      jumpi\n      revert(0x00, 0x00)\n    tag_22:\n      dup1\n      0x313ce567\n      gt\n      tag_24\n      jumpi\n      dup1\n      0x313ce567\n      eq\n      tag_7\n      jumpi\n      dup1\n      0x32424aa3\n      eq\n      tag_8\n      jumpi\n      dup1\n      0x39509351\n      eq\n      tag_9\n      jumpi\n      dup1\n      0x42966c68\n      eq\n      tag_10\n      jumpi\n      dup1\n      0x70a08231\n      eq\n      tag_11\n      jumpi\n      revert(0x00, 0x00)\n    tag_24:\n      dup1\n      0x06fdde03\n      eq\n      tag_3\n      jumpi\n      dup1\n      0x095ea7b3\n      eq\n      tag_4\n      jumpi\n      dup1\n      0x18160ddd\n      eq\n      tag_5\n      jumpi\n      dup1\n      0x23b872dd\n      eq\n      tag_6\n      jumpi\n    tag_2:\n      revert(0x00, 0x00)\n        /* \"arcanixtoken.sol\":2923:3015  function name() external view override returns (string memory) {... */\n    tag_3:\n      tag_25\n      tag_26\n      jump\t// in\n    tag_25:\n      mload(0x40)\n      tag_27\n      swap2\n      swap1\n      tag_28\n      jump\t// in\n    tag_27:\n      mload(0x40)\n      dup1\n      swap2\n      sub\n      swap1\n      return\n        /* \"arcanixtoken.sol\":3575:3735  function approve(address spender, uint256 amount) external override returns (bool) {... */\n    tag_4:\n      tag_29\n      tag_30\n      calldatasize\n      0x04\n      tag_31\n      jump\t// in\n    tag_30:\n      tag_32\n      jump\t// in\n    tag_29:\n      mload(0x40)\n        /* \"#utility.yul\":1085:1099   */\n      swap1\n      iszero\n        /* \"#utility.yul\":1078:1100   */\n      iszero\n        /* \"#utility.yul\":1060:1101   */\n      dup2\n      mstore\n        /* \"#utility.yul\":1048:1050   */\n      0x20\n        /* \"#utility.yul\":1033:1051   */\n      add\n        /* \"arcanixtoken.sol\":3575:3735  function approve(address spender, uint256 amount) external override returns (bool) {... */\n      tag_27\n        /* \"#utility.yul\":920:1107   */\n      jump\n        /* \"arcanixtoken.sol\":3021:3121  function totalSupply() external view override returns (uint256) {... */\n    tag_5:\n        /* \"arcanixtoken.sol\":3102:3114  _totalSupply */\n      sload(0x03)\n        /* \"arcanixtoken.sol\":3021:3121  function totalSupply() external view override returns (uint256) {... */\n    tag_35:\n      mload(0x40)\n        /* \"#utility.yul\":1258:1283   */\n      swap1\n      dup2\n      mstore\n        /* \"#utility.yul\":1246:1248   */\n      0x20\n        /* \"#utility.yul\":1231:1249   */\n      add\n        /* \"arcanixtoken.sol\":3021:3121  function totalSupply() external view override returns (uint256) {... */\n      tag_27\n        /* \"#utility.yul\":1112:1289   */\n      jump\n        /* \"arcanixtoken.sol\":3741:4005  function transferFrom(address sender, address recipient, uint256 amount) external override returns (bool) {... */\n    tag_6:\n      tag_29\n      tag_40\n      calldatasize\n      0x04\n      tag_41\n      jump\t// in\n    tag_40:\n      tag_42\n      jump\t// in\n        /* \"arcanixtoken.sol\":2723:2815  function decimals() external view override returns (uint8) {... */\n    tag_7:\n        /* \"arcanixtoken.sol\":2799:2808  _decimals */\n      and(0xff, sload(0x04))\n        /* \"arcanixtoken.sol\":2723:2815  function decimals() external view override returns (uint8) {... */\n    tag_44:\n      mload(0x40)\n        /* \"#utility.yul\":1845:1849   */\n      0xff\n        /* \"#utility.yul\":1833:1850   */\n      swap1\n      swap2\n      and\n        /* \"#utility.yul\":1815:1851   */\n      dup2\n      mstore\n        /* \"#utility.yul\":1803:1805   */\n      0x20\n        /* \"#utility.yul\":1788:1806   */\n      add\n        /* \"arcanixtoken.sol\":2723:2815  function decimals() external view override returns (uint8) {... */\n      tag_27\n        /* \"#utility.yul\":1673:1857   */\n      jump\n        /* \"arcanixtoken.sol\":2293:2315  uint8 public _decimals */\n    tag_8:\n      sload(0x04)\n      tag_44\n      swap1\n      0xff\n      and\n      dup2\n      jump\n        /* \"arcanixtoken.sol\":4011:4215  function increaseAllowance(address spender, uint256 addedValue) public returns (bool) {... */\n    tag_9:\n      tag_29\n      tag_52\n      calldatasize\n      0x04\n      tag_31\n      jump\t// in\n    tag_52:\n      tag_53\n      jump\t// in\n        /* \"arcanixtoken.sol\":4441:4558  function burn(uint256 amount) public returns (bool) {... */\n    tag_10:\n      tag_29\n      tag_56\n      calldatasize\n      0x04\n      tag_57\n      jump\t// in\n    tag_56:\n      tag_58\n      jump\t// in\n        /* \"arcanixtoken.sol\":3127:3246  function balanceOf(address account) external view override returns (uint256) {... */\n    tag_11:\n      tag_35\n      tag_61\n      calldatasize\n      0x04\n      tag_62\n      jump\t// in\n    tag_61:\n      sub(shl(0xa0, 0x01), 0x01)\n        /* \"arcanixtoken.sol\":3221:3239  _balances[account] */\n      and\n        /* \"arcanixtoken.sol\":3195:3202  uint256 */\n      0x00\n        /* \"arcanixtoken.sol\":3221:3239  _balances[account] */\n      swap1\n      dup2\n      mstore\n        /* \"arcanixtoken.sol\":3221:3230  _balances */\n      0x01\n        /* \"arcanixtoken.sol\":3221:3239  _balances[account] */\n      0x20\n      mstore\n      0x40\n      swap1\n      keccak256\n      sload\n      swap1\n        /* \"arcanixtoken.sol\":3127:3246  function balanceOf(address account) external view override returns (uint256) {... */\n      jump\n        /* \"arcanixtoken.sol\":1692:1837  function renounceOwnership() public virtual onlyOwner {... */\n    tag_12:\n      tag_65\n      tag_66\n      jump\t// in\n    tag_65:\n      stop\n        /* \"arcanixtoken.sol\":2625:2717  function getOwner() external view override returns (address) {... */\n    tag_13:\n        /* \"arcanixtoken.sol\":2677:2684  address */\n      0x00\n        /* \"arcanixtoken.sol\":1550:1556  _owner */\n      sload\n      sub(shl(0xa0, 0x01), 0x01)\n      and\n        /* \"arcanixtoken.sol\":2625:2717  function getOwner() external view override returns (address) {... */\n    tag_67:\n      mload(0x40)\n      sub(shl(0xa0, 0x01), 0x01)\n        /* \"#utility.yul\":2448:2480   */\n      swap1\n      swap2\n      and\n        /* \"#utility.yul\":2430:2481   */\n      dup2\n      mstore\n        /* \"#utility.yul\":2418:2420   */\n      0x20\n        /* \"#utility.yul\":2403:2421   */\n      add\n        /* \"arcanixtoken.sol\":2625:2717  function getOwner() external view override returns (address) {... */\n      tag_27\n        /* \"#utility.yul\":2284:2487   */\n      jump\n        /* \"arcanixtoken.sol\":1478:1563  function owner() public view virtual returns (address) {... */\n    tag_14:\n        /* \"arcanixtoken.sol\":1524:1531  address */\n      0x00\n        /* \"arcanixtoken.sol\":1550:1556  _owner */\n      sload\n      sub(shl(0xa0, 0x01), 0x01)\n      and\n        /* \"arcanixtoken.sol\":1478:1563  function owner() public view virtual returns (address) {... */\n      jump(tag_67)\n        /* \"arcanixtoken.sol\":2821:2917  function symbol() external view override returns (string memory) {... */\n    tag_15:\n      tag_25\n      tag_75\n      jump\t// in\n        /* \"arcanixtoken.sol\":4221:4435  function decreaseAllowance(address spender, uint256 subtractedValue) public returns (bool) {... */\n    tag_16:\n      tag_29\n      tag_78\n      calldatasize\n      0x04\n      tag_31\n      jump\t// in\n    tag_78:\n      tag_79\n      jump\t// in\n        /* \"arcanixtoken.sol\":3252:3418  function transfer(address recipient, uint256 amount) external override returns (bool) {... */\n    tag_17:\n      tag_29\n      tag_82\n      calldatasize\n      0x04\n      tag_31\n      jump\t// in\n    tag_82:\n      tag_83\n      jump\t// in\n        /* \"arcanixtoken.sol\":2321:2342  string public _symbol */\n    tag_18:\n      tag_25\n      tag_86\n      jump\t// in\n        /* \"arcanixtoken.sol\":2348:2367  string public _name */\n    tag_19:\n      tag_25\n      tag_89\n      jump\t// in\n        /* \"arcanixtoken.sol\":3424:3569  function allowance(address owner_, address spender) external view override returns (uint256) {... */\n    tag_20:\n      tag_35\n      tag_92\n      calldatasize\n      0x04\n      tag_93\n      jump\t// in\n    tag_92:\n      sub(shl(0xa0, 0x01), 0x01)\n        /* \"arcanixtoken.sol\":3534:3553  _allowances[owner_] */\n      swap2\n      dup3\n      and\n        /* \"arcanixtoken.sol\":3508:3515  uint256 */\n      0x00\n        /* \"arcanixtoken.sol\":3534:3553  _allowances[owner_] */\n      swap1\n      dup2\n      mstore\n        /* \"arcanixtoken.sol\":3534:3545  _allowances */\n      0x02\n        /* \"arcanixtoken.sol\":3534:3553  _allowances[owner_] */\n      0x20\n      swap1\n      dup2\n      mstore\n      0x40\n      dup1\n      dup4\n      keccak256\n        /* \"arcanixtoken.sol\":3534:3562  _allowances[owner_][spender] */\n      swap4\n      swap1\n      swap5\n      and\n      dup3\n      mstore\n      swap2\n      swap1\n      swap2\n      mstore\n      keccak256\n      sload\n      swap1\n        /* \"arcanixtoken.sol\":3424:3569  function allowance(address owner_, address spender) external view override returns (uint256) {... */\n      jump\n        /* \"arcanixtoken.sol\":1843:2079  function transferOwnership(address newOwner) public virtual onlyOwner {... */\n    tag_21:\n      tag_65\n      tag_97\n      calldatasize\n      0x04\n      tag_62\n      jump\t// in\n    tag_97:\n      tag_98\n      jump\t// in\n        /* \"arcanixtoken.sol\":2923:3015  function name() external view override returns (string memory) {... */\n    tag_26:\n        /* \"arcanixtoken.sol\":2971:2984  string memory */\n      0x60\n        /* \"arcanixtoken.sol\":3003:3008  _name */\n      0x06\n        /* \"arcanixtoken.sol\":2996:3008  return _name */\n      dup1\n      sload\n      tag_100\n      swap1\n      tag_101\n      jump\t// in\n    tag_100:\n      dup1\n      0x1f\n      add\n      0x20\n      dup1\n      swap2\n      div\n      mul\n      0x20\n      add\n      mload(0x40)\n      swap1\n      dup2\n      add\n      0x40\n      mstore\n      dup1\n      swap3\n      swap2\n      swap1\n      dup2\n      dup2\n      mstore\n      0x20\n      add\n      dup3\n      dup1\n      sload\n      tag_102\n      swap1\n      tag_101\n      jump\t// in\n    tag_102:\n      dup1\n      iszero\n      tag_103\n      jumpi\n      dup1\n      0x1f\n      lt\n      tag_104\n      jumpi\n      0x0100\n      dup1\n      dup4\n      sload\n      div\n      mul\n      dup4\n      mstore\n      swap2\n      0x20\n      add\n      swap2\n      jump(tag_103)\n    tag_104:\n      dup3\n      add\n      swap2\n      swap1\n      0x00\n      mstore\n      keccak256(0x00, 0x20)\n      swap1\n    tag_105:\n      dup2\n      sload\n      dup2\n      mstore\n      swap1\n      0x01\n      add\n      swap1\n      0x20\n      add\n      dup1\n      dup4\n      gt\n      tag_105\n      jumpi\n      dup3\n      swap1\n      sub\n      0x1f\n      and\n      dup3\n      add\n      swap2\n    tag_103:\n      pop\n      pop\n      pop\n      pop\n      pop\n      swap1\n      pop\n        /* \"arcanixtoken.sol\":2923:3015  function name() external view override returns (string memory) {... */\n      swap1\n      jump\t// out\n        /* \"arcanixtoken.sol\":3575:3735  function approve(address spender, uint256 amount) external override returns (bool) {... */\n    tag_32:\n        /* \"arcanixtoken.sol\":3652:3656  bool */\n      0x00\n        /* \"arcanixtoken.sol\":3668:3707  _approve(_msgSender(), spender, amount) */\n      tag_107\n        /* \"arcanixtoken.sol\":1076:1086  msg.sender */\n      caller\n        /* \"arcanixtoken.sol\":3691:3698  spender */\n      dup5\n        /* \"arcanixtoken.sol\":3700:3706  amount */\n      dup5\n        /* \"arcanixtoken.sol\":3668:3676  _approve */\n      tag_110\n        /* \"arcanixtoken.sol\":3668:3707  _approve(_msgSender(), spender, amount) */\n      jump\t// in\n    tag_107:\n      pop\n        /* \"arcanixtoken.sol\":3724:3728  true */\n      0x01\n        /* \"arcanixtoken.sol\":3575:3735  function approve(address spender, uint256 amount) external override returns (bool) {... */\n    tag_106:\n      swap3\n      swap2\n      pop\n      pop\n      jump\t// out\n        /* \"arcanixtoken.sol\":3741:4005  function transferFrom(address sender, address recipient, uint256 amount) external override returns (bool) {... */\n    tag_42:\n        /* \"arcanixtoken.sol\":3841:3845  bool */\n      0x00\n        /* \"arcanixtoken.sol\":3857:3893  _transfer(sender, recipient, amount) */\n      tag_113\n        /* \"arcanixtoken.sol\":3867:3873  sender */\n      dup5\n        /* \"arcanixtoken.sol\":3875:3884  recipient */\n      dup5\n        /* \"arcanixtoken.sol\":3886:3892  amount */\n      dup5\n        /* \"arcanixtoken.sol\":3857:3866  _transfer */\n      tag_114\n        /* \"arcanixtoken.sol\":3857:3893  _transfer(sender, recipient, amount) */\n      jump\t// in\n    tag_113:\n      sub(shl(0xa0, 0x01), 0x01)\n        /* \"arcanixtoken.sol\":3934:3953  _allowances[sender] */\n      dup5\n      and\n      0x00\n      swap1\n      dup2\n      mstore\n        /* \"arcanixtoken.sol\":3934:3945  _allowances */\n      0x02\n        /* \"arcanixtoken.sol\":3934:3953  _allowances[sender] */\n      0x20\n      swap1\n      dup2\n      mstore\n      0x40\n      dup1\n      dup4\n      keccak256\n        /* \"arcanixtoken.sol\":1076:1086  msg.sender */\n      caller\n        /* \"arcanixtoken.sol\":3934:3967  _allowances[sender][_msgSender()] */\n      dup1\n      dup6\n      mstore\n      swap3\n      mstore\n      swap1\n      swap2\n      keccak256\n      sload\n        /* \"arcanixtoken.sol\":3903:3977  _approve(sender, _msgSender(), _allowances[sender][_msgSender()] - amount) */\n      tag_115\n      swap2\n        /* \"arcanixtoken.sol\":3912:3918  sender */\n      dup7\n      swap2\n        /* \"arcanixtoken.sol\":3934:3976  _allowances[sender][_msgSender()] - amount */\n      tag_118\n      swap1\n        /* \"arcanixtoken.sol\":3970:3976  amount */\n      dup7\n      swap1\n        /* \"arcanixtoken.sol\":3934:3976  _allowances[sender][_msgSender()] - amount */\n      tag_119\n      jump\t// in\n    tag_118:\n        /* \"arcanixtoken.sol\":3903:3911  _approve */\n      tag_110\n        /* \"arcanixtoken.sol\":3903:3977  _approve(sender, _msgSender(), _allowances[sender][_msgSender()] - amount) */\n      jump\t// in\n    tag_115:\n      pop\n        /* \"arcanixtoken.sol\":3994:3998  true */\n      0x01\n        /* \"arcanixtoken.sol\":3741:4005  function transferFrom(address sender, address recipient, uint256 amount) external override returns (bool) {... */\n      swap4\n      swap3\n      pop\n      pop\n      pop\n      jump\t// out\n        /* \"arcanixtoken.sol\":4011:4215  function increaseAllowance(address spender, uint256 addedValue) public returns (bool) {... */\n    tag_53:\n        /* \"arcanixtoken.sol\":1076:1086  msg.sender */\n      caller\n        /* \"arcanixtoken.sol\":4091:4095  bool */\n      0x00\n        /* \"arcanixtoken.sol\":4139:4164  _allowances[_msgSender()] */\n      dup2\n      dup2\n      mstore\n        /* \"arcanixtoken.sol\":4139:4150  _allowances */\n      0x02\n        /* \"arcanixtoken.sol\":4139:4164  _allowances[_msgSender()] */\n      0x20\n      swap1\n      dup2\n      mstore\n      0x40\n      dup1\n      dup4\n      keccak256\n      sub(shl(0xa0, 0x01), 0x01)\n        /* \"arcanixtoken.sol\":4139:4173  _allowances[_msgSender()][spender] */\n      dup8\n      and\n      dup5\n      mstore\n      swap1\n      swap2\n      mstore\n      dup2\n      keccak256\n      sload\n        /* \"arcanixtoken.sol\":4091:4095  bool */\n      swap1\n      swap2\n        /* \"arcanixtoken.sol\":4107:4187  _approve(_msgSender(), spender, _allowances[_msgSender()][spender] + addedValue) */\n      tag_107\n      swap2\n        /* \"arcanixtoken.sol\":4130:4137  spender */\n      dup6\n      swap1\n        /* \"arcanixtoken.sol\":4139:4186  _allowances[_msgSender()][spender] + addedValue */\n      tag_118\n      swap1\n        /* \"arcanixtoken.sol\":4176:4186  addedValue */\n      dup7\n      swap1\n        /* \"arcanixtoken.sol\":4139:4186  _allowances[_msgSender()][spender] + addedValue */\n      tag_126\n      jump\t// in\n        /* \"arcanixtoken.sol\":4441:4558  function burn(uint256 amount) public returns (bool) {... */\n    tag_58:\n        /* \"arcanixtoken.sol\":4487:4491  bool */\n      0x00\n        /* \"arcanixtoken.sol\":4503:4530  _burn(_msgSender(), amount) */\n      tag_128\n        /* \"arcanixtoken.sol\":1076:1086  msg.sender */\n      caller\n        /* \"arcanixtoken.sol\":4523:4529  amount */\n      dup4\n        /* \"arcanixtoken.sol\":4503:4508  _burn */\n      tag_130\n        /* \"arcanixtoken.sol\":4503:4530  _burn(_msgSender(), amount) */\n      jump\t// in\n    tag_128:\n      pop\n        /* \"arcanixtoken.sol\":4547:4551  true */\n      0x01\n      swap2\n        /* \"arcanixtoken.sol\":4441:4558  function burn(uint256 amount) public returns (bool) {... */\n      swap1\n      pop\n      jump\t// out\n        /* \"arcanixtoken.sol\":1692:1837  function renounceOwnership() public virtual onlyOwner {... */\n    tag_66:\n        /* \"arcanixtoken.sol\":1524:1531  address */\n      0x00\n        /* \"arcanixtoken.sol\":1550:1556  _owner */\n      sload\n      sub(shl(0xa0, 0x01), 0x01)\n      and\n        /* \"arcanixtoken.sol\":1076:1086  msg.sender */\n      caller\n        /* \"arcanixtoken.sol\":1608:1631  owner() == _msgSender() */\n      eq\n        /* \"arcanixtoken.sol\":1600:1668  require(owner() == _msgSender(), \"Ownable: caller is not the owner\") */\n      tag_135\n      jumpi\n      mload(0x40)\n      shl(0xe5, 0x461bcd)\n      dup2\n      mstore\n        /* \"#utility.yul\":3739:3741   */\n      0x20\n        /* \"arcanixtoken.sol\":1600:1668  require(owner() == _msgSender(), \"Ownable: caller is not the owner\") */\n      0x04\n      dup3\n      add\n        /* \"#utility.yul\":3721:3742   */\n      dup2\n      swap1\n      mstore\n        /* \"#utility.yul\":3758:3776   */\n      0x24\n      dup3\n      add\n        /* \"#utility.yul\":3751:3781   */\n      mstore\n        /* \"#utility.yul\":3817:3851   */\n      0x4f776e61626c653a2063616c6c6572206973206e6f7420746865206f776e6572\n        /* \"#utility.yul\":3797:3815   */\n      0x44\n      dup3\n      add\n        /* \"#utility.yul\":3790:3852   */\n      mstore\n        /* \"#utility.yul\":3869:3887   */\n      0x64\n      add\n        /* \"arcanixtoken.sol\":1600:1668  require(owner() == _msgSender(), \"Ownable: caller is not the owner\") */\n    tag_136:\n      mload(0x40)\n      dup1\n      swap2\n      sub\n      swap1\n      revert\n    tag_135:\n        /* \"arcanixtoken.sol\":1798:1799  0 */\n      0x00\n        /* \"arcanixtoken.sol\":1782:1788  _owner */\n      dup1\n      sload\n        /* \"arcanixtoken.sol\":1761:1801  OwnershipTransferred(_owner, address(0)) */\n      mload(0x40)\n      sub(shl(0xa0, 0x01), 0x01)\n        /* \"arcanixtoken.sol\":1782:1788  _owner */\n      swap1\n      swap2\n      and\n      swap1\n        /* \"arcanixtoken.sol\":1761:1801  OwnershipTransferred(_owner, address(0)) */\n      0x8be0079c531659141344cd1fd0a4f28419497f9722a3daafe3b4186f6b6457e0\n      swap1\n        /* \"arcanixtoken.sol\":1798:1799  0 */\n      dup4\n      swap1\n        /* \"arcanixtoken.sol\":1761:1801  OwnershipTransferred(_owner, address(0)) */\n      log3\n        /* \"arcanixtoken.sol\":1828:1829  0 */\n      0x00\n        /* \"arcanixtoken.sol\":1811:1830  _owner = address(0) */\n      dup1\n      sload\n      not(sub(shl(0xa0, 0x01), 0x01))\n      and\n      swap1\n      sstore\n        /* \"arcanixtoken.sol\":1692:1837  function renounceOwnership() public virtual onlyOwner {... */\n      jump\t// out\n        /* \"arcanixtoken.sol\":2821:2917  function symbol() external view override returns (string memory) {... */\n    tag_75:\n        /* \"arcanixtoken.sol\":2871:2884  string memory */\n      0x60\n        /* \"arcanixtoken.sol\":2903:2910  _symbol */\n      0x05\n        /* \"arcanixtoken.sol\":2896:2910  return _symbol */\n      dup1\n      sload\n      tag_100\n      swap1\n      tag_101\n      jump\t// in\n        /* \"arcanixtoken.sol\":4221:4435  function decreaseAllowance(address spender, uint256 subtractedValue) public returns (bool) {... */\n    tag_79:\n        /* \"arcanixtoken.sol\":1076:1086  msg.sender */\n      caller\n        /* \"arcanixtoken.sol\":4306:4310  bool */\n      0x00\n        /* \"arcanixtoken.sol\":4354:4379  _allowances[_msgSender()] */\n      dup2\n      dup2\n      mstore\n        /* \"arcanixtoken.sol\":4354:4365  _allowances */\n      0x02\n        /* \"arcanixtoken.sol\":4354:4379  _allowances[_msgSender()] */\n      0x20\n      swap1\n      dup2\n      mstore\n      0x40\n      dup1\n      dup4\n      keccak256\n      sub(shl(0xa0, 0x01), 0x01)\n        /* \"arcanixtoken.sol\":4354:4388  _allowances[_msgSender()][spender] */\n      dup8\n      and\n      dup5\n      mstore\n      swap1\n      swap2\n      mstore\n      dup2\n      keccak256\n      sload\n        /* \"arcanixtoken.sol\":4306:4310  bool */\n      swap1\n      swap2\n        /* \"arcanixtoken.sol\":4322:4407  _approve(_msgSender(), spender, _allowances[_msgSender()][spender] - subtractedValue) */\n      tag_107\n      swap2\n        /* \"arcanixtoken.sol\":4345:4352  spender */\n      dup6\n      swap1\n        /* \"arcanixtoken.sol\":4354:4406  _allowances[_msgSender()][spender] - subtractedValue */\n      tag_118\n      swap1\n        /* \"arcanixtoken.sol\":4391:4406  subtractedValue */\n      dup7\n      swap1\n        /* \"arcanixtoken.sol\":4354:4406  _allowances[_msgSender()][spender] - subtractedValue */\n      tag_119\n      jump\t// in\n        /* \"arcanixtoken.sol\":3252:3418  function transfer(address recipient, uint256 amount) external override returns (bool) {... */\n    tag_83:\n        /* \"arcanixtoken.sol\":3332:3336  bool */\n      0x00\n        /* \"arcanixtoken.sol\":3348:3390  _transfer(_msgSender(), recipient, amount) */\n      tag_107\n        /* \"arcanixtoken.sol\":1076:1086  msg.sender */\n      caller\n        /* \"arcanixtoken.sol\":3372:3381  recipient */\n      dup5\n        /* \"arcanixtoken.sol\":3383:3389  amount */\n      dup5\n        /* \"arcanixtoken.sol\":3348:3357  _transfer */\n      tag_114\n        /* \"arcanixtoken.sol\":3348:3390  _transfer(_msgSender(), recipient, amount) */\n      jump\t// in\n        /* \"arcanixtoken.sol\":2321:2342  string public _symbol */\n    tag_86:\n      0x05\n      dup1\n      sload\n      tag_156\n      swap1\n      tag_101\n      jump\t// in\n    tag_156:\n      dup1\n      0x1f\n      add\n      0x20\n      dup1\n      swap2\n      div\n      mul\n      0x20\n      add\n      mload(0x40)\n      swap1\n      dup2\n      add\n      0x40\n      mstore\n      dup1\n      swap3\n      swap2\n      swap1\n      dup2\n      dup2\n      mstore\n      0x20\n      add\n      dup3\n      dup1\n      sload\n      tag_157\n      swap1\n      tag_101\n      jump\t// in\n    tag_157:\n      dup1\n      iszero\n      tag_158\n      jumpi\n      dup1\n      0x1f\n      lt\n      tag_159\n      jumpi\n      0x0100\n      dup1\n      dup4\n      sload\n      div\n      mul\n      dup4\n      mstore\n      swap2\n      0x20\n      add\n      swap2\n      jump(tag_158)\n    tag_159:\n      dup3\n      add\n      swap2\n      swap1\n      0x00\n      mstore\n      keccak256(0x00, 0x20)\n      swap1\n    tag_160:\n      dup2\n      sload\n      dup2\n      mstore\n      swap1\n      0x01\n      add\n      swap1\n      0x20\n      add\n      dup1\n      dup4\n      gt\n      tag_160\n      jumpi\n      dup3\n      swap1\n      sub\n      0x1f\n      and\n      dup3\n      add\n      swap2\n    tag_158:\n      pop\n      pop\n      pop\n      pop\n      pop\n      dup2\n      jump\t// out\n        /* \"arcanixtoken.sol\":2348:2367  string public _name */\n    tag_89:\n      0x06\n      dup1\n      sload\n      tag_156\n      swap1\n      tag_101\n      jump\t// in\n        /* \"arcanixtoken.sol\":1843:2079  function transferOwnership(address newOwner) public virtual onlyOwner {... */\n    tag_98:\n        /* \"arcanixtoken.sol\":1524:1531  address */\n      0x00\n        /* \"arcanixtoken.sol\":1550:1556  _owner */\n      sload\n      sub(shl(0xa0, 0x01), 0x01)\n      and\n        /* \"arcanixtoken.sol\":1076:1086  msg.sender */\n      caller\n        /* \"arcanixtoken.sol\":1608:1631  owner() == _msgSender() */\n      eq\n        /* \"arcanixtoken.sol\":1600:1668  require(owner() == _msgSender(), \"Ownable: caller is not the owner\") */\n      tag_170\n      jumpi\n      mload(0x40)\n      shl(0xe5, 0x461bcd)\n      dup2\n      mstore\n        /* \"#utility.yul\":3739:3741   */\n      0x20\n        /* \"arcanixtoken.sol\":1600:1668  require(owner() == _msgSender(), \"Ownable: caller is not the owner\") */\n      0x04\n      dup3\n      add\n        /* \"#utility.yul\":3721:3742   */\n      dup2\n      swap1\n      mstore\n        /* \"#utility.yul\":3758:3776   */\n      0x24\n      dup3\n      add\n        /* \"#utility.yul\":3751:3781   */\n      mstore\n        /* \"#utility.yul\":3817:3851   */\n      0x4f776e61626c653a2063616c6c6572206973206e6f7420746865206f776e6572\n        /* \"#utility.yul\":3797:3815   */\n      0x44\n      dup3\n      add\n        /* \"#utility.yul\":3790:3852   */\n      mstore\n        /* \"#utility.yul\":3869:3887   */\n      0x64\n      add\n        /* \"arcanixtoken.sol\":1600:1668  require(owner() == _msgSender(), \"Ownable: caller is not the owner\") */\n      tag_136\n        /* \"#utility.yul\":3537:3893   */\n      jump\n        /* \"arcanixtoken.sol\":1600:1668  require(owner() == _msgSender(), \"Ownable: caller is not the owner\") */\n    tag_170:\n      sub(shl(0xa0, 0x01), 0x01)\n        /* \"arcanixtoken.sol\":1931:1953  newOwner != address(0) */\n      dup2\n      and\n        /* \"arcanixtoken.sol\":1923:1992  require(newOwner != address(0), \"Ownable: new owner is zero address\") */\n      tag_173\n      jumpi\n      mload(0x40)\n      shl(0xe5, 0x461bcd)\n      dup2\n      mstore\n        /* \"#utility.yul\":4100:4102   */\n      0x20\n        /* \"arcanixtoken.sol\":1923:1992  require(newOwner != address(0), \"Ownable: new owner is zero address\") */\n      0x04\n      dup3\n      add\n        /* \"#utility.yul\":4082:4103   */\n      mstore\n        /* \"#utility.yul\":4139:4141   */\n      0x22\n        /* \"#utility.yul\":4119:4137   */\n      0x24\n      dup3\n      add\n        /* \"#utility.yul\":4112:4142   */\n      mstore\n        /* \"#utility.yul\":4178:4212   */\n      0x4f776e61626c653a206e6577206f776e6572206973207a65726f206164647265\n        /* \"#utility.yul\":4158:4176   */\n      0x44\n      dup3\n      add\n        /* \"#utility.yul\":4151:4213   */\n      mstore\n      shl(0xf0, 0x7373)\n        /* \"#utility.yul\":4229:4247   */\n      0x64\n      dup3\n      add\n        /* \"#utility.yul\":4222:4254   */\n      mstore\n        /* \"#utility.yul\":4271:4290   */\n      0x84\n      add\n        /* \"arcanixtoken.sol\":1923:1992  require(newOwner != address(0), \"Ownable: new owner is zero address\") */\n      tag_136\n        /* \"#utility.yul\":3898:4296   */\n      jump\n        /* \"arcanixtoken.sol\":1923:1992  require(newOwner != address(0), \"Ownable: new owner is zero address\") */\n    tag_173:\n        /* \"arcanixtoken.sol\":2028:2034  _owner */\n      0x00\n      dup1\n      sload\n        /* \"arcanixtoken.sol\":2007:2045  OwnershipTransferred(_owner, newOwner) */\n      mload(0x40)\n      sub(shl(0xa0, 0x01), 0x01)\n      dup1\n      dup6\n      and\n      swap4\n        /* \"arcanixtoken.sol\":2028:2034  _owner */\n      swap3\n      and\n      swap2\n        /* \"arcanixtoken.sol\":2007:2045  OwnershipTransferred(_owner, newOwner) */\n      0x8be0079c531659141344cd1fd0a4f28419497f9722a3daafe3b4186f6b6457e0\n      swap2\n      log3\n        /* \"arcanixtoken.sol\":2055:2061  _owner */\n      0x00\n        /* \"arcanixtoken.sol\":2055:2072  _owner = newOwner */\n      dup1\n      sload\n      not(sub(shl(0xa0, 0x01), 0x01))\n      and\n      sub(shl(0xa0, 0x01), 0x01)\n      swap3\n      swap1\n      swap3\n      and\n      swap2\n      swap1\n      swap2\n      or\n      swap1\n      sstore\n        /* \"arcanixtoken.sol\":1843:2079  function transferOwnership(address newOwner) public virtual onlyOwner {... */\n      jump\t// out\n        /* \"arcanixtoken.sol\":5205:5533  function _approve(address owner_, address spender, uint256 amount) internal {... */\n    tag_110:\n      sub(shl(0xa0, 0x01), 0x01)\n        /* \"arcanixtoken.sol\":5299:5319  owner_ != address(0) */\n      dup4\n      and\n        /* \"arcanixtoken.sol\":5291:5356  require(owner_ != address(0), \"BEP20: approve from zero address\") */\n      tag_178\n      jumpi\n      mload(0x40)\n      shl(0xe5, 0x461bcd)\n      dup2\n      mstore\n        /* \"#utility.yul\":4503:4505   */\n      0x20\n        /* \"arcanixtoken.sol\":5291:5356  require(owner_ != address(0), \"BEP20: approve from zero address\") */\n      0x04\n      dup3\n      add\n        /* \"#utility.yul\":4485:4506   */\n      dup2\n      swap1\n      mstore\n        /* \"#utility.yul\":4522:4540   */\n      0x24\n      dup3\n      add\n        /* \"#utility.yul\":4515:4545   */\n      mstore\n        /* \"#utility.yul\":4581:4615   */\n      0x42455032303a20617070726f76652066726f6d207a65726f2061646472657373\n        /* \"#utility.yul\":4561:4579   */\n      0x44\n      dup3\n      add\n        /* \"#utility.yul\":4554:4616   */\n      mstore\n        /* \"#utility.yul\":4633:4651   */\n      0x64\n      add\n        /* \"arcanixtoken.sol\":5291:5356  require(owner_ != address(0), \"BEP20: approve from zero address\") */\n      tag_136\n        /* \"#utility.yul\":4301:4657   */\n      jump\n        /* \"arcanixtoken.sol\":5291:5356  require(owner_ != address(0), \"BEP20: approve from zero address\") */\n    tag_178:\n      sub(shl(0xa0, 0x01), 0x01)\n        /* \"arcanixtoken.sol\":5374:5395  spender != address(0) */\n      dup3\n      and\n        /* \"arcanixtoken.sol\":5366:5430  require(spender != address(0), \"BEP20: approve to zero address\") */\n      tag_181\n      jumpi\n      mload(0x40)\n      shl(0xe5, 0x461bcd)\n      dup2\n      mstore\n        /* \"#utility.yul\":4864:4866   */\n      0x20\n        /* \"arcanixtoken.sol\":5366:5430  require(spender != address(0), \"BEP20: approve to zero address\") */\n      0x04\n      dup3\n      add\n        /* \"#utility.yul\":4846:4867   */\n      mstore\n        /* \"#utility.yul\":4903:4905   */\n      0x1e\n        /* \"#utility.yul\":4883:4901   */\n      0x24\n      dup3\n      add\n        /* \"#utility.yul\":4876:4906   */\n      mstore\n        /* \"#utility.yul\":4942:4974   */\n      0x42455032303a20617070726f766520746f207a65726f20616464726573730000\n        /* \"#utility.yul\":4922:4940   */\n      0x44\n      dup3\n      add\n        /* \"#utility.yul\":4915:4975   */\n      mstore\n        /* \"#utility.yul\":4992:5010   */\n      0x64\n      add\n        /* \"arcanixtoken.sol\":5366:5430  require(spender != address(0), \"BEP20: approve to zero address\") */\n      tag_136\n        /* \"#utility.yul\":4662:5016   */\n      jump\n        /* \"arcanixtoken.sol\":5366:5430  require(spender != address(0), \"BEP20: approve to zero address\") */\n    tag_181:\n      sub(shl(0xa0, 0x01), 0x01)\n        /* \"arcanixtoken.sol\":5441:5460  _allowances[owner_] */\n      dup4\n      dup2\n      and\n      0x00\n      dup2\n      dup2\n      mstore\n        /* \"arcanixtoken.sol\":5441:5452  _allowances */\n      0x02\n        /* \"arcanixtoken.sol\":5441:5460  _allowances[owner_] */\n      0x20\n      swap1\n      dup2\n      mstore\n      0x40\n      dup1\n      dup4\n      keccak256\n        /* \"arcanixtoken.sol\":5441:5469  _allowances[owner_][spender] */\n      swap5\n      dup8\n      and\n      dup1\n      dup5\n      mstore\n      swap5\n      dup3\n      mstore\n      swap2\n      dup3\n      swap1\n      keccak256\n        /* \"arcanixtoken.sol\":5441:5478  _allowances[owner_][spender] = amount */\n      dup6\n      swap1\n      sstore\n        /* \"arcanixtoken.sol\":5493:5526  Approval(owner_, spender, amount) */\n      swap1\n      mload\n        /* \"#utility.yul\":1258:1283   */\n      dup5\n      dup2\n      mstore\n        /* \"arcanixtoken.sol\":5493:5526  Approval(owner_, spender, amount) */\n      0x8c5be1e5ebec7d5bd14f71427d1e84f3dd0314c0f7b2291e5b200ac8c7c3b925\n      swap2\n        /* \"#utility.yul\":1231:1249   */\n      add\n        /* \"arcanixtoken.sol\":5493:5526  Approval(owner_, spender, amount) */\n    tag_184:\n      mload(0x40)\n      dup1\n      swap2\n      sub\n      swap1\n      log3\n        /* \"arcanixtoken.sol\":5205:5533  function _approve(address owner_, address spender, uint256 amount) internal {... */\n      pop\n      pop\n      pop\n      jump\t// out\n        /* \"arcanixtoken.sol\":4564:4932  function _transfer(address sender, address recipient, uint256 amount) internal {... */\n    tag_114:\n      sub(shl(0xa0, 0x01), 0x01)\n        /* \"arcanixtoken.sol\":4661:4681  sender != address(0) */\n      dup4\n      and\n        /* \"arcanixtoken.sol\":4653:4719  require(sender != address(0), \"BEP20: transfer from zero address\") */\n      tag_186\n      jumpi\n      mload(0x40)\n      shl(0xe5, 0x461bcd)\n      dup2\n      mstore\n        /* \"#utility.yul\":5223:5225   */\n      0x20\n        /* \"arcanixtoken.sol\":4653:4719  require(sender != address(0), \"BEP20: transfer from zero address\") */\n      0x04\n      dup3\n      add\n        /* \"#utility.yul\":5205:5226   */\n      mstore\n        /* \"#utility.yul\":5262:5264   */\n      0x21\n        /* \"#utility.yul\":5242:5260   */\n      0x24\n      dup3\n      add\n        /* \"#utility.yul\":5235:5265   */\n      mstore\n        /* \"#utility.yul\":5301:5335   */\n      0x42455032303a207472616e736665722066726f6d207a65726f20616464726573\n        /* \"#utility.yul\":5281:5299   */\n      0x44\n      dup3\n      add\n        /* \"#utility.yul\":5274:5336   */\n      mstore\n      shl(0xf8, 0x73)\n        /* \"#utility.yul\":5352:5370   */\n      0x64\n      dup3\n      add\n        /* \"#utility.yul\":5345:5376   */\n      mstore\n        /* \"#utility.yul\":5393:5412   */\n      0x84\n      add\n        /* \"arcanixtoken.sol\":4653:4719  require(sender != address(0), \"BEP20: transfer from zero address\") */\n      tag_136\n        /* \"#utility.yul\":5021:5418   */\n      jump\n        /* \"arcanixtoken.sol\":4653:4719  require(sender != address(0), \"BEP20: transfer from zero address\") */\n    tag_186:\n      sub(shl(0xa0, 0x01), 0x01)\n        /* \"arcanixtoken.sol\":4737:4760  recipient != address(0) */\n      dup3\n      and\n        /* \"arcanixtoken.sol\":4729:4796  require(recipient != address(0), \"BEP20: transfer to zero address\") */\n      tag_189\n      jumpi\n      mload(0x40)\n      shl(0xe5, 0x461bcd)\n      dup2\n      mstore\n        /* \"#utility.yul\":5625:5627   */\n      0x20\n        /* \"arcanixtoken.sol\":4729:4796  require(recipient != address(0), \"BEP20: transfer to zero address\") */\n      0x04\n      dup3\n      add\n        /* \"#utility.yul\":5607:5628   */\n      mstore\n        /* \"#utility.yul\":5664:5666   */\n      0x1f\n        /* \"#utility.yul\":5644:5662   */\n      0x24\n      dup3\n      add\n        /* \"#utility.yul\":5637:5667   */\n      mstore\n        /* \"#utility.yul\":5703:5736   */\n      0x42455032303a207472616e7366657220746f207a65726f206164647265737300\n        /* \"#utility.yul\":5683:5701   */\n      0x44\n      dup3\n      add\n        /* \"#utility.yul\":5676:5737   */\n      mstore\n        /* \"#utility.yul\":5754:5772   */\n      0x64\n      add\n        /* \"arcanixtoken.sol\":4729:4796  require(recipient != address(0), \"BEP20: transfer to zero address\") */\n      tag_136\n        /* \"#utility.yul\":5423:5778   */\n      jump\n        /* \"arcanixtoken.sol\":4729:4796  require(recipient != address(0), \"BEP20: transfer to zero address\") */\n    tag_189:\n      sub(shl(0xa0, 0x01), 0x01)\n        /* \"arcanixtoken.sol\":4807:4824  _balances[sender] */\n      dup4\n      and\n      0x00\n      swap1\n      dup2\n      mstore\n        /* \"arcanixtoken.sol\":4807:4816  _balances */\n      0x01\n        /* \"arcanixtoken.sol\":4807:4824  _balances[sender] */\n      0x20\n      mstore\n      0x40\n      dup2\n      keccak256\n        /* \"arcanixtoken.sol\":4807:4834  _balances[sender] -= amount */\n      dup1\n      sload\n        /* \"arcanixtoken.sol\":4828:4834  amount */\n      dup4\n      swap3\n        /* \"arcanixtoken.sol\":4807:4824  _balances[sender] */\n      swap1\n        /* \"arcanixtoken.sol\":4807:4834  _balances[sender] -= amount */\n      tag_192\n      swap1\n        /* \"arcanixtoken.sol\":4828:4834  amount */\n      dup5\n      swap1\n        /* \"arcanixtoken.sol\":4807:4834  _balances[sender] -= amount */\n      tag_119\n      jump\t// in\n    tag_192:\n      swap1\n      swap2\n      sstore\n      pop\n      pop\n      sub(shl(0xa0, 0x01), 0x01)\n        /* \"arcanixtoken.sol\":4844:4864  _balances[recipient] */\n      dup3\n      and\n      0x00\n      swap1\n      dup2\n      mstore\n        /* \"arcanixtoken.sol\":4844:4853  _balances */\n      0x01\n        /* \"arcanixtoken.sol\":4844:4864  _balances[recipient] */\n      0x20\n      mstore\n      0x40\n      dup2\n      keccak256\n        /* \"arcanixtoken.sol\":4844:4874  _balances[recipient] += amount */\n      dup1\n      sload\n        /* \"arcanixtoken.sol\":4868:4874  amount */\n      dup4\n      swap3\n        /* \"arcanixtoken.sol\":4844:4864  _balances[recipient] */\n      swap1\n        /* \"arcanixtoken.sol\":4844:4874  _balances[recipient] += amount */\n      tag_193\n      swap1\n        /* \"arcanixtoken.sol\":4868:4874  amount */\n      dup5\n      swap1\n        /* \"arcanixtoken.sol\":4844:4874  _balances[recipient] += amount */\n      tag_126\n      jump\t// in\n    tag_193:\n      swap3\n      pop\n      pop\n      dup2\n      swap1\n      sstore\n      pop\n        /* \"arcanixtoken.sol\":4907:4916  recipient */\n      dup2\n      sub(shl(0xa0, 0x01), 0x01)\n        /* \"arcanixtoken.sol\":4890:4925  Transfer(sender, recipient, amount) */\n      and\n        /* \"arcanixtoken.sol\":4899:4905  sender */\n      dup4\n      sub(shl(0xa0, 0x01), 0x01)\n        /* \"arcanixtoken.sol\":4890:4925  Transfer(sender, recipient, amount) */\n      and\n      0xddf252ad1be2c89b69c2b068fc378daa952ba7f163c4a11628f55a4df523b3ef\n        /* \"arcanixtoken.sol\":4918:4924  amount */\n      dup4\n        /* \"arcanixtoken.sol\":4890:4925  Transfer(sender, recipient, amount) */\n      mload(0x40)\n      tag_184\n      swap2\n        /* \"#utility.yul\":1258:1283   */\n      dup2\n      mstore\n        /* \"#utility.yul\":1246:1248   */\n      0x20\n        /* \"#utility.yul\":1231:1249   */\n      add\n      swap1\n        /* \"#utility.yul\":1112:1289   */\n      jump\n        /* \"arcanixtoken.sol\":4938:5199  function _burn(address account, uint256 amount) internal {... */\n    tag_130:\n      sub(shl(0xa0, 0x01), 0x01)\n        /* \"arcanixtoken.sol\":5013:5034  account != address(0) */\n      dup3\n      and\n        /* \"arcanixtoken.sol\":5005:5068  require(account != address(0), \"BEP20: burn from zero address\") */\n      tag_196\n      jumpi\n      mload(0x40)\n      shl(0xe5, 0x461bcd)\n      dup2\n      mstore\n        /* \"#utility.yul\":5985:5987   */\n      0x20\n        /* \"arcanixtoken.sol\":5005:5068  require(account != address(0), \"BEP20: burn from zero address\") */\n      0x04\n      dup3\n      add\n        /* \"#utility.yul\":5967:5988   */\n      mstore\n        /* \"#utility.yul\":6024:6026   */\n      0x1d\n        /* \"#utility.yul\":6004:6022   */\n      0x24\n      dup3\n      add\n        /* \"#utility.yul\":5997:6027   */\n      mstore\n        /* \"#utility.yul\":6063:6094   */\n      0x42455032303a206275726e2066726f6d207a65726f2061646472657373000000\n        /* \"#utility.yul\":6043:6061   */\n      0x44\n      dup3\n      add\n        /* \"#utility.yul\":6036:6095   */\n      mstore\n        /* \"#utility.yul\":6112:6130   */\n      0x64\n      add\n        /* \"arcanixtoken.sol\":5005:5068  require(account != address(0), \"BEP20: burn from zero address\") */\n      tag_136\n        /* \"#utility.yul\":5783:6136   */\n      jump\n        /* \"arcanixtoken.sol\":5005:5068  require(account != address(0), \"BEP20: burn from zero address\") */\n    tag_196:\n      sub(shl(0xa0, 0x01), 0x01)\n        /* \"arcanixtoken.sol\":5079:5097  _balances[account] */\n      dup3\n      and\n      0x00\n      swap1\n      dup2\n      mstore\n        /* \"arcanixtoken.sol\":5079:5088  _balances */\n      0x01\n        /* \"arcanixtoken.sol\":5079:5097  _balances[account] */\n      0x20\n      mstore\n      0x40\n      dup2\n      keccak256\n        /* \"arcanixtoken.sol\":5079:5107  _balances[account] -= amount */\n      dup1\n      sload\n        /* \"arcanixtoken.sol\":5101:5107  amount */\n      dup4\n      swap3\n        /* \"arcanixtoken.sol\":5079:5097  _balances[account] */\n      swap1\n        /* \"arcanixtoken.sol\":5079:5107  _balances[account] -= amount */\n      tag_199\n      swap1\n        /* \"arcanixtoken.sol\":5101:5107  amount */\n      dup5\n      swap1\n        /* \"arcanixtoken.sol\":5079:5107  _balances[account] -= amount */\n      tag_119\n      jump\t// in\n    tag_199:\n      swap3\n      pop\n      pop\n      dup2\n      swap1\n      sstore\n      pop\n        /* \"arcanixtoken.sol\":5133:5139  amount */\n      dup1\n        /* \"arcanixtoken.sol\":5117:5129  _totalSupply */\n      0x03\n      0x00\n        /* \"arcanixtoken.sol\":5117:5139  _totalSupply -= amount */\n      dup3\n      dup3\n      sload\n      tag_200\n      swap2\n      swap1\n      tag_119\n      jump\t// in\n    tag_200:\n      swap1\n      swap2\n      sstore\n      pop\n      pop\n        /* \"arcanixtoken.sol\":5155:5192  Transfer(account, address(0), amount) */\n      mload(0x40)\n        /* \"#utility.yul\":1258:1283   */\n      dup2\n      dup2\n      mstore\n        /* \"arcanixtoken.sol\":5181:5182  0 */\n      0x00\n      swap1\n      sub(shl(0xa0, 0x01), 0x01)\n        /* \"arcanixtoken.sol\":5155:5192  Transfer(account, address(0), amount) */\n      dup5\n      and\n      swap1\n      0xddf252ad1be2c89b69c2b068fc378daa952ba7f163c4a11628f55a4df523b3ef\n      swap1\n        /* \"#utility.yul\":1246:1248   */\n      0x20\n        /* \"#utility.yul\":1231:1249   */\n      add\n        /* \"arcanixtoken.sol\":5155:5192  Transfer(account, address(0), amount) */\n      mload(0x40)\n      dup1\n      swap2\n      sub\n      swap1\n      log3\n        /* \"arcanixtoken.sol\":4938:5199  function _burn(address account, uint256 amount) internal {... */\n      pop\n      pop\n      jump\t// out\n        /* \"#utility.yul\":14:432   */\n    tag_28:\n        /* \"#utility.yul\":163:165   */\n      0x20\n        /* \"#utility.yul\":152:161   */\n      dup2\n        /* \"#utility.yul\":145:166   */\n      mstore\n        /* \"#utility.yul\":126:130   */\n      0x00\n        /* \"#utility.yul\":195:201   */\n      dup3\n        /* \"#utility.yul\":189:202   */\n      mload\n        /* \"#utility.yul\":238:244   */\n      dup1\n        /* \"#utility.yul\":233:235   */\n      0x20\n        /* \"#utility.yul\":222:231   */\n      dup5\n        /* \"#utility.yul\":218:236   */\n      add\n        /* \"#utility.yul\":211:245   */\n      mstore\n        /* \"#utility.yul\":297:303   */\n      dup1\n        /* \"#utility.yul\":292:294   */\n      0x20\n        /* \"#utility.yul\":284:290   */\n      dup6\n        /* \"#utility.yul\":280:295   */\n      add\n        /* \"#utility.yul\":275:277   */\n      0x40\n        /* \"#utility.yul\":264:273   */\n      dup6\n        /* \"#utility.yul\":260:278   */\n      add\n        /* \"#utility.yul\":254:304   */\n      mcopy\n        /* \"#utility.yul\":353:354   */\n      0x00\n        /* \"#utility.yul\":348:350   */\n      0x40\n        /* \"#utility.yul\":339:345   */\n      dup3\n        /* \"#utility.yul\":328:337   */\n      dup6\n        /* \"#utility.yul\":324:346   */\n      add\n        /* \"#utility.yul\":320:351   */\n      add\n        /* \"#utility.yul\":313:355   */\n      mstore\n        /* \"#utility.yul\":423:425   */\n      0x40\n        /* \"#utility.yul\":416:418   */\n      0x1f\n        /* \"#utility.yul\":412:419   */\n      not\n        /* \"#utility.yul\":407:409   */\n      0x1f\n        /* \"#utility.yul\":399:405   */\n      dup4\n        /* \"#utility.yul\":395:410   */\n      add\n        /* \"#utility.yul\":391:420   */\n      and\n        /* \"#utility.yul\":380:389   */\n      dup5\n        /* \"#utility.yul\":376:421   */\n      add\n        /* \"#utility.yul\":372:426   */\n      add\n        /* \"#utility.yul\":364:426   */\n      swap2\n      pop\n      pop\n        /* \"#utility.yul\":14:432   */\n      swap3\n      swap2\n      pop\n      pop\n      jump\t// out\n        /* \"#utility.yul\":437:610   */\n    tag_202:\n        /* \"#utility.yul\":505:525   */\n      dup1\n      calldataload\n      sub(shl(0xa0, 0x01), 0x01)\n        /* \"#utility.yul\":554:585   */\n      dup2\n      and\n        /* \"#utility.yul\":544:586   */\n      dup2\n      eq\n        /* \"#utility.yul\":534:604   */\n      tag_207\n      jumpi\n        /* \"#utility.yul\":600:601   */\n      0x00\n        /* \"#utility.yul\":597:598   */\n      0x00\n        /* \"#utility.yul\":590:602   */\n      revert\n        /* \"#utility.yul\":534:604   */\n    tag_207:\n        /* \"#utility.yul\":437:610   */\n      swap2\n      swap1\n      pop\n      jump\t// out\n        /* \"#utility.yul\":615:915   */\n    tag_31:\n        /* \"#utility.yul\":683:689   */\n      0x00\n        /* \"#utility.yul\":691:697   */\n      0x00\n        /* \"#utility.yul\":744:746   */\n      0x40\n        /* \"#utility.yul\":732:741   */\n      dup4\n        /* \"#utility.yul\":723:730   */\n      dup6\n        /* \"#utility.yul\":719:742   */\n      sub\n        /* \"#utility.yul\":715:747   */\n      slt\n        /* \"#utility.yul\":712:764   */\n      iszero\n      tag_209\n      jumpi\n        /* \"#utility.yul\":760:761   */\n      0x00\n        /* \"#utility.yul\":757:758   */\n      0x00\n        /* \"#utility.yul\":750:762   */\n      revert\n        /* \"#utility.yul\":712:764   */\n    tag_209:\n        /* \"#utility.yul\":783:812   */\n      tag_210\n        /* \"#utility.yul\":802:811   */\n      dup4\n        /* \"#utility.yul\":783:812   */\n      tag_202\n      jump\t// in\n    tag_210:\n        /* \"#utility.yul\":773:812   */\n      swap5\n        /* \"#utility.yul\":881:883   */\n      0x20\n        /* \"#utility.yul\":866:884   */\n      swap4\n      swap1\n      swap4\n      add\n        /* \"#utility.yul\":853:885   */\n      calldataload\n      swap4\n      pop\n      pop\n      pop\n        /* \"#utility.yul\":615:915   */\n      jump\t// out\n        /* \"#utility.yul\":1294:1668   */\n    tag_41:\n        /* \"#utility.yul\":1371:1377   */\n      0x00\n        /* \"#utility.yul\":1379:1385   */\n      0x00\n        /* \"#utility.yul\":1387:1393   */\n      0x00\n        /* \"#utility.yul\":1440:1442   */\n      0x60\n        /* \"#utility.yul\":1428:1437   */\n      dup5\n        /* \"#utility.yul\":1419:1426   */\n      dup7\n        /* \"#utility.yul\":1415:1438   */\n      sub\n        /* \"#utility.yul\":1411:1443   */\n      slt\n        /* \"#utility.yul\":1408:1460   */\n      iszero\n      tag_214\n      jumpi\n        /* \"#utility.yul\":1456:1457   */\n      0x00\n        /* \"#utility.yul\":1453:1454   */\n      0x00\n        /* \"#utility.yul\":1446:1458   */\n      revert\n        /* \"#utility.yul\":1408:1460   */\n    tag_214:\n        /* \"#utility.yul\":1479:1508   */\n      tag_215\n        /* \"#utility.yul\":1498:1507   */\n      dup5\n        /* \"#utility.yul\":1479:1508   */\n      tag_202\n      jump\t// in\n    tag_215:\n        /* \"#utility.yul\":1469:1508   */\n      swap3\n      pop\n        /* \"#utility.yul\":1527:1565   */\n      tag_216\n        /* \"#utility.yul\":1561:1563   */\n      0x20\n        /* \"#utility.yul\":1550:1559   */\n      dup6\n        /* \"#utility.yul\":1546:1564   */\n      add\n        /* \"#utility.yul\":1527:1565   */\n      tag_202\n      jump\t// in\n    tag_216:\n        /* \"#utility.yul\":1294:1668   */\n      swap3\n      swap6\n        /* \"#utility.yul\":1517:1565   */\n      swap3\n      swap5\n      pop\n      pop\n      pop\n        /* \"#utility.yul\":1634:1636   */\n      0x40\n        /* \"#utility.yul\":1619:1637   */\n      swap2\n      swap1\n      swap2\n      add\n        /* \"#utility.yul\":1606:1638   */\n      calldataload\n      swap1\n        /* \"#utility.yul\":1294:1668   */\n      jump\t// out\n        /* \"#utility.yul\":1862:2088   */\n    tag_57:\n        /* \"#utility.yul\":1921:1927   */\n      0x00\n        /* \"#utility.yul\":1974:1976   */\n      0x20\n        /* \"#utility.yul\":1962:1971   */\n      dup3\n        /* \"#utility.yul\":1953:1960   */\n      dup5\n        /* \"#utility.yul\":1949:1972   */\n      sub\n        /* \"#utility.yul\":1945:1977   */\n      slt\n        /* \"#utility.yul\":1942:1994   */\n      iszero\n      tag_219\n      jumpi\n        /* \"#utility.yul\":1990:1991   */\n      0x00\n        /* \"#utility.yul\":1987:1988   */\n      0x00\n        /* \"#utility.yul\":1980:1992   */\n      revert\n        /* \"#utility.yul\":1942:1994   */\n    tag_219:\n      pop\n        /* \"#utility.yul\":2035:2058   */\n      calldataload\n      swap2\n        /* \"#utility.yul\":1862:2088   */\n      swap1\n      pop\n      jump\t// out\n        /* \"#utility.yul\":2093:2279   */\n    tag_62:\n        /* \"#utility.yul\":2152:2158   */\n      0x00\n        /* \"#utility.yul\":2205:2207   */\n      0x20\n        /* \"#utility.yul\":2193:2202   */\n      dup3\n        /* \"#utility.yul\":2184:2191   */\n      dup5\n        /* \"#utility.yul\":2180:2203   */\n      sub\n        /* \"#utility.yul\":2176:2208   */\n      slt\n        /* \"#utility.yul\":2173:2225   */\n      iszero\n      tag_221\n      jumpi\n        /* \"#utility.yul\":2221:2222   */\n      0x00\n        /* \"#utility.yul\":2218:2219   */\n      0x00\n        /* \"#utility.yul\":2211:2223   */\n      revert\n        /* \"#utility.yul\":2173:2225   */\n    tag_221:\n        /* \"#utility.yul\":2244:2273   */\n      tag_222\n        /* \"#utility.yul\":2263:2272   */\n      dup3\n        /* \"#utility.yul\":2244:2273   */\n      tag_202\n      jump\t// in\n    tag_222:\n        /* \"#utility.yul\":2234:2273   */\n      swap4\n        /* \"#utility.yul\":2093:2279   */\n      swap3\n      pop\n      pop\n      pop\n      jump\t// out\n        /* \"#utility.yul\":2492:2752   */\n    tag_93:\n        /* \"#utility.yul\":2560:2566   */\n      0x00\n        /* \"#utility.yul\":2568:2574   */\n      0x00\n        /* \"#utility.yul\":2621:2623   */\n      0x40\n        /* \"#utility.yul\":2609:2618   */\n      dup4\n        /* \"#utility.yul\":2600:2607   */\n      dup6\n        /* \"#utility.yul\":2596:2619   */\n      sub\n        /* \"#utility.yul\":2592:2624   */\n      slt\n        /* \"#utility.yul\":2589:2641   */\n      iszero\n      tag_225\n      jumpi\n        /* \"#utility.yul\":2637:2638   */\n      0x00\n        /* \"#utility.yul\":2634:2635   */\n      0x00\n        /* \"#utility.yul\":2627:2639   */\n      revert\n        /* \"#utility.yul\":2589:2641   */\n    tag_225:\n        /* \"#utility.yul\":2660:2689   */\n      tag_226\n        /* \"#utility.yul\":2679:2688   */\n      dup4\n        /* \"#utility.yul\":2660:2689   */\n      tag_202\n      jump\t// in\n    tag_226:\n        /* \"#utility.yul\":2650:2689   */\n      swap2\n      pop\n        /* \"#utility.yul\":2708:2746   */\n      tag_227\n        /* \"#utility.yul\":2742:2744   */\n      0x20\n        /* \"#utility.yul\":2731:2740   */\n      dup5\n        /* \"#utility.yul\":2727:2745   */\n      add\n        /* \"#utility.yul\":2708:2746   */\n      tag_202\n      jump\t// in\n    tag_227:\n        /* \"#utility.yul\":2698:2746   */\n      swap1\n      pop\n        /* \"#utility.yul\":2492:2752   */\n      swap3\n      pop\n      swap3\n      swap1\n      pop\n      jump\t// out\n        /* \"#utility.yul\":2757:3137   */\n    tag_101:\n        /* \"#utility.yul\":2836:2837   */\n      0x01\n        /* \"#utility.yul\":2832:2844   */\n      dup2\n      dup2\n      shr\n      swap1\n        /* \"#utility.yul\":2879:2891   */\n      dup3\n      and\n      dup1\n        /* \"#utility.yul\":2900:2961   */\n      tag_229\n      jumpi\n        /* \"#utility.yul\":2954:2958   */\n      0x7f\n        /* \"#utility.yul\":2946:2952   */\n      dup3\n        /* \"#utility.yul\":2942:2959   */\n      and\n        /* \"#utility.yul\":2932:2959   */\n      swap2\n      pop\n        /* \"#utility.yul\":2900:2961   */\n    tag_229:\n        /* \"#utility.yul\":3007:3009   */\n      0x20\n        /* \"#utility.yul\":2999:3005   */\n      dup3\n        /* \"#utility.yul\":2996:3010   */\n      lt\n        /* \"#utility.yul\":2976:2994   */\n      dup2\n        /* \"#utility.yul\":2973:3011   */\n      sub\n        /* \"#utility.yul\":2970:3131   */\n      tag_230\n      jumpi\n        /* \"#utility.yul\":3053:3063   */\n      0x4e487b71\n        /* \"#utility.yul\":3048:3051   */\n      0xe0\n        /* \"#utility.yul\":3044:3064   */\n      shl\n        /* \"#utility.yul\":3041:3042   */\n      0x00\n        /* \"#utility.yul\":3034:3065   */\n      mstore\n        /* \"#utility.yul\":3088:3092   */\n      0x22\n        /* \"#utility.yul\":3085:3086   */\n      0x04\n        /* \"#utility.yul\":3078:3093   */\n      mstore\n        /* \"#utility.yul\":3116:3120   */\n      0x24\n        /* \"#utility.yul\":3113:3114   */\n      0x00\n        /* \"#utility.yul\":3106:3121   */\n      revert\n        /* \"#utility.yul\":2970:3131   */\n    tag_230:\n      pop\n        /* \"#utility.yul\":2757:3137   */\n      swap2\n      swap1\n      pop\n      jump\t// out\n        /* \"#utility.yul\":3142:3269   */\n    tag_203:\n        /* \"#utility.yul\":3203:3213   */\n      0x4e487b71\n        /* \"#utility.yul\":3198:3201   */\n      0xe0\n        /* \"#utility.yul\":3194:3214   */\n      shl\n        /* \"#utility.yul\":3191:3192   */\n      0x00\n        /* \"#utility.yul\":3184:3215   */\n      mstore\n        /* \"#utility.yul\":3234:3238   */\n      0x11\n        /* \"#utility.yul\":3231:3232   */\n      0x04\n        /* \"#utility.yul\":3224:3239   */\n      mstore\n        /* \"#utility.yul\":3258:3262   */\n      0x24\n        /* \"#utility.yul\":3255:3256   */\n      0x00\n        /* \"#utility.yul\":3248:3263   */\n      revert\n        /* \"#utility.yul\":3274:3402   */\n    tag_119:\n        /* \"#utility.yul\":3341:3350   */\n      dup2\n      dup2\n      sub\n        /* \"#utility.yul\":3362:3373   */\n      dup2\n      dup2\n      gt\n        /* \"#utility.yul\":3359:3396   */\n      iszero\n      tag_106\n      jumpi\n        /* \"#utility.yul\":3376:3394   */\n      tag_106\n      tag_203\n      jump\t// in\n        /* \"#utility.yul\":3407:3532   */\n    tag_126:\n        /* \"#utility.yul\":3472:3481   */\n      dup1\n      dup3\n      add\n        /* \"#utility.yul\":3493:3503   */\n      dup1\n      dup3\n      gt\n        /* \"#utility.yul\":3490:3526   */\n      iszero\n      tag_106\n      jumpi\n        /* \"#utility.yul\":3506:3524   */\n      tag_106\n      tag_203\n      jump\t// in\n\n    auxdata: 0xa2646970667358221220b6161f4f8c8726a6bc444571d4489ec5f5677b999528cc238500ae4eead2fa3364736f6c634300081e0033\n}\n",
				"bytecode": {
					"linkReferences": {},
					"object": "608060405234801561000f575f5ffd5b505f80546001600160a01b0319163390811782556040519091907f8be0079c531659141344cd1fd0a4f28419497f9722a3daafe3b4186f6b6457e0908290a3604080518082019091526007815266082e4c6c2dcd2f60cb1b602082015260069061007990826101ac565b50604080518082019091526003815262082a4b60eb1b60208201526005906100a190826101ac565b506004805460ff191660121790556ba18f07d736b90be5500000006003819055335f8181526001602052604080822084905551919290917fddf252ad1be2c89b69c2b068fc378daa952ba7f163c4a11628f55a4df523b3ef916101079190815260200190565b60405180910390a3610266565b634e487b7160e01b5f52604160045260245ffd5b600181811c9082168061013c57607f821691505b60208210810361015a57634e487b7160e01b5f52602260045260245ffd5b50919050565b601f8211156101a757805f5260205f20601f840160051c810160208510156101855750805b601f840160051c820191505b818110156101a4575f8155600101610191565b50505b505050565b81516001600160401b038111156101c5576101c5610114565b6101d9816101d38454610128565b84610160565b6020601f82116001811461020b575f83156101f45750848201515b5f19600385901b1c1916600184901b1784556101a4565b5f84815260208120601f198516915b8281101561023a578785015182556020948501946001909201910161021a565b508482101561025757868401515f19600387901b60f8161c191681555b50505050600190811b01905550565b610ba5806102735f395ff3fe608060405234801561000f575f5ffd5b506004361061011c575f3560e01c8063715018a6116100a9578063a9059cbb1161006e578063a9059cbb14610253578063b09f126614610266578063d28d88521461026e578063dd62ed3e14610276578063f2fde38b146102ae575f5ffd5b8063715018a6146101fa578063893d20e8146102045780638da5cb5b1461022857806395d89b4114610238578063a457c2d714610240575f5ffd5b8063313ce567116100ef578063313ce5671461018657806332424aa31461019f57806339509351146101ac57806342966c68146101bf57806370a08231146101d2575f5ffd5b806306fdde0314610120578063095ea7b31461013e57806318160ddd1461016157806323b872dd14610173575b5f5ffd5b6101286102c1565b60405161013591906109e3565b60405180910390f35b61015161014c366004610a33565b610351565b6040519015158152602001610135565b6003545b604051908152602001610135565b610151610181366004610a5b565b610367565b60045460ff165b60405160ff9091168152602001610135565b60045461018d9060ff1681565b6101516101ba366004610a33565b6103b7565b6101516101cd366004610a95565b6103ed565b6101656101e0366004610aac565b6001600160a01b03165f9081526001602052604090205490565b610202610400565b005b5f546001600160a01b03165b6040516001600160a01b039091168152602001610135565b5f546001600160a01b0316610210565b6101286104a6565b61015161024e366004610a33565b6104b5565b610151610261366004610a33565b6104eb565b6101286104f7565b610128610583565b610165610284366004610acc565b6001600160a01b039182165f90815260026020908152604080832093909416825291909152205490565b6102026102bc366004610aac565b610590565b6060600680546102d090610afd565b80601f01602080910402602001604051908101604052809291908181526020018280546102fc90610afd565b80156103475780601f1061031e57610100808354040283529160200191610347565b820191905f5260205f20905b81548152906001019060200180831161032a57829003601f168201915b5050505050905090565b5f61035d3384846106a3565b5060015b92915050565b5f6103738484846107b0565b6001600160a01b0384165f908152600260209081526040808320338085529252909120546103ad9186916103a8908690610b49565b6106a3565b5060019392505050565b335f8181526002602090815260408083206001600160a01b0387168452909152812054909161035d9185906103a8908690610b5c565b5f6103f83383610905565b506001919050565b5f546001600160a01b0316331461045e5760405162461bcd60e51b815260206004820181905260248201527f4f776e61626c653a2063616c6c6572206973206e6f7420746865206f776e657260448201526064015b60405180910390fd5b5f80546040516001600160a01b03909116907f8be0079c531659141344cd1fd0a4f28419497f9722a3daafe3b4186f6b6457e0908390a35f80546001600160a01b0319169055565b6060600580546102d090610afd565b335f8181526002602090815260408083206001600160a01b0387168452909152812054909161035d9185906103a8908690610b49565b5f61035d3384846107b0565b6005805461050490610afd565b80601f016020809104026020016040519081016040528092919081815260200182805461053090610afd565b801561057b5780601f106105525761010080835404028352916020019161057b565b820191905f5260205f20905b81548152906001019060200180831161055e57829003601f168201915b505050505081565b6006805461050490610afd565b5f546001600160a01b031633146105e95760405162461bcd60e51b815260206004820181905260248201527f4f776e61626c653a2063616c6c6572206973206e6f7420746865206f776e65726044820152606401610455565b6001600160a01b03811661064a5760405162461bcd60e51b815260206004820152602260248201527f4f776e61626c653a206e6577206f776e6572206973207a65726f206164647265604482015261737360f01b6064820152608401610455565b5f80546040516001600160a01b03808516939216917f8be0079c531659141344cd1fd0a4f28419497f9722a3daafe3b4186f6b6457e091a35f80546001600160a01b0319166001600160a01b0392909216919091179055565b6001600160a01b0383166106f95760405162461bcd60e51b815260206004820181905260248201527f42455032303a20617070726f76652066726f6d207a65726f20616464726573736044820152606401610455565b6001600160a01b03821661074f5760405162461bcd60e51b815260206004820152601e60248201527f42455032303a20617070726f766520746f207a65726f206164647265737300006044820152606401610455565b6001600160a01b038381165f8181526002602090815260408083209487168084529482529182902085905590518481527f8c5be1e5ebec7d5bd14f71427d1e84f3dd0314c0f7b2291e5b200ac8c7c3b92591015b60405180910390a3505050565b6001600160a01b0383166108105760405162461bcd60e51b815260206004820152602160248201527f42455032303a207472616e736665722066726f6d207a65726f206164647265736044820152607360f81b6064820152608401610455565b6001600160a01b0382166108665760405162461bcd60e51b815260206004820152601f60248201527f42455032303a207472616e7366657220746f207a65726f2061646472657373006044820152606401610455565b6001600160a01b0383165f908152600160205260408120805483929061088d908490610b49565b90915550506001600160a01b0382165f90815260016020526040812080548392906108b9908490610b5c565b92505081905550816001600160a01b0316836001600160a01b03167fddf252ad1be2c89b69c2b068fc378daa952ba7f163c4a11628f55a4df523b3ef836040516107a391815260200190565b6001600160a01b03821661095b5760405162461bcd60e51b815260206004820152601d60248201527f42455032303a206275726e2066726f6d207a65726f20616464726573730000006044820152606401610455565b6001600160a01b0382165f9081526001602052604081208054839290610982908490610b49565b925050819055508060035f82825461099a9190610b49565b90915550506040518181525f906001600160a01b038416907fddf252ad1be2c89b69c2b068fc378daa952ba7f163c4a11628f55a4df523b3ef9060200160405180910390a35050565b602081525f82518060208401528060208501604085015e5f604082850101526040601f19601f83011684010191505092915050565b80356001600160a01b0381168114610a2e575f5ffd5b919050565b5f5f60408385031215610a44575f5ffd5b610a4d83610a18565b946020939093013593505050565b5f5f5f60608486031215610a6d575f5ffd5b610a7684610a18565b9250610a8460208501610a18565b929592945050506040919091013590565b5f60208284031215610aa5575f5ffd5b5035919050565b5f60208284031215610abc575f5ffd5b610ac582610a18565b9392505050565b5f5f60408385031215610add575f5ffd5b610ae683610a18565b9150610af460208401610a18565b90509250929050565b600181811c90821680610b1157607f821691505b602082108103610b2f57634e487b7160e01b5f52602260045260245ffd5b50919050565b634e487b7160e01b5f52601160045260245ffd5b8181038181111561036157610361610b35565b8082018082111561036157610361610b3556fea2646970667358221220b6161f4f8c8726a6bc444571d4489ec5f5677b999528cc238500ae4eead2fa3364736f6c634300081e0033",
					"opcodes": "PUSH1 0x80 PUSH1 0x40 MSTORE CALLVALUE DUP1 ISZERO PUSH2 0xF JUMPI PUSH0 PUSH0 REVERT JUMPDEST POP PUSH0 DUP1 SLOAD PUSH1 0x1 PUSH1 0x1 PUSH1 0xA0 SHL SUB NOT AND CALLER SWAP1 DUP2 OR DUP3 SSTORE PUSH1 0x40 MLOAD SWAP1 SWAP2 SWAP1 PUSH32 0x8BE0079C531659141344CD1FD0A4F28419497F9722A3DAAFE3B4186F6B6457E0 SWAP1 DUP3 SWAP1 LOG3 PUSH1 0x40 DUP1 MLOAD DUP1 DUP3 ADD SWAP1 SWAP2 MSTORE PUSH1 0x7 DUP2 MSTORE PUSH7 0x82E4C6C2DCD2F PUSH1 0xCB SHL PUSH1 0x20 DUP3 ADD MSTORE PUSH1 0x6 SWAP1 PUSH2 0x79 SWAP1 DUP3 PUSH2 0x1AC JUMP JUMPDEST POP PUSH1 0x40 DUP1 MLOAD DUP1 DUP3 ADD SWAP1 SWAP2 MSTORE PUSH1 0x3 DUP2 MSTORE PUSH3 0x82A4B PUSH1 0xEB SHL PUSH1 0x20 DUP3 ADD MSTORE PUSH1 0x5 SWAP1 PUSH2 0xA1 SWAP1 DUP3 PUSH2 0x1AC JUMP JUMPDEST POP PUSH1 0x4 DUP1 SLOAD PUSH1 0xFF NOT AND PUSH1 0x12 OR SWAP1 SSTORE PUSH12 0xA18F07D736B90BE550000000 PUSH1 0x3 DUP2 SWAP1 SSTORE CALLER PUSH0 DUP2 DUP2 MSTORE PUSH1 0x1 PUSH1 0x20 MSTORE PUSH1 0x40 DUP1 DUP3 KECCAK256 DUP5 SWAP1 SSTORE MLOAD SWAP2 SWAP3 SWAP1 SWAP2 PUSH32 0xDDF252AD1BE2C89B69C2B068FC378DAA952BA7F163C4A11628F55A4DF523B3EF SWAP2 PUSH2 0x107 SWAP2 SWAP1 DUP2 MSTORE PUSH1 0x20 ADD SWAP1 JUMP JUMPDEST PUSH1 0x40 MLOAD DUP1 SWAP2 SUB SWAP1 LOG3 PUSH2 0x266 JUMP JUMPDEST PUSH4 0x4E487B71 PUSH1 0xE0 SHL PUSH0 MSTORE PUSH1 0x41 PUSH1 0x4 MSTORE PUSH1 0x24 PUSH0 REVERT JUMPDEST PUSH1 0x1 DUP2 DUP2 SHR SWAP1 DUP3 AND DUP1 PUSH2 0x13C JUMPI PUSH1 0x7F DUP3 AND SWAP2 POP JUMPDEST PUSH1 0x20 DUP3 LT DUP2 SUB PUSH2 0x15A JUMPI PUSH4 0x4E487B71 PUSH1 0xE0 SHL PUSH0 MSTORE PUSH1 0x22 PUSH1 0x4 MSTORE PUSH1 0x24 PUSH0 REVERT JUMPDEST POP SWAP2 SWAP1 POP JUMP JUMPDEST PUSH1 0x1F DUP3 GT ISZERO PUSH2 0x1A7 JUMPI DUP1 PUSH0 MSTORE PUSH1 0x20 PUSH0 KECCAK256 PUSH1 0x1F DUP5 ADD PUSH1 0x5 SHR DUP2 ADD PUSH1 0x20 DUP6 LT ISZERO PUSH2 0x185 JUMPI POP DUP1 JUMPDEST PUSH1 0x1F DUP5 ADD PUSH1 0x5 SHR DUP3 ADD SWAP2 POP JUMPDEST DUP2 DUP2 LT ISZERO PUSH2 0x1A4 JUMPI PUSH0 DUP2 SSTORE PUSH1 0x1 ADD PUSH2 0x191 JUMP JUMPDEST POP POP JUMPDEST POP POP POP JUMP JUMPDEST DUP2 MLOAD PUSH1 0x1 PUSH1 0x1 PUSH1 0x40 SHL SUB DUP2 GT ISZERO PUSH2 0x1C5 JUMPI PUSH2 0x1C5 PUSH2 0x114 JUMP JUMPDEST PUSH2 0x1D9 DUP2 PUSH2 0x1D3 DUP5 SLOAD PUSH2 0x128 JUMP JUMPDEST DUP5 PUSH2 0x160 JUMP JUMPDEST PUSH1 0x20 PUSH1 0x1F DUP3 GT PUSH1 0x1 DUP2 EQ PUSH2 0x20B JUMPI PUSH0 DUP4 ISZERO PUSH2 0x1F4 JUMPI POP DUP5 DUP3 ADD MLOAD JUMPDEST PUSH0 NOT PUSH1 0x3 DUP6 SWAP1 SHL SHR NOT AND PUSH1 0x1 DUP5 SWAP1 SHL OR DUP5 SSTORE PUSH2 0x1A4 JUMP JUMPDEST PUSH0 DUP5 DUP2 MSTORE PUSH1 0x20 DUP2 KECCAK256 PUSH1 0x1F NOT DUP6 AND SWAP2 JUMPDEST DUP3 DUP2 LT ISZERO PUSH2 0x23A JUMPI DUP8 DUP6 ADD MLOAD DUP3 SSTORE PUSH1 0x20 SWAP5 DUP6 ADD SWAP5 PUSH1 0x1 SWAP1 SWAP3 ADD SWAP2 ADD PUSH2 0x21A JUMP JUMPDEST POP DUP5 DUP3 LT ISZERO PUSH2 0x257 JUMPI DUP7 DUP5 ADD MLOAD PUSH0 NOT PUSH1 0x3 DUP8 SWAP1 SHL PUSH1 0xF8 AND SHR NOT AND DUP2 SSTORE JUMPDEST POP POP POP POP PUSH1 0x1 SWAP1 DUP2 SHL ADD SWAP1 SSTORE POP JUMP JUMPDEST PUSH2 0xBA5 DUP1 PUSH2 0x273 PUSH0 CODECOPY PUSH0 RETURN INVALID PUSH1 0x80 PUSH1 0x40 MSTORE CALLVALUE DUP1 ISZERO PUSH2 0xF JUMPI PUSH0 PUSH0 REVERT JUMPDEST POP PUSH1 0x4 CALLDATASIZE LT PUSH2 0x11C JUMPI PUSH0 CALLDATALOAD PUSH1 0xE0 SHR DUP1 PUSH4 0x715018A6 GT PUSH2 0xA9 JUMPI DUP1 PUSH4 0xA9059CBB GT PUSH2 0x6E JUMPI DUP1 PUSH4 0xA9059CBB EQ PUSH2 0x253 JUMPI DUP1 PUSH4 0xB09F1266 EQ PUSH2 0x266 JUMPI DUP1 PUSH4 0xD28D8852 EQ PUSH2 0x26E JUMPI DUP1 PUSH4 0xDD62ED3E EQ PUSH2 0x276 JUMPI DUP1 PUSH4 0xF2FDE38B EQ PUSH2 0x2AE JUMPI PUSH0 PUSH0 REVERT JUMPDEST DUP1 PUSH4 0x715018A6 EQ PUSH2 0x1FA JUMPI DUP1 PUSH4 0x893D20E8 EQ PUSH2 0x204 JUMPI DUP1 PUSH4 0x8DA5CB5B EQ PUSH2 0x228 JUMPI DUP1 PUSH4 0x95D89B41 EQ PUSH2 0x238 JUMPI DUP1 PUSH4 0xA457C2D7 EQ PUSH2 0x240 JUMPI PUSH0 PUSH0 REVERT JUMPDEST DUP1 PUSH4 0x313CE567 GT PUSH2 0xEF JUMPI DUP1 PUSH4 0x313CE567 EQ PUSH2 0x186 JUMPI DUP1 PUSH4 0x32424AA3 EQ PUSH2 0x19F JUMPI DUP1 PUSH4 0x39509351 EQ PUSH2 0x1AC JUMPI DUP1 PUSH4 0x42966C68 EQ PUSH2 0x1BF JUMPI DUP1 PUSH4 0x70A08231 EQ PUSH2 0x1D2 JUMPI PUSH0 PUSH0 REVERT JUMPDEST DUP1 PUSH4 0x6FDDE03 EQ PUSH2 0x120 JUMPI DUP1 PUSH4 0x95EA7B3 EQ PUSH2 0x13E JUMPI DUP1 PUSH4 0x18160DDD EQ PUSH2 0x161 JUMPI DUP1 PUSH4 0x23B872DD EQ PUSH2 0x173 JUMPI JUMPDEST PUSH0 PUSH0 REVERT JUMPDEST PUSH2 0x128 PUSH2 0x2C1 JUMP JUMPDEST PUSH1 0x40 MLOAD PUSH2 0x135 SWAP2 SWAP1 PUSH2 0x9E3 JUMP JUMPDEST PUSH1 0x40 MLOAD DUP1 SWAP2 SUB SWAP1 RETURN JUMPDEST PUSH2 0x151 PUSH2 0x14C CALLDATASIZE PUSH1 0x4 PUSH2 0xA33 JUMP JUMPDEST PUSH2 0x351 JUMP JUMPDEST PUSH1 0x40 MLOAD SWAP1 ISZERO ISZERO DUP2 MSTORE PUSH1 0x20 ADD PUSH2 0x135 JUMP JUMPDEST PUSH1 0x3 SLOAD JUMPDEST PUSH1 0x40 MLOAD SWAP1 DUP2 MSTORE PUSH1 0x20 ADD PUSH2 0x135 JUMP JUMPDEST PUSH2 0x151 PUSH2 0x181 CALLDATASIZE PUSH1 0x4 PUSH2 0xA5B JUMP JUMPDEST PUSH2 0x367 JUMP JUMPDEST PUSH1 0x4 SLOAD PUSH1 0xFF AND JUMPDEST PUSH1 0x40 MLOAD PUSH1 0xFF SWAP1 SWAP2 AND DUP2 MSTORE PUSH1 0x20 ADD PUSH2 0x135 JUMP JUMPDEST PUSH1 0x4 SLOAD PUSH2 0x18D SWAP1 PUSH1 0xFF AND DUP2 JUMP JUMPDEST PUSH2 0x151 PUSH2 0x1BA CALLDATASIZE PUSH1 0x4 PUSH2 0xA33 JUMP JUMPDEST PUSH2 0x3B7 JUMP JUMPDEST PUSH2 0x151 PUSH2 0x1CD CALLDATASIZE PUSH1 0x4 PUSH2 0xA95 JUMP JUMPDEST PUSH2 0x3ED JUMP JUMPDEST PUSH2 0x165 PUSH2 0x1E0 CALLDATASIZE PUSH1 0x4 PUSH2 0xAAC JUMP JUMPDEST PUSH1 0x1 PUSH1 0x1 PUSH1 0xA0 SHL SUB AND PUSH0 SWAP1 DUP2 MSTORE PUSH1 0x1 PUSH1 0x20 MSTORE PUSH1 0x40 SWAP1 KECCAK256 SLOAD SWAP1 JUMP JUMPDEST PUSH2 0x202 PUSH2 0x400 JUMP JUMPDEST STOP JUMPDEST PUSH0 SLOAD PUSH1 0x1 PUSH1 0x1 PUSH1 0xA0 SHL SUB AND JUMPDEST PUSH1 0x40 MLOAD PUSH1 0x1 PUSH1 0x1 PUSH1 0xA0 SHL SUB SWAP1 SWAP2 AND DUP2 MSTORE PUSH1 0x20 ADD PUSH2 0x135 JUMP JUMPDEST PUSH0 SLOAD PUSH1 0x1 PUSH1 0x1 PUSH1 0xA0 SHL SUB AND PUSH2 0x210 JUMP JUMPDEST PUSH2 0x128 PUSH2 0x4A6 JUMP JUMPDEST PUSH2 0x151 PUSH2 0x24E CALLDATASIZE PUSH1 0x4 PUSH2 0xA33 JUMP JUMPDEST PUSH2 0x4B5 JUMP JUMPDEST PUSH2 0x151 PUSH2 0x261 CALLDATASIZE PUSH1 0x4 PUSH2 0xA33 JUMP JUMPDEST PUSH2 0x4EB JUMP JUMPDEST PUSH2 0x128 PUSH2 0x4F7 JUMP JUMPDEST PUSH2 0x128 PUSH2 0x583 JUMP JUMPDEST PUSH2 0x165 PUSH2 0x284 CALLDATASIZE PUSH1 0x4 PUSH2 0xACC JUMP JUMPDEST PUSH1 0x1 PUSH1 0x1 PUSH1 0xA0 SHL SUB SWAP2 DUP3 AND PUSH0 SWAP1 DUP2 MSTORE PUSH1 0x2 PUSH1 0x20 SWAP1 DUP2 MSTORE PUSH1 0x40 DUP1 DUP4 KECCAK256 SWAP4 SWAP1 SWAP5 AND DUP3 MSTORE SWAP2 SWAP1 SWAP2 MSTORE KECCAK256 SLOAD SWAP1 JUMP JUMPDEST PUSH2 0x202 PUSH2 0x2BC CALLDATASIZE PUSH1 0x4 PUSH2 0xAAC JUMP JUMPDEST PUSH2 0x590 JUMP JUMPDEST PUSH1 0x60 PUSH1 0x6 DUP1 SLOAD PUSH2 0x2D0 SWAP1 PUSH2 0xAFD JUMP JUMPDEST DUP1 PUSH1 0x1F ADD PUSH1 0x20 DUP1 SWAP2 DIV MUL PUSH1 0x20 ADD PUSH1 0x40 MLOAD SWAP1 DUP2 ADD PUSH1 0x40 MSTORE DUP1 SWAP3 SWAP2 SWAP1 DUP2 DUP2 MSTORE PUSH1 0x20 ADD DUP3 DUP1 SLOAD PUSH2 0x2FC SWAP1 PUSH2 0xAFD JUMP JUMPDEST DUP1 ISZERO PUSH2 0x347 JUMPI DUP1 PUSH1 0x1F LT PUSH2 0x31E JUMPI PUSH2 0x100 DUP1 DUP4 SLOAD DIV MUL DUP4 MSTORE SWAP2 PUSH1 0x20 ADD SWAP2 PUSH2 0x347 JUMP JUMPDEST DUP3 ADD SWAP2 SWAP1 PUSH0 MSTORE PUSH1 0x20 PUSH0 KECCAK256 SWAP1 JUMPDEST DUP2 SLOAD DUP2 MSTORE SWAP1 PUSH1 0x1 ADD SWAP1 PUSH1 0x20 ADD DUP1 DUP4 GT PUSH2 0x32A JUMPI DUP3 SWAP1 SUB PUSH1 0x1F AND DUP3 ADD SWAP2 JUMPDEST POP POP POP POP POP SWAP1 POP SWAP1 JUMP JUMPDEST PUSH0 PUSH2 0x35D CALLER DUP5 DUP5 PUSH2 0x6A3 JUMP JUMPDEST POP PUSH1 0x1 JUMPDEST SWAP3 SWAP2 POP POP JUMP JUMPDEST PUSH0 PUSH2 0x373 DUP5 DUP5 DUP5 PUSH2 0x7B0 JUMP JUMPDEST PUSH1 0x1 PUSH1 0x1 PUSH1 0xA0 SHL SUB DUP5 AND PUSH0 SWAP1 DUP2 MSTORE PUSH1 0x2 PUSH1 0x20 SWAP1 DUP2 MSTORE PUSH1 0x40 DUP1 DUP4 KECCAK256 CALLER DUP1 DUP6 MSTORE SWAP3 MSTORE SWAP1 SWAP2 KECCAK256 SLOAD PUSH2 0x3AD SWAP2 DUP7 SWAP2 PUSH2 0x3A8 SWAP1 DUP7 SWAP1 PUSH2 0xB49 JUMP JUMPDEST PUSH2 0x6A3 JUMP JUMPDEST POP PUSH1 0x1 SWAP4 SWAP3 POP POP POP JUMP JUMPDEST CALLER PUSH0 DUP2 DUP2 MSTORE PUSH1 0x2 PUSH1 0x20 SWAP1 DUP2 MSTORE PUSH1 0x40 DUP1 DUP4 KECCAK256 PUSH1 0x1 PUSH1 0x1 PUSH1 0xA0 SHL SUB DUP8 AND DUP5 MSTORE SWAP1 SWAP2 MSTORE DUP2 KECCAK256 SLOAD SWAP1 SWAP2 PUSH2 0x35D SWAP2 DUP6 SWAP1 PUSH2 0x3A8 SWAP1 DUP7 SWAP1 PUSH2 0xB5C JUMP JUMPDEST PUSH0 PUSH2 0x3F8 CALLER DUP4 PUSH2 0x905 JUMP JUMPDEST POP PUSH1 0x1 SWAP2 SWAP1 POP JUMP JUMPDEST PUSH0 SLOAD PUSH1 0x1 PUSH1 0x1 PUSH1 0xA0 SHL SUB AND CALLER EQ PUSH2 0x45E JUMPI PUSH1 0x40 MLOAD PUSH3 0x461BCD PUSH1 0xE5 SHL DUP2 MSTORE PUSH1 0x20 PUSH1 0x4 DUP3 ADD DUP2 SWAP1 MSTORE PUSH1 0x24 DUP3 ADD MSTORE PUSH32 0x4F776E61626C653A2063616C6C6572206973206E6F7420746865206F776E6572 PUSH1 0x44 DUP3 ADD MSTORE PUSH1 0x64 ADD JUMPDEST PUSH1 0x40 MLOAD DUP1 SWAP2 SUB SWAP1 REVERT JUMPDEST PUSH0 DUP1 SLOAD PUSH1 0x40 MLOAD PUSH1 0x1 PUSH1 0x1 PUSH1 0xA0 SHL SUB SWAP1 SWAP2 AND SWAP1 PUSH32 0x8BE0079C531659141344CD1FD0A4F28419497F9722A3DAAFE3B4186F6B6457E0 SWAP1 DUP4 SWAP1 LOG3 PUSH0 DUP1 SLOAD PUSH1 0x1 PUSH1 0x1 PUSH1 0xA0 SHL SUB NOT AND SWAP1 SSTORE JUMP JUMPDEST PUSH1 0x60 PUSH1 0x5 DUP1 SLOAD PUSH2 0x2D0 SWAP1 PUSH2 0xAFD JUMP JUMPDEST CALLER PUSH0 DUP2 DUP2 MSTORE PUSH1 0x2 PUSH1 0x20 SWAP1 DUP2 MSTORE PUSH1 0x40 DUP1 DUP4 KECCAK256 PUSH1 0x1 PUSH1 0x1 PUSH1 0xA0 SHL SUB DUP8 AND DUP5 MSTORE SWAP1 SWAP2 MSTORE DUP2 KECCAK256 SLOAD SWAP1 SWAP2 PUSH2 0x35D SWAP2 DUP6 SWAP1 PUSH2 0x3A8 SWAP1 DUP7 SWAP1 PUSH2 0xB49 JUMP JUMPDEST PUSH0 PUSH2 0x35D CALLER DUP5 DUP5 PUSH2 0x7B0 JUMP JUMPDEST PUSH1 0x5 DUP1 SLOAD PUSH2 0x504 SWAP1 PUSH2 0xAFD JUMP JUMPDEST DUP1 PUSH1 0x1F ADD PUSH1 0x20 DUP1 SWAP2 DIV MUL PUSH1 0x20 ADD PUSH1 0x40 MLOAD SWAP1 DUP2 ADD PUSH1 0x40 MSTORE DUP1 SWAP3 SWAP2 SWAP1 DUP2 DUP2 MSTORE PUSH1 0x20 ADD DUP3 DUP1 SLOAD PUSH2 0x530 SWAP1 PUSH2 0xAFD JUMP JUMPDEST DUP1 ISZERO PUSH2 0x57B JUMPI DUP1 PUSH1 0x1F LT PUSH2 0x552 JUMPI PUSH2 0x100 DUP1 DUP4 SLOAD DIV MUL DUP4 MSTORE SWAP2 PUSH1 0x20 ADD SWAP2 PUSH2 0x57B JUMP JUMPDEST DUP3 ADD SWAP2 SWAP1 PUSH0 MSTORE PUSH1 0x20 PUSH0 KECCAK256 SWAP1 JUMPDEST DUP2 SLOAD DUP2 MSTORE SWAP1 PUSH1 0x1 ADD SWAP1 PUSH1 0x20 ADD DUP1 DUP4 GT PUSH2 0x55E JUMPI DUP3 SWAP1 SUB PUSH1 0x1F AND DUP3 ADD SWAP2 JUMPDEST POP POP POP POP POP DUP2 JUMP JUMPDEST PUSH1 0x6 DUP1 SLOAD PUSH2 0x504 SWAP1 PUSH2 0xAFD JUMP JUMPDEST PUSH0 SLOAD PUSH1 0x1 PUSH1 0x1 PUSH1 0xA0 SHL SUB AND CALLER EQ PUSH2 0x5E9 JUMPI PUSH1 0x40 MLOAD PUSH3 0x461BCD PUSH1 0xE5 SHL DUP2 MSTORE PUSH1 0x20 PUSH1 0x4 DUP3 ADD DUP2 SWAP1 MSTORE PUSH1 0x24 DUP3 ADD MSTORE PUSH32 0x4F776E61626C653A2063616C6C6572206973206E6F7420746865206F776E6572 PUSH1 0x44 DUP3 ADD MSTORE PUSH1 0x64 ADD PUSH2 0x455 JUMP JUMPDEST PUSH1 0x1 PUSH1 0x1 PUSH1 0xA0 SHL SUB DUP2 AND PUSH2 0x64A JUMPI PUSH1 0x40 MLOAD PUSH3 0x461BCD PUSH1 0xE5 SHL DUP2 MSTORE PUSH1 0x20 PUSH1 0x4 DUP3 ADD MSTORE PUSH1 0x22 PUSH1 0x24 DUP3 ADD MSTORE PUSH32 0x4F776E61626C653A206E6577206F776E6572206973207A65726F206164647265 PUSH1 0x44 DUP3 ADD MSTORE PUSH2 0x7373 PUSH1 0xF0 SHL PUSH1 0x64 DUP3 ADD MSTORE PUSH1 0x84 ADD PUSH2 0x455 JUMP JUMPDEST PUSH0 DUP1 SLOAD PUSH1 0x40 MLOAD PUSH1 0x1 PUSH1 0x1 PUSH1 0xA0 SHL SUB DUP1 DUP6 AND SWAP4 SWAP3 AND SWAP2 PUSH32 0x8BE0079C531659141344CD1FD0A4F28419497F9722A3DAAFE3B4186F6B6457E0 SWAP2 LOG3 PUSH0 DUP1 SLOAD PUSH1 0x1 PUSH1 0x1 PUSH1 0xA0 SHL SUB NOT AND PUSH1 0x1 PUSH1 0x1 PUSH1 0xA0 SHL SUB SWAP3 SWAP1 SWAP3 AND SWAP2 SWAP1 SWAP2 OR SWAP1 SSTORE JUMP JUMPDEST PUSH1 0x1 PUSH1 0x1 PUSH1 0xA0 SHL SUB DUP4 AND PUSH2 0x6F9 JUMPI PUSH1 0x40 MLOAD PUSH3 0x461BCD PUSH1 0xE5 SHL DUP2 MSTORE PUSH1 0x20 PUSH1 0x4 DUP3 ADD DUP2 SWAP1 MSTORE PUSH1 0x24 DUP3 ADD MSTORE PUSH32 0x42455032303A20617070726F76652066726F6D207A65726F2061646472657373 PUSH1 0x44 DUP3 ADD MSTORE PUSH1 0x64 ADD PUSH2 0x455 JUMP JUMPDEST PUSH1 0x1 PUSH1 0x1 PUSH1 0xA0 SHL SUB DUP3 AND PUSH2 0x74F JUMPI PUSH1 0x40 MLOAD PUSH3 0x461BCD PUSH1 0xE5 SHL DUP2 MSTORE PUSH1 0x20 PUSH1 0x4 DUP3 ADD MSTORE PUSH1 0x1E PUSH1 0x24 DUP3 ADD MSTORE PUSH32 0x42455032303A20617070726F766520746F207A65726F20616464726573730000 PUSH1 0x44 DUP3 ADD MSTORE PUSH1 0x64 ADD PUSH2 0x455 JUMP JUMPDEST PUSH1 0x1 PUSH1 0x1 PUSH1 0xA0 SHL SUB DUP4 DUP2 AND PUSH0 DUP2 DUP2 MSTORE PUSH1 0x2 PUSH1 0x20 SWAP1 DUP2 MSTORE PUSH1 0x40 DUP1 DUP4 KECCAK256 SWAP5 DUP8 AND DUP1 DUP5 MSTORE SWAP5 DUP3 MSTORE SWAP2 DUP3 SWAP1 KECCAK256 DUP6 SWAP1 SSTORE SWAP1 MLOAD DUP5 DUP2 MSTORE PUSH32 0x8C5BE1E5EBEC7D5BD14F71427D1E84F3DD0314C0F7B2291E5B200AC8C7C3B925 SWAP2 ADD JUMPDEST PUSH1 0x40 MLOAD DUP1 SWAP2 SUB SWAP1 LOG3 POP POP POP JUMP JUMPDEST PUSH1 0x1 PUSH1 0x1 PUSH1 0xA0 SHL SUB DUP4 AND PUSH2 0x810 JUMPI PUSH1 0x40 MLOAD PUSH3 0x461BCD PUSH1 0xE5 SHL DUP2 MSTORE PUSH1 0x20 PUSH1 0x4 DUP3 ADD MSTORE PUSH1 0x21 PUSH1 0x24 DUP3 ADD MSTORE PUSH32 0x42455032303A207472616E736665722066726F6D207A65726F20616464726573 PUSH1 0x44 DUP3 ADD MSTORE PUSH1 0x73 PUSH1 0xF8 SHL PUSH1 0x64 DUP3 ADD MSTORE PUSH1 0x84 ADD PUSH2 0x455 JUMP JUMPDEST PUSH1 0x1 PUSH1 0x1 PUSH1 0xA0 SHL SUB DUP3 AND PUSH2 0x866 JUMPI PUSH1 0x40 MLOAD PUSH3 0x461BCD PUSH1 0xE5 SHL DUP2 MSTORE PUSH1 0x20 PUSH1 0x4 DUP3 ADD MSTORE PUSH1 0x1F PUSH1 0x24 DUP3 ADD MSTORE PUSH32 0x42455032303A207472616E7366657220746F207A65726F206164647265737300 PUSH1 0x44 DUP3 ADD MSTORE PUSH1 0x64 ADD PUSH2 0x455 JUMP JUMPDEST PUSH1 0x1 PUSH1 0x1 PUSH1 0xA0 SHL SUB DUP4 AND PUSH0 SWAP1 DUP2 MSTORE PUSH1 0x1 PUSH1 0x20 MSTORE PUSH1 0x40 DUP2 KECCAK256 DUP1 SLOAD DUP4 SWAP3 SWAP1 PUSH2 0x88D SWAP1 DUP5 SWAP1 PUSH2 0xB49 JUMP JUMPDEST SWAP1 SWAP2 SSTORE POP POP PUSH1 0x1 PUSH1 0x1 PUSH1 0xA0 SHL SUB DUP3 AND PUSH0 SWAP1 DUP2 MSTORE PUSH1 0x1 PUSH1 0x20 MSTORE PUSH1 0x40 DUP2 KECCAK256 DUP1 SLOAD DUP4 SWAP3 SWAP1 PUSH2 0x8B9 SWAP1 DUP5 SWAP1 PUSH2 0xB5C JUMP JUMPDEST SWAP3 POP POP DUP2 SWAP1 SSTORE POP DUP2 PUSH1 0x1 PUSH1 0x1 PUSH1 0xA0 SHL SUB AND DUP4 PUSH1 0x1 PUSH1 0x1 PUSH1 0xA0 SHL SUB AND PUSH32 0xDDF252AD1BE2C89B69C2B068FC378DAA952BA7F163C4A11628F55A4DF523B3EF DUP4 PUSH1 0x40 MLOAD PUSH2 0x7A3 SWAP2 DUP2 MSTORE PUSH1 0x20 ADD SWAP1 JUMP JUMPDEST PUSH1 0x1 PUSH1 0x1 PUSH1 0xA0 SHL SUB DUP3 AND PUSH2 0x95B JUMPI PUSH1 0x40 MLOAD PUSH3 0x461BCD PUSH1 0xE5 SHL DUP2 MSTORE PUSH1 0x20 PUSH1 0x4 DUP3 ADD MSTORE PUSH1 0x1D PUSH1 0x24 DUP3 ADD MSTORE PUSH32 0x42455032303A206275726E2066726F6D207A65726F2061646472657373000000 PUSH1 0x44 DUP3 ADD MSTORE PUSH1 0x64 ADD PUSH2 0x455 JUMP JUMPDEST PUSH1 0x1 PUSH1 0x1 PUSH1 0xA0 SHL SUB DUP3 AND PUSH0 SWAP1 DUP2 MSTORE PUSH1 0x1 PUSH1 0x20 MSTORE PUSH1 0x40 DUP2 KECCAK256 DUP1 SLOAD DUP4 SWAP3 SWAP1 PUSH2 0x982 SWAP1 DUP5 SWAP1 PUSH2 0xB49 JUMP JUMPDEST SWAP3 POP POP DUP2 SWAP1 SSTORE POP DUP1 PUSH1 0x3 PUSH0 DUP3 DUP3 SLOAD PUSH2 0x99A SWAP2 SWAP1 PUSH2 0xB49 JUMP JUMPDEST SWAP1 SWAP2 SSTORE POP POP PUSH1 0x40 MLOAD DUP2 DUP2 MSTORE PUSH0 SWAP1 PUSH1 0x1 PUSH1 0x1 PUSH1 0xA0 SHL SUB DUP5 AND SWAP1 PUSH32 0xDDF252AD1BE2C89B69C2B068FC378DAA952BA7F163C4A11628F55A4DF523B3EF SWAP1 PUSH1 0x20 ADD PUSH1 0x40 MLOAD DUP1 SWAP2 SUB SWAP1 LOG3 POP POP JUMP JUMPDEST PUSH1 0x20 DUP2 MSTORE PUSH0 DUP3 MLOAD DUP1 PUSH1 0x20 DUP5 ADD MSTORE DUP1 PUSH1 0x20 DUP6 ADD PUSH1 0x40 DUP6 ADD MCOPY PUSH0 PUSH1 0x40 DUP3 DUP6 ADD ADD MSTORE PUSH1 0x40 PUSH1 0x1F NOT PUSH1 0x1F DUP4 ADD AND DUP5 ADD ADD SWAP2 POP POP SWAP3 SWAP2 POP POP JUMP JUMPDEST DUP1 CALLDATALOAD PUSH1 0x1 PUSH1 0x1 PUSH1 0xA0 SHL SUB DUP2 AND DUP2 EQ PUSH2 0xA2E JUMPI PUSH0 PUSH0 REVERT JUMPDEST SWAP2 SWAP1 POP JUMP JUMPDEST PUSH0 PUSH0 PUSH1 0x40 DUP4 DUP6 SUB SLT ISZERO PUSH2 0xA44 JUMPI PUSH0 PUSH0 REVERT JUMPDEST PUSH2 0xA4D DUP4 PUSH2 0xA18 JUMP JUMPDEST SWAP5 PUSH1 0x20 SWAP4 SWAP1 SWAP4 ADD CALLDATALOAD SWAP4 POP POP POP JUMP JUMPDEST PUSH0 PUSH0 PUSH0 PUSH1 0x60 DUP5 DUP7 SUB SLT ISZERO PUSH2 0xA6D JUMPI PUSH0 PUSH0 REVERT JUMPDEST PUSH2 0xA76 DUP5 PUSH2 0xA18 JUMP JUMPDEST SWAP3 POP PUSH2 0xA84 PUSH1 0x20 DUP6 ADD PUSH2 0xA18 JUMP JUMPDEST SWAP3 SWAP6 SWAP3 SWAP5 POP POP POP PUSH1 0x40 SWAP2 SWAP1 SWAP2 ADD CALLDATALOAD SWAP1 JUMP JUMPDEST PUSH0 PUSH1 0x20 DUP3 DUP5 SUB SLT ISZERO PUSH2 0xAA5 JUMPI PUSH0 PUSH0 REVERT JUMPDEST POP CALLDATALOAD SWAP2 SWAP1 POP JUMP JUMPDEST PUSH0 PUSH1 0x20 DUP3 DUP5 SUB SLT ISZERO PUSH2 0xABC JUMPI PUSH0 PUSH0 REVERT JUMPDEST PUSH2 0xAC5 DUP3 PUSH2 0xA18 JUMP JUMPDEST SWAP4 SWAP3 POP POP POP JUMP JUMPDEST PUSH0 PUSH0 PUSH1 0x40 DUP4 DUP6 SUB SLT ISZERO PUSH2 0xADD JUMPI PUSH0 PUSH0 REVERT JUMPDEST PUSH2 0xAE6 DUP4 PUSH2 0xA18 JUMP JUMPDEST SWAP2 POP PUSH2 0xAF4 PUSH1 0x20 DUP5 ADD PUSH2 0xA18 JUMP JUMPDEST SWAP1 POP SWAP3 POP SWAP3 SWAP1 POP JUMP JUMPDEST PUSH1 0x1 DUP2 DUP2 SHR SWAP1 DUP3 AND DUP1 PUSH2 0xB11 JUMPI PUSH1 0x7F DUP3 AND SWAP2 POP JUMPDEST PUSH1 0x20 DUP3 LT DUP2 SUB PUSH2 0xB2F JUMPI PUSH4 0x4E487B71 PUSH1 0xE0 SHL PUSH0 MSTORE PUSH1 0x22 PUSH1 0x4 MSTORE PUSH1 0x24 PUSH0 REVERT JUMPDEST POP SWAP2 SWAP1 POP JUMP JUMPDEST PUSH4 0x4E487B71 PUSH1 0xE0 SHL PUSH0 MSTORE PUSH1 0x11 PUSH1 0x4 MSTORE PUSH1 0x24 PUSH0 REVERT JUMPDEST DUP2 DUP2 SUB DUP2 DUP2 GT ISZERO PUSH2 0x361 JUMPI PUSH2 0x361 PUSH2 0xB35 JUMP JUMPDEST DUP1 DUP3 ADD DUP1 DUP3 GT ISZERO PUSH2 0x361 JUMPI PUSH2 0x361 PUSH2 0xB35 JUMP INVALID LOG2 PUSH5 0x6970667358 0x22 SLT KECCAK256 0xB6 AND 0x1F 0x4F DUP13 DUP8 0x26 0xA6 0xBC PREVRANDAO GASLIMIT PUSH18 0xD4489EC5F5677B999528CC238500AE4EEAD2 STATICCALL CALLER PUSH5 0x736F6C6343 STOP ADDMOD 0x1E STOP CALLER "
				},
				"gasEstimates": {
					"creation": {
						"codeDepositCost": "596200",
						"executionCost": "infinite",
						"totalCost": "infinite"
					},
					"external": {
						"_decimals()": "2357",
						"_name()": "infinite",
						"_symbol()": "infinite",
						"allowance(address,address)": "infinite",
						"approve(address,uint256)": "24639",
						"balanceOf(address)": "2645",
						"burn(uint256)": "infinite",
						"decimals()": "2318",
						"decreaseAllowance(address,uint256)": "infinite",
						"getOwner()": "2363",
						"increaseAllowance(address,uint256)": "infinite",
						"name()": "infinite",
						"owner()": "2396",
						"renounceOwnership()": "30184",
						"symbol()": "infinite",
						"totalSupply()": "2348",
						"transfer(address,uint256)": "infinite",
						"transferFrom(address,address,uint256)": "infinite",
						"transferOwnership(address)": "30505"
					},
					"internal": {
						"_approve(address,address,uint256)": "infinite",
						"_burn(address,uint256)": "infinite",
						"_burnFrom(address,uint256)": "infinite",
						"_transfer(address,address,uint256)": "infinite"
					}
				},
				"methodIdentifiers": {
					"_decimals()": "32424aa3",
					"_name()": "d28d8852",
					"_symbol()": "b09f1266",
					"allowance(address,address)": "dd62ed3e",
					"approve(address,uint256)": "095ea7b3",
					"balanceOf(address)": "70a08231",
					"burn(uint256)": "42966c68",
					"decimals()": "313ce567",
					"decreaseAllowance(address,uint256)": "a457c2d7",
					"getOwner()": "893d20e8",
					"increaseAllowance(address,uint256)": "39509351",
					"name()": "06fdde03",
					"owner()": "8da5cb5b",
					"renounceOwnership()": "715018a6",
					"symbol()": "95d89b41",
					"totalSupply()": "18160ddd",
					"transfer(address,uint256)": "a9059cbb",
					"transferFrom(address,address,uint256)": "23b872dd",
					"transferOwnership(address)": "f2fde38b"
				}
			},
			"storageLayout": {
				"storage": [
					{
						"astId": 111,
						"contract": "arcanixtoken.sol:ARCANIX",
						"label": "_owner",
						"offset": 0,
						"slot": "0",
						"type": "t_address"
					},
					{
						"astId": 214,
						"contract": "arcanixtoken.sol:ARCANIX",
						"label": "_balances",
						"offset": 0,
						"slot": "1",
						"type": "t_mapping(t_address,t_uint256)"
					},
					{
						"astId": 220,
						"contract": "arcanixtoken.sol:ARCANIX",
						"label": "_allowances",
						"offset": 0,
						"slot": "2",
						"type": "t_mapping(t_address,t_mapping(t_address,t_uint256))"
					},
					{
						"astId": 222,
						"contract": "arcanixtoken.sol:ARCANIX",
						"label": "_totalSupply",
						"offset": 0,
						"slot": "3",
						"type": "t_uint256"
					},
					{
						"astId": 224,
						"contract": "arcanixtoken.sol:ARCANIX",
						"label": "_decimals",
						"offset": 0,
						"slot": "4",
						"type": "t_uint8"
					},
					{
						"astId": 226,
						"contract": "arcanixtoken.sol:ARCANIX",
						"label": "_symbol",
						"offset": 0,
						"slot": "5",
						"type": "t_string_storage"
					},
					{
						"astId": 228,
						"contract": "arcanixtoken.sol:ARCANIX",
						"label": "_name",
						"offset": 0,
						"slot": "6",
						"type": "t_string_storage"
					}
				],
				"types": {
					"t_address": {
						"encoding": "inplace",
						"label": "address",
						"numberOfBytes": "20"
					},
					"t_mapping(t_address,t_mapping(t_address,t_uint256))": {
						"encoding": "mapping",
						"key": "t_address",
						"label": "mapping(address => mapping(address => uint256))",
						"numberOfBytes": "32",
						"value": "t_mapping(t_address,t_uint256)"
					},
					"t_mapping(t_address,t_uint256)": {
						"encoding": "mapping",
						"key": "t_address",
						"label": "mapping(address => uint256)",
						"numberOfBytes": "32",
						"value": "t_uint256"
					},
					"t_string_storage": {
						"encoding": "bytes",
						"label": "string",
						"numberOfBytes": "32"
					},
					"t_uint256": {
						"encoding": "inplace",
						"label": "uint256",
						"numberOfBytes": "32"
					},
					"t_uint8": {
						"encoding": "inplace",
						"label": "uint8",
						"numberOfBytes": "1"
					}
				}
			},
			"userdoc": {
				"kind": "user",
				"methods": {},
				"version": 1
			}
		}
	}
}