{
	"data": {
		"bytecode": {
			"linkReferences": {},
			"object": "6080604052348015600e575f5ffd5b506131308061001c5f395ff3fe608060405234801561000f575f5ffd5b50600436106101a1575f3560e01c806376636e5a116100f3578063a9510e8211610093578063bed24c241161006e578063bed24c24146104d7578063c4d66de8146104ea578063e8db280c146104fd578063fd6ef0de14610521575f5ffd5b8063a9510e82146104a9578063a98ad46c146104b1578063bbf7f772146104c4575f5ffd5b80638da5cb5b116100ce5780638da5cb5b1461040e57806398232a38146104265780639a29647d14610439578063a275999c1461044c575f5ffd5b806376636e5a146102e5578063838a1b6d146102f8578063842a77d314610318575f5ffd5b80633f0d55fe1161015e578063509222cd11610139578063509222cd1461028d57806359450a58146102b7578063664e9704146102ca5780636d704b94146102d2575f5ffd5b80633f0d55fe14610254578063416b09dc1461026757806344dd5e7a1461027a575f5ffd5b806321c82e68146101a557806321f8c27d146101ba5780632a2d0c47146101e2578063348d4487146102225780633610724e14610239578063362e496b1461024c575b5f5ffd5b6101b86101b3366004612c95565b610541565b005b6101cd6101c8366004612cc7565b6107a2565b60405190151581526020015b60405180910390f35b61020a6101f0366004612c95565b60076020525f90815260409020546001600160a01b031681565b6040516001600160a01b0390911681526020016101d9565b61022b60035481565b6040519081526020016101d9565b6101b8610247366004612c95565b6107f8565b6101b8610b3f565b6101b8610262366004612cf7565b610cdb565b6101b8610275366004612cc7565b610fd6565b6101b8610288366004612c95565b6110b6565b6101cd61029b366004612cc7565b6001600160a01b03165f90815260066020526040902054151590565b61022b6102c5366004612cc7565b61121f565b61022b600281565b6101b86102e0366004612cc7565b61136e565b60025461020a906001600160a01b031681565b61030b610306366004612d1f565b611378565b6040516101d99190612d39565b61039e610326366004612cc7565b600660208190525f918252604090912080546001820154600283015460038401546004850154600586015496860154600787015460088801546009890154600a8a0154600b8b0154600c909b0154999b6001600160a01b03998a169b99909816999698959796949593949293919260ff90911691908d565b604080519d8e526001600160a01b039c8d1660208f01529a909b16998c019990995260608b019790975260808a019590955260a089019390935260c088019190915260e087015261010086015261012085015215156101408401526101608301526101808201526101a0016101d9565b5f5461020a906201000090046001600160a01b031681565b6101b8610434366004612db7565b611433565b6101b8610447366004612cc7565b611a06565b61048c61045a366004612cc7565b6001600160a01b03165f908152600660208190526040909120600581015491810154600a909101549192909160ff1690565b6040805193845260208401929092521515908201526060016101d9565b6101b8611a10565b60015461020a906001600160a01b031681565b6101b86104d2366004612cc7565b611cc9565b6101b86104e5366004612de1565b611f0d565b6101b86104f8366004612cc7565b6120ee565b61051061050b366004612d1f565b612255565b6040516101d9959493929190612e8c565b61053461052f366004612cc7565b612584565b6040516101d99190612ef8565b80600414806105505750806005145b6105965760405162461bcd60e51b815260206004820152601260248201527124b73b30b634b21021b630b4b690283630b760711b60448201526064015b60405180910390fd5b335f90815260066020526040902060058101546105c55760405162461bcd60e51b815260040161058d90612f4b565b5f828152600d820160205260408120815b81548110156106ba575f8282815481106105f2576105f2612f72565b5f9182526020909120600690910201600581015490915060ff1661061657506106b2565b5f6201518082600201544261062b9190612f9a565b6106359190612fad565b90505f6127108360030154845f015461064e9190612fcc565b6106589190612fad565b90505f6106658383612fcc565b905083600401548111156106ad575f8460040154826106849190612f9a565b905080856004015f8282546106999190612fe3565b909155506106a990508189612fe3565b9750505b505050505b6001016105d6565b5060015460405163a9059cbb60e01b8152336004820152602481018490526001600160a01b039091169063a9059cbb906044016020604051808303815f875af1158015610709573d5f5f3e3d5ffd5b505050506040513d601f19601f8201168201806040525081019061072d9190612ff6565b6107495760405162461bcd60e51b815260040161058d90613015565b81836007015f82825461075c9190612fe3565b909155505042600984015560405182815233907f574c59dfd25e29ed9605f5accedb5aab0b989606855c61bf6fdcd0875ec8d4b59060200160405180910390a250505050565b6001600160a01b038181165f90815260066020526040812060010154909116156107ce57506001919050565b5f546001600160a01b03620100009091048116908316036107f157506001919050565b505f919050565b335f908152600660205260409020546108495760405162461bcd60e51b8152602060048201526013602482015272155cd95c881b9bdd081c9959da5cdd195c9959606a1b604482015260640161058d565b5f811161088d5760405162461bcd60e51b81526020600482015260126024820152710416d6f756e74206d757374206265203e20360741b604482015260640161058d565b6001546040516323b872dd60e01b8152336004820152306024820152604481018390526001600160a01b03909116906323b872dd906064016020604051808303815f875af11580156108e1573d5f5f3e3d5ffd5b505050506040513d601f19601f820116820180604052508101906109059190612ff6565b6109485760405162461bcd60e51b81526020600482015260146024820152731554d115081d1c985b9cd9995c8819985a5b195960621b604482015260640161058d565b5f610954600283612fcc565b335f9081526006602052604081206004018054929350849290919061097a908490612fe3565b9091555050335f90815260066020819052604082200180548392906109a0908490612fe3565b90915550606490506109b3826005612fcc565b6109bd9190612fad565b335f908152600660208190526040808320600201546001600160a01b0316835282200180549091906109f0908490612fe3565b9091555060649050610a03826005612fcc565b610a0d9190612fad565b335f90815260066020526040808220600201546001600160a01b031682528120600b018054909190610a40908490612fe3565b9091555050335f818152600660205260409020600201546001600160a01b0316907f0b63ad4314f7f378e8544a3d2cf22e089f2059ebc701f71ea8f0f60869c4c4ed6064610a8f856005612fcc565b610a999190612fad565b60405190815260200160405180910390a3335f818152600660209081526040808320815160608101835287815280840187815242828501908152600e909301805460018082018355918852968690209251600390970290920195865551908501555160029093019290925581518581529081018490527f8fafebcaf9d154343dad25669bfa277f4fbacd7ac6b0c4fed522580e040a0f3391015b60405180910390a25050565b5f546201000090046001600160a01b03163314610b6e5760405162461bcd60e51b815260040161058d9061303e565b6001546040516370a0823160e01b81523060048201525f916001600160a01b0316906370a0823190602401602060405180830381865afa158015610bb4573d5f5f3e3d5ffd5b505050506040513d601f19601f82011682018060405250810190610bd89190613062565b90505f8111610c1f5760405162461bcd60e51b81526020600482015260136024820152724e6f7468696e6720746f20776974686472617760681b604482015260640161058d565b6001545f5460405163a9059cbb60e01b81526001600160a01b0362010000909204821660048201526024810184905291169063a9059cbb906044016020604051808303815f875af1158015610c76573d5f5f3e3d5ffd5b505050506040513d601f19601f82011682018060405250810190610c9a9190612ff6565b610cd85760405162461bcd60e51b815260206004820152600f60248201526e15da5d1a191c985dc819985a5b1959608a1b604482015260640161058d565b50565b8160ff1660031480610cf057508160ff166004145b80610cfe57508160ff166005145b610d555760405162461bcd60e51b815260206004820152602260248201527f596f752063616e6e6f74207769746864726177206361706974616c20616d6f756044820152611b9d60f21b606482015260840161058d565b335f90815260066020908152604080832060ff86168452600d81019092528220805491929184908110610d8a57610d8a612f72565b905f5260205f20906006020190508360ff16600403610e05576002810154610db6906301e13380612fe3565b421015610e055760405162461bcd60e51b815260206004820181905260248201527f506c616e20343a204c6f636b20706572696f64206973203132206d6f6e746873604482015260640161058d565b8360ff16600503610e72576002810154610e23906303c26700612fe3565b421015610e725760405162461bcd60e51b815260206004820181905260248201527f506c616e20353a204c6f636b20706572696f64206973203234206d6f6e746873604482015260640161058d565b60058101805460ff1916905560028101545f906201518090610e949042612f9a565b610e9e9190612fad565b600383015483549192505f91829161271091610eba9190612fcc565b610ec49190612fad565b90505f610ed18483612fcc565b90505f85600401548211610ee5575f610ef4565b6004860154610ef49083612f9a565b90508015610f3b57610f068185612fe3565b935080866004015f828254610f1b9190612fe3565b9250508190555080876007015f828254610f359190612fe3565b90915550505b60015486546001600160a01b039091169063a9059cbb903390610f5e9088612fe3565b6040516001600160e01b031960e085901b1681526001600160a01b03909216600483015260248201526044016020604051808303815f875af1158015610fa6573d5f5f3e3d5ffd5b505050506040513d601f19601f82011682018060405250810190610fca9190612ff6565b50505050505050505050565b5f546201000090046001600160a01b031633146110055760405162461bcd60e51b815260040161058d9061303e565b6002546001600160a01b03161561104c5760405162461bcd60e51b815260206004820152600b60248201526a105b1c9958591e481cd95d60aa1b604482015260640161058d565b6001600160a01b0381166110945760405162461bcd60e51b815260206004820152600f60248201526e496e76616c6964206164647265737360881b604482015260640161058d565b600280546001600160a01b0319166001600160a01b0392909216919091179055565b806003146110fb5760405162461bcd60e51b815260206004820152601260248201527124b73b30b634b21021b630b4b690283630b760711b604482015260640161058d565b335f908152600660205260409020600581015461112a5760405162461bcd60e51b815260040161058d90612f4b565b5f828152600d820160205260408120815b81548110156106ba575f82828154811061115757611157612f72565b5f9182526020909120600690910201600581015490915060ff1661117b5750611217565b5f620151808260020154426111909190612f9a565b61119a9190612fad565b90505f6127108360030154845f01546111b39190612fcc565b6111bd9190612fad565b90505f6111ca8383612fcc565b90508360040154811115611212575f8460040154826111e99190612f9a565b905080856004015f8282546111fe9190612fe3565b9091555061120e90508189612fe3565b9750505b505050505b60010161113b565b6001600160a01b0381165f9081526006602052604081206005810154820361124957505f92915050565b5f60015b60058160ff1611611366575f5b60ff82165f908152600d850160205260409020548110156113535760ff82165f908152600d85016020526040812080548390811061129a5761129a612f72565b5f9182526020909120600690910201600581015490915060ff166112be575061134b565b5f620151808260020154426112d39190612f9a565b6112dd9190612fad565b90505f6127108360030154845f01546112f69190612fcc565b6113009190612fad565b90505f61130d8383612fcc565b90505f84600401548211611321575f611330565b60048501546113309083612f9a565b90508015611345576113428189612fe3565b97505b50505050505b60010161125a565b508061135e81613079565b91505061124d565b509392505050565b610cd83382612616565b6001600160a01b0382165f908152600660209081526040808320848452600d018252808320805482518185028101850190935280835260609492939192909184015b82821015611426575f8481526020908190206040805160c08101825260068602909201805483526001808201548486015260028201549284019290925260038101546060840152600481015460808401526005015460ff16151560a083015290835290920191016113ba565b5050505090505b92915050565b61143c336107a2565b61147e5760405162461bcd60e51b8152602060048201526013602482015272155cd95c881b9bdd081c9959da5cdd195c9959606a1b604482015260640161058d565b5f8160ff16118015611493575060068160ff16105b6114df5760405162461bcd60e51b815260206004820152601760248201527f496e76616c696420496e766573746d656e7420506c616e000000000000000000604482015260640161058d565b5f8160ff166001036116b5576004546114f9906032612fcc565b8310156115185760405162461bcd60e51b815260040161058d90613097565b600454611527906101f4612fcc565b83118015611542575060045461153f90610258612fcc565b83105b1561155f5760405162461bcd60e51b815260040161058d90613097565b60045461156e90610bb8612fcc565b83118015611589575060045461158690610dac612fcc565b83105b156115a65760405162461bcd60e51b815260040161058d90613097565b6004546115b5906126ac612fcc565b831180156115d057506004546115cd90612710612fcc565b83105b156115ed5760405162461bcd60e51b815260040161058d90613097565b6004546115fb906032612fcc565b83101580156116185750600454611614906101f4612fcc565b8311155b156116255750603c611812565b60045461163490610258612fcc565b8310158015611651575060045461164d90610bb8612fcc565b8311155b1561165e57506046611812565b60045461166d90610dac612fcc565b831015801561168a5750600454611686906126ac612fcc565b8311155b156116975750605a611812565b6004546116a690612710612fcc565b83106116b0575060645b611812565b8160ff16600203611755576004546116ce906064612fcc565b8310156116ed5760405162461bcd60e51b815260040161058d90613097565b6004546116fd90620186a0612fcc565b83111561171c5760405162461bcd60e51b815260040161058d90613097565b60045461172a906064612fcc565b8310158015611748575060045461174490620186a0612fcc565b8311155b156116b057506032611812565b8160ff166003036117a95760045461176e906001612fcc565b83101561178d5760405162461bcd60e51b815260040161058d90613097565b60045461179b906001612fcc565b83106116b05750601e611812565b8160ff166004036117c25760045461176e906001612fcc565b8160ff16600503611812576004546117db906001612fcc565b8310156117fa5760405162461bcd60e51b815260040161058d90613097565b600454611808906001612fcc565b8310611812575060235b6001546040516323b872dd60e01b8152336004820152306024820152604481018590526001600160a01b03909116906323b872dd906064016020604051808303815f875af1158015611866573d5f5f3e3d5ffd5b505050506040513d601f19601f8201168201806040525081019061188a9190612ff6565b6118cd5760405162461bcd60e51b81526020600482015260146024820152731554d115081d1c985b9cd9995c8819985a5b195960621b604482015260640161058d565b335f908152600660205260408120600581018054919286926118f0908490612fe3565b909155506119019050846002612fcc565b816008015f8282546119139190612fe3565b9091555050426009820181905560ff84165f818152600d840160209081526040808320815160c0810183528a8152808401868152818401978852606082018a815260808301878152600160a0850181815286548083018855968a529888902094516006909602909401948555915192840192909255965160028301555160038201559451600486015591516005909401805460ff19169415159490941790935580518781529283019190915233917fe419b79865e277810686c2278e574727f1bb7a3464fa554f499199109e5e2e3a910160405180910390a26119f68433612784565b611a008433612822565b50505050565b610cd83382612981565b335f9081526006602052604090206005810154611a3f5760405162461bcd60e51b815260040161058d90612f4b565b5f60015b60058160ff1611611b615760ff81165f908152600d840160205260408120905b8154811015611b4c575f828281548110611a7f57611a7f612f72565b5f9182526020909120600690910201600581015490915060ff16611aa35750611b44565b5f62015180826002015442611ab89190612f9a565b611ac29190612fad565b90505f6127108360030154845f0154611adb9190612fcc565b611ae59190612fad565b90505f611af28383612fcc565b90508360040154811115611b3f575f846004015482611b119190612f9a565b905080856004015f828254611b269190612fe3565b9091555050426002860155611b3b818a612fe3565b9850505b505050505b600101611a63565b50508080611b5990613079565b915050611a43565b50600454611b70906064612fcc565b811015611bca5760405162461bcd60e51b815260206004820152602260248201527f4d696e696d756d20313030205553445420726571756972656420746f20636c61604482015261696d60f01b606482015260840161058d565b5f6064611bd8836060612fcc565b611be29190612fad565b60015460405163a9059cbb60e01b8152336004820152602481018390529192506001600160a01b03169063a9059cbb906044016020604051808303815f875af1158015611c31573d5f5f3e3d5ffd5b505050506040513d601f19601f82011682018060405250810190611c559190612ff6565b611c715760405162461bcd60e51b815260040161058d90613015565b81836007015f828254611c849190612fe3565b909155505042600984015560405182815233907f574c59dfd25e29ed9605f5accedb5aab0b989606855c61bf6fdcd0875ec8d4b59060200160405180910390a2505050565b5f546201000090046001600160a01b03163314611cf85760405162461bcd60e51b815260040161058d9061303e565b6001600160a01b0381165f908152600660205260409020600a81015460ff1615611d5a5760405162461bcd60e51b8152602060048201526013602482015272105b1c9958591e48191a5cdd1c9a589d5d1959606a1b604482015260640161058d565b5f816006015411611dad5760405162461bcd60e51b815260206004820152601760248201527f4e6f20746f6b656e7320746f2064697374726962757465000000000000000000604482015260640161058d565b6002546001600160a01b0316611dfa5760405162461bcd60e51b81526020600482015260126024820152711499585b081d1bdad95b881b9bdd081cd95d60721b604482015260640161058d565b600a8101805460ff19166001179055600254600682015460405163a9059cbb60e01b81526001600160a01b038581166004830152602482019290925291169063a9059cbb906044016020604051808303815f875af1158015611e5e573d5f5f3e3d5ffd5b505050506040513d601f19601f82011682018060405250810190611e829190612ff6565b611ece5760405162461bcd60e51b815260206004820152601a60248201527f5265616c20746f6b656e207472616e73666572206661696c6564000000000000604482015260640161058d565b816001600160a01b03167f13603c1beb46b471cbd10cb5b15a9f58e3929b8ec141b7c33746e26daf3a839f8260060154604051610b3391815260200190565b5f546201000090046001600160a01b03163314611f3c5760405162461bcd60e51b815260040161058d9061303e565b6002546001600160a01b0316611f895760405162461bcd60e51b81526020600482015260126024820152711499585b081d1bdad95b881b9bdd081cd95d60721b604482015260640161058d565b5f5b818110156120e9575f838383818110611fa657611fa6612f72565b9050602002016020810190611fbb9190612cc7565b6001600160a01b0381165f908152600660205260409020600a8101549192509060ff16158015611fee57505f8160060154115b156120df57600a8101805460ff19166001179055600254600682015460405163a9059cbb60e01b81526001600160a01b038581166004830152602482019290925291169063a9059cbb906044016020604051808303815f875af1158015612057573d5f5f3e3d5ffd5b505050506040513d601f19601f8201168201806040525081019061207b9190612ff6565b6120975760405162461bcd60e51b815260040161058d90613015565b816001600160a01b03167f13603c1beb46b471cbd10cb5b15a9f58e3929b8ec141b7c33746e26daf3a839f82600601546040516120d691815260200190565b60405180910390a25b5050600101611f8b565b505050565b5f54610100900460ff168061210557505f5460ff16155b6121685760405162461bcd60e51b815260206004820152602e60248201527f496e697469616c697a61626c653a20636f6e747261637420697320616c72656160448201526d191e481a5b9a5d1a585b1a5e995960921b606482015260840161058d565b5f54610100900460ff16158015612188575f805461ffff19166101011790555b6001600160a01b0382166121d55760405162461bcd60e51b8152602060048201526014602482015273496e76616c69642055534454206164647265737360601b604482015260640161058d565b5f805462010000600160b01b03191633620100008102919091178255600180546001600160a01b0319166001600160a01b03861617815560038181559183526006602052604083208190559161222a836130ce565b9091555050670de0b6b3a764000060045560646005558015612251575f805461ff00191690555b5050565b6001600160a01b0382165f908152600660209081526040808320848452600d8101909252909120546060918291829182918291908067ffffffffffffffff8111156122a2576122a26130e6565b6040519080825280602002602001820160405280156122cb578160200160208202803683370190505b5096508067ffffffffffffffff8111156122e7576122e76130e6565b604051908082528060200260200182016040528015612310578160200160208202803683370190505b5095508067ffffffffffffffff81111561232c5761232c6130e6565b604051908082528060200260200182016040528015612355578160200160208202803683370190505b5094508067ffffffffffffffff811115612371576123716130e6565b60405190808252806020026020018201604052801561239a578160200160208202803683370190505b5093508067ffffffffffffffff8111156123b6576123b66130e6565b6040519080825280602002602001820160405280156123df578160200160208202803683370190505b5092505f5b81811015612577575f898152600d84016020526040812080548390811061240d5761240d612f72565b905f5260205f2090600602019050805f015489838151811061243157612431612f72565b602002602001018181525050806004015488838151811061245457612454612f72565b602002602001018181525050806002015486838151811061247757612477612f72565b602002602001018181525050806003015485838151811061249a5761249a612f72565b6020908102919091010152600581015460ff166124d6575f8783815181106124c4576124c4612f72565b6020026020010181815250505061256f565b5f620151808260020154426124eb9190612f9a565b6124f59190612fad565b90505f6127108360030154845f015461250e9190612fcc565b6125189190612fad565b90505f6125258383612fcc565b90505f84600401548211612539575f612548565b60048501546125489083612f9a565b9050808b878151811061255d5761255d612f72565b60200260200101818152505050505050505b6001016123e4565b5050509295509295909350565b6001600160a01b0381165f908152600660209081526040808320600e01805482518185028101850190935280835260609492939192909184015b8282101561260b578382905f5260205f2090600302016040518060600160405290815f820154815260200160018201548152602001600282015481525050815260200190600101906125be565b505050509050919050565b6001600160a01b0381165f908152600660205260409020546126705760405162461bcd60e51b81526020600482015260136024820152727265666572726572206e6f742065786973747360681b604482015260640161058d565b6001600160a01b038281165f9081526006602052604090206001015416156126d15760405162461bcd60e51b8152602060048201526014602482015273149959995c9c985b08105b1c9958591e4814d95d60621b604482015260640161058d565b6001600160a01b038281165f9081526006602052604080822060010180546001600160a01b0319169385169384179055918152908120600301805491612716836130ce565b90915550506001600160a01b038281165f81815260066020526040808220549385168083529181902054905191937edaf80470d36b7f80ca04a76669714675ad8a767b3228c3a17b57ce22058ac9926127789290918252602082015260400190565b60405180910390a35050565b6001600160a01b038082165f90815260066020526040812060010154909116905b6005548160ff161015611a00576001600160a01b03821615611a00576001600160a01b0382165f908152600660205260408120600c0180548692906127eb908490612fe3565b90915550506001600160a01b039182165f90815260066020526040902060010154909116908061281a81613079565b9150506127a5565b6001600160a01b038082165f908152600660205260409020600190810154909116905b601e8160ff1611611a00576001600160a01b03821615611a00575f61286a8284612aec565b90505f60646128798388612fcc565b6128839190612fad565b9050801561294d5760015460405163a9059cbb60e01b81526001600160a01b038681166004830152602482018490529091169063a9059cbb906044016020604051808303815f875af11580156128db573d5f5f3e3d5ffd5b505050506040513d601f19601f820116820180604052508101906128ff9190612ff6565b506040805160ff85168152602081018390526001600160a01b0380871692908816917f566f5a6632d8591dfbec04ce6cc94a1e57e98e83d507257143f926d8efd01d03910160405180910390a35b50506001600160a01b039182165f90815260066020526040902060010154909116908061297981613079565b915050612845565b6001600160a01b0382165f90815260066020526040902054156129d45760405162461bcd60e51b815260206004820152600b60248201526a757365722065786973747360a81b604482015260640161058d565b6001600160a01b0381165f90815260066020526040902054612a2e5760405162461bcd60e51b81526020600482015260136024820152727265666572726572206e6f742065786973747360681b604482015260640161058d565b600380546001600160a01b038085165f818152600660209081526040808320958655600290950180549488166001600160a01b03199586161790558554825260079052928320805490921617905581549190612a89836130ce565b90915550506001600160a01b038281165f81815260066020526040808220549385168083529181902054905191937f60c0f269b7ea51048f44b9b44dd98960b4bd2867503b86eadc866744dc2c608f926127789290918252602082015260400190565b6001600160a01b0381165f9081526006602052604081206003810154600c9091015460048210612b85578460ff166001148015612b2b57506106408110155b15612b3b5760199250505061142d565b8460ff166002148015612b5057506113888110155b15612b605760149250505061142d565b8460ff166003148015612b7557506127108110155b15612b855760149250505061142d565b8460ff16600103612b9b57600c9250505061142d565b60028560ff1610158015612bb3575060048560ff1611155b15612bc357600a9250505061142d565b60058560ff1610158015612bdb575060068560ff1611155b15612beb5760059250505061142d565b60078560ff1610158015612c035750600c8560ff1611155b15612c135760039250505061142d565b600d8560ff1610158015612c2b575060148560ff1611155b15612c3b5760029250505061142d565b60158560ff1610158015612c53575060198560ff1611155b15612c635760019250505061142d565b601a8560ff1610158015612c7b5750601e8560ff1611155b15612c8b5760049250505061142d565b505f949350505050565b5f60208284031215612ca5575f5ffd5b5035919050565b80356001600160a01b0381168114612cc2575f5ffd5b919050565b5f60208284031215612cd7575f5ffd5b612ce082612cac565b9392505050565b803560ff81168114612cc2575f5ffd5b5f5f60408385031215612d08575f5ffd5b612d1183612ce7565b946020939093013593505050565b5f5f60408385031215612d30575f5ffd5b612d1183612cac565b602080825282518282018190525f918401906040840190835b81811015612dac578351805184526020810151602085015260408101516040850152606081015160608501526080810151608085015260a0810151151560a08501525060c083019250602084019350600181019050612d52565b509095945050505050565b5f5f60408385031215612dc8575f5ffd5b82359150612dd860208401612ce7565b90509250929050565b5f5f60208385031215612df2575f5ffd5b823567ffffffffffffffff811115612e08575f5ffd5b8301601f81018513612e18575f5ffd5b803567ffffffffffffffff811115612e2e575f5ffd5b8560208260051b8401011115612e42575f5ffd5b6020919091019590945092505050565b5f8151808452602084019350602083015f5b82811015612e82578151865260209586019590910190600101612e64565b5093949350505050565b60a081525f612e9e60a0830188612e52565b8281036020840152612eb08188612e52565b90508281036040840152612ec48187612e52565b90508281036060840152612ed88186612e52565b90508281036080840152612eec8185612e52565b98975050505050505050565b602080825282518282018190525f918401906040840190835b81811015612dac57835180518452602081015160208501526040810151604085015250606083019250602084019350600181019050612f11565b6020808252600d908201526c139bc81a5b9d995cdd1b595b9d609a1b604082015260600190565b634e487b7160e01b5f52603260045260245ffd5b634e487b7160e01b5f52601160045260245ffd5b8181038181111561142d5761142d612f86565b5f82612fc757634e487b7160e01b5f52601260045260245ffd5b500490565b808202811582820484141761142d5761142d612f86565b8082018082111561142d5761142d612f86565b5f60208284031215613006575f5ffd5b81518015158114612ce0575f5ffd5b6020808252600f908201526e151c985b9cd9995c8819985a5b1959608a1b604082015260600190565b6020808252600a908201526927b7363c9037bbb732b960b11b604082015260600190565b5f60208284031215613072575f5ffd5b5051919050565b5f60ff821660ff810361308e5761308e612f86565b60010192915050565b60208082526018908201527f496e76616c696420696e766573746d656e742072616e67650000000000000000604082015260600190565b5f600182016130df576130df612f86565b5060010190565b634e487b7160e01b5f52604160045260245ffdfea264697066735822122000160a277fcd69cb4061be41952f76366d371a43d35602d79b59bd5e77af734b64736f6c634300081e0033",
			"opcodes": "PUSH1 0x80 PUSH1 0x40 MSTORE CALLVALUE DUP1 ISZERO PUSH1 0xE JUMPI PUSH0 PUSH0 REVERT JUMPDEST POP PUSH2 0x3130 DUP1 PUSH2 0x1C PUSH0 CODECOPY PUSH0 RETURN INVALID PUSH1 0x80 PUSH1 0x40 MSTORE CALLVALUE DUP1 ISZERO PUSH2 0xF JUMPI PUSH0 PUSH0 REVERT JUMPDEST POP PUSH1 0x4 CALLDATASIZE LT PUSH2 0x1A1 JUMPI PUSH0 CALLDATALOAD PUSH1 0xE0 SHR DUP1 PUSH4 0x76636E5A GT PUSH2 0xF3 JUMPI DUP1 PUSH4 0xA9510E82 GT PUSH2 0x93 JUMPI DUP1 PUSH4 0xBED24C24 GT PUSH2 0x6E JUMPI DUP1 PUSH4 0xBED24C24 EQ PUSH2 0x4D7 JUMPI DUP1 PUSH4 0xC4D66DE8 EQ PUSH2 0x4EA JUMPI DUP1 PUSH4 0xE8DB280C EQ PUSH2 0x4FD JUMPI DUP1 PUSH4 0xFD6EF0DE EQ PUSH2 0x521 JUMPI PUSH0 PUSH0 REVERT JUMPDEST DUP1 PUSH4 0xA9510E82 EQ PUSH2 0x4A9 JUMPI DUP1 PUSH4 0xA98AD46C EQ PUSH2 0x4B1 JUMPI DUP1 PUSH4 0xBBF7F772 EQ PUSH2 0x4C4 JUMPI PUSH0 PUSH0 REVERT JUMPDEST DUP1 PUSH4 0x8DA5CB5B GT PUSH2 0xCE JUMPI DUP1 PUSH4 0x8DA5CB5B EQ PUSH2 0x40E JUMPI DUP1 PUSH4 0x98232A38 EQ PUSH2 0x426 JUMPI DUP1 PUSH4 0x9A29647D EQ PUSH2 0x439 JUMPI DUP1 PUSH4 0xA275999C EQ PUSH2 0x44C JUMPI PUSH0 PUSH0 REVERT JUMPDEST DUP1 PUSH4 0x76636E5A EQ PUSH2 0x2E5 JUMPI DUP1 PUSH4 0x838A1B6D EQ PUSH2 0x2F8 JUMPI DUP1 PUSH4 0x842A77D3 EQ PUSH2 0x318 JUMPI PUSH0 PUSH0 REVERT JUMPDEST DUP1 PUSH4 0x3F0D55FE GT PUSH2 0x15E JUMPI DUP1 PUSH4 0x509222CD GT PUSH2 0x139 JUMPI DUP1 PUSH4 0x509222CD EQ PUSH2 0x28D JUMPI DUP1 PUSH4 0x59450A58 EQ PUSH2 0x2B7 JUMPI DUP1 PUSH4 0x664E9704 EQ PUSH2 0x2CA JUMPI DUP1 PUSH4 0x6D704B94 EQ PUSH2 0x2D2 JUMPI PUSH0 PUSH0 REVERT JUMPDEST DUP1 PUSH4 0x3F0D55FE EQ PUSH2 0x254 JUMPI DUP1 PUSH4 0x416B09DC EQ PUSH2 0x267 JUMPI DUP1 PUSH4 0x44DD5E7A EQ PUSH2 0x27A JUMPI PUSH0 PUSH0 REVERT JUMPDEST DUP1 PUSH4 0x21C82E68 EQ PUSH2 0x1A5 JUMPI DUP1 PUSH4 0x21F8C27D EQ PUSH2 0x1BA JUMPI DUP1 PUSH4 0x2A2D0C47 EQ PUSH2 0x1E2 JUMPI DUP1 PUSH4 0x348D4487 EQ PUSH2 0x222 JUMPI DUP1 PUSH4 0x3610724E EQ PUSH2 0x239 JUMPI DUP1 PUSH4 0x362E496B EQ PUSH2 0x24C JUMPI JUMPDEST PUSH0 PUSH0 REVERT JUMPDEST PUSH2 0x1B8 PUSH2 0x1B3 CALLDATASIZE PUSH1 0x4 PUSH2 0x2C95 JUMP JUMPDEST PUSH2 0x541 JUMP JUMPDEST STOP JUMPDEST PUSH2 0x1CD PUSH2 0x1C8 CALLDATASIZE PUSH1 0x4 PUSH2 0x2CC7 JUMP JUMPDEST PUSH2 0x7A2 JUMP JUMPDEST PUSH1 0x40 MLOAD SWAP1 ISZERO ISZERO DUP2 MSTORE PUSH1 0x20 ADD JUMPDEST PUSH1 0x40 MLOAD DUP1 SWAP2 SUB SWAP1 RETURN JUMPDEST PUSH2 0x20A PUSH2 0x1F0 CALLDATASIZE PUSH1 0x4 PUSH2 0x2C95 JUMP JUMPDEST PUSH1 0x7 PUSH1 0x20 MSTORE PUSH0 SWAP1 DUP2 MSTORE PUSH1 0x40 SWAP1 KECCAK256 SLOAD PUSH1 0x1 PUSH1 0x1 PUSH1 0xA0 SHL SUB AND DUP2 JUMP JUMPDEST PUSH1 0x40 MLOAD PUSH1 0x1 PUSH1 0x1 PUSH1 0xA0 SHL SUB SWAP1 SWAP2 AND DUP2 MSTORE PUSH1 0x20 ADD PUSH2 0x1D9 JUMP JUMPDEST PUSH2 0x22B PUSH1 0x3 SLOAD DUP2 JUMP JUMPDEST PUSH1 0x40 MLOAD SWAP1 DUP2 MSTORE PUSH1 0x20 ADD PUSH2 0x1D9 JUMP JUMPDEST PUSH2 0x1B8 PUSH2 0x247 CALLDATASIZE PUSH1 0x4 PUSH2 0x2C95 JUMP JUMPDEST PUSH2 0x7F8 JUMP JUMPDEST PUSH2 0x1B8 PUSH2 0xB3F JUMP JUMPDEST PUSH2 0x1B8 PUSH2 0x262 CALLDATASIZE PUSH1 0x4 PUSH2 0x2CF7 JUMP JUMPDEST PUSH2 0xCDB JUMP JUMPDEST PUSH2 0x1B8 PUSH2 0x275 CALLDATASIZE PUSH1 0x4 PUSH2 0x2CC7 JUMP JUMPDEST PUSH2 0xFD6 JUMP JUMPDEST PUSH2 0x1B8 PUSH2 0x288 CALLDATASIZE PUSH1 0x4 PUSH2 0x2C95 JUMP JUMPDEST PUSH2 0x10B6 JUMP JUMPDEST PUSH2 0x1CD PUSH2 0x29B CALLDATASIZE PUSH1 0x4 PUSH2 0x2CC7 JUMP JUMPDEST PUSH1 0x1 PUSH1 0x1 PUSH1 0xA0 SHL SUB AND PUSH0 SWAP1 DUP2 MSTORE PUSH1 0x6 PUSH1 0x20 MSTORE PUSH1 0x40 SWAP1 KECCAK256 SLOAD ISZERO ISZERO SWAP1 JUMP JUMPDEST PUSH2 0x22B PUSH2 0x2C5 CALLDATASIZE PUSH1 0x4 PUSH2 0x2CC7 JUMP JUMPDEST PUSH2 0x121F JUMP JUMPDEST PUSH2 0x22B PUSH1 0x2 DUP2 JUMP JUMPDEST PUSH2 0x1B8 PUSH2 0x2E0 CALLDATASIZE PUSH1 0x4 PUSH2 0x2CC7 JUMP JUMPDEST PUSH2 0x136E JUMP JUMPDEST PUSH1 0x2 SLOAD PUSH2 0x20A SWAP1 PUSH1 0x1 PUSH1 0x1 PUSH1 0xA0 SHL SUB AND DUP2 JUMP JUMPDEST PUSH2 0x30B PUSH2 0x306 CALLDATASIZE PUSH1 0x4 PUSH2 0x2D1F JUMP JUMPDEST PUSH2 0x1378 JUMP JUMPDEST PUSH1 0x40 MLOAD PUSH2 0x1D9 SWAP2 SWAP1 PUSH2 0x2D39 JUMP JUMPDEST PUSH2 0x39E PUSH2 0x326 CALLDATASIZE PUSH1 0x4 PUSH2 0x2CC7 JUMP JUMPDEST PUSH1 0x6 PUSH1 0x20 DUP2 SWAP1 MSTORE PUSH0 SWAP2 DUP3 MSTORE PUSH1 0x40 SWAP1 SWAP2 KECCAK256 DUP1 SLOAD PUSH1 0x1 DUP3 ADD SLOAD PUSH1 0x2 DUP4 ADD SLOAD PUSH1 0x3 DUP5 ADD SLOAD PUSH1 0x4 DUP6 ADD SLOAD PUSH1 0x5 DUP7 ADD SLOAD SWAP7 DUP7 ADD SLOAD PUSH1 0x7 DUP8 ADD SLOAD PUSH1 0x8 DUP9 ADD SLOAD PUSH1 0x9 DUP10 ADD SLOAD PUSH1 0xA DUP11 ADD SLOAD PUSH1 0xB DUP12 ADD SLOAD PUSH1 0xC SWAP1 SWAP12 ADD SLOAD SWAP10 SWAP12 PUSH1 0x1 PUSH1 0x1 PUSH1 0xA0 SHL SUB SWAP10 DUP11 AND SWAP12 SWAP10 SWAP1 SWAP9 AND SWAP10 SWAP7 SWAP9 SWAP6 SWAP8 SWAP7 SWAP5 SWAP6 SWAP4 SWAP5 SWAP3 SWAP4 SWAP2 SWAP3 PUSH1 0xFF SWAP1 SWAP2 AND SWAP2 SWAP1 DUP14 JUMP JUMPDEST PUSH1 0x40 DUP1 MLOAD SWAP14 DUP15 MSTORE PUSH1 0x1 PUSH1 0x1 PUSH1 0xA0 SHL SUB SWAP13 DUP14 AND PUSH1 0x20 DUP16 ADD MSTORE SWAP11 SWAP1 SWAP12 AND SWAP10 DUP13 ADD SWAP10 SWAP1 SWAP10 MSTORE PUSH1 0x60 DUP12 ADD SWAP8 SWAP1 SWAP8 MSTORE PUSH1 0x80 DUP11 ADD SWAP6 SWAP1 SWAP6 MSTORE PUSH1 0xA0 DUP10 ADD SWAP4 SWAP1 SWAP4 MSTORE PUSH1 0xC0 DUP9 ADD SWAP2 SWAP1 SWAP2 MSTORE PUSH1 0xE0 DUP8 ADD MSTORE PUSH2 0x100 DUP7 ADD MSTORE PUSH2 0x120 DUP6 ADD MSTORE ISZERO ISZERO PUSH2 0x140 DUP5 ADD MSTORE PUSH2 0x160 DUP4 ADD MSTORE PUSH2 0x180 DUP3 ADD MSTORE PUSH2 0x1A0 ADD PUSH2 0x1D9 JUMP JUMPDEST PUSH0 SLOAD PUSH2 0x20A SWAP1 PUSH3 0x10000 SWAP1 DIV PUSH1 0x1 PUSH1 0x1 PUSH1 0xA0 SHL SUB AND DUP2 JUMP JUMPDEST PUSH2 0x1B8 PUSH2 0x434 CALLDATASIZE PUSH1 0x4 PUSH2 0x2DB7 JUMP JUMPDEST PUSH2 0x1433 JUMP JUMPDEST PUSH2 0x1B8 PUSH2 0x447 CALLDATASIZE PUSH1 0x4 PUSH2 0x2CC7 JUMP JUMPDEST PUSH2 0x1A06 JUMP JUMPDEST PUSH2 0x48C PUSH2 0x45A CALLDATASIZE PUSH1 0x4 PUSH2 0x2CC7 JUMP JUMPDEST PUSH1 0x1 PUSH1 0x1 PUSH1 0xA0 SHL SUB AND PUSH0 SWAP1 DUP2 MSTORE PUSH1 0x6 PUSH1 0x20 DUP2 SWAP1 MSTORE PUSH1 0x40 SWAP1 SWAP2 KECCAK256 PUSH1 0x5 DUP2 ADD SLOAD SWAP2 DUP2 ADD SLOAD PUSH1 0xA SWAP1 SWAP2 ADD SLOAD SWAP2 SWAP3 SWAP1 SWAP2 PUSH1 0xFF AND SWAP1 JUMP JUMPDEST PUSH1 0x40 DUP1 MLOAD SWAP4 DUP5 MSTORE PUSH1 0x20 DUP5 ADD SWAP3 SWAP1 SWAP3 MSTORE ISZERO ISZERO SWAP1 DUP3 ADD MSTORE PUSH1 0x60 ADD PUSH2 0x1D9 JUMP JUMPDEST PUSH2 0x1B8 PUSH2 0x1A10 JUMP JUMPDEST PUSH1 0x1 SLOAD PUSH2 0x20A SWAP1 PUSH1 0x1 PUSH1 0x1 PUSH1 0xA0 SHL SUB AND DUP2 JUMP JUMPDEST PUSH2 0x1B8 PUSH2 0x4D2 CALLDATASIZE PUSH1 0x4 PUSH2 0x2CC7 JUMP JUMPDEST PUSH2 0x1CC9 JUMP JUMPDEST PUSH2 0x1B8 PUSH2 0x4E5 CALLDATASIZE PUSH1 0x4 PUSH2 0x2DE1 JUMP JUMPDEST PUSH2 0x1F0D JUMP JUMPDEST PUSH2 0x1B8 PUSH2 0x4F8 CALLDATASIZE PUSH1 0x4 PUSH2 0x2CC7 JUMP JUMPDEST PUSH2 0x20EE JUMP JUMPDEST PUSH2 0x510 PUSH2 0x50B CALLDATASIZE PUSH1 0x4 PUSH2 0x2D1F JUMP JUMPDEST PUSH2 0x2255 JUMP JUMPDEST PUSH1 0x40 MLOAD PUSH2 0x1D9 SWAP6 SWAP5 SWAP4 SWAP3 SWAP2 SWAP1 PUSH2 0x2E8C JUMP JUMPDEST PUSH2 0x534 PUSH2 0x52F CALLDATASIZE PUSH1 0x4 PUSH2 0x2CC7 JUMP JUMPDEST PUSH2 0x2584 JUMP JUMPDEST PUSH1 0x40 MLOAD PUSH2 0x1D9 SWAP2 SWAP1 PUSH2 0x2EF8 JUMP JUMPDEST DUP1 PUSH1 0x4 EQ DUP1 PUSH2 0x550 JUMPI POP DUP1 PUSH1 0x5 EQ JUMPDEST PUSH2 0x596 JUMPI PUSH1 0x40 MLOAD PUSH3 0x461BCD PUSH1 0xE5 SHL DUP2 MSTORE PUSH1 0x20 PUSH1 0x4 DUP3 ADD MSTORE PUSH1 0x12 PUSH1 0x24 DUP3 ADD MSTORE PUSH18 0x24B73B30B634B21021B630B4B690283630B7 PUSH1 0x71 SHL PUSH1 0x44 DUP3 ADD MSTORE PUSH1 0x64 ADD JUMPDEST PUSH1 0x40 MLOAD DUP1 SWAP2 SUB SWAP1 REVERT JUMPDEST CALLER PUSH0 SWAP1 DUP2 MSTORE PUSH1 0x6 PUSH1 0x20 MSTORE PUSH1 0x40 SWAP1 KECCAK256 PUSH1 0x5 DUP2 ADD SLOAD PUSH2 0x5C5 JUMPI PUSH1 0x40 MLOAD PUSH3 0x461BCD PUSH1 0xE5 SHL DUP2 MSTORE PUSH1 0x4 ADD PUSH2 0x58D SWAP1 PUSH2 0x2F4B JUMP JUMPDEST PUSH0 DUP3 DUP2 MSTORE PUSH1 0xD DUP3 ADD PUSH1 0x20 MSTORE PUSH1 0x40 DUP2 KECCAK256 DUP2 JUMPDEST DUP2 SLOAD DUP2 LT ISZERO PUSH2 0x6BA JUMPI PUSH0 DUP3 DUP3 DUP2 SLOAD DUP2 LT PUSH2 0x5F2 JUMPI PUSH2 0x5F2 PUSH2 0x2F72 JUMP JUMPDEST PUSH0 SWAP2 DUP3 MSTORE PUSH1 0x20 SWAP1 SWAP2 KECCAK256 PUSH1 0x6 SWAP1 SWAP2 MUL ADD PUSH1 0x5 DUP2 ADD SLOAD SWAP1 SWAP2 POP PUSH1 0xFF AND PUSH2 0x616 JUMPI POP PUSH2 0x6B2 JUMP JUMPDEST PUSH0 PUSH3 0x15180 DUP3 PUSH1 0x2 ADD SLOAD TIMESTAMP PUSH2 0x62B SWAP2 SWAP1 PUSH2 0x2F9A JUMP JUMPDEST PUSH2 0x635 SWAP2 SWAP1 PUSH2 0x2FAD JUMP JUMPDEST SWAP1 POP PUSH0 PUSH2 0x2710 DUP4 PUSH1 0x3 ADD SLOAD DUP5 PUSH0 ADD SLOAD PUSH2 0x64E SWAP2 SWAP1 PUSH2 0x2FCC JUMP JUMPDEST PUSH2 0x658 SWAP2 SWAP1 PUSH2 0x2FAD JUMP JUMPDEST SWAP1 POP PUSH0 PUSH2 0x665 DUP4 DUP4 PUSH2 0x2FCC JUMP JUMPDEST SWAP1 POP DUP4 PUSH1 0x4 ADD SLOAD DUP2 GT ISZERO PUSH2 0x6AD JUMPI PUSH0 DUP5 PUSH1 0x4 ADD SLOAD DUP3 PUSH2 0x684 SWAP2 SWAP1 PUSH2 0x2F9A JUMP JUMPDEST SWAP1 POP DUP1 DUP6 PUSH1 0x4 ADD PUSH0 DUP3 DUP3 SLOAD PUSH2 0x699 SWAP2 SWAP1 PUSH2 0x2FE3 JUMP JUMPDEST SWAP1 SWAP2 SSTORE POP PUSH2 0x6A9 SWAP1 POP DUP2 DUP10 PUSH2 0x2FE3 JUMP JUMPDEST SWAP8 POP POP JUMPDEST POP POP POP POP JUMPDEST PUSH1 0x1 ADD PUSH2 0x5D6 JUMP JUMPDEST POP PUSH1 0x1 SLOAD PUSH1 0x40 MLOAD PUSH4 0xA9059CBB PUSH1 0xE0 SHL DUP2 MSTORE CALLER PUSH1 0x4 DUP3 ADD MSTORE PUSH1 0x24 DUP2 ADD DUP5 SWAP1 MSTORE PUSH1 0x1 PUSH1 0x1 PUSH1 0xA0 SHL SUB SWAP1 SWAP2 AND SWAP1 PUSH4 0xA9059CBB SWAP1 PUSH1 0x44 ADD PUSH1 0x20 PUSH1 0x40 MLOAD DUP1 DUP4 SUB DUP2 PUSH0 DUP8 GAS CALL ISZERO DUP1 ISZERO PUSH2 0x709 JUMPI RETURNDATASIZE PUSH0 PUSH0 RETURNDATACOPY RETURNDATASIZE PUSH0 REVERT JUMPDEST POP POP POP POP PUSH1 0x40 MLOAD RETURNDATASIZE PUSH1 0x1F NOT PUSH1 0x1F DUP3 ADD AND DUP3 ADD DUP1 PUSH1 0x40 MSTORE POP DUP2 ADD SWAP1 PUSH2 0x72D SWAP2 SWAP1 PUSH2 0x2FF6 JUMP JUMPDEST PUSH2 0x749 JUMPI PUSH1 0x40 MLOAD PUSH3 0x461BCD PUSH1 0xE5 SHL DUP2 MSTORE PUSH1 0x4 ADD PUSH2 0x58D SWAP1 PUSH2 0x3015 JUMP JUMPDEST DUP2 DUP4 PUSH1 0x7 ADD PUSH0 DUP3 DUP3 SLOAD PUSH2 0x75C SWAP2 SWAP1 PUSH2 0x2FE3 JUMP JUMPDEST SWAP1 SWAP2 SSTORE POP POP TIMESTAMP PUSH1 0x9 DUP5 ADD SSTORE PUSH1 0x40 MLOAD DUP3 DUP2 MSTORE CALLER SWAP1 PUSH32 0x574C59DFD25E29ED9605F5ACCEDB5AAB0B989606855C61BF6FDCD0875EC8D4B5 SWAP1 PUSH1 0x20 ADD PUSH1 0x40 MLOAD DUP1 SWAP2 SUB SWAP1 LOG2 POP POP POP POP JUMP JUMPDEST PUSH1 0x1 PUSH1 0x1 PUSH1 0xA0 SHL SUB DUP2 DUP2 AND PUSH0 SWAP1 DUP2 MSTORE PUSH1 0x6 PUSH1 0x20 MSTORE PUSH1 0x40 DUP2 KECCAK256 PUSH1 0x1 ADD SLOAD SWAP1 SWAP2 AND ISZERO PUSH2 0x7CE JUMPI POP PUSH1 0x1 SWAP2 SWAP1 POP JUMP JUMPDEST PUSH0 SLOAD PUSH1 0x1 PUSH1 0x1 PUSH1 0xA0 SHL SUB PUSH3 0x10000 SWAP1 SWAP2 DIV DUP2 AND SWAP1 DUP4 AND SUB PUSH2 0x7F1 JUMPI POP PUSH1 0x1 SWAP2 SWAP1 POP JUMP JUMPDEST POP PUSH0 SWAP2 SWAP1 POP JUMP JUMPDEST CALLER PUSH0 SWAP1 DUP2 MSTORE PUSH1 0x6 PUSH1 0x20 MSTORE PUSH1 0x40 SWAP1 KECCAK256 SLOAD PUSH2 0x849 JUMPI PUSH1 0x40 MLOAD PUSH3 0x461BCD PUSH1 0xE5 SHL DUP2 MSTORE PUSH1 0x20 PUSH1 0x4 DUP3 ADD MSTORE PUSH1 0x13 PUSH1 0x24 DUP3 ADD MSTORE PUSH19 0x155CD95C881B9BDD081C9959DA5CDD195C9959 PUSH1 0x6A SHL PUSH1 0x44 DUP3 ADD MSTORE PUSH1 0x64 ADD PUSH2 0x58D JUMP JUMPDEST PUSH0 DUP2 GT PUSH2 0x88D JUMPI PUSH1 0x40 MLOAD PUSH3 0x461BCD PUSH1 0xE5 SHL DUP2 MSTORE PUSH1 0x20 PUSH1 0x4 DUP3 ADD MSTORE PUSH1 0x12 PUSH1 0x24 DUP3 ADD MSTORE PUSH18 0x416D6F756E74206D757374206265203E203 PUSH1 0x74 SHL PUSH1 0x44 DUP3 ADD MSTORE PUSH1 0x64 ADD PUSH2 0x58D JUMP JUMPDEST PUSH1 0x1 SLOAD PUSH1 0x40 MLOAD PUSH4 0x23B872DD PUSH1 0xE0 SHL DUP2 MSTORE CALLER PUSH1 0x4 DUP3 ADD MSTORE ADDRESS PUSH1 0x24 DUP3 ADD MSTORE PUSH1 0x44 DUP2 ADD DUP4 SWAP1 MSTORE PUSH1 0x1 PUSH1 0x1 PUSH1 0xA0 SHL SUB SWAP1 SWAP2 AND SWAP1 PUSH4 0x23B872DD SWAP1 PUSH1 0x64 ADD PUSH1 0x20 PUSH1 0x40 MLOAD DUP1 DUP4 SUB DUP2 PUSH0 DUP8 GAS CALL ISZERO DUP1 ISZERO PUSH2 0x8E1 JUMPI RETURNDATASIZE PUSH0 PUSH0 RETURNDATACOPY RETURNDATASIZE PUSH0 REVERT JUMPDEST POP POP POP POP PUSH1 0x40 MLOAD RETURNDATASIZE PUSH1 0x1F NOT PUSH1 0x1F DUP3 ADD AND DUP3 ADD DUP1 PUSH1 0x40 MSTORE POP DUP2 ADD SWAP1 PUSH2 0x905 SWAP2 SWAP1 PUSH2 0x2FF6 JUMP JUMPDEST PUSH2 0x948 JUMPI PUSH1 0x40 MLOAD PUSH3 0x461BCD PUSH1 0xE5 SHL DUP2 MSTORE PUSH1 0x20 PUSH1 0x4 DUP3 ADD MSTORE PUSH1 0x14 PUSH1 0x24 DUP3 ADD MSTORE PUSH20 0x1554D115081D1C985B9CD9995C8819985A5B1959 PUSH1 0x62 SHL PUSH1 0x44 DUP3 ADD MSTORE PUSH1 0x64 ADD PUSH2 0x58D JUMP JUMPDEST PUSH0 PUSH2 0x954 PUSH1 0x2 DUP4 PUSH2 0x2FCC JUMP JUMPDEST CALLER PUSH0 SWAP1 DUP2 MSTORE PUSH1 0x6 PUSH1 0x20 MSTORE PUSH1 0x40 DUP2 KECCAK256 PUSH1 0x4 ADD DUP1 SLOAD SWAP3 SWAP4 POP DUP5 SWAP3 SWAP1 SWAP2 SWAP1 PUSH2 0x97A SWAP1 DUP5 SWAP1 PUSH2 0x2FE3 JUMP JUMPDEST SWAP1 SWAP2 SSTORE POP POP CALLER PUSH0 SWAP1 DUP2 MSTORE PUSH1 0x6 PUSH1 0x20 DUP2 SWAP1 MSTORE PUSH1 0x40 DUP3 KECCAK256 ADD DUP1 SLOAD DUP4 SWAP3 SWAP1 PUSH2 0x9A0 SWAP1 DUP5 SWAP1 PUSH2 0x2FE3 JUMP JUMPDEST SWAP1 SWAP2 SSTORE POP PUSH1 0x64 SWAP1 POP PUSH2 0x9B3 DUP3 PUSH1 0x5 PUSH2 0x2FCC JUMP JUMPDEST PUSH2 0x9BD SWAP2 SWAP1 PUSH2 0x2FAD JUMP JUMPDEST CALLER PUSH0 SWAP1 DUP2 MSTORE PUSH1 0x6 PUSH1 0x20 DUP2 SWAP1 MSTORE PUSH1 0x40 DUP1 DUP4 KECCAK256 PUSH1 0x2 ADD SLOAD PUSH1 0x1 PUSH1 0x1 PUSH1 0xA0 SHL SUB AND DUP4 MSTORE DUP3 KECCAK256 ADD DUP1 SLOAD SWAP1 SWAP2 SWAP1 PUSH2 0x9F0 SWAP1 DUP5 SWAP1 PUSH2 0x2FE3 JUMP JUMPDEST SWAP1 SWAP2 SSTORE POP PUSH1 0x64 SWAP1 POP PUSH2 0xA03 DUP3 PUSH1 0x5 PUSH2 0x2FCC JUMP JUMPDEST PUSH2 0xA0D SWAP2 SWAP1 PUSH2 0x2FAD JUMP JUMPDEST CALLER PUSH0 SWAP1 DUP2 MSTORE PUSH1 0x6 PUSH1 0x20 MSTORE PUSH1 0x40 DUP1 DUP3 KECCAK256 PUSH1 0x2 ADD SLOAD PUSH1 0x1 PUSH1 0x1 PUSH1 0xA0 SHL SUB AND DUP3 MSTORE DUP2 KECCAK256 PUSH1 0xB ADD DUP1 SLOAD SWAP1 SWAP2 SWAP1 PUSH2 0xA40 SWAP1 DUP5 SWAP1 PUSH2 0x2FE3 JUMP JUMPDEST SWAP1 SWAP2 SSTORE POP POP CALLER PUSH0 DUP2 DUP2 MSTORE PUSH1 0x6 PUSH1 0x20 MSTORE PUSH1 0x40 SWAP1 KECCAK256 PUSH1 0x2 ADD SLOAD PUSH1 0x1 PUSH1 0x1 PUSH1 0xA0 SHL SUB AND SWAP1 PUSH32 0xB63AD4314F7F378E8544A3D2CF22E089F2059EBC701F71EA8F0F60869C4C4ED PUSH1 0x64 PUSH2 0xA8F DUP6 PUSH1 0x5 PUSH2 0x2FCC JUMP JUMPDEST PUSH2 0xA99 SWAP2 SWAP1 PUSH2 0x2FAD JUMP JUMPDEST PUSH1 0x40 MLOAD SWAP1 DUP2 MSTORE PUSH1 0x20 ADD PUSH1 0x40 MLOAD DUP1 SWAP2 SUB SWAP1 LOG3 CALLER PUSH0 DUP2 DUP2 MSTORE PUSH1 0x6 PUSH1 0x20 SWAP1 DUP2 MSTORE PUSH1 0x40 DUP1 DUP4 KECCAK256 DUP2 MLOAD PUSH1 0x60 DUP2 ADD DUP4 MSTORE DUP8 DUP2 MSTORE DUP1 DUP5 ADD DUP8 DUP2 MSTORE TIMESTAMP DUP3 DUP6 ADD SWAP1 DUP2 MSTORE PUSH1 0xE SWAP1 SWAP4 ADD DUP1 SLOAD PUSH1 0x1 DUP1 DUP3 ADD DUP4 SSTORE SWAP2 DUP9 MSTORE SWAP7 DUP7 SWAP1 KECCAK256 SWAP3 MLOAD PUSH1 0x3 SWAP1 SWAP8 MUL SWAP1 SWAP3 ADD SWAP6 DUP7 SSTORE MLOAD SWAP1 DUP6 ADD SSTORE MLOAD PUSH1 0x2 SWAP1 SWAP4 ADD SWAP3 SWAP1 SWAP3 SSTORE DUP2 MLOAD DUP6 DUP2 MSTORE SWAP1 DUP2 ADD DUP5 SWAP1 MSTORE PUSH32 0x8FAFEBCAF9D154343DAD25669BFA277F4FBACD7AC6B0C4FED522580E040A0F33 SWAP2 ADD JUMPDEST PUSH1 0x40 MLOAD DUP1 SWAP2 SUB SWAP1 LOG2 POP POP JUMP JUMPDEST PUSH0 SLOAD PUSH3 0x10000 SWAP1 DIV PUSH1 0x1 PUSH1 0x1 PUSH1 0xA0 SHL SUB AND CALLER EQ PUSH2 0xB6E JUMPI PUSH1 0x40 MLOAD PUSH3 0x461BCD PUSH1 0xE5 SHL DUP2 MSTORE PUSH1 0x4 ADD PUSH2 0x58D SWAP1 PUSH2 0x303E JUMP JUMPDEST PUSH1 0x1 SLOAD PUSH1 0x40 MLOAD PUSH4 0x70A08231 PUSH1 0xE0 SHL DUP2 MSTORE ADDRESS PUSH1 0x4 DUP3 ADD MSTORE PUSH0 SWAP2 PUSH1 0x1 PUSH1 0x1 PUSH1 0xA0 SHL SUB AND SWAP1 PUSH4 0x70A08231 SWAP1 PUSH1 0x24 ADD PUSH1 0x20 PUSH1 0x40 MLOAD DUP1 DUP4 SUB DUP2 DUP7 GAS STATICCALL ISZERO DUP1 ISZERO PUSH2 0xBB4 JUMPI RETURNDATASIZE PUSH0 PUSH0 RETURNDATACOPY RETURNDATASIZE PUSH0 REVERT JUMPDEST POP POP POP POP PUSH1 0x40 MLOAD RETURNDATASIZE PUSH1 0x1F NOT PUSH1 0x1F DUP3 ADD AND DUP3 ADD DUP1 PUSH1 0x40 MSTORE POP DUP2 ADD SWAP1 PUSH2 0xBD8 SWAP2 SWAP1 PUSH2 0x3062 JUMP JUMPDEST SWAP1 POP PUSH0 DUP2 GT PUSH2 0xC1F JUMPI PUSH1 0x40 MLOAD PUSH3 0x461BCD PUSH1 0xE5 SHL DUP2 MSTORE PUSH1 0x20 PUSH1 0x4 DUP3 ADD MSTORE PUSH1 0x13 PUSH1 0x24 DUP3 ADD MSTORE PUSH19 0x4E6F7468696E6720746F207769746864726177 PUSH1 0x68 SHL PUSH1 0x44 DUP3 ADD MSTORE PUSH1 0x64 ADD PUSH2 0x58D JUMP JUMPDEST PUSH1 0x1 SLOAD PUSH0 SLOAD PUSH1 0x40 MLOAD PUSH4 0xA9059CBB PUSH1 0xE0 SHL DUP2 MSTORE PUSH1 0x1 PUSH1 0x1 PUSH1 0xA0 SHL SUB PUSH3 0x10000 SWAP1 SWAP3 DIV DUP3 AND PUSH1 0x4 DUP3 ADD MSTORE PUSH1 0x24 DUP2 ADD DUP5 SWAP1 MSTORE SWAP2 AND SWAP1 PUSH4 0xA9059CBB SWAP1 PUSH1 0x44 ADD PUSH1 0x20 PUSH1 0x40 MLOAD DUP1 DUP4 SUB DUP2 PUSH0 DUP8 GAS CALL ISZERO DUP1 ISZERO PUSH2 0xC76 JUMPI RETURNDATASIZE PUSH0 PUSH0 RETURNDATACOPY RETURNDATASIZE PUSH0 REVERT JUMPDEST POP POP POP POP PUSH1 0x40 MLOAD RETURNDATASIZE PUSH1 0x1F NOT PUSH1 0x1F DUP3 ADD AND DUP3 ADD DUP1 PUSH1 0x40 MSTORE POP DUP2 ADD SWAP1 PUSH2 0xC9A SWAP2 SWAP1 PUSH2 0x2FF6 JUMP JUMPDEST PUSH2 0xCD8 JUMPI PUSH1 0x40 MLOAD PUSH3 0x461BCD PUSH1 0xE5 SHL DUP2 MSTORE PUSH1 0x20 PUSH1 0x4 DUP3 ADD MSTORE PUSH1 0xF PUSH1 0x24 DUP3 ADD MSTORE PUSH15 0x15DA5D1A191C985DC819985A5B1959 PUSH1 0x8A SHL PUSH1 0x44 DUP3 ADD MSTORE PUSH1 0x64 ADD PUSH2 0x58D JUMP JUMPDEST POP JUMP JUMPDEST DUP2 PUSH1 0xFF AND PUSH1 0x3 EQ DUP1 PUSH2 0xCF0 JUMPI POP DUP2 PUSH1 0xFF AND PUSH1 0x4 EQ JUMPDEST DUP1 PUSH2 0xCFE JUMPI POP DUP2 PUSH1 0xFF AND PUSH1 0x5 EQ JUMPDEST PUSH2 0xD55 JUMPI PUSH1 0x40 MLOAD PUSH3 0x461BCD PUSH1 0xE5 SHL DUP2 MSTORE PUSH1 0x20 PUSH1 0x4 DUP3 ADD MSTORE PUSH1 0x22 PUSH1 0x24 DUP3 ADD MSTORE PUSH32 0x596F752063616E6E6F74207769746864726177206361706974616C20616D6F75 PUSH1 0x44 DUP3 ADD MSTORE PUSH2 0x1B9D PUSH1 0xF2 SHL PUSH1 0x64 DUP3 ADD MSTORE PUSH1 0x84 ADD PUSH2 0x58D JUMP JUMPDEST CALLER PUSH0 SWAP1 DUP2 MSTORE PUSH1 0x6 PUSH1 0x20 SWAP1 DUP2 MSTORE PUSH1 0x40 DUP1 DUP4 KECCAK256 PUSH1 0xFF DUP7 AND DUP5 MSTORE PUSH1 0xD DUP2 ADD SWAP1 SWAP3 MSTORE DUP3 KECCAK256 DUP1 SLOAD SWAP2 SWAP3 SWAP2 DUP5 SWAP1 DUP2 LT PUSH2 0xD8A JUMPI PUSH2 0xD8A PUSH2 0x2F72 JUMP JUMPDEST SWAP1 PUSH0 MSTORE PUSH1 0x20 PUSH0 KECCAK256 SWAP1 PUSH1 0x6 MUL ADD SWAP1 POP DUP4 PUSH1 0xFF AND PUSH1 0x4 SUB PUSH2 0xE05 JUMPI PUSH1 0x2 DUP2 ADD SLOAD PUSH2 0xDB6 SWAP1 PUSH4 0x1E13380 PUSH2 0x2FE3 JUMP JUMPDEST TIMESTAMP LT ISZERO PUSH2 0xE05 JUMPI PUSH1 0x40 MLOAD PUSH3 0x461BCD PUSH1 0xE5 SHL DUP2 MSTORE PUSH1 0x20 PUSH1 0x4 DUP3 ADD DUP2 SWAP1 MSTORE PUSH1 0x24 DUP3 ADD MSTORE PUSH32 0x506C616E20343A204C6F636B20706572696F64206973203132206D6F6E746873 PUSH1 0x44 DUP3 ADD MSTORE PUSH1 0x64 ADD PUSH2 0x58D JUMP JUMPDEST DUP4 PUSH1 0xFF AND PUSH1 0x5 SUB PUSH2 0xE72 JUMPI PUSH1 0x2 DUP2 ADD SLOAD PUSH2 0xE23 SWAP1 PUSH4 0x3C26700 PUSH2 0x2FE3 JUMP JUMPDEST TIMESTAMP LT ISZERO PUSH2 0xE72 JUMPI PUSH1 0x40 MLOAD PUSH3 0x461BCD PUSH1 0xE5 SHL DUP2 MSTORE PUSH1 0x20 PUSH1 0x4 DUP3 ADD DUP2 SWAP1 MSTORE PUSH1 0x24 DUP3 ADD MSTORE PUSH32 0x506C616E20353A204C6F636B20706572696F64206973203234206D6F6E746873 PUSH1 0x44 DUP3 ADD MSTORE PUSH1 0x64 ADD PUSH2 0x58D JUMP JUMPDEST PUSH1 0x5 DUP2 ADD DUP1 SLOAD PUSH1 0xFF NOT AND SWAP1 SSTORE PUSH1 0x2 DUP2 ADD SLOAD PUSH0 SWAP1 PUSH3 0x15180 SWAP1 PUSH2 0xE94 SWAP1 TIMESTAMP PUSH2 0x2F9A JUMP JUMPDEST PUSH2 0xE9E SWAP2 SWAP1 PUSH2 0x2FAD JUMP JUMPDEST PUSH1 0x3 DUP4 ADD SLOAD DUP4 SLOAD SWAP2 SWAP3 POP PUSH0 SWAP2 DUP3 SWAP2 PUSH2 0x2710 SWAP2 PUSH2 0xEBA SWAP2 SWAP1 PUSH2 0x2FCC JUMP JUMPDEST PUSH2 0xEC4 SWAP2 SWAP1 PUSH2 0x2FAD JUMP JUMPDEST SWAP1 POP PUSH0 PUSH2 0xED1 DUP5 DUP4 PUSH2 0x2FCC JUMP JUMPDEST SWAP1 POP PUSH0 DUP6 PUSH1 0x4 ADD SLOAD DUP3 GT PUSH2 0xEE5 JUMPI PUSH0 PUSH2 0xEF4 JUMP JUMPDEST PUSH1 0x4 DUP7 ADD SLOAD PUSH2 0xEF4 SWAP1 DUP4 PUSH2 0x2F9A JUMP JUMPDEST SWAP1 POP DUP1 ISZERO PUSH2 0xF3B JUMPI PUSH2 0xF06 DUP2 DUP6 PUSH2 0x2FE3 JUMP JUMPDEST SWAP4 POP DUP1 DUP7 PUSH1 0x4 ADD PUSH0 DUP3 DUP3 SLOAD PUSH2 0xF1B SWAP2 SWAP1 PUSH2 0x2FE3 JUMP JUMPDEST SWAP3 POP POP DUP2 SWAP1 SSTORE POP DUP1 DUP8 PUSH1 0x7 ADD PUSH0 DUP3 DUP3 SLOAD PUSH2 0xF35 SWAP2 SWAP1 PUSH2 0x2FE3 JUMP JUMPDEST SWAP1 SWAP2 SSTORE POP POP JUMPDEST PUSH1 0x1 SLOAD DUP7 SLOAD PUSH1 0x1 PUSH1 0x1 PUSH1 0xA0 SHL SUB SWAP1 SWAP2 AND SWAP1 PUSH4 0xA9059CBB SWAP1 CALLER SWAP1 PUSH2 0xF5E SWAP1 DUP9 PUSH2 0x2FE3 JUMP JUMPDEST PUSH1 0x40 MLOAD PUSH1 0x1 PUSH1 0x1 PUSH1 0xE0 SHL SUB NOT PUSH1 0xE0 DUP6 SWAP1 SHL AND DUP2 MSTORE PUSH1 0x1 PUSH1 0x1 PUSH1 0xA0 SHL SUB SWAP1 SWAP3 AND PUSH1 0x4 DUP4 ADD MSTORE PUSH1 0x24 DUP3 ADD MSTORE PUSH1 0x44 ADD PUSH1 0x20 PUSH1 0x40 MLOAD DUP1 DUP4 SUB DUP2 PUSH0 DUP8 GAS CALL ISZERO DUP1 ISZERO PUSH2 0xFA6 JUMPI RETURNDATASIZE PUSH0 PUSH0 RETURNDATACOPY RETURNDATASIZE PUSH0 REVERT JUMPDEST POP POP POP POP PUSH1 0x40 MLOAD RETURNDATASIZE PUSH1 0x1F NOT PUSH1 0x1F DUP3 ADD AND DUP3 ADD DUP1 PUSH1 0x40 MSTORE POP DUP2 ADD SWAP1 PUSH2 0xFCA SWAP2 SWAP1 PUSH2 0x2FF6 JUMP JUMPDEST POP POP POP POP POP POP POP POP POP POP JUMP JUMPDEST PUSH0 SLOAD PUSH3 0x10000 SWAP1 DIV PUSH1 0x1 PUSH1 0x1 PUSH1 0xA0 SHL SUB AND CALLER EQ PUSH2 0x1005 JUMPI PUSH1 0x40 MLOAD PUSH3 0x461BCD PUSH1 0xE5 SHL DUP2 MSTORE PUSH1 0x4 ADD PUSH2 0x58D SWAP1 PUSH2 0x303E JUMP JUMPDEST PUSH1 0x2 SLOAD PUSH1 0x1 PUSH1 0x1 PUSH1 0xA0 SHL SUB AND ISZERO PUSH2 0x104C JUMPI PUSH1 0x40 MLOAD PUSH3 0x461BCD PUSH1 0xE5 SHL DUP2 MSTORE PUSH1 0x20 PUSH1 0x4 DUP3 ADD MSTORE PUSH1 0xB PUSH1 0x24 DUP3 ADD MSTORE PUSH11 0x105B1C9958591E481CD95D PUSH1 0xAA SHL PUSH1 0x44 DUP3 ADD MSTORE PUSH1 0x64 ADD PUSH2 0x58D JUMP JUMPDEST PUSH1 0x1 PUSH1 0x1 PUSH1 0xA0 SHL SUB DUP2 AND PUSH2 0x1094 JUMPI PUSH1 0x40 MLOAD PUSH3 0x461BCD PUSH1 0xE5 SHL DUP2 MSTORE PUSH1 0x20 PUSH1 0x4 DUP3 ADD MSTORE PUSH1 0xF PUSH1 0x24 DUP3 ADD MSTORE PUSH15 0x496E76616C69642061646472657373 PUSH1 0x88 SHL PUSH1 0x44 DUP3 ADD MSTORE PUSH1 0x64 ADD PUSH2 0x58D JUMP JUMPDEST PUSH1 0x2 DUP1 SLOAD PUSH1 0x1 PUSH1 0x1 PUSH1 0xA0 SHL SUB NOT AND PUSH1 0x1 PUSH1 0x1 PUSH1 0xA0 SHL SUB SWAP3 SWAP1 SWAP3 AND SWAP2 SWAP1 SWAP2 OR SWAP1 SSTORE JUMP JUMPDEST DUP1 PUSH1 0x3 EQ PUSH2 0x10FB JUMPI PUSH1 0x40 MLOAD PUSH3 0x461BCD PUSH1 0xE5 SHL DUP2 MSTORE PUSH1 0x20 PUSH1 0x4 DUP3 ADD MSTORE PUSH1 0x12 PUSH1 0x24 DUP3 ADD MSTORE PUSH18 0x24B73B30B634B21021B630B4B690283630B7 PUSH1 0x71 SHL PUSH1 0x44 DUP3 ADD MSTORE PUSH1 0x64 ADD PUSH2 0x58D JUMP JUMPDEST CALLER PUSH0 SWAP1 DUP2 MSTORE PUSH1 0x6 PUSH1 0x20 MSTORE PUSH1 0x40 SWAP1 KECCAK256 PUSH1 0x5 DUP2 ADD SLOAD PUSH2 0x112A JUMPI PUSH1 0x40 MLOAD PUSH3 0x461BCD PUSH1 0xE5 SHL DUP2 MSTORE PUSH1 0x4 ADD PUSH2 0x58D SWAP1 PUSH2 0x2F4B JUMP JUMPDEST PUSH0 DUP3 DUP2 MSTORE PUSH1 0xD DUP3 ADD PUSH1 0x20 MSTORE PUSH1 0x40 DUP2 KECCAK256 DUP2 JUMPDEST DUP2 SLOAD DUP2 LT ISZERO PUSH2 0x6BA JUMPI PUSH0 DUP3 DUP3 DUP2 SLOAD DUP2 LT PUSH2 0x1157 JUMPI PUSH2 0x1157 PUSH2 0x2F72 JUMP JUMPDEST PUSH0 SWAP2 DUP3 MSTORE PUSH1 0x20 SWAP1 SWAP2 KECCAK256 PUSH1 0x6 SWAP1 SWAP2 MUL ADD PUSH1 0x5 DUP2 ADD SLOAD SWAP1 SWAP2 POP PUSH1 0xFF AND PUSH2 0x117B JUMPI POP PUSH2 0x1217 JUMP JUMPDEST PUSH0 PUSH3 0x15180 DUP3 PUSH1 0x2 ADD SLOAD TIMESTAMP PUSH2 0x1190 SWAP2 SWAP1 PUSH2 0x2F9A JUMP JUMPDEST PUSH2 0x119A SWAP2 SWAP1 PUSH2 0x2FAD JUMP JUMPDEST SWAP1 POP PUSH0 PUSH2 0x2710 DUP4 PUSH1 0x3 ADD SLOAD DUP5 PUSH0 ADD SLOAD PUSH2 0x11B3 SWAP2 SWAP1 PUSH2 0x2FCC JUMP JUMPDEST PUSH2 0x11BD SWAP2 SWAP1 PUSH2 0x2FAD JUMP JUMPDEST SWAP1 POP PUSH0 PUSH2 0x11CA DUP4 DUP4 PUSH2 0x2FCC JUMP JUMPDEST SWAP1 POP DUP4 PUSH1 0x4 ADD SLOAD DUP2 GT ISZERO PUSH2 0x1212 JUMPI PUSH0 DUP5 PUSH1 0x4 ADD SLOAD DUP3 PUSH2 0x11E9 SWAP2 SWAP1 PUSH2 0x2F9A JUMP JUMPDEST SWAP1 POP DUP1 DUP6 PUSH1 0x4 ADD PUSH0 DUP3 DUP3 SLOAD PUSH2 0x11FE SWAP2 SWAP1 PUSH2 0x2FE3 JUMP JUMPDEST SWAP1 SWAP2 SSTORE POP PUSH2 0x120E SWAP1 POP DUP2 DUP10 PUSH2 0x2FE3 JUMP JUMPDEST SWAP8 POP POP JUMPDEST POP POP POP POP JUMPDEST PUSH1 0x1 ADD PUSH2 0x113B JUMP JUMPDEST PUSH1 0x1 PUSH1 0x1 PUSH1 0xA0 SHL SUB DUP2 AND PUSH0 SWAP1 DUP2 MSTORE PUSH1 0x6 PUSH1 0x20 MSTORE PUSH1 0x40 DUP2 KECCAK256 PUSH1 0x5 DUP2 ADD SLOAD DUP3 SUB PUSH2 0x1249 JUMPI POP PUSH0 SWAP3 SWAP2 POP POP JUMP JUMPDEST PUSH0 PUSH1 0x1 JUMPDEST PUSH1 0x5 DUP2 PUSH1 0xFF AND GT PUSH2 0x1366 JUMPI PUSH0 JUMPDEST PUSH1 0xFF DUP3 AND PUSH0 SWAP1 DUP2 MSTORE PUSH1 0xD DUP6 ADD PUSH1 0x20 MSTORE PUSH1 0x40 SWAP1 KECCAK256 SLOAD DUP2 LT ISZERO PUSH2 0x1353 JUMPI PUSH1 0xFF DUP3 AND PUSH0 SWAP1 DUP2 MSTORE PUSH1 0xD DUP6 ADD PUSH1 0x20 MSTORE PUSH1 0x40 DUP2 KECCAK256 DUP1 SLOAD DUP4 SWAP1 DUP2 LT PUSH2 0x129A JUMPI PUSH2 0x129A PUSH2 0x2F72 JUMP JUMPDEST PUSH0 SWAP2 DUP3 MSTORE PUSH1 0x20 SWAP1 SWAP2 KECCAK256 PUSH1 0x6 SWAP1 SWAP2 MUL ADD PUSH1 0x5 DUP2 ADD SLOAD SWAP1 SWAP2 POP PUSH1 0xFF AND PUSH2 0x12BE JUMPI POP PUSH2 0x134B JUMP JUMPDEST PUSH0 PUSH3 0x15180 DUP3 PUSH1 0x2 ADD SLOAD TIMESTAMP PUSH2 0x12D3 SWAP2 SWAP1 PUSH2 0x2F9A JUMP JUMPDEST PUSH2 0x12DD SWAP2 SWAP1 PUSH2 0x2FAD JUMP JUMPDEST SWAP1 POP PUSH0 PUSH2 0x2710 DUP4 PUSH1 0x3 ADD SLOAD DUP5 PUSH0 ADD SLOAD PUSH2 0x12F6 SWAP2 SWAP1 PUSH2 0x2FCC JUMP JUMPDEST PUSH2 0x1300 SWAP2 SWAP1 PUSH2 0x2FAD JUMP JUMPDEST SWAP1 POP PUSH0 PUSH2 0x130D DUP4 DUP4 PUSH2 0x2FCC JUMP JUMPDEST SWAP1 POP PUSH0 DUP5 PUSH1 0x4 ADD SLOAD DUP3 GT PUSH2 0x1321 JUMPI PUSH0 PUSH2 0x1330 JUMP JUMPDEST PUSH1 0x4 DUP6 ADD SLOAD PUSH2 0x1330 SWAP1 DUP4 PUSH2 0x2F9A JUMP JUMPDEST SWAP1 POP DUP1 ISZERO PUSH2 0x1345 JUMPI PUSH2 0x1342 DUP2 DUP10 PUSH2 0x2FE3 JUMP JUMPDEST SWAP8 POP JUMPDEST POP POP POP POP POP JUMPDEST PUSH1 0x1 ADD PUSH2 0x125A JUMP JUMPDEST POP DUP1 PUSH2 0x135E DUP2 PUSH2 0x3079 JUMP JUMPDEST SWAP2 POP POP PUSH2 0x124D JUMP JUMPDEST POP SWAP4 SWAP3 POP POP POP JUMP JUMPDEST PUSH2 0xCD8 CALLER DUP3 PUSH2 0x2616 JUMP JUMPDEST PUSH1 0x1 PUSH1 0x1 PUSH1 0xA0 SHL SUB DUP3 AND PUSH0 SWAP1 DUP2 MSTORE PUSH1 0x6 PUSH1 0x20 SWAP1 DUP2 MSTORE PUSH1 0x40 DUP1 DUP4 KECCAK256 DUP5 DUP5 MSTORE PUSH1 0xD ADD DUP3 MSTORE DUP1 DUP4 KECCAK256 DUP1 SLOAD DUP3 MLOAD DUP2 DUP6 MUL DUP2 ADD DUP6 ADD SWAP1 SWAP4 MSTORE DUP1 DUP4 MSTORE PUSH1 0x60 SWAP5 SWAP3 SWAP4 SWAP2 SWAP3 SWAP1 SWAP2 DUP5 ADD JUMPDEST DUP3 DUP3 LT ISZERO PUSH2 0x1426 JUMPI PUSH0 DUP5 DUP2 MSTORE PUSH1 0x20 SWAP1 DUP2 SWAP1 KECCAK256 PUSH1 0x40 DUP1 MLOAD PUSH1 0xC0 DUP2 ADD DUP3 MSTORE PUSH1 0x6 DUP7 MUL SWAP1 SWAP3 ADD DUP1 SLOAD DUP4 MSTORE PUSH1 0x1 DUP1 DUP3 ADD SLOAD DUP5 DUP7 ADD MSTORE PUSH1 0x2 DUP3 ADD SLOAD SWAP3 DUP5 ADD SWAP3 SWAP1 SWAP3 MSTORE PUSH1 0x3 DUP2 ADD SLOAD PUSH1 0x60 DUP5 ADD MSTORE PUSH1 0x4 DUP2 ADD SLOAD PUSH1 0x80 DUP5 ADD MSTORE PUSH1 0x5 ADD SLOAD PUSH1 0xFF AND ISZERO ISZERO PUSH1 0xA0 DUP4 ADD MSTORE SWAP1 DUP4 MSTORE SWAP1 SWAP3 ADD SWAP2 ADD PUSH2 0x13BA JUMP JUMPDEST POP POP POP POP SWAP1 POP JUMPDEST SWAP3 SWAP2 POP POP JUMP JUMPDEST PUSH2 0x143C CALLER PUSH2 0x7A2 JUMP JUMPDEST PUSH2 0x147E JUMPI PUSH1 0x40 MLOAD PUSH3 0x461BCD PUSH1 0xE5 SHL DUP2 MSTORE PUSH1 0x20 PUSH1 0x4 DUP3 ADD MSTORE PUSH1 0x13 PUSH1 0x24 DUP3 ADD MSTORE PUSH19 0x155CD95C881B9BDD081C9959DA5CDD195C9959 PUSH1 0x6A SHL PUSH1 0x44 DUP3 ADD MSTORE PUSH1 0x64 ADD PUSH2 0x58D JUMP JUMPDEST PUSH0 DUP2 PUSH1 0xFF AND GT DUP1 ISZERO PUSH2 0x1493 JUMPI POP PUSH1 0x6 DUP2 PUSH1 0xFF AND LT JUMPDEST PUSH2 0x14DF JUMPI PUSH1 0x40 MLOAD PUSH3 0x461BCD PUSH1 0xE5 SHL DUP2 MSTORE PUSH1 0x20 PUSH1 0x4 DUP3 ADD MSTORE PUSH1 0x17 PUSH1 0x24 DUP3 ADD MSTORE PUSH32 0x496E76616C696420496E766573746D656E7420506C616E000000000000000000 PUSH1 0x44 DUP3 ADD MSTORE PUSH1 0x64 ADD PUSH2 0x58D JUMP JUMPDEST PUSH0 DUP2 PUSH1 0xFF AND PUSH1 0x1 SUB PUSH2 0x16B5 JUMPI PUSH1 0x4 SLOAD PUSH2 0x14F9 SWAP1 PUSH1 0x32 PUSH2 0x2FCC JUMP JUMPDEST DUP4 LT ISZERO PUSH2 0x1518 JUMPI PUSH1 0x40 MLOAD PUSH3 0x461BCD PUSH1 0xE5 SHL DUP2 MSTORE PUSH1 0x4 ADD PUSH2 0x58D SWAP1 PUSH2 0x3097 JUMP JUMPDEST PUSH1 0x4 SLOAD PUSH2 0x1527 SWAP1 PUSH2 0x1F4 PUSH2 0x2FCC JUMP JUMPDEST DUP4 GT DUP1 ISZERO PUSH2 0x1542 JUMPI POP PUSH1 0x4 SLOAD PUSH2 0x153F SWAP1 PUSH2 0x258 PUSH2 0x2FCC JUMP JUMPDEST DUP4 LT JUMPDEST ISZERO PUSH2 0x155F JUMPI PUSH1 0x40 MLOAD PUSH3 0x461BCD PUSH1 0xE5 SHL DUP2 MSTORE PUSH1 0x4 ADD PUSH2 0x58D SWAP1 PUSH2 0x3097 JUMP JUMPDEST PUSH1 0x4 SLOAD PUSH2 0x156E SWAP1 PUSH2 0xBB8 PUSH2 0x2FCC JUMP JUMPDEST DUP4 GT DUP1 ISZERO PUSH2 0x1589 JUMPI POP PUSH1 0x4 SLOAD PUSH2 0x1586 SWAP1 PUSH2 0xDAC PUSH2 0x2FCC JUMP JUMPDEST DUP4 LT JUMPDEST ISZERO PUSH2 0x15A6 JUMPI PUSH1 0x40 MLOAD PUSH3 0x461BCD PUSH1 0xE5 SHL DUP2 MSTORE PUSH1 0x4 ADD PUSH2 0x58D SWAP1 PUSH2 0x3097 JUMP JUMPDEST PUSH1 0x4 SLOAD PUSH2 0x15B5 SWAP1 PUSH2 0x26AC PUSH2 0x2FCC JUMP JUMPDEST DUP4 GT DUP1 ISZERO PUSH2 0x15D0 JUMPI POP PUSH1 0x4 SLOAD PUSH2 0x15CD SWAP1 PUSH2 0x2710 PUSH2 0x2FCC JUMP JUMPDEST DUP4 LT JUMPDEST ISZERO PUSH2 0x15ED JUMPI PUSH1 0x40 MLOAD PUSH3 0x461BCD PUSH1 0xE5 SHL DUP2 MSTORE PUSH1 0x4 ADD PUSH2 0x58D SWAP1 PUSH2 0x3097 JUMP JUMPDEST PUSH1 0x4 SLOAD PUSH2 0x15FB SWAP1 PUSH1 0x32 PUSH2 0x2FCC JUMP JUMPDEST DUP4 LT ISZERO DUP1 ISZERO PUSH2 0x1618 JUMPI POP PUSH1 0x4 SLOAD PUSH2 0x1614 SWAP1 PUSH2 0x1F4 PUSH2 0x2FCC JUMP JUMPDEST DUP4 GT ISZERO JUMPDEST ISZERO PUSH2 0x1625 JUMPI POP PUSH1 0x3C PUSH2 0x1812 JUMP JUMPDEST PUSH1 0x4 SLOAD PUSH2 0x1634 SWAP1 PUSH2 0x258 PUSH2 0x2FCC JUMP JUMPDEST DUP4 LT ISZERO DUP1 ISZERO PUSH2 0x1651 JUMPI POP PUSH1 0x4 SLOAD PUSH2 0x164D SWAP1 PUSH2 0xBB8 PUSH2 0x2FCC JUMP JUMPDEST DUP4 GT ISZERO JUMPDEST ISZERO PUSH2 0x165E JUMPI POP PUSH1 0x46 PUSH2 0x1812 JUMP JUMPDEST PUSH1 0x4 SLOAD PUSH2 0x166D SWAP1 PUSH2 0xDAC PUSH2 0x2FCC JUMP JUMPDEST DUP4 LT ISZERO DUP1 ISZERO PUSH2 0x168A JUMPI POP PUSH1 0x4 SLOAD PUSH2 0x1686 SWAP1 PUSH2 0x26AC PUSH2 0x2FCC JUMP JUMPDEST DUP4 GT ISZERO JUMPDEST ISZERO PUSH2 0x1697 JUMPI POP PUSH1 0x5A PUSH2 0x1812 JUMP JUMPDEST PUSH1 0x4 SLOAD PUSH2 0x16A6 SWAP1 PUSH2 0x2710 PUSH2 0x2FCC JUMP JUMPDEST DUP4 LT PUSH2 0x16B0 JUMPI POP PUSH1 0x64 JUMPDEST PUSH2 0x1812 JUMP JUMPDEST DUP2 PUSH1 0xFF AND PUSH1 0x2 SUB PUSH2 0x1755 JUMPI PUSH1 0x4 SLOAD PUSH2 0x16CE SWAP1 PUSH1 0x64 PUSH2 0x2FCC JUMP JUMPDEST DUP4 LT ISZERO PUSH2 0x16ED JUMPI PUSH1 0x40 MLOAD PUSH3 0x461BCD PUSH1 0xE5 SHL DUP2 MSTORE PUSH1 0x4 ADD PUSH2 0x58D SWAP1 PUSH2 0x3097 JUMP JUMPDEST PUSH1 0x4 SLOAD PUSH2 0x16FD SWAP1 PUSH3 0x186A0 PUSH2 0x2FCC JUMP JUMPDEST DUP4 GT ISZERO PUSH2 0x171C JUMPI PUSH1 0x40 MLOAD PUSH3 0x461BCD PUSH1 0xE5 SHL DUP2 MSTORE PUSH1 0x4 ADD PUSH2 0x58D SWAP1 PUSH2 0x3097 JUMP JUMPDEST PUSH1 0x4 SLOAD PUSH2 0x172A SWAP1 PUSH1 0x64 PUSH2 0x2FCC JUMP JUMPDEST DUP4 LT ISZERO DUP1 ISZERO PUSH2 0x1748 JUMPI POP PUSH1 0x4 SLOAD PUSH2 0x1744 SWAP1 PUSH3 0x186A0 PUSH2 0x2FCC JUMP JUMPDEST DUP4 GT ISZERO JUMPDEST ISZERO PUSH2 0x16B0 JUMPI POP PUSH1 0x32 PUSH2 0x1812 JUMP JUMPDEST DUP2 PUSH1 0xFF AND PUSH1 0x3 SUB PUSH2 0x17A9 JUMPI PUSH1 0x4 SLOAD PUSH2 0x176E SWAP1 PUSH1 0x1 PUSH2 0x2FCC JUMP JUMPDEST DUP4 LT ISZERO PUSH2 0x178D JUMPI PUSH1 0x40 MLOAD PUSH3 0x461BCD PUSH1 0xE5 SHL DUP2 MSTORE PUSH1 0x4 ADD PUSH2 0x58D SWAP1 PUSH2 0x3097 JUMP JUMPDEST PUSH1 0x4 SLOAD PUSH2 0x179B SWAP1 PUSH1 0x1 PUSH2 0x2FCC JUMP JUMPDEST DUP4 LT PUSH2 0x16B0 JUMPI POP PUSH1 0x1E PUSH2 0x1812 JUMP JUMPDEST DUP2 PUSH1 0xFF AND PUSH1 0x4 SUB PUSH2 0x17C2 JUMPI PUSH1 0x4 SLOAD PUSH2 0x176E SWAP1 PUSH1 0x1 PUSH2 0x2FCC JUMP JUMPDEST DUP2 PUSH1 0xFF AND PUSH1 0x5 SUB PUSH2 0x1812 JUMPI PUSH1 0x4 SLOAD PUSH2 0x17DB SWAP1 PUSH1 0x1 PUSH2 0x2FCC JUMP JUMPDEST DUP4 LT ISZERO PUSH2 0x17FA JUMPI PUSH1 0x40 MLOAD PUSH3 0x461BCD PUSH1 0xE5 SHL DUP2 MSTORE PUSH1 0x4 ADD PUSH2 0x58D SWAP1 PUSH2 0x3097 JUMP JUMPDEST PUSH1 0x4 SLOAD PUSH2 0x1808 SWAP1 PUSH1 0x1 PUSH2 0x2FCC JUMP JUMPDEST DUP4 LT PUSH2 0x1812 JUMPI POP PUSH1 0x23 JUMPDEST PUSH1 0x1 SLOAD PUSH1 0x40 MLOAD PUSH4 0x23B872DD PUSH1 0xE0 SHL DUP2 MSTORE CALLER PUSH1 0x4 DUP3 ADD MSTORE ADDRESS PUSH1 0x24 DUP3 ADD MSTORE PUSH1 0x44 DUP2 ADD DUP6 SWAP1 MSTORE PUSH1 0x1 PUSH1 0x1 PUSH1 0xA0 SHL SUB SWAP1 SWAP2 AND SWAP1 PUSH4 0x23B872DD SWAP1 PUSH1 0x64 ADD PUSH1 0x20 PUSH1 0x40 MLOAD DUP1 DUP4 SUB DUP2 PUSH0 DUP8 GAS CALL ISZERO DUP1 ISZERO PUSH2 0x1866 JUMPI RETURNDATASIZE PUSH0 PUSH0 RETURNDATACOPY RETURNDATASIZE PUSH0 REVERT JUMPDEST POP POP POP POP PUSH1 0x40 MLOAD RETURNDATASIZE PUSH1 0x1F NOT PUSH1 0x1F DUP3 ADD AND DUP3 ADD DUP1 PUSH1 0x40 MSTORE POP DUP2 ADD SWAP1 PUSH2 0x188A SWAP2 SWAP1 PUSH2 0x2FF6 JUMP JUMPDEST PUSH2 0x18CD JUMPI PUSH1 0x40 MLOAD PUSH3 0x461BCD PUSH1 0xE5 SHL DUP2 MSTORE PUSH1 0x20 PUSH1 0x4 DUP3 ADD MSTORE PUSH1 0x14 PUSH1 0x24 DUP3 ADD MSTORE PUSH20 0x1554D115081D1C985B9CD9995C8819985A5B1959 PUSH1 0x62 SHL PUSH1 0x44 DUP3 ADD MSTORE PUSH1 0x64 ADD PUSH2 0x58D JUMP JUMPDEST CALLER PUSH0 SWAP1 DUP2 MSTORE PUSH1 0x6 PUSH1 0x20 MSTORE PUSH1 0x40 DUP2 KECCAK256 PUSH1 0x5 DUP2 ADD DUP1 SLOAD SWAP2 SWAP3 DUP7 SWAP3 PUSH2 0x18F0 SWAP1 DUP5 SWAP1 PUSH2 0x2FE3 JUMP JUMPDEST SWAP1 SWAP2 SSTORE POP PUSH2 0x1901 SWAP1 POP DUP5 PUSH1 0x2 PUSH2 0x2FCC JUMP JUMPDEST DUP2 PUSH1 0x8 ADD PUSH0 DUP3 DUP3 SLOAD PUSH2 0x1913 SWAP2 SWAP1 PUSH2 0x2FE3 JUMP JUMPDEST SWAP1 SWAP2 SSTORE POP POP TIMESTAMP PUSH1 0x9 DUP3 ADD DUP2 SWAP1 SSTORE PUSH1 0xFF DUP5 AND PUSH0 DUP2 DUP2 MSTORE PUSH1 0xD DUP5 ADD PUSH1 0x20 SWAP1 DUP2 MSTORE PUSH1 0x40 DUP1 DUP4 KECCAK256 DUP2 MLOAD PUSH1 0xC0 DUP2 ADD DUP4 MSTORE DUP11 DUP2 MSTORE DUP1 DUP5 ADD DUP7 DUP2 MSTORE DUP2 DUP5 ADD SWAP8 DUP9 MSTORE PUSH1 0x60 DUP3 ADD DUP11 DUP2 MSTORE PUSH1 0x80 DUP4 ADD DUP8 DUP2 MSTORE PUSH1 0x1 PUSH1 0xA0 DUP6 ADD DUP2 DUP2 MSTORE DUP7 SLOAD DUP1 DUP4 ADD DUP9 SSTORE SWAP7 DUP11 MSTORE SWAP9 DUP9 SWAP1 KECCAK256 SWAP5 MLOAD PUSH1 0x6 SWAP1 SWAP7 MUL SWAP1 SWAP5 ADD SWAP5 DUP6 SSTORE SWAP2 MLOAD SWAP3 DUP5 ADD SWAP3 SWAP1 SWAP3 SSTORE SWAP7 MLOAD PUSH1 0x2 DUP4 ADD SSTORE MLOAD PUSH1 0x3 DUP3 ADD SSTORE SWAP5 MLOAD PUSH1 0x4 DUP7 ADD SSTORE SWAP2 MLOAD PUSH1 0x5 SWAP1 SWAP5 ADD DUP1 SLOAD PUSH1 0xFF NOT AND SWAP5 ISZERO ISZERO SWAP5 SWAP1 SWAP5 OR SWAP1 SWAP4 SSTORE DUP1 MLOAD DUP8 DUP2 MSTORE SWAP3 DUP4 ADD SWAP2 SWAP1 SWAP2 MSTORE CALLER SWAP2 PUSH32 0xE419B79865E277810686C2278E574727F1BB7A3464FA554F499199109E5E2E3A SWAP2 ADD PUSH1 0x40 MLOAD DUP1 SWAP2 SUB SWAP1 LOG2 PUSH2 0x19F6 DUP5 CALLER PUSH2 0x2784 JUMP JUMPDEST PUSH2 0x1A00 DUP5 CALLER PUSH2 0x2822 JUMP JUMPDEST POP POP POP POP JUMP JUMPDEST PUSH2 0xCD8 CALLER DUP3 PUSH2 0x2981 JUMP JUMPDEST CALLER PUSH0 SWAP1 DUP2 MSTORE PUSH1 0x6 PUSH1 0x20 MSTORE PUSH1 0x40 SWAP1 KECCAK256 PUSH1 0x5 DUP2 ADD SLOAD PUSH2 0x1A3F JUMPI PUSH1 0x40 MLOAD PUSH3 0x461BCD PUSH1 0xE5 SHL DUP2 MSTORE PUSH1 0x4 ADD PUSH2 0x58D SWAP1 PUSH2 0x2F4B JUMP JUMPDEST PUSH0 PUSH1 0x1 JUMPDEST PUSH1 0x5 DUP2 PUSH1 0xFF AND GT PUSH2 0x1B61 JUMPI PUSH1 0xFF DUP2 AND PUSH0 SWAP1 DUP2 MSTORE PUSH1 0xD DUP5 ADD PUSH1 0x20 MSTORE PUSH1 0x40 DUP2 KECCAK256 SWAP1 JUMPDEST DUP2 SLOAD DUP2 LT ISZERO PUSH2 0x1B4C JUMPI PUSH0 DUP3 DUP3 DUP2 SLOAD DUP2 LT PUSH2 0x1A7F JUMPI PUSH2 0x1A7F PUSH2 0x2F72 JUMP JUMPDEST PUSH0 SWAP2 DUP3 MSTORE PUSH1 0x20 SWAP1 SWAP2 KECCAK256 PUSH1 0x6 SWAP1 SWAP2 MUL ADD PUSH1 0x5 DUP2 ADD SLOAD SWAP1 SWAP2 POP PUSH1 0xFF AND PUSH2 0x1AA3 JUMPI POP PUSH2 0x1B44 JUMP JUMPDEST PUSH0 PUSH3 0x15180 DUP3 PUSH1 0x2 ADD SLOAD TIMESTAMP PUSH2 0x1AB8 SWAP2 SWAP1 PUSH2 0x2F9A JUMP JUMPDEST PUSH2 0x1AC2 SWAP2 SWAP1 PUSH2 0x2FAD JUMP JUMPDEST SWAP1 POP PUSH0 PUSH2 0x2710 DUP4 PUSH1 0x3 ADD SLOAD DUP5 PUSH0 ADD SLOAD PUSH2 0x1ADB SWAP2 SWAP1 PUSH2 0x2FCC JUMP JUMPDEST PUSH2 0x1AE5 SWAP2 SWAP1 PUSH2 0x2FAD JUMP JUMPDEST SWAP1 POP PUSH0 PUSH2 0x1AF2 DUP4 DUP4 PUSH2 0x2FCC JUMP JUMPDEST SWAP1 POP DUP4 PUSH1 0x4 ADD SLOAD DUP2 GT ISZERO PUSH2 0x1B3F JUMPI PUSH0 DUP5 PUSH1 0x4 ADD SLOAD DUP3 PUSH2 0x1B11 SWAP2 SWAP1 PUSH2 0x2F9A JUMP JUMPDEST SWAP1 POP DUP1 DUP6 PUSH1 0x4 ADD PUSH0 DUP3 DUP3 SLOAD PUSH2 0x1B26 SWAP2 SWAP1 PUSH2 0x2FE3 JUMP JUMPDEST SWAP1 SWAP2 SSTORE POP POP TIMESTAMP PUSH1 0x2 DUP7 ADD SSTORE PUSH2 0x1B3B DUP2 DUP11 PUSH2 0x2FE3 JUMP JUMPDEST SWAP9 POP POP JUMPDEST POP POP POP POP JUMPDEST PUSH1 0x1 ADD PUSH2 0x1A63 JUMP JUMPDEST POP POP DUP1 DUP1 PUSH2 0x1B59 SWAP1 PUSH2 0x3079 JUMP JUMPDEST SWAP2 POP POP PUSH2 0x1A43 JUMP JUMPDEST POP PUSH1 0x4 SLOAD PUSH2 0x1B70 SWAP1 PUSH1 0x64 PUSH2 0x2FCC JUMP JUMPDEST DUP2 LT ISZERO PUSH2 0x1BCA JUMPI PUSH1 0x40 MLOAD PUSH3 0x461BCD PUSH1 0xE5 SHL DUP2 MSTORE PUSH1 0x20 PUSH1 0x4 DUP3 ADD MSTORE PUSH1 0x22 PUSH1 0x24 DUP3 ADD MSTORE PUSH32 0x4D696E696D756D20313030205553445420726571756972656420746F20636C61 PUSH1 0x44 DUP3 ADD MSTORE PUSH2 0x696D PUSH1 0xF0 SHL PUSH1 0x64 DUP3 ADD MSTORE PUSH1 0x84 ADD PUSH2 0x58D JUMP JUMPDEST PUSH0 PUSH1 0x64 PUSH2 0x1BD8 DUP4 PUSH1 0x60 PUSH2 0x2FCC JUMP JUMPDEST PUSH2 0x1BE2 SWAP2 SWAP1 PUSH2 0x2FAD JUMP JUMPDEST PUSH1 0x1 SLOAD PUSH1 0x40 MLOAD PUSH4 0xA9059CBB PUSH1 0xE0 SHL DUP2 MSTORE CALLER PUSH1 0x4 DUP3 ADD MSTORE PUSH1 0x24 DUP2 ADD DUP4 SWAP1 MSTORE SWAP2 SWAP3 POP PUSH1 0x1 PUSH1 0x1 PUSH1 0xA0 SHL SUB AND SWAP1 PUSH4 0xA9059CBB SWAP1 PUSH1 0x44 ADD PUSH1 0x20 PUSH1 0x40 MLOAD DUP1 DUP4 SUB DUP2 PUSH0 DUP8 GAS CALL ISZERO DUP1 ISZERO PUSH2 0x1C31 JUMPI RETURNDATASIZE PUSH0 PUSH0 RETURNDATACOPY RETURNDATASIZE PUSH0 REVERT JUMPDEST POP POP POP POP PUSH1 0x40 MLOAD RETURNDATASIZE PUSH1 0x1F NOT PUSH1 0x1F DUP3 ADD AND DUP3 ADD DUP1 PUSH1 0x40 MSTORE POP DUP2 ADD SWAP1 PUSH2 0x1C55 SWAP2 SWAP1 PUSH2 0x2FF6 JUMP JUMPDEST PUSH2 0x1C71 JUMPI PUSH1 0x40 MLOAD PUSH3 0x461BCD PUSH1 0xE5 SHL DUP2 MSTORE PUSH1 0x4 ADD PUSH2 0x58D SWAP1 PUSH2 0x3015 JUMP JUMPDEST DUP2 DUP4 PUSH1 0x7 ADD PUSH0 DUP3 DUP3 SLOAD PUSH2 0x1C84 SWAP2 SWAP1 PUSH2 0x2FE3 JUMP JUMPDEST SWAP1 SWAP2 SSTORE POP POP TIMESTAMP PUSH1 0x9 DUP5 ADD SSTORE PUSH1 0x40 MLOAD DUP3 DUP2 MSTORE CALLER SWAP1 PUSH32 0x574C59DFD25E29ED9605F5ACCEDB5AAB0B989606855C61BF6FDCD0875EC8D4B5 SWAP1 PUSH1 0x20 ADD PUSH1 0x40 MLOAD DUP1 SWAP2 SUB SWAP1 LOG2 POP POP POP JUMP JUMPDEST PUSH0 SLOAD PUSH3 0x10000 SWAP1 DIV PUSH1 0x1 PUSH1 0x1 PUSH1 0xA0 SHL SUB AND CALLER EQ PUSH2 0x1CF8 JUMPI PUSH1 0x40 MLOAD PUSH3 0x461BCD PUSH1 0xE5 SHL DUP2 MSTORE PUSH1 0x4 ADD PUSH2 0x58D SWAP1 PUSH2 0x303E JUMP JUMPDEST PUSH1 0x1 PUSH1 0x1 PUSH1 0xA0 SHL SUB DUP2 AND PUSH0 SWAP1 DUP2 MSTORE PUSH1 0x6 PUSH1 0x20 MSTORE PUSH1 0x40 SWAP1 KECCAK256 PUSH1 0xA DUP2 ADD SLOAD PUSH1 0xFF AND ISZERO PUSH2 0x1D5A JUMPI PUSH1 0x40 MLOAD PUSH3 0x461BCD PUSH1 0xE5 SHL DUP2 MSTORE PUSH1 0x20 PUSH1 0x4 DUP3 ADD MSTORE PUSH1 0x13 PUSH1 0x24 DUP3 ADD MSTORE PUSH19 0x105B1C9958591E48191A5CDD1C9A589D5D1959 PUSH1 0x6A SHL PUSH1 0x44 DUP3 ADD MSTORE PUSH1 0x64 ADD PUSH2 0x58D JUMP JUMPDEST PUSH0 DUP2 PUSH1 0x6 ADD SLOAD GT PUSH2 0x1DAD JUMPI PUSH1 0x40 MLOAD PUSH3 0x461BCD PUSH1 0xE5 SHL DUP2 MSTORE PUSH1 0x20 PUSH1 0x4 DUP3 ADD MSTORE PUSH1 0x17 PUSH1 0x24 DUP3 ADD MSTORE PUSH32 0x4E6F20746F6B656E7320746F2064697374726962757465000000000000000000 PUSH1 0x44 DUP3 ADD MSTORE PUSH1 0x64 ADD PUSH2 0x58D JUMP JUMPDEST PUSH1 0x2 SLOAD PUSH1 0x1 PUSH1 0x1 PUSH1 0xA0 SHL SUB AND PUSH2 0x1DFA JUMPI PUSH1 0x40 MLOAD PUSH3 0x461BCD PUSH1 0xE5 SHL DUP2 MSTORE PUSH1 0x20 PUSH1 0x4 DUP3 ADD MSTORE PUSH1 0x12 PUSH1 0x24 DUP3 ADD MSTORE PUSH18 0x1499585B081D1BDAD95B881B9BDD081CD95D PUSH1 0x72 SHL PUSH1 0x44 DUP3 ADD MSTORE PUSH1 0x64 ADD PUSH2 0x58D JUMP JUMPDEST PUSH1 0xA DUP2 ADD DUP1 SLOAD PUSH1 0xFF NOT AND PUSH1 0x1 OR SWAP1 SSTORE PUSH1 0x2 SLOAD PUSH1 0x6 DUP3 ADD SLOAD PUSH1 0x40 MLOAD PUSH4 0xA9059CBB PUSH1 0xE0 SHL DUP2 MSTORE PUSH1 0x1 PUSH1 0x1 PUSH1 0xA0 SHL SUB DUP6 DUP2 AND PUSH1 0x4 DUP4 ADD MSTORE PUSH1 0x24 DUP3 ADD SWAP3 SWAP1 SWAP3 MSTORE SWAP2 AND SWAP1 PUSH4 0xA9059CBB SWAP1 PUSH1 0x44 ADD PUSH1 0x20 PUSH1 0x40 MLOAD DUP1 DUP4 SUB DUP2 PUSH0 DUP8 GAS CALL ISZERO DUP1 ISZERO PUSH2 0x1E5E JUMPI RETURNDATASIZE PUSH0 PUSH0 RETURNDATACOPY RETURNDATASIZE PUSH0 REVERT JUMPDEST POP POP POP POP PUSH1 0x40 MLOAD RETURNDATASIZE PUSH1 0x1F NOT PUSH1 0x1F DUP3 ADD AND DUP3 ADD DUP1 PUSH1 0x40 MSTORE POP DUP2 ADD SWAP1 PUSH2 0x1E82 SWAP2 SWAP1 PUSH2 0x2FF6 JUMP JUMPDEST PUSH2 0x1ECE JUMPI PUSH1 0x40 MLOAD PUSH3 0x461BCD PUSH1 0xE5 SHL DUP2 MSTORE PUSH1 0x20 PUSH1 0x4 DUP3 ADD MSTORE PUSH1 0x1A PUSH1 0x24 DUP3 ADD MSTORE PUSH32 0x5265616C20746F6B656E207472616E73666572206661696C6564000000000000 PUSH1 0x44 DUP3 ADD MSTORE PUSH1 0x64 ADD PUSH2 0x58D JUMP JUMPDEST DUP2 PUSH1 0x1 PUSH1 0x1 PUSH1 0xA0 SHL SUB AND PUSH32 0x13603C1BEB46B471CBD10CB5B15A9F58E3929B8EC141B7C33746E26DAF3A839F DUP3 PUSH1 0x6 ADD SLOAD PUSH1 0x40 MLOAD PUSH2 0xB33 SWAP2 DUP2 MSTORE PUSH1 0x20 ADD SWAP1 JUMP JUMPDEST PUSH0 SLOAD PUSH3 0x10000 SWAP1 DIV PUSH1 0x1 PUSH1 0x1 PUSH1 0xA0 SHL SUB AND CALLER EQ PUSH2 0x1F3C JUMPI PUSH1 0x40 MLOAD PUSH3 0x461BCD PUSH1 0xE5 SHL DUP2 MSTORE PUSH1 0x4 ADD PUSH2 0x58D SWAP1 PUSH2 0x303E JUMP JUMPDEST PUSH1 0x2 SLOAD PUSH1 0x1 PUSH1 0x1 PUSH1 0xA0 SHL SUB AND PUSH2 0x1F89 JUMPI PUSH1 0x40 MLOAD PUSH3 0x461BCD PUSH1 0xE5 SHL DUP2 MSTORE PUSH1 0x20 PUSH1 0x4 DUP3 ADD MSTORE PUSH1 0x12 PUSH1 0x24 DUP3 ADD MSTORE PUSH18 0x1499585B081D1BDAD95B881B9BDD081CD95D PUSH1 0x72 SHL PUSH1 0x44 DUP3 ADD MSTORE PUSH1 0x64 ADD PUSH2 0x58D JUMP JUMPDEST PUSH0 JUMPDEST DUP2 DUP2 LT ISZERO PUSH2 0x20E9 JUMPI PUSH0 DUP4 DUP4 DUP4 DUP2 DUP2 LT PUSH2 0x1FA6 JUMPI PUSH2 0x1FA6 PUSH2 0x2F72 JUMP JUMPDEST SWAP1 POP PUSH1 0x20 MUL ADD PUSH1 0x20 DUP2 ADD SWAP1 PUSH2 0x1FBB SWAP2 SWAP1 PUSH2 0x2CC7 JUMP JUMPDEST PUSH1 0x1 PUSH1 0x1 PUSH1 0xA0 SHL SUB DUP2 AND PUSH0 SWAP1 DUP2 MSTORE PUSH1 0x6 PUSH1 0x20 MSTORE PUSH1 0x40 SWAP1 KECCAK256 PUSH1 0xA DUP2 ADD SLOAD SWAP2 SWAP3 POP SWAP1 PUSH1 0xFF AND ISZERO DUP1 ISZERO PUSH2 0x1FEE JUMPI POP PUSH0 DUP2 PUSH1 0x6 ADD SLOAD GT JUMPDEST ISZERO PUSH2 0x20DF JUMPI PUSH1 0xA DUP2 ADD DUP1 SLOAD PUSH1 0xFF NOT AND PUSH1 0x1 OR SWAP1 SSTORE PUSH1 0x2 SLOAD PUSH1 0x6 DUP3 ADD SLOAD PUSH1 0x40 MLOAD PUSH4 0xA9059CBB PUSH1 0xE0 SHL DUP2 MSTORE PUSH1 0x1 PUSH1 0x1 PUSH1 0xA0 SHL SUB DUP6 DUP2 AND PUSH1 0x4 DUP4 ADD MSTORE PUSH1 0x24 DUP3 ADD SWAP3 SWAP1 SWAP3 MSTORE SWAP2 AND SWAP1 PUSH4 0xA9059CBB SWAP1 PUSH1 0x44 ADD PUSH1 0x20 PUSH1 0x40 MLOAD DUP1 DUP4 SUB DUP2 PUSH0 DUP8 GAS CALL ISZERO DUP1 ISZERO PUSH2 0x2057 JUMPI RETURNDATASIZE PUSH0 PUSH0 RETURNDATACOPY RETURNDATASIZE PUSH0 REVERT JUMPDEST POP POP POP POP PUSH1 0x40 MLOAD RETURNDATASIZE PUSH1 0x1F NOT PUSH1 0x1F DUP3 ADD AND DUP3 ADD DUP1 PUSH1 0x40 MSTORE POP DUP2 ADD SWAP1 PUSH2 0x207B SWAP2 SWAP1 PUSH2 0x2FF6 JUMP JUMPDEST PUSH2 0x2097 JUMPI PUSH1 0x40 MLOAD PUSH3 0x461BCD PUSH1 0xE5 SHL DUP2 MSTORE PUSH1 0x4 ADD PUSH2 0x58D SWAP1 PUSH2 0x3015 JUMP JUMPDEST DUP2 PUSH1 0x1 PUSH1 0x1 PUSH1 0xA0 SHL SUB AND PUSH32 0x13603C1BEB46B471CBD10CB5B15A9F58E3929B8EC141B7C33746E26DAF3A839F DUP3 PUSH1 0x6 ADD SLOAD PUSH1 0x40 MLOAD PUSH2 0x20D6 SWAP2 DUP2 MSTORE PUSH1 0x20 ADD SWAP1 JUMP JUMPDEST PUSH1 0x40 MLOAD DUP1 SWAP2 SUB SWAP1 LOG2 JUMPDEST POP POP PUSH1 0x1 ADD PUSH2 0x1F8B JUMP JUMPDEST POP POP POP JUMP JUMPDEST PUSH0 SLOAD PUSH2 0x100 SWAP1 DIV PUSH1 0xFF AND DUP1 PUSH2 0x2105 JUMPI POP PUSH0 SLOAD PUSH1 0xFF AND ISZERO JUMPDEST PUSH2 0x2168 JUMPI PUSH1 0x40 MLOAD PUSH3 0x461BCD PUSH1 0xE5 SHL DUP2 MSTORE PUSH1 0x20 PUSH1 0x4 DUP3 ADD MSTORE PUSH1 0x2E PUSH1 0x24 DUP3 ADD MSTORE PUSH32 0x496E697469616C697A61626C653A20636F6E747261637420697320616C726561 PUSH1 0x44 DUP3 ADD MSTORE PUSH14 0x191E481A5B9A5D1A585B1A5E9959 PUSH1 0x92 SHL PUSH1 0x64 DUP3 ADD MSTORE PUSH1 0x84 ADD PUSH2 0x58D JUMP JUMPDEST PUSH0 SLOAD PUSH2 0x100 SWAP1 DIV PUSH1 0xFF AND ISZERO DUP1 ISZERO PUSH2 0x2188 JUMPI PUSH0 DUP1 SLOAD PUSH2 0xFFFF NOT AND PUSH2 0x101 OR SWAP1 SSTORE JUMPDEST PUSH1 0x1 PUSH1 0x1 PUSH1 0xA0 SHL SUB DUP3 AND PUSH2 0x21D5 JUMPI PUSH1 0x40 MLOAD PUSH3 0x461BCD PUSH1 0xE5 SHL DUP2 MSTORE PUSH1 0x20 PUSH1 0x4 DUP3 ADD MSTORE PUSH1 0x14 PUSH1 0x24 DUP3 ADD MSTORE PUSH20 0x496E76616C696420555344542061646472657373 PUSH1 0x60 SHL PUSH1 0x44 DUP3 ADD MSTORE PUSH1 0x64 ADD PUSH2 0x58D JUMP JUMPDEST PUSH0 DUP1 SLOAD PUSH3 0x10000 PUSH1 0x1 PUSH1 0xB0 SHL SUB NOT AND CALLER PUSH3 0x10000 DUP2 MUL SWAP2 SWAP1 SWAP2 OR DUP3 SSTORE PUSH1 0x1 DUP1 SLOAD PUSH1 0x1 PUSH1 0x1 PUSH1 0xA0 SHL SUB NOT AND PUSH1 0x1 PUSH1 0x1 PUSH1 0xA0 SHL SUB DUP7 AND OR DUP2 SSTORE PUSH1 0x3 DUP2 DUP2 SSTORE SWAP2 DUP4 MSTORE PUSH1 0x6 PUSH1 0x20 MSTORE PUSH1 0x40 DUP4 KECCAK256 DUP2 SWAP1 SSTORE SWAP2 PUSH2 0x222A DUP4 PUSH2 0x30CE JUMP JUMPDEST SWAP1 SWAP2 SSTORE POP POP PUSH8 0xDE0B6B3A7640000 PUSH1 0x4 SSTORE PUSH1 0x64 PUSH1 0x5 SSTORE DUP1 ISZERO PUSH2 0x2251 JUMPI PUSH0 DUP1 SLOAD PUSH2 0xFF00 NOT AND SWAP1 SSTORE JUMPDEST POP POP JUMP JUMPDEST PUSH1 0x1 PUSH1 0x1 PUSH1 0xA0 SHL SUB DUP3 AND PUSH0 SWAP1 DUP2 MSTORE PUSH1 0x6 PUSH1 0x20 SWAP1 DUP2 MSTORE PUSH1 0x40 DUP1 DUP4 KECCAK256 DUP5 DUP5 MSTORE PUSH1 0xD DUP2 ADD SWAP1 SWAP3 MSTORE SWAP1 SWAP2 KECCAK256 SLOAD PUSH1 0x60 SWAP2 DUP3 SWAP2 DUP3 SWAP2 DUP3 SWAP2 DUP3 SWAP2 SWAP1 DUP1 PUSH8 0xFFFFFFFFFFFFFFFF DUP2 GT ISZERO PUSH2 0x22A2 JUMPI PUSH2 0x22A2 PUSH2 0x30E6 JUMP JUMPDEST PUSH1 0x40 MLOAD SWAP1 DUP1 DUP3 MSTORE DUP1 PUSH1 0x20 MUL PUSH1 0x20 ADD DUP3 ADD PUSH1 0x40 MSTORE DUP1 ISZERO PUSH2 0x22CB JUMPI DUP2 PUSH1 0x20 ADD PUSH1 0x20 DUP3 MUL DUP1 CALLDATASIZE DUP4 CALLDATACOPY ADD SWAP1 POP JUMPDEST POP SWAP7 POP DUP1 PUSH8 0xFFFFFFFFFFFFFFFF DUP2 GT ISZERO PUSH2 0x22E7 JUMPI PUSH2 0x22E7 PUSH2 0x30E6 JUMP JUMPDEST PUSH1 0x40 MLOAD SWAP1 DUP1 DUP3 MSTORE DUP1 PUSH1 0x20 MUL PUSH1 0x20 ADD DUP3 ADD PUSH1 0x40 MSTORE DUP1 ISZERO PUSH2 0x2310 JUMPI DUP2 PUSH1 0x20 ADD PUSH1 0x20 DUP3 MUL DUP1 CALLDATASIZE DUP4 CALLDATACOPY ADD SWAP1 POP JUMPDEST POP SWAP6 POP DUP1 PUSH8 0xFFFFFFFFFFFFFFFF DUP2 GT ISZERO PUSH2 0x232C JUMPI PUSH2 0x232C PUSH2 0x30E6 JUMP JUMPDEST PUSH1 0x40 MLOAD SWAP1 DUP1 DUP3 MSTORE DUP1 PUSH1 0x20 MUL PUSH1 0x20 ADD DUP3 ADD PUSH1 0x40 MSTORE DUP1 ISZERO PUSH2 0x2355 JUMPI DUP2 PUSH1 0x20 ADD PUSH1 0x20 DUP3 MUL DUP1 CALLDATASIZE DUP4 CALLDATACOPY ADD SWAP1 POP JUMPDEST POP SWAP5 POP DUP1 PUSH8 0xFFFFFFFFFFFFFFFF DUP2 GT ISZERO PUSH2 0x2371 JUMPI PUSH2 0x2371 PUSH2 0x30E6 JUMP JUMPDEST PUSH1 0x40 MLOAD SWAP1 DUP1 DUP3 MSTORE DUP1 PUSH1 0x20 MUL PUSH1 0x20 ADD DUP3 ADD PUSH1 0x40 MSTORE DUP1 ISZERO PUSH2 0x239A JUMPI DUP2 PUSH1 0x20 ADD PUSH1 0x20 DUP3 MUL DUP1 CALLDATASIZE DUP4 CALLDATACOPY ADD SWAP1 POP JUMPDEST POP SWAP4 POP DUP1 PUSH8 0xFFFFFFFFFFFFFFFF DUP2 GT ISZERO PUSH2 0x23B6 JUMPI PUSH2 0x23B6 PUSH2 0x30E6 JUMP JUMPDEST PUSH1 0x40 MLOAD SWAP1 DUP1 DUP3 MSTORE DUP1 PUSH1 0x20 MUL PUSH1 0x20 ADD DUP3 ADD PUSH1 0x40 MSTORE DUP1 ISZERO PUSH2 0x23DF JUMPI DUP2 PUSH1 0x20 ADD PUSH1 0x20 DUP3 MUL DUP1 CALLDATASIZE DUP4 CALLDATACOPY ADD SWAP1 POP JUMPDEST POP SWAP3 POP PUSH0 JUMPDEST DUP2 DUP2 LT ISZERO PUSH2 0x2577 JUMPI PUSH0 DUP10 DUP2 MSTORE PUSH1 0xD DUP5 ADD PUSH1 0x20 MSTORE PUSH1 0x40 DUP2 KECCAK256 DUP1 SLOAD DUP4 SWAP1 DUP2 LT PUSH2 0x240D JUMPI PUSH2 0x240D PUSH2 0x2F72 JUMP JUMPDEST SWAP1 PUSH0 MSTORE PUSH1 0x20 PUSH0 KECCAK256 SWAP1 PUSH1 0x6 MUL ADD SWAP1 POP DUP1 PUSH0 ADD SLOAD DUP10 DUP4 DUP2 MLOAD DUP2 LT PUSH2 0x2431 JUMPI PUSH2 0x2431 PUSH2 0x2F72 JUMP JUMPDEST PUSH1 0x20 MUL PUSH1 0x20 ADD ADD DUP2 DUP2 MSTORE POP POP DUP1 PUSH1 0x4 ADD SLOAD DUP9 DUP4 DUP2 MLOAD DUP2 LT PUSH2 0x2454 JUMPI PUSH2 0x2454 PUSH2 0x2F72 JUMP JUMPDEST PUSH1 0x20 MUL PUSH1 0x20 ADD ADD DUP2 DUP2 MSTORE POP POP DUP1 PUSH1 0x2 ADD SLOAD DUP7 DUP4 DUP2 MLOAD DUP2 LT PUSH2 0x2477 JUMPI PUSH2 0x2477 PUSH2 0x2F72 JUMP JUMPDEST PUSH1 0x20 MUL PUSH1 0x20 ADD ADD DUP2 DUP2 MSTORE POP POP DUP1 PUSH1 0x3 ADD SLOAD DUP6 DUP4 DUP2 MLOAD DUP2 LT PUSH2 0x249A JUMPI PUSH2 0x249A PUSH2 0x2F72 JUMP JUMPDEST PUSH1 0x20 SWAP1 DUP2 MUL SWAP2 SWAP1 SWAP2 ADD ADD MSTORE PUSH1 0x5 DUP2 ADD SLOAD PUSH1 0xFF AND PUSH2 0x24D6 JUMPI PUSH0 DUP8 DUP4 DUP2 MLOAD DUP2 LT PUSH2 0x24C4 JUMPI PUSH2 0x24C4 PUSH2 0x2F72 JUMP JUMPDEST PUSH1 0x20 MUL PUSH1 0x20 ADD ADD DUP2 DUP2 MSTORE POP POP POP PUSH2 0x256F JUMP JUMPDEST PUSH0 PUSH3 0x15180 DUP3 PUSH1 0x2 ADD SLOAD TIMESTAMP PUSH2 0x24EB SWAP2 SWAP1 PUSH2 0x2F9A JUMP JUMPDEST PUSH2 0x24F5 SWAP2 SWAP1 PUSH2 0x2FAD JUMP JUMPDEST SWAP1 POP PUSH0 PUSH2 0x2710 DUP4 PUSH1 0x3 ADD SLOAD DUP5 PUSH0 ADD SLOAD PUSH2 0x250E SWAP2 SWAP1 PUSH2 0x2FCC JUMP JUMPDEST PUSH2 0x2518 SWAP2 SWAP1 PUSH2 0x2FAD JUMP JUMPDEST SWAP1 POP PUSH0 PUSH2 0x2525 DUP4 DUP4 PUSH2 0x2FCC JUMP JUMPDEST SWAP1 POP PUSH0 DUP5 PUSH1 0x4 ADD SLOAD DUP3 GT PUSH2 0x2539 JUMPI PUSH0 PUSH2 0x2548 JUMP JUMPDEST PUSH1 0x4 DUP6 ADD SLOAD PUSH2 0x2548 SWAP1 DUP4 PUSH2 0x2F9A JUMP JUMPDEST SWAP1 POP DUP1 DUP12 DUP8 DUP2 MLOAD DUP2 LT PUSH2 0x255D JUMPI PUSH2 0x255D PUSH2 0x2F72 JUMP JUMPDEST PUSH1 0x20 MUL PUSH1 0x20 ADD ADD DUP2 DUP2 MSTORE POP POP POP POP POP POP POP JUMPDEST PUSH1 0x1 ADD PUSH2 0x23E4 JUMP JUMPDEST POP POP POP SWAP3 SWAP6 POP SWAP3 SWAP6 SWAP1 SWAP4 POP JUMP JUMPDEST PUSH1 0x1 PUSH1 0x1 PUSH1 0xA0 SHL SUB DUP2 AND PUSH0 SWAP1 DUP2 MSTORE PUSH1 0x6 PUSH1 0x20 SWAP1 DUP2 MSTORE PUSH1 0x40 DUP1 DUP4 KECCAK256 PUSH1 0xE ADD DUP1 SLOAD DUP3 MLOAD DUP2 DUP6 MUL DUP2 ADD DUP6 ADD SWAP1 SWAP4 MSTORE DUP1 DUP4 MSTORE PUSH1 0x60 SWAP5 SWAP3 SWAP4 SWAP2 SWAP3 SWAP1 SWAP2 DUP5 ADD JUMPDEST DUP3 DUP3 LT ISZERO PUSH2 0x260B JUMPI DUP4 DUP3 SWAP1 PUSH0 MSTORE PUSH1 0x20 PUSH0 KECCAK256 SWAP1 PUSH1 0x3 MUL ADD PUSH1 0x40 MLOAD DUP1 PUSH1 0x60 ADD PUSH1 0x40 MSTORE SWAP1 DUP2 PUSH0 DUP3 ADD SLOAD DUP2 MSTORE PUSH1 0x20 ADD PUSH1 0x1 DUP3 ADD SLOAD DUP2 MSTORE PUSH1 0x20 ADD PUSH1 0x2 DUP3 ADD SLOAD DUP2 MSTORE POP POP DUP2 MSTORE PUSH1 0x20 ADD SWAP1 PUSH1 0x1 ADD SWAP1 PUSH2 0x25BE JUMP JUMPDEST POP POP POP POP SWAP1 POP SWAP2 SWAP1 POP JUMP JUMPDEST PUSH1 0x1 PUSH1 0x1 PUSH1 0xA0 SHL SUB DUP2 AND PUSH0 SWAP1 DUP2 MSTORE PUSH1 0x6 PUSH1 0x20 MSTORE PUSH1 0x40 SWAP1 KECCAK256 SLOAD PUSH2 0x2670 JUMPI PUSH1 0x40 MLOAD PUSH3 0x461BCD PUSH1 0xE5 SHL DUP2 MSTORE PUSH1 0x20 PUSH1 0x4 DUP3 ADD MSTORE PUSH1 0x13 PUSH1 0x24 DUP3 ADD MSTORE PUSH19 0x7265666572726572206E6F7420657869737473 PUSH1 0x68 SHL PUSH1 0x44 DUP3 ADD MSTORE PUSH1 0x64 ADD PUSH2 0x58D JUMP JUMPDEST PUSH1 0x1 PUSH1 0x1 PUSH1 0xA0 SHL SUB DUP3 DUP2 AND PUSH0 SWAP1 DUP2 MSTORE PUSH1 0x6 PUSH1 0x20 MSTORE PUSH1 0x40 SWAP1 KECCAK256 PUSH1 0x1 ADD SLOAD AND ISZERO PUSH2 0x26D1 JUMPI PUSH1 0x40 MLOAD PUSH3 0x461BCD PUSH1 0xE5 SHL DUP2 MSTORE PUSH1 0x20 PUSH1 0x4 DUP3 ADD MSTORE PUSH1 0x14 PUSH1 0x24 DUP3 ADD MSTORE PUSH20 0x149959995C9C985B08105B1C9958591E4814D95D PUSH1 0x62 SHL PUSH1 0x44 DUP3 ADD MSTORE PUSH1 0x64 ADD PUSH2 0x58D JUMP JUMPDEST PUSH1 0x1 PUSH1 0x1 PUSH1 0xA0 SHL SUB DUP3 DUP2 AND PUSH0 SWAP1 DUP2 MSTORE PUSH1 0x6 PUSH1 0x20 MSTORE PUSH1 0x40 DUP1 DUP3 KECCAK256 PUSH1 0x1 ADD DUP1 SLOAD PUSH1 0x1 PUSH1 0x1 PUSH1 0xA0 SHL SUB NOT AND SWAP4 DUP6 AND SWAP4 DUP5 OR SWAP1 SSTORE SWAP2 DUP2 MSTORE SWAP1 DUP2 KECCAK256 PUSH1 0x3 ADD DUP1 SLOAD SWAP2 PUSH2 0x2716 DUP4 PUSH2 0x30CE JUMP JUMPDEST SWAP1 SWAP2 SSTORE POP POP PUSH1 0x1 PUSH1 0x1 PUSH1 0xA0 SHL SUB DUP3 DUP2 AND PUSH0 DUP2 DUP2 MSTORE PUSH1 0x6 PUSH1 0x20 MSTORE PUSH1 0x40 DUP1 DUP3 KECCAK256 SLOAD SWAP4 DUP6 AND DUP1 DUP4 MSTORE SWAP2 DUP2 SWAP1 KECCAK256 SLOAD SWAP1 MLOAD SWAP2 SWAP4 PUSH31 0xDAF80470D36B7F80CA04A76669714675AD8A767B3228C3A17B57CE22058AC9 SWAP3 PUSH2 0x2778 SWAP3 SWAP1 SWAP2 DUP3 MSTORE PUSH1 0x20 DUP3 ADD MSTORE PUSH1 0x40 ADD SWAP1 JUMP JUMPDEST PUSH1 0x40 MLOAD DUP1 SWAP2 SUB SWAP1 LOG3 POP POP JUMP JUMPDEST PUSH1 0x1 PUSH1 0x1 PUSH1 0xA0 SHL SUB DUP1 DUP3 AND PUSH0 SWAP1 DUP2 MSTORE PUSH1 0x6 PUSH1 0x20 MSTORE PUSH1 0x40 DUP2 KECCAK256 PUSH1 0x1 ADD SLOAD SWAP1 SWAP2 AND SWAP1 JUMPDEST PUSH1 0x5 SLOAD DUP2 PUSH1 0xFF AND LT ISZERO PUSH2 0x1A00 JUMPI PUSH1 0x1 PUSH1 0x1 PUSH1 0xA0 SHL SUB DUP3 AND ISZERO PUSH2 0x1A00 JUMPI PUSH1 0x1 PUSH1 0x1 PUSH1 0xA0 SHL SUB DUP3 AND PUSH0 SWAP1 DUP2 MSTORE PUSH1 0x6 PUSH1 0x20 MSTORE PUSH1 0x40 DUP2 KECCAK256 PUSH1 0xC ADD DUP1 SLOAD DUP7 SWAP3 SWAP1 PUSH2 0x27EB SWAP1 DUP5 SWAP1 PUSH2 0x2FE3 JUMP JUMPDEST SWAP1 SWAP2 SSTORE POP POP PUSH1 0x1 PUSH1 0x1 PUSH1 0xA0 SHL SUB SWAP2 DUP3 AND PUSH0 SWAP1 DUP2 MSTORE PUSH1 0x6 PUSH1 0x20 MSTORE PUSH1 0x40 SWAP1 KECCAK256 PUSH1 0x1 ADD SLOAD SWAP1 SWAP2 AND SWAP1 DUP1 PUSH2 0x281A DUP2 PUSH2 0x3079 JUMP JUMPDEST SWAP2 POP POP PUSH2 0x27A5 JUMP JUMPDEST PUSH1 0x1 PUSH1 0x1 PUSH1 0xA0 SHL SUB DUP1 DUP3 AND PUSH0 SWAP1 DUP2 MSTORE PUSH1 0x6 PUSH1 0x20 MSTORE PUSH1 0x40 SWAP1 KECCAK256 PUSH1 0x1 SWAP1 DUP2 ADD SLOAD SWAP1 SWAP2 AND SWAP1 JUMPDEST PUSH1 0x1E DUP2 PUSH1 0xFF AND GT PUSH2 0x1A00 JUMPI PUSH1 0x1 PUSH1 0x1 PUSH1 0xA0 SHL SUB DUP3 AND ISZERO PUSH2 0x1A00 JUMPI PUSH0 PUSH2 0x286A DUP3 DUP5 PUSH2 0x2AEC JUMP JUMPDEST SWAP1 POP PUSH0 PUSH1 0x64 PUSH2 0x2879 DUP4 DUP9 PUSH2 0x2FCC JUMP JUMPDEST PUSH2 0x2883 SWAP2 SWAP1 PUSH2 0x2FAD JUMP JUMPDEST SWAP1 POP DUP1 ISZERO PUSH2 0x294D JUMPI PUSH1 0x1 SLOAD PUSH1 0x40 MLOAD PUSH4 0xA9059CBB PUSH1 0xE0 SHL DUP2 MSTORE PUSH1 0x1 PUSH1 0x1 PUSH1 0xA0 SHL SUB DUP7 DUP2 AND PUSH1 0x4 DUP4 ADD MSTORE PUSH1 0x24 DUP3 ADD DUP5 SWAP1 MSTORE SWAP1 SWAP2 AND SWAP1 PUSH4 0xA9059CBB SWAP1 PUSH1 0x44 ADD PUSH1 0x20 PUSH1 0x40 MLOAD DUP1 DUP4 SUB DUP2 PUSH0 DUP8 GAS CALL ISZERO DUP1 ISZERO PUSH2 0x28DB JUMPI RETURNDATASIZE PUSH0 PUSH0 RETURNDATACOPY RETURNDATASIZE PUSH0 REVERT JUMPDEST POP POP POP POP PUSH1 0x40 MLOAD RETURNDATASIZE PUSH1 0x1F NOT PUSH1 0x1F DUP3 ADD AND DUP3 ADD DUP1 PUSH1 0x40 MSTORE POP DUP2 ADD SWAP1 PUSH2 0x28FF SWAP2 SWAP1 PUSH2 0x2FF6 JUMP JUMPDEST POP PUSH1 0x40 DUP1 MLOAD PUSH1 0xFF DUP6 AND DUP2 MSTORE PUSH1 0x20 DUP2 ADD DUP4 SWAP1 MSTORE PUSH1 0x1 PUSH1 0x1 PUSH1 0xA0 SHL SUB DUP1 DUP8 AND SWAP3 SWAP1 DUP9 AND SWAP2 PUSH32 0x566F5A6632D8591DFBEC04CE6CC94A1E57E98E83D507257143F926D8EFD01D03 SWAP2 ADD PUSH1 0x40 MLOAD DUP1 SWAP2 SUB SWAP1 LOG3 JUMPDEST POP POP PUSH1 0x1 PUSH1 0x1 PUSH1 0xA0 SHL SUB SWAP2 DUP3 AND PUSH0 SWAP1 DUP2 MSTORE PUSH1 0x6 PUSH1 0x20 MSTORE PUSH1 0x40 SWAP1 KECCAK256 PUSH1 0x1 ADD SLOAD SWAP1 SWAP2 AND SWAP1 DUP1 PUSH2 0x2979 DUP2 PUSH2 0x3079 JUMP JUMPDEST SWAP2 POP POP PUSH2 0x2845 JUMP JUMPDEST PUSH1 0x1 PUSH1 0x1 PUSH1 0xA0 SHL SUB DUP3 AND PUSH0 SWAP1 DUP2 MSTORE PUSH1 0x6 PUSH1 0x20 MSTORE PUSH1 0x40 SWAP1 KECCAK256 SLOAD ISZERO PUSH2 0x29D4 JUMPI PUSH1 0x40 MLOAD PUSH3 0x461BCD PUSH1 0xE5 SHL DUP2 MSTORE PUSH1 0x20 PUSH1 0x4 DUP3 ADD MSTORE PUSH1 0xB PUSH1 0x24 DUP3 ADD MSTORE PUSH11 0x7573657220657869737473 PUSH1 0xA8 SHL PUSH1 0x44 DUP3 ADD MSTORE PUSH1 0x64 ADD PUSH2 0x58D JUMP JUMPDEST PUSH1 0x1 PUSH1 0x1 PUSH1 0xA0 SHL SUB DUP2 AND PUSH0 SWAP1 DUP2 MSTORE PUSH1 0x6 PUSH1 0x20 MSTORE PUSH1 0x40 SWAP1 KECCAK256 SLOAD PUSH2 0x2A2E JUMPI PUSH1 0x40 MLOAD PUSH3 0x461BCD PUSH1 0xE5 SHL DUP2 MSTORE PUSH1 0x20 PUSH1 0x4 DUP3 ADD MSTORE PUSH1 0x13 PUSH1 0x24 DUP3 ADD MSTORE PUSH19 0x7265666572726572206E6F7420657869737473 PUSH1 0x68 SHL PUSH1 0x44 DUP3 ADD MSTORE PUSH1 0x64 ADD PUSH2 0x58D JUMP JUMPDEST PUSH1 0x3 DUP1 SLOAD PUSH1 0x1 PUSH1 0x1 PUSH1 0xA0 SHL SUB DUP1 DUP6 AND PUSH0 DUP2 DUP2 MSTORE PUSH1 0x6 PUSH1 0x20 SWAP1 DUP2 MSTORE PUSH1 0x40 DUP1 DUP4 KECCAK256 SWAP6 DUP7 SSTORE PUSH1 0x2 SWAP1 SWAP6 ADD DUP1 SLOAD SWAP5 DUP9 AND PUSH1 0x1 PUSH1 0x1 PUSH1 0xA0 SHL SUB NOT SWAP6 DUP7 AND OR SWAP1 SSTORE DUP6 SLOAD DUP3 MSTORE PUSH1 0x7 SWAP1 MSTORE SWAP3 DUP4 KECCAK256 DUP1 SLOAD SWAP1 SWAP3 AND OR SWAP1 SSTORE DUP2 SLOAD SWAP2 SWAP1 PUSH2 0x2A89 DUP4 PUSH2 0x30CE JUMP JUMPDEST SWAP1 SWAP2 SSTORE POP POP PUSH1 0x1 PUSH1 0x1 PUSH1 0xA0 SHL SUB DUP3 DUP2 AND PUSH0 DUP2 DUP2 MSTORE PUSH1 0x6 PUSH1 0x20 MSTORE PUSH1 0x40 DUP1 DUP3 KECCAK256 SLOAD SWAP4 DUP6 AND DUP1 DUP4 MSTORE SWAP2 DUP2 SWAP1 KECCAK256 SLOAD SWAP1 MLOAD SWAP2 SWAP4 PUSH32 0x60C0F269B7EA51048F44B9B44DD98960B4BD2867503B86EADC866744DC2C608F SWAP3 PUSH2 0x2778 SWAP3 SWAP1 SWAP2 DUP3 MSTORE PUSH1 0x20 DUP3 ADD MSTORE PUSH1 0x40 ADD SWAP1 JUMP JUMPDEST PUSH1 0x1 PUSH1 0x1 PUSH1 0xA0 SHL SUB DUP2 AND PUSH0 SWAP1 DUP2 MSTORE PUSH1 0x6 PUSH1 0x20 MSTORE PUSH1 0x40 DUP2 KECCAK256 PUSH1 0x3 DUP2 ADD SLOAD PUSH1 0xC SWAP1 SWAP2 ADD SLOAD PUSH1 0x4 DUP3 LT PUSH2 0x2B85 JUMPI DUP5 PUSH1 0xFF AND PUSH1 0x1 EQ DUP1 ISZERO PUSH2 0x2B2B JUMPI POP PUSH2 0x640 DUP2 LT ISZERO JUMPDEST ISZERO PUSH2 0x2B3B JUMPI PUSH1 0x19 SWAP3 POP POP POP PUSH2 0x142D JUMP JUMPDEST DUP5 PUSH1 0xFF AND PUSH1 0x2 EQ DUP1 ISZERO PUSH2 0x2B50 JUMPI POP PUSH2 0x1388 DUP2 LT ISZERO JUMPDEST ISZERO PUSH2 0x2B60 JUMPI PUSH1 0x14 SWAP3 POP POP POP PUSH2 0x142D JUMP JUMPDEST DUP5 PUSH1 0xFF AND PUSH1 0x3 EQ DUP1 ISZERO PUSH2 0x2B75 JUMPI POP PUSH2 0x2710 DUP2 LT ISZERO JUMPDEST ISZERO PUSH2 0x2B85 JUMPI PUSH1 0x14 SWAP3 POP POP POP PUSH2 0x142D JUMP JUMPDEST DUP5 PUSH1 0xFF AND PUSH1 0x1 SUB PUSH2 0x2B9B JUMPI PUSH1 0xC SWAP3 POP POP POP PUSH2 0x142D JUMP JUMPDEST PUSH1 0x2 DUP6 PUSH1 0xFF AND LT ISZERO DUP1 ISZERO PUSH2 0x2BB3 JUMPI POP PUSH1 0x4 DUP6 PUSH1 0xFF AND GT ISZERO JUMPDEST ISZERO PUSH2 0x2BC3 JUMPI PUSH1 0xA SWAP3 POP POP POP PUSH2 0x142D JUMP JUMPDEST PUSH1 0x5 DUP6 PUSH1 0xFF AND LT ISZERO DUP1 ISZERO PUSH2 0x2BDB JUMPI POP PUSH1 0x6 DUP6 PUSH1 0xFF AND GT ISZERO JUMPDEST ISZERO PUSH2 0x2BEB JUMPI PUSH1 0x5 SWAP3 POP POP POP PUSH2 0x142D JUMP JUMPDEST PUSH1 0x7 DUP6 PUSH1 0xFF AND LT ISZERO DUP1 ISZERO PUSH2 0x2C03 JUMPI POP PUSH1 0xC DUP6 PUSH1 0xFF AND GT ISZERO JUMPDEST ISZERO PUSH2 0x2C13 JUMPI PUSH1 0x3 SWAP3 POP POP POP PUSH2 0x142D JUMP JUMPDEST PUSH1 0xD DUP6 PUSH1 0xFF AND LT ISZERO DUP1 ISZERO PUSH2 0x2C2B JUMPI POP PUSH1 0x14 DUP6 PUSH1 0xFF AND GT ISZERO JUMPDEST ISZERO PUSH2 0x2C3B JUMPI PUSH1 0x2 SWAP3 POP POP POP PUSH2 0x142D JUMP JUMPDEST PUSH1 0x15 DUP6 PUSH1 0xFF AND LT ISZERO DUP1 ISZERO PUSH2 0x2C53 JUMPI POP PUSH1 0x19 DUP6 PUSH1 0xFF AND GT ISZERO JUMPDEST ISZERO PUSH2 0x2C63 JUMPI PUSH1 0x1 SWAP3 POP POP POP PUSH2 0x142D JUMP JUMPDEST PUSH1 0x1A DUP6 PUSH1 0xFF AND LT ISZERO DUP1 ISZERO PUSH2 0x2C7B JUMPI POP PUSH1 0x1E DUP6 PUSH1 0xFF AND GT ISZERO JUMPDEST ISZERO PUSH2 0x2C8B JUMPI PUSH1 0x4 SWAP3 POP POP POP PUSH2 0x142D JUMP JUMPDEST POP PUSH0 SWAP5 SWAP4 POP POP POP POP JUMP JUMPDEST PUSH0 PUSH1 0x20 DUP3 DUP5 SUB SLT ISZERO PUSH2 0x2CA5 JUMPI PUSH0 PUSH0 REVERT JUMPDEST POP CALLDATALOAD SWAP2 SWAP1 POP JUMP JUMPDEST DUP1 CALLDATALOAD PUSH1 0x1 PUSH1 0x1 PUSH1 0xA0 SHL SUB DUP2 AND DUP2 EQ PUSH2 0x2CC2 JUMPI PUSH0 PUSH0 REVERT JUMPDEST SWAP2 SWAP1 POP JUMP JUMPDEST PUSH0 PUSH1 0x20 DUP3 DUP5 SUB SLT ISZERO PUSH2 0x2CD7 JUMPI PUSH0 PUSH0 REVERT JUMPDEST PUSH2 0x2CE0 DUP3 PUSH2 0x2CAC JUMP JUMPDEST SWAP4 SWAP3 POP POP POP JUMP JUMPDEST DUP1 CALLDATALOAD PUSH1 0xFF DUP2 AND DUP2 EQ PUSH2 0x2CC2 JUMPI PUSH0 PUSH0 REVERT JUMPDEST PUSH0 PUSH0 PUSH1 0x40 DUP4 DUP6 SUB SLT ISZERO PUSH2 0x2D08 JUMPI PUSH0 PUSH0 REVERT JUMPDEST PUSH2 0x2D11 DUP4 PUSH2 0x2CE7 JUMP JUMPDEST SWAP5 PUSH1 0x20 SWAP4 SWAP1 SWAP4 ADD CALLDATALOAD SWAP4 POP POP POP JUMP JUMPDEST PUSH0 PUSH0 PUSH1 0x40 DUP4 DUP6 SUB SLT ISZERO PUSH2 0x2D30 JUMPI PUSH0 PUSH0 REVERT JUMPDEST PUSH2 0x2D11 DUP4 PUSH2 0x2CAC JUMP JUMPDEST PUSH1 0x20 DUP1 DUP3 MSTORE DUP3 MLOAD DUP3 DUP3 ADD DUP2 SWAP1 MSTORE PUSH0 SWAP2 DUP5 ADD SWAP1 PUSH1 0x40 DUP5 ADD SWAP1 DUP4 JUMPDEST DUP2 DUP2 LT ISZERO PUSH2 0x2DAC JUMPI DUP4 MLOAD DUP1 MLOAD DUP5 MSTORE PUSH1 0x20 DUP2 ADD MLOAD PUSH1 0x20 DUP6 ADD MSTORE PUSH1 0x40 DUP2 ADD MLOAD PUSH1 0x40 DUP6 ADD MSTORE PUSH1 0x60 DUP2 ADD MLOAD PUSH1 0x60 DUP6 ADD MSTORE PUSH1 0x80 DUP2 ADD MLOAD PUSH1 0x80 DUP6 ADD MSTORE PUSH1 0xA0 DUP2 ADD MLOAD ISZERO ISZERO PUSH1 0xA0 DUP6 ADD MSTORE POP PUSH1 0xC0 DUP4 ADD SWAP3 POP PUSH1 0x20 DUP5 ADD SWAP4 POP PUSH1 0x1 DUP2 ADD SWAP1 POP PUSH2 0x2D52 JUMP JUMPDEST POP SWAP1 SWAP6 SWAP5 POP POP POP POP POP JUMP JUMPDEST PUSH0 PUSH0 PUSH1 0x40 DUP4 DUP6 SUB SLT ISZERO PUSH2 0x2DC8 JUMPI PUSH0 PUSH0 REVERT JUMPDEST DUP3 CALLDATALOAD SWAP2 POP PUSH2 0x2DD8 PUSH1 0x20 DUP5 ADD PUSH2 0x2CE7 JUMP JUMPDEST SWAP1 POP SWAP3 POP SWAP3 SWAP1 POP JUMP JUMPDEST PUSH0 PUSH0 PUSH1 0x20 DUP4 DUP6 SUB SLT ISZERO PUSH2 0x2DF2 JUMPI PUSH0 PUSH0 REVERT JUMPDEST DUP3 CALLDATALOAD PUSH8 0xFFFFFFFFFFFFFFFF DUP2 GT ISZERO PUSH2 0x2E08 JUMPI PUSH0 PUSH0 REVERT JUMPDEST DUP4 ADD PUSH1 0x1F DUP2 ADD DUP6 SGT PUSH2 0x2E18 JUMPI PUSH0 PUSH0 REVERT JUMPDEST DUP1 CALLDATALOAD PUSH8 0xFFFFFFFFFFFFFFFF DUP2 GT ISZERO PUSH2 0x2E2E JUMPI PUSH0 PUSH0 REVERT JUMPDEST DUP6 PUSH1 0x20 DUP3 PUSH1 0x5 SHL DUP5 ADD ADD GT ISZERO PUSH2 0x2E42 JUMPI PUSH0 PUSH0 REVERT JUMPDEST PUSH1 0x20 SWAP2 SWAP1 SWAP2 ADD SWAP6 SWAP1 SWAP5 POP SWAP3 POP POP POP JUMP JUMPDEST PUSH0 DUP2 MLOAD DUP1 DUP5 MSTORE PUSH1 0x20 DUP5 ADD SWAP4 POP PUSH1 0x20 DUP4 ADD PUSH0 JUMPDEST DUP3 DUP2 LT ISZERO PUSH2 0x2E82 JUMPI DUP2 MLOAD DUP7 MSTORE PUSH1 0x20 SWAP6 DUP7 ADD SWAP6 SWAP1 SWAP2 ADD SWAP1 PUSH1 0x1 ADD PUSH2 0x2E64 JUMP JUMPDEST POP SWAP4 SWAP5 SWAP4 POP POP POP POP JUMP JUMPDEST PUSH1 0xA0 DUP2 MSTORE PUSH0 PUSH2 0x2E9E PUSH1 0xA0 DUP4 ADD DUP9 PUSH2 0x2E52 JUMP JUMPDEST DUP3 DUP2 SUB PUSH1 0x20 DUP5 ADD MSTORE PUSH2 0x2EB0 DUP2 DUP9 PUSH2 0x2E52 JUMP JUMPDEST SWAP1 POP DUP3 DUP2 SUB PUSH1 0x40 DUP5 ADD MSTORE PUSH2 0x2EC4 DUP2 DUP8 PUSH2 0x2E52 JUMP JUMPDEST SWAP1 POP DUP3 DUP2 SUB PUSH1 0x60 DUP5 ADD MSTORE PUSH2 0x2ED8 DUP2 DUP7 PUSH2 0x2E52 JUMP JUMPDEST SWAP1 POP DUP3 DUP2 SUB PUSH1 0x80 DUP5 ADD MSTORE PUSH2 0x2EEC DUP2 DUP6 PUSH2 0x2E52 JUMP JUMPDEST SWAP9 SWAP8 POP POP POP POP POP POP POP POP JUMP JUMPDEST PUSH1 0x20 DUP1 DUP3 MSTORE DUP3 MLOAD DUP3 DUP3 ADD DUP2 SWAP1 MSTORE PUSH0 SWAP2 DUP5 ADD SWAP1 PUSH1 0x40 DUP5 ADD SWAP1 DUP4 JUMPDEST DUP2 DUP2 LT ISZERO PUSH2 0x2DAC JUMPI DUP4 MLOAD DUP1 MLOAD DUP5 MSTORE PUSH1 0x20 DUP2 ADD MLOAD PUSH1 0x20 DUP6 ADD MSTORE PUSH1 0x40 DUP2 ADD MLOAD PUSH1 0x40 DUP6 ADD MSTORE POP PUSH1 0x60 DUP4 ADD SWAP3 POP PUSH1 0x20 DUP5 ADD SWAP4 POP PUSH1 0x1 DUP2 ADD SWAP1 POP PUSH2 0x2F11 JUMP JUMPDEST PUSH1 0x20 DUP1 DUP3 MSTORE PUSH1 0xD SWAP1 DUP3 ADD MSTORE PUSH13 0x139BC81A5B9D995CDD1B595B9D PUSH1 0x9A SHL PUSH1 0x40 DUP3 ADD MSTORE PUSH1 0x60 ADD SWAP1 JUMP JUMPDEST PUSH4 0x4E487B71 PUSH1 0xE0 SHL PUSH0 MSTORE PUSH1 0x32 PUSH1 0x4 MSTORE PUSH1 0x24 PUSH0 REVERT JUMPDEST PUSH4 0x4E487B71 PUSH1 0xE0 SHL PUSH0 MSTORE PUSH1 0x11 PUSH1 0x4 MSTORE PUSH1 0x24 PUSH0 REVERT JUMPDEST DUP2 DUP2 SUB DUP2 DUP2 GT ISZERO PUSH2 0x142D JUMPI PUSH2 0x142D PUSH2 0x2F86 JUMP JUMPDEST PUSH0 DUP3 PUSH2 0x2FC7 JUMPI PUSH4 0x4E487B71 PUSH1 0xE0 SHL PUSH0 MSTORE PUSH1 0x12 PUSH1 0x4 MSTORE PUSH1 0x24 PUSH0 REVERT JUMPDEST POP DIV SWAP1 JUMP JUMPDEST DUP1 DUP3 MUL DUP2 ISZERO DUP3 DUP3 DIV DUP5 EQ OR PUSH2 0x142D JUMPI PUSH2 0x142D PUSH2 0x2F86 JUMP JUMPDEST DUP1 DUP3 ADD DUP1 DUP3 GT ISZERO PUSH2 0x142D JUMPI PUSH2 0x142D PUSH2 0x2F86 JUMP JUMPDEST PUSH0 PUSH1 0x20 DUP3 DUP5 SUB SLT ISZERO PUSH2 0x3006 JUMPI PUSH0 PUSH0 REVERT JUMPDEST DUP2 MLOAD DUP1 ISZERO ISZERO DUP2 EQ PUSH2 0x2CE0 JUMPI PUSH0 PUSH0 REVERT JUMPDEST PUSH1 0x20 DUP1 DUP3 MSTORE PUSH1 0xF SWAP1 DUP3 ADD MSTORE PUSH15 0x151C985B9CD9995C8819985A5B1959 PUSH1 0x8A SHL PUSH1 0x40 DUP3 ADD MSTORE PUSH1 0x60 ADD SWAP1 JUMP JUMPDEST PUSH1 0x20 DUP1 DUP3 MSTORE PUSH1 0xA SWAP1 DUP3 ADD MSTORE PUSH10 0x27B7363C9037BBB732B9 PUSH1 0xB1 SHL PUSH1 0x40 DUP3 ADD MSTORE PUSH1 0x60 ADD SWAP1 JUMP JUMPDEST PUSH0 PUSH1 0x20 DUP3 DUP5 SUB SLT ISZERO PUSH2 0x3072 JUMPI PUSH0 PUSH0 REVERT JUMPDEST POP MLOAD SWAP2 SWAP1 POP JUMP JUMPDEST PUSH0 PUSH1 0xFF DUP3 AND PUSH1 0xFF DUP2 SUB PUSH2 0x308E JUMPI PUSH2 0x308E PUSH2 0x2F86 JUMP JUMPDEST PUSH1 0x1 ADD SWAP3 SWAP2 POP POP JUMP JUMPDEST PUSH1 0x20 DUP1 DUP3 MSTORE PUSH1 0x18 SWAP1 DUP3 ADD MSTORE PUSH32 0x496E76616C696420696E766573746D656E742072616E67650000000000000000 PUSH1 0x40 DUP3 ADD MSTORE PUSH1 0x60 ADD SWAP1 JUMP JUMPDEST PUSH0 PUSH1 0x1 DUP3 ADD PUSH2 0x30DF JUMPI PUSH2 0x30DF PUSH2 0x2F86 JUMP JUMPDEST POP PUSH1 0x1 ADD SWAP1 JUMP JUMPDEST PUSH4 0x4E487B71 PUSH1 0xE0 SHL PUSH0 MSTORE PUSH1 0x41 PUSH1 0x4 MSTORE PUSH1 0x24 PUSH0 REVERT INVALID LOG2 PUSH5 0x6970667358 0x22 SLT KECCAK256 STOP AND EXP 0x27 PUSH32 0xCD69CB4061BE41952F76366D371A43D35602D79B59BD5E77AF734B64736F6C63 NUMBER STOP ADDMOD 0x1E STOP CALLER "
		},
		"gasEstimates": {
			"creation": {
				"codeDepositCost": "2518400",
				"executionCost": "2716",
				"totalCost": "2521116"
			},
			"external": {
				"RATE()": "283",
				"adminDistributeRealTokens(address)": "infinite",
				"arxinvest(uint256,uint8)": "infinite",
				"batchDistribute(address[])": "infinite",
				"buyTokens(uint256)": "infinite",
				"claimCapital(uint8,uint256)": "infinite",
				"claimDailyROI()": "infinite",
				"claimDailyROI2(uint256)": "infinite",
				"claimDailyROI3(uint256)": "infinite",
				"getCurrentClaimableROI(address)": "infinite",
				"getPurchase(address)": "6950",
				"getROIBreakdown(address,uint256)": "infinite",
				"idToAddress(uint256)": "2542",
				"initialize(address)": "197347",
				"isUserExists(address)": "2580",
				"isUserExistsInvst(address)": "4797",
				"lastUserId()": "2384",
				"owner()": "2391",
				"purchases(address)": "28304",
				"realToken()": "2382",
				"registrationEx(address)": "110538",
				"registrationExInvst(address)": "60024",
				"seeHistroyArx(address)": "infinite",
				"seeHistroyInvst(address,uint256)": "infinite",
				"setRealToken(address)": "28960",
				"usdtToken()": "2403",
				"withdrawUSDT()": "infinite"
			},
			"internal": {
				"_getLevelPercentage(uint8,address)": "5057",
				"_sendLevelIncome(uint256,address)": "infinite",
				"_updateTeamBusiness(uint256,address)": "infinite",
				"registration(address,address)": "infinite",
				"registrationinvst(address,address)": "infinite"
			}
		},
		"methodIdentifiers": {
			"RATE()": "664e9704",
			"adminDistributeRealTokens(address)": "bbf7f772",
			"arxinvest(uint256,uint8)": "98232a38",
			"batchDistribute(address[])": "bed24c24",
			"buyTokens(uint256)": "3610724e",
			"claimCapital(uint8,uint256)": "3f0d55fe",
			"claimDailyROI()": "a9510e82",
			"claimDailyROI2(uint256)": "44dd5e7a",
			"claimDailyROI3(uint256)": "21c82e68",
			"getCurrentClaimableROI(address)": "59450a58",
			"getPurchase(address)": "a275999c",
			"getROIBreakdown(address,uint256)": "e8db280c",
			"idToAddress(uint256)": "2a2d0c47",
			"initialize(address)": "c4d66de8",
			"isUserExists(address)": "509222cd",
			"isUserExistsInvst(address)": "21f8c27d",
			"lastUserId()": "348d4487",
			"owner()": "8da5cb5b",
			"purchases(address)": "842a77d3",
			"realToken()": "76636e5a",
			"registrationEx(address)": "9a29647d",
			"registrationExInvst(address)": "6d704b94",
			"seeHistroyArx(address)": "fd6ef0de",
			"seeHistroyInvst(address,uint256)": "838a1b6d",
			"setRealToken(address)": "416b09dc",
			"usdtToken()": "a98ad46c",
			"withdrawUSDT()": "362e496b"
		}
	},
	"abi": [
		{
			"anonymous": false,
			"inputs": [
				{
					"indexed": true,
					"internalType": "address",
					"name": "user",
					"type": "address"
				},
				{
					"indexed": false,
					"internalType": "uint256",
					"name": "amount",
					"type": "uint256"
				}
			],
			"name": "DailyROIClaimed",
			"type": "event"
		},
		{
			"anonymous": false,
			"inputs": [
				{
					"indexed": true,
					"internalType": "address",
					"name": "buyer",
					"type": "address"
				},
				{
					"indexed": false,
					"internalType": "uint256",
					"name": "usdtAmount",
					"type": "uint256"
				},
				{
					"indexed": false,
					"internalType": "uint8",
					"name": "plan",
					"type": "uint8"
				}
			],
			"name": "Investment",
			"type": "event"
		},
		{
			"anonymous": false,
			"inputs": [
				{
					"indexed": true,
					"internalType": "address",
					"name": "sender",
					"type": "address"
				},
				{
					"indexed": true,
					"internalType": "address",
					"name": "receiver",
					"type": "address"
				},
				{
					"indexed": false,
					"internalType": "uint8",
					"name": "level",
					"type": "uint8"
				},
				{
					"indexed": false,
					"internalType": "uint256",
					"name": "levelIncome",
					"type": "uint256"
				}
			],
			"name": "LevelIncome",
			"type": "event"
		},
		{
			"anonymous": false,
			"inputs": [
				{
					"indexed": true,
					"internalType": "address",
					"name": "user",
					"type": "address"
				},
				{
					"indexed": false,
					"internalType": "uint256",
					"name": "amount",
					"type": "uint256"
				}
			],
			"name": "RealTokensDistributed",
			"type": "event"
		},
		{
			"anonymous": false,
			"inputs": [
				{
					"indexed": true,
					"internalType": "address",
					"name": "sender",
					"type": "address"
				},
				{
					"indexed": true,
					"internalType": "address",
					"name": "receiver",
					"type": "address"
				},
				{
					"indexed": false,
					"internalType": "uint256",
					"name": "tokens",
					"type": "uint256"
				}
			],
			"name": "ReferralIncome",
			"type": "event"
		},
		{
			"anonymous": false,
			"inputs": [
				{
					"indexed": true,
					"internalType": "address",
					"name": "user",
					"type": "address"
				},
				{
					"indexed": true,
					"internalType": "address",
					"name": "referrer",
					"type": "address"
				},
				{
					"indexed": false,
					"internalType": "uint256",
					"name": "id",
					"type": "uint256"
				},
				{
					"indexed": false,
					"internalType": "uint256",
					"name": "referrerId",
					"type": "uint256"
				}
			],
			"name": "Registrationico",
			"type": "event"
		},
		{
			"anonymous": false,
			"inputs": [
				{
					"indexed": true,
					"internalType": "address",
					"name": "user",
					"type": "address"
				},
				{
					"indexed": true,
					"internalType": "address",
					"name": "referrer",
					"type": "address"
				},
				{
					"indexed": false,
					"internalType": "uint256",
					"name": "id",
					"type": "uint256"
				},
				{
					"indexed": false,
					"internalType": "uint256",
					"name": "referrerId",
					"type": "uint256"
				}
			],
			"name": "Registrationinvst",
			"type": "event"
		},
		{
			"anonymous": false,
			"inputs": [
				{
					"indexed": true,
					"internalType": "address",
					"name": "buyer",
					"type": "address"
				},
				{
					"indexed": false,
					"internalType": "uint256",
					"name": "usdtAmount",
					"type": "uint256"
				},
				{
					"indexed": false,
					"internalType": "uint256",
					"name": "virtualTokens",
					"type": "uint256"
				}
			],
			"name": "TokensPurchased",
			"type": "event"
		},
		{
			"inputs": [],
			"name": "RATE",
			"outputs": [
				{
					"internalType": "uint256",
					"name": "",
					"type": "uint256"
				}
			],
			"stateMutability": "view",
			"type": "function"
		},
		{
			"inputs": [
				{
					"internalType": "address",
					"name": "user",
					"type": "address"
				}
			],
			"name": "adminDistributeRealTokens",
			"outputs": [],
			"stateMutability": "nonpayable",
			"type": "function"
		},
		{
			"inputs": [
				{
					"internalType": "uint256",
					"name": "usdtAmount",
					"type": "uint256"
				},
				{
					"internalType": "uint8",
					"name": "plan",
					"type": "uint8"
				}
			],
			"name": "arxinvest",
			"outputs": [],
			"stateMutability": "nonpayable",
			"type": "function"
		},
		{
			"inputs": [
				{
					"internalType": "address[]",
					"name": "users",
					"type": "address[]"
				}
			],
			"name": "batchDistribute",
			"outputs": [],
			"stateMutability": "nonpayable",
			"type": "function"
		},
		{
			"inputs": [
				{
					"internalType": "uint256",
					"name": "usdtAmount",
					"type": "uint256"
				}
			],
			"name": "buyTokens",
			"outputs": [],
			"stateMutability": "nonpayable",
			"type": "function"
		},
		{
			"inputs": [
				{
					"internalType": "uint8",
					"name": "plan",
					"type": "uint8"
				},
				{
					"internalType": "uint256",
					"name": "investId",
					"type": "uint256"
				}
			],
			"name": "claimCapital",
			"outputs": [],
			"stateMutability": "nonpayable",
			"type": "function"
		},
		{
			"inputs": [],
			"name": "claimDailyROI",
			"outputs": [],
			"stateMutability": "nonpayable",
			"type": "function"
		},
		{
			"inputs": [
				{
					"internalType": "uint256",
					"name": "plan",
					"type": "uint256"
				}
			],
			"name": "claimDailyROI2",
			"outputs": [],
			"stateMutability": "nonpayable",
			"type": "function"
		},
		{
			"inputs": [
				{
					"internalType": "uint256",
					"name": "plan",
					"type": "uint256"
				}
			],
			"name": "claimDailyROI3",
			"outputs": [],
			"stateMutability": "nonpayable",
			"type": "function"
		},
		{
			"inputs": [
				{
					"internalType": "address",
					"name": "_user",
					"type": "address"
				}
			],
			"name": "getCurrentClaimableROI",
			"outputs": [
				{
					"internalType": "uint256",
					"name": "",
					"type": "uint256"
				}
			],
			"stateMutability": "view",
			"type": "function"
		},
		{
			"inputs": [
				{
					"internalType": "address",
					"name": "user",
					"type": "address"
				}
			],
			"name": "getPurchase",
			"outputs": [
				{
					"internalType": "uint256",
					"name": "usdtSpent",
					"type": "uint256"
				},
				{
					"internalType": "uint256",
					"name": "tokensReceived",
					"type": "uint256"
				},
				{
					"internalType": "bool",
					"name": "distributed",
					"type": "bool"
				}
			],
			"stateMutability": "view",
			"type": "function"
		},
		{
			"inputs": [
				{
					"internalType": "address",
					"name": "user",
					"type": "address"
				},
				{
					"internalType": "uint256",
					"name": "plan",
					"type": "uint256"
				}
			],
			"name": "getROIBreakdown",
			"outputs": [
				{
					"internalType": "uint256[]",
					"name": "usdtAmounts",
					"type": "uint256[]"
				},
				{
					"internalType": "uint256[]",
					"name": "claimedROIs",
					"type": "uint256[]"
				},
				{
					"internalType": "uint256[]",
					"name": "claimableROIs",
					"type": "uint256[]"
				},
				{
					"internalType": "uint256[]",
					"name": "timestamps",
					"type": "uint256[]"
				},
				{
					"internalType": "uint256[]",
					"name": "roiPercents",
					"type": "uint256[]"
				}
			],
			"stateMutability": "view",
			"type": "function"
		},
		{
			"inputs": [
				{
					"internalType": "uint256",
					"name": "",
					"type": "uint256"
				}
			],
			"name": "idToAddress",
			"outputs": [
				{
					"internalType": "address",
					"name": "",
					"type": "address"
				}
			],
			"stateMutability": "view",
			"type": "function"
		},
		{
			"inputs": [
				{
					"internalType": "address",
					"name": "_usdtAddress",
					"type": "address"
				}
			],
			"name": "initialize",
			"outputs": [],
			"stateMutability": "nonpayable",
			"type": "function"
		},
		{
			"inputs": [
				{
					"internalType": "address",
					"name": "_user",
					"type": "address"
				}
			],
			"name": "isUserExists",
			"outputs": [
				{
					"internalType": "bool",
					"name": "",
					"type": "bool"
				}
			],
			"stateMutability": "view",
			"type": "function"
		},
		{
			"inputs": [
				{
					"internalType": "address",
					"name": "_user",
					"type": "address"
				}
			],
			"name": "isUserExistsInvst",
			"outputs": [
				{
					"internalType": "bool",
					"name": "",
					"type": "bool"
				}
			],
			"stateMutability": "view",
			"type": "function"
		},
		{
			"inputs": [],
			"name": "lastUserId",
			"outputs": [
				{
					"internalType": "uint256",
					"name": "",
					"type": "uint256"
				}
			],
			"stateMutability": "view",
			"type": "function"
		},
		{
			"inputs": [],
			"name": "owner",
			"outputs": [
				{
					"internalType": "address",
					"name": "",
					"type": "address"
				}
			],
			"stateMutability": "view",
			"type": "function"
		},
		{
			"inputs": [
				{
					"internalType": "address",
					"name": "",
					"type": "address"
				}
			],
			"name": "purchases",
			"outputs": [
				{
					"internalType": "uint256",
					"name": "id",
					"type": "uint256"
				},
				{
					"internalType": "address",
					"name": "invst_ref",
					"type": "address"
				},
				{
					"internalType": "address",
					"name": "ico_ref",
					"type": "address"
				},
				{
					"internalType": "uint256",
					"name": "partnerCount",
					"type": "uint256"
				},
				{
					"internalType": "uint256",
					"name": "usdtSpentico",
					"type": "uint256"
				},
				{
					"internalType": "uint256",
					"name": "usdtSpentinvst",
					"type": "uint256"
				},
				{
					"internalType": "uint256",
					"name": "tokensReceived",
					"type": "uint256"
				},
				{
					"internalType": "uint256",
					"name": "totalROIClaimed",
					"type": "uint256"
				},
				{
					"internalType": "uint256",
					"name": "targetROI",
					"type": "uint256"
				},
				{
					"internalType": "uint256",
					"name": "lastClaimedAt",
					"type": "uint256"
				},
				{
					"internalType": "bool",
					"name": "distributed",
					"type": "bool"
				},
				{
					"internalType": "uint256",
					"name": "refToken",
					"type": "uint256"
				},
				{
					"internalType": "uint256",
					"name": "teambusiness",
					"type": "uint256"
				}
			],
			"stateMutability": "view",
			"type": "function"
		},
		{
			"inputs": [],
			"name": "realToken",
			"outputs": [
				{
					"internalType": "contract IERC20",
					"name": "",
					"type": "address"
				}
			],
			"stateMutability": "view",
			"type": "function"
		},
		{
			"inputs": [
				{
					"internalType": "address",
					"name": "_referrer",
					"type": "address"
				}
			],
			"name": "registrationEx",
			"outputs": [],
			"stateMutability": "nonpayable",
			"type": "function"
		},
		{
			"inputs": [
				{
					"internalType": "address",
					"name": "_referrer",
					"type": "address"
				}
			],
			"name": "registrationExInvst",
			"outputs": [],
			"stateMutability": "nonpayable",
			"type": "function"
		},
		{
			"inputs": [
				{
					"internalType": "address",
					"name": "useradd",
					"type": "address"
				}
			],
			"name": "seeHistroyArx",
			"outputs": [
				{
					"components": [
						{
							"internalType": "uint256",
							"name": "usdt",
							"type": "uint256"
						},
						{
							"internalType": "uint256",
							"name": "arx",
							"type": "uint256"
						},
						{
							"internalType": "uint256",
							"name": "timestamp",
							"type": "uint256"
						}
					],
					"internalType": "struct ArcanixICO.DetailsICO[]",
					"name": "",
					"type": "tuple[]"
				}
			],
			"stateMutability": "view",
			"type": "function"
		},
		{
			"inputs": [
				{
					"internalType": "address",
					"name": "useradd",
					"type": "address"
				},
				{
					"internalType": "uint256",
					"name": "plan",
					"type": "uint256"
				}
			],
			"name": "seeHistroyInvst",
			"outputs": [
				{
					"components": [
						{
							"internalType": "uint256",
							"name": "usdtAmount",
							"type": "uint256"
						},
						{
							"internalType": "uint256",
							"name": "plan",
							"type": "uint256"
						},
						{
							"internalType": "uint256",
							"name": "timestamp",
							"type": "uint256"
						},
						{
							"internalType": "uint256",
							"name": "roiPercent",
							"type": "uint256"
						},
						{
							"internalType": "uint256",
							"name": "claimedROI",
							"type": "uint256"
						},
						{
							"internalType": "bool",
							"name": "stakestatus",
							"type": "bool"
						}
					],
					"internalType": "struct ArcanixICO.Details[]",
					"name": "",
					"type": "tuple[]"
				}
			],
			"stateMutability": "view",
			"type": "function"
		},
		{
			"inputs": [
				{
					"internalType": "address",
					"name": "_realToken",
					"type": "address"
				}
			],
			"name": "setRealToken",
			"outputs": [],
			"stateMutability": "nonpayable",
			"type": "function"
		},
		{
			"inputs": [],
			"name": "usdtToken",
			"outputs": [
				{
					"internalType": "contract IERC20",
					"name": "",
					"type": "address"
				}
			],
			"stateMutability": "view",
			"type": "function"
		},
		{
			"inputs": [],
			"name": "withdrawUSDT",
			"outputs": [],
			"stateMutability": "nonpayable",
			"type": "function"
		}
	]
}