{
	"data": {
		"bytecode": {
			"linkReferences": {},
			"object": "6080604052348015600e575f5ffd5b5060018055613713806100205f395ff3fe6080604052600436106102a5575f3560e01c8063735de9f71161016f578063c8804b7b116100d8578063ea1b28e011610092578063f3b2aa941161006d578063f3b2aa9414610884578063f851a440146108a3578063f8c8765e146108c2578063fc2ea8a5146108e1575f5ffd5b8063ea1b28e014610831578063eff4228a14610846578063f2fde38b14610865575f5ffd5b8063c8804b7b1461079b578063ca33fa3f146107ba578063cc3d2721146107d3578063d58ea276146107e8578063d8a04dfa14610807578063dc43f0e61461081c575f5ffd5b806384412cc71161012957806384412cc71461063c5780638456cb591461064f5780638da5cb5b1461066357806399f584b31461067f578063a87430ba14610694578063c54e44eb1461077c575f5ffd5b8063735de9f71461058c578063744b611b146105ab57806378981741146105ca5780637b500564146105e9578063817b1cd21461060857806382f4c6a61461061d575f5ffd5b806339a93f35116102115780635c975abb116101cb5780635c975abb146104f357806368a215a2146105105780636b0ac4321461052f5780636b56ee021461054e5780636eeeaaa514610563578063715018a614610578575f5ffd5b806339a93f35146104195780633f4ba83a14610438578063452b47291461044c578063509222cd14610477578063570ca735146104a6578063578013e0146104c5575f5ffd5b80632a2d0c47116102625780632a2d0c471461037c5780632dd4f9b0146103b057806332bc298c146103c5578063348d4487146103da578063375b3c0a146103ef578063383143e514610404575f5ffd5b806302121272146102a957806309fd9bca146102db5780630da5a1b714610312578063117aea11146103275780631a454b921461034857806329fc7bd814610367575b5f5ffd5b3480156102b4575f5ffd5b506102c86102c3366004612dbd565b6108f6565b6040519081526020015b60405180910390f35b3480156102e6575f5ffd5b506006546102fa906001600160a01b031681565b6040516001600160a01b0390911681526020016102d2565b34801561031d575f5ffd5b506102c8600e5481565b348015610332575f5ffd5b50610346610341366004612de8565b610915565b005b348015610353575f5ffd5b506102c8610362366004612dbd565b610df6565b348015610372575f5ffd5b506102c860145481565b348015610387575f5ffd5b506102fa610396366004612dbd565b601e6020525f90815260409020546001600160a01b031681565b3480156103bb575f5ffd5b506102c860155481565b3480156103d0575f5ffd5b506102c860125481565b3480156103e5575f5ffd5b506102c860135481565b3480156103fa575f5ffd5b506102c8600c5481565b34801561040f575f5ffd5b506102c860105481565b348015610424575f5ffd5b50610346610433366004612e1f565b610f14565b348015610443575f5ffd5b50610346611332565b348015610457575f5ffd5b506102c8610466366004612dbd565b601b6020525f908152604090205481565b348015610482575f5ffd5b50610496610491366004612e55565b61136f565b60405190151581526020016102d2565b3480156104b1575f5ffd5b506003546102fa906001600160a01b031681565b3480156104d0575f5ffd5b506104966104df366004612e55565b601c6020525f908152604090205460ff1681565b3480156104fe575f5ffd5b505f54600160a01b900460ff16610496565b34801561051b575f5ffd5b5061034661052a366004612de8565b61138b565b34801561053a575f5ffd5b50610346610549366004612e1f565b611639565b348015610559575f5ffd5b506102c860175481565b34801561056e575f5ffd5b506102c8600b5481565b348015610583575f5ffd5b50610346611c09565b348015610597575f5ffd5b50601f546102fa906001600160a01b031681565b3480156105b6575f5ffd5b506103466105c5366004612de8565b611c1a565b3480156105d5575f5ffd5b506102c86105e4366004612edf565b611ee6565b3480156105f4575f5ffd5b50610346610603366004612f8e565b611f86565b348015610613575f5ffd5b506102c860165481565b348015610628575f5ffd5b506102c8610637366004612dbd565b61206e565b61034661064a366004613016565b61207d565b34801561065a575f5ffd5b506103466121fd565b34801561066e575f5ffd5b505f546001600160a01b03166102fa565b34801561068a575f5ffd5b506102c860095481565b34801561069f575f5ffd5b506107196106ae366004612e55565b601d6020525f9081526040902080546001820154600283015460038401546004850154600586015460068701546007880154600889015460098a0154600a8b0154600b909b0154999a6001600160a01b03909916999798969795969495939492939192909160ff168c565b604080519c8d526001600160a01b03909b1660208d0152998b019890985260608a0196909652608089019490945260a088019290925260c087015260e08601526101008501526101208401526101408301521515610160820152610180016102d2565b348015610787575f5ffd5b506004546102fa906001600160a01b031681565b3480156107a6575f5ffd5b506005546102fa906001600160a01b031681565b3480156107c5575f5ffd5b506011546104969060ff1681565b3480156107de575f5ffd5b506102c8600a5481565b3480156107f3575f5ffd5b50610346610802366004612e1f565b612238565b348015610812575f5ffd5b506102c860075481565b348015610827575f5ffd5b506102c860085481565b34801561083c575f5ffd5b506102c8600d5481565b348015610851575f5ffd5b506102fa610860366004612dbd565b612574565b348015610870575f5ffd5b5061034661087f366004612e55565b61259c565b34801561088f575f5ffd5b5061034661089e366004612dbd565b612615565b3480156108ae575f5ffd5b506002546102fa906001600160a01b031681565b3480156108cd575f5ffd5b506103466108dc3660046130f4565b6126a3565b3480156108ec575f5ffd5b506102c8600f5481565b60198181548110610905575f80fd5b5f91825260209091200154905081565b61091e8261136f565b156109445760405162461bcd60e51b815260040161093b9061314d565b60405180910390fd5b61094d8161136f565b6109995760405162461bcd60e51b815260206004820152601c60248201527f4473636c61623a205265666572726572206e6f74204578697374732100000000604482015260640161093b565b6109c1335b82604051806040016040528060048152602001631554d11560e21b815250612a07565b600b546004546001600160a01b031663dd62ed3e336040516001600160e01b031960e084901b1681526001600160a01b039091166004820152306024820152604401602060405180830381865afa158015610a1e573d5f5f3e3d5ffd5b505050506040513d601f19601f82011682018060405250810190610a42919061317b565b1015610a855760405162461bcd60e51b815260206004820152601260248201527102239b1b630b11d1030b63637bbb0b731b2960751b604482015260640161093b565b60048054600b546040516323b872dd60e01b81526001600160a01b03909216926323b872dd92610ab9923392309201613192565b6020604051808303815f875af1158015610ad5573d5f5f3e3d5ffd5b505050506040513d601f19601f82011682018060405250810190610af991906131b6565b5060048054601f54600b5460405163095ea7b360e01b81526001600160a01b03928316948101949094526024840152169063095ea7b3906044016020604051808303815f875af1158015610b4f573d5f5f3e3d5ffd5b505050506040513d601f19601f82011682018060405250810190610b7391906131b6565b506040805160028082526060820183525f92602083019080368337505060045482519293506001600160a01b0316918391505f90610bb357610bb36131d5565b6001600160a01b039283166020918202929092010152600554825191169082906001908110610be457610be46131d5565b6001600160a01b039283166020918202929092010152601f54600b5460405163d06ca61f60e01b81525f93929092169163d06ca61f91610c2891869060040161322c565b5f60405180830381865afa158015610c42573d5f5f3e3d5ffd5b505050506040513d5f823e601f3d908101601f19168201604052610c69919081019061324c565b601f54600b5482519293506001600160a01b03909116916338ed1739919084906001908110610c9a57610c9a6131d5565b6020026020010151853042600a610cb191906132e7565b6040518663ffffffff1660e01b8152600401610cd1959493929190613300565b5f604051808303815f875af1158015610cec573d5f5f3e3d5ffd5b505050506040513d5f823e601f3d908101601f19168201604052610d13919081019061324c565b50601380546001600160a01b038681165f818152601d60208181526040808420878155968452601e8252832080546001600160a01b03199081168617909155938352526001909301805490911691871691909117905581549190610d768361333b565b90915550506001600160a01b0383165f908152601d60205260408120600201805491610da18361333b565b90915550506001600160a01b038481165f818152601d6020526040808220549387168083529181902054905191935f5160206136be5f395f51905f5292610de89290613353565b60405180910390a350505050565b6040805160028082526060820183525f9283929190602083019080368337505060045482519293506001600160a01b0316918391505f90610e3957610e396131d5565b6001600160a01b039283166020918202929092010152600554825191169082906001908110610e6a57610e6a6131d5565b6001600160a01b039283166020918202929092010152601f5460405163d06ca61f60e01b81525f92919091169063d06ca61f90610ead908790869060040161322c565b5f60405180830381865afa158015610ec7573d5f5f3e3d5ffd5b505050506040513d5f823e601f3d908101601f19168201604052610eee919081019061324c565b905080600181518110610f0357610f036131d5565b602002602001015192505050919050565b610f1d3361136f565b610f4857610f48335b826040518060400160405280600381526020016244534360e81b815250612a07565b610f513361136f565b610f6d5760405162461bcd60e51b815260040161093b90613382565b600c54831015610f8f5760405162461bcd60e51b815260040161093b906133b9565b600d54831115610fb15760405162461bcd60e51b815260040161093b906133f0565b81600114610fd15760405162461bcd60e51b815260040161093b90613427565b335f908152601d6020526040902060060154801561100957808410156110095760405162461bcd60e51b815260040161093b90613472565b6040805160028082526060820183525f92602083019080368337505060045482519293506001600160a01b0316918391505f90611048576110486131d5565b6001600160a01b039283166020918202929092010152600554825191169082906001908110611079576110796131d5565b60200260200101906001600160a01b031690816001600160a01b0316815250505f6110a382611ee6565b90505f670de0b6b3a76400006110b983896134cf565b6110c391906134e6565b60055490915081906001600160a01b031663dd62ed3e336040516001600160e01b031960e084901b1681526001600160a01b039091166004820152306024820152604401602060405180830381865afa158015611122573d5f5f3e3d5ffd5b505050506040513d601f19601f82011682018060405250810190611146919061317b565b10156111895760405162461bcd60e51b815260206004820152601260248201527102229a1b630b11d1030b63637bbb0b731b2960751b604482015260640161093b565b6005546001600160a01b03166323b872dd3330846040518463ffffffff1660e01b81526004016111bb93929190613192565b6020604051808303815f875af11580156111d7573d5f5f3e3d5ffd5b505050506040513d601f19601f820116820180604052508101906111fb91906131b6565b50335f908152601d6020526040812060018101546003909101546001600160a01b0390911691811561124c576040518060400160405280600781526020016605265746f7075760cc1b815250611269565b604051806040016040528060038152602001624e657760e81b8152505b9050336001600160a01b03167fabd608a4ba071391876d4741f99ba49362bd2fc5afcf4f1fc9ecf91d6a73ccf88b86848d6040516112aa9493929190613533565b60405180910390a2335f908152601d60205260408120600681018c905560030180548c92906112da9084906132e7565b9091555050335f908152601d602052604081206003015490819003611325576001600160a01b0384165f908152601d6020526040812060020180549161131f8361333b565b91905055505b5050505050505050505050565b6003546001600160a01b0316336001600160a01b0316146113655760405162461bcd60e51b815260040161093b90613585565b61136d612b82565b565b6001600160a01b03165f908152601d6020526040902054151590565b6113948261136f565b156113b15760405162461bcd60e51b815260040161093b9061314d565b6113ba8161136f565b6114065760405162461bcd60e51b815260206004820181905260248201527f4473636c61623a20526566657272657220646f6573206e6f7420657869737421604482015260640161093b565b61142e828260405180604001604052806005815260200164737444534360d81b815250612a07565b600b546627ca57357c0000905f90829061145090670de0b6b3a76400006134cf565b61145a91906134e6565b60065490915081906001600160a01b031663dd62ed3e336040516001600160e01b031960e084901b1681526001600160a01b039091166004820152306024820152604401602060405180830381865afa1580156114b9573d5f5f3e3d5ffd5b505050506040513d601f19601f820116820180604052508101906114dd919061317b565b101561152b5760405162461bcd60e51b815260206004820181905260248201527f73744473636c61623a20496e73756666696369656e7420616c6c6f77616e6365604482015260640161093b565b6006546001600160a01b03166323b872dd3330846040518463ffffffff1660e01b815260040161155d93929190613192565b6020604051808303815f875af1158015611579573d5f5f3e3d5ffd5b505050506040513d601f19601f8201168201806040525081019061159d91906131b6565b50600654604051630852cd8d60e31b8152600481018390526001600160a01b03909116906342966c68906024015f604051808303815f87803b1580156115e1575f5ffd5b505af11580156115f3573d5f5f3e3d5ffd5b505050506001600160a01b038481165f818152601d6020526040808220549387168083529181902054905191935f5160206136be5f395f51905f5292610de892906135c6565b6116423361136f565b61164f5761164f3361099e565b6116583361136f565b6116745760405162461bcd60e51b815260040161093b90613382565b600c548310156116965760405162461bcd60e51b815260040161093b906133b9565b600d548311156116b85760405162461bcd60e51b815260040161093b906133f0565b81600114806116c75750816002145b6117135760405162461bcd60e51b815260206004820152601d60248201527f53656c656374204f6e6c7920506c616e20466c657869206f7220466978000000604482015260640161093b565b60045483906001600160a01b031663dd62ed3e336040516001600160e01b031960e084901b1681526001600160a01b039091166004820152306024820152604401602060405180830381865afa15801561176f573d5f5f3e3d5ffd5b505050506040513d601f19601f82011682018060405250810190611793919061317b565b10156117d55760405162461bcd60e51b815260206004820152601160248201527003ab9b23a101d1030b63637bbb0b731b29607d1b604482015260640161093b565b335f908152601d6020526040902060060154801561180d578084101561180d5760405162461bcd60e51b815260040161093b90613472565b6004546001600160a01b03166323b872dd3330876040518463ffffffff1660e01b815260040161183f93929190613192565b6020604051808303815f875af115801561185b573d5f5f3e3d5ffd5b505050506040513d601f19601f8201168201806040525081019061187f91906131b6565b5060048054601f5460405163095ea7b360e01b81526001600160a01b039182169381019390935260248301879052169063095ea7b3906044016020604051808303815f875af11580156118d4573d5f5f3e3d5ffd5b505050506040513d601f19601f820116820180604052508101906118f891906131b6565b506040805160028082526060820183525f92602083019080368337505060045482519293506001600160a01b0316918391505f90611938576119386131d5565b6001600160a01b039283166020918202929092010152600554825191169082906001908110611969576119696131d5565b60200260200101906001600160a01b031690816001600160a01b0316815250505f61199382611ee6565b90505f670de0b6b3a76400006119a983896134cf565b6119b391906134e6565b601f5460405163d06ca61f60e01b81529192505f916001600160a01b039091169063d06ca61f906119ea908b90889060040161322c565b5f60405180830381865afa158015611a04573d5f5f3e3d5ffd5b505050506040513d5f823e601f3d908101601f19168201604052611a2b919081019061324c565b601f5481519192506001600160a01b0316906338ed1739908a9084906001908110611a5857611a586131d5565b6020026020010151873042600a611a6f91906132e7565b6040518663ffffffff1660e01b8152600401611a8f959493929190613300565b5f604051808303815f875af1158015611aaa573d5f5f3e3d5ffd5b505050506040513d5f823e601f3d908101601f19168201604052611ad1919081019061324c565b50335f908152601d6020526040812060018101546003909101546001600160a01b03909116918115611b22576040518060400160405280600781526020016605265746f7075760cc1b815250611b3f565b604051806040016040528060038152602001624e657760e81b8152505b9050336001600160a01b03167fabd608a4ba071391876d4741f99ba49362bd2fc5afcf4f1fc9ecf91d6a73ccf88c87848e604051611b8094939291906135f6565b60405180910390a2335f908152601d60205260408120600681018d905560030180548d9290611bb09084906132e7565b9091555050335f908152601d602052604081206003015490819003611bfb576001600160a01b0384165f908152601d60205260408120600201805491611bf58361333b565b91905055505b505050505050505050505050565b611c11612bd6565b61136d5f612c2f565b611c238261136f565b15611c405760405162461bcd60e51b815260040161093b9061314d565b611c498161136f565b611c955760405162461bcd60e51b815260206004820152601c60248201527f4473636c61623a205265666572726572206e6f74204578697374732100000000604482015260640161093b565b611c9e33610f26565b6040805160028082526060820183525f92602083019080368337505060045482519293506001600160a01b0316918391505f90611cdd57611cdd6131d5565b6001600160a01b039283166020918202929092010152600554825191169082906001908110611d0e57611d0e6131d5565b60200260200101906001600160a01b031690816001600160a01b0316815250505f611d3882611ee6565b90505f670de0b6b3a764000082600b54611d5291906134cf565b611d5c91906134e6565b60055490915081906001600160a01b031663dd62ed3e336040516001600160e01b031960e084901b1681526001600160a01b039091166004820152306024820152604401602060405180830381865afa158015611dbb573d5f5f3e3d5ffd5b505050506040513d601f19601f82011682018060405250810190611ddf919061317b565b1015611e225760405162461bcd60e51b815260206004820152601260248201527102229a1b630b11d1030b63637bbb0b731b2960751b604482015260640161093b565b6005546001600160a01b03166323b872dd3330846040518463ffffffff1660e01b8152600401611e5493929190613192565b6020604051808303815f875af1158015611e70573d5f5f3e3d5ffd5b505050506040513d601f19601f82011682018060405250810190611e9491906131b6565b506001600160a01b038581165f818152601d6020526040808220549388168083529181902054905191935f5160206136be5f395f51905f5292611ed79290613625565b60405180910390a35050505050565b601f5460405163d06ca61f60e01b81525f91670de0b6b3a76400009183916001600160a01b03169063d06ca61f90611f24908590889060040161322c565b5f60405180830381865afa158015611f3e573d5f5f3e3d5ffd5b505050506040513d5f823e601f3d908101601f19168201604052611f65919081019061324c565b90508060018251611f769190613653565b81518110610f0357610f036131d5565b5f546001600160a01b03163314611fcb5760405162461bcd60e51b815260206004820152600960248201526837b7363ca7bbb732b960b91b604482015260640161093b565b806001600160a01b031663a9059cbb611feb5f546001600160a01b031690565b611ffd85670de0b6b3a76400006134cf565b6040516001600160e01b031960e085901b1681526001600160a01b03909216600483015260248201526044016020604051808303815f875af1158015612045573d5f5f3e3d5ffd5b505050506040513d601f19601f8201168201806040525081019061206991906131b6565b505050565b60188181548110610905575f80fd5b815f5b85518110156121f55784818151811061209b5761209b6131d5565b60200260200101518210156120ae575f5ffd5b8481815181106120c0576120c06131d5565b6020026020010151826120d39190613653565b9150826001600160a01b03166323b872dd338884815181106120f7576120f76131d5565b6020026020010151888581518110612111576121116131d5565b60200260200101516040518463ffffffff1660e01b815260040161213793929190613192565b6020604051808303815f875af1158015612153573d5f5f3e3d5ffd5b505050506040513d601f19601f8201168201806040525081019061217791906131b6565b5085818151811061218a5761218a6131d5565b60200260200101516001600160a01b03167fbd54bf7a35b4f30a5c2e53df02c464dc7c2a159a96b24dbb41cd9808bd6e2e368683815181106121ce576121ce6131d5565b60200260200101516040516121e591815260200190565b60405180910390a2600101612080565b505050505050565b6003546001600160a01b0316336001600160a01b0316146122305760405162461bcd60e51b815260040161093b90613585565b61136d612c7e565b6122413361136f565b61226d5761226d338260405180604001604052806005815260200164737444534360d81b815250612a07565b6122763361136f565b6122925760405162461bcd60e51b815260040161093b90613382565b600c548310156122b45760405162461bcd60e51b815260040161093b906133b9565b600d548311156122d65760405162461bcd60e51b815260040161093b906133f0565b816001146122f65760405162461bcd60e51b815260040161093b90613427565b335f908152601d6020526040902060060154801561232e578084101561232e5760405162461bcd60e51b815260040161093b90613472565b6627ca57357c00005f8161234a87670de0b6b3a76400006134cf565b61235491906134e6565b6006546040516323b872dd60e01b81529192506001600160a01b0316906323b872dd9061238990339030908690600401613192565b6020604051808303815f875af11580156123a5573d5f5f3e3d5ffd5b505050506040513d601f19601f820116820180604052508101906123c991906131b6565b50600654604051630852cd8d60e31b8152600481018390526001600160a01b03909116906342966c68906024015f604051808303815f87803b15801561240d575f5ffd5b505af115801561241f573d5f5f3e3d5ffd5b505050505f601d5f61242e3390565b6001600160a01b03908116825260208083019390935260409182015f90812060010154338252601d9094529182206003015492169250811561248f576040518060400160405280600781526020016605265746f7075760cc1b8152506124ac565b604051806040016040528060038152602001624e657760e81b8152505b9050336001600160a01b03167fabd608a4ba071391876d4741f99ba49362bd2fc5afcf4f1fc9ecf91d6a73ccf88a86848c6040516124ed9493929190613666565b60405180910390a2335f908152601d60205260408120600681018b905560030180548b929061251d9084906132e7565b9091555050335f908152601d602052604081206003015490819003612568576001600160a01b0384165f908152601d602052604081206002018054916125628361333b565b91905055505b50505050505050505050565b601a8181548110612583575f80fd5b5f918252602090912001546001600160a01b0316905081565b6125a4612bd6565b6001600160a01b0381166126095760405162461bcd60e51b815260206004820152602660248201527f4f776e61626c653a206e6577206f776e657220697320746865207a65726f206160448201526564647265737360d01b606482015260840161093b565b61261281612c2f565b50565b5f546001600160a01b0316331461265a5760405162461bcd60e51b815260206004820152600960248201526837b7363ca7bbb732b960b91b604482015260640161093b565b5f546001600160a01b03166108fc61267a83670de0b6b3a76400006134cf565b6040518115909202915f818181858888f1935050505015801561269f573d5f5f3e3d5ffd5b5050565b5f54600160b01b900460ff16806126c357505f54600160a81b900460ff16155b6127265760405162461bcd60e51b815260206004820152602e60248201527f496e697469616c697a61626c653a20636f6e747261637420697320616c72656160448201526d191e481a5b9a5d1a585b1a5e995960921b606482015260840161093b565b5f54600160b01b900460ff1615801561274e575f805461ffff60a81b191661010160a81b1790555b600480546001600160a01b038088166001600160a01b03199283161790925560058054878416908316179055600680549286169290911691909117905561279482612609565b601f80546001600160a01b0319167310ed43c718714eb63d5aa57b78b54704e256024e17905560408051610140810182526064815260326020820152601e918101829052601460608201819052600a6080830181905260a0830182905260c0830182905260e0830191909152610100820183905261012082019290925261281e9160189190612d5b565b50680340aad21b3b700000600c5569021e19e0c9bab2400000600d556801a055690d9db80000600b556002600955600a601555620151806012556103e8601455610bb87f9fafca4c9c0d5c2cbf85f49fd8ab8212430ce78c2a0cb75b51e0f9c4f9ace003556105dc7f1dd2f4b94a51cfb409e6e317a497f7cfd9013960a1c723f830c49c05a25f08a5556102ee7f804a3d0621e73505f5f0c57c922f3e57d6b48e175551184eb12f80d7b4a9c783556101f47fa952f8c0f40734b22d2328e0f7ff57eeffee78885b9cf2147ff941cc37e1c86e556101907fb48400cb19cf39e58355a7c9fd856f9b5b7298c53856a6766c6b39755ccafa79556011805460ff19169055600160138181556001600160a01b0384165f818152601d602090815260408220859055848252601e90527f873299c6a6c39b8b92f01922bb622df4a3236ea2876aac2da76f6c092cf7e98f80546001600160a01b0319169092179091556129878361333b565b91905055505f6001600160a01b0316826001600160a01b03165f5160206136be5f395f51905f5260015f6040516129e592919091825260208201526060604082018190526005908201526427bbb732b960d91b608082015260a00190565b60405180910390a38015612a00575f805460ff60b01b191690555b5050505050565b612a108361136f565b15612a4c5760405162461bcd60e51b815260206004820152600c60248201526b55736572204578697374732160a01b604482015260640161093b565b612a558261136f565b612a985760405162461bcd60e51b81526020600482015260146024820152735265666572726572206e6f74204578697374732160601b604482015260640161093b565b601380546001600160a01b038581165f818152601d60208181526040808420878155968452601e8252832080546001600160a01b0319908116861790915593835252600184018054909216928716929092179055600990910181905581549190612b018361333b565b90915550506001600160a01b0382165f908152601d60205260408120600901805491612b2c8361333b565b90915550506001600160a01b038381165f818152601d6020526040808220549386168083529181902054905191935f5160206136be5f395f51905f5292612b7592908790613696565b60405180910390a3505050565b612b8a612cc0565b5f805460ff60a01b191690557f5db9ee0a495bf2e6ff9c91a7834c1ba4fdd244a5e8aa4e537bd38aeae4b073aa335b6040516001600160a01b03909116815260200160405180910390a1565b5f546001600160a01b0316331461136d5760405162461bcd60e51b815260206004820181905260248201527f4f776e61626c653a2063616c6c6572206973206e6f7420746865206f776e6572604482015260640161093b565b5f80546001600160a01b038381166001600160a01b0319831681178455604051919092169283917f8be0079c531659141344cd1fd0a4f28419497f9722a3daafe3b4186f6b6457e09190a35050565b612c86612d0f565b5f805460ff60a01b1916600160a01b1790557f62e78cea01bee320cd4e420270b5ea74000d11b0c9f74754ebdbfc544b05a258612bb93390565b5f54600160a01b900460ff1661136d5760405162461bcd60e51b815260206004820152601460248201527314185d5cd8589b194e881b9bdd081c185d5cd95960621b604482015260640161093b565b5f54600160a01b900460ff161561136d5760405162461bcd60e51b815260206004820152601060248201526f14185d5cd8589b194e881c185d5cd95960821b604482015260640161093b565b828054828255905f5260205f20908101928215612d99579160200282015b82811115612d99578251829060ff16905591602001919060010190612d79565b50612da5929150612da9565b5090565b5b80821115612da5575f8155600101612daa565b5f60208284031215612dcd575f5ffd5b5035919050565b6001600160a01b0381168114612612575f5ffd5b5f5f60408385031215612df9575f5ffd5b8235612e0481612dd4565b91506020830135612e1481612dd4565b809150509250929050565b5f5f5f60608486031215612e31575f5ffd5b83359250602084013591506040840135612e4a81612dd4565b809150509250925092565b5f60208284031215612e65575f5ffd5b8135612e7081612dd4565b9392505050565b634e487b7160e01b5f52604160045260245ffd5b604051601f8201601f1916810167ffffffffffffffff81118282101715612eb457612eb4612e77565b604052919050565b5f67ffffffffffffffff821115612ed557612ed5612e77565b5060051b60200190565b5f60208284031215612eef575f5ffd5b813567ffffffffffffffff811115612f05575f5ffd5b8201601f81018413612f15575f5ffd5b8035612f28612f2382612ebc565b612e8b565b8082825260208201915060208360051b850101925086831115612f49575f5ffd5b6020840193505b82841015612f74578335612f6381612dd4565b825260209384019390910190612f50565b9695505050505050565b8035612f8981612dd4565b919050565b5f5f60408385031215612f9f575f5ffd5b823591506020830135612e1481612dd4565b5f82601f830112612fc0575f5ffd5b8135612fce612f2382612ebc565b8082825260208201915060208360051b860101925085831115612fef575f5ffd5b602085015b8381101561300c578035835260209283019201612ff4565b5095945050505050565b5f5f5f5f60808587031215613029575f5ffd5b843567ffffffffffffffff81111561303f575f5ffd5b8501601f8101871361304f575f5ffd5b803561305d612f2382612ebc565b8082825260208201915060208360051b85010192508983111561307e575f5ffd5b6020840193505b828410156130a957833561309881612dd4565b825260209384019390910190613085565b9650505050602085013567ffffffffffffffff8111156130c7575f5ffd5b6130d387828801612fb1565b935050604085013591506130e960608601612f7e565b905092959194509250565b5f5f5f5f60808587031215613107575f5ffd5b843561311281612dd4565b9350602085013561312281612dd4565b9250604085013561313281612dd4565b9150606085013561314281612dd4565b939692955090935050565b6020808252601490820152734473636c61623a2055736572204578697374732160601b604082015260600190565b5f6020828403121561318b575f5ffd5b5051919050565b6001600160a01b039384168152919092166020820152604081019190915260600190565b5f602082840312156131c6575f5ffd5b81518015158114612e70575f5ffd5b634e487b7160e01b5f52603260045260245ffd5b5f8151808452602084019350602083015f5b828110156132225781516001600160a01b03168652602095860195909101906001016131fb565b5093949350505050565b828152604060208201525f61324460408301846131e9565b949350505050565b5f6020828403121561325c575f5ffd5b815167ffffffffffffffff811115613272575f5ffd5b8201601f81018413613282575f5ffd5b8051613290612f2382612ebc565b8082825260208201915060208360051b8501019250868311156132b1575f5ffd5b6020840193505b82841015612f745783518252602093840193909101906132b8565b634e487b7160e01b5f52601160045260245ffd5b808201808211156132fa576132fa6132d3565b92915050565b85815284602082015260a060408201525f61331e60a08301866131e9565b6001600160a01b0394909416606083015250608001529392505050565b5f6001820161334c5761334c6132d3565b5060010190565b828152816020820152606060408201525f6132446060830160048152631554d11560e21b602082015260400190565b60208082526018908201527f4473636c61623a2055736572206e6f7420457869737473210000000000000000604082015260600190565b60208082526019908201527f4d696e696d756d2041637469766174696f6e2069732024363000000000000000604082015260600190565b6020808252601c908201527f4d6178696d756d2041637469766174696f6e2069732024313030303000000000604082015260600190565b6020808252602b908201527f496e2046697820706c616e206f6e6c79205553445420696e766573746d656e7460408201526a081a5cc8185b1b1bddd95960aa1b606082015260800190565b60208082526037908201527f526520496e766573746d656e742053686f756c6420457175616c2f477265617460408201527f6572207468616e206c61737420496e766573746d656e74000000000000000000606082015260800190565b80820281158282048414176132fa576132fa6132d3565b5f8261350057634e487b7160e01b5f52601260045260245ffd5b500490565b5f81518084528060208401602086015e5f602082860101526020601f19601f83011685010191505092915050565b84815283602082015260a060408201525f61356160a08301600381526244534360e81b602082015260400190565b82810360608401526135738186613505565b91505082608083015295945050505050565b60208082526021908201527f466f7262696464656e21204f6e6c79204f70657261746f722043616e2043616c6040820152601b60fa1b606082015260800190565b828152816020820152606060408201525f613244606083016005815264737444534360d81b602082015260400190565b84815283602082015260a060408201525f61356160a0830160048152631554d11560e21b602082015260400190565b828152816020820152606060408201525f61324460608301600381526244534360e81b602082015260400190565b818103818111156132fa576132fa6132d3565b84815283602082015260a060408201525f61356160a083016005815264737444534360d81b602082015260400190565b838152826020820152606060408201525f6136b46060830184613505565b9594505050505056fe5df5c588e24e80ddfa2166a642d3fe27393f08228d5b903311972824fbd0d607a2646970667358221220e44669d26a4f35b03bcdf5951ccf2a09c7a7f6992e75acb73b78ea5a32edbda364736f6c634300081e0033",
			"opcodes": "PUSH1 0x80 PUSH1 0x40 MSTORE CALLVALUE DUP1 ISZERO PUSH1 0xE JUMPI PUSH0 PUSH0 REVERT JUMPDEST POP PUSH1 0x1 DUP1 SSTORE PUSH2 0x3713 DUP1 PUSH2 0x20 PUSH0 CODECOPY PUSH0 RETURN INVALID PUSH1 0x80 PUSH1 0x40 MSTORE PUSH1 0x4 CALLDATASIZE LT PUSH2 0x2A5 JUMPI PUSH0 CALLDATALOAD PUSH1 0xE0 SHR DUP1 PUSH4 0x735DE9F7 GT PUSH2 0x16F JUMPI DUP1 PUSH4 0xC8804B7B GT PUSH2 0xD8 JUMPI DUP1 PUSH4 0xEA1B28E0 GT PUSH2 0x92 JUMPI DUP1 PUSH4 0xF3B2AA94 GT PUSH2 0x6D JUMPI DUP1 PUSH4 0xF3B2AA94 EQ PUSH2 0x884 JUMPI DUP1 PUSH4 0xF851A440 EQ PUSH2 0x8A3 JUMPI DUP1 PUSH4 0xF8C8765E EQ PUSH2 0x8C2 JUMPI DUP1 PUSH4 0xFC2EA8A5 EQ PUSH2 0x8E1 JUMPI PUSH0 PUSH0 REVERT JUMPDEST DUP1 PUSH4 0xEA1B28E0 EQ PUSH2 0x831 JUMPI DUP1 PUSH4 0xEFF4228A EQ PUSH2 0x846 JUMPI DUP1 PUSH4 0xF2FDE38B EQ PUSH2 0x865 JUMPI PUSH0 PUSH0 REVERT JUMPDEST DUP1 PUSH4 0xC8804B7B EQ PUSH2 0x79B JUMPI DUP1 PUSH4 0xCA33FA3F EQ PUSH2 0x7BA JUMPI DUP1 PUSH4 0xCC3D2721 EQ PUSH2 0x7D3 JUMPI DUP1 PUSH4 0xD58EA276 EQ PUSH2 0x7E8 JUMPI DUP1 PUSH4 0xD8A04DFA EQ PUSH2 0x807 JUMPI DUP1 PUSH4 0xDC43F0E6 EQ PUSH2 0x81C JUMPI PUSH0 PUSH0 REVERT JUMPDEST DUP1 PUSH4 0x84412CC7 GT PUSH2 0x129 JUMPI DUP1 PUSH4 0x84412CC7 EQ PUSH2 0x63C JUMPI DUP1 PUSH4 0x8456CB59 EQ PUSH2 0x64F JUMPI DUP1 PUSH4 0x8DA5CB5B EQ PUSH2 0x663 JUMPI DUP1 PUSH4 0x99F584B3 EQ PUSH2 0x67F JUMPI DUP1 PUSH4 0xA87430BA EQ PUSH2 0x694 JUMPI DUP1 PUSH4 0xC54E44EB EQ PUSH2 0x77C JUMPI PUSH0 PUSH0 REVERT JUMPDEST DUP1 PUSH4 0x735DE9F7 EQ PUSH2 0x58C JUMPI DUP1 PUSH4 0x744B611B EQ PUSH2 0x5AB JUMPI DUP1 PUSH4 0x78981741 EQ PUSH2 0x5CA JUMPI DUP1 PUSH4 0x7B500564 EQ PUSH2 0x5E9 JUMPI DUP1 PUSH4 0x817B1CD2 EQ PUSH2 0x608 JUMPI DUP1 PUSH4 0x82F4C6A6 EQ PUSH2 0x61D JUMPI PUSH0 PUSH0 REVERT JUMPDEST DUP1 PUSH4 0x39A93F35 GT PUSH2 0x211 JUMPI DUP1 PUSH4 0x5C975ABB GT PUSH2 0x1CB JUMPI DUP1 PUSH4 0x5C975ABB EQ PUSH2 0x4F3 JUMPI DUP1 PUSH4 0x68A215A2 EQ PUSH2 0x510 JUMPI DUP1 PUSH4 0x6B0AC432 EQ PUSH2 0x52F JUMPI DUP1 PUSH4 0x6B56EE02 EQ PUSH2 0x54E JUMPI DUP1 PUSH4 0x6EEEAAA5 EQ PUSH2 0x563 JUMPI DUP1 PUSH4 0x715018A6 EQ PUSH2 0x578 JUMPI PUSH0 PUSH0 REVERT JUMPDEST DUP1 PUSH4 0x39A93F35 EQ PUSH2 0x419 JUMPI DUP1 PUSH4 0x3F4BA83A EQ PUSH2 0x438 JUMPI DUP1 PUSH4 0x452B4729 EQ PUSH2 0x44C JUMPI DUP1 PUSH4 0x509222CD EQ PUSH2 0x477 JUMPI DUP1 PUSH4 0x570CA735 EQ PUSH2 0x4A6 JUMPI DUP1 PUSH4 0x578013E0 EQ PUSH2 0x4C5 JUMPI PUSH0 PUSH0 REVERT JUMPDEST DUP1 PUSH4 0x2A2D0C47 GT PUSH2 0x262 JUMPI DUP1 PUSH4 0x2A2D0C47 EQ PUSH2 0x37C JUMPI DUP1 PUSH4 0x2DD4F9B0 EQ PUSH2 0x3B0 JUMPI DUP1 PUSH4 0x32BC298C EQ PUSH2 0x3C5 JUMPI DUP1 PUSH4 0x348D4487 EQ PUSH2 0x3DA JUMPI DUP1 PUSH4 0x375B3C0A EQ PUSH2 0x3EF JUMPI DUP1 PUSH4 0x383143E5 EQ PUSH2 0x404 JUMPI PUSH0 PUSH0 REVERT JUMPDEST DUP1 PUSH4 0x2121272 EQ PUSH2 0x2A9 JUMPI DUP1 PUSH4 0x9FD9BCA EQ PUSH2 0x2DB JUMPI DUP1 PUSH4 0xDA5A1B7 EQ PUSH2 0x312 JUMPI DUP1 PUSH4 0x117AEA11 EQ PUSH2 0x327 JUMPI DUP1 PUSH4 0x1A454B92 EQ PUSH2 0x348 JUMPI DUP1 PUSH4 0x29FC7BD8 EQ PUSH2 0x367 JUMPI JUMPDEST PUSH0 PUSH0 REVERT JUMPDEST CALLVALUE DUP1 ISZERO PUSH2 0x2B4 JUMPI PUSH0 PUSH0 REVERT JUMPDEST POP PUSH2 0x2C8 PUSH2 0x2C3 CALLDATASIZE PUSH1 0x4 PUSH2 0x2DBD JUMP JUMPDEST PUSH2 0x8F6 JUMP JUMPDEST PUSH1 0x40 MLOAD SWAP1 DUP2 MSTORE PUSH1 0x20 ADD JUMPDEST PUSH1 0x40 MLOAD DUP1 SWAP2 SUB SWAP1 RETURN JUMPDEST CALLVALUE DUP1 ISZERO PUSH2 0x2E6 JUMPI PUSH0 PUSH0 REVERT JUMPDEST POP PUSH1 0x6 SLOAD PUSH2 0x2FA SWAP1 PUSH1 0x1 PUSH1 0x1 PUSH1 0xA0 SHL SUB AND DUP2 JUMP JUMPDEST PUSH1 0x40 MLOAD PUSH1 0x1 PUSH1 0x1 PUSH1 0xA0 SHL SUB SWAP1 SWAP2 AND DUP2 MSTORE PUSH1 0x20 ADD PUSH2 0x2D2 JUMP JUMPDEST CALLVALUE DUP1 ISZERO PUSH2 0x31D JUMPI PUSH0 PUSH0 REVERT JUMPDEST POP PUSH2 0x2C8 PUSH1 0xE SLOAD DUP2 JUMP JUMPDEST CALLVALUE DUP1 ISZERO PUSH2 0x332 JUMPI PUSH0 PUSH0 REVERT JUMPDEST POP PUSH2 0x346 PUSH2 0x341 CALLDATASIZE PUSH1 0x4 PUSH2 0x2DE8 JUMP JUMPDEST PUSH2 0x915 JUMP JUMPDEST STOP JUMPDEST CALLVALUE DUP1 ISZERO PUSH2 0x353 JUMPI PUSH0 PUSH0 REVERT JUMPDEST POP PUSH2 0x2C8 PUSH2 0x362 CALLDATASIZE PUSH1 0x4 PUSH2 0x2DBD JUMP JUMPDEST PUSH2 0xDF6 JUMP JUMPDEST CALLVALUE DUP1 ISZERO PUSH2 0x372 JUMPI PUSH0 PUSH0 REVERT JUMPDEST POP PUSH2 0x2C8 PUSH1 0x14 SLOAD DUP2 JUMP JUMPDEST CALLVALUE DUP1 ISZERO PUSH2 0x387 JUMPI PUSH0 PUSH0 REVERT JUMPDEST POP PUSH2 0x2FA PUSH2 0x396 CALLDATASIZE PUSH1 0x4 PUSH2 0x2DBD JUMP JUMPDEST PUSH1 0x1E PUSH1 0x20 MSTORE PUSH0 SWAP1 DUP2 MSTORE PUSH1 0x40 SWAP1 KECCAK256 SLOAD PUSH1 0x1 PUSH1 0x1 PUSH1 0xA0 SHL SUB AND DUP2 JUMP JUMPDEST CALLVALUE DUP1 ISZERO PUSH2 0x3BB JUMPI PUSH0 PUSH0 REVERT JUMPDEST POP PUSH2 0x2C8 PUSH1 0x15 SLOAD DUP2 JUMP JUMPDEST CALLVALUE DUP1 ISZERO PUSH2 0x3D0 JUMPI PUSH0 PUSH0 REVERT JUMPDEST POP PUSH2 0x2C8 PUSH1 0x12 SLOAD DUP2 JUMP JUMPDEST CALLVALUE DUP1 ISZERO PUSH2 0x3E5 JUMPI PUSH0 PUSH0 REVERT JUMPDEST POP PUSH2 0x2C8 PUSH1 0x13 SLOAD DUP2 JUMP JUMPDEST CALLVALUE DUP1 ISZERO PUSH2 0x3FA JUMPI PUSH0 PUSH0 REVERT JUMPDEST POP PUSH2 0x2C8 PUSH1 0xC SLOAD DUP2 JUMP JUMPDEST CALLVALUE DUP1 ISZERO PUSH2 0x40F JUMPI PUSH0 PUSH0 REVERT JUMPDEST POP PUSH2 0x2C8 PUSH1 0x10 SLOAD DUP2 JUMP JUMPDEST CALLVALUE DUP1 ISZERO PUSH2 0x424 JUMPI PUSH0 PUSH0 REVERT JUMPDEST POP PUSH2 0x346 PUSH2 0x433 CALLDATASIZE PUSH1 0x4 PUSH2 0x2E1F JUMP JUMPDEST PUSH2 0xF14 JUMP JUMPDEST CALLVALUE DUP1 ISZERO PUSH2 0x443 JUMPI PUSH0 PUSH0 REVERT JUMPDEST POP PUSH2 0x346 PUSH2 0x1332 JUMP JUMPDEST CALLVALUE DUP1 ISZERO PUSH2 0x457 JUMPI PUSH0 PUSH0 REVERT JUMPDEST POP PUSH2 0x2C8 PUSH2 0x466 CALLDATASIZE PUSH1 0x4 PUSH2 0x2DBD JUMP JUMPDEST PUSH1 0x1B PUSH1 0x20 MSTORE PUSH0 SWAP1 DUP2 MSTORE PUSH1 0x40 SWAP1 KECCAK256 SLOAD DUP2 JUMP JUMPDEST CALLVALUE DUP1 ISZERO PUSH2 0x482 JUMPI PUSH0 PUSH0 REVERT JUMPDEST POP PUSH2 0x496 PUSH2 0x491 CALLDATASIZE PUSH1 0x4 PUSH2 0x2E55 JUMP JUMPDEST PUSH2 0x136F JUMP JUMPDEST PUSH1 0x40 MLOAD SWAP1 ISZERO ISZERO DUP2 MSTORE PUSH1 0x20 ADD PUSH2 0x2D2 JUMP JUMPDEST CALLVALUE DUP1 ISZERO PUSH2 0x4B1 JUMPI PUSH0 PUSH0 REVERT JUMPDEST POP PUSH1 0x3 SLOAD PUSH2 0x2FA SWAP1 PUSH1 0x1 PUSH1 0x1 PUSH1 0xA0 SHL SUB AND DUP2 JUMP JUMPDEST CALLVALUE DUP1 ISZERO PUSH2 0x4D0 JUMPI PUSH0 PUSH0 REVERT JUMPDEST POP PUSH2 0x496 PUSH2 0x4DF CALLDATASIZE PUSH1 0x4 PUSH2 0x2E55 JUMP JUMPDEST PUSH1 0x1C PUSH1 0x20 MSTORE PUSH0 SWAP1 DUP2 MSTORE PUSH1 0x40 SWAP1 KECCAK256 SLOAD PUSH1 0xFF AND DUP2 JUMP JUMPDEST CALLVALUE DUP1 ISZERO PUSH2 0x4FE JUMPI PUSH0 PUSH0 REVERT JUMPDEST POP PUSH0 SLOAD PUSH1 0x1 PUSH1 0xA0 SHL SWAP1 DIV PUSH1 0xFF AND PUSH2 0x496 JUMP JUMPDEST CALLVALUE DUP1 ISZERO PUSH2 0x51B JUMPI PUSH0 PUSH0 REVERT JUMPDEST POP PUSH2 0x346 PUSH2 0x52A CALLDATASIZE PUSH1 0x4 PUSH2 0x2DE8 JUMP JUMPDEST PUSH2 0x138B JUMP JUMPDEST CALLVALUE DUP1 ISZERO PUSH2 0x53A JUMPI PUSH0 PUSH0 REVERT JUMPDEST POP PUSH2 0x346 PUSH2 0x549 CALLDATASIZE PUSH1 0x4 PUSH2 0x2E1F JUMP JUMPDEST PUSH2 0x1639 JUMP JUMPDEST CALLVALUE DUP1 ISZERO PUSH2 0x559 JUMPI PUSH0 PUSH0 REVERT JUMPDEST POP PUSH2 0x2C8 PUSH1 0x17 SLOAD DUP2 JUMP JUMPDEST CALLVALUE DUP1 ISZERO PUSH2 0x56E JUMPI PUSH0 PUSH0 REVERT JUMPDEST POP PUSH2 0x2C8 PUSH1 0xB SLOAD DUP2 JUMP JUMPDEST CALLVALUE DUP1 ISZERO PUSH2 0x583 JUMPI PUSH0 PUSH0 REVERT JUMPDEST POP PUSH2 0x346 PUSH2 0x1C09 JUMP JUMPDEST CALLVALUE DUP1 ISZERO PUSH2 0x597 JUMPI PUSH0 PUSH0 REVERT JUMPDEST POP PUSH1 0x1F SLOAD PUSH2 0x2FA SWAP1 PUSH1 0x1 PUSH1 0x1 PUSH1 0xA0 SHL SUB AND DUP2 JUMP JUMPDEST CALLVALUE DUP1 ISZERO PUSH2 0x5B6 JUMPI PUSH0 PUSH0 REVERT JUMPDEST POP PUSH2 0x346 PUSH2 0x5C5 CALLDATASIZE PUSH1 0x4 PUSH2 0x2DE8 JUMP JUMPDEST PUSH2 0x1C1A JUMP JUMPDEST CALLVALUE DUP1 ISZERO PUSH2 0x5D5 JUMPI PUSH0 PUSH0 REVERT JUMPDEST POP PUSH2 0x2C8 PUSH2 0x5E4 CALLDATASIZE PUSH1 0x4 PUSH2 0x2EDF JUMP JUMPDEST PUSH2 0x1EE6 JUMP JUMPDEST CALLVALUE DUP1 ISZERO PUSH2 0x5F4 JUMPI PUSH0 PUSH0 REVERT JUMPDEST POP PUSH2 0x346 PUSH2 0x603 CALLDATASIZE PUSH1 0x4 PUSH2 0x2F8E JUMP JUMPDEST PUSH2 0x1F86 JUMP JUMPDEST CALLVALUE DUP1 ISZERO PUSH2 0x613 JUMPI PUSH0 PUSH0 REVERT JUMPDEST POP PUSH2 0x2C8 PUSH1 0x16 SLOAD DUP2 JUMP JUMPDEST CALLVALUE DUP1 ISZERO PUSH2 0x628 JUMPI PUSH0 PUSH0 REVERT JUMPDEST POP PUSH2 0x2C8 PUSH2 0x637 CALLDATASIZE PUSH1 0x4 PUSH2 0x2DBD JUMP JUMPDEST PUSH2 0x206E JUMP JUMPDEST PUSH2 0x346 PUSH2 0x64A CALLDATASIZE PUSH1 0x4 PUSH2 0x3016 JUMP JUMPDEST PUSH2 0x207D JUMP JUMPDEST CALLVALUE DUP1 ISZERO PUSH2 0x65A JUMPI PUSH0 PUSH0 REVERT JUMPDEST POP PUSH2 0x346 PUSH2 0x21FD JUMP JUMPDEST CALLVALUE DUP1 ISZERO PUSH2 0x66E JUMPI PUSH0 PUSH0 REVERT JUMPDEST POP PUSH0 SLOAD PUSH1 0x1 PUSH1 0x1 PUSH1 0xA0 SHL SUB AND PUSH2 0x2FA JUMP JUMPDEST CALLVALUE DUP1 ISZERO PUSH2 0x68A JUMPI PUSH0 PUSH0 REVERT JUMPDEST POP PUSH2 0x2C8 PUSH1 0x9 SLOAD DUP2 JUMP JUMPDEST CALLVALUE DUP1 ISZERO PUSH2 0x69F JUMPI PUSH0 PUSH0 REVERT JUMPDEST POP PUSH2 0x719 PUSH2 0x6AE CALLDATASIZE PUSH1 0x4 PUSH2 0x2E55 JUMP JUMPDEST PUSH1 0x1D PUSH1 0x20 MSTORE PUSH0 SWAP1 DUP2 MSTORE PUSH1 0x40 SWAP1 KECCAK256 DUP1 SLOAD PUSH1 0x1 DUP3 ADD SLOAD PUSH1 0x2 DUP4 ADD SLOAD PUSH1 0x3 DUP5 ADD SLOAD PUSH1 0x4 DUP6 ADD SLOAD PUSH1 0x5 DUP7 ADD SLOAD PUSH1 0x6 DUP8 ADD SLOAD PUSH1 0x7 DUP9 ADD SLOAD PUSH1 0x8 DUP10 ADD SLOAD PUSH1 0x9 DUP11 ADD SLOAD PUSH1 0xA DUP12 ADD SLOAD PUSH1 0xB SWAP1 SWAP12 ADD SLOAD SWAP10 SWAP11 PUSH1 0x1 PUSH1 0x1 PUSH1 0xA0 SHL SUB SWAP1 SWAP10 AND SWAP10 SWAP8 SWAP9 SWAP7 SWAP8 SWAP6 SWAP7 SWAP5 SWAP6 SWAP4 SWAP5 SWAP3 SWAP4 SWAP2 SWAP3 SWAP1 SWAP2 PUSH1 0xFF AND DUP13 JUMP JUMPDEST PUSH1 0x40 DUP1 MLOAD SWAP13 DUP14 MSTORE PUSH1 0x1 PUSH1 0x1 PUSH1 0xA0 SHL SUB SWAP1 SWAP12 AND PUSH1 0x20 DUP14 ADD MSTORE SWAP10 DUP12 ADD SWAP9 SWAP1 SWAP9 MSTORE PUSH1 0x60 DUP11 ADD SWAP7 SWAP1 SWAP7 MSTORE PUSH1 0x80 DUP10 ADD SWAP5 SWAP1 SWAP5 MSTORE PUSH1 0xA0 DUP9 ADD SWAP3 SWAP1 SWAP3 MSTORE PUSH1 0xC0 DUP8 ADD MSTORE PUSH1 0xE0 DUP7 ADD MSTORE PUSH2 0x100 DUP6 ADD MSTORE PUSH2 0x120 DUP5 ADD MSTORE PUSH2 0x140 DUP4 ADD MSTORE ISZERO ISZERO PUSH2 0x160 DUP3 ADD MSTORE PUSH2 0x180 ADD PUSH2 0x2D2 JUMP JUMPDEST CALLVALUE DUP1 ISZERO PUSH2 0x787 JUMPI PUSH0 PUSH0 REVERT JUMPDEST POP PUSH1 0x4 SLOAD PUSH2 0x2FA SWAP1 PUSH1 0x1 PUSH1 0x1 PUSH1 0xA0 SHL SUB AND DUP2 JUMP JUMPDEST CALLVALUE DUP1 ISZERO PUSH2 0x7A6 JUMPI PUSH0 PUSH0 REVERT JUMPDEST POP PUSH1 0x5 SLOAD PUSH2 0x2FA SWAP1 PUSH1 0x1 PUSH1 0x1 PUSH1 0xA0 SHL SUB AND DUP2 JUMP JUMPDEST CALLVALUE DUP1 ISZERO PUSH2 0x7C5 JUMPI PUSH0 PUSH0 REVERT JUMPDEST POP PUSH1 0x11 SLOAD PUSH2 0x496 SWAP1 PUSH1 0xFF AND DUP2 JUMP JUMPDEST CALLVALUE DUP1 ISZERO PUSH2 0x7DE JUMPI PUSH0 PUSH0 REVERT JUMPDEST POP PUSH2 0x2C8 PUSH1 0xA SLOAD DUP2 JUMP JUMPDEST CALLVALUE DUP1 ISZERO PUSH2 0x7F3 JUMPI PUSH0 PUSH0 REVERT JUMPDEST POP PUSH2 0x346 PUSH2 0x802 CALLDATASIZE PUSH1 0x4 PUSH2 0x2E1F JUMP JUMPDEST PUSH2 0x2238 JUMP JUMPDEST CALLVALUE DUP1 ISZERO PUSH2 0x812 JUMPI PUSH0 PUSH0 REVERT JUMPDEST POP PUSH2 0x2C8 PUSH1 0x7 SLOAD DUP2 JUMP JUMPDEST CALLVALUE DUP1 ISZERO PUSH2 0x827 JUMPI PUSH0 PUSH0 REVERT JUMPDEST POP PUSH2 0x2C8 PUSH1 0x8 SLOAD DUP2 JUMP JUMPDEST CALLVALUE DUP1 ISZERO PUSH2 0x83C JUMPI PUSH0 PUSH0 REVERT JUMPDEST POP PUSH2 0x2C8 PUSH1 0xD SLOAD DUP2 JUMP JUMPDEST CALLVALUE DUP1 ISZERO PUSH2 0x851 JUMPI PUSH0 PUSH0 REVERT JUMPDEST POP PUSH2 0x2FA PUSH2 0x860 CALLDATASIZE PUSH1 0x4 PUSH2 0x2DBD JUMP JUMPDEST PUSH2 0x2574 JUMP JUMPDEST CALLVALUE DUP1 ISZERO PUSH2 0x870 JUMPI PUSH0 PUSH0 REVERT JUMPDEST POP PUSH2 0x346 PUSH2 0x87F CALLDATASIZE PUSH1 0x4 PUSH2 0x2E55 JUMP JUMPDEST PUSH2 0x259C JUMP JUMPDEST CALLVALUE DUP1 ISZERO PUSH2 0x88F JUMPI PUSH0 PUSH0 REVERT JUMPDEST POP PUSH2 0x346 PUSH2 0x89E CALLDATASIZE PUSH1 0x4 PUSH2 0x2DBD JUMP JUMPDEST PUSH2 0x2615 JUMP JUMPDEST CALLVALUE DUP1 ISZERO PUSH2 0x8AE JUMPI PUSH0 PUSH0 REVERT JUMPDEST POP PUSH1 0x2 SLOAD PUSH2 0x2FA SWAP1 PUSH1 0x1 PUSH1 0x1 PUSH1 0xA0 SHL SUB AND DUP2 JUMP JUMPDEST CALLVALUE DUP1 ISZERO PUSH2 0x8CD JUMPI PUSH0 PUSH0 REVERT JUMPDEST POP PUSH2 0x346 PUSH2 0x8DC CALLDATASIZE PUSH1 0x4 PUSH2 0x30F4 JUMP JUMPDEST PUSH2 0x26A3 JUMP JUMPDEST CALLVALUE DUP1 ISZERO PUSH2 0x8EC JUMPI PUSH0 PUSH0 REVERT JUMPDEST POP PUSH2 0x2C8 PUSH1 0xF SLOAD DUP2 JUMP JUMPDEST PUSH1 0x19 DUP2 DUP2 SLOAD DUP2 LT PUSH2 0x905 JUMPI PUSH0 DUP1 REVERT JUMPDEST PUSH0 SWAP2 DUP3 MSTORE PUSH1 0x20 SWAP1 SWAP2 KECCAK256 ADD SLOAD SWAP1 POP DUP2 JUMP JUMPDEST PUSH2 0x91E DUP3 PUSH2 0x136F JUMP JUMPDEST ISZERO PUSH2 0x944 JUMPI PUSH1 0x40 MLOAD PUSH3 0x461BCD PUSH1 0xE5 SHL DUP2 MSTORE PUSH1 0x4 ADD PUSH2 0x93B SWAP1 PUSH2 0x314D JUMP JUMPDEST PUSH1 0x40 MLOAD DUP1 SWAP2 SUB SWAP1 REVERT JUMPDEST PUSH2 0x94D DUP2 PUSH2 0x136F JUMP JUMPDEST PUSH2 0x999 JUMPI PUSH1 0x40 MLOAD PUSH3 0x461BCD PUSH1 0xE5 SHL DUP2 MSTORE PUSH1 0x20 PUSH1 0x4 DUP3 ADD MSTORE PUSH1 0x1C PUSH1 0x24 DUP3 ADD MSTORE PUSH32 0x4473636C61623A205265666572726572206E6F74204578697374732100000000 PUSH1 0x44 DUP3 ADD MSTORE PUSH1 0x64 ADD PUSH2 0x93B JUMP JUMPDEST PUSH2 0x9C1 CALLER JUMPDEST DUP3 PUSH1 0x40 MLOAD DUP1 PUSH1 0x40 ADD PUSH1 0x40 MSTORE DUP1 PUSH1 0x4 DUP2 MSTORE PUSH1 0x20 ADD PUSH4 0x1554D115 PUSH1 0xE2 SHL DUP2 MSTORE POP PUSH2 0x2A07 JUMP JUMPDEST PUSH1 0xB SLOAD PUSH1 0x4 SLOAD PUSH1 0x1 PUSH1 0x1 PUSH1 0xA0 SHL SUB AND PUSH4 0xDD62ED3E CALLER PUSH1 0x40 MLOAD PUSH1 0x1 PUSH1 0x1 PUSH1 0xE0 SHL SUB NOT PUSH1 0xE0 DUP5 SWAP1 SHL AND DUP2 MSTORE PUSH1 0x1 PUSH1 0x1 PUSH1 0xA0 SHL SUB SWAP1 SWAP2 AND PUSH1 0x4 DUP3 ADD MSTORE ADDRESS PUSH1 0x24 DUP3 ADD MSTORE PUSH1 0x44 ADD PUSH1 0x20 PUSH1 0x40 MLOAD DUP1 DUP4 SUB DUP2 DUP7 GAS STATICCALL ISZERO DUP1 ISZERO PUSH2 0xA1E JUMPI RETURNDATASIZE PUSH0 PUSH0 RETURNDATACOPY RETURNDATASIZE PUSH0 REVERT JUMPDEST POP POP POP POP PUSH1 0x40 MLOAD RETURNDATASIZE PUSH1 0x1F NOT PUSH1 0x1F DUP3 ADD AND DUP3 ADD DUP1 PUSH1 0x40 MSTORE POP DUP2 ADD SWAP1 PUSH2 0xA42 SWAP2 SWAP1 PUSH2 0x317B JUMP JUMPDEST LT ISZERO PUSH2 0xA85 JUMPI PUSH1 0x40 MLOAD PUSH3 0x461BCD PUSH1 0xE5 SHL DUP2 MSTORE PUSH1 0x20 PUSH1 0x4 DUP3 ADD MSTORE PUSH1 0x12 PUSH1 0x24 DUP3 ADD MSTORE PUSH18 0x2239B1B630B11D1030B63637BBB0B731B29 PUSH1 0x75 SHL PUSH1 0x44 DUP3 ADD MSTORE PUSH1 0x64 ADD PUSH2 0x93B JUMP JUMPDEST PUSH1 0x4 DUP1 SLOAD PUSH1 0xB SLOAD PUSH1 0x40 MLOAD PUSH4 0x23B872DD PUSH1 0xE0 SHL DUP2 MSTORE PUSH1 0x1 PUSH1 0x1 PUSH1 0xA0 SHL SUB SWAP1 SWAP3 AND SWAP3 PUSH4 0x23B872DD SWAP3 PUSH2 0xAB9 SWAP3 CALLER SWAP3 ADDRESS SWAP3 ADD PUSH2 0x3192 JUMP JUMPDEST PUSH1 0x20 PUSH1 0x40 MLOAD DUP1 DUP4 SUB DUP2 PUSH0 DUP8 GAS CALL ISZERO DUP1 ISZERO PUSH2 0xAD5 JUMPI RETURNDATASIZE PUSH0 PUSH0 RETURNDATACOPY RETURNDATASIZE PUSH0 REVERT JUMPDEST POP POP POP POP PUSH1 0x40 MLOAD RETURNDATASIZE PUSH1 0x1F NOT PUSH1 0x1F DUP3 ADD AND DUP3 ADD DUP1 PUSH1 0x40 MSTORE POP DUP2 ADD SWAP1 PUSH2 0xAF9 SWAP2 SWAP1 PUSH2 0x31B6 JUMP JUMPDEST POP PUSH1 0x4 DUP1 SLOAD PUSH1 0x1F SLOAD PUSH1 0xB SLOAD PUSH1 0x40 MLOAD PUSH4 0x95EA7B3 PUSH1 0xE0 SHL DUP2 MSTORE PUSH1 0x1 PUSH1 0x1 PUSH1 0xA0 SHL SUB SWAP3 DUP4 AND SWAP5 DUP2 ADD SWAP5 SWAP1 SWAP5 MSTORE PUSH1 0x24 DUP5 ADD MSTORE AND SWAP1 PUSH4 0x95EA7B3 SWAP1 PUSH1 0x44 ADD PUSH1 0x20 PUSH1 0x40 MLOAD DUP1 DUP4 SUB DUP2 PUSH0 DUP8 GAS CALL ISZERO DUP1 ISZERO PUSH2 0xB4F JUMPI RETURNDATASIZE PUSH0 PUSH0 RETURNDATACOPY RETURNDATASIZE PUSH0 REVERT JUMPDEST POP POP POP POP PUSH1 0x40 MLOAD RETURNDATASIZE PUSH1 0x1F NOT PUSH1 0x1F DUP3 ADD AND DUP3 ADD DUP1 PUSH1 0x40 MSTORE POP DUP2 ADD SWAP1 PUSH2 0xB73 SWAP2 SWAP1 PUSH2 0x31B6 JUMP JUMPDEST POP PUSH1 0x40 DUP1 MLOAD PUSH1 0x2 DUP1 DUP3 MSTORE PUSH1 0x60 DUP3 ADD DUP4 MSTORE PUSH0 SWAP3 PUSH1 0x20 DUP4 ADD SWAP1 DUP1 CALLDATASIZE DUP4 CALLDATACOPY POP POP PUSH1 0x4 SLOAD DUP3 MLOAD SWAP3 SWAP4 POP PUSH1 0x1 PUSH1 0x1 PUSH1 0xA0 SHL SUB AND SWAP2 DUP4 SWAP2 POP PUSH0 SWAP1 PUSH2 0xBB3 JUMPI PUSH2 0xBB3 PUSH2 0x31D5 JUMP JUMPDEST PUSH1 0x1 PUSH1 0x1 PUSH1 0xA0 SHL SUB SWAP3 DUP4 AND PUSH1 0x20 SWAP2 DUP3 MUL SWAP3 SWAP1 SWAP3 ADD ADD MSTORE PUSH1 0x5 SLOAD DUP3 MLOAD SWAP2 AND SWAP1 DUP3 SWAP1 PUSH1 0x1 SWAP1 DUP2 LT PUSH2 0xBE4 JUMPI PUSH2 0xBE4 PUSH2 0x31D5 JUMP JUMPDEST PUSH1 0x1 PUSH1 0x1 PUSH1 0xA0 SHL SUB SWAP3 DUP4 AND PUSH1 0x20 SWAP2 DUP3 MUL SWAP3 SWAP1 SWAP3 ADD ADD MSTORE PUSH1 0x1F SLOAD PUSH1 0xB SLOAD PUSH1 0x40 MLOAD PUSH4 0xD06CA61F PUSH1 0xE0 SHL DUP2 MSTORE PUSH0 SWAP4 SWAP3 SWAP1 SWAP3 AND SWAP2 PUSH4 0xD06CA61F SWAP2 PUSH2 0xC28 SWAP2 DUP7 SWAP1 PUSH1 0x4 ADD PUSH2 0x322C JUMP JUMPDEST PUSH0 PUSH1 0x40 MLOAD DUP1 DUP4 SUB DUP2 DUP7 GAS STATICCALL ISZERO DUP1 ISZERO PUSH2 0xC42 JUMPI RETURNDATASIZE PUSH0 PUSH0 RETURNDATACOPY RETURNDATASIZE PUSH0 REVERT JUMPDEST POP POP POP POP PUSH1 0x40 MLOAD RETURNDATASIZE PUSH0 DUP3 RETURNDATACOPY PUSH1 0x1F RETURNDATASIZE SWAP1 DUP2 ADD PUSH1 0x1F NOT AND DUP3 ADD PUSH1 0x40 MSTORE PUSH2 0xC69 SWAP2 SWAP1 DUP2 ADD SWAP1 PUSH2 0x324C JUMP JUMPDEST PUSH1 0x1F SLOAD PUSH1 0xB SLOAD DUP3 MLOAD SWAP3 SWAP4 POP PUSH1 0x1 PUSH1 0x1 PUSH1 0xA0 SHL SUB SWAP1 SWAP2 AND SWAP2 PUSH4 0x38ED1739 SWAP2 SWAP1 DUP5 SWAP1 PUSH1 0x1 SWAP1 DUP2 LT PUSH2 0xC9A JUMPI PUSH2 0xC9A PUSH2 0x31D5 JUMP JUMPDEST PUSH1 0x20 MUL PUSH1 0x20 ADD ADD MLOAD DUP6 ADDRESS TIMESTAMP PUSH1 0xA PUSH2 0xCB1 SWAP2 SWAP1 PUSH2 0x32E7 JUMP JUMPDEST PUSH1 0x40 MLOAD DUP7 PUSH4 0xFFFFFFFF AND PUSH1 0xE0 SHL DUP2 MSTORE PUSH1 0x4 ADD PUSH2 0xCD1 SWAP6 SWAP5 SWAP4 SWAP3 SWAP2 SWAP1 PUSH2 0x3300 JUMP JUMPDEST PUSH0 PUSH1 0x40 MLOAD DUP1 DUP4 SUB DUP2 PUSH0 DUP8 GAS CALL ISZERO DUP1 ISZERO PUSH2 0xCEC JUMPI RETURNDATASIZE PUSH0 PUSH0 RETURNDATACOPY RETURNDATASIZE PUSH0 REVERT JUMPDEST POP POP POP POP PUSH1 0x40 MLOAD RETURNDATASIZE PUSH0 DUP3 RETURNDATACOPY PUSH1 0x1F RETURNDATASIZE SWAP1 DUP2 ADD PUSH1 0x1F NOT AND DUP3 ADD PUSH1 0x40 MSTORE PUSH2 0xD13 SWAP2 SWAP1 DUP2 ADD SWAP1 PUSH2 0x324C JUMP JUMPDEST POP PUSH1 0x13 DUP1 SLOAD PUSH1 0x1 PUSH1 0x1 PUSH1 0xA0 SHL SUB DUP7 DUP2 AND PUSH0 DUP2 DUP2 MSTORE PUSH1 0x1D PUSH1 0x20 DUP2 DUP2 MSTORE PUSH1 0x40 DUP1 DUP5 KECCAK256 DUP8 DUP2 SSTORE SWAP7 DUP5 MSTORE PUSH1 0x1E DUP3 MSTORE DUP4 KECCAK256 DUP1 SLOAD PUSH1 0x1 PUSH1 0x1 PUSH1 0xA0 SHL SUB NOT SWAP1 DUP2 AND DUP7 OR SWAP1 SWAP2 SSTORE SWAP4 DUP4 MSTORE MSTORE PUSH1 0x1 SWAP1 SWAP4 ADD DUP1 SLOAD SWAP1 SWAP2 AND SWAP2 DUP8 AND SWAP2 SWAP1 SWAP2 OR SWAP1 SSTORE DUP2 SLOAD SWAP2 SWAP1 PUSH2 0xD76 DUP4 PUSH2 0x333B JUMP JUMPDEST SWAP1 SWAP2 SSTORE POP POP PUSH1 0x1 PUSH1 0x1 PUSH1 0xA0 SHL SUB DUP4 AND PUSH0 SWAP1 DUP2 MSTORE PUSH1 0x1D PUSH1 0x20 MSTORE PUSH1 0x40 DUP2 KECCAK256 PUSH1 0x2 ADD DUP1 SLOAD SWAP2 PUSH2 0xDA1 DUP4 PUSH2 0x333B JUMP JUMPDEST SWAP1 SWAP2 SSTORE POP POP PUSH1 0x1 PUSH1 0x1 PUSH1 0xA0 SHL SUB DUP5 DUP2 AND PUSH0 DUP2 DUP2 MSTORE PUSH1 0x1D PUSH1 0x20 MSTORE PUSH1 0x40 DUP1 DUP3 KECCAK256 SLOAD SWAP4 DUP8 AND DUP1 DUP4 MSTORE SWAP2 DUP2 SWAP1 KECCAK256 SLOAD SWAP1 MLOAD SWAP2 SWAP4 PUSH0 MLOAD PUSH1 0x20 PUSH2 0x36BE PUSH0 CODECOPY PUSH0 MLOAD SWAP1 PUSH0 MSTORE SWAP3 PUSH2 0xDE8 SWAP3 SWAP1 PUSH2 0x3353 JUMP JUMPDEST PUSH1 0x40 MLOAD DUP1 SWAP2 SUB SWAP1 LOG3 POP POP POP POP JUMP JUMPDEST PUSH1 0x40 DUP1 MLOAD PUSH1 0x2 DUP1 DUP3 MSTORE PUSH1 0x60 DUP3 ADD DUP4 MSTORE PUSH0 SWAP3 DUP4 SWAP3 SWAP2 SWAP1 PUSH1 0x20 DUP4 ADD SWAP1 DUP1 CALLDATASIZE DUP4 CALLDATACOPY POP POP PUSH1 0x4 SLOAD DUP3 MLOAD SWAP3 SWAP4 POP PUSH1 0x1 PUSH1 0x1 PUSH1 0xA0 SHL SUB AND SWAP2 DUP4 SWAP2 POP PUSH0 SWAP1 PUSH2 0xE39 JUMPI PUSH2 0xE39 PUSH2 0x31D5 JUMP JUMPDEST PUSH1 0x1 PUSH1 0x1 PUSH1 0xA0 SHL SUB SWAP3 DUP4 AND PUSH1 0x20 SWAP2 DUP3 MUL SWAP3 SWAP1 SWAP3 ADD ADD MSTORE PUSH1 0x5 SLOAD DUP3 MLOAD SWAP2 AND SWAP1 DUP3 SWAP1 PUSH1 0x1 SWAP1 DUP2 LT PUSH2 0xE6A JUMPI PUSH2 0xE6A PUSH2 0x31D5 JUMP JUMPDEST PUSH1 0x1 PUSH1 0x1 PUSH1 0xA0 SHL SUB SWAP3 DUP4 AND PUSH1 0x20 SWAP2 DUP3 MUL SWAP3 SWAP1 SWAP3 ADD ADD MSTORE PUSH1 0x1F SLOAD PUSH1 0x40 MLOAD PUSH4 0xD06CA61F PUSH1 0xE0 SHL DUP2 MSTORE PUSH0 SWAP3 SWAP2 SWAP1 SWAP2 AND SWAP1 PUSH4 0xD06CA61F SWAP1 PUSH2 0xEAD SWAP1 DUP8 SWAP1 DUP7 SWAP1 PUSH1 0x4 ADD PUSH2 0x322C JUMP JUMPDEST PUSH0 PUSH1 0x40 MLOAD DUP1 DUP4 SUB DUP2 DUP7 GAS STATICCALL ISZERO DUP1 ISZERO PUSH2 0xEC7 JUMPI RETURNDATASIZE PUSH0 PUSH0 RETURNDATACOPY RETURNDATASIZE PUSH0 REVERT JUMPDEST POP POP POP POP PUSH1 0x40 MLOAD RETURNDATASIZE PUSH0 DUP3 RETURNDATACOPY PUSH1 0x1F RETURNDATASIZE SWAP1 DUP2 ADD PUSH1 0x1F NOT AND DUP3 ADD PUSH1 0x40 MSTORE PUSH2 0xEEE SWAP2 SWAP1 DUP2 ADD SWAP1 PUSH2 0x324C JUMP JUMPDEST SWAP1 POP DUP1 PUSH1 0x1 DUP2 MLOAD DUP2 LT PUSH2 0xF03 JUMPI PUSH2 0xF03 PUSH2 0x31D5 JUMP JUMPDEST PUSH1 0x20 MUL PUSH1 0x20 ADD ADD MLOAD SWAP3 POP POP POP SWAP2 SWAP1 POP JUMP JUMPDEST PUSH2 0xF1D CALLER PUSH2 0x136F JUMP JUMPDEST PUSH2 0xF48 JUMPI PUSH2 0xF48 CALLER JUMPDEST DUP3 PUSH1 0x40 MLOAD DUP1 PUSH1 0x40 ADD PUSH1 0x40 MSTORE DUP1 PUSH1 0x3 DUP2 MSTORE PUSH1 0x20 ADD PUSH3 0x445343 PUSH1 0xE8 SHL DUP2 MSTORE POP PUSH2 0x2A07 JUMP JUMPDEST PUSH2 0xF51 CALLER PUSH2 0x136F JUMP JUMPDEST PUSH2 0xF6D JUMPI PUSH1 0x40 MLOAD PUSH3 0x461BCD PUSH1 0xE5 SHL DUP2 MSTORE PUSH1 0x4 ADD PUSH2 0x93B SWAP1 PUSH2 0x3382 JUMP JUMPDEST PUSH1 0xC SLOAD DUP4 LT ISZERO PUSH2 0xF8F JUMPI PUSH1 0x40 MLOAD PUSH3 0x461BCD PUSH1 0xE5 SHL DUP2 MSTORE PUSH1 0x4 ADD PUSH2 0x93B SWAP1 PUSH2 0x33B9 JUMP JUMPDEST PUSH1 0xD SLOAD DUP4 GT ISZERO PUSH2 0xFB1 JUMPI PUSH1 0x40 MLOAD PUSH3 0x461BCD PUSH1 0xE5 SHL DUP2 MSTORE PUSH1 0x4 ADD PUSH2 0x93B SWAP1 PUSH2 0x33F0 JUMP JUMPDEST DUP2 PUSH1 0x1 EQ PUSH2 0xFD1 JUMPI PUSH1 0x40 MLOAD PUSH3 0x461BCD PUSH1 0xE5 SHL DUP2 MSTORE PUSH1 0x4 ADD PUSH2 0x93B SWAP1 PUSH2 0x3427 JUMP JUMPDEST CALLER PUSH0 SWAP1 DUP2 MSTORE PUSH1 0x1D PUSH1 0x20 MSTORE PUSH1 0x40 SWAP1 KECCAK256 PUSH1 0x6 ADD SLOAD DUP1 ISZERO PUSH2 0x1009 JUMPI DUP1 DUP5 LT ISZERO PUSH2 0x1009 JUMPI PUSH1 0x40 MLOAD PUSH3 0x461BCD PUSH1 0xE5 SHL DUP2 MSTORE PUSH1 0x4 ADD PUSH2 0x93B SWAP1 PUSH2 0x3472 JUMP JUMPDEST PUSH1 0x40 DUP1 MLOAD PUSH1 0x2 DUP1 DUP3 MSTORE PUSH1 0x60 DUP3 ADD DUP4 MSTORE PUSH0 SWAP3 PUSH1 0x20 DUP4 ADD SWAP1 DUP1 CALLDATASIZE DUP4 CALLDATACOPY POP POP PUSH1 0x4 SLOAD DUP3 MLOAD SWAP3 SWAP4 POP PUSH1 0x1 PUSH1 0x1 PUSH1 0xA0 SHL SUB AND SWAP2 DUP4 SWAP2 POP PUSH0 SWAP1 PUSH2 0x1048 JUMPI PUSH2 0x1048 PUSH2 0x31D5 JUMP JUMPDEST PUSH1 0x1 PUSH1 0x1 PUSH1 0xA0 SHL SUB SWAP3 DUP4 AND PUSH1 0x20 SWAP2 DUP3 MUL SWAP3 SWAP1 SWAP3 ADD ADD MSTORE PUSH1 0x5 SLOAD DUP3 MLOAD SWAP2 AND SWAP1 DUP3 SWAP1 PUSH1 0x1 SWAP1 DUP2 LT PUSH2 0x1079 JUMPI PUSH2 0x1079 PUSH2 0x31D5 JUMP JUMPDEST PUSH1 0x20 MUL PUSH1 0x20 ADD ADD SWAP1 PUSH1 0x1 PUSH1 0x1 PUSH1 0xA0 SHL SUB AND SWAP1 DUP2 PUSH1 0x1 PUSH1 0x1 PUSH1 0xA0 SHL SUB AND DUP2 MSTORE POP POP PUSH0 PUSH2 0x10A3 DUP3 PUSH2 0x1EE6 JUMP JUMPDEST SWAP1 POP PUSH0 PUSH8 0xDE0B6B3A7640000 PUSH2 0x10B9 DUP4 DUP10 PUSH2 0x34CF JUMP JUMPDEST PUSH2 0x10C3 SWAP2 SWAP1 PUSH2 0x34E6 JUMP JUMPDEST PUSH1 0x5 SLOAD SWAP1 SWAP2 POP DUP2 SWAP1 PUSH1 0x1 PUSH1 0x1 PUSH1 0xA0 SHL SUB AND PUSH4 0xDD62ED3E CALLER PUSH1 0x40 MLOAD PUSH1 0x1 PUSH1 0x1 PUSH1 0xE0 SHL SUB NOT PUSH1 0xE0 DUP5 SWAP1 SHL AND DUP2 MSTORE PUSH1 0x1 PUSH1 0x1 PUSH1 0xA0 SHL SUB SWAP1 SWAP2 AND PUSH1 0x4 DUP3 ADD MSTORE ADDRESS PUSH1 0x24 DUP3 ADD MSTORE PUSH1 0x44 ADD PUSH1 0x20 PUSH1 0x40 MLOAD DUP1 DUP4 SUB DUP2 DUP7 GAS STATICCALL ISZERO DUP1 ISZERO PUSH2 0x1122 JUMPI RETURNDATASIZE PUSH0 PUSH0 RETURNDATACOPY RETURNDATASIZE PUSH0 REVERT JUMPDEST POP POP POP POP PUSH1 0x40 MLOAD RETURNDATASIZE PUSH1 0x1F NOT PUSH1 0x1F DUP3 ADD AND DUP3 ADD DUP1 PUSH1 0x40 MSTORE POP DUP2 ADD SWAP1 PUSH2 0x1146 SWAP2 SWAP1 PUSH2 0x317B JUMP JUMPDEST LT ISZERO PUSH2 0x1189 JUMPI PUSH1 0x40 MLOAD PUSH3 0x461BCD PUSH1 0xE5 SHL DUP2 MSTORE PUSH1 0x20 PUSH1 0x4 DUP3 ADD MSTORE PUSH1 0x12 PUSH1 0x24 DUP3 ADD MSTORE PUSH18 0x2229A1B630B11D1030B63637BBB0B731B29 PUSH1 0x75 SHL PUSH1 0x44 DUP3 ADD MSTORE PUSH1 0x64 ADD PUSH2 0x93B JUMP JUMPDEST PUSH1 0x5 SLOAD PUSH1 0x1 PUSH1 0x1 PUSH1 0xA0 SHL SUB AND PUSH4 0x23B872DD CALLER ADDRESS DUP5 PUSH1 0x40 MLOAD DUP5 PUSH4 0xFFFFFFFF AND PUSH1 0xE0 SHL DUP2 MSTORE PUSH1 0x4 ADD PUSH2 0x11BB SWAP4 SWAP3 SWAP2 SWAP1 PUSH2 0x3192 JUMP JUMPDEST PUSH1 0x20 PUSH1 0x40 MLOAD DUP1 DUP4 SUB DUP2 PUSH0 DUP8 GAS CALL ISZERO DUP1 ISZERO PUSH2 0x11D7 JUMPI RETURNDATASIZE PUSH0 PUSH0 RETURNDATACOPY RETURNDATASIZE PUSH0 REVERT JUMPDEST POP POP POP POP PUSH1 0x40 MLOAD RETURNDATASIZE PUSH1 0x1F NOT PUSH1 0x1F DUP3 ADD AND DUP3 ADD DUP1 PUSH1 0x40 MSTORE POP DUP2 ADD SWAP1 PUSH2 0x11FB SWAP2 SWAP1 PUSH2 0x31B6 JUMP JUMPDEST POP CALLER PUSH0 SWAP1 DUP2 MSTORE PUSH1 0x1D PUSH1 0x20 MSTORE PUSH1 0x40 DUP2 KECCAK256 PUSH1 0x1 DUP2 ADD SLOAD PUSH1 0x3 SWAP1 SWAP2 ADD SLOAD PUSH1 0x1 PUSH1 0x1 PUSH1 0xA0 SHL SUB SWAP1 SWAP2 AND SWAP2 DUP2 ISZERO PUSH2 0x124C JUMPI PUSH1 0x40 MLOAD DUP1 PUSH1 0x40 ADD PUSH1 0x40 MSTORE DUP1 PUSH1 0x7 DUP2 MSTORE PUSH1 0x20 ADD PUSH7 0x5265746F70757 PUSH1 0xCC SHL DUP2 MSTORE POP PUSH2 0x1269 JUMP JUMPDEST PUSH1 0x40 MLOAD DUP1 PUSH1 0x40 ADD PUSH1 0x40 MSTORE DUP1 PUSH1 0x3 DUP2 MSTORE PUSH1 0x20 ADD PUSH3 0x4E6577 PUSH1 0xE8 SHL DUP2 MSTORE POP JUMPDEST SWAP1 POP CALLER PUSH1 0x1 PUSH1 0x1 PUSH1 0xA0 SHL SUB AND PUSH32 0xABD608A4BA071391876D4741F99BA49362BD2FC5AFCF4F1FC9ECF91D6A73CCF8 DUP12 DUP7 DUP5 DUP14 PUSH1 0x40 MLOAD PUSH2 0x12AA SWAP5 SWAP4 SWAP3 SWAP2 SWAP1 PUSH2 0x3533 JUMP JUMPDEST PUSH1 0x40 MLOAD DUP1 SWAP2 SUB SWAP1 LOG2 CALLER PUSH0 SWAP1 DUP2 MSTORE PUSH1 0x1D PUSH1 0x20 MSTORE PUSH1 0x40 DUP2 KECCAK256 PUSH1 0x6 DUP2 ADD DUP13 SWAP1 SSTORE PUSH1 0x3 ADD DUP1 SLOAD DUP13 SWAP3 SWAP1 PUSH2 0x12DA SWAP1 DUP5 SWAP1 PUSH2 0x32E7 JUMP JUMPDEST SWAP1 SWAP2 SSTORE POP POP CALLER PUSH0 SWAP1 DUP2 MSTORE PUSH1 0x1D PUSH1 0x20 MSTORE PUSH1 0x40 DUP2 KECCAK256 PUSH1 0x3 ADD SLOAD SWAP1 DUP2 SWAP1 SUB PUSH2 0x1325 JUMPI PUSH1 0x1 PUSH1 0x1 PUSH1 0xA0 SHL SUB DUP5 AND PUSH0 SWAP1 DUP2 MSTORE PUSH1 0x1D PUSH1 0x20 MSTORE PUSH1 0x40 DUP2 KECCAK256 PUSH1 0x2 ADD DUP1 SLOAD SWAP2 PUSH2 0x131F DUP4 PUSH2 0x333B JUMP JUMPDEST SWAP2 SWAP1 POP SSTORE POP JUMPDEST POP POP POP POP POP POP POP POP POP POP POP JUMP JUMPDEST PUSH1 0x3 SLOAD PUSH1 0x1 PUSH1 0x1 PUSH1 0xA0 SHL SUB AND CALLER PUSH1 0x1 PUSH1 0x1 PUSH1 0xA0 SHL SUB AND EQ PUSH2 0x1365 JUMPI PUSH1 0x40 MLOAD PUSH3 0x461BCD PUSH1 0xE5 SHL DUP2 MSTORE PUSH1 0x4 ADD PUSH2 0x93B SWAP1 PUSH2 0x3585 JUMP JUMPDEST PUSH2 0x136D PUSH2 0x2B82 JUMP JUMPDEST JUMP JUMPDEST PUSH1 0x1 PUSH1 0x1 PUSH1 0xA0 SHL SUB AND PUSH0 SWAP1 DUP2 MSTORE PUSH1 0x1D PUSH1 0x20 MSTORE PUSH1 0x40 SWAP1 KECCAK256 SLOAD ISZERO ISZERO SWAP1 JUMP JUMPDEST PUSH2 0x1394 DUP3 PUSH2 0x136F JUMP JUMPDEST ISZERO PUSH2 0x13B1 JUMPI PUSH1 0x40 MLOAD PUSH3 0x461BCD PUSH1 0xE5 SHL DUP2 MSTORE PUSH1 0x4 ADD PUSH2 0x93B SWAP1 PUSH2 0x314D JUMP JUMPDEST PUSH2 0x13BA DUP2 PUSH2 0x136F JUMP JUMPDEST PUSH2 0x1406 JUMPI PUSH1 0x40 MLOAD PUSH3 0x461BCD PUSH1 0xE5 SHL DUP2 MSTORE PUSH1 0x20 PUSH1 0x4 DUP3 ADD DUP2 SWAP1 MSTORE PUSH1 0x24 DUP3 ADD MSTORE PUSH32 0x4473636C61623A20526566657272657220646F6573206E6F7420657869737421 PUSH1 0x44 DUP3 ADD MSTORE PUSH1 0x64 ADD PUSH2 0x93B JUMP JUMPDEST PUSH2 0x142E DUP3 DUP3 PUSH1 0x40 MLOAD DUP1 PUSH1 0x40 ADD PUSH1 0x40 MSTORE DUP1 PUSH1 0x5 DUP2 MSTORE PUSH1 0x20 ADD PUSH5 0x7374445343 PUSH1 0xD8 SHL DUP2 MSTORE POP PUSH2 0x2A07 JUMP JUMPDEST PUSH1 0xB SLOAD PUSH7 0x27CA57357C0000 SWAP1 PUSH0 SWAP1 DUP3 SWAP1 PUSH2 0x1450 SWAP1 PUSH8 0xDE0B6B3A7640000 PUSH2 0x34CF JUMP JUMPDEST PUSH2 0x145A SWAP2 SWAP1 PUSH2 0x34E6 JUMP JUMPDEST PUSH1 0x6 SLOAD SWAP1 SWAP2 POP DUP2 SWAP1 PUSH1 0x1 PUSH1 0x1 PUSH1 0xA0 SHL SUB AND PUSH4 0xDD62ED3E CALLER PUSH1 0x40 MLOAD PUSH1 0x1 PUSH1 0x1 PUSH1 0xE0 SHL SUB NOT PUSH1 0xE0 DUP5 SWAP1 SHL AND DUP2 MSTORE PUSH1 0x1 PUSH1 0x1 PUSH1 0xA0 SHL SUB SWAP1 SWAP2 AND PUSH1 0x4 DUP3 ADD MSTORE ADDRESS PUSH1 0x24 DUP3 ADD MSTORE PUSH1 0x44 ADD PUSH1 0x20 PUSH1 0x40 MLOAD DUP1 DUP4 SUB DUP2 DUP7 GAS STATICCALL ISZERO DUP1 ISZERO PUSH2 0x14B9 JUMPI RETURNDATASIZE PUSH0 PUSH0 RETURNDATACOPY RETURNDATASIZE PUSH0 REVERT JUMPDEST POP POP POP POP PUSH1 0x40 MLOAD RETURNDATASIZE PUSH1 0x1F NOT PUSH1 0x1F DUP3 ADD AND DUP3 ADD DUP1 PUSH1 0x40 MSTORE POP DUP2 ADD SWAP1 PUSH2 0x14DD SWAP2 SWAP1 PUSH2 0x317B JUMP JUMPDEST LT ISZERO PUSH2 0x152B JUMPI PUSH1 0x40 MLOAD PUSH3 0x461BCD PUSH1 0xE5 SHL DUP2 MSTORE PUSH1 0x20 PUSH1 0x4 DUP3 ADD DUP2 SWAP1 MSTORE PUSH1 0x24 DUP3 ADD MSTORE PUSH32 0x73744473636C61623A20496E73756666696369656E7420616C6C6F77616E6365 PUSH1 0x44 DUP3 ADD MSTORE PUSH1 0x64 ADD PUSH2 0x93B JUMP JUMPDEST PUSH1 0x6 SLOAD PUSH1 0x1 PUSH1 0x1 PUSH1 0xA0 SHL SUB AND PUSH4 0x23B872DD CALLER ADDRESS DUP5 PUSH1 0x40 MLOAD DUP5 PUSH4 0xFFFFFFFF AND PUSH1 0xE0 SHL DUP2 MSTORE PUSH1 0x4 ADD PUSH2 0x155D SWAP4 SWAP3 SWAP2 SWAP1 PUSH2 0x3192 JUMP JUMPDEST PUSH1 0x20 PUSH1 0x40 MLOAD DUP1 DUP4 SUB DUP2 PUSH0 DUP8 GAS CALL ISZERO DUP1 ISZERO PUSH2 0x1579 JUMPI RETURNDATASIZE PUSH0 PUSH0 RETURNDATACOPY RETURNDATASIZE PUSH0 REVERT JUMPDEST POP POP POP POP PUSH1 0x40 MLOAD RETURNDATASIZE PUSH1 0x1F NOT PUSH1 0x1F DUP3 ADD AND DUP3 ADD DUP1 PUSH1 0x40 MSTORE POP DUP2 ADD SWAP1 PUSH2 0x159D SWAP2 SWAP1 PUSH2 0x31B6 JUMP JUMPDEST POP PUSH1 0x6 SLOAD PUSH1 0x40 MLOAD PUSH4 0x852CD8D PUSH1 0xE3 SHL DUP2 MSTORE PUSH1 0x4 DUP2 ADD DUP4 SWAP1 MSTORE PUSH1 0x1 PUSH1 0x1 PUSH1 0xA0 SHL SUB SWAP1 SWAP2 AND SWAP1 PUSH4 0x42966C68 SWAP1 PUSH1 0x24 ADD PUSH0 PUSH1 0x40 MLOAD DUP1 DUP4 SUB DUP2 PUSH0 DUP8 DUP1 EXTCODESIZE ISZERO DUP1 ISZERO PUSH2 0x15E1 JUMPI PUSH0 PUSH0 REVERT JUMPDEST POP GAS CALL ISZERO DUP1 ISZERO PUSH2 0x15F3 JUMPI RETURNDATASIZE PUSH0 PUSH0 RETURNDATACOPY RETURNDATASIZE PUSH0 REVERT JUMPDEST POP POP POP POP PUSH1 0x1 PUSH1 0x1 PUSH1 0xA0 SHL SUB DUP5 DUP2 AND PUSH0 DUP2 DUP2 MSTORE PUSH1 0x1D PUSH1 0x20 MSTORE PUSH1 0x40 DUP1 DUP3 KECCAK256 SLOAD SWAP4 DUP8 AND DUP1 DUP4 MSTORE SWAP2 DUP2 SWAP1 KECCAK256 SLOAD SWAP1 MLOAD SWAP2 SWAP4 PUSH0 MLOAD PUSH1 0x20 PUSH2 0x36BE PUSH0 CODECOPY PUSH0 MLOAD SWAP1 PUSH0 MSTORE SWAP3 PUSH2 0xDE8 SWAP3 SWAP1 PUSH2 0x35C6 JUMP JUMPDEST PUSH2 0x1642 CALLER PUSH2 0x136F JUMP JUMPDEST PUSH2 0x164F JUMPI PUSH2 0x164F CALLER PUSH2 0x99E JUMP JUMPDEST PUSH2 0x1658 CALLER PUSH2 0x136F JUMP JUMPDEST PUSH2 0x1674 JUMPI PUSH1 0x40 MLOAD PUSH3 0x461BCD PUSH1 0xE5 SHL DUP2 MSTORE PUSH1 0x4 ADD PUSH2 0x93B SWAP1 PUSH2 0x3382 JUMP JUMPDEST PUSH1 0xC SLOAD DUP4 LT ISZERO PUSH2 0x1696 JUMPI PUSH1 0x40 MLOAD PUSH3 0x461BCD PUSH1 0xE5 SHL DUP2 MSTORE PUSH1 0x4 ADD PUSH2 0x93B SWAP1 PUSH2 0x33B9 JUMP JUMPDEST PUSH1 0xD SLOAD DUP4 GT ISZERO PUSH2 0x16B8 JUMPI PUSH1 0x40 MLOAD PUSH3 0x461BCD PUSH1 0xE5 SHL DUP2 MSTORE PUSH1 0x4 ADD PUSH2 0x93B SWAP1 PUSH2 0x33F0 JUMP JUMPDEST DUP2 PUSH1 0x1 EQ DUP1 PUSH2 0x16C7 JUMPI POP DUP2 PUSH1 0x2 EQ JUMPDEST PUSH2 0x1713 JUMPI PUSH1 0x40 MLOAD PUSH3 0x461BCD PUSH1 0xE5 SHL DUP2 MSTORE PUSH1 0x20 PUSH1 0x4 DUP3 ADD MSTORE PUSH1 0x1D PUSH1 0x24 DUP3 ADD MSTORE PUSH32 0x53656C656374204F6E6C7920506C616E20466C657869206F7220466978000000 PUSH1 0x44 DUP3 ADD MSTORE PUSH1 0x64 ADD PUSH2 0x93B JUMP JUMPDEST PUSH1 0x4 SLOAD DUP4 SWAP1 PUSH1 0x1 PUSH1 0x1 PUSH1 0xA0 SHL SUB AND PUSH4 0xDD62ED3E CALLER PUSH1 0x40 MLOAD PUSH1 0x1 PUSH1 0x1 PUSH1 0xE0 SHL SUB NOT PUSH1 0xE0 DUP5 SWAP1 SHL AND DUP2 MSTORE PUSH1 0x1 PUSH1 0x1 PUSH1 0xA0 SHL SUB SWAP1 SWAP2 AND PUSH1 0x4 DUP3 ADD MSTORE ADDRESS PUSH1 0x24 DUP3 ADD MSTORE PUSH1 0x44 ADD PUSH1 0x20 PUSH1 0x40 MLOAD DUP1 DUP4 SUB DUP2 DUP7 GAS STATICCALL ISZERO DUP1 ISZERO PUSH2 0x176F JUMPI RETURNDATASIZE PUSH0 PUSH0 RETURNDATACOPY RETURNDATASIZE PUSH0 REVERT JUMPDEST POP POP POP POP PUSH1 0x40 MLOAD RETURNDATASIZE PUSH1 0x1F NOT PUSH1 0x1F DUP3 ADD AND DUP3 ADD DUP1 PUSH1 0x40 MSTORE POP DUP2 ADD SWAP1 PUSH2 0x1793 SWAP2 SWAP1 PUSH2 0x317B JUMP JUMPDEST LT ISZERO PUSH2 0x17D5 JUMPI PUSH1 0x40 MLOAD PUSH3 0x461BCD PUSH1 0xE5 SHL DUP2 MSTORE PUSH1 0x20 PUSH1 0x4 DUP3 ADD MSTORE PUSH1 0x11 PUSH1 0x24 DUP3 ADD MSTORE PUSH17 0x3AB9B23A101D1030B63637BBB0B731B29 PUSH1 0x7D SHL PUSH1 0x44 DUP3 ADD MSTORE PUSH1 0x64 ADD PUSH2 0x93B JUMP JUMPDEST CALLER PUSH0 SWAP1 DUP2 MSTORE PUSH1 0x1D PUSH1 0x20 MSTORE PUSH1 0x40 SWAP1 KECCAK256 PUSH1 0x6 ADD SLOAD DUP1 ISZERO PUSH2 0x180D JUMPI DUP1 DUP5 LT ISZERO PUSH2 0x180D JUMPI PUSH1 0x40 MLOAD PUSH3 0x461BCD PUSH1 0xE5 SHL DUP2 MSTORE PUSH1 0x4 ADD PUSH2 0x93B SWAP1 PUSH2 0x3472 JUMP JUMPDEST PUSH1 0x4 SLOAD PUSH1 0x1 PUSH1 0x1 PUSH1 0xA0 SHL SUB AND PUSH4 0x23B872DD CALLER ADDRESS DUP8 PUSH1 0x40 MLOAD DUP5 PUSH4 0xFFFFFFFF AND PUSH1 0xE0 SHL DUP2 MSTORE PUSH1 0x4 ADD PUSH2 0x183F SWAP4 SWAP3 SWAP2 SWAP1 PUSH2 0x3192 JUMP JUMPDEST PUSH1 0x20 PUSH1 0x40 MLOAD DUP1 DUP4 SUB DUP2 PUSH0 DUP8 GAS CALL ISZERO DUP1 ISZERO PUSH2 0x185B JUMPI RETURNDATASIZE PUSH0 PUSH0 RETURNDATACOPY RETURNDATASIZE PUSH0 REVERT JUMPDEST POP POP POP POP PUSH1 0x40 MLOAD RETURNDATASIZE PUSH1 0x1F NOT PUSH1 0x1F DUP3 ADD AND DUP3 ADD DUP1 PUSH1 0x40 MSTORE POP DUP2 ADD SWAP1 PUSH2 0x187F SWAP2 SWAP1 PUSH2 0x31B6 JUMP JUMPDEST POP PUSH1 0x4 DUP1 SLOAD PUSH1 0x1F SLOAD PUSH1 0x40 MLOAD PUSH4 0x95EA7B3 PUSH1 0xE0 SHL DUP2 MSTORE PUSH1 0x1 PUSH1 0x1 PUSH1 0xA0 SHL SUB SWAP2 DUP3 AND SWAP4 DUP2 ADD SWAP4 SWAP1 SWAP4 MSTORE PUSH1 0x24 DUP4 ADD DUP8 SWAP1 MSTORE AND SWAP1 PUSH4 0x95EA7B3 SWAP1 PUSH1 0x44 ADD PUSH1 0x20 PUSH1 0x40 MLOAD DUP1 DUP4 SUB DUP2 PUSH0 DUP8 GAS CALL ISZERO DUP1 ISZERO PUSH2 0x18D4 JUMPI RETURNDATASIZE PUSH0 PUSH0 RETURNDATACOPY RETURNDATASIZE PUSH0 REVERT JUMPDEST POP POP POP POP PUSH1 0x40 MLOAD RETURNDATASIZE PUSH1 0x1F NOT PUSH1 0x1F DUP3 ADD AND DUP3 ADD DUP1 PUSH1 0x40 MSTORE POP DUP2 ADD SWAP1 PUSH2 0x18F8 SWAP2 SWAP1 PUSH2 0x31B6 JUMP JUMPDEST POP PUSH1 0x40 DUP1 MLOAD PUSH1 0x2 DUP1 DUP3 MSTORE PUSH1 0x60 DUP3 ADD DUP4 MSTORE PUSH0 SWAP3 PUSH1 0x20 DUP4 ADD SWAP1 DUP1 CALLDATASIZE DUP4 CALLDATACOPY POP POP PUSH1 0x4 SLOAD DUP3 MLOAD SWAP3 SWAP4 POP PUSH1 0x1 PUSH1 0x1 PUSH1 0xA0 SHL SUB AND SWAP2 DUP4 SWAP2 POP PUSH0 SWAP1 PUSH2 0x1938 JUMPI PUSH2 0x1938 PUSH2 0x31D5 JUMP JUMPDEST PUSH1 0x1 PUSH1 0x1 PUSH1 0xA0 SHL SUB SWAP3 DUP4 AND PUSH1 0x20 SWAP2 DUP3 MUL SWAP3 SWAP1 SWAP3 ADD ADD MSTORE PUSH1 0x5 SLOAD DUP3 MLOAD SWAP2 AND SWAP1 DUP3 SWAP1 PUSH1 0x1 SWAP1 DUP2 LT PUSH2 0x1969 JUMPI PUSH2 0x1969 PUSH2 0x31D5 JUMP JUMPDEST PUSH1 0x20 MUL PUSH1 0x20 ADD ADD SWAP1 PUSH1 0x1 PUSH1 0x1 PUSH1 0xA0 SHL SUB AND SWAP1 DUP2 PUSH1 0x1 PUSH1 0x1 PUSH1 0xA0 SHL SUB AND DUP2 MSTORE POP POP PUSH0 PUSH2 0x1993 DUP3 PUSH2 0x1EE6 JUMP JUMPDEST SWAP1 POP PUSH0 PUSH8 0xDE0B6B3A7640000 PUSH2 0x19A9 DUP4 DUP10 PUSH2 0x34CF JUMP JUMPDEST PUSH2 0x19B3 SWAP2 SWAP1 PUSH2 0x34E6 JUMP JUMPDEST PUSH1 0x1F SLOAD PUSH1 0x40 MLOAD PUSH4 0xD06CA61F PUSH1 0xE0 SHL DUP2 MSTORE SWAP2 SWAP3 POP PUSH0 SWAP2 PUSH1 0x1 PUSH1 0x1 PUSH1 0xA0 SHL SUB SWAP1 SWAP2 AND SWAP1 PUSH4 0xD06CA61F SWAP1 PUSH2 0x19EA SWAP1 DUP12 SWAP1 DUP9 SWAP1 PUSH1 0x4 ADD PUSH2 0x322C JUMP JUMPDEST PUSH0 PUSH1 0x40 MLOAD DUP1 DUP4 SUB DUP2 DUP7 GAS STATICCALL ISZERO DUP1 ISZERO PUSH2 0x1A04 JUMPI RETURNDATASIZE PUSH0 PUSH0 RETURNDATACOPY RETURNDATASIZE PUSH0 REVERT JUMPDEST POP POP POP POP PUSH1 0x40 MLOAD RETURNDATASIZE PUSH0 DUP3 RETURNDATACOPY PUSH1 0x1F RETURNDATASIZE SWAP1 DUP2 ADD PUSH1 0x1F NOT AND DUP3 ADD PUSH1 0x40 MSTORE PUSH2 0x1A2B SWAP2 SWAP1 DUP2 ADD SWAP1 PUSH2 0x324C JUMP JUMPDEST PUSH1 0x1F SLOAD DUP2 MLOAD SWAP2 SWAP3 POP PUSH1 0x1 PUSH1 0x1 PUSH1 0xA0 SHL SUB AND SWAP1 PUSH4 0x38ED1739 SWAP1 DUP11 SWAP1 DUP5 SWAP1 PUSH1 0x1 SWAP1 DUP2 LT PUSH2 0x1A58 JUMPI PUSH2 0x1A58 PUSH2 0x31D5 JUMP JUMPDEST PUSH1 0x20 MUL PUSH1 0x20 ADD ADD MLOAD DUP8 ADDRESS TIMESTAMP PUSH1 0xA PUSH2 0x1A6F SWAP2 SWAP1 PUSH2 0x32E7 JUMP JUMPDEST PUSH1 0x40 MLOAD DUP7 PUSH4 0xFFFFFFFF AND PUSH1 0xE0 SHL DUP2 MSTORE PUSH1 0x4 ADD PUSH2 0x1A8F SWAP6 SWAP5 SWAP4 SWAP3 SWAP2 SWAP1 PUSH2 0x3300 JUMP JUMPDEST PUSH0 PUSH1 0x40 MLOAD DUP1 DUP4 SUB DUP2 PUSH0 DUP8 GAS CALL ISZERO DUP1 ISZERO PUSH2 0x1AAA JUMPI RETURNDATASIZE PUSH0 PUSH0 RETURNDATACOPY RETURNDATASIZE PUSH0 REVERT JUMPDEST POP POP POP POP PUSH1 0x40 MLOAD RETURNDATASIZE PUSH0 DUP3 RETURNDATACOPY PUSH1 0x1F RETURNDATASIZE SWAP1 DUP2 ADD PUSH1 0x1F NOT AND DUP3 ADD PUSH1 0x40 MSTORE PUSH2 0x1AD1 SWAP2 SWAP1 DUP2 ADD SWAP1 PUSH2 0x324C JUMP JUMPDEST POP CALLER PUSH0 SWAP1 DUP2 MSTORE PUSH1 0x1D PUSH1 0x20 MSTORE PUSH1 0x40 DUP2 KECCAK256 PUSH1 0x1 DUP2 ADD SLOAD PUSH1 0x3 SWAP1 SWAP2 ADD SLOAD PUSH1 0x1 PUSH1 0x1 PUSH1 0xA0 SHL SUB SWAP1 SWAP2 AND SWAP2 DUP2 ISZERO PUSH2 0x1B22 JUMPI PUSH1 0x40 MLOAD DUP1 PUSH1 0x40 ADD PUSH1 0x40 MSTORE DUP1 PUSH1 0x7 DUP2 MSTORE PUSH1 0x20 ADD PUSH7 0x5265746F70757 PUSH1 0xCC SHL DUP2 MSTORE POP PUSH2 0x1B3F JUMP JUMPDEST PUSH1 0x40 MLOAD DUP1 PUSH1 0x40 ADD PUSH1 0x40 MSTORE DUP1 PUSH1 0x3 DUP2 MSTORE PUSH1 0x20 ADD PUSH3 0x4E6577 PUSH1 0xE8 SHL DUP2 MSTORE POP JUMPDEST SWAP1 POP CALLER PUSH1 0x1 PUSH1 0x1 PUSH1 0xA0 SHL SUB AND PUSH32 0xABD608A4BA071391876D4741F99BA49362BD2FC5AFCF4F1FC9ECF91D6A73CCF8 DUP13 DUP8 DUP5 DUP15 PUSH1 0x40 MLOAD PUSH2 0x1B80 SWAP5 SWAP4 SWAP3 SWAP2 SWAP1 PUSH2 0x35F6 JUMP JUMPDEST PUSH1 0x40 MLOAD DUP1 SWAP2 SUB SWAP1 LOG2 CALLER PUSH0 SWAP1 DUP2 MSTORE PUSH1 0x1D PUSH1 0x20 MSTORE PUSH1 0x40 DUP2 KECCAK256 PUSH1 0x6 DUP2 ADD DUP14 SWAP1 SSTORE PUSH1 0x3 ADD DUP1 SLOAD DUP14 SWAP3 SWAP1 PUSH2 0x1BB0 SWAP1 DUP5 SWAP1 PUSH2 0x32E7 JUMP JUMPDEST SWAP1 SWAP2 SSTORE POP POP CALLER PUSH0 SWAP1 DUP2 MSTORE PUSH1 0x1D PUSH1 0x20 MSTORE PUSH1 0x40 DUP2 KECCAK256 PUSH1 0x3 ADD SLOAD SWAP1 DUP2 SWAP1 SUB PUSH2 0x1BFB JUMPI PUSH1 0x1 PUSH1 0x1 PUSH1 0xA0 SHL SUB DUP5 AND PUSH0 SWAP1 DUP2 MSTORE PUSH1 0x1D PUSH1 0x20 MSTORE PUSH1 0x40 DUP2 KECCAK256 PUSH1 0x2 ADD DUP1 SLOAD SWAP2 PUSH2 0x1BF5 DUP4 PUSH2 0x333B JUMP JUMPDEST SWAP2 SWAP1 POP SSTORE POP JUMPDEST POP POP POP POP POP POP POP POP POP POP POP POP JUMP JUMPDEST PUSH2 0x1C11 PUSH2 0x2BD6 JUMP JUMPDEST PUSH2 0x136D PUSH0 PUSH2 0x2C2F JUMP JUMPDEST PUSH2 0x1C23 DUP3 PUSH2 0x136F JUMP JUMPDEST ISZERO PUSH2 0x1C40 JUMPI PUSH1 0x40 MLOAD PUSH3 0x461BCD PUSH1 0xE5 SHL DUP2 MSTORE PUSH1 0x4 ADD PUSH2 0x93B SWAP1 PUSH2 0x314D JUMP JUMPDEST PUSH2 0x1C49 DUP2 PUSH2 0x136F JUMP JUMPDEST PUSH2 0x1C95 JUMPI PUSH1 0x40 MLOAD PUSH3 0x461BCD PUSH1 0xE5 SHL DUP2 MSTORE PUSH1 0x20 PUSH1 0x4 DUP3 ADD MSTORE PUSH1 0x1C PUSH1 0x24 DUP3 ADD MSTORE PUSH32 0x4473636C61623A205265666572726572206E6F74204578697374732100000000 PUSH1 0x44 DUP3 ADD MSTORE PUSH1 0x64 ADD PUSH2 0x93B JUMP JUMPDEST PUSH2 0x1C9E CALLER PUSH2 0xF26 JUMP JUMPDEST PUSH1 0x40 DUP1 MLOAD PUSH1 0x2 DUP1 DUP3 MSTORE PUSH1 0x60 DUP3 ADD DUP4 MSTORE PUSH0 SWAP3 PUSH1 0x20 DUP4 ADD SWAP1 DUP1 CALLDATASIZE DUP4 CALLDATACOPY POP POP PUSH1 0x4 SLOAD DUP3 MLOAD SWAP3 SWAP4 POP PUSH1 0x1 PUSH1 0x1 PUSH1 0xA0 SHL SUB AND SWAP2 DUP4 SWAP2 POP PUSH0 SWAP1 PUSH2 0x1CDD JUMPI PUSH2 0x1CDD PUSH2 0x31D5 JUMP JUMPDEST PUSH1 0x1 PUSH1 0x1 PUSH1 0xA0 SHL SUB SWAP3 DUP4 AND PUSH1 0x20 SWAP2 DUP3 MUL SWAP3 SWAP1 SWAP3 ADD ADD MSTORE PUSH1 0x5 SLOAD DUP3 MLOAD SWAP2 AND SWAP1 DUP3 SWAP1 PUSH1 0x1 SWAP1 DUP2 LT PUSH2 0x1D0E JUMPI PUSH2 0x1D0E PUSH2 0x31D5 JUMP JUMPDEST PUSH1 0x20 MUL PUSH1 0x20 ADD ADD SWAP1 PUSH1 0x1 PUSH1 0x1 PUSH1 0xA0 SHL SUB AND SWAP1 DUP2 PUSH1 0x1 PUSH1 0x1 PUSH1 0xA0 SHL SUB AND DUP2 MSTORE POP POP PUSH0 PUSH2 0x1D38 DUP3 PUSH2 0x1EE6 JUMP JUMPDEST SWAP1 POP PUSH0 PUSH8 0xDE0B6B3A7640000 DUP3 PUSH1 0xB SLOAD PUSH2 0x1D52 SWAP2 SWAP1 PUSH2 0x34CF JUMP JUMPDEST PUSH2 0x1D5C SWAP2 SWAP1 PUSH2 0x34E6 JUMP JUMPDEST PUSH1 0x5 SLOAD SWAP1 SWAP2 POP DUP2 SWAP1 PUSH1 0x1 PUSH1 0x1 PUSH1 0xA0 SHL SUB AND PUSH4 0xDD62ED3E CALLER PUSH1 0x40 MLOAD PUSH1 0x1 PUSH1 0x1 PUSH1 0xE0 SHL SUB NOT PUSH1 0xE0 DUP5 SWAP1 SHL AND DUP2 MSTORE PUSH1 0x1 PUSH1 0x1 PUSH1 0xA0 SHL SUB SWAP1 SWAP2 AND PUSH1 0x4 DUP3 ADD MSTORE ADDRESS PUSH1 0x24 DUP3 ADD MSTORE PUSH1 0x44 ADD PUSH1 0x20 PUSH1 0x40 MLOAD DUP1 DUP4 SUB DUP2 DUP7 GAS STATICCALL ISZERO DUP1 ISZERO PUSH2 0x1DBB JUMPI RETURNDATASIZE PUSH0 PUSH0 RETURNDATACOPY RETURNDATASIZE PUSH0 REVERT JUMPDEST POP POP POP POP PUSH1 0x40 MLOAD RETURNDATASIZE PUSH1 0x1F NOT PUSH1 0x1F DUP3 ADD AND DUP3 ADD DUP1 PUSH1 0x40 MSTORE POP DUP2 ADD SWAP1 PUSH2 0x1DDF SWAP2 SWAP1 PUSH2 0x317B JUMP JUMPDEST LT ISZERO PUSH2 0x1E22 JUMPI PUSH1 0x40 MLOAD PUSH3 0x461BCD PUSH1 0xE5 SHL DUP2 MSTORE PUSH1 0x20 PUSH1 0x4 DUP3 ADD MSTORE PUSH1 0x12 PUSH1 0x24 DUP3 ADD MSTORE PUSH18 0x2229A1B630B11D1030B63637BBB0B731B29 PUSH1 0x75 SHL PUSH1 0x44 DUP3 ADD MSTORE PUSH1 0x64 ADD PUSH2 0x93B JUMP JUMPDEST PUSH1 0x5 SLOAD PUSH1 0x1 PUSH1 0x1 PUSH1 0xA0 SHL SUB AND PUSH4 0x23B872DD CALLER ADDRESS DUP5 PUSH1 0x40 MLOAD DUP5 PUSH4 0xFFFFFFFF AND PUSH1 0xE0 SHL DUP2 MSTORE PUSH1 0x4 ADD PUSH2 0x1E54 SWAP4 SWAP3 SWAP2 SWAP1 PUSH2 0x3192 JUMP JUMPDEST PUSH1 0x20 PUSH1 0x40 MLOAD DUP1 DUP4 SUB DUP2 PUSH0 DUP8 GAS CALL ISZERO DUP1 ISZERO PUSH2 0x1E70 JUMPI RETURNDATASIZE PUSH0 PUSH0 RETURNDATACOPY RETURNDATASIZE PUSH0 REVERT JUMPDEST POP POP POP POP PUSH1 0x40 MLOAD RETURNDATASIZE PUSH1 0x1F NOT PUSH1 0x1F DUP3 ADD AND DUP3 ADD DUP1 PUSH1 0x40 MSTORE POP DUP2 ADD SWAP1 PUSH2 0x1E94 SWAP2 SWAP1 PUSH2 0x31B6 JUMP JUMPDEST POP PUSH1 0x1 PUSH1 0x1 PUSH1 0xA0 SHL SUB DUP6 DUP2 AND PUSH0 DUP2 DUP2 MSTORE PUSH1 0x1D PUSH1 0x20 MSTORE PUSH1 0x40 DUP1 DUP3 KECCAK256 SLOAD SWAP4 DUP9 AND DUP1 DUP4 MSTORE SWAP2 DUP2 SWAP1 KECCAK256 SLOAD SWAP1 MLOAD SWAP2 SWAP4 PUSH0 MLOAD PUSH1 0x20 PUSH2 0x36BE PUSH0 CODECOPY PUSH0 MLOAD SWAP1 PUSH0 MSTORE SWAP3 PUSH2 0x1ED7 SWAP3 SWAP1 PUSH2 0x3625 JUMP JUMPDEST PUSH1 0x40 MLOAD DUP1 SWAP2 SUB SWAP1 LOG3 POP POP POP POP POP JUMP JUMPDEST PUSH1 0x1F SLOAD PUSH1 0x40 MLOAD PUSH4 0xD06CA61F PUSH1 0xE0 SHL DUP2 MSTORE PUSH0 SWAP2 PUSH8 0xDE0B6B3A7640000 SWAP2 DUP4 SWAP2 PUSH1 0x1 PUSH1 0x1 PUSH1 0xA0 SHL SUB AND SWAP1 PUSH4 0xD06CA61F SWAP1 PUSH2 0x1F24 SWAP1 DUP6 SWAP1 DUP9 SWAP1 PUSH1 0x4 ADD PUSH2 0x322C JUMP JUMPDEST PUSH0 PUSH1 0x40 MLOAD DUP1 DUP4 SUB DUP2 DUP7 GAS STATICCALL ISZERO DUP1 ISZERO PUSH2 0x1F3E JUMPI RETURNDATASIZE PUSH0 PUSH0 RETURNDATACOPY RETURNDATASIZE PUSH0 REVERT JUMPDEST POP POP POP POP PUSH1 0x40 MLOAD RETURNDATASIZE PUSH0 DUP3 RETURNDATACOPY PUSH1 0x1F RETURNDATASIZE SWAP1 DUP2 ADD PUSH1 0x1F NOT AND DUP3 ADD PUSH1 0x40 MSTORE PUSH2 0x1F65 SWAP2 SWAP1 DUP2 ADD SWAP1 PUSH2 0x324C JUMP JUMPDEST SWAP1 POP DUP1 PUSH1 0x1 DUP3 MLOAD PUSH2 0x1F76 SWAP2 SWAP1 PUSH2 0x3653 JUMP JUMPDEST DUP2 MLOAD DUP2 LT PUSH2 0xF03 JUMPI PUSH2 0xF03 PUSH2 0x31D5 JUMP JUMPDEST PUSH0 SLOAD PUSH1 0x1 PUSH1 0x1 PUSH1 0xA0 SHL SUB AND CALLER EQ PUSH2 0x1FCB JUMPI PUSH1 0x40 MLOAD PUSH3 0x461BCD PUSH1 0xE5 SHL DUP2 MSTORE PUSH1 0x20 PUSH1 0x4 DUP3 ADD MSTORE PUSH1 0x9 PUSH1 0x24 DUP3 ADD MSTORE PUSH9 0x37B7363CA7BBB732B9 PUSH1 0xB9 SHL PUSH1 0x44 DUP3 ADD MSTORE PUSH1 0x64 ADD PUSH2 0x93B JUMP JUMPDEST DUP1 PUSH1 0x1 PUSH1 0x1 PUSH1 0xA0 SHL SUB AND PUSH4 0xA9059CBB PUSH2 0x1FEB PUSH0 SLOAD PUSH1 0x1 PUSH1 0x1 PUSH1 0xA0 SHL SUB AND SWAP1 JUMP JUMPDEST PUSH2 0x1FFD DUP6 PUSH8 0xDE0B6B3A7640000 PUSH2 0x34CF JUMP JUMPDEST PUSH1 0x40 MLOAD PUSH1 0x1 PUSH1 0x1 PUSH1 0xE0 SHL SUB NOT PUSH1 0xE0 DUP6 SWAP1 SHL AND DUP2 MSTORE PUSH1 0x1 PUSH1 0x1 PUSH1 0xA0 SHL SUB SWAP1 SWAP3 AND PUSH1 0x4 DUP4 ADD MSTORE PUSH1 0x24 DUP3 ADD MSTORE PUSH1 0x44 ADD PUSH1 0x20 PUSH1 0x40 MLOAD DUP1 DUP4 SUB DUP2 PUSH0 DUP8 GAS CALL ISZERO DUP1 ISZERO PUSH2 0x2045 JUMPI RETURNDATASIZE PUSH0 PUSH0 RETURNDATACOPY RETURNDATASIZE PUSH0 REVERT JUMPDEST POP POP POP POP PUSH1 0x40 MLOAD RETURNDATASIZE PUSH1 0x1F NOT PUSH1 0x1F DUP3 ADD AND DUP3 ADD DUP1 PUSH1 0x40 MSTORE POP DUP2 ADD SWAP1 PUSH2 0x2069 SWAP2 SWAP1 PUSH2 0x31B6 JUMP JUMPDEST POP POP POP JUMP JUMPDEST PUSH1 0x18 DUP2 DUP2 SLOAD DUP2 LT PUSH2 0x905 JUMPI PUSH0 DUP1 REVERT JUMPDEST DUP2 PUSH0 JUMPDEST DUP6 MLOAD DUP2 LT ISZERO PUSH2 0x21F5 JUMPI DUP5 DUP2 DUP2 MLOAD DUP2 LT PUSH2 0x209B JUMPI PUSH2 0x209B PUSH2 0x31D5 JUMP JUMPDEST PUSH1 0x20 MUL PUSH1 0x20 ADD ADD MLOAD DUP3 LT ISZERO PUSH2 0x20AE JUMPI PUSH0 PUSH0 REVERT JUMPDEST DUP5 DUP2 DUP2 MLOAD DUP2 LT PUSH2 0x20C0 JUMPI PUSH2 0x20C0 PUSH2 0x31D5 JUMP JUMPDEST PUSH1 0x20 MUL PUSH1 0x20 ADD ADD MLOAD DUP3 PUSH2 0x20D3 SWAP2 SWAP1 PUSH2 0x3653 JUMP JUMPDEST SWAP2 POP DUP3 PUSH1 0x1 PUSH1 0x1 PUSH1 0xA0 SHL SUB AND PUSH4 0x23B872DD CALLER DUP9 DUP5 DUP2 MLOAD DUP2 LT PUSH2 0x20F7 JUMPI PUSH2 0x20F7 PUSH2 0x31D5 JUMP JUMPDEST PUSH1 0x20 MUL PUSH1 0x20 ADD ADD MLOAD DUP9 DUP6 DUP2 MLOAD DUP2 LT PUSH2 0x2111 JUMPI PUSH2 0x2111 PUSH2 0x31D5 JUMP JUMPDEST PUSH1 0x20 MUL PUSH1 0x20 ADD ADD MLOAD PUSH1 0x40 MLOAD DUP5 PUSH4 0xFFFFFFFF AND PUSH1 0xE0 SHL DUP2 MSTORE PUSH1 0x4 ADD PUSH2 0x2137 SWAP4 SWAP3 SWAP2 SWAP1 PUSH2 0x3192 JUMP JUMPDEST PUSH1 0x20 PUSH1 0x40 MLOAD DUP1 DUP4 SUB DUP2 PUSH0 DUP8 GAS CALL ISZERO DUP1 ISZERO PUSH2 0x2153 JUMPI RETURNDATASIZE PUSH0 PUSH0 RETURNDATACOPY RETURNDATASIZE PUSH0 REVERT JUMPDEST POP POP POP POP PUSH1 0x40 MLOAD RETURNDATASIZE PUSH1 0x1F NOT PUSH1 0x1F DUP3 ADD AND DUP3 ADD DUP1 PUSH1 0x40 MSTORE POP DUP2 ADD SWAP1 PUSH2 0x2177 SWAP2 SWAP1 PUSH2 0x31B6 JUMP JUMPDEST POP DUP6 DUP2 DUP2 MLOAD DUP2 LT PUSH2 0x218A JUMPI PUSH2 0x218A PUSH2 0x31D5 JUMP JUMPDEST PUSH1 0x20 MUL PUSH1 0x20 ADD ADD MLOAD PUSH1 0x1 PUSH1 0x1 PUSH1 0xA0 SHL SUB AND PUSH32 0xBD54BF7A35B4F30A5C2E53DF02C464DC7C2A159A96B24DBB41CD9808BD6E2E36 DUP7 DUP4 DUP2 MLOAD DUP2 LT PUSH2 0x21CE JUMPI PUSH2 0x21CE PUSH2 0x31D5 JUMP JUMPDEST PUSH1 0x20 MUL PUSH1 0x20 ADD ADD MLOAD PUSH1 0x40 MLOAD PUSH2 0x21E5 SWAP2 DUP2 MSTORE PUSH1 0x20 ADD SWAP1 JUMP JUMPDEST PUSH1 0x40 MLOAD DUP1 SWAP2 SUB SWAP1 LOG2 PUSH1 0x1 ADD PUSH2 0x2080 JUMP JUMPDEST POP POP POP POP POP POP JUMP JUMPDEST PUSH1 0x3 SLOAD PUSH1 0x1 PUSH1 0x1 PUSH1 0xA0 SHL SUB AND CALLER PUSH1 0x1 PUSH1 0x1 PUSH1 0xA0 SHL SUB AND EQ PUSH2 0x2230 JUMPI PUSH1 0x40 MLOAD PUSH3 0x461BCD PUSH1 0xE5 SHL DUP2 MSTORE PUSH1 0x4 ADD PUSH2 0x93B SWAP1 PUSH2 0x3585 JUMP JUMPDEST PUSH2 0x136D PUSH2 0x2C7E JUMP JUMPDEST PUSH2 0x2241 CALLER PUSH2 0x136F JUMP JUMPDEST PUSH2 0x226D JUMPI PUSH2 0x226D CALLER DUP3 PUSH1 0x40 MLOAD DUP1 PUSH1 0x40 ADD PUSH1 0x40 MSTORE DUP1 PUSH1 0x5 DUP2 MSTORE PUSH1 0x20 ADD PUSH5 0x7374445343 PUSH1 0xD8 SHL DUP2 MSTORE POP PUSH2 0x2A07 JUMP JUMPDEST PUSH2 0x2276 CALLER PUSH2 0x136F JUMP JUMPDEST PUSH2 0x2292 JUMPI PUSH1 0x40 MLOAD PUSH3 0x461BCD PUSH1 0xE5 SHL DUP2 MSTORE PUSH1 0x4 ADD PUSH2 0x93B SWAP1 PUSH2 0x3382 JUMP JUMPDEST PUSH1 0xC SLOAD DUP4 LT ISZERO PUSH2 0x22B4 JUMPI PUSH1 0x40 MLOAD PUSH3 0x461BCD PUSH1 0xE5 SHL DUP2 MSTORE PUSH1 0x4 ADD PUSH2 0x93B SWAP1 PUSH2 0x33B9 JUMP JUMPDEST PUSH1 0xD SLOAD DUP4 GT ISZERO PUSH2 0x22D6 JUMPI PUSH1 0x40 MLOAD PUSH3 0x461BCD PUSH1 0xE5 SHL DUP2 MSTORE PUSH1 0x4 ADD PUSH2 0x93B SWAP1 PUSH2 0x33F0 JUMP JUMPDEST DUP2 PUSH1 0x1 EQ PUSH2 0x22F6 JUMPI PUSH1 0x40 MLOAD PUSH3 0x461BCD PUSH1 0xE5 SHL DUP2 MSTORE PUSH1 0x4 ADD PUSH2 0x93B SWAP1 PUSH2 0x3427 JUMP JUMPDEST CALLER PUSH0 SWAP1 DUP2 MSTORE PUSH1 0x1D PUSH1 0x20 MSTORE PUSH1 0x40 SWAP1 KECCAK256 PUSH1 0x6 ADD SLOAD DUP1 ISZERO PUSH2 0x232E JUMPI DUP1 DUP5 LT ISZERO PUSH2 0x232E JUMPI PUSH1 0x40 MLOAD PUSH3 0x461BCD PUSH1 0xE5 SHL DUP2 MSTORE PUSH1 0x4 ADD PUSH2 0x93B SWAP1 PUSH2 0x3472 JUMP JUMPDEST PUSH7 0x27CA57357C0000 PUSH0 DUP2 PUSH2 0x234A DUP8 PUSH8 0xDE0B6B3A7640000 PUSH2 0x34CF JUMP JUMPDEST PUSH2 0x2354 SWAP2 SWAP1 PUSH2 0x34E6 JUMP JUMPDEST PUSH1 0x6 SLOAD PUSH1 0x40 MLOAD PUSH4 0x23B872DD PUSH1 0xE0 SHL DUP2 MSTORE SWAP2 SWAP3 POP PUSH1 0x1 PUSH1 0x1 PUSH1 0xA0 SHL SUB AND SWAP1 PUSH4 0x23B872DD SWAP1 PUSH2 0x2389 SWAP1 CALLER SWAP1 ADDRESS SWAP1 DUP7 SWAP1 PUSH1 0x4 ADD PUSH2 0x3192 JUMP JUMPDEST PUSH1 0x20 PUSH1 0x40 MLOAD DUP1 DUP4 SUB DUP2 PUSH0 DUP8 GAS CALL ISZERO DUP1 ISZERO PUSH2 0x23A5 JUMPI RETURNDATASIZE PUSH0 PUSH0 RETURNDATACOPY RETURNDATASIZE PUSH0 REVERT JUMPDEST POP POP POP POP PUSH1 0x40 MLOAD RETURNDATASIZE PUSH1 0x1F NOT PUSH1 0x1F DUP3 ADD AND DUP3 ADD DUP1 PUSH1 0x40 MSTORE POP DUP2 ADD SWAP1 PUSH2 0x23C9 SWAP2 SWAP1 PUSH2 0x31B6 JUMP JUMPDEST POP PUSH1 0x6 SLOAD PUSH1 0x40 MLOAD PUSH4 0x852CD8D PUSH1 0xE3 SHL DUP2 MSTORE PUSH1 0x4 DUP2 ADD DUP4 SWAP1 MSTORE PUSH1 0x1 PUSH1 0x1 PUSH1 0xA0 SHL SUB SWAP1 SWAP2 AND SWAP1 PUSH4 0x42966C68 SWAP1 PUSH1 0x24 ADD PUSH0 PUSH1 0x40 MLOAD DUP1 DUP4 SUB DUP2 PUSH0 DUP8 DUP1 EXTCODESIZE ISZERO DUP1 ISZERO PUSH2 0x240D JUMPI PUSH0 PUSH0 REVERT JUMPDEST POP GAS CALL ISZERO DUP1 ISZERO PUSH2 0x241F JUMPI RETURNDATASIZE PUSH0 PUSH0 RETURNDATACOPY RETURNDATASIZE PUSH0 REVERT JUMPDEST POP POP POP POP PUSH0 PUSH1 0x1D PUSH0 PUSH2 0x242E CALLER SWAP1 JUMP JUMPDEST PUSH1 0x1 PUSH1 0x1 PUSH1 0xA0 SHL SUB SWAP1 DUP2 AND DUP3 MSTORE PUSH1 0x20 DUP1 DUP4 ADD SWAP4 SWAP1 SWAP4 MSTORE PUSH1 0x40 SWAP2 DUP3 ADD PUSH0 SWAP1 DUP2 KECCAK256 PUSH1 0x1 ADD SLOAD CALLER DUP3 MSTORE PUSH1 0x1D SWAP1 SWAP5 MSTORE SWAP2 DUP3 KECCAK256 PUSH1 0x3 ADD SLOAD SWAP3 AND SWAP3 POP DUP2 ISZERO PUSH2 0x248F JUMPI PUSH1 0x40 MLOAD DUP1 PUSH1 0x40 ADD PUSH1 0x40 MSTORE DUP1 PUSH1 0x7 DUP2 MSTORE PUSH1 0x20 ADD PUSH7 0x5265746F70757 PUSH1 0xCC SHL DUP2 MSTORE POP PUSH2 0x24AC JUMP JUMPDEST PUSH1 0x40 MLOAD DUP1 PUSH1 0x40 ADD PUSH1 0x40 MSTORE DUP1 PUSH1 0x3 DUP2 MSTORE PUSH1 0x20 ADD PUSH3 0x4E6577 PUSH1 0xE8 SHL DUP2 MSTORE POP JUMPDEST SWAP1 POP CALLER PUSH1 0x1 PUSH1 0x1 PUSH1 0xA0 SHL SUB AND PUSH32 0xABD608A4BA071391876D4741F99BA49362BD2FC5AFCF4F1FC9ECF91D6A73CCF8 DUP11 DUP7 DUP5 DUP13 PUSH1 0x40 MLOAD PUSH2 0x24ED SWAP5 SWAP4 SWAP3 SWAP2 SWAP1 PUSH2 0x3666 JUMP JUMPDEST PUSH1 0x40 MLOAD DUP1 SWAP2 SUB SWAP1 LOG2 CALLER PUSH0 SWAP1 DUP2 MSTORE PUSH1 0x1D PUSH1 0x20 MSTORE PUSH1 0x40 DUP2 KECCAK256 PUSH1 0x6 DUP2 ADD DUP12 SWAP1 SSTORE PUSH1 0x3 ADD DUP1 SLOAD DUP12 SWAP3 SWAP1 PUSH2 0x251D SWAP1 DUP5 SWAP1 PUSH2 0x32E7 JUMP JUMPDEST SWAP1 SWAP2 SSTORE POP POP CALLER PUSH0 SWAP1 DUP2 MSTORE PUSH1 0x1D PUSH1 0x20 MSTORE PUSH1 0x40 DUP2 KECCAK256 PUSH1 0x3 ADD SLOAD SWAP1 DUP2 SWAP1 SUB PUSH2 0x2568 JUMPI PUSH1 0x1 PUSH1 0x1 PUSH1 0xA0 SHL SUB DUP5 AND PUSH0 SWAP1 DUP2 MSTORE PUSH1 0x1D PUSH1 0x20 MSTORE PUSH1 0x40 DUP2 KECCAK256 PUSH1 0x2 ADD DUP1 SLOAD SWAP2 PUSH2 0x2562 DUP4 PUSH2 0x333B JUMP JUMPDEST SWAP2 SWAP1 POP SSTORE POP JUMPDEST POP POP POP POP POP POP POP POP POP POP JUMP JUMPDEST PUSH1 0x1A DUP2 DUP2 SLOAD DUP2 LT PUSH2 0x2583 JUMPI PUSH0 DUP1 REVERT JUMPDEST PUSH0 SWAP2 DUP3 MSTORE PUSH1 0x20 SWAP1 SWAP2 KECCAK256 ADD SLOAD PUSH1 0x1 PUSH1 0x1 PUSH1 0xA0 SHL SUB AND SWAP1 POP DUP2 JUMP JUMPDEST PUSH2 0x25A4 PUSH2 0x2BD6 JUMP JUMPDEST PUSH1 0x1 PUSH1 0x1 PUSH1 0xA0 SHL SUB DUP2 AND PUSH2 0x2609 JUMPI PUSH1 0x40 MLOAD PUSH3 0x461BCD PUSH1 0xE5 SHL DUP2 MSTORE PUSH1 0x20 PUSH1 0x4 DUP3 ADD MSTORE PUSH1 0x26 PUSH1 0x24 DUP3 ADD MSTORE PUSH32 0x4F776E61626C653A206E6577206F776E657220697320746865207A65726F2061 PUSH1 0x44 DUP3 ADD MSTORE PUSH6 0x646472657373 PUSH1 0xD0 SHL PUSH1 0x64 DUP3 ADD MSTORE PUSH1 0x84 ADD PUSH2 0x93B JUMP JUMPDEST PUSH2 0x2612 DUP2 PUSH2 0x2C2F JUMP JUMPDEST POP JUMP JUMPDEST PUSH0 SLOAD PUSH1 0x1 PUSH1 0x1 PUSH1 0xA0 SHL SUB AND CALLER EQ PUSH2 0x265A JUMPI PUSH1 0x40 MLOAD PUSH3 0x461BCD PUSH1 0xE5 SHL DUP2 MSTORE PUSH1 0x20 PUSH1 0x4 DUP3 ADD MSTORE PUSH1 0x9 PUSH1 0x24 DUP3 ADD MSTORE PUSH9 0x37B7363CA7BBB732B9 PUSH1 0xB9 SHL PUSH1 0x44 DUP3 ADD MSTORE PUSH1 0x64 ADD PUSH2 0x93B JUMP JUMPDEST PUSH0 SLOAD PUSH1 0x1 PUSH1 0x1 PUSH1 0xA0 SHL SUB AND PUSH2 0x8FC PUSH2 0x267A DUP4 PUSH8 0xDE0B6B3A7640000 PUSH2 0x34CF JUMP JUMPDEST PUSH1 0x40 MLOAD DUP2 ISZERO SWAP1 SWAP3 MUL SWAP2 PUSH0 DUP2 DUP2 DUP2 DUP6 DUP9 DUP9 CALL SWAP4 POP POP POP POP ISZERO DUP1 ISZERO PUSH2 0x269F JUMPI RETURNDATASIZE PUSH0 PUSH0 RETURNDATACOPY RETURNDATASIZE PUSH0 REVERT JUMPDEST POP POP JUMP JUMPDEST PUSH0 SLOAD PUSH1 0x1 PUSH1 0xB0 SHL SWAP1 DIV PUSH1 0xFF AND DUP1 PUSH2 0x26C3 JUMPI POP PUSH0 SLOAD PUSH1 0x1 PUSH1 0xA8 SHL SWAP1 DIV PUSH1 0xFF AND ISZERO JUMPDEST PUSH2 0x2726 JUMPI PUSH1 0x40 MLOAD PUSH3 0x461BCD PUSH1 0xE5 SHL DUP2 MSTORE PUSH1 0x20 PUSH1 0x4 DUP3 ADD MSTORE PUSH1 0x2E PUSH1 0x24 DUP3 ADD MSTORE PUSH32 0x496E697469616C697A61626C653A20636F6E747261637420697320616C726561 PUSH1 0x44 DUP3 ADD MSTORE PUSH14 0x191E481A5B9A5D1A585B1A5E9959 PUSH1 0x92 SHL PUSH1 0x64 DUP3 ADD MSTORE PUSH1 0x84 ADD PUSH2 0x93B JUMP JUMPDEST PUSH0 SLOAD PUSH1 0x1 PUSH1 0xB0 SHL SWAP1 DIV PUSH1 0xFF AND ISZERO DUP1 ISZERO PUSH2 0x274E JUMPI PUSH0 DUP1 SLOAD PUSH2 0xFFFF PUSH1 0xA8 SHL NOT AND PUSH2 0x101 PUSH1 0xA8 SHL OR SWAP1 SSTORE JUMPDEST PUSH1 0x4 DUP1 SLOAD PUSH1 0x1 PUSH1 0x1 PUSH1 0xA0 SHL SUB DUP1 DUP9 AND PUSH1 0x1 PUSH1 0x1 PUSH1 0xA0 SHL SUB NOT SWAP3 DUP4 AND OR SWAP1 SWAP3 SSTORE PUSH1 0x5 DUP1 SLOAD DUP8 DUP5 AND SWAP1 DUP4 AND OR SWAP1 SSTORE PUSH1 0x6 DUP1 SLOAD SWAP3 DUP7 AND SWAP3 SWAP1 SWAP2 AND SWAP2 SWAP1 SWAP2 OR SWAP1 SSTORE PUSH2 0x2794 DUP3 PUSH2 0x2609 JUMP JUMPDEST PUSH1 0x1F DUP1 SLOAD PUSH1 0x1 PUSH1 0x1 PUSH1 0xA0 SHL SUB NOT AND PUSH20 0x10ED43C718714EB63D5AA57B78B54704E256024E OR SWAP1 SSTORE PUSH1 0x40 DUP1 MLOAD PUSH2 0x140 DUP2 ADD DUP3 MSTORE PUSH1 0x64 DUP2 MSTORE PUSH1 0x32 PUSH1 0x20 DUP3 ADD MSTORE PUSH1 0x1E SWAP2 DUP2 ADD DUP3 SWAP1 MSTORE PUSH1 0x14 PUSH1 0x60 DUP3 ADD DUP2 SWAP1 MSTORE PUSH1 0xA PUSH1 0x80 DUP4 ADD DUP2 SWAP1 MSTORE PUSH1 0xA0 DUP4 ADD DUP3 SWAP1 MSTORE PUSH1 0xC0 DUP4 ADD DUP3 SWAP1 MSTORE PUSH1 0xE0 DUP4 ADD SWAP2 SWAP1 SWAP2 MSTORE PUSH2 0x100 DUP3 ADD DUP4 SWAP1 MSTORE PUSH2 0x120 DUP3 ADD SWAP3 SWAP1 SWAP3 MSTORE PUSH2 0x281E SWAP2 PUSH1 0x18 SWAP2 SWAP1 PUSH2 0x2D5B JUMP JUMPDEST POP PUSH9 0x340AAD21B3B700000 PUSH1 0xC SSTORE PUSH10 0x21E19E0C9BAB2400000 PUSH1 0xD SSTORE PUSH9 0x1A055690D9DB80000 PUSH1 0xB SSTORE PUSH1 0x2 PUSH1 0x9 SSTORE PUSH1 0xA PUSH1 0x15 SSTORE PUSH3 0x15180 PUSH1 0x12 SSTORE PUSH2 0x3E8 PUSH1 0x14 SSTORE PUSH2 0xBB8 PUSH32 0x9FAFCA4C9C0D5C2CBF85F49FD8AB8212430CE78C2A0CB75B51E0F9C4F9ACE003 SSTORE PUSH2 0x5DC PUSH32 0x1DD2F4B94A51CFB409E6E317A497F7CFD9013960A1C723F830C49C05A25F08A5 SSTORE PUSH2 0x2EE PUSH32 0x804A3D0621E73505F5F0C57C922F3E57D6B48E175551184EB12F80D7B4A9C783 SSTORE PUSH2 0x1F4 PUSH32 0xA952F8C0F40734B22D2328E0F7FF57EEFFEE78885B9CF2147FF941CC37E1C86E SSTORE PUSH2 0x190 PUSH32 0xB48400CB19CF39E58355A7C9FD856F9B5B7298C53856A6766C6B39755CCAFA79 SSTORE PUSH1 0x11 DUP1 SLOAD PUSH1 0xFF NOT AND SWAP1 SSTORE PUSH1 0x1 PUSH1 0x13 DUP2 DUP2 SSTORE PUSH1 0x1 PUSH1 0x1 PUSH1 0xA0 SHL SUB DUP5 AND PUSH0 DUP2 DUP2 MSTORE PUSH1 0x1D PUSH1 0x20 SWAP1 DUP2 MSTORE PUSH1 0x40 DUP3 KECCAK256 DUP6 SWAP1 SSTORE DUP5 DUP3 MSTORE PUSH1 0x1E SWAP1 MSTORE PUSH32 0x873299C6A6C39B8B92F01922BB622DF4A3236EA2876AAC2DA76F6C092CF7E98F DUP1 SLOAD PUSH1 0x1 PUSH1 0x1 PUSH1 0xA0 SHL SUB NOT AND SWAP1 SWAP3 OR SWAP1 SWAP2 SSTORE PUSH2 0x2987 DUP4 PUSH2 0x333B JUMP JUMPDEST SWAP2 SWAP1 POP SSTORE POP PUSH0 PUSH1 0x1 PUSH1 0x1 PUSH1 0xA0 SHL SUB AND DUP3 PUSH1 0x1 PUSH1 0x1 PUSH1 0xA0 SHL SUB AND PUSH0 MLOAD PUSH1 0x20 PUSH2 0x36BE PUSH0 CODECOPY PUSH0 MLOAD SWAP1 PUSH0 MSTORE PUSH1 0x1 PUSH0 PUSH1 0x40 MLOAD PUSH2 0x29E5 SWAP3 SWAP2 SWAP1 SWAP2 DUP3 MSTORE PUSH1 0x20 DUP3 ADD MSTORE PUSH1 0x60 PUSH1 0x40 DUP3 ADD DUP2 SWAP1 MSTORE PUSH1 0x5 SWAP1 DUP3 ADD MSTORE PUSH5 0x27BBB732B9 PUSH1 0xD9 SHL PUSH1 0x80 DUP3 ADD MSTORE PUSH1 0xA0 ADD SWAP1 JUMP JUMPDEST PUSH1 0x40 MLOAD DUP1 SWAP2 SUB SWAP1 LOG3 DUP1 ISZERO PUSH2 0x2A00 JUMPI PUSH0 DUP1 SLOAD PUSH1 0xFF PUSH1 0xB0 SHL NOT AND SWAP1 SSTORE JUMPDEST POP POP POP POP POP JUMP JUMPDEST PUSH2 0x2A10 DUP4 PUSH2 0x136F JUMP JUMPDEST ISZERO PUSH2 0x2A4C JUMPI PUSH1 0x40 MLOAD PUSH3 0x461BCD PUSH1 0xE5 SHL DUP2 MSTORE PUSH1 0x20 PUSH1 0x4 DUP3 ADD MSTORE PUSH1 0xC PUSH1 0x24 DUP3 ADD MSTORE PUSH12 0x557365722045786973747321 PUSH1 0xA0 SHL PUSH1 0x44 DUP3 ADD MSTORE PUSH1 0x64 ADD PUSH2 0x93B JUMP JUMPDEST PUSH2 0x2A55 DUP3 PUSH2 0x136F JUMP JUMPDEST PUSH2 0x2A98 JUMPI PUSH1 0x40 MLOAD PUSH3 0x461BCD PUSH1 0xE5 SHL DUP2 MSTORE PUSH1 0x20 PUSH1 0x4 DUP3 ADD MSTORE PUSH1 0x14 PUSH1 0x24 DUP3 ADD MSTORE PUSH20 0x5265666572726572206E6F742045786973747321 PUSH1 0x60 SHL PUSH1 0x44 DUP3 ADD MSTORE PUSH1 0x64 ADD PUSH2 0x93B JUMP JUMPDEST PUSH1 0x13 DUP1 SLOAD PUSH1 0x1 PUSH1 0x1 PUSH1 0xA0 SHL SUB DUP6 DUP2 AND PUSH0 DUP2 DUP2 MSTORE PUSH1 0x1D PUSH1 0x20 DUP2 DUP2 MSTORE PUSH1 0x40 DUP1 DUP5 KECCAK256 DUP8 DUP2 SSTORE SWAP7 DUP5 MSTORE PUSH1 0x1E DUP3 MSTORE DUP4 KECCAK256 DUP1 SLOAD PUSH1 0x1 PUSH1 0x1 PUSH1 0xA0 SHL SUB NOT SWAP1 DUP2 AND DUP7 OR SWAP1 SWAP2 SSTORE SWAP4 DUP4 MSTORE MSTORE PUSH1 0x1 DUP5 ADD DUP1 SLOAD SWAP1 SWAP3 AND SWAP3 DUP8 AND SWAP3 SWAP1 SWAP3 OR SWAP1 SSTORE PUSH1 0x9 SWAP1 SWAP2 ADD DUP2 SWAP1 SSTORE DUP2 SLOAD SWAP2 SWAP1 PUSH2 0x2B01 DUP4 PUSH2 0x333B JUMP JUMPDEST SWAP1 SWAP2 SSTORE POP POP PUSH1 0x1 PUSH1 0x1 PUSH1 0xA0 SHL SUB DUP3 AND PUSH0 SWAP1 DUP2 MSTORE PUSH1 0x1D PUSH1 0x20 MSTORE PUSH1 0x40 DUP2 KECCAK256 PUSH1 0x9 ADD DUP1 SLOAD SWAP2 PUSH2 0x2B2C DUP4 PUSH2 0x333B JUMP JUMPDEST SWAP1 SWAP2 SSTORE POP POP PUSH1 0x1 PUSH1 0x1 PUSH1 0xA0 SHL SUB DUP4 DUP2 AND PUSH0 DUP2 DUP2 MSTORE PUSH1 0x1D PUSH1 0x20 MSTORE PUSH1 0x40 DUP1 DUP3 KECCAK256 SLOAD SWAP4 DUP7 AND DUP1 DUP4 MSTORE SWAP2 DUP2 SWAP1 KECCAK256 SLOAD SWAP1 MLOAD SWAP2 SWAP4 PUSH0 MLOAD PUSH1 0x20 PUSH2 0x36BE PUSH0 CODECOPY PUSH0 MLOAD SWAP1 PUSH0 MSTORE SWAP3 PUSH2 0x2B75 SWAP3 SWAP1 DUP8 SWAP1 PUSH2 0x3696 JUMP JUMPDEST PUSH1 0x40 MLOAD DUP1 SWAP2 SUB SWAP1 LOG3 POP POP POP JUMP JUMPDEST PUSH2 0x2B8A PUSH2 0x2CC0 JUMP JUMPDEST PUSH0 DUP1 SLOAD PUSH1 0xFF PUSH1 0xA0 SHL NOT AND SWAP1 SSTORE PUSH32 0x5DB9EE0A495BF2E6FF9C91A7834C1BA4FDD244A5E8AA4E537BD38AEAE4B073AA CALLER JUMPDEST PUSH1 0x40 MLOAD PUSH1 0x1 PUSH1 0x1 PUSH1 0xA0 SHL SUB SWAP1 SWAP2 AND DUP2 MSTORE PUSH1 0x20 ADD PUSH1 0x40 MLOAD DUP1 SWAP2 SUB SWAP1 LOG1 JUMP JUMPDEST PUSH0 SLOAD PUSH1 0x1 PUSH1 0x1 PUSH1 0xA0 SHL SUB AND CALLER EQ PUSH2 0x136D JUMPI PUSH1 0x40 MLOAD PUSH3 0x461BCD PUSH1 0xE5 SHL DUP2 MSTORE PUSH1 0x20 PUSH1 0x4 DUP3 ADD DUP2 SWAP1 MSTORE PUSH1 0x24 DUP3 ADD MSTORE PUSH32 0x4F776E61626C653A2063616C6C6572206973206E6F7420746865206F776E6572 PUSH1 0x44 DUP3 ADD MSTORE PUSH1 0x64 ADD PUSH2 0x93B JUMP JUMPDEST PUSH0 DUP1 SLOAD PUSH1 0x1 PUSH1 0x1 PUSH1 0xA0 SHL SUB DUP4 DUP2 AND PUSH1 0x1 PUSH1 0x1 PUSH1 0xA0 SHL SUB NOT DUP4 AND DUP2 OR DUP5 SSTORE PUSH1 0x40 MLOAD SWAP2 SWAP1 SWAP3 AND SWAP3 DUP4 SWAP2 PUSH32 0x8BE0079C531659141344CD1FD0A4F28419497F9722A3DAAFE3B4186F6B6457E0 SWAP2 SWAP1 LOG3 POP POP JUMP JUMPDEST PUSH2 0x2C86 PUSH2 0x2D0F JUMP JUMPDEST PUSH0 DUP1 SLOAD PUSH1 0xFF PUSH1 0xA0 SHL NOT AND PUSH1 0x1 PUSH1 0xA0 SHL OR SWAP1 SSTORE PUSH32 0x62E78CEA01BEE320CD4E420270B5EA74000D11B0C9F74754EBDBFC544B05A258 PUSH2 0x2BB9 CALLER SWAP1 JUMP JUMPDEST PUSH0 SLOAD PUSH1 0x1 PUSH1 0xA0 SHL SWAP1 DIV PUSH1 0xFF AND PUSH2 0x136D JUMPI PUSH1 0x40 MLOAD PUSH3 0x461BCD PUSH1 0xE5 SHL DUP2 MSTORE PUSH1 0x20 PUSH1 0x4 DUP3 ADD MSTORE PUSH1 0x14 PUSH1 0x24 DUP3 ADD MSTORE PUSH20 0x14185D5CD8589B194E881B9BDD081C185D5CD959 PUSH1 0x62 SHL PUSH1 0x44 DUP3 ADD MSTORE PUSH1 0x64 ADD PUSH2 0x93B JUMP JUMPDEST PUSH0 SLOAD PUSH1 0x1 PUSH1 0xA0 SHL SWAP1 DIV PUSH1 0xFF AND ISZERO PUSH2 0x136D JUMPI PUSH1 0x40 MLOAD PUSH3 0x461BCD PUSH1 0xE5 SHL DUP2 MSTORE PUSH1 0x20 PUSH1 0x4 DUP3 ADD MSTORE PUSH1 0x10 PUSH1 0x24 DUP3 ADD MSTORE PUSH16 0x14185D5CD8589B194E881C185D5CD959 PUSH1 0x82 SHL PUSH1 0x44 DUP3 ADD MSTORE PUSH1 0x64 ADD PUSH2 0x93B JUMP JUMPDEST DUP3 DUP1 SLOAD DUP3 DUP3 SSTORE SWAP1 PUSH0 MSTORE PUSH1 0x20 PUSH0 KECCAK256 SWAP1 DUP2 ADD SWAP3 DUP3 ISZERO PUSH2 0x2D99 JUMPI SWAP2 PUSH1 0x20 MUL DUP3 ADD JUMPDEST DUP3 DUP2 GT ISZERO PUSH2 0x2D99 JUMPI DUP3 MLOAD DUP3 SWAP1 PUSH1 0xFF AND SWAP1 SSTORE SWAP2 PUSH1 0x20 ADD SWAP2 SWAP1 PUSH1 0x1 ADD SWAP1 PUSH2 0x2D79 JUMP JUMPDEST POP PUSH2 0x2DA5 SWAP3 SWAP2 POP PUSH2 0x2DA9 JUMP JUMPDEST POP SWAP1 JUMP JUMPDEST JUMPDEST DUP1 DUP3 GT ISZERO PUSH2 0x2DA5 JUMPI PUSH0 DUP2 SSTORE PUSH1 0x1 ADD PUSH2 0x2DAA JUMP JUMPDEST PUSH0 PUSH1 0x20 DUP3 DUP5 SUB SLT ISZERO PUSH2 0x2DCD JUMPI PUSH0 PUSH0 REVERT JUMPDEST POP CALLDATALOAD SWAP2 SWAP1 POP JUMP JUMPDEST PUSH1 0x1 PUSH1 0x1 PUSH1 0xA0 SHL SUB DUP2 AND DUP2 EQ PUSH2 0x2612 JUMPI PUSH0 PUSH0 REVERT JUMPDEST PUSH0 PUSH0 PUSH1 0x40 DUP4 DUP6 SUB SLT ISZERO PUSH2 0x2DF9 JUMPI PUSH0 PUSH0 REVERT JUMPDEST DUP3 CALLDATALOAD PUSH2 0x2E04 DUP2 PUSH2 0x2DD4 JUMP JUMPDEST SWAP2 POP PUSH1 0x20 DUP4 ADD CALLDATALOAD PUSH2 0x2E14 DUP2 PUSH2 0x2DD4 JUMP JUMPDEST DUP1 SWAP2 POP POP SWAP3 POP SWAP3 SWAP1 POP JUMP JUMPDEST PUSH0 PUSH0 PUSH0 PUSH1 0x60 DUP5 DUP7 SUB SLT ISZERO PUSH2 0x2E31 JUMPI PUSH0 PUSH0 REVERT JUMPDEST DUP4 CALLDATALOAD SWAP3 POP PUSH1 0x20 DUP5 ADD CALLDATALOAD SWAP2 POP PUSH1 0x40 DUP5 ADD CALLDATALOAD PUSH2 0x2E4A DUP2 PUSH2 0x2DD4 JUMP JUMPDEST DUP1 SWAP2 POP POP SWAP3 POP SWAP3 POP SWAP3 JUMP JUMPDEST PUSH0 PUSH1 0x20 DUP3 DUP5 SUB SLT ISZERO PUSH2 0x2E65 JUMPI PUSH0 PUSH0 REVERT JUMPDEST DUP2 CALLDATALOAD PUSH2 0x2E70 DUP2 PUSH2 0x2DD4 JUMP JUMPDEST SWAP4 SWAP3 POP POP POP JUMP JUMPDEST PUSH4 0x4E487B71 PUSH1 0xE0 SHL PUSH0 MSTORE PUSH1 0x41 PUSH1 0x4 MSTORE PUSH1 0x24 PUSH0 REVERT JUMPDEST PUSH1 0x40 MLOAD PUSH1 0x1F DUP3 ADD PUSH1 0x1F NOT AND DUP2 ADD PUSH8 0xFFFFFFFFFFFFFFFF DUP2 GT DUP3 DUP3 LT OR ISZERO PUSH2 0x2EB4 JUMPI PUSH2 0x2EB4 PUSH2 0x2E77 JUMP JUMPDEST PUSH1 0x40 MSTORE SWAP2 SWAP1 POP JUMP JUMPDEST PUSH0 PUSH8 0xFFFFFFFFFFFFFFFF DUP3 GT ISZERO PUSH2 0x2ED5 JUMPI PUSH2 0x2ED5 PUSH2 0x2E77 JUMP JUMPDEST POP PUSH1 0x5 SHL PUSH1 0x20 ADD SWAP1 JUMP JUMPDEST PUSH0 PUSH1 0x20 DUP3 DUP5 SUB SLT ISZERO PUSH2 0x2EEF JUMPI PUSH0 PUSH0 REVERT JUMPDEST DUP2 CALLDATALOAD PUSH8 0xFFFFFFFFFFFFFFFF DUP2 GT ISZERO PUSH2 0x2F05 JUMPI PUSH0 PUSH0 REVERT JUMPDEST DUP3 ADD PUSH1 0x1F DUP2 ADD DUP5 SGT PUSH2 0x2F15 JUMPI PUSH0 PUSH0 REVERT JUMPDEST DUP1 CALLDATALOAD PUSH2 0x2F28 PUSH2 0x2F23 DUP3 PUSH2 0x2EBC JUMP JUMPDEST PUSH2 0x2E8B JUMP JUMPDEST DUP1 DUP3 DUP3 MSTORE PUSH1 0x20 DUP3 ADD SWAP2 POP PUSH1 0x20 DUP4 PUSH1 0x5 SHL DUP6 ADD ADD SWAP3 POP DUP7 DUP4 GT ISZERO PUSH2 0x2F49 JUMPI PUSH0 PUSH0 REVERT JUMPDEST PUSH1 0x20 DUP5 ADD SWAP4 POP JUMPDEST DUP3 DUP5 LT ISZERO PUSH2 0x2F74 JUMPI DUP4 CALLDATALOAD PUSH2 0x2F63 DUP2 PUSH2 0x2DD4 JUMP JUMPDEST DUP3 MSTORE PUSH1 0x20 SWAP4 DUP5 ADD SWAP4 SWAP1 SWAP2 ADD SWAP1 PUSH2 0x2F50 JUMP JUMPDEST SWAP7 SWAP6 POP POP POP POP POP POP JUMP JUMPDEST DUP1 CALLDATALOAD PUSH2 0x2F89 DUP2 PUSH2 0x2DD4 JUMP JUMPDEST SWAP2 SWAP1 POP JUMP JUMPDEST PUSH0 PUSH0 PUSH1 0x40 DUP4 DUP6 SUB SLT ISZERO PUSH2 0x2F9F JUMPI PUSH0 PUSH0 REVERT JUMPDEST DUP3 CALLDATALOAD SWAP2 POP PUSH1 0x20 DUP4 ADD CALLDATALOAD PUSH2 0x2E14 DUP2 PUSH2 0x2DD4 JUMP JUMPDEST PUSH0 DUP3 PUSH1 0x1F DUP4 ADD SLT PUSH2 0x2FC0 JUMPI PUSH0 PUSH0 REVERT JUMPDEST DUP2 CALLDATALOAD PUSH2 0x2FCE PUSH2 0x2F23 DUP3 PUSH2 0x2EBC JUMP JUMPDEST DUP1 DUP3 DUP3 MSTORE PUSH1 0x20 DUP3 ADD SWAP2 POP PUSH1 0x20 DUP4 PUSH1 0x5 SHL DUP7 ADD ADD SWAP3 POP DUP6 DUP4 GT ISZERO PUSH2 0x2FEF JUMPI PUSH0 PUSH0 REVERT JUMPDEST PUSH1 0x20 DUP6 ADD JUMPDEST DUP4 DUP2 LT ISZERO PUSH2 0x300C JUMPI DUP1 CALLDATALOAD DUP4 MSTORE PUSH1 0x20 SWAP3 DUP4 ADD SWAP3 ADD PUSH2 0x2FF4 JUMP JUMPDEST POP SWAP6 SWAP5 POP POP POP POP POP JUMP JUMPDEST PUSH0 PUSH0 PUSH0 PUSH0 PUSH1 0x80 DUP6 DUP8 SUB SLT ISZERO PUSH2 0x3029 JUMPI PUSH0 PUSH0 REVERT JUMPDEST DUP5 CALLDATALOAD PUSH8 0xFFFFFFFFFFFFFFFF DUP2 GT ISZERO PUSH2 0x303F JUMPI PUSH0 PUSH0 REVERT JUMPDEST DUP6 ADD PUSH1 0x1F DUP2 ADD DUP8 SGT PUSH2 0x304F JUMPI PUSH0 PUSH0 REVERT JUMPDEST DUP1 CALLDATALOAD PUSH2 0x305D PUSH2 0x2F23 DUP3 PUSH2 0x2EBC JUMP JUMPDEST DUP1 DUP3 DUP3 MSTORE PUSH1 0x20 DUP3 ADD SWAP2 POP PUSH1 0x20 DUP4 PUSH1 0x5 SHL DUP6 ADD ADD SWAP3 POP DUP10 DUP4 GT ISZERO PUSH2 0x307E JUMPI PUSH0 PUSH0 REVERT JUMPDEST PUSH1 0x20 DUP5 ADD SWAP4 POP JUMPDEST DUP3 DUP5 LT ISZERO PUSH2 0x30A9 JUMPI DUP4 CALLDATALOAD PUSH2 0x3098 DUP2 PUSH2 0x2DD4 JUMP JUMPDEST DUP3 MSTORE PUSH1 0x20 SWAP4 DUP5 ADD SWAP4 SWAP1 SWAP2 ADD SWAP1 PUSH2 0x3085 JUMP JUMPDEST SWAP7 POP POP POP POP PUSH1 0x20 DUP6 ADD CALLDATALOAD PUSH8 0xFFFFFFFFFFFFFFFF DUP2 GT ISZERO PUSH2 0x30C7 JUMPI PUSH0 PUSH0 REVERT JUMPDEST PUSH2 0x30D3 DUP8 DUP3 DUP9 ADD PUSH2 0x2FB1 JUMP JUMPDEST SWAP4 POP POP PUSH1 0x40 DUP6 ADD CALLDATALOAD SWAP2 POP PUSH2 0x30E9 PUSH1 0x60 DUP7 ADD PUSH2 0x2F7E JUMP JUMPDEST SWAP1 POP SWAP3 SWAP6 SWAP2 SWAP5 POP SWAP3 POP JUMP JUMPDEST PUSH0 PUSH0 PUSH0 PUSH0 PUSH1 0x80 DUP6 DUP8 SUB SLT ISZERO PUSH2 0x3107 JUMPI PUSH0 PUSH0 REVERT JUMPDEST DUP5 CALLDATALOAD PUSH2 0x3112 DUP2 PUSH2 0x2DD4 JUMP JUMPDEST SWAP4 POP PUSH1 0x20 DUP6 ADD CALLDATALOAD PUSH2 0x3122 DUP2 PUSH2 0x2DD4 JUMP JUMPDEST SWAP3 POP PUSH1 0x40 DUP6 ADD CALLDATALOAD PUSH2 0x3132 DUP2 PUSH2 0x2DD4 JUMP JUMPDEST SWAP2 POP PUSH1 0x60 DUP6 ADD CALLDATALOAD PUSH2 0x3142 DUP2 PUSH2 0x2DD4 JUMP JUMPDEST SWAP4 SWAP7 SWAP3 SWAP6 POP SWAP1 SWAP4 POP POP JUMP JUMPDEST PUSH1 0x20 DUP1 DUP3 MSTORE PUSH1 0x14 SWAP1 DUP3 ADD MSTORE PUSH20 0x4473636C61623A20557365722045786973747321 PUSH1 0x60 SHL PUSH1 0x40 DUP3 ADD MSTORE PUSH1 0x60 ADD SWAP1 JUMP JUMPDEST PUSH0 PUSH1 0x20 DUP3 DUP5 SUB SLT ISZERO PUSH2 0x318B JUMPI PUSH0 PUSH0 REVERT JUMPDEST POP MLOAD SWAP2 SWAP1 POP JUMP JUMPDEST PUSH1 0x1 PUSH1 0x1 PUSH1 0xA0 SHL SUB SWAP4 DUP5 AND DUP2 MSTORE SWAP2 SWAP1 SWAP3 AND PUSH1 0x20 DUP3 ADD MSTORE PUSH1 0x40 DUP2 ADD SWAP2 SWAP1 SWAP2 MSTORE PUSH1 0x60 ADD SWAP1 JUMP JUMPDEST PUSH0 PUSH1 0x20 DUP3 DUP5 SUB SLT ISZERO PUSH2 0x31C6 JUMPI PUSH0 PUSH0 REVERT JUMPDEST DUP2 MLOAD DUP1 ISZERO ISZERO DUP2 EQ PUSH2 0x2E70 JUMPI PUSH0 PUSH0 REVERT JUMPDEST PUSH4 0x4E487B71 PUSH1 0xE0 SHL PUSH0 MSTORE PUSH1 0x32 PUSH1 0x4 MSTORE PUSH1 0x24 PUSH0 REVERT JUMPDEST PUSH0 DUP2 MLOAD DUP1 DUP5 MSTORE PUSH1 0x20 DUP5 ADD SWAP4 POP PUSH1 0x20 DUP4 ADD PUSH0 JUMPDEST DUP3 DUP2 LT ISZERO PUSH2 0x3222 JUMPI DUP2 MLOAD PUSH1 0x1 PUSH1 0x1 PUSH1 0xA0 SHL SUB AND DUP7 MSTORE PUSH1 0x20 SWAP6 DUP7 ADD SWAP6 SWAP1 SWAP2 ADD SWAP1 PUSH1 0x1 ADD PUSH2 0x31FB JUMP JUMPDEST POP SWAP4 SWAP5 SWAP4 POP POP POP POP JUMP JUMPDEST DUP3 DUP2 MSTORE PUSH1 0x40 PUSH1 0x20 DUP3 ADD MSTORE PUSH0 PUSH2 0x3244 PUSH1 0x40 DUP4 ADD DUP5 PUSH2 0x31E9 JUMP JUMPDEST SWAP5 SWAP4 POP POP POP POP JUMP JUMPDEST PUSH0 PUSH1 0x20 DUP3 DUP5 SUB SLT ISZERO PUSH2 0x325C JUMPI PUSH0 PUSH0 REVERT JUMPDEST DUP2 MLOAD PUSH8 0xFFFFFFFFFFFFFFFF DUP2 GT ISZERO PUSH2 0x3272 JUMPI PUSH0 PUSH0 REVERT JUMPDEST DUP3 ADD PUSH1 0x1F DUP2 ADD DUP5 SGT PUSH2 0x3282 JUMPI PUSH0 PUSH0 REVERT JUMPDEST DUP1 MLOAD PUSH2 0x3290 PUSH2 0x2F23 DUP3 PUSH2 0x2EBC JUMP JUMPDEST DUP1 DUP3 DUP3 MSTORE PUSH1 0x20 DUP3 ADD SWAP2 POP PUSH1 0x20 DUP4 PUSH1 0x5 SHL DUP6 ADD ADD SWAP3 POP DUP7 DUP4 GT ISZERO PUSH2 0x32B1 JUMPI PUSH0 PUSH0 REVERT JUMPDEST PUSH1 0x20 DUP5 ADD SWAP4 POP JUMPDEST DUP3 DUP5 LT ISZERO PUSH2 0x2F74 JUMPI DUP4 MLOAD DUP3 MSTORE PUSH1 0x20 SWAP4 DUP5 ADD SWAP4 SWAP1 SWAP2 ADD SWAP1 PUSH2 0x32B8 JUMP JUMPDEST PUSH4 0x4E487B71 PUSH1 0xE0 SHL PUSH0 MSTORE PUSH1 0x11 PUSH1 0x4 MSTORE PUSH1 0x24 PUSH0 REVERT JUMPDEST DUP1 DUP3 ADD DUP1 DUP3 GT ISZERO PUSH2 0x32FA JUMPI PUSH2 0x32FA PUSH2 0x32D3 JUMP JUMPDEST SWAP3 SWAP2 POP POP JUMP JUMPDEST DUP6 DUP2 MSTORE DUP5 PUSH1 0x20 DUP3 ADD MSTORE PUSH1 0xA0 PUSH1 0x40 DUP3 ADD MSTORE PUSH0 PUSH2 0x331E PUSH1 0xA0 DUP4 ADD DUP7 PUSH2 0x31E9 JUMP JUMPDEST PUSH1 0x1 PUSH1 0x1 PUSH1 0xA0 SHL SUB SWAP5 SWAP1 SWAP5 AND PUSH1 0x60 DUP4 ADD MSTORE POP PUSH1 0x80 ADD MSTORE SWAP4 SWAP3 POP POP POP JUMP JUMPDEST PUSH0 PUSH1 0x1 DUP3 ADD PUSH2 0x334C JUMPI PUSH2 0x334C PUSH2 0x32D3 JUMP JUMPDEST POP PUSH1 0x1 ADD SWAP1 JUMP JUMPDEST DUP3 DUP2 MSTORE DUP2 PUSH1 0x20 DUP3 ADD MSTORE PUSH1 0x60 PUSH1 0x40 DUP3 ADD MSTORE PUSH0 PUSH2 0x3244 PUSH1 0x60 DUP4 ADD PUSH1 0x4 DUP2 MSTORE PUSH4 0x1554D115 PUSH1 0xE2 SHL PUSH1 0x20 DUP3 ADD MSTORE PUSH1 0x40 ADD SWAP1 JUMP JUMPDEST PUSH1 0x20 DUP1 DUP3 MSTORE PUSH1 0x18 SWAP1 DUP3 ADD MSTORE PUSH32 0x4473636C61623A2055736572206E6F7420457869737473210000000000000000 PUSH1 0x40 DUP3 ADD MSTORE PUSH1 0x60 ADD SWAP1 JUMP JUMPDEST PUSH1 0x20 DUP1 DUP3 MSTORE PUSH1 0x19 SWAP1 DUP3 ADD MSTORE PUSH32 0x4D696E696D756D2041637469766174696F6E2069732024363000000000000000 PUSH1 0x40 DUP3 ADD MSTORE PUSH1 0x60 ADD SWAP1 JUMP JUMPDEST PUSH1 0x20 DUP1 DUP3 MSTORE PUSH1 0x1C SWAP1 DUP3 ADD MSTORE PUSH32 0x4D6178696D756D2041637469766174696F6E2069732024313030303000000000 PUSH1 0x40 DUP3 ADD MSTORE PUSH1 0x60 ADD SWAP1 JUMP JUMPDEST PUSH1 0x20 DUP1 DUP3 MSTORE PUSH1 0x2B SWAP1 DUP3 ADD MSTORE PUSH32 0x496E2046697820706C616E206F6E6C79205553445420696E766573746D656E74 PUSH1 0x40 DUP3 ADD MSTORE PUSH11 0x81A5CC8185B1B1BDDD959 PUSH1 0xAA SHL PUSH1 0x60 DUP3 ADD MSTORE PUSH1 0x80 ADD SWAP1 JUMP JUMPDEST PUSH1 0x20 DUP1 DUP3 MSTORE PUSH1 0x37 SWAP1 DUP3 ADD MSTORE PUSH32 0x526520496E766573746D656E742053686F756C6420457175616C2F4772656174 PUSH1 0x40 DUP3 ADD MSTORE PUSH32 0x6572207468616E206C61737420496E766573746D656E74000000000000000000 PUSH1 0x60 DUP3 ADD MSTORE PUSH1 0x80 ADD SWAP1 JUMP JUMPDEST DUP1 DUP3 MUL DUP2 ISZERO DUP3 DUP3 DIV DUP5 EQ OR PUSH2 0x32FA JUMPI PUSH2 0x32FA PUSH2 0x32D3 JUMP JUMPDEST PUSH0 DUP3 PUSH2 0x3500 JUMPI PUSH4 0x4E487B71 PUSH1 0xE0 SHL PUSH0 MSTORE PUSH1 0x12 PUSH1 0x4 MSTORE PUSH1 0x24 PUSH0 REVERT JUMPDEST POP DIV SWAP1 JUMP JUMPDEST PUSH0 DUP2 MLOAD DUP1 DUP5 MSTORE DUP1 PUSH1 0x20 DUP5 ADD PUSH1 0x20 DUP7 ADD MCOPY PUSH0 PUSH1 0x20 DUP3 DUP7 ADD ADD MSTORE PUSH1 0x20 PUSH1 0x1F NOT PUSH1 0x1F DUP4 ADD AND DUP6 ADD ADD SWAP2 POP POP SWAP3 SWAP2 POP POP JUMP JUMPDEST DUP5 DUP2 MSTORE DUP4 PUSH1 0x20 DUP3 ADD MSTORE PUSH1 0xA0 PUSH1 0x40 DUP3 ADD MSTORE PUSH0 PUSH2 0x3561 PUSH1 0xA0 DUP4 ADD PUSH1 0x3 DUP2 MSTORE PUSH3 0x445343 PUSH1 0xE8 SHL PUSH1 0x20 DUP3 ADD MSTORE PUSH1 0x40 ADD SWAP1 JUMP JUMPDEST DUP3 DUP2 SUB PUSH1 0x60 DUP5 ADD MSTORE PUSH2 0x3573 DUP2 DUP7 PUSH2 0x3505 JUMP JUMPDEST SWAP2 POP POP DUP3 PUSH1 0x80 DUP4 ADD MSTORE SWAP6 SWAP5 POP POP POP POP POP JUMP JUMPDEST PUSH1 0x20 DUP1 DUP3 MSTORE PUSH1 0x21 SWAP1 DUP3 ADD MSTORE PUSH32 0x466F7262696464656E21204F6E6C79204F70657261746F722043616E2043616C PUSH1 0x40 DUP3 ADD MSTORE PUSH1 0x1B PUSH1 0xFA SHL PUSH1 0x60 DUP3 ADD MSTORE PUSH1 0x80 ADD SWAP1 JUMP JUMPDEST DUP3 DUP2 MSTORE DUP2 PUSH1 0x20 DUP3 ADD MSTORE PUSH1 0x60 PUSH1 0x40 DUP3 ADD MSTORE PUSH0 PUSH2 0x3244 PUSH1 0x60 DUP4 ADD PUSH1 0x5 DUP2 MSTORE PUSH5 0x7374445343 PUSH1 0xD8 SHL PUSH1 0x20 DUP3 ADD MSTORE PUSH1 0x40 ADD SWAP1 JUMP JUMPDEST DUP5 DUP2 MSTORE DUP4 PUSH1 0x20 DUP3 ADD MSTORE PUSH1 0xA0 PUSH1 0x40 DUP3 ADD MSTORE PUSH0 PUSH2 0x3561 PUSH1 0xA0 DUP4 ADD PUSH1 0x4 DUP2 MSTORE PUSH4 0x1554D115 PUSH1 0xE2 SHL PUSH1 0x20 DUP3 ADD MSTORE PUSH1 0x40 ADD SWAP1 JUMP JUMPDEST DUP3 DUP2 MSTORE DUP2 PUSH1 0x20 DUP3 ADD MSTORE PUSH1 0x60 PUSH1 0x40 DUP3 ADD MSTORE PUSH0 PUSH2 0x3244 PUSH1 0x60 DUP4 ADD PUSH1 0x3 DUP2 MSTORE PUSH3 0x445343 PUSH1 0xE8 SHL PUSH1 0x20 DUP3 ADD MSTORE PUSH1 0x40 ADD SWAP1 JUMP JUMPDEST DUP2 DUP2 SUB DUP2 DUP2 GT ISZERO PUSH2 0x32FA JUMPI PUSH2 0x32FA PUSH2 0x32D3 JUMP JUMPDEST DUP5 DUP2 MSTORE DUP4 PUSH1 0x20 DUP3 ADD MSTORE PUSH1 0xA0 PUSH1 0x40 DUP3 ADD MSTORE PUSH0 PUSH2 0x3561 PUSH1 0xA0 DUP4 ADD PUSH1 0x5 DUP2 MSTORE PUSH5 0x7374445343 PUSH1 0xD8 SHL PUSH1 0x20 DUP3 ADD MSTORE PUSH1 0x40 ADD SWAP1 JUMP JUMPDEST DUP4 DUP2 MSTORE DUP3 PUSH1 0x20 DUP3 ADD MSTORE PUSH1 0x60 PUSH1 0x40 DUP3 ADD MSTORE PUSH0 PUSH2 0x36B4 PUSH1 0x60 DUP4 ADD DUP5 PUSH2 0x3505 JUMP JUMPDEST SWAP6 SWAP5 POP POP POP POP POP JUMP INVALID TSTORE CREATE2 0xC5 DUP9 0xE2 0x4E DUP1 0xDD STATICCALL 0x21 PUSH7 0xA642D3FE27393F ADDMOD 0x22 DUP14 JUMPDEST SWAP1 CALLER GT SWAP8 0x28 0x24 EXTSTATICCALL 0xD0 0xD6 SMOD LOG2 PUSH5 0x6970667358 0x22 SLT KECCAK256 RETF CHAINID PUSH10 0xD26A4F35B03BCDF5951C 0xCF 0x2A MULMOD 0xC7 0xA7 0xF6 SWAP10 0x2E PUSH22 0xACB73B78EA5A32EDBDA364736F6C634300081E003300 "
		},
		"gasEstimates": {
			"creation": {
				"codeDepositCost": "2819800",
				"executionCost": "25180",
				"totalCost": "2844980"
			},
			"external": {
				"DSC()": "2381",
				"LASTLEVEL()": "2351",
				"PERCENT_DIVIDER()": "2440",
				"TIME_STEP()": "2373",
				"USDT()": "2491",
				"admin()": "2424",
				"adminAchivers(uint256)": "4700",
				"airdropAmount()": "2415",
				"airdropLevelShares(uint256)": "4608",
				"airdropPerMonth()": "2439",
				"airdropUserCount()": "2374",
				"getCurrentPrice(address[])": "infinite",
				"getPriceFromUniswapV2(uint256)": "infinite",
				"idToAddress(uint256)": "2520",
				"initialize(address,address,address,address)": "infinite",
				"isAdminAchived(address)": "2678",
				"isAirdropPaused()": "2376",
				"isUserExists(address)": "2664",
				"joiningFee()": "2416",
				"lastUserId()": "2395",
				"levelBonusShares(uint256)": "4717",
				"levelRoiPerDay()": "2416",
				"levelShare(uint256)": "2514",
				"maxStake()": "2350",
				"minStake()": "2417",
				"minWithdraw()": "2372",
				"multipler()": "2394",
				"multisendToken(address[],uint256[],uint256,address)": "infinite",
				"operator()": "2470",
				"owner()": "2418",
				"pause()": "infinite",
				"paused()": "2364",
				"registerbyDSC(address,address)": "infinite",
				"registerbystDSC(address,address)": "infinite",
				"registrationUSDT(address,address)": "infinite",
				"renounceOwnership()": "infinite",
				"roiPerDay()": "2438",
				"stDSC()": "2405",
				"stakeDSC(uint256,uint256,address)": "infinite",
				"stakeUSDT(uint256,uint256,address)": "infinite",
				"stakestDSC(uint256,uint256,address)": "infinite",
				"totalStaked()": "2417",
				"totalWithdrawal()": "2394",
				"transferOwnership(address)": "infinite",
				"uniswapRouter()": "2382",
				"unpause()": "infinite",
				"users(address)": "26169",
				"withdrawLost(uint256)": "infinite",
				"withdrawLostTokenFromBalance(uint256,address)": "infinite"
			},
			"internal": {
				"registration(address,address,string memory)": "infinite",
				"sendLevelIncome(address,uint256)": "infinite"
			}
		},
		"methodIdentifiers": {
			"DSC()": "c8804b7b",
			"LASTLEVEL()": "2dd4f9b0",
			"PERCENT_DIVIDER()": "29fc7bd8",
			"TIME_STEP()": "32bc298c",
			"USDT()": "c54e44eb",
			"admin()": "f851a440",
			"adminAchivers(uint256)": "eff4228a",
			"airdropAmount()": "fc2ea8a5",
			"airdropLevelShares(uint256)": "02121272",
			"airdropPerMonth()": "383143e5",
			"airdropUserCount()": "0da5a1b7",
			"getCurrentPrice(address[])": "78981741",
			"getPriceFromUniswapV2(uint256)": "1a454b92",
			"idToAddress(uint256)": "2a2d0c47",
			"initialize(address,address,address,address)": "f8c8765e",
			"isAdminAchived(address)": "578013e0",
			"isAirdropPaused()": "ca33fa3f",
			"isUserExists(address)": "509222cd",
			"joiningFee()": "6eeeaaa5",
			"lastUserId()": "348d4487",
			"levelBonusShares(uint256)": "82f4c6a6",
			"levelRoiPerDay()": "d8a04dfa",
			"levelShare(uint256)": "452b4729",
			"maxStake()": "ea1b28e0",
			"minStake()": "375b3c0a",
			"minWithdraw()": "cc3d2721",
			"multipler()": "99f584b3",
			"multisendToken(address[],uint256[],uint256,address)": "84412cc7",
			"operator()": "570ca735",
			"owner()": "8da5cb5b",
			"pause()": "8456cb59",
			"paused()": "5c975abb",
			"registerbyDSC(address,address)": "744b611b",
			"registerbystDSC(address,address)": "68a215a2",
			"registrationUSDT(address,address)": "117aea11",
			"renounceOwnership()": "715018a6",
			"roiPerDay()": "dc43f0e6",
			"stDSC()": "09fd9bca",
			"stakeDSC(uint256,uint256,address)": "39a93f35",
			"stakeUSDT(uint256,uint256,address)": "6b0ac432",
			"stakestDSC(uint256,uint256,address)": "d58ea276",
			"totalStaked()": "817b1cd2",
			"totalWithdrawal()": "6b56ee02",
			"transferOwnership(address)": "f2fde38b",
			"uniswapRouter()": "735de9f7",
			"unpause()": "3f4ba83a",
			"users(address)": "a87430ba",
			"withdrawLost(uint256)": "f3b2aa94",
			"withdrawLostTokenFromBalance(uint256,address)": "7b500564"
		}
	},
	"abi": [
		{
			"anonymous": false,
			"inputs": [
				{
					"indexed": true,
					"internalType": "address",
					"name": "investor",
					"type": "address"
				},
				{
					"indexed": false,
					"internalType": "uint256",
					"name": "netAmt",
					"type": "uint256"
				}
			],
			"name": "MemberPayment",
			"type": "event"
		},
		{
			"anonymous": false,
			"inputs": [
				{
					"indexed": true,
					"internalType": "address",
					"name": "previousOwner",
					"type": "address"
				},
				{
					"indexed": true,
					"internalType": "address",
					"name": "newOwner",
					"type": "address"
				}
			],
			"name": "OwnershipTransferred",
			"type": "event"
		},
		{
			"anonymous": false,
			"inputs": [
				{
					"indexed": false,
					"internalType": "address",
					"name": "account",
					"type": "address"
				}
			],
			"name": "Paused",
			"type": "event"
		},
		{
			"anonymous": false,
			"inputs": [
				{
					"indexed": true,
					"internalType": "address",
					"name": "user",
					"type": "address"
				},
				{
					"indexed": true,
					"internalType": "address",
					"name": "referrer",
					"type": "address"
				},
				{
					"indexed": false,
					"internalType": "uint256",
					"name": "userId",
					"type": "uint256"
				},
				{
					"indexed": false,
					"internalType": "uint256",
					"name": "referrerId",
					"type": "uint256"
				},
				{
					"indexed": false,
					"internalType": "string",
					"name": "regby",
					"type": "string"
				}
			],
			"name": "Registration",
			"type": "event"
		},
		{
			"anonymous": false,
			"inputs": [
				{
					"indexed": true,
					"internalType": "address",
					"name": "user",
					"type": "address"
				},
				{
					"indexed": false,
					"internalType": "uint256",
					"name": "amount",
					"type": "uint256"
				},
				{
					"indexed": false,
					"internalType": "uint256",
					"name": "token",
					"type": "uint256"
				},
				{
					"indexed": false,
					"internalType": "string",
					"name": "plan",
					"type": "string"
				},
				{
					"indexed": false,
					"internalType": "string",
					"name": "tyyp",
					"type": "string"
				},
				{
					"indexed": false,
					"internalType": "uint256",
					"name": "plantype",
					"type": "uint256"
				}
			],
			"name": "Stake",
			"type": "event"
		},
		{
			"anonymous": false,
			"inputs": [
				{
					"indexed": true,
					"internalType": "address",
					"name": "user",
					"type": "address"
				},
				{
					"indexed": false,
					"internalType": "uint256",
					"name": "amount",
					"type": "uint256"
				},
				{
					"indexed": false,
					"internalType": "uint256",
					"name": "token",
					"type": "uint256"
				},
				{
					"indexed": false,
					"internalType": "string",
					"name": "plan",
					"type": "string"
				}
			],
			"name": "ToppedUp",
			"type": "event"
		},
		{
			"anonymous": false,
			"inputs": [
				{
					"indexed": false,
					"internalType": "address",
					"name": "account",
					"type": "address"
				}
			],
			"name": "Unpaused",
			"type": "event"
		},
		{
			"inputs": [],
			"name": "DSC",
			"outputs": [
				{
					"internalType": "address",
					"name": "",
					"type": "address"
				}
			],
			"stateMutability": "view",
			"type": "function"
		},
		{
			"inputs": [],
			"name": "LASTLEVEL",
			"outputs": [
				{
					"internalType": "uint256",
					"name": "",
					"type": "uint256"
				}
			],
			"stateMutability": "view",
			"type": "function"
		},
		{
			"inputs": [],
			"name": "PERCENT_DIVIDER",
			"outputs": [
				{
					"internalType": "uint256",
					"name": "",
					"type": "uint256"
				}
			],
			"stateMutability": "view",
			"type": "function"
		},
		{
			"inputs": [],
			"name": "TIME_STEP",
			"outputs": [
				{
					"internalType": "uint256",
					"name": "",
					"type": "uint256"
				}
			],
			"stateMutability": "view",
			"type": "function"
		},
		{
			"inputs": [],
			"name": "USDT",
			"outputs": [
				{
					"internalType": "address",
					"name": "",
					"type": "address"
				}
			],
			"stateMutability": "view",
			"type": "function"
		},
		{
			"inputs": [],
			"name": "admin",
			"outputs": [
				{
					"internalType": "address",
					"name": "",
					"type": "address"
				}
			],
			"stateMutability": "view",
			"type": "function"
		},
		{
			"inputs": [
				{
					"internalType": "uint256",
					"name": "",
					"type": "uint256"
				}
			],
			"name": "adminAchivers",
			"outputs": [
				{
					"internalType": "address",
					"name": "",
					"type": "address"
				}
			],
			"stateMutability": "view",
			"type": "function"
		},
		{
			"inputs": [],
			"name": "airdropAmount",
			"outputs": [
				{
					"internalType": "uint256",
					"name": "",
					"type": "uint256"
				}
			],
			"stateMutability": "view",
			"type": "function"
		},
		{
			"inputs": [
				{
					"internalType": "uint256",
					"name": "",
					"type": "uint256"
				}
			],
			"name": "airdropLevelShares",
			"outputs": [
				{
					"internalType": "uint256",
					"name": "",
					"type": "uint256"
				}
			],
			"stateMutability": "view",
			"type": "function"
		},
		{
			"inputs": [],
			"name": "airdropPerMonth",
			"outputs": [
				{
					"internalType": "uint256",
					"name": "",
					"type": "uint256"
				}
			],
			"stateMutability": "view",
			"type": "function"
		},
		{
			"inputs": [],
			"name": "airdropUserCount",
			"outputs": [
				{
					"internalType": "uint256",
					"name": "",
					"type": "uint256"
				}
			],
			"stateMutability": "view",
			"type": "function"
		},
		{
			"inputs": [
				{
					"internalType": "address[]",
					"name": "path",
					"type": "address[]"
				}
			],
			"name": "getCurrentPrice",
			"outputs": [
				{
					"internalType": "uint256",
					"name": "",
					"type": "uint256"
				}
			],
			"stateMutability": "view",
			"type": "function"
		},
		{
			"inputs": [
				{
					"internalType": "uint256",
					"name": "amountUsd",
					"type": "uint256"
				}
			],
			"name": "getPriceFromUniswapV2",
			"outputs": [
				{
					"internalType": "uint256",
					"name": "",
					"type": "uint256"
				}
			],
			"stateMutability": "view",
			"type": "function"
		},
		{
			"inputs": [
				{
					"internalType": "uint256",
					"name": "",
					"type": "uint256"
				}
			],
			"name": "idToAddress",
			"outputs": [
				{
					"internalType": "address",
					"name": "",
					"type": "address"
				}
			],
			"stateMutability": "view",
			"type": "function"
		},
		{
			"inputs": [
				{
					"internalType": "address",
					"name": "_usdt",
					"type": "address"
				},
				{
					"internalType": "address",
					"name": "_dsc",
					"type": "address"
				},
				{
					"internalType": "address",
					"name": "_stdsc",
					"type": "address"
				},
				{
					"internalType": "address",
					"name": "_owner",
					"type": "address"
				}
			],
			"name": "initialize",
			"outputs": [],
			"stateMutability": "nonpayable",
			"type": "function"
		},
		{
			"inputs": [
				{
					"internalType": "address",
					"name": "",
					"type": "address"
				}
			],
			"name": "isAdminAchived",
			"outputs": [
				{
					"internalType": "bool",
					"name": "",
					"type": "bool"
				}
			],
			"stateMutability": "view",
			"type": "function"
		},
		{
			"inputs": [],
			"name": "isAirdropPaused",
			"outputs": [
				{
					"internalType": "bool",
					"name": "",
					"type": "bool"
				}
			],
			"stateMutability": "view",
			"type": "function"
		},
		{
			"inputs": [
				{
					"internalType": "address",
					"name": "user",
					"type": "address"
				}
			],
			"name": "isUserExists",
			"outputs": [
				{
					"internalType": "bool",
					"name": "",
					"type": "bool"
				}
			],
			"stateMutability": "view",
			"type": "function"
		},
		{
			"inputs": [],
			"name": "joiningFee",
			"outputs": [
				{
					"internalType": "uint256",
					"name": "",
					"type": "uint256"
				}
			],
			"stateMutability": "view",
			"type": "function"
		},
		{
			"inputs": [],
			"name": "lastUserId",
			"outputs": [
				{
					"internalType": "uint256",
					"name": "",
					"type": "uint256"
				}
			],
			"stateMutability": "view",
			"type": "function"
		},
		{
			"inputs": [
				{
					"internalType": "uint256",
					"name": "",
					"type": "uint256"
				}
			],
			"name": "levelBonusShares",
			"outputs": [
				{
					"internalType": "uint256",
					"name": "",
					"type": "uint256"
				}
			],
			"stateMutability": "view",
			"type": "function"
		},
		{
			"inputs": [],
			"name": "levelRoiPerDay",
			"outputs": [
				{
					"internalType": "uint256",
					"name": "",
					"type": "uint256"
				}
			],
			"stateMutability": "view",
			"type": "function"
		},
		{
			"inputs": [
				{
					"internalType": "uint256",
					"name": "",
					"type": "uint256"
				}
			],
			"name": "levelShare",
			"outputs": [
				{
					"internalType": "uint256",
					"name": "",
					"type": "uint256"
				}
			],
			"stateMutability": "view",
			"type": "function"
		},
		{
			"inputs": [],
			"name": "maxStake",
			"outputs": [
				{
					"internalType": "uint256",
					"name": "",
					"type": "uint256"
				}
			],
			"stateMutability": "view",
			"type": "function"
		},
		{
			"inputs": [],
			"name": "minStake",
			"outputs": [
				{
					"internalType": "uint256",
					"name": "",
					"type": "uint256"
				}
			],
			"stateMutability": "view",
			"type": "function"
		},
		{
			"inputs": [],
			"name": "minWithdraw",
			"outputs": [
				{
					"internalType": "uint256",
					"name": "",
					"type": "uint256"
				}
			],
			"stateMutability": "view",
			"type": "function"
		},
		{
			"inputs": [],
			"name": "multipler",
			"outputs": [
				{
					"internalType": "uint256",
					"name": "",
					"type": "uint256"
				}
			],
			"stateMutability": "view",
			"type": "function"
		},
		{
			"inputs": [
				{
					"internalType": "address payable[]",
					"name": "_contributors",
					"type": "address[]"
				},
				{
					"internalType": "uint256[]",
					"name": "_balances",
					"type": "uint256[]"
				},
				{
					"internalType": "uint256",
					"name": "totalQty",
					"type": "uint256"
				},
				{
					"internalType": "contract IERC20",
					"name": "_TKN",
					"type": "address"
				}
			],
			"name": "multisendToken",
			"outputs": [],
			"stateMutability": "payable",
			"type": "function"
		},
		{
			"inputs": [],
			"name": "operator",
			"outputs": [
				{
					"internalType": "address",
					"name": "",
					"type": "address"
				}
			],
			"stateMutability": "view",
			"type": "function"
		},
		{
			"inputs": [],
			"name": "owner",
			"outputs": [
				{
					"internalType": "address",
					"name": "",
					"type": "address"
				}
			],
			"stateMutability": "view",
			"type": "function"
		},
		{
			"inputs": [],
			"name": "pause",
			"outputs": [],
			"stateMutability": "nonpayable",
			"type": "function"
		},
		{
			"inputs": [],
			"name": "paused",
			"outputs": [
				{
					"internalType": "bool",
					"name": "",
					"type": "bool"
				}
			],
			"stateMutability": "view",
			"type": "function"
		},
		{
			"inputs": [
				{
					"internalType": "address",
					"name": "_user",
					"type": "address"
				},
				{
					"internalType": "address",
					"name": "_referral",
					"type": "address"
				}
			],
			"name": "registerbyDSC",
			"outputs": [],
			"stateMutability": "nonpayable",
			"type": "function"
		},
		{
			"inputs": [
				{
					"internalType": "address",
					"name": "_user",
					"type": "address"
				},
				{
					"internalType": "address",
					"name": "_referral",
					"type": "address"
				}
			],
			"name": "registerbystDSC",
			"outputs": [],
			"stateMutability": "nonpayable",
			"type": "function"
		},
		{
			"inputs": [
				{
					"internalType": "address",
					"name": "_user",
					"type": "address"
				},
				{
					"internalType": "address",
					"name": "_referral",
					"type": "address"
				}
			],
			"name": "registrationUSDT",
			"outputs": [],
			"stateMutability": "nonpayable",
			"type": "function"
		},
		{
			"inputs": [],
			"name": "renounceOwnership",
			"outputs": [],
			"stateMutability": "nonpayable",
			"type": "function"
		},
		{
			"inputs": [],
			"name": "roiPerDay",
			"outputs": [
				{
					"internalType": "uint256",
					"name": "",
					"type": "uint256"
				}
			],
			"stateMutability": "view",
			"type": "function"
		},
		{
			"inputs": [],
			"name": "stDSC",
			"outputs": [
				{
					"internalType": "address",
					"name": "",
					"type": "address"
				}
			],
			"stateMutability": "view",
			"type": "function"
		},
		{
			"inputs": [
				{
					"internalType": "uint256",
					"name": "amount",
					"type": "uint256"
				},
				{
					"internalType": "uint256",
					"name": "plan",
					"type": "uint256"
				},
				{
					"internalType": "address",
					"name": "_referral",
					"type": "address"
				}
			],
			"name": "stakeDSC",
			"outputs": [],
			"stateMutability": "nonpayable",
			"type": "function"
		},
		{
			"inputs": [
				{
					"internalType": "uint256",
					"name": "amount",
					"type": "uint256"
				},
				{
					"internalType": "uint256",
					"name": "plan",
					"type": "uint256"
				},
				{
					"internalType": "address",
					"name": "_referral",
					"type": "address"
				}
			],
			"name": "stakeUSDT",
			"outputs": [],
			"stateMutability": "nonpayable",
			"type": "function"
		},
		{
			"inputs": [
				{
					"internalType": "uint256",
					"name": "amount",
					"type": "uint256"
				},
				{
					"internalType": "uint256",
					"name": "plan",
					"type": "uint256"
				},
				{
					"internalType": "address",
					"name": "_referral",
					"type": "address"
				}
			],
			"name": "stakestDSC",
			"outputs": [],
			"stateMutability": "nonpayable",
			"type": "function"
		},
		{
			"inputs": [],
			"name": "totalStaked",
			"outputs": [
				{
					"internalType": "uint256",
					"name": "",
					"type": "uint256"
				}
			],
			"stateMutability": "view",
			"type": "function"
		},
		{
			"inputs": [],
			"name": "totalWithdrawal",
			"outputs": [
				{
					"internalType": "uint256",
					"name": "",
					"type": "uint256"
				}
			],
			"stateMutability": "view",
			"type": "function"
		},
		{
			"inputs": [
				{
					"internalType": "address",
					"name": "newOwner",
					"type": "address"
				}
			],
			"name": "transferOwnership",
			"outputs": [],
			"stateMutability": "nonpayable",
			"type": "function"
		},
		{
			"inputs": [],
			"name": "uniswapRouter",
			"outputs": [
				{
					"internalType": "contract IUniswapV2Router02",
					"name": "",
					"type": "address"
				}
			],
			"stateMutability": "view",
			"type": "function"
		},
		{
			"inputs": [],
			"name": "unpause",
			"outputs": [],
			"stateMutability": "nonpayable",
			"type": "function"
		},
		{
			"inputs": [
				{
					"internalType": "address",
					"name": "",
					"type": "address"
				}
			],
			"name": "users",
			"outputs": [
				{
					"internalType": "uint256",
					"name": "userId",
					"type": "uint256"
				},
				{
					"internalType": "address",
					"name": "referrer",
					"type": "address"
				},
				{
					"internalType": "uint256",
					"name": "partnerCount",
					"type": "uint256"
				},
				{
					"internalType": "uint256",
					"name": "totalStake",
					"type": "uint256"
				},
				{
					"internalType": "uint256",
					"name": "directBusiness",
					"type": "uint256"
				},
				{
					"internalType": "uint256",
					"name": "teamBusiness",
					"type": "uint256"
				},
				{
					"internalType": "uint256",
					"name": "lastinvest",
					"type": "uint256"
				},
				{
					"internalType": "uint256",
					"name": "rewTaken",
					"type": "uint256"
				},
				{
					"internalType": "uint256",
					"name": "stakecount",
					"type": "uint256"
				},
				{
					"internalType": "uint256",
					"name": "partnersCount",
					"type": "uint256"
				},
				{
					"internalType": "uint256",
					"name": "levelIncome",
					"type": "uint256"
				},
				{
					"internalType": "bool",
					"name": "onof",
					"type": "bool"
				}
			],
			"stateMutability": "view",
			"type": "function"
		},
		{
			"inputs": [
				{
					"internalType": "uint256",
					"name": "WithAmt",
					"type": "uint256"
				}
			],
			"name": "withdrawLost",
			"outputs": [],
			"stateMutability": "nonpayable",
			"type": "function"
		},
		{
			"inputs": [
				{
					"internalType": "uint256",
					"name": "QtyAmt",
					"type": "uint256"
				},
				{
					"internalType": "contract IERC20",
					"name": "_TOKEN",
					"type": "address"
				}
			],
			"name": "withdrawLostTokenFromBalance",
			"outputs": [],
			"stateMutability": "nonpayable",
			"type": "function"
		}
	]
}